{"abi":[{"type":"function","name":"ADDRESS_LEN_PREFIX","inputs":[],"outputs":[{"name":"","type":"bytes1","internalType":"bytes1"}],"stateMutability":"view"},{"type":"function","name":"B_IN_BYTES","inputs":[],"outputs":[{"name":"","type":"uint256","internalType":"uint256"}],"stateMutability":"view"},{"type":"function","name":"EIP2537_FIELD_ELEMENT_SIZE","inputs":[],"outputs":[{"name":"","type":"uint256","internalType":"uint256"}],"stateMutability":"view"},{"type":"function","name":"EIP2537_G1_POINT_SIZE","inputs":[],"outputs":[{"name":"","type":"uint256","internalType":"uint256"}],"stateMutability":"view"},{"type":"function","name":"EIP2537_G2_POINT_SIZE","inputs":[],"outputs":[{"name":"","type":"uint256","internalType":"uint256"}],"stateMutability":"view"},{"type":"function","name":"FIELD_ELEMENT_SIZE","inputs":[],"outputs":[{"name":"","type":"uint256","internalType":"uint256"}],"stateMutability":"view"},{"type":"function","name":"G1_ADD","inputs":[],"outputs":[{"name":"","type":"address","internalType":"address"}],"stateMutability":"view"},{"type":"function","name":"G1_GENERATOR","inputs":[],"outputs":[{"name":"","type":"bytes","internalType":"bytes"}],"stateMutability":"view"},{"type":"function","name":"G1_IDENTITY","inputs":[],"outputs":[{"name":"","type":"bytes","internalType":"bytes"}],"stateMutability":"view"},{"type":"function","name":"G1_IDENTITY_RAW","inputs":[],"outputs":[{"name":"","type":"bytes","internalType":"bytes"}],"stateMutability":"view"},{"type":"function","name":"G1_MUL","inputs":[],"outputs":[{"name":"","type":"address","internalType":"address"}],"stateMutability":"view"},{"type":"function","name":"G2_ADD","inputs":[],"outputs":[{"name":"","type":"address","internalType":"address"}],"stateMutability":"view"},{"type":"function","name":"G2_GENERATOR","inputs":[],"outputs":[{"name":"","type":"bytes","internalType":"bytes"}],"stateMutability":"view"},{"type":"function","name":"G2_GENERATOR_NEG","inputs":[],"outputs":[{"name":"","type":"bytes","internalType":"bytes"}],"stateMutability":"view"},{"type":"function","name":"G2_IDENTITY","inputs":[],"outputs":[{"name":"","type":"bytes","internalType":"bytes"}],"stateMutability":"view"},{"type":"function","name":"G2_IDENTITY_RAW","inputs":[],"outputs":[{"name":"","type":"bytes","internalType":"bytes"}],"stateMutability":"view"},{"type":"function","name":"G2_MUL","inputs":[],"outputs":[{"name":"","type":"address","internalType":"address"}],"stateMutability":"view"},{"type":"function","name":"HASH_TO_G1_DST","inputs":[],"outputs":[{"name":"","type":"bytes","internalType":"bytes"}],"stateMutability":"view"},{"type":"function","name":"I2OSP","inputs":[{"name":"x","type":"uint256","internalType":"uint256"},{"name":"xLen","type":"uint256","internalType":"uint256"}],"outputs":[{"name":"","type":"bytes","internalType":"bytes"}],"stateMutability":"pure"},{"type":"function","name":"L","inputs":[],"outputs":[{"name":"","type":"uint256","internalType":"uint256"}],"stateMutability":"view"},{"type":"function","name":"MAP_FP_TO_G1","inputs":[],"outputs":[{"name":"","type":"address","internalType":"address"}],"stateMutability":"view"},{"type":"function","name":"P","inputs":[],"outputs":[{"name":"","type":"bytes","internalType":"bytes"}],"stateMutability":"view"},{"type":"function","name":"PAIRING_CHECK","inputs":[],"outputs":[{"name":"","type":"address","internalType":"address"}],"stateMutability":"view"},{"type":"function","name":"POP_INTENT_PREFIX","inputs":[],"outputs":[{"name":"","type":"bytes5","internalType":"bytes5"}],"stateMutability":"view"},{"type":"function","name":"S_IN_BYTES","inputs":[],"outputs":[{"name":"","type":"uint256","internalType":"uint256"}],"stateMutability":"view"},{"type":"function","name":"addG1","inputs":[{"name":"point0","type":"bytes","internalType":"bytes"},{"name":"point1","type":"bytes","internalType":"bytes"}],"outputs":[{"name":"","type":"bytes","internalType":"bytes"}],"stateMutability":"view"},{"type":"function","name":"addG2","inputs":[{"name":"point0","type":"bytes","internalType":"bytes"},{"name":"point1","type":"bytes","internalType":"bytes"}],"outputs":[{"name":"","type":"bytes","internalType":"bytes"}],"stateMutability":"view"},{"type":"function","name":"decodeG1PointFromEIP2537","inputs":[{"name":"encodedPoint","type":"bytes","internalType":"bytes"}],"outputs":[{"name":"","type":"bytes","internalType":"bytes"}],"stateMutability":"pure"},{"type":"function","name":"decodeG2PointFromEIP2537","inputs":[{"name":"encodedPoint","type":"bytes","internalType":"bytes"}],"outputs":[{"name":"","type":"bytes","internalType":"bytes"}],"stateMutability":"pure"},{"type":"function","name":"eip2537BytesToFieldElement","inputs":[{"name":"paddedElement","type":"bytes","internalType":"bytes"},{"name":"paddedOffset","type":"uint256","internalType":"uint256"},{"name":"dest","type":"bytes","internalType":"bytes"},{"name":"destOffset","type":"uint256","internalType":"uint256"}],"outputs":[],"stateMutability":"pure"},{"type":"function","name":"encodeG1PointForEIP2537","inputs":[{"name":"uncompressedSignature","type":"bytes","internalType":"bytes"}],"outputs":[{"name":"","type":"bytes","internalType":"bytes"}],"stateMutability":"pure"},{"type":"function","name":"encodeG2PointForEIP2537","inputs":[{"name":"uncompressedPubkey","type":"bytes","internalType":"bytes"}],"outputs":[{"name":"","type":"bytes","internalType":"bytes"}],"stateMutability":"pure"},{"type":"function","name":"expandMessageXmd","inputs":[{"name":"message","type":"bytes","internalType":"bytes"},{"name":"dst","type":"bytes","internalType":"bytes"},{"name":"outputLen","type":"uint16","internalType":"uint16"}],"outputs":[{"name":"result","type":"bytes","internalType":"bytes"}],"stateMutability":"pure"},{"type":"function","name":"extractBytes","inputs":[{"name":"source","type":"bytes","internalType":"bytes"},{"name":"offset","type":"uint256","internalType":"uint256"},{"name":"length","type":"uint256","internalType":"uint256"}],"outputs":[{"name":"","type":"bytes","internalType":"bytes"}],"stateMutability":"pure"},{"type":"function","name":"fieldElementToEIP2537Bytes","inputs":[{"name":"source","type":"bytes","internalType":"bytes"},{"name":"sourceOffset","type":"uint256","internalType":"uint256"},{"name":"dest","type":"bytes","internalType":"bytes"},{"name":"destOffset","type":"uint256","internalType":"uint256"}],"outputs":[],"stateMutability":"pure"},{"type":"function","name":"hashToField","inputs":[{"name":"input","type":"bytes","internalType":"bytes"},{"name":"dst","type":"bytes","internalType":"bytes"},{"name":"count","type":"uint256","internalType":"uint256"}],"outputs":[{"name":"","type":"tuple[]","internalType":"struct BlsG1.Fp[]","components":[{"name":"data","type":"bytes","internalType":"bytes"}]}],"stateMutability":"view"},{"type":"function","name":"hashToG1","inputs":[{"name":"message","type":"bytes","internalType":"bytes"},{"name":"dst","type":"bytes","internalType":"bytes"}],"outputs":[{"name":"","type":"bytes","internalType":"bytes"}],"stateMutability":"view"},{"type":"function","name":"isInfinityPointG1","inputs":[{"name":"eip2537PointG1","type":"bytes","internalType":"bytes"}],"outputs":[{"name":"","type":"bool","internalType":"bool"}],"stateMutability":"pure"},{"type":"function","name":"isInfinityPointG2","inputs":[{"name":"eip2537PointG2","type":"bytes","internalType":"bytes"}],"outputs":[{"name":"","type":"bool","internalType":"bool"}],"stateMutability":"pure"},{"type":"function","name":"isUncompressedInfinityPointG1","inputs":[{"name":"uncompressedPointG1","type":"bytes","internalType":"bytes"}],"outputs":[{"name":"","type":"bool","internalType":"bool"}],"stateMutability":"pure"},{"type":"function","name":"isUncompressedInfinityPointG2","inputs":[{"name":"uncompressedPointG2","type":"bytes","internalType":"bytes"}],"outputs":[{"name":"","type":"bool","internalType":"bool"}],"stateMutability":"pure"},{"type":"function","name":"mapFieldElementToG1","inputs":[{"name":"element","type":"tuple","internalType":"struct BlsG1.Fp","components":[{"name":"data","type":"bytes","internalType":"bytes"}]}],"outputs":[{"name":"","type":"bytes","internalType":"bytes"}],"stateMutability":"view"},{"type":"function","name":"processFieldElement","inputs":[{"name":"uniformBytes","type":"bytes","internalType":"bytes"},{"name":"index","type":"uint256","internalType":"uint256"}],"outputs":[{"name":"","type":"tuple","internalType":"struct BlsG1.Fp","components":[{"name":"data","type":"bytes","internalType":"bytes"}]}],"stateMutability":"view"},{"type":"function","name":"proofOfPossessionMessage","inputs":[{"name":"uncompressedPubkey","type":"bytes","internalType":"bytes"},{"name":"validatorAddress","type":"address","internalType":"address"}],"outputs":[{"name":"","type":"bytes","internalType":"bytes"}],"stateMutability":"pure"},{"type":"function","name":"scalarMulG1","inputs":[{"name":"g1Point","type":"bytes","internalType":"bytes"},{"name":"scalar","type":"uint256","internalType":"uint256"}],"outputs":[{"name":"","type":"bytes","internalType":"bytes"}],"stateMutability":"view"},{"type":"function","name":"scalarMulG2","inputs":[{"name":"g2Point","type":"bytes","internalType":"bytes"},{"name":"scalar","type":"uint256","internalType":"uint256"}],"outputs":[{"name":"","type":"bytes","internalType":"bytes"}],"stateMutability":"view"},{"type":"function","name":"validatePointG1","inputs":[{"name":"point","type":"bytes","internalType":"bytes"}],"outputs":[{"name":"","type":"bool","internalType":"bool"}],"stateMutability":"view"},{"type":"function","name":"validatePointG2","inputs":[{"name":"point","type":"bytes","internalType":"bytes"}],"outputs":[{"name":"","type":"bool","internalType":"bool"}],"stateMutability":"view"},{"type":"function","name":"verifyProofOfPossession","inputs":[{"name":"uncompressedSignature","type":"bytes","internalType":"bytes"},{"name":"uncompressedPubkey","type":"bytes","internalType":"bytes"},{"name":"validatorAddress","type":"address","internalType":"address"}],"outputs":[{"name":"","type":"bool","internalType":"bool"}],"stateMutability":"view"},{"type":"function","name":"verifyProofOfPossessionG1","inputs":[{"name":"blsPubkey","type":"bytes","internalType":"bytes"},{"name":"signature","type":"bytes","internalType":"bytes"},{"name":"message","type":"bytes","internalType":"bytes"},{"name":"dst","type":"bytes","internalType":"bytes"}],"outputs":[{"name":"","type":"bool","internalType":"bool"}],"stateMutability":"view"},{"type":"error","name":"CountTooLarge","inputs":[{"name":"count","type":"uint256","internalType":"uint256"}]},{"type":"error","name":"DSTTooLong","inputs":[{"name":"dstLen","type":"uint256","internalType":"uint256"}]},{"type":"error","name":"EllTooLarge","inputs":[{"name":"ell","type":"uint256","internalType":"uint256"}]},{"type":"error","name":"I2OSPIntegerTooLarge","inputs":[{"name":"i2ospInteger","type":"uint256","internalType":"uint256"}]},{"type":"error","name":"InvalidBLSProof","inputs":[]},{"type":"error","name":"InvalidBLSPubkey","inputs":[]},{"type":"error","name":"InvalidFpOffset","inputs":[]},{"type":"error","name":"InvalidPadding","inputs":[]},{"type":"error","name":"InvalidPoint","inputs":[{"name":"actualLen","type":"uint256","internalType":"uint256"},{"name":"expectedLen","type":"uint256","internalType":"uint256"}]},{"type":"error","name":"InvalidUncompressedBLSPubkey","inputs":[]},{"type":"error","name":"LengthTooLarge","inputs":[{"name":"len","type":"uint256","internalType":"uint256"}]},{"type":"error","name":"LowLevelCallFailure","inputs":[{"name":"err","type":"bytes","internalType":"bytes"}]}],"bytecode":{"object":"0x6123e3610034600b8282823980515f1a607314602857634e487b7160e01b5f525f60045260245ffd5b305f52607381538281f3fe73000000000000000000000000000000000000000030146080604052600436106102d6575f3560e01c8063993c3b2c11610186578063bceb5f83116100ef578063d666c7b5116100a9578063e5a837fd11610084578063e5a837fd146104e2578063f0b18a53146105f7578063f3aa54791461060a578063f999712f14610612575f80fd5b8063d666c7b5146105d4578063dd9509ed146105dc578063e2158189146105ef575f80fd5b8063bceb5f831461055a578063bdfc370114610562578063bf9d89971461056a578063c79107911461058a578063cf3697881461059d578063cf3fb643146105c1575f80fd5b8063aedd751f11610140578063aedd751f146104e2578063b2f0b9b414610510578063b3e1864914610518578063b59ffcdd1461052b578063ba4862011461053e578063ba60124114610551575f80fd5b8063993c3b2c146104b45780639a035a3e146104c75780639d9ca562146104da5780639f13f76d146104e2578063a691a08b146104ea578063a6f5f324146104fd575f80fd5b80635779b9a3116102425780637fed4c95116101fc5780638b8fbd92116101d75780638b8fbd92146104715780638eadfb911461047957806392b8b6681461049957806396b5eb77146104a1575f80fd5b80637fed4c951461044e57806389184adc146104565780638976fc3b1461045e575f80fd5b80635779b9a3146103e7578063586c582d146103fa5780635d177673146104025780636850eb3114610415578063768c59f3146104285780637bcd6fd71461043b575f80fd5b806316babd741161029357806316babd741461038457806324cddfa81461038c5780633632358c1461039f5780633b5adf28146103a75780633d2a9e11146103cc5780634c1dd66e146103df575f80fd5b80630406a228146102da578063069eb4f2146102ef57806306ac9f9714610318578063071917cf1461033b578063086ecef71461034e57806308cd4da01461036e575b5f80fd5b6102ed6102e83660046118a8565b61061a565b005b6103026102fd36600461191b565b610734565b60405161030f91906119ac565b60405180910390f35b61032b6103263660046119be565b6107dc565b604051901515815260200161030f565b61032b610349366004611a12565b610860565b610356600d81565b6040516001600160a01b03909116815260200161030f565b610376608081565b60405190815260200161030f565b6103026108b5565b61030261039a366004611a84565b6108d1565b610356600f81565b6103b361d50160d81b81565b6040516001600160d81b0319909116815260200161030f565b6103026103da3660046119be565b61095a565b610356600b81565b61032b6103f5366004611b0b565b6109cd565b610302610b03565b610302610410366004611bc0565b610b34565b610302610423366004611c01565b610be3565b6102ed6104363660046118a8565b610c1f565b61032b6104493660046119be565b610cf1565b610302610d3b565b610302610d57565b61030261046c36600461191b565b610d5e565b610302610d80565b61048c610487366004611bc0565b610d9c565b60405161030f9190611c5f565b610302610e4b565b6103026104af366004611c71565b610e6a565b6103026104c2366004611ced565b61116a565b6103026104d5366004611d36565b61124a565b610376603081565b610376604081565b6103026104f83660046119be565b611336565b61032b61050b3660046119be565b6113c7565b610302611438565b61032b6105263660046119be565b611440565b61032b6105393660046119be565b61144c565b61032b61054c3660046119be565b611458565b61037661010081565b610302611464565b610302611483565b61057d610578366004611d56565b61148a565b60405161030f9190611dc2565b6103026105983660046119be565b611579565b6105a8600560fa1b81565b6040516001600160f81b0319909116815260200161030f565b6103026105cf366004611bc0565b6115e5565b610356600c81565b6103026105ea3660046119be565b611629565b610356600e81565b61030261060536600461191b565b6116b3565b610356601081565b610376602081565b8351610627604085611e39565b11156106575783516040805163414cf37560e01b8152600481019290925260248201526044015b60405180910390fd5b5f5b60108110156106b2578461066d8286611e39565b8151811061067d5761067d611e4c565b01602001516001600160f81b031916156106aa5760405163ae63f77b60e01b815260040160405180910390fd5b600101610659565b505f5b603081101561072d5784816106cb866010611e39565b6106d59190611e39565b815181106106e5576106e5611e4c565b01602001516001600160f81b031916836106ff8385611e39565b8151811061070f5761070f611e4c565b60200101906001600160f81b03191690815f1a9053506001016106b5565b5050505050565b60605f80600d6001600160a01b03168585604051602001610756929190611e77565b60408051601f198184030181529082905261077091611e8b565b5f60405180830381855afa9150503d805f81146107a8576040519150601f19603f3d011682016040523d82523d5f602084013e6107ad565b606091505b5091509150816107d257806040516306fe67db60e31b815260040161064e91906119ac565b9150505b92915050565b5f608082511415806107f257506107f282611458565b1561081d57815160405163414cf37560e01b815260048101919091526080602482015260440161064e565b60408051608080825260a082019092526107d69161084991859160208201818036833701905050610d5e565b838051602091820120825192909101919091201490565b5f8061086c8484610be3565b90505f61087885611336565b90505f6108848761095a565b90506108aa8282856040518060600160405280602b815260200161227c602b91396109cd565b979650505050505050565b6040518060a00160405280608081526020016121fc6080913981565b60605f8060106001600160a01b0316845f01516040516108f19190611e8b565b5f60405180830381855afa9150503d805f8114610929576040519150601f19603f3d011682016040523d82523d5f602084013e61092e565b606091505b50915091508161095357806040516306fe67db60e31b815260040161064e91906119ac565b9392505050565b6060815160601461097e57604051630d09b15360e01b815260040160405180910390fd5b60408051608080825260a082019092525f916020820181803683370190505090506109a883611440565b156109b35792915050565b6109bf835f835f610c1f565b6107d6836030836040610c1f565b5f6109d785610cf1565b156109f5576040516333a234f960e11b815260040160405180910390fd5b6109fe84611458565b15610a1c57604051630d09b15360e01b815260040160405180910390fd5b5f610a2784846116b3565b90505f81878760405180610120016040528061010081526020016122a76101009139604051602001610a5c9493929190611e96565b60405160208183030381529060405290505f80600f6001600160a01b031683604051610a889190611e8b565b5f60405180830381855afa9150503d805f8114610ac0576040519150601f19603f3d011682016040523d82523d5f602084013e610ac5565b606091505b509150915081610aea57806040516306fe67db60e31b815260040161064e91906119ac565b610af381611eb6565b6001149998505050505050505050565b60605b6040519080825280601f01601f191660200182016040528015610b30576020820181803683370190505b5081565b60605f83835f1b604051602001610b4c929190611edc565b60405160208183030381529060405290505f80600c6001600160a01b031683604051610b789190611e8b565b5f60405180830381855afa9150503d805f8114610bb0576040519150601f19603f3d011682016040523d82523d5f602084013e610bb5565b606091505b509150915081610bda57806040516306fe67db60e31b815260040161064e91906119ac565b95945050505050565b604051606090610c089061d50160d81b908590600560fa1b9086861b90602001611ef4565b604051602081830303815290604052905092915050565b8351610c2c603085611e39565b1115610c4b5760405163228c451560e11b815260040160405180910390fd5b8151610c58604083611e39565b1115610c775760405163228c451560e11b815260040160405180910390fd5b5f5b603081101561072d5784610c8d8286611e39565b81518110610c9d57610c9d611e4c565b01602001516001600160f81b0319168382610cb9856010611e39565b610cc39190611e39565b81518110610cd357610cd3611e4c565b60200101906001600160f81b03191690815f1a905350600101610c79565b5f6107d6826101005b6040519080825280601f01601f191660200182016040528015610d24576020820181803683370190505b508051602091820120825192909101919091201490565b6040518060600160405280602b815260200161227c602b913981565b60c0610b06565b60605f80600b6001600160a01b03168585604051602001610756929190611e77565b6040518060600160405280603081526020016123a76030913981565b6040805160208101909152606081525f610db7836040611f3d565b90505f610dc68583604061116a565b90505f610e0582604051806040016040528060018152602001600160f81b8152506040518060600160405280603081526020016123a760309139611716565b604080518181526060810182529192505f9190602082018180368337019050509050610e33825f835f610c1f565b60408051602081019091529081529695505050505050565b60405180610120016040528061010081526020016122a7610100913981565b60605f60206001610e7f8261ffff8716611e39565b610e899190611f54565b610e939190611f67565b905060ff811115610eba57604051637349dd2760e11b81526004810182905260240161064e565b61ffff8381161115610ee557604051633531161b60e01b815261ffff8416600482015260240161064e565b835160ff1015610f0d5783516040516330648ea960e01b815260040161064e91815260200190565b60605f8086905080610f218251600161124a565b604051602001610f32929190611e77565b60405160208183030381529060405292505f610f4f5f604061124a565b90505f610f618861ffff16600261124a565b90505f828b83610f725f600161124a565b89604051602001610f87959493929190611f86565b6040516020818303038152906040529050600281604051610fa89190611e8b565b602060405180830381855afa158015610fc3573d5f803e3d5ffd5b5050506040513d601f19601f82011682018060405250810190610fe69190611fa3565b9450505050505f600282610ffb60018061124a565b8560405160200161100e93929190611fba565b60408051601f198184030181529082905261102891611e8b565b602060405180830381855afa158015611043573d5f803e3d5ffd5b5050506040513d601f19601f820116820180604052508101906110669190611fa3565b90505f8160405160200161107c91815260200190565b60408051601f1981840301815291905290508160025b868111611159578482185f6110a883600161124a565b90505f600283838b6040516020016110c293929190611fba565b60408051601f19818403018152908290526110dc91611e8b565b602060405180830381855afa1580156110f7573d5f803e3d5ffd5b5050506040513d601f19601f8201168201806040525081019061111a9190611fa3565b9050858160405160200161112f929190611edc565b6040516020818303038152906040529550809450505050808061115190611fce565b915050611092565b505095865250939695505050505050565b82516060906111798385611e39565b111561119b57604051633531161b60e01b81526004810183905260240161064e565b5f826001600160401b038111156111b4576111b461180b565b6040519080825280601f01601f1916602001820160405280156111de576020820181803683370190505b5090505f5b8381101561124157856111f68287611e39565b8151811061120657611206611e4c565b602001015160f81c60f81b82828151811061122357611223611e4c565b60200101906001600160f81b03191690815f1a9053506001016111e3565b50949350505050565b60606020821080156112675750611263826101006120c1565b8310155b1561128857604051634f783b2f60e01b81526004810184905260240161064e565b5f826001600160401b038111156112a1576112a161180b565b6040519080825280601f01601f1916602001820160405280156112cb576020820181803683370190505b5090505f5b8381101561132e576112e3816008611f3d565b85901c60f81b82826112f6600188611f54565b6113009190611f54565b8151811061131057611310611e4c565b60200101906001600160f81b03191690815f1a9053506001016112d0565b509392505050565b6060815160c01461135a57604051631e99df4360e21b815260040160405180910390fd5b6040805161010080825261012082019092525f916020820181803683370190505090506113868361144c565b156113915792915050565b61139e836030835f610c1f565b6113ab835f836040610c1f565b6113b9836090836080610c1f565b6107d68360608360c0610c1f565b5f61010082511415806113de57506113de82610cf1565b1561140a57815160405163414cf37560e01b81526004810191909152610100602482015260440161064e565b6040805161010080825261012082019092526107d69161084991859160208201818036833701905050610734565b610100610b06565b5f6107d6826060610cfa565b5f6107d68260c0610cfa565b5f6107d6826080610cfa565b60405180610120016040528061010081526020016120fc610100913981565b6080610b06565b60605f826001600160401b038111156114a5576114a561180b565b6040519080825280602002602001820160405280156114e557816020015b6040805160208101909152606081528152602001906001900390816114c35790505b5090506114f5604061ffff611f67565b831115611518576040516336b5c98d60e21b81526004810184905260240161064e565b5f611524604085611f3d565b90505f611532878784610e6a565b90505f5b8581101561156d576115488282610d9c565b84828151811061155a5761155a611e4c565b6020908102919091010152600101611536565b50919695505050505050565b606060808251146115aa57815160405163414cf37560e01b815260048101919091526080602482015260440161064e565b604080516060808252608082019092525f916020820181803683370190505090506115d7835f835f61061a565b6107d683604083603061061a565b60605f83835f1b6040516020016115fd929190611edc565b60405160208183030381529060405290505f80600e6001600160a01b031683604051610b789190611e8b565b606061010082511461165c57815160405163414cf37560e01b81526004810191909152610100602482015260440161064e565b6040805160c080825260e082019092525f9160208201818036833701905050905061168a836040835f61061a565b611697835f83603061061a565b6116a58360c083606061061a565b6107d683608083609061061a565b60605f6116c28484600261148a565b90505f6116e7825f815181106116da576116da611e4c565b60200260200101516108d1565b90505f611700836001815181106116da576116da611e4c565b905061170c8282610d5e565b9695505050505050565b60605f80611725868686611738565b9150915081610bda57610bda60126117af565b5f6060611744836117c0565b1561175f575050604080515f808252602082019092526117a7565b82518551855160405161177e92919084908a908a908a906020016120cc565b604051602081830303815290604052915060208201818184518360055afa828452910160405291505b935093915050565b634e487b715f52806020526024601cfd5b5f805b8251811015611802578281815181106117de576117de611e4c565b01602001516001600160f81b031916156117fa57505f92915050565b6001016117c3565b50600192915050565b634e487b7160e01b5f52604160045260245ffd5b5f82601f83011261182e575f80fd5b81356001600160401b038111156118475761184761180b565b604051601f8201601f19908116603f011681016001600160401b03811182821017156118755761187561180b565b60405281815283820160200185101561188c575f80fd5b816020850160208301375f918101602001919091529392505050565b5f805f80608085870312156118bb575f80fd5b84356001600160401b038111156118d0575f80fd5b6118dc8782880161181f565b9450506020850135925060408501356001600160401b038111156118fe575f80fd5b61190a8782880161181f565b949793965093946060013593505050565b5f806040838503121561192c575f80fd5b82356001600160401b03811115611941575f80fd5b61194d8582860161181f565b92505060208301356001600160401b03811115611968575f80fd5b6119748582860161181f565b9150509250929050565b5f81518084528060208401602086015e5f602082860101526020601f19601f83011685010191505092915050565b602081525f610953602083018461197e565b5f602082840312156119ce575f80fd5b81356001600160401b038111156119e3575f80fd5b6119ef8482850161181f565b949350505050565b80356001600160a01b0381168114611a0d575f80fd5b919050565b5f805f60608486031215611a24575f80fd5b83356001600160401b03811115611a39575f80fd5b611a458682870161181f565b93505060208401356001600160401b03811115611a60575f80fd5b611a6c8682870161181f565b925050611a7b604085016119f7565b90509250925092565b5f60208284031215611a94575f80fd5b81356001600160401b03811115611aa9575f80fd5b820160208185031215611aba575f80fd5b604051602081016001600160401b0381118282101715611adc57611adc61180b565b60405281356001600160401b03811115611af4575f80fd5b611b008682850161181f565b825250949350505050565b5f805f8060808587031215611b1e575f80fd5b84356001600160401b03811115611b33575f80fd5b611b3f8782880161181f565b94505060208501356001600160401b03811115611b5a575f80fd5b611b668782880161181f565b93505060408501356001600160401b03811115611b81575f80fd5b611b8d8782880161181f565b92505060608501356001600160401b03811115611ba8575f80fd5b611bb48782880161181f565b91505092959194509250565b5f8060408385031215611bd1575f80fd5b82356001600160401b03811115611be6575f80fd5b611bf28582860161181f565b95602094909401359450505050565b5f8060408385031215611c12575f80fd5b82356001600160401b03811115611c27575f80fd5b611c338582860161181f565b925050611c42602084016119f7565b90509250929050565b5f8151602084526119ef602085018261197e565b602081525f6109536020830184611c4b565b5f805f60608486031215611c83575f80fd5b83356001600160401b03811115611c98575f80fd5b611ca48682870161181f565b93505060208401356001600160401b03811115611cbf575f80fd5b611ccb8682870161181f565b925050604084013561ffff81168114611ce2575f80fd5b809150509250925092565b5f805f60608486031215611cff575f80fd5b83356001600160401b03811115611d14575f80fd5b611d208682870161181f565b9660208601359650604090950135949350505050565b5f8060408385031215611d47575f80fd5b50508035926020909101359150565b5f805f60608486031215611d68575f80fd5b83356001600160401b03811115611d7d575f80fd5b611d898682870161181f565b93505060208401356001600160401b03811115611da4575f80fd5b611db08682870161181f565b93969395505050506040919091013590565b5f602082016020835280845180835260408501915060408160051b8601019250602086015f5b82811015611e1957603f19878603018452611e04858351611c4b565b94506020938401939190910190600101611de8565b50929695505050505050565b634e487b7160e01b5f52601160045260245ffd5b808201808211156107d6576107d6611e25565b634e487b7160e01b5f52603260045260245ffd5b5f81518060208401855e5f93019283525090919050565b5f6119ef611e858386611e60565b84611e60565b5f6109538284611e60565b5f61170c611e85611eb0611eaa858a611e60565b88611e60565b86611e60565b80516020808301519190811015611ed6575f198160200360031b1b821691505b50919050565b5f611ee78285611e60565b9283525050602001919050565b6001600160d81b0319851681525f611f0f6005830186611e60565b6001600160f81b031994909416845250506bffffffffffffffffffffffff1916600182015260150192915050565b80820281158282048414176107d6576107d6611e25565b818103818111156107d6576107d6611e25565b5f82611f8157634e487b7160e01b5f52601260045260245ffd5b500490565b5f6108aa611e85611eb0611eaa611f9d868c611e60565b8a611e60565b5f60208284031215611fb3575f80fd5b5051919050565b8381525f610bda611e856020840186611e60565b5f60018201611fdf57611fdf611e25565b5060010190565b6001815b60018411156117a75780850481111561200557612005611e25565b600184161561201357908102905b60019390931c928002611fea565b5f8261202f575060016107d6565b8161203b57505f6107d6565b8160018114612051576002811461205b57612077565b60019150506107d6565b60ff84111561206c5761206c611e25565b50506001821b6107d6565b5060208310610133831016604e8410600b841016171561209a575081810a6107d6565b6120a65f198484611fe6565b805f19048211156120b9576120b9611e25565b029392505050565b5f6109538383612021565b8681528560208201528460408201525f6120ef611e85611eb06060850188611e60565b9897505050505050505056fe00000000000000000000000000000000024aa2b2f08f0a91260805272dc51051c6e47ad4fa403b02b4510b647ae3d1770bac0326a805bbefd48056c8c121bdb80000000000000000000000000000000013e02b6052719f607dacd3a088274f65596bd0d09920b61ab5da61bbdc7f5049334cf11213945d57e5ac7d055d042b7e000000000000000000000000000000000ce5d527727d6e118cc9cdc6da2e351aadfd9baa8cbdd3a76d429a695160d12c923ac9cc3baca289e193548608b82801000000000000000000000000000000000606c4a02ea734cc32acd2b02bc28b99cb3e287e85a763af267492ab572e99ab3f370d275cec1da1aaa9075ff05f79be0000000000000000000000000000000017f1d3a73197d7942695638c4fa9ac0fc3688c4f9774b905a14e3a3f171bac586c55e83ff97a1aeffb3af00adb22c6bb0000000000000000000000000000000008b3f481e3aaa0f1a09e30ed741d8ae4fcf5e095d5d00af600db18cb2c04b3edd03cc744a2888ae40caa232946c5e7e1424c535f5349475f424c53313233383147315f584d443a5348412d3235365f535357555f524f5f4e554c5f00000000000000000000000000000000024aa2b2f08f0a91260805272dc51051c6e47ad4fa403b02b4510b647ae3d1770bac0326a805bbefd48056c8c121bdb80000000000000000000000000000000013e02b6052719f607dacd3a088274f65596bd0d09920b61ab5da61bbdc7f5049334cf11213945d57e5ac7d055d042b7e000000000000000000000000000000000d1b3cc2c7027888be51d9ef691d77bcb679afda66c73f17f9ee3837a55024f78c71363275a75d75d86bab79f74782aa0000000000000000000000000000000013fa4d4a0ad8b1ce186ed5061789213d993923066dddaf1040bc3ff59f825c78df74f2d75467e25e0f55f8a00fa030ed1a0111ea397fe69a4b1ba7b6434bacd764774b84f38512bf6730d2a0f6b0f6241eabfffeb153ffffb9feffffffffaaaba164736f6c634300081a000a","linkReferences":{}},"methodIdentifiers":{"ADDRESS_LEN_PREFIX()":"cf369788","B_IN_BYTES()":"f999712f","EIP2537_FIELD_ELEMENT_SIZE()":"aedd751f","EIP2537_G1_POINT_SIZE()":"08cd4da0","EIP2537_G2_POINT_SIZE()":"ba601241","FIELD_ELEMENT_SIZE()":"9d9ca562","G1_ADD()":"4c1dd66e","G1_GENERATOR()":"16babd74","G1_IDENTITY()":"bdfc3701","G1_IDENTITY_RAW()":"586c582d","G1_MUL()":"d666c7b5","G2_ADD()":"086ecef7","G2_GENERATOR()":"bceb5f83","G2_GENERATOR_NEG()":"92b8b668","G2_IDENTITY()":"b2f0b9b4","G2_IDENTITY_RAW()":"89184adc","G2_MUL()":"e2158189","HASH_TO_G1_DST()":"7fed4c95","I2OSP(uint256,uint256)":"9a035a3e","L()":"9f13f76d","MAP_FP_TO_G1()":"f3aa5479","P()":"8b8fbd92","PAIRING_CHECK()":"3632358c","POP_INTENT_PREFIX()":"3b5adf28","S_IN_BYTES()":"e5a837fd","addG1(bytes,bytes)":"8976fc3b","addG2(bytes,bytes)":"069eb4f2","decodeG1PointFromEIP2537(bytes)":"c7910791","decodeG2PointFromEIP2537(bytes)":"dd9509ed","eip2537BytesToFieldElement(bytes,uint256,bytes,uint256)":"0406a228","encodeG1PointForEIP2537(bytes)":"3d2a9e11","encodeG2PointForEIP2537(bytes)":"a691a08b","expandMessageXmd(bytes,bytes,uint16)":"96b5eb77","extractBytes(bytes,uint256,uint256)":"993c3b2c","fieldElementToEIP2537Bytes(bytes,uint256,bytes,uint256)":"768c59f3","hashToField(bytes,bytes,uint256)":"bf9d8997","hashToG1(bytes,bytes)":"f0b18a53","isInfinityPointG1(bytes)":"ba486201","isInfinityPointG2(bytes)":"7bcd6fd7","isUncompressedInfinityPointG1(bytes)":"b3e18649","isUncompressedInfinityPointG2(bytes)":"b59ffcdd","mapFieldElementToG1(BlsG1.Fp)":"24cddfa8","processFieldElement(bytes,uint256)":"8eadfb91","proofOfPossessionMessage(bytes,address)":"6850eb31","scalarMulG1(bytes,uint256)":"5d177673","scalarMulG2(bytes,uint256)":"cf3fb643","validatePointG1(bytes)":"06ac9f97","validatePointG2(bytes)":"a6f5f324","verifyProofOfPossession(bytes,bytes,address)":"071917cf","verifyProofOfPossessionG1(bytes,bytes,bytes,bytes)":"5779b9a3"},"id":155}