{"abi":[{"type":"function","name":"B_IN_BYTES","inputs":[],"outputs":[{"name":"","type":"uint256","internalType":"uint256"}],"stateMutability":"view"},{"type":"function","name":"EIP2537_FIELD_ELEMENT_SIZE","inputs":[],"outputs":[{"name":"","type":"uint256","internalType":"uint256"}],"stateMutability":"view"},{"type":"function","name":"EIP2537_G1_POINT_SIZE","inputs":[],"outputs":[{"name":"","type":"uint256","internalType":"uint256"}],"stateMutability":"view"},{"type":"function","name":"EIP2537_G2_POINT_SIZE","inputs":[],"outputs":[{"name":"","type":"uint256","internalType":"uint256"}],"stateMutability":"view"},{"type":"function","name":"FIELD_ELEMENT_SIZE","inputs":[],"outputs":[{"name":"","type":"uint256","internalType":"uint256"}],"stateMutability":"view"},{"type":"function","name":"G1_ADD","inputs":[],"outputs":[{"name":"","type":"address","internalType":"address"}],"stateMutability":"view"},{"type":"function","name":"G1_IDENTITY","inputs":[],"outputs":[{"name":"","type":"bytes","internalType":"bytes"}],"stateMutability":"view"},{"type":"function","name":"G2_ADD","inputs":[],"outputs":[{"name":"","type":"address","internalType":"address"}],"stateMutability":"view"},{"type":"function","name":"G2_GENERATOR_NEG","inputs":[],"outputs":[{"name":"","type":"bytes","internalType":"bytes"}],"stateMutability":"view"},{"type":"function","name":"G2_IDENTITY","inputs":[],"outputs":[{"name":"","type":"bytes","internalType":"bytes"}],"stateMutability":"view"},{"type":"function","name":"HASH_TO_G1_DST","inputs":[],"outputs":[{"name":"","type":"bytes","internalType":"bytes"}],"stateMutability":"view"},{"type":"function","name":"I2OSP","inputs":[{"name":"x","type":"uint256","internalType":"uint256"},{"name":"xLen","type":"uint256","internalType":"uint256"}],"outputs":[{"name":"","type":"bytes","internalType":"bytes"}],"stateMutability":"pure"},{"type":"function","name":"L","inputs":[],"outputs":[{"name":"","type":"uint256","internalType":"uint256"}],"stateMutability":"view"},{"type":"function","name":"MAP_FP_TO_G1","inputs":[],"outputs":[{"name":"","type":"address","internalType":"address"}],"stateMutability":"view"},{"type":"function","name":"P","inputs":[],"outputs":[{"name":"","type":"bytes","internalType":"bytes"}],"stateMutability":"view"},{"type":"function","name":"PAIRING_CHECK","inputs":[],"outputs":[{"name":"","type":"address","internalType":"address"}],"stateMutability":"view"},{"type":"function","name":"S_IN_BYTES","inputs":[],"outputs":[{"name":"","type":"uint256","internalType":"uint256"}],"stateMutability":"view"},{"type":"function","name":"addG1","inputs":[{"name":"point0","type":"bytes","internalType":"bytes"},{"name":"point1","type":"bytes","internalType":"bytes"}],"outputs":[{"name":"","type":"bytes","internalType":"bytes"}],"stateMutability":"view"},{"type":"function","name":"addG2","inputs":[{"name":"point0","type":"bytes","internalType":"bytes"},{"name":"point1","type":"bytes","internalType":"bytes"}],"outputs":[{"name":"","type":"bytes","internalType":"bytes"}],"stateMutability":"view"},{"type":"function","name":"eip2537BytesToFieldElement","inputs":[{"name":"paddedElement","type":"bytes","internalType":"bytes"}],"outputs":[{"name":"fieldElement","type":"bytes","internalType":"bytes"}],"stateMutability":"pure"},{"type":"function","name":"encodeG1PointForEIP2537","inputs":[{"name":"uncompressedSignature","type":"bytes","internalType":"bytes"}],"outputs":[{"name":"","type":"bytes","internalType":"bytes"}],"stateMutability":"pure"},{"type":"function","name":"encodeG2PointForEIP2537","inputs":[{"name":"uncompressedPubkey","type":"bytes","internalType":"bytes"}],"outputs":[{"name":"","type":"bytes","internalType":"bytes"}],"stateMutability":"pure"},{"type":"function","name":"expandMessageXmd","inputs":[{"name":"message","type":"bytes","internalType":"bytes"},{"name":"dst","type":"bytes","internalType":"bytes"},{"name":"outputLen","type":"uint16","internalType":"uint16"}],"outputs":[{"name":"result","type":"bytes","internalType":"bytes"}],"stateMutability":"pure"},{"type":"function","name":"extractBytes","inputs":[{"name":"source","type":"bytes","internalType":"bytes"},{"name":"offset","type":"uint256","internalType":"uint256"},{"name":"length","type":"uint256","internalType":"uint256"}],"outputs":[{"name":"","type":"bytes","internalType":"bytes"}],"stateMutability":"pure"},{"type":"function","name":"fieldElementToEIP2537Bytes","inputs":[{"name":"source","type":"bytes","internalType":"bytes"},{"name":"sourceOffset","type":"uint256","internalType":"uint256"},{"name":"dest","type":"bytes","internalType":"bytes"},{"name":"destOffset","type":"uint256","internalType":"uint256"}],"outputs":[],"stateMutability":"pure"},{"type":"function","name":"hashToField","inputs":[{"name":"input","type":"bytes","internalType":"bytes"},{"name":"dst","type":"bytes","internalType":"bytes"},{"name":"count","type":"uint256","internalType":"uint256"}],"outputs":[{"name":"","type":"tuple[]","internalType":"struct BlsG1.Fp[]","components":[{"name":"data","type":"bytes","internalType":"bytes"}]}],"stateMutability":"view"},{"type":"function","name":"hashToG1","inputs":[{"name":"input","type":"bytes","internalType":"bytes"}],"outputs":[{"name":"","type":"bytes","internalType":"bytes"}],"stateMutability":"view"},{"type":"function","name":"isInfinityPointG1","inputs":[{"name":"uncompressedPointG1","type":"bytes","internalType":"bytes"}],"outputs":[{"name":"","type":"bool","internalType":"bool"}],"stateMutability":"pure"},{"type":"function","name":"isInfinityPointG2","inputs":[{"name":"uncompressedPointG2","type":"bytes","internalType":"bytes"}],"outputs":[{"name":"","type":"bool","internalType":"bool"}],"stateMutability":"pure"},{"type":"function","name":"mapFieldElementToG1","inputs":[{"name":"element","type":"tuple","internalType":"struct BlsG1.Fp","components":[{"name":"data","type":"bytes","internalType":"bytes"}]}],"outputs":[{"name":"","type":"bytes","internalType":"bytes"}],"stateMutability":"view"},{"type":"function","name":"processFieldElement","inputs":[{"name":"uniformBytes","type":"bytes","internalType":"bytes"},{"name":"index","type":"uint256","internalType":"uint256"}],"outputs":[{"name":"","type":"tuple","internalType":"struct BlsG1.Fp","components":[{"name":"data","type":"bytes","internalType":"bytes"}]}],"stateMutability":"view"},{"type":"function","name":"validatePointG1","inputs":[{"name":"point","type":"bytes","internalType":"bytes"}],"outputs":[{"name":"","type":"bool","internalType":"bool"}],"stateMutability":"view"},{"type":"function","name":"validatePointG2","inputs":[{"name":"point","type":"bytes","internalType":"bytes"}],"outputs":[{"name":"","type":"bool","internalType":"bool"}],"stateMutability":"view"},{"type":"function","name":"verifyProofOfPossessionG1","inputs":[{"name":"blsPubkey","type":"bytes","internalType":"bytes"},{"name":"signature","type":"bytes","internalType":"bytes"},{"name":"message","type":"bytes","internalType":"bytes"}],"outputs":[{"name":"","type":"bool","internalType":"bool"}],"stateMutability":"view"},{"type":"error","name":"CountTooLarge","inputs":[{"name":"count","type":"uint256","internalType":"uint256"}]},{"type":"error","name":"DSTTooLong","inputs":[{"name":"dstLen","type":"uint256","internalType":"uint256"}]},{"type":"error","name":"EllTooLarge","inputs":[{"name":"ell","type":"uint256","internalType":"uint256"}]},{"type":"error","name":"I2OSPIntegerTooLarge","inputs":[{"name":"i2ospInteger","type":"uint256","internalType":"uint256"}]},{"type":"error","name":"InvalidBLSProof","inputs":[]},{"type":"error","name":"InvalidBLSPubkey","inputs":[]},{"type":"error","name":"InvalidFpOffset","inputs":[]},{"type":"error","name":"InvalidPoint","inputs":[{"name":"actualLen","type":"uint256","internalType":"uint256"},{"name":"expectedLen","type":"uint256","internalType":"uint256"}]},{"type":"error","name":"InvalidUncompressedBLSPubkey","inputs":[]},{"type":"error","name":"LengthTooLarge","inputs":[{"name":"len","type":"uint256","internalType":"uint256"}]},{"type":"error","name":"LowLevelCallFailure","inputs":[{"name":"err","type":"bytes","internalType":"bytes"}]}],"bytecode":{"object":"0x611c4b610034600b8282823980515f1a607314602857634e487b7160e01b5f525f60045260245ffd5b305f52607381538281f3fe7300000000000000000000000000000000000000003014608060405260043610610208575f3560e01c8063993c3b2c1161011f578063ba486201116100b4578063e5a837fd11610084578063e5a837fd1461038b578063f171866214610405578063f3aa547914610418578063f490b3b914610420578063f999712f14610433575f80fd5b8063ba486201146103c1578063ba601241146103d4578063bdfc3701146103dd578063bf9d8997146103e5575f80fd5b8063a691a08b116100ef578063a691a08b14610393578063a6f5f324146103a6578063aedd751f1461038b578063b2f0b9b4146103b9575f80fd5b8063993c3b2c1461035d5780639a035a3e146103705780639d9ca562146103835780639f13f76d1461038b575f80fd5b80634f98273b116101a05780638976fc3b116101705780638976fc3b146103075780638b8fbd921461031a5780638eadfb911461032257806392b8b6681461034257806396b5eb771461034a575f80fd5b80634f98273b146102c4578063768c59f3146102d75780637bcd6fd7146102ec5780637fed4c95146102ff575f80fd5b806324cddfa8116101db57806324cddfa81461028e5780633632358c146102a15780633d2a9e11146102a95780634c1dd66e146102bc575f80fd5b8063069eb4f21461020c57806306ac9f9714610235578063086ecef71461025857806308cd4da014610278575b5f80fd5b61021f61021a3660046113c5565b61043b565b60405161022c9190611456565b60405180910390f35b610248610243366004611468565b6104ec565b604051901515815260200161022c565b610260600d81565b6040516001600160a01b03909116815260200161022c565b610280608081565b60405190815260200161022c565b61021f61029c3660046114a1565b61056c565b610260600f81565b61021f6102b7366004611468565b6105f5565b610260600b81565b6102486102d2366004611528565b610668565b6102ea6102e53660046115b3565b61079c565b005b6102486102fa366004611468565b610875565b61021f6108bc565b61021f6103153660046113c5565b6108d8565b61021f6108fa565b610335610330366004611626565b610916565b60405161022c919061167b565b61021f6109c5565b61021f61035836600461168d565b6109e4565b61021f61036b366004611709565b610ce4565b61021f61037e366004611752565b610dc4565b610280603081565b610280604081565b61021f6103a1366004611468565b610eb0565b6102486103b4366004611468565b610f41565b61021f610fb6565b6102486103cf366004611468565b610fe8565b61028061010081565b61021f610ff0565b6103f86103f3366004611772565b610ff7565b60405161022c91906117de565b61021f610413366004611468565b6110e6565b610260601081565b61021f61042e366004611468565b611160565b610280602081565b60605f80600d6001600160a01b0316858560405160200161045d929190611858565b60408051601f19818403018152908290526104779161186c565b5f60405180830381855afa9150503d805f81146104af576040519150601f19603f3d011682016040523d82523d5f602084013e6104b4565b606091505b5091509150816104e257806040516306fe67db60e31b81526004016104d99190611456565b60405180910390fd5b9150505b92915050565b5f60808251141580610502575061050282610fe8565b1561052d57815160405163414cf37560e01b81526004810191909152608060248201526044016104d9565b8151602083012060408051608080825260a0820190925261055d91859190602082018180368337019050506108d8565b80519060200120149050919050565b60605f8060106001600160a01b0316845f015160405161058c919061186c565b5f60405180830381855afa9150503d805f81146105c4576040519150601f19603f3d011682016040523d82523d5f602084013e6105c9565b606091505b5091509150816105ee57806040516306fe67db60e31b81526004016104d99190611456565b9392505050565b6060815160601461061957604051630d09b15360e01b815260040160405180910390fd5b60408051608080825260a082019092525f9160208201818036833701905050905061064383610fe8565b1561064e5792915050565b61065a835f835f61079c565b6104e683603083604061079c565b5f61067284610875565b15610690576040516333a234f960e11b815260040160405180910390fd5b61069983610fe8565b156106b757604051630d09b15360e01b815260040160405180910390fd5b5f6106c1836110e6565b90505f8186866040518061012001604052806101008152602001611b0f61010091396040516020016106f69493929190611877565b60405160208183030381529060405290505f80600f6001600160a01b031683604051610722919061186c565b5f60405180830381855afa9150503d805f811461075a576040519150601f19603f3d011682016040523d82523d5f602084013e61075f565b606091505b50915091508161078457806040516306fe67db60e31b81526004016104d99190611456565b61078d816118a1565b60011498975050505050505050565b83516107a96030856118db565b11156107c85760405163228c451560e11b815260040160405180910390fd5b81516107d56040836118db565b11156107f45760405163228c451560e11b815260040160405180910390fd5b5f5b603081101561086e578461080a82866118db565b8151811061081a5761081a6118ee565b01602001516001600160f81b03191683826108368560106118db565b61084091906118db565b81518110610850576108506118ee565b60200101906001600160f81b03191690815f1a9053506001016107f6565b5050505050565b5f6101005b6040519080825280601f01601f1916602001820160405280156108a4576020820181803683370190505b50805190602001208280519060200120149050919050565b6040518060600160405280602b8152602001611ae4602b913981565b60605f80600b6001600160a01b0316858560405160200161045d929190611858565b604051806060016040528060308152602001611c0f6030913981565b6040805160208101909152606081525f610931836040611902565b90505f61094085836040610ce4565b90505f61097f82604051806040016040528060018152602001600160f81b815250604051806060016040528060308152602001611c0f60309139611233565b604080518181526060810182529192505f91906020820181803683370190505090506109ad825f835f61079c565b60408051602081019091529081529695505050505050565b6040518061012001604052806101008152602001611b0f610100913981565b60605f602060016109f98261ffff87166118db565b610a039190611919565b610a0d919061192c565b905060ff811115610a3457604051637349dd2760e11b8152600481018290526024016104d9565b61ffff8381161115610a5f57604051633531161b60e01b815261ffff841660048201526024016104d9565b835160ff1015610a875783516040516330648ea960e01b81526004016104d991815260200190565b60605f8086905080610a9b82516001610dc4565b604051602001610aac929190611858565b60405160208183030381529060405292505f610ac95f6040610dc4565b90505f610adb8861ffff166002610dc4565b90505f828b83610aec5f6001610dc4565b89604051602001610b0195949392919061194b565b6040516020818303038152906040529050600281604051610b22919061186c565b602060405180830381855afa158015610b3d573d5f803e3d5ffd5b5050506040513d601f19601f82011682018060405250810190610b609190611973565b9450505050505f600282610b75600180610dc4565b85604051602001610b889392919061198a565b60408051601f1981840301815290829052610ba29161186c565b602060405180830381855afa158015610bbd573d5f803e3d5ffd5b5050506040513d601f19601f82011682018060405250810190610be09190611973565b90505f81604051602001610bf691815260200190565b60408051601f1981840301815291905290508160025b868111610cd3578482185f610c22836001610dc4565b90505f600283838b604051602001610c3c9392919061198a565b60408051601f1981840301815290829052610c569161186c565b602060405180830381855afa158015610c71573d5f803e3d5ffd5b5050506040513d601f19601f82011682018060405250810190610c949190611973565b90508581604051602001610ca992919061199e565b60405160208183030381529060405295508094505050508080610ccb906119b6565b915050610c0c565b505095865250939695505050505050565b8251606090610cf383856118db565b1115610d1557604051633531161b60e01b8152600481018390526024016104d9565b5f826001600160401b03811115610d2e57610d2e611328565b6040519080825280601f01601f191660200182016040528015610d58576020820181803683370190505b5090505f5b83811015610dbb5785610d7082876118db565b81518110610d8057610d806118ee565b602001015160f81c60f81b828281518110610d9d57610d9d6118ee565b60200101906001600160f81b03191690815f1a905350600101610d5d565b50949350505050565b6060602082108015610de15750610ddd82610100611aa9565b8310155b15610e0257604051634f783b2f60e01b8152600481018490526024016104d9565b5f826001600160401b03811115610e1b57610e1b611328565b6040519080825280601f01601f191660200182016040528015610e45576020820181803683370190505b5090505f5b83811015610ea857610e5d816008611902565b85901c60f81b8282610e70600188611919565b610e7a9190611919565b81518110610e8a57610e8a6118ee565b60200101906001600160f81b03191690815f1a905350600101610e4a565b509392505050565b6060815160c014610ed457604051631e99df4360e21b815260040160405180910390fd5b6040805161010080825261012082019092525f91602082018180368337019050509050610f0083610875565b15610f0b5792915050565b610f18836030835f61079c565b610f25835f83604061079c565b610f3383609083608061079c565b6104e68360608360c061079c565b5f6101008251141580610f585750610f5882610875565b15610f8457815160405163414cf37560e01b8152600481019190915261010060248201526044016104d9565b8151602083012060408051610100808252610120820190925261055d918591906020820181803683370190505061043b565b6101005b6040519080825280601f01601f191660200182016040528015610fe4576020820181803683370190505b5081565b5f608061087a565b6080610fba565b60605f826001600160401b0381111561101257611012611328565b60405190808252806020026020018201604052801561105257816020015b6040805160208101909152606081528152602001906001900390816110305790505b509050611062604061ffff61192c565b831115611085576040516336b5c98d60e21b8152600481018490526024016104d9565b5f611091604085611902565b90505f61109f8787846109e4565b90505f5b858110156110da576110b58282610916565b8482815181106110c7576110c76118ee565b60209081029190910101526001016110a3565b50919695505050505050565b60605f61110d836040518060600160405280602b8152602001611ae4602b91396002610ff7565b90505f611132825f81518110611125576111256118ee565b602002602001015161056c565b90505f61114b83600181518110611125576111256118ee565b905061115782826108d8565b95945050505050565b606060408251146111905781516040805163414cf37560e01b8152600481019290925260248201526044016104d9565b5f5b6010811015611225578281815181106111ad576111ad6118ee565b01602001516001600160f81b0319161561121d5760405162461bcd60e51b815260206004820152602b60248201527f496e76616c69642070616464696e673a206e6f6e2d7a65726f20696e2066697260448201526a737420313620627974657360a81b60648201526084016104d9565b600101611192565b506104e68260106030610ce4565b60605f80611242868686611255565b91509150816111575761115760126112cc565b5f6060611261836112dd565b1561127c575050604080515f808252602082019092526112c4565b82518551855160405161129b92919084908a908a908a90602001611ab4565b604051602081830303815290604052915060208201818184518360055afa828452910160405291505b935093915050565b634e487b715f52806020526024601cfd5b5f805b825181101561131f578281815181106112fb576112fb6118ee565b01602001516001600160f81b0319161561131757505f92915050565b6001016112e0565b50600192915050565b634e487b7160e01b5f52604160045260245ffd5b5f82601f83011261134b575f80fd5b81356001600160401b0381111561136457611364611328565b604051601f8201601f19908116603f011681016001600160401b038111828210171561139257611392611328565b6040528181528382016020018510156113a9575f80fd5b816020850160208301375f918101602001919091529392505050565b5f80604083850312156113d6575f80fd5b82356001600160401b038111156113eb575f80fd5b6113f78582860161133c565b92505060208301356001600160401b03811115611412575f80fd5b61141e8582860161133c565b9150509250929050565b5f81518084528060208401602086015e5f602082860101526020601f19601f83011685010191505092915050565b602081525f6105ee6020830184611428565b5f60208284031215611478575f80fd5b81356001600160401b0381111561148d575f80fd5b6114998482850161133c565b949350505050565b5f602082840312156114b1575f80fd5b81356001600160401b038111156114c6575f80fd5b8201602081850312156114d7575f80fd5b604051602081016001600160401b03811182821017156114f9576114f9611328565b60405281356001600160401b03811115611511575f80fd5b61151d8682850161133c565b825250949350505050565b5f805f6060848603121561153a575f80fd5b83356001600160401b0381111561154f575f80fd5b61155b8682870161133c565b93505060208401356001600160401b03811115611576575f80fd5b6115828682870161133c565b92505060408401356001600160401b0381111561159d575f80fd5b6115a98682870161133c565b9150509250925092565b5f805f80608085870312156115c6575f80fd5b84356001600160401b038111156115db575f80fd5b6115e78782880161133c565b9450506020850135925060408501356001600160401b03811115611609575f80fd5b6116158782880161133c565b949793965093946060013593505050565b5f8060408385031215611637575f80fd5b82356001600160401b0381111561164c575f80fd5b6116588582860161133c565b95602094909401359450505050565b5f8151602084526114996020850182611428565b602081525f6105ee6020830184611667565b5f805f6060848603121561169f575f80fd5b83356001600160401b038111156116b4575f80fd5b6116c08682870161133c565b93505060208401356001600160401b038111156116db575f80fd5b6116e78682870161133c565b925050604084013561ffff811681146116fe575f80fd5b809150509250925092565b5f805f6060848603121561171b575f80fd5b83356001600160401b03811115611730575f80fd5b61173c8682870161133c565b9660208601359650604090950135949350505050565b5f8060408385031215611763575f80fd5b50508035926020909101359150565b5f805f60608486031215611784575f80fd5b83356001600160401b03811115611799575f80fd5b6117a58682870161133c565b93505060208401356001600160401b038111156117c0575f80fd5b6117cc8682870161133c565b93969395505050506040919091013590565b5f602082016020835280845180835260408501915060408160051b8601019250602086015f5b8281101561183557603f19878603018452611820858351611667565b94506020938401939190910190600101611804565b50929695505050505050565b5f81518060208401855e5f93019283525090919050565b5f6114996118668386611841565b84611841565b5f6105ee8284611841565b5f61189761186661189161188b858a611841565b88611841565b86611841565b9695505050505050565b805160208083015191908110156118c1575f198160200360031b1b821691505b50919050565b634e487b7160e01b5f52601160045260245ffd5b808201808211156104e6576104e66118c7565b634e487b7160e01b5f52603260045260245ffd5b80820281158282048414176104e6576104e66118c7565b818103818111156104e6576104e66118c7565b5f8261194657634e487b7160e01b5f52601260045260245ffd5b500490565b5f61196861186661189161188b611962868c611841565b8a611841565b979650505050505050565b5f60208284031215611983575f80fd5b5051919050565b8381525f6111576118666020840186611841565b5f6119a98285611841565b9283525050602001919050565b5f600182016119c7576119c76118c7565b5060010190565b6001815b60018411156112c4578085048111156119ed576119ed6118c7565b60018416156119fb57908102905b60019390931c9280026119d2565b5f82611a17575060016104e6565b81611a2357505f6104e6565b8160018114611a395760028114611a4357611a5f565b60019150506104e6565b60ff841115611a5457611a546118c7565b50506001821b6104e6565b5060208310610133831016604e8410600b8410161715611a82575081810a6104e6565b611a8e5f1984846119ce565b805f1904821115611aa157611aa16118c7565b029392505050565b5f6105ee8383611a09565b8681528560208201528460408201525f611ad76118666118916060850188611841565b9897505050505050505056fe424c535f5349475f424c53313233383147315f584d443a5348412d3235365f535357555f524f5f4e554c5f00000000000000000000000000000000024aa2b2f08f0a91260805272dc51051c6e47ad4fa403b02b4510b647ae3d1770bac0326a805bbefd48056c8c121bdb80000000000000000000000000000000013e02b6052719f607dacd3a088274f65596bd0d09920b61ab5da61bbdc7f5049334cf11213945d57e5ac7d055d042b7e000000000000000000000000000000000d1b3cc2c7027888be51d9ef691d77bcb679afda66c73f17f9ee3837a55024f78c71363275a75d75d86bab79f74782aa0000000000000000000000000000000013fa4d4a0ad8b1ce186ed5061789213d993923066dddaf1040bc3ff59f825c78df74f2d75467e25e0f55f8a00fa030ed1a0111ea397fe69a4b1ba7b6434bacd764774b84f38512bf6730d2a0f6b0f6241eabfffeb153ffffb9feffffffffaaaba164736f6c634300081a000a","linkReferences":{}},"methodIdentifiers":{"B_IN_BYTES()":"f999712f","EIP2537_FIELD_ELEMENT_SIZE()":"aedd751f","EIP2537_G1_POINT_SIZE()":"08cd4da0","EIP2537_G2_POINT_SIZE()":"ba601241","FIELD_ELEMENT_SIZE()":"9d9ca562","G1_ADD()":"4c1dd66e","G1_IDENTITY()":"bdfc3701","G2_ADD()":"086ecef7","G2_GENERATOR_NEG()":"92b8b668","G2_IDENTITY()":"b2f0b9b4","HASH_TO_G1_DST()":"7fed4c95","I2OSP(uint256,uint256)":"9a035a3e","L()":"9f13f76d","MAP_FP_TO_G1()":"f3aa5479","P()":"8b8fbd92","PAIRING_CHECK()":"3632358c","S_IN_BYTES()":"e5a837fd","addG1(bytes,bytes)":"8976fc3b","addG2(bytes,bytes)":"069eb4f2","eip2537BytesToFieldElement(bytes)":"f490b3b9","encodeG1PointForEIP2537(bytes)":"3d2a9e11","encodeG2PointForEIP2537(bytes)":"a691a08b","expandMessageXmd(bytes,bytes,uint16)":"96b5eb77","extractBytes(bytes,uint256,uint256)":"993c3b2c","fieldElementToEIP2537Bytes(bytes,uint256,bytes,uint256)":"768c59f3","hashToField(bytes,bytes,uint256)":"bf9d8997","hashToG1(bytes)":"f1718662","isInfinityPointG1(bytes)":"ba486201","isInfinityPointG2(bytes)":"7bcd6fd7","mapFieldElementToG1(BlsG1.Fp)":"24cddfa8","processFieldElement(bytes,uint256)":"8eadfb91","validatePointG1(bytes)":"06ac9f97","validatePointG2(bytes)":"a6f5f324","verifyProofOfPossessionG1(bytes,bytes,bytes)":"4f98273b"},"id":225}