{"abi":[{"type":"function","name":"verifyProofOfPossession","inputs":[{"name":"signature","type":"bytes","internalType":"bytes"},{"name":"pubkey","type":"bytes","internalType":"bytes"},{"name":"validatorAddress","type":"address","internalType":"address"}],"outputs":[{"name":"","type":"bool","internalType":"bool"}],"stateMutability":"view"},{"type":"error","name":"InvalidBLSPubkey","inputs":[]},{"type":"error","name":"LowLevelCallFailure","inputs":[{"name":"err","type":"bytes","internalType":"bytes"}]}],"bytecode":{"object":"0x610338610034600b8282823980515f1a607314602857634e487b7160e01b5f525f60045260245ffd5b305f52607381538281f3fe7300000000000000000000000000000000000000003014608060405260043610610034575f3560e01c8063071917cf14610038575b5f5ffd5b61004b6100463660046101ef565b61005f565b604051901515815260200160405180910390f35b5f5f5f61b1516001600160a01b0316868686604051602401610083939291906102a0565b60408051601f198184030181529181526020820180516001600160e01b031663071917cf60e01b179052516100b891906102dd565b5f60405180830381855afa9150503d805f81146100f0576040519150601f19603f3d011682016040523d82523d5f602084013e6100f5565b606091505b509150915081158061010957508051602014155b1561013257806040516306fe67db60e31b815260040161012991906102f3565b60405180910390fd5b80806020019051810190610146919061030c565b9695505050505050565b634e487b7160e01b5f52604160045260245ffd5b5f82601f830112610173575f5ffd5b813567ffffffffffffffff81111561018d5761018d610150565b604051601f8201601f19908116603f0116810167ffffffffffffffff811182821017156101bc576101bc610150565b6040528181528382016020018510156101d3575f5ffd5b816020850160208301375f918101602001919091529392505050565b5f5f5f60608486031215610201575f5ffd5b833567ffffffffffffffff811115610217575f5ffd5b61022386828701610164565b935050602084013567ffffffffffffffff81111561023f575f5ffd5b61024b86828701610164565b92505060408401356001600160a01b0381168114610267575f5ffd5b809150509250925092565b5f81518084528060208401602086015e5f602082860101526020601f19601f83011685010191505092915050565b606081525f6102b26060830186610272565b82810360208401526102c48186610272565b91505060018060a01b0383166040830152949350505050565b5f82518060208501845e5f920191825250919050565b602081525f6103056020830184610272565b9392505050565b5f6020828403121561031c575f5ffd5b81518015158114610305575f5ffdfea164736f6c6343000823000a","linkReferences":{}},"methodIdentifiers":{"verifyProofOfPossession(bytes,bytes,address)":"071917cf"},"id":130}