{"abi":[{"type":"function","name":"B_IN_BYTES","inputs":[],"outputs":[{"name":"","type":"uint256","internalType":"uint256"}],"stateMutability":"view"},{"type":"function","name":"EIP2537_FIELD_ELEMENT_SIZE","inputs":[],"outputs":[{"name":"","type":"uint256","internalType":"uint256"}],"stateMutability":"view"},{"type":"function","name":"EIP2537_G1_POINT_SIZE","inputs":[],"outputs":[{"name":"","type":"uint256","internalType":"uint256"}],"stateMutability":"view"},{"type":"function","name":"EIP2537_G2_POINT_SIZE","inputs":[],"outputs":[{"name":"","type":"uint256","internalType":"uint256"}],"stateMutability":"view"},{"type":"function","name":"FIELD_ELEMENT_SIZE","inputs":[],"outputs":[{"name":"","type":"uint256","internalType":"uint256"}],"stateMutability":"view"},{"type":"function","name":"G1_ADD","inputs":[],"outputs":[{"name":"","type":"address","internalType":"address"}],"stateMutability":"view"},{"type":"function","name":"G1_GENERATOR","inputs":[],"outputs":[{"name":"","type":"bytes","internalType":"bytes"}],"stateMutability":"view"},{"type":"function","name":"G1_IDENTITY","inputs":[],"outputs":[{"name":"","type":"bytes","internalType":"bytes"}],"stateMutability":"view"},{"type":"function","name":"G1_IDENTITY_RAW","inputs":[],"outputs":[{"name":"","type":"bytes","internalType":"bytes"}],"stateMutability":"view"},{"type":"function","name":"G1_MUL","inputs":[],"outputs":[{"name":"","type":"address","internalType":"address"}],"stateMutability":"view"},{"type":"function","name":"G2_ADD","inputs":[],"outputs":[{"name":"","type":"address","internalType":"address"}],"stateMutability":"view"},{"type":"function","name":"G2_GENERATOR","inputs":[],"outputs":[{"name":"","type":"bytes","internalType":"bytes"}],"stateMutability":"view"},{"type":"function","name":"G2_GENERATOR_NEG","inputs":[],"outputs":[{"name":"","type":"bytes","internalType":"bytes"}],"stateMutability":"view"},{"type":"function","name":"G2_IDENTITY","inputs":[],"outputs":[{"name":"","type":"bytes","internalType":"bytes"}],"stateMutability":"view"},{"type":"function","name":"G2_IDENTITY_RAW","inputs":[],"outputs":[{"name":"","type":"bytes","internalType":"bytes"}],"stateMutability":"view"},{"type":"function","name":"G2_MUL","inputs":[],"outputs":[{"name":"","type":"address","internalType":"address"}],"stateMutability":"view"},{"type":"function","name":"HASH_TO_G1_DST","inputs":[],"outputs":[{"name":"","type":"bytes","internalType":"bytes"}],"stateMutability":"view"},{"type":"function","name":"I2OSP","inputs":[{"name":"x","type":"uint256","internalType":"uint256"},{"name":"xLen","type":"uint256","internalType":"uint256"}],"outputs":[{"name":"","type":"bytes","internalType":"bytes"}],"stateMutability":"pure"},{"type":"function","name":"L","inputs":[],"outputs":[{"name":"","type":"uint256","internalType":"uint256"}],"stateMutability":"view"},{"type":"function","name":"MAP_FP_TO_G1","inputs":[],"outputs":[{"name":"","type":"address","internalType":"address"}],"stateMutability":"view"},{"type":"function","name":"P","inputs":[],"outputs":[{"name":"","type":"bytes","internalType":"bytes"}],"stateMutability":"view"},{"type":"function","name":"PAIRING_CHECK","inputs":[],"outputs":[{"name":"","type":"address","internalType":"address"}],"stateMutability":"view"},{"type":"function","name":"S_IN_BYTES","inputs":[],"outputs":[{"name":"","type":"uint256","internalType":"uint256"}],"stateMutability":"view"},{"type":"function","name":"addG1","inputs":[{"name":"point0","type":"bytes","internalType":"bytes"},{"name":"point1","type":"bytes","internalType":"bytes"}],"outputs":[{"name":"","type":"bytes","internalType":"bytes"}],"stateMutability":"view"},{"type":"function","name":"addG2","inputs":[{"name":"point0","type":"bytes","internalType":"bytes"},{"name":"point1","type":"bytes","internalType":"bytes"}],"outputs":[{"name":"","type":"bytes","internalType":"bytes"}],"stateMutability":"view"},{"type":"function","name":"decodeG1PointFromEIP2537","inputs":[{"name":"encodedPoint","type":"bytes","internalType":"bytes"}],"outputs":[{"name":"","type":"bytes","internalType":"bytes"}],"stateMutability":"pure"},{"type":"function","name":"decodeG2PointFromEIP2537","inputs":[{"name":"encodedPoint","type":"bytes","internalType":"bytes"}],"outputs":[{"name":"","type":"bytes","internalType":"bytes"}],"stateMutability":"pure"},{"type":"function","name":"eip2537BytesToFieldElement","inputs":[{"name":"paddedElement","type":"bytes","internalType":"bytes"},{"name":"paddedOffset","type":"uint256","internalType":"uint256"},{"name":"dest","type":"bytes","internalType":"bytes"},{"name":"destOffset","type":"uint256","internalType":"uint256"}],"outputs":[],"stateMutability":"pure"},{"type":"function","name":"encodeG1PointForEIP2537","inputs":[{"name":"uncompressedSignature","type":"bytes","internalType":"bytes"}],"outputs":[{"name":"","type":"bytes","internalType":"bytes"}],"stateMutability":"pure"},{"type":"function","name":"encodeG2PointForEIP2537","inputs":[{"name":"uncompressedPubkey","type":"bytes","internalType":"bytes"}],"outputs":[{"name":"","type":"bytes","internalType":"bytes"}],"stateMutability":"pure"},{"type":"function","name":"expandMessageXmd","inputs":[{"name":"message","type":"bytes","internalType":"bytes"},{"name":"dst","type":"bytes","internalType":"bytes"},{"name":"outputLen","type":"uint16","internalType":"uint16"}],"outputs":[{"name":"result","type":"bytes","internalType":"bytes"}],"stateMutability":"pure"},{"type":"function","name":"extractBytes","inputs":[{"name":"source","type":"bytes","internalType":"bytes"},{"name":"offset","type":"uint256","internalType":"uint256"},{"name":"length","type":"uint256","internalType":"uint256"}],"outputs":[{"name":"","type":"bytes","internalType":"bytes"}],"stateMutability":"pure"},{"type":"function","name":"fieldElementToEIP2537Bytes","inputs":[{"name":"source","type":"bytes","internalType":"bytes"},{"name":"sourceOffset","type":"uint256","internalType":"uint256"},{"name":"dest","type":"bytes","internalType":"bytes"},{"name":"destOffset","type":"uint256","internalType":"uint256"}],"outputs":[],"stateMutability":"pure"},{"type":"function","name":"hashToField","inputs":[{"name":"input","type":"bytes","internalType":"bytes"},{"name":"dst","type":"bytes","internalType":"bytes"},{"name":"count","type":"uint256","internalType":"uint256"}],"outputs":[{"name":"","type":"tuple[]","internalType":"struct BlsG1.Fp[]","components":[{"name":"data","type":"bytes","internalType":"bytes"}]}],"stateMutability":"view"},{"type":"function","name":"hashToG1","inputs":[{"name":"message","type":"bytes","internalType":"bytes"},{"name":"dst","type":"bytes","internalType":"bytes"}],"outputs":[{"name":"","type":"bytes","internalType":"bytes"}],"stateMutability":"view"},{"type":"function","name":"isInfinityPointG1","inputs":[{"name":"eip2537PointG1","type":"bytes","internalType":"bytes"}],"outputs":[{"name":"","type":"bool","internalType":"bool"}],"stateMutability":"pure"},{"type":"function","name":"isInfinityPointG2","inputs":[{"name":"eip2537PointG2","type":"bytes","internalType":"bytes"}],"outputs":[{"name":"","type":"bool","internalType":"bool"}],"stateMutability":"pure"},{"type":"function","name":"isUncompressedInfinityPointG1","inputs":[{"name":"uncompressedPointG1","type":"bytes","internalType":"bytes"}],"outputs":[{"name":"","type":"bool","internalType":"bool"}],"stateMutability":"pure"},{"type":"function","name":"isUncompressedInfinityPointG2","inputs":[{"name":"uncompressedPointG2","type":"bytes","internalType":"bytes"}],"outputs":[{"name":"","type":"bool","internalType":"bool"}],"stateMutability":"pure"},{"type":"function","name":"mapFieldElementToG1","inputs":[{"name":"element","type":"tuple","internalType":"struct BlsG1.Fp","components":[{"name":"data","type":"bytes","internalType":"bytes"}]}],"outputs":[{"name":"","type":"bytes","internalType":"bytes"}],"stateMutability":"view"},{"type":"function","name":"processFieldElement","inputs":[{"name":"uniformBytes","type":"bytes","internalType":"bytes"},{"name":"index","type":"uint256","internalType":"uint256"}],"outputs":[{"name":"","type":"tuple","internalType":"struct BlsG1.Fp","components":[{"name":"data","type":"bytes","internalType":"bytes"}]}],"stateMutability":"view"},{"type":"function","name":"scalarMulG1","inputs":[{"name":"g1Point","type":"bytes","internalType":"bytes"},{"name":"scalar","type":"uint256","internalType":"uint256"}],"outputs":[{"name":"","type":"bytes","internalType":"bytes"}],"stateMutability":"view"},{"type":"function","name":"scalarMulG2","inputs":[{"name":"g2Point","type":"bytes","internalType":"bytes"},{"name":"scalar","type":"uint256","internalType":"uint256"}],"outputs":[{"name":"","type":"bytes","internalType":"bytes"}],"stateMutability":"view"},{"type":"function","name":"validatePointG1","inputs":[{"name":"point","type":"bytes","internalType":"bytes"}],"outputs":[{"name":"","type":"bool","internalType":"bool"}],"stateMutability":"view"},{"type":"function","name":"validatePointG2","inputs":[{"name":"point","type":"bytes","internalType":"bytes"}],"outputs":[{"name":"","type":"bool","internalType":"bool"}],"stateMutability":"view"},{"type":"function","name":"verifyProofOfPossessionG1","inputs":[{"name":"blsPubkey","type":"bytes","internalType":"bytes"},{"name":"signature","type":"bytes","internalType":"bytes"},{"name":"message","type":"bytes","internalType":"bytes"},{"name":"dst","type":"bytes","internalType":"bytes"}],"outputs":[{"name":"","type":"bool","internalType":"bool"}],"stateMutability":"view"},{"type":"error","name":"CountTooLarge","inputs":[{"name":"count","type":"uint256","internalType":"uint256"}]},{"type":"error","name":"DSTTooLong","inputs":[{"name":"dstLen","type":"uint256","internalType":"uint256"}]},{"type":"error","name":"EllTooLarge","inputs":[{"name":"ell","type":"uint256","internalType":"uint256"}]},{"type":"error","name":"I2OSPIntegerTooLarge","inputs":[{"name":"i2ospInteger","type":"uint256","internalType":"uint256"}]},{"type":"error","name":"InvalidBLSProof","inputs":[]},{"type":"error","name":"InvalidBLSPubkey","inputs":[]},{"type":"error","name":"InvalidFpOffset","inputs":[]},{"type":"error","name":"InvalidPadding","inputs":[]},{"type":"error","name":"InvalidPoint","inputs":[{"name":"actualLen","type":"uint256","internalType":"uint256"},{"name":"expectedLen","type":"uint256","internalType":"uint256"}]},{"type":"error","name":"InvalidUncompressedBLSPubkey","inputs":[]},{"type":"error","name":"LengthTooLarge","inputs":[{"name":"len","type":"uint256","internalType":"uint256"}]},{"type":"error","name":"LowLevelCallFailure","inputs":[{"name":"err","type":"bytes","internalType":"bytes"}]}],"bytecode":{"object":"0x612184610034600b8282823980515f1a607314602857634e487b7160e01b5f525f60045260245ffd5b305f52607381538281f3fe730000000000000000000000000000000000000000301460806040526004361061028c575f3560e01c80639a035a3e11610161578063bceb5f83116100d5578063dd9509ed1161008f578063dd9509ed14610523578063e215818914610536578063e5a837fd1461044d578063f0b18a531461053e578063f3aa547914610551578063f999712f14610559575f80fd5b8063bceb5f83146104c5578063bdfc3701146104cd578063bf9d8997146104d5578063c7910791146104f5578063cf3fb64314610508578063d666c7b51461051b575f80fd5b8063aedd751f11610126578063aedd751f1461044d578063b2f0b9b41461047b578063b3e1864914610483578063b59ffcdd14610496578063ba486201146104a9578063ba601241146104bc575f80fd5b80639a035a3e146104325780639d9ca562146104455780639f13f76d1461044d578063a691a08b14610455578063a6f5f32414610468575f80fd5b8063586c582d116102035780638976fc3b116101bd5780638976fc3b146103c95780638b8fbd92146103dc5780638eadfb91146103e457806392b8b6681461040457806396b5eb771461040c578063993c3b2c1461041f575f80fd5b8063586c582d146103785780635d17767314610380578063768c59f3146103935780637bcd6fd7146103a65780637fed4c95146103b957806389184adc146103c1575f80fd5b806316babd741161025457806316babd741461032757806324cddfa81461032f5780633632358c146103425780633d2a9e111461034a5780634c1dd66e1461035d5780635779b9a314610365575f80fd5b80630406a22814610290578063069eb4f2146102a557806306ac9f97146102ce578063086ecef7146102f157806308cd4da014610311575b5f80fd5b6102a361029e36600461175e565b610561565b005b6102b86102b33660046117d1565b61067b565b6040516102c59190611862565b60405180910390f35b6102e16102dc366004611874565b610723565b60405190151581526020016102c5565b6102f9600d81565b6040516001600160a01b0390911681526020016102c5565b610319608081565b6040519081526020016102c5565b6102b86107a7565b6102b861033d3660046118ad565b6107c3565b6102f9600f81565b6102b8610358366004611874565b61084c565b6102f9600b81565b6102e1610373366004611934565b6108bf565b6102b86109f5565b6102b861038e3660046119e9565b610a26565b6102a36103a136600461175e565b610ad5565b6102e16103b4366004611874565b610ba7565b6102b8610bf1565b6102b8610c0d565b6102b86103d73660046117d1565b610c14565b6102b8610c36565b6103f76103f23660046119e9565b610c52565b6040516102c59190611a3e565b6102b8610d01565b6102b861041a366004611a50565b610d20565b6102b861042d366004611acc565b611020565b6102b8610440366004611b15565b611100565b610319603081565b610319604081565b6102b8610463366004611874565b6111ec565b6102e1610476366004611874565b61127d565b6102b86112ee565b6102e1610491366004611874565b6112f6565b6102e16104a4366004611874565b611302565b6102e16104b7366004611874565b61130e565b61031961010081565b6102b861131a565b6102b8611339565b6104e86104e3366004611b35565b611340565b6040516102c59190611ba1565b6102b8610503366004611874565b61142f565b6102b86105163660046119e9565b61149b565b6102f9600c81565b6102b8610531366004611874565b6114df565b6102f9600e81565b6102b861054c3660046117d1565b611569565b6102f9601081565b610319602081565b835161056e604085611c18565b111561059e5783516040805163414cf37560e01b8152600481019290925260248201526044015b60405180910390fd5b5f5b60108110156105f957846105b48286611c18565b815181106105c4576105c4611c2b565b01602001516001600160f81b031916156105f15760405163ae63f77b60e01b815260040160405180910390fd5b6001016105a0565b505f5b6030811015610674578481610612866010611c18565b61061c9190611c18565b8151811061062c5761062c611c2b565b01602001516001600160f81b031916836106468385611c18565b8151811061065657610656611c2b565b60200101906001600160f81b03191690815f1a9053506001016105fc565b5050505050565b60605f80600d6001600160a01b0316858560405160200161069d929190611c56565b60408051601f19818403018152908290526106b791611c6a565b5f60405180830381855afa9150503d805f81146106ef576040519150601f19603f3d011682016040523d82523d5f602084013e6106f4565b606091505b50915091508161071957806040516306fe67db60e31b81526004016105959190611862565b9150505b92915050565b5f6080825114158061073957506107398261130e565b1561076457815160405163414cf37560e01b8152600481019190915260806024820152604401610595565b60408051608080825260a0820190925261071d9161079091859160208201818036833701905050610c14565b838051602091820120825192909101919091201490565b6040518060a0016040528060808152602001611f9d6080913981565b60605f8060106001600160a01b0316845f01516040516107e39190611c6a565b5f60405180830381855afa9150503d805f811461081b576040519150601f19603f3d011682016040523d82523d5f602084013e610820565b606091505b50915091508161084557806040516306fe67db60e31b81526004016105959190611862565b9392505050565b6060815160601461087057604051630d09b15360e01b815260040160405180910390fd5b60408051608080825260a082019092525f9160208201818036833701905050905061089a836112f6565b156108a55792915050565b6108b1835f835f610ad5565b61071d836030836040610ad5565b5f6108c985610ba7565b156108e7576040516333a234f960e11b815260040160405180910390fd5b6108f08461130e565b1561090e57604051630d09b15360e01b815260040160405180910390fd5b5f6109198484611569565b90505f8187876040518061012001604052806101008152602001612048610100913960405160200161094e9493929190611c75565b60405160208183030381529060405290505f80600f6001600160a01b03168360405161097a9190611c6a565b5f60405180830381855afa9150503d805f81146109b2576040519150601f19603f3d011682016040523d82523d5f602084013e6109b7565b606091505b5091509150816109dc57806040516306fe67db60e31b81526004016105959190611862565b6109e581611c95565b6001149998505050505050505050565b60605b6040519080825280601f01601f191660200182016040528015610a22576020820181803683370190505b5081565b60605f83835f1b604051602001610a3e929190611cbb565b60405160208183030381529060405290505f80600c6001600160a01b031683604051610a6a9190611c6a565b5f60405180830381855afa9150503d805f8114610aa2576040519150601f19603f3d011682016040523d82523d5f602084013e610aa7565b606091505b509150915081610acc57806040516306fe67db60e31b81526004016105959190611862565b95945050505050565b8351610ae2603085611c18565b1115610b015760405163228c451560e11b815260040160405180910390fd5b8151610b0e604083611c18565b1115610b2d5760405163228c451560e11b815260040160405180910390fd5b5f5b60308110156106745784610b438286611c18565b81518110610b5357610b53611c2b565b01602001516001600160f81b0319168382610b6f856010611c18565b610b799190611c18565b81518110610b8957610b89611c2b565b60200101906001600160f81b03191690815f1a905350600101610b2f565b5f61071d826101005b6040519080825280601f01601f191660200182016040528015610bda576020820181803683370190505b508051602091820120825192909101919091201490565b6040518060600160405280602b815260200161201d602b913981565b60c06109f8565b60605f80600b6001600160a01b0316858560405160200161069d929190611c56565b6040518060600160405280603081526020016121486030913981565b6040805160208101909152606081525f610c6d836040611cd3565b90505f610c7c85836040611020565b90505f610cbb82604051806040016040528060018152602001600160f81b815250604051806060016040528060308152602001612148603091396115cc565b604080518181526060810182529192505f9190602082018180368337019050509050610ce9825f835f610ad5565b60408051602081019091529081529695505050505050565b6040518061012001604052806101008152602001612048610100913981565b60605f60206001610d358261ffff8716611c18565b610d3f9190611cea565b610d499190611cfd565b905060ff811115610d7057604051637349dd2760e11b815260048101829052602401610595565b61ffff8381161115610d9b57604051633531161b60e01b815261ffff84166004820152602401610595565b835160ff1015610dc35783516040516330648ea960e01b815260040161059591815260200190565b60605f8086905080610dd782516001611100565b604051602001610de8929190611c56565b60405160208183030381529060405292505f610e055f6040611100565b90505f610e178861ffff166002611100565b90505f828b83610e285f6001611100565b89604051602001610e3d959493929190611d1c565b6040516020818303038152906040529050600281604051610e5e9190611c6a565b602060405180830381855afa158015610e79573d5f803e3d5ffd5b5050506040513d601f19601f82011682018060405250810190610e9c9190611d44565b9450505050505f600282610eb1600180611100565b85604051602001610ec493929190611d5b565b60408051601f1981840301815290829052610ede91611c6a565b602060405180830381855afa158015610ef9573d5f803e3d5ffd5b5050506040513d601f19601f82011682018060405250810190610f1c9190611d44565b90505f81604051602001610f3291815260200190565b60408051601f1981840301815291905290508160025b86811161100f578482185f610f5e836001611100565b90505f600283838b604051602001610f7893929190611d5b565b60408051601f1981840301815290829052610f9291611c6a565b602060405180830381855afa158015610fad573d5f803e3d5ffd5b5050506040513d601f19601f82011682018060405250810190610fd09190611d44565b90508581604051602001610fe5929190611cbb565b6040516020818303038152906040529550809450505050808061100790611d6f565b915050610f48565b505095865250939695505050505050565b825160609061102f8385611c18565b111561105157604051633531161b60e01b815260048101839052602401610595565b5f826001600160401b0381111561106a5761106a6116c1565b6040519080825280601f01601f191660200182016040528015611094576020820181803683370190505b5090505f5b838110156110f757856110ac8287611c18565b815181106110bc576110bc611c2b565b602001015160f81c60f81b8282815181106110d9576110d9611c2b565b60200101906001600160f81b03191690815f1a905350600101611099565b50949350505050565b606060208210801561111d575061111982610100611e62565b8310155b1561113e57604051634f783b2f60e01b815260048101849052602401610595565b5f826001600160401b03811115611157576111576116c1565b6040519080825280601f01601f191660200182016040528015611181576020820181803683370190505b5090505f5b838110156111e457611199816008611cd3565b85901c60f81b82826111ac600188611cea565b6111b69190611cea565b815181106111c6576111c6611c2b565b60200101906001600160f81b03191690815f1a905350600101611186565b509392505050565b6060815160c01461121057604051631e99df4360e21b815260040160405180910390fd5b6040805161010080825261012082019092525f9160208201818036833701905050905061123c83611302565b156112475792915050565b611254836030835f610ad5565b611261835f836040610ad5565b61126f836090836080610ad5565b61071d8360608360c0610ad5565b5f6101008251141580611294575061129482610ba7565b156112c057815160405163414cf37560e01b815260048101919091526101006024820152604401610595565b60408051610100808252610120820190925261071d916107909185916020820181803683370190505061067b565b6101006109f8565b5f61071d826060610bb0565b5f61071d8260c0610bb0565b5f61071d826080610bb0565b6040518061012001604052806101008152602001611e9d610100913981565b60806109f8565b60605f826001600160401b0381111561135b5761135b6116c1565b60405190808252806020026020018201604052801561139b57816020015b6040805160208101909152606081528152602001906001900390816113795790505b5090506113ab604061ffff611cfd565b8311156113ce576040516336b5c98d60e21b815260048101849052602401610595565b5f6113da604085611cd3565b90505f6113e8878784610d20565b90505f5b85811015611423576113fe8282610c52565b84828151811061141057611410611c2b565b60209081029190910101526001016113ec565b50919695505050505050565b6060608082511461146057815160405163414cf37560e01b8152600481019190915260806024820152604401610595565b604080516060808252608082019092525f9160208201818036833701905050905061148d835f835f610561565b61071d836040836030610561565b60605f83835f1b6040516020016114b3929190611cbb565b60405160208183030381529060405290505f80600e6001600160a01b031683604051610a6a9190611c6a565b606061010082511461151257815160405163414cf37560e01b815260048101919091526101006024820152604401610595565b6040805160c080825260e082019092525f91602082018180368337019050509050611540836040835f610561565b61154d835f836030610561565b61155b8360c0836060610561565b61071d836080836090610561565b60605f61157884846002611340565b90505f61159d825f8151811061159057611590611c2b565b60200260200101516107c3565b90505f6115b68360018151811061159057611590611c2b565b90506115c28282610c14565b9695505050505050565b60605f806115db8686866115ee565b9150915081610acc57610acc6012611665565b5f60606115fa83611676565b15611615575050604080515f8082526020820190925261165d565b82518551855160405161163492919084908a908a908a90602001611e6d565b604051602081830303815290604052915060208201818184518360055afa828452910160405291505b935093915050565b634e487b715f52806020526024601cfd5b5f805b82518110156116b85782818151811061169457611694611c2b565b01602001516001600160f81b031916156116b057505f92915050565b600101611679565b50600192915050565b634e487b7160e01b5f52604160045260245ffd5b5f82601f8301126116e4575f80fd5b81356001600160401b038111156116fd576116fd6116c1565b604051601f8201601f19908116603f011681016001600160401b038111828210171561172b5761172b6116c1565b604052818152838201602001851015611742575f80fd5b816020850160208301375f918101602001919091529392505050565b5f805f8060808587031215611771575f80fd5b84356001600160401b03811115611786575f80fd5b611792878288016116d5565b9450506020850135925060408501356001600160401b038111156117b4575f80fd5b6117c0878288016116d5565b949793965093946060013593505050565b5f80604083850312156117e2575f80fd5b82356001600160401b038111156117f7575f80fd5b611803858286016116d5565b92505060208301356001600160401b0381111561181e575f80fd5b61182a858286016116d5565b9150509250929050565b5f81518084528060208401602086015e5f602082860101526020601f19601f83011685010191505092915050565b602081525f6108456020830184611834565b5f60208284031215611884575f80fd5b81356001600160401b03811115611899575f80fd5b6118a5848285016116d5565b949350505050565b5f602082840312156118bd575f80fd5b81356001600160401b038111156118d2575f80fd5b8201602081850312156118e3575f80fd5b604051602081016001600160401b0381118282101715611905576119056116c1565b60405281356001600160401b0381111561191d575f80fd5b611929868285016116d5565b825250949350505050565b5f805f8060808587031215611947575f80fd5b84356001600160401b0381111561195c575f80fd5b611968878288016116d5565b94505060208501356001600160401b03811115611983575f80fd5b61198f878288016116d5565b93505060408501356001600160401b038111156119aa575f80fd5b6119b6878288016116d5565b92505060608501356001600160401b038111156119d1575f80fd5b6119dd878288016116d5565b91505092959194509250565b5f80604083850312156119fa575f80fd5b82356001600160401b03811115611a0f575f80fd5b611a1b858286016116d5565b95602094909401359450505050565b5f8151602084526118a56020850182611834565b602081525f6108456020830184611a2a565b5f805f60608486031215611a62575f80fd5b83356001600160401b03811115611a77575f80fd5b611a83868287016116d5565b93505060208401356001600160401b03811115611a9e575f80fd5b611aaa868287016116d5565b925050604084013561ffff81168114611ac1575f80fd5b809150509250925092565b5f805f60608486031215611ade575f80fd5b83356001600160401b03811115611af3575f80fd5b611aff868287016116d5565b9660208601359650604090950135949350505050565b5f8060408385031215611b26575f80fd5b50508035926020909101359150565b5f805f60608486031215611b47575f80fd5b83356001600160401b03811115611b5c575f80fd5b611b68868287016116d5565b93505060208401356001600160401b03811115611b83575f80fd5b611b8f868287016116d5565b93969395505050506040919091013590565b5f602082016020835280845180835260408501915060408160051b8601019250602086015f5b82811015611bf857603f19878603018452611be3858351611a2a565b94506020938401939190910190600101611bc7565b50929695505050505050565b634e487b7160e01b5f52601160045260245ffd5b8082018082111561071d5761071d611c04565b634e487b7160e01b5f52603260045260245ffd5b5f81518060208401855e5f93019283525090919050565b5f6118a5611c648386611c3f565b84611c3f565b5f6108458284611c3f565b5f6115c2611c64611c8f611c89858a611c3f565b88611c3f565b86611c3f565b80516020808301519190811015611cb5575f198160200360031b1b821691505b50919050565b5f611cc68285611c3f565b9283525050602001919050565b808202811582820484141761071d5761071d611c04565b8181038181111561071d5761071d611c04565b5f82611d1757634e487b7160e01b5f52601260045260245ffd5b500490565b5f611d39611c64611c8f611c89611d33868c611c3f565b8a611c3f565b979650505050505050565b5f60208284031215611d54575f80fd5b5051919050565b8381525f610acc611c646020840186611c3f565b5f60018201611d8057611d80611c04565b5060010190565b6001815b600184111561165d57808504811115611da657611da6611c04565b6001841615611db457908102905b60019390931c928002611d8b565b5f82611dd05750600161071d565b81611ddc57505f61071d565b8160018114611df25760028114611dfc57611e18565b600191505061071d565b60ff841115611e0d57611e0d611c04565b50506001821b61071d565b5060208310610133831016604e8410600b8410161715611e3b575081810a61071d565b611e475f198484611d87565b805f1904821115611e5a57611e5a611c04565b029392505050565b5f6108458383611dc2565b8681528560208201528460408201525f611e90611c64611c8f6060850188611c3f565b9897505050505050505056fe00000000000000000000000000000000024aa2b2f08f0a91260805272dc51051c6e47ad4fa403b02b4510b647ae3d1770bac0326a805bbefd48056c8c121bdb80000000000000000000000000000000013e02b6052719f607dacd3a088274f65596bd0d09920b61ab5da61bbdc7f5049334cf11213945d57e5ac7d055d042b7e000000000000000000000000000000000ce5d527727d6e118cc9cdc6da2e351aadfd9baa8cbdd3a76d429a695160d12c923ac9cc3baca289e193548608b82801000000000000000000000000000000000606c4a02ea734cc32acd2b02bc28b99cb3e287e85a763af267492ab572e99ab3f370d275cec1da1aaa9075ff05f79be0000000000000000000000000000000017f1d3a73197d7942695638c4fa9ac0fc3688c4f9774b905a14e3a3f171bac586c55e83ff97a1aeffb3af00adb22c6bb0000000000000000000000000000000008b3f481e3aaa0f1a09e30ed741d8ae4fcf5e095d5d00af600db18cb2c04b3edd03cc744a2888ae40caa232946c5e7e1424c535f5349475f424c53313233383147315f584d443a5348412d3235365f535357555f524f5f4e554c5f00000000000000000000000000000000024aa2b2f08f0a91260805272dc51051c6e47ad4fa403b02b4510b647ae3d1770bac0326a805bbefd48056c8c121bdb80000000000000000000000000000000013e02b6052719f607dacd3a088274f65596bd0d09920b61ab5da61bbdc7f5049334cf11213945d57e5ac7d055d042b7e000000000000000000000000000000000d1b3cc2c7027888be51d9ef691d77bcb679afda66c73f17f9ee3837a55024f78c71363275a75d75d86bab79f74782aa0000000000000000000000000000000013fa4d4a0ad8b1ce186ed5061789213d993923066dddaf1040bc3ff59f825c78df74f2d75467e25e0f55f8a00fa030ed1a0111ea397fe69a4b1ba7b6434bacd764774b84f38512bf6730d2a0f6b0f6241eabfffeb153ffffb9feffffffffaaaba164736f6c634300081a000a","linkReferences":{}},"methodIdentifiers":{"B_IN_BYTES()":"f999712f","EIP2537_FIELD_ELEMENT_SIZE()":"aedd751f","EIP2537_G1_POINT_SIZE()":"08cd4da0","EIP2537_G2_POINT_SIZE()":"ba601241","FIELD_ELEMENT_SIZE()":"9d9ca562","G1_ADD()":"4c1dd66e","G1_GENERATOR()":"16babd74","G1_IDENTITY()":"bdfc3701","G1_IDENTITY_RAW()":"586c582d","G1_MUL()":"d666c7b5","G2_ADD()":"086ecef7","G2_GENERATOR()":"bceb5f83","G2_GENERATOR_NEG()":"92b8b668","G2_IDENTITY()":"b2f0b9b4","G2_IDENTITY_RAW()":"89184adc","G2_MUL()":"e2158189","HASH_TO_G1_DST()":"7fed4c95","I2OSP(uint256,uint256)":"9a035a3e","L()":"9f13f76d","MAP_FP_TO_G1()":"f3aa5479","P()":"8b8fbd92","PAIRING_CHECK()":"3632358c","S_IN_BYTES()":"e5a837fd","addG1(bytes,bytes)":"8976fc3b","addG2(bytes,bytes)":"069eb4f2","decodeG1PointFromEIP2537(bytes)":"c7910791","decodeG2PointFromEIP2537(bytes)":"dd9509ed","eip2537BytesToFieldElement(bytes,uint256,bytes,uint256)":"0406a228","encodeG1PointForEIP2537(bytes)":"3d2a9e11","encodeG2PointForEIP2537(bytes)":"a691a08b","expandMessageXmd(bytes,bytes,uint16)":"96b5eb77","extractBytes(bytes,uint256,uint256)":"993c3b2c","fieldElementToEIP2537Bytes(bytes,uint256,bytes,uint256)":"768c59f3","hashToField(bytes,bytes,uint256)":"bf9d8997","hashToG1(bytes,bytes)":"f0b18a53","isInfinityPointG1(bytes)":"ba486201","isInfinityPointG2(bytes)":"7bcd6fd7","isUncompressedInfinityPointG1(bytes)":"b3e18649","isUncompressedInfinityPointG2(bytes)":"b59ffcdd","mapFieldElementToG1(BlsG1.Fp)":"24cddfa8","processFieldElement(bytes,uint256)":"8eadfb91","scalarMulG1(bytes,uint256)":"5d177673","scalarMulG2(bytes,uint256)":"cf3fb643","validatePointG1(bytes)":"06ac9f97","validatePointG2(bytes)":"a6f5f324","verifyProofOfPossessionG1(bytes,bytes,bytes,bytes)":"5779b9a3"},"storageLayout":{"storage":[],"types":{}},"id":22}