{"abi":[{"type":"constructor","inputs":[{"name":"genesisConfig_","type":"tuple","internalType":"struct IStakeManager.StakeConfig","components":[{"name":"stakeAmount","type":"uint256","internalType":"uint256"},{"name":"minWithdrawAmount","type":"uint256","internalType":"uint256"},{"name":"epochIssuance","type":"uint256","internalType":"uint256"},{"name":"epochDuration","type":"uint32","internalType":"uint32"}]},{"name":"initialValidators_","type":"tuple[]","internalType":"struct IConsensusRegistry.ValidatorInfo[]","components":[{"name":"blsPubkey","type":"bytes","internalType":"bytes"},{"name":"validatorAddress","type":"address","internalType":"address"},{"name":"activationEpoch","type":"uint32","internalType":"uint32"},{"name":"exitEpoch","type":"uint32","internalType":"uint32"},{"name":"currentStatus","type":"uint8","internalType":"enum IConsensusRegistry.ValidatorStatus"},{"name":"isRetired","type":"bool","internalType":"bool"},{"name":"isDelegated","type":"bool","internalType":"bool"},{"name":"stakeVersion","type":"uint8","internalType":"uint8"}]},{"name":"proofsOfPossession","type":"tuple[]","internalType":"struct BlsG1.ProofOfPossession[]","components":[{"name":"uncompressedPubkey","type":"bytes","internalType":"bytes"},{"name":"uncompressedSignature","type":"bytes","internalType":"bytes"}]},{"name":"owner_","type":"address","internalType":"address"},{"name":"wTEL_","type":"address","internalType":"address"}],"stateMutability":"nonpayable"},{"type":"function","name":"SYSTEM_ADDRESS","inputs":[],"outputs":[{"name":"","type":"address","internalType":"address"}],"stateMutability":"view"},{"type":"function","name":"activate","inputs":[],"outputs":[],"stateMutability":"nonpayable"},{"type":"function","name":"allocateIssuance","inputs":[],"outputs":[],"stateMutability":"payable"},{"type":"function","name":"applyIncentives","inputs":[{"name":"rewardInfos","type":"tuple[]","internalType":"struct RewardInfo[]","components":[{"name":"validatorAddress","type":"address","internalType":"address"},{"name":"consensusHeaderCount","type":"uint256","internalType":"uint256"}]}],"outputs":[],"stateMutability":"nonpayable"},{"type":"function","name":"applySlashes","inputs":[{"name":"slashes","type":"tuple[]","internalType":"struct Slash[]","components":[{"name":"validatorAddress","type":"address","internalType":"address"},{"name":"amount","type":"uint256","internalType":"uint256"}]}],"outputs":[],"stateMutability":"nonpayable"},{"type":"function","name":"approve","inputs":[{"name":"","type":"address","internalType":"address"},{"name":"","type":"uint256","internalType":"uint256"}],"outputs":[],"stateMutability":"nonpayable"},{"type":"function","name":"balanceOf","inputs":[{"name":"owner","type":"address","internalType":"address"}],"outputs":[{"name":"","type":"uint256","internalType":"uint256"}],"stateMutability":"view"},{"type":"function","name":"beginExit","inputs":[],"outputs":[],"stateMutability":"nonpayable"},{"type":"function","name":"burn","inputs":[{"name":"validatorAddress","type":"address","internalType":"address"}],"outputs":[],"stateMutability":"nonpayable"},{"type":"function","name":"claimStakeRewards","inputs":[{"name":"validatorAddress","type":"address","internalType":"address"}],"outputs":[],"stateMutability":"nonpayable"},{"type":"function","name":"concludeEpoch","inputs":[{"name":"futureCommittee","type":"address[]","internalType":"address[]"}],"outputs":[],"stateMutability":"nonpayable"},{"type":"function","name":"delegateStake","inputs":[{"name":"blsPubkey","type":"bytes","internalType":"bytes"},{"name":"proofOfPossession","type":"tuple","internalType":"struct BlsG1.ProofOfPossession","components":[{"name":"uncompressedPubkey","type":"bytes","internalType":"bytes"},{"name":"uncompressedSignature","type":"bytes","internalType":"bytes"}]},{"name":"validatorAddress","type":"address","internalType":"address"},{"name":"validatorEIP712Signature","type":"bytes","internalType":"bytes"}],"outputs":[],"stateMutability":"payable"},{"type":"function","name":"delegationDigest","inputs":[{"name":"blsPubkey","type":"bytes","internalType":"bytes"},{"name":"validatorAddress","type":"address","internalType":"address"},{"name":"delegator","type":"address","internalType":"address"}],"outputs":[{"name":"","type":"bytes32","internalType":"bytes32"}],"stateMutability":"view"},{"type":"function","name":"eip712Domain","inputs":[],"outputs":[{"name":"fields","type":"bytes1","internalType":"bytes1"},{"name":"name","type":"string","internalType":"string"},{"name":"version","type":"string","internalType":"string"},{"name":"chainId","type":"uint256","internalType":"uint256"},{"name":"verifyingContract","type":"address","internalType":"address"},{"name":"salt","type":"bytes32","internalType":"bytes32"},{"name":"extensions","type":"uint256[]","internalType":"uint256[]"}],"stateMutability":"view"},{"type":"function","name":"epochInfo","inputs":[{"name":"","type":"uint256","internalType":"uint256"}],"outputs":[{"name":"epochIssuance","type":"uint256","internalType":"uint256"},{"name":"blockHeight","type":"uint64","internalType":"uint64"},{"name":"epochDuration","type":"uint32","internalType":"uint32"},{"name":"stakeVersion","type":"uint8","internalType":"uint8"}],"stateMutability":"view"},{"type":"function","name":"futureEpochInfo","inputs":[{"name":"","type":"uint256","internalType":"uint256"}],"outputs":[{"name":"epochIssuance","type":"uint256","internalType":"uint256"},{"name":"blockHeight","type":"uint64","internalType":"uint64"},{"name":"epochDuration","type":"uint32","internalType":"uint32"},{"name":"stakeVersion","type":"uint8","internalType":"uint8"}],"stateMutability":"view"},{"type":"function","name":"getApproved","inputs":[{"name":"tokenId","type":"uint256","internalType":"uint256"}],"outputs":[{"name":"","type":"address","internalType":"address"}],"stateMutability":"view"},{"type":"function","name":"getBalance","inputs":[{"name":"validatorAddress","type":"address","internalType":"address"}],"outputs":[{"name":"","type":"uint256","internalType":"uint256"}],"stateMutability":"view"},{"type":"function","name":"getCommitteeValidators","inputs":[{"name":"epoch","type":"uint32","internalType":"uint32"}],"outputs":[{"name":"","type":"tuple[]","internalType":"struct IConsensusRegistry.ValidatorInfo[]","components":[{"name":"blsPubkey","type":"bytes","internalType":"bytes"},{"name":"validatorAddress","type":"address","internalType":"address"},{"name":"activationEpoch","type":"uint32","internalType":"uint32"},{"name":"exitEpoch","type":"uint32","internalType":"uint32"},{"name":"currentStatus","type":"uint8","internalType":"enum IConsensusRegistry.ValidatorStatus"},{"name":"isRetired","type":"bool","internalType":"bool"},{"name":"isDelegated","type":"bool","internalType":"bool"},{"name":"stakeVersion","type":"uint8","internalType":"uint8"}]}],"stateMutability":"view"},{"type":"function","name":"getCurrentEpoch","inputs":[],"outputs":[{"name":"","type":"uint32","internalType":"uint32"}],"stateMutability":"view"},{"type":"function","name":"getCurrentEpochInfo","inputs":[],"outputs":[{"name":"","type":"tuple","internalType":"struct IConsensusRegistry.EpochInfo","components":[{"name":"committee","type":"address[]","internalType":"address[]"},{"name":"epochIssuance","type":"uint256","internalType":"uint256"},{"name":"blockHeight","type":"uint64","internalType":"uint64"},{"name":"epochDuration","type":"uint32","internalType":"uint32"},{"name":"stakeVersion","type":"uint8","internalType":"uint8"}]}],"stateMutability":"view"},{"type":"function","name":"getCurrentStakeConfig","inputs":[],"outputs":[{"name":"","type":"tuple","internalType":"struct IStakeManager.StakeConfig","components":[{"name":"stakeAmount","type":"uint256","internalType":"uint256"},{"name":"minWithdrawAmount","type":"uint256","internalType":"uint256"},{"name":"epochIssuance","type":"uint256","internalType":"uint256"},{"name":"epochDuration","type":"uint32","internalType":"uint32"}]}],"stateMutability":"view"},{"type":"function","name":"getCurrentStakeVersion","inputs":[],"outputs":[{"name":"","type":"uint8","internalType":"uint8"}],"stateMutability":"view"},{"type":"function","name":"getEpochInfo","inputs":[{"name":"epoch","type":"uint32","internalType":"uint32"}],"outputs":[{"name":"","type":"tuple","internalType":"struct IConsensusRegistry.EpochInfo","components":[{"name":"committee","type":"address[]","internalType":"address[]"},{"name":"epochIssuance","type":"uint256","internalType":"uint256"},{"name":"blockHeight","type":"uint64","internalType":"uint64"},{"name":"epochDuration","type":"uint32","internalType":"uint32"},{"name":"stakeVersion","type":"uint8","internalType":"uint8"}]}],"stateMutability":"view"},{"type":"function","name":"getRewards","inputs":[{"name":"validatorAddress","type":"address","internalType":"address"}],"outputs":[{"name":"","type":"uint256","internalType":"uint256"}],"stateMutability":"view"},{"type":"function","name":"getValidator","inputs":[{"name":"validatorAddress","type":"address","internalType":"address"}],"outputs":[{"name":"","type":"tuple","internalType":"struct IConsensusRegistry.ValidatorInfo","components":[{"name":"blsPubkey","type":"bytes","internalType":"bytes"},{"name":"validatorAddress","type":"address","internalType":"address"},{"name":"activationEpoch","type":"uint32","internalType":"uint32"},{"name":"exitEpoch","type":"uint32","internalType":"uint32"},{"name":"currentStatus","type":"uint8","internalType":"enum IConsensusRegistry.ValidatorStatus"},{"name":"isRetired","type":"bool","internalType":"bool"},{"name":"isDelegated","type":"bool","internalType":"bool"},{"name":"stakeVersion","type":"uint8","internalType":"uint8"}]}],"stateMutability":"view"},{"type":"function","name":"getValidators","inputs":[{"name":"status","type":"uint8","internalType":"enum IConsensusRegistry.ValidatorStatus"}],"outputs":[{"name":"","type":"tuple[]","internalType":"struct IConsensusRegistry.ValidatorInfo[]","components":[{"name":"blsPubkey","type":"bytes","internalType":"bytes"},{"name":"validatorAddress","type":"address","internalType":"address"},{"name":"activationEpoch","type":"uint32","internalType":"uint32"},{"name":"exitEpoch","type":"uint32","internalType":"uint32"},{"name":"currentStatus","type":"uint8","internalType":"enum IConsensusRegistry.ValidatorStatus"},{"name":"isRetired","type":"bool","internalType":"bool"},{"name":"isDelegated","type":"bool","internalType":"bool"},{"name":"stakeVersion","type":"uint8","internalType":"uint8"}]}],"stateMutability":"view"},{"type":"function","name":"isApprovedForAll","inputs":[{"name":"owner","type":"address","internalType":"address"},{"name":"operator","type":"address","internalType":"address"}],"outputs":[{"name":"","type":"bool","internalType":"bool"}],"stateMutability":"view"},{"type":"function","name":"isRetired","inputs":[{"name":"validatorAddress","type":"address","internalType":"address"}],"outputs":[{"name":"","type":"bool","internalType":"bool"}],"stateMutability":"view"},{"type":"function","name":"issuance","inputs":[],"outputs":[{"name":"","type":"address","internalType":"address payable"}],"stateMutability":"view"},{"type":"function","name":"mint","inputs":[{"name":"validatorAddress","type":"address","internalType":"address"}],"outputs":[],"stateMutability":"nonpayable"},{"type":"function","name":"name","inputs":[],"outputs":[{"name":"","type":"string","internalType":"string"}],"stateMutability":"view"},{"type":"function","name":"owner","inputs":[],"outputs":[{"name":"","type":"address","internalType":"address"}],"stateMutability":"view"},{"type":"function","name":"ownerOf","inputs":[{"name":"tokenId","type":"uint256","internalType":"uint256"}],"outputs":[{"name":"","type":"address","internalType":"address"}],"stateMutability":"view"},{"type":"function","name":"pause","inputs":[],"outputs":[],"stateMutability":"nonpayable"},{"type":"function","name":"paused","inputs":[],"outputs":[{"name":"","type":"bool","internalType":"bool"}],"stateMutability":"view"},{"type":"function","name":"proofOfPossessionMessage","inputs":[{"name":"blsPubkeyUncompressed","type":"bytes","internalType":"bytes"},{"name":"validatorAddress","type":"address","internalType":"address"}],"outputs":[{"name":"","type":"bytes","internalType":"bytes"}],"stateMutability":"view"},{"type":"function","name":"renounceOwnership","inputs":[],"outputs":[],"stateMutability":"nonpayable"},{"type":"function","name":"safeTransferFrom","inputs":[{"name":"from","type":"address","internalType":"address"},{"name":"to","type":"address","internalType":"address"},{"name":"tokenId","type":"uint256","internalType":"uint256"}],"outputs":[],"stateMutability":"nonpayable"},{"type":"function","name":"safeTransferFrom","inputs":[{"name":"from","type":"address","internalType":"address"},{"name":"to","type":"address","internalType":"address"},{"name":"tokenId","type":"uint256","internalType":"uint256"},{"name":"data","type":"bytes","internalType":"bytes"}],"outputs":[],"stateMutability":"nonpayable"},{"type":"function","name":"setApprovalForAll","inputs":[{"name":"","type":"address","internalType":"address"},{"name":"","type":"bool","internalType":"bool"}],"outputs":[],"stateMutability":"nonpayable"},{"type":"function","name":"stake","inputs":[{"name":"blsPubkey","type":"bytes","internalType":"bytes"},{"name":"proofOfPossession","type":"tuple","internalType":"struct BlsG1.ProofOfPossession","components":[{"name":"uncompressedPubkey","type":"bytes","internalType":"bytes"},{"name":"uncompressedSignature","type":"bytes","internalType":"bytes"}]}],"outputs":[],"stateMutability":"payable"},{"type":"function","name":"stakeConfig","inputs":[{"name":"version","type":"uint8","internalType":"uint8"}],"outputs":[{"name":"","type":"tuple","internalType":"struct IStakeManager.StakeConfig","components":[{"name":"stakeAmount","type":"uint256","internalType":"uint256"},{"name":"minWithdrawAmount","type":"uint256","internalType":"uint256"},{"name":"epochIssuance","type":"uint256","internalType":"uint256"},{"name":"epochDuration","type":"uint32","internalType":"uint32"}]}],"stateMutability":"view"},{"type":"function","name":"supportsInterface","inputs":[{"name":"interfaceId","type":"bytes4","internalType":"bytes4"}],"outputs":[{"name":"","type":"bool","internalType":"bool"}],"stateMutability":"view"},{"type":"function","name":"symbol","inputs":[],"outputs":[{"name":"","type":"string","internalType":"string"}],"stateMutability":"view"},{"type":"function","name":"tokenByIndex","inputs":[{"name":"index","type":"uint256","internalType":"uint256"}],"outputs":[{"name":"","type":"uint256","internalType":"uint256"}],"stateMutability":"view"},{"type":"function","name":"tokenOfOwnerByIndex","inputs":[{"name":"owner","type":"address","internalType":"address"},{"name":"index","type":"uint256","internalType":"uint256"}],"outputs":[{"name":"","type":"uint256","internalType":"uint256"}],"stateMutability":"view"},{"type":"function","name":"tokenURI","inputs":[{"name":"tokenId","type":"uint256","internalType":"uint256"}],"outputs":[{"name":"","type":"string","internalType":"string"}],"stateMutability":"view"},{"type":"function","name":"totalSupply","inputs":[],"outputs":[{"name":"","type":"uint256","internalType":"uint256"}],"stateMutability":"view"},{"type":"function","name":"transferFrom","inputs":[{"name":"","type":"address","internalType":"address"},{"name":"","type":"address","internalType":"address"},{"name":"","type":"uint256","internalType":"uint256"}],"outputs":[],"stateMutability":"nonpayable"},{"type":"function","name":"transferOwnership","inputs":[{"name":"newOwner","type":"address","internalType":"address"}],"outputs":[],"stateMutability":"nonpayable"},{"type":"function","name":"unpause","inputs":[],"outputs":[],"stateMutability":"nonpayable"},{"type":"function","name":"unstake","inputs":[{"name":"validatorAddress","type":"address","internalType":"address"}],"outputs":[],"stateMutability":"nonpayable"},{"type":"function","name":"upgradeStakeVersion","inputs":[{"name":"newConfig","type":"tuple","internalType":"struct IStakeManager.StakeConfig","components":[{"name":"stakeAmount","type":"uint256","internalType":"uint256"},{"name":"minWithdrawAmount","type":"uint256","internalType":"uint256"},{"name":"epochIssuance","type":"uint256","internalType":"uint256"},{"name":"epochDuration","type":"uint32","internalType":"uint32"}]}],"outputs":[{"name":"","type":"uint8","internalType":"uint8"}],"stateMutability":"nonpayable"},{"type":"function","name":"validators","inputs":[{"name":"","type":"address","internalType":"address"}],"outputs":[{"name":"blsPubkey","type":"bytes","internalType":"bytes"},{"name":"validatorAddress","type":"address","internalType":"address"},{"name":"activationEpoch","type":"uint32","internalType":"uint32"},{"name":"exitEpoch","type":"uint32","internalType":"uint32"},{"name":"currentStatus","type":"uint8","internalType":"enum IConsensusRegistry.ValidatorStatus"},{"name":"isRetired","type":"bool","internalType":"bool"},{"name":"isDelegated","type":"bool","internalType":"bool"},{"name":"stakeVersion","type":"uint8","internalType":"uint8"}],"stateMutability":"view"},{"type":"event","name":"Approval","inputs":[{"name":"owner","type":"address","indexed":true,"internalType":"address"},{"name":"approved","type":"address","indexed":true,"internalType":"address"},{"name":"tokenId","type":"uint256","indexed":true,"internalType":"uint256"}],"anonymous":false},{"type":"event","name":"ApprovalForAll","inputs":[{"name":"owner","type":"address","indexed":true,"internalType":"address"},{"name":"operator","type":"address","indexed":true,"internalType":"address"},{"name":"approved","type":"bool","indexed":false,"internalType":"bool"}],"anonymous":false},{"type":"event","name":"NewEpoch","inputs":[{"name":"epoch","type":"tuple","indexed":false,"internalType":"struct IConsensusRegistry.EpochInfo","components":[{"name":"committee","type":"address[]","internalType":"address[]"},{"name":"epochIssuance","type":"uint256","internalType":"uint256"},{"name":"blockHeight","type":"uint64","internalType":"uint64"},{"name":"epochDuration","type":"uint32","internalType":"uint32"},{"name":"stakeVersion","type":"uint8","internalType":"uint8"}]}],"anonymous":false},{"type":"event","name":"OwnershipTransferred","inputs":[{"name":"previousOwner","type":"address","indexed":true,"internalType":"address"},{"name":"newOwner","type":"address","indexed":true,"internalType":"address"}],"anonymous":false},{"type":"event","name":"Paused","inputs":[{"name":"account","type":"address","indexed":false,"internalType":"address"}],"anonymous":false},{"type":"event","name":"RewardsClaimed","inputs":[{"name":"claimant","type":"address","indexed":false,"internalType":"address"},{"name":"rewards","type":"uint256","indexed":false,"internalType":"uint256"}],"anonymous":false},{"type":"event","name":"Transfer","inputs":[{"name":"from","type":"address","indexed":true,"internalType":"address"},{"name":"to","type":"address","indexed":true,"internalType":"address"},{"name":"tokenId","type":"uint256","indexed":true,"internalType":"uint256"}],"anonymous":false},{"type":"event","name":"Unpaused","inputs":[{"name":"account","type":"address","indexed":false,"internalType":"address"}],"anonymous":false},{"type":"event","name":"ValidatorActivated","inputs":[{"name":"validator","type":"tuple","indexed":false,"internalType":"struct IConsensusRegistry.ValidatorInfo","components":[{"name":"blsPubkey","type":"bytes","internalType":"bytes"},{"name":"validatorAddress","type":"address","internalType":"address"},{"name":"activationEpoch","type":"uint32","internalType":"uint32"},{"name":"exitEpoch","type":"uint32","internalType":"uint32"},{"name":"currentStatus","type":"uint8","internalType":"enum IConsensusRegistry.ValidatorStatus"},{"name":"isRetired","type":"bool","internalType":"bool"},{"name":"isDelegated","type":"bool","internalType":"bool"},{"name":"stakeVersion","type":"uint8","internalType":"uint8"}]}],"anonymous":false},{"type":"event","name":"ValidatorExited","inputs":[{"name":"validator","type":"tuple","indexed":false,"internalType":"struct IConsensusRegistry.ValidatorInfo","components":[{"name":"blsPubkey","type":"bytes","internalType":"bytes"},{"name":"validatorAddress","type":"address","internalType":"address"},{"name":"activationEpoch","type":"uint32","internalType":"uint32"},{"name":"exitEpoch","type":"uint32","internalType":"uint32"},{"name":"currentStatus","type":"uint8","internalType":"enum IConsensusRegistry.ValidatorStatus"},{"name":"isRetired","type":"bool","internalType":"bool"},{"name":"isDelegated","type":"bool","internalType":"bool"},{"name":"stakeVersion","type":"uint8","internalType":"uint8"}]}],"anonymous":false},{"type":"event","name":"ValidatorPendingActivation","inputs":[{"name":"validator","type":"tuple","indexed":false,"internalType":"struct IConsensusRegistry.ValidatorInfo","components":[{"name":"blsPubkey","type":"bytes","internalType":"bytes"},{"name":"validatorAddress","type":"address","internalType":"address"},{"name":"activationEpoch","type":"uint32","internalType":"uint32"},{"name":"exitEpoch","type":"uint32","internalType":"uint32"},{"name":"currentStatus","type":"uint8","internalType":"enum IConsensusRegistry.ValidatorStatus"},{"name":"isRetired","type":"bool","internalType":"bool"},{"name":"isDelegated","type":"bool","internalType":"bool"},{"name":"stakeVersion","type":"uint8","internalType":"uint8"}]}],"anonymous":false},{"type":"event","name":"ValidatorPendingExit","inputs":[{"name":"validator","type":"tuple","indexed":false,"internalType":"struct IConsensusRegistry.ValidatorInfo","components":[{"name":"blsPubkey","type":"bytes","internalType":"bytes"},{"name":"validatorAddress","type":"address","internalType":"address"},{"name":"activationEpoch","type":"uint32","internalType":"uint32"},{"name":"exitEpoch","type":"uint32","internalType":"uint32"},{"name":"currentStatus","type":"uint8","internalType":"enum IConsensusRegistry.ValidatorStatus"},{"name":"isRetired","type":"bool","internalType":"bool"},{"name":"isDelegated","type":"bool","internalType":"bool"},{"name":"stakeVersion","type":"uint8","internalType":"uint8"}]}],"anonymous":false},{"type":"event","name":"ValidatorRetired","inputs":[{"name":"validator","type":"tuple","indexed":false,"internalType":"struct IConsensusRegistry.ValidatorInfo","components":[{"name":"blsPubkey","type":"bytes","internalType":"bytes"},{"name":"validatorAddress","type":"address","internalType":"address"},{"name":"activationEpoch","type":"uint32","internalType":"uint32"},{"name":"exitEpoch","type":"uint32","internalType":"uint32"},{"name":"currentStatus","type":"uint8","internalType":"enum IConsensusRegistry.ValidatorStatus"},{"name":"isRetired","type":"bool","internalType":"bool"},{"name":"isDelegated","type":"bool","internalType":"bool"},{"name":"stakeVersion","type":"uint8","internalType":"uint8"}]}],"anonymous":false},{"type":"event","name":"ValidatorSlashed","inputs":[{"name":"slash","type":"tuple","indexed":false,"internalType":"struct Slash","components":[{"name":"validatorAddress","type":"address","internalType":"address"},{"name":"amount","type":"uint256","internalType":"uint256"}]}],"anonymous":false},{"type":"event","name":"ValidatorStaked","inputs":[{"name":"validator","type":"tuple","indexed":false,"internalType":"struct IConsensusRegistry.ValidatorInfo","components":[{"name":"blsPubkey","type":"bytes","internalType":"bytes"},{"name":"validatorAddress","type":"address","internalType":"address"},{"name":"activationEpoch","type":"uint32","internalType":"uint32"},{"name":"exitEpoch","type":"uint32","internalType":"uint32"},{"name":"currentStatus","type":"uint8","internalType":"enum IConsensusRegistry.ValidatorStatus"},{"name":"isRetired","type":"bool","internalType":"bool"},{"name":"isDelegated","type":"bool","internalType":"bool"},{"name":"stakeVersion","type":"uint8","internalType":"uint8"}]}],"anonymous":false},{"type":"error","name":"AlreadyDefined","inputs":[{"name":"validatorAddress","type":"address","internalType":"address"}]},{"type":"error","name":"CommitteeRequirement","inputs":[{"name":"validatorAddress","type":"address","internalType":"address"}]},{"type":"error","name":"DuplicateBLSPubkey","inputs":[]},{"type":"error","name":"ERC721EnumerableForbiddenBatchMint","inputs":[]},{"type":"error","name":"ERC721IncorrectOwner","inputs":[{"name":"sender","type":"address","internalType":"address"},{"name":"tokenId","type":"uint256","internalType":"uint256"},{"name":"owner","type":"address","internalType":"address"}]},{"type":"error","name":"ERC721InsufficientApproval","inputs":[{"name":"operator","type":"address","internalType":"address"},{"name":"tokenId","type":"uint256","internalType":"uint256"}]},{"type":"error","name":"ERC721InvalidApprover","inputs":[{"name":"approver","type":"address","internalType":"address"}]},{"type":"error","name":"ERC721InvalidOperator","inputs":[{"name":"operator","type":"address","internalType":"address"}]},{"type":"error","name":"ERC721InvalidOwner","inputs":[{"name":"owner","type":"address","internalType":"address"}]},{"type":"error","name":"ERC721InvalidReceiver","inputs":[{"name":"receiver","type":"address","internalType":"address"}]},{"type":"error","name":"ERC721InvalidSender","inputs":[{"name":"sender","type":"address","internalType":"address"}]},{"type":"error","name":"ERC721NonexistentToken","inputs":[{"name":"tokenId","type":"uint256","internalType":"uint256"}]},{"type":"error","name":"ERC721OutOfBoundsIndex","inputs":[{"name":"owner","type":"address","internalType":"address"},{"name":"index","type":"uint256","internalType":"uint256"}]},{"type":"error","name":"EnforcedPause","inputs":[]},{"type":"error","name":"ExpectedPause","inputs":[]},{"type":"error","name":"GenesisArityMismatch","inputs":[]},{"type":"error","name":"InsufficientRewards","inputs":[{"name":"withdrawAmount","type":"uint256","internalType":"uint256"}]},{"type":"error","name":"InvalidBLSPubkey","inputs":[]},{"type":"error","name":"InvalidCommitteeSize","inputs":[{"name":"minCommitteeSize","type":"uint256","internalType":"uint256"},{"name":"providedCommitteeSize","type":"uint256","internalType":"uint256"}]},{"type":"error","name":"InvalidDuration","inputs":[{"name":"duration","type":"uint32","internalType":"uint32"}]},{"type":"error","name":"InvalidEpoch","inputs":[{"name":"epoch","type":"uint32","internalType":"uint32"}]},{"type":"error","name":"InvalidProofOfPossession","inputs":[{"name":"proof","type":"tuple","internalType":"struct BlsG1.ProofOfPossession","components":[{"name":"uncompressedPubkey","type":"bytes","internalType":"bytes"},{"name":"uncompressedSignature","type":"bytes","internalType":"bytes"}]},{"name":"message","type":"bytes","internalType":"bytes"}]},{"type":"error","name":"InvalidStakeAmount","inputs":[{"name":"stakeAmount","type":"uint256","internalType":"uint256"}]},{"type":"error","name":"InvalidStatus","inputs":[{"name":"status","type":"uint8","internalType":"enum IConsensusRegistry.ValidatorStatus"}]},{"type":"error","name":"InvalidSupply","inputs":[]},{"type":"error","name":"InvalidTokenId","inputs":[{"name":"tokenId","type":"uint256","internalType":"uint256"}]},{"type":"error","name":"InvalidValidatorAddress","inputs":[]},{"type":"error","name":"NotRecipient","inputs":[{"name":"recipient","type":"address","internalType":"address"}]},{"type":"error","name":"NotTransferable","inputs":[]},{"type":"error","name":"NotValidator","inputs":[{"name":"validatorAddress","type":"address","internalType":"address"}]},{"type":"error","name":"OnlySystemCall","inputs":[{"name":"invalidCaller","type":"address","internalType":"address"}]},{"type":"error","name":"OwnableInvalidOwner","inputs":[{"name":"owner","type":"address","internalType":"address"}]},{"type":"error","name":"OwnableUnauthorizedAccount","inputs":[{"name":"account","type":"address","internalType":"address"}]},{"type":"error","name":"Reentrancy","inputs":[]},{"type":"error","name":"RequiresConsensusNFT","inputs":[]},{"type":"error","name":"StringsInsufficientHexLength","inputs":[{"name":"value","type":"uint256","internalType":"uint256"},{"name":"length","type":"uint256","internalType":"uint256"}]}],"bytecode":{"object":"0x610120604052348015610010575f80fd5b506040516182f33803806182f383398101604081905261002f91611566565b816040518060400160405280600c81526020016b10dbdb9cd95b9cdd5cd3919560a21b8152506040518060400160405280600481526020016310d3919560e21b8152508181815f908161008291906116b7565b50600161008f82826116b7565b505030608052504660a0526060806100ef604080518082018252601481527f54656c636f696e205374616b654d616e61676572000000000000000000000000602080830191909152825180840190935260018352603160f81b9083015291565b815160209283012081519183019190912060c082905260e0819052604080517f8b73c3c69bb8fe3d512ecc4cf759cc79239f7b179b0ffacaa9a75d522b39400f8152938401929092529082015246606082015230608082015260a09020610100525050506001600160a01b038216905061018357604051631e4fbdf760e01b81525f60048201526024015b60405180910390fd5b61018c816109d1565b508351158061019d57508251845114155b156101bb57604051633aa3e03360e01b815260040160405180910390fd5b30816040516101c990611198565b6001600160a01b03928316815291166020820152604001604051809103905ff0801580156101f9573d5f803e3d5ffd5b50600a80546001600160a01b0319166001600160a01b03929092169190911790555f808052600b602090815286517fdf7de25b7f1fd6d0b5205f0e18f1f35bd7b8d84cce336588d184533ce43a6f76558601517fdf7de25b7f1fd6d0b5205f0e18f1f35bd7b8d84cce336588d184533ce43a6f775560408601517fdf7de25b7f1fd6d0b5205f0e18f1f35bd7b8d84cce336588d184533ce43a6f785560608601517fdf7de25b7f1fd6d0b5205f0e18f1f35bd7b8d84cce336588d184533ce43a6f79805463ffffffff191663ffffffff9092169190911790555b6002811161033b575f600f82600481106102ef576102ef611771565b60030201905086606001518160020160086101000a81548163ffffffff021916908363ffffffff16021790555086604001518160010181905550508061033490611799565b90506102d3565b505f5b84518110156109c6575f85828151811061035a5761035a611771565b602002602001015190505f61039586848151811061037a5761037a611771565b60200260200101515f01518360200151610a2a60201b60201c565b90505f73__$2ef4e8110a3eaa1255da7f08f8eebcbf5a$__63a691a08b8886815181106103c4576103c4611771565b60200260200101515f01516040518263ffffffff1660e01b81526004016103eb91906117df565b5f60405180830381865af4158015610405573d5f803e3d5ffd5b505050506040513d5f823e601f3d908101601f1916820160405261042c91908101906117f8565b90505f73__$2ef4e8110a3eaa1255da7f08f8eebcbf5a$__633d2a9e1189878151811061045b5761045b611771565b6020026020010151602001516040518263ffffffff1660e01b815260040161048391906117df565b5f60405180830381865af415801561049d573d5f803e3d5ffd5b505050506040513d5f823e601f3d908101601f191682016040526104c491908101906117f8565b604051634f98273b60e01b815290915073__$2ef4e8110a3eaa1255da7f08f8eebcbf5a$__90634f98273b9061050290859085908890600401611829565b602060405180830381865af415801561051d573d5f803e3d5ffd5b505050506040513d601f19601f82011682018060405250810190610541919061186b565b61055e576040516333a234f960e11b815260040160405180910390fd5b60208401516001600160a01b03166105895760405163713ce51160e01b815260040160405180910390fd5b604084015163ffffffff16156105c0576040808501519051634fadd4d360e11b815263ffffffff909116600482015260240161017a565b606084015163ffffffff16156105f7576060840151604051634fadd4d360e11b815263ffffffff909116600482015260240161017a565b60038460800151600681111561060f5761060f611884565b14610633578360800151604051633ba7bf8960e11b815260040161017a91906118b8565b60a084015115610659576005604051633ba7bf8960e11b815260040161017a91906118b8565b60c08401511515600103610732576040805160a08101825285518051602091820120825280870180516001600160a01b039081168385019081528c82168587019081525f60608701818152600160808901818152965186168352600d90975297902095518655905193850180546001600160a01b0319169483169490941790935591516002909301805494519151939092166001600160a81b031990941693909317600160a01b60ff9094169390930292909217600160a81b600160e81b031916600160a81b6001600160401b03909216919091021790555b60e084015160ff16156107635760e084015160405163222d164360e21b815260ff909116600482015260240161017a565b5f5b6002811161082157600f816004811061078057610780611771565b6020878101516003929092029290920180546001810182555f91825292902090910180546001600160a01b0319166001600160a01b03909216919091179055601b81600481106107d2576107d2611771565b6020878101516003929092029290920180546001810182555f91825292902090910180546001600160a01b0319166001600160a01b0390921691909117905561081a81611799565b9050610765565b506020808501516001600160a01b03165f9081526027909152604090208451859190819061084f90826116b7565b5060208201516001820180546040850151606086015163ffffffff908116600160c01b0263ffffffff60c01b1991909216600160a01b026001600160c01b03199093166001600160a01b0390951694909417919091179283168117825560808501519260ff60e01b1990911664ffffffffff60c01b1990911617600160e01b8360068111156108e0576108e0611884565b021790555060a08201516001909101805460c084015160e09094015160ff16600160f81b026001600160f81b03941515600160f01b0260ff60f01b19941515600160e81b029490941661ffff60e81b199092169190911792909217929092161790558951602080860180516001600160a01b03165f908152600c909252604090912091909155516109809061097b816001600160a01b031690565b610b78565b7f31845bad1fcdd92490e8d85605449863a562ea940e37b380a276e440683fdb72846040516109af91906118c6565b60405180910390a15050505080600101905061033e565b5050505050506119f4565b600e80546001600160a01b03838116610100818102610100600160a81b031985161790945560405193909204169182907f8be0079c531659141344cd1fd0a4f28419497f9722a3daafe3b4186f6b6457e0905f90a35050565b60605f73__$2ef4e8110a3eaa1255da7f08f8eebcbf5a$__63a691a08b856040518263ffffffff1660e01b8152600401610a6491906117df565b5f60405180830381865af4158015610a7e573d5f803e3d5ffd5b505050506040513d5f823e601f3d908101601f19168201604052610aa591908101906117f8565b6040516329bd7cc960e21b815290915073__$2ef4e8110a3eaa1255da7f08f8eebcbf5a$__9063a6f5f32490610adf9084906004016117df565b602060405180830381865af4158015610afa573d5f803e3d5ffd5b505050506040513d601f19601f82011682018060405250810190610b1e919061186b565b610b3b576040516333a234f960e11b815260040160405180910390fd5b604051610b5f9061d50160d81b908690600560fa1b90606088901b90602001611965565b6040516020818303038152906040529150505b92915050565b6001600160a01b038216610ba157604051633250574960e11b81525f600482015260240161017a565b5f610bad838383610bde565b90506001600160a01b03811615610bd9576040516339e3563760e11b81525f600482015260240161017a565b505050565b5f80610beb858585610cb1565b90506001600160a01b038116610c4757610c4284600880545f838152600960205260408120829055600182018355919091527ff3f7a9fe364faab93b216da50a3214154f22a0a2b415b23a84c8169e8b636ee30155565b610c6a565b846001600160a01b0316816001600160a01b031614610c6a57610c6a8185610da3565b6001600160a01b038516610c8657610c8184610e20565b610ca9565b846001600160a01b0316816001600160a01b031614610ca957610ca98585610ec7565b949350505050565b5f828152600260205260408120546001600160a01b0390811690831615610cdd57610cdd818486610f15565b6001600160a01b03811615610d1757610cf85f858180610f79565b6001600160a01b0381165f90815260036020526040902080545f190190555b6001600160a01b03851615610d45576001600160a01b0385165f908152600360205260409020805460010190555b5f8481526002602052604080822080546001600160a01b0319166001600160a01b0389811691821790925591518793918516917fddf252ad1be2c89b69c2b068fc378daa952ba7f163c4a11628f55a4df523b3ef91a4949350505050565b5f610dad8361109b565b5f838152600760209081526040808320546001600160a01b0388168452600690925290912091925090818314610e02575f83815260208281526040808320548584528184208190558352600790915290208290555b5f938452600760209081526040808620869055938552525081205550565b6008545f90610e31906001906119cd565b5f8381526009602052604081205460088054939450909284908110610e5857610e58611771565b905f5260205f20015490508060088381548110610e7757610e77611771565b5f918252602080832090910192909255828152600990915260408082208490558582528120556008805480610eae57610eae6119e0565b600190038181905f5260205f20015f9055905550505050565b5f6001610ed38461109b565b610edd91906119cd565b6001600160a01b039093165f908152600660209081526040808320868452825280832085905593825260079052919091209190915550565b610f208383836110e0565b610bd9576001600160a01b038316610f4e57604051637e27328960e01b81526004810182905260240161017a565b60405163177e802f60e01b81526001600160a01b03831660048201526024810182905260440161017a565b8080610f8d57506001600160a01b03821615155b1561106c575f610f9c84611160565b90506001600160a01b03831615801590610fc85750826001600160a01b0316816001600160a01b031614155b8015610ff957506001600160a01b038082165f9081526005602090815260408083209387168352929052205460ff16155b156110225760405163a9fbf51f60e01b81526001600160a01b038416600482015260240161017a565b811561106a5783856001600160a01b0316826001600160a01b03167f8c5be1e5ebec7d5bd14f71427d1e84f3dd0314c0f7b2291e5b200ac8c7c3b92560405160405180910390a45b505b50505f90815260046020526040902080546001600160a01b0319166001600160a01b0392909216919091179055565b5f6001600160a01b0382166110c5576040516322718ad960e21b81525f600482015260240161017a565b506001600160a01b03165f9081526003602052604090205490565b5f6001600160a01b03831615801590610ca95750826001600160a01b0316846001600160a01b0316148061113857506001600160a01b038085165f9081526005602090815260408083209387168352929052205460ff165b80610ca95750505f908152600460205260409020546001600160a01b03908116911614919050565b5f818152600260205260408120546001600160a01b031680610b7257604051637e27328960e01b81526004810184905260240161017a565b61045d80617e9683390190565b634e487b7160e01b5f52604160045260245ffd5b60405161010081016001600160401b03811182821017156111dc576111dc6111a5565b60405290565b604080519081016001600160401b03811182821017156111dc576111dc6111a5565b604051608081016001600160401b03811182821017156111dc576111dc6111a5565b604051601f8201601f191681016001600160401b038111828210171561124e5761124e6111a5565b604052919050565b805163ffffffff81168114611269575f80fd5b919050565b5f6001600160401b03821115611286576112866111a5565b5060051b60200190565b5f82601f83011261129f575f80fd5b81516001600160401b038111156112b8576112b86111a5565b6112cb601f8201601f1916602001611226565b8181528460208386010111156112df575f80fd5b8160208501602083015e5f918101602001919091529392505050565b80516001600160a01b0381168114611269575f80fd5b805160078110611269575f80fd5b80518015158114611269575f80fd5b805160ff81168114611269575f80fd5b5f82601f83011261134d575f80fd5b815161136061135b8261126e565b611226565b8082825260208201915060208360051b860101925085831115611381575f80fd5b602085015b838110156114725780516001600160401b038111156113a3575f80fd5b8601610100818903601f190112156113b9575f80fd5b6113c16111b9565b60208201516001600160401b038111156113d9575f80fd5b6113e88a602083860101611290565b8252506113f7604083016112fb565b602082015261140860608301611256565b604082015261141960808301611256565b606082015261142a60a08301611311565b608082015261143b60c0830161131f565b60a082015261144c60e0830161131f565b60c082015261145e610100830161132e565b60e082015284525060209283019201611386565b5095945050505050565b5f82601f83011261148b575f80fd5b815161149961135b8261126e565b8082825260208201915060208360051b8601019250858311156114ba575f80fd5b602085015b838110156114725780516001600160401b038111156114dc575f80fd5b86016040818903601f190112156114f1575f80fd5b6114f96111e2565b60208201516001600160401b03811115611511575f80fd5b6115208a602083860101611290565b82525060408201516001600160401b0381111561153b575f80fd5b61154a8a602083860101611290565b60208301525080855250506020830192506020810190506114bf565b5f805f805f85870361010081121561157c575f80fd5b6080811215611589575f80fd5b50611592611204565b8651815260208088015190820152604080880151908201526115b660608801611256565b606082015260808701519095506001600160401b038111156115d6575f80fd5b6115e28882890161133e565b60a088015190955090506001600160401b038111156115ff575f80fd5b61160b8882890161147c565b93505061161a60c087016112fb565b915061162860e087016112fb565b90509295509295909350565b600181811c9082168061164857607f821691505b60208210810361166657634e487b7160e01b5f52602260045260245ffd5b50919050565b601f821115610bd957805f5260205f20601f840160051c810160208510156116915750805b601f840160051c820191505b818110156116b0575f815560010161169d565b5050505050565b81516001600160401b038111156116d0576116d06111a5565b6116e4816116de8454611634565b8461166c565b6020601f821160018114611716575f83156116ff5750848201515b5f19600385901b1c1916600184901b1784556116b0565b5f84815260208120601f198516915b828110156117455787850151825560209485019460019092019101611725565b508482101561176257868401515f19600387901b60f8161c191681555b50505050600190811b01905550565b634e487b7160e01b5f52603260045260245ffd5b634e487b7160e01b5f52601160045260245ffd5b5f600182016117aa576117aa611785565b5060010190565b5f81518084528060208401602086015e5f602082860101526020601f19601f83011685010191505092915050565b602081525f6117f160208301846117b1565b9392505050565b5f60208284031215611808575f80fd5b81516001600160401b0381111561181d575f80fd5b610ca984828501611290565b606081525f61183b60608301866117b1565b828103602084015261184d81866117b1565b9050828103604084015261186181856117b1565b9695505050505050565b5f6020828403121561187b575f80fd5b6117f18261131f565b634e487b7160e01b5f52602160045260245ffd5b600781106118b457634e487b7160e01b5f52602160045260245ffd5b9052565b60208101610b728284611898565b602081525f825161010060208401526118e36101208401826117b1565b905060018060a01b03602085015116604084015263ffffffff6040850151166060840152606084015161191e608085018263ffffffff169052565b50608084015161193160a0850182611898565b5060a084015180151560c08501525060c084015180151560e08501525060e084015160ff8116610100850152509392505050565b6001600160d81b03198516815283515f908060208701600585015e7fff00000000000000000000000000000000000000000000000000000000000000949094169190930160058101919091526001600160601b0319919091166006820152601a019392505050565b81810381811115610b7257610b72611785565b634e487b7160e01b5f52603160045260245ffd5b60805160a05160c05160e05161010051616465611a315f395f61397201525f613a2c01525f613a0601525f6139b601525f61399301526164655ff3fe608060405260043610610341575f3560e01c806370a08231116101bd578063a22cb465116100f2578063c87b56dd11610092578063f2888dbb1161006d578063f2888dbb146109be578063f2fde38b146109dd578063f8b2cb4f146109fc578063fa52c7d814610a30575f80fd5b8063c87b56dd14610961578063e3716d0414610980578063e985e9c51461099f575f80fd5b8063b88d4fde116100cd578063b88d4fde146108de578063b97dd9e2146108fd578063babc394f1461092e578063c05df7ac14610942575f80fd5b8063a22cb46514610892578063a71954ec146108ac578063b5184324146108cb575f80fd5b8063863623bb1161015d5780638cc05eda116101385780638cc05eda146108115780638da5cb5b1461083d57806395d89b411461085f578063a0201be514610873575f80fd5b8063863623bb146107c057806389afcb44146107df5780638bb43f3a146107fe575f80fd5b80637b55a300116101985780637b55a300146107195780637d06fdf8146107385780638456cb591461078557806384b0196e14610799575f80fd5b806370a08231146106c7578063715018a6146106e657806379ee54f7146106fa575f80fd5b80633434735f1161029357806359ca93b611610233578063673983311161020e57806367398331146106445780636850eb311461066a5780636a627842146106895780636d3c6275146106a8575f80fd5b806359ca93b6146105ef5780635c975abb1461060e5780636352211e14610625575f80fd5b80633894228e1161026e5780633894228e146105485780633f4ba83a1461059d57806342842e0e146105b15780634f6ccce7146105d0575f80fd5b80633434735f146104fa578063355811a714610514578063374ed18c1461051c575f80fd5b80630f15f4c0116102fe5780632228dfa0116102d95780632228dfa01461048e57806323b872dd146104a25780632b9f4985146104bc5780632f745c59146104db575f80fd5b80630f15f4c01461043057806318160ddd146104445780631904bb2e14610462575f80fd5b806301ffc9a71461034557806302ae337b1461037957806306fdde031461039a578063081812fc146103bb578063095ea7b3146103f25780630a36cdef14610411575b5f80fd5b348015610350575f80fd5b5061036461035f366004614dfa565b610a63565b60405190151581526020015b60405180910390f35b348015610384575f80fd5b50610398610393366004614e5c565b610a8d565b005b3480156103a5575f80fd5b506103ae610be3565b6040516103709190614ec8565b3480156103c6575f80fd5b506103da6103d5366004614eda565b610c72565b6040516001600160a01b039091168152602001610370565b3480156103fd575f80fd5b5061039861040c366004614f07565b610c99565b34801561041c575f80fd5b5061039861042b366004614e5c565b610cb2565b34801561043b575f80fd5b50610398610ecf565b34801561044f575f80fd5b506008545b604051908152602001610370565b34801561046d575f80fd5b5061048161047c366004614f2f565b610f18565b604051610370919061501d565b348015610499575f80fd5b50610398611082565b3480156104ad575f80fd5b5061039861040c36600461502f565b3480156104c7575f80fd5b506103986104d6366004614f2f565b611147565b3480156104e6575f80fd5b506104546104f5366004614f07565b611262565b348015610505575f80fd5b506103da6002600160a01b0381565b6103986112c5565b348015610527575f80fd5b5061053b61053636600461507a565b611364565b6040516103709190615095565b348015610553575f80fd5b50610567610562366004614eda565b6114ed565b604080519485526001600160401b03909316602085015263ffffffff9091169183019190915260ff166060820152608001610370565b3480156105a8575f80fd5b50610398611534565b3480156105bc575f80fd5b506103986105cb36600461502f565b611546565b3480156105db575f80fd5b506104546105ea366004614eda565b611560565b3480156105fa575f80fd5b50610567610609366004614eda565b6115b5565b348015610619575f80fd5b50600e5460ff16610364565b348015610630575f80fd5b506103da61063f366004614eda565b6115c4565b34801561064f575f80fd5b506106586115ce565b60405160ff9091168152602001610370565b348015610675575f80fd5b506103ae6106843660046151f4565b6115e0565b348015610694575f80fd5b506103986106a3366004614f2f565b61172d565b3480156106b3575f80fd5b506103646106c2366004614f2f565b61178b565b3480156106d2575f80fd5b506104546106e1366004614f2f565b611815565b3480156106f1575f80fd5b5061039861185a565b348015610705575f80fd5b50610454610714366004614f2f565b61186b565b348015610724575f80fd5b5061039861073336600461523e565b6118b0565b348015610743575f80fd5b5061074c6119da565b604051610370919081518152602080830151908201526040808301519082015260609182015163ffffffff169181019190915260800190565b348015610790575f80fd5b50610398611a5e565b3480156107a4575f80fd5b506107ad611a6e565b60405161037097969594939291906152ad565b3480156107cb575f80fd5b50600a546103da906001600160a01b031681565b3480156107ea575f80fd5b506103986107f9366004614f2f565b611ad5565b61039861080c36600461540d565b611b88565b34801561081c575f80fd5b5061083061082b3660046154b4565b611fb8565b60405161037091906154d2565b348015610848575f80fd5b50600e5461010090046001600160a01b03166103da565b34801561086a575f80fd5b506103ae611ff6565b34801561087e575f80fd5b5061083061088d36600461507a565b612005565b34801561089d575f80fd5b5061039861040c366004615542565b3480156108b7575f80fd5b5061074c6108c6366004615577565b6120c6565b6103986108d9366004615597565b612140565b3480156108e9575f80fd5b506103986108f83660046155fe565b61236f565b348015610908575f80fd5b50600e54600160a81b900463ffffffff1660405163ffffffff9091168152602001610370565b348015610939575f80fd5b5061053b612387565b34801561094d575f80fd5b5061065861095c366004615661565b61247e565b34801561096c575f80fd5b506103ae61097b366004614eda565b61253b565b34801561098b575f80fd5b5061045461099a36600461567a565b6125ab565b3480156109aa575f80fd5b506103646109b93660046156d3565b612665565b3480156109c9575f80fd5b506103986109d8366004614f2f565b612692565b3480156109e8575f80fd5b506103986109f7366004614f2f565b612834565b348015610a07575f80fd5b50610454610a16366004614f2f565b6001600160a01b03165f908152600c602052604090205490565b348015610a3b575f80fd5b50610a4f610a4a366004614f2f565b61286e565b6040516103709897969594939291906156fb565b5f6001600160e01b0319821663780e9d6360e01b1480610a875750610a878261295c565b92915050565b336002600160a01b0314610abb57604051637eb3357160e01b81523360048201526024015b60405180910390fd5b5f5b81811015610bde5736838383818110610ad857610ad8615763565b604002919091019150610af390506106c26020830183614f2f565b15610afe5750610bd6565b60208101803590600c905f90610b149085614f2f565b6001600160a01b03166001600160a01b031681526020019081526020015f20541115610b885760208101803590600c905f90610b509085614f2f565b6001600160a01b03166001600160a01b031681526020019081526020015f205f828254610b7d919061578b565b90915550610b9d9050565b610b9d610b986020830183614f2f565b6129ab565b7f11a09f9b32440d896abff7453bf53f8b26ffcb18dae4dca227f7a76e2acc3a6481604051610bcc919061579e565b60405180910390a1505b600101610abd565b505050565b60605f8054610bf1906157c7565b80601f0160208091040260200160405190810160405280929190818152602001828054610c1d906157c7565b8015610c685780601f10610c3f57610100808354040283529160200191610c68565b820191905f5260205f20905b815481529060010190602001808311610c4b57829003601f168201915b5050505050905090565b5f610c7c82612a61565b505f828152600460205260409020546001600160a01b0316610a87565b60405163dc8d8db760e01b815260040160405180910390fd5b336002600160a01b0314610cdb57604051637eb3357160e01b8152336004820152602401610ab2565b5f80826001600160401b03811115610cf557610cf5615138565b604051908082528060200260200182016040528015610d1e578160200160208202803683370190505b5090505f5b83811015610e055736858583818110610d3e57610d3e615763565b905060400201905080602001355f03610d575750610dfd565b610d676106c26020830183614f2f565b15610d725750610dfd565b5f602781610d836020850185614f2f565b6001600160a01b0316815260208082019290925260409081015f90812060010154600160f81b900460ff16808252600b8452918120549193509091610dcb90850135836157ff565b9050610dd78188615816565b965080868681518110610dec57610dec615763565b602002602001018181525050505050505b600101610d23565b50815f03610e135750505050565b5f610e1c612387565b6020015190505f5b84811015610ec6575f84848381518110610e4057610e40615763565b602002602001015184610e5391906157ff565b610e5d919061583d565b905080600c5f898986818110610e7557610e75615763565b610e8b9260206040909202019081019150614f2f565b6001600160a01b03166001600160a01b031681526020019081526020015f205f828254610eb89190615816565b909155505050600101610e24565b505050505b5050565b610ed7612a99565b610ee033612abd565b50610eec336001612b2b565b335f908152602760205260409020600e54610f15908290600160a81b900463ffffffff16612b94565b50565b610f20614d2b565b610f2982612abd565b506001600160a01b0382165f908152602760205260409081902081516101008101909252805482908290610f5c906157c7565b80601f0160208091040260200160405190810160405280929190818152602001828054610f88906157c7565b8015610fd35780601f10610faa57610100808354040283529160200191610fd3565b820191905f5260205f20905b815481529060010190602001808311610fb657829003601f168201915b505050918352505060018201546001600160a01b038116602083015263ffffffff600160a01b820481166040840152600160c01b820416606083015260809091019060ff600160e01b90910416600681111561103157611031614f48565b600681111561104257611042614f48565b81526001919091015460ff600160e81b8204811615156020840152600160f01b8204811615156040840152600160f81b9091041660609091015292915050565b61108a612a99565b61109333612abd565b505f61109f6003612c14565b51600e549091505f90600f90600160c81b900460ff16600481106110c5576110c5615763565b600302015490506110d68282612ec4565b6110e1336003612b2b565b335f908152602760205260409020600e54600182015463ffffffff600160a81b909204821691600160a01b9091041681101561113857604051634fadd4d360e11b815263ffffffff82166004820152602401610ab2565b61114182612f01565b50505050565b61114f612a99565b3068929eee149b4bd21268540361116d5763ab143c065f526004601cfd5b3068929eee149b4bd212685561118281612abd565b506001600160a01b0381165f90815260276020526040812060010154600160f81b900460ff16906111b283612f59565b9050336001600160a01b038416148015906111d65750336001600160a01b03821614155b156111ff5760405163172b4e7560e11b81526001600160a01b0382166004820152602401610ab2565b5f61120b848385612f88565b604080516001600160a01b0385168152602081018390529192507ffc30cddea38e2bf4d6ea7d3f9ed3b6ad7f176419f4963bd81318067a4aee73fe910160405180910390a15050503868929eee149b4bd212685550565b5f61126c83611815565b821061129d5760405163295f44f760e21b81526001600160a01b038416600482015260248101839052604401610ab2565b506001600160a01b03919091165f908152600660209081526040808320938352929052205490565b6112cd61302f565b600a546040515f916001600160a01b03169034908381818185875af1925050503d805f8114611317576040519150601f19603f3d011682016040523d82523d5f602084013e61131c565b606091505b5050905080610f155760405162461bcd60e51b815260206004820152601460248201527324b6b837b9b9b4b136329031b7b73234ba34b7b760611b6044820152606401610ab2565b6040805160a08101825260608082525f6020830181905292820183905281018290526080810191909152600e54600160a81b900463ffffffff166113a9816002615850565b63ffffffff168363ffffffff1611806113e9575060038163ffffffff16101580156113e957506113da60038261586c565b63ffffffff168363ffffffff16105b1561140f57604051634fadd4d360e11b815263ffffffff84166004820152602401610ab2565b600e54600160c81b900460ff1663ffffffff82811690851611156114e257611438848383613062565b60408051825460c0602082028301810190935260a08201818152919392849291849184018282801561149157602002820191905f5260205f20905b81546001600160a01b03168152600190910190602001808311611473575b5050509183525050600182015460208201526002909101546001600160401b0381166040830152600160401b810463ffffffff166060830152600160601b900460ff16608090910152949350505050565b6114388483836130aa565b600f81600481106114fc575f80fd5b6003020160018101546002909101549091506001600160401b03811690600160401b810463ffffffff1690600160601b900460ff1684565b61153c61302f565b611544613101565b565b610bde83838360405180602001604052805f81525061236f565b5f61156a60085490565b82106115925760405163295f44f760e21b81525f600482015260248101839052604401610ab2565b600882815481106115a5576115a5615763565b905f5260205f2001549050919050565b601b81600481106114fc575f80fd5b5f610a8782612a61565b5f6115d7612387565b60800151905090565b60605f73__$2ef4e8110a3eaa1255da7f08f8eebcbf5a$__63a691a08b856040518263ffffffff1660e01b815260040161161a9190614ec8565b5f60405180830381865af4158015611634573d5f803e3d5ffd5b505050506040513d5f823e601f3d908101601f1916820160405261165b9190810190615888565b6040516329bd7cc960e21b815290915073__$2ef4e8110a3eaa1255da7f08f8eebcbf5a$__9063a6f5f32490611695908490600401614ec8565b602060405180830381865af41580156116b0573d5f803e3d5ffd5b505050506040513d601f19601f820116820180604052508101906116d491906158fc565b6116f1576040516333a234f960e11b815260040160405180910390fd5b6040516117159061d50160d81b908690600560fa1b90606088901b9060200161592e565b60405160208183030381529060405291505092915050565b61173561302f565b61173e81611815565b15158061174f575061174f8161178b565b1561177857604051639fb0877960e01b81526001600160a01b0382166004820152602401610ab2565b610f15816001600160a01b038116613153565b5f61179e6001600160a01b0383166131b4565b156117aa57505f919050565b5f6001600160a01b0383165f90815260276020526040902060010154600160e01b900460ff1660068111156117e1576117e1614f48565b036117ed57505f919050565b506001600160a01b03165f90815260276020526040902060010154600160e81b900460ff1690565b5f6001600160a01b03821661183f576040516322718ad960e21b81525f6004820152602401610ab2565b506001600160a01b03165f9081526003602052604090205490565b61186261302f565b6115445f613207565b6001600160a01b0381165f90815260276020908152604080832060010154600160f81b900460ff16808452600b9092528220546118a88482613260565b949350505050565b336002600160a01b03146118d957604051637eb3357160e01b8152336004820152602401610ab2565b6118e38282613299565b5f805f806119228686808060200260200160405190810160405280939291908181526020018383602002808284375f9201919091525061337092505050565b935093509350935061193586868661362a565b5f6119406003612c14565b805190915061194f9087612ec4565b7f8b5b26231ce070df3db9dc1b8450ab40652c76bd68827c7f595414614fa18f376040518060a001604052808481526020018681526020014360016119949190615816565b6001600160401b0316815263ffffffff86166020820152600a54600160a01b900460ff16604091820152516119c99190615095565b60405180910390a150505050505050565b611a0760405180608001604052805f81526020015f81526020015f81526020015f63ffffffff1681525090565b50600a54600160a01b900460ff165f908152600b602090815260409182902082516080810184528154815260018201549281019290925260028101549282019290925260039091015463ffffffff16606082015290565b611a6661302f565b61154461387a565b600f60f81b6060805f808083611ac360408051808201825260148152732a32b631b7b4b71029ba30b5b2a6b0b730b3b2b960611b602080830191909152825180840190935260018352603160f81b9083015291565b97989097965046955030945091925090565b611add61302f565b611ae68161178b565b15611b07576006604051633ba7bf8960e11b8152600401610ab29190615977565b611b1081612abd565b505f6001600160a01b0382165f90815260276020526040902060010154600160e01b900460ff166006811115611b4857611b48614f48565b03611b7f576001600160a01b0381165f908152602760205260409020611b6d906138b7565b610f156001600160a01b0382166138fd565b610f15816129ab565b611b90612a99565b60608514611bb1576040516333a234f960e11b815260040160405180910390fd5b5f611bbf855f0151856115e0565b855160405163a691a08b60e01b81529192505f9173__$2ef4e8110a3eaa1255da7f08f8eebcbf5a$__9163a691a08b91611bfc9190600401614ec8565b5f60405180830381865af4158015611c16573d5f803e3d5ffd5b505050506040513d5f823e601f3d908101601f19168201604052611c3d9190810190615888565b90505f73__$2ef4e8110a3eaa1255da7f08f8eebcbf5a$__633d2a9e1188602001516040518263ffffffff1660e01b8152600401611c7b9190614ec8565b5f60405180830381865af4158015611c95573d5f803e3d5ffd5b505050506040513d5f823e601f3d908101601f19168201604052611cbc9190810190615888565b604051634f98273b60e01b815290915073__$2ef4e8110a3eaa1255da7f08f8eebcbf5a$__90634f98273b90611cfa90859085908890600401615985565b602060405180830381865af4158015611d15573d5f803e3d5ffd5b505050506040513d601f19601f82011682018060405250810190611d3991906158fc565b611d6f57604080518082018252885181526020808a0151908201529051634babb8f160e01b8152610ab2919085906004016159c7565b5f611d78612387565b6080015190505f611d893483613935565b9050611d9488612abd565b50611d9f885f612b2b565b6001600160a01b0388165f908152600d6020526040808220600201549051600160a81b9091046001600160401b03169190611ddd908e908e90615a13565b60405180910390209050611dff600e546001600160a01b036101009091041690565b6001600160a01b0316336001600160a01b031614611eae575f7f9a361e91fa9aa610b5edf1d5c1cc20b9646c4228f3c004354ed2de7635dac994828c338887604051602001611e5396959493929190615a22565b6040516020818303038152906040528051906020012090505f611e7582613970565b9050611e838c828d8d613a86565b611eab57604051633b4f6e2b60e21b81526001600160a01b038d166004820152602401610ab2565b50505b6040518060a00160405280828152602001336001600160a01b031681526020018b6001600160a01b031681526020018560ff168152602001836001611ef39190615a60565b6001600160401b039081169091526001600160a01b03808d165f908152600d60209081526040918290208551815590850151600180830180549286166001600160a01b03199093169290921790915591850151600290910180546060870151608090970151909516600160a81b0267ffffffffffffffff60a81b1960ff909716600160a01b026001600160a81b031990961692909416919091179390931793909316179055611fa9908e908e908d908888613b77565b50505050505050505050505050565b60605f826006811115611fcd57611fcd614f48565b03611fed5781604051633ba7bf8960e11b8152600401610ab29190615977565b610a8782612c14565b606060018054610bf1906157c7565b60605f61201183611364565b5f015190505f81516001600160401b0381111561203057612030615138565b60405190808252806020026020018201604052801561206957816020015b612056614d2b565b81526020019060019003908161204e5790505b5090505f5b81518110156120be5761209983828151811061208c5761208c615763565b6020026020010151610f18565b8282815181106120ab576120ab615763565b602090810291909101015260010161206e565b509392505050565b6120f360405180608001604052805f81526020015f81526020015f81526020015f63ffffffff1681525090565b5060ff165f908152600b602090815260409182902082516080810184528154815260018201549281019290925260028101549282019290925260039091015463ffffffff16606082015290565b612148612a99565b60608214612169576040516333a234f960e11b815260040160405180910390fd5b5f612177825f0151336115e0565b825160405163a691a08b60e01b81529192505f9173__$2ef4e8110a3eaa1255da7f08f8eebcbf5a$__9163a691a08b916121b49190600401614ec8565b5f60405180830381865af41580156121ce573d5f803e3d5ffd5b505050506040513d5f823e601f3d908101601f191682016040526121f59190810190615888565b90505f73__$2ef4e8110a3eaa1255da7f08f8eebcbf5a$__633d2a9e1185602001516040518263ffffffff1660e01b81526004016122339190614ec8565b5f60405180830381865af415801561224d573d5f803e3d5ffd5b505050506040513d5f823e601f3d908101601f191682016040526122749190810190615888565b604051634f98273b60e01b815290915073__$2ef4e8110a3eaa1255da7f08f8eebcbf5a$__90634f98273b906122b290859085908890600401615985565b602060405180830381865af41580156122cd573d5f803e3d5ffd5b505050506040513d601f19601f820116820180604052508101906122f191906158fc565b6123275760408051808201825285518152602080870151908201529051634babb8f160e01b8152610ab2919085906004016159c7565b5f612330612387565b6080015190505f6123413483613935565b905061234c33612abd565b50612357335f612b2b565b6123658888335f8686613b77565b5050505050505050565b61237a848484610c99565b6111413385858585613dd8565b6040805160a08101825260608082525f6020830181905292820183905281018290526080810191909152600e546123d790600160a81b810463ffffffff16908190600160c81b900460ff166130aa565b60408051825460c0602082028301810190935260a08201818152919392849291849184018282801561243057602002820191905f5260205f20905b81546001600160a01b03168152600190910190602001808311612412575b5050509183525050600182015460208201526002909101546001600160401b0381166040830152600160401b810463ffffffff166060830152600160601b900460ff16608090910152919050565b5f61248761302f565b61248f612a99565b61249f608083016060840161507a565b63ffffffff165f036124dd576124bb608083016060840161507a565b604051630c6e911360e41b815263ffffffff9091166004820152602401610ab2565b5f600a601481819054906101000a900460ff166124f990615a7f565b825460ff8083166101009490940a848102910219909116179092555f908152600b6020526040902090915083906125308282615a9d565b50909150505b919050565b606061254682612a61565b505f61258161255484613efe565b61255c613fac565b60405160200161256d929190615ae0565b604051602081830303815290604052613ff6565b9050806040516020016125949190615bcf565b604051602081830303815290604052915050919050565b5f6125b583612abd565b505f6125bf612387565b608001516001600160a01b0385165f908152600d602090815260408083206002015489518a8401209151949550600160a81b90046001600160401b031693909291612636917f9a361e91fa9aa610b5edf1d5c1cc20b9646c4228f3c004354ed2de7635dac9949185918b918b918a918a9101615a22565b60405160208183030381529060405280519060200120905061265781613970565b9450505050505b9392505050565b6001600160a01b039182165f90815260056020908152604080832093909416825291909152205460ff1690565b61269a612a99565b3068929eee149b4bd2126854036126b85763ab143c065f526004601cfd5b3068929eee149b4bd21268556126cd81612abd565b505f6126d882612f59565b9050336001600160a01b038316148015906126fc5750336001600160a01b03821614155b156127255760405163172b4e7560e11b81526001600160a01b0382166004820152602401610ab2565b6001600160a01b0382165f908152602760205260409020600190810154600160e01b900460ff169081600681111561275f5761275f614f48565b1415801561277f5750600581600681111561277c5761277c614f48565b14155b1561279f5780604051633ba7bf8960e11b8152600401610ab29190615977565b6001600160a01b0383165f9081526027602052604090206127bf816138b7565b5f6127dc858584600101601f9054906101000a900460ff1661401c565b604080516001600160a01b0387168152602081018390529192507ffc30cddea38e2bf4d6ea7d3f9ed3b6ad7f176419f4963bd81318067a4aee73fe910160405180910390a1505050503868929eee149b4bd212685550565b61283c61302f565b6001600160a01b03811661286557604051631e4fbdf760e01b81525f6004820152602401610ab2565b610f1581613207565b60276020525f9081526040902080548190612888906157c7565b80601f01602080910402602001604051908101604052809291908181526020018280546128b4906157c7565b80156128ff5780601f106128d6576101008083540402835291602001916128ff565b820191905f5260205f20905b8154815290600101906020018083116128e257829003601f168201915b505050600190930154919250506001600160a01b0381169063ffffffff600160a01b8204811691600160c01b81049091169060ff600160e01b8204811691600160e81b8104821691600160f01b8204811691600160f81b90041688565b5f6001600160e01b031982166380ac58cd60e01b148061298c57506001600160e01b03198216635b5e139f60e01b145b80610a8757506301ffc9a760e01b6001600160e01b0319831614610a87565b6001600160a01b0381165f908152600c602090815260408083208390556027909152812060018101549091600160e01b90910460ff16906129ec6003612c14565b5190506129f882614160565b15612a0b57612a0860018261578b565b90505b612a1584826141b3565b600e54612a30908490600160a81b900463ffffffff166142b9565b612a39836138b7565b5f612a4385612f59565b9050610ec6858286600101601f9054906101000a900460ff1661401c565b5f818152600260205260408120546001600160a01b031680610a8757604051637e27328960e01b815260048101849052602401610ab2565b600e5460ff16156115445760405163d93c066560e01b815260040160405180910390fd5b5f6001600160a01b038216612ad1816131b4565b612af15760405163ed15e6cf60e01b815260048101829052602401610ab2565b826001600160a01b0316612b04826115c4565b6001600160a01b031614610a87576040516330fa89ab60e11b815260040160405180910390fd5b6001600160a01b0382165f90815260276020526040902060010154600160e01b900460ff16816006811115612b6257612b62614f48565b816006811115612b7457612b74614f48565b14610bde5780604051633ba7bf8960e11b8152600401610ab29190615977565b612b9f816001615850565b60018301805463ffffffff92909216600160a01b0260ff60e01b191668ff00000000ffffffff60a01b1990921691909117600160e11b1790556040517fbdacb030997c2fe9d7ee41c51f5a150138c75b326c7a66f88ced12925f80bc0590612c08908490615c7f565b60405180910390a15050565b60605f612c2060085490565b6001600160401b03811115612c3757612c37615138565b604051908082528060200260200182016040528015612c7057816020015b612c5d614d2b565b815260200190600190039081612c555790505b5090505f805b8251811015612ebb575f612c8f612c8c83611560565b90565b6001600160a01b0381165f908152602760205260409020600181015491925090600160e81b900460ff1615612cc5575050612eb3565b5f6006886006811115612cda57612cda614f48565b14905080612d44576001820154600160e01b900460ff166003896006811115612d0557612d05614f48565b03612d1a57612d1381614160565b9150612d42565b886006811115612d2c57612d2c614f48565b816006811115612d3e57612d3e614f48565b1491505b505b8015612eaf5781604051806101000160405290815f82018054612d66906157c7565b80601f0160208091040260200160405190810160405280929190818152602001828054612d92906157c7565b8015612ddd5780601f10612db457610100808354040283529160200191612ddd565b820191905f5260205f20905b815481529060010190602001808311612dc057829003601f168201915b505050918352505060018201546001600160a01b038116602083015263ffffffff600160a01b820481166040840152600160c01b820416606083015260809091019060ff600160e01b909104166006811115612e3b57612e3b614f48565b6006811115612e4c57612e4c614f48565b81526001919091015460ff600160e81b8204811615156020840152600160f01b8204811615156040840152600160f81b909104166060909101528686612e9181615d19565b975081518110612ea357612ea3615763565b60200260200101819052505b5050505b600101612c76565b50815292915050565b811580612ecf575080155b80612ed957508181115b15610ecb57604051635700689f60e11b81526004810183905260248101829052604401610ab2565b60018101805464ffffffffff60c01b19166404ffffffff60c01b1790556040517f537bf236138f80ea8801a391fffc8a42bf0be3b6ea9d336ca2e2164a4c91071c90612f4e908390615c7f565b60405180910390a150565b6001600160a01b038082165f908152600d60205260408120600281015491929091168061265e57509192915050565b5f80612f948584614312565b6001600160a01b0386165f908152600c6020526040812080549293508392909190612fc090849061578b565b9091555050600a54604051634875485760e11b81526001600160a01b03868116600483015260248201849052909116906390ea90ae906044015f604051808303815f87803b158015613010575f80fd5b505af1158015613022573d5f803e3d5ffd5b5092979650505050505050565b600e546001600160a01b036101009091041633146115445760405163118cdaa760e01b8152336004820152602401610ab2565b5f80600483613071868861586c565b61307b9190615d31565b6130859190615d4a565b9050601b8160ff166004811061309d5761309d615763565b6003020195945050505050565b5f80846130b8856004615850565b6130c2919061586c565b90505f60046130d18386615d31565b6130db9190615d4a565b9050600f8160ff16600481106130f3576130f3615763565b600302019695505050505050565b613109614372565b600e805460ff191690557f5db9ee0a495bf2e6ff9c91a7834c1ba4fdd244a5e8aa4e537bd38aeae4b073aa335b6040516001600160a01b03909116815260200160405180910390a1565b6001600160a01b03821661317c57604051633250574960e11b81525f6004820152602401610ab2565b5f61318883835f614395565b90506001600160a01b03811615610bde576040516339e3563760e11b81525f6004820152602401610ab2565b5f8115806131c957506001600160a01b038210155b156131ea5760405163ed15e6cf60e01b815260048101839052602401610ab2565b505f908152600260205260409020546001600160a01b0316151590565b600e80546001600160a01b03838116610100818102610100600160a81b031985161790945560405193909204169182907f8be0079c531659141344cd1fd0a4f28419497f9722a3daafe3b4186f6b6457e0905f90a35050565b6001600160a01b0382165f908152600c602052604081205481838211613286575f613290565b613290848361578b565b95945050505050565b5f5b6132a660018361578b565b811015610bde5782826132ba836001615816565b8181106132c9576132c9615763565b90506020020160208101906132de9190614f2f565b6001600160a01b03168383838181106132f9576132f9615763565b905060200201602081019061330e9190614f2f565b6001600160a01b0316106133685782828281811061332e5761332e615763565b90506020020160208101906133439190614f2f565b60405163836e3a7d60e01b81526001600160a01b039091166004820152602401610ab2565b60010161329b565b600e545f9081908190606090600160c81b900460ff16826004613394836001615d31565b61339e9190615d4a565b90505f601b8260ff16600481106133b7576133b7615763565b6003020190505f6133c66119da565b90506040518060a001604052808380548060200260200160405190810160405280929190818152602001828054801561342657602002820191905f5260205f20905b81546001600160a01b03168152600190910190602001808311613408575b5050509183525050604080840151602083015201613445436001615a60565b6001600160401b03168152606083015163ffffffff166020820152600a5460ff600160a01b9091048116604090920191909152600f9085166004811061348d5761348d615763565b600302015f820151815f0190805190602001906134ab929190614d6e565b506020820151600182015560408201516002909101805460608401516080909401516001600160401b039093166bffffffffffffffffffffffff1990911617600160401b63ffffffff948516021760ff60601b1916600160601b60ff93841602179055600e805460ff60c81b1916600160c81b92871692909202919091178082555f9260159161354391600160a81b90910416615d6b565b91906101000a81548163ffffffff021916908363ffffffff160217905590505f60048560026135729190615d31565b61357c9190615d4a565b90508a601b8260ff166004811061359557613595615763565b600302015f0190805190602001906135ae929190614d6e565b508183604001518460600151868080548060200260200160405190810160405280929190818152602001828054801561360e57602002820191905f5260205f20905b81546001600160a01b031681526001909101906020018083116135f0575b5050505050905099509950995099505050505050509193509193565b5f6136356002612c14565b90505f5b8151811015613697575f60275f84848151811061365857613658615763565b6020026020010151602001516001600160a01b03166001600160a01b031681526020019081526020015f20905061368e81614460565b50600101613639565b505f6136a36004612c14565b600e54909150600160c81b900460ff165f60046136c1836001615d31565b6136cb9190615d4a565b90505f600f8360ff16600481106136e4576136e4615763565b6003020180546040805160208084028201810190925282815292919083018282801561373757602002820191905f5260205f20905b81546001600160a01b03168152600190910190602001808311613719575b505050505090505f601b8360ff166004811061375557613755615763565b600302018054604080516020808402820181019092528281529291908301828280156137a857602002820191905f5260205f20905b81546001600160a01b0316815260019091019060200180831161378a575b505050505090505f5b855181101561386e575f8682815181106137cd576137cd615763565b60200260200101516020015190506137e581856144a5565b806137f557506137f581846144a5565b806138375750613837818c8c808060200260200160405190810160405280939291908181526020018383602002808284375f920191909152506144a592505050565b156138425750613866565b6001600160a01b0381165f908152602760205260409020613863818b6142b9565b50505b6001016137b1565b50505050505050505050565b613882612a99565b600e805460ff191660011790557f62e78cea01bee320cd4e420270b5ea74000d11b0c9f74754ebdbfc544b05a2586131363390565b60018101805461ffff60e01b1916608360e11b1790556040517fb9e0e3d06d30a4b0476d42accfa2ee90a854c961cc7f10ddc965608a97b982b190612f4e908390615c7f565b5f6139095f835f614395565b90506001600160a01b038116610ecb57604051637e27328960e01b815260048101839052602401610ab2565b60ff81165f908152600b602052604081205483146139695760405163222d164360e21b815260048101849052602401610ab2565b5090919050565b7f00000000000000000000000000000000000000000000000000000000000000007f000000000000000000000000000000000000000000000000000000000000000030147f0000000000000000000000000000000000000000000000000000000000000000461416613a635750604080517f8b73c3c69bb8fe3d512ecc4cf759cc79239f7b179b0ffacaa9a75d522b39400f81527f000000000000000000000000000000000000000000000000000000000000000060208201527f00000000000000000000000000000000000000000000000000000000000000009181019190915246606082015230608082015260a090205b6719010000000000005f5280601a5281603a52604260182090505f603a52919050565b6001600160a01b03909316925f84156118a857604051845f5260408303613aed5760208481013560ff81901c601b01825285356040526001600160ff1b0316606052600160805f825afa805187183d1517613aeb57505f6060526040525060016118a8565b505b60418303613b2d5760408401355f1a6020526040846040376020600160805f60015afa805187183d1517613b2b57505f6060526040525060016118a8565b505b5f60605280604052631626ba7e60e01b80825285600483015260248201604081528460448401528486606485013760208160648701858b5afa905190911416915050949350505050565b5f8686604051613b88929190615a13565b60408051918290039091205f8181526028602052919091205490915060ff1615613bc557604051638d12779f60e01b815260040160405180910390fd5b5f818152602860209081526040808320805460ff191660011790558051610120601f8b0184900490930281018301909152610100810189815290918291908b908b90819085018382808284375f9201829052509385525050506001600160a01b038916602083015263ffffffff60408301526060820152608001600181525f602080830182905288151560408085019190915260ff89166060909401939093526001600160a01b038a1682526027905220815191925082918190613c899082615dca565b5060208201516001820180546040850151606086015163ffffffff908116600160c01b0263ffffffff60c01b1991909216600160a01b026001600160c01b03199093166001600160a01b0390951694909417919091179283168117825560808501519260ff60e01b1990911664ffffffffff60c01b1990911617600160e01b836006811115613d1a57613d1a614f48565b021790555060a08201516001909101805460c084015160e09094015160ff16600160f81b026001600160f81b03941515600160f01b0260ff60f01b19941515600160e81b029490941661ffff60e81b199092169190911792909217929092161790556001600160a01b0386165f908152600c602052604090819020849055517f7d89246e6daeb7529685fda2e1f478d9a155eea08675ebecd1bf8c0e572382fd90613dc690839061501d565b60405180910390a15050505050505050565b6001600160a01b0383163b15613ef757604051630a85bd0160e11b81526001600160a01b0384169063150b7a0290613e1a908890889087908790600401615e84565b6020604051808303815f875af1925050508015613e54575060408051601f3d908101601f19168201909252613e5191810190615eb6565b60015b613ebb573d808015613e81576040519150601f19603f3d011682016040523d82523d5f602084013e613e86565b606091505b5080515f03613eb357604051633250574960e11b81526001600160a01b0385166004820152602401610ab2565b805181602001fd5b6001600160e01b03198116630a85bd0160e11b14610ec657604051633250574960e11b81526001600160a01b0385166004820152602401610ab2565b5050505050565b60605f613f0a83614502565b6028602282012090915060601c60295b6001811115613fa357600782600f16118015613f4f57506060838281518110613f4557613f45615763565b016020015160f81c115b15613f8c57602060f81b838281518110613f6b57613f6b615763565b0160200180516001600160f81b0319908116909218909116905f82901a9053505b60049190911c90613f9c81615ed1565b9050613f1a565b50909392505050565b6060613fd26040518061052001604052806104ed8152602001615f2c6104ed9139613ff6565b604051602001613fe29190615ee6565b604051602081830303815290604052905090565b6060610a8782604051806060016040528060408152602001616419604091396001614518565b60ff81165f908152600b6020526040812054816140398683613260565b6001600160a01b0387165f818152600c602052604081208054919055919250614061906138fd565b6008545f03614083576040516315ae672760e01b815260040160405180910390fd5b5f8382106140925750826140f0565b50600a5481905f906001600160a01b03166140ad838761578b565b6040515f81818185875af1925050503d805f81146140e6576040519150601f19603f3d011682016040523d82523d5f602084013e6140eb565b606091505b505050505b600a54604051634875485760e11b81526001600160a01b03898116600483015260248201869052909116906390ea90ae9083906044015f604051808303818588803b15801561413d575f80fd5b505af115801561414f573d5f803e3d5ffd5b505050505082816126579190615816565b5f600382600681111561417557614175614f48565b14806141925750600482600681111561419057614190614f48565b145b80610a87575060028260068111156141ac576141ac614f48565b1492915050565b600e54600160a81b810463ffffffff1690600160c81b900460ff165f6141da8380846130aa565b90505f6141e78287614692565b90505f816141f6578254614204565b82546142049060019061578b565b90506142108682612ec4565b5f61421c866001615850565b90505f61422a828888613062565b9050614236818a614692565b935083614244578054614252565b80546142529060019061578b565b925061425e8884612ec4565b5f61426a886002615850565b90505f614278828a8a613062565b9050614284818c614692565b9550856142925780546142a0565b80546142a09060019061578b565b94506142ac8a86612ec4565b5050505050505050505050565b60018201805463ffffffff8316600160c01b0264ffffffffff60c01b1990911617600560e01b1790556040517f69cb3a026a27d868ccc41f8a2a5e4b59396939b736cf54a110052c9983e8378d90612c08908490615c7f565b60ff81165f908152600b60205260408120548161432f8583613260565b9050801580614351575060ff84165f908152600b602052604090206001015481105b156118a857604051633737b70960e11b815260048101829052602401610ab2565b600e5460ff1661154457604051638dfc202b60e01b815260040160405180910390fd5b5f806143a285858561478d565b90506001600160a01b0381166143fe576143f984600880545f838152600960205260408120829055600182018355919091527ff3f7a9fe364faab93b216da50a3214154f22a0a2b415b23a84c8169e8b636ee30155565b614421565b846001600160a01b0316816001600160a01b03161461442157614421818561487f565b6001600160a01b03851661443d57614438846148fc565b6118a8565b846001600160a01b0316816001600160a01b0316146118a8576118a885856149a3565b60018101805460ff60e01b1916600360e01b1790556040517f31845bad1fcdd92490e8d85605449863a562ea940e37b380a276e440683fdb7290612f4e908390615c7f565b80515f90815b818110156144f857846001600160a01b03168482815181106144cf576144cf615763565b60200260200101516001600160a01b0316036144f057600192505050610a87565b6001016144ab565b505f949350505050565b6060610a876001600160a01b03831660146149f1565b606083515f03614536575060408051602081019091525f815261265e565b5f826145665760038551600461454c91906157ff565b614557906002615816565b614561919061583d565b61458b565b6003855160026145769190615816565b614580919061583d565b61458b9060046157ff565b90505f816001600160401b038111156145a6576145a6615138565b6040519080825280601f01601f1916602001820160405280156145d0576020820181803683370190505b509050600185016020820187885189016020810180515f82525b82841015614645576003840193508351603f8160121c168701518653600186019550603f81600c1c168701518653600186019550603f8160061c168701518653600186019550603f81168701518653506001850194506145ea565b90525050851561468657600388510660018114614669576002811461467c57614684565b603d6001830353603d6002830353614684565b603d60018303535b505b50909695505050505050565b81545f90815b818110156144f857836001600160a01b03168582815481106146bc576146bc615763565b5f918252602090912001546001600160a01b03160361478557846146e160018461578b565b815481106146f1576146f1615763565b905f5260205f20015f9054906101000a90046001600160a01b031685828154811061471e5761471e615763565b905f5260205f20015f6101000a8154816001600160a01b0302191690836001600160a01b031602179055508480548061475957614759615f17565b5f8281526020902081015f1990810180546001600160a01b03191690550190555060019150610a879050565b600101614698565b5f828152600260205260408120546001600160a01b03908116908316156147b9576147b9818486614b62565b6001600160a01b038116156147f3576147d45f855f80614bc6565b6001600160a01b0381165f90815260036020526040902080545f190190555b6001600160a01b03851615614821576001600160a01b0385165f908152600360205260409020805460010190555b5f8481526002602052604080822080546001600160a01b0319166001600160a01b0389811691821790925591518793918516917fddf252ad1be2c89b69c2b068fc378daa952ba7f163c4a11628f55a4df523b3ef91a4949350505050565b5f61488983611815565b5f838152600760209081526040808320546001600160a01b03881684526006909252909120919250908183146148de575f83815260208281526040808320548584528184208190558352600790915290208290555b5f938452600760209081526040808620869055938552525081205550565b6008545f9061490d9060019061578b565b5f838152600960205260408120546008805493945090928490811061493457614934615763565b905f5260205f2001549050806008838154811061495357614953615763565b5f91825260208083209091019290925582815260099091526040808220849055858252812055600880548061498a5761498a615f17565b600190038181905f5260205f20015f9055905550505050565b5f60016149af84611815565b6149b9919061578b565b6001600160a01b039093165f908152600660209081526040808320868452825280832085905593825260079052919091209190915550565b6060825f614a008460026157ff565b614a0b906002615816565b6001600160401b03811115614a2257614a22615138565b6040519080825280601f01601f191660200182016040528015614a4c576020820181803683370190505b509050600360fc1b815f81518110614a6657614a66615763565b60200101906001600160f81b03191690815f1a905350600f60fb1b81600181518110614a9457614a94615763565b60200101906001600160f81b03191690815f1a9053505f614ab68560026157ff565b614ac1906001615816565b90505b6001811115614b38576f181899199a1a9b1b9c1cb0b131b232b360811b83600f1660108110614af557614af5615763565b1a60f81b828281518110614b0b57614b0b615763565b60200101906001600160f81b03191690815f1a90535060049290921c91614b3181615ed1565b9050614ac4565b5081156118a85760405163e22e27eb60e01b81526004810186905260248101859052604401610ab2565b614b6d838383614cca565b610bde576001600160a01b038316614b9b57604051637e27328960e01b815260048101829052602401610ab2565b60405163177e802f60e01b81526001600160a01b038316600482015260248101829052604401610ab2565b8080614bda57506001600160a01b03821615155b15614c9b575f614be984612a61565b90506001600160a01b03831615801590614c155750826001600160a01b0316816001600160a01b031614155b8015614c285750614c268184612665565b155b15614c515760405163a9fbf51f60e01b81526001600160a01b0384166004820152602401610ab2565b8115614c995783856001600160a01b0316826001600160a01b03167f8c5be1e5ebec7d5bd14f71427d1e84f3dd0314c0f7b2291e5b200ac8c7c3b92560405160405180910390a45b505b50505f90815260046020526040902080546001600160a01b0319166001600160a01b0392909216919091179055565b5f6001600160a01b038316158015906118a85750826001600160a01b0316846001600160a01b03161480614d035750614d038484612665565b806118a85750505f908152600460205260409020546001600160a01b03908116911614919050565b604080516101008101825260608082525f60208301819052928201839052810182905290608082019081525f602082018190526040820181905260609091015290565b828054828255905f5260205f20908101928215614dc1579160200282015b82811115614dc157825182546001600160a01b0319166001600160a01b03909116178255602090920191600190910190614d8c565b50614dcd929150614dd1565b5090565b5b80821115614dcd575f8155600101614dd2565b6001600160e01b031981168114610f15575f80fd5b5f60208284031215614e0a575f80fd5b813561265e81614de5565b5f8083601f840112614e25575f80fd5b5081356001600160401b03811115614e3b575f80fd5b6020830191508360208260061b8501011115614e55575f80fd5b9250929050565b5f8060208385031215614e6d575f80fd5b82356001600160401b03811115614e82575f80fd5b614e8e85828601614e15565b90969095509350505050565b5f81518084528060208401602086015e5f602082860101526020601f19601f83011685010191505092915050565b602081525f61265e6020830184614e9a565b5f60208284031215614eea575f80fd5b5035919050565b80356001600160a01b0381168114612536575f80fd5b5f8060408385031215614f18575f80fd5b614f2183614ef1565b946020939093013593505050565b5f60208284031215614f3f575f80fd5b61265e82614ef1565b634e487b7160e01b5f52602160045260245ffd5b60078110614f7857634e487b7160e01b5f52602160045260245ffd5b9052565b5f81516101008452614f92610100850182614e9a565b905060018060a01b03602084015116602085015263ffffffff60408401511660408501526060830151614fcd606086018263ffffffff169052565b506080830151614fe06080860182614f5c565b5060a0830151614ff460a086018215159052565b5060c083015161500860c086018215159052565b5060e08301516120be60e086018260ff169052565b602081525f61265e6020830184614f7c565b5f805f60608486031215615041575f80fd5b61504a84614ef1565b925061505860208501614ef1565b929592945050506040919091013590565b63ffffffff81168114610f15575f80fd5b5f6020828403121561508a575f80fd5b813561265e81615069565b6020808252825160a083830152805160c084018190525f929190910190829060e08501905b808310156150e55783516001600160a01b0316825260209384019360019390930192909101906150ba565b50602086015160408601526040860151925061510c60608601846001600160401b03169052565b606086015163ffffffff811660808701529250608086015160ff811660a0870152925095945050505050565b634e487b7160e01b5f52604160045260245ffd5b604051601f8201601f191681016001600160401b038111828210171561517457615174615138565b604052919050565b5f6001600160401b0382111561519457615194615138565b50601f01601f191660200190565b5f82601f8301126151b1575f80fd5b81356151c46151bf8261517c565b61514c565b8181528460208386010111156151d8575f80fd5b816020850160208301375f918101602001919091529392505050565b5f8060408385031215615205575f80fd5b82356001600160401b0381111561521a575f80fd5b615226858286016151a2565b92505061523560208401614ef1565b90509250929050565b5f806020838503121561524f575f80fd5b82356001600160401b03811115615264575f80fd5b8301601f81018513615274575f80fd5b80356001600160401b03811115615289575f80fd5b8560208260051b840101111561529d575f80fd5b6020919091019590945092505050565b60ff60f81b8816815260e060208201525f6152cb60e0830189614e9a565b82810360408401526152dd8189614e9a565b606084018890526001600160a01b038716608085015260a0840186905283810360c0850152845180825260208087019350909101905f5b81811015615332578351835260209384019390920191600101615314565b50909b9a5050505050505050505050565b5f8083601f840112615353575f80fd5b5081356001600160401b03811115615369575f80fd5b602083019150836020828501011115614e55575f80fd5b5f60408284031215615390575f80fd5b604080519081016001600160401b03811182821017156153b2576153b2615138565b60405290508082356001600160401b038111156153cd575f80fd5b6153d9858286016151a2565b82525060208301356001600160401b038111156153f4575f80fd5b615400858286016151a2565b6020830152505092915050565b5f805f805f8060808789031215615422575f80fd5b86356001600160401b03811115615437575f80fd5b61544389828a01615343565b90975095505060208701356001600160401b03811115615461575f80fd5b61546d89828a01615380565b94505061547c60408801614ef1565b925060608701356001600160401b03811115615496575f80fd5b6154a289828a01615343565b979a9699509497509295939492505050565b5f602082840312156154c4575f80fd5b81356007811061265e575f80fd5b5f602082016020835280845180835260408501915060408160051b8601019250602086015f5b8281101561552957603f19878603018452615514858351614f7c565b945060209384019391909101906001016154f8565b50929695505050505050565b8015158114610f15575f80fd5b5f8060408385031215615553575f80fd5b61555c83614ef1565b9150602083013561556c81615535565b809150509250929050565b5f60208284031215615587575f80fd5b813560ff8116811461265e575f80fd5b5f805f604084860312156155a9575f80fd5b83356001600160401b038111156155be575f80fd5b6155ca86828701615343565b90945092505060208401356001600160401b038111156155e8575f80fd5b6155f486828701615380565b9150509250925092565b5f805f8060808587031215615611575f80fd5b61561a85614ef1565b935061562860208601614ef1565b92506040850135915060608501356001600160401b03811115615649575f80fd5b615655878288016151a2565b91505092959194509250565b5f6080828403128015615672575f80fd5b509092915050565b5f805f6060848603121561568c575f80fd5b83356001600160401b038111156156a1575f80fd5b6156ad868287016151a2565b9350506156bc60208501614ef1565b91506156ca60408501614ef1565b90509250925092565b5f80604083850312156156e4575f80fd5b6156ed83614ef1565b915061523560208401614ef1565b61010081525f61570f61010083018b614e9a565b6001600160a01b038a16602084015263ffffffff89811660408501528816606084015290506157416080830187614f5c565b93151560a082015291151560c083015260ff1660e09091015295945050505050565b634e487b7160e01b5f52603260045260245ffd5b634e487b7160e01b5f52601160045260245ffd5b81810381811115610a8757610a87615777565b604081016001600160a01b036157b384614ef1565b168252602092830135929091019190915290565b600181811c908216806157db57607f821691505b6020821081036157f957634e487b7160e01b5f52602260045260245ffd5b50919050565b8082028115828204841417610a8757610a87615777565b80820180821115610a8757610a87615777565b634e487b7160e01b5f52601260045260245ffd5b5f8261584b5761584b615829565b500490565b63ffffffff8181168382160190811115610a8757610a87615777565b63ffffffff8281168282160390811115610a8757610a87615777565b5f60208284031215615898575f80fd5b81516001600160401b038111156158ad575f80fd5b8201601f810184136158bd575f80fd5b80516158cb6151bf8261517c565b8181528560208385010111156158df575f80fd5b8160208401602083015e5f91810160200191909152949350505050565b5f6020828403121561590c575f80fd5b815161265e81615535565b5f81518060208401855e5f93019283525090919050565b6001600160d81b0319851681525f6159496005830186615917565b6001600160f81b031994909416845250506bffffffffffffffffffffffff1916600182015260150192915050565b60208101610a878284614f5c565b606081525f6159976060830186614e9a565b82810360208401526159a98186614e9a565b905082810360408401526159bd8185614e9a565b9695505050505050565b604081525f83516040808401526159e16080840182614e9a565b90506020850151603f198483030160608501526159fe8282614e9a565b91505082810360208401526132908185614e9a565b818382375f9101908152919050565b95865260208601949094526001600160a01b0392831660408601529116606084015260ff1660808301526001600160401b031660a082015260c00190565b6001600160401b038181168382160190811115610a8757610a87615777565b5f60ff821660ff8103615a9457615a94615777565b60010192915050565b813581556020820135600182015560408201356002820155600381016060830135615ac781615069565b815463ffffffff191663ffffffff919091161790555050565b7f7b226e616d65223a202254656c636f696e2d4e6574776f726b20436f6e73656e8152651cdd5cd3919560d21b60208201525f615b206026830185615917565b7f222c20226465736372697074696f6e223a2022455243373231204e465420776881527f6f7365206f776e657273686970206c656467657220726570726573656e74732060208201527f746865207065726d697373696f6e65642077686974656c69737420666f72207660408201527530b634b230ba37b9399116101134b6b0b3b2911d101160511b6060820152615bbb6076820185615917565b61227d60f01b815260020195945050505050565b7f646174613a6170706c69636174696f6e2f6a736f6e3b6261736536342c00000081525f61265e601d830184615917565b5f8154615c0c816157c7565b808552600182168015615c265760018114615c4257615c76565b60ff1983166020870152602082151560051b8701019350615c76565b845f5260205f205f5b83811015615c6d5781546020828a010152600182019150602081019050615c4b565b87016020019450505b50505092915050565b6020815261010060208201525f615c9a610120830184615c00565b60018401546001600160a01b038116604085015260a081901c63ffffffff16606085015260c081901c63ffffffff166080850152615ce160a0850160ff8360e01c16614f5c565b615cf560c0850160ff8360e81c1615159052565b615d0960e0850160ff8360f01c1615159052565b60f881901c6101008501526120be565b5f60018201615d2a57615d2a615777565b5060010190565b60ff8181168382160190811115610a8757610a87615777565b5f60ff831680615d5c57615d5c615829565b8060ff84160691505092915050565b5f63ffffffff821663ffffffff8103615a9457615a94615777565b601f821115610bde57805f5260205f20601f840160051c81016020851015615dab5750805b601f840160051c820191505b81811015613ef7575f8155600101615db7565b81516001600160401b03811115615de357615de3615138565b615df781615df184546157c7565b84615d86565b6020601f821160018114615e29575f8315615e125750848201515b5f19600385901b1c1916600184901b178455613ef7565b5f84815260208120601f198516915b82811015615e585787850151825560209485019460019092019101615e38565b5084821015615e7557868401515f19600387901b60f8161c191681555b50505050600190811b01905550565b6001600160a01b03858116825284166020820152604081018390526080606082018190525f906159bd90830184614e9a565b5f60208284031215615ec6575f80fd5b815161265e81614de5565b5f81615edf57615edf615777565b505f190190565b7f646174613a696d6167652f7376672b786d6c3b6261736536342c00000000000081525f61265e601a830184615917565b634e487b7160e01b5f52603160045260245ffdfe3c7376672077696474683d22373922206865696768743d223830222076696577426f783d22302030203739203830222066696c6c3d226e6f6e652220786d6c6e733d22687474703a2f2f7777772e77332e6f72672f323030302f737667223e203c6d61736b2069643d226d61736b305f3834395f3334313722207374796c653d226d61736b2d747970653a616c70686122206d61736b556e6974733d227573657253706163654f6e5573652220783d22302220793d2230222077696474683d22373922206865696768743d223830223e203c726563742077696474683d2237382e30303522206865696768743d223830222066696c6c3d2223433443344334222f3e203c2f6d61736b3e203c67206d61736b3d2275726c28236d61736b305f3834395f3334313729223e203c7265637420783d2231372e393534362220793d2231382e33353435222077696474683d2234322e3239343322206865696768743d2234332e32393138222066696c6c3d227768697465222f3e203c7061746820643d224d37342e323336392032312e393839324337362e363930382032342e303331352037382e323338392032382e323537372037372e363937392033312e333733334c37322e343136362036312e333235334337312e3836362036342e343437352036382e393539322036372e383739382036352e393632392036382e393631324c33372e313934372037392e333334344333342e313938342038302e343135372032392e373432312037392e363239392032372e323936342037372e3538394c332e3831312035382e3030323143312e33353730382035352e39353938202d302e31393233382035312e3734313720302e3335383134382034382e363139354c352e36333935312031382e3636373443362e31393030342031352e3534353220392e30393638372031322e313132392031322e303933322031312e303331364c34302e3835393920302e3636363435334334332e38353632202d302e3431343835372034382e3331323520302e3337303930392035302e3735383320322e343131384c37342e323336392032312e393839325a4d34392e373634352033352e343336394c35302e393336342032392e333531334c33392e393531372032392e333638374c34312e3531362032312e333432344c33372e393538332032312e333432344333372e393538332032312e333432342033342e363332382032372e323930312032372e333030362033302e323031394c32362e323839392033352e343530334c33312e303933362033352e34364333312e303933362033352e34362032392e343637342034332e303032392032382e393331362034352e373835344332372e353637372035322e383638322033302e393830362035372e383933392033362e323238312035372e383933394333382e383630362035372e383933392034312e3831372035372e383933392034352e303937322035372e383933394c34362e363532342035312e313636364334362e323734322035312e313636362034332e383031332035312e313636362033392e323333362035312e313636364333352e393336342035312e313636362033362e313039392034392e333138392033362e373433312034362e303330354c33382e373833382033352e343333334c34392e373634352033352e343336395a222066696c6c3d2223313443384646222f3e203c2f673e203c2f7376673e4142434445464748494a4b4c4d4e4f505152535455565758595a6162636465666768696a6b6c6d6e6f707172737475767778797a303132333435363738392b2fa164736f6c634300081a000a60c0604052348015600e575f80fd5b5060405161045d38038061045d833981016040819052602b91605b565b6001600160a01b039182166080521660a0526087565b80516001600160a01b03811681146056575f80fd5b919050565b5f8060408385031215606b575f80fd5b6072836041565b9150607e602084016041565b90509250929050565b60805160a05161039d6100c05f395f8181610162015261022c01525f8181603001528181606c0152818160bd015260f9015261039d5ff3fe608060405260043610610020575f3560e01c806390ea90ae146100a4575f80fd5b366100a057336001600160a01b037f0000000000000000000000000000000000000000000000000000000000000000161461009e57604051632439f07560e21b81526001600160a01b037f00000000000000000000000000000000000000000000000000000000000000001660048201526024015b60405180910390fd5b005b5f80fd5b61009e6100b23660046102fa565b336001600160a01b037f0000000000000000000000000000000000000000000000000000000000000000161461012657604051632439f07560e21b81526001600160a01b037f0000000000000000000000000000000000000000000000000000000000000000166004820152602401610095565b475f610132348461032f565b90508082101561015f5760405163cf47918160e01b81526004810183905260248101829052604401610095565b5f7f00000000000000000000000000000000000000000000000000000000000000006001600160a01b0316826040515f6040518083038185875af1925050503d805f81146101c8576040519150601f19603f3d011682016040523d82523d5f602084013e6101cd565b606091505b50506040516001600160a01b0387166024820152604481018490529091505f9060640160408051601f198184030181529181526020820180516001600160e01b031663a9059cbb60e01b179052519091505f9081906001600160a01b037f00000000000000000000000000000000000000000000000000000000000000001690610258908590610354565b5f604051808303815f865af19150503d805f8114610291576040519150601f19603f3d011682016040523d82523d5f602084013e610296565b606091505b50915091505f818060200190518101906102b0919061036a565b90508415806102bd575082155b806102c6575080155b156102ef57604051630d623c2560e01b81526001600160a01b038a166004820152602401610095565b505050505050505050565b5f806040838503121561030b575f80fd5b82356001600160a01b0381168114610321575f80fd5b946020939093013593505050565b8082018082111561034e57634e487b7160e01b5f52601160045260245ffd5b92915050565b5f82518060208501845e5f920191825250919050565b5f6020828403121561037a575f80fd5b81518015158114610389575f80fd5b939250505056fea164736f6c634300081a000a","linkReferences":{"src/consensus/BlsG1.sol":{"BlsG1":[{"start":922,"length":20},{"start":1073,"length":20},{"start":1238,"length":20},{"start":2607,"length":20},{"start":2743,"length":20},{"start":12310,"length":20},{"start":12446,"length":20},{"start":13830,"length":20},{"start":13939,"length":20},{"start":14079,"length":20},{"start":15294,"length":20},{"start":15403,"length":20},{"start":15543,"length":20}]}}},"methodIdentifiers":{"SYSTEM_ADDRESS()":"3434735f","activate()":"0f15f4c0","allocateIssuance()":"355811a7","applyIncentives((address,uint256)[])":"0a36cdef","applySlashes((address,uint256)[])":"02ae337b","approve(address,uint256)":"095ea7b3","balanceOf(address)":"70a08231","beginExit()":"2228dfa0","burn(address)":"89afcb44","claimStakeRewards(address)":"2b9f4985","concludeEpoch(address[])":"7b55a300","delegateStake(bytes,(bytes,bytes),address,bytes)":"8bb43f3a","delegationDigest(bytes,address,address)":"e3716d04","eip712Domain()":"84b0196e","epochInfo(uint256)":"3894228e","futureEpochInfo(uint256)":"59ca93b6","getApproved(uint256)":"081812fc","getBalance(address)":"f8b2cb4f","getCommitteeValidators(uint32)":"a0201be5","getCurrentEpoch()":"b97dd9e2","getCurrentEpochInfo()":"babc394f","getCurrentStakeConfig()":"7d06fdf8","getCurrentStakeVersion()":"67398331","getEpochInfo(uint32)":"374ed18c","getRewards(address)":"79ee54f7","getValidator(address)":"1904bb2e","getValidators(uint8)":"8cc05eda","isApprovedForAll(address,address)":"e985e9c5","isRetired(address)":"6d3c6275","issuance()":"863623bb","mint(address)":"6a627842","name()":"06fdde03","owner()":"8da5cb5b","ownerOf(uint256)":"6352211e","pause()":"8456cb59","paused()":"5c975abb","proofOfPossessionMessage(bytes,address)":"6850eb31","renounceOwnership()":"715018a6","safeTransferFrom(address,address,uint256)":"42842e0e","safeTransferFrom(address,address,uint256,bytes)":"b88d4fde","setApprovalForAll(address,bool)":"a22cb465","stake(bytes,(bytes,bytes))":"b5184324","stakeConfig(uint8)":"a71954ec","supportsInterface(bytes4)":"01ffc9a7","symbol()":"95d89b41","tokenByIndex(uint256)":"4f6ccce7","tokenOfOwnerByIndex(address,uint256)":"2f745c59","tokenURI(uint256)":"c87b56dd","totalSupply()":"18160ddd","transferFrom(address,address,uint256)":"23b872dd","transferOwnership(address)":"f2fde38b","unpause()":"3f4ba83a","unstake(address)":"f2888dbb","upgradeStakeVersion((uint256,uint256,uint256,uint32))":"c05df7ac","validators(address)":"fa52c7d8"},"id":67}