{"abi":[{"type":"constructor","inputs":[{"name":"genesisConfig_","type":"tuple","internalType":"struct IStakeManager.StakeConfig","components":[{"name":"stakeAmount","type":"uint256","internalType":"uint256"},{"name":"minWithdrawAmount","type":"uint256","internalType":"uint256"},{"name":"epochIssuance","type":"uint256","internalType":"uint256"},{"name":"epochDuration","type":"uint32","internalType":"uint32"}]},{"name":"initialValidators_","type":"tuple[]","internalType":"struct IConsensusRegistry.ValidatorInfo[]","components":[{"name":"validatorAddress","type":"address","internalType":"address"},{"name":"activationEpoch","type":"uint32","internalType":"uint32"},{"name":"exitEpoch","type":"uint32","internalType":"uint32"},{"name":"currentStatus","type":"uint8","internalType":"enum IConsensusRegistry.ValidatorStatus"},{"name":"isRetired","type":"bool","internalType":"bool"},{"name":"stakeVersion","type":"uint8","internalType":"uint8"},{"name":"region","type":"uint8","internalType":"uint8"}]},{"name":"blsPubkeys_","type":"bytes[]","internalType":"bytes[]"},{"name":"proofsOfPossession","type":"tuple[]","internalType":"struct BlsG1.ProofOfPossession[]","components":[{"name":"signature","type":"bytes","internalType":"bytes"}]},{"name":"owner_","type":"address","internalType":"address"}],"stateMutability":"nonpayable"},{"type":"function","name":"SYSTEM_ADDRESS","inputs":[],"outputs":[{"name":"","type":"address","internalType":"address"}],"stateMutability":"view"},{"type":"function","name":"activate","inputs":[],"outputs":[],"stateMutability":"nonpayable"},{"type":"function","name":"allocateIssuance","inputs":[],"outputs":[],"stateMutability":"payable"},{"type":"function","name":"applyIncentives","inputs":[{"name":"rewardInfos","type":"tuple[]","internalType":"struct RewardInfo[]","components":[{"name":"validatorAddress","type":"address","internalType":"address"},{"name":"consensusHeaderCount","type":"uint256","internalType":"uint256"}]}],"outputs":[],"stateMutability":"nonpayable"},{"type":"function","name":"applySlashes","inputs":[{"name":"slashes","type":"tuple[]","internalType":"struct Slash[]","components":[{"name":"validatorAddress","type":"address","internalType":"address"},{"name":"amount","type":"uint256","internalType":"uint256"}]}],"outputs":[],"stateMutability":"nonpayable"},{"type":"function","name":"approve","inputs":[{"name":"","type":"address","internalType":"address"},{"name":"","type":"uint256","internalType":"uint256"}],"outputs":[],"stateMutability":"nonpayable"},{"type":"function","name":"balanceOf","inputs":[{"name":"owner","type":"address","internalType":"address"}],"outputs":[{"name":"","type":"uint256","internalType":"uint256"}],"stateMutability":"view"},{"type":"function","name":"beginExit","inputs":[],"outputs":[],"stateMutability":"nonpayable"},{"type":"function","name":"burn","inputs":[{"name":"validatorAddress","type":"address","internalType":"address"}],"outputs":[],"stateMutability":"nonpayable"},{"type":"function","name":"claimStakeRewards","inputs":[{"name":"validatorAddress","type":"address","internalType":"address"}],"outputs":[],"stateMutability":"nonpayable"},{"type":"function","name":"concludeEpoch","inputs":[{"name":"futureCommittee","type":"address[]","internalType":"address[]"}],"outputs":[],"stateMutability":"nonpayable"},{"type":"function","name":"delegateStake","inputs":[{"name":"blsPubkey","type":"bytes","internalType":"bytes"},{"name":"proofOfPossession","type":"tuple","internalType":"struct BlsG1.ProofOfPossession","components":[{"name":"signature","type":"bytes","internalType":"bytes"}]},{"name":"validatorAddress","type":"address","internalType":"address"},{"name":"validatorEIP712Signature","type":"bytes","internalType":"bytes"}],"outputs":[],"stateMutability":"payable"},{"type":"function","name":"delegationDigest","inputs":[{"name":"blsPubkey","type":"bytes","internalType":"bytes"},{"name":"validatorAddress","type":"address","internalType":"address"},{"name":"delegator","type":"address","internalType":"address"}],"outputs":[{"name":"","type":"bytes32","internalType":"bytes32"}],"stateMutability":"view"},{"type":"function","name":"eip712Domain","inputs":[],"outputs":[{"name":"fields","type":"bytes1","internalType":"bytes1"},{"name":"name","type":"string","internalType":"string"},{"name":"version","type":"string","internalType":"string"},{"name":"chainId","type":"uint256","internalType":"uint256"},{"name":"verifyingContract","type":"address","internalType":"address"},{"name":"salt","type":"bytes32","internalType":"bytes32"},{"name":"extensions","type":"uint256[]","internalType":"uint256[]"}],"stateMutability":"view"},{"type":"function","name":"epochInfo","inputs":[{"name":"","type":"uint256","internalType":"uint256"}],"outputs":[{"name":"epochIssuance","type":"uint256","internalType":"uint256"},{"name":"blockHeight","type":"uint64","internalType":"uint64"},{"name":"epochId","type":"uint32","internalType":"uint32"},{"name":"epochDuration","type":"uint32","internalType":"uint32"},{"name":"stakeVersion","type":"uint8","internalType":"uint8"}],"stateMutability":"view"},{"type":"function","name":"futureEpochInfo","inputs":[{"name":"","type":"uint256","internalType":"uint256"}],"outputs":[{"name":"epochIssuance","type":"uint256","internalType":"uint256"},{"name":"blockHeight","type":"uint64","internalType":"uint64"},{"name":"epochId","type":"uint32","internalType":"uint32"},{"name":"epochDuration","type":"uint32","internalType":"uint32"},{"name":"stakeVersion","type":"uint8","internalType":"uint8"}],"stateMutability":"view"},{"type":"function","name":"getApproved","inputs":[{"name":"tokenId","type":"uint256","internalType":"uint256"}],"outputs":[{"name":"","type":"address","internalType":"address"}],"stateMutability":"view"},{"type":"function","name":"getBalanceBreakdown","inputs":[{"name":"validatorAddress","type":"address","internalType":"address"}],"outputs":[{"name":"","type":"uint256","internalType":"uint256"},{"name":"","type":"uint256","internalType":"uint256"},{"name":"","type":"uint256","internalType":"uint256"}],"stateMutability":"view"},{"type":"function","name":"getBlsPubkey","inputs":[{"name":"validatorAddress","type":"address","internalType":"address"}],"outputs":[{"name":"","type":"bytes","internalType":"bytes"}],"stateMutability":"view"},{"type":"function","name":"getCommitteeBlsPubkeys","inputs":[{"name":"epoch","type":"uint32","internalType":"uint32"}],"outputs":[{"name":"","type":"bytes[]","internalType":"bytes[]"}],"stateMutability":"view"},{"type":"function","name":"getCommitteeValidators","inputs":[{"name":"epoch","type":"uint32","internalType":"uint32"}],"outputs":[{"name":"","type":"tuple[]","internalType":"struct IConsensusRegistry.ValidatorInfo[]","components":[{"name":"validatorAddress","type":"address","internalType":"address"},{"name":"activationEpoch","type":"uint32","internalType":"uint32"},{"name":"exitEpoch","type":"uint32","internalType":"uint32"},{"name":"currentStatus","type":"uint8","internalType":"enum IConsensusRegistry.ValidatorStatus"},{"name":"isRetired","type":"bool","internalType":"bool"},{"name":"stakeVersion","type":"uint8","internalType":"uint8"},{"name":"region","type":"uint8","internalType":"uint8"}]}],"stateMutability":"view"},{"type":"function","name":"getCurrentEpoch","inputs":[],"outputs":[{"name":"","type":"uint32","internalType":"uint32"}],"stateMutability":"view"},{"type":"function","name":"getCurrentEpochInfo","inputs":[],"outputs":[{"name":"","type":"tuple","internalType":"struct IConsensusRegistry.EpochInfo","components":[{"name":"committee","type":"address[]","internalType":"address[]"},{"name":"epochIssuance","type":"uint256","internalType":"uint256"},{"name":"blockHeight","type":"uint64","internalType":"uint64"},{"name":"epochId","type":"uint32","internalType":"uint32"},{"name":"epochDuration","type":"uint32","internalType":"uint32"},{"name":"stakeVersion","type":"uint8","internalType":"uint8"}]}],"stateMutability":"view"},{"type":"function","name":"getCurrentStakeConfig","inputs":[],"outputs":[{"name":"","type":"tuple","internalType":"struct IStakeManager.StakeConfig","components":[{"name":"stakeAmount","type":"uint256","internalType":"uint256"},{"name":"minWithdrawAmount","type":"uint256","internalType":"uint256"},{"name":"epochIssuance","type":"uint256","internalType":"uint256"},{"name":"epochDuration","type":"uint32","internalType":"uint32"}]}],"stateMutability":"view"},{"type":"function","name":"getCurrentStakeVersion","inputs":[],"outputs":[{"name":"","type":"uint8","internalType":"uint8"}],"stateMutability":"view"},{"type":"function","name":"getEligibleValidatorCount","inputs":[],"outputs":[{"name":"","type":"uint256","internalType":"uint256"}],"stateMutability":"view"},{"type":"function","name":"getEpochInfo","inputs":[{"name":"epoch","type":"uint32","internalType":"uint32"}],"outputs":[{"name":"","type":"tuple","internalType":"struct IConsensusRegistry.EpochInfo","components":[{"name":"committee","type":"address[]","internalType":"address[]"},{"name":"epochIssuance","type":"uint256","internalType":"uint256"},{"name":"blockHeight","type":"uint64","internalType":"uint64"},{"name":"epochId","type":"uint32","internalType":"uint32"},{"name":"epochDuration","type":"uint32","internalType":"uint32"},{"name":"stakeVersion","type":"uint8","internalType":"uint8"}]}],"stateMutability":"view"},{"type":"function","name":"getNextCommitteeSize","inputs":[],"outputs":[{"name":"","type":"uint16","internalType":"uint16"}],"stateMutability":"view"},{"type":"function","name":"getRewards","inputs":[{"name":"validatorAddress","type":"address","internalType":"address"}],"outputs":[{"name":"","type":"uint256","internalType":"uint256"}],"stateMutability":"view"},{"type":"function","name":"getValidator","inputs":[{"name":"validatorAddress","type":"address","internalType":"address"}],"outputs":[{"name":"","type":"tuple","internalType":"struct IConsensusRegistry.ValidatorInfo","components":[{"name":"validatorAddress","type":"address","internalType":"address"},{"name":"activationEpoch","type":"uint32","internalType":"uint32"},{"name":"exitEpoch","type":"uint32","internalType":"uint32"},{"name":"currentStatus","type":"uint8","internalType":"enum IConsensusRegistry.ValidatorStatus"},{"name":"isRetired","type":"bool","internalType":"bool"},{"name":"stakeVersion","type":"uint8","internalType":"uint8"},{"name":"region","type":"uint8","internalType":"uint8"}]}],"stateMutability":"view"},{"type":"function","name":"getValidators","inputs":[{"name":"status","type":"uint8","internalType":"enum IConsensusRegistry.ValidatorStatus"}],"outputs":[{"name":"","type":"address[]","internalType":"address[]"}],"stateMutability":"view"},{"type":"function","name":"getValidatorsInfo","inputs":[{"name":"status","type":"uint8","internalType":"enum IConsensusRegistry.ValidatorStatus"}],"outputs":[{"name":"","type":"tuple[]","internalType":"struct IConsensusRegistry.ValidatorInfo[]","components":[{"name":"validatorAddress","type":"address","internalType":"address"},{"name":"activationEpoch","type":"uint32","internalType":"uint32"},{"name":"exitEpoch","type":"uint32","internalType":"uint32"},{"name":"currentStatus","type":"uint8","internalType":"enum IConsensusRegistry.ValidatorStatus"},{"name":"isRetired","type":"bool","internalType":"bool"},{"name":"stakeVersion","type":"uint8","internalType":"uint8"},{"name":"region","type":"uint8","internalType":"uint8"}]}],"stateMutability":"view"},{"type":"function","name":"isApprovedForAll","inputs":[{"name":"owner","type":"address","internalType":"address"},{"name":"operator","type":"address","internalType":"address"}],"outputs":[{"name":"","type":"bool","internalType":"bool"}],"stateMutability":"view"},{"type":"function","name":"isDelegated","inputs":[{"name":"validatorAddress","type":"address","internalType":"address"}],"outputs":[{"name":"","type":"bool","internalType":"bool"}],"stateMutability":"view"},{"type":"function","name":"isRetired","inputs":[{"name":"validatorAddress","type":"address","internalType":"address"}],"outputs":[{"name":"","type":"bool","internalType":"bool"}],"stateMutability":"view"},{"type":"function","name":"isValidator","inputs":[{"name":"blsPubkey","type":"bytes","internalType":"bytes"}],"outputs":[{"name":"","type":"bool","internalType":"bool"}],"stateMutability":"view"},{"type":"function","name":"issuance","inputs":[],"outputs":[{"name":"","type":"address","internalType":"address payable"}],"stateMutability":"view"},{"type":"function","name":"mint","inputs":[{"name":"validatorAddress","type":"address","internalType":"address"}],"outputs":[],"stateMutability":"nonpayable"},{"type":"function","name":"name","inputs":[],"outputs":[{"name":"","type":"string","internalType":"string"}],"stateMutability":"view"},{"type":"function","name":"owner","inputs":[],"outputs":[{"name":"","type":"address","internalType":"address"}],"stateMutability":"view"},{"type":"function","name":"ownerOf","inputs":[{"name":"tokenId","type":"uint256","internalType":"uint256"}],"outputs":[{"name":"","type":"address","internalType":"address"}],"stateMutability":"view"},{"type":"function","name":"pause","inputs":[],"outputs":[],"stateMutability":"nonpayable"},{"type":"function","name":"paused","inputs":[],"outputs":[{"name":"","type":"bool","internalType":"bool"}],"stateMutability":"view"},{"type":"function","name":"renounceOwnership","inputs":[],"outputs":[],"stateMutability":"nonpayable"},{"type":"function","name":"safeTransferFrom","inputs":[{"name":"from","type":"address","internalType":"address"},{"name":"to","type":"address","internalType":"address"},{"name":"tokenId","type":"uint256","internalType":"uint256"}],"outputs":[],"stateMutability":"nonpayable"},{"type":"function","name":"safeTransferFrom","inputs":[{"name":"from","type":"address","internalType":"address"},{"name":"to","type":"address","internalType":"address"},{"name":"tokenId","type":"uint256","internalType":"uint256"},{"name":"data","type":"bytes","internalType":"bytes"}],"outputs":[],"stateMutability":"nonpayable"},{"type":"function","name":"setApprovalForAll","inputs":[{"name":"","type":"address","internalType":"address"},{"name":"","type":"bool","internalType":"bool"}],"outputs":[],"stateMutability":"nonpayable"},{"type":"function","name":"setNextCommitteeSize","inputs":[{"name":"newSize","type":"uint16","internalType":"uint16"}],"outputs":[],"stateMutability":"nonpayable"},{"type":"function","name":"setValidatorRegion","inputs":[{"name":"validatorAddress","type":"address","internalType":"address"},{"name":"region","type":"uint8","internalType":"uint8"}],"outputs":[],"stateMutability":"nonpayable"},{"type":"function","name":"stake","inputs":[{"name":"blsPubkey","type":"bytes","internalType":"bytes"},{"name":"proofOfPossession","type":"tuple","internalType":"struct BlsG1.ProofOfPossession","components":[{"name":"signature","type":"bytes","internalType":"bytes"}]}],"outputs":[],"stateMutability":"payable"},{"type":"function","name":"stakeConfig","inputs":[{"name":"version","type":"uint8","internalType":"uint8"}],"outputs":[{"name":"","type":"tuple","internalType":"struct IStakeManager.StakeConfig","components":[{"name":"stakeAmount","type":"uint256","internalType":"uint256"},{"name":"minWithdrawAmount","type":"uint256","internalType":"uint256"},{"name":"epochIssuance","type":"uint256","internalType":"uint256"},{"name":"epochDuration","type":"uint32","internalType":"uint32"}]}],"stateMutability":"view"},{"type":"function","name":"supportsInterface","inputs":[{"name":"interfaceId","type":"bytes4","internalType":"bytes4"}],"outputs":[{"name":"","type":"bool","internalType":"bool"}],"stateMutability":"view"},{"type":"function","name":"symbol","inputs":[],"outputs":[{"name":"","type":"string","internalType":"string"}],"stateMutability":"view"},{"type":"function","name":"tokenByIndex","inputs":[{"name":"index","type":"uint256","internalType":"uint256"}],"outputs":[{"name":"","type":"uint256","internalType":"uint256"}],"stateMutability":"view"},{"type":"function","name":"tokenOfOwnerByIndex","inputs":[{"name":"owner","type":"address","internalType":"address"},{"name":"index","type":"uint256","internalType":"uint256"}],"outputs":[{"name":"","type":"uint256","internalType":"uint256"}],"stateMutability":"view"},{"type":"function","name":"tokenURI","inputs":[{"name":"tokenId","type":"uint256","internalType":"uint256"}],"outputs":[{"name":"","type":"string","internalType":"string"}],"stateMutability":"view"},{"type":"function","name":"totalSupply","inputs":[],"outputs":[{"name":"","type":"uint256","internalType":"uint256"}],"stateMutability":"view"},{"type":"function","name":"transferFrom","inputs":[{"name":"","type":"address","internalType":"address"},{"name":"","type":"address","internalType":"address"},{"name":"","type":"uint256","internalType":"uint256"}],"outputs":[],"stateMutability":"nonpayable"},{"type":"function","name":"transferOwnership","inputs":[{"name":"newOwner","type":"address","internalType":"address"}],"outputs":[],"stateMutability":"nonpayable"},{"type":"function","name":"undistributedIssuance","inputs":[],"outputs":[{"name":"","type":"uint256","internalType":"uint256"}],"stateMutability":"view"},{"type":"function","name":"unpause","inputs":[],"outputs":[],"stateMutability":"nonpayable"},{"type":"function","name":"unstake","inputs":[{"name":"validatorAddress","type":"address","internalType":"address"}],"outputs":[],"stateMutability":"nonpayable"},{"type":"function","name":"upgradeStakeVersion","inputs":[{"name":"newConfig","type":"tuple","internalType":"struct IStakeManager.StakeConfig","components":[{"name":"stakeAmount","type":"uint256","internalType":"uint256"},{"name":"minWithdrawAmount","type":"uint256","internalType":"uint256"},{"name":"epochIssuance","type":"uint256","internalType":"uint256"},{"name":"epochDuration","type":"uint32","internalType":"uint32"}]}],"outputs":[{"name":"","type":"uint8","internalType":"uint8"}],"stateMutability":"nonpayable"},{"type":"function","name":"upgradeValidatorStakeVersion","inputs":[{"name":"validatorAddress","type":"address","internalType":"address"},{"name":"targetVersion","type":"uint8","internalType":"uint8"}],"outputs":[],"stateMutability":"payable"},{"type":"function","name":"validators","inputs":[{"name":"","type":"address","internalType":"address"}],"outputs":[{"name":"validatorAddress","type":"address","internalType":"address"},{"name":"activationEpoch","type":"uint32","internalType":"uint32"},{"name":"exitEpoch","type":"uint32","internalType":"uint32"},{"name":"currentStatus","type":"uint8","internalType":"enum IConsensusRegistry.ValidatorStatus"},{"name":"isRetired","type":"bool","internalType":"bool"},{"name":"stakeVersion","type":"uint8","internalType":"uint8"},{"name":"region","type":"uint8","internalType":"uint8"}],"stateMutability":"view"},{"type":"event","name":"Approval","inputs":[{"name":"owner","type":"address","indexed":true,"internalType":"address"},{"name":"approved","type":"address","indexed":true,"internalType":"address"},{"name":"tokenId","type":"uint256","indexed":true,"internalType":"uint256"}],"anonymous":false},{"type":"event","name":"ApprovalForAll","inputs":[{"name":"owner","type":"address","indexed":true,"internalType":"address"},{"name":"operator","type":"address","indexed":true,"internalType":"address"},{"name":"approved","type":"bool","indexed":false,"internalType":"bool"}],"anonymous":false},{"type":"event","name":"NewEpoch","inputs":[{"name":"epoch","type":"tuple","indexed":false,"internalType":"struct IConsensusRegistry.EpochInfo","components":[{"name":"committee","type":"address[]","internalType":"address[]"},{"name":"epochIssuance","type":"uint256","internalType":"uint256"},{"name":"blockHeight","type":"uint64","internalType":"uint64"},{"name":"epochId","type":"uint32","internalType":"uint32"},{"name":"epochDuration","type":"uint32","internalType":"uint32"},{"name":"stakeVersion","type":"uint8","internalType":"uint8"}]}],"anonymous":false},{"type":"event","name":"NextCommitteeSizeUpdated","inputs":[{"name":"oldSize","type":"uint16","indexed":false,"internalType":"uint16"},{"name":"newSize","type":"uint16","indexed":false,"internalType":"uint16"},{"name":"numActiveValidators","type":"uint256","indexed":false,"internalType":"uint256"}],"anonymous":false},{"type":"event","name":"OwnershipTransferred","inputs":[{"name":"previousOwner","type":"address","indexed":true,"internalType":"address"},{"name":"newOwner","type":"address","indexed":true,"internalType":"address"}],"anonymous":false},{"type":"event","name":"Paused","inputs":[{"name":"account","type":"address","indexed":false,"internalType":"address"}],"anonymous":false},{"type":"event","name":"RewardsClaimed","inputs":[{"name":"claimant","type":"address","indexed":true,"internalType":"address"},{"name":"rewards","type":"uint256","indexed":false,"internalType":"uint256"}],"anonymous":false},{"type":"event","name":"Transfer","inputs":[{"name":"from","type":"address","indexed":true,"internalType":"address"},{"name":"to","type":"address","indexed":true,"internalType":"address"},{"name":"tokenId","type":"uint256","indexed":true,"internalType":"uint256"}],"anonymous":false},{"type":"event","name":"Unpaused","inputs":[{"name":"account","type":"address","indexed":false,"internalType":"address"}],"anonymous":false},{"type":"event","name":"ValidatorActivated","inputs":[{"name":"validator","type":"tuple","indexed":false,"internalType":"struct IConsensusRegistry.ValidatorInfo","components":[{"name":"validatorAddress","type":"address","internalType":"address"},{"name":"activationEpoch","type":"uint32","internalType":"uint32"},{"name":"exitEpoch","type":"uint32","internalType":"uint32"},{"name":"currentStatus","type":"uint8","internalType":"enum IConsensusRegistry.ValidatorStatus"},{"name":"isRetired","type":"bool","internalType":"bool"},{"name":"stakeVersion","type":"uint8","internalType":"uint8"},{"name":"region","type":"uint8","internalType":"uint8"}]}],"anonymous":false},{"type":"event","name":"ValidatorExited","inputs":[{"name":"validator","type":"tuple","indexed":false,"internalType":"struct IConsensusRegistry.ValidatorInfo","components":[{"name":"validatorAddress","type":"address","internalType":"address"},{"name":"activationEpoch","type":"uint32","internalType":"uint32"},{"name":"exitEpoch","type":"uint32","internalType":"uint32"},{"name":"currentStatus","type":"uint8","internalType":"enum IConsensusRegistry.ValidatorStatus"},{"name":"isRetired","type":"bool","internalType":"bool"},{"name":"stakeVersion","type":"uint8","internalType":"uint8"},{"name":"region","type":"uint8","internalType":"uint8"}]}],"anonymous":false},{"type":"event","name":"ValidatorPendingActivation","inputs":[{"name":"validator","type":"tuple","indexed":false,"internalType":"struct IConsensusRegistry.ValidatorInfo","components":[{"name":"validatorAddress","type":"address","internalType":"address"},{"name":"activationEpoch","type":"uint32","internalType":"uint32"},{"name":"exitEpoch","type":"uint32","internalType":"uint32"},{"name":"currentStatus","type":"uint8","internalType":"enum IConsensusRegistry.ValidatorStatus"},{"name":"isRetired","type":"bool","internalType":"bool"},{"name":"stakeVersion","type":"uint8","internalType":"uint8"},{"name":"region","type":"uint8","internalType":"uint8"}]}],"anonymous":false},{"type":"event","name":"ValidatorPendingExit","inputs":[{"name":"validator","type":"tuple","indexed":false,"internalType":"struct IConsensusRegistry.ValidatorInfo","components":[{"name":"validatorAddress","type":"address","internalType":"address"},{"name":"activationEpoch","type":"uint32","internalType":"uint32"},{"name":"exitEpoch","type":"uint32","internalType":"uint32"},{"name":"currentStatus","type":"uint8","internalType":"enum IConsensusRegistry.ValidatorStatus"},{"name":"isRetired","type":"bool","internalType":"bool"},{"name":"stakeVersion","type":"uint8","internalType":"uint8"},{"name":"region","type":"uint8","internalType":"uint8"}]}],"anonymous":false},{"type":"event","name":"ValidatorRegionUpdated","inputs":[{"name":"validatorAddress","type":"address","indexed":true,"internalType":"address"},{"name":"region","type":"uint8","indexed":false,"internalType":"uint8"}],"anonymous":false},{"type":"event","name":"ValidatorRetired","inputs":[{"name":"validator","type":"tuple","indexed":false,"internalType":"struct IConsensusRegistry.ValidatorInfo","components":[{"name":"validatorAddress","type":"address","internalType":"address"},{"name":"activationEpoch","type":"uint32","internalType":"uint32"},{"name":"exitEpoch","type":"uint32","internalType":"uint32"},{"name":"currentStatus","type":"uint8","internalType":"enum IConsensusRegistry.ValidatorStatus"},{"name":"isRetired","type":"bool","internalType":"bool"},{"name":"stakeVersion","type":"uint8","internalType":"uint8"},{"name":"region","type":"uint8","internalType":"uint8"}]}],"anonymous":false},{"type":"event","name":"ValidatorSlashed","inputs":[{"name":"slash","type":"tuple","indexed":false,"internalType":"struct Slash","components":[{"name":"validatorAddress","type":"address","internalType":"address"},{"name":"amount","type":"uint256","internalType":"uint256"}]}],"anonymous":false},{"type":"event","name":"ValidatorStakeVersionUpgraded","inputs":[{"name":"validatorAddress","type":"address","indexed":true,"internalType":"address"},{"name":"oldVersion","type":"uint8","indexed":false,"internalType":"uint8"},{"name":"newVersion","type":"uint8","indexed":false,"internalType":"uint8"},{"name":"oldStakeAmount","type":"uint256","indexed":false,"internalType":"uint256"},{"name":"newStakeAmount","type":"uint256","indexed":false,"internalType":"uint256"}],"anonymous":false},{"type":"event","name":"ValidatorStaked","inputs":[{"name":"validator","type":"tuple","indexed":false,"internalType":"struct IConsensusRegistry.ValidatorInfo","components":[{"name":"validatorAddress","type":"address","internalType":"address"},{"name":"activationEpoch","type":"uint32","internalType":"uint32"},{"name":"exitEpoch","type":"uint32","internalType":"uint32"},{"name":"currentStatus","type":"uint8","internalType":"enum IConsensusRegistry.ValidatorStatus"},{"name":"isRetired","type":"bool","internalType":"bool"},{"name":"stakeVersion","type":"uint8","internalType":"uint8"},{"name":"region","type":"uint8","internalType":"uint8"}]}],"anonymous":false},{"type":"error","name":"AlreadyDefined","inputs":[{"name":"validatorAddress","type":"address","internalType":"address"}]},{"type":"error","name":"BLSPubkeyMismatch","inputs":[]},{"type":"error","name":"BlsPubkeyNotFound","inputs":[{"name":"validatorAddress","type":"address","internalType":"address"}]},{"type":"error","name":"CommitteeRequirement","inputs":[{"name":"validatorAddress","type":"address","internalType":"address"}]},{"type":"error","name":"DuplicateBLSPubkey","inputs":[]},{"type":"error","name":"ERC721EnumerableForbiddenBatchMint","inputs":[]},{"type":"error","name":"ERC721IncorrectOwner","inputs":[{"name":"sender","type":"address","internalType":"address"},{"name":"tokenId","type":"uint256","internalType":"uint256"},{"name":"owner","type":"address","internalType":"address"}]},{"type":"error","name":"ERC721InsufficientApproval","inputs":[{"name":"operator","type":"address","internalType":"address"},{"name":"tokenId","type":"uint256","internalType":"uint256"}]},{"type":"error","name":"ERC721InvalidApprover","inputs":[{"name":"approver","type":"address","internalType":"address"}]},{"type":"error","name":"ERC721InvalidOperator","inputs":[{"name":"operator","type":"address","internalType":"address"}]},{"type":"error","name":"ERC721InvalidOwner","inputs":[{"name":"owner","type":"address","internalType":"address"}]},{"type":"error","name":"ERC721InvalidReceiver","inputs":[{"name":"receiver","type":"address","internalType":"address"}]},{"type":"error","name":"ERC721InvalidSender","inputs":[{"name":"sender","type":"address","internalType":"address"}]},{"type":"error","name":"ERC721NonexistentToken","inputs":[{"name":"tokenId","type":"uint256","internalType":"uint256"}]},{"type":"error","name":"ERC721OutOfBoundsIndex","inputs":[{"name":"owner","type":"address","internalType":"address"},{"name":"index","type":"uint256","internalType":"uint256"}]},{"type":"error","name":"EnforcedPause","inputs":[]},{"type":"error","name":"ExpectedPause","inputs":[]},{"type":"error","name":"GenesisArityMismatch","inputs":[]},{"type":"error","name":"IneligibleUnstake","inputs":[{"name":"validator","type":"tuple","internalType":"struct IConsensusRegistry.ValidatorInfo","components":[{"name":"validatorAddress","type":"address","internalType":"address"},{"name":"activationEpoch","type":"uint32","internalType":"uint32"},{"name":"exitEpoch","type":"uint32","internalType":"uint32"},{"name":"currentStatus","type":"uint8","internalType":"enum IConsensusRegistry.ValidatorStatus"},{"name":"isRetired","type":"bool","internalType":"bool"},{"name":"stakeVersion","type":"uint8","internalType":"uint8"},{"name":"region","type":"uint8","internalType":"uint8"}]}]},{"type":"error","name":"InsufficientRewards","inputs":[{"name":"withdrawAmount","type":"uint256","internalType":"uint256"}]},{"type":"error","name":"InvalidBLSPubkey","inputs":[]},{"type":"error","name":"InvalidCommitteeSize","inputs":[{"name":"minCommitteeSize","type":"uint256","internalType":"uint256"},{"name":"providedCommitteeSize","type":"uint256","internalType":"uint256"}]},{"type":"error","name":"InvalidDuration","inputs":[{"name":"duration","type":"uint32","internalType":"uint32"}]},{"type":"error","name":"InvalidEpoch","inputs":[{"name":"epoch","type":"uint32","internalType":"uint32"}]},{"type":"error","name":"InvalidProofOfPossession","inputs":[{"name":"proof","type":"tuple","internalType":"struct BlsG1.ProofOfPossession","components":[{"name":"signature","type":"bytes","internalType":"bytes"}]}]},{"type":"error","name":"InvalidStakeAmount","inputs":[{"name":"stakeAmount","type":"uint256","internalType":"uint256"}]},{"type":"error","name":"InvalidStakeVersion","inputs":[{"name":"currentVersion","type":"uint8","internalType":"uint8"},{"name":"targetVersion","type":"uint8","internalType":"uint8"}]},{"type":"error","name":"InvalidStatus","inputs":[{"name":"status","type":"uint8","internalType":"enum IConsensusRegistry.ValidatorStatus"}]},{"type":"error","name":"InvalidSupply","inputs":[]},{"type":"error","name":"InvalidTokenId","inputs":[{"name":"tokenId","type":"uint256","internalType":"uint256"}]},{"type":"error","name":"InvalidValidatorAddress","inputs":[]},{"type":"error","name":"IssuanceTransferFailed","inputs":[]},{"type":"error","name":"NotRecipient","inputs":[{"name":"recipient","type":"address","internalType":"address"}]},{"type":"error","name":"NotTransferable","inputs":[]},{"type":"error","name":"NotValidator","inputs":[{"name":"validatorAddress","type":"address","internalType":"address"}]},{"type":"error","name":"OnlySystemCall","inputs":[{"name":"invalidCaller","type":"address","internalType":"address"}]},{"type":"error","name":"OwnableInvalidOwner","inputs":[{"name":"owner","type":"address","internalType":"address"}]},{"type":"error","name":"OwnableUnauthorizedAccount","inputs":[{"name":"account","type":"address","internalType":"address"}]},{"type":"error","name":"Reentrancy","inputs":[]},{"type":"error","name":"RequiresConsensusNFT","inputs":[]},{"type":"error","name":"StringsInsufficientHexLength","inputs":[{"name":"value","type":"uint256","internalType":"uint256"},{"name":"length","type":"uint256","internalType":"uint256"}]}],"bytecode":{"object":"0x610120604052348015610010575f5ffd5b5060405161869238038061869283398101604081905261002f91611479565b806040518060400160405280600c81526020016b10dbdb9cd95b9cdd5cd3919560a21b8152506040518060400160405280600481526020016310d3919560e21b8152508181815f908161008291906115f0565b50600161008f82826115f0565b505030608052504660a0526060806100ef604080518082018252601481527f54656c636f696e205374616b654d616e61676572000000000000000000000000602080830191909152825180840190935260018352603160f81b9083015291565b815160209283012081519183019190912060c082905260e0819052604080517f8b73c3c69bb8fe3d512ecc4cf759cc79239f7b179b0ffacaa9a75d522b39400f8152938401929092529082015246606082015230608082015260a09020610100525050600d805461ff001916905550506001600160a01b03811661018d57604051631e4fbdf760e01b81525f60048201526024015b60405180910390fd5b61019681610837565b50835115806101a757508251845114155b806101b457508151845114155b156101d257604051633aa3e03360e01b815260040160405180910390fd5b5f808052600a602090815286517f13da86008ba1c6922daee3e07db95305ef49ebced9f5467a0b8613fcc6b343e3558601517f13da86008ba1c6922daee3e07db95305ef49ebced9f5467a0b8613fcc6b343e45560408601517f13da86008ba1c6922daee3e07db95305ef49ebced9f5467a0b8613fcc6b343e55560608601517f13da86008ba1c6922daee3e07db95305ef49ebced9f5467a0b8613fcc6b343e6805463ffffffff191663ffffffff9092169190911790558451600d805461ffff60d81b1916600160d81b61ffff909316929092029190911790555b600281116103b8575f601182600481106102ca576102ca6116ae565b6003020160028101805460608a0151600160401b600160801b03199091166801000000000000000063ffffffff8781169190910263ffffffff60601b1916919091176c0100000000000000000000000091909216021790556040880151600182015590505f601d8360048110610342576103426116ae565b6003020160028101805460608b0151600160401b600160801b03199091166801000000000000000063ffffffff8881169190910263ffffffff60601b1916919091176c0100000000000000000000000091909216021790556040890151600190910155506103b19050816116d6565b90506102ae565b505f5b8451811015610827575f8582815181106103d7576103d76116ae565b602002602001015190505f6104288584815181106103f7576103f76116ae565b6020026020010151835f0151888681518110610415576104156116ae565b602002602001015161089260201b60201c565b82519091506001600160a01b03166104535760405163713ce51160e01b815260040160405180910390fd5b602082015163ffffffff161561048a576020820151604051634fadd4d360e11b815263ffffffff9091166004820152602401610184565b604082015163ffffffff16156104c1576040808301519051634fadd4d360e11b815263ffffffff9091166004820152602401610184565b6003826060015160068111156104d9576104d96116ee565b146104fd578160600151604051633ba7bf8960e11b81526004016101849190611722565b608082015115610523576005604051633ba7bf8960e11b81526004016101849190611722565b60a082015160ff16156105545760a082015160405163222d164360e21b815260ff9091166004820152602401610184565b5f5b6002811161060a5760118160048110610571576105716116ae565b84516003919091029190910180546001810182555f91825260209091200180546001600160a01b0319166001600160a01b03909216919091179055601d81600481106105bf576105bf6116ae565b84516003919091029190910180546001810182555f91825260209091200180546001600160a01b0319166001600160a01b03909216919091179055610603816116d6565b9050610556565b5085838151811061061d5761061d6116ae565b60209081029190910181015183516001600160a01b03165f908152602990925260409091209061064d90826115f0565b5081516001600160a01b039081165f908152600f602090815260409182902085518154928701519387015163ffffffff908116600160c01b0263ffffffff60c01b1991909516600160a01b026001600160c01b0319909416919095161791909117928316821781556060850151859391929091839160ff60e01b191664ffffffffff60c01b1990911617600160e01b8360068111156106ee576106ee6116ee565b02179055506080820151815460a084015160c09094015160ff908116600160f81b026001600160f81b0391909516600160f01b0260ff60f01b19931515600160e81b029390931661ffff60e81b19909216919091179190911716919091179055815160035f52602a602052610784907f4adfa5efd78af8432c8ff812ed4c3d89e016f048361846e090e1a7c770f31576906109af565b50875182516001600160a01b039081165f908152600b60209081526040808320949094558551858352601090915292902080546001600160a01b0319169290911691909117905581516107e6906107e1816001600160a01b031690565b6109cc565b7fabab4191fe954f07230f7e34fd48dc0fdcbed492526cd060001cccceab22851b826040516108159190611730565b60405180910390a150506001016103bb565b50509151602b555061186f915050565b600d80546001600160a01b038381166201000081810262010000600160b01b031985161790945560405193909204169182907f8be0079c531659141344cd1fd0a4f28419497f9722a3daafe3b4186f6b6457e0905f90a35050565b5f81516060146108b5576040516333a234f960e11b815260040160405180910390fd5b5f825f815181106108c8576108c86116ae565b016020015160f81c90506080811615806108e457506040811615155b15610902576040516333a234f960e11b815260040160405180910390fd5b845160405163071917cf60e01b815273__$2ef4e8110a3eaa1255da7f08f8eebcbf5a$__9163071917cf9161093e9190879089906004016117d8565b602060405180830381865af4158015610959573d5f5f3e3d5ffd5b505050506040513d601f19601f8201168201806040525081019061097d9190611815565b61099c578460405163a865bb3560e01b8152600401610184919061182e565b6109a68385610a32565b95945050505050565b5f6109c3836001600160a01b038416610abe565b90505b92915050565b6001600160a01b0382166109f557604051633250574960e11b81525f6004820152602401610184565b5f610a01838383610b0a565b90506001600160a01b03811615610a2d576040516339e3563760e11b81525f6004820152602401610184565b505050565b604080516020848101516001600160fd1b031682528483015181830152606080860151838501529091205f8181526010909252919020546001600160a01b031615610a9057604051638d12779f60e01b815260040160405180910390fd5b5f81815260106020526040902080546001600160a01b0384166001600160a01b031990911617905592915050565b5f818152600183016020526040812054610b0357508154600181810184555f8481526020808220909301849055845484825282860190935260409020919091556109c6565b505f6109c6565b5f80610b17858585610bdd565b90506001600160a01b038116610b7357610b6e84600880545f838152600960205260408120829055600182018355919091527ff3f7a9fe364faab93b216da50a3214154f22a0a2b415b23a84c8169e8b636ee30155565b610b96565b846001600160a01b0316816001600160a01b031614610b9657610b968185610ccf565b6001600160a01b038516610bb257610bad84610d4c565b610bd5565b846001600160a01b0316816001600160a01b031614610bd557610bd58585610df3565b949350505050565b5f828152600260205260408120546001600160a01b0390811690831615610c0957610c09818486610e41565b6001600160a01b03811615610c4357610c245f858180610ea5565b6001600160a01b0381165f90815260036020526040902080545f190190555b6001600160a01b03851615610c71576001600160a01b0385165f908152600360205260409020805460010190555b5f8481526002602052604080822080546001600160a01b0319166001600160a01b0389811691821790925591518793918516917fddf252ad1be2c89b69c2b068fc378daa952ba7f163c4a11628f55a4df523b3ef91a4949350505050565b5f610cd983610fc7565b5f838152600760209081526040808320546001600160a01b0388168452600690925290912091925090818314610d2e575f83815260208281526040808320548584528184208190558352600790915290208290555b5f938452600760209081526040808620869055938552525081205550565b6008545f90610d5d90600190611848565b5f8381526009602052604081205460088054939450909284908110610d8457610d846116ae565b905f5260205f20015490508060088381548110610da357610da36116ae565b5f918252602080832090910192909255828152600990915260408082208490558582528120556008805480610dda57610dda61185b565b600190038181905f5260205f20015f9055905550505050565b5f6001610dff84610fc7565b610e099190611848565b6001600160a01b039093165f908152600660209081526040808320868452825280832085905593825260079052919091209190915550565b610e4c83838361100c565b610a2d576001600160a01b038316610e7a57604051637e27328960e01b815260048101829052602401610184565b60405163177e802f60e01b81526001600160a01b038316600482015260248101829052604401610184565b8080610eb957506001600160a01b03821615155b15610f98575f610ec88461108c565b90506001600160a01b03831615801590610ef45750826001600160a01b0316816001600160a01b031614155b8015610f2557506001600160a01b038082165f9081526005602090815260408083209387168352929052205460ff16155b15610f4e5760405163a9fbf51f60e01b81526001600160a01b0384166004820152602401610184565b8115610f965783856001600160a01b0316826001600160a01b03167f8c5be1e5ebec7d5bd14f71427d1e84f3dd0314c0f7b2291e5b200ac8c7c3b92560405160405180910390a45b505b50505f90815260046020526040902080546001600160a01b0319166001600160a01b0392909216919091179055565b5f6001600160a01b038216610ff1576040516322718ad960e21b81525f6004820152602401610184565b506001600160a01b03165f9081526003602052604090205490565b5f6001600160a01b03831615801590610bd55750826001600160a01b0316846001600160a01b0316148061106457506001600160a01b038085165f9081526005602090815260408083209387168352929052205460ff165b80610bd55750505f908152600460205260409020546001600160a01b03908116911614919050565b5f818152600260205260408120546001600160a01b0316806109c657604051637e27328960e01b815260048101849052602401610184565b634e487b7160e01b5f52604160045260245ffd5b60405160e081016001600160401b03811182821017156110fa576110fa6110c4565b60405290565b604051602081016001600160401b03811182821017156110fa576110fa6110c4565b604051608081016001600160401b03811182821017156110fa576110fa6110c4565b604051601f8201601f191681016001600160401b038111828210171561116c5761116c6110c4565b604052919050565b805163ffffffff81168114611187575f5ffd5b919050565b5f6001600160401b038211156111a4576111a46110c4565b5060051b60200190565b80516001600160a01b0381168114611187575f5ffd5b80518015158114611187575f5ffd5b805160ff81168114611187575f5ffd5b5f82601f8301126111f2575f5ffd5b81516112056112008261118c565b611144565b80828252602082019150602060e08402860101925085831115611226575f5ffd5b602085015b838110156112d05760e08188031215611242575f5ffd5b61124a6110d8565b611253826111ae565b815261126160208301611174565b602082015261127260408301611174565b6040820152606082015160078110611288575f5ffd5b6060820152611299608083016111c4565b60808201526112aa60a083016111d3565b60a08201526112bb60c083016111d3565b60c0820152835260209092019160e00161122b565b5095945050505050565b5f82601f8301126112e9575f5ffd5b81516001600160401b03811115611302576113026110c4565b611315601f8201601f1916602001611144565b818152846020838601011115611329575f5ffd5b8160208501602083015e5f918101602001919091529392505050565b5f82601f830112611354575f5ffd5b81516113626112008261118c565b8082825260208201915060208360051b860101925085831115611383575f5ffd5b602085015b838110156112d05780516001600160401b038111156113a5575f5ffd5b6113b4886020838a01016112da565b84525060209283019201611388565b5f82601f8301126113d2575f5ffd5b81516113e06112008261118c565b8082825260208201915060208360051b860101925085831115611401575f5ffd5b602085015b838110156112d05780516001600160401b03811115611423575f5ffd5b86016020818903601f19011215611438575f5ffd5b611440611100565b60208201516001600160401b03811115611458575f5ffd5b6114678a6020838601016112da565b82525084525060209283019201611406565b5f5f5f5f5f85870361010081121561148f575f5ffd5b608081121561149c575f5ffd5b506114a5611122565b8651815260208088015190820152604080880151908201526114c960608801611174565b606082015260808701519095506001600160401b038111156114e9575f5ffd5b6114f5888289016111e3565b60a088015190955090506001600160401b03811115611512575f5ffd5b61151e88828901611345565b60c088015190945090506001600160401b0381111561153b575f5ffd5b611547888289016113c3565b92505061155660e087016111ae565b90509295509295909350565b600181811c9082168061157657607f821691505b60208210810361159457634e487b7160e01b5f52602260045260245ffd5b50919050565b601f821115610a2d5782821115610a2d57805f5260205f20601f840160051c60208510156115c557505f5b90810190601f840160051c035f5b818110156115e8575f838201556001016115d3565b505050505050565b81516001600160401b03811115611609576116096110c4565b61161d816116178454611562565b8461159a565b6020601f82116001811461164f575f83156116385750848201515b5f19600385901b1c1916600184901b1784556116a7565b5f84815260208120601f198516915b8281101561167e578785015182556020948501946001909201910161165e565b508482101561169b57868401515f19600387901b60f8161c191681555b505060018360011b0184555b5050505050565b634e487b7160e01b5f52603260045260245ffd5b634e487b7160e01b5f52601160045260245ffd5b5f600182016116e7576116e76116c2565b5060010190565b634e487b7160e01b5f52602160045260245ffd5b6007811061171e57634e487b7160e01b5f52602160045260245ffd5b9052565b602081016109c68284611702565b5f60e08201905060018060a01b03835116825263ffffffff602084015116602083015263ffffffff604084015116604083015260608301516117756060840182611702565b5060808301511515608083015260ff60a08401511660a083015260c08301516117a360c084018260ff169052565b5092915050565b5f81518084528060208401602086015e5f602082860101526020601f19601f83011685010191505092915050565b606081525f6117ea60608301866117aa565b82810360208401526117fc81866117aa565b91505060018060a01b0383166040830152949350505050565b5f60208284031215611825575f5ffd5b6109c3826111c4565b602081525f8251602080840152610bd560408401826117aa565b818103818111156109c6576109c66116c2565b634e487b7160e01b5f52603160045260245ffd5b60805160a05160c05160e05161010051616de66118ac5f395f6143e801525f6144a201525f61447c01525f61442c01525f6144090152616de65ff3fe6080604052600436106103bd575f3560e01c806367398331116101f457806395d89b4111610113578063c87b56dd116100a8578063eb8535c211610078578063eb8535c214610b7d578063f062476814610baa578063f2888dbb14610bc9578063f2fde38b14610be8578063fa52c7d814610c07575f5ffd5b8063c87b56dd14610b0d578063e3716d0414610b2c578063e80cb65f14610b4b578063e985e9c514610b5e575f5ffd5b8063b88d4fde116100e3578063b88d4fde14610a8a578063b97dd9e214610aa9578063babc394f14610ada578063c05df7ac14610aee575f5ffd5b806395d89b4114610a1e578063a0201be514610a32578063a22cb46514610a51578063a71954ec14610a6b575f5ffd5b80637b55a30011610189578063863623bb11610159578063863623bb1461098957806389afcb44146109b05780638cc05eda146109cf5780638da5cb5b146109fb575f5ffd5b80637b55a300146108e25780637d06fdf8146109015780638456cb591461094e57806384b0196e14610962575f5ffd5b80636d3c6275116101c45780636d3c62751461087157806370a0823114610890578063715018a6146108af57806379ee54f7146108c3575f5ffd5b806367398331146107e15780636a627842146108075780636a926591146108265780636ae9942c14610845575f5ffd5b80632b9f4985116102e05780633f4ba83a116102755780635a41fb1f116102455780635a41fb1f146107745780635c975abb1461078757806362fcde4b146107a35780636352211e146107c2575f5ffd5b80633f4ba83a1461070357806342842e0e146107175780634f6ccce71461073657806359ca93b614610755575f5ffd5b8063355811a7116102b0578063355811a714610655578063374ed18c1461065d5780633894228e146106895780633e28391d146106e4575f5ffd5b80632b9f4985146105ea5780632f745c59146106095780632fb0d025146106285780633434735f1461063b575f5ffd5b80630f15f4c0116103565780632228dfa0116103265780632228dfa01461057c57806323a404301461059057806323b872dd146105a45780632870259d146105be575f5ffd5b80630f15f4c0146104ee57806315b5709a1461050257806318160ddd1461053c5780631904bb2e14610550575f5ffd5b806306fdde031161039157806306fdde0314610465578063081812fc14610479578063095ea7b3146104b05780630a36cdef146104cf575f5ffd5b80628d6acd146103c157806301ffc9a7146103e957806302ae337b14610418578063059b916c14610439575b5f5ffd5b3480156103cc575f5ffd5b506103d6600e5481565b6040519081526020015b60405180910390f35b3480156103f4575f5ffd5b5061040861040336600461585b565b610c92565b60405190151581526020016103e0565b348015610423575f5ffd5b506104376104323660046158bd565b610cbc565b005b348015610444575f5ffd5b50610458610453366004615911565b610e12565b6040516103e09190615958565b348015610470575f5ffd5b50610458610ee3565b348015610484575f5ffd5b5061049861049336600461596a565b610f72565b6040516001600160a01b0390911681526020016103e0565b3480156104bb575f5ffd5b506104376104ca366004615981565b610f99565b3480156104da575f5ffd5b506104376104e93660046158bd565b610fb2565b3480156104f9575f5ffd5b50610437611201565b34801561050d575f5ffd5b5061052161051c366004615911565b61124a565b604080519384526020840192909252908201526060016103e0565b348015610547575f5ffd5b506008546103d6565b34801561055b575f5ffd5b5061056f61056a366004615911565b6112b0565b6040516103e09190615a49565b348015610587575f5ffd5b50610437611393565b34801561059b575f5ffd5b506103d6611453565b3480156105af575f5ffd5b506104376104ca366004615a57565b3480156105c9575f5ffd5b506105dd6105d8366004615a91565b611462565b6040516103e09190615aaf565b3480156105f5575f5ffd5b50610437610604366004615911565b6115e0565b348015610614575f5ffd5b506103d6610623366004615981565b6116a5565b610437610636366004615c39565b611708565b348015610646575f5ffd5b506104986002600160a01b0381565b610437611795565b348015610668575f5ffd5b5061067c610677366004615cb1565b611817565b6040516103e09190615d0f565b348015610694575f5ffd5b506106a86106a336600461596a565b6119b6565b604080519586526001600160401b03909416602086015263ffffffff9283169385019390935216606083015260ff16608082015260a0016103e0565b3480156106ef575f5ffd5b506104086106fe366004615911565b611a0a565b34801561070e575f5ffd5b50610437611a30565b348015610722575f5ffd5b50610437610731366004615a57565b611a42565b348015610741575f5ffd5b506103d661075036600461596a565b611a5c565b348015610760575f5ffd5b506106a861076f36600461596a565b611ab1565b610437610782366004615d90565b611ac0565b348015610792575f5ffd5b50600d54610100900460ff16610408565b3480156107ae575f5ffd5b506104376107bd366004615dc1565b611f12565b3480156107cd575f5ffd5b506104986107dc36600461596a565b612019565b3480156107ec575f5ffd5b506107f5612023565b60405160ff90911681526020016103e0565b348015610812575f5ffd5b50610437610821366004615911565b612035565b348015610831575f5ffd5b50610408610840366004615de2565b612093565b348015610850575f5ffd5b5061086461085f366004615cb1565b61212e565b6040516103e09190615e14565b34801561087c575f5ffd5b5061040861088b366004615911565b612282565b34801561089b575f5ffd5b506103d66108aa366004615911565b612306565b3480156108ba575f5ffd5b5061043761234b565b3480156108ce575f5ffd5b506103d66108dd366004615911565b61235c565b3480156108ed575f5ffd5b506104376108fc366004615e77565b61239e565b34801561090c575f5ffd5b5061091561250b565b6040516103e0919081518152602080830151908201526040808301519082015260609182015163ffffffff169181019190915260800190565b348015610959575f5ffd5b50610437612588565b34801561096d575f5ffd5b50610976612598565b6040516103e09796959493929190615ee6565b348015610994575f5ffd5b506104987307a07a07a07a07a07a07a07a07a07a07a07a07a081565b3480156109bb575f5ffd5b506104376109ca366004615911565b6125ff565b3480156109da575f5ffd5b506109ee6109e9366004615a91565b6126af565b6040516103e09190615f7c565b348015610a06575f5ffd5b50600d546201000090046001600160a01b0316610498565b348015610a29575f5ffd5b506104586126c3565b348015610a3d575f5ffd5b506105dd610a4c366004615cb1565b6126d2565b348015610a5c575f5ffd5b506104376104ca366004615f9b565b348015610a76575f5ffd5b50610915610a85366004615fd0565b61278b565b348015610a95575f5ffd5b50610437610aa4366004615fe9565b612805565b348015610ab4575f5ffd5b50600d54600160b01b900463ffffffff1660405163ffffffff90911681526020016103e0565b348015610ae5575f5ffd5b5061067c61281d565b348015610af9575f5ffd5b506107f5610b0836600461604c565b61292a565b348015610b18575f5ffd5b50610458610b2736600461596a565b6129e0565b348015610b37575f5ffd5b506103d6610b46366004616065565b612a50565b610437610b593660046160be565b612b30565b348015610b69575f5ffd5b50610408610b78366004616165565b612da2565b348015610b88575f5ffd5b50600d54600160d81b900461ffff1660405161ffff90911681526020016103e0565b348015610bb5575f5ffd5b50610437610bc4366004615d90565b612dcf565b348015610bd4575f5ffd5b50610437610be3366004615911565b612e4e565b348015610bf3575f5ffd5b50610437610c02366004615911565b612ee0565b348015610c12575f5ffd5b50610c7f610c21366004615911565b600f6020525f90815260409020546001600160a01b0381169063ffffffff600160a01b8204811691600160c01b81049091169060ff600160e01b8204811691600160e81b8104821691600160f01b8204811691600160f81b90041687565b6040516103e0979695949392919061618d565b5f6001600160e01b0319821663780e9d6360e01b1480610cb65750610cb682612f1a565b92915050565b336002600160a01b0314610cea57604051637eb3357160e01b81523360048201526024015b60405180910390fd5b5f5b81811015610e0d5736838383818110610d0757610d076161e0565b604002919091019150610d22905061088b6020830183615911565b15610d2d5750610e05565b60208101803590600b905f90610d439085615911565b6001600160a01b03166001600160a01b031681526020019081526020015f20541115610db75760208101803590600b905f90610d7f9085615911565b6001600160a01b03166001600160a01b031681526020019081526020015f205f828254610dac9190616208565b90915550610dcc9050565b610dcc610dc76020830183615911565b612f69565b7f11a09f9b32440d896abff7453bf53f8b26ffcb18dae4dca227f7a76e2acc3a6481604051610dfb919061621b565b60405180910390a1505b600101610cec565b505050565b6001600160a01b0381165f90815260296020526040812080546060929190610e3990616244565b80601f0160208091040260200160405190810160405280929190818152602001828054610e6590616244565b8015610eb05780601f10610e8757610100808354040283529160200191610eb0565b820191905f5260205f20905b815481529060010190602001808311610e9357829003601f168201915b5050505050905080515f03610cb657604051635f7ba20d60e11b81526001600160a01b0384166004820152602401610ce1565b60605f8054610ef190616244565b80601f0160208091040260200160405190810160405280929190818152602001828054610f1d90616244565b8015610f685780601f10610f3f57610100808354040283529160200191610f68565b820191905f5260205f20905b815481529060010190602001808311610f4b57829003601f168201915b5050505050905090565b5f610f7c826130a8565b505f828152600460205260409020546001600160a01b0316610cb6565b60405163dc8d8db760e01b815260040160405180910390fd5b336002600160a01b0314610fdb57604051637eb3357160e01b8152336004820152602401610ce1565b5f80826001600160401b03811115610ff557610ff5615b39565b60405190808252806020026020018201604052801561101e578160200160208202803683370190505b5090505f5b83811015611102573685858381811061103e5761103e6161e0565b905060400201905080602001355f0361105757506110fa565b61106761088b6020830183615911565b1561107257506110fa565b5f600f816110836020850185615911565b6001600160a01b0316815260208082019290925260409081015f90812054600160f01b900460ff16808252600a84529181205491935090916110c8908501358361627c565b90506110d48188616293565b9650808686815181106110e9576110e96161e0565b602002602001018181525050505050505b600101611023565b50815f036111105750505050565b5f61111961281d565b6020015190505f600e548261112e9190616293565b90505f5f5b868110156111e9575f8686838151811061114f5761114f6161e0565b602002602001015185611162919061627c565b61116c91906162ba565b905080156111e05780600b5f8b8b8681811061118a5761118a6161e0565b6111a09260206040909202019081019150615911565b6001600160a01b03166001600160a01b031681526020019081526020015f205f8282546111cd9190616293565b909155506111dd90508184616293565b92505b50600101611133565b506111f48183616208565b600e5550505050505b5050565b6112096130e0565b61121233613109565b5061121e336001613177565b335f908152600f60205260409020600d54611247908290600160b01b900463ffffffff166131dd565b50565b6001600160a01b0381165f908152600f6020908152604080832054600160f01b900460ff16808452600a9092528220548291829182611289878361324e565b6001600160a01b03979097165f908152600b60205260409020549791969550909350505050565b6112b861580b565b6001600160a01b0382165f908152600f602052604090208054600160e81b900460ff166112ea576112e883613109565b505b6040805160e08101825282546001600160a01b038116825263ffffffff600160a01b820481166020840152600160c01b82041692820192909252908290606083019060ff600160e01b909104166006811115611348576113486159a9565b6006811115611359576113596159a9565b8152905460ff600160e81b8204811615156020840152600160f01b820481166040840152600160f81b909104166060909101529392505050565b61139b6130e0565b6113a433613109565b505f6113af602b5490565b600d549091505f90601190600160d01b900460ff16600481106113d4576113d46161e0565b600302015490506113e58282613287565b6113f0336003613177565b335f908152600f60205260409020600d54815463ffffffff600160b01b909204821691600160a01b9091041681101561144457604051634fadd4d360e11b815263ffffffff82166004820152602401610ce1565b61144d826132c4565b50505050565b5f61145d602b5490565b905090565b606061146d82613321565b5f61147783613371565b90505f81516001600160401b0381111561149357611493615b39565b6040519080825280602002602001820160405280156114cc57816020015b6114b961580b565b8152602001906001900390816114b15790505b5090505f5b82518110156115d857600f5f8483815181106114ef576114ef6161e0565b6020908102919091018101516001600160a01b0390811683528282019390935260409182015f20825160e0810184528154948516815263ffffffff600160a01b8604811693820193909352600160c01b85049092169282019290925291606083019060ff600160e01b90910416600681111561156d5761156d6159a9565b600681111561157e5761157e6159a9565b8152905460ff600160e81b8204811615156020840152600160f01b820481166040840152600160f81b9091041660609091015282518390839081106115c5576115c56161e0565b60209081029190910101526001016114d1565b509392505050565b6115e86130e0565b3068929eee149b4bd2126854036116065763ab143c065f526004601cfd5b3068929eee149b4bd21268555f61161c826133a3565b6001600160a01b0383165f908152600f6020526040812054919250600160f01b90910460ff169061164e848484613404565b9050826001600160a01b03167ffc30cddea38e2bf4d6ea7d3f9ed3b6ad7f176419f4963bd81318067a4aee73fe8260405161168b91815260200190565b60405180910390a25050503868929eee149b4bd212685550565b5f6116af83612306565b82106116e05760405163295f44f760e21b81526001600160a01b038416600482015260248101839052604401610ce1565b506001600160a01b03919091165f908152600660209081526040808320938352929052205490565b6117106130e0565b611750813385858080601f0160208091040260200160405190810160405280939291908181526020018383808284375f920191909152506134b992505050565b505f61175a61281d565b60a0015190505f61176b34836135cd565b905061177633613109565b50611781335f613177565b61178e8585338585613608565b5050505050565b61179d6137c2565b6040515f907307a07a07a07a07a07a07a07a07a07a07a07a07a09034908381818185875af1925050503d805f81146117f0576040519150601f19603f3d011682016040523d82523d5f602084013e6117f5565b606091505b505090508061124757604051630b567ce360e31b815260040160405180910390fd5b6040805160c08101825260608082525f6020830181905292820183905281018290526080810182905260a0810191909152600d54600160b01b900463ffffffff166118638160026162cd565b63ffffffff168363ffffffff1611806118a3575060038163ffffffff16101580156118a357506118946003826162e9565b63ffffffff168363ffffffff16105b156118c957604051634fadd4d360e11b815263ffffffff84166004820152602401610ce1565b600d54600160d01b900460ff1663ffffffff82811690851611156119ab576118f28483836137f6565b60408051825460e0602082028301810190935260c08201818152919392849291849184018282801561194b57602002820191905f5260205f20905b81546001600160a01b0316815260019091019060200180831161192d575b5050509183525050600182015460208201526002909101546001600160401b038116604083015263ffffffff600160401b820481166060840152600160601b820416608083015260ff600160801b9091041660a090910152949350505050565b6118f2848383613880565b601181600481106119c5575f80fd5b6003020160018101546002909101549091506001600160401b03811690600160401b810463ffffffff90811691600160601b810490911690600160801b900460ff1685565b6001600160a01b038082165f908152600c60205260408120600201549091161515610cb6565b611a386137c2565b611a40613921565b565b610e0d83838360405180602001604052805f815250612805565b5f611a6660085490565b8210611a8e5760405163295f44f760e21b81525f600482015260248101839052604401610ce1565b60088281548110611aa157611aa16161e0565b905f5260205f2001549050919050565b601d81600481106119c5575f80fd5b611ac86130e0565b3068929eee149b4bd212685403611ae65763ab143c065f526004601cfd5b3068929eee149b4bd21268555f611afc836133a3565b6001600160a01b0384165f908152600f60205260409020805491925090600160e01b900460ff166001816006811115611b3757611b376159a9565b14158015611b5757506002816006811115611b5457611b546159a9565b14155b8015611b7557506003816006811115611b7257611b726159a9565b14155b15611b955780604051633ba7bf8960e11b8152600401610ce19190616305565b815460ff600160f01b909104811690851681101580611bbc5750600d5460ff908116908616115b15611be757604051633abb443b60e21b815260ff808316600483015286166024820152604401610ce1565b60ff8082165f908152600a602052604080822054928816825290205481811115611c6d575f611c168383616208565b9050803414611c3a5760405163222d164360e21b8152346004820152602401610ce1565b6001600160a01b0389165f908152600b602052604081208054839290611c61908490616293565b90915550611e3c915050565b81811015611e1b573415611c965760405163222d164360e21b8152346004820152602401610ce1565b5f611ca18284616208565b6001600160a01b038a165f908152600b6020526040812054919250848210611cca575081611cdf565b83821115611cdf57611cdc8483616208565b90505b8015611d83576001600160a01b038b165f908152600b602052604081208054839290611d0c908490616208565b9091555050604051634875485760e11b81526001600160a01b038a1660048201525f60248201527307a07a07a07a07a07a07a07a07a07a07a07a07a0906390ea90ae9083906044015f604051808303818588803b158015611d6b575f5ffd5b505af1158015611d7d573d5f5f3e3d5ffd5b50505050505b5f611d8e8285616208565b90508015611e12576040515f907307a07a07a07a07a07a07a07a07a07a07a07a07a09083908381818185875af1925050503d805f8114611de9576040519150601f19603f3d011682016040523d82523d5f602084013e611dee565b606091505b5050905080611e1057604051630b567ce360e31b815260040160405180910390fd5b505b50505050611e3c565b3415611e3c5760405163222d164360e21b8152346004820152602401610ce1565b845460ff60f01b1916600160f01b60ff8916021785556001600160a01b038089165f908152600c60205260409020600201541615611ea5576001600160a01b0388165f908152600c60205260409020600201805460ff60a01b1916600160a01b60ff8a16021790555b6040805160ff808616825289166020820152908101839052606081018290526001600160a01b038916907f27f993440568bc502fe7db72fe27118488431975dc3239b379513a4cdb08e2c99060800160405180910390a25050505050503868929eee149b4bd21268555050565b611f1a6137c2565b8061ffff165f03611f6d57600d54601190600160d01b900460ff1660048110611f4557611f456161e0565b6003020154604051635700689f60e11b815260048101919091525f6024820152604401610ce1565b5f611f77602b5490565b9050808261ffff161115611fab57604051635700689f60e11b81526004810182905261ffff83166024820152604401610ce1565b600d805461ffff848116600160d81b81810261ffff60d81b1985161790945560408051949093049091168084526020840191909152908201839052907f74cf7ca84b30b723e8b6e3cc569ec2db21f4ba2fcc09d651e5ce6770b91552f99060600160405180910390a1505050565b5f610cb6826130a8565b5f61202c61281d565b60a00151905090565b61203d6137c2565b61204681612306565b151580612057575061205781612282565b1561208057604051639fb0877960e01b81526001600160a01b0382166004820152602401610ce1565b611247816001600160a01b038116613974565b5f606082146120a357505f610cb6565b5f6120e284848080601f0160208091040260200160405190810160405280939291908181526020018383808284375f920191909152506139d592505050565b5f818152601060205260409020549091506001600160a01b03168061210b575f92505050610cb6565b61211481612282565b15612123575f92505050610cb6565b506001949350505050565b60605f61213a83611817565b5f015190505f81516001600160401b0381111561215957612159615b39565b60405190808252806020026020018201604052801561218c57816020015b60608152602001906001900390816121775790505b5090505f5b81518110156115d85760295f8483815181106121af576121af6161e0565b60200260200101516001600160a01b03166001600160a01b031681526020019081526020015f2080546121e190616244565b80601f016020809104026020016040519081016040528092919081815260200182805461220d90616244565b80156122585780601f1061222f57610100808354040283529160200191612258565b820191905f5260205f20905b81548152906001019060200180831161223b57829003601f168201915b505050505082828151811061226f5761226f6161e0565b6020908102919091010152600101612191565b5f6122956001600160a01b038316613a03565b156122a157505f919050565b5f6001600160a01b0383165f908152600f6020526040902054600160e01b900460ff1660068111156122d5576122d56159a9565b036122e157505f919050565b506001600160a01b03165f908152600f6020526040902054600160e81b900460ff1690565b5f6001600160a01b038216612330576040516322718ad960e21b81525f6004820152602401610ce1565b506001600160a01b03165f9081526003602052604090205490565b6123536137c2565b611a405f613a56565b6001600160a01b0381165f908152600f6020908152604080832054600160f01b900460ff16808452600a909252822054612396848261324e565b949350505050565b336002600160a01b03146123c757604051637eb3357160e01b8152336004820152602401610ce1565b6123d18282613ab1565b600d54600160d81b900461ffff16811461241557600d54604051635700689f60e11b8152600160d81b90910461ffff16600482015260248101829052604401610ce1565b5f5f5f5f6124548686808060200260200160405190810160405280939291908181526020018383602002808284375f92019190915250613b8992505050565b9350935093509350612467868686613e9d565b612479612473602b5490565b86613287565b7fd1a5032a9ae65ebe520eba7974025750af3d884b6ab6047dad04dcf7006ab3856040518060c001604052808381526020018581526020014360016124be9190616293565b6001600160401b0316815263ffffffff80881660208301528516604080830191909152600d5460ff16606090920191909152516124fb9190615d0f565b60405180910390a1505050505050565b61253860405180608001604052805f81526020015f81526020015f81526020015f63ffffffff1681525090565b50600d5460ff165f908152600a602090815260409182902082516080810184528154815260018201549281019290925260028101549282019290925260039091015463ffffffff16606082015290565b6125906137c2565b611a406140de565b600f60f81b6060805f8080836125ed60408051808201825260148152732a32b631b7b4b71029ba30b5b2a6b0b730b3b2b960611b602080830191909152825180840190935260018352603160f81b9083015291565b97989097965046955030945091925090565b6126076137c2565b61261081612282565b15612631576006604051633ba7bf8960e11b8152600401610ce19190616305565b61263a81613109565b505f6001600160a01b0382165f908152600f6020526040902054600160e01b900460ff16600681111561266f5761266f6159a9565b036126a6576001600160a01b0381165f908152600f602052604090206126949061411d565b6112476001600160a01b038216614169565b61124781612f69565b60606126ba82613321565b610cb682613371565b606060018054610ef190616244565b60605f6126de83611817565b5f015190505f81516001600160401b038111156126fd576126fd615b39565b60405190808252806020026020018201604052801561273657816020015b61272361580b565b81526020019060019003908161271b5790505b5090505f5b81518110156115d857612766838281518110612759576127596161e0565b60200260200101516112b0565b828281518110612778576127786161e0565b602090810291909101015260010161273b565b6127b860405180608001604052805f81526020015f81526020015f81526020015f63ffffffff1681525090565b5060ff165f908152600a602090815260409182902082516080810184528154815260018201549281019290925260028101549282019290925260039091015463ffffffff16606082015290565b612810848484610f99565b61144d33858585856141a1565b6040805160c08101825260608082525f6020830181905292820183905281018290526080810182905260a0810191909152600d5461287490600160b01b810463ffffffff16908190600160d01b900460ff16613880565b60408051825460e0602082028301810190935260c0820181815291939284929184918401828280156128cd57602002820191905f5260205f20905b81546001600160a01b031681526001909101906020018083116128af575b5050509183525050600182015460208201526002909101546001600160401b038116604083015263ffffffff600160401b820481166060840152600160601b820416608083015260ff600160801b9091041660a090910152919050565b5f6129336137c2565b61293b6130e0565b61294b6080830160608401615cb1565b63ffffffff165f03612989576129676080830160608401615cb1565b604051630c6e911360e41b815263ffffffff9091166004820152602401610ce1565b600d80545f9190829061299e9060ff16616313565b825460ff8083166101009490940a848102910219909116179092555f908152600a6020526040902090915083906129d58282616331565b50909150505b919050565b60606129eb826130a8565b505f612a266129f9846142c8565b612a01614376565b604051602001612a1292919061638b565b6040516020818303038152906040526143c0565b905080604051602001612a39919061647a565b604051602081830303815290604052915050919050565b5f612a5a83613109565b508351606014612a7d576040516333a234f960e11b815260040160405180910390fd5b5f612a8661281d565b60a001516001600160a01b0385165f908152600c6020526040812060020154919250600160a81b9091046001600160401b031690612ac3876139d5565b90505f7f9a361e91fa9aa610b5edf1d5c1cc20b9646c4228f3c004354ed2de7635dac9948288888787604051602001612b01969594939291906164ab565b604051602081830303815290604052805190602001209050612b22816143e6565b9450505050505b9392505050565b612b386130e0565b5f612b79858589898080601f0160208091040260200160405190810160405280939291908181526020018383808284375f920191909152506134b992505050565b90505f612b8461281d565b60a0015190505f612b9534836135cd565b9050612ba086613109565b50612bab865f613177565b6001600160a01b0386165f908152600c60205260409020600201546001600160401b03600160a81b90910416612bf0600d546001600160a01b03620100009091041690565b6001600160a01b0316336001600160a01b031614612c9f575f7f9a361e91fa9aa610b5edf1d5c1cc20b9646c4228f3c004354ed2de7635dac9948589338786604051602001612c44969594939291906164ab565b6040516020818303038152906040528051906020012090505f612c66826143e6565b9050612c7489828a8a6144fc565b612c9c57604051633b4f6e2b60e21b81526001600160a01b038a166004820152602401610ce1565b50505b6040518060a00160405280858152602001886001600160a01b03168152602001336001600160a01b031681526020018460ff168152602001826001612ce491906164e9565b6001600160401b039081169091526001600160a01b038981165f908152600c602090815260409182902085518155908501516001820180546001600160a01b03191691851691909117905590840151600290910180546060860151608090960151929093166001600160a81b031990931692909217600160a01b60ff909516949094029390931767ffffffffffffffff60a81b1916600160a81b9390921692909202179055612d968a8a898686613608565b50505050505050505050565b6001600160a01b039182165f90815260056020908152604080832093909416825291909152205460ff1690565b612dd76137c2565b612de082613109565b506001600160a01b0382165f818152600f602090815260409182902080546001600160f81b0316600160f81b60ff87169081029190911790915591519182527ffa96cc66d1772e5646f86e374867e4e32b5b448b2aadb331568e34c2d063e455910160405180910390a25050565b612e566130e0565b3068929eee149b4bd212685403612e745763ab143c065f526004601cfd5b3068929eee149b4bd21268555f612e8a826133a3565b6001600160a01b0383165f908152600f60205260409020909150612ead816145cf565b612ecc578060405163c11d33f760e01b8152600401610ce19190616508565b612ed58161411d565b5f61164e8484614668565b612ee86137c2565b6001600160a01b038116612f1157604051631e4fbdf760e01b81525f6004820152602401610ce1565b61124781613a56565b5f6001600160e01b031982166380ac58cd60e01b1480612f4a57506001600160e01b03198216635b5e139f60e01b145b80610cb657506301ffc9a760e01b6001600160e01b0319831614610cb6565b6001600160a01b0381165f908152600f602052604090208054602b54600160e01b90910460ff1690612f9a82614832565b15612fad57612faa600182616208565b90505b612fb78482614885565b5f5f612fc28661124a565b506001600160a01b0388165f908152600b602052604081208190559193509150818310612fef5781612ff1565b825b6040519091505f907307a07a07a07a07a07a07a07a07a07a07a07a07a09083908381818185875af1925050503d805f8114613047576040519150601f19603f3d011682016040523d82523d5f602084013e61304c565b606091505b505090508061306e57604051630b567ce360e31b815260040160405180910390fd5b600d54613089908890600160b01b900463ffffffff166149bd565b6130928761411d565b5f61309c89614a14565b9050612d968982614668565b5f818152600260205260408120546001600160a01b031680610cb657604051637e27328960e01b815260048101849052602401610ce1565b600d54610100900460ff1615611a405760405163d93c066560e01b815260040160405180910390fd5b5f6001600160a01b03821661311d81613a03565b61313d5760405163ed15e6cf60e01b815260048101829052602401610ce1565b826001600160a01b031661315082612019565b6001600160a01b031614610cb6576040516330fa89ab60e11b815260040160405180910390fd5b6001600160a01b0382165f908152600f6020526040902054600160e01b900460ff168160068111156131ab576131ab6159a9565b8160068111156131bd576131bd6159a9565b14610e0d5780604051633ba7bf8960e11b8152600401610ce19190616305565b6131e88160016162cd565b825463ffffffff91909116600160a01b0263ffffffff60a01b19909116178255613213826002614a43565b7f44f68a196beb8e3ae6b6afe9504db62c81b4e511e987a263b4f1a9bc49c90762826040516132429190616508565b60405180910390a15050565b6001600160a01b0382165f908152600b602052604081205481838211613274575f61327e565b61327e8483616208565b95945050505050565b811580613292575080155b8061329c57508181115b156111fd57604051635700689f60e11b81526004810183905260248101829052604401610ce1565b6132cf816004614a43565b805463ffffffff60c01b191663ffffffff60c01b1781556040517f170cba9e80cc0d156bc6ed689fa1d09ee788e1000c092512ef8698454b2081ee90613316908390616508565b60405180910390a150565b5f816006811115613334576133346159a9565b14806133515750600681600681111561334f5761334f6159a9565b145b156112475780604051633ba7bf8960e11b8152600401610ce19190616305565b6060610cb6602a5f84600681111561338b5761338b6159a9565b60ff1660ff1681526020019081526020015f20614b8a565b5f6133ad82613109565b506133b782614a14565b9050336001600160a01b038316148015906133db5750336001600160a01b03821614155b156129db5760405163172b4e7560e11b81526001600160a01b0382166004820152602401610ce1565b5f5f6134108584614b96565b6001600160a01b0386165f908152600b602052604081208054929350839290919061343c908490616208565b9091555050604051634875485760e11b81526001600160a01b0385166004820152602481018290527307a07a07a07a07a07a07a07a07a07a07a07a07a0906390ea90ae906044015f604051808303815f87803b15801561349a575f5ffd5b505af11580156134ac573d5f5f3e3d5ffd5b5092979650505050505050565b5f81516060146134dc576040516333a234f960e11b815260040160405180910390fd5b5f825f815181106134ef576134ef6161e0565b016020015160f81c905060808116158061350b57506040811615155b15613529576040516333a234f960e11b815260040160405180910390fd5b845160405163071917cf60e01b815273__$2ef4e8110a3eaa1255da7f08f8eebcbf5a$__9163071917cf9161356591908790899060040161657a565b602060405180830381865af4158015613580573d5f5f3e3d5ffd5b505050506040513d601f19601f820116820180604052508101906135a491906165b7565b6135c3578460405163a865bb3560e01b8152600401610ce191906165d2565b61327e8385614bf6565b60ff81165f908152600a602052604081205483146136015760405163222d164360e21b815260048101849052602401610ce1565b5090919050565b6040805160e0810182526001600160a01b0385811680835263ffffffff60208085018281525f868801818152606088018281526080890183905260ff8c1660a08a015260c08901839052958252600f9093529690962085518154975192518416600160c01b0263ffffffff60c01b1993909416600160a01b026001600160c01b0319909816951694909417959095179485168117835590519293919291839160ff60e01b191664ffffffffff60c01b1990911617600160e01b8360068111156136d3576136d36159a9565b02179055506080820151815460a084015160c09094015161ffff60e81b19909116600160e81b9215159290920260ff60f01b191691909117600160f01b60ff94851602176001600160f81b0316600160f81b93909116929092029190911790556001600160a01b0383165f908152600f60205260409020613755816001614a43565b6001600160a01b0384165f908152602960205260409020613777868883616642565b506001600160a01b0384165f908152600b602052604090819020839055517f9d9bab592843361c508cec6cc23820609c04fe07a621d03bf04b7520759d3641906124fb908390616508565b600d546001600160a01b0362010000909104163314611a405760405163118cdaa760e01b8152336004820152602401610ce1565b5f8060048361380586886162e9565b61380f91906166fb565b6138199190616714565b90505f601d8260ff1660048110613832576138326161e0565b6003020190508563ffffffff168160020160089054906101000a900463ffffffff1663ffffffff161461327e57604051634fadd4d360e11b815263ffffffff87166004820152602401610ce1565b5f8061388c85856162e9565b90505f60048261389c86836166fb565b6138a69190616735565b6138b09190616714565b90505f60118260ff16600481106138c9576138c96161e0565b6003020190508663ffffffff168160020160089054906101000a900463ffffffff1663ffffffff161461391757604051634fadd4d360e11b815263ffffffff88166004820152602401610ce1565b9695505050505050565b613929614c66565b600d805461ff00191690557f5db9ee0a495bf2e6ff9c91a7834c1ba4fdd244a5e8aa4e537bd38aeae4b073aa335b6040516001600160a01b03909116815260200160405180910390a1565b6001600160a01b03821661399d57604051633250574960e11b81525f6004820152602401610ce1565b5f6139a983835f614c8e565b90506001600160a01b03811615610e0d576040516339e3563760e11b81525f6004820152602401610ce1565b604080516020838101516001600160fd1b031682528284015190820152606092830151918101919091522090565b5f811580613a1857506001600160a01b038210155b15613a395760405163ed15e6cf60e01b815260048101839052602401610ce1565b505f908152600260205260409020546001600160a01b0316151590565b600d80546001600160a01b038381166201000081810262010000600160b01b031985161790945560405193909204169182907f8be0079c531659141344cd1fd0a4f28419497f9722a3daafe3b4186f6b6457e0905f90a35050565b60015b81811015610e0d57828282818110613ace57613ace6161e0565b9050602002016020810190613ae39190615911565b6001600160a01b03168383613af9600185616208565b818110613b0857613b086161e0565b9050602002016020810190613b1d9190615911565b6001600160a01b031610613b81578282613b38600184616208565b818110613b4757613b476161e0565b9050602002016020810190613b5c9190615911565b60405163836e3a7d60e01b81526001600160a01b039091166004820152602401610ce1565b600101613ab4565b600d545f9081908190606090600160d01b900460ff16826004613bad8360016166fb565b613bb79190616714565b600d805460ff60d01b1916600160d01b60ff841602178082559192505f91601690613bee90600160b01b900463ffffffff1661674e565b91906101000a81548163ffffffff021916908363ffffffff160217905590505f601d8360ff1660048110613c2457613c246161e0565b6003020190505f613c3361250b565b90506040518060c0016040528083805480602002602001604051908101604052809291908181526020018280548015613c9357602002820191905f5260205f20905b81546001600160a01b03168152600190910190602001808311613c75575b5050509183525050604080840151602083015201613cb24360016164e9565b6001600160401b0316815263ffffffff80861660208301526060808501519091166040830152600d5460ff9081169190920152601190861660048110613cfa57613cfa6161e0565b600302015f820151815f019081613d119190616769565b50602082015160018201556040820151600291820180546060850151608086015160a0909601516001600160401b039094166bffffffffffffffffffffffff1990921691909117600160401b63ffffffff928316021764ffffffffff60601b1916600160601b919095160260ff60801b191693909317600160801b60ff90921691909102179091555f90600490613da99087906166fb565b613db39190616714565b90508a601d8260ff1660048110613dcc57613dcc6161e0565b6003020190613ddb9082616769565b50613de78460026162cd565b601d8260ff1660048110613dfd57613dfd6161e0565b6003020160020160086101000a81548163ffffffff021916908363ffffffff16021790555083826040015183606001518580805480602002602001604051908101604052809291908181526020018280548015613e8157602002820191905f5260205f20905b81546001600160a01b03168152600190910190602001808311613e63575b5050505050905099509950995099505050505050509193509193565b5f613ea86002613371565b90505f5b8151811015613f06575f600f5f848481518110613ecb57613ecb6161e0565b60200260200101516001600160a01b03166001600160a01b031681526020019081526020015f209050613efd81614d59565b50600101613eac565b505f613f126004613371565b600d54909150600160d01b900460ff165f6004613f308360016166fb565b613f3a9190616714565b90505f7fbd0b8371ed11e4a5f6acd1f1a0d78b3f7e6ab3473c6396c9f28027132562600c86604051602001613f8692919091825260e01b6001600160e01b031916602082015260240190565b60405160208183030381529060405280519060200120905061401560118460ff1660048110613fb757613fb76161e0565b6003020180546040805160208084028201810190925282815292919083018282801561400a57602002820191905f5260205f20905b81546001600160a01b03168152600190910190602001808311613fec575b505050505082614d93565b61402e601d8360ff1660048110613fb757613fb76161e0565b61406b8888808060200260200160405190810160405280939291908181526020018383602002808284375f92019190915250859250614d93915050565b5f5b84518110156140d3575f858281518110614089576140896161e0565b6020026020010151905061409d8184614de3565b156140a857506140cb565b6001600160a01b0381165f908152600f602052604090206140c990896149bd565b505b60010161406d565b505050505050505050565b6140e66130e0565b600d805461ff0019166101001790557f62e78cea01bee320cd4e420270b5ea74000d11b0c9f74754ebdbfc544b05a2586139573390565b614128816006614a43565b805460ff60e81b1916600160e81b1781556040517ffab16134cb74fff6e7d137bf93f6b2ab4c1c61cbe53dad2c8cb57744353bd39b90613316908390616508565b5f6141755f835f614c8e565b90506001600160a01b0381166111fd57604051637e27328960e01b815260048101839052602401610ce1565b6001600160a01b0383163b1561178e57604051630a85bd0160e11b81526001600160a01b0384169063150b7a02906141e39088908890879087906004016167ed565b6020604051808303815f875af192505050801561421d575060408051601f3d908101601f1916820190925261421a9181019061681f565b60015b614284573d80801561424a576040519150601f19603f3d011682016040523d82523d5f602084013e61424f565b606091505b5080515f0361427c57604051633250574960e11b81526001600160a01b0385166004820152602401610ce1565b805181602001fd5b6001600160e01b03198116630a85bd0160e11b146142c057604051633250574960e11b81526001600160a01b0385166004820152602401610ce1565b505050505050565b60605f6142d483614e00565b6028602282012090915060601c60295b600181111561436d57600782600f161180156143195750606083828151811061430f5761430f6161e0565b016020015160f81c115b1561435657602060f81b838281518110614335576143356161e0565b0160200180516001600160f81b0319908116909218909116905f82901a9053505b60049190911c906143668161683a565b90506142e4565b50909392505050565b606061439c6040518061052001604052806104ed81526020016168ad6104ed91396143c0565b6040516020016143ac919061684f565b604051602081830303815290604052905090565b6060610cb682604051806060016040528060408152602001616d9a604091396001614e16565b7f00000000000000000000000000000000000000000000000000000000000000007f000000000000000000000000000000000000000000000000000000000000000030147f00000000000000000000000000000000000000000000000000000000000000004614166144d95750604080517f8b73c3c69bb8fe3d512ecc4cf759cc79239f7b179b0ffacaa9a75d522b39400f81527f000000000000000000000000000000000000000000000000000000000000000060208201527f00000000000000000000000000000000000000000000000000000000000000009181019190915246606082015230608082015260a090205b6719010000000000005f5280601a5281603a52604260182090505f603a52919050565b5f6001600160a01b0385161561239657604051853b61458c57826040811461452c576041811461455357506145c6565b60208581013560ff81901c601b0190915285356040526001600160ff1b0316606052614564565b60408501355f1a6020526040856040375b50845f526020600160805f60015afa5180871860601b3d119250505f606052806040526145c6565b631626ba7e60e01b80825285600483015260248201604081528460448401528486606485013760208160648701858b5afa90519091141691505b50949350505050565b80545f90600160e01b900460ff1660018160068111156145f1576145f16159a9565b036145ff5750600192915050565b82545f9061461b90600160c01b900463ffffffff1660016162cd565b90506005826006811115614631576146316159a9565b1480156146505750600d5463ffffffff808316600160b01b9092041610155b1561465f575060019392505050565b505f9392505050565b5f61467b6001600160a01b038416614169565b6008545f0361469d576040516315ae672760e01b815260040160405180910390fd5b6001600160a01b0383165f908152600c602052604081208181556001810180546001600160a01b031916905560020180546001600160e81b031916905580806146e58661124a565b925092509250825f036146fd57829350505050610cb6565b6001600160a01b0386165f908152600b602052604081208190558284106147255750816147a9565b50825f7307a07a07a07a07a07a07a07a07a07a07a07a07a06147478386616208565b6040515f81818185875af1925050503d805f8114614780576040519150601f19603f3d011682016040523d82523d5f602084013e614785565b606091505b50509050806147a757604051630b567ce360e31b815260040160405180910390fd5b505b604051634875485760e11b81526001600160a01b0387166004820152602481018390527307a07a07a07a07a07a07a07a07a07a07a07a07a0906390ea90ae9083906044015f604051808303818588803b158015614804575f5ffd5b505af1158015614816573d5f5f3e3d5ffd5b505050505081816148279190616293565b979650505050505050565b5f6003826006811115614847576148476159a9565b148061486457506004826006811115614862576148626159a9565b145b80610cb65750600282600681111561487e5761487e6159a9565b1492915050565b600d54600160b01b810463ffffffff1690600160d01b900460ff165f6148ac838084613880565b90506148b88186614f90565b5080546148c58582613287565b5f6148d18560016162cd565b90505f6148df8287876137f6565b90506148eb8189614f90565b50805492506148fa8784613287565b5f6149068760026162cd565b90505f6149148289896137f6565b9050614920818b614f90565b508054945061492f8986613287565b600d54600160d81b900461ffff16891015612d9657600d805461ffff8b8116600160d81b90810261ffff60d81b1984161793849055604080519382900483168085529190940490911660208301529181018b90527f74cf7ca84b30b723e8b6e3cc569ec2db21f4ba2fcc09d651e5ce6770b91552f99060600160405180910390a15050505050505050505050565b6149c8826005614a43565b815463ffffffff60c01b1916600160c01b63ffffffff8316021782556040517f727bfc4079207401298f48a3f1a92c9b40d83e086fe5b584a7b0644fdbdb56ee90613242908490616508565b6001600160a01b038082165f908152600c602052604081206002810154919290911680612b2957509192915050565b81546001600160a01b03811690600160e01b900460ff16614a8b82602a5f846006811115614a7357614a736159a9565b60ff16815260208101919091526040015f2090615095565b505f836006811115614a9f57614a9f6159a9565b14158015614abf57506006836006811115614abc57614abc6159a9565b14155b15614af757614af582602a5f866006811115614add57614add6159a9565b60ff16815260208101919091526040015f20906150a9565b505b5f614b0182614832565b90505f614b0d85614832565b9050818015614b1a575080155b15614b3657602b5f8154614b2d9061683a565b90915550614b59565b81158015614b415750805b15614b5957602b5f8154614b5490616880565b909155505b85548590879060ff60e01b1916600160e01b836006811115614b7d57614b7d6159a9565b0217905550505050505050565b60605f612b29836150bd565b60ff81165f908152600a602052604081205481614bb3858361324e565b9050801580614bd5575060ff84165f908152600a602052604090206001015481105b1561239657604051633737b70960e11b815260048101829052602401610ce1565b5f614c00836139d5565b5f818152601060205260409020549091506001600160a01b031615614c3857604051638d12779f60e01b815260040160405180910390fd5b5f81815260106020526040902080546001600160a01b0384166001600160a01b031990911617905592915050565b600d54610100900460ff16611a4057604051638dfc202b60e01b815260040160405180910390fd5b5f5f614c9b858585615116565b90506001600160a01b038116614cf757614cf284600880545f838152600960205260408120829055600182018355919091527ff3f7a9fe364faab93b216da50a3214154f22a0a2b415b23a84c8169e8b636ee30155565b614d1a565b846001600160a01b0316816001600160a01b031614614d1a57614d1a8185615208565b6001600160a01b038516614d3657614d3184615285565b612396565b846001600160a01b0316816001600160a01b03161461239657612396858561532c565b614d64816003614a43565b7fabab4191fe954f07230f7e34fd48dc0fdcbed492526cd060001cccceab22851b816040516133169190616508565b5f5b8251811015610e0d57614ddb6001614dd5614dd2868581518110614dbb57614dbb6161e0565b60200260200101518661537a90919063ffffffff16565b90565b90615394565b600101614d95565b6001600160a01b0382165f9081526020829052604081205c612b29565b6060610cb66001600160a01b038316601461539b565b606083515f03614e34575060408051602081019091525f8152612b29565b5f82614e6457600385516004614e4a919061627c565b614e55906002616293565b614e5f91906162ba565b614e89565b600385516002614e749190616293565b614e7e91906162ba565b614e8990600461627c565b90505f816001600160401b03811115614ea457614ea4615b39565b6040519080825280601f01601f191660200182016040528015614ece576020820181803683370190505b509050600185016020820187885189016020810180515f82525b82841015614f43576003840193508351603f8160121c168701518653600186019550603f81600c1c168701518653600186019550603f8160061c168701518653600186019550603f8116870151865350600185019450614ee8565b905250508515614f8457600388510660018114614f675760028114614f7a57614f82565b603d6001830353603d6002830353614f82565b603d60018303535b505b50909695505050505050565b81545f90815b8181101561508b57836001600160a01b0316858281548110614fba57614fba6161e0565b5f918252602090912001546001600160a01b0316036150835784614fdf600184616208565b81548110614fef57614fef6161e0565b905f5260205f20015f9054906101000a90046001600160a01b031685828154811061501c5761501c6161e0565b905f5260205f20015f6101000a8154816001600160a01b0302191690836001600160a01b031602179055508480548061505757615057616898565b5f8281526020902081015f1990810180546001600160a01b03191690550190555060019150610cb69050565b600101614f96565b505f949350505050565b5f612b29836001600160a01b03841661550c565b5f612b29836001600160a01b0384166155f6565b6060815f0180548060200260200160405190810160405280929190818152602001828054801561510a57602002820191905f5260205f20905b8154815260200190600101908083116150f6575b50505050509050919050565b5f828152600260205260408120546001600160a01b039081169083161561514257615142818486615642565b6001600160a01b0381161561517c5761515d5f855f5f6156a6565b6001600160a01b0381165f90815260036020526040902080545f190190555b6001600160a01b038516156151aa576001600160a01b0385165f908152600360205260409020805460010190555b5f8481526002602052604080822080546001600160a01b0319166001600160a01b0389811691821790925591518793918516917fddf252ad1be2c89b69c2b068fc378daa952ba7f163c4a11628f55a4df523b3ef91a4949350505050565b5f61521283612306565b5f838152600760209081526040808320546001600160a01b0388168452600690925290912091925090818314615267575f83815260208281526040808320548584528184208190558352600790915290208290555b5f938452600760209081526040808620869055938552525081205550565b6008545f9061529690600190616208565b5f83815260096020526040812054600880549394509092849081106152bd576152bd6161e0565b905f5260205f200154905080600883815481106152dc576152dc6161e0565b5f91825260208083209091019290925582815260099091526040808220849055858252812055600880548061531357615313616898565b600190038181905f5260205f20015f9055905550505050565b5f600161533884612306565b6153429190616208565b6001600160a01b039093165f908152600660209081526040808320868452825280832085905593825260079052919091209190915550565b6001600160a01b03165f9081526020919091526040902090565b80825d5050565b6060825f6153aa84600261627c565b6153b5906002616293565b6001600160401b038111156153cc576153cc615b39565b6040519080825280601f01601f1916602001820160405280156153f6576020820181803683370190505b509050600360fc1b815f81518110615410576154106161e0565b60200101906001600160f81b03191690815f1a905350600f60fb1b8160018151811061543e5761543e6161e0565b60200101906001600160f81b03191690815f1a9053505f61546085600261627c565b61546b906001616293565b90505b60018111156154e2576f181899199a1a9b1b9c1cb0b131b232b360811b83600f166010811061549f5761549f6161e0565b1a60f81b8282815181106154b5576154b56161e0565b60200101906001600160f81b03191690815f1a90535060049290921c916154db8161683a565b905061546e565b5081156123965760405163e22e27eb60e01b81526004810186905260248101859052604401610ce1565b5f81815260018301602052604081205480156155e6575f61552e600183616208565b85549091505f9061554190600190616208565b90508082146155a0575f865f01828154811061555f5761555f6161e0565b905f5260205f200154905080875f01848154811061557f5761557f6161e0565b5f918252602080832090910192909255918252600188019052604090208390555b85548690806155b1576155b1616898565b600190038181905f5260205f20015f90559055856001015f8681526020019081526020015f205f905560019350505050610cb6565b5f915050610cb6565b5092915050565b5f81815260018301602052604081205461563b57508154600181810184555f848152602080822090930184905584548482528286019093526040902091909155610cb6565b505f610cb6565b61564d8383836157aa565b610e0d576001600160a01b03831661567b57604051637e27328960e01b815260048101829052602401610ce1565b60405163177e802f60e01b81526001600160a01b038316600482015260248101829052604401610ce1565b80806156ba57506001600160a01b03821615155b1561577b575f6156c9846130a8565b90506001600160a01b038316158015906156f55750826001600160a01b0316816001600160a01b031614155b801561570857506157068184612da2565b155b156157315760405163a9fbf51f60e01b81526001600160a01b0384166004820152602401610ce1565b81156157795783856001600160a01b0316826001600160a01b03167f8c5be1e5ebec7d5bd14f71427d1e84f3dd0314c0f7b2291e5b200ac8c7c3b92560405160405180910390a45b505b50505f90815260046020526040902080546001600160a01b0319166001600160a01b0392909216919091179055565b5f6001600160a01b038316158015906123965750826001600160a01b0316846001600160a01b031614806157e357506157e38484612da2565b806123965750505f908152600460205260409020546001600160a01b03908116911614919050565b6040805160e0810182525f8082526020820181905291810182905290606082019081525f602082018190526040820181905260609091015290565b6001600160e01b031981168114611247575f5ffd5b5f6020828403121561586b575f5ffd5b8135612b2981615846565b5f5f83601f840112615886575f5ffd5b5081356001600160401b0381111561589c575f5ffd5b6020830191508360208260061b85010111156158b6575f5ffd5b9250929050565b5f5f602083850312156158ce575f5ffd5b82356001600160401b038111156158e3575f5ffd5b6158ef85828601615876565b90969095509350505050565b80356001600160a01b03811681146129db575f5ffd5b5f60208284031215615921575f5ffd5b612b29826158fb565b5f81518084528060208401602086015e5f602082860101526020601f19601f83011685010191505092915050565b602081525f612b29602083018461592a565b5f6020828403121561597a575f5ffd5b5035919050565b5f5f60408385031215615992575f5ffd5b61599b836158fb565b946020939093013593505050565b634e487b7160e01b5f52602160045260245ffd5b600781106159d957634e487b7160e01b5f52602160045260245ffd5b9052565b60018060a01b03815116825263ffffffff602082015116602083015263ffffffff60408201511660408301526060810151615a1b60608401826159bd565b5060808101511515608083015260ff60a08201511660a083015260c0810151610e0d60c084018260ff169052565b60e08101610cb682846159dd565b5f5f5f60608486031215615a69575f5ffd5b615a72846158fb565b9250615a80602085016158fb565b929592945050506040919091013590565b5f60208284031215615aa1575f5ffd5b813560078110612b29575f5ffd5b602080825282518282018190525f918401906040840190835b81811015615af157615adb8385516159dd565b6020939093019260e09290920191600101615ac8565b509095945050505050565b5f5f83601f840112615b0c575f5ffd5b5081356001600160401b03811115615b22575f5ffd5b6020830191508360208285010111156158b6575f5ffd5b634e487b7160e01b5f52604160045260245ffd5b5f82601f830112615b5c575f5ffd5b81356001600160401b03811115615b7557615b75615b39565b604051601f8201601f19908116603f011681016001600160401b0381118282101715615ba357615ba3615b39565b604052818152838201602001851015615bba575f5ffd5b816020850160208301375f918101602001919091529392505050565b5f60208284031215615be6575f5ffd5b604051602081016001600160401b0381118282101715615c0857615c08615b39565b60405290508082356001600160401b03811115615c23575f5ffd5b615c2f85828601615b4d565b8252505092915050565b5f5f5f60408486031215615c4b575f5ffd5b83356001600160401b03811115615c60575f5ffd5b615c6c86828701615afc565b90945092505060208401356001600160401b03811115615c8a575f5ffd5b615c9686828701615bd6565b9150509250925092565b63ffffffff81168114611247575f5ffd5b5f60208284031215615cc1575f5ffd5b8135612b2981615ca0565b5f8151808452602084019350602083015f5b82811015615d055781516001600160a01b0316865260209586019590910190600101615cde565b5093949350505050565b602081525f825160c06020840152615d2a60e0840182615ccc565b9050602084015160408401526001600160401b03604085015116606084015263ffffffff606085015116608084015263ffffffff60808501511660a084015260ff60a08501511660c08401528091505092915050565b803560ff811681146129db575f5ffd5b5f5f60408385031215615da1575f5ffd5b615daa836158fb565b9150615db860208401615d80565b90509250929050565b5f60208284031215615dd1575f5ffd5b813561ffff81168114612b29575f5ffd5b5f5f60208385031215615df3575f5ffd5b82356001600160401b03811115615e08575f5ffd5b6158ef85828601615afc565b5f602082016020835280845180835260408501915060408160051b8601019250602086015f5b82811015615e6b57603f19878603018452615e5685835161592a565b94506020938401939190910190600101615e3a565b50929695505050505050565b5f5f60208385031215615e88575f5ffd5b82356001600160401b03811115615e9d575f5ffd5b8301601f81018513615ead575f5ffd5b80356001600160401b03811115615ec2575f5ffd5b8560208260051b8401011115615ed6575f5ffd5b6020919091019590945092505050565b60ff60f81b8816815260e060208201525f615f0460e083018961592a565b8281036040840152615f16818961592a565b606084018890526001600160a01b038716608085015260a0840186905283810360c0850152845180825260208087019350909101905f5b81811015615f6b578351835260209384019390920191600101615f4d565b50909b9a5050505050505050505050565b602081525f612b296020830184615ccc565b8015158114611247575f5ffd5b5f5f60408385031215615fac575f5ffd5b615fb5836158fb565b91506020830135615fc581615f8e565b809150509250929050565b5f60208284031215615fe0575f5ffd5b612b2982615d80565b5f5f5f5f60808587031215615ffc575f5ffd5b616005856158fb565b9350616013602086016158fb565b92506040850135915060608501356001600160401b03811115616034575f5ffd5b61604087828801615b4d565b91505092959194509250565b5f608082840312801561605d575f5ffd5b509092915050565b5f5f5f60608486031215616077575f5ffd5b83356001600160401b0381111561608c575f5ffd5b61609886828701615b4d565b9350506160a7602085016158fb565b91506160b5604085016158fb565b90509250925092565b5f5f5f5f5f5f608087890312156160d3575f5ffd5b86356001600160401b038111156160e8575f5ffd5b6160f489828a01615afc565b90975095505060208701356001600160401b03811115616112575f5ffd5b61611e89828a01615bd6565b94505061612d604088016158fb565b925060608701356001600160401b03811115616147575f5ffd5b61615389828a01615afc565b979a9699509497509295939492505050565b5f5f60408385031215616176575f5ffd5b61617f836158fb565b9150615db8602084016158fb565b6001600160a01b038816815263ffffffff87811660208301528616604082015260e081016161be60608301876159bd565b931515608082015260ff92831660a0820152911660c090910152949350505050565b634e487b7160e01b5f52603260045260245ffd5b634e487b7160e01b5f52601160045260245ffd5b81810381811115610cb657610cb66161f4565b604081016001600160a01b03616230846158fb565b168252602092830135929091019190915290565b600181811c9082168061625857607f821691505b60208210810361627657634e487b7160e01b5f52602260045260245ffd5b50919050565b8082028115828204841417610cb657610cb66161f4565b80820180821115610cb657610cb66161f4565b634e487b7160e01b5f52601260045260245ffd5b5f826162c8576162c86162a6565b500490565b63ffffffff8181168382160190811115610cb657610cb66161f4565b63ffffffff8281168282160390811115610cb657610cb66161f4565b60208101610cb682846159bd565b5f60ff821660ff8103616328576163286161f4565b60010192915050565b81358155602082013560018201556040820135600282015560038101606083013561635b81615ca0565b815463ffffffff191663ffffffff919091161790555050565b5f81518060208401855e5f93019283525090919050565b7f7b226e616d65223a202254656c636f696e2d4e6574776f726b20436f6e73656e8152651cdd5cd3919560d21b60208201525f6163cb6026830185616374565b7f222c20226465736372697074696f6e223a2022455243373231204e465420776881527f6f7365206f776e657273686970206c656467657220726570726573656e74732060208201527f746865207065726d697373696f6e65642077686974656c69737420666f72207660408201527530b634b230ba37b9399116101134b6b0b3b2911d101160511b60608201526164666076820185616374565b61227d60f01b815260020195945050505050565b7f646174613a6170706c69636174696f6e2f6a736f6e3b6261736536342c00000081525f612b29601d830184616374565b95865260208601949094526001600160a01b0392831660408601529116606084015260ff1660808301526001600160401b031660a082015260c00190565b6001600160401b038181168382160190811115610cb657610cb66161f4565b81546001600160a01b038116825263ffffffff60a082901c8116602084015260c082901c16604083015260e082019061654a6060840160ff8360e01c166159bd565b61655e6080840160ff8360e81c1615159052565b60f081901c60ff1660a084015260f881901c60c08401526155ef565b606081525f61658c606083018661592a565b828103602084015261659e818661592a565b91505060018060a01b0383166040830152949350505050565b5f602082840312156165c7575f5ffd5b8151612b2981615f8e565b602081525f8251602080840152612396604084018261592a565b5f5b82811015610e0d575f828201556001016165ee565b601f821115610e0d5782821115610e0d57805f5260205f20601f840160051c602085101561662e57505f5b61178e81601f860160051c038284016165ec565b6001600160401b0383111561665957616659615b39565b61666d836166678354616244565b83616603565b5f601f84116001811461669e575f85156166875750838201355b5f19600387901b1c1916600186901b17835561178e565b5f83815260208120601f198716915b828110156166cd57868501358255602094850194600190920191016166ad565b50868210156166e9575f1960f88860031b161c19848701351681555b505060018560011b0183555050505050565b60ff8181168382160190811115610cb657610cb66161f4565b5f60ff831680616726576167266162a6565b8060ff84160691505092915050565b60ff8281168282160390811115610cb657610cb66161f4565b5f63ffffffff821663ffffffff8103616328576163286161f4565b81516001600160401b0381111561678257616782615b39565b600160401b81111561679657616796615b39565b8154818355808210156167ba57825f528160205f20016167b8838303826165ec565b505b5060208301825f5260205f205f5b838110156142c05782516001600160a01b0316828201556020909201916001016167c8565b6001600160a01b03858116825284166020820152604081018390526080606082018190525f906139179083018461592a565b5f6020828403121561682f575f5ffd5b8151612b2981615846565b5f81616848576168486161f4565b505f190190565b7f646174613a696d6167652f7376672b786d6c3b6261736536342c00000000000081525f612b29601a830184616374565b5f60018201616891576168916161f4565b5060010190565b634e487b7160e01b5f52603160045260245ffdfe3c7376672077696474683d22373922206865696768743d223830222076696577426f783d22302030203739203830222066696c6c3d226e6f6e652220786d6c6e733d22687474703a2f2f7777772e77332e6f72672f323030302f737667223e203c6d61736b2069643d226d61736b305f3834395f3334313722207374796c653d226d61736b2d747970653a616c70686122206d61736b556e6974733d227573657253706163654f6e5573652220783d22302220793d2230222077696474683d22373922206865696768743d223830223e203c726563742077696474683d2237382e30303522206865696768743d223830222066696c6c3d2223433443344334222f3e203c2f6d61736b3e203c67206d61736b3d2275726c28236d61736b305f3834395f3334313729223e203c7265637420783d2231372e393534362220793d2231382e33353435222077696474683d2234322e3239343322206865696768743d2234332e32393138222066696c6c3d227768697465222f3e203c7061746820643d224d37342e323336392032312e393839324337362e363930382032342e303331352037382e323338392032382e323537372037372e363937392033312e333733334c37322e343136362036312e333235334337312e3836362036342e343437352036382e393539322036372e383739382036352e393632392036382e393631324c33372e313934372037392e333334344333342e313938342038302e343135372032392e373432312037392e363239392032372e323936342037372e3538394c332e3831312035382e3030323143312e33353730382035352e39353938202d302e31393233382035312e3734313720302e3335383134382034382e363139354c352e36333935312031382e3636373443362e31393030342031352e3534353220392e30393638372031322e313132392031322e303933322031312e303331364c34302e3835393920302e3636363435334334332e38353632202d302e3431343835372034382e3331323520302e3337303930392035302e3735383320322e343131384c37342e323336392032312e393839325a4d34392e373634352033352e343336394c35302e393336342032392e333531334c33392e393531372032392e333638374c34312e3531362032312e333432344c33372e393538332032312e333432344333372e393538332032312e333432342033342e363332382032372e323930312032372e333030362033302e323031394c32362e323839392033352e343530334c33312e303933362033352e34364333312e303933362033352e34362032392e343637342034332e303032392032382e393331362034352e373835344332372e353637372035322e383638322033302e393830362035372e383933392033362e323238312035372e383933394333382e383630362035372e383933392034312e3831372035372e383933392034352e303937322035372e383933394c34362e363532342035312e313636364334362e323734322035312e313636362034332e383031332035312e313636362033392e323333362035312e313636364333352e393336342035312e313636362033362e313039392034392e333138392033362e373433312034362e303330354c33382e373833382033352e343333334c34392e373634352033352e343336395a222066696c6c3d2223313443384646222f3e203c2f673e203c2f7376673e4142434445464748494a4b4c4d4e4f505152535455565758595a6162636465666768696a6b6c6d6e6f707172737475767778797a303132333435363738392b2fa164736f6c6343000823000a","linkReferences":{"src/consensus/BlsG1.sol":{"BlsG1":[{"start":2323,"length":20},{"start":19942,"length":20}]}}},"methodIdentifiers":{"SYSTEM_ADDRESS()":"3434735f","activate()":"0f15f4c0","allocateIssuance()":"355811a7","applyIncentives((address,uint256)[])":"0a36cdef","applySlashes((address,uint256)[])":"02ae337b","approve(address,uint256)":"095ea7b3","balanceOf(address)":"70a08231","beginExit()":"2228dfa0","burn(address)":"89afcb44","claimStakeRewards(address)":"2b9f4985","concludeEpoch(address[])":"7b55a300","delegateStake(bytes,(bytes),address,bytes)":"e80cb65f","delegationDigest(bytes,address,address)":"e3716d04","eip712Domain()":"84b0196e","epochInfo(uint256)":"3894228e","futureEpochInfo(uint256)":"59ca93b6","getApproved(uint256)":"081812fc","getBalanceBreakdown(address)":"15b5709a","getBlsPubkey(address)":"059b916c","getCommitteeBlsPubkeys(uint32)":"6ae9942c","getCommitteeValidators(uint32)":"a0201be5","getCurrentEpoch()":"b97dd9e2","getCurrentEpochInfo()":"babc394f","getCurrentStakeConfig()":"7d06fdf8","getCurrentStakeVersion()":"67398331","getEligibleValidatorCount()":"23a40430","getEpochInfo(uint32)":"374ed18c","getNextCommitteeSize()":"eb8535c2","getRewards(address)":"79ee54f7","getValidator(address)":"1904bb2e","getValidators(uint8)":"8cc05eda","getValidatorsInfo(uint8)":"2870259d","isApprovedForAll(address,address)":"e985e9c5","isDelegated(address)":"3e28391d","isRetired(address)":"6d3c6275","isValidator(bytes)":"6a926591","issuance()":"863623bb","mint(address)":"6a627842","name()":"06fdde03","owner()":"8da5cb5b","ownerOf(uint256)":"6352211e","pause()":"8456cb59","paused()":"5c975abb","renounceOwnership()":"715018a6","safeTransferFrom(address,address,uint256)":"42842e0e","safeTransferFrom(address,address,uint256,bytes)":"b88d4fde","setApprovalForAll(address,bool)":"a22cb465","setNextCommitteeSize(uint16)":"62fcde4b","setValidatorRegion(address,uint8)":"f0624768","stake(bytes,(bytes))":"2fb0d025","stakeConfig(uint8)":"a71954ec","supportsInterface(bytes4)":"01ffc9a7","symbol()":"95d89b41","tokenByIndex(uint256)":"4f6ccce7","tokenOfOwnerByIndex(address,uint256)":"2f745c59","tokenURI(uint256)":"c87b56dd","totalSupply()":"18160ddd","transferFrom(address,address,uint256)":"23b872dd","transferOwnership(address)":"f2fde38b","undistributedIssuance()":"008d6acd","unpause()":"3f4ba83a","unstake(address)":"f2888dbb","upgradeStakeVersion((uint256,uint256,uint256,uint32))":"c05df7ac","upgradeValidatorStakeVersion(address,uint8)":"5a41fb1f","validators(address)":"fa52c7d8"},"id":131}