{"abi":[{"type":"constructor","inputs":[{"name":"genesisConfig_","type":"tuple","internalType":"struct IStakeManager.StakeConfig","components":[{"name":"stakeAmount","type":"uint256","internalType":"uint256"},{"name":"minWithdrawAmount","type":"uint256","internalType":"uint256"},{"name":"epochIssuance","type":"uint256","internalType":"uint256"},{"name":"epochDuration","type":"uint32","internalType":"uint32"}]},{"name":"initialValidators_","type":"tuple[]","internalType":"struct IConsensusRegistry.ValidatorInfo[]","components":[{"name":"validatorAddress","type":"address","internalType":"address"},{"name":"activationEpoch","type":"uint32","internalType":"uint32"},{"name":"exitEpoch","type":"uint32","internalType":"uint32"},{"name":"currentStatus","type":"uint8","internalType":"enum IConsensusRegistry.ValidatorStatus"},{"name":"isRetired","type":"bool","internalType":"bool"},{"name":"stakeVersion","type":"uint8","internalType":"uint8"},{"name":"region","type":"uint8","internalType":"uint8"}]},{"name":"blsPubkeys_","type":"bytes[]","internalType":"bytes[]"},{"name":"proofsOfPossession","type":"tuple[]","internalType":"struct BlsG1.ProofOfPossession[]","components":[{"name":"uncompressedPubkey","type":"bytes","internalType":"bytes"},{"name":"uncompressedSignature","type":"bytes","internalType":"bytes"}]},{"name":"owner_","type":"address","internalType":"address"}],"stateMutability":"nonpayable"},{"type":"function","name":"SYSTEM_ADDRESS","inputs":[],"outputs":[{"name":"","type":"address","internalType":"address"}],"stateMutability":"view"},{"type":"function","name":"activate","inputs":[],"outputs":[],"stateMutability":"nonpayable"},{"type":"function","name":"allocateIssuance","inputs":[],"outputs":[],"stateMutability":"payable"},{"type":"function","name":"applyIncentives","inputs":[{"name":"rewardInfos","type":"tuple[]","internalType":"struct RewardInfo[]","components":[{"name":"validatorAddress","type":"address","internalType":"address"},{"name":"consensusHeaderCount","type":"uint256","internalType":"uint256"}]}],"outputs":[],"stateMutability":"nonpayable"},{"type":"function","name":"applySlashes","inputs":[{"name":"slashes","type":"tuple[]","internalType":"struct Slash[]","components":[{"name":"validatorAddress","type":"address","internalType":"address"},{"name":"amount","type":"uint256","internalType":"uint256"}]}],"outputs":[],"stateMutability":"nonpayable"},{"type":"function","name":"approve","inputs":[{"name":"","type":"address","internalType":"address"},{"name":"","type":"uint256","internalType":"uint256"}],"outputs":[],"stateMutability":"nonpayable"},{"type":"function","name":"balanceOf","inputs":[{"name":"owner","type":"address","internalType":"address"}],"outputs":[{"name":"","type":"uint256","internalType":"uint256"}],"stateMutability":"view"},{"type":"function","name":"beginExit","inputs":[],"outputs":[],"stateMutability":"nonpayable"},{"type":"function","name":"burn","inputs":[{"name":"validatorAddress","type":"address","internalType":"address"}],"outputs":[],"stateMutability":"nonpayable"},{"type":"function","name":"claimStakeRewards","inputs":[{"name":"validatorAddress","type":"address","internalType":"address"}],"outputs":[],"stateMutability":"nonpayable"},{"type":"function","name":"concludeEpoch","inputs":[{"name":"futureCommittee","type":"address[]","internalType":"address[]"}],"outputs":[],"stateMutability":"nonpayable"},{"type":"function","name":"delegateStake","inputs":[{"name":"blsPubkey","type":"bytes","internalType":"bytes"},{"name":"proofOfPossession","type":"tuple","internalType":"struct BlsG1.ProofOfPossession","components":[{"name":"uncompressedPubkey","type":"bytes","internalType":"bytes"},{"name":"uncompressedSignature","type":"bytes","internalType":"bytes"}]},{"name":"validatorAddress","type":"address","internalType":"address"},{"name":"validatorEIP712Signature","type":"bytes","internalType":"bytes"}],"outputs":[],"stateMutability":"payable"},{"type":"function","name":"delegationDigest","inputs":[{"name":"blsPubkey","type":"bytes","internalType":"bytes"},{"name":"validatorAddress","type":"address","internalType":"address"},{"name":"delegator","type":"address","internalType":"address"}],"outputs":[{"name":"","type":"bytes32","internalType":"bytes32"}],"stateMutability":"view"},{"type":"function","name":"eip712Domain","inputs":[],"outputs":[{"name":"fields","type":"bytes1","internalType":"bytes1"},{"name":"name","type":"string","internalType":"string"},{"name":"version","type":"string","internalType":"string"},{"name":"chainId","type":"uint256","internalType":"uint256"},{"name":"verifyingContract","type":"address","internalType":"address"},{"name":"salt","type":"bytes32","internalType":"bytes32"},{"name":"extensions","type":"uint256[]","internalType":"uint256[]"}],"stateMutability":"view"},{"type":"function","name":"epochInfo","inputs":[{"name":"","type":"uint256","internalType":"uint256"}],"outputs":[{"name":"epochIssuance","type":"uint256","internalType":"uint256"},{"name":"blockHeight","type":"uint64","internalType":"uint64"},{"name":"epochId","type":"uint32","internalType":"uint32"},{"name":"epochDuration","type":"uint32","internalType":"uint32"},{"name":"stakeVersion","type":"uint8","internalType":"uint8"}],"stateMutability":"view"},{"type":"function","name":"futureEpochInfo","inputs":[{"name":"","type":"uint256","internalType":"uint256"}],"outputs":[{"name":"epochIssuance","type":"uint256","internalType":"uint256"},{"name":"blockHeight","type":"uint64","internalType":"uint64"},{"name":"epochId","type":"uint32","internalType":"uint32"},{"name":"epochDuration","type":"uint32","internalType":"uint32"},{"name":"stakeVersion","type":"uint8","internalType":"uint8"}],"stateMutability":"view"},{"type":"function","name":"getApproved","inputs":[{"name":"tokenId","type":"uint256","internalType":"uint256"}],"outputs":[{"name":"","type":"address","internalType":"address"}],"stateMutability":"view"},{"type":"function","name":"getBalanceBreakdown","inputs":[{"name":"validatorAddress","type":"address","internalType":"address"}],"outputs":[{"name":"","type":"uint256","internalType":"uint256"},{"name":"","type":"uint256","internalType":"uint256"},{"name":"","type":"uint256","internalType":"uint256"}],"stateMutability":"view"},{"type":"function","name":"getBlsPubkey","inputs":[{"name":"validatorAddress","type":"address","internalType":"address"}],"outputs":[{"name":"","type":"bytes","internalType":"bytes"}],"stateMutability":"view"},{"type":"function","name":"getCommitteeBlsPubkeys","inputs":[{"name":"epoch","type":"uint32","internalType":"uint32"}],"outputs":[{"name":"","type":"bytes[]","internalType":"bytes[]"}],"stateMutability":"view"},{"type":"function","name":"getCommitteeValidators","inputs":[{"name":"epoch","type":"uint32","internalType":"uint32"}],"outputs":[{"name":"","type":"tuple[]","internalType":"struct IConsensusRegistry.ValidatorInfo[]","components":[{"name":"validatorAddress","type":"address","internalType":"address"},{"name":"activationEpoch","type":"uint32","internalType":"uint32"},{"name":"exitEpoch","type":"uint32","internalType":"uint32"},{"name":"currentStatus","type":"uint8","internalType":"enum IConsensusRegistry.ValidatorStatus"},{"name":"isRetired","type":"bool","internalType":"bool"},{"name":"stakeVersion","type":"uint8","internalType":"uint8"},{"name":"region","type":"uint8","internalType":"uint8"}]}],"stateMutability":"view"},{"type":"function","name":"getCurrentEpoch","inputs":[],"outputs":[{"name":"","type":"uint32","internalType":"uint32"}],"stateMutability":"view"},{"type":"function","name":"getCurrentEpochInfo","inputs":[],"outputs":[{"name":"","type":"tuple","internalType":"struct IConsensusRegistry.EpochInfo","components":[{"name":"committee","type":"address[]","internalType":"address[]"},{"name":"epochIssuance","type":"uint256","internalType":"uint256"},{"name":"blockHeight","type":"uint64","internalType":"uint64"},{"name":"epochId","type":"uint32","internalType":"uint32"},{"name":"epochDuration","type":"uint32","internalType":"uint32"},{"name":"stakeVersion","type":"uint8","internalType":"uint8"}]}],"stateMutability":"view"},{"type":"function","name":"getCurrentStakeConfig","inputs":[],"outputs":[{"name":"","type":"tuple","internalType":"struct IStakeManager.StakeConfig","components":[{"name":"stakeAmount","type":"uint256","internalType":"uint256"},{"name":"minWithdrawAmount","type":"uint256","internalType":"uint256"},{"name":"epochIssuance","type":"uint256","internalType":"uint256"},{"name":"epochDuration","type":"uint32","internalType":"uint32"}]}],"stateMutability":"view"},{"type":"function","name":"getCurrentStakeVersion","inputs":[],"outputs":[{"name":"","type":"uint8","internalType":"uint8"}],"stateMutability":"view"},{"type":"function","name":"getEpochInfo","inputs":[{"name":"epoch","type":"uint32","internalType":"uint32"}],"outputs":[{"name":"","type":"tuple","internalType":"struct IConsensusRegistry.EpochInfo","components":[{"name":"committee","type":"address[]","internalType":"address[]"},{"name":"epochIssuance","type":"uint256","internalType":"uint256"},{"name":"blockHeight","type":"uint64","internalType":"uint64"},{"name":"epochId","type":"uint32","internalType":"uint32"},{"name":"epochDuration","type":"uint32","internalType":"uint32"},{"name":"stakeVersion","type":"uint8","internalType":"uint8"}]}],"stateMutability":"view"},{"type":"function","name":"getNextCommitteeSize","inputs":[],"outputs":[{"name":"","type":"uint16","internalType":"uint16"}],"stateMutability":"view"},{"type":"function","name":"getRewards","inputs":[{"name":"validatorAddress","type":"address","internalType":"address"}],"outputs":[{"name":"","type":"uint256","internalType":"uint256"}],"stateMutability":"view"},{"type":"function","name":"getValidator","inputs":[{"name":"validatorAddress","type":"address","internalType":"address"}],"outputs":[{"name":"","type":"tuple","internalType":"struct IConsensusRegistry.ValidatorInfo","components":[{"name":"validatorAddress","type":"address","internalType":"address"},{"name":"activationEpoch","type":"uint32","internalType":"uint32"},{"name":"exitEpoch","type":"uint32","internalType":"uint32"},{"name":"currentStatus","type":"uint8","internalType":"enum IConsensusRegistry.ValidatorStatus"},{"name":"isRetired","type":"bool","internalType":"bool"},{"name":"stakeVersion","type":"uint8","internalType":"uint8"},{"name":"region","type":"uint8","internalType":"uint8"}]}],"stateMutability":"view"},{"type":"function","name":"getValidators","inputs":[{"name":"status","type":"uint8","internalType":"enum IConsensusRegistry.ValidatorStatus"}],"outputs":[{"name":"","type":"tuple[]","internalType":"struct IConsensusRegistry.ValidatorInfo[]","components":[{"name":"validatorAddress","type":"address","internalType":"address"},{"name":"activationEpoch","type":"uint32","internalType":"uint32"},{"name":"exitEpoch","type":"uint32","internalType":"uint32"},{"name":"currentStatus","type":"uint8","internalType":"enum IConsensusRegistry.ValidatorStatus"},{"name":"isRetired","type":"bool","internalType":"bool"},{"name":"stakeVersion","type":"uint8","internalType":"uint8"},{"name":"region","type":"uint8","internalType":"uint8"}]}],"stateMutability":"view"},{"type":"function","name":"isApprovedForAll","inputs":[{"name":"owner","type":"address","internalType":"address"},{"name":"operator","type":"address","internalType":"address"}],"outputs":[{"name":"","type":"bool","internalType":"bool"}],"stateMutability":"view"},{"type":"function","name":"isDelegated","inputs":[{"name":"validatorAddress","type":"address","internalType":"address"}],"outputs":[{"name":"","type":"bool","internalType":"bool"}],"stateMutability":"view"},{"type":"function","name":"isRetired","inputs":[{"name":"validatorAddress","type":"address","internalType":"address"}],"outputs":[{"name":"","type":"bool","internalType":"bool"}],"stateMutability":"view"},{"type":"function","name":"isValidator","inputs":[{"name":"blsPubkey","type":"bytes","internalType":"bytes"}],"outputs":[{"name":"","type":"bool","internalType":"bool"}],"stateMutability":"view"},{"type":"function","name":"issuance","inputs":[],"outputs":[{"name":"","type":"address","internalType":"address payable"}],"stateMutability":"view"},{"type":"function","name":"mint","inputs":[{"name":"validatorAddress","type":"address","internalType":"address"}],"outputs":[],"stateMutability":"nonpayable"},{"type":"function","name":"name","inputs":[],"outputs":[{"name":"","type":"string","internalType":"string"}],"stateMutability":"view"},{"type":"function","name":"owner","inputs":[],"outputs":[{"name":"","type":"address","internalType":"address"}],"stateMutability":"view"},{"type":"function","name":"ownerOf","inputs":[{"name":"tokenId","type":"uint256","internalType":"uint256"}],"outputs":[{"name":"","type":"address","internalType":"address"}],"stateMutability":"view"},{"type":"function","name":"pause","inputs":[],"outputs":[],"stateMutability":"nonpayable"},{"type":"function","name":"paused","inputs":[],"outputs":[{"name":"","type":"bool","internalType":"bool"}],"stateMutability":"view"},{"type":"function","name":"proofOfPossessionMessage","inputs":[{"name":"blsPubkeyUncompressed","type":"bytes","internalType":"bytes"},{"name":"validatorAddress","type":"address","internalType":"address"}],"outputs":[{"name":"","type":"bytes","internalType":"bytes"}],"stateMutability":"pure"},{"type":"function","name":"renounceOwnership","inputs":[],"outputs":[],"stateMutability":"nonpayable"},{"type":"function","name":"safeTransferFrom","inputs":[{"name":"from","type":"address","internalType":"address"},{"name":"to","type":"address","internalType":"address"},{"name":"tokenId","type":"uint256","internalType":"uint256"}],"outputs":[],"stateMutability":"nonpayable"},{"type":"function","name":"safeTransferFrom","inputs":[{"name":"from","type":"address","internalType":"address"},{"name":"to","type":"address","internalType":"address"},{"name":"tokenId","type":"uint256","internalType":"uint256"},{"name":"data","type":"bytes","internalType":"bytes"}],"outputs":[],"stateMutability":"nonpayable"},{"type":"function","name":"setApprovalForAll","inputs":[{"name":"","type":"address","internalType":"address"},{"name":"","type":"bool","internalType":"bool"}],"outputs":[],"stateMutability":"nonpayable"},{"type":"function","name":"setNextCommitteeSize","inputs":[{"name":"newSize","type":"uint16","internalType":"uint16"}],"outputs":[],"stateMutability":"nonpayable"},{"type":"function","name":"setValidatorRegion","inputs":[{"name":"validatorAddress","type":"address","internalType":"address"},{"name":"region","type":"uint8","internalType":"uint8"}],"outputs":[],"stateMutability":"nonpayable"},{"type":"function","name":"stake","inputs":[{"name":"blsPubkey","type":"bytes","internalType":"bytes"},{"name":"proofOfPossession","type":"tuple","internalType":"struct BlsG1.ProofOfPossession","components":[{"name":"uncompressedPubkey","type":"bytes","internalType":"bytes"},{"name":"uncompressedSignature","type":"bytes","internalType":"bytes"}]}],"outputs":[],"stateMutability":"payable"},{"type":"function","name":"stakeConfig","inputs":[{"name":"version","type":"uint8","internalType":"uint8"}],"outputs":[{"name":"","type":"tuple","internalType":"struct IStakeManager.StakeConfig","components":[{"name":"stakeAmount","type":"uint256","internalType":"uint256"},{"name":"minWithdrawAmount","type":"uint256","internalType":"uint256"},{"name":"epochIssuance","type":"uint256","internalType":"uint256"},{"name":"epochDuration","type":"uint32","internalType":"uint32"}]}],"stateMutability":"view"},{"type":"function","name":"supportsInterface","inputs":[{"name":"interfaceId","type":"bytes4","internalType":"bytes4"}],"outputs":[{"name":"","type":"bool","internalType":"bool"}],"stateMutability":"view"},{"type":"function","name":"symbol","inputs":[],"outputs":[{"name":"","type":"string","internalType":"string"}],"stateMutability":"view"},{"type":"function","name":"tokenByIndex","inputs":[{"name":"index","type":"uint256","internalType":"uint256"}],"outputs":[{"name":"","type":"uint256","internalType":"uint256"}],"stateMutability":"view"},{"type":"function","name":"tokenOfOwnerByIndex","inputs":[{"name":"owner","type":"address","internalType":"address"},{"name":"index","type":"uint256","internalType":"uint256"}],"outputs":[{"name":"","type":"uint256","internalType":"uint256"}],"stateMutability":"view"},{"type":"function","name":"tokenURI","inputs":[{"name":"tokenId","type":"uint256","internalType":"uint256"}],"outputs":[{"name":"","type":"string","internalType":"string"}],"stateMutability":"view"},{"type":"function","name":"totalSupply","inputs":[],"outputs":[{"name":"","type":"uint256","internalType":"uint256"}],"stateMutability":"view"},{"type":"function","name":"transferFrom","inputs":[{"name":"","type":"address","internalType":"address"},{"name":"","type":"address","internalType":"address"},{"name":"","type":"uint256","internalType":"uint256"}],"outputs":[],"stateMutability":"nonpayable"},{"type":"function","name":"transferOwnership","inputs":[{"name":"newOwner","type":"address","internalType":"address"}],"outputs":[],"stateMutability":"nonpayable"},{"type":"function","name":"undistributedIssuance","inputs":[],"outputs":[{"name":"","type":"uint256","internalType":"uint256"}],"stateMutability":"view"},{"type":"function","name":"unpause","inputs":[],"outputs":[],"stateMutability":"nonpayable"},{"type":"function","name":"unstake","inputs":[{"name":"validatorAddress","type":"address","internalType":"address"}],"outputs":[],"stateMutability":"nonpayable"},{"type":"function","name":"upgradeStakeVersion","inputs":[{"name":"newConfig","type":"tuple","internalType":"struct IStakeManager.StakeConfig","components":[{"name":"stakeAmount","type":"uint256","internalType":"uint256"},{"name":"minWithdrawAmount","type":"uint256","internalType":"uint256"},{"name":"epochIssuance","type":"uint256","internalType":"uint256"},{"name":"epochDuration","type":"uint32","internalType":"uint32"}]}],"outputs":[{"name":"","type":"uint8","internalType":"uint8"}],"stateMutability":"nonpayable"},{"type":"function","name":"upgradeValidatorStakeVersion","inputs":[{"name":"validatorAddress","type":"address","internalType":"address"},{"name":"targetVersion","type":"uint8","internalType":"uint8"}],"outputs":[],"stateMutability":"payable"},{"type":"function","name":"validators","inputs":[{"name":"","type":"address","internalType":"address"}],"outputs":[{"name":"validatorAddress","type":"address","internalType":"address"},{"name":"activationEpoch","type":"uint32","internalType":"uint32"},{"name":"exitEpoch","type":"uint32","internalType":"uint32"},{"name":"currentStatus","type":"uint8","internalType":"enum IConsensusRegistry.ValidatorStatus"},{"name":"isRetired","type":"bool","internalType":"bool"},{"name":"stakeVersion","type":"uint8","internalType":"uint8"},{"name":"region","type":"uint8","internalType":"uint8"}],"stateMutability":"view"},{"type":"event","name":"Approval","inputs":[{"name":"owner","type":"address","indexed":true,"internalType":"address"},{"name":"approved","type":"address","indexed":true,"internalType":"address"},{"name":"tokenId","type":"uint256","indexed":true,"internalType":"uint256"}],"anonymous":false},{"type":"event","name":"ApprovalForAll","inputs":[{"name":"owner","type":"address","indexed":true,"internalType":"address"},{"name":"operator","type":"address","indexed":true,"internalType":"address"},{"name":"approved","type":"bool","indexed":false,"internalType":"bool"}],"anonymous":false},{"type":"event","name":"NewEpoch","inputs":[{"name":"epoch","type":"tuple","indexed":false,"internalType":"struct IConsensusRegistry.EpochInfo","components":[{"name":"committee","type":"address[]","internalType":"address[]"},{"name":"epochIssuance","type":"uint256","internalType":"uint256"},{"name":"blockHeight","type":"uint64","internalType":"uint64"},{"name":"epochId","type":"uint32","internalType":"uint32"},{"name":"epochDuration","type":"uint32","internalType":"uint32"},{"name":"stakeVersion","type":"uint8","internalType":"uint8"}]}],"anonymous":false},{"type":"event","name":"NextCommitteeSizeUpdated","inputs":[{"name":"oldSize","type":"uint16","indexed":false,"internalType":"uint16"},{"name":"newSize","type":"uint16","indexed":false,"internalType":"uint16"},{"name":"numActiveValidators","type":"uint256","indexed":false,"internalType":"uint256"}],"anonymous":false},{"type":"event","name":"OwnershipTransferred","inputs":[{"name":"previousOwner","type":"address","indexed":true,"internalType":"address"},{"name":"newOwner","type":"address","indexed":true,"internalType":"address"}],"anonymous":false},{"type":"event","name":"Paused","inputs":[{"name":"account","type":"address","indexed":false,"internalType":"address"}],"anonymous":false},{"type":"event","name":"RewardsClaimed","inputs":[{"name":"claimant","type":"address","indexed":true,"internalType":"address"},{"name":"rewards","type":"uint256","indexed":false,"internalType":"uint256"}],"anonymous":false},{"type":"event","name":"Transfer","inputs":[{"name":"from","type":"address","indexed":true,"internalType":"address"},{"name":"to","type":"address","indexed":true,"internalType":"address"},{"name":"tokenId","type":"uint256","indexed":true,"internalType":"uint256"}],"anonymous":false},{"type":"event","name":"Unpaused","inputs":[{"name":"account","type":"address","indexed":false,"internalType":"address"}],"anonymous":false},{"type":"event","name":"ValidatorActivated","inputs":[{"name":"validator","type":"tuple","indexed":false,"internalType":"struct IConsensusRegistry.ValidatorInfo","components":[{"name":"validatorAddress","type":"address","internalType":"address"},{"name":"activationEpoch","type":"uint32","internalType":"uint32"},{"name":"exitEpoch","type":"uint32","internalType":"uint32"},{"name":"currentStatus","type":"uint8","internalType":"enum IConsensusRegistry.ValidatorStatus"},{"name":"isRetired","type":"bool","internalType":"bool"},{"name":"stakeVersion","type":"uint8","internalType":"uint8"},{"name":"region","type":"uint8","internalType":"uint8"}]}],"anonymous":false},{"type":"event","name":"ValidatorExited","inputs":[{"name":"validator","type":"tuple","indexed":false,"internalType":"struct IConsensusRegistry.ValidatorInfo","components":[{"name":"validatorAddress","type":"address","internalType":"address"},{"name":"activationEpoch","type":"uint32","internalType":"uint32"},{"name":"exitEpoch","type":"uint32","internalType":"uint32"},{"name":"currentStatus","type":"uint8","internalType":"enum IConsensusRegistry.ValidatorStatus"},{"name":"isRetired","type":"bool","internalType":"bool"},{"name":"stakeVersion","type":"uint8","internalType":"uint8"},{"name":"region","type":"uint8","internalType":"uint8"}]}],"anonymous":false},{"type":"event","name":"ValidatorPendingActivation","inputs":[{"name":"validator","type":"tuple","indexed":false,"internalType":"struct IConsensusRegistry.ValidatorInfo","components":[{"name":"validatorAddress","type":"address","internalType":"address"},{"name":"activationEpoch","type":"uint32","internalType":"uint32"},{"name":"exitEpoch","type":"uint32","internalType":"uint32"},{"name":"currentStatus","type":"uint8","internalType":"enum IConsensusRegistry.ValidatorStatus"},{"name":"isRetired","type":"bool","internalType":"bool"},{"name":"stakeVersion","type":"uint8","internalType":"uint8"},{"name":"region","type":"uint8","internalType":"uint8"}]}],"anonymous":false},{"type":"event","name":"ValidatorPendingExit","inputs":[{"name":"validator","type":"tuple","indexed":false,"internalType":"struct IConsensusRegistry.ValidatorInfo","components":[{"name":"validatorAddress","type":"address","internalType":"address"},{"name":"activationEpoch","type":"uint32","internalType":"uint32"},{"name":"exitEpoch","type":"uint32","internalType":"uint32"},{"name":"currentStatus","type":"uint8","internalType":"enum IConsensusRegistry.ValidatorStatus"},{"name":"isRetired","type":"bool","internalType":"bool"},{"name":"stakeVersion","type":"uint8","internalType":"uint8"},{"name":"region","type":"uint8","internalType":"uint8"}]}],"anonymous":false},{"type":"event","name":"ValidatorRegionUpdated","inputs":[{"name":"validatorAddress","type":"address","indexed":true,"internalType":"address"},{"name":"region","type":"uint8","indexed":false,"internalType":"uint8"}],"anonymous":false},{"type":"event","name":"ValidatorRetired","inputs":[{"name":"validator","type":"tuple","indexed":false,"internalType":"struct IConsensusRegistry.ValidatorInfo","components":[{"name":"validatorAddress","type":"address","internalType":"address"},{"name":"activationEpoch","type":"uint32","internalType":"uint32"},{"name":"exitEpoch","type":"uint32","internalType":"uint32"},{"name":"currentStatus","type":"uint8","internalType":"enum IConsensusRegistry.ValidatorStatus"},{"name":"isRetired","type":"bool","internalType":"bool"},{"name":"stakeVersion","type":"uint8","internalType":"uint8"},{"name":"region","type":"uint8","internalType":"uint8"}]}],"anonymous":false},{"type":"event","name":"ValidatorSlashed","inputs":[{"name":"slash","type":"tuple","indexed":false,"internalType":"struct Slash","components":[{"name":"validatorAddress","type":"address","internalType":"address"},{"name":"amount","type":"uint256","internalType":"uint256"}]}],"anonymous":false},{"type":"event","name":"ValidatorStakeVersionUpgraded","inputs":[{"name":"validatorAddress","type":"address","indexed":true,"internalType":"address"},{"name":"oldVersion","type":"uint8","indexed":false,"internalType":"uint8"},{"name":"newVersion","type":"uint8","indexed":false,"internalType":"uint8"},{"name":"oldStakeAmount","type":"uint256","indexed":false,"internalType":"uint256"},{"name":"newStakeAmount","type":"uint256","indexed":false,"internalType":"uint256"}],"anonymous":false},{"type":"event","name":"ValidatorStaked","inputs":[{"name":"validator","type":"tuple","indexed":false,"internalType":"struct IConsensusRegistry.ValidatorInfo","components":[{"name":"validatorAddress","type":"address","internalType":"address"},{"name":"activationEpoch","type":"uint32","internalType":"uint32"},{"name":"exitEpoch","type":"uint32","internalType":"uint32"},{"name":"currentStatus","type":"uint8","internalType":"enum IConsensusRegistry.ValidatorStatus"},{"name":"isRetired","type":"bool","internalType":"bool"},{"name":"stakeVersion","type":"uint8","internalType":"uint8"},{"name":"region","type":"uint8","internalType":"uint8"}]}],"anonymous":false},{"type":"error","name":"AlreadyDefined","inputs":[{"name":"validatorAddress","type":"address","internalType":"address"}]},{"type":"error","name":"BlsPubkeyNotFound","inputs":[{"name":"validatorAddress","type":"address","internalType":"address"}]},{"type":"error","name":"CommitteeRequirement","inputs":[{"name":"validatorAddress","type":"address","internalType":"address"}]},{"type":"error","name":"DuplicateBLSPubkey","inputs":[]},{"type":"error","name":"ERC721EnumerableForbiddenBatchMint","inputs":[]},{"type":"error","name":"ERC721IncorrectOwner","inputs":[{"name":"sender","type":"address","internalType":"address"},{"name":"tokenId","type":"uint256","internalType":"uint256"},{"name":"owner","type":"address","internalType":"address"}]},{"type":"error","name":"ERC721InsufficientApproval","inputs":[{"name":"operator","type":"address","internalType":"address"},{"name":"tokenId","type":"uint256","internalType":"uint256"}]},{"type":"error","name":"ERC721InvalidApprover","inputs":[{"name":"approver","type":"address","internalType":"address"}]},{"type":"error","name":"ERC721InvalidOperator","inputs":[{"name":"operator","type":"address","internalType":"address"}]},{"type":"error","name":"ERC721InvalidOwner","inputs":[{"name":"owner","type":"address","internalType":"address"}]},{"type":"error","name":"ERC721InvalidReceiver","inputs":[{"name":"receiver","type":"address","internalType":"address"}]},{"type":"error","name":"ERC721InvalidSender","inputs":[{"name":"sender","type":"address","internalType":"address"}]},{"type":"error","name":"ERC721NonexistentToken","inputs":[{"name":"tokenId","type":"uint256","internalType":"uint256"}]},{"type":"error","name":"ERC721OutOfBoundsIndex","inputs":[{"name":"owner","type":"address","internalType":"address"},{"name":"index","type":"uint256","internalType":"uint256"}]},{"type":"error","name":"EnforcedPause","inputs":[]},{"type":"error","name":"ExpectedPause","inputs":[]},{"type":"error","name":"GenesisArityMismatch","inputs":[]},{"type":"error","name":"IneligibleUnstake","inputs":[{"name":"validator","type":"tuple","internalType":"struct IConsensusRegistry.ValidatorInfo","components":[{"name":"validatorAddress","type":"address","internalType":"address"},{"name":"activationEpoch","type":"uint32","internalType":"uint32"},{"name":"exitEpoch","type":"uint32","internalType":"uint32"},{"name":"currentStatus","type":"uint8","internalType":"enum IConsensusRegistry.ValidatorStatus"},{"name":"isRetired","type":"bool","internalType":"bool"},{"name":"stakeVersion","type":"uint8","internalType":"uint8"},{"name":"region","type":"uint8","internalType":"uint8"}]}]},{"type":"error","name":"InsufficientRewards","inputs":[{"name":"withdrawAmount","type":"uint256","internalType":"uint256"}]},{"type":"error","name":"InvalidBLSPubkey","inputs":[]},{"type":"error","name":"InvalidCommitteeSize","inputs":[{"name":"minCommitteeSize","type":"uint256","internalType":"uint256"},{"name":"providedCommitteeSize","type":"uint256","internalType":"uint256"}]},{"type":"error","name":"InvalidDuration","inputs":[{"name":"duration","type":"uint32","internalType":"uint32"}]},{"type":"error","name":"InvalidEpoch","inputs":[{"name":"epoch","type":"uint32","internalType":"uint32"}]},{"type":"error","name":"InvalidProofOfPossession","inputs":[{"name":"proof","type":"tuple","internalType":"struct BlsG1.ProofOfPossession","components":[{"name":"uncompressedPubkey","type":"bytes","internalType":"bytes"},{"name":"uncompressedSignature","type":"bytes","internalType":"bytes"}]},{"name":"message","type":"bytes","internalType":"bytes"}]},{"type":"error","name":"InvalidStakeAmount","inputs":[{"name":"stakeAmount","type":"uint256","internalType":"uint256"}]},{"type":"error","name":"InvalidStakeVersion","inputs":[{"name":"currentVersion","type":"uint8","internalType":"uint8"},{"name":"targetVersion","type":"uint8","internalType":"uint8"}]},{"type":"error","name":"InvalidStatus","inputs":[{"name":"status","type":"uint8","internalType":"enum IConsensusRegistry.ValidatorStatus"}]},{"type":"error","name":"InvalidSupply","inputs":[]},{"type":"error","name":"InvalidTokenId","inputs":[{"name":"tokenId","type":"uint256","internalType":"uint256"}]},{"type":"error","name":"InvalidValidatorAddress","inputs":[]},{"type":"error","name":"IssuanceTransferFailed","inputs":[]},{"type":"error","name":"NotRecipient","inputs":[{"name":"recipient","type":"address","internalType":"address"}]},{"type":"error","name":"NotTransferable","inputs":[]},{"type":"error","name":"NotValidator","inputs":[{"name":"validatorAddress","type":"address","internalType":"address"}]},{"type":"error","name":"OnlySystemCall","inputs":[{"name":"invalidCaller","type":"address","internalType":"address"}]},{"type":"error","name":"OwnableInvalidOwner","inputs":[{"name":"owner","type":"address","internalType":"address"}]},{"type":"error","name":"OwnableUnauthorizedAccount","inputs":[{"name":"account","type":"address","internalType":"address"}]},{"type":"error","name":"Reentrancy","inputs":[]},{"type":"error","name":"RequiresConsensusNFT","inputs":[]},{"type":"error","name":"StringsInsufficientHexLength","inputs":[{"name":"value","type":"uint256","internalType":"uint256"},{"name":"length","type":"uint256","internalType":"uint256"}]}],"bytecode":{"object":"0x610120604052348015610010575f80fd5b5060405161858438038061858483398101604081905261002f9161142b565b806040518060400160405280600c81526020016b10dbdb9cd95b9cdd5cd3919560a21b8152506040518060400160405280600481526020016310d3919560e21b8152508181815f90816100829190611597565b50600161008f8282611597565b505030608052504660a0526060806100ef604080518082018252601481527f54656c636f696e205374616b654d616e61676572000000000000000000000000602080830191909152825180840190935260018352603160f81b9083015291565b815160209283012081519183019190912060c082905260e0819052604080517f8b73c3c69bb8fe3d512ecc4cf759cc79239f7b179b0ffacaa9a75d522b39400f8152938401929092529082015246606082015230608082015260a09020610100525050600d805461ff001916905550506001600160a01b03811661018d57604051631e4fbdf760e01b81525f60048201526024015b60405180910390fd5b610196816107fb565b50835115806101a757508251845114155b806101b457508151845114155b156101d257604051633aa3e03360e01b815260040160405180910390fd5b5f808052600a602090815286517f13da86008ba1c6922daee3e07db95305ef49ebced9f5467a0b8613fcc6b343e3558601517f13da86008ba1c6922daee3e07db95305ef49ebced9f5467a0b8613fcc6b343e45560408601517f13da86008ba1c6922daee3e07db95305ef49ebced9f5467a0b8613fcc6b343e55560608601517f13da86008ba1c6922daee3e07db95305ef49ebced9f5467a0b8613fcc6b343e6805463ffffffff191663ffffffff9092169190911790558451600d805461ffff60d81b1916600160d81b61ffff909316929092029190911790555b600281116103b8575f601182600481106102ca576102ca611651565b6003020160028101805460608a0151600160401b600160801b03199091166801000000000000000063ffffffff8781169190910263ffffffff60601b1916919091176c0100000000000000000000000091909216021790556040880151600182015590505f601d836004811061034257610342611651565b6003020160028101805460608b0151600160401b600160801b03199091166801000000000000000063ffffffff8881169190910263ffffffff60601b1916919091176c0100000000000000000000000091909216021790556040890151600190910155506103b1905081611679565b90506102ae565b505f5b84518110156107f0575f8582815181106103d7576103d7611651565b602002602001015190505f6104288584815181106103f7576103f7611651565b6020026020010151835f015188868151811061041557610415611651565b602002602001015161085660201b60201c565b82519091506001600160a01b03166104535760405163713ce51160e01b815260040160405180910390fd5b602082015163ffffffff161561048a576020820151604051634fadd4d360e11b815263ffffffff9091166004820152602401610184565b604082015163ffffffff16156104c1576040808301519051634fadd4d360e11b815263ffffffff9091166004820152602401610184565b6003826060015160068111156104d9576104d9611691565b146104fd578160600151604051633ba7bf8960e11b815260040161018491906116c5565b608082015115610523576005604051633ba7bf8960e11b815260040161018491906116c5565b60a082015160ff16156105545760a082015160405163222d164360e21b815260ff9091166004820152602401610184565b5f5b6002811161060a576011816004811061057157610571611651565b84516003919091029190910180546001810182555f91825260209091200180546001600160a01b0319166001600160a01b03909216919091179055601d81600481106105bf576105bf611651565b84516003919091029190910180546001810182555f91825260209091200180546001600160a01b0319166001600160a01b0390921691909117905561060381611679565b9050610556565b5085838151811061061d5761061d611651565b60209081029190910181015183516001600160a01b03165f908152602990925260409091209061064d9082611597565b5081516001600160a01b039081165f908152600f602090815260409182902085518154928701519387015163ffffffff908116600160c01b0263ffffffff60c01b1991909516600160a01b026001600160c01b0319909416919095161791909117928316821781556060850151859391929091839160ff60e01b191664ffffffffff60c01b1990911617600160e01b8360068111156106ee576106ee611691565b02179055506080820151815460a084015160c09094015161ffff60e81b19909116600160e81b9215159290920260ff60f01b191691909117600160f01b60ff94851602176001600160f81b0316600160f81b9390911692909202919091179055875182516001600160a01b039081165f908152600b60209081526040808320949094558551858352601090915292902080546001600160a01b0319169290911691909117905581516107af906107aa816001600160a01b031690565b610935565b7fabab4191fe954f07230f7e34fd48dc0fdcbed492526cd060001cccceab22851b826040516107de91906116d3565b60405180910390a150506001016103bb565b5050505050506118a7565b600d80546001600160a01b038381166201000081810262010000600160b01b031985161790945560405193909204169182907f8be0079c531659141344cd1fd0a4f28419497f9722a3daafe3b4186f6b6457e0905f90a35050565b5f8151606014610879576040516333a234f960e11b815260040160405180910390fd5b6020840151845160405163071917cf60e01b815273__$2ef4e8110a3eaa1255da7f08f8eebcbf5a$__9263071917cf926108b792889060040161177b565b602060405180830381865af41580156108d2573d5f803e3d5ffd5b505050506040513d601f19601f820116820180604052508101906108f691906117b8565b6109235783518490610908908561099b565b604051634babb8f160e01b81526004016101849291906117d1565b61092d8284610a21565b949350505050565b6001600160a01b03821661095e57604051633250574960e11b81525f6004820152602401610184565b5f61096a838383610a90565b90506001600160a01b03811615610996576040516339e3563760e11b81525f6004820152602401610184565b505050565b604051636850eb3160e01b815260609073__$2ef4e8110a3eaa1255da7f08f8eebcbf5a$__90636850eb31906109d79086908690600401611826565b5f60405180830381865af41580156109f1573d5f803e3d5ffd5b505050506040513d5f823e601f3d908101601f19168201604052610a18919081019061184f565b90505b92915050565b81516020808401919091205f81815260109092526040909120546001600160a01b031615610a6257604051638d12779f60e01b815260040160405180910390fd5b5f81815260106020526040902080546001600160a01b0384166001600160a01b031990911617905592915050565b5f80610a9d858585610b5b565b90506001600160a01b038116610af957610af484600880545f838152600960205260408120829055600182018355919091527ff3f7a9fe364faab93b216da50a3214154f22a0a2b415b23a84c8169e8b636ee30155565b610b1c565b846001600160a01b0316816001600160a01b031614610b1c57610b1c8185610c4d565b6001600160a01b038516610b3857610b3384610cca565b61092d565b846001600160a01b0316816001600160a01b03161461092d5761092d8585610d71565b5f828152600260205260408120546001600160a01b0390811690831615610b8757610b87818486610dbf565b6001600160a01b03811615610bc157610ba25f858180610e23565b6001600160a01b0381165f90815260036020526040902080545f190190555b6001600160a01b03851615610bef576001600160a01b0385165f908152600360205260409020805460010190555b5f8481526002602052604080822080546001600160a01b0319166001600160a01b0389811691821790925591518793918516917fddf252ad1be2c89b69c2b068fc378daa952ba7f163c4a11628f55a4df523b3ef91a4949350505050565b5f610c5783610f45565b5f838152600760209081526040808320546001600160a01b0388168452600690925290912091925090818314610cac575f83815260208281526040808320548584528184208190558352600790915290208290555b5f938452600760209081526040808620869055938552525081205550565b6008545f90610cdb90600190611880565b5f8381526009602052604081205460088054939450909284908110610d0257610d02611651565b905f5260205f20015490508060088381548110610d2157610d21611651565b5f918252602080832090910192909255828152600990915260408082208490558582528120556008805480610d5857610d58611893565b600190038181905f5260205f20015f9055905550505050565b5f6001610d7d84610f45565b610d879190611880565b6001600160a01b039093165f908152600660209081526040808320868452825280832085905593825260079052919091209190915550565b610dca838383610f8a565b610996576001600160a01b038316610df857604051637e27328960e01b815260048101829052602401610184565b60405163177e802f60e01b81526001600160a01b038316600482015260248101829052604401610184565b8080610e3757506001600160a01b03821615155b15610f16575f610e468461100a565b90506001600160a01b03831615801590610e725750826001600160a01b0316816001600160a01b031614155b8015610ea357506001600160a01b038082165f9081526005602090815260408083209387168352929052205460ff16155b15610ecc5760405163a9fbf51f60e01b81526001600160a01b0384166004820152602401610184565b8115610f145783856001600160a01b0316826001600160a01b03167f8c5be1e5ebec7d5bd14f71427d1e84f3dd0314c0f7b2291e5b200ac8c7c3b92560405160405180910390a45b505b50505f90815260046020526040902080546001600160a01b0319166001600160a01b0392909216919091179055565b5f6001600160a01b038216610f6f576040516322718ad960e21b81525f6004820152602401610184565b506001600160a01b03165f9081526003602052604090205490565b5f6001600160a01b0383161580159061092d5750826001600160a01b0316846001600160a01b03161480610fe257506001600160a01b038085165f9081526005602090815260408083209387168352929052205460ff165b8061092d5750505f908152600460205260409020546001600160a01b03908116911614919050565b5f818152600260205260408120546001600160a01b031680610a1b57604051637e27328960e01b815260048101849052602401610184565b634e487b7160e01b5f52604160045260245ffd5b60405160e081016001600160401b038111828210171561107857611078611042565b60405290565b604080519081016001600160401b038111828210171561107857611078611042565b604051608081016001600160401b038111828210171561107857611078611042565b604051601f8201601f191681016001600160401b03811182821017156110ea576110ea611042565b604052919050565b805163ffffffff81168114611105575f80fd5b919050565b5f6001600160401b0382111561112257611122611042565b5060051b60200190565b80516001600160a01b0381168114611105575f80fd5b80518015158114611105575f80fd5b805160ff81168114611105575f80fd5b5f82601f830112611170575f80fd5b815161118361117e8261110a565b6110c2565b80828252602082019150602060e084028601019250858311156111a4575f80fd5b602085015b8381101561124e5760e081880312156111c0575f80fd5b6111c8611056565b6111d18261112c565b81526111df602083016110f2565b60208201526111f0604083016110f2565b6040820152606082015160078110611206575f80fd5b606082015261121760808301611142565b608082015261122860a08301611151565b60a082015261123960c08301611151565b60c0820152835260209092019160e0016111a9565b5095945050505050565b5f82601f830112611267575f80fd5b81516001600160401b0381111561128057611280611042565b611293601f8201601f19166020016110c2565b8181528460208386010111156112a7575f80fd5b8160208501602083015e5f918101602001919091529392505050565b5f82601f8301126112d2575f80fd5b81516112e061117e8261110a565b8082825260208201915060208360051b860101925085831115611301575f80fd5b602085015b8381101561124e5780516001600160401b03811115611323575f80fd5b611332886020838a0101611258565b84525060209283019201611306565b5f82601f830112611350575f80fd5b815161135e61117e8261110a565b8082825260208201915060208360051b86010192508583111561137f575f80fd5b602085015b8381101561124e5780516001600160401b038111156113a1575f80fd5b86016040818903601f190112156113b6575f80fd5b6113be61107e565b60208201516001600160401b038111156113d6575f80fd5b6113e58a602083860101611258565b82525060408201516001600160401b03811115611400575f80fd5b61140f8a602083860101611258565b6020830152508085525050602083019250602081019050611384565b5f805f805f858703610100811215611441575f80fd5b608081121561144e575f80fd5b506114576110a0565b86518152602080880151908201526040808801519082015261147b606088016110f2565b606082015260808701519095506001600160401b0381111561149b575f80fd5b6114a788828901611161565b60a088015190955090506001600160401b038111156114c4575f80fd5b6114d0888289016112c3565b60c088015190945090506001600160401b038111156114ed575f80fd5b6114f988828901611341565b92505061150860e0870161112c565b90509295509295909350565b600181811c9082168061152857607f821691505b60208210810361154657634e487b7160e01b5f52602260045260245ffd5b50919050565b601f82111561099657805f5260205f20601f840160051c810160208510156115715750805b601f840160051c820191505b81811015611590575f815560010161157d565b5050505050565b81516001600160401b038111156115b0576115b0611042565b6115c4816115be8454611514565b8461154c565b6020601f8211600181146115f6575f83156115df5750848201515b5f19600385901b1c1916600184901b178455611590565b5f84815260208120601f198516915b828110156116255787850151825560209485019460019092019101611605565b508482101561164257868401515f19600387901b60f8161c191681555b50505050600190811b01905550565b634e487b7160e01b5f52603260045260245ffd5b634e487b7160e01b5f52601160045260245ffd5b5f6001820161168a5761168a611665565b5060010190565b634e487b7160e01b5f52602160045260245ffd5b600781106116c157634e487b7160e01b5f52602160045260245ffd5b9052565b60208101610a1b82846116a5565b5f60e08201905060018060a01b03835116825263ffffffff602084015116602083015263ffffffff6040840151166040830152606083015161171860608401826116a5565b5060808301511515608083015260ff60a08401511660a083015260c083015161174660c084018260ff169052565b5092915050565b5f81518084528060208401602086015e5f602082860101526020601f19601f83011685010191505092915050565b606081525f61178d606083018661174d565b828103602084015261179f818661174d565b91505060018060a01b0383166040830152949350505050565b5f602082840312156117c8575f80fd5b610a1882611142565b604081525f83516040808401526117eb608084018261174d565b90506020850151603f19848303016060850152611808828261174d565b915050828103602084015261181d818561174d565b95945050505050565b604081525f611838604083018561174d565b905060018060a01b03831660208301529392505050565b5f6020828403121561185f575f80fd5b81516001600160401b03811115611874575f80fd5b61092d84828501611258565b81810381811115610a1b57610a1b611665565b634e487b7160e01b5f52603160045260245ffd5b60805160a05160c05160e05161010051616ca06118e45f395f6140e501525f61419f01525f61417901525f61412901525f6141060152616ca05ff3fe6080604052600436106103b2575f3560e01c80636a926591116101e9578063a0201be511610108578063c87b56dd1161009d578063f06247681161006d578063f062476814610b7e578063f2888dbb14610b9d578063f2fde38b14610bbc578063fa52c7d814610bdb575f80fd5b8063c87b56dd14610af4578063e3716d0414610b13578063e985e9c514610b32578063eb8535c214610b51575f80fd5b8063b88d4fde116100d8578063b88d4fde14610a71578063b97dd9e214610a90578063babc394f14610ac1578063c05df7ac14610ad5575f80fd5b8063a0201be514610a06578063a22cb46514610a25578063a71954ec14610a3f578063b518432414610a5e575f80fd5b80638456cb591161017e5780638bb43f3a1161014e5780638bb43f3a146109905780638cc05eda146109a35780638da5cb5b146109cf57806395d89b41146109f2575f80fd5b80638456cb591461090f57806384b0196e14610923578063863623bb1461094a57806389afcb4414610971575f80fd5b8063715018a6116101b9578063715018a61461087057806379ee54f7146108845780637b55a300146108a35780637d06fdf8146108c2575f80fd5b80636a926591146107e75780636ae9942c146108065780636d3c62751461083257806370a0823114610851575f80fd5b80633434735f116102d557806359ca93b61161026a5780636352211e1161023a5780636352211e1461076457806367398331146107835780636850eb31146107a95780636a627842146107c8575f80fd5b806359ca93b6146106f75780635a41fb1f146107165780635c975abb1461072957806362fcde4b14610745575f80fd5b80633e28391d116102a55780633e28391d146106865780633f4ba83a146106a557806342842e0e146106b95780634f6ccce7146106d8575f80fd5b80633434735f146105dd578063355811a7146105f7578063374ed18c146105ff5780633894228e1461062b575f80fd5b80630f15f4c01161034b5780632228dfa01161031b5780632228dfa01461057157806323b872dd146105855780632b9f49851461059f5780632f745c59146105be575f80fd5b80630f15f4c0146104e357806315b5709a146104f757806318160ddd146105315780631904bb2e14610545575f80fd5b806306fdde031161038657806306fdde031461045a578063081812fc1461046e578063095ea7b3146104a55780630a36cdef146104c4575f80fd5b80628d6acd146103b657806301ffc9a7146103de57806302ae337b1461040d578063059b916c1461042e575b5f80fd5b3480156103c1575f80fd5b506103cb600e5481565b6040519081526020015b60405180910390f35b3480156103e9575f80fd5b506103fd6103f8366004615650565b610c66565b60405190151581526020016103d5565b348015610418575f80fd5b5061042c6104273660046156b2565b610c90565b005b348015610439575f80fd5b5061044d610448366004615706565b610de6565b6040516103d5919061574d565b348015610465575f80fd5b5061044d610eb7565b348015610479575f80fd5b5061048d61048836600461575f565b610f46565b6040516001600160a01b0390911681526020016103d5565b3480156104b0575f80fd5b5061042c6104bf366004615776565b610f6d565b3480156104cf575f80fd5b5061042c6104de3660046156b2565b610f86565b3480156104ee575f80fd5b5061042c6111d5565b348015610502575f80fd5b50610516610511366004615706565b61121e565b604080519384526020840192909252908201526060016103d5565b34801561053c575f80fd5b506008546103cb565b348015610550575f80fd5b5061056461055f366004615706565b611284565b6040516103d5919061583e565b34801561057c575f80fd5b5061042c611367565b348015610590575f80fd5b5061042c6104bf36600461584c565b3480156105aa575f80fd5b5061042c6105b9366004615706565b611429565b3480156105c9575f80fd5b506103cb6105d8366004615776565b611541565b3480156105e8575f80fd5b5061048d6002600160a01b0381565b61042c6115a4565b34801561060a575f80fd5b5061061e610619366004615897565b611626565b6040516103d591906158b2565b348015610636575f80fd5b5061064a61064536600461575f565b6117c5565b604080519586526001600160401b03909416602086015263ffffffff9283169385019390935216606083015260ff16608082015260a0016103d5565b348015610691575f80fd5b506103fd6106a0366004615706565b611819565b3480156106b0575f80fd5b5061042c61183f565b3480156106c4575f80fd5b5061042c6106d336600461584c565b611851565b3480156106e3575f80fd5b506103cb6106f236600461575f565b61186b565b348015610702575f80fd5b5061064a61071136600461575f565b6118c0565b61042c610724366004615979565b6118cf565b348015610734575f80fd5b50600d54610100900460ff166103fd565b348015610750575f80fd5b5061042c61075f3660046159aa565b611d74565b34801561076f575f80fd5b5061048d61077e36600461575f565b611e80565b34801561078e575f80fd5b50610797611e8a565b60405160ff90911681526020016103d5565b3480156107b4575f80fd5b5061044d6107c3366004615a87565b611e9c565b3480156107d3575f80fd5b5061042c6107e2366004615706565b611f20565b3480156107f2575f80fd5b506103fd610801366004615b05565b611f7e565b348015610811575f80fd5b50610825610820366004615897565b611ff6565b6040516103d59190615b37565b34801561083d575f80fd5b506103fd61084c366004615706565b612152565b34801561085c575f80fd5b506103cb61086b366004615706565b6121d6565b34801561087b575f80fd5b5061042c61221b565b34801561088f575f80fd5b506103cb61089e366004615706565b61222c565b3480156108ae575f80fd5b5061042c6108bd366004615b9a565b61226e565b3480156108cd575f80fd5b506108d66123e4565b6040516103d5919081518152602080830151908201526040808301519082015260609182015163ffffffff169181019190915260800190565b34801561091a575f80fd5b5061042c612461565b34801561092e575f80fd5b50610937612471565b6040516103d59796959493929190615c09565b348015610955575f80fd5b5061048d7307a07a07a07a07a07a07a07a07a07a07a07a07a081565b34801561097c575f80fd5b5061042c61098b366004615706565b6124d8565b61042c61099e366004615d2c565b612588565b3480156109ae575f80fd5b506109c26109bd366004615dd3565b6127fa565b6040516103d59190615df1565b3480156109da575f80fd5b50600d546201000090046001600160a01b031661048d565b3480156109fd575f80fd5b5061044d612838565b348015610a11575f80fd5b506109c2610a20366004615897565b612847565b348015610a30575f80fd5b5061042c6104bf366004615e4b565b348015610a4a575f80fd5b506108d6610a59366004615e80565b612900565b61042c610a6c366004615e99565b61297a565b348015610a7c575f80fd5b5061042c610a8b366004615f00565b612a07565b348015610a9b575f80fd5b50600d54600160b01b900463ffffffff1660405163ffffffff90911681526020016103d5565b348015610acc575f80fd5b5061061e612a1f565b348015610ae0575f80fd5b50610797610aef366004615f63565b612b2c565b348015610aff575f80fd5b5061044d610b0e36600461575f565b612be2565b348015610b1e575f80fd5b506103cb610b2d366004615f7c565b612c52565b348015610b3d575f80fd5b506103fd610b4c366004615fd5565b612d0a565b348015610b5c575f80fd5b50600d54600160d81b900461ffff1660405161ffff90911681526020016103d5565b348015610b89575f80fd5b5061042c610b98366004615979565b612d37565b348015610ba8575f80fd5b5061042c610bb7366004615706565b612db6565b348015610bc7575f80fd5b5061042c610bd6366004615706565b612ed9565b348015610be6575f80fd5b50610c53610bf5366004615706565b600f6020525f90815260409020546001600160a01b0381169063ffffffff600160a01b8204811691600160c01b81049091169060ff600160e01b8204811691600160e81b8104821691600160f01b8204811691600160f81b90041687565b6040516103d59796959493929190615ffd565b5f6001600160e01b0319821663780e9d6360e01b1480610c8a5750610c8a82612f13565b92915050565b336002600160a01b0314610cbe57604051637eb3357160e01b81523360048201526024015b60405180910390fd5b5f5b81811015610de15736838383818110610cdb57610cdb616050565b604002919091019150610cf6905061084c6020830183615706565b15610d015750610dd9565b60208101803590600b905f90610d179085615706565b6001600160a01b03166001600160a01b031681526020019081526020015f20541115610d8b5760208101803590600b905f90610d539085615706565b6001600160a01b03166001600160a01b031681526020019081526020015f205f828254610d809190616078565b90915550610da09050565b610da0610d9b6020830183615706565b612f62565b7f11a09f9b32440d896abff7453bf53f8b26ffcb18dae4dca227f7a76e2acc3a6481604051610dcf919061608b565b60405180910390a1505b600101610cc0565b505050565b6001600160a01b0381165f90815260296020526040812080546060929190610e0d906160b4565b80601f0160208091040260200160405190810160405280929190818152602001828054610e39906160b4565b8015610e845780601f10610e5b57610100808354040283529160200191610e84565b820191905f5260205f20905b815481529060010190602001808311610e6757829003601f168201915b5050505050905080515f03610c8a57604051635f7ba20d60e11b81526001600160a01b0384166004820152602401610cb5565b60605f8054610ec5906160b4565b80601f0160208091040260200160405190810160405280929190818152602001828054610ef1906160b4565b8015610f3c5780601f10610f1357610100808354040283529160200191610f3c565b820191905f5260205f20905b815481529060010190602001808311610f1f57829003601f168201915b5050505050905090565b5f610f50826130ad565b505f828152600460205260409020546001600160a01b0316610c8a565b60405163dc8d8db760e01b815260040160405180910390fd5b336002600160a01b0314610faf57604051637eb3357160e01b8152336004820152602401610cb5565b5f80826001600160401b03811115610fc957610fc96159cb565b604051908082528060200260200182016040528015610ff2578160200160208202803683370190505b5090505f5b838110156110d6573685858381811061101257611012616050565b905060400201905080602001355f0361102b57506110ce565b61103b61084c6020830183615706565b1561104657506110ce565b5f600f816110576020850185615706565b6001600160a01b0316815260208082019290925260409081015f90812054600160f01b900460ff16808252600a845291812054919350909161109c90850135836160ec565b90506110a88188616103565b9650808686815181106110bd576110bd616050565b602002602001018181525050505050505b600101610ff7565b50815f036110e45750505050565b5f6110ed612a1f565b6020015190505f600e54826111029190616103565b90505f805b868110156111bd575f8686838151811061112357611123616050565b60200260200101518561113691906160ec565b611140919061612a565b905080156111b45780600b5f8b8b8681811061115e5761115e616050565b6111749260206040909202019081019150615706565b6001600160a01b03166001600160a01b031681526020019081526020015f205f8282546111a19190616103565b909155506111b190508184616103565b92505b50600101611107565b506111c88183616078565b600e5550505050505b5050565b6111dd6130e5565b6111e63361310e565b506111f233600161317c565b335f908152600f60205260409020600d5461121b908290600160b01b900463ffffffff166131e2565b50565b6001600160a01b0381165f908152600f6020908152604080832054600160f01b900460ff16808452600a909252822054829182918261125d878361325b565b6001600160a01b03979097165f908152600b60205260409020549791969550909350505050565b61128c615589565b6001600160a01b0382165f908152600f602052604090208054600160e81b900460ff166112be576112bc8361310e565b505b6040805160e08101825282546001600160a01b038116825263ffffffff600160a01b820481166020840152600160c01b82041692820192909252908290606083019060ff600160e01b90910416600681111561131c5761131c61579e565b600681111561132d5761132d61579e565b8152905460ff600160e81b8204811615156020840152600160f01b820481166040840152600160f81b909104166060909101529392505050565b61136f6130e5565b6113783361310e565b505f6113846003613294565b51600d549091505f90601190600160d01b900460ff16600481106113aa576113aa616050565b600302015490506113bb82826134a4565b6113c633600361317c565b335f908152600f60205260409020600d54815463ffffffff600160b01b909204821691600160a01b9091041681101561141a57604051634fadd4d360e11b815263ffffffff82166004820152602401610cb5565b611423826134e1565b50505050565b6114316130e5565b3068929eee149b4bd21268540361144f5763ab143c065f526004601cfd5b3068929eee149b4bd21268556114648161310e565b506001600160a01b0381165f908152600f6020526040812054600160f01b900460ff169061149183613535565b9050336001600160a01b038416148015906114b55750336001600160a01b03821614155b156114de5760405163172b4e7560e11b81526001600160a01b0382166004820152602401610cb5565b5f6114ea848385613564565b9050816001600160a01b03167ffc30cddea38e2bf4d6ea7d3f9ed3b6ad7f176419f4963bd81318067a4aee73fe8260405161152791815260200190565b60405180910390a25050503868929eee149b4bd212685550565b5f61154b836121d6565b821061157c5760405163295f44f760e21b81526001600160a01b038416600482015260248101839052604401610cb5565b506001600160a01b03919091165f908152600660209081526040808320938352929052205490565b6115ac613619565b6040515f907307a07a07a07a07a07a07a07a07a07a07a07a07a09034908381818185875af1925050503d805f81146115ff576040519150601f19603f3d011682016040523d82523d5f602084013e611604565b606091505b505090508061121b57604051630b567ce360e31b815260040160405180910390fd5b6040805160c08101825260608082525f6020830181905292820183905281018290526080810182905260a0810191909152600d54600160b01b900463ffffffff1661167281600261613d565b63ffffffff168363ffffffff1611806116b2575060038163ffffffff16101580156116b257506116a3600382616159565b63ffffffff168363ffffffff16105b156116d857604051634fadd4d360e11b815263ffffffff84166004820152602401610cb5565b600d54600160d01b900460ff1663ffffffff82811690851611156117ba5761170184838361364d565b60408051825460e0602082028301810190935260c08201818152919392849291849184018282801561175a57602002820191905f5260205f20905b81546001600160a01b0316815260019091019060200180831161173c575b5050509183525050600182015460208201526002909101546001600160401b038116604083015263ffffffff600160401b820481166060840152600160601b820416608083015260ff600160801b9091041660a090910152949350505050565b6117018483836136d7565b601181600481106117d4575f80fd5b6003020160018101546002909101549091506001600160401b03811690600160401b810463ffffffff90811691600160601b810490911690600160801b900460ff1685565b6001600160a01b038082165f908152600c60205260408120600201549091161515610c8a565b611847613619565b61184f613778565b565b610de183838360405180602001604052805f815250612a07565b5f61187560085490565b821061189d5760405163295f44f760e21b81525f600482015260248101839052604401610cb5565b600882815481106118b0576118b0616050565b905f5260205f2001549050919050565b601d81600481106117d4575f80fd5b6118d76130e5565b3068929eee149b4bd2126854036118f55763ab143c065f526004601cfd5b3068929eee149b4bd212685561190a8261310e565b505f61191583613535565b9050336001600160a01b038416148015906119395750336001600160a01b03821614155b156119625760405163172b4e7560e11b81526001600160a01b0382166004820152602401610cb5565b6001600160a01b0383165f908152600f602052604090208054600160e01b900460ff1660018160068111156119995761199961579e565b141580156119b9575060028160068111156119b6576119b661579e565b14155b80156119d7575060038160068111156119d4576119d461579e565b14155b156119f75780604051633ba7bf8960e11b8152600401610cb59190616175565b815460ff600160f01b909104811690851681101580611a1e5750600d5460ff908116908616115b15611a4957604051633abb443b60e21b815260ff808316600483015286166024820152604401610cb5565b60ff8082165f908152600a602052604080822054928816825290205481811115611acf575f611a788383616078565b9050803414611a9c5760405163222d164360e21b8152346004820152602401610cb5565b6001600160a01b0389165f908152600b602052604081208054839290611ac3908490616103565b90915550611c9e915050565b81811015611c7d573415611af85760405163222d164360e21b8152346004820152602401610cb5565b5f611b038284616078565b6001600160a01b038a165f908152600b6020526040812054919250848210611b2c575081611b41565b83821115611b4157611b3e8483616078565b90505b8015611be5576001600160a01b038b165f908152600b602052604081208054839290611b6e908490616078565b9091555050604051634875485760e11b81526001600160a01b038a1660048201525f60248201527307a07a07a07a07a07a07a07a07a07a07a07a07a0906390ea90ae9083906044015f604051808303818588803b158015611bcd575f80fd5b505af1158015611bdf573d5f803e3d5ffd5b50505050505b5f611bf08285616078565b90508015611c74576040515f907307a07a07a07a07a07a07a07a07a07a07a07a07a09083908381818185875af1925050503d805f8114611c4b576040519150601f19603f3d011682016040523d82523d5f602084013e611c50565b606091505b5050905080611c7257604051630b567ce360e31b815260040160405180910390fd5b505b50505050611c9e565b3415611c9e5760405163222d164360e21b8152346004820152602401610cb5565b845460ff60f01b1916600160f01b60ff8916021785556001600160a01b038089165f908152600c60205260409020600201541615611d07576001600160a01b0388165f908152600c60205260409020600201805460ff60a01b1916600160a01b60ff8a16021790555b6040805160ff808616825289166020820152908101839052606081018290526001600160a01b038916907f27f993440568bc502fe7db72fe27118488431975dc3239b379513a4cdb08e2c99060800160405180910390a25050505050503868929eee149b4bd21268555050565b611d7c613619565b8061ffff165f03611dcf57600d54601190600160d01b900460ff1660048110611da757611da7616050565b6003020154604051635700689f60e11b815260048101919091525f6024820152604401610cb5565b5f611dda6003613294565b905080518261ffff161115611e12578051604051635700689f60e11b8152600481019190915261ffff83166024820152604401610cb5565b600d805461ffff848116600160d81b81810261ffff60d81b1985161790945584516040805195909404909216808552602085019190915291830152907f74cf7ca84b30b723e8b6e3cc569ec2db21f4ba2fcc09d651e5ce6770b91552f99060600160405180910390a1505050565b5f610c8a826130ad565b5f611e93612a1f565b60a00151905090565b604051636850eb3160e01b815260609073__$2ef4e8110a3eaa1255da7f08f8eebcbf5a$__90636850eb3190611ed89086908690600401616183565b5f60405180830381865af4158015611ef2573d5f803e3d5ffd5b505050506040513d5f823e601f3d908101601f19168201604052611f1991908101906161ac565b9392505050565b611f28613619565b611f31816121d6565b151580611f425750611f4281612152565b15611f6b57604051639fb0877960e01b81526001600160a01b0382166004820152602401610cb5565b61121b816001600160a01b0381166137cb565b5f60608214611f8e57505f610c8a565b5f8383604051611f9f929190616220565b60408051918290039091205f818152601060205291909120549091506001600160a01b031680611fd3575f92505050610c8a565b611fdc81612152565b15611feb575f92505050610c8a565b506001949350505050565b60605f61200283611626565b5f015190505f81516001600160401b03811115612021576120216159cb565b60405190808252806020026020018201604052801561205457816020015b606081526020019060019003908161203f5790505b5090505f5b815181101561214a5760295f84838151811061207757612077616050565b60200260200101516001600160a01b03166001600160a01b031681526020019081526020015f2080546120a9906160b4565b80601f01602080910402602001604051908101604052809291908181526020018280546120d5906160b4565b80156121205780601f106120f757610100808354040283529160200191612120565b820191905f5260205f20905b81548152906001019060200180831161210357829003601f168201915b505050505082828151811061213757612137616050565b6020908102919091010152600101612059565b509392505050565b5f6121656001600160a01b03831661382c565b1561217157505f919050565b5f6001600160a01b0383165f908152600f6020526040902054600160e01b900460ff1660068111156121a5576121a561579e565b036121b157505f919050565b506001600160a01b03165f908152600f6020526040902054600160e81b900460ff1690565b5f6001600160a01b038216612200576040516322718ad960e21b81525f6004820152602401610cb5565b506001600160a01b03165f9081526003602052604090205490565b612223613619565b61184f5f61387f565b6001600160a01b0381165f908152600f6020908152604080832054600160f01b900460ff16808452600a909252822054612266848261325b565b949350505050565b336002600160a01b031461229757604051637eb3357160e01b8152336004820152602401610cb5565b6122a182826138da565b600d54600160d81b900461ffff1681146122e557600d54604051635700689f60e11b8152600160d81b90910461ffff16600482015260248101829052604401610cb5565b5f805f806123248686808060200260200160405190810160405280939291908181526020018383602002808284375f920191909152506139b192505050565b9350935093509350612337868686613cd6565b5f6123426003613294565b805190915061235190876134a4565b7fd1a5032a9ae65ebe520eba7974025750af3d884b6ab6047dad04dcf7006ab3856040518060c001604052808481526020018681526020014360016123969190616103565b6001600160401b0316815263ffffffff80891660208301528616604080830191909152600d5460ff16606090920191909152516123d391906158b2565b60405180910390a150505050505050565b61241160405180608001604052805f81526020015f81526020015f81526020015f63ffffffff1681525090565b50600d5460ff165f908152600a602090815260409182902082516080810184528154815260018201549281019290925260028101549282019290925260039091015463ffffffff16606082015290565b612469613619565b61184f613f18565b600f60f81b6060805f8080836124c660408051808201825260148152732a32b631b7b4b71029ba30b5b2a6b0b730b3b2b960611b602080830191909152825180840190935260018352603160f81b9083015291565b97989097965046955030945091925090565b6124e0613619565b6124e981612152565b1561250a576006604051633ba7bf8960e11b8152600401610cb59190616175565b6125138161310e565b505f6001600160a01b0382165f908152600f6020526040902054600160e01b900460ff1660068111156125485761254861579e565b0361257f576001600160a01b0381165f908152600f6020526040902061256d90613f57565b61121b6001600160a01b038216613f99565b61121b81612f62565b6125906130e5565b5f6125d1858589898080601f0160208091040260200160405190810160405280939291908181526020018383808284375f92019190915250613fd192505050565b90505f6125dc612a1f565b60a0015190505f6125ed34836140a8565b90506125f88661310e565b50612603865f61317c565b6001600160a01b0386165f908152600c60205260409020600201546001600160401b03600160a81b90910416612648600d546001600160a01b03620100009091041690565b6001600160a01b0316336001600160a01b0316146126f7575f7f9a361e91fa9aa610b5edf1d5c1cc20b9646c4228f3c004354ed2de7635dac994858933878660405160200161269c9695949392919061622f565b6040516020818303038152906040528051906020012090505f6126be826140e3565b90506126cc89828a8a6141f9565b6126f457604051633b4f6e2b60e21b81526001600160a01b038a166004820152602401610cb5565b50505b6040518060a00160405280858152602001886001600160a01b03168152602001336001600160a01b031681526020018460ff16815260200182600161273c919061626d565b6001600160401b039081169091526001600160a01b038981165f908152600c602090815260409182902085518155908501516001820180546001600160a01b03191691851691909117905590840151600290910180546060860151608090960151929093166001600160a81b031990931692909217600160a01b60ff909516949094029390931767ffffffffffffffff60a81b1916600160a81b93909216929092021790556127ee8a8a8986866142cc565b50505050505050505050565b60605f82600681111561280f5761280f61579e565b0361282f5781604051633ba7bf8960e11b8152600401610cb59190616175565b610c8a82613294565b606060018054610ec5906160b4565b60605f61285383611626565b5f015190505f81516001600160401b03811115612872576128726159cb565b6040519080825280602002602001820160405280156128ab57816020015b612898615589565b8152602001906001900390816128905790505b5090505f5b815181101561214a576128db8382815181106128ce576128ce616050565b6020026020010151611284565b8282815181106128ed576128ed616050565b60209081029190910101526001016128b0565b61292d60405180608001604052805f81526020015f81526020015f81526020015f63ffffffff1681525090565b5060ff165f908152600a602090815260409182902082516080810184528154815260018201549281019290925260028101549282019290925260039091015463ffffffff16606082015290565b6129826130e5565b6129c2813385858080601f0160208091040260200160405190810160405280939291908181526020018383808284375f92019190915250613fd192505050565b505f6129cc612a1f565b60a0015190505f6129dd34836140a8565b90506129e83361310e565b506129f3335f61317c565b612a0085853385856142cc565b5050505050565b612a12848484610f6d565b6114233385858585614478565b6040805160c08101825260608082525f6020830181905292820183905281018290526080810182905260a0810191909152600d54612a7690600160b01b810463ffffffff16908190600160d01b900460ff166136d7565b60408051825460e0602082028301810190935260c082018181529193928492918491840182828015612acf57602002820191905f5260205f20905b81546001600160a01b03168152600190910190602001808311612ab1575b5050509183525050600182015460208201526002909101546001600160401b038116604083015263ffffffff600160401b820481166060840152600160601b820416608083015260ff600160801b9091041660a090910152919050565b5f612b35613619565b612b3d6130e5565b612b4d6080830160608401615897565b63ffffffff165f03612b8b57612b696080830160608401615897565b604051630c6e911360e41b815263ffffffff9091166004820152602401610cb5565b600d80545f91908290612ba09060ff1661628c565b825460ff8083166101009490940a848102910219909116179092555f908152600a602052604090209091508390612bd782826162aa565b50909150505b919050565b6060612bed826130ad565b505f612c28612bfb8461459f565b612c0361464d565b604051602001612c14929190616304565b604051602081830303815290604052614697565b905080604051602001612c3b91906163f3565b604051602081830303815290604052915050919050565b5f612c5c8361310e565b505f612c66612a1f565b60a001516001600160a01b0385165f908152600c602090815260408083206002015489518a8401209151949550600160a81b90046001600160401b031693909291612cdd917f9a361e91fa9aa610b5edf1d5c1cc20b9646c4228f3c004354ed2de7635dac9949185918b918b918a918a910161622f565b604051602081830303815290604052805190602001209050612cfe816140e3565b98975050505050505050565b6001600160a01b039182165f90815260056020908152604080832093909416825291909152205460ff1690565b612d3f613619565b612d488261310e565b506001600160a01b0382165f818152600f602090815260409182902080546001600160f81b0316600160f81b60ff87169081029190911790915591519182527ffa96cc66d1772e5646f86e374867e4e32b5b448b2aadb331568e34c2d063e455910160405180910390a25050565b612dbe6130e5565b3068929eee149b4bd212685403612ddc5763ab143c065f526004601cfd5b3068929eee149b4bd2126855612df18161310e565b505f612dfc82613535565b9050336001600160a01b03831614801590612e205750336001600160a01b03821614155b15612e495760405163172b4e7560e11b81526001600160a01b0382166004820152602401610cb5565b6001600160a01b0382165f908152600f60205260409020612e69816146bd565b612e88578060405163c11d33f760e01b8152600401610cb59190616424565b612e9181613f57565b5f612e9c8484614756565b9050826001600160a01b03167ffc30cddea38e2bf4d6ea7d3f9ed3b6ad7f176419f4963bd81318067a4aee73fe8260405161152791815260200190565b612ee1613619565b6001600160a01b038116612f0a57604051631e4fbdf760e01b81525f6004820152602401610cb5565b61121b8161387f565b5f6001600160e01b031982166380ac58cd60e01b1480612f4357506001600160e01b03198216635b5e139f60e01b145b80610c8a57506301ffc9a760e01b6001600160e01b0319831614610c8a565b6001600160a01b0381165f908152600f6020526040812080549091600160e01b90910460ff1690612f936003613294565b519050612f9f82614920565b15612fb257612faf600182616078565b90505b612fbc8482614973565b5f80612fc78661121e565b506001600160a01b0388165f908152600b602052604081208190559193509150818310612ff45781612ff6565b825b6040519091505f907307a07a07a07a07a07a07a07a07a07a07a07a07a09083908381818185875af1925050503d805f811461304c576040519150601f19603f3d011682016040523d82523d5f602084013e613051565b606091505b505090508061307357604051630b567ce360e31b815260040160405180910390fd5b600d5461308e908890600160b01b900463ffffffff16614aab565b61309787613f57565b5f6130a189613535565b90506127ee8982614756565b5f818152600260205260408120546001600160a01b031680610c8a57604051637e27328960e01b815260048101849052602401610cb5565b600d54610100900460ff161561184f5760405163d93c066560e01b815260040160405180910390fd5b5f6001600160a01b0382166131228161382c565b6131425760405163ed15e6cf60e01b815260048101829052602401610cb5565b826001600160a01b031661315582611e80565b6001600160a01b031614610c8a576040516330fa89ab60e11b815260040160405180910390fd5b6001600160a01b0382165f908152600f6020526040902054600160e01b900460ff168160068111156131b0576131b061579e565b8160068111156131c2576131c261579e565b14610de15780604051633ba7bf8960e11b8152600401610cb59190616175565b6131ed81600161613d565b825463ffffffff91909116600160a01b0260ff60e01b191668ff00000000ffffffff60a01b1990911617600160e11b1782556040517f44f68a196beb8e3ae6b6afe9504db62c81b4e511e987a263b4f1a9bc49c907629061324f908490616424565b60405180910390a15050565b6001600160a01b0382165f908152600b602052604081205481838211613281575f61328b565b61328b8483616078565b95945050505050565b60605f6132a060085490565b6001600160401b038111156132b7576132b76159cb565b6040519080825280602002602001820160405280156132f057816020015b6132dd615589565b8152602001906001900390816132d55790505b5090505f805b825181101561349b575f61330f61330c8361186b565b90565b6001600160a01b0381165f908152600f60205260409020805491925090600160e81b900460ff1615613342575050613493565b5f60068860068111156133575761335761579e565b149050806133be578154600160e01b900460ff16600389600681111561337f5761337f61579e565b036133945761338d81614920565b91506133bc565b8860068111156133a6576133a661579e565b8160068111156133b8576133b861579e565b1491505b505b801561348f576040805160e08101825283546001600160a01b038116825263ffffffff600160a01b820481166020840152600160c01b82041692820192909252908390606083019060ff600160e01b9091041660068111156134225761342261579e565b60068111156134335761343361579e565b8152905460ff600160e81b8204811615156020840152600160f01b820481166040840152600160f81b90910416606090910152868661347181616498565b97508151811061348357613483616050565b60200260200101819052505b5050505b6001016132f6565b50815292915050565b8115806134af575080155b806134b957508181115b156111d157604051635700689f60e11b81526004810183905260248101829052604401610cb5565b805464ffffffffff60c01b19166404ffffffff60c01b1781556040517f170cba9e80cc0d156bc6ed689fa1d09ee788e1000c092512ef8698454b2081ee9061352a908390616424565b60405180910390a150565b6001600160a01b038082165f908152600c602052604081206002810154919290911680611f1957509192915050565b5f806135708584614b00565b6001600160a01b0386165f908152600b602052604081208054929350839290919061359c908490616078565b9091555050604051634875485760e11b81526001600160a01b0385166004820152602481018290527307a07a07a07a07a07a07a07a07a07a07a07a07a0906390ea90ae906044015f604051808303815f87803b1580156135fa575f80fd5b505af115801561360c573d5f803e3d5ffd5b5092979650505050505050565b600d546001600160a01b036201000090910416331461184f5760405163118cdaa760e01b8152336004820152602401610cb5565b5f8060048361365c8688616159565b61366691906164b0565b61367091906164c9565b90505f601d8260ff166004811061368957613689616050565b6003020190508563ffffffff168160020160089054906101000a900463ffffffff1663ffffffff161461328b57604051634fadd4d360e11b815263ffffffff87166004820152602401610cb5565b5f806136e38585616159565b90505f6004826136f386836164b0565b6136fd91906164ea565b61370791906164c9565b90505f60118260ff166004811061372057613720616050565b6003020190508663ffffffff168160020160089054906101000a900463ffffffff1663ffffffff161461376e57604051634fadd4d360e11b815263ffffffff88166004820152602401610cb5565b9695505050505050565b613780614b60565b600d805461ff00191690557f5db9ee0a495bf2e6ff9c91a7834c1ba4fdd244a5e8aa4e537bd38aeae4b073aa335b6040516001600160a01b03909116815260200160405180910390a1565b6001600160a01b0382166137f457604051633250574960e11b81525f6004820152602401610cb5565b5f61380083835f614b88565b90506001600160a01b03811615610de1576040516339e3563760e11b81525f6004820152602401610cb5565b5f81158061384157506001600160a01b038210155b156138625760405163ed15e6cf60e01b815260048101839052602401610cb5565b505f908152600260205260409020546001600160a01b0316151590565b600d80546001600160a01b038381166201000081810262010000600160b01b031985161790945560405193909204169182907f8be0079c531659141344cd1fd0a4f28419497f9722a3daafe3b4186f6b6457e0905f90a35050565b5f5b6138e7600183616078565b811015610de15782826138fb836001616103565b81811061390a5761390a616050565b905060200201602081019061391f9190615706565b6001600160a01b031683838381811061393a5761393a616050565b905060200201602081019061394f9190615706565b6001600160a01b0316106139a95782828281811061396f5761396f616050565b90506020020160208101906139849190615706565b60405163836e3a7d60e01b81526001600160a01b039091166004820152602401610cb5565b6001016138dc565b600d545f9081908190606090600160d01b900460ff168260046139d58360016164b0565b6139df91906164c9565b600d805460ff60d01b1916600160d01b60ff841602178082559192505f91601690613a1690600160b01b900463ffffffff16616503565b91906101000a81548163ffffffff021916908363ffffffff160217905590505f601d8360ff1660048110613a4c57613a4c616050565b6003020190505f613a5b6123e4565b90506040518060c0016040528083805480602002602001604051908101604052809291908181526020018280548015613abb57602002820191905f5260205f20905b81546001600160a01b03168152600190910190602001808311613a9d575b5050509183525050604080840151602083015201613ada43600161626d565b6001600160401b0316815263ffffffff80861660208301526060808501519091166040830152600d5460ff9081169190920152601190861660048110613b2257613b22616050565b600302015f820151815f019080519060200190613b409291906155c4565b50602082015160018201556040820151600291820180546060850151608086015160a0909601516001600160401b039094166bffffffffffffffffffffffff1990921691909117600160401b63ffffffff928316021764ffffffffff60601b1916600160601b919095160260ff60801b191693909317600160801b60ff90921691909102179091555f90600490613bd89087906164b0565b613be291906164c9565b90508a601d8260ff1660048110613bfb57613bfb616050565b600302015f019080519060200190613c149291906155c4565b50613c2084600261613d565b601d8260ff1660048110613c3657613c36616050565b6003020160020160086101000a81548163ffffffff021916908363ffffffff16021790555083826040015183606001518580805480602002602001604051908101604052809291908181526020018280548015613cba57602002820191905f5260205f20905b81546001600160a01b03168152600190910190602001808311613c9c575b5050505050905099509950995099505050505050509193509193565b5f613ce16002613294565b90505f5b8151811015613d42575f600f5f848481518110613d0457613d04616050565b60200260200101515f01516001600160a01b03166001600160a01b031681526020019081526020015f209050613d3981614c53565b50600101613ce5565b505f613d4e6004613294565b600d54909150600160d01b900460ff165f6004613d6c8360016164b0565b613d7691906164c9565b90505f60118360ff1660048110613d8f57613d8f616050565b60030201805460408051602080840282018101909252828152929190830182828015613de257602002820191905f5260205f20905b81546001600160a01b03168152600190910190602001808311613dc4575b505050505090505f601d8360ff1660048110613e0057613e00616050565b60030201805460408051602080840282018101909252828152929190830182828015613e5357602002820191905f5260205f20905b81546001600160a01b03168152600190910190602001808311613e35575b505050505090505f5b85518110156127ee575f868281518110613e7857613e78616050565b60200260200101515f01519050613e8f8185614c94565b80613e9f5750613e9f8184614c94565b80613ee15750613ee1818c8c808060200260200160405190810160405280939291908181526020018383602002808284375f92019190915250614c9492505050565b15613eec5750613f10565b6001600160a01b0381165f908152600f60205260409020613f0d818b614aab565b50505b600101613e5c565b613f206130e5565b600d805461ff0019166101001790557f62e78cea01bee320cd4e420270b5ea74000d11b0c9f74754ebdbfc544b05a2586137ae3390565b805461ffff60e01b1916608360e11b1781556040517ffab16134cb74fff6e7d137bf93f6b2ab4c1c61cbe53dad2c8cb57744353bd39b9061352a908390616424565b5f613fa55f835f614b88565b90506001600160a01b0381166111d157604051637e27328960e01b815260048101839052602401610cb5565b5f8151606014613ff4576040516333a234f960e11b815260040160405180910390fd5b6020840151845160405163071917cf60e01b815273__$2ef4e8110a3eaa1255da7f08f8eebcbf5a$__9263071917cf9261403292889060040161651e565b602060405180830381865af415801561404d573d5f803e3d5ffd5b505050506040513d601f19601f82011682018060405250810190614071919061655b565b61409e5783614083855f015185611e9c565b604051634babb8f160e01b8152600401610cb5929190616576565b6122668284614cf1565b60ff81165f908152600a602052604081205483146140dc5760405163222d164360e21b815260048101849052602401610cb5565b5090919050565b7f00000000000000000000000000000000000000000000000000000000000000007f000000000000000000000000000000000000000000000000000000000000000030147f00000000000000000000000000000000000000000000000000000000000000004614166141d65750604080517f8b73c3c69bb8fe3d512ecc4cf759cc79239f7b179b0ffacaa9a75d522b39400f81527f000000000000000000000000000000000000000000000000000000000000000060208201527f00000000000000000000000000000000000000000000000000000000000000009181019190915246606082015230608082015260a090205b6719010000000000005f5280601a5281603a52604260182090505f603a52919050565b5f6001600160a01b0385161561226657604051853b614289578260408114614229576041811461425057506142c3565b60208581013560ff81901c601b0190915285356040526001600160ff1b0316606052614261565b60408501355f1a6020526040856040375b50845f526020600160805f60015afa5180871860601b3d119250505f606052806040526142c3565b631626ba7e60e01b80825285600483015260248201604081528460448401528486606485013760208160648701858b5afa90519091141691505b50949350505050565b6040805160e0810182526001600160a01b0385811680835263ffffffff60208085018281525f8688018181526001606089019081526080890183905260ff8c1660a08a015260c08901839052958252600f9093529690962085518154975192518416600160c01b0263ffffffff60c01b1993909416600160a01b026001600160c01b0319909816951694909417959095179485168117835590519293849391839160ff60e01b1990911664ffffffffff60c01b1990911617600160e01b83600681111561439b5761439b61579e565b02179055506080820151815460a084015160c09094015161ffff60e81b19909116600160e81b9215159290920260ff60f01b191691909117600160f01b60ff94851602176001600160f81b0316600160f81b93909116929092029190911790556001600160a01b0384165f90815260296020526040902061441d868883616606565b506001600160a01b0384165f908152600b602052604090819020839055517f9d9bab592843361c508cec6cc23820609c04fe07a621d03bf04b7520759d36419061446890839061583e565b60405180910390a1505050505050565b6001600160a01b0383163b15612a0057604051630a85bd0160e11b81526001600160a01b0384169063150b7a02906144ba9088908890879087906004016166bf565b6020604051808303815f875af19250505080156144f4575060408051601f3d908101601f191682019092526144f1918101906166f1565b60015b61455b573d808015614521576040519150601f19603f3d011682016040523d82523d5f602084013e614526565b606091505b5080515f0361455357604051633250574960e11b81526001600160a01b0385166004820152602401610cb5565b805181602001fd5b6001600160e01b03198116630a85bd0160e11b1461459757604051633250574960e11b81526001600160a01b0385166004820152602401610cb5565b505050505050565b60605f6145ab83614d60565b6028602282012090915060601c60295b600181111561464457600782600f161180156145f0575060608382815181106145e6576145e6616050565b016020015160f81c115b1561462d57602060f81b83828151811061460c5761460c616050565b0160200180516001600160f81b0319908116909218909116905f82901a9053505b60049190911c9061463d8161670c565b90506145bb565b50909392505050565b60606146736040518061052001604052806104ed81526020016167676104ed9139614697565b6040516020016146839190616721565b604051602081830303815290604052905090565b6060610c8a82604051806060016040528060408152602001616c54604091396001614d76565b80545f90600160e01b900460ff1660018160068111156146df576146df61579e565b036146ed5750600192915050565b82545f9061470990600160c01b900463ffffffff16600161613d565b9050600582600681111561471f5761471f61579e565b14801561473e5750600d5463ffffffff808316600160b01b9092041610155b1561474d575060019392505050565b505f9392505050565b5f6147696001600160a01b038416613f99565b6008545f0361478b576040516315ae672760e01b815260040160405180910390fd5b6001600160a01b0383165f908152600c602052604081208181556001810180546001600160a01b031916905560020180546001600160e81b031916905580806147d38661121e565b925092509250825f036147eb57829350505050610c8a565b6001600160a01b0386165f908152600b60205260408120819055828410614813575081614897565b50825f7307a07a07a07a07a07a07a07a07a07a07a07a07a06148358386616078565b6040515f81818185875af1925050503d805f811461486e576040519150601f19603f3d011682016040523d82523d5f602084013e614873565b606091505b505090508061489557604051630b567ce360e31b815260040160405180910390fd5b505b604051634875485760e11b81526001600160a01b0387166004820152602481018390527307a07a07a07a07a07a07a07a07a07a07a07a07a0906390ea90ae9083906044015f604051808303818588803b1580156148f2575f80fd5b505af1158015614904573d5f803e3d5ffd5b505050505081816149159190616103565b979650505050505050565b5f60038260068111156149355761493561579e565b1480614952575060048260068111156149505761495061579e565b145b80610c8a5750600282600681111561496c5761496c61579e565b1492915050565b600d54600160b01b810463ffffffff1690600160d01b900460ff165f61499a8380846136d7565b90506149a68186614ef0565b5080546149b385826134a4565b5f6149bf85600161613d565b90505f6149cd82878761364d565b90506149d98189614ef0565b50805492506149e887846134a4565b5f6149f487600261613d565b90505f614a0282898961364d565b9050614a0e818b614ef0565b5080549450614a1d89866134a4565b600d54600160d81b900461ffff168910156127ee57600d805461ffff8b8116600160d81b90810261ffff60d81b1984161793849055604080519382900483168085529190940490911660208301529181018b90527f74cf7ca84b30b723e8b6e3cc569ec2db21f4ba2fcc09d651e5ce6770b91552f99060600160405180910390a15050505050505050505050565b815463ffffffff8216600160c01b0264ffffffffff60c01b1990911617600560e01b1782556040517f727bfc4079207401298f48a3f1a92c9b40d83e086fe5b584a7b0644fdbdb56ee9061324f908490616424565b60ff81165f908152600a602052604081205481614b1d858361325b565b9050801580614b3f575060ff84165f908152600a602052604090206001015481105b1561226657604051633737b70960e11b815260048101829052602401610cb5565b600d54610100900460ff1661184f57604051638dfc202b60e01b815260040160405180910390fd5b5f80614b95858585614feb565b90506001600160a01b038116614bf157614bec84600880545f838152600960205260408120829055600182018355919091527ff3f7a9fe364faab93b216da50a3214154f22a0a2b415b23a84c8169e8b636ee30155565b614c14565b846001600160a01b0316816001600160a01b031614614c1457614c1481856150dd565b6001600160a01b038516614c3057614c2b8461515a565b612266565b846001600160a01b0316816001600160a01b031614612266576122668585615201565b805460ff60e01b1916600360e01b1781556040517fabab4191fe954f07230f7e34fd48dc0fdcbed492526cd060001cccceab22851b9061352a908390616424565b80515f90815b81811015614ce757846001600160a01b0316848281518110614cbe57614cbe616050565b60200260200101516001600160a01b031603614cdf57600192505050610c8a565b600101614c9a565b505f949350505050565b81516020808401919091205f81815260109092526040909120546001600160a01b031615614d3257604051638d12779f60e01b815260040160405180910390fd5b5f81815260106020526040902080546001600160a01b0384166001600160a01b031990911617905592915050565b6060610c8a6001600160a01b038316601461524f565b606083515f03614d94575060408051602081019091525f8152611f19565b5f82614dc457600385516004614daa91906160ec565b614db5906002616103565b614dbf919061612a565b614de9565b600385516002614dd49190616103565b614dde919061612a565b614de99060046160ec565b90505f816001600160401b03811115614e0457614e046159cb565b6040519080825280601f01601f191660200182016040528015614e2e576020820181803683370190505b509050600185016020820187885189016020810180515f82525b82841015614ea3576003840193508351603f8160121c168701518653600186019550603f81600c1c168701518653600186019550603f8160061c168701518653600186019550603f8116870151865350600185019450614e48565b905250508515614ee457600388510660018114614ec75760028114614eda57614ee2565b603d6001830353603d6002830353614ee2565b603d60018303535b505b50909695505050505050565b81545f90815b81811015614ce757836001600160a01b0316858281548110614f1a57614f1a616050565b5f918252602090912001546001600160a01b031603614fe35784614f3f600184616078565b81548110614f4f57614f4f616050565b905f5260205f20015f9054906101000a90046001600160a01b0316858281548110614f7c57614f7c616050565b905f5260205f20015f6101000a8154816001600160a01b0302191690836001600160a01b0316021790555084805480614fb757614fb7616752565b5f8281526020902081015f1990810180546001600160a01b03191690550190555060019150610c8a9050565b600101614ef6565b5f828152600260205260408120546001600160a01b0390811690831615615017576150178184866153c0565b6001600160a01b03811615615051576150325f855f80615424565b6001600160a01b0381165f90815260036020526040902080545f190190555b6001600160a01b0385161561507f576001600160a01b0385165f908152600360205260409020805460010190555b5f8481526002602052604080822080546001600160a01b0319166001600160a01b0389811691821790925591518793918516917fddf252ad1be2c89b69c2b068fc378daa952ba7f163c4a11628f55a4df523b3ef91a4949350505050565b5f6150e7836121d6565b5f838152600760209081526040808320546001600160a01b038816845260069092529091209192509081831461513c575f83815260208281526040808320548584528184208190558352600790915290208290555b5f938452600760209081526040808620869055938552525081205550565b6008545f9061516b90600190616078565b5f838152600960205260408120546008805493945090928490811061519257615192616050565b905f5260205f200154905080600883815481106151b1576151b1616050565b5f9182526020808320909101929092558281526009909152604080822084905585825281205560088054806151e8576151e8616752565b600190038181905f5260205f20015f9055905550505050565b5f600161520d846121d6565b6152179190616078565b6001600160a01b039093165f908152600660209081526040808320868452825280832085905593825260079052919091209190915550565b6060825f61525e8460026160ec565b615269906002616103565b6001600160401b03811115615280576152806159cb565b6040519080825280601f01601f1916602001820160405280156152aa576020820181803683370190505b509050600360fc1b815f815181106152c4576152c4616050565b60200101906001600160f81b03191690815f1a905350600f60fb1b816001815181106152f2576152f2616050565b60200101906001600160f81b03191690815f1a9053505f6153148560026160ec565b61531f906001616103565b90505b6001811115615396576f181899199a1a9b1b9c1cb0b131b232b360811b83600f166010811061535357615353616050565b1a60f81b82828151811061536957615369616050565b60200101906001600160f81b03191690815f1a90535060049290921c9161538f8161670c565b9050615322565b5081156122665760405163e22e27eb60e01b81526004810186905260248101859052604401610cb5565b6153cb838383615528565b610de1576001600160a01b0383166153f957604051637e27328960e01b815260048101829052602401610cb5565b60405163177e802f60e01b81526001600160a01b038316600482015260248101829052604401610cb5565b808061543857506001600160a01b03821615155b156154f9575f615447846130ad565b90506001600160a01b038316158015906154735750826001600160a01b0316816001600160a01b031614155b801561548657506154848184612d0a565b155b156154af5760405163a9fbf51f60e01b81526001600160a01b0384166004820152602401610cb5565b81156154f75783856001600160a01b0316826001600160a01b03167f8c5be1e5ebec7d5bd14f71427d1e84f3dd0314c0f7b2291e5b200ac8c7c3b92560405160405180910390a45b505b50505f90815260046020526040902080546001600160a01b0319166001600160a01b0392909216919091179055565b5f6001600160a01b038316158015906122665750826001600160a01b0316846001600160a01b0316148061556157506155618484612d0a565b806122665750505f908152600460205260409020546001600160a01b03908116911614919050565b6040805160e0810182525f8082526020820181905291810182905290606082019081525f602082018190526040820181905260609091015290565b828054828255905f5260205f20908101928215615617579160200282015b8281111561561757825182546001600160a01b0319166001600160a01b039091161782556020909201916001909101906155e2565b50615623929150615627565b5090565b5b80821115615623575f8155600101615628565b6001600160e01b03198116811461121b575f80fd5b5f60208284031215615660575f80fd5b8135611f198161563b565b5f8083601f84011261567b575f80fd5b5081356001600160401b03811115615691575f80fd5b6020830191508360208260061b85010111156156ab575f80fd5b9250929050565b5f80602083850312156156c3575f80fd5b82356001600160401b038111156156d8575f80fd5b6156e48582860161566b565b90969095509350505050565b80356001600160a01b0381168114612bdd575f80fd5b5f60208284031215615716575f80fd5b611f19826156f0565b5f81518084528060208401602086015e5f602082860101526020601f19601f83011685010191505092915050565b602081525f611f19602083018461571f565b5f6020828403121561576f575f80fd5b5035919050565b5f8060408385031215615787575f80fd5b615790836156f0565b946020939093013593505050565b634e487b7160e01b5f52602160045260245ffd5b600781106157ce57634e487b7160e01b5f52602160045260245ffd5b9052565b60018060a01b03815116825263ffffffff602082015116602083015263ffffffff6040820151166040830152606081015161581060608401826157b2565b5060808101511515608083015260ff60a08201511660a083015260c0810151610de160c084018260ff169052565b60e08101610c8a82846157d2565b5f805f6060848603121561585e575f80fd5b615867846156f0565b9250615875602085016156f0565b929592945050506040919091013590565b63ffffffff8116811461121b575f80fd5b5f602082840312156158a7575f80fd5b8135611f1981615886565b6020808252825160c083830152805160e084018190525f92919091019082906101008501905b808310156159035783516001600160a01b0316825260209384019360019390930192909101906158d8565b50602086015160408601526040860151925061592a60608601846001600160401b03169052565b606086015163ffffffff811660808701529250608086015163ffffffff811660a0870152925060a086015160ff811660c0870152925095945050505050565b803560ff81168114612bdd575f80fd5b5f806040838503121561598a575f80fd5b615993836156f0565b91506159a160208401615969565b90509250929050565b5f602082840312156159ba575f80fd5b813561ffff81168114611f19575f80fd5b634e487b7160e01b5f52604160045260245ffd5b604051601f8201601f191681016001600160401b0381118282101715615a0757615a076159cb565b604052919050565b5f6001600160401b03821115615a2757615a276159cb565b50601f01601f191660200190565b5f82601f830112615a44575f80fd5b8135615a57615a5282615a0f565b6159df565b818152846020838601011115615a6b575f80fd5b816020850160208301375f918101602001919091529392505050565b5f8060408385031215615a98575f80fd5b82356001600160401b03811115615aad575f80fd5b615ab985828601615a35565b9250506159a1602084016156f0565b5f8083601f840112615ad8575f80fd5b5081356001600160401b03811115615aee575f80fd5b6020830191508360208285010111156156ab575f80fd5b5f8060208385031215615b16575f80fd5b82356001600160401b03811115615b2b575f80fd5b6156e485828601615ac8565b5f602082016020835280845180835260408501915060408160051b8601019250602086015f5b82811015615b8e57603f19878603018452615b7985835161571f565b94506020938401939190910190600101615b5d565b50929695505050505050565b5f8060208385031215615bab575f80fd5b82356001600160401b03811115615bc0575f80fd5b8301601f81018513615bd0575f80fd5b80356001600160401b03811115615be5575f80fd5b8560208260051b8401011115615bf9575f80fd5b6020919091019590945092505050565b60ff60f81b8816815260e060208201525f615c2760e083018961571f565b8281036040840152615c39818961571f565b606084018890526001600160a01b038716608085015260a0840186905283810360c0850152845180825260208087019350909101905f5b81811015615c8e578351835260209384019390920191600101615c70565b50909b9a5050505050505050505050565b5f60408284031215615caf575f80fd5b604080519081016001600160401b0381118282101715615cd157615cd16159cb565b60405290508082356001600160401b03811115615cec575f80fd5b615cf885828601615a35565b82525060208301356001600160401b03811115615d13575f80fd5b615d1f85828601615a35565b6020830152505092915050565b5f805f805f8060808789031215615d41575f80fd5b86356001600160401b03811115615d56575f80fd5b615d6289828a01615ac8565b90975095505060208701356001600160401b03811115615d80575f80fd5b615d8c89828a01615c9f565b945050615d9b604088016156f0565b925060608701356001600160401b03811115615db5575f80fd5b615dc189828a01615ac8565b979a9699509497509295939492505050565b5f60208284031215615de3575f80fd5b813560078110611f19575f80fd5b602080825282518282018190525f918401906040840190835b81811015615e3357615e1d8385516157d2565b6020939093019260e09290920191600101615e0a565b509095945050505050565b801515811461121b575f80fd5b5f8060408385031215615e5c575f80fd5b615e65836156f0565b91506020830135615e7581615e3e565b809150509250929050565b5f60208284031215615e90575f80fd5b611f1982615969565b5f805f60408486031215615eab575f80fd5b83356001600160401b03811115615ec0575f80fd5b615ecc86828701615ac8565b90945092505060208401356001600160401b03811115615eea575f80fd5b615ef686828701615c9f565b9150509250925092565b5f805f8060808587031215615f13575f80fd5b615f1c856156f0565b9350615f2a602086016156f0565b92506040850135915060608501356001600160401b03811115615f4b575f80fd5b615f5787828801615a35565b91505092959194509250565b5f6080828403128015615f74575f80fd5b509092915050565b5f805f60608486031215615f8e575f80fd5b83356001600160401b03811115615fa3575f80fd5b615faf86828701615a35565b935050615fbe602085016156f0565b9150615fcc604085016156f0565b90509250925092565b5f8060408385031215615fe6575f80fd5b615fef836156f0565b91506159a1602084016156f0565b6001600160a01b038816815263ffffffff87811660208301528616604082015260e0810161602e60608301876157b2565b931515608082015260ff92831660a0820152911660c090910152949350505050565b634e487b7160e01b5f52603260045260245ffd5b634e487b7160e01b5f52601160045260245ffd5b81810381811115610c8a57610c8a616064565b604081016001600160a01b036160a0846156f0565b168252602092830135929091019190915290565b600181811c908216806160c857607f821691505b6020821081036160e657634e487b7160e01b5f52602260045260245ffd5b50919050565b8082028115828204841417610c8a57610c8a616064565b80820180821115610c8a57610c8a616064565b634e487b7160e01b5f52601260045260245ffd5b5f8261613857616138616116565b500490565b63ffffffff8181168382160190811115610c8a57610c8a616064565b63ffffffff8281168282160390811115610c8a57610c8a616064565b60208101610c8a82846157b2565b604081525f616195604083018561571f565b905060018060a01b03831660208301529392505050565b5f602082840312156161bc575f80fd5b81516001600160401b038111156161d1575f80fd5b8201601f810184136161e1575f80fd5b80516161ef615a5282615a0f565b818152856020838501011115616203575f80fd5b8160208401602083015e5f91810160200191909152949350505050565b818382375f9101908152919050565b95865260208601949094526001600160a01b0392831660408601529116606084015260ff1660808301526001600160401b031660a082015260c00190565b6001600160401b038181168382160190811115610c8a57610c8a616064565b5f60ff821660ff81036162a1576162a1616064565b60010192915050565b8135815560208201356001820155604082013560028201556003810160608301356162d481615886565b815463ffffffff191663ffffffff919091161790555050565b5f81518060208401855e5f93019283525090919050565b7f7b226e616d65223a202254656c636f696e2d4e6574776f726b20436f6e73656e8152651cdd5cd3919560d21b60208201525f61634460268301856162ed565b7f222c20226465736372697074696f6e223a2022455243373231204e465420776881527f6f7365206f776e657273686970206c656467657220726570726573656e74732060208201527f746865207065726d697373696f6e65642077686974656c69737420666f72207660408201527530b634b230ba37b9399116101134b6b0b3b2911d101160511b60608201526163df60768201856162ed565b61227d60f01b815260020195945050505050565b7f646174613a6170706c69636174696f6e2f6a736f6e3b6261736536342c00000081525f611f19601d8301846162ed565b81546001600160a01b038116825263ffffffff60a082901c8116602084015260c082901c16604083015260e08201906164666060840160ff8360e01c166157b2565b61647a6080840160ff8360e81c1615159052565b60f081901c60ff1660a084015260f881901c60c08401525092915050565b5f600182016164a9576164a9616064565b5060010190565b60ff8181168382160190811115610c8a57610c8a616064565b5f60ff8316806164db576164db616116565b8060ff84160691505092915050565b60ff8281168282160390811115610c8a57610c8a616064565b5f63ffffffff821663ffffffff81036162a1576162a1616064565b606081525f616530606083018661571f565b8281036020840152616542818661571f565b91505060018060a01b0383166040830152949350505050565b5f6020828403121561656b575f80fd5b8151611f1981615e3e565b604081525f8351604080840152616590608084018261571f565b90506020850151603f198483030160608501526165ad828261571f565b915050828103602084015261328b818561571f565b601f821115610de157805f5260205f20601f840160051c810160208510156165e75750805b601f840160051c820191505b81811015612a00575f81556001016165f3565b6001600160401b0383111561661d5761661d6159cb565b6166318361662b83546160b4565b836165c2565b5f601f841160018114616662575f851561664b5750838201355b5f19600387901b1c1916600186901b178355612a00565b5f83815260208120601f198716915b828110156166915786850135825560209485019460019092019101616671565b50868210156166ad575f1960f88860031b161c19848701351681555b505060018560011b0183555050505050565b6001600160a01b03858116825284166020820152604081018390526080606082018190525f9061376e9083018461571f565b5f60208284031215616701575f80fd5b8151611f198161563b565b5f8161671a5761671a616064565b505f190190565b7f646174613a696d6167652f7376672b786d6c3b6261736536342c00000000000081525f611f19601a8301846162ed565b634e487b7160e01b5f52603160045260245ffdfe3c7376672077696474683d22373922206865696768743d223830222076696577426f783d22302030203739203830222066696c6c3d226e6f6e652220786d6c6e733d22687474703a2f2f7777772e77332e6f72672f323030302f737667223e203c6d61736b2069643d226d61736b305f3834395f3334313722207374796c653d226d61736b2d747970653a616c70686122206d61736b556e6974733d227573657253706163654f6e5573652220783d22302220793d2230222077696474683d22373922206865696768743d223830223e203c726563742077696474683d2237382e30303522206865696768743d223830222066696c6c3d2223433443344334222f3e203c2f6d61736b3e203c67206d61736b3d2275726c28236d61736b305f3834395f3334313729223e203c7265637420783d2231372e393534362220793d2231382e33353435222077696474683d2234322e3239343322206865696768743d2234332e32393138222066696c6c3d227768697465222f3e203c7061746820643d224d37342e323336392032312e393839324337362e363930382032342e303331352037382e323338392032382e323537372037372e363937392033312e333733334c37322e343136362036312e333235334337312e3836362036342e343437352036382e393539322036372e383739382036352e393632392036382e393631324c33372e313934372037392e333334344333342e313938342038302e343135372032392e373432312037392e363239392032372e323936342037372e3538394c332e3831312035382e3030323143312e33353730382035352e39353938202d302e31393233382035312e3734313720302e3335383134382034382e363139354c352e36333935312031382e3636373443362e31393030342031352e3534353220392e30393638372031322e313132392031322e303933322031312e303331364c34302e3835393920302e3636363435334334332e38353632202d302e3431343835372034382e3331323520302e3337303930392035302e3735383320322e343131384c37342e323336392032312e393839325a4d34392e373634352033352e343336394c35302e393336342032392e333531334c33392e393531372032392e333638374c34312e3531362032312e333432344c33372e393538332032312e333432344333372e393538332032312e333432342033342e363332382032372e323930312032372e333030362033302e323031394c32362e323839392033352e343530334c33312e303933362033352e34364333312e303933362033352e34362032392e343637342034332e303032392032382e393331362034352e373835344332372e353637372035322e383638322033302e393830362035372e383933392033362e323238312035372e383933394333382e383630362035372e383933392034312e3831372035372e383933392034352e303937322035372e383933394c34362e363532342035312e313636364334362e323734322035312e313636362034332e383031332035312e313636362033392e323333362035312e313636364333352e393336342035312e313636362033362e313039392034392e333138392033362e373433312034362e303330354c33382e373833382033352e343333334c34392e373634352033352e343336395a222066696c6c3d2223313443384646222f3e203c2f673e203c2f7376673e4142434445464748494a4b4c4d4e4f505152535455565758595a6162636465666768696a6b6c6d6e6f707172737475767778797a303132333435363738392b2fa164736f6c634300081a000a","linkReferences":{"src/consensus/BlsG1.sol":{"BlsG1":[{"start":2191,"length":20},{"start":2477,"length":20},{"start":14226,"length":20},{"start":22766,"length":20}]}}},"methodIdentifiers":{"SYSTEM_ADDRESS()":"3434735f","activate()":"0f15f4c0","allocateIssuance()":"355811a7","applyIncentives((address,uint256)[])":"0a36cdef","applySlashes((address,uint256)[])":"02ae337b","approve(address,uint256)":"095ea7b3","balanceOf(address)":"70a08231","beginExit()":"2228dfa0","burn(address)":"89afcb44","claimStakeRewards(address)":"2b9f4985","concludeEpoch(address[])":"7b55a300","delegateStake(bytes,(bytes,bytes),address,bytes)":"8bb43f3a","delegationDigest(bytes,address,address)":"e3716d04","eip712Domain()":"84b0196e","epochInfo(uint256)":"3894228e","futureEpochInfo(uint256)":"59ca93b6","getApproved(uint256)":"081812fc","getBalanceBreakdown(address)":"15b5709a","getBlsPubkey(address)":"059b916c","getCommitteeBlsPubkeys(uint32)":"6ae9942c","getCommitteeValidators(uint32)":"a0201be5","getCurrentEpoch()":"b97dd9e2","getCurrentEpochInfo()":"babc394f","getCurrentStakeConfig()":"7d06fdf8","getCurrentStakeVersion()":"67398331","getEpochInfo(uint32)":"374ed18c","getNextCommitteeSize()":"eb8535c2","getRewards(address)":"79ee54f7","getValidator(address)":"1904bb2e","getValidators(uint8)":"8cc05eda","isApprovedForAll(address,address)":"e985e9c5","isDelegated(address)":"3e28391d","isRetired(address)":"6d3c6275","isValidator(bytes)":"6a926591","issuance()":"863623bb","mint(address)":"6a627842","name()":"06fdde03","owner()":"8da5cb5b","ownerOf(uint256)":"6352211e","pause()":"8456cb59","paused()":"5c975abb","proofOfPossessionMessage(bytes,address)":"6850eb31","renounceOwnership()":"715018a6","safeTransferFrom(address,address,uint256)":"42842e0e","safeTransferFrom(address,address,uint256,bytes)":"b88d4fde","setApprovalForAll(address,bool)":"a22cb465","setNextCommitteeSize(uint16)":"62fcde4b","setValidatorRegion(address,uint8)":"f0624768","stake(bytes,(bytes,bytes))":"b5184324","stakeConfig(uint8)":"a71954ec","supportsInterface(bytes4)":"01ffc9a7","symbol()":"95d89b41","tokenByIndex(uint256)":"4f6ccce7","tokenOfOwnerByIndex(address,uint256)":"2f745c59","tokenURI(uint256)":"c87b56dd","totalSupply()":"18160ddd","transferFrom(address,address,uint256)":"23b872dd","transferOwnership(address)":"f2fde38b","undistributedIssuance()":"008d6acd","unpause()":"3f4ba83a","unstake(address)":"f2888dbb","upgradeStakeVersion((uint256,uint256,uint256,uint32))":"c05df7ac","upgradeValidatorStakeVersion(address,uint8)":"5a41fb1f","validators(address)":"fa52c7d8"},"id":156}