{"abi":[{"type":"constructor","inputs":[{"name":"genesisConfig_","type":"tuple","internalType":"struct IStakeManager.StakeConfig","components":[{"name":"stakeAmount","type":"uint256","internalType":"uint256"},{"name":"minWithdrawAmount","type":"uint256","internalType":"uint256"},{"name":"epochIssuance","type":"uint256","internalType":"uint256"},{"name":"epochDuration","type":"uint32","internalType":"uint32"}]},{"name":"initialValidators_","type":"tuple[]","internalType":"struct IConsensusRegistry.ValidatorInfo[]","components":[{"name":"validatorAddress","type":"address","internalType":"address"},{"name":"activationEpoch","type":"uint32","internalType":"uint32"},{"name":"exitEpoch","type":"uint32","internalType":"uint32"},{"name":"currentStatus","type":"uint8","internalType":"enum IConsensusRegistry.ValidatorStatus"},{"name":"isRetired","type":"bool","internalType":"bool"},{"name":"stakeVersion","type":"uint8","internalType":"uint8"},{"name":"region","type":"uint8","internalType":"uint8"}]},{"name":"blsPubkeys_","type":"bytes[]","internalType":"bytes[]"},{"name":"proofsOfPossession","type":"tuple[]","internalType":"struct BlsG1.ProofOfPossession[]","components":[{"name":"signature","type":"bytes","internalType":"bytes"}]},{"name":"owner_","type":"address","internalType":"address"}],"stateMutability":"nonpayable"},{"type":"function","name":"SYSTEM_ADDRESS","inputs":[],"outputs":[{"name":"","type":"address","internalType":"address"}],"stateMutability":"view"},{"type":"function","name":"activate","inputs":[],"outputs":[],"stateMutability":"nonpayable"},{"type":"function","name":"allocateIssuance","inputs":[],"outputs":[],"stateMutability":"payable"},{"type":"function","name":"applyIncentives","inputs":[{"name":"rewardInfos","type":"tuple[]","internalType":"struct RewardInfo[]","components":[{"name":"validatorAddress","type":"address","internalType":"address"},{"name":"consensusHeaderCount","type":"uint256","internalType":"uint256"}]}],"outputs":[],"stateMutability":"nonpayable"},{"type":"function","name":"applySlashes","inputs":[{"name":"slashes","type":"tuple[]","internalType":"struct Slash[]","components":[{"name":"validatorAddress","type":"address","internalType":"address"},{"name":"amount","type":"uint256","internalType":"uint256"}]}],"outputs":[],"stateMutability":"nonpayable"},{"type":"function","name":"approve","inputs":[{"name":"","type":"address","internalType":"address"},{"name":"","type":"uint256","internalType":"uint256"}],"outputs":[],"stateMutability":"nonpayable"},{"type":"function","name":"balanceOf","inputs":[{"name":"owner","type":"address","internalType":"address"}],"outputs":[{"name":"","type":"uint256","internalType":"uint256"}],"stateMutability":"view"},{"type":"function","name":"beginExit","inputs":[],"outputs":[],"stateMutability":"nonpayable"},{"type":"function","name":"burn","inputs":[{"name":"validatorAddress","type":"address","internalType":"address"}],"outputs":[],"stateMutability":"nonpayable"},{"type":"function","name":"claimStakeRewards","inputs":[{"name":"validatorAddress","type":"address","internalType":"address"}],"outputs":[],"stateMutability":"nonpayable"},{"type":"function","name":"concludeEpoch","inputs":[{"name":"futureCommittee","type":"address[]","internalType":"address[]"}],"outputs":[],"stateMutability":"nonpayable"},{"type":"function","name":"delegateStake","inputs":[{"name":"blsPubkey","type":"bytes","internalType":"bytes"},{"name":"proofOfPossession","type":"tuple","internalType":"struct BlsG1.ProofOfPossession","components":[{"name":"signature","type":"bytes","internalType":"bytes"}]},{"name":"validatorAddress","type":"address","internalType":"address"},{"name":"validatorEIP712Signature","type":"bytes","internalType":"bytes"}],"outputs":[],"stateMutability":"payable"},{"type":"function","name":"delegationDigest","inputs":[{"name":"blsPubkey","type":"bytes","internalType":"bytes"},{"name":"validatorAddress","type":"address","internalType":"address"},{"name":"delegator","type":"address","internalType":"address"}],"outputs":[{"name":"","type":"bytes32","internalType":"bytes32"}],"stateMutability":"view"},{"type":"function","name":"eip712Domain","inputs":[],"outputs":[{"name":"fields","type":"bytes1","internalType":"bytes1"},{"name":"name","type":"string","internalType":"string"},{"name":"version","type":"string","internalType":"string"},{"name":"chainId","type":"uint256","internalType":"uint256"},{"name":"verifyingContract","type":"address","internalType":"address"},{"name":"salt","type":"bytes32","internalType":"bytes32"},{"name":"extensions","type":"uint256[]","internalType":"uint256[]"}],"stateMutability":"view"},{"type":"function","name":"epochInfo","inputs":[{"name":"","type":"uint256","internalType":"uint256"}],"outputs":[{"name":"epochIssuance","type":"uint256","internalType":"uint256"},{"name":"blockHeight","type":"uint64","internalType":"uint64"},{"name":"epochId","type":"uint32","internalType":"uint32"},{"name":"epochDuration","type":"uint32","internalType":"uint32"},{"name":"stakeVersion","type":"uint8","internalType":"uint8"}],"stateMutability":"view"},{"type":"function","name":"futureEpochInfo","inputs":[{"name":"","type":"uint256","internalType":"uint256"}],"outputs":[{"name":"epochIssuance","type":"uint256","internalType":"uint256"},{"name":"blockHeight","type":"uint64","internalType":"uint64"},{"name":"epochId","type":"uint32","internalType":"uint32"},{"name":"epochDuration","type":"uint32","internalType":"uint32"},{"name":"stakeVersion","type":"uint8","internalType":"uint8"}],"stateMutability":"view"},{"type":"function","name":"getApproved","inputs":[{"name":"tokenId","type":"uint256","internalType":"uint256"}],"outputs":[{"name":"","type":"address","internalType":"address"}],"stateMutability":"view"},{"type":"function","name":"getBalanceBreakdown","inputs":[{"name":"validatorAddress","type":"address","internalType":"address"}],"outputs":[{"name":"","type":"uint256","internalType":"uint256"},{"name":"","type":"uint256","internalType":"uint256"},{"name":"","type":"uint256","internalType":"uint256"}],"stateMutability":"view"},{"type":"function","name":"getBlsPubkey","inputs":[{"name":"validatorAddress","type":"address","internalType":"address"}],"outputs":[{"name":"","type":"bytes","internalType":"bytes"}],"stateMutability":"view"},{"type":"function","name":"getCommitteeBlsPubkeys","inputs":[{"name":"epoch","type":"uint32","internalType":"uint32"}],"outputs":[{"name":"","type":"bytes[]","internalType":"bytes[]"}],"stateMutability":"view"},{"type":"function","name":"getCommitteeValidators","inputs":[{"name":"epoch","type":"uint32","internalType":"uint32"}],"outputs":[{"name":"","type":"tuple[]","internalType":"struct IConsensusRegistry.ValidatorInfo[]","components":[{"name":"validatorAddress","type":"address","internalType":"address"},{"name":"activationEpoch","type":"uint32","internalType":"uint32"},{"name":"exitEpoch","type":"uint32","internalType":"uint32"},{"name":"currentStatus","type":"uint8","internalType":"enum IConsensusRegistry.ValidatorStatus"},{"name":"isRetired","type":"bool","internalType":"bool"},{"name":"stakeVersion","type":"uint8","internalType":"uint8"},{"name":"region","type":"uint8","internalType":"uint8"}]}],"stateMutability":"view"},{"type":"function","name":"getCurrentEpoch","inputs":[],"outputs":[{"name":"","type":"uint32","internalType":"uint32"}],"stateMutability":"view"},{"type":"function","name":"getCurrentEpochInfo","inputs":[],"outputs":[{"name":"","type":"tuple","internalType":"struct IConsensusRegistry.EpochInfo","components":[{"name":"committee","type":"address[]","internalType":"address[]"},{"name":"epochIssuance","type":"uint256","internalType":"uint256"},{"name":"blockHeight","type":"uint64","internalType":"uint64"},{"name":"epochId","type":"uint32","internalType":"uint32"},{"name":"epochDuration","type":"uint32","internalType":"uint32"},{"name":"stakeVersion","type":"uint8","internalType":"uint8"}]}],"stateMutability":"view"},{"type":"function","name":"getCurrentStakeConfig","inputs":[],"outputs":[{"name":"","type":"tuple","internalType":"struct IStakeManager.StakeConfig","components":[{"name":"stakeAmount","type":"uint256","internalType":"uint256"},{"name":"minWithdrawAmount","type":"uint256","internalType":"uint256"},{"name":"epochIssuance","type":"uint256","internalType":"uint256"},{"name":"epochDuration","type":"uint32","internalType":"uint32"}]}],"stateMutability":"view"},{"type":"function","name":"getCurrentStakeVersion","inputs":[],"outputs":[{"name":"","type":"uint8","internalType":"uint8"}],"stateMutability":"view"},{"type":"function","name":"getEligibleValidatorCount","inputs":[],"outputs":[{"name":"","type":"uint256","internalType":"uint256"}],"stateMutability":"view"},{"type":"function","name":"getEpochInfo","inputs":[{"name":"epoch","type":"uint32","internalType":"uint32"}],"outputs":[{"name":"","type":"tuple","internalType":"struct IConsensusRegistry.EpochInfo","components":[{"name":"committee","type":"address[]","internalType":"address[]"},{"name":"epochIssuance","type":"uint256","internalType":"uint256"},{"name":"blockHeight","type":"uint64","internalType":"uint64"},{"name":"epochId","type":"uint32","internalType":"uint32"},{"name":"epochDuration","type":"uint32","internalType":"uint32"},{"name":"stakeVersion","type":"uint8","internalType":"uint8"}]}],"stateMutability":"view"},{"type":"function","name":"getNextCommitteeSize","inputs":[],"outputs":[{"name":"","type":"uint16","internalType":"uint16"}],"stateMutability":"view"},{"type":"function","name":"getRewards","inputs":[{"name":"validatorAddress","type":"address","internalType":"address"}],"outputs":[{"name":"","type":"uint256","internalType":"uint256"}],"stateMutability":"view"},{"type":"function","name":"getValidator","inputs":[{"name":"validatorAddress","type":"address","internalType":"address"}],"outputs":[{"name":"","type":"tuple","internalType":"struct IConsensusRegistry.ValidatorInfo","components":[{"name":"validatorAddress","type":"address","internalType":"address"},{"name":"activationEpoch","type":"uint32","internalType":"uint32"},{"name":"exitEpoch","type":"uint32","internalType":"uint32"},{"name":"currentStatus","type":"uint8","internalType":"enum IConsensusRegistry.ValidatorStatus"},{"name":"isRetired","type":"bool","internalType":"bool"},{"name":"stakeVersion","type":"uint8","internalType":"uint8"},{"name":"region","type":"uint8","internalType":"uint8"}]}],"stateMutability":"view"},{"type":"function","name":"getValidators","inputs":[{"name":"status","type":"uint8","internalType":"enum IConsensusRegistry.ValidatorStatus"}],"outputs":[{"name":"","type":"address[]","internalType":"address[]"}],"stateMutability":"view"},{"type":"function","name":"getValidatorsInfo","inputs":[{"name":"status","type":"uint8","internalType":"enum IConsensusRegistry.ValidatorStatus"}],"outputs":[{"name":"","type":"tuple[]","internalType":"struct IConsensusRegistry.ValidatorInfo[]","components":[{"name":"validatorAddress","type":"address","internalType":"address"},{"name":"activationEpoch","type":"uint32","internalType":"uint32"},{"name":"exitEpoch","type":"uint32","internalType":"uint32"},{"name":"currentStatus","type":"uint8","internalType":"enum IConsensusRegistry.ValidatorStatus"},{"name":"isRetired","type":"bool","internalType":"bool"},{"name":"stakeVersion","type":"uint8","internalType":"uint8"},{"name":"region","type":"uint8","internalType":"uint8"}]}],"stateMutability":"view"},{"type":"function","name":"isApprovedForAll","inputs":[{"name":"owner","type":"address","internalType":"address"},{"name":"operator","type":"address","internalType":"address"}],"outputs":[{"name":"","type":"bool","internalType":"bool"}],"stateMutability":"view"},{"type":"function","name":"isDelegated","inputs":[{"name":"validatorAddress","type":"address","internalType":"address"}],"outputs":[{"name":"","type":"bool","internalType":"bool"}],"stateMutability":"view"},{"type":"function","name":"isRetired","inputs":[{"name":"validatorAddress","type":"address","internalType":"address"}],"outputs":[{"name":"","type":"bool","internalType":"bool"}],"stateMutability":"view"},{"type":"function","name":"isValidator","inputs":[{"name":"blsPubkey","type":"bytes","internalType":"bytes"}],"outputs":[{"name":"","type":"bool","internalType":"bool"}],"stateMutability":"view"},{"type":"function","name":"issuance","inputs":[],"outputs":[{"name":"","type":"address","internalType":"address payable"}],"stateMutability":"view"},{"type":"function","name":"migrateValidatorSets","inputs":[],"outputs":[],"stateMutability":"nonpayable"},{"type":"function","name":"mint","inputs":[{"name":"validatorAddress","type":"address","internalType":"address"}],"outputs":[],"stateMutability":"nonpayable"},{"type":"function","name":"name","inputs":[],"outputs":[{"name":"","type":"string","internalType":"string"}],"stateMutability":"view"},{"type":"function","name":"owner","inputs":[],"outputs":[{"name":"","type":"address","internalType":"address"}],"stateMutability":"view"},{"type":"function","name":"ownerOf","inputs":[{"name":"tokenId","type":"uint256","internalType":"uint256"}],"outputs":[{"name":"","type":"address","internalType":"address"}],"stateMutability":"view"},{"type":"function","name":"pause","inputs":[],"outputs":[],"stateMutability":"nonpayable"},{"type":"function","name":"paused","inputs":[],"outputs":[{"name":"","type":"bool","internalType":"bool"}],"stateMutability":"view"},{"type":"function","name":"renounceOwnership","inputs":[],"outputs":[],"stateMutability":"nonpayable"},{"type":"function","name":"safeTransferFrom","inputs":[{"name":"from","type":"address","internalType":"address"},{"name":"to","type":"address","internalType":"address"},{"name":"tokenId","type":"uint256","internalType":"uint256"}],"outputs":[],"stateMutability":"nonpayable"},{"type":"function","name":"safeTransferFrom","inputs":[{"name":"from","type":"address","internalType":"address"},{"name":"to","type":"address","internalType":"address"},{"name":"tokenId","type":"uint256","internalType":"uint256"},{"name":"data","type":"bytes","internalType":"bytes"}],"outputs":[],"stateMutability":"nonpayable"},{"type":"function","name":"setApprovalForAll","inputs":[{"name":"","type":"address","internalType":"address"},{"name":"","type":"bool","internalType":"bool"}],"outputs":[],"stateMutability":"nonpayable"},{"type":"function","name":"setNextCommitteeSize","inputs":[{"name":"newSize","type":"uint16","internalType":"uint16"}],"outputs":[],"stateMutability":"nonpayable"},{"type":"function","name":"setValidatorRegion","inputs":[{"name":"validatorAddress","type":"address","internalType":"address"},{"name":"region","type":"uint8","internalType":"uint8"}],"outputs":[],"stateMutability":"nonpayable"},{"type":"function","name":"stake","inputs":[{"name":"blsPubkey","type":"bytes","internalType":"bytes"},{"name":"proofOfPossession","type":"tuple","internalType":"struct BlsG1.ProofOfPossession","components":[{"name":"signature","type":"bytes","internalType":"bytes"}]}],"outputs":[],"stateMutability":"payable"},{"type":"function","name":"stakeConfig","inputs":[{"name":"version","type":"uint8","internalType":"uint8"}],"outputs":[{"name":"","type":"tuple","internalType":"struct IStakeManager.StakeConfig","components":[{"name":"stakeAmount","type":"uint256","internalType":"uint256"},{"name":"minWithdrawAmount","type":"uint256","internalType":"uint256"},{"name":"epochIssuance","type":"uint256","internalType":"uint256"},{"name":"epochDuration","type":"uint32","internalType":"uint32"}]}],"stateMutability":"view"},{"type":"function","name":"supportsInterface","inputs":[{"name":"interfaceId","type":"bytes4","internalType":"bytes4"}],"outputs":[{"name":"","type":"bool","internalType":"bool"}],"stateMutability":"view"},{"type":"function","name":"symbol","inputs":[],"outputs":[{"name":"","type":"string","internalType":"string"}],"stateMutability":"view"},{"type":"function","name":"tokenByIndex","inputs":[{"name":"index","type":"uint256","internalType":"uint256"}],"outputs":[{"name":"","type":"uint256","internalType":"uint256"}],"stateMutability":"view"},{"type":"function","name":"tokenOfOwnerByIndex","inputs":[{"name":"owner","type":"address","internalType":"address"},{"name":"index","type":"uint256","internalType":"uint256"}],"outputs":[{"name":"","type":"uint256","internalType":"uint256"}],"stateMutability":"view"},{"type":"function","name":"tokenURI","inputs":[{"name":"tokenId","type":"uint256","internalType":"uint256"}],"outputs":[{"name":"","type":"string","internalType":"string"}],"stateMutability":"view"},{"type":"function","name":"totalSupply","inputs":[],"outputs":[{"name":"","type":"uint256","internalType":"uint256"}],"stateMutability":"view"},{"type":"function","name":"transferFrom","inputs":[{"name":"","type":"address","internalType":"address"},{"name":"","type":"address","internalType":"address"},{"name":"","type":"uint256","internalType":"uint256"}],"outputs":[],"stateMutability":"nonpayable"},{"type":"function","name":"transferOwnership","inputs":[{"name":"newOwner","type":"address","internalType":"address"}],"outputs":[],"stateMutability":"nonpayable"},{"type":"function","name":"undistributedIssuance","inputs":[],"outputs":[{"name":"","type":"uint256","internalType":"uint256"}],"stateMutability":"view"},{"type":"function","name":"unpause","inputs":[],"outputs":[],"stateMutability":"nonpayable"},{"type":"function","name":"unstake","inputs":[{"name":"validatorAddress","type":"address","internalType":"address"}],"outputs":[],"stateMutability":"nonpayable"},{"type":"function","name":"upgradeStakeVersion","inputs":[{"name":"newConfig","type":"tuple","internalType":"struct IStakeManager.StakeConfig","components":[{"name":"stakeAmount","type":"uint256","internalType":"uint256"},{"name":"minWithdrawAmount","type":"uint256","internalType":"uint256"},{"name":"epochIssuance","type":"uint256","internalType":"uint256"},{"name":"epochDuration","type":"uint32","internalType":"uint32"}]}],"outputs":[{"name":"","type":"uint8","internalType":"uint8"}],"stateMutability":"nonpayable"},{"type":"function","name":"upgradeValidatorStakeVersion","inputs":[{"name":"validatorAddress","type":"address","internalType":"address"},{"name":"targetVersion","type":"uint8","internalType":"uint8"}],"outputs":[],"stateMutability":"payable"},{"type":"function","name":"validators","inputs":[{"name":"","type":"address","internalType":"address"}],"outputs":[{"name":"validatorAddress","type":"address","internalType":"address"},{"name":"activationEpoch","type":"uint32","internalType":"uint32"},{"name":"exitEpoch","type":"uint32","internalType":"uint32"},{"name":"currentStatus","type":"uint8","internalType":"enum IConsensusRegistry.ValidatorStatus"},{"name":"isRetired","type":"bool","internalType":"bool"},{"name":"stakeVersion","type":"uint8","internalType":"uint8"},{"name":"region","type":"uint8","internalType":"uint8"}],"stateMutability":"view"},{"type":"event","name":"Approval","inputs":[{"name":"owner","type":"address","indexed":true,"internalType":"address"},{"name":"approved","type":"address","indexed":true,"internalType":"address"},{"name":"tokenId","type":"uint256","indexed":true,"internalType":"uint256"}],"anonymous":false},{"type":"event","name":"ApprovalForAll","inputs":[{"name":"owner","type":"address","indexed":true,"internalType":"address"},{"name":"operator","type":"address","indexed":true,"internalType":"address"},{"name":"approved","type":"bool","indexed":false,"internalType":"bool"}],"anonymous":false},{"type":"event","name":"NewEpoch","inputs":[{"name":"epoch","type":"tuple","indexed":false,"internalType":"struct IConsensusRegistry.EpochInfo","components":[{"name":"committee","type":"address[]","internalType":"address[]"},{"name":"epochIssuance","type":"uint256","internalType":"uint256"},{"name":"blockHeight","type":"uint64","internalType":"uint64"},{"name":"epochId","type":"uint32","internalType":"uint32"},{"name":"epochDuration","type":"uint32","internalType":"uint32"},{"name":"stakeVersion","type":"uint8","internalType":"uint8"}]}],"anonymous":false},{"type":"event","name":"NextCommitteeSizeUpdated","inputs":[{"name":"oldSize","type":"uint16","indexed":false,"internalType":"uint16"},{"name":"newSize","type":"uint16","indexed":false,"internalType":"uint16"},{"name":"numActiveValidators","type":"uint256","indexed":false,"internalType":"uint256"}],"anonymous":false},{"type":"event","name":"OwnershipTransferred","inputs":[{"name":"previousOwner","type":"address","indexed":true,"internalType":"address"},{"name":"newOwner","type":"address","indexed":true,"internalType":"address"}],"anonymous":false},{"type":"event","name":"Paused","inputs":[{"name":"account","type":"address","indexed":false,"internalType":"address"}],"anonymous":false},{"type":"event","name":"RewardsClaimed","inputs":[{"name":"claimant","type":"address","indexed":true,"internalType":"address"},{"name":"rewards","type":"uint256","indexed":false,"internalType":"uint256"}],"anonymous":false},{"type":"event","name":"Transfer","inputs":[{"name":"from","type":"address","indexed":true,"internalType":"address"},{"name":"to","type":"address","indexed":true,"internalType":"address"},{"name":"tokenId","type":"uint256","indexed":true,"internalType":"uint256"}],"anonymous":false},{"type":"event","name":"Unpaused","inputs":[{"name":"account","type":"address","indexed":false,"internalType":"address"}],"anonymous":false},{"type":"event","name":"ValidatorActivated","inputs":[{"name":"validator","type":"tuple","indexed":false,"internalType":"struct IConsensusRegistry.ValidatorInfo","components":[{"name":"validatorAddress","type":"address","internalType":"address"},{"name":"activationEpoch","type":"uint32","internalType":"uint32"},{"name":"exitEpoch","type":"uint32","internalType":"uint32"},{"name":"currentStatus","type":"uint8","internalType":"enum IConsensusRegistry.ValidatorStatus"},{"name":"isRetired","type":"bool","internalType":"bool"},{"name":"stakeVersion","type":"uint8","internalType":"uint8"},{"name":"region","type":"uint8","internalType":"uint8"}]}],"anonymous":false},{"type":"event","name":"ValidatorExited","inputs":[{"name":"validator","type":"tuple","indexed":false,"internalType":"struct IConsensusRegistry.ValidatorInfo","components":[{"name":"validatorAddress","type":"address","internalType":"address"},{"name":"activationEpoch","type":"uint32","internalType":"uint32"},{"name":"exitEpoch","type":"uint32","internalType":"uint32"},{"name":"currentStatus","type":"uint8","internalType":"enum IConsensusRegistry.ValidatorStatus"},{"name":"isRetired","type":"bool","internalType":"bool"},{"name":"stakeVersion","type":"uint8","internalType":"uint8"},{"name":"region","type":"uint8","internalType":"uint8"}]}],"anonymous":false},{"type":"event","name":"ValidatorPendingActivation","inputs":[{"name":"validator","type":"tuple","indexed":false,"internalType":"struct IConsensusRegistry.ValidatorInfo","components":[{"name":"validatorAddress","type":"address","internalType":"address"},{"name":"activationEpoch","type":"uint32","internalType":"uint32"},{"name":"exitEpoch","type":"uint32","internalType":"uint32"},{"name":"currentStatus","type":"uint8","internalType":"enum IConsensusRegistry.ValidatorStatus"},{"name":"isRetired","type":"bool","internalType":"bool"},{"name":"stakeVersion","type":"uint8","internalType":"uint8"},{"name":"region","type":"uint8","internalType":"uint8"}]}],"anonymous":false},{"type":"event","name":"ValidatorPendingExit","inputs":[{"name":"validator","type":"tuple","indexed":false,"internalType":"struct IConsensusRegistry.ValidatorInfo","components":[{"name":"validatorAddress","type":"address","internalType":"address"},{"name":"activationEpoch","type":"uint32","internalType":"uint32"},{"name":"exitEpoch","type":"uint32","internalType":"uint32"},{"name":"currentStatus","type":"uint8","internalType":"enum IConsensusRegistry.ValidatorStatus"},{"name":"isRetired","type":"bool","internalType":"bool"},{"name":"stakeVersion","type":"uint8","internalType":"uint8"},{"name":"region","type":"uint8","internalType":"uint8"}]}],"anonymous":false},{"type":"event","name":"ValidatorRegionUpdated","inputs":[{"name":"validatorAddress","type":"address","indexed":true,"internalType":"address"},{"name":"region","type":"uint8","indexed":false,"internalType":"uint8"}],"anonymous":false},{"type":"event","name":"ValidatorRetired","inputs":[{"name":"validator","type":"tuple","indexed":false,"internalType":"struct IConsensusRegistry.ValidatorInfo","components":[{"name":"validatorAddress","type":"address","internalType":"address"},{"name":"activationEpoch","type":"uint32","internalType":"uint32"},{"name":"exitEpoch","type":"uint32","internalType":"uint32"},{"name":"currentStatus","type":"uint8","internalType":"enum IConsensusRegistry.ValidatorStatus"},{"name":"isRetired","type":"bool","internalType":"bool"},{"name":"stakeVersion","type":"uint8","internalType":"uint8"},{"name":"region","type":"uint8","internalType":"uint8"}]}],"anonymous":false},{"type":"event","name":"ValidatorSetsMigrated","inputs":[{"name":"eligibleValidatorCount","type":"uint256","indexed":false,"internalType":"uint256"}],"anonymous":false},{"type":"event","name":"ValidatorSlashed","inputs":[{"name":"slash","type":"tuple","indexed":false,"internalType":"struct Slash","components":[{"name":"validatorAddress","type":"address","internalType":"address"},{"name":"amount","type":"uint256","internalType":"uint256"}]}],"anonymous":false},{"type":"event","name":"ValidatorStakeVersionUpgraded","inputs":[{"name":"validatorAddress","type":"address","indexed":true,"internalType":"address"},{"name":"oldVersion","type":"uint8","indexed":false,"internalType":"uint8"},{"name":"newVersion","type":"uint8","indexed":false,"internalType":"uint8"},{"name":"oldStakeAmount","type":"uint256","indexed":false,"internalType":"uint256"},{"name":"newStakeAmount","type":"uint256","indexed":false,"internalType":"uint256"}],"anonymous":false},{"type":"event","name":"ValidatorStaked","inputs":[{"name":"validator","type":"tuple","indexed":false,"internalType":"struct IConsensusRegistry.ValidatorInfo","components":[{"name":"validatorAddress","type":"address","internalType":"address"},{"name":"activationEpoch","type":"uint32","internalType":"uint32"},{"name":"exitEpoch","type":"uint32","internalType":"uint32"},{"name":"currentStatus","type":"uint8","internalType":"enum IConsensusRegistry.ValidatorStatus"},{"name":"isRetired","type":"bool","internalType":"bool"},{"name":"stakeVersion","type":"uint8","internalType":"uint8"},{"name":"region","type":"uint8","internalType":"uint8"}]}],"anonymous":false},{"type":"error","name":"AlreadyDefined","inputs":[{"name":"validatorAddress","type":"address","internalType":"address"}]},{"type":"error","name":"BLSPubkeyMismatch","inputs":[]},{"type":"error","name":"BlsPubkeyNotFound","inputs":[{"name":"validatorAddress","type":"address","internalType":"address"}]},{"type":"error","name":"CommitteeRequirement","inputs":[{"name":"validatorAddress","type":"address","internalType":"address"}]},{"type":"error","name":"DuplicateBLSPubkey","inputs":[]},{"type":"error","name":"ERC721EnumerableForbiddenBatchMint","inputs":[]},{"type":"error","name":"ERC721IncorrectOwner","inputs":[{"name":"sender","type":"address","internalType":"address"},{"name":"tokenId","type":"uint256","internalType":"uint256"},{"name":"owner","type":"address","internalType":"address"}]},{"type":"error","name":"ERC721InsufficientApproval","inputs":[{"name":"operator","type":"address","internalType":"address"},{"name":"tokenId","type":"uint256","internalType":"uint256"}]},{"type":"error","name":"ERC721InvalidApprover","inputs":[{"name":"approver","type":"address","internalType":"address"}]},{"type":"error","name":"ERC721InvalidOperator","inputs":[{"name":"operator","type":"address","internalType":"address"}]},{"type":"error","name":"ERC721InvalidOwner","inputs":[{"name":"owner","type":"address","internalType":"address"}]},{"type":"error","name":"ERC721InvalidReceiver","inputs":[{"name":"receiver","type":"address","internalType":"address"}]},{"type":"error","name":"ERC721InvalidSender","inputs":[{"name":"sender","type":"address","internalType":"address"}]},{"type":"error","name":"ERC721NonexistentToken","inputs":[{"name":"tokenId","type":"uint256","internalType":"uint256"}]},{"type":"error","name":"ERC721OutOfBoundsIndex","inputs":[{"name":"owner","type":"address","internalType":"address"},{"name":"index","type":"uint256","internalType":"uint256"}]},{"type":"error","name":"EnforcedPause","inputs":[]},{"type":"error","name":"ExpectedPause","inputs":[]},{"type":"error","name":"GenesisArityMismatch","inputs":[]},{"type":"error","name":"IneligibleUnstake","inputs":[{"name":"validator","type":"tuple","internalType":"struct IConsensusRegistry.ValidatorInfo","components":[{"name":"validatorAddress","type":"address","internalType":"address"},{"name":"activationEpoch","type":"uint32","internalType":"uint32"},{"name":"exitEpoch","type":"uint32","internalType":"uint32"},{"name":"currentStatus","type":"uint8","internalType":"enum IConsensusRegistry.ValidatorStatus"},{"name":"isRetired","type":"bool","internalType":"bool"},{"name":"stakeVersion","type":"uint8","internalType":"uint8"},{"name":"region","type":"uint8","internalType":"uint8"}]}]},{"type":"error","name":"InsufficientRewards","inputs":[{"name":"withdrawAmount","type":"uint256","internalType":"uint256"}]},{"type":"error","name":"InvalidBLSPubkey","inputs":[]},{"type":"error","name":"InvalidCommitteeSize","inputs":[{"name":"minCommitteeSize","type":"uint256","internalType":"uint256"},{"name":"providedCommitteeSize","type":"uint256","internalType":"uint256"}]},{"type":"error","name":"InvalidDuration","inputs":[{"name":"duration","type":"uint32","internalType":"uint32"}]},{"type":"error","name":"InvalidEpoch","inputs":[{"name":"epoch","type":"uint32","internalType":"uint32"}]},{"type":"error","name":"InvalidProofOfPossession","inputs":[{"name":"proof","type":"tuple","internalType":"struct BlsG1.ProofOfPossession","components":[{"name":"signature","type":"bytes","internalType":"bytes"}]}]},{"type":"error","name":"InvalidStakeAmount","inputs":[{"name":"stakeAmount","type":"uint256","internalType":"uint256"}]},{"type":"error","name":"InvalidStakeVersion","inputs":[{"name":"currentVersion","type":"uint8","internalType":"uint8"},{"name":"targetVersion","type":"uint8","internalType":"uint8"}]},{"type":"error","name":"InvalidStatus","inputs":[{"name":"status","type":"uint8","internalType":"enum IConsensusRegistry.ValidatorStatus"}]},{"type":"error","name":"InvalidSupply","inputs":[]},{"type":"error","name":"InvalidTokenId","inputs":[{"name":"tokenId","type":"uint256","internalType":"uint256"}]},{"type":"error","name":"InvalidValidatorAddress","inputs":[]},{"type":"error","name":"IssuanceTransferFailed","inputs":[]},{"type":"error","name":"NotRecipient","inputs":[{"name":"recipient","type":"address","internalType":"address"}]},{"type":"error","name":"NotTransferable","inputs":[]},{"type":"error","name":"NotValidator","inputs":[{"name":"validatorAddress","type":"address","internalType":"address"}]},{"type":"error","name":"OnlySystemCall","inputs":[{"name":"invalidCaller","type":"address","internalType":"address"}]},{"type":"error","name":"OwnableInvalidOwner","inputs":[{"name":"owner","type":"address","internalType":"address"}]},{"type":"error","name":"OwnableUnauthorizedAccount","inputs":[{"name":"account","type":"address","internalType":"address"}]},{"type":"error","name":"Reentrancy","inputs":[]},{"type":"error","name":"RequiresConsensusNFT","inputs":[]},{"type":"error","name":"StringsInsufficientHexLength","inputs":[{"name":"value","type":"uint256","internalType":"uint256"},{"name":"length","type":"uint256","internalType":"uint256"}]}],"bytecode":{"object":"0x610120604052348015610010575f5ffd5b5060405161891c38038061891c83398101604081905261002f916114d7565b806040518060400160405280600c81526020016b10dbdb9cd95b9cdd5cd3919560a21b8152506040518060400160405280600481526020016310d3919560e21b8152508181815f9081610082919061164e565b50600161008f828261164e565b505030608052504660a0526060806100ef604080518082018252601481527f54656c636f696e205374616b654d616e61676572000000000000000000000000602080830191909152825180840190935260018352603160f81b9083015291565b815160209283012081519183019190912060c082905260e0819052604080517f8b73c3c69bb8fe3d512ecc4cf759cc79239f7b179b0ffacaa9a75d522b39400f8152938401929092529082015246606082015230608082015260a09020610100525050600d805461ff001916905550506001600160a01b03811661018d57604051631e4fbdf760e01b81525f60048201526024015b60405180910390fd5b61019681610837565b50835115806101a757508251845114155b806101b457508151845114155b156101d257604051633aa3e03360e01b815260040160405180910390fd5b5f808052600a602090815286517f13da86008ba1c6922daee3e07db95305ef49ebced9f5467a0b8613fcc6b343e3558601517f13da86008ba1c6922daee3e07db95305ef49ebced9f5467a0b8613fcc6b343e45560408601517f13da86008ba1c6922daee3e07db95305ef49ebced9f5467a0b8613fcc6b343e55560608601517f13da86008ba1c6922daee3e07db95305ef49ebced9f5467a0b8613fcc6b343e6805463ffffffff191663ffffffff9092169190911790558451600d805461ffff60d81b1916600160d81b61ffff909316929092029190911790555b600281116103b8575f601182600481106102ca576102ca61170c565b6003020160028101805460608a0151600160401b600160801b03199091166801000000000000000063ffffffff8781169190910263ffffffff60601b1916919091176c0100000000000000000000000091909216021790556040880151600182015590505f601d83600481106103425761034261170c565b6003020160028101805460608b0151600160401b600160801b03199091166801000000000000000063ffffffff8881169190910263ffffffff60601b1916919091176c0100000000000000000000000091909216021790556040890151600190910155506103b1905081611734565b90506102ae565b505f5b8451811015610827575f8582815181106103d7576103d761170c565b602002602001015190505f6104288584815181106103f7576103f761170c565b6020026020010151835f01518886815181106104155761041561170c565b602002602001015161089260201b60201c565b82519091506001600160a01b03166104535760405163713ce51160e01b815260040160405180910390fd5b602082015163ffffffff161561048a576020820151604051634fadd4d360e11b815263ffffffff9091166004820152602401610184565b604082015163ffffffff16156104c1576040808301519051634fadd4d360e11b815263ffffffff9091166004820152602401610184565b6003826060015160068111156104d9576104d961174c565b146104fd578160600151604051633ba7bf8960e11b81526004016101849190611780565b608082015115610523576005604051633ba7bf8960e11b81526004016101849190611780565b60a082015160ff16156105545760a082015160405163222d164360e21b815260ff9091166004820152602401610184565b5f5b6002811161060a57601181600481106105715761057161170c565b84516003919091029190910180546001810182555f91825260209091200180546001600160a01b0319166001600160a01b03909216919091179055601d81600481106105bf576105bf61170c565b84516003919091029190910180546001810182555f91825260209091200180546001600160a01b0319166001600160a01b0390921691909117905561060381611734565b9050610556565b5085838151811061061d5761061d61170c565b60209081029190910181015183516001600160a01b03165f908152602990925260409091209061064d908261164e565b5081516001600160a01b039081165f908152600f602090815260409182902085518154928701519387015163ffffffff908116600160c01b0263ffffffff60c01b1991909516600160a01b026001600160c01b0319909416919095161791909117928316821781556060850151859391929091839160ff60e01b191664ffffffffff60c01b1990911617600160e01b8360068111156106ee576106ee61174c565b02179055506080820151815460a084015160c09094015160ff908116600160f81b026001600160f81b0391909516600160f01b0260ff60f01b19931515600160e81b029390931661ffff60e81b19909216919091179190911716919091179055815160035f52602a602052610784907f4adfa5efd78af8432c8ff812ed4c3d89e016f048361846e090e1a7c770f31576906109bd565b50875182516001600160a01b039081165f908152600b60209081526040808320949094558551858352601090915292902080546001600160a01b0319169290911691909117905581516107e6906107e1816001600160a01b031690565b6109da565b7fabab4191fe954f07230f7e34fd48dc0fdcbed492526cd060001cccceab22851b82604051610815919061178e565b60405180910390a150506001016103bb565b50509151602b555061190a915050565b600d80546001600160a01b038381166201000081810262010000600160b01b031985161790945560405193909204169182907f8be0079c531659141344cd1fd0a4f28419497f9722a3daafe3b4186f6b6457e0905f90a35050565b5f81516060146108b5576040516333a234f960e11b815260040160405180910390fd5b5f825f815181106108c8576108c861170c565b016020015160f81c90506080811615806108e457506040811615155b15610902576040516333a234f960e11b815260040160405180910390fd5b5f61090d8486610a40565b865160405163a65ebb2560e01b815291925073__$2ef4e8110a3eaa1255da7f08f8eebcbf5a$__9163a65ebb259161094b9188908690600401611836565b602060405180830381865af4158015610966573d5f5f3e3d5ffd5b505050506040513d601f19601f8201168201806040525081019061098a919061186e565b6109a9578560405163a865bb3560e01b81526004016101849190611887565b6109b38486610a90565b9695505050505050565b5f6109d1836001600160a01b038416610b1c565b90505b92915050565b6001600160a01b038216610a0357604051633250574960e11b81525f6004820152602401610184565b5f610a0f838383610b68565b90506001600160a01b03811615610a3b576040516339e3563760e11b81525f6004820152602401610184565b505050565b60608251606014610a64576040516333a234f960e11b815260040160405180910390fd5b604051610a79905f90859085906020016118a1565b604051602081830303815290604052905092915050565b604080516020848101516001600160fd1b031682528483015181830152606080860151838501529091205f8181526010909252919020546001600160a01b031615610aee57604051638d12779f60e01b815260040160405180910390fd5b5f81815260106020526040902080546001600160a01b0384166001600160a01b031990911617905592915050565b5f818152600183016020526040812054610b6157508154600181810184555f8481526020808220909301849055845484825282860190935260409020919091556109d4565b505f6109d4565b5f80610b75858585610c3b565b90506001600160a01b038116610bd157610bcc84600880545f838152600960205260408120829055600182018355919091527ff3f7a9fe364faab93b216da50a3214154f22a0a2b415b23a84c8169e8b636ee30155565b610bf4565b846001600160a01b0316816001600160a01b031614610bf457610bf48185610d2d565b6001600160a01b038516610c1057610c0b84610daa565b610c33565b846001600160a01b0316816001600160a01b031614610c3357610c338585610e51565b949350505050565b5f828152600260205260408120546001600160a01b0390811690831615610c6757610c67818486610e9f565b6001600160a01b03811615610ca157610c825f858180610f03565b6001600160a01b0381165f90815260036020526040902080545f190190555b6001600160a01b03851615610ccf576001600160a01b0385165f908152600360205260409020805460010190555b5f8481526002602052604080822080546001600160a01b0319166001600160a01b0389811691821790925591518793918516917fddf252ad1be2c89b69c2b068fc378daa952ba7f163c4a11628f55a4df523b3ef91a4949350505050565b5f610d3783611025565b5f838152600760209081526040808320546001600160a01b0388168452600690925290912091925090818314610d8c575f83815260208281526040808320548584528184208190558352600790915290208290555b5f938452600760209081526040808620869055938552525081205550565b6008545f90610dbb906001906118e3565b5f8381526009602052604081205460088054939450909284908110610de257610de261170c565b905f5260205f20015490508060088381548110610e0157610e0161170c565b5f918252602080832090910192909255828152600990915260408082208490558582528120556008805480610e3857610e386118f6565b600190038181905f5260205f20015f9055905550505050565b5f6001610e5d84611025565b610e6791906118e3565b6001600160a01b039093165f908152600660209081526040808320868452825280832085905593825260079052919091209190915550565b610eaa83838361106a565b610a3b576001600160a01b038316610ed857604051637e27328960e01b815260048101829052602401610184565b60405163177e802f60e01b81526001600160a01b038316600482015260248101829052604401610184565b8080610f1757506001600160a01b03821615155b15610ff6575f610f26846110ea565b90506001600160a01b03831615801590610f525750826001600160a01b0316816001600160a01b031614155b8015610f8357506001600160a01b038082165f9081526005602090815260408083209387168352929052205460ff16155b15610fac5760405163a9fbf51f60e01b81526001600160a01b0384166004820152602401610184565b8115610ff45783856001600160a01b0316826001600160a01b03167f8c5be1e5ebec7d5bd14f71427d1e84f3dd0314c0f7b2291e5b200ac8c7c3b92560405160405180910390a45b505b50505f90815260046020526040902080546001600160a01b0319166001600160a01b0392909216919091179055565b5f6001600160a01b03821661104f576040516322718ad960e21b81525f6004820152602401610184565b506001600160a01b03165f9081526003602052604090205490565b5f6001600160a01b03831615801590610c335750826001600160a01b0316846001600160a01b031614806110c257506001600160a01b038085165f9081526005602090815260408083209387168352929052205460ff165b80610c335750505f908152600460205260409020546001600160a01b03908116911614919050565b5f818152600260205260408120546001600160a01b0316806109d457604051637e27328960e01b815260048101849052602401610184565b634e487b7160e01b5f52604160045260245ffd5b60405160e081016001600160401b038111828210171561115857611158611122565b60405290565b604051602081016001600160401b038111828210171561115857611158611122565b604051608081016001600160401b038111828210171561115857611158611122565b604051601f8201601f191681016001600160401b03811182821017156111ca576111ca611122565b604052919050565b805163ffffffff811681146111e5575f5ffd5b919050565b5f6001600160401b0382111561120257611202611122565b5060051b60200190565b80516001600160a01b03811681146111e5575f5ffd5b805180151581146111e5575f5ffd5b805160ff811681146111e5575f5ffd5b5f82601f830112611250575f5ffd5b815161126361125e826111ea565b6111a2565b80828252602082019150602060e08402860101925085831115611284575f5ffd5b602085015b8381101561132e5760e081880312156112a0575f5ffd5b6112a8611136565b6112b18261120c565b81526112bf602083016111d2565b60208201526112d0604083016111d2565b60408201526060820151600781106112e6575f5ffd5b60608201526112f760808301611222565b608082015261130860a08301611231565b60a082015261131960c08301611231565b60c0820152835260209092019160e001611289565b5095945050505050565b5f82601f830112611347575f5ffd5b81516001600160401b0381111561136057611360611122565b611373601f8201601f19166020016111a2565b818152846020838601011115611387575f5ffd5b8160208501602083015e5f918101602001919091529392505050565b5f82601f8301126113b2575f5ffd5b81516113c061125e826111ea565b8082825260208201915060208360051b8601019250858311156113e1575f5ffd5b602085015b8381101561132e5780516001600160401b03811115611403575f5ffd5b611412886020838a0101611338565b845250602092830192016113e6565b5f82601f830112611430575f5ffd5b815161143e61125e826111ea565b8082825260208201915060208360051b86010192508583111561145f575f5ffd5b602085015b8381101561132e5780516001600160401b03811115611481575f5ffd5b86016020818903601f19011215611496575f5ffd5b61149e61115e565b60208201516001600160401b038111156114b6575f5ffd5b6114c58a602083860101611338565b82525084525060209283019201611464565b5f5f5f5f5f8587036101008112156114ed575f5ffd5b60808112156114fa575f5ffd5b50611503611180565b865181526020808801519082015260408088015190820152611527606088016111d2565b606082015260808701519095506001600160401b03811115611547575f5ffd5b61155388828901611241565b60a088015190955090506001600160401b03811115611570575f5ffd5b61157c888289016113a3565b60c088015190945090506001600160401b03811115611599575f5ffd5b6115a588828901611421565b9250506115b460e0870161120c565b90509295509295909350565b600181811c908216806115d457607f821691505b6020821081036115f257634e487b7160e01b5f52602260045260245ffd5b50919050565b601f821115610a3b5782821115610a3b57805f5260205f20601f840160051c602085101561162357505f5b90810190601f840160051c035f5b81811015611646575f83820155600101611631565b505050505050565b81516001600160401b0381111561166757611667611122565b61167b8161167584546115c0565b846115f8565b6020601f8211600181146116ad575f83156116965750848201515b5f19600385901b1c1916600184901b178455611705565b5f84815260208120601f198516915b828110156116dc57878501518255602094850194600190920191016116bc565b50848210156116f957868401515f19600387901b60f8161c191681555b505060018360011b0184555b5050505050565b634e487b7160e01b5f52603260045260245ffd5b634e487b7160e01b5f52601160045260245ffd5b5f6001820161174557611745611720565b5060010190565b634e487b7160e01b5f52602160045260245ffd5b6007811061177c57634e487b7160e01b5f52602160045260245ffd5b9052565b602081016109d48284611760565b5f60e08201905060018060a01b03835116825263ffffffff602084015116602083015263ffffffff604084015116604083015260608301516117d36060840182611760565b5060808301511515608083015260ff60a08401511660a083015260c083015161180160c084018260ff169052565b5092915050565b5f81518084528060208401602086015e5f602082860101526020601f19601f83011685010191505092915050565b606081525f6118486060830186611808565b828103602084015261185a8186611808565b905082810360408401526109b38185611808565b5f6020828403121561187e575f5ffd5b6109d182611222565b602081525f8251602080840152610c336040840182611808565b6001600160e81b03198416815282515f908060208601600385015e60609390931b6001600160601b031916600392909301918201929092526017019392505050565b818103818111156109d4576109d4611720565b634e487b7160e01b5f52603160045260245ffd5b60805160a05160c05160e05161010051616fd56119475f395f6145ce01525f61468801525f61466201525f61461201525f6145ef0152616fd55ff3fe6080604052600436106103c8575f3560e01c80636a627842116101f4578063a0201be511610113578063c87b56dd116100a8578063eb8535c211610078578063eb8535c214610b9c578063f062476814610bc9578063f2888dbb14610be8578063f2fde38b14610c07578063fa52c7d814610c26575f5ffd5b8063c87b56dd14610b2c578063e3716d0414610b4b578063e80cb65f14610b6a578063e985e9c514610b7d575f5ffd5b8063b88d4fde116100e3578063b88d4fde14610aa9578063b97dd9e214610ac8578063babc394f14610af9578063c05df7ac14610b0d575f5ffd5b8063a0201be514610a3d578063a22cb46514610a5c578063a71954ec14610a76578063aaffd27014610a95575f5ffd5b80637d06fdf81161018957806389afcb441161015957806389afcb44146109bb5780638cc05eda146109da5780638da5cb5b14610a0657806395d89b4114610a29575f5ffd5b80637d06fdf81461090c5780638456cb591461095957806384b0196e1461096d578063863623bb14610994575f5ffd5b806370a08231116101c457806370a082311461089b578063715018a6146108ba57806379ee54f7146108ce5780637b55a300146108ed575f5ffd5b80636a627842146108125780636a926591146108315780636ae9942c146108505780636d3c62751461087c575f5ffd5b80632b9f4985116102eb5780633f4ba83a116102805780635a41fb1f116102505780635a41fb1f1461077f5780635c975abb1461079257806362fcde4b146107ae5780636352211e146107cd57806367398331146107ec575f5ffd5b80633f4ba83a1461070e57806342842e0e146107225780634f6ccce71461074157806359ca93b614610760575f5ffd5b8063355811a7116102bb578063355811a714610660578063374ed18c146106685780633894228e146106945780633e28391d146106ef575f5ffd5b80632b9f4985146105f55780632f745c59146106145780632fb0d025146106335780633434735f14610646575f5ffd5b80630f15f4c0116103615780632228dfa0116103315780632228dfa01461058757806323a404301461059b57806323b872dd146105af5780632870259d146105c9575f5ffd5b80630f15f4c0146104f957806315b5709a1461050d57806318160ddd146105475780631904bb2e1461055b575f5ffd5b806306fdde031161039c57806306fdde0314610470578063081812fc14610484578063095ea7b3146104bb5780630a36cdef146104da575f5ffd5b80628d6acd146103cc57806301ffc9a7146103f457806302ae337b14610423578063059b916c14610444575b5f5ffd5b3480156103d7575f5ffd5b506103e1600e5481565b6040519081526020015b60405180910390f35b3480156103ff575f5ffd5b5061041361040e366004615a12565b610cb1565b60405190151581526020016103eb565b34801561042e575f5ffd5b5061044261043d366004615a74565b610cdb565b005b34801561044f575f5ffd5b5061046361045e366004615ac8565b610e31565b6040516103eb9190615b0f565b34801561047b575f5ffd5b50610463610f02565b34801561048f575f5ffd5b506104a361049e366004615b21565b610f91565b6040516001600160a01b0390911681526020016103eb565b3480156104c6575f5ffd5b506104426104d5366004615b38565b610fb8565b3480156104e5575f5ffd5b506104426104f4366004615a74565b610fd1565b348015610504575f5ffd5b50610442611220565b348015610518575f5ffd5b5061052c610527366004615ac8565b611269565b604080519384526020840192909252908201526060016103eb565b348015610552575f5ffd5b506008546103e1565b348015610566575f5ffd5b5061057a610575366004615ac8565b6112cf565b6040516103eb9190615c00565b348015610592575f5ffd5b506104426113b2565b3480156105a6575f5ffd5b506103e1611472565b3480156105ba575f5ffd5b506104426104d5366004615c0e565b3480156105d4575f5ffd5b506105e86105e3366004615c48565b611481565b6040516103eb9190615c66565b348015610600575f5ffd5b5061044261060f366004615ac8565b6115ff565b34801561061f575f5ffd5b506103e161062e366004615b38565b6116c4565b610442610641366004615df0565b611727565b348015610651575f5ffd5b506104a36002600160a01b0381565b6104426117b4565b348015610673575f5ffd5b50610687610682366004615e68565b611836565b6040516103eb9190615ec6565b34801561069f575f5ffd5b506106b36106ae366004615b21565b6119d5565b604080519586526001600160401b03909416602086015263ffffffff9283169385019390935216606083015260ff16608082015260a0016103eb565b3480156106fa575f5ffd5b50610413610709366004615ac8565b611a29565b348015610719575f5ffd5b50610442611a4f565b34801561072d575f5ffd5b5061044261073c366004615c0e565b611a61565b34801561074c575f5ffd5b506103e161075b366004615b21565b611a7b565b34801561076b575f5ffd5b506106b361077a366004615b21565b611ad0565b61044261078d366004615f47565b611adf565b34801561079d575f5ffd5b50600d54610100900460ff16610413565b3480156107b9575f5ffd5b506104426107c8366004615f78565b611f31565b3480156107d8575f5ffd5b506104a36107e7366004615b21565b612038565b3480156107f7575f5ffd5b50610800612042565b60405160ff90911681526020016103eb565b34801561081d575f5ffd5b5061044261082c366004615ac8565b612054565b34801561083c575f5ffd5b5061041361084b366004615f99565b6120b2565b34801561085b575f5ffd5b5061086f61086a366004615e68565b61214d565b6040516103eb9190615fcb565b348015610887575f5ffd5b50610413610896366004615ac8565b6122a1565b3480156108a6575f5ffd5b506103e16108b5366004615ac8565b612325565b3480156108c5575f5ffd5b5061044261236a565b3480156108d9575f5ffd5b506103e16108e8366004615ac8565b61237b565b3480156108f8575f5ffd5b5061044261090736600461602e565b6123bd565b348015610917575f5ffd5b5061092061252a565b6040516103eb919081518152602080830151908201526040808301519082015260609182015163ffffffff169181019190915260800190565b348015610964575f5ffd5b506104426125a7565b348015610978575f5ffd5b506109816125b7565b6040516103eb979695949392919061609d565b34801561099f575f5ffd5b506104a37307a07a07a07a07a07a07a07a07a07a07a07a07a081565b3480156109c6575f5ffd5b506104426109d5366004615ac8565b61261e565b3480156109e5575f5ffd5b506109f96109f4366004615c48565b6126ce565b6040516103eb9190616133565b348015610a11575f5ffd5b50600d546201000090046001600160a01b03166104a3565b348015610a34575f5ffd5b506104636126e2565b348015610a48575f5ffd5b506105e8610a57366004615e68565b6126f1565b348015610a67575f5ffd5b506104426104d5366004616152565b348015610a81575f5ffd5b50610920610a90366004616187565b6127aa565b348015610aa0575f5ffd5b50610442612824565b348015610ab4575f5ffd5b50610442610ac33660046161a0565b612983565b348015610ad3575f5ffd5b50600d54600160b01b900463ffffffff1660405163ffffffff90911681526020016103eb565b348015610b04575f5ffd5b5061068761299b565b348015610b18575f5ffd5b50610800610b27366004616203565b612aa8565b348015610b37575f5ffd5b50610463610b46366004615b21565b612b5e565b348015610b56575f5ffd5b506103e1610b6536600461621c565b612bce565b610442610b78366004616275565b612cae565b348015610b88575f5ffd5b50610413610b9736600461631c565b612f20565b348015610ba7575f5ffd5b50600d54600160d81b900461ffff1660405161ffff90911681526020016103eb565b348015610bd4575f5ffd5b50610442610be3366004615f47565b612f4d565b348015610bf3575f5ffd5b50610442610c02366004615ac8565b612fcc565b348015610c12575f5ffd5b50610442610c21366004615ac8565b61305e565b348015610c31575f5ffd5b50610c9e610c40366004615ac8565b600f6020525f90815260409020546001600160a01b0381169063ffffffff600160a01b8204811691600160c01b81049091169060ff600160e01b8204811691600160e81b8104821691600160f01b8204811691600160f81b90041687565b6040516103eb9796959493929190616344565b5f6001600160e01b0319821663780e9d6360e01b1480610cd55750610cd582613098565b92915050565b336002600160a01b0314610d0957604051637eb3357160e01b81523360048201526024015b60405180910390fd5b5f5b81811015610e2c5736838383818110610d2657610d26616397565b604002919091019150610d4190506108966020830183615ac8565b15610d4c5750610e24565b60208101803590600b905f90610d629085615ac8565b6001600160a01b03166001600160a01b031681526020019081526020015f20541115610dd65760208101803590600b905f90610d9e9085615ac8565b6001600160a01b03166001600160a01b031681526020019081526020015f205f828254610dcb91906163bf565b90915550610deb9050565b610deb610de66020830183615ac8565b6130e7565b7f11a09f9b32440d896abff7453bf53f8b26ffcb18dae4dca227f7a76e2acc3a6481604051610e1a91906163d2565b60405180910390a1505b600101610d0b565b505050565b6001600160a01b0381165f90815260296020526040812080546060929190610e58906163fb565b80601f0160208091040260200160405190810160405280929190818152602001828054610e84906163fb565b8015610ecf5780601f10610ea657610100808354040283529160200191610ecf565b820191905f5260205f20905b815481529060010190602001808311610eb257829003601f168201915b5050505050905080515f03610cd557604051635f7ba20d60e11b81526001600160a01b0384166004820152602401610d00565b60605f8054610f10906163fb565b80601f0160208091040260200160405190810160405280929190818152602001828054610f3c906163fb565b8015610f875780601f10610f5e57610100808354040283529160200191610f87565b820191905f5260205f20905b815481529060010190602001808311610f6a57829003601f168201915b5050505050905090565b5f610f9b82613226565b505f828152600460205260409020546001600160a01b0316610cd5565b60405163dc8d8db760e01b815260040160405180910390fd5b336002600160a01b0314610ffa57604051637eb3357160e01b8152336004820152602401610d00565b5f80826001600160401b0381111561101457611014615cf0565b60405190808252806020026020018201604052801561103d578160200160208202803683370190505b5090505f5b83811015611121573685858381811061105d5761105d616397565b905060400201905080602001355f036110765750611119565b6110866108966020830183615ac8565b156110915750611119565b5f600f816110a26020850185615ac8565b6001600160a01b0316815260208082019290925260409081015f90812054600160f01b900460ff16808252600a84529181205491935090916110e79085013583616433565b90506110f3818861644a565b96508086868151811061110857611108616397565b602002602001018181525050505050505b600101611042565b50815f0361112f5750505050565b5f61113861299b565b6020015190505f600e548261114d919061644a565b90505f5f5b86811015611208575f8686838151811061116e5761116e616397565b6020026020010151856111819190616433565b61118b9190616471565b905080156111ff5780600b5f8b8b868181106111a9576111a9616397565b6111bf9260206040909202019081019150615ac8565b6001600160a01b03166001600160a01b031681526020019081526020015f205f8282546111ec919061644a565b909155506111fc9050818461644a565b92505b50600101611152565b5061121381836163bf565b600e5550505050505b5050565b61122861325e565b61123133613287565b5061123d3360016132f5565b335f908152600f60205260409020600d54611266908290600160b01b900463ffffffff1661335b565b50565b6001600160a01b0381165f908152600f6020908152604080832054600160f01b900460ff16808452600a90925282205482918291826112a887836133c0565b6001600160a01b03979097165f908152600b60205260409020549791969550909350505050565b6112d76159c2565b6001600160a01b0382165f908152600f602052604090208054600160e81b900460ff166113095761130783613287565b505b6040805160e08101825282546001600160a01b038116825263ffffffff600160a01b820481166020840152600160c01b82041692820192909252908290606083019060ff600160e01b90910416600681111561136757611367615b60565b600681111561137857611378615b60565b8152905460ff600160e81b8204811615156020840152600160f01b820481166040840152600160f81b909104166060909101529392505050565b6113ba61325e565b6113c333613287565b505f6113ce602b5490565b600d549091505f90601190600160d01b900460ff16600481106113f3576113f3616397565b6003020154905061140482826133f9565b61140f3360036132f5565b335f908152600f60205260409020600d54815463ffffffff600160b01b909204821691600160a01b9091041681101561146357604051634fadd4d360e11b815263ffffffff82166004820152602401610d00565b61146c82613436565b50505050565b5f61147c602b5490565b905090565b606061148c82613493565b5f611496836134e3565b90505f81516001600160401b038111156114b2576114b2615cf0565b6040519080825280602002602001820160405280156114eb57816020015b6114d86159c2565b8152602001906001900390816114d05790505b5090505f5b82518110156115f757600f5f84838151811061150e5761150e616397565b6020908102919091018101516001600160a01b0390811683528282019390935260409182015f20825160e0810184528154948516815263ffffffff600160a01b8604811693820193909352600160c01b85049092169282019290925291606083019060ff600160e01b90910416600681111561158c5761158c615b60565b600681111561159d5761159d615b60565b8152905460ff600160e81b8204811615156020840152600160f01b820481166040840152600160f81b9091041660609091015282518390839081106115e4576115e4616397565b60209081029190910101526001016114f0565b509392505050565b61160761325e565b3068929eee149b4bd2126854036116255763ab143c065f526004601cfd5b3068929eee149b4bd21268555f61163b82613515565b6001600160a01b0383165f908152600f6020526040812054919250600160f01b90910460ff169061166d848484613576565b9050826001600160a01b03167ffc30cddea38e2bf4d6ea7d3f9ed3b6ad7f176419f4963bd81318067a4aee73fe826040516116aa91815260200190565b60405180910390a25050503868929eee149b4bd212685550565b5f6116ce83612325565b82106116ff5760405163295f44f760e21b81526001600160a01b038416600482015260248101839052604401610d00565b506001600160a01b03919091165f908152600660209081526040808320938352929052205490565b61172f61325e565b61176f813385858080601f0160208091040260200160405190810160405280939291908181526020018383808284375f9201919091525061362b92505050565b505f61177961299b565b60a0015190505f61178a3483613756565b905061179533613287565b506117a0335f6132f5565b6117ad8585338585613791565b5050505050565b6117bc61394b565b6040515f907307a07a07a07a07a07a07a07a07a07a07a07a07a09034908381818185875af1925050503d805f811461180f576040519150601f19603f3d011682016040523d82523d5f602084013e611814565b606091505b505090508061126657604051630b567ce360e31b815260040160405180910390fd5b6040805160c08101825260608082525f6020830181905292820183905281018290526080810182905260a0810191909152600d54600160b01b900463ffffffff16611882816002616484565b63ffffffff168363ffffffff1611806118c2575060038163ffffffff16101580156118c257506118b36003826164a0565b63ffffffff168363ffffffff16105b156118e857604051634fadd4d360e11b815263ffffffff84166004820152602401610d00565b600d54600160d01b900460ff1663ffffffff82811690851611156119ca5761191184838361397f565b60408051825460e0602082028301810190935260c08201818152919392849291849184018282801561196a57602002820191905f5260205f20905b81546001600160a01b0316815260019091019060200180831161194c575b5050509183525050600182015460208201526002909101546001600160401b038116604083015263ffffffff600160401b820481166060840152600160601b820416608083015260ff600160801b9091041660a090910152949350505050565b611911848383613a09565b601181600481106119e4575f80fd5b6003020160018101546002909101549091506001600160401b03811690600160401b810463ffffffff90811691600160601b810490911690600160801b900460ff1685565b6001600160a01b038082165f908152600c60205260408120600201549091161515610cd5565b611a5761394b565b611a5f613aa0565b565b610e2c83838360405180602001604052805f815250612983565b5f611a8560085490565b8210611aad5760405163295f44f760e21b81525f600482015260248101839052604401610d00565b60088281548110611ac057611ac0616397565b905f5260205f2001549050919050565b601d81600481106119e4575f80fd5b611ae761325e565b3068929eee149b4bd212685403611b055763ab143c065f526004601cfd5b3068929eee149b4bd21268555f611b1b83613515565b6001600160a01b0384165f908152600f60205260409020805491925090600160e01b900460ff166001816006811115611b5657611b56615b60565b14158015611b7657506002816006811115611b7357611b73615b60565b14155b8015611b9457506003816006811115611b9157611b91615b60565b14155b15611bb45780604051633ba7bf8960e11b8152600401610d0091906164bc565b815460ff600160f01b909104811690851681101580611bdb5750600d5460ff908116908616115b15611c0657604051633abb443b60e21b815260ff808316600483015286166024820152604401610d00565b60ff8082165f908152600a602052604080822054928816825290205481811115611c8c575f611c3583836163bf565b9050803414611c595760405163222d164360e21b8152346004820152602401610d00565b6001600160a01b0389165f908152600b602052604081208054839290611c8090849061644a565b90915550611e5b915050565b81811015611e3a573415611cb55760405163222d164360e21b8152346004820152602401610d00565b5f611cc082846163bf565b6001600160a01b038a165f908152600b6020526040812054919250848210611ce9575081611cfe565b83821115611cfe57611cfb84836163bf565b90505b8015611da2576001600160a01b038b165f908152600b602052604081208054839290611d2b9084906163bf565b9091555050604051634875485760e11b81526001600160a01b038a1660048201525f60248201527307a07a07a07a07a07a07a07a07a07a07a07a07a0906390ea90ae9083906044015f604051808303818588803b158015611d8a575f5ffd5b505af1158015611d9c573d5f5f3e3d5ffd5b50505050505b5f611dad82856163bf565b90508015611e31576040515f907307a07a07a07a07a07a07a07a07a07a07a07a07a09083908381818185875af1925050503d805f8114611e08576040519150601f19603f3d011682016040523d82523d5f602084013e611e0d565b606091505b5050905080611e2f57604051630b567ce360e31b815260040160405180910390fd5b505b50505050611e5b565b3415611e5b5760405163222d164360e21b8152346004820152602401610d00565b845460ff60f01b1916600160f01b60ff8916021785556001600160a01b038089165f908152600c60205260409020600201541615611ec4576001600160a01b0388165f908152600c60205260409020600201805460ff60a01b1916600160a01b60ff8a16021790555b6040805160ff808616825289166020820152908101839052606081018290526001600160a01b038916907f27f993440568bc502fe7db72fe27118488431975dc3239b379513a4cdb08e2c99060800160405180910390a25050505050503868929eee149b4bd21268555050565b611f3961394b565b8061ffff165f03611f8c57600d54601190600160d01b900460ff1660048110611f6457611f64616397565b6003020154604051635700689f60e11b815260048101919091525f6024820152604401610d00565b5f611f96602b5490565b9050808261ffff161115611fca57604051635700689f60e11b81526004810182905261ffff83166024820152604401610d00565b600d805461ffff848116600160d81b81810261ffff60d81b1985161790945560408051949093049091168084526020840191909152908201839052907f74cf7ca84b30b723e8b6e3cc569ec2db21f4ba2fcc09d651e5ce6770b91552f99060600160405180910390a1505050565b5f610cd582613226565b5f61204b61299b565b60a00151905090565b61205c61394b565b61206581612325565b1515806120765750612076816122a1565b1561209f57604051639fb0877960e01b81526001600160a01b0382166004820152602401610d00565b611266816001600160a01b038116613af3565b5f606082146120c257505f610cd5565b5f61210184848080601f0160208091040260200160405190810160405280939291908181526020018383808284375f92019190915250613b5492505050565b5f818152601060205260409020549091506001600160a01b03168061212a575f92505050610cd5565b612133816122a1565b15612142575f92505050610cd5565b506001949350505050565b60605f61215983611836565b5f015190505f81516001600160401b0381111561217857612178615cf0565b6040519080825280602002602001820160405280156121ab57816020015b60608152602001906001900390816121965790505b5090505f5b81518110156115f75760295f8483815181106121ce576121ce616397565b60200260200101516001600160a01b03166001600160a01b031681526020019081526020015f208054612200906163fb565b80601f016020809104026020016040519081016040528092919081815260200182805461222c906163fb565b80156122775780601f1061224e57610100808354040283529160200191612277565b820191905f5260205f20905b81548152906001019060200180831161225a57829003601f168201915b505050505082828151811061228e5761228e616397565b60209081029190910101526001016121b0565b5f6122b46001600160a01b038316613b82565b156122c057505f919050565b5f6001600160a01b0383165f908152600f6020526040902054600160e01b900460ff1660068111156122f4576122f4615b60565b0361230057505f919050565b506001600160a01b03165f908152600f6020526040902054600160e81b900460ff1690565b5f6001600160a01b03821661234f576040516322718ad960e21b81525f6004820152602401610d00565b506001600160a01b03165f9081526003602052604090205490565b61237261394b565b611a5f5f613bd5565b6001600160a01b0381165f908152600f6020908152604080832054600160f01b900460ff16808452600a9092528220546123b584826133c0565b949350505050565b336002600160a01b03146123e657604051637eb3357160e01b8152336004820152602401610d00565b6123f08282613c30565b600d54600160d81b900461ffff16811461243457600d54604051635700689f60e11b8152600160d81b90910461ffff16600482015260248101829052604401610d00565b5f5f5f5f6124738686808060200260200160405190810160405280939291908181526020018383602002808284375f92019190915250613d0892505050565b935093509350935061248686868661401c565b612498612492602b5490565b866133f9565b7fd1a5032a9ae65ebe520eba7974025750af3d884b6ab6047dad04dcf7006ab3856040518060c001604052808381526020018581526020014360016124dd919061644a565b6001600160401b0316815263ffffffff80881660208301528516604080830191909152600d5460ff166060909201919091525161251a9190615ec6565b60405180910390a1505050505050565b61255760405180608001604052805f81526020015f81526020015f81526020015f63ffffffff1681525090565b50600d5460ff165f908152600a602090815260409182902082516080810184528154815260018201549281019290925260028101549282019290925260039091015463ffffffff16606082015290565b6125af61394b565b611a5f61425d565b600f60f81b6060805f80808361260c60408051808201825260148152732a32b631b7b4b71029ba30b5b2a6b0b730b3b2b960611b602080830191909152825180840190935260018352603160f81b9083015291565b97989097965046955030945091925090565b61262661394b565b61262f816122a1565b15612650576006604051633ba7bf8960e11b8152600401610d0091906164bc565b61265981613287565b505f6001600160a01b0382165f908152600f6020526040902054600160e01b900460ff16600681111561268e5761268e615b60565b036126c5576001600160a01b0381165f908152600f602052604090206126b39061429c565b6112666001600160a01b0382166142e8565b611266816130e7565b60606126d982613493565b610cd5826134e3565b606060018054610f10906163fb565b60605f6126fd83611836565b5f015190505f81516001600160401b0381111561271c5761271c615cf0565b60405190808252806020026020018201604052801561275557816020015b6127426159c2565b81526020019060019003908161273a5790505b5090505f5b81518110156115f75761278583828151811061277857612778616397565b60200260200101516112cf565b82828151811061279757612797616397565b602090810291909101015260010161275a565b6127d760405180608001604052805f81526020015f81526020015f81526020015f63ffffffff1681525090565b5060ff165f908152600a602090815260409182902082516080810184528154815260018201549281019290925260028101549282019290925260039091015463ffffffff16606082015290565b336002600160a01b031461284d57604051637eb3357160e01b8152336004820152602401610d00565b5f61285760085490565b90505f5f5b82811015612945575f6128716107e783611a7b565b6001600160a01b0381165f908152600f60205260409020805491925090600160e81b900460ff16156128a457505061293d565b8054600160e01b900460ff165f8160068111156128c3576128c3615b60565b14806128e0575060068160068111156128de576128de615b60565b145b156128ed5750505061293d565b61291e83602a5f84600681111561290657612906615b60565b60ff16815260208101919091526040015f2090614320565b5061292881614334565b1561293957612936856164ca565b94505b5050505b60010161285c565b50602b8190556040518181527fa5fe2e69fcd48b9dbe563588b5da97937ef9046641db65c59b8d49a20d75bdcc906020015b60405180910390a15050565b61298e848484610fb8565b61146c3385858585614387565b6040805160c08101825260608082525f6020830181905292820183905281018290526080810182905260a0810191909152600d546129f290600160b01b810463ffffffff16908190600160d01b900460ff16613a09565b60408051825460e0602082028301810190935260c082018181529193928492918491840182828015612a4b57602002820191905f5260205f20905b81546001600160a01b03168152600190910190602001808311612a2d575b5050509183525050600182015460208201526002909101546001600160401b038116604083015263ffffffff600160401b820481166060840152600160601b820416608083015260ff600160801b9091041660a090910152919050565b5f612ab161394b565b612ab961325e565b612ac96080830160608401615e68565b63ffffffff165f03612b0757612ae56080830160608401615e68565b604051630c6e911360e41b815263ffffffff9091166004820152602401610d00565b600d80545f91908290612b1c9060ff166164e2565b825460ff8083166101009490940a848102910219909116179092555f908152600a602052604090209091508390612b538282616500565b50909150505b919050565b6060612b6982613226565b505f612ba4612b77846144ae565b612b7f61455c565b604051602001612b9092919061655a565b6040516020818303038152906040526145a6565b905080604051602001612bb79190616649565b604051602081830303815290604052915050919050565b5f612bd883613287565b508351606014612bfb576040516333a234f960e11b815260040160405180910390fd5b5f612c0461299b565b60a001516001600160a01b0385165f908152600c6020526040812060020154919250600160a81b9091046001600160401b031690612c4187613b54565b90505f7f9a361e91fa9aa610b5edf1d5c1cc20b9646c4228f3c004354ed2de7635dac9948288888787604051602001612c7f9695949392919061667a565b604051602081830303815290604052805190602001209050612ca0816145cc565b9450505050505b9392505050565b612cb661325e565b5f612cf7858589898080601f0160208091040260200160405190810160405280939291908181526020018383808284375f9201919091525061362b92505050565b90505f612d0261299b565b60a0015190505f612d133483613756565b9050612d1e86613287565b50612d29865f6132f5565b6001600160a01b0386165f908152600c60205260409020600201546001600160401b03600160a81b90910416612d6e600d546001600160a01b03620100009091041690565b6001600160a01b0316336001600160a01b031614612e1d575f7f9a361e91fa9aa610b5edf1d5c1cc20b9646c4228f3c004354ed2de7635dac9948589338786604051602001612dc29695949392919061667a565b6040516020818303038152906040528051906020012090505f612de4826145cc565b9050612df289828a8a6146e2565b612e1a57604051633b4f6e2b60e21b81526001600160a01b038a166004820152602401610d00565b50505b6040518060a00160405280858152602001886001600160a01b03168152602001336001600160a01b031681526020018460ff168152602001826001612e6291906166b8565b6001600160401b039081169091526001600160a01b038981165f908152600c602090815260409182902085518155908501516001820180546001600160a01b03191691851691909117905590840151600290910180546060860151608090960151929093166001600160a81b031990931692909217600160a01b60ff909516949094029390931767ffffffffffffffff60a81b1916600160a81b9390921692909202179055612f148a8a898686613791565b50505050505050505050565b6001600160a01b039182165f90815260056020908152604080832093909416825291909152205460ff1690565b612f5561394b565b612f5e82613287565b506001600160a01b0382165f818152600f602090815260409182902080546001600160f81b0316600160f81b60ff87169081029190911790915591519182527ffa96cc66d1772e5646f86e374867e4e32b5b448b2aadb331568e34c2d063e455910160405180910390a25050565b612fd461325e565b3068929eee149b4bd212685403612ff25763ab143c065f526004601cfd5b3068929eee149b4bd21268555f61300882613515565b6001600160a01b0383165f908152600f6020526040902090915061302b816147b5565b61304a578060405163c11d33f760e01b8152600401610d0091906166d7565b6130538161429c565b5f61166d848461484e565b61306661394b565b6001600160a01b03811661308f57604051631e4fbdf760e01b81525f6004820152602401610d00565b61126681613bd5565b5f6001600160e01b031982166380ac58cd60e01b14806130c857506001600160e01b03198216635b5e139f60e01b145b80610cd557506301ffc9a760e01b6001600160e01b0319831614610cd5565b6001600160a01b0381165f908152600f602052604090208054602b54600160e01b90910460ff169061311882614334565b1561312b576131286001826163bf565b90505b6131358482614a18565b5f5f61314086611269565b506001600160a01b0388165f908152600b60205260408120819055919350915081831061316d578161316f565b825b6040519091505f907307a07a07a07a07a07a07a07a07a07a07a07a07a09083908381818185875af1925050503d805f81146131c5576040519150601f19603f3d011682016040523d82523d5f602084013e6131ca565b606091505b50509050806131ec57604051630b567ce360e31b815260040160405180910390fd5b600d54613207908890600160b01b900463ffffffff16614b50565b6132108761429c565b5f61321a89614ba7565b9050612f14898261484e565b5f818152600260205260408120546001600160a01b031680610cd557604051637e27328960e01b815260048101849052602401610d00565b600d54610100900460ff1615611a5f5760405163d93c066560e01b815260040160405180910390fd5b5f6001600160a01b03821661329b81613b82565b6132bb5760405163ed15e6cf60e01b815260048101829052602401610d00565b826001600160a01b03166132ce82612038565b6001600160a01b031614610cd5576040516330fa89ab60e11b815260040160405180910390fd5b6001600160a01b0382165f908152600f6020526040902054600160e01b900460ff1681600681111561332957613329615b60565b81600681111561333b5761333b615b60565b14610e2c5780604051633ba7bf8960e11b8152600401610d0091906164bc565b613366816001616484565b825463ffffffff91909116600160a01b0263ffffffff60a01b19909116178255613391826002614bd6565b7f44f68a196beb8e3ae6b6afe9504db62c81b4e511e987a263b4f1a9bc49c907628260405161297791906166d7565b6001600160a01b0382165f908152600b6020526040812054818382116133e6575f6133f0565b6133f084836163bf565b95945050505050565b811580613404575080155b8061340e57508181115b1561121c57604051635700689f60e11b81526004810183905260248101829052604401610d00565b613441816004614bd6565b805463ffffffff60c01b191663ffffffff60c01b1781556040517f170cba9e80cc0d156bc6ed689fa1d09ee788e1000c092512ef8698454b2081ee906134889083906166d7565b60405180910390a150565b5f8160068111156134a6576134a6615b60565b14806134c3575060068160068111156134c1576134c1615b60565b145b156112665780604051633ba7bf8960e11b8152600401610d0091906164bc565b6060610cd5602a5f8460068111156134fd576134fd615b60565b60ff1660ff1681526020019081526020015f20614d05565b5f61351f82613287565b5061352982614ba7565b9050336001600160a01b0383161480159061354d5750336001600160a01b03821614155b15612b595760405163172b4e7560e11b81526001600160a01b0382166004820152602401610d00565b5f5f6135828584614d11565b6001600160a01b0386165f908152600b60205260408120805492935083929091906135ae9084906163bf565b9091555050604051634875485760e11b81526001600160a01b0385166004820152602481018290527307a07a07a07a07a07a07a07a07a07a07a07a07a0906390ea90ae906044015f604051808303815f87803b15801561360c575f5ffd5b505af115801561361e573d5f5f3e3d5ffd5b5092979650505050505050565b5f815160601461364e576040516333a234f960e11b815260040160405180910390fd5b5f825f8151811061366157613661616397565b016020015160f81c905060808116158061367d57506040811615155b1561369b576040516333a234f960e11b815260040160405180910390fd5b5f6136a68486614d71565b865160405163a65ebb2560e01b815291925073__$2ef4e8110a3eaa1255da7f08f8eebcbf5a$__9163a65ebb25916136e49188908690600401616749565b602060405180830381865af41580156136ff573d5f5f3e3d5ffd5b505050506040513d601f19601f820116820180604052508101906137239190616781565b613742578560405163a865bb3560e01b8152600401610d00919061679c565b61374c8486614dc1565b9695505050505050565b60ff81165f908152600a6020526040812054831461378a5760405163222d164360e21b815260048101849052602401610d00565b5090919050565b6040805160e0810182526001600160a01b0385811680835263ffffffff60208085018281525f868801818152606088018281526080890183905260ff8c1660a08a015260c08901839052958252600f9093529690962085518154975192518416600160c01b0263ffffffff60c01b1993909416600160a01b026001600160c01b0319909816951694909417959095179485168117835590519293919291839160ff60e01b191664ffffffffff60c01b1990911617600160e01b83600681111561385c5761385c615b60565b02179055506080820151815460a084015160c09094015161ffff60e81b19909116600160e81b9215159290920260ff60f01b191691909117600160f01b60ff94851602176001600160f81b0316600160f81b93909116929092029190911790556001600160a01b0383165f908152600f602052604090206138de816001614bd6565b6001600160a01b0384165f90815260296020526040902061390086888361680c565b506001600160a01b0384165f908152600b602052604090819020839055517f9d9bab592843361c508cec6cc23820609c04fe07a621d03bf04b7520759d36419061251a9083906166d7565b600d546001600160a01b0362010000909104163314611a5f5760405163118cdaa760e01b8152336004820152602401610d00565b5f8060048361398e86886164a0565b61399891906168c5565b6139a291906168de565b90505f601d8260ff16600481106139bb576139bb616397565b6003020190508563ffffffff168160020160089054906101000a900463ffffffff1663ffffffff16146133f057604051634fadd4d360e11b815263ffffffff87166004820152602401610d00565b5f80613a1585856164a0565b90505f600482613a2586836168c5565b613a2f91906168ff565b613a3991906168de565b90505f60118260ff1660048110613a5257613a52616397565b6003020190508663ffffffff168160020160089054906101000a900463ffffffff1663ffffffff161461374c57604051634fadd4d360e11b815263ffffffff88166004820152602401610d00565b613aa8614e31565b600d805461ff00191690557f5db9ee0a495bf2e6ff9c91a7834c1ba4fdd244a5e8aa4e537bd38aeae4b073aa335b6040516001600160a01b03909116815260200160405180910390a1565b6001600160a01b038216613b1c57604051633250574960e11b81525f6004820152602401610d00565b5f613b2883835f614e59565b90506001600160a01b03811615610e2c576040516339e3563760e11b81525f6004820152602401610d00565b604080516020838101516001600160fd1b031682528284015190820152606092830151918101919091522090565b5f811580613b9757506001600160a01b038210155b15613bb85760405163ed15e6cf60e01b815260048101839052602401610d00565b505f908152600260205260409020546001600160a01b0316151590565b600d80546001600160a01b038381166201000081810262010000600160b01b031985161790945560405193909204169182907f8be0079c531659141344cd1fd0a4f28419497f9722a3daafe3b4186f6b6457e0905f90a35050565b60015b81811015610e2c57828282818110613c4d57613c4d616397565b9050602002016020810190613c629190615ac8565b6001600160a01b03168383613c786001856163bf565b818110613c8757613c87616397565b9050602002016020810190613c9c9190615ac8565b6001600160a01b031610613d00578282613cb76001846163bf565b818110613cc657613cc6616397565b9050602002016020810190613cdb9190615ac8565b60405163836e3a7d60e01b81526001600160a01b039091166004820152602401610d00565b600101613c33565b600d545f9081908190606090600160d01b900460ff16826004613d2c8360016168c5565b613d3691906168de565b600d805460ff60d01b1916600160d01b60ff841602178082559192505f91601690613d6d90600160b01b900463ffffffff16616918565b91906101000a81548163ffffffff021916908363ffffffff160217905590505f601d8360ff1660048110613da357613da3616397565b6003020190505f613db261252a565b90506040518060c0016040528083805480602002602001604051908101604052809291908181526020018280548015613e1257602002820191905f5260205f20905b81546001600160a01b03168152600190910190602001808311613df4575b5050509183525050604080840151602083015201613e314360016166b8565b6001600160401b0316815263ffffffff80861660208301526060808501519091166040830152600d5460ff9081169190920152601190861660048110613e7957613e79616397565b600302015f820151815f019081613e909190616933565b50602082015160018201556040820151600291820180546060850151608086015160a0909601516001600160401b039094166bffffffffffffffffffffffff1990921691909117600160401b63ffffffff928316021764ffffffffff60601b1916600160601b919095160260ff60801b191693909317600160801b60ff90921691909102179091555f90600490613f289087906168c5565b613f3291906168de565b90508a601d8260ff1660048110613f4b57613f4b616397565b6003020190613f5a9082616933565b50613f66846002616484565b601d8260ff1660048110613f7c57613f7c616397565b6003020160020160086101000a81548163ffffffff021916908363ffffffff1602179055508382604001518360600151858080548060200260200160405190810160405280929190818152602001828054801561400057602002820191905f5260205f20905b81546001600160a01b03168152600190910190602001808311613fe2575b5050505050905099509950995099505050505050509193509193565b5f61402760026134e3565b90505f5b8151811015614085575f600f5f84848151811061404a5761404a616397565b60200260200101516001600160a01b03166001600160a01b031681526020019081526020015f20905061407c81614f24565b5060010161402b565b505f61409160046134e3565b600d54909150600160d01b900460ff165f60046140af8360016168c5565b6140b991906168de565b90505f7fbd0b8371ed11e4a5f6acd1f1a0d78b3f7e6ab3473c6396c9f28027132562600c8660405160200161410592919091825260e01b6001600160e01b031916602082015260240190565b60405160208183030381529060405280519060200120905061419460118460ff166004811061413657614136616397565b6003020180546040805160208084028201810190925282815292919083018282801561418957602002820191905f5260205f20905b81546001600160a01b0316815260019091019060200180831161416b575b505050505082614f5e565b6141ad601d8360ff166004811061413657614136616397565b6141ea8888808060200260200160405190810160405280939291908181526020018383602002808284375f92019190915250859250614f5e915050565b5f5b8451811015614252575f85828151811061420857614208616397565b6020026020010151905061421c8184614fae565b15614227575061424a565b6001600160a01b0381165f908152600f602052604090206142489089614b50565b505b6001016141ec565b505050505050505050565b61426561325e565b600d805461ff0019166101001790557f62e78cea01bee320cd4e420270b5ea74000d11b0c9f74754ebdbfc544b05a258613ad63390565b6142a7816006614bd6565b805460ff60e81b1916600160e81b1781556040517ffab16134cb74fff6e7d137bf93f6b2ab4c1c61cbe53dad2c8cb57744353bd39b906134889083906166d7565b5f6142f45f835f614e59565b90506001600160a01b03811661121c57604051637e27328960e01b815260048101839052602401610d00565b5f612ca7836001600160a01b038416614fcb565b5f600382600681111561434957614349615b60565b14806143665750600482600681111561436457614364615b60565b145b80610cd55750600282600681111561438057614380615b60565b1492915050565b6001600160a01b0383163b156117ad57604051630a85bd0160e11b81526001600160a01b0384169063150b7a02906143c99088908890879087906004016169b7565b6020604051808303815f875af1925050508015614403575060408051601f3d908101601f19168201909252614400918101906169e9565b60015b61446a573d808015614430576040519150601f19603f3d011682016040523d82523d5f602084013e614435565b606091505b5080515f0361446257604051633250574960e11b81526001600160a01b0385166004820152602401610d00565b805181602001fd5b6001600160e01b03198116630a85bd0160e11b146144a657604051633250574960e11b81526001600160a01b0385166004820152602401610d00565b505050505050565b60605f6144ba83615017565b6028602282012090915060601c60295b600181111561455357600782600f161180156144ff575060608382815181106144f5576144f5616397565b016020015160f81c115b1561453c57602060f81b83828151811061451b5761451b616397565b0160200180516001600160f81b0319908116909218909116905f82901a9053505b60049190911c9061454c81616a04565b90506144ca565b50909392505050565b60606145826040518061052001604052806104ed8152602001616a9c6104ed91396145a6565b6040516020016145929190616a19565b604051602081830303815290604052905090565b6060610cd582604051806060016040528060408152602001616f8960409139600161502d565b7f00000000000000000000000000000000000000000000000000000000000000007f000000000000000000000000000000000000000000000000000000000000000030147f00000000000000000000000000000000000000000000000000000000000000004614166146bf5750604080517f8b73c3c69bb8fe3d512ecc4cf759cc79239f7b179b0ffacaa9a75d522b39400f81527f000000000000000000000000000000000000000000000000000000000000000060208201527f00000000000000000000000000000000000000000000000000000000000000009181019190915246606082015230608082015260a090205b6719010000000000005f5280601a5281603a52604260182090505f603a52919050565b5f6001600160a01b038516156123b557604051853b614772578260408114614712576041811461473957506147ac565b60208581013560ff81901c601b0190915285356040526001600160ff1b031660605261474a565b60408501355f1a6020526040856040375b50845f526020600160805f60015afa5180871860601b3d119250505f606052806040526147ac565b631626ba7e60e01b80825285600483015260248201604081528460448401528486606485013760208160648701858b5afa90519091141691505b50949350505050565b80545f90600160e01b900460ff1660018160068111156147d7576147d7615b60565b036147e55750600192915050565b82545f9061480190600160c01b900463ffffffff166001616484565b9050600582600681111561481757614817615b60565b1480156148365750600d5463ffffffff808316600160b01b9092041610155b15614845575060019392505050565b505f9392505050565b5f6148616001600160a01b0384166142e8565b6008545f03614883576040516315ae672760e01b815260040160405180910390fd5b6001600160a01b0383165f908152600c602052604081208181556001810180546001600160a01b031916905560020180546001600160e81b031916905580806148cb86611269565b925092509250825f036148e357829350505050610cd5565b6001600160a01b0386165f908152600b6020526040812081905582841061490b57508161498f565b50825f7307a07a07a07a07a07a07a07a07a07a07a07a07a061492d83866163bf565b6040515f81818185875af1925050503d805f8114614966576040519150601f19603f3d011682016040523d82523d5f602084013e61496b565b606091505b505090508061498d57604051630b567ce360e31b815260040160405180910390fd5b505b604051634875485760e11b81526001600160a01b0387166004820152602481018390527307a07a07a07a07a07a07a07a07a07a07a07a07a0906390ea90ae9083906044015f604051808303818588803b1580156149ea575f5ffd5b505af11580156149fc573d5f5f3e3d5ffd5b50505050508181614a0d919061644a565b979650505050505050565b600d54600160b01b810463ffffffff1690600160d01b900460ff165f614a3f838084613a09565b9050614a4b81866151a7565b508054614a5885826133f9565b5f614a64856001616484565b90505f614a7282878761397f565b9050614a7e81896151a7565b5080549250614a8d87846133f9565b5f614a99876002616484565b90505f614aa782898961397f565b9050614ab3818b6151a7565b5080549450614ac289866133f9565b600d54600160d81b900461ffff16891015612f1457600d805461ffff8b8116600160d81b90810261ffff60d81b1984161793849055604080519382900483168085529190940490911660208301529181018b90527f74cf7ca84b30b723e8b6e3cc569ec2db21f4ba2fcc09d651e5ce6770b91552f99060600160405180910390a15050505050505050505050565b614b5b826005614bd6565b815463ffffffff60c01b1916600160c01b63ffffffff8316021782556040517f727bfc4079207401298f48a3f1a92c9b40d83e086fe5b584a7b0644fdbdb56ee906129779084906166d7565b6001600160a01b038082165f908152600c602052604081206002810154919290911680612ca757509192915050565b81546001600160a01b03811690600160e01b900460ff16614c1e82602a5f846006811115614c0657614c06615b60565b60ff16815260208101919091526040015f20906152ac565b505f836006811115614c3257614c32615b60565b14158015614c5257506006836006811115614c4f57614c4f615b60565b14155b15614c7257614c7082602a5f86600681111561290657612906615b60565b505b5f614c7c82614334565b90505f614c8885614334565b9050818015614c95575080155b15614cb157602b5f8154614ca890616a04565b90915550614cd4565b81158015614cbc5750805b15614cd457602b5f8154614ccf906164ca565b909155505b85548590879060ff60e01b1916600160e01b836006811115614cf857614cf8615b60565b0217905550505050505050565b60605f612ca7836152c0565b60ff81165f908152600a602052604081205481614d2e85836133c0565b9050801580614d50575060ff84165f908152600a602052604090206001015481105b156123b557604051633737b70960e11b815260048101829052602401610d00565b60608251606014614d95576040516333a234f960e11b815260040160405180910390fd5b604051614daa905f9085908590602001616a4a565b604051602081830303815290604052905092915050565b5f614dcb83613b54565b5f818152601060205260409020549091506001600160a01b031615614e0357604051638d12779f60e01b815260040160405180910390fd5b5f81815260106020526040902080546001600160a01b0384166001600160a01b031990911617905592915050565b600d54610100900460ff16611a5f57604051638dfc202b60e01b815260040160405180910390fd5b5f5f614e66858585615319565b90506001600160a01b038116614ec257614ebd84600880545f838152600960205260408120829055600182018355919091527ff3f7a9fe364faab93b216da50a3214154f22a0a2b415b23a84c8169e8b636ee30155565b614ee5565b846001600160a01b0316816001600160a01b031614614ee557614ee5818561540b565b6001600160a01b038516614f0157614efc84615488565b6123b5565b846001600160a01b0316816001600160a01b0316146123b5576123b5858561552f565b614f2f816003614bd6565b7fabab4191fe954f07230f7e34fd48dc0fdcbed492526cd060001cccceab22851b8160405161348891906166d7565b5f5b8251811015610e2c57614fa66001614fa0614f9d868581518110614f8657614f86616397565b60200260200101518661557d90919063ffffffff16565b90565b90615597565b600101614f60565b6001600160a01b0382165f9081526020829052604081205c612ca7565b5f81815260018301602052604081205461501057508154600181810184555f848152602080822090930184905584548482528286019093526040902091909155610cd5565b505f610cd5565b6060610cd56001600160a01b038316601461559e565b606083515f0361504b575060408051602081019091525f8152612ca7565b5f8261507b576003855160046150619190616433565b61506c90600261644a565b6150769190616471565b6150a0565b60038551600261508b919061644a565b6150959190616471565b6150a0906004616433565b90505f816001600160401b038111156150bb576150bb615cf0565b6040519080825280601f01601f1916602001820160405280156150e5576020820181803683370190505b509050600185016020820187885189016020810180515f82525b8284101561515a576003840193508351603f8160121c168701518653600186019550603f81600c1c168701518653600186019550603f8160061c168701518653600186019550603f81168701518653506001850194506150ff565b90525050851561519b5760038851066001811461517e576002811461519157615199565b603d6001830353603d6002830353615199565b603d60018303535b505b50909695505050505050565b81545f90815b818110156152a257836001600160a01b03168582815481106151d1576151d1616397565b5f918252602090912001546001600160a01b03160361529a57846151f66001846163bf565b8154811061520657615206616397565b905f5260205f20015f9054906101000a90046001600160a01b031685828154811061523357615233616397565b905f5260205f20015f6101000a8154816001600160a01b0302191690836001600160a01b031602179055508480548061526e5761526e616a87565b5f8281526020902081015f1990810180546001600160a01b03191690550190555060019150610cd59050565b6001016151ad565b505f949350505050565b5f612ca7836001600160a01b03841661570f565b6060815f0180548060200260200160405190810160405280929190818152602001828054801561530d57602002820191905f5260205f20905b8154815260200190600101908083116152f9575b50505050509050919050565b5f828152600260205260408120546001600160a01b0390811690831615615345576153458184866157f9565b6001600160a01b0381161561537f576153605f855f5f61585d565b6001600160a01b0381165f90815260036020526040902080545f190190555b6001600160a01b038516156153ad576001600160a01b0385165f908152600360205260409020805460010190555b5f8481526002602052604080822080546001600160a01b0319166001600160a01b0389811691821790925591518793918516917fddf252ad1be2c89b69c2b068fc378daa952ba7f163c4a11628f55a4df523b3ef91a4949350505050565b5f61541583612325565b5f838152600760209081526040808320546001600160a01b038816845260069092529091209192509081831461546a575f83815260208281526040808320548584528184208190558352600790915290208290555b5f938452600760209081526040808620869055938552525081205550565b6008545f90615499906001906163bf565b5f83815260096020526040812054600880549394509092849081106154c0576154c0616397565b905f5260205f200154905080600883815481106154df576154df616397565b5f91825260208083209091019290925582815260099091526040808220849055858252812055600880548061551657615516616a87565b600190038181905f5260205f20015f9055905550505050565b5f600161553b84612325565b61554591906163bf565b6001600160a01b039093165f908152600660209081526040808320868452825280832085905593825260079052919091209190915550565b6001600160a01b03165f9081526020919091526040902090565b80825d5050565b6060825f6155ad846002616433565b6155b890600261644a565b6001600160401b038111156155cf576155cf615cf0565b6040519080825280601f01601f1916602001820160405280156155f9576020820181803683370190505b509050600360fc1b815f8151811061561357615613616397565b60200101906001600160f81b03191690815f1a905350600f60fb1b8160018151811061564157615641616397565b60200101906001600160f81b03191690815f1a9053505f615663856002616433565b61566e90600161644a565b90505b60018111156156e5576f181899199a1a9b1b9c1cb0b131b232b360811b83600f16601081106156a2576156a2616397565b1a60f81b8282815181106156b8576156b8616397565b60200101906001600160f81b03191690815f1a90535060049290921c916156de81616a04565b9050615671565b5081156123b55760405163e22e27eb60e01b81526004810186905260248101859052604401610d00565b5f81815260018301602052604081205480156157e9575f6157316001836163bf565b85549091505f90615744906001906163bf565b90508082146157a3575f865f01828154811061576257615762616397565b905f5260205f200154905080875f01848154811061578257615782616397565b5f918252602080832090910192909255918252600188019052604090208390555b85548690806157b4576157b4616a87565b600190038181905f5260205f20015f90559055856001015f8681526020019081526020015f205f905560019350505050610cd5565b5f915050610cd5565b5092915050565b615804838383615961565b610e2c576001600160a01b03831661583257604051637e27328960e01b815260048101829052602401610d00565b60405163177e802f60e01b81526001600160a01b038316600482015260248101829052604401610d00565b808061587157506001600160a01b03821615155b15615932575f61588084613226565b90506001600160a01b038316158015906158ac5750826001600160a01b0316816001600160a01b031614155b80156158bf57506158bd8184612f20565b155b156158e85760405163a9fbf51f60e01b81526001600160a01b0384166004820152602401610d00565b81156159305783856001600160a01b0316826001600160a01b03167f8c5be1e5ebec7d5bd14f71427d1e84f3dd0314c0f7b2291e5b200ac8c7c3b92560405160405180910390a45b505b50505f90815260046020526040902080546001600160a01b0319166001600160a01b0392909216919091179055565b5f6001600160a01b038316158015906123b55750826001600160a01b0316846001600160a01b0316148061599a575061599a8484612f20565b806123b55750505f908152600460205260409020546001600160a01b03908116911614919050565b6040805160e0810182525f8082526020820181905291810182905290606082019081525f602082018190526040820181905260609091015290565b6001600160e01b031981168114611266575f5ffd5b5f60208284031215615a22575f5ffd5b8135612ca7816159fd565b5f5f83601f840112615a3d575f5ffd5b5081356001600160401b03811115615a53575f5ffd5b6020830191508360208260061b8501011115615a6d575f5ffd5b9250929050565b5f5f60208385031215615a85575f5ffd5b82356001600160401b03811115615a9a575f5ffd5b615aa685828601615a2d565b90969095509350505050565b80356001600160a01b0381168114612b59575f5ffd5b5f60208284031215615ad8575f5ffd5b612ca782615ab2565b5f81518084528060208401602086015e5f602082860101526020601f19601f83011685010191505092915050565b602081525f612ca76020830184615ae1565b5f60208284031215615b31575f5ffd5b5035919050565b5f5f60408385031215615b49575f5ffd5b615b5283615ab2565b946020939093013593505050565b634e487b7160e01b5f52602160045260245ffd5b60078110615b9057634e487b7160e01b5f52602160045260245ffd5b9052565b60018060a01b03815116825263ffffffff602082015116602083015263ffffffff60408201511660408301526060810151615bd26060840182615b74565b5060808101511515608083015260ff60a08201511660a083015260c0810151610e2c60c084018260ff169052565b60e08101610cd58284615b94565b5f5f5f60608486031215615c20575f5ffd5b615c2984615ab2565b9250615c3760208501615ab2565b929592945050506040919091013590565b5f60208284031215615c58575f5ffd5b813560078110612ca7575f5ffd5b602080825282518282018190525f918401906040840190835b81811015615ca857615c92838551615b94565b6020939093019260e09290920191600101615c7f565b509095945050505050565b5f5f83601f840112615cc3575f5ffd5b5081356001600160401b03811115615cd9575f5ffd5b602083019150836020828501011115615a6d575f5ffd5b634e487b7160e01b5f52604160045260245ffd5b5f82601f830112615d13575f5ffd5b81356001600160401b03811115615d2c57615d2c615cf0565b604051601f8201601f19908116603f011681016001600160401b0381118282101715615d5a57615d5a615cf0565b604052818152838201602001851015615d71575f5ffd5b816020850160208301375f918101602001919091529392505050565b5f60208284031215615d9d575f5ffd5b604051602081016001600160401b0381118282101715615dbf57615dbf615cf0565b60405290508082356001600160401b03811115615dda575f5ffd5b615de685828601615d04565b8252505092915050565b5f5f5f60408486031215615e02575f5ffd5b83356001600160401b03811115615e17575f5ffd5b615e2386828701615cb3565b90945092505060208401356001600160401b03811115615e41575f5ffd5b615e4d86828701615d8d565b9150509250925092565b63ffffffff81168114611266575f5ffd5b5f60208284031215615e78575f5ffd5b8135612ca781615e57565b5f8151808452602084019350602083015f5b82811015615ebc5781516001600160a01b0316865260209586019590910190600101615e95565b5093949350505050565b602081525f825160c06020840152615ee160e0840182615e83565b9050602084015160408401526001600160401b03604085015116606084015263ffffffff606085015116608084015263ffffffff60808501511660a084015260ff60a08501511660c08401528091505092915050565b803560ff81168114612b59575f5ffd5b5f5f60408385031215615f58575f5ffd5b615f6183615ab2565b9150615f6f60208401615f37565b90509250929050565b5f60208284031215615f88575f5ffd5b813561ffff81168114612ca7575f5ffd5b5f5f60208385031215615faa575f5ffd5b82356001600160401b03811115615fbf575f5ffd5b615aa685828601615cb3565b5f602082016020835280845180835260408501915060408160051b8601019250602086015f5b8281101561602257603f1987860301845261600d858351615ae1565b94506020938401939190910190600101615ff1565b50929695505050505050565b5f5f6020838503121561603f575f5ffd5b82356001600160401b03811115616054575f5ffd5b8301601f81018513616064575f5ffd5b80356001600160401b03811115616079575f5ffd5b8560208260051b840101111561608d575f5ffd5b6020919091019590945092505050565b60ff60f81b8816815260e060208201525f6160bb60e0830189615ae1565b82810360408401526160cd8189615ae1565b606084018890526001600160a01b038716608085015260a0840186905283810360c0850152845180825260208087019350909101905f5b81811015616122578351835260209384019390920191600101616104565b50909b9a5050505050505050505050565b602081525f612ca76020830184615e83565b8015158114611266575f5ffd5b5f5f60408385031215616163575f5ffd5b61616c83615ab2565b9150602083013561617c81616145565b809150509250929050565b5f60208284031215616197575f5ffd5b612ca782615f37565b5f5f5f5f608085870312156161b3575f5ffd5b6161bc85615ab2565b93506161ca60208601615ab2565b92506040850135915060608501356001600160401b038111156161eb575f5ffd5b6161f787828801615d04565b91505092959194509250565b5f6080828403128015616214575f5ffd5b509092915050565b5f5f5f6060848603121561622e575f5ffd5b83356001600160401b03811115616243575f5ffd5b61624f86828701615d04565b93505061625e60208501615ab2565b915061626c60408501615ab2565b90509250925092565b5f5f5f5f5f5f6080878903121561628a575f5ffd5b86356001600160401b0381111561629f575f5ffd5b6162ab89828a01615cb3565b90975095505060208701356001600160401b038111156162c9575f5ffd5b6162d589828a01615d8d565b9450506162e460408801615ab2565b925060608701356001600160401b038111156162fe575f5ffd5b61630a89828a01615cb3565b979a9699509497509295939492505050565b5f5f6040838503121561632d575f5ffd5b61633683615ab2565b9150615f6f60208401615ab2565b6001600160a01b038816815263ffffffff87811660208301528616604082015260e081016163756060830187615b74565b931515608082015260ff92831660a0820152911660c090910152949350505050565b634e487b7160e01b5f52603260045260245ffd5b634e487b7160e01b5f52601160045260245ffd5b81810381811115610cd557610cd56163ab565b604081016001600160a01b036163e784615ab2565b168252602092830135929091019190915290565b600181811c9082168061640f57607f821691505b60208210810361642d57634e487b7160e01b5f52602260045260245ffd5b50919050565b8082028115828204841417610cd557610cd56163ab565b80820180821115610cd557610cd56163ab565b634e487b7160e01b5f52601260045260245ffd5b5f8261647f5761647f61645d565b500490565b63ffffffff8181168382160190811115610cd557610cd56163ab565b63ffffffff8281168282160390811115610cd557610cd56163ab565b60208101610cd58284615b74565b5f600182016164db576164db6163ab565b5060010190565b5f60ff821660ff81036164f7576164f76163ab565b60010192915050565b81358155602082013560018201556040820135600282015560038101606083013561652a81615e57565b815463ffffffff191663ffffffff919091161790555050565b5f81518060208401855e5f93019283525090919050565b7f7b226e616d65223a202254656c636f696e2d4e6574776f726b20436f6e73656e8152651cdd5cd3919560d21b60208201525f61659a6026830185616543565b7f222c20226465736372697074696f6e223a2022455243373231204e465420776881527f6f7365206f776e657273686970206c656467657220726570726573656e74732060208201527f746865207065726d697373696f6e65642077686974656c69737420666f72207660408201527530b634b230ba37b9399116101134b6b0b3b2911d101160511b60608201526166356076820185616543565b61227d60f01b815260020195945050505050565b7f646174613a6170706c69636174696f6e2f6a736f6e3b6261736536342c00000081525f612ca7601d830184616543565b95865260208601949094526001600160a01b0392831660408601529116606084015260ff1660808301526001600160401b031660a082015260c00190565b6001600160401b038181168382160190811115610cd557610cd56163ab565b81546001600160a01b038116825263ffffffff60a082901c8116602084015260c082901c16604083015260e08201906167196060840160ff8360e01c16615b74565b61672d6080840160ff8360e81c1615159052565b60f081901c60ff1660a084015260f881901c60c08401526157f2565b606081525f61675b6060830186615ae1565b828103602084015261676d8186615ae1565b9050828103604084015261374c8185615ae1565b5f60208284031215616791575f5ffd5b8151612ca781616145565b602081525f82516020808401526123b56040840182615ae1565b5f5b82811015610e2c575f828201556001016167b8565b601f821115610e2c5782821115610e2c57805f5260205f20601f840160051c60208510156167f857505f5b6117ad81601f860160051c038284016167b6565b6001600160401b0383111561682357616823615cf0565b6168378361683183546163fb565b836167cd565b5f601f841160018114616868575f85156168515750838201355b5f19600387901b1c1916600186901b1783556117ad565b5f83815260208120601f198716915b828110156168975786850135825560209485019460019092019101616877565b50868210156168b3575f1960f88860031b161c19848701351681555b505060018560011b0183555050505050565b60ff8181168382160190811115610cd557610cd56163ab565b5f60ff8316806168f0576168f061645d565b8060ff84160691505092915050565b60ff8281168282160390811115610cd557610cd56163ab565b5f63ffffffff821663ffffffff81036164f7576164f76163ab565b81516001600160401b0381111561694c5761694c615cf0565b600160401b81111561696057616960615cf0565b81548183558082101561698457825f528160205f2001616982838303826167b6565b505b5060208301825f5260205f205f5b838110156144a65782516001600160a01b031682820155602090920191600101616992565b6001600160a01b03858116825284166020820152604081018390526080606082018190525f9061374c90830184615ae1565b5f602082840312156169f9575f5ffd5b8151612ca7816159fd565b5f81616a1257616a126163ab565b505f190190565b7f646174613a696d6167652f7376672b786d6c3b6261736536342c00000000000081525f612ca7601a830184616543565b6001600160e81b0319841681525f616a656003830185616543565b60609390931b6bffffffffffffffffffffffff19168352505060140192915050565b634e487b7160e01b5f52603160045260245ffdfe3c7376672077696474683d22373922206865696768743d223830222076696577426f783d22302030203739203830222066696c6c3d226e6f6e652220786d6c6e733d22687474703a2f2f7777772e77332e6f72672f323030302f737667223e203c6d61736b2069643d226d61736b305f3834395f3334313722207374796c653d226d61736b2d747970653a616c70686122206d61736b556e6974733d227573657253706163654f6e5573652220783d22302220793d2230222077696474683d22373922206865696768743d223830223e203c726563742077696474683d2237382e30303522206865696768743d223830222066696c6c3d2223433443344334222f3e203c2f6d61736b3e203c67206d61736b3d2275726c28236d61736b305f3834395f3334313729223e203c7265637420783d2231372e393534362220793d2231382e33353435222077696474683d2234322e3239343322206865696768743d2234332e32393138222066696c6c3d227768697465222f3e203c7061746820643d224d37342e323336392032312e393839324337362e363930382032342e303331352037382e323338392032382e323537372037372e363937392033312e333733334c37322e343136362036312e333235334337312e3836362036342e343437352036382e393539322036372e383739382036352e393632392036382e393631324c33372e313934372037392e333334344333342e313938342038302e343135372032392e373432312037392e363239392032372e323936342037372e3538394c332e3831312035382e3030323143312e33353730382035352e39353938202d302e31393233382035312e3734313720302e3335383134382034382e363139354c352e36333935312031382e3636373443362e31393030342031352e3534353220392e30393638372031322e313132392031322e303933322031312e303331364c34302e3835393920302e3636363435334334332e38353632202d302e3431343835372034382e3331323520302e3337303930392035302e3735383320322e343131384c37342e323336392032312e393839325a4d34392e373634352033352e343336394c35302e393336342032392e333531334c33392e393531372032392e333638374c34312e3531362032312e333432344c33372e393538332032312e333432344333372e393538332032312e333432342033342e363332382032372e323930312032372e333030362033302e323031394c32362e323839392033352e343530334c33312e303933362033352e34364333312e303933362033352e34362032392e343637342034332e303032392032382e393331362034352e373835344332372e353637372035322e383638322033302e393830362035372e383933392033362e323238312035372e383933394333382e383630362035372e383933392034312e3831372035372e383933392034352e303937322035372e383933394c34362e363532342035312e313636364334362e323734322035312e313636362034332e383031332035312e313636362033392e323333362035312e313636364333352e393336342035312e313636362033362e313039392034392e333138392033362e373433312034362e303330354c33382e373833382033352e343333334c34392e373634352033352e343336395a222066696c6c3d2223313443384646222f3e203c2f673e203c2f7376673e4142434445464748494a4b4c4d4e4f505152535455565758595a6162636465666768696a6b6c6d6e6f707172737475767778797a303132333435363738392b2fa164736f6c6343000823000a","linkReferences":{"src/consensus/BlsG1.sol":{"BlsG1":[{"start":2337,"length":20},{"start":20481,"length":20}]}}},"methodIdentifiers":{"SYSTEM_ADDRESS()":"3434735f","activate()":"0f15f4c0","allocateIssuance()":"355811a7","applyIncentives((address,uint256)[])":"0a36cdef","applySlashes((address,uint256)[])":"02ae337b","approve(address,uint256)":"095ea7b3","balanceOf(address)":"70a08231","beginExit()":"2228dfa0","burn(address)":"89afcb44","claimStakeRewards(address)":"2b9f4985","concludeEpoch(address[])":"7b55a300","delegateStake(bytes,(bytes),address,bytes)":"e80cb65f","delegationDigest(bytes,address,address)":"e3716d04","eip712Domain()":"84b0196e","epochInfo(uint256)":"3894228e","futureEpochInfo(uint256)":"59ca93b6","getApproved(uint256)":"081812fc","getBalanceBreakdown(address)":"15b5709a","getBlsPubkey(address)":"059b916c","getCommitteeBlsPubkeys(uint32)":"6ae9942c","getCommitteeValidators(uint32)":"a0201be5","getCurrentEpoch()":"b97dd9e2","getCurrentEpochInfo()":"babc394f","getCurrentStakeConfig()":"7d06fdf8","getCurrentStakeVersion()":"67398331","getEligibleValidatorCount()":"23a40430","getEpochInfo(uint32)":"374ed18c","getNextCommitteeSize()":"eb8535c2","getRewards(address)":"79ee54f7","getValidator(address)":"1904bb2e","getValidators(uint8)":"8cc05eda","getValidatorsInfo(uint8)":"2870259d","isApprovedForAll(address,address)":"e985e9c5","isDelegated(address)":"3e28391d","isRetired(address)":"6d3c6275","isValidator(bytes)":"6a926591","issuance()":"863623bb","migrateValidatorSets()":"aaffd270","mint(address)":"6a627842","name()":"06fdde03","owner()":"8da5cb5b","ownerOf(uint256)":"6352211e","pause()":"8456cb59","paused()":"5c975abb","renounceOwnership()":"715018a6","safeTransferFrom(address,address,uint256)":"42842e0e","safeTransferFrom(address,address,uint256,bytes)":"b88d4fde","setApprovalForAll(address,bool)":"a22cb465","setNextCommitteeSize(uint16)":"62fcde4b","setValidatorRegion(address,uint8)":"f0624768","stake(bytes,(bytes))":"2fb0d025","stakeConfig(uint8)":"a71954ec","supportsInterface(bytes4)":"01ffc9a7","symbol()":"95d89b41","tokenByIndex(uint256)":"4f6ccce7","tokenOfOwnerByIndex(address,uint256)":"2f745c59","tokenURI(uint256)":"c87b56dd","totalSupply()":"18160ddd","transferFrom(address,address,uint256)":"23b872dd","transferOwnership(address)":"f2fde38b","undistributedIssuance()":"008d6acd","unpause()":"3f4ba83a","unstake(address)":"f2888dbb","upgradeStakeVersion((uint256,uint256,uint256,uint32))":"c05df7ac","upgradeValidatorStakeVersion(address,uint8)":"5a41fb1f","validators(address)":"fa52c7d8"},"id":131}