{
  "abi": [
    {
      "type": "constructor",
      "inputs": [
        {
          "name": "genesisConfig_",
          "type": "tuple",
          "internalType": "struct IStakeManager.StakeConfig",
          "components": [
            {
              "name": "stakeAmount",
              "type": "uint256",
              "internalType": "uint256"
            },
            {
              "name": "minWithdrawAmount",
              "type": "uint256",
              "internalType": "uint256"
            },
            {
              "name": "epochIssuance",
              "type": "uint256",
              "internalType": "uint256"
            },
            {
              "name": "epochDuration",
              "type": "uint32",
              "internalType": "uint32"
            }
          ]
        },
        {
          "name": "initialValidators_",
          "type": "tuple[]",
          "internalType": "struct IConsensusRegistry.ValidatorInfo[]",
          "components": [
            {
              "name": "blsPubkey",
              "type": "bytes",
              "internalType": "bytes"
            },
            {
              "name": "validatorAddress",
              "type": "address",
              "internalType": "address"
            },
            {
              "name": "activationEpoch",
              "type": "uint32",
              "internalType": "uint32"
            },
            {
              "name": "exitEpoch",
              "type": "uint32",
              "internalType": "uint32"
            },
            {
              "name": "currentStatus",
              "type": "uint8",
              "internalType": "enum IConsensusRegistry.ValidatorStatus"
            },
            {
              "name": "isRetired",
              "type": "bool",
              "internalType": "bool"
            },
            {
              "name": "isDelegated",
              "type": "bool",
              "internalType": "bool"
            },
            {
              "name": "stakeVersion",
              "type": "uint8",
              "internalType": "uint8"
            }
          ]
        },
        {
          "name": "proofsOfPossession",
          "type": "tuple[]",
          "internalType": "struct BlsG1.ProofOfPossession[]",
          "components": [
            {
              "name": "uncompressedPubkey",
              "type": "bytes",
              "internalType": "bytes"
            },
            {
              "name": "uncompressedSignature",
              "type": "bytes",
              "internalType": "bytes"
            }
          ]
        },
        {
          "name": "owner_",
          "type": "address",
          "internalType": "address"
        }
      ],
      "stateMutability": "nonpayable"
    },
    {
      "type": "function",
      "name": "SYSTEM_ADDRESS",
      "inputs": [],
      "outputs": [
        {
          "name": "",
          "type": "address",
          "internalType": "address"
        }
      ],
      "stateMutability": "view"
    },
    {
      "type": "function",
      "name": "activate",
      "inputs": [],
      "outputs": [],
      "stateMutability": "nonpayable"
    },
    {
      "type": "function",
      "name": "allocateIssuance",
      "inputs": [],
      "outputs": [],
      "stateMutability": "payable"
    },
    {
      "type": "function",
      "name": "applyIncentives",
      "inputs": [
        {
          "name": "rewardInfos",
          "type": "tuple[]",
          "internalType": "struct RewardInfo[]",
          "components": [
            {
              "name": "validatorAddress",
              "type": "address",
              "internalType": "address"
            },
            {
              "name": "consensusHeaderCount",
              "type": "uint256",
              "internalType": "uint256"
            }
          ]
        }
      ],
      "outputs": [],
      "stateMutability": "nonpayable"
    },
    {
      "type": "function",
      "name": "applySlashes",
      "inputs": [
        {
          "name": "slashes",
          "type": "tuple[]",
          "internalType": "struct Slash[]",
          "components": [
            {
              "name": "validatorAddress",
              "type": "address",
              "internalType": "address"
            },
            {
              "name": "amount",
              "type": "uint256",
              "internalType": "uint256"
            }
          ]
        }
      ],
      "outputs": [],
      "stateMutability": "nonpayable"
    },
    {
      "type": "function",
      "name": "approve",
      "inputs": [
        {
          "name": "",
          "type": "address",
          "internalType": "address"
        },
        {
          "name": "",
          "type": "uint256",
          "internalType": "uint256"
        }
      ],
      "outputs": [],
      "stateMutability": "nonpayable"
    },
    {
      "type": "function",
      "name": "balanceOf",
      "inputs": [
        {
          "name": "owner",
          "type": "address",
          "internalType": "address"
        }
      ],
      "outputs": [
        {
          "name": "",
          "type": "uint256",
          "internalType": "uint256"
        }
      ],
      "stateMutability": "view"
    },
    {
      "type": "function",
      "name": "beginExit",
      "inputs": [],
      "outputs": [],
      "stateMutability": "nonpayable"
    },
    {
      "type": "function",
      "name": "burn",
      "inputs": [
        {
          "name": "validatorAddress",
          "type": "address",
          "internalType": "address"
        }
      ],
      "outputs": [],
      "stateMutability": "nonpayable"
    },
    {
      "type": "function",
      "name": "claimStakeRewards",
      "inputs": [
        {
          "name": "validatorAddress",
          "type": "address",
          "internalType": "address"
        }
      ],
      "outputs": [],
      "stateMutability": "nonpayable"
    },
    {
      "type": "function",
      "name": "concludeEpoch",
      "inputs": [
        {
          "name": "futureCommittee",
          "type": "address[]",
          "internalType": "address[]"
        }
      ],
      "outputs": [],
      "stateMutability": "nonpayable"
    },
    {
      "type": "function",
      "name": "delegateStake",
      "inputs": [
        {
          "name": "blsPubkey",
          "type": "bytes",
          "internalType": "bytes"
        },
        {
          "name": "proofOfPossession",
          "type": "tuple",
          "internalType": "struct BlsG1.ProofOfPossession",
          "components": [
            {
              "name": "uncompressedPubkey",
              "type": "bytes",
              "internalType": "bytes"
            },
            {
              "name": "uncompressedSignature",
              "type": "bytes",
              "internalType": "bytes"
            }
          ]
        },
        {
          "name": "validatorAddress",
          "type": "address",
          "internalType": "address"
        },
        {
          "name": "validatorEIP712Signature",
          "type": "bytes",
          "internalType": "bytes"
        }
      ],
      "outputs": [],
      "stateMutability": "payable"
    },
    {
      "type": "function",
      "name": "delegationDigest",
      "inputs": [
        {
          "name": "blsPubkey",
          "type": "bytes",
          "internalType": "bytes"
        },
        {
          "name": "validatorAddress",
          "type": "address",
          "internalType": "address"
        },
        {
          "name": "delegator",
          "type": "address",
          "internalType": "address"
        }
      ],
      "outputs": [
        {
          "name": "",
          "type": "bytes32",
          "internalType": "bytes32"
        }
      ],
      "stateMutability": "view"
    },
    {
      "type": "function",
      "name": "eip712Domain",
      "inputs": [],
      "outputs": [
        {
          "name": "fields",
          "type": "bytes1",
          "internalType": "bytes1"
        },
        {
          "name": "name",
          "type": "string",
          "internalType": "string"
        },
        {
          "name": "version",
          "type": "string",
          "internalType": "string"
        },
        {
          "name": "chainId",
          "type": "uint256",
          "internalType": "uint256"
        },
        {
          "name": "verifyingContract",
          "type": "address",
          "internalType": "address"
        },
        {
          "name": "salt",
          "type": "bytes32",
          "internalType": "bytes32"
        },
        {
          "name": "extensions",
          "type": "uint256[]",
          "internalType": "uint256[]"
        }
      ],
      "stateMutability": "view"
    },
    {
      "type": "function",
      "name": "epochInfo",
      "inputs": [
        {
          "name": "",
          "type": "uint256",
          "internalType": "uint256"
        }
      ],
      "outputs": [
        {
          "name": "epochIssuance",
          "type": "uint256",
          "internalType": "uint256"
        },
        {
          "name": "blockHeight",
          "type": "uint64",
          "internalType": "uint64"
        },
        {
          "name": "epochDuration",
          "type": "uint32",
          "internalType": "uint32"
        },
        {
          "name": "stakeVersion",
          "type": "uint8",
          "internalType": "uint8"
        }
      ],
      "stateMutability": "view"
    },
    {
      "type": "function",
      "name": "futureEpochInfo",
      "inputs": [
        {
          "name": "",
          "type": "uint256",
          "internalType": "uint256"
        }
      ],
      "outputs": [
        {
          "name": "epochIssuance",
          "type": "uint256",
          "internalType": "uint256"
        },
        {
          "name": "blockHeight",
          "type": "uint64",
          "internalType": "uint64"
        },
        {
          "name": "epochDuration",
          "type": "uint32",
          "internalType": "uint32"
        },
        {
          "name": "stakeVersion",
          "type": "uint8",
          "internalType": "uint8"
        }
      ],
      "stateMutability": "view"
    },
    {
      "type": "function",
      "name": "getApproved",
      "inputs": [
        {
          "name": "tokenId",
          "type": "uint256",
          "internalType": "uint256"
        }
      ],
      "outputs": [
        {
          "name": "",
          "type": "address",
          "internalType": "address"
        }
      ],
      "stateMutability": "view"
    },
    {
      "type": "function",
      "name": "getBalance",
      "inputs": [
        {
          "name": "validatorAddress",
          "type": "address",
          "internalType": "address"
        }
      ],
      "outputs": [
        {
          "name": "",
          "type": "uint256",
          "internalType": "uint256"
        }
      ],
      "stateMutability": "view"
    },
    {
      "type": "function",
      "name": "getCommitteeValidators",
      "inputs": [
        {
          "name": "epoch",
          "type": "uint32",
          "internalType": "uint32"
        }
      ],
      "outputs": [
        {
          "name": "",
          "type": "tuple[]",
          "internalType": "struct IConsensusRegistry.ValidatorInfo[]",
          "components": [
            {
              "name": "blsPubkey",
              "type": "bytes",
              "internalType": "bytes"
            },
            {
              "name": "validatorAddress",
              "type": "address",
              "internalType": "address"
            },
            {
              "name": "activationEpoch",
              "type": "uint32",
              "internalType": "uint32"
            },
            {
              "name": "exitEpoch",
              "type": "uint32",
              "internalType": "uint32"
            },
            {
              "name": "currentStatus",
              "type": "uint8",
              "internalType": "enum IConsensusRegistry.ValidatorStatus"
            },
            {
              "name": "isRetired",
              "type": "bool",
              "internalType": "bool"
            },
            {
              "name": "isDelegated",
              "type": "bool",
              "internalType": "bool"
            },
            {
              "name": "stakeVersion",
              "type": "uint8",
              "internalType": "uint8"
            }
          ]
        }
      ],
      "stateMutability": "view"
    },
    {
      "type": "function",
      "name": "getCurrentEpoch",
      "inputs": [],
      "outputs": [
        {
          "name": "",
          "type": "uint32",
          "internalType": "uint32"
        }
      ],
      "stateMutability": "view"
    },
    {
      "type": "function",
      "name": "getCurrentEpochInfo",
      "inputs": [],
      "outputs": [
        {
          "name": "",
          "type": "tuple",
          "internalType": "struct IConsensusRegistry.EpochInfo",
          "components": [
            {
              "name": "committee",
              "type": "address[]",
              "internalType": "address[]"
            },
            {
              "name": "epochIssuance",
              "type": "uint256",
              "internalType": "uint256"
            },
            {
              "name": "blockHeight",
              "type": "uint64",
              "internalType": "uint64"
            },
            {
              "name": "epochDuration",
              "type": "uint32",
              "internalType": "uint32"
            },
            {
              "name": "stakeVersion",
              "type": "uint8",
              "internalType": "uint8"
            }
          ]
        }
      ],
      "stateMutability": "view"
    },
    {
      "type": "function",
      "name": "getCurrentStakeConfig",
      "inputs": [],
      "outputs": [
        {
          "name": "",
          "type": "tuple",
          "internalType": "struct IStakeManager.StakeConfig",
          "components": [
            {
              "name": "stakeAmount",
              "type": "uint256",
              "internalType": "uint256"
            },
            {
              "name": "minWithdrawAmount",
              "type": "uint256",
              "internalType": "uint256"
            },
            {
              "name": "epochIssuance",
              "type": "uint256",
              "internalType": "uint256"
            },
            {
              "name": "epochDuration",
              "type": "uint32",
              "internalType": "uint32"
            }
          ]
        }
      ],
      "stateMutability": "view"
    },
    {
      "type": "function",
      "name": "getCurrentStakeVersion",
      "inputs": [],
      "outputs": [
        {
          "name": "",
          "type": "uint8",
          "internalType": "uint8"
        }
      ],
      "stateMutability": "view"
    },
    {
      "type": "function",
      "name": "getEpochInfo",
      "inputs": [
        {
          "name": "epoch",
          "type": "uint32",
          "internalType": "uint32"
        }
      ],
      "outputs": [
        {
          "name": "",
          "type": "tuple",
          "internalType": "struct IConsensusRegistry.EpochInfo",
          "components": [
            {
              "name": "committee",
              "type": "address[]",
              "internalType": "address[]"
            },
            {
              "name": "epochIssuance",
              "type": "uint256",
              "internalType": "uint256"
            },
            {
              "name": "blockHeight",
              "type": "uint64",
              "internalType": "uint64"
            },
            {
              "name": "epochDuration",
              "type": "uint32",
              "internalType": "uint32"
            },
            {
              "name": "stakeVersion",
              "type": "uint8",
              "internalType": "uint8"
            }
          ]
        }
      ],
      "stateMutability": "view"
    },
    {
      "type": "function",
      "name": "getRewards",
      "inputs": [
        {
          "name": "validatorAddress",
          "type": "address",
          "internalType": "address"
        }
      ],
      "outputs": [
        {
          "name": "",
          "type": "uint256",
          "internalType": "uint256"
        }
      ],
      "stateMutability": "view"
    },
    {
      "type": "function",
      "name": "getValidator",
      "inputs": [
        {
          "name": "validatorAddress",
          "type": "address",
          "internalType": "address"
        }
      ],
      "outputs": [
        {
          "name": "",
          "type": "tuple",
          "internalType": "struct IConsensusRegistry.ValidatorInfo",
          "components": [
            {
              "name": "blsPubkey",
              "type": "bytes",
              "internalType": "bytes"
            },
            {
              "name": "validatorAddress",
              "type": "address",
              "internalType": "address"
            },
            {
              "name": "activationEpoch",
              "type": "uint32",
              "internalType": "uint32"
            },
            {
              "name": "exitEpoch",
              "type": "uint32",
              "internalType": "uint32"
            },
            {
              "name": "currentStatus",
              "type": "uint8",
              "internalType": "enum IConsensusRegistry.ValidatorStatus"
            },
            {
              "name": "isRetired",
              "type": "bool",
              "internalType": "bool"
            },
            {
              "name": "isDelegated",
              "type": "bool",
              "internalType": "bool"
            },
            {
              "name": "stakeVersion",
              "type": "uint8",
              "internalType": "uint8"
            }
          ]
        }
      ],
      "stateMutability": "view"
    },
    {
      "type": "function",
      "name": "getValidators",
      "inputs": [
        {
          "name": "status",
          "type": "uint8",
          "internalType": "enum IConsensusRegistry.ValidatorStatus"
        }
      ],
      "outputs": [
        {
          "name": "",
          "type": "tuple[]",
          "internalType": "struct IConsensusRegistry.ValidatorInfo[]",
          "components": [
            {
              "name": "blsPubkey",
              "type": "bytes",
              "internalType": "bytes"
            },
            {
              "name": "validatorAddress",
              "type": "address",
              "internalType": "address"
            },
            {
              "name": "activationEpoch",
              "type": "uint32",
              "internalType": "uint32"
            },
            {
              "name": "exitEpoch",
              "type": "uint32",
              "internalType": "uint32"
            },
            {
              "name": "currentStatus",
              "type": "uint8",
              "internalType": "enum IConsensusRegistry.ValidatorStatus"
            },
            {
              "name": "isRetired",
              "type": "bool",
              "internalType": "bool"
            },
            {
              "name": "isDelegated",
              "type": "bool",
              "internalType": "bool"
            },
            {
              "name": "stakeVersion",
              "type": "uint8",
              "internalType": "uint8"
            }
          ]
        }
      ],
      "stateMutability": "view"
    },
    {
      "type": "function",
      "name": "isApprovedForAll",
      "inputs": [
        {
          "name": "owner",
          "type": "address",
          "internalType": "address"
        },
        {
          "name": "operator",
          "type": "address",
          "internalType": "address"
        }
      ],
      "outputs": [
        {
          "name": "",
          "type": "bool",
          "internalType": "bool"
        }
      ],
      "stateMutability": "view"
    },
    {
      "type": "function",
      "name": "isRetired",
      "inputs": [
        {
          "name": "validatorAddress",
          "type": "address",
          "internalType": "address"
        }
      ],
      "outputs": [
        {
          "name": "",
          "type": "bool",
          "internalType": "bool"
        }
      ],
      "stateMutability": "view"
    },
    {
      "type": "function",
      "name": "issuance",
      "inputs": [],
      "outputs": [
        {
          "name": "",
          "type": "address",
          "internalType": "address payable"
        }
      ],
      "stateMutability": "view"
    },
    {
      "type": "function",
      "name": "mint",
      "inputs": [
        {
          "name": "validatorAddress",
          "type": "address",
          "internalType": "address"
        }
      ],
      "outputs": [],
      "stateMutability": "nonpayable"
    },
    {
      "type": "function",
      "name": "name",
      "inputs": [],
      "outputs": [
        {
          "name": "",
          "type": "string",
          "internalType": "string"
        }
      ],
      "stateMutability": "view"
    },
    {
      "type": "function",
      "name": "owner",
      "inputs": [],
      "outputs": [
        {
          "name": "",
          "type": "address",
          "internalType": "address"
        }
      ],
      "stateMutability": "view"
    },
    {
      "type": "function",
      "name": "ownerOf",
      "inputs": [
        {
          "name": "tokenId",
          "type": "uint256",
          "internalType": "uint256"
        }
      ],
      "outputs": [
        {
          "name": "",
          "type": "address",
          "internalType": "address"
        }
      ],
      "stateMutability": "view"
    },
    {
      "type": "function",
      "name": "pause",
      "inputs": [],
      "outputs": [],
      "stateMutability": "nonpayable"
    },
    {
      "type": "function",
      "name": "paused",
      "inputs": [],
      "outputs": [
        {
          "name": "",
          "type": "bool",
          "internalType": "bool"
        }
      ],
      "stateMutability": "view"
    },
    {
      "type": "function",
      "name": "proofOfPossessionMessage",
      "inputs": [
        {
          "name": "blsPubkeyUncompressed",
          "type": "bytes",
          "internalType": "bytes"
        },
        {
          "name": "validatorAddress",
          "type": "address",
          "internalType": "address"
        }
      ],
      "outputs": [
        {
          "name": "",
          "type": "bytes",
          "internalType": "bytes"
        }
      ],
      "stateMutability": "view"
    },
    {
      "type": "function",
      "name": "renounceOwnership",
      "inputs": [],
      "outputs": [],
      "stateMutability": "nonpayable"
    },
    {
      "type": "function",
      "name": "safeTransferFrom",
      "inputs": [
        {
          "name": "from",
          "type": "address",
          "internalType": "address"
        },
        {
          "name": "to",
          "type": "address",
          "internalType": "address"
        },
        {
          "name": "tokenId",
          "type": "uint256",
          "internalType": "uint256"
        }
      ],
      "outputs": [],
      "stateMutability": "nonpayable"
    },
    {
      "type": "function",
      "name": "safeTransferFrom",
      "inputs": [
        {
          "name": "from",
          "type": "address",
          "internalType": "address"
        },
        {
          "name": "to",
          "type": "address",
          "internalType": "address"
        },
        {
          "name": "tokenId",
          "type": "uint256",
          "internalType": "uint256"
        },
        {
          "name": "data",
          "type": "bytes",
          "internalType": "bytes"
        }
      ],
      "outputs": [],
      "stateMutability": "nonpayable"
    },
    {
      "type": "function",
      "name": "setApprovalForAll",
      "inputs": [
        {
          "name": "",
          "type": "address",
          "internalType": "address"
        },
        {
          "name": "",
          "type": "bool",
          "internalType": "bool"
        }
      ],
      "outputs": [],
      "stateMutability": "nonpayable"
    },
    {
      "type": "function",
      "name": "stake",
      "inputs": [
        {
          "name": "blsPubkey",
          "type": "bytes",
          "internalType": "bytes"
        },
        {
          "name": "proofOfPossession",
          "type": "tuple",
          "internalType": "struct BlsG1.ProofOfPossession",
          "components": [
            {
              "name": "uncompressedPubkey",
              "type": "bytes",
              "internalType": "bytes"
            },
            {
              "name": "uncompressedSignature",
              "type": "bytes",
              "internalType": "bytes"
            }
          ]
        }
      ],
      "outputs": [],
      "stateMutability": "payable"
    },
    {
      "type": "function",
      "name": "stakeConfig",
      "inputs": [
        {
          "name": "version",
          "type": "uint8",
          "internalType": "uint8"
        }
      ],
      "outputs": [
        {
          "name": "",
          "type": "tuple",
          "internalType": "struct IStakeManager.StakeConfig",
          "components": [
            {
              "name": "stakeAmount",
              "type": "uint256",
              "internalType": "uint256"
            },
            {
              "name": "minWithdrawAmount",
              "type": "uint256",
              "internalType": "uint256"
            },
            {
              "name": "epochIssuance",
              "type": "uint256",
              "internalType": "uint256"
            },
            {
              "name": "epochDuration",
              "type": "uint32",
              "internalType": "uint32"
            }
          ]
        }
      ],
      "stateMutability": "view"
    },
    {
      "type": "function",
      "name": "supportsInterface",
      "inputs": [
        {
          "name": "interfaceId",
          "type": "bytes4",
          "internalType": "bytes4"
        }
      ],
      "outputs": [
        {
          "name": "",
          "type": "bool",
          "internalType": "bool"
        }
      ],
      "stateMutability": "view"
    },
    {
      "type": "function",
      "name": "symbol",
      "inputs": [],
      "outputs": [
        {
          "name": "",
          "type": "string",
          "internalType": "string"
        }
      ],
      "stateMutability": "view"
    },
    {
      "type": "function",
      "name": "tokenByIndex",
      "inputs": [
        {
          "name": "index",
          "type": "uint256",
          "internalType": "uint256"
        }
      ],
      "outputs": [
        {
          "name": "",
          "type": "uint256",
          "internalType": "uint256"
        }
      ],
      "stateMutability": "view"
    },
    {
      "type": "function",
      "name": "tokenOfOwnerByIndex",
      "inputs": [
        {
          "name": "owner",
          "type": "address",
          "internalType": "address"
        },
        {
          "name": "index",
          "type": "uint256",
          "internalType": "uint256"
        }
      ],
      "outputs": [
        {
          "name": "",
          "type": "uint256",
          "internalType": "uint256"
        }
      ],
      "stateMutability": "view"
    },
    {
      "type": "function",
      "name": "tokenURI",
      "inputs": [
        {
          "name": "tokenId",
          "type": "uint256",
          "internalType": "uint256"
        }
      ],
      "outputs": [
        {
          "name": "",
          "type": "string",
          "internalType": "string"
        }
      ],
      "stateMutability": "view"
    },
    {
      "type": "function",
      "name": "totalSupply",
      "inputs": [],
      "outputs": [
        {
          "name": "",
          "type": "uint256",
          "internalType": "uint256"
        }
      ],
      "stateMutability": "view"
    },
    {
      "type": "function",
      "name": "transferFrom",
      "inputs": [
        {
          "name": "",
          "type": "address",
          "internalType": "address"
        },
        {
          "name": "",
          "type": "address",
          "internalType": "address"
        },
        {
          "name": "",
          "type": "uint256",
          "internalType": "uint256"
        }
      ],
      "outputs": [],
      "stateMutability": "nonpayable"
    },
    {
      "type": "function",
      "name": "transferOwnership",
      "inputs": [
        {
          "name": "newOwner",
          "type": "address",
          "internalType": "address"
        }
      ],
      "outputs": [],
      "stateMutability": "nonpayable"
    },
    {
      "type": "function",
      "name": "unpause",
      "inputs": [],
      "outputs": [],
      "stateMutability": "nonpayable"
    },
    {
      "type": "function",
      "name": "unstake",
      "inputs": [
        {
          "name": "validatorAddress",
          "type": "address",
          "internalType": "address"
        }
      ],
      "outputs": [],
      "stateMutability": "nonpayable"
    },
    {
      "type": "function",
      "name": "upgradeStakeVersion",
      "inputs": [
        {
          "name": "newConfig",
          "type": "tuple",
          "internalType": "struct IStakeManager.StakeConfig",
          "components": [
            {
              "name": "stakeAmount",
              "type": "uint256",
              "internalType": "uint256"
            },
            {
              "name": "minWithdrawAmount",
              "type": "uint256",
              "internalType": "uint256"
            },
            {
              "name": "epochIssuance",
              "type": "uint256",
              "internalType": "uint256"
            },
            {
              "name": "epochDuration",
              "type": "uint32",
              "internalType": "uint32"
            }
          ]
        }
      ],
      "outputs": [
        {
          "name": "",
          "type": "uint8",
          "internalType": "uint8"
        }
      ],
      "stateMutability": "nonpayable"
    },
    {
      "type": "function",
      "name": "validators",
      "inputs": [
        {
          "name": "",
          "type": "address",
          "internalType": "address"
        }
      ],
      "outputs": [
        {
          "name": "blsPubkey",
          "type": "bytes",
          "internalType": "bytes"
        },
        {
          "name": "validatorAddress",
          "type": "address",
          "internalType": "address"
        },
        {
          "name": "activationEpoch",
          "type": "uint32",
          "internalType": "uint32"
        },
        {
          "name": "exitEpoch",
          "type": "uint32",
          "internalType": "uint32"
        },
        {
          "name": "currentStatus",
          "type": "uint8",
          "internalType": "enum IConsensusRegistry.ValidatorStatus"
        },
        {
          "name": "isRetired",
          "type": "bool",
          "internalType": "bool"
        },
        {
          "name": "isDelegated",
          "type": "bool",
          "internalType": "bool"
        },
        {
          "name": "stakeVersion",
          "type": "uint8",
          "internalType": "uint8"
        }
      ],
      "stateMutability": "view"
    },
    {
      "type": "event",
      "name": "Approval",
      "inputs": [
        {
          "name": "owner",
          "type": "address",
          "indexed": true,
          "internalType": "address"
        },
        {
          "name": "approved",
          "type": "address",
          "indexed": true,
          "internalType": "address"
        },
        {
          "name": "tokenId",
          "type": "uint256",
          "indexed": true,
          "internalType": "uint256"
        }
      ],
      "anonymous": false
    },
    {
      "type": "event",
      "name": "ApprovalForAll",
      "inputs": [
        {
          "name": "owner",
          "type": "address",
          "indexed": true,
          "internalType": "address"
        },
        {
          "name": "operator",
          "type": "address",
          "indexed": true,
          "internalType": "address"
        },
        {
          "name": "approved",
          "type": "bool",
          "indexed": false,
          "internalType": "bool"
        }
      ],
      "anonymous": false
    },
    {
      "type": "event",
      "name": "NewEpoch",
      "inputs": [
        {
          "name": "epoch",
          "type": "tuple",
          "indexed": false,
          "internalType": "struct IConsensusRegistry.EpochInfo",
          "components": [
            {
              "name": "committee",
              "type": "address[]",
              "internalType": "address[]"
            },
            {
              "name": "epochIssuance",
              "type": "uint256",
              "internalType": "uint256"
            },
            {
              "name": "blockHeight",
              "type": "uint64",
              "internalType": "uint64"
            },
            {
              "name": "epochDuration",
              "type": "uint32",
              "internalType": "uint32"
            },
            {
              "name": "stakeVersion",
              "type": "uint8",
              "internalType": "uint8"
            }
          ]
        }
      ],
      "anonymous": false
    },
    {
      "type": "event",
      "name": "OwnershipTransferred",
      "inputs": [
        {
          "name": "previousOwner",
          "type": "address",
          "indexed": true,
          "internalType": "address"
        },
        {
          "name": "newOwner",
          "type": "address",
          "indexed": true,
          "internalType": "address"
        }
      ],
      "anonymous": false
    },
    {
      "type": "event",
      "name": "Paused",
      "inputs": [
        {
          "name": "account",
          "type": "address",
          "indexed": false,
          "internalType": "address"
        }
      ],
      "anonymous": false
    },
    {
      "type": "event",
      "name": "RewardsClaimed",
      "inputs": [
        {
          "name": "claimant",
          "type": "address",
          "indexed": false,
          "internalType": "address"
        },
        {
          "name": "rewards",
          "type": "uint256",
          "indexed": false,
          "internalType": "uint256"
        }
      ],
      "anonymous": false
    },
    {
      "type": "event",
      "name": "Transfer",
      "inputs": [
        {
          "name": "from",
          "type": "address",
          "indexed": true,
          "internalType": "address"
        },
        {
          "name": "to",
          "type": "address",
          "indexed": true,
          "internalType": "address"
        },
        {
          "name": "tokenId",
          "type": "uint256",
          "indexed": true,
          "internalType": "uint256"
        }
      ],
      "anonymous": false
    },
    {
      "type": "event",
      "name": "Unpaused",
      "inputs": [
        {
          "name": "account",
          "type": "address",
          "indexed": false,
          "internalType": "address"
        }
      ],
      "anonymous": false
    },
    {
      "type": "event",
      "name": "ValidatorActivated",
      "inputs": [
        {
          "name": "validator",
          "type": "tuple",
          "indexed": false,
          "internalType": "struct IConsensusRegistry.ValidatorInfo",
          "components": [
            {
              "name": "blsPubkey",
              "type": "bytes",
              "internalType": "bytes"
            },
            {
              "name": "validatorAddress",
              "type": "address",
              "internalType": "address"
            },
            {
              "name": "activationEpoch",
              "type": "uint32",
              "internalType": "uint32"
            },
            {
              "name": "exitEpoch",
              "type": "uint32",
              "internalType": "uint32"
            },
            {
              "name": "currentStatus",
              "type": "uint8",
              "internalType": "enum IConsensusRegistry.ValidatorStatus"
            },
            {
              "name": "isRetired",
              "type": "bool",
              "internalType": "bool"
            },
            {
              "name": "isDelegated",
              "type": "bool",
              "internalType": "bool"
            },
            {
              "name": "stakeVersion",
              "type": "uint8",
              "internalType": "uint8"
            }
          ]
        }
      ],
      "anonymous": false
    },
    {
      "type": "event",
      "name": "ValidatorExited",
      "inputs": [
        {
          "name": "validator",
          "type": "tuple",
          "indexed": false,
          "internalType": "struct IConsensusRegistry.ValidatorInfo",
          "components": [
            {
              "name": "blsPubkey",
              "type": "bytes",
              "internalType": "bytes"
            },
            {
              "name": "validatorAddress",
              "type": "address",
              "internalType": "address"
            },
            {
              "name": "activationEpoch",
              "type": "uint32",
              "internalType": "uint32"
            },
            {
              "name": "exitEpoch",
              "type": "uint32",
              "internalType": "uint32"
            },
            {
              "name": "currentStatus",
              "type": "uint8",
              "internalType": "enum IConsensusRegistry.ValidatorStatus"
            },
            {
              "name": "isRetired",
              "type": "bool",
              "internalType": "bool"
            },
            {
              "name": "isDelegated",
              "type": "bool",
              "internalType": "bool"
            },
            {
              "name": "stakeVersion",
              "type": "uint8",
              "internalType": "uint8"
            }
          ]
        }
      ],
      "anonymous": false
    },
    {
      "type": "event",
      "name": "ValidatorPendingActivation",
      "inputs": [
        {
          "name": "validator",
          "type": "tuple",
          "indexed": false,
          "internalType": "struct IConsensusRegistry.ValidatorInfo",
          "components": [
            {
              "name": "blsPubkey",
              "type": "bytes",
              "internalType": "bytes"
            },
            {
              "name": "validatorAddress",
              "type": "address",
              "internalType": "address"
            },
            {
              "name": "activationEpoch",
              "type": "uint32",
              "internalType": "uint32"
            },
            {
              "name": "exitEpoch",
              "type": "uint32",
              "internalType": "uint32"
            },
            {
              "name": "currentStatus",
              "type": "uint8",
              "internalType": "enum IConsensusRegistry.ValidatorStatus"
            },
            {
              "name": "isRetired",
              "type": "bool",
              "internalType": "bool"
            },
            {
              "name": "isDelegated",
              "type": "bool",
              "internalType": "bool"
            },
            {
              "name": "stakeVersion",
              "type": "uint8",
              "internalType": "uint8"
            }
          ]
        }
      ],
      "anonymous": false
    },
    {
      "type": "event",
      "name": "ValidatorPendingExit",
      "inputs": [
        {
          "name": "validator",
          "type": "tuple",
          "indexed": false,
          "internalType": "struct IConsensusRegistry.ValidatorInfo",
          "components": [
            {
              "name": "blsPubkey",
              "type": "bytes",
              "internalType": "bytes"
            },
            {
              "name": "validatorAddress",
              "type": "address",
              "internalType": "address"
            },
            {
              "name": "activationEpoch",
              "type": "uint32",
              "internalType": "uint32"
            },
            {
              "name": "exitEpoch",
              "type": "uint32",
              "internalType": "uint32"
            },
            {
              "name": "currentStatus",
              "type": "uint8",
              "internalType": "enum IConsensusRegistry.ValidatorStatus"
            },
            {
              "name": "isRetired",
              "type": "bool",
              "internalType": "bool"
            },
            {
              "name": "isDelegated",
              "type": "bool",
              "internalType": "bool"
            },
            {
              "name": "stakeVersion",
              "type": "uint8",
              "internalType": "uint8"
            }
          ]
        }
      ],
      "anonymous": false
    },
    {
      "type": "event",
      "name": "ValidatorRetired",
      "inputs": [
        {
          "name": "validator",
          "type": "tuple",
          "indexed": false,
          "internalType": "struct IConsensusRegistry.ValidatorInfo",
          "components": [
            {
              "name": "blsPubkey",
              "type": "bytes",
              "internalType": "bytes"
            },
            {
              "name": "validatorAddress",
              "type": "address",
              "internalType": "address"
            },
            {
              "name": "activationEpoch",
              "type": "uint32",
              "internalType": "uint32"
            },
            {
              "name": "exitEpoch",
              "type": "uint32",
              "internalType": "uint32"
            },
            {
              "name": "currentStatus",
              "type": "uint8",
              "internalType": "enum IConsensusRegistry.ValidatorStatus"
            },
            {
              "name": "isRetired",
              "type": "bool",
              "internalType": "bool"
            },
            {
              "name": "isDelegated",
              "type": "bool",
              "internalType": "bool"
            },
            {
              "name": "stakeVersion",
              "type": "uint8",
              "internalType": "uint8"
            }
          ]
        }
      ],
      "anonymous": false
    },
    {
      "type": "event",
      "name": "ValidatorSlashed",
      "inputs": [
        {
          "name": "slash",
          "type": "tuple",
          "indexed": false,
          "internalType": "struct Slash",
          "components": [
            {
              "name": "validatorAddress",
              "type": "address",
              "internalType": "address"
            },
            {
              "name": "amount",
              "type": "uint256",
              "internalType": "uint256"
            }
          ]
        }
      ],
      "anonymous": false
    },
    {
      "type": "event",
      "name": "ValidatorStaked",
      "inputs": [
        {
          "name": "validator",
          "type": "tuple",
          "indexed": false,
          "internalType": "struct IConsensusRegistry.ValidatorInfo",
          "components": [
            {
              "name": "blsPubkey",
              "type": "bytes",
              "internalType": "bytes"
            },
            {
              "name": "validatorAddress",
              "type": "address",
              "internalType": "address"
            },
            {
              "name": "activationEpoch",
              "type": "uint32",
              "internalType": "uint32"
            },
            {
              "name": "exitEpoch",
              "type": "uint32",
              "internalType": "uint32"
            },
            {
              "name": "currentStatus",
              "type": "uint8",
              "internalType": "enum IConsensusRegistry.ValidatorStatus"
            },
            {
              "name": "isRetired",
              "type": "bool",
              "internalType": "bool"
            },
            {
              "name": "isDelegated",
              "type": "bool",
              "internalType": "bool"
            },
            {
              "name": "stakeVersion",
              "type": "uint8",
              "internalType": "uint8"
            }
          ]
        }
      ],
      "anonymous": false
    },
    {
      "type": "error",
      "name": "AlreadyDefined",
      "inputs": [
        {
          "name": "validatorAddress",
          "type": "address",
          "internalType": "address"
        }
      ]
    },
    {
      "type": "error",
      "name": "CommitteeRequirement",
      "inputs": [
        {
          "name": "validatorAddress",
          "type": "address",
          "internalType": "address"
        }
      ]
    },
    {
      "type": "error",
      "name": "DuplicateBLSPubkey",
      "inputs": []
    },
    {
      "type": "error",
      "name": "ERC721EnumerableForbiddenBatchMint",
      "inputs": []
    },
    {
      "type": "error",
      "name": "ERC721IncorrectOwner",
      "inputs": [
        {
          "name": "sender",
          "type": "address",
          "internalType": "address"
        },
        {
          "name": "tokenId",
          "type": "uint256",
          "internalType": "uint256"
        },
        {
          "name": "owner",
          "type": "address",
          "internalType": "address"
        }
      ]
    },
    {
      "type": "error",
      "name": "ERC721InsufficientApproval",
      "inputs": [
        {
          "name": "operator",
          "type": "address",
          "internalType": "address"
        },
        {
          "name": "tokenId",
          "type": "uint256",
          "internalType": "uint256"
        }
      ]
    },
    {
      "type": "error",
      "name": "ERC721InvalidApprover",
      "inputs": [
        {
          "name": "approver",
          "type": "address",
          "internalType": "address"
        }
      ]
    },
    {
      "type": "error",
      "name": "ERC721InvalidOperator",
      "inputs": [
        {
          "name": "operator",
          "type": "address",
          "internalType": "address"
        }
      ]
    },
    {
      "type": "error",
      "name": "ERC721InvalidOwner",
      "inputs": [
        {
          "name": "owner",
          "type": "address",
          "internalType": "address"
        }
      ]
    },
    {
      "type": "error",
      "name": "ERC721InvalidReceiver",
      "inputs": [
        {
          "name": "receiver",
          "type": "address",
          "internalType": "address"
        }
      ]
    },
    {
      "type": "error",
      "name": "ERC721InvalidSender",
      "inputs": [
        {
          "name": "sender",
          "type": "address",
          "internalType": "address"
        }
      ]
    },
    {
      "type": "error",
      "name": "ERC721NonexistentToken",
      "inputs": [
        {
          "name": "tokenId",
          "type": "uint256",
          "internalType": "uint256"
        }
      ]
    },
    {
      "type": "error",
      "name": "ERC721OutOfBoundsIndex",
      "inputs": [
        {
          "name": "owner",
          "type": "address",
          "internalType": "address"
        },
        {
          "name": "index",
          "type": "uint256",
          "internalType": "uint256"
        }
      ]
    },
    {
      "type": "error",
      "name": "EnforcedPause",
      "inputs": []
    },
    {
      "type": "error",
      "name": "ExpectedPause",
      "inputs": []
    },
    {
      "type": "error",
      "name": "GenesisArityMismatch",
      "inputs": []
    },
    {
      "type": "error",
      "name": "InsufficientRewards",
      "inputs": [
        {
          "name": "withdrawAmount",
          "type": "uint256",
          "internalType": "uint256"
        }
      ]
    },
    {
      "type": "error",
      "name": "InvalidBLSPubkey",
      "inputs": []
    },
    {
      "type": "error",
      "name": "InvalidCommitteeSize",
      "inputs": [
        {
          "name": "minCommitteeSize",
          "type": "uint256",
          "internalType": "uint256"
        },
        {
          "name": "providedCommitteeSize",
          "type": "uint256",
          "internalType": "uint256"
        }
      ]
    },
    {
      "type": "error",
      "name": "InvalidDuration",
      "inputs": [
        {
          "name": "duration",
          "type": "uint32",
          "internalType": "uint32"
        }
      ]
    },
    {
      "type": "error",
      "name": "InvalidEpoch",
      "inputs": [
        {
          "name": "epoch",
          "type": "uint32",
          "internalType": "uint32"
        }
      ]
    },
    {
      "type": "error",
      "name": "InvalidProofOfPossession",
      "inputs": [
        {
          "name": "proof",
          "type": "tuple",
          "internalType": "struct BlsG1.ProofOfPossession",
          "components": [
            {
              "name": "uncompressedPubkey",
              "type": "bytes",
              "internalType": "bytes"
            },
            {
              "name": "uncompressedSignature",
              "type": "bytes",
              "internalType": "bytes"
            }
          ]
        },
        {
          "name": "message",
          "type": "bytes",
          "internalType": "bytes"
        }
      ]
    },
    {
      "type": "error",
      "name": "InvalidStakeAmount",
      "inputs": [
        {
          "name": "stakeAmount",
          "type": "uint256",
          "internalType": "uint256"
        }
      ]
    },
    {
      "type": "error",
      "name": "InvalidStatus",
      "inputs": [
        {
          "name": "status",
          "type": "uint8",
          "internalType": "enum IConsensusRegistry.ValidatorStatus"
        }
      ]
    },
    {
      "type": "error",
      "name": "InvalidSupply",
      "inputs": []
    },
    {
      "type": "error",
      "name": "InvalidTokenId",
      "inputs": [
        {
          "name": "tokenId",
          "type": "uint256",
          "internalType": "uint256"
        }
      ]
    },
    {
      "type": "error",
      "name": "InvalidValidatorAddress",
      "inputs": []
    },
    {
      "type": "error",
      "name": "NotRecipient",
      "inputs": [
        {
          "name": "recipient",
          "type": "address",
          "internalType": "address"
        }
      ]
    },
    {
      "type": "error",
      "name": "NotTransferable",
      "inputs": []
    },
    {
      "type": "error",
      "name": "NotValidator",
      "inputs": [
        {
          "name": "validatorAddress",
          "type": "address",
          "internalType": "address"
        }
      ]
    },
    {
      "type": "error",
      "name": "OnlySystemCall",
      "inputs": [
        {
          "name": "invalidCaller",
          "type": "address",
          "internalType": "address"
        }
      ]
    },
    {
      "type": "error",
      "name": "OwnableInvalidOwner",
      "inputs": [
        {
          "name": "owner",
          "type": "address",
          "internalType": "address"
        }
      ]
    },
    {
      "type": "error",
      "name": "OwnableUnauthorizedAccount",
      "inputs": [
        {
          "name": "account",
          "type": "address",
          "internalType": "address"
        }
      ]
    },
    {
      "type": "error",
      "name": "Reentrancy",
      "inputs": []
    },
    {
      "type": "error",
      "name": "RequiresConsensusNFT",
      "inputs": []
    },
    {
      "type": "error",
      "name": "StringsInsufficientHexLength",
      "inputs": [
        {
          "name": "value",
          "type": "uint256",
          "internalType": "uint256"
        },
        {
          "name": "length",
          "type": "uint256",
          "internalType": "uint256"
        }
      ]
    }
  ],
  "bytecode": {
    "object": "0x610120604052348015610010575f80fd5b506040516180e53803806180e583398101604081905261002f9161155d565b806040518060400160405280600c81526020016b10dbdb9cd95b9cdd5cd3919560a21b8152506040518060400160405280600481526020016310d3919560e21b8152508181815f9081610082919061169d565b50600161008f828261169d565b505030608052504660a0526060806100ef604080518082018252601481527f54656c636f696e205374616b654d616e61676572000000000000000000000000602080830191909152825180840190935260018352603160f81b9083015291565b815160209283012081519183019190912060c082905260e0819052604080517f8b73c3c69bb8fe3d512ecc4cf759cc79239f7b179b0ffacaa9a75d522b39400f8152938401929092529082015246606082015230608082015260a09020610100525050506001600160a01b038216905061018357604051631e4fbdf760e01b81525f60048201526024015b60405180910390fd5b61018c816109c8565b508251158061019d57508151835114155b156101bb57604051633aa3e03360e01b815260040160405180910390fd5b306040516101c89061118f565b6001600160a01b039091168152602001604051809103905ff0801580156101f1573d5f803e3d5ffd5b50600a80546001600160a01b0319166001600160a01b03929092169190911790555f808052600b602090815285517fdf7de25b7f1fd6d0b5205f0e18f1f35bd7b8d84cce336588d184533ce43a6f76558501517fdf7de25b7f1fd6d0b5205f0e18f1f35bd7b8d84cce336588d184533ce43a6f775560408501517fdf7de25b7f1fd6d0b5205f0e18f1f35bd7b8d84cce336588d184533ce43a6f785560608501517fdf7de25b7f1fd6d0b5205f0e18f1f35bd7b8d84cce336588d184533ce43a6f79805463ffffffff191663ffffffff9092169190911790555b60028111610333575f600f82600481106102e7576102e7611757565b60030201905085606001518160020160086101000a81548163ffffffff021916908363ffffffff16021790555085604001518160010181905550508061032c9061177f565b90506102cb565b505f5b83518110156109be575f84828151811061035257610352611757565b602002602001015190505f61038d85848151811061037257610372611757565b60200260200101515f01518360200151610a2160201b60201c565b90505f73__$2ef4e8110a3eaa1255da7f08f8eebcbf5a$__63a691a08b8786815181106103bc576103bc611757565b60200260200101515f01516040518263ffffffff1660e01b81526004016103e391906117c5565b5f60405180830381865af41580156103fd573d5f803e3d5ffd5b505050506040513d5f823e601f3d908101601f1916820160405261042491908101906117de565b90505f73__$2ef4e8110a3eaa1255da7f08f8eebcbf5a$__633d2a9e1188878151811061045357610453611757565b6020026020010151602001516040518263ffffffff1660e01b815260040161047b91906117c5565b5f60405180830381865af4158015610495573d5f803e3d5ffd5b505050506040513d5f823e601f3d908101601f191682016040526104bc91908101906117de565b604051634f98273b60e01b815290915073__$2ef4e8110a3eaa1255da7f08f8eebcbf5a$__90634f98273b906104fa9085908590889060040161180f565b602060405180830381865af4158015610515573d5f803e3d5ffd5b505050506040513d601f19601f820116820180604052508101906105399190611851565b610556576040516333a234f960e11b815260040160405180910390fd5b60208401516001600160a01b03166105815760405163713ce51160e01b815260040160405180910390fd5b604084015163ffffffff16156105b8576040808501519051634fadd4d360e11b815263ffffffff909116600482015260240161017a565b606084015163ffffffff16156105ef576060840151604051634fadd4d360e11b815263ffffffff909116600482015260240161017a565b6003846080015160068111156106075761060761186a565b1461062b578360800151604051633ba7bf8960e11b815260040161017a919061189e565b60a084015115610651576005604051633ba7bf8960e11b815260040161017a919061189e565b60c0840151151560010361072a576040805160a08101825285518051602091820120825280870180516001600160a01b039081168385019081528b82168587019081525f60608701818152600160808901818152965186168352600d90975297902095518655905193850180546001600160a01b0319169483169490941790935591516002909301805494519151939092166001600160a81b031990941693909317600160a01b60ff9094169390930292909217600160a81b600160e81b031916600160a81b6001600160401b03909216919091021790555b60e084015160ff161561075b5760e084015160405163222d164360e21b815260ff909116600482015260240161017a565b5f5b6002811161081957600f816004811061077857610778611757565b6020878101516003929092029290920180546001810182555f91825292902090910180546001600160a01b0319166001600160a01b03909216919091179055601b81600481106107ca576107ca611757565b6020878101516003929092029290920180546001810182555f91825292902090910180546001600160a01b0319166001600160a01b039092169190911790556108128161177f565b905061075d565b506020808501516001600160a01b03165f90815260279091526040902084518591908190610847908261169d565b5060208201516001820180546040850151606086015163ffffffff908116600160c01b0263ffffffff60c01b1991909216600160a01b026001600160c01b03199093166001600160a01b0390951694909417919091179283168117825560808501519260ff60e01b1990911664ffffffffff60c01b1990911617600160e01b8360068111156108d8576108d861186a565b021790555060a08201516001909101805460c084015160e09094015160ff16600160f81b026001600160f81b03941515600160f01b0260ff60f01b19941515600160e81b029490941661ffff60e81b199092169190911792909217929092161790558851602080860180516001600160a01b03165f908152600c9092526040909120919091555161097890610973816001600160a01b031690565b610b6f565b7f31845bad1fcdd92490e8d85605449863a562ea940e37b380a276e440683fdb72846040516109a791906118ac565b60405180910390a150505050806001019050610336565b50505050506119da565b600e80546001600160a01b03838116610100818102610100600160a81b031985161790945560405193909204169182907f8be0079c531659141344cd1fd0a4f28419497f9722a3daafe3b4186f6b6457e0905f90a35050565b60605f73__$2ef4e8110a3eaa1255da7f08f8eebcbf5a$__63a691a08b856040518263ffffffff1660e01b8152600401610a5b91906117c5565b5f60405180830381865af4158015610a75573d5f803e3d5ffd5b505050506040513d5f823e601f3d908101601f19168201604052610a9c91908101906117de565b6040516329bd7cc960e21b815290915073__$2ef4e8110a3eaa1255da7f08f8eebcbf5a$__9063a6f5f32490610ad69084906004016117c5565b602060405180830381865af4158015610af1573d5f803e3d5ffd5b505050506040513d601f19601f82011682018060405250810190610b159190611851565b610b32576040516333a234f960e11b815260040160405180910390fd5b604051610b569061d50160d81b908690600560fa1b90606088901b9060200161194b565b6040516020818303038152906040529150505b92915050565b6001600160a01b038216610b9857604051633250574960e11b81525f600482015260240161017a565b5f610ba4838383610bd5565b90506001600160a01b03811615610bd0576040516339e3563760e11b81525f600482015260240161017a565b505050565b5f80610be2858585610ca8565b90506001600160a01b038116610c3e57610c3984600880545f838152600960205260408120829055600182018355919091527ff3f7a9fe364faab93b216da50a3214154f22a0a2b415b23a84c8169e8b636ee30155565b610c61565b846001600160a01b0316816001600160a01b031614610c6157610c618185610d9a565b6001600160a01b038516610c7d57610c7884610e17565b610ca0565b846001600160a01b0316816001600160a01b031614610ca057610ca08585610ebe565b949350505050565b5f828152600260205260408120546001600160a01b0390811690831615610cd457610cd4818486610f0c565b6001600160a01b03811615610d0e57610cef5f858180610f70565b6001600160a01b0381165f90815260036020526040902080545f190190555b6001600160a01b03851615610d3c576001600160a01b0385165f908152600360205260409020805460010190555b5f8481526002602052604080822080546001600160a01b0319166001600160a01b0389811691821790925591518793918516917fddf252ad1be2c89b69c2b068fc378daa952ba7f163c4a11628f55a4df523b3ef91a4949350505050565b5f610da483611092565b5f838152600760209081526040808320546001600160a01b0388168452600690925290912091925090818314610df9575f83815260208281526040808320548584528184208190558352600790915290208290555b5f938452600760209081526040808620869055938552525081205550565b6008545f90610e28906001906119b3565b5f8381526009602052604081205460088054939450909284908110610e4f57610e4f611757565b905f5260205f20015490508060088381548110610e6e57610e6e611757565b5f918252602080832090910192909255828152600990915260408082208490558582528120556008805480610ea557610ea56119c6565b600190038181905f5260205f20015f9055905550505050565b5f6001610eca84611092565b610ed491906119b3565b6001600160a01b039093165f908152600660209081526040808320868452825280832085905593825260079052919091209190915550565b610f178383836110d7565b610bd0576001600160a01b038316610f4557604051637e27328960e01b81526004810182905260240161017a565b60405163177e802f60e01b81526001600160a01b03831660048201526024810182905260440161017a565b8080610f8457506001600160a01b03821615155b15611063575f610f9384611157565b90506001600160a01b03831615801590610fbf5750826001600160a01b0316816001600160a01b031614155b8015610ff057506001600160a01b038082165f9081526005602090815260408083209387168352929052205460ff16155b156110195760405163a9fbf51f60e01b81526001600160a01b038416600482015260240161017a565b81156110615783856001600160a01b0316826001600160a01b03167f8c5be1e5ebec7d5bd14f71427d1e84f3dd0314c0f7b2291e5b200ac8c7c3b92560405160405180910390a45b505b50505f90815260046020526040902080546001600160a01b0319166001600160a01b0392909216919091179055565b5f6001600160a01b0382166110bc576040516322718ad960e21b81525f600482015260240161017a565b506001600160a01b03165f9081526003602052604090205490565b5f6001600160a01b03831615801590610ca05750826001600160a01b0316846001600160a01b0316148061112f57506001600160a01b038085165f9081526005602090815260408083209387168352929052205460ff165b80610ca05750505f908152600460205260409020546001600160a01b03908116911614919050565b5f818152600260205260408120546001600160a01b031680610b6957604051637e27328960e01b81526004810184905260240161017a565b6102d780617e0e83390190565b634e487b7160e01b5f52604160045260245ffd5b60405161010081016001600160401b03811182821017156111d3576111d361119c565b60405290565b604080519081016001600160401b03811182821017156111d3576111d361119c565b604051608081016001600160401b03811182821017156111d3576111d361119c565b604051601f8201601f191681016001600160401b03811182821017156112455761124561119c565b604052919050565b805163ffffffff81168114611260575f80fd5b919050565b5f6001600160401b0382111561127d5761127d61119c565b5060051b60200190565b5f82601f830112611296575f80fd5b81516001600160401b038111156112af576112af61119c565b6112c2601f8201601f191660200161121d565b8181528460208386010111156112d6575f80fd5b8160208501602083015e5f918101602001919091529392505050565b80516001600160a01b0381168114611260575f80fd5b805160078110611260575f80fd5b80518015158114611260575f80fd5b805160ff81168114611260575f80fd5b5f82601f830112611344575f80fd5b815161135761135282611265565b61121d565b8082825260208201915060208360051b860101925085831115611378575f80fd5b602085015b838110156114695780516001600160401b0381111561139a575f80fd5b8601610100818903601f190112156113b0575f80fd5b6113b86111b0565b60208201516001600160401b038111156113d0575f80fd5b6113df8a602083860101611287565b8252506113ee604083016112f2565b60208201526113ff6060830161124d565b60408201526114106080830161124d565b606082015261142160a08301611308565b608082015261143260c08301611316565b60a082015261144360e08301611316565b60c08201526114556101008301611325565b60e08201528452506020928301920161137d565b5095945050505050565b5f82601f830112611482575f80fd5b815161149061135282611265565b8082825260208201915060208360051b8601019250858311156114b1575f80fd5b602085015b838110156114695780516001600160401b038111156114d3575f80fd5b86016040818903601f190112156114e8575f80fd5b6114f06111d9565b60208201516001600160401b03811115611508575f80fd5b6115178a602083860101611287565b82525060408201516001600160401b03811115611532575f80fd5b6115418a602083860101611287565b60208301525080855250506020830192506020810190506114b6565b5f805f8084860360e0811215611571575f80fd5b608081121561157e575f80fd5b506115876111fb565b8551815260208087015190820152604080870151908201526115ab6060870161124d565b606082015260808601519094506001600160401b038111156115cb575f80fd5b6115d787828801611335565b60a087015190945090506001600160401b038111156115f4575f80fd5b61160087828801611473565b92505061160f60c086016112f2565b905092959194509250565b600181811c9082168061162e57607f821691505b60208210810361164c57634e487b7160e01b5f52602260045260245ffd5b50919050565b601f821115610bd057805f5260205f20601f840160051c810160208510156116775750805b601f840160051c820191505b81811015611696575f8155600101611683565b5050505050565b81516001600160401b038111156116b6576116b661119c565b6116ca816116c4845461161a565b84611652565b6020601f8211600181146116fc575f83156116e55750848201515b5f19600385901b1c1916600184901b178455611696565b5f84815260208120601f198516915b8281101561172b578785015182556020948501946001909201910161170b565b508482101561174857868401515f19600387901b60f8161c191681555b50505050600190811b01905550565b634e487b7160e01b5f52603260045260245ffd5b634e487b7160e01b5f52601160045260245ffd5b5f600182016117905761179061176b565b5060010190565b5f81518084528060208401602086015e5f602082860101526020601f19601f83011685010191505092915050565b602081525f6117d76020830184611797565b9392505050565b5f602082840312156117ee575f80fd5b81516001600160401b03811115611803575f80fd5b610ca084828501611287565b606081525f6118216060830186611797565b82810360208401526118338186611797565b905082810360408401526118478185611797565b9695505050505050565b5f60208284031215611861575f80fd5b6117d782611316565b634e487b7160e01b5f52602160045260245ffd5b6007811061189a57634e487b7160e01b5f52602160045260245ffd5b9052565b60208101610b69828461187e565b602081525f825161010060208401526118c9610120840182611797565b905060018060a01b03602085015116604084015263ffffffff60408501511660608401526060840151611904608085018263ffffffff169052565b50608084015161191760a085018261187e565b5060a084015180151560c08501525060c084015180151560e08501525060e084015160ff8116610100850152509392505050565b6001600160d81b03198516815283515f908060208701600585015e7fff00000000000000000000000000000000000000000000000000000000000000949094169190930160058101919091526001600160601b0319919091166006820152601a019392505050565b81810381811115610b6957610b6961176b565b634e487b7160e01b5f52603160045260245ffd5b60805160a05160c05160e051610100516163f7611a175f395f61388601525f61394001525f61391a01525f6138ca01525f6138a701526163f75ff3fe608060405260043610610341575f3560e01c806370a08231116101bd578063a22cb465116100f2578063c87b56dd11610092578063f2888dbb1161006d578063f2888dbb146109be578063f2fde38b146109dd578063f8b2cb4f146109fc578063fa52c7d814610a30575f80fd5b8063c87b56dd14610961578063e3716d0414610980578063e985e9c51461099f575f80fd5b8063b88d4fde116100cd578063b88d4fde146108de578063b97dd9e2146108fd578063babc394f1461092e578063c05df7ac14610942575f80fd5b8063a22cb46514610892578063a71954ec146108ac578063b5184324146108cb575f80fd5b8063863623bb1161015d5780638cc05eda116101385780638cc05eda146108115780638da5cb5b1461083d57806395d89b411461085f578063a0201be514610873575f80fd5b8063863623bb146107c057806389afcb44146107df5780638bb43f3a146107fe575f80fd5b80637b55a300116101985780637b55a300146107195780637d06fdf8146107385780638456cb591461078557806384b0196e14610799575f80fd5b806370a08231146106c7578063715018a6146106e657806379ee54f7146106fa575f80fd5b80633434735f1161029357806359ca93b611610233578063673983311161020e57806367398331146106445780636850eb311461066a5780636a627842146106895780636d3c6275146106a8575f80fd5b806359ca93b6146105ef5780635c975abb1461060e5780636352211e14610625575f80fd5b80633894228e1161026e5780633894228e146105485780633f4ba83a1461059d57806342842e0e146105b15780634f6ccce7146105d0575f80fd5b80633434735f146104fa578063355811a714610514578063374ed18c1461051c575f80fd5b80630f15f4c0116102fe5780632228dfa0116102d95780632228dfa01461048e57806323b872dd146104a25780632b9f4985146104bc5780632f745c59146104db575f80fd5b80630f15f4c01461043057806318160ddd146104445780631904bb2e14610462575f80fd5b806301ffc9a71461034557806302ae337b1461037957806306fdde031461039a578063081812fc146103bb578063095ea7b3146103f25780630a36cdef14610411575b5f80fd5b348015610350575f80fd5b5061036461035f366004614d8c565b610a63565b60405190151581526020015b60405180910390f35b348015610384575f80fd5b50610398610393366004614dee565b610a8d565b005b3480156103a5575f80fd5b506103ae610be3565b6040516103709190614e5a565b3480156103c6575f80fd5b506103da6103d5366004614e6c565b610c72565b6040516001600160a01b039091168152602001610370565b3480156103fd575f80fd5b5061039861040c366004614e99565b610c99565b34801561041c575f80fd5b5061039861042b366004614dee565b610cb2565b34801561043b575f80fd5b50610398610ecf565b34801561044f575f80fd5b506008545b604051908152602001610370565b34801561046d575f80fd5b5061048161047c366004614ec1565b610f18565b6040516103709190614faf565b348015610499575f80fd5b50610398611082565b3480156104ad575f80fd5b5061039861040c366004614fc1565b3480156104c7575f80fd5b506103986104d6366004614ec1565b611147565b3480156104e6575f80fd5b506104546104f5366004614e99565b611262565b348015610505575f80fd5b506103da6002600160a01b0381565b6103986112c5565b348015610527575f80fd5b5061053b61053636600461500c565b611364565b6040516103709190615027565b348015610553575f80fd5b50610567610562366004614e6c565b6114ed565b604080519485526001600160401b03909316602085015263ffffffff9091169183019190915260ff166060820152608001610370565b3480156105a8575f80fd5b50610398611534565b3480156105bc575f80fd5b506103986105cb366004614fc1565b611546565b3480156105db575f80fd5b506104546105ea366004614e6c565b611560565b3480156105fa575f80fd5b50610567610609366004614e6c565b6115b5565b348015610619575f80fd5b50600e5460ff16610364565b348015610630575f80fd5b506103da61063f366004614e6c565b6115c4565b34801561064f575f80fd5b506106586115ce565b60405160ff9091168152602001610370565b348015610675575f80fd5b506103ae610684366004615186565b6115e0565b348015610694575f80fd5b506103986106a3366004614ec1565b61172d565b3480156106b3575f80fd5b506103646106c2366004614ec1565b61178b565b3480156106d2575f80fd5b506104546106e1366004614ec1565b611815565b3480156106f1575f80fd5b5061039861185a565b348015610705575f80fd5b50610454610714366004614ec1565b61186b565b348015610724575f80fd5b506103986107333660046151d0565b6118b0565b348015610743575f80fd5b5061074c6119da565b604051610370919081518152602080830151908201526040808301519082015260609182015163ffffffff169181019190915260800190565b348015610790575f80fd5b50610398611a5e565b3480156107a4575f80fd5b506107ad611a6e565b604051610370979695949392919061523f565b3480156107cb575f80fd5b50600a546103da906001600160a01b031681565b3480156107ea575f80fd5b506103986107f9366004614ec1565b611ad5565b61039861080c36600461539f565b611b1a565b34801561081c575f80fd5b5061083061082b366004615446565b611f4a565b6040516103709190615464565b348015610848575f80fd5b50600e5461010090046001600160a01b03166103da565b34801561086a575f80fd5b506103ae611f88565b34801561087e575f80fd5b5061083061088d36600461500c565b611f97565b34801561089d575f80fd5b5061039861040c3660046154d4565b3480156108b7575f80fd5b5061074c6108c6366004615509565b612058565b6103986108d9366004615529565b6120d2565b3480156108e9575f80fd5b506103986108f8366004615590565b612301565b348015610908575f80fd5b50600e54600160a81b900463ffffffff1660405163ffffffff9091168152602001610370565b348015610939575f80fd5b5061053b612319565b34801561094d575f80fd5b5061065861095c3660046155f3565b612410565b34801561096c575f80fd5b506103ae61097b366004614e6c565b6124cd565b34801561098b575f80fd5b5061045461099a36600461560c565b61253d565b3480156109aa575f80fd5b506103646109b9366004615665565b6125f7565b3480156109c9575f80fd5b506103986109d8366004614ec1565b612624565b3480156109e8575f80fd5b506103986109f7366004614ec1565b6127c6565b348015610a07575f80fd5b50610454610a16366004614ec1565b6001600160a01b03165f908152600c602052604090205490565b348015610a3b575f80fd5b50610a4f610a4a366004614ec1565b612800565b60405161037098979695949392919061568d565b5f6001600160e01b0319821663780e9d6360e01b1480610a875750610a87826128ee565b92915050565b336002600160a01b0314610abb57604051637eb3357160e01b81523360048201526024015b60405180910390fd5b5f5b81811015610bde5736838383818110610ad857610ad86156f5565b604002919091019150610af390506106c26020830183614ec1565b15610afe5750610bd6565b60208101803590600c905f90610b149085614ec1565b6001600160a01b03166001600160a01b031681526020019081526020015f20541115610b885760208101803590600c905f90610b509085614ec1565b6001600160a01b03166001600160a01b031681526020019081526020015f205f828254610b7d919061571d565b90915550610b9d9050565b610b9d610b986020830183614ec1565b61293d565b7f11a09f9b32440d896abff7453bf53f8b26ffcb18dae4dca227f7a76e2acc3a6481604051610bcc9190615730565b60405180910390a1505b600101610abd565b505050565b60605f8054610bf190615759565b80601f0160208091040260200160405190810160405280929190818152602001828054610c1d90615759565b8015610c685780601f10610c3f57610100808354040283529160200191610c68565b820191905f5260205f20905b815481529060010190602001808311610c4b57829003601f168201915b5050505050905090565b5f610c7c826129f3565b505f828152600460205260409020546001600160a01b0316610a87565b60405163dc8d8db760e01b815260040160405180910390fd5b336002600160a01b0314610cdb57604051637eb3357160e01b8152336004820152602401610ab2565b5f80826001600160401b03811115610cf557610cf56150ca565b604051908082528060200260200182016040528015610d1e578160200160208202803683370190505b5090505f5b83811015610e055736858583818110610d3e57610d3e6156f5565b905060400201905080602001355f03610d575750610dfd565b610d676106c26020830183614ec1565b15610d725750610dfd565b5f602781610d836020850185614ec1565b6001600160a01b0316815260208082019290925260409081015f90812060010154600160f81b900460ff16808252600b8452918120549193509091610dcb9085013583615791565b9050610dd781886157a8565b965080868681518110610dec57610dec6156f5565b602002602001018181525050505050505b600101610d23565b50815f03610e135750505050565b5f610e1c612319565b6020015190505f5b84811015610ec6575f84848381518110610e4057610e406156f5565b602002602001015184610e539190615791565b610e5d91906157cf565b905080600c5f898986818110610e7557610e756156f5565b610e8b9260206040909202019081019150614ec1565b6001600160a01b03166001600160a01b031681526020019081526020015f205f828254610eb891906157a8565b909155505050600101610e24565b505050505b5050565b610ed7612a2b565b610ee033612a4f565b50610eec336001612abd565b335f908152602760205260409020600e54610f15908290600160a81b900463ffffffff16612b26565b50565b610f20614cbd565b610f2982612a4f565b506001600160a01b0382165f908152602760205260409081902081516101008101909252805482908290610f5c90615759565b80601f0160208091040260200160405190810160405280929190818152602001828054610f8890615759565b8015610fd35780601f10610faa57610100808354040283529160200191610fd3565b820191905f5260205f20905b815481529060010190602001808311610fb657829003601f168201915b505050918352505060018201546001600160a01b038116602083015263ffffffff600160a01b820481166040840152600160c01b820416606083015260809091019060ff600160e01b90910416600681111561103157611031614eda565b600681111561104257611042614eda565b81526001919091015460ff600160e81b8204811615156020840152600160f01b8204811615156040840152600160f81b9091041660609091015292915050565b61108a612a2b565b61109333612a4f565b505f61109f6003612ba6565b51600e549091505f90600f90600160c81b900460ff16600481106110c5576110c56156f5565b600302015490506110d68282612e56565b6110e1336003612abd565b335f908152602760205260409020600e54600182015463ffffffff600160a81b909204821691600160a01b9091041681101561113857604051634fadd4d360e11b815263ffffffff82166004820152602401610ab2565b61114182612e93565b50505050565b61114f612a2b565b3068929eee149b4bd21268540361116d5763ab143c065f526004601cfd5b3068929eee149b4bd212685561118281612a4f565b506001600160a01b0381165f90815260276020526040812060010154600160f81b900460ff16906111b283612eeb565b9050336001600160a01b038416148015906111d65750336001600160a01b03821614155b156111ff5760405163172b4e7560e11b81526001600160a01b0382166004820152602401610ab2565b5f61120b848385612f1a565b604080516001600160a01b0385168152602081018390529192507ffc30cddea38e2bf4d6ea7d3f9ed3b6ad7f176419f4963bd81318067a4aee73fe910160405180910390a15050503868929eee149b4bd212685550565b5f61126c83611815565b821061129d5760405163295f44f760e21b81526001600160a01b038416600482015260248101839052604401610ab2565b506001600160a01b03919091165f908152600660209081526040808320938352929052205490565b6112cd612fc1565b600a546040515f916001600160a01b03169034908381818185875af1925050503d805f8114611317576040519150601f19603f3d011682016040523d82523d5f602084013e61131c565b606091505b5050905080610f155760405162461bcd60e51b815260206004820152601460248201527324b6b837b9b9b4b136329031b7b73234ba34b7b760611b6044820152606401610ab2565b6040805160a08101825260608082525f6020830181905292820183905281018290526080810191909152600e54600160a81b900463ffffffff166113a98160026157e2565b63ffffffff168363ffffffff1611806113e9575060038163ffffffff16101580156113e957506113da6003826157fe565b63ffffffff168363ffffffff16105b1561140f57604051634fadd4d360e11b815263ffffffff84166004820152602401610ab2565b600e54600160c81b900460ff1663ffffffff82811690851611156114e257611438848383612ff4565b60408051825460c0602082028301810190935260a08201818152919392849291849184018282801561149157602002820191905f5260205f20905b81546001600160a01b03168152600190910190602001808311611473575b5050509183525050600182015460208201526002909101546001600160401b0381166040830152600160401b810463ffffffff166060830152600160601b900460ff16608090910152949350505050565b61143884838361303c565b600f81600481106114fc575f80fd5b6003020160018101546002909101549091506001600160401b03811690600160401b810463ffffffff1690600160601b900460ff1684565b61153c612fc1565b611544613093565b565b610bde83838360405180602001604052805f815250612301565b5f61156a60085490565b82106115925760405163295f44f760e21b81525f600482015260248101839052604401610ab2565b600882815481106115a5576115a56156f5565b905f5260205f2001549050919050565b601b81600481106114fc575f80fd5b5f610a87826129f3565b5f6115d7612319565b60800151905090565b60605f73__$2ef4e8110a3eaa1255da7f08f8eebcbf5a$__63a691a08b856040518263ffffffff1660e01b815260040161161a9190614e5a565b5f60405180830381865af4158015611634573d5f803e3d5ffd5b505050506040513d5f823e601f3d908101601f1916820160405261165b919081019061581a565b6040516329bd7cc960e21b815290915073__$2ef4e8110a3eaa1255da7f08f8eebcbf5a$__9063a6f5f32490611695908490600401614e5a565b602060405180830381865af41580156116b0573d5f803e3d5ffd5b505050506040513d601f19601f820116820180604052508101906116d4919061588e565b6116f1576040516333a234f960e11b815260040160405180910390fd5b6040516117159061d50160d81b908690600560fa1b90606088901b906020016158c0565b60405160208183030381529060405291505092915050565b611735612fc1565b61173e81611815565b15158061174f575061174f8161178b565b1561177857604051639fb0877960e01b81526001600160a01b0382166004820152602401610ab2565b610f15816001600160a01b0381166130e5565b5f61179e6001600160a01b038316613146565b156117aa57505f919050565b5f6001600160a01b0383165f90815260276020526040902060010154600160e01b900460ff1660068111156117e1576117e1614eda565b036117ed57505f919050565b506001600160a01b03165f90815260276020526040902060010154600160e81b900460ff1690565b5f6001600160a01b03821661183f576040516322718ad960e21b81525f6004820152602401610ab2565b506001600160a01b03165f9081526003602052604090205490565b611862612fc1565b6115445f613199565b6001600160a01b0381165f90815260276020908152604080832060010154600160f81b900460ff16808452600b9092528220546118a884826131f2565b949350505050565b336002600160a01b03146118d957604051637eb3357160e01b8152336004820152602401610ab2565b6118e3828261322b565b5f805f806119228686808060200260200160405190810160405280939291908181526020018383602002808284375f9201919091525061330292505050565b93509350935093506119358686866135bc565b5f6119406003612ba6565b805190915061194f9087612e56565b7f8b5b26231ce070df3db9dc1b8450ab40652c76bd68827c7f595414614fa18f376040518060a0016040528084815260200186815260200143600161199491906157a8565b6001600160401b0316815263ffffffff86166020820152600a54600160a01b900460ff16604091820152516119c99190615027565b60405180910390a150505050505050565b611a0760405180608001604052805f81526020015f81526020015f81526020015f63ffffffff1681525090565b50600a54600160a01b900460ff165f908152600b602090815260409182902082516080810184528154815260018201549281019290925260028101549282019290925260039091015463ffffffff16606082015290565b611a66612fc1565b61154461380c565b600f60f81b6060805f808083611ac360408051808201825260148152732a32b631b7b4b71029ba30b5b2a6b0b730b3b2b960611b602080830191909152825180840190935260018352603160f81b9083015291565b97989097965046955030945091925090565b611add612fc1565b611ae68161178b565b15611b07576006604051633ba7bf8960e11b8152600401610ab29190615909565b611b1081612a4f565b50610f158161293d565b611b22612a2b565b60608514611b43576040516333a234f960e11b815260040160405180910390fd5b5f611b51855f0151856115e0565b855160405163a691a08b60e01b81529192505f9173__$2ef4e8110a3eaa1255da7f08f8eebcbf5a$__9163a691a08b91611b8e9190600401614e5a565b5f60405180830381865af4158015611ba8573d5f803e3d5ffd5b505050506040513d5f823e601f3d908101601f19168201604052611bcf919081019061581a565b90505f73__$2ef4e8110a3eaa1255da7f08f8eebcbf5a$__633d2a9e1188602001516040518263ffffffff1660e01b8152600401611c0d9190614e5a565b5f60405180830381865af4158015611c27573d5f803e3d5ffd5b505050506040513d5f823e601f3d908101601f19168201604052611c4e919081019061581a565b604051634f98273b60e01b815290915073__$2ef4e8110a3eaa1255da7f08f8eebcbf5a$__90634f98273b90611c8c90859085908890600401615917565b602060405180830381865af4158015611ca7573d5f803e3d5ffd5b505050506040513d601f19601f82011682018060405250810190611ccb919061588e565b611d0157604080518082018252885181526020808a0151908201529051634babb8f160e01b8152610ab291908590600401615959565b5f611d0a612319565b6080015190505f611d1b3483613849565b9050611d2688612a4f565b50611d31885f612abd565b6001600160a01b0388165f908152600d6020526040808220600201549051600160a81b9091046001600160401b03169190611d6f908e908e906159a5565b60405180910390209050611d91600e546001600160a01b036101009091041690565b6001600160a01b0316336001600160a01b031614611e40575f7f9a361e91fa9aa610b5edf1d5c1cc20b9646c4228f3c004354ed2de7635dac994828c338887604051602001611de5969594939291906159b4565b6040516020818303038152906040528051906020012090505f611e0782613884565b9050611e158c828d8d61399a565b611e3d57604051633b4f6e2b60e21b81526001600160a01b038d166004820152602401610ab2565b50505b6040518060a00160405280828152602001336001600160a01b031681526020018b6001600160a01b031681526020018560ff168152602001836001611e8591906159f2565b6001600160401b039081169091526001600160a01b03808d165f908152600d60209081526040918290208551815590850151600180830180549286166001600160a01b03199093169290921790915591850151600290910180546060870151608090970151909516600160a81b0267ffffffffffffffff60a81b1960ff909716600160a01b026001600160a81b031990961692909416919091179390931793909316179055611f3b908e908e908d908888613a8b565b50505050505050505050505050565b60605f826006811115611f5f57611f5f614eda565b03611f7f5781604051633ba7bf8960e11b8152600401610ab29190615909565b610a8782612ba6565b606060018054610bf190615759565b60605f611fa383611364565b5f015190505f81516001600160401b03811115611fc257611fc26150ca565b604051908082528060200260200182016040528015611ffb57816020015b611fe8614cbd565b815260200190600190039081611fe05790505b5090505f5b81518110156120505761202b83828151811061201e5761201e6156f5565b6020026020010151610f18565b82828151811061203d5761203d6156f5565b6020908102919091010152600101612000565b509392505050565b61208560405180608001604052805f81526020015f81526020015f81526020015f63ffffffff1681525090565b5060ff165f908152600b602090815260409182902082516080810184528154815260018201549281019290925260028101549282019290925260039091015463ffffffff16606082015290565b6120da612a2b565b606082146120fb576040516333a234f960e11b815260040160405180910390fd5b5f612109825f0151336115e0565b825160405163a691a08b60e01b81529192505f9173__$2ef4e8110a3eaa1255da7f08f8eebcbf5a$__9163a691a08b916121469190600401614e5a565b5f60405180830381865af4158015612160573d5f803e3d5ffd5b505050506040513d5f823e601f3d908101601f19168201604052612187919081019061581a565b90505f73__$2ef4e8110a3eaa1255da7f08f8eebcbf5a$__633d2a9e1185602001516040518263ffffffff1660e01b81526004016121c59190614e5a565b5f60405180830381865af41580156121df573d5f803e3d5ffd5b505050506040513d5f823e601f3d908101601f19168201604052612206919081019061581a565b604051634f98273b60e01b815290915073__$2ef4e8110a3eaa1255da7f08f8eebcbf5a$__90634f98273b9061224490859085908890600401615917565b602060405180830381865af415801561225f573d5f803e3d5ffd5b505050506040513d601f19601f82011682018060405250810190612283919061588e565b6122b95760408051808201825285518152602080870151908201529051634babb8f160e01b8152610ab291908590600401615959565b5f6122c2612319565b6080015190505f6122d33483613849565b90506122de33612a4f565b506122e9335f612abd565b6122f78888335f8686613a8b565b5050505050505050565b61230c848484610c99565b6111413385858585613cec565b6040805160a08101825260608082525f6020830181905292820183905281018290526080810191909152600e5461236990600160a81b810463ffffffff16908190600160c81b900460ff1661303c565b60408051825460c0602082028301810190935260a0820181815291939284929184918401828280156123c257602002820191905f5260205f20905b81546001600160a01b031681526001909101906020018083116123a4575b5050509183525050600182015460208201526002909101546001600160401b0381166040830152600160401b810463ffffffff166060830152600160601b900460ff16608090910152919050565b5f612419612fc1565b612421612a2b565b612431608083016060840161500c565b63ffffffff165f0361246f5761244d608083016060840161500c565b604051630c6e911360e41b815263ffffffff9091166004820152602401610ab2565b5f600a601481819054906101000a900460ff1661248b90615a11565b825460ff8083166101009490940a848102910219909116179092555f908152600b6020526040902090915083906124c28282615a2f565b50909150505b919050565b60606124d8826129f3565b505f6125136124e684613e12565b6124ee613ec0565b6040516020016124ff929190615a72565b604051602081830303815290604052613f0a565b9050806040516020016125269190615b61565b604051602081830303815290604052915050919050565b5f61254783612a4f565b505f612551612319565b608001516001600160a01b0385165f908152600d602090815260408083206002015489518a8401209151949550600160a81b90046001600160401b0316939092916125c8917f9a361e91fa9aa610b5edf1d5c1cc20b9646c4228f3c004354ed2de7635dac9949185918b918b918a918a91016159b4565b6040516020818303038152906040528051906020012090506125e981613884565b9450505050505b9392505050565b6001600160a01b039182165f90815260056020908152604080832093909416825291909152205460ff1690565b61262c612a2b565b3068929eee149b4bd21268540361264a5763ab143c065f526004601cfd5b3068929eee149b4bd212685561265f81612a4f565b505f61266a82612eeb565b9050336001600160a01b0383161480159061268e5750336001600160a01b03821614155b156126b75760405163172b4e7560e11b81526001600160a01b0382166004820152602401610ab2565b6001600160a01b0382165f908152602760205260409020600190810154600160e01b900460ff16908160068111156126f1576126f1614eda565b141580156127115750600581600681111561270e5761270e614eda565b14155b156127315780604051633ba7bf8960e11b8152600401610ab29190615909565b6001600160a01b0383165f90815260276020526040902061275181613f30565b5f61276e858584600101601f9054906101000a900460ff16613f76565b604080516001600160a01b0387168152602081018390529192507ffc30cddea38e2bf4d6ea7d3f9ed3b6ad7f176419f4963bd81318067a4aee73fe910160405180910390a1505050503868929eee149b4bd212685550565b6127ce612fc1565b6001600160a01b0381166127f757604051631e4fbdf760e01b81525f6004820152602401610ab2565b610f1581613199565b60276020525f908152604090208054819061281a90615759565b80601f016020809104026020016040519081016040528092919081815260200182805461284690615759565b80156128915780601f1061286857610100808354040283529160200191612891565b820191905f5260205f20905b81548152906001019060200180831161287457829003601f168201915b505050600190930154919250506001600160a01b0381169063ffffffff600160a01b8204811691600160c01b81049091169060ff600160e01b8204811691600160e81b8104821691600160f01b8204811691600160f81b90041688565b5f6001600160e01b031982166380ac58cd60e01b148061291e57506001600160e01b03198216635b5e139f60e01b145b80610a8757506301ffc9a760e01b6001600160e01b0319831614610a87565b6001600160a01b0381165f908152600c602090815260408083208390556027909152812060018101549091600160e01b90910460ff169061297e6003612ba6565b51905061298a826140ba565b1561299d5761299a60018261571d565b90505b6129a7848261410d565b600e546129c2908490600160a81b900463ffffffff16614213565b6129cb83613f30565b5f6129d585612eeb565b9050610ec6858286600101601f9054906101000a900460ff16613f76565b5f818152600260205260408120546001600160a01b031680610a8757604051637e27328960e01b815260048101849052602401610ab2565b600e5460ff16156115445760405163d93c066560e01b815260040160405180910390fd5b5f6001600160a01b038216612a6381613146565b612a835760405163ed15e6cf60e01b815260048101829052602401610ab2565b826001600160a01b0316612a96826115c4565b6001600160a01b031614610a87576040516330fa89ab60e11b815260040160405180910390fd5b6001600160a01b0382165f90815260276020526040902060010154600160e01b900460ff16816006811115612af457612af4614eda565b816006811115612b0657612b06614eda565b14610bde5780604051633ba7bf8960e11b8152600401610ab29190615909565b612b318160016157e2565b60018301805463ffffffff92909216600160a01b0260ff60e01b191668ff00000000ffffffff60a01b1990921691909117600160e11b1790556040517fbdacb030997c2fe9d7ee41c51f5a150138c75b326c7a66f88ced12925f80bc0590612b9a908490615c11565b60405180910390a15050565b60605f612bb260085490565b6001600160401b03811115612bc957612bc96150ca565b604051908082528060200260200182016040528015612c0257816020015b612bef614cbd565b815260200190600190039081612be75790505b5090505f805b8251811015612e4d575f612c21612c1e83611560565b90565b6001600160a01b0381165f908152602760205260409020600181015491925090600160e81b900460ff1615612c57575050612e45565b5f6006886006811115612c6c57612c6c614eda565b14905080612cd6576001820154600160e01b900460ff166003896006811115612c9757612c97614eda565b03612cac57612ca5816140ba565b9150612cd4565b886006811115612cbe57612cbe614eda565b816006811115612cd057612cd0614eda565b1491505b505b8015612e415781604051806101000160405290815f82018054612cf890615759565b80601f0160208091040260200160405190810160405280929190818152602001828054612d2490615759565b8015612d6f5780601f10612d4657610100808354040283529160200191612d6f565b820191905f5260205f20905b815481529060010190602001808311612d5257829003601f168201915b505050918352505060018201546001600160a01b038116602083015263ffffffff600160a01b820481166040840152600160c01b820416606083015260809091019060ff600160e01b909104166006811115612dcd57612dcd614eda565b6006811115612dde57612dde614eda565b81526001919091015460ff600160e81b8204811615156020840152600160f01b8204811615156040840152600160f81b909104166060909101528686612e2381615cab565b975081518110612e3557612e356156f5565b60200260200101819052505b5050505b600101612c08565b50815292915050565b811580612e61575080155b80612e6b57508181115b15610ecb57604051635700689f60e11b81526004810183905260248101829052604401610ab2565b60018101805464ffffffffff60c01b19166404ffffffff60c01b1790556040517f537bf236138f80ea8801a391fffc8a42bf0be3b6ea9d336ca2e2164a4c91071c90612ee0908390615c11565b60405180910390a150565b6001600160a01b038082165f908152600d6020526040812060028101549192909116806125f057509192915050565b5f80612f26858461426c565b6001600160a01b0386165f908152600c6020526040812080549293508392909190612f5290849061571d565b9091555050600a54604051634875485760e11b81526001600160a01b03868116600483015260248201849052909116906390ea90ae906044015f604051808303815f87803b158015612fa2575f80fd5b505af1158015612fb4573d5f803e3d5ffd5b5092979650505050505050565b600e546001600160a01b036101009091041633146115445760405163118cdaa760e01b8152336004820152602401610ab2565b5f8060048361300386886157fe565b61300d9190615cc3565b6130179190615cdc565b9050601b8160ff166004811061302f5761302f6156f5565b6003020195945050505050565b5f808461304a8560046157e2565b61305491906157fe565b90505f60046130638386615cc3565b61306d9190615cdc565b9050600f8160ff1660048110613085576130856156f5565b600302019695505050505050565b61309b6142cc565b600e805460ff191690557f5db9ee0a495bf2e6ff9c91a7834c1ba4fdd244a5e8aa4e537bd38aeae4b073aa335b6040516001600160a01b03909116815260200160405180910390a1565b6001600160a01b03821661310e57604051633250574960e11b81525f6004820152602401610ab2565b5f61311a83835f6142ef565b90506001600160a01b03811615610bde576040516339e3563760e11b81525f6004820152602401610ab2565b5f81158061315b57506001600160a01b038210155b1561317c5760405163ed15e6cf60e01b815260048101839052602401610ab2565b505f908152600260205260409020546001600160a01b0316151590565b600e80546001600160a01b03838116610100818102610100600160a81b031985161790945560405193909204169182907f8be0079c531659141344cd1fd0a4f28419497f9722a3daafe3b4186f6b6457e0905f90a35050565b6001600160a01b0382165f908152600c602052604081205481838211613218575f613222565b613222848361571d565b95945050505050565b5f5b61323860018361571d565b811015610bde57828261324c8360016157a8565b81811061325b5761325b6156f5565b90506020020160208101906132709190614ec1565b6001600160a01b031683838381811061328b5761328b6156f5565b90506020020160208101906132a09190614ec1565b6001600160a01b0316106132fa578282828181106132c0576132c06156f5565b90506020020160208101906132d59190614ec1565b60405163836e3a7d60e01b81526001600160a01b039091166004820152602401610ab2565b60010161322d565b600e545f9081908190606090600160c81b900460ff16826004613326836001615cc3565b6133309190615cdc565b90505f601b8260ff1660048110613349576133496156f5565b6003020190505f6133586119da565b90506040518060a00160405280838054806020026020016040519081016040528092919081815260200182805480156133b857602002820191905f5260205f20905b81546001600160a01b0316815260019091019060200180831161339a575b50505091835250506040808401516020830152016133d74360016159f2565b6001600160401b03168152606083015163ffffffff166020820152600a5460ff600160a01b9091048116604090920191909152600f9085166004811061341f5761341f6156f5565b600302015f820151815f01908051906020019061343d929190614d00565b506020820151600182015560408201516002909101805460608401516080909401516001600160401b039093166bffffffffffffffffffffffff1990911617600160401b63ffffffff948516021760ff60601b1916600160601b60ff93841602179055600e805460ff60c81b1916600160c81b92871692909202919091178082555f926015916134d591600160a81b90910416615cfd565b91906101000a81548163ffffffff021916908363ffffffff160217905590505f60048560026135049190615cc3565b61350e9190615cdc565b90508a601b8260ff1660048110613527576135276156f5565b600302015f019080519060200190613540929190614d00565b50818360400151846060015186808054806020026020016040519081016040528092919081815260200182805480156135a057602002820191905f5260205f20905b81546001600160a01b03168152600190910190602001808311613582575b5050505050905099509950995099505050505050509193509193565b5f6135c76002612ba6565b90505f5b8151811015613629575f60275f8484815181106135ea576135ea6156f5565b6020026020010151602001516001600160a01b03166001600160a01b031681526020019081526020015f209050613620816143ba565b506001016135cb565b505f6136356004612ba6565b600e54909150600160c81b900460ff165f6004613653836001615cc3565b61365d9190615cdc565b90505f600f8360ff1660048110613676576136766156f5565b600302018054604080516020808402820181019092528281529291908301828280156136c957602002820191905f5260205f20905b81546001600160a01b031681526001909101906020018083116136ab575b505050505090505f601b8360ff16600481106136e7576136e76156f5565b6003020180546040805160208084028201810190925282815292919083018282801561373a57602002820191905f5260205f20905b81546001600160a01b0316815260019091019060200180831161371c575b505050505090505f5b8551811015613800575f86828151811061375f5761375f6156f5565b602002602001015160200151905061377781856143ff565b80613787575061378781846143ff565b806137c957506137c9818c8c808060200260200160405190810160405280939291908181526020018383602002808284375f920191909152506143ff92505050565b156137d457506137f8565b6001600160a01b0381165f9081526027602052604090206137f5818b614213565b50505b600101613743565b50505050505050505050565b613814612a2b565b600e805460ff191660011790557f62e78cea01bee320cd4e420270b5ea74000d11b0c9f74754ebdbfc544b05a2586130c83390565b60ff81165f908152600b6020526040812054831461387d5760405163222d164360e21b815260048101849052602401610ab2565b5090919050565b7f00000000000000000000000000000000000000000000000000000000000000007f000000000000000000000000000000000000000000000000000000000000000030147f00000000000000000000000000000000000000000000000000000000000000004614166139775750604080517f8b73c3c69bb8fe3d512ecc4cf759cc79239f7b179b0ffacaa9a75d522b39400f81527f000000000000000000000000000000000000000000000000000000000000000060208201527f00000000000000000000000000000000000000000000000000000000000000009181019190915246606082015230608082015260a090205b6719010000000000005f5280601a5281603a52604260182090505f603a52919050565b6001600160a01b03909316925f84156118a857604051845f5260408303613a015760208481013560ff81901c601b01825285356040526001600160ff1b0316606052600160805f825afa805187183d15176139ff57505f6060526040525060016118a8565b505b60418303613a415760408401355f1a6020526040846040376020600160805f60015afa805187183d1517613a3f57505f6060526040525060016118a8565b505b5f60605280604052631626ba7e60e01b80825285600483015260248201604081528460448401528486606485013760208160648701858b5afa905190911416915050949350505050565b5f8686604051613a9c9291906159a5565b60408051918290039091205f8181526028602052919091205490915060ff1615613ad957604051638d12779f60e01b815260040160405180910390fd5b5f818152602860209081526040808320805460ff191660011790558051610120601f8b0184900490930281018301909152610100810189815290918291908b908b90819085018382808284375f9201829052509385525050506001600160a01b038916602083015263ffffffff60408301526060820152608001600181525f602080830182905288151560408085019190915260ff89166060909401939093526001600160a01b038a1682526027905220815191925082918190613b9d9082615d5c565b5060208201516001820180546040850151606086015163ffffffff908116600160c01b0263ffffffff60c01b1991909216600160a01b026001600160c01b03199093166001600160a01b0390951694909417919091179283168117825560808501519260ff60e01b1990911664ffffffffff60c01b1990911617600160e01b836006811115613c2e57613c2e614eda565b021790555060a08201516001909101805460c084015160e09094015160ff16600160f81b026001600160f81b03941515600160f01b0260ff60f01b19941515600160e81b029490941661ffff60e81b199092169190911792909217929092161790556001600160a01b0386165f908152600c602052604090819020849055517f7d89246e6daeb7529685fda2e1f478d9a155eea08675ebecd1bf8c0e572382fd90613cda908390614faf565b60405180910390a15050505050505050565b6001600160a01b0383163b15613e0b57604051630a85bd0160e11b81526001600160a01b0384169063150b7a0290613d2e908890889087908790600401615e16565b6020604051808303815f875af1925050508015613d68575060408051601f3d908101601f19168201909252613d6591810190615e48565b60015b613dcf573d808015613d95576040519150601f19603f3d011682016040523d82523d5f602084013e613d9a565b606091505b5080515f03613dc757604051633250574960e11b81526001600160a01b0385166004820152602401610ab2565b805181602001fd5b6001600160e01b03198116630a85bd0160e11b14610ec657604051633250574960e11b81526001600160a01b0385166004820152602401610ab2565b5050505050565b60605f613e1e8361445c565b6028602282012090915060601c60295b6001811115613eb757600782600f16118015613e6357506060838281518110613e5957613e596156f5565b016020015160f81c115b15613ea057602060f81b838281518110613e7f57613e7f6156f5565b0160200180516001600160f81b0319908116909218909116905f82901a9053505b60049190911c90613eb081615e63565b9050613e2e565b50909392505050565b6060613ee66040518061052001604052806104ed8152602001615ebe6104ed9139613f0a565b604051602001613ef69190615e78565b604051602081830303815290604052905090565b6060610a87826040518060600160405280604081526020016163ab604091396001614472565b60018101805461ffff60e01b1916608360e11b1790556040517fb9e0e3d06d30a4b0476d42accfa2ee90a854c961cc7f10ddc965608a97b982b190612ee0908390615c11565b60ff81165f908152600b602052604081205481613f9386836131f2565b6001600160a01b0387165f818152600c602052604081208054919055919250613fbb906145ec565b6008545f03613fdd576040516315ae672760e01b815260040160405180910390fd5b5f838210613fec57508261404a565b50600a5481905f906001600160a01b0316614007838761571d565b6040515f81818185875af1925050503d805f8114614040576040519150601f19603f3d011682016040523d82523d5f602084013e614045565b606091505b505050505b600a54604051634875485760e11b81526001600160a01b03898116600483015260248201869052909116906390ea90ae9083906044015f604051808303818588803b158015614097575f80fd5b505af11580156140a9573d5f803e3d5ffd5b505050505082816125e991906157a8565b5f60038260068111156140cf576140cf614eda565b14806140ec575060048260068111156140ea576140ea614eda565b145b80610a875750600282600681111561410657614106614eda565b1492915050565b600e54600160a81b810463ffffffff1690600160c81b900460ff165f61413483808461303c565b90505f6141418287614624565b90505f8161415057825461415e565b825461415e9060019061571d565b905061416a8682612e56565b5f6141768660016157e2565b90505f614184828888612ff4565b9050614190818a614624565b93508361419e5780546141ac565b80546141ac9060019061571d565b92506141b88884612e56565b5f6141c48860026157e2565b90505f6141d2828a8a612ff4565b90506141de818c614624565b9550856141ec5780546141fa565b80546141fa9060019061571d565b94506142068a86612e56565b5050505050505050505050565b60018201805463ffffffff8316600160c01b0264ffffffffff60c01b1990911617600560e01b1790556040517f69cb3a026a27d868ccc41f8a2a5e4b59396939b736cf54a110052c9983e8378d90612b9a908490615c11565b60ff81165f908152600b60205260408120548161428985836131f2565b90508015806142ab575060ff84165f908152600b602052604090206001015481105b156118a857604051633737b70960e11b815260048101829052602401610ab2565b600e5460ff1661154457604051638dfc202b60e01b815260040160405180910390fd5b5f806142fc85858561471f565b90506001600160a01b0381166143585761435384600880545f838152600960205260408120829055600182018355919091527ff3f7a9fe364faab93b216da50a3214154f22a0a2b415b23a84c8169e8b636ee30155565b61437b565b846001600160a01b0316816001600160a01b03161461437b5761437b8185614811565b6001600160a01b038516614397576143928461488e565b6118a8565b846001600160a01b0316816001600160a01b0316146118a8576118a88585614935565b60018101805460ff60e01b1916600360e01b1790556040517f31845bad1fcdd92490e8d85605449863a562ea940e37b380a276e440683fdb7290612ee0908390615c11565b80515f90815b8181101561445257846001600160a01b0316848281518110614429576144296156f5565b60200260200101516001600160a01b03160361444a57600192505050610a87565b600101614405565b505f949350505050565b6060610a876001600160a01b0383166014614983565b606083515f03614490575060408051602081019091525f81526125f0565b5f826144c0576003855160046144a69190615791565b6144b19060026157a8565b6144bb91906157cf565b6144e5565b6003855160026144d091906157a8565b6144da91906157cf565b6144e5906004615791565b90505f816001600160401b03811115614500576145006150ca565b6040519080825280601f01601f19166020018201604052801561452a576020820181803683370190505b509050600185016020820187885189016020810180515f82525b8284101561459f576003840193508351603f8160121c168701518653600186019550603f81600c1c168701518653600186019550603f8160061c168701518653600186019550603f8116870151865350600185019450614544565b9052505085156145e0576003885106600181146145c357600281146145d6576145de565b603d6001830353603d60028303536145de565b603d60018303535b505b50909695505050505050565b5f6145f85f835f6142ef565b90506001600160a01b038116610ecb57604051637e27328960e01b815260048101839052602401610ab2565b81545f90815b8181101561445257836001600160a01b031685828154811061464e5761464e6156f5565b5f918252602090912001546001600160a01b031603614717578461467360018461571d565b81548110614683576146836156f5565b905f5260205f20015f9054906101000a90046001600160a01b03168582815481106146b0576146b06156f5565b905f5260205f20015f6101000a8154816001600160a01b0302191690836001600160a01b03160217905550848054806146eb576146eb615ea9565b5f8281526020902081015f1990810180546001600160a01b03191690550190555060019150610a879050565b60010161462a565b5f828152600260205260408120546001600160a01b039081169083161561474b5761474b818486614af4565b6001600160a01b03811615614785576147665f855f80614b58565b6001600160a01b0381165f90815260036020526040902080545f190190555b6001600160a01b038516156147b3576001600160a01b0385165f908152600360205260409020805460010190555b5f8481526002602052604080822080546001600160a01b0319166001600160a01b0389811691821790925591518793918516917fddf252ad1be2c89b69c2b068fc378daa952ba7f163c4a11628f55a4df523b3ef91a4949350505050565b5f61481b83611815565b5f838152600760209081526040808320546001600160a01b0388168452600690925290912091925090818314614870575f83815260208281526040808320548584528184208190558352600790915290208290555b5f938452600760209081526040808620869055938552525081205550565b6008545f9061489f9060019061571d565b5f83815260096020526040812054600880549394509092849081106148c6576148c66156f5565b905f5260205f200154905080600883815481106148e5576148e56156f5565b5f91825260208083209091019290925582815260099091526040808220849055858252812055600880548061491c5761491c615ea9565b600190038181905f5260205f20015f9055905550505050565b5f600161494184611815565b61494b919061571d565b6001600160a01b039093165f908152600660209081526040808320868452825280832085905593825260079052919091209190915550565b6060825f614992846002615791565b61499d9060026157a8565b6001600160401b038111156149b4576149b46150ca565b6040519080825280601f01601f1916602001820160405280156149de576020820181803683370190505b509050600360fc1b815f815181106149f8576149f86156f5565b60200101906001600160f81b03191690815f1a905350600f60fb1b81600181518110614a2657614a266156f5565b60200101906001600160f81b03191690815f1a9053505f614a48856002615791565b614a539060016157a8565b90505b6001811115614aca576f181899199a1a9b1b9c1cb0b131b232b360811b83600f1660108110614a8757614a876156f5565b1a60f81b828281518110614a9d57614a9d6156f5565b60200101906001600160f81b03191690815f1a90535060049290921c91614ac381615e63565b9050614a56565b5081156118a85760405163e22e27eb60e01b81526004810186905260248101859052604401610ab2565b614aff838383614c5c565b610bde576001600160a01b038316614b2d57604051637e27328960e01b815260048101829052602401610ab2565b60405163177e802f60e01b81526001600160a01b038316600482015260248101829052604401610ab2565b8080614b6c57506001600160a01b03821615155b15614c2d575f614b7b846129f3565b90506001600160a01b03831615801590614ba75750826001600160a01b0316816001600160a01b031614155b8015614bba5750614bb881846125f7565b155b15614be35760405163a9fbf51f60e01b81526001600160a01b0384166004820152602401610ab2565b8115614c2b5783856001600160a01b0316826001600160a01b03167f8c5be1e5ebec7d5bd14f71427d1e84f3dd0314c0f7b2291e5b200ac8c7c3b92560405160405180910390a45b505b50505f90815260046020526040902080546001600160a01b0319166001600160a01b0392909216919091179055565b5f6001600160a01b038316158015906118a85750826001600160a01b0316846001600160a01b03161480614c955750614c9584846125f7565b806118a85750505f908152600460205260409020546001600160a01b03908116911614919050565b604080516101008101825260608082525f60208301819052928201839052810182905290608082019081525f602082018190526040820181905260609091015290565b828054828255905f5260205f20908101928215614d53579160200282015b82811115614d5357825182546001600160a01b0319166001600160a01b03909116178255602090920191600190910190614d1e565b50614d5f929150614d63565b5090565b5b80821115614d5f575f8155600101614d64565b6001600160e01b031981168114610f15575f80fd5b5f60208284031215614d9c575f80fd5b81356125f081614d77565b5f8083601f840112614db7575f80fd5b5081356001600160401b03811115614dcd575f80fd5b6020830191508360208260061b8501011115614de7575f80fd5b9250929050565b5f8060208385031215614dff575f80fd5b82356001600160401b03811115614e14575f80fd5b614e2085828601614da7565b90969095509350505050565b5f81518084528060208401602086015e5f602082860101526020601f19601f83011685010191505092915050565b602081525f6125f06020830184614e2c565b5f60208284031215614e7c575f80fd5b5035919050565b80356001600160a01b03811681146124c8575f80fd5b5f8060408385031215614eaa575f80fd5b614eb383614e83565b946020939093013593505050565b5f60208284031215614ed1575f80fd5b6125f082614e83565b634e487b7160e01b5f52602160045260245ffd5b60078110614f0a57634e487b7160e01b5f52602160045260245ffd5b9052565b5f81516101008452614f24610100850182614e2c565b905060018060a01b03602084015116602085015263ffffffff60408401511660408501526060830151614f5f606086018263ffffffff169052565b506080830151614f726080860182614eee565b5060a0830151614f8660a086018215159052565b5060c0830151614f9a60c086018215159052565b5060e083015161205060e086018260ff169052565b602081525f6125f06020830184614f0e565b5f805f60608486031215614fd3575f80fd5b614fdc84614e83565b9250614fea60208501614e83565b929592945050506040919091013590565b63ffffffff81168114610f15575f80fd5b5f6020828403121561501c575f80fd5b81356125f081614ffb565b6020808252825160a083830152805160c084018190525f929190910190829060e08501905b808310156150775783516001600160a01b03168252602093840193600193909301929091019061504c565b50602086015160408601526040860151925061509e60608601846001600160401b03169052565b606086015163ffffffff811660808701529250608086015160ff811660a0870152925095945050505050565b634e487b7160e01b5f52604160045260245ffd5b604051601f8201601f191681016001600160401b0381118282101715615106576151066150ca565b604052919050565b5f6001600160401b03821115615126576151266150ca565b50601f01601f191660200190565b5f82601f830112615143575f80fd5b81356151566151518261510e565b6150de565b81815284602083860101111561516a575f80fd5b816020850160208301375f918101602001919091529392505050565b5f8060408385031215615197575f80fd5b82356001600160401b038111156151ac575f80fd5b6151b885828601615134565b9250506151c760208401614e83565b90509250929050565b5f80602083850312156151e1575f80fd5b82356001600160401b038111156151f6575f80fd5b8301601f81018513615206575f80fd5b80356001600160401b0381111561521b575f80fd5b8560208260051b840101111561522f575f80fd5b6020919091019590945092505050565b60ff60f81b8816815260e060208201525f61525d60e0830189614e2c565b828103604084015261526f8189614e2c565b606084018890526001600160a01b038716608085015260a0840186905283810360c0850152845180825260208087019350909101905f5b818110156152c45783518352602093840193909201916001016152a6565b50909b9a5050505050505050505050565b5f8083601f8401126152e5575f80fd5b5081356001600160401b038111156152fb575f80fd5b602083019150836020828501011115614de7575f80fd5b5f60408284031215615322575f80fd5b604080519081016001600160401b0381118282101715615344576153446150ca565b60405290508082356001600160401b0381111561535f575f80fd5b61536b85828601615134565b82525060208301356001600160401b03811115615386575f80fd5b61539285828601615134565b6020830152505092915050565b5f805f805f80608087890312156153b4575f80fd5b86356001600160401b038111156153c9575f80fd5b6153d589828a016152d5565b90975095505060208701356001600160401b038111156153f3575f80fd5b6153ff89828a01615312565b94505061540e60408801614e83565b925060608701356001600160401b03811115615428575f80fd5b61543489828a016152d5565b979a9699509497509295939492505050565b5f60208284031215615456575f80fd5b8135600781106125f0575f80fd5b5f602082016020835280845180835260408501915060408160051b8601019250602086015f5b828110156154bb57603f198786030184526154a6858351614f0e565b9450602093840193919091019060010161548a565b50929695505050505050565b8015158114610f15575f80fd5b5f80604083850312156154e5575f80fd5b6154ee83614e83565b915060208301356154fe816154c7565b809150509250929050565b5f60208284031215615519575f80fd5b813560ff811681146125f0575f80fd5b5f805f6040848603121561553b575f80fd5b83356001600160401b03811115615550575f80fd5b61555c868287016152d5565b90945092505060208401356001600160401b0381111561557a575f80fd5b61558686828701615312565b9150509250925092565b5f805f80608085870312156155a3575f80fd5b6155ac85614e83565b93506155ba60208601614e83565b92506040850135915060608501356001600160401b038111156155db575f80fd5b6155e787828801615134565b91505092959194509250565b5f6080828403128015615604575f80fd5b509092915050565b5f805f6060848603121561561e575f80fd5b83356001600160401b03811115615633575f80fd5b61563f86828701615134565b93505061564e60208501614e83565b915061565c60408501614e83565b90509250925092565b5f8060408385031215615676575f80fd5b61567f83614e83565b91506151c760208401614e83565b61010081525f6156a161010083018b614e2c565b6001600160a01b038a16602084015263ffffffff89811660408501528816606084015290506156d36080830187614eee565b93151560a082015291151560c083015260ff1660e09091015295945050505050565b634e487b7160e01b5f52603260045260245ffd5b634e487b7160e01b5f52601160045260245ffd5b81810381811115610a8757610a87615709565b604081016001600160a01b0361574584614e83565b168252602092830135929091019190915290565b600181811c9082168061576d57607f821691505b60208210810361578b57634e487b7160e01b5f52602260045260245ffd5b50919050565b8082028115828204841417610a8757610a87615709565b80820180821115610a8757610a87615709565b634e487b7160e01b5f52601260045260245ffd5b5f826157dd576157dd6157bb565b500490565b63ffffffff8181168382160190811115610a8757610a87615709565b63ffffffff8281168282160390811115610a8757610a87615709565b5f6020828403121561582a575f80fd5b81516001600160401b0381111561583f575f80fd5b8201601f8101841361584f575f80fd5b805161585d6151518261510e565b818152856020838501011115615871575f80fd5b8160208401602083015e5f91810160200191909152949350505050565b5f6020828403121561589e575f80fd5b81516125f0816154c7565b5f81518060208401855e5f93019283525090919050565b6001600160d81b0319851681525f6158db60058301866158a9565b6001600160f81b031994909416845250506bffffffffffffffffffffffff1916600182015260150192915050565b60208101610a878284614eee565b606081525f6159296060830186614e2c565b828103602084015261593b8186614e2c565b9050828103604084015261594f8185614e2c565b9695505050505050565b604081525f83516040808401526159736080840182614e2c565b90506020850151603f198483030160608501526159908282614e2c565b91505082810360208401526132228185614e2c565b818382375f9101908152919050565b95865260208601949094526001600160a01b0392831660408601529116606084015260ff1660808301526001600160401b031660a082015260c00190565b6001600160401b038181168382160190811115610a8757610a87615709565b5f60ff821660ff8103615a2657615a26615709565b60010192915050565b813581556020820135600182015560408201356002820155600381016060830135615a5981614ffb565b815463ffffffff191663ffffffff919091161790555050565b7f7b226e616d65223a202254656c636f696e2d4e6574776f726b20436f6e73656e8152651cdd5cd3919560d21b60208201525f615ab260268301856158a9565b7f222c20226465736372697074696f6e223a2022455243373231204e465420776881527f6f7365206f776e657273686970206c656467657220726570726573656e74732060208201527f746865207065726d697373696f6e65642077686974656c69737420666f72207660408201527530b634b230ba37b9399116101134b6b0b3b2911d101160511b6060820152615b4d60768201856158a9565b61227d60f01b815260020195945050505050565b7f646174613a6170706c69636174696f6e2f6a736f6e3b6261736536342c00000081525f6125f0601d8301846158a9565b5f8154615b9e81615759565b808552600182168015615bb85760018114615bd457615c08565b60ff1983166020870152602082151560051b8701019350615c08565b845f5260205f205f5b83811015615bff5781546020828a010152600182019150602081019050615bdd565b87016020019450505b50505092915050565b6020815261010060208201525f615c2c610120830184615b92565b60018401546001600160a01b038116604085015260a081901c63ffffffff16606085015260c081901c63ffffffff166080850152615c7360a0850160ff8360e01c16614eee565b615c8760c0850160ff8360e81c1615159052565b615c9b60e0850160ff8360f01c1615159052565b60f881901c610100850152612050565b5f60018201615cbc57615cbc615709565b5060010190565b60ff8181168382160190811115610a8757610a87615709565b5f60ff831680615cee57615cee6157bb565b8060ff84160691505092915050565b5f63ffffffff821663ffffffff8103615a2657615a26615709565b601f821115610bde57805f5260205f20601f840160051c81016020851015615d3d5750805b601f840160051c820191505b81811015613e0b575f8155600101615d49565b81516001600160401b03811115615d7557615d756150ca565b615d8981615d838454615759565b84615d18565b6020601f821160018114615dbb575f8315615da45750848201515b5f19600385901b1c1916600184901b178455613e0b565b5f84815260208120601f198516915b82811015615dea5787850151825560209485019460019092019101615dca565b5084821015615e0757868401515f19600387901b60f8161c191681555b50505050600190811b01905550565b6001600160a01b03858116825284166020820152604081018390526080606082018190525f9061594f90830184614e2c565b5f60208284031215615e58575f80fd5b81516125f081614d77565b5f81615e7157615e71615709565b505f190190565b7f646174613a696d6167652f7376672b786d6c3b6261736536342c00000000000081525f6125f0601a8301846158a9565b634e487b7160e01b5f52603160045260245ffdfe3c7376672077696474683d22373922206865696768743d223830222076696577426f783d22302030203739203830222066696c6c3d226e6f6e652220786d6c6e733d22687474703a2f2f7777772e77332e6f72672f323030302f737667223e203c6d61736b2069643d226d61736b305f3834395f3334313722207374796c653d226d61736b2d747970653a616c70686122206d61736b556e6974733d227573657253706163654f6e5573652220783d22302220793d2230222077696474683d22373922206865696768743d223830223e203c726563742077696474683d2237382e30303522206865696768743d223830222066696c6c3d2223433443344334222f3e203c2f6d61736b3e203c67206d61736b3d2275726c28236d61736b305f3834395f3334313729223e203c7265637420783d2231372e393534362220793d2231382e33353435222077696474683d2234322e3239343322206865696768743d2234332e32393138222066696c6c3d227768697465222f3e203c7061746820643d224d37342e323336392032312e393839324337362e363930382032342e303331352037382e323338392032382e323537372037372e363937392033312e333733334c37322e343136362036312e333235334337312e3836362036342e343437352036382e393539322036372e383739382036352e393632392036382e393631324c33372e313934372037392e333334344333342e313938342038302e343135372032392e373432312037392e363239392032372e323936342037372e3538394c332e3831312035382e3030323143312e33353730382035352e39353938202d302e31393233382035312e3734313720302e3335383134382034382e363139354c352e36333935312031382e3636373443362e31393030342031352e3534353220392e30393638372031322e313132392031322e303933322031312e303331364c34302e3835393920302e3636363435334334332e38353632202d302e3431343835372034382e3331323520302e3337303930392035302e3735383320322e343131384c37342e323336392032312e393839325a4d34392e373634352033352e343336394c35302e393336342032392e333531334c33392e393531372032392e333638374c34312e3531362032312e333432344c33372e393538332032312e333432344333372e393538332032312e333432342033342e363332382032372e323930312032372e333030362033302e323031394c32362e323839392033352e343530334c33312e303933362033352e34364333312e303933362033352e34362032392e343637342034332e303032392032382e393331362034352e373835344332372e353637372035322e383638322033302e393830362035372e383933392033362e323238312035372e383933394333382e383630362035372e383933392034312e3831372035372e383933392034352e303937322035372e383933394c34362e363532342035312e313636364334362e323734322035312e313636362034332e383031332035312e313636362033392e323333362035312e313636364333352e393336342035312e313636362033362e313039392034392e333138392033362e373433312034362e303330354c33382e373833382033352e343333334c34392e373634352033352e343336395a222066696c6c3d2223313443384646222f3e203c2f673e203c2f7376673e4142434445464748494a4b4c4d4e4f505152535455565758595a6162636465666768696a6b6c6d6e6f707172737475767778797a303132333435363738392b2fa164736f6c634300081a000a60a0604052348015600e575f80fd5b506040516102d73803806102d7833981016040819052602b91603b565b6001600160a01b03166080526066565b5f60208284031215604a575f80fd5b81516001600160a01b0381168114605f575f80fd5b9392505050565b60805161024861008f5f395f8181603001528181606c0152818160bd015260f901526102485ff3fe608060405260043610610020575f3560e01c806390ea90ae146100a4575f80fd5b366100a057336001600160a01b037f0000000000000000000000000000000000000000000000000000000000000000161461009e57604051632439f07560e21b81526001600160a01b037f00000000000000000000000000000000000000000000000000000000000000001660048201526024015b60405180910390fd5b005b5f80fd5b61009e6100b23660046101e1565b336001600160a01b037f0000000000000000000000000000000000000000000000000000000000000000161461012657604051632439f07560e21b81526001600160a01b037f0000000000000000000000000000000000000000000000000000000000000000166004820152602401610095565b475f6101323484610216565b90508082101561015f5760405163cf47918160e01b81526004810183905260248101829052604401610095565b5f846001600160a01b0316826040515f6040518083038185875af1925050503d805f81146101a8576040519150601f19603f3d011682016040523d82523d5f602084013e6101ad565b606091505b50509050806101da57604051630d623c2560e01b81526001600160a01b0386166004820152602401610095565b5050505050565b5f80604083850312156101f2575f80fd5b82356001600160a01b0381168114610208575f80fd5b946020939093013593505050565b8082018082111561023557634e487b7160e01b5f52601160045260245ffd5b9291505056fea164736f6c634300081a000a",
    "linkReferences": {
      "src/consensus/BlsG1.sol": {
        "BlsG1": [
          {
            "start": 914,
            "length": 20
          },
          {
            "start": 1065,
            "length": 20
          },
          {
            "start": 1230,
            "length": 20
          },
          {
            "start": 2598,
            "length": 20
          },
          {
            "start": 2734,
            "length": 20
          },
          {
            "start": 12284,
            "length": 20
          },
          {
            "start": 12420,
            "length": 20
          },
          {
            "start": 13694,
            "length": 20
          },
          {
            "start": 13803,
            "length": 20
          },
          {
            "start": 13943,
            "length": 20
          },
          {
            "start": 15158,
            "length": 20
          },
          {
            "start": 15267,
            "length": 20
          },
          {
            "start": 15407,
            "length": 20
          }
        ]
      }
    }
  },
  "methodIdentifiers": {
    "SYSTEM_ADDRESS()": "3434735f",
    "activate()": "0f15f4c0",
    "allocateIssuance()": "355811a7",
    "applyIncentives((address,uint256)[])": "0a36cdef",
    "applySlashes((address,uint256)[])": "02ae337b",
    "approve(address,uint256)": "095ea7b3",
    "balanceOf(address)": "70a08231",
    "beginExit()": "2228dfa0",
    "burn(address)": "89afcb44",
    "claimStakeRewards(address)": "2b9f4985",
    "concludeEpoch(address[])": "7b55a300",
    "delegateStake(bytes,(bytes,bytes),address,bytes)": "8bb43f3a",
    "delegationDigest(bytes,address,address)": "e3716d04",
    "eip712Domain()": "84b0196e",
    "epochInfo(uint256)": "3894228e",
    "futureEpochInfo(uint256)": "59ca93b6",
    "getApproved(uint256)": "081812fc",
    "getBalance(address)": "f8b2cb4f",
    "getCommitteeValidators(uint32)": "a0201be5",
    "getCurrentEpoch()": "b97dd9e2",
    "getCurrentEpochInfo()": "babc394f",
    "getCurrentStakeConfig()": "7d06fdf8",
    "getCurrentStakeVersion()": "67398331",
    "getEpochInfo(uint32)": "374ed18c",
    "getRewards(address)": "79ee54f7",
    "getValidator(address)": "1904bb2e",
    "getValidators(uint8)": "8cc05eda",
    "isApprovedForAll(address,address)": "e985e9c5",
    "isRetired(address)": "6d3c6275",
    "issuance()": "863623bb",
    "mint(address)": "6a627842",
    "name()": "06fdde03",
    "owner()": "8da5cb5b",
    "ownerOf(uint256)": "6352211e",
    "pause()": "8456cb59",
    "paused()": "5c975abb",
    "proofOfPossessionMessage(bytes,address)": "6850eb31",
    "renounceOwnership()": "715018a6",
    "safeTransferFrom(address,address,uint256)": "42842e0e",
    "safeTransferFrom(address,address,uint256,bytes)": "b88d4fde",
    "setApprovalForAll(address,bool)": "a22cb465",
    "stake(bytes,(bytes,bytes))": "b5184324",
    "stakeConfig(uint8)": "a71954ec",
    "supportsInterface(bytes4)": "01ffc9a7",
    "symbol()": "95d89b41",
    "tokenByIndex(uint256)": "4f6ccce7",
    "tokenOfOwnerByIndex(address,uint256)": "2f745c59",
    "tokenURI(uint256)": "c87b56dd",
    "totalSupply()": "18160ddd",
    "transferFrom(address,address,uint256)": "23b872dd",
    "transferOwnership(address)": "f2fde38b",
    "unpause()": "3f4ba83a",
    "unstake(address)": "f2888dbb",
    "upgradeStakeVersion((uint256,uint256,uint256,uint32))": "c05df7ac",
    "validators(address)": "fa52c7d8"
  },
  "id": 226
}