{"abi":[{"type":"constructor","inputs":[{"name":"genesisConfig_","type":"tuple","internalType":"struct IStakeManager.StakeConfig","components":[{"name":"stakeAmount","type":"uint256","internalType":"uint256"},{"name":"minWithdrawAmount","type":"uint256","internalType":"uint256"},{"name":"epochIssuance","type":"uint256","internalType":"uint256"},{"name":"epochDuration","type":"uint32","internalType":"uint32"}]},{"name":"initialValidators_","type":"tuple[]","internalType":"struct IConsensusRegistry.ValidatorInfo[]","components":[{"name":"validatorAddress","type":"address","internalType":"address"},{"name":"activationEpoch","type":"uint32","internalType":"uint32"},{"name":"exitEpoch","type":"uint32","internalType":"uint32"},{"name":"currentStatus","type":"uint8","internalType":"enum IConsensusRegistry.ValidatorStatus"},{"name":"isRetired","type":"bool","internalType":"bool"},{"name":"stakeVersion","type":"uint8","internalType":"uint8"},{"name":"region","type":"uint8","internalType":"uint8"}]},{"name":"blsPubkeys_","type":"bytes[]","internalType":"bytes[]"},{"name":"proofsOfPossession","type":"tuple[]","internalType":"struct BlsG1.ProofOfPossession[]","components":[{"name":"uncompressedPubkey","type":"bytes","internalType":"bytes"},{"name":"uncompressedSignature","type":"bytes","internalType":"bytes"}]},{"name":"owner_","type":"address","internalType":"address"}],"stateMutability":"nonpayable"},{"type":"function","name":"SYSTEM_ADDRESS","inputs":[],"outputs":[{"name":"","type":"address","internalType":"address"}],"stateMutability":"view"},{"type":"function","name":"activate","inputs":[],"outputs":[],"stateMutability":"nonpayable"},{"type":"function","name":"allocateIssuance","inputs":[],"outputs":[],"stateMutability":"payable"},{"type":"function","name":"applyIncentives","inputs":[{"name":"rewardInfos","type":"tuple[]","internalType":"struct RewardInfo[]","components":[{"name":"validatorAddress","type":"address","internalType":"address"},{"name":"consensusHeaderCount","type":"uint256","internalType":"uint256"}]}],"outputs":[],"stateMutability":"nonpayable"},{"type":"function","name":"applySlashes","inputs":[{"name":"slashes","type":"tuple[]","internalType":"struct Slash[]","components":[{"name":"validatorAddress","type":"address","internalType":"address"},{"name":"amount","type":"uint256","internalType":"uint256"}]}],"outputs":[],"stateMutability":"nonpayable"},{"type":"function","name":"approve","inputs":[{"name":"","type":"address","internalType":"address"},{"name":"","type":"uint256","internalType":"uint256"}],"outputs":[],"stateMutability":"nonpayable"},{"type":"function","name":"balanceOf","inputs":[{"name":"owner","type":"address","internalType":"address"}],"outputs":[{"name":"","type":"uint256","internalType":"uint256"}],"stateMutability":"view"},{"type":"function","name":"beginExit","inputs":[],"outputs":[],"stateMutability":"nonpayable"},{"type":"function","name":"burn","inputs":[{"name":"validatorAddress","type":"address","internalType":"address"}],"outputs":[],"stateMutability":"nonpayable"},{"type":"function","name":"claimStakeRewards","inputs":[{"name":"validatorAddress","type":"address","internalType":"address"}],"outputs":[],"stateMutability":"nonpayable"},{"type":"function","name":"concludeEpoch","inputs":[{"name":"futureCommittee","type":"address[]","internalType":"address[]"}],"outputs":[],"stateMutability":"nonpayable"},{"type":"function","name":"delegateStake","inputs":[{"name":"blsPubkey","type":"bytes","internalType":"bytes"},{"name":"proofOfPossession","type":"tuple","internalType":"struct BlsG1.ProofOfPossession","components":[{"name":"uncompressedPubkey","type":"bytes","internalType":"bytes"},{"name":"uncompressedSignature","type":"bytes","internalType":"bytes"}]},{"name":"validatorAddress","type":"address","internalType":"address"},{"name":"validatorEIP712Signature","type":"bytes","internalType":"bytes"}],"outputs":[],"stateMutability":"payable"},{"type":"function","name":"delegationDigest","inputs":[{"name":"blsPubkey","type":"bytes","internalType":"bytes"},{"name":"validatorAddress","type":"address","internalType":"address"},{"name":"delegator","type":"address","internalType":"address"}],"outputs":[{"name":"","type":"bytes32","internalType":"bytes32"}],"stateMutability":"view"},{"type":"function","name":"eip712Domain","inputs":[],"outputs":[{"name":"fields","type":"bytes1","internalType":"bytes1"},{"name":"name","type":"string","internalType":"string"},{"name":"version","type":"string","internalType":"string"},{"name":"chainId","type":"uint256","internalType":"uint256"},{"name":"verifyingContract","type":"address","internalType":"address"},{"name":"salt","type":"bytes32","internalType":"bytes32"},{"name":"extensions","type":"uint256[]","internalType":"uint256[]"}],"stateMutability":"view"},{"type":"function","name":"epochInfo","inputs":[{"name":"","type":"uint256","internalType":"uint256"}],"outputs":[{"name":"epochIssuance","type":"uint256","internalType":"uint256"},{"name":"blockHeight","type":"uint64","internalType":"uint64"},{"name":"epochId","type":"uint32","internalType":"uint32"},{"name":"epochDuration","type":"uint32","internalType":"uint32"},{"name":"stakeVersion","type":"uint8","internalType":"uint8"}],"stateMutability":"view"},{"type":"function","name":"futureEpochInfo","inputs":[{"name":"","type":"uint256","internalType":"uint256"}],"outputs":[{"name":"epochIssuance","type":"uint256","internalType":"uint256"},{"name":"blockHeight","type":"uint64","internalType":"uint64"},{"name":"epochId","type":"uint32","internalType":"uint32"},{"name":"epochDuration","type":"uint32","internalType":"uint32"},{"name":"stakeVersion","type":"uint8","internalType":"uint8"}],"stateMutability":"view"},{"type":"function","name":"getApproved","inputs":[{"name":"tokenId","type":"uint256","internalType":"uint256"}],"outputs":[{"name":"","type":"address","internalType":"address"}],"stateMutability":"view"},{"type":"function","name":"getBalanceBreakdown","inputs":[{"name":"validatorAddress","type":"address","internalType":"address"}],"outputs":[{"name":"","type":"uint256","internalType":"uint256"},{"name":"","type":"uint256","internalType":"uint256"},{"name":"","type":"uint256","internalType":"uint256"}],"stateMutability":"view"},{"type":"function","name":"getBlsPubkey","inputs":[{"name":"validatorAddress","type":"address","internalType":"address"}],"outputs":[{"name":"","type":"bytes","internalType":"bytes"}],"stateMutability":"view"},{"type":"function","name":"getCommitteeBlsPubkeys","inputs":[{"name":"epoch","type":"uint32","internalType":"uint32"}],"outputs":[{"name":"","type":"bytes[]","internalType":"bytes[]"}],"stateMutability":"view"},{"type":"function","name":"getCommitteeValidators","inputs":[{"name":"epoch","type":"uint32","internalType":"uint32"}],"outputs":[{"name":"","type":"tuple[]","internalType":"struct IConsensusRegistry.ValidatorInfo[]","components":[{"name":"validatorAddress","type":"address","internalType":"address"},{"name":"activationEpoch","type":"uint32","internalType":"uint32"},{"name":"exitEpoch","type":"uint32","internalType":"uint32"},{"name":"currentStatus","type":"uint8","internalType":"enum IConsensusRegistry.ValidatorStatus"},{"name":"isRetired","type":"bool","internalType":"bool"},{"name":"stakeVersion","type":"uint8","internalType":"uint8"},{"name":"region","type":"uint8","internalType":"uint8"}]}],"stateMutability":"view"},{"type":"function","name":"getCurrentEpoch","inputs":[],"outputs":[{"name":"","type":"uint32","internalType":"uint32"}],"stateMutability":"view"},{"type":"function","name":"getCurrentEpochInfo","inputs":[],"outputs":[{"name":"","type":"tuple","internalType":"struct IConsensusRegistry.EpochInfo","components":[{"name":"committee","type":"address[]","internalType":"address[]"},{"name":"epochIssuance","type":"uint256","internalType":"uint256"},{"name":"blockHeight","type":"uint64","internalType":"uint64"},{"name":"epochId","type":"uint32","internalType":"uint32"},{"name":"epochDuration","type":"uint32","internalType":"uint32"},{"name":"stakeVersion","type":"uint8","internalType":"uint8"}]}],"stateMutability":"view"},{"type":"function","name":"getCurrentStakeConfig","inputs":[],"outputs":[{"name":"","type":"tuple","internalType":"struct IStakeManager.StakeConfig","components":[{"name":"stakeAmount","type":"uint256","internalType":"uint256"},{"name":"minWithdrawAmount","type":"uint256","internalType":"uint256"},{"name":"epochIssuance","type":"uint256","internalType":"uint256"},{"name":"epochDuration","type":"uint32","internalType":"uint32"}]}],"stateMutability":"view"},{"type":"function","name":"getCurrentStakeVersion","inputs":[],"outputs":[{"name":"","type":"uint8","internalType":"uint8"}],"stateMutability":"view"},{"type":"function","name":"getEligibleValidatorCount","inputs":[],"outputs":[{"name":"","type":"uint256","internalType":"uint256"}],"stateMutability":"view"},{"type":"function","name":"getEpochInfo","inputs":[{"name":"epoch","type":"uint32","internalType":"uint32"}],"outputs":[{"name":"","type":"tuple","internalType":"struct IConsensusRegistry.EpochInfo","components":[{"name":"committee","type":"address[]","internalType":"address[]"},{"name":"epochIssuance","type":"uint256","internalType":"uint256"},{"name":"blockHeight","type":"uint64","internalType":"uint64"},{"name":"epochId","type":"uint32","internalType":"uint32"},{"name":"epochDuration","type":"uint32","internalType":"uint32"},{"name":"stakeVersion","type":"uint8","internalType":"uint8"}]}],"stateMutability":"view"},{"type":"function","name":"getNextCommitteeSize","inputs":[],"outputs":[{"name":"","type":"uint16","internalType":"uint16"}],"stateMutability":"view"},{"type":"function","name":"getRewards","inputs":[{"name":"validatorAddress","type":"address","internalType":"address"}],"outputs":[{"name":"","type":"uint256","internalType":"uint256"}],"stateMutability":"view"},{"type":"function","name":"getValidator","inputs":[{"name":"validatorAddress","type":"address","internalType":"address"}],"outputs":[{"name":"","type":"tuple","internalType":"struct IConsensusRegistry.ValidatorInfo","components":[{"name":"validatorAddress","type":"address","internalType":"address"},{"name":"activationEpoch","type":"uint32","internalType":"uint32"},{"name":"exitEpoch","type":"uint32","internalType":"uint32"},{"name":"currentStatus","type":"uint8","internalType":"enum IConsensusRegistry.ValidatorStatus"},{"name":"isRetired","type":"bool","internalType":"bool"},{"name":"stakeVersion","type":"uint8","internalType":"uint8"},{"name":"region","type":"uint8","internalType":"uint8"}]}],"stateMutability":"view"},{"type":"function","name":"getValidators","inputs":[{"name":"status","type":"uint8","internalType":"enum IConsensusRegistry.ValidatorStatus"}],"outputs":[{"name":"","type":"tuple[]","internalType":"struct IConsensusRegistry.ValidatorInfo[]","components":[{"name":"validatorAddress","type":"address","internalType":"address"},{"name":"activationEpoch","type":"uint32","internalType":"uint32"},{"name":"exitEpoch","type":"uint32","internalType":"uint32"},{"name":"currentStatus","type":"uint8","internalType":"enum IConsensusRegistry.ValidatorStatus"},{"name":"isRetired","type":"bool","internalType":"bool"},{"name":"stakeVersion","type":"uint8","internalType":"uint8"},{"name":"region","type":"uint8","internalType":"uint8"}]}],"stateMutability":"view"},{"type":"function","name":"isApprovedForAll","inputs":[{"name":"owner","type":"address","internalType":"address"},{"name":"operator","type":"address","internalType":"address"}],"outputs":[{"name":"","type":"bool","internalType":"bool"}],"stateMutability":"view"},{"type":"function","name":"isDelegated","inputs":[{"name":"validatorAddress","type":"address","internalType":"address"}],"outputs":[{"name":"","type":"bool","internalType":"bool"}],"stateMutability":"view"},{"type":"function","name":"isRetired","inputs":[{"name":"validatorAddress","type":"address","internalType":"address"}],"outputs":[{"name":"","type":"bool","internalType":"bool"}],"stateMutability":"view"},{"type":"function","name":"isValidator","inputs":[{"name":"blsPubkey","type":"bytes","internalType":"bytes"}],"outputs":[{"name":"","type":"bool","internalType":"bool"}],"stateMutability":"view"},{"type":"function","name":"issuance","inputs":[],"outputs":[{"name":"","type":"address","internalType":"address payable"}],"stateMutability":"view"},{"type":"function","name":"mint","inputs":[{"name":"validatorAddress","type":"address","internalType":"address"}],"outputs":[],"stateMutability":"nonpayable"},{"type":"function","name":"name","inputs":[],"outputs":[{"name":"","type":"string","internalType":"string"}],"stateMutability":"view"},{"type":"function","name":"owner","inputs":[],"outputs":[{"name":"","type":"address","internalType":"address"}],"stateMutability":"view"},{"type":"function","name":"ownerOf","inputs":[{"name":"tokenId","type":"uint256","internalType":"uint256"}],"outputs":[{"name":"","type":"address","internalType":"address"}],"stateMutability":"view"},{"type":"function","name":"pause","inputs":[],"outputs":[],"stateMutability":"nonpayable"},{"type":"function","name":"paused","inputs":[],"outputs":[{"name":"","type":"bool","internalType":"bool"}],"stateMutability":"view"},{"type":"function","name":"proofOfPossessionMessage","inputs":[{"name":"blsPubkeyUncompressed","type":"bytes","internalType":"bytes"},{"name":"validatorAddress","type":"address","internalType":"address"}],"outputs":[{"name":"","type":"bytes","internalType":"bytes"}],"stateMutability":"pure"},{"type":"function","name":"renounceOwnership","inputs":[],"outputs":[],"stateMutability":"nonpayable"},{"type":"function","name":"safeTransferFrom","inputs":[{"name":"from","type":"address","internalType":"address"},{"name":"to","type":"address","internalType":"address"},{"name":"tokenId","type":"uint256","internalType":"uint256"}],"outputs":[],"stateMutability":"nonpayable"},{"type":"function","name":"safeTransferFrom","inputs":[{"name":"from","type":"address","internalType":"address"},{"name":"to","type":"address","internalType":"address"},{"name":"tokenId","type":"uint256","internalType":"uint256"},{"name":"data","type":"bytes","internalType":"bytes"}],"outputs":[],"stateMutability":"nonpayable"},{"type":"function","name":"setApprovalForAll","inputs":[{"name":"","type":"address","internalType":"address"},{"name":"","type":"bool","internalType":"bool"}],"outputs":[],"stateMutability":"nonpayable"},{"type":"function","name":"setNextCommitteeSize","inputs":[{"name":"newSize","type":"uint16","internalType":"uint16"}],"outputs":[],"stateMutability":"nonpayable"},{"type":"function","name":"setValidatorRegion","inputs":[{"name":"validatorAddress","type":"address","internalType":"address"},{"name":"region","type":"uint8","internalType":"uint8"}],"outputs":[],"stateMutability":"nonpayable"},{"type":"function","name":"stake","inputs":[{"name":"blsPubkey","type":"bytes","internalType":"bytes"},{"name":"proofOfPossession","type":"tuple","internalType":"struct BlsG1.ProofOfPossession","components":[{"name":"uncompressedPubkey","type":"bytes","internalType":"bytes"},{"name":"uncompressedSignature","type":"bytes","internalType":"bytes"}]}],"outputs":[],"stateMutability":"payable"},{"type":"function","name":"stakeConfig","inputs":[{"name":"version","type":"uint8","internalType":"uint8"}],"outputs":[{"name":"","type":"tuple","internalType":"struct IStakeManager.StakeConfig","components":[{"name":"stakeAmount","type":"uint256","internalType":"uint256"},{"name":"minWithdrawAmount","type":"uint256","internalType":"uint256"},{"name":"epochIssuance","type":"uint256","internalType":"uint256"},{"name":"epochDuration","type":"uint32","internalType":"uint32"}]}],"stateMutability":"view"},{"type":"function","name":"supportsInterface","inputs":[{"name":"interfaceId","type":"bytes4","internalType":"bytes4"}],"outputs":[{"name":"","type":"bool","internalType":"bool"}],"stateMutability":"view"},{"type":"function","name":"symbol","inputs":[],"outputs":[{"name":"","type":"string","internalType":"string"}],"stateMutability":"view"},{"type":"function","name":"tokenByIndex","inputs":[{"name":"index","type":"uint256","internalType":"uint256"}],"outputs":[{"name":"","type":"uint256","internalType":"uint256"}],"stateMutability":"view"},{"type":"function","name":"tokenOfOwnerByIndex","inputs":[{"name":"owner","type":"address","internalType":"address"},{"name":"index","type":"uint256","internalType":"uint256"}],"outputs":[{"name":"","type":"uint256","internalType":"uint256"}],"stateMutability":"view"},{"type":"function","name":"tokenURI","inputs":[{"name":"tokenId","type":"uint256","internalType":"uint256"}],"outputs":[{"name":"","type":"string","internalType":"string"}],"stateMutability":"view"},{"type":"function","name":"totalSupply","inputs":[],"outputs":[{"name":"","type":"uint256","internalType":"uint256"}],"stateMutability":"view"},{"type":"function","name":"transferFrom","inputs":[{"name":"","type":"address","internalType":"address"},{"name":"","type":"address","internalType":"address"},{"name":"","type":"uint256","internalType":"uint256"}],"outputs":[],"stateMutability":"nonpayable"},{"type":"function","name":"transferOwnership","inputs":[{"name":"newOwner","type":"address","internalType":"address"}],"outputs":[],"stateMutability":"nonpayable"},{"type":"function","name":"undistributedIssuance","inputs":[],"outputs":[{"name":"","type":"uint256","internalType":"uint256"}],"stateMutability":"view"},{"type":"function","name":"unpause","inputs":[],"outputs":[],"stateMutability":"nonpayable"},{"type":"function","name":"unstake","inputs":[{"name":"validatorAddress","type":"address","internalType":"address"}],"outputs":[],"stateMutability":"nonpayable"},{"type":"function","name":"upgradeStakeVersion","inputs":[{"name":"newConfig","type":"tuple","internalType":"struct IStakeManager.StakeConfig","components":[{"name":"stakeAmount","type":"uint256","internalType":"uint256"},{"name":"minWithdrawAmount","type":"uint256","internalType":"uint256"},{"name":"epochIssuance","type":"uint256","internalType":"uint256"},{"name":"epochDuration","type":"uint32","internalType":"uint32"}]}],"outputs":[{"name":"","type":"uint8","internalType":"uint8"}],"stateMutability":"nonpayable"},{"type":"function","name":"upgradeValidatorStakeVersion","inputs":[{"name":"validatorAddress","type":"address","internalType":"address"},{"name":"targetVersion","type":"uint8","internalType":"uint8"}],"outputs":[],"stateMutability":"payable"},{"type":"function","name":"validators","inputs":[{"name":"","type":"address","internalType":"address"}],"outputs":[{"name":"validatorAddress","type":"address","internalType":"address"},{"name":"activationEpoch","type":"uint32","internalType":"uint32"},{"name":"exitEpoch","type":"uint32","internalType":"uint32"},{"name":"currentStatus","type":"uint8","internalType":"enum IConsensusRegistry.ValidatorStatus"},{"name":"isRetired","type":"bool","internalType":"bool"},{"name":"stakeVersion","type":"uint8","internalType":"uint8"},{"name":"region","type":"uint8","internalType":"uint8"}],"stateMutability":"view"},{"type":"event","name":"Approval","inputs":[{"name":"owner","type":"address","indexed":true,"internalType":"address"},{"name":"approved","type":"address","indexed":true,"internalType":"address"},{"name":"tokenId","type":"uint256","indexed":true,"internalType":"uint256"}],"anonymous":false},{"type":"event","name":"ApprovalForAll","inputs":[{"name":"owner","type":"address","indexed":true,"internalType":"address"},{"name":"operator","type":"address","indexed":true,"internalType":"address"},{"name":"approved","type":"bool","indexed":false,"internalType":"bool"}],"anonymous":false},{"type":"event","name":"NewEpoch","inputs":[{"name":"epoch","type":"tuple","indexed":false,"internalType":"struct IConsensusRegistry.EpochInfo","components":[{"name":"committee","type":"address[]","internalType":"address[]"},{"name":"epochIssuance","type":"uint256","internalType":"uint256"},{"name":"blockHeight","type":"uint64","internalType":"uint64"},{"name":"epochId","type":"uint32","internalType":"uint32"},{"name":"epochDuration","type":"uint32","internalType":"uint32"},{"name":"stakeVersion","type":"uint8","internalType":"uint8"}]}],"anonymous":false},{"type":"event","name":"NextCommitteeSizeUpdated","inputs":[{"name":"oldSize","type":"uint16","indexed":false,"internalType":"uint16"},{"name":"newSize","type":"uint16","indexed":false,"internalType":"uint16"},{"name":"numActiveValidators","type":"uint256","indexed":false,"internalType":"uint256"}],"anonymous":false},{"type":"event","name":"OwnershipTransferred","inputs":[{"name":"previousOwner","type":"address","indexed":true,"internalType":"address"},{"name":"newOwner","type":"address","indexed":true,"internalType":"address"}],"anonymous":false},{"type":"event","name":"Paused","inputs":[{"name":"account","type":"address","indexed":false,"internalType":"address"}],"anonymous":false},{"type":"event","name":"RewardsClaimed","inputs":[{"name":"claimant","type":"address","indexed":true,"internalType":"address"},{"name":"rewards","type":"uint256","indexed":false,"internalType":"uint256"}],"anonymous":false},{"type":"event","name":"Transfer","inputs":[{"name":"from","type":"address","indexed":true,"internalType":"address"},{"name":"to","type":"address","indexed":true,"internalType":"address"},{"name":"tokenId","type":"uint256","indexed":true,"internalType":"uint256"}],"anonymous":false},{"type":"event","name":"Unpaused","inputs":[{"name":"account","type":"address","indexed":false,"internalType":"address"}],"anonymous":false},{"type":"event","name":"ValidatorActivated","inputs":[{"name":"validator","type":"tuple","indexed":false,"internalType":"struct IConsensusRegistry.ValidatorInfo","components":[{"name":"validatorAddress","type":"address","internalType":"address"},{"name":"activationEpoch","type":"uint32","internalType":"uint32"},{"name":"exitEpoch","type":"uint32","internalType":"uint32"},{"name":"currentStatus","type":"uint8","internalType":"enum IConsensusRegistry.ValidatorStatus"},{"name":"isRetired","type":"bool","internalType":"bool"},{"name":"stakeVersion","type":"uint8","internalType":"uint8"},{"name":"region","type":"uint8","internalType":"uint8"}]}],"anonymous":false},{"type":"event","name":"ValidatorExited","inputs":[{"name":"validator","type":"tuple","indexed":false,"internalType":"struct IConsensusRegistry.ValidatorInfo","components":[{"name":"validatorAddress","type":"address","internalType":"address"},{"name":"activationEpoch","type":"uint32","internalType":"uint32"},{"name":"exitEpoch","type":"uint32","internalType":"uint32"},{"name":"currentStatus","type":"uint8","internalType":"enum IConsensusRegistry.ValidatorStatus"},{"name":"isRetired","type":"bool","internalType":"bool"},{"name":"stakeVersion","type":"uint8","internalType":"uint8"},{"name":"region","type":"uint8","internalType":"uint8"}]}],"anonymous":false},{"type":"event","name":"ValidatorPendingActivation","inputs":[{"name":"validator","type":"tuple","indexed":false,"internalType":"struct IConsensusRegistry.ValidatorInfo","components":[{"name":"validatorAddress","type":"address","internalType":"address"},{"name":"activationEpoch","type":"uint32","internalType":"uint32"},{"name":"exitEpoch","type":"uint32","internalType":"uint32"},{"name":"currentStatus","type":"uint8","internalType":"enum IConsensusRegistry.ValidatorStatus"},{"name":"isRetired","type":"bool","internalType":"bool"},{"name":"stakeVersion","type":"uint8","internalType":"uint8"},{"name":"region","type":"uint8","internalType":"uint8"}]}],"anonymous":false},{"type":"event","name":"ValidatorPendingExit","inputs":[{"name":"validator","type":"tuple","indexed":false,"internalType":"struct IConsensusRegistry.ValidatorInfo","components":[{"name":"validatorAddress","type":"address","internalType":"address"},{"name":"activationEpoch","type":"uint32","internalType":"uint32"},{"name":"exitEpoch","type":"uint32","internalType":"uint32"},{"name":"currentStatus","type":"uint8","internalType":"enum IConsensusRegistry.ValidatorStatus"},{"name":"isRetired","type":"bool","internalType":"bool"},{"name":"stakeVersion","type":"uint8","internalType":"uint8"},{"name":"region","type":"uint8","internalType":"uint8"}]}],"anonymous":false},{"type":"event","name":"ValidatorRegionUpdated","inputs":[{"name":"validatorAddress","type":"address","indexed":true,"internalType":"address"},{"name":"region","type":"uint8","indexed":false,"internalType":"uint8"}],"anonymous":false},{"type":"event","name":"ValidatorRetired","inputs":[{"name":"validator","type":"tuple","indexed":false,"internalType":"struct IConsensusRegistry.ValidatorInfo","components":[{"name":"validatorAddress","type":"address","internalType":"address"},{"name":"activationEpoch","type":"uint32","internalType":"uint32"},{"name":"exitEpoch","type":"uint32","internalType":"uint32"},{"name":"currentStatus","type":"uint8","internalType":"enum IConsensusRegistry.ValidatorStatus"},{"name":"isRetired","type":"bool","internalType":"bool"},{"name":"stakeVersion","type":"uint8","internalType":"uint8"},{"name":"region","type":"uint8","internalType":"uint8"}]}],"anonymous":false},{"type":"event","name":"ValidatorSlashed","inputs":[{"name":"slash","type":"tuple","indexed":false,"internalType":"struct Slash","components":[{"name":"validatorAddress","type":"address","internalType":"address"},{"name":"amount","type":"uint256","internalType":"uint256"}]}],"anonymous":false},{"type":"event","name":"ValidatorStakeVersionUpgraded","inputs":[{"name":"validatorAddress","type":"address","indexed":true,"internalType":"address"},{"name":"oldVersion","type":"uint8","indexed":false,"internalType":"uint8"},{"name":"newVersion","type":"uint8","indexed":false,"internalType":"uint8"},{"name":"oldStakeAmount","type":"uint256","indexed":false,"internalType":"uint256"},{"name":"newStakeAmount","type":"uint256","indexed":false,"internalType":"uint256"}],"anonymous":false},{"type":"event","name":"ValidatorStaked","inputs":[{"name":"validator","type":"tuple","indexed":false,"internalType":"struct IConsensusRegistry.ValidatorInfo","components":[{"name":"validatorAddress","type":"address","internalType":"address"},{"name":"activationEpoch","type":"uint32","internalType":"uint32"},{"name":"exitEpoch","type":"uint32","internalType":"uint32"},{"name":"currentStatus","type":"uint8","internalType":"enum IConsensusRegistry.ValidatorStatus"},{"name":"isRetired","type":"bool","internalType":"bool"},{"name":"stakeVersion","type":"uint8","internalType":"uint8"},{"name":"region","type":"uint8","internalType":"uint8"}]}],"anonymous":false},{"type":"error","name":"AlreadyDefined","inputs":[{"name":"validatorAddress","type":"address","internalType":"address"}]},{"type":"error","name":"BLSPubkeyMismatch","inputs":[]},{"type":"error","name":"BlsPubkeyNotFound","inputs":[{"name":"validatorAddress","type":"address","internalType":"address"}]},{"type":"error","name":"CommitteeRequirement","inputs":[{"name":"validatorAddress","type":"address","internalType":"address"}]},{"type":"error","name":"DuplicateBLSPubkey","inputs":[]},{"type":"error","name":"ERC721EnumerableForbiddenBatchMint","inputs":[]},{"type":"error","name":"ERC721IncorrectOwner","inputs":[{"name":"sender","type":"address","internalType":"address"},{"name":"tokenId","type":"uint256","internalType":"uint256"},{"name":"owner","type":"address","internalType":"address"}]},{"type":"error","name":"ERC721InsufficientApproval","inputs":[{"name":"operator","type":"address","internalType":"address"},{"name":"tokenId","type":"uint256","internalType":"uint256"}]},{"type":"error","name":"ERC721InvalidApprover","inputs":[{"name":"approver","type":"address","internalType":"address"}]},{"type":"error","name":"ERC721InvalidOperator","inputs":[{"name":"operator","type":"address","internalType":"address"}]},{"type":"error","name":"ERC721InvalidOwner","inputs":[{"name":"owner","type":"address","internalType":"address"}]},{"type":"error","name":"ERC721InvalidReceiver","inputs":[{"name":"receiver","type":"address","internalType":"address"}]},{"type":"error","name":"ERC721InvalidSender","inputs":[{"name":"sender","type":"address","internalType":"address"}]},{"type":"error","name":"ERC721NonexistentToken","inputs":[{"name":"tokenId","type":"uint256","internalType":"uint256"}]},{"type":"error","name":"ERC721OutOfBoundsIndex","inputs":[{"name":"owner","type":"address","internalType":"address"},{"name":"index","type":"uint256","internalType":"uint256"}]},{"type":"error","name":"EnforcedPause","inputs":[]},{"type":"error","name":"ExpectedPause","inputs":[]},{"type":"error","name":"GenesisArityMismatch","inputs":[]},{"type":"error","name":"IneligibleUnstake","inputs":[{"name":"validator","type":"tuple","internalType":"struct IConsensusRegistry.ValidatorInfo","components":[{"name":"validatorAddress","type":"address","internalType":"address"},{"name":"activationEpoch","type":"uint32","internalType":"uint32"},{"name":"exitEpoch","type":"uint32","internalType":"uint32"},{"name":"currentStatus","type":"uint8","internalType":"enum IConsensusRegistry.ValidatorStatus"},{"name":"isRetired","type":"bool","internalType":"bool"},{"name":"stakeVersion","type":"uint8","internalType":"uint8"},{"name":"region","type":"uint8","internalType":"uint8"}]}]},{"type":"error","name":"InsufficientRewards","inputs":[{"name":"withdrawAmount","type":"uint256","internalType":"uint256"}]},{"type":"error","name":"InvalidBLSPubkey","inputs":[]},{"type":"error","name":"InvalidCommitteeSize","inputs":[{"name":"minCommitteeSize","type":"uint256","internalType":"uint256"},{"name":"providedCommitteeSize","type":"uint256","internalType":"uint256"}]},{"type":"error","name":"InvalidDuration","inputs":[{"name":"duration","type":"uint32","internalType":"uint32"}]},{"type":"error","name":"InvalidEpoch","inputs":[{"name":"epoch","type":"uint32","internalType":"uint32"}]},{"type":"error","name":"InvalidProofOfPossession","inputs":[{"name":"proof","type":"tuple","internalType":"struct BlsG1.ProofOfPossession","components":[{"name":"uncompressedPubkey","type":"bytes","internalType":"bytes"},{"name":"uncompressedSignature","type":"bytes","internalType":"bytes"}]},{"name":"message","type":"bytes","internalType":"bytes"}]},{"type":"error","name":"InvalidStakeAmount","inputs":[{"name":"stakeAmount","type":"uint256","internalType":"uint256"}]},{"type":"error","name":"InvalidStakeVersion","inputs":[{"name":"currentVersion","type":"uint8","internalType":"uint8"},{"name":"targetVersion","type":"uint8","internalType":"uint8"}]},{"type":"error","name":"InvalidStatus","inputs":[{"name":"status","type":"uint8","internalType":"enum IConsensusRegistry.ValidatorStatus"}]},{"type":"error","name":"InvalidSupply","inputs":[]},{"type":"error","name":"InvalidTokenId","inputs":[{"name":"tokenId","type":"uint256","internalType":"uint256"}]},{"type":"error","name":"InvalidValidatorAddress","inputs":[]},{"type":"error","name":"IssuanceTransferFailed","inputs":[]},{"type":"error","name":"NotRecipient","inputs":[{"name":"recipient","type":"address","internalType":"address"}]},{"type":"error","name":"NotTransferable","inputs":[]},{"type":"error","name":"NotValidator","inputs":[{"name":"validatorAddress","type":"address","internalType":"address"}]},{"type":"error","name":"OnlySystemCall","inputs":[{"name":"invalidCaller","type":"address","internalType":"address"}]},{"type":"error","name":"OwnableInvalidOwner","inputs":[{"name":"owner","type":"address","internalType":"address"}]},{"type":"error","name":"OwnableUnauthorizedAccount","inputs":[{"name":"account","type":"address","internalType":"address"}]},{"type":"error","name":"Reentrancy","inputs":[]},{"type":"error","name":"RequiresConsensusNFT","inputs":[]},{"type":"error","name":"StringsInsufficientHexLength","inputs":[{"name":"value","type":"uint256","internalType":"uint256"},{"name":"length","type":"uint256","internalType":"uint256"}]}],"bytecode":{"object":"0x610120604052348015610010575f80fd5b5060405161883638038061883683398101604081905261002f916114f9565b806040518060400160405280600c81526020016b10dbdb9cd95b9cdd5cd3919560a21b8152506040518060400160405280600481526020016310d3919560e21b8152508181815f90816100829190611665565b50600161008f8282611665565b505030608052504660a0526060806100ef604080518082018252601481527f54656c636f696e205374616b654d616e61676572000000000000000000000000602080830191909152825180840190935260018352603160f81b9083015291565b815160209283012081519183019190912060c082905260e0819052604080517f8b73c3c69bb8fe3d512ecc4cf759cc79239f7b179b0ffacaa9a75d522b39400f8152938401929092529082015246606082015230608082015260a09020610100525050600d805461ff001916905550506001600160a01b03811661018d57604051631e4fbdf760e01b81525f60048201526024015b60405180910390fd5b61019681610800565b50835115806101a757508251845114155b806101b457508151845114155b156101d257604051633aa3e03360e01b815260040160405180910390fd5b5f808052600a602090815286517f13da86008ba1c6922daee3e07db95305ef49ebced9f5467a0b8613fcc6b343e3558601517f13da86008ba1c6922daee3e07db95305ef49ebced9f5467a0b8613fcc6b343e45560408601517f13da86008ba1c6922daee3e07db95305ef49ebced9f5467a0b8613fcc6b343e55560608601517f13da86008ba1c6922daee3e07db95305ef49ebced9f5467a0b8613fcc6b343e6805463ffffffff191663ffffffff9092169190911790558451600d805461ffff60d81b1916600160d81b61ffff909316929092029190911790555b600281116103b8575f601182600481106102ca576102ca61171f565b6003020160028101805460608a0151600160401b600160801b03199091166801000000000000000063ffffffff8781169190910263ffffffff60601b1916919091176c0100000000000000000000000091909216021790556040880151600182015590505f601d83600481106103425761034261171f565b6003020160028101805460608b0151600160401b600160801b03199091166801000000000000000063ffffffff8881169190910263ffffffff60601b1916919091176c0100000000000000000000000091909216021790556040890151600190910155506103b1905081611747565b90506102ae565b505f5b84518110156107f0575f8582815181106103d7576103d761171f565b602002602001015190505f6104288584815181106103f7576103f761171f565b6020026020010151835f01518886815181106104155761041561171f565b602002602001015161085b60201b60201c565b82519091506001600160a01b03166104535760405163713ce51160e01b815260040160405180910390fd5b602082015163ffffffff161561048a576020820151604051634fadd4d360e11b815263ffffffff9091166004820152602401610184565b604082015163ffffffff16156104c1576040808301519051634fadd4d360e11b815263ffffffff9091166004820152602401610184565b6003826060015160068111156104d9576104d961175f565b146104fd578160600151604051633ba7bf8960e11b81526004016101849190611793565b608082015115610523576005604051633ba7bf8960e11b81526004016101849190611793565b60a082015160ff16156105545760a082015160405163222d164360e21b815260ff9091166004820152602401610184565b5f5b6002811161060a57601181600481106105715761057161171f565b84516003919091029190910180546001810182555f91825260209091200180546001600160a01b0319166001600160a01b03909216919091179055601d81600481106105bf576105bf61171f565b84516003919091029190910180546001810182555f91825260209091200180546001600160a01b0319166001600160a01b0390921691909117905561060381611747565b9050610556565b5085838151811061061d5761061d61171f565b60209081029190910181015183516001600160a01b03165f908152602990925260409091209061064d9082611665565b5081516001600160a01b039081165f908152600f602090815260409182902085518154928701519387015163ffffffff908116600160c01b0263ffffffff60c01b1991909516600160a01b026001600160c01b0319909416919095161791909117928316821781556060850151859391929091839160ff60e01b191664ffffffffff60c01b1990911617600160e01b8360068111156106ee576106ee61175f565b02179055506080820151815460a084015160c09094015161ffff60e81b19909116600160e81b9215159290920260ff60f01b191691909117600160f01b60ff94851602176001600160f81b0316600160f81b9390911692909202919091179055875182516001600160a01b039081165f908152600b60209081526040808320949094558551858352601090915292902080546001600160a01b0319169290911691909117905581516107af906107aa816001600160a01b031690565b6109de565b7fabab4191fe954f07230f7e34fd48dc0fdcbed492526cd060001cccceab22851b826040516107de91906117a1565b60405180910390a150506001016103bb565b50509151602a555061196c915050565b600d80546001600160a01b038381166201000081810262010000600160b01b031985161790945560405193909204169182907f8be0079c531659141344cd1fd0a4f28419497f9722a3daafe3b4186f6b6457e0905f90a35050565b5f815160601461087e576040516333a234f960e11b815260040160405180910390fd5b5f825f815181106108915761089161171f565b016020015160f81c90506080811615806108ad57506040811615155b156108cb576040516333a234f960e11b815260040160405180910390fd5b6020850151855160405163071917cf60e01b815273__$2ef4e8110a3eaa1255da7f08f8eebcbf5a$__9263071917cf92610909928990600401611849565b602060405180830381865af4158015610924573d5f803e3d5ffd5b505050506040513d601f19601f820116820180604052508101906109489190611886565b610975578451859061095a9086610a44565b604051634babb8f160e01b815260040161018492919061189f565b84516060808201519085015160408084015190870151602094850151948801516001600160fd1b039081169516949094149314929092169114166109cb57604051629fb4bd60e31b815260040160405180910390fd5b6109d58385610aca565b95945050505050565b6001600160a01b038216610a0757604051633250574960e11b81525f6004820152602401610184565b5f610a13838383610b56565b90506001600160a01b03811615610a3f576040516339e3563760e11b81525f6004820152602401610184565b505050565b604051636850eb3160e01b815260609073__$2ef4e8110a3eaa1255da7f08f8eebcbf5a$__90636850eb3190610a8090869086906004016118eb565b5f60405180830381865af4158015610a9a573d5f803e3d5ffd5b505050506040513d5f823e601f3d908101601f19168201604052610ac19190810190611914565b90505b92915050565b604080516020848101516001600160fd1b031682528483015181830152606080860151838501529091205f8181526010909252919020546001600160a01b031615610b2857604051638d12779f60e01b815260040160405180910390fd5b5f81815260106020526040902080546001600160a01b0384166001600160a01b031990911617905592915050565b5f80610b63858585610c29565b90506001600160a01b038116610bbf57610bba84600880545f838152600960205260408120829055600182018355919091527ff3f7a9fe364faab93b216da50a3214154f22a0a2b415b23a84c8169e8b636ee30155565b610be2565b846001600160a01b0316816001600160a01b031614610be257610be28185610d1b565b6001600160a01b038516610bfe57610bf984610d98565b610c21565b846001600160a01b0316816001600160a01b031614610c2157610c218585610e3f565b949350505050565b5f828152600260205260408120546001600160a01b0390811690831615610c5557610c55818486610e8d565b6001600160a01b03811615610c8f57610c705f858180610ef1565b6001600160a01b0381165f90815260036020526040902080545f190190555b6001600160a01b03851615610cbd576001600160a01b0385165f908152600360205260409020805460010190555b5f8481526002602052604080822080546001600160a01b0319166001600160a01b0389811691821790925591518793918516917fddf252ad1be2c89b69c2b068fc378daa952ba7f163c4a11628f55a4df523b3ef91a4949350505050565b5f610d2583611013565b5f838152600760209081526040808320546001600160a01b0388168452600690925290912091925090818314610d7a575f83815260208281526040808320548584528184208190558352600790915290208290555b5f938452600760209081526040808620869055938552525081205550565b6008545f90610da990600190611945565b5f8381526009602052604081205460088054939450909284908110610dd057610dd061171f565b905f5260205f20015490508060088381548110610def57610def61171f565b5f918252602080832090910192909255828152600990915260408082208490558582528120556008805480610e2657610e26611958565b600190038181905f5260205f20015f9055905550505050565b5f6001610e4b84611013565b610e559190611945565b6001600160a01b039093165f908152600660209081526040808320868452825280832085905593825260079052919091209190915550565b610e98838383611058565b610a3f576001600160a01b038316610ec657604051637e27328960e01b815260048101829052602401610184565b60405163177e802f60e01b81526001600160a01b038316600482015260248101829052604401610184565b8080610f0557506001600160a01b03821615155b15610fe4575f610f14846110d8565b90506001600160a01b03831615801590610f405750826001600160a01b0316816001600160a01b031614155b8015610f7157506001600160a01b038082165f9081526005602090815260408083209387168352929052205460ff16155b15610f9a5760405163a9fbf51f60e01b81526001600160a01b0384166004820152602401610184565b8115610fe25783856001600160a01b0316826001600160a01b03167f8c5be1e5ebec7d5bd14f71427d1e84f3dd0314c0f7b2291e5b200ac8c7c3b92560405160405180910390a45b505b50505f90815260046020526040902080546001600160a01b0319166001600160a01b0392909216919091179055565b5f6001600160a01b03821661103d576040516322718ad960e21b81525f6004820152602401610184565b506001600160a01b03165f9081526003602052604090205490565b5f6001600160a01b03831615801590610c215750826001600160a01b0316846001600160a01b031614806110b057506001600160a01b038085165f9081526005602090815260408083209387168352929052205460ff165b80610c215750505f908152600460205260409020546001600160a01b03908116911614919050565b5f818152600260205260408120546001600160a01b031680610ac457604051637e27328960e01b815260048101849052602401610184565b634e487b7160e01b5f52604160045260245ffd5b60405160e081016001600160401b038111828210171561114657611146611110565b60405290565b604080519081016001600160401b038111828210171561114657611146611110565b604051608081016001600160401b038111828210171561114657611146611110565b604051601f8201601f191681016001600160401b03811182821017156111b8576111b8611110565b604052919050565b805163ffffffff811681146111d3575f80fd5b919050565b5f6001600160401b038211156111f0576111f0611110565b5060051b60200190565b80516001600160a01b03811681146111d3575f80fd5b805180151581146111d3575f80fd5b805160ff811681146111d3575f80fd5b5f82601f83011261123e575f80fd5b815161125161124c826111d8565b611190565b80828252602082019150602060e08402860101925085831115611272575f80fd5b602085015b8381101561131c5760e0818803121561128e575f80fd5b611296611124565b61129f826111fa565b81526112ad602083016111c0565b60208201526112be604083016111c0565b60408201526060820151600781106112d4575f80fd5b60608201526112e560808301611210565b60808201526112f660a0830161121f565b60a082015261130760c0830161121f565b60c0820152835260209092019160e001611277565b5095945050505050565b5f82601f830112611335575f80fd5b81516001600160401b0381111561134e5761134e611110565b611361601f8201601f1916602001611190565b818152846020838601011115611375575f80fd5b8160208501602083015e5f918101602001919091529392505050565b5f82601f8301126113a0575f80fd5b81516113ae61124c826111d8565b8082825260208201915060208360051b8601019250858311156113cf575f80fd5b602085015b8381101561131c5780516001600160401b038111156113f1575f80fd5b611400886020838a0101611326565b845250602092830192016113d4565b5f82601f83011261141e575f80fd5b815161142c61124c826111d8565b8082825260208201915060208360051b86010192508583111561144d575f80fd5b602085015b8381101561131c5780516001600160401b0381111561146f575f80fd5b86016040818903601f19011215611484575f80fd5b61148c61114c565b60208201516001600160401b038111156114a4575f80fd5b6114b38a602083860101611326565b82525060408201516001600160401b038111156114ce575f80fd5b6114dd8a602083860101611326565b6020830152508085525050602083019250602081019050611452565b5f805f805f85870361010081121561150f575f80fd5b608081121561151c575f80fd5b5061152561116e565b865181526020808801519082015260408088015190820152611549606088016111c0565b606082015260808701519095506001600160401b03811115611569575f80fd5b6115758882890161122f565b60a088015190955090506001600160401b03811115611592575f80fd5b61159e88828901611391565b60c088015190945090506001600160401b038111156115bb575f80fd5b6115c78882890161140f565b9250506115d660e087016111fa565b90509295509295909350565b600181811c908216806115f657607f821691505b60208210810361161457634e487b7160e01b5f52602260045260245ffd5b50919050565b601f821115610a3f57805f5260205f20601f840160051c8101602085101561163f5750805b601f840160051c820191505b8181101561165e575f815560010161164b565b5050505050565b81516001600160401b0381111561167e5761167e611110565b6116928161168c84546115e2565b8461161a565b6020601f8211600181146116c4575f83156116ad5750848201515b5f19600385901b1c1916600184901b17845561165e565b5f84815260208120601f198516915b828110156116f357878501518255602094850194600190920191016116d3565b508482101561171057868401515f19600387901b60f8161c191681555b50505050600190811b01905550565b634e487b7160e01b5f52603260045260245ffd5b634e487b7160e01b5f52601160045260245ffd5b5f6001820161175857611758611733565b5060010190565b634e487b7160e01b5f52602160045260245ffd5b6007811061178f57634e487b7160e01b5f52602160045260245ffd5b9052565b60208101610ac48284611773565b5f60e08201905060018060a01b03835116825263ffffffff602084015116602083015263ffffffff604084015116604083015260608301516117e66060840182611773565b5060808301511515608083015260ff60a08401511660a083015260c083015161181460c084018260ff169052565b5092915050565b5f81518084528060208401602086015e5f602082860101526020601f19601f83011685010191505092915050565b606081525f61185b606083018661181b565b828103602084015261186d818661181b565b91505060018060a01b0383166040830152949350505050565b5f60208284031215611896575f80fd5b610ac182611210565b604081525f83516040808401526118b9608084018261181b565b90506020850151603f198483030160608501526118d6828261181b565b91505082810360208401526109d5818561181b565b604081525f6118fd604083018561181b565b905060018060a01b03831660208301529392505050565b5f60208284031215611924575f80fd5b81516001600160401b03811115611939575f80fd5b610c2184828501611326565b81810381811115610ac457610ac4611733565b634e487b7160e01b5f52603160045260245ffd5b60805160a05160c05160e05161010051616e8d6119a95f395f61401d01525f6140d701525f6140b101525f61406101525f61403e0152616e8d5ff3fe6080604052600436106103bd575f3560e01c80636a627842116101f457806395d89b4111610113578063c05df7ac116100a8578063eb8535c211610078578063eb8535c214610b70578063f062476814610b9d578063f2888dbb14610bbc578063f2fde38b14610bdb578063fa52c7d814610bfa575f80fd5b8063c05df7ac14610af4578063c87b56dd14610b13578063e3716d0414610b32578063e985e9c514610b51575f80fd5b8063b5184324116100e3578063b518432414610a7d578063b88d4fde14610a90578063b97dd9e214610aaf578063babc394f14610ae0575f80fd5b806395d89b4114610a11578063a0201be514610a25578063a22cb46514610a44578063a71954ec14610a5e575f80fd5b80637d06fdf81161018957806389afcb441161015957806389afcb44146109905780638bb43f3a146109af5780638cc05eda146109c25780638da5cb5b146109ee575f80fd5b80637d06fdf8146108e15780638456cb591461092e57806384b0196e14610942578063863623bb14610969575f80fd5b806370a08231116101c457806370a0823114610870578063715018a61461088f57806379ee54f7146108a35780637b55a300146108c2575f80fd5b80636a627842146107e75780636a926591146108065780636ae9942c146108255780636d3c627514610851575f80fd5b80632f745c59116102e05780634f6ccce71161027557806362fcde4b1161024557806362fcde4b146107645780636352211e1461078357806367398331146107a25780636850eb31146107c8575f80fd5b80634f6ccce7146106f757806359ca93b6146107165780635a41fb1f146107355780635c975abb14610748575f80fd5b80633894228e116102b05780633894228e1461064a5780633e28391d146106a55780633f4ba83a146106c457806342842e0e146106d8575f80fd5b80632f745c59146105dd5780633434735f146105fc578063355811a714610616578063374ed18c1461061e575f80fd5b80630f15f4c0116103565780632228dfa0116103265780632228dfa01461057c57806323a404301461059057806323b872dd146105a45780632b9f4985146105be575f80fd5b80630f15f4c0146104ee57806315b5709a1461050257806318160ddd1461053c5780631904bb2e14610550575f80fd5b806306fdde031161039157806306fdde0314610465578063081812fc14610479578063095ea7b3146104b05780630a36cdef146104cf575f80fd5b80628d6acd146103c157806301ffc9a7146103e957806302ae337b14610418578063059b916c14610439575b5f80fd5b3480156103cc575f80fd5b506103d6600e5481565b6040519081526020015b60405180910390f35b3480156103f4575f80fd5b5061040861040336600461584c565b610c85565b60405190151581526020016103e0565b348015610423575f80fd5b506104376104323660046158ae565b610caf565b005b348015610444575f80fd5b50610458610453366004615902565b610e05565b6040516103e09190615949565b348015610470575f80fd5b50610458610ed6565b348015610484575f80fd5b5061049861049336600461595b565b610f65565b6040516001600160a01b0390911681526020016103e0565b3480156104bb575f80fd5b506104376104ca366004615972565b610f8c565b3480156104da575f80fd5b506104376104e93660046158ae565b610fa5565b3480156104f9575f80fd5b506104376111f4565b34801561050d575f80fd5b5061052161051c366004615902565b61123d565b604080519384526020840192909252908201526060016103e0565b348015610547575f80fd5b506008546103d6565b34801561055b575f80fd5b5061056f61056a366004615902565b6112a3565b6040516103e09190615a3a565b348015610587575f80fd5b50610437611386565b34801561059b575f80fd5b50602a546103d6565b3480156105af575f80fd5b506104376104ca366004615a48565b3480156105c9575f80fd5b506104376105d8366004615902565b61143c565b3480156105e8575f80fd5b506103d66105f7366004615972565b611554565b348015610607575f80fd5b506104986002600160a01b0381565b6104376115b7565b348015610629575f80fd5b5061063d610638366004615a93565b611639565b6040516103e09190615aae565b348015610655575f80fd5b5061066961066436600461595b565b6117d8565b604080519586526001600160401b03909416602086015263ffffffff9283169385019390935216606083015260ff16608082015260a0016103e0565b3480156106b0575f80fd5b506104086106bf366004615902565b61182c565b3480156106cf575f80fd5b50610437611852565b3480156106e3575f80fd5b506104376106f2366004615a48565b611864565b348015610702575f80fd5b506103d661071136600461595b565b61187e565b348015610721575f80fd5b5061066961073036600461595b565b6118d3565b610437610743366004615b75565b6118e2565b348015610753575f80fd5b50600d54610100900460ff16610408565b34801561076f575f80fd5b5061043761077e366004615ba6565b611d87565b34801561078e575f80fd5b5061049861079d36600461595b565b611e85565b3480156107ad575f80fd5b506107b6611e8f565b60405160ff90911681526020016103e0565b3480156107d3575f80fd5b506104586107e2366004615c83565b611ea1565b3480156107f2575f80fd5b50610437610801366004615902565b611f25565b348015610811575f80fd5b50610408610820366004615d01565b611f83565b348015610830575f80fd5b5061084461083f366004615a93565b61201e565b6040516103e09190615d33565b34801561085c575f80fd5b5061040861086b366004615902565b61217a565b34801561087b575f80fd5b506103d661088a366004615902565b6121fe565b34801561089a575f80fd5b50610437612243565b3480156108ae575f80fd5b506103d66108bd366004615902565b612254565b3480156108cd575f80fd5b506104376108dc366004615d96565b612296565b3480156108ec575f80fd5b506108f56123fe565b6040516103e0919081518152602080830151908201526040808301519082015260609182015163ffffffff169181019190915260800190565b348015610939575f80fd5b5061043761247b565b34801561094d575f80fd5b5061095661248b565b6040516103e09796959493929190615e05565b348015610974575f80fd5b506104987307a07a07a07a07a07a07a07a07a07a07a07a07a081565b34801561099b575f80fd5b506104376109aa366004615902565b6124f2565b6104376109bd366004615f28565b6125a2565b3480156109cd575f80fd5b506109e16109dc366004615fcf565b612814565b6040516103e09190615fed565b3480156109f9575f80fd5b50600d546201000090046001600160a01b0316610498565b348015610a1c575f80fd5b50610458612852565b348015610a30575f80fd5b506109e1610a3f366004615a93565b612861565b348015610a4f575f80fd5b506104376104ca366004616047565b348015610a69575f80fd5b506108f5610a7836600461607c565b61291a565b610437610a8b366004616095565b612994565b348015610a9b575f80fd5b50610437610aaa3660046160fc565b612a21565b348015610aba575f80fd5b50600d54600160b01b900463ffffffff1660405163ffffffff90911681526020016103e0565b348015610aeb575f80fd5b5061063d612a39565b348015610aff575f80fd5b506107b6610b0e36600461615f565b612b46565b348015610b1e575f80fd5b50610458610b2d36600461595b565b612bfc565b348015610b3d575f80fd5b506103d6610b4c366004616178565b612c6c565b348015610b5c575f80fd5b50610408610b6b3660046161d1565b612d4a565b348015610b7b575f80fd5b50600d54600160d81b900461ffff1660405161ffff90911681526020016103e0565b348015610ba8575f80fd5b50610437610bb7366004615b75565b612d77565b348015610bc7575f80fd5b50610437610bd6366004615902565b612df6565b348015610be6575f80fd5b50610437610bf5366004615902565b612f19565b348015610c05575f80fd5b50610c72610c14366004615902565b600f6020525f90815260409020546001600160a01b0381169063ffffffff600160a01b8204811691600160c01b81049091169060ff600160e01b8204811691600160e81b8104821691600160f01b8204811691600160f81b90041687565b6040516103e097969594939291906161f9565b5f6001600160e01b0319821663780e9d6360e01b1480610ca95750610ca982612f53565b92915050565b336002600160a01b0314610cdd57604051637eb3357160e01b81523360048201526024015b60405180910390fd5b5f5b81811015610e005736838383818110610cfa57610cfa61624c565b604002919091019150610d15905061086b6020830183615902565b15610d205750610df8565b60208101803590600b905f90610d369085615902565b6001600160a01b03166001600160a01b031681526020019081526020015f20541115610daa5760208101803590600b905f90610d729085615902565b6001600160a01b03166001600160a01b031681526020019081526020015f205f828254610d9f9190616274565b90915550610dbf9050565b610dbf610dba6020830183615902565b612fa2565b7f11a09f9b32440d896abff7453bf53f8b26ffcb18dae4dca227f7a76e2acc3a6481604051610dee9190616287565b60405180910390a1505b600101610cdf565b505050565b6001600160a01b0381165f90815260296020526040812080546060929190610e2c906162b0565b80601f0160208091040260200160405190810160405280929190818152602001828054610e58906162b0565b8015610ea35780601f10610e7a57610100808354040283529160200191610ea3565b820191905f5260205f20905b815481529060010190602001808311610e8657829003601f168201915b5050505050905080515f03610ca957604051635f7ba20d60e11b81526001600160a01b0384166004820152602401610cd4565b60605f8054610ee4906162b0565b80601f0160208091040260200160405190810160405280929190818152602001828054610f10906162b0565b8015610f5b5780601f10610f3257610100808354040283529160200191610f5b565b820191905f5260205f20905b815481529060010190602001808311610f3e57829003601f168201915b5050505050905090565b5f610f6f826130e1565b505f828152600460205260409020546001600160a01b0316610ca9565b60405163dc8d8db760e01b815260040160405180910390fd5b336002600160a01b0314610fce57604051637eb3357160e01b8152336004820152602401610cd4565b5f80826001600160401b03811115610fe857610fe8615bc7565b604051908082528060200260200182016040528015611011578160200160208202803683370190505b5090505f5b838110156110f557368585838181106110315761103161624c565b905060400201905080602001355f0361104a57506110ed565b61105a61086b6020830183615902565b1561106557506110ed565b5f600f816110766020850185615902565b6001600160a01b0316815260208082019290925260409081015f90812054600160f01b900460ff16808252600a84529181205491935090916110bb90850135836162e8565b90506110c781886162ff565b9650808686815181106110dc576110dc61624c565b602002602001018181525050505050505b600101611016565b50815f036111035750505050565b5f61110c612a39565b6020015190505f600e548261112191906162ff565b90505f805b868110156111dc575f868683815181106111425761114261624c565b60200260200101518561115591906162e8565b61115f9190616326565b905080156111d35780600b5f8b8b8681811061117d5761117d61624c565b6111939260206040909202019081019150615902565b6001600160a01b03166001600160a01b031681526020019081526020015f205f8282546111c091906162ff565b909155506111d0905081846162ff565b92505b50600101611126565b506111e78183616274565b600e5550505050505b5050565b6111fc613119565b61120533613142565b506112113360016131b0565b335f908152600f60205260409020600d5461123a908290600160b01b900463ffffffff16613216565b50565b6001600160a01b0381165f908152600f6020908152604080832054600160f01b900460ff16808452600a909252822054829182918261127c8783613287565b6001600160a01b03979097165f908152600b60205260409020549791969550909350505050565b6112ab615785565b6001600160a01b0382165f908152600f602052604090208054600160e81b900460ff166112dd576112db83613142565b505b6040805160e08101825282546001600160a01b038116825263ffffffff600160a01b820481166020840152600160c01b82041692820192909252908290606083019060ff600160e01b90910416600681111561133b5761133b61599a565b600681111561134c5761134c61599a565b8152905460ff600160e81b8204811615156020840152600160f01b820481166040840152600160f81b909104166060909101529392505050565b61138e613119565b61139733613142565b50602a54600d545f90601190600160d01b900460ff16600481106113bd576113bd61624c565b600302015490506113ce82826132c0565b6113d93360036131b0565b335f908152600f60205260409020600d54815463ffffffff600160b01b909204821691600160a01b9091041681101561142d57604051634fadd4d360e11b815263ffffffff82166004820152602401610cd4565b611436826132fd565b50505050565b611444613119565b3068929eee149b4bd2126854036114625763ab143c065f526004601cfd5b3068929eee149b4bd212685561147781613142565b506001600160a01b0381165f908152600f6020526040812054600160f01b900460ff16906114a48361335a565b9050336001600160a01b038416148015906114c85750336001600160a01b03821614155b156114f15760405163172b4e7560e11b81526001600160a01b0382166004820152602401610cd4565b5f6114fd848385613389565b9050816001600160a01b03167ffc30cddea38e2bf4d6ea7d3f9ed3b6ad7f176419f4963bd81318067a4aee73fe8260405161153a91815260200190565b60405180910390a25050503868929eee149b4bd212685550565b5f61155e836121fe565b821061158f5760405163295f44f760e21b81526001600160a01b038416600482015260248101839052604401610cd4565b506001600160a01b03919091165f908152600660209081526040808320938352929052205490565b6115bf61343e565b6040515f907307a07a07a07a07a07a07a07a07a07a07a07a07a09034908381818185875af1925050503d805f8114611612576040519150601f19603f3d011682016040523d82523d5f602084013e611617565b606091505b505090508061123a57604051630b567ce360e31b815260040160405180910390fd5b6040805160c08101825260608082525f6020830181905292820183905281018290526080810182905260a0810191909152600d54600160b01b900463ffffffff16611685816002616339565b63ffffffff168363ffffffff1611806116c5575060038163ffffffff16101580156116c557506116b6600382616355565b63ffffffff168363ffffffff16105b156116eb57604051634fadd4d360e11b815263ffffffff84166004820152602401610cd4565b600d54600160d01b900460ff1663ffffffff82811690851611156117cd57611714848383613472565b60408051825460e0602082028301810190935260c08201818152919392849291849184018282801561176d57602002820191905f5260205f20905b81546001600160a01b0316815260019091019060200180831161174f575b5050509183525050600182015460208201526002909101546001600160401b038116604083015263ffffffff600160401b820481166060840152600160601b820416608083015260ff600160801b9091041660a090910152949350505050565b6117148483836134fc565b601181600481106117e7575f80fd5b6003020160018101546002909101549091506001600160401b03811690600160401b810463ffffffff90811691600160601b810490911690600160801b900460ff1685565b6001600160a01b038082165f908152600c60205260408120600201549091161515610ca9565b61185a61343e565b61186261359d565b565b610e0083838360405180602001604052805f815250612a21565b5f61188860085490565b82106118b05760405163295f44f760e21b81525f600482015260248101839052604401610cd4565b600882815481106118c3576118c361624c565b905f5260205f2001549050919050565b601d81600481106117e7575f80fd5b6118ea613119565b3068929eee149b4bd2126854036119085763ab143c065f526004601cfd5b3068929eee149b4bd212685561191d82613142565b505f6119288361335a565b9050336001600160a01b0384161480159061194c5750336001600160a01b03821614155b156119755760405163172b4e7560e11b81526001600160a01b0382166004820152602401610cd4565b6001600160a01b0383165f908152600f602052604090208054600160e01b900460ff1660018160068111156119ac576119ac61599a565b141580156119cc575060028160068111156119c9576119c961599a565b14155b80156119ea575060038160068111156119e7576119e761599a565b14155b15611a0a5780604051633ba7bf8960e11b8152600401610cd49190616371565b815460ff600160f01b909104811690851681101580611a315750600d5460ff908116908616115b15611a5c57604051633abb443b60e21b815260ff808316600483015286166024820152604401610cd4565b60ff8082165f908152600a602052604080822054928816825290205481811115611ae2575f611a8b8383616274565b9050803414611aaf5760405163222d164360e21b8152346004820152602401610cd4565b6001600160a01b0389165f908152600b602052604081208054839290611ad69084906162ff565b90915550611cb1915050565b81811015611c90573415611b0b5760405163222d164360e21b8152346004820152602401610cd4565b5f611b168284616274565b6001600160a01b038a165f908152600b6020526040812054919250848210611b3f575081611b54565b83821115611b5457611b518483616274565b90505b8015611bf8576001600160a01b038b165f908152600b602052604081208054839290611b81908490616274565b9091555050604051634875485760e11b81526001600160a01b038a1660048201525f60248201527307a07a07a07a07a07a07a07a07a07a07a07a07a0906390ea90ae9083906044015f604051808303818588803b158015611be0575f80fd5b505af1158015611bf2573d5f803e3d5ffd5b50505050505b5f611c038285616274565b90508015611c87576040515f907307a07a07a07a07a07a07a07a07a07a07a07a07a09083908381818185875af1925050503d805f8114611c5e576040519150601f19603f3d011682016040523d82523d5f602084013e611c63565b606091505b5050905080611c8557604051630b567ce360e31b815260040160405180910390fd5b505b50505050611cb1565b3415611cb15760405163222d164360e21b8152346004820152602401610cd4565b845460ff60f01b1916600160f01b60ff8916021785556001600160a01b038089165f908152600c60205260409020600201541615611d1a576001600160a01b0388165f908152600c60205260409020600201805460ff60a01b1916600160a01b60ff8a16021790555b6040805160ff808616825289166020820152908101839052606081018290526001600160a01b038916907f27f993440568bc502fe7db72fe27118488431975dc3239b379513a4cdb08e2c99060800160405180910390a25050505050503868929eee149b4bd21268555050565b611d8f61343e565b8061ffff165f03611de257600d54601190600160d01b900460ff1660048110611dba57611dba61624c565b6003020154604051635700689f60e11b815260048101919091525f6024820152604401610cd4565b602a5461ffff8216811015611e1757604051635700689f60e11b81526004810182905261ffff83166024820152604401610cd4565b600d805461ffff848116600160d81b81810261ffff60d81b1985161790945560408051949093049091168084526020840191909152908201839052907f74cf7ca84b30b723e8b6e3cc569ec2db21f4ba2fcc09d651e5ce6770b91552f99060600160405180910390a1505050565b5f610ca9826130e1565b5f611e98612a39565b60a00151905090565b604051636850eb3160e01b815260609073__$2ef4e8110a3eaa1255da7f08f8eebcbf5a$__90636850eb3190611edd908690869060040161637f565b5f60405180830381865af4158015611ef7573d5f803e3d5ffd5b505050506040513d5f823e601f3d908101601f19168201604052611f1e91908101906163a8565b9392505050565b611f2d61343e565b611f36816121fe565b151580611f475750611f478161217a565b15611f7057604051639fb0877960e01b81526001600160a01b0382166004820152602401610cd4565b61123a816001600160a01b0381166135f0565b5f60608214611f9357505f610ca9565b5f611fd284848080601f0160208091040260200160405190810160405280939291908181526020018383808284375f9201919091525061365192505050565b5f818152601060205260409020549091506001600160a01b031680611ffb575f92505050610ca9565b6120048161217a565b15612013575f92505050610ca9565b506001949350505050565b60605f61202a83611639565b5f015190505f81516001600160401b0381111561204957612049615bc7565b60405190808252806020026020018201604052801561207c57816020015b60608152602001906001900390816120675790505b5090505f5b81518110156121725760295f84838151811061209f5761209f61624c565b60200260200101516001600160a01b03166001600160a01b031681526020019081526020015f2080546120d1906162b0565b80601f01602080910402602001604051908101604052809291908181526020018280546120fd906162b0565b80156121485780601f1061211f57610100808354040283529160200191612148565b820191905f5260205f20905b81548152906001019060200180831161212b57829003601f168201915b505050505082828151811061215f5761215f61624c565b6020908102919091010152600101612081565b509392505050565b5f61218d6001600160a01b03831661367f565b1561219957505f919050565b5f6001600160a01b0383165f908152600f6020526040902054600160e01b900460ff1660068111156121cd576121cd61599a565b036121d957505f919050565b506001600160a01b03165f908152600f6020526040902054600160e81b900460ff1690565b5f6001600160a01b038216612228576040516322718ad960e21b81525f6004820152602401610cd4565b506001600160a01b03165f9081526003602052604090205490565b61224b61343e565b6118625f6136d2565b6001600160a01b0381165f908152600f6020908152604080832054600160f01b900460ff16808452600a90925282205461228e8482613287565b949350505050565b336002600160a01b03146122bf57604051637eb3357160e01b8152336004820152602401610cd4565b6122c9828261372d565b600d54600160d81b900461ffff16811461230d57600d54604051635700689f60e11b8152600160d81b90910461ffff16600482015260248101829052604401610cd4565b5f805f8061234c8686808060200260200160405190810160405280939291908181526020018383602002808284375f9201919091525061380592505050565b935093509350935061235f868686613b2a565b602a5461236c90866132c0565b7fd1a5032a9ae65ebe520eba7974025750af3d884b6ab6047dad04dcf7006ab3856040518060c001604052808381526020018581526020014360016123b191906162ff565b6001600160401b0316815263ffffffff80881660208301528516604080830191909152600d5460ff16606090920191909152516123ee9190615aae565b60405180910390a1505050505050565b61242b60405180608001604052805f81526020015f81526020015f81526020015f63ffffffff1681525090565b50600d5460ff165f908152600a602090815260409182902082516080810184528154815260018201549281019290925260028101549282019290925260039091015463ffffffff16606082015290565b61248361343e565b611862613d6c565b600f60f81b6060805f8080836124e060408051808201825260148152732a32b631b7b4b71029ba30b5b2a6b0b730b3b2b960611b602080830191909152825180840190935260018352603160f81b9083015291565b97989097965046955030945091925090565b6124fa61343e565b6125038161217a565b15612524576006604051633ba7bf8960e11b8152600401610cd49190616371565b61252d81613142565b505f6001600160a01b0382165f908152600f6020526040902054600160e01b900460ff1660068111156125625761256261599a565b03612599576001600160a01b0381165f908152600f6020526040902061258790613dab565b61123a6001600160a01b038216613e2e565b61123a81612fa2565b6125aa613119565b5f6125eb858589898080601f0160208091040260200160405190810160405280939291908181526020018383808284375f92019190915250613e6692505050565b90505f6125f6612a39565b60a0015190505f6126073483613fe0565b905061261286613142565b5061261d865f6131b0565b6001600160a01b0386165f908152600c60205260409020600201546001600160401b03600160a81b90910416612662600d546001600160a01b03620100009091041690565b6001600160a01b0316336001600160a01b031614612711575f7f9a361e91fa9aa610b5edf1d5c1cc20b9646c4228f3c004354ed2de7635dac99485893387866040516020016126b69695949392919061641c565b6040516020818303038152906040528051906020012090505f6126d88261401b565b90506126e689828a8a614131565b61270e57604051633b4f6e2b60e21b81526001600160a01b038a166004820152602401610cd4565b50505b6040518060a00160405280858152602001886001600160a01b03168152602001336001600160a01b031681526020018460ff168152602001826001612756919061645a565b6001600160401b039081169091526001600160a01b038981165f908152600c602090815260409182902085518155908501516001820180546001600160a01b03191691851691909117905590840151600290910180546060860151608090960151929093166001600160a81b031990931692909217600160a01b60ff909516949094029390931767ffffffffffffffff60a81b1916600160a81b93909216929092021790556128088a8a898686614204565b50505050505050505050565b60605f8260068111156128295761282961599a565b036128495781604051633ba7bf8960e11b8152600401610cd49190616371565b610ca9826143a0565b606060018054610ee4906162b0565b60605f61286d83611639565b5f015190505f81516001600160401b0381111561288c5761288c615bc7565b6040519080825280602002602001820160405280156128c557816020015b6128b2615785565b8152602001906001900390816128aa5790505b5090505f5b8151811015612172576128f58382815181106128e8576128e861624c565b60200260200101516112a3565b8282815181106129075761290761624c565b60209081029190910101526001016128ca565b61294760405180608001604052805f81526020015f81526020015f81526020015f63ffffffff1681525090565b5060ff165f908152600a602090815260409182902082516080810184528154815260018201549281019290925260028101549282019290925260039091015463ffffffff16606082015290565b61299c613119565b6129dc813385858080601f0160208091040260200160405190810160405280939291908181526020018383808284375f92019190915250613e6692505050565b505f6129e6612a39565b60a0015190505f6129f73483613fe0565b9050612a0233613142565b50612a0d335f6131b0565b612a1a8585338585614204565b5050505050565b612a2c848484610f8c565b61143633858585856145b0565b6040805160c08101825260608082525f6020830181905292820183905281018290526080810182905260a0810191909152600d54612a9090600160b01b810463ffffffff16908190600160d01b900460ff166134fc565b60408051825460e0602082028301810190935260c082018181529193928492918491840182828015612ae957602002820191905f5260205f20905b81546001600160a01b03168152600190910190602001808311612acb575b5050509183525050600182015460208201526002909101546001600160401b038116604083015263ffffffff600160401b820481166060840152600160601b820416608083015260ff600160801b9091041660a090910152919050565b5f612b4f61343e565b612b57613119565b612b676080830160608401615a93565b63ffffffff165f03612ba557612b836080830160608401615a93565b604051630c6e911360e41b815263ffffffff9091166004820152602401610cd4565b600d80545f91908290612bba9060ff16616479565b825460ff8083166101009490940a848102910219909116179092555f908152600a602052604090209091508390612bf18282616497565b50909150505b919050565b6060612c07826130e1565b505f612c42612c15846146d7565b612c1d614785565b604051602001612c2e9291906164f1565b6040516020818303038152906040526147cf565b905080604051602001612c5591906165e0565b604051602081830303815290604052915050919050565b5f612c7683613142565b508351606014612c99576040516333a234f960e11b815260040160405180910390fd5b5f612ca2612a39565b60a001516001600160a01b0385165f908152600c6020526040812060020154919250600160a81b9091046001600160401b031690612cdf87613651565b90505f7f9a361e91fa9aa610b5edf1d5c1cc20b9646c4228f3c004354ed2de7635dac9948288888787604051602001612d1d9695949392919061641c565b604051602081830303815290604052805190602001209050612d3e8161401b565b98975050505050505050565b6001600160a01b039182165f90815260056020908152604080832093909416825291909152205460ff1690565b612d7f61343e565b612d8882613142565b506001600160a01b0382165f818152600f602090815260409182902080546001600160f81b0316600160f81b60ff87169081029190911790915591519182527ffa96cc66d1772e5646f86e374867e4e32b5b448b2aadb331568e34c2d063e455910160405180910390a25050565b612dfe613119565b3068929eee149b4bd212685403612e1c5763ab143c065f526004601cfd5b3068929eee149b4bd2126855612e3181613142565b505f612e3c8261335a565b9050336001600160a01b03831614801590612e605750336001600160a01b03821614155b15612e895760405163172b4e7560e11b81526001600160a01b0382166004820152602401610cd4565b6001600160a01b0382165f908152600f60205260409020612ea9816147f5565b612ec8578060405163c11d33f760e01b8152600401610cd49190616611565b612ed181613dab565b5f612edc848461488e565b9050826001600160a01b03167ffc30cddea38e2bf4d6ea7d3f9ed3b6ad7f176419f4963bd81318067a4aee73fe8260405161153a91815260200190565b612f2161343e565b6001600160a01b038116612f4a57604051631e4fbdf760e01b81525f6004820152602401610cd4565b61123a816136d2565b5f6001600160e01b031982166380ac58cd60e01b1480612f8357506001600160e01b03198216635b5e139f60e01b145b80610ca957506301ffc9a760e01b6001600160e01b0319831614610ca9565b6001600160a01b0381165f908152600f602052604090208054602a54600160e01b90910460ff1690612fd382614a58565b15612fe657612fe3600182616274565b90505b612ff08482614aab565b5f80612ffb8661123d565b506001600160a01b0388165f908152600b602052604081208190559193509150818310613028578161302a565b825b6040519091505f907307a07a07a07a07a07a07a07a07a07a07a07a07a09083908381818185875af1925050503d805f8114613080576040519150601f19603f3d011682016040523d82523d5f602084013e613085565b606091505b50509050806130a757604051630b567ce360e31b815260040160405180910390fd5b600d546130c2908890600160b01b900463ffffffff16614be3565b6130cb87613dab565b5f6130d58961335a565b9050612808898261488e565b5f818152600260205260408120546001600160a01b031680610ca957604051637e27328960e01b815260048101849052602401610cd4565b600d54610100900460ff16156118625760405163d93c066560e01b815260040160405180910390fd5b5f6001600160a01b0382166131568161367f565b6131765760405163ed15e6cf60e01b815260048101829052602401610cd4565b826001600160a01b031661318982611e85565b6001600160a01b031614610ca9576040516330fa89ab60e11b815260040160405180910390fd5b6001600160a01b0382165f908152600f6020526040902054600160e01b900460ff168160068111156131e4576131e461599a565b8160068111156131f6576131f661599a565b14610e005780604051633ba7bf8960e11b8152600401610cd49190616371565b613221816001616339565b825463ffffffff91909116600160a01b0263ffffffff60a01b1990911617825561324c826002614c3a565b7f44f68a196beb8e3ae6b6afe9504db62c81b4e511e987a263b4f1a9bc49c907628260405161327b9190616611565b60405180910390a15050565b6001600160a01b0382165f908152600b6020526040812054818382116132ad575f6132b7565b6132b78483616274565b95945050505050565b8115806132cb575080155b806132d557508181115b156111f057604051635700689f60e11b81526004810183905260248101829052604401610cd4565b613308816004614c3a565b805463ffffffff60c01b191663ffffffff60c01b1781556040517f170cba9e80cc0d156bc6ed689fa1d09ee788e1000c092512ef8698454b2081ee9061334f908390616611565b60405180910390a150565b6001600160a01b038082165f908152600c602052604081206002810154919290911680611f1e57509192915050565b5f806133958584614d02565b6001600160a01b0386165f908152600b60205260408120805492935083929091906133c1908490616274565b9091555050604051634875485760e11b81526001600160a01b0385166004820152602481018290527307a07a07a07a07a07a07a07a07a07a07a07a07a0906390ea90ae906044015f604051808303815f87803b15801561341f575f80fd5b505af1158015613431573d5f803e3d5ffd5b5092979650505050505050565b600d546001600160a01b03620100009091041633146118625760405163118cdaa760e01b8152336004820152602401610cd4565b5f806004836134818688616355565b61348b9190616685565b613495919061669e565b90505f601d8260ff16600481106134ae576134ae61624c565b6003020190508563ffffffff168160020160089054906101000a900463ffffffff1663ffffffff16146132b757604051634fadd4d360e11b815263ffffffff87166004820152602401610cd4565b5f806135088585616355565b90505f6004826135188683616685565b61352291906166bf565b61352c919061669e565b90505f60118260ff16600481106135455761354561624c565b6003020190508663ffffffff168160020160089054906101000a900463ffffffff1663ffffffff161461359357604051634fadd4d360e11b815263ffffffff88166004820152602401610cd4565b9695505050505050565b6135a5614d62565b600d805461ff00191690557f5db9ee0a495bf2e6ff9c91a7834c1ba4fdd244a5e8aa4e537bd38aeae4b073aa335b6040516001600160a01b03909116815260200160405180910390a1565b6001600160a01b03821661361957604051633250574960e11b81525f6004820152602401610cd4565b5f61362583835f614d8a565b90506001600160a01b03811615610e00576040516339e3563760e11b81525f6004820152602401610cd4565b604080516020838101516001600160fd1b031682528284015190820152606092830151918101919091522090565b5f81158061369457506001600160a01b038210155b156136b55760405163ed15e6cf60e01b815260048101839052602401610cd4565b505f908152600260205260409020546001600160a01b0316151590565b600d80546001600160a01b038381166201000081810262010000600160b01b031985161790945560405193909204169182907f8be0079c531659141344cd1fd0a4f28419497f9722a3daafe3b4186f6b6457e0905f90a35050565b60015b81811015610e005782828281811061374a5761374a61624c565b905060200201602081019061375f9190615902565b6001600160a01b03168383613775600185616274565b8181106137845761378461624c565b90506020020160208101906137999190615902565b6001600160a01b0316106137fd5782826137b4600184616274565b8181106137c3576137c361624c565b90506020020160208101906137d89190615902565b60405163836e3a7d60e01b81526001600160a01b039091166004820152602401610cd4565b600101613730565b600d545f9081908190606090600160d01b900460ff16826004613829836001616685565b613833919061669e565b600d805460ff60d01b1916600160d01b60ff841602178082559192505f9160169061386a90600160b01b900463ffffffff166166d8565b91906101000a81548163ffffffff021916908363ffffffff160217905590505f601d8360ff16600481106138a0576138a061624c565b6003020190505f6138af6123fe565b90506040518060c001604052808380548060200260200160405190810160405280929190818152602001828054801561390f57602002820191905f5260205f20905b81546001600160a01b031681526001909101906020018083116138f1575b505050918352505060408084015160208301520161392e43600161645a565b6001600160401b0316815263ffffffff80861660208301526060808501519091166040830152600d5460ff90811691909201526011908616600481106139765761397661624c565b600302015f820151815f0190805190602001906139949291906157c0565b50602082015160018201556040820151600291820180546060850151608086015160a0909601516001600160401b039094166bffffffffffffffffffffffff1990921691909117600160401b63ffffffff928316021764ffffffffff60601b1916600160601b919095160260ff60801b191693909317600160801b60ff90921691909102179091555f90600490613a2c908790616685565b613a36919061669e565b90508a601d8260ff1660048110613a4f57613a4f61624c565b600302015f019080519060200190613a689291906157c0565b50613a74846002616339565b601d8260ff1660048110613a8a57613a8a61624c565b6003020160020160086101000a81548163ffffffff021916908363ffffffff16021790555083826040015183606001518580805480602002602001604051908101604052809291908181526020018280548015613b0e57602002820191905f5260205f20905b81546001600160a01b03168152600190910190602001808311613af0575b5050505050905099509950995099505050505050509193509193565b5f613b3560026143a0565b90505f5b8151811015613b96575f600f5f848481518110613b5857613b5861624c565b60200260200101515f01516001600160a01b03166001600160a01b031681526020019081526020015f209050613b8d81614e55565b50600101613b39565b505f613ba260046143a0565b600d54909150600160d01b900460ff165f6004613bc0836001616685565b613bca919061669e565b90505f60118360ff1660048110613be357613be361624c565b60030201805460408051602080840282018101909252828152929190830182828015613c3657602002820191905f5260205f20905b81546001600160a01b03168152600190910190602001808311613c18575b505050505090505f601d8360ff1660048110613c5457613c5461624c565b60030201805460408051602080840282018101909252828152929190830182828015613ca757602002820191905f5260205f20905b81546001600160a01b03168152600190910190602001808311613c89575b505050505090505f5b8551811015612808575f868281518110613ccc57613ccc61624c565b60200260200101515f01519050613ce38185614e8f565b80613cf35750613cf38184614e8f565b80613d355750613d35818c8c808060200260200160405190810160405280939291908181526020018383602002808284375f92019190915250614e8f92505050565b15613d405750613d64565b6001600160a01b0381165f908152600f60205260409020613d61818b614be3565b50505b600101613cb0565b613d74613119565b600d805461ff0019166101001790557f62e78cea01bee320cd4e420270b5ea74000d11b0c9f74754ebdbfc544b05a2586135d33390565b8054600160e81b900460ff16158015613dd457508054613dd490600160e01b900460ff16614a58565b15613dec57602a5f8154613de7906166f3565b909155505b805461ffff60e01b1916608360e11b1781556040517ffab16134cb74fff6e7d137bf93f6b2ab4c1c61cbe53dad2c8cb57744353bd39b9061334f908390616611565b5f613e3a5f835f614d8a565b90506001600160a01b0381166111f057604051637e27328960e01b815260048101839052602401610cd4565b5f8151606014613e89576040516333a234f960e11b815260040160405180910390fd5b5f825f81518110613e9c57613e9c61624c565b016020015160f81c9050608081161580613eb857506040811615155b15613ed6576040516333a234f960e11b815260040160405180910390fd5b6020850151855160405163071917cf60e01b815273__$2ef4e8110a3eaa1255da7f08f8eebcbf5a$__9263071917cf92613f14928990600401616708565b602060405180830381865af4158015613f2f573d5f803e3d5ffd5b505050506040513d601f19601f82011682018060405250810190613f539190616745565b613f805784613f65865f015186611ea1565b604051634babb8f160e01b8152600401610cd4929190616760565b84516060808201519085015160408084015190870151602094850151948801516001600160fd1b03908116951694909414931492909216911416613fd657604051629fb4bd60e31b815260040160405180910390fd5b6132b78385614eec565b60ff81165f908152600a602052604081205483146140145760405163222d164360e21b815260048101849052602401610cd4565b5090919050565b7f00000000000000000000000000000000000000000000000000000000000000007f000000000000000000000000000000000000000000000000000000000000000030147f000000000000000000000000000000000000000000000000000000000000000046141661410e5750604080517f8b73c3c69bb8fe3d512ecc4cf759cc79239f7b179b0ffacaa9a75d522b39400f81527f000000000000000000000000000000000000000000000000000000000000000060208201527f00000000000000000000000000000000000000000000000000000000000000009181019190915246606082015230608082015260a090205b6719010000000000005f5280601a5281603a52604260182090505f603a52919050565b5f6001600160a01b0385161561228e57604051853b6141c1578260408114614161576041811461418857506141fb565b60208581013560ff81901c601b0190915285356040526001600160ff1b0316606052614199565b60408501355f1a6020526040856040375b50845f526020600160805f60015afa5180871860601b3d119250505f606052806040526141fb565b631626ba7e60e01b80825285600483015260248201604081528460448401528486606485013760208160648701858b5afa90519091141691505b50949350505050565b6040805160e0810182526001600160a01b0385811680835263ffffffff60208085018281525f8688018181526001606089019081526080890183905260ff8c1660a08a015260c08901839052958252600f9093529690962085518154975192518416600160c01b0263ffffffff60c01b1993909416600160a01b026001600160c01b0319909816951694909417959095179485168117835590519293849391839160ff60e01b1990911664ffffffffff60c01b1990911617600160e01b8360068111156142d3576142d361599a565b02179055506080820151815460a084015160c09094015161ffff60e81b19909116600160e81b9215159290920260ff60f01b191691909117600160f01b60ff94851602176001600160f81b0316600160f81b93909116929092029190911790556001600160a01b0384165f9081526029602052604090206143558688836167f0565b506001600160a01b0384165f908152600b602052604090819020839055517f9d9bab592843361c508cec6cc23820609c04fe07a621d03bf04b7520759d3641906123ee908390615a3a565b60605f6143ac60085490565b6001600160401b038111156143c3576143c3615bc7565b6040519080825280602002602001820160405280156143fc57816020015b6143e9615785565b8152602001906001900390816143e15790505b5090505f805b82518110156145a7575f61441b6144188361187e565b90565b6001600160a01b0381165f908152600f60205260409020805491925090600160e81b900460ff161561444e57505061459f565b5f60068860068111156144635761446361599a565b149050806144ca578154600160e01b900460ff16600389600681111561448b5761448b61599a565b036144a05761449981614a58565b91506144c8565b8860068111156144b2576144b261599a565b8160068111156144c4576144c461599a565b1491505b505b801561459b576040805160e08101825283546001600160a01b038116825263ffffffff600160a01b820481166020840152600160c01b82041692820192909252908390606083019060ff600160e01b90910416600681111561452e5761452e61599a565b600681111561453f5761453f61599a565b8152905460ff600160e81b8204811615156020840152600160f01b820481166040840152600160f81b90910416606090910152868661457d816168a9565b97508151811061458f5761458f61624c565b60200260200101819052505b5050505b600101614402565b50815292915050565b6001600160a01b0383163b15612a1a57604051630a85bd0160e11b81526001600160a01b0384169063150b7a02906145f29088908890879087906004016168c1565b6020604051808303815f875af192505050801561462c575060408051601f3d908101601f19168201909252614629918101906168f3565b60015b614693573d808015614659576040519150601f19603f3d011682016040523d82523d5f602084013e61465e565b606091505b5080515f0361468b57604051633250574960e11b81526001600160a01b0385166004820152602401610cd4565b805181602001fd5b6001600160e01b03198116630a85bd0160e11b146146cf57604051633250574960e11b81526001600160a01b0385166004820152602401610cd4565b505050505050565b60605f6146e383614f5c565b6028602282012090915060601c60295b600181111561477c57600782600f161180156147285750606083828151811061471e5761471e61624c565b016020015160f81c115b1561476557602060f81b8382815181106147445761474461624c565b0160200180516001600160f81b0319908116909218909116905f82901a9053505b60049190911c90614775816166f3565b90506146f3565b50909392505050565b60606147ab6040518061052001604052806104ed81526020016169546104ed91396147cf565b6040516020016147bb919061690e565b604051602081830303815290604052905090565b6060610ca982604051806060016040528060408152602001616e41604091396001614f72565b80545f90600160e01b900460ff1660018160068111156148175761481761599a565b036148255750600192915050565b82545f9061484190600160c01b900463ffffffff166001616339565b905060058260068111156148575761485761599a565b1480156148765750600d5463ffffffff808316600160b01b9092041610155b15614885575060019392505050565b505f9392505050565b5f6148a16001600160a01b038416613e2e565b6008545f036148c3576040516315ae672760e01b815260040160405180910390fd5b6001600160a01b0383165f908152600c602052604081208181556001810180546001600160a01b031916905560020180546001600160e81b0319169055808061490b8661123d565b925092509250825f0361492357829350505050610ca9565b6001600160a01b0386165f908152600b6020526040812081905582841061494b5750816149cf565b50825f7307a07a07a07a07a07a07a07a07a07a07a07a07a061496d8386616274565b6040515f81818185875af1925050503d805f81146149a6576040519150601f19603f3d011682016040523d82523d5f602084013e6149ab565b606091505b50509050806149cd57604051630b567ce360e31b815260040160405180910390fd5b505b604051634875485760e11b81526001600160a01b0387166004820152602481018390527307a07a07a07a07a07a07a07a07a07a07a07a07a0906390ea90ae9083906044015f604051808303818588803b158015614a2a575f80fd5b505af1158015614a3c573d5f803e3d5ffd5b50505050508181614a4d91906162ff565b979650505050505050565b5f6003826006811115614a6d57614a6d61599a565b1480614a8a57506004826006811115614a8857614a8861599a565b145b80610ca957506002826006811115614aa457614aa461599a565b1492915050565b600d54600160b01b810463ffffffff1690600160d01b900460ff165f614ad28380846134fc565b9050614ade81866150ec565b508054614aeb85826132c0565b5f614af7856001616339565b90505f614b05828787613472565b9050614b1181896150ec565b5080549250614b2087846132c0565b5f614b2c876002616339565b90505f614b3a828989613472565b9050614b46818b6150ec565b5080549450614b5589866132c0565b600d54600160d81b900461ffff1689101561280857600d805461ffff8b8116600160d81b90810261ffff60d81b1984161793849055604080519382900483168085529190940490911660208301529181018b90527f74cf7ca84b30b723e8b6e3cc569ec2db21f4ba2fcc09d651e5ce6770b91552f99060600160405180910390a15050505050505050505050565b614bee826005614c3a565b815463ffffffff60c01b1916600160c01b63ffffffff8316021782556040517f727bfc4079207401298f48a3f1a92c9b40d83e086fe5b584a7b0644fdbdb56ee9061327b908490616611565b81545f90600160e81b900460ff16158015614c6557508254614c6590600160e01b900460ff16614a58565b83549091505f90600160e81b900460ff16158015614c875750614c8783614a58565b9050818015614c94575080155b15614cb057602a5f8154614ca7906166f3565b90915550614cd3565b81158015614cbb5750805b15614cd357602a5f8154614cce906168a9565b909155505b83548390859060ff60e01b1916600160e01b836006811115614cf757614cf761599a565b021790555050505050565b60ff81165f908152600a602052604081205481614d1f8583613287565b9050801580614d41575060ff84165f908152600a602052604090206001015481105b1561228e57604051633737b70960e11b815260048101829052602401610cd4565b600d54610100900460ff1661186257604051638dfc202b60e01b815260040160405180910390fd5b5f80614d978585856151e7565b90506001600160a01b038116614df357614dee84600880545f838152600960205260408120829055600182018355919091527ff3f7a9fe364faab93b216da50a3214154f22a0a2b415b23a84c8169e8b636ee30155565b614e16565b846001600160a01b0316816001600160a01b031614614e1657614e1681856152d9565b6001600160a01b038516614e3257614e2d84615356565b61228e565b846001600160a01b0316816001600160a01b03161461228e5761228e85856153fd565b614e60816003614c3a565b7fabab4191fe954f07230f7e34fd48dc0fdcbed492526cd060001cccceab22851b8160405161334f9190616611565b80515f90815b81811015614ee257846001600160a01b0316848281518110614eb957614eb961624c565b60200260200101516001600160a01b031603614eda57600192505050610ca9565b600101614e95565b505f949350505050565b5f614ef683613651565b5f818152601060205260409020549091506001600160a01b031615614f2e57604051638d12779f60e01b815260040160405180910390fd5b5f81815260106020526040902080546001600160a01b0384166001600160a01b031990911617905592915050565b6060610ca96001600160a01b038316601461544b565b606083515f03614f90575060408051602081019091525f8152611f1e565b5f82614fc057600385516004614fa691906162e8565b614fb19060026162ff565b614fbb9190616326565b614fe5565b600385516002614fd091906162ff565b614fda9190616326565b614fe59060046162e8565b90505f816001600160401b0381111561500057615000615bc7565b6040519080825280601f01601f19166020018201604052801561502a576020820181803683370190505b509050600185016020820187885189016020810180515f82525b8284101561509f576003840193508351603f8160121c168701518653600186019550603f81600c1c168701518653600186019550603f8160061c168701518653600186019550603f8116870151865350600185019450615044565b9052505085156150e0576003885106600181146150c357600281146150d6576150de565b603d6001830353603d60028303536150de565b603d60018303535b505b50909695505050505050565b81545f90815b81811015614ee257836001600160a01b03168582815481106151165761511661624c565b5f918252602090912001546001600160a01b0316036151df578461513b600184616274565b8154811061514b5761514b61624c565b905f5260205f20015f9054906101000a90046001600160a01b03168582815481106151785761517861624c565b905f5260205f20015f6101000a8154816001600160a01b0302191690836001600160a01b03160217905550848054806151b3576151b361693f565b5f8281526020902081015f1990810180546001600160a01b03191690550190555060019150610ca99050565b6001016150f2565b5f828152600260205260408120546001600160a01b0390811690831615615213576152138184866155bc565b6001600160a01b0381161561524d5761522e5f855f80615620565b6001600160a01b0381165f90815260036020526040902080545f190190555b6001600160a01b0385161561527b576001600160a01b0385165f908152600360205260409020805460010190555b5f8481526002602052604080822080546001600160a01b0319166001600160a01b0389811691821790925591518793918516917fddf252ad1be2c89b69c2b068fc378daa952ba7f163c4a11628f55a4df523b3ef91a4949350505050565b5f6152e3836121fe565b5f838152600760209081526040808320546001600160a01b0388168452600690925290912091925090818314615338575f83815260208281526040808320548584528184208190558352600790915290208290555b5f938452600760209081526040808620869055938552525081205550565b6008545f9061536790600190616274565b5f838152600960205260408120546008805493945090928490811061538e5761538e61624c565b905f5260205f200154905080600883815481106153ad576153ad61624c565b5f9182526020808320909101929092558281526009909152604080822084905585825281205560088054806153e4576153e461693f565b600190038181905f5260205f20015f9055905550505050565b5f6001615409846121fe565b6154139190616274565b6001600160a01b039093165f908152600660209081526040808320868452825280832085905593825260079052919091209190915550565b6060825f61545a8460026162e8565b6154659060026162ff565b6001600160401b0381111561547c5761547c615bc7565b6040519080825280601f01601f1916602001820160405280156154a6576020820181803683370190505b509050600360fc1b815f815181106154c0576154c061624c565b60200101906001600160f81b03191690815f1a905350600f60fb1b816001815181106154ee576154ee61624c565b60200101906001600160f81b03191690815f1a9053505f6155108560026162e8565b61551b9060016162ff565b90505b6001811115615592576f181899199a1a9b1b9c1cb0b131b232b360811b83600f166010811061554f5761554f61624c565b1a60f81b8282815181106155655761556561624c565b60200101906001600160f81b03191690815f1a90535060049290921c9161558b816166f3565b905061551e565b50811561228e5760405163e22e27eb60e01b81526004810186905260248101859052604401610cd4565b6155c7838383615724565b610e00576001600160a01b0383166155f557604051637e27328960e01b815260048101829052602401610cd4565b60405163177e802f60e01b81526001600160a01b038316600482015260248101829052604401610cd4565b808061563457506001600160a01b03821615155b156156f5575f615643846130e1565b90506001600160a01b0383161580159061566f5750826001600160a01b0316816001600160a01b031614155b801561568257506156808184612d4a565b155b156156ab5760405163a9fbf51f60e01b81526001600160a01b0384166004820152602401610cd4565b81156156f35783856001600160a01b0316826001600160a01b03167f8c5be1e5ebec7d5bd14f71427d1e84f3dd0314c0f7b2291e5b200ac8c7c3b92560405160405180910390a45b505b50505f90815260046020526040902080546001600160a01b0319166001600160a01b0392909216919091179055565b5f6001600160a01b0383161580159061228e5750826001600160a01b0316846001600160a01b0316148061575d575061575d8484612d4a565b8061228e5750505f908152600460205260409020546001600160a01b03908116911614919050565b6040805160e0810182525f8082526020820181905291810182905290606082019081525f602082018190526040820181905260609091015290565b828054828255905f5260205f20908101928215615813579160200282015b8281111561581357825182546001600160a01b0319166001600160a01b039091161782556020909201916001909101906157de565b5061581f929150615823565b5090565b5b8082111561581f575f8155600101615824565b6001600160e01b03198116811461123a575f80fd5b5f6020828403121561585c575f80fd5b8135611f1e81615837565b5f8083601f840112615877575f80fd5b5081356001600160401b0381111561588d575f80fd5b6020830191508360208260061b85010111156158a7575f80fd5b9250929050565b5f80602083850312156158bf575f80fd5b82356001600160401b038111156158d4575f80fd5b6158e085828601615867565b90969095509350505050565b80356001600160a01b0381168114612bf7575f80fd5b5f60208284031215615912575f80fd5b611f1e826158ec565b5f81518084528060208401602086015e5f602082860101526020601f19601f83011685010191505092915050565b602081525f611f1e602083018461591b565b5f6020828403121561596b575f80fd5b5035919050565b5f8060408385031215615983575f80fd5b61598c836158ec565b946020939093013593505050565b634e487b7160e01b5f52602160045260245ffd5b600781106159ca57634e487b7160e01b5f52602160045260245ffd5b9052565b60018060a01b03815116825263ffffffff602082015116602083015263ffffffff60408201511660408301526060810151615a0c60608401826159ae565b5060808101511515608083015260ff60a08201511660a083015260c0810151610e0060c084018260ff169052565b60e08101610ca982846159ce565b5f805f60608486031215615a5a575f80fd5b615a63846158ec565b9250615a71602085016158ec565b929592945050506040919091013590565b63ffffffff8116811461123a575f80fd5b5f60208284031215615aa3575f80fd5b8135611f1e81615a82565b6020808252825160c083830152805160e084018190525f92919091019082906101008501905b80831015615aff5783516001600160a01b031682526020938401936001939093019290910190615ad4565b506020860151604086015260408601519250615b2660608601846001600160401b03169052565b606086015163ffffffff811660808701529250608086015163ffffffff811660a0870152925060a086015160ff811660c0870152925095945050505050565b803560ff81168114612bf7575f80fd5b5f8060408385031215615b86575f80fd5b615b8f836158ec565b9150615b9d60208401615b65565b90509250929050565b5f60208284031215615bb6575f80fd5b813561ffff81168114611f1e575f80fd5b634e487b7160e01b5f52604160045260245ffd5b604051601f8201601f191681016001600160401b0381118282101715615c0357615c03615bc7565b604052919050565b5f6001600160401b03821115615c2357615c23615bc7565b50601f01601f191660200190565b5f82601f830112615c40575f80fd5b8135615c53615c4e82615c0b565b615bdb565b818152846020838601011115615c67575f80fd5b816020850160208301375f918101602001919091529392505050565b5f8060408385031215615c94575f80fd5b82356001600160401b03811115615ca9575f80fd5b615cb585828601615c31565b925050615b9d602084016158ec565b5f8083601f840112615cd4575f80fd5b5081356001600160401b03811115615cea575f80fd5b6020830191508360208285010111156158a7575f80fd5b5f8060208385031215615d12575f80fd5b82356001600160401b03811115615d27575f80fd5b6158e085828601615cc4565b5f602082016020835280845180835260408501915060408160051b8601019250602086015f5b82811015615d8a57603f19878603018452615d7585835161591b565b94506020938401939190910190600101615d59565b50929695505050505050565b5f8060208385031215615da7575f80fd5b82356001600160401b03811115615dbc575f80fd5b8301601f81018513615dcc575f80fd5b80356001600160401b03811115615de1575f80fd5b8560208260051b8401011115615df5575f80fd5b6020919091019590945092505050565b60ff60f81b8816815260e060208201525f615e2360e083018961591b565b8281036040840152615e35818961591b565b606084018890526001600160a01b038716608085015260a0840186905283810360c0850152845180825260208087019350909101905f5b81811015615e8a578351835260209384019390920191600101615e6c565b50909b9a5050505050505050505050565b5f60408284031215615eab575f80fd5b604080519081016001600160401b0381118282101715615ecd57615ecd615bc7565b60405290508082356001600160401b03811115615ee8575f80fd5b615ef485828601615c31565b82525060208301356001600160401b03811115615f0f575f80fd5b615f1b85828601615c31565b6020830152505092915050565b5f805f805f8060808789031215615f3d575f80fd5b86356001600160401b03811115615f52575f80fd5b615f5e89828a01615cc4565b90975095505060208701356001600160401b03811115615f7c575f80fd5b615f8889828a01615e9b565b945050615f97604088016158ec565b925060608701356001600160401b03811115615fb1575f80fd5b615fbd89828a01615cc4565b979a9699509497509295939492505050565b5f60208284031215615fdf575f80fd5b813560078110611f1e575f80fd5b602080825282518282018190525f918401906040840190835b8181101561602f576160198385516159ce565b6020939093019260e09290920191600101616006565b509095945050505050565b801515811461123a575f80fd5b5f8060408385031215616058575f80fd5b616061836158ec565b915060208301356160718161603a565b809150509250929050565b5f6020828403121561608c575f80fd5b611f1e82615b65565b5f805f604084860312156160a7575f80fd5b83356001600160401b038111156160bc575f80fd5b6160c886828701615cc4565b90945092505060208401356001600160401b038111156160e6575f80fd5b6160f286828701615e9b565b9150509250925092565b5f805f806080858703121561610f575f80fd5b616118856158ec565b9350616126602086016158ec565b92506040850135915060608501356001600160401b03811115616147575f80fd5b61615387828801615c31565b91505092959194509250565b5f6080828403128015616170575f80fd5b509092915050565b5f805f6060848603121561618a575f80fd5b83356001600160401b0381111561619f575f80fd5b6161ab86828701615c31565b9350506161ba602085016158ec565b91506161c8604085016158ec565b90509250925092565b5f80604083850312156161e2575f80fd5b6161eb836158ec565b9150615b9d602084016158ec565b6001600160a01b038816815263ffffffff87811660208301528616604082015260e0810161622a60608301876159ae565b931515608082015260ff92831660a0820152911660c090910152949350505050565b634e487b7160e01b5f52603260045260245ffd5b634e487b7160e01b5f52601160045260245ffd5b81810381811115610ca957610ca9616260565b604081016001600160a01b0361629c846158ec565b168252602092830135929091019190915290565b600181811c908216806162c457607f821691505b6020821081036162e257634e487b7160e01b5f52602260045260245ffd5b50919050565b8082028115828204841417610ca957610ca9616260565b80820180821115610ca957610ca9616260565b634e487b7160e01b5f52601260045260245ffd5b5f8261633457616334616312565b500490565b63ffffffff8181168382160190811115610ca957610ca9616260565b63ffffffff8281168282160390811115610ca957610ca9616260565b60208101610ca982846159ae565b604081525f616391604083018561591b565b905060018060a01b03831660208301529392505050565b5f602082840312156163b8575f80fd5b81516001600160401b038111156163cd575f80fd5b8201601f810184136163dd575f80fd5b80516163eb615c4e82615c0b565b8181528560208385010111156163ff575f80fd5b8160208401602083015e5f91810160200191909152949350505050565b95865260208601949094526001600160a01b0392831660408601529116606084015260ff1660808301526001600160401b031660a082015260c00190565b6001600160401b038181168382160190811115610ca957610ca9616260565b5f60ff821660ff810361648e5761648e616260565b60010192915050565b8135815560208201356001820155604082013560028201556003810160608301356164c181615a82565b815463ffffffff191663ffffffff919091161790555050565b5f81518060208401855e5f93019283525090919050565b7f7b226e616d65223a202254656c636f696e2d4e6574776f726b20436f6e73656e8152651cdd5cd3919560d21b60208201525f61653160268301856164da565b7f222c20226465736372697074696f6e223a2022455243373231204e465420776881527f6f7365206f776e657273686970206c656467657220726570726573656e74732060208201527f746865207065726d697373696f6e65642077686974656c69737420666f72207660408201527530b634b230ba37b9399116101134b6b0b3b2911d101160511b60608201526165cc60768201856164da565b61227d60f01b815260020195945050505050565b7f646174613a6170706c69636174696f6e2f6a736f6e3b6261736536342c00000081525f611f1e601d8301846164da565b81546001600160a01b038116825263ffffffff60a082901c8116602084015260c082901c16604083015260e08201906166536060840160ff8360e01c166159ae565b6166676080840160ff8360e81c1615159052565b60f081901c60ff1660a084015260f881901c60c08401525092915050565b60ff8181168382160190811115610ca957610ca9616260565b5f60ff8316806166b0576166b0616312565b8060ff84160691505092915050565b60ff8281168282160390811115610ca957610ca9616260565b5f63ffffffff821663ffffffff810361648e5761648e616260565b5f8161670157616701616260565b505f190190565b606081525f61671a606083018661591b565b828103602084015261672c818661591b565b91505060018060a01b0383166040830152949350505050565b5f60208284031215616755575f80fd5b8151611f1e8161603a565b604081525f835160408084015261677a608084018261591b565b90506020850151603f19848303016060850152616797828261591b565b91505082810360208401526132b7818561591b565b601f821115610e0057805f5260205f20601f840160051c810160208510156167d15750805b601f840160051c820191505b81811015612a1a575f81556001016167dd565b6001600160401b0383111561680757616807615bc7565b61681b8361681583546162b0565b836167ac565b5f601f84116001811461684c575f85156168355750838201355b5f19600387901b1c1916600186901b178355612a1a565b5f83815260208120601f198716915b8281101561687b578685013582556020948501946001909201910161685b565b5086821015616897575f1960f88860031b161c19848701351681555b505060018560011b0183555050505050565b5f600182016168ba576168ba616260565b5060010190565b6001600160a01b03858116825284166020820152604081018390526080606082018190525f906135939083018461591b565b5f60208284031215616903575f80fd5b8151611f1e81615837565b7f646174613a696d6167652f7376672b786d6c3b6261736536342c00000000000081525f611f1e601a8301846164da565b634e487b7160e01b5f52603160045260245ffdfe3c7376672077696474683d22373922206865696768743d223830222076696577426f783d22302030203739203830222066696c6c3d226e6f6e652220786d6c6e733d22687474703a2f2f7777772e77332e6f72672f323030302f737667223e203c6d61736b2069643d226d61736b305f3834395f3334313722207374796c653d226d61736b2d747970653a616c70686122206d61736b556e6974733d227573657253706163654f6e5573652220783d22302220793d2230222077696474683d22373922206865696768743d223830223e203c726563742077696474683d2237382e30303522206865696768743d223830222066696c6c3d2223433443344334222f3e203c2f6d61736b3e203c67206d61736b3d2275726c28236d61736b305f3834395f3334313729223e203c7265637420783d2231372e393534362220793d2231382e33353435222077696474683d2234322e3239343322206865696768743d2234332e32393138222066696c6c3d227768697465222f3e203c7061746820643d224d37342e323336392032312e393839324337362e363930382032342e303331352037382e323338392032382e323537372037372e363937392033312e333733334c37322e343136362036312e333235334337312e3836362036342e343437352036382e393539322036372e383739382036352e393632392036382e393631324c33372e313934372037392e333334344333342e313938342038302e343135372032392e373432312037392e363239392032372e323936342037372e3538394c332e3831312035382e3030323143312e33353730382035352e39353938202d302e31393233382035312e3734313720302e3335383134382034382e363139354c352e36333935312031382e3636373443362e31393030342031352e3534353220392e30393638372031322e313132392031322e303933322031312e303331364c34302e3835393920302e3636363435334334332e38353632202d302e3431343835372034382e3331323520302e3337303930392035302e3735383320322e343131384c37342e323336392032312e393839325a4d34392e373634352033352e343336394c35302e393336342032392e333531334c33392e393531372032392e333638374c34312e3531362032312e333432344c33372e393538332032312e333432344333372e393538332032312e333432342033342e363332382032372e323930312032372e333030362033302e323031394c32362e323839392033352e343530334c33312e303933362033352e34364333312e303933362033352e34362032392e343637342034332e303032392032382e393331362034352e373835344332372e353637372035322e383638322033302e393830362035372e383933392033362e323238312035372e383933394333382e383630362035372e383933392034312e3831372035372e383933392034352e303937322035372e383933394c34362e363532342035312e313636364334362e323734322035312e313636362034332e383031332035312e313636362033392e323333362035312e313636364333352e393336342035312e313636362033362e313039392034392e333138392033362e373433312034362e303330354c33382e373833382033352e343333334c34392e373634352033352e343336395a222066696c6c3d2223313443384646222f3e203c2f673e203c2f7376673e4142434445464748494a4b4c4d4e4f505152535455565758595a6162636465666768696a6b6c6d6e6f707172737475767778797a303132333435363738392b2fa164736f6c634300081a000a","linkReferences":{"src/consensus/BlsG1.sol":{"BlsG1":[{"start":2273,"length":20},{"start":2646,"length":20},{"start":14428,"length":20},{"start":22677,"length":20}]}}},"methodIdentifiers":{"SYSTEM_ADDRESS()":"3434735f","activate()":"0f15f4c0","allocateIssuance()":"355811a7","applyIncentives((address,uint256)[])":"0a36cdef","applySlashes((address,uint256)[])":"02ae337b","approve(address,uint256)":"095ea7b3","balanceOf(address)":"70a08231","beginExit()":"2228dfa0","burn(address)":"89afcb44","claimStakeRewards(address)":"2b9f4985","concludeEpoch(address[])":"7b55a300","delegateStake(bytes,(bytes,bytes),address,bytes)":"8bb43f3a","delegationDigest(bytes,address,address)":"e3716d04","eip712Domain()":"84b0196e","epochInfo(uint256)":"3894228e","futureEpochInfo(uint256)":"59ca93b6","getApproved(uint256)":"081812fc","getBalanceBreakdown(address)":"15b5709a","getBlsPubkey(address)":"059b916c","getCommitteeBlsPubkeys(uint32)":"6ae9942c","getCommitteeValidators(uint32)":"a0201be5","getCurrentEpoch()":"b97dd9e2","getCurrentEpochInfo()":"babc394f","getCurrentStakeConfig()":"7d06fdf8","getCurrentStakeVersion()":"67398331","getEligibleValidatorCount()":"23a40430","getEpochInfo(uint32)":"374ed18c","getNextCommitteeSize()":"eb8535c2","getRewards(address)":"79ee54f7","getValidator(address)":"1904bb2e","getValidators(uint8)":"8cc05eda","isApprovedForAll(address,address)":"e985e9c5","isDelegated(address)":"3e28391d","isRetired(address)":"6d3c6275","isValidator(bytes)":"6a926591","issuance()":"863623bb","mint(address)":"6a627842","name()":"06fdde03","owner()":"8da5cb5b","ownerOf(uint256)":"6352211e","pause()":"8456cb59","paused()":"5c975abb","proofOfPossessionMessage(bytes,address)":"6850eb31","renounceOwnership()":"715018a6","safeTransferFrom(address,address,uint256)":"42842e0e","safeTransferFrom(address,address,uint256,bytes)":"b88d4fde","setApprovalForAll(address,bool)":"a22cb465","setNextCommitteeSize(uint16)":"62fcde4b","setValidatorRegion(address,uint8)":"f0624768","stake(bytes,(bytes,bytes))":"b5184324","stakeConfig(uint8)":"a71954ec","supportsInterface(bytes4)":"01ffc9a7","symbol()":"95d89b41","tokenByIndex(uint256)":"4f6ccce7","tokenOfOwnerByIndex(address,uint256)":"2f745c59","tokenURI(uint256)":"c87b56dd","totalSupply()":"18160ddd","transferFrom(address,address,uint256)":"23b872dd","transferOwnership(address)":"f2fde38b","undistributedIssuance()":"008d6acd","unpause()":"3f4ba83a","unstake(address)":"f2888dbb","upgradeStakeVersion((uint256,uint256,uint256,uint32))":"c05df7ac","upgradeValidatorStakeVersion(address,uint8)":"5a41fb1f","validators(address)":"fa52c7d8"},"id":53}