{"abi":[{"type":"constructor","inputs":[{"name":"genesisConfig_","type":"tuple","internalType":"struct IStakeManager.StakeConfig","components":[{"name":"stakeAmount","type":"uint256","internalType":"uint256"},{"name":"minWithdrawAmount","type":"uint256","internalType":"uint256"},{"name":"epochIssuance","type":"uint256","internalType":"uint256"},{"name":"epochDuration","type":"uint32","internalType":"uint32"}]},{"name":"initialValidators_","type":"tuple[]","internalType":"struct IConsensusRegistry.ValidatorInfo[]","components":[{"name":"blsPubkey","type":"bytes","internalType":"bytes"},{"name":"validatorAddress","type":"address","internalType":"address"},{"name":"activationEpoch","type":"uint32","internalType":"uint32"},{"name":"exitEpoch","type":"uint32","internalType":"uint32"},{"name":"currentStatus","type":"uint8","internalType":"enum IConsensusRegistry.ValidatorStatus"},{"name":"isRetired","type":"bool","internalType":"bool"},{"name":"isDelegated","type":"bool","internalType":"bool"},{"name":"stakeVersion","type":"uint8","internalType":"uint8"}]},{"name":"proofsOfPossession","type":"tuple[]","internalType":"struct BlsG1.ProofOfPossession[]","components":[{"name":"uncompressedPubkey","type":"bytes","internalType":"bytes"},{"name":"uncompressedSignature","type":"bytes","internalType":"bytes"}]},{"name":"owner_","type":"address","internalType":"address"}],"stateMutability":"nonpayable"},{"type":"function","name":"SYSTEM_ADDRESS","inputs":[],"outputs":[{"name":"","type":"address","internalType":"address"}],"stateMutability":"view"},{"type":"function","name":"activate","inputs":[],"outputs":[],"stateMutability":"nonpayable"},{"type":"function","name":"allocateIssuance","inputs":[],"outputs":[],"stateMutability":"payable"},{"type":"function","name":"applyIncentives","inputs":[{"name":"rewardInfos","type":"tuple[]","internalType":"struct RewardInfo[]","components":[{"name":"validatorAddress","type":"address","internalType":"address"},{"name":"consensusHeaderCount","type":"uint256","internalType":"uint256"}]}],"outputs":[],"stateMutability":"nonpayable"},{"type":"function","name":"applySlashes","inputs":[{"name":"slashes","type":"tuple[]","internalType":"struct Slash[]","components":[{"name":"validatorAddress","type":"address","internalType":"address"},{"name":"amount","type":"uint256","internalType":"uint256"}]}],"outputs":[],"stateMutability":"nonpayable"},{"type":"function","name":"approve","inputs":[{"name":"","type":"address","internalType":"address"},{"name":"","type":"uint256","internalType":"uint256"}],"outputs":[],"stateMutability":"nonpayable"},{"type":"function","name":"balanceOf","inputs":[{"name":"owner","type":"address","internalType":"address"}],"outputs":[{"name":"","type":"uint256","internalType":"uint256"}],"stateMutability":"view"},{"type":"function","name":"beginExit","inputs":[],"outputs":[],"stateMutability":"nonpayable"},{"type":"function","name":"burn","inputs":[{"name":"validatorAddress","type":"address","internalType":"address"}],"outputs":[],"stateMutability":"nonpayable"},{"type":"function","name":"claimStakeRewards","inputs":[{"name":"validatorAddress","type":"address","internalType":"address"}],"outputs":[],"stateMutability":"nonpayable"},{"type":"function","name":"concludeEpoch","inputs":[{"name":"futureCommittee","type":"address[]","internalType":"address[]"}],"outputs":[],"stateMutability":"nonpayable"},{"type":"function","name":"delegateStake","inputs":[{"name":"blsPubkey","type":"bytes","internalType":"bytes"},{"name":"proofOfPossession","type":"tuple","internalType":"struct BlsG1.ProofOfPossession","components":[{"name":"uncompressedPubkey","type":"bytes","internalType":"bytes"},{"name":"uncompressedSignature","type":"bytes","internalType":"bytes"}]},{"name":"validatorAddress","type":"address","internalType":"address"},{"name":"validatorEIP712Signature","type":"bytes","internalType":"bytes"}],"outputs":[],"stateMutability":"payable"},{"type":"function","name":"delegationDigest","inputs":[{"name":"blsPubkey","type":"bytes","internalType":"bytes"},{"name":"validatorAddress","type":"address","internalType":"address"},{"name":"delegator","type":"address","internalType":"address"}],"outputs":[{"name":"","type":"bytes32","internalType":"bytes32"}],"stateMutability":"view"},{"type":"function","name":"eip712Domain","inputs":[],"outputs":[{"name":"fields","type":"bytes1","internalType":"bytes1"},{"name":"name","type":"string","internalType":"string"},{"name":"version","type":"string","internalType":"string"},{"name":"chainId","type":"uint256","internalType":"uint256"},{"name":"verifyingContract","type":"address","internalType":"address"},{"name":"salt","type":"bytes32","internalType":"bytes32"},{"name":"extensions","type":"uint256[]","internalType":"uint256[]"}],"stateMutability":"view"},{"type":"function","name":"epochInfo","inputs":[{"name":"","type":"uint256","internalType":"uint256"}],"outputs":[{"name":"epochIssuance","type":"uint256","internalType":"uint256"},{"name":"blockHeight","type":"uint64","internalType":"uint64"},{"name":"epochId","type":"uint32","internalType":"uint32"},{"name":"epochDuration","type":"uint32","internalType":"uint32"},{"name":"stakeVersion","type":"uint8","internalType":"uint8"}],"stateMutability":"view"},{"type":"function","name":"futureEpochInfo","inputs":[{"name":"","type":"uint256","internalType":"uint256"}],"outputs":[{"name":"epochIssuance","type":"uint256","internalType":"uint256"},{"name":"blockHeight","type":"uint64","internalType":"uint64"},{"name":"epochId","type":"uint32","internalType":"uint32"},{"name":"epochDuration","type":"uint32","internalType":"uint32"},{"name":"stakeVersion","type":"uint8","internalType":"uint8"}],"stateMutability":"view"},{"type":"function","name":"getApproved","inputs":[{"name":"tokenId","type":"uint256","internalType":"uint256"}],"outputs":[{"name":"","type":"address","internalType":"address"}],"stateMutability":"view"},{"type":"function","name":"getBalanceBreakdown","inputs":[{"name":"validatorAddress","type":"address","internalType":"address"}],"outputs":[{"name":"","type":"uint256","internalType":"uint256"},{"name":"","type":"uint256","internalType":"uint256"},{"name":"","type":"uint256","internalType":"uint256"}],"stateMutability":"view"},{"type":"function","name":"getCommitteeValidators","inputs":[{"name":"epoch","type":"uint32","internalType":"uint32"}],"outputs":[{"name":"","type":"tuple[]","internalType":"struct IConsensusRegistry.ValidatorInfo[]","components":[{"name":"blsPubkey","type":"bytes","internalType":"bytes"},{"name":"validatorAddress","type":"address","internalType":"address"},{"name":"activationEpoch","type":"uint32","internalType":"uint32"},{"name":"exitEpoch","type":"uint32","internalType":"uint32"},{"name":"currentStatus","type":"uint8","internalType":"enum IConsensusRegistry.ValidatorStatus"},{"name":"isRetired","type":"bool","internalType":"bool"},{"name":"isDelegated","type":"bool","internalType":"bool"},{"name":"stakeVersion","type":"uint8","internalType":"uint8"}]}],"stateMutability":"view"},{"type":"function","name":"getCurrentEpoch","inputs":[],"outputs":[{"name":"","type":"uint32","internalType":"uint32"}],"stateMutability":"view"},{"type":"function","name":"getCurrentEpochInfo","inputs":[],"outputs":[{"name":"","type":"tuple","internalType":"struct IConsensusRegistry.EpochInfo","components":[{"name":"committee","type":"address[]","internalType":"address[]"},{"name":"epochIssuance","type":"uint256","internalType":"uint256"},{"name":"blockHeight","type":"uint64","internalType":"uint64"},{"name":"epochId","type":"uint32","internalType":"uint32"},{"name":"epochDuration","type":"uint32","internalType":"uint32"},{"name":"stakeVersion","type":"uint8","internalType":"uint8"}]}],"stateMutability":"view"},{"type":"function","name":"getCurrentStakeConfig","inputs":[],"outputs":[{"name":"","type":"tuple","internalType":"struct IStakeManager.StakeConfig","components":[{"name":"stakeAmount","type":"uint256","internalType":"uint256"},{"name":"minWithdrawAmount","type":"uint256","internalType":"uint256"},{"name":"epochIssuance","type":"uint256","internalType":"uint256"},{"name":"epochDuration","type":"uint32","internalType":"uint32"}]}],"stateMutability":"view"},{"type":"function","name":"getCurrentStakeVersion","inputs":[],"outputs":[{"name":"","type":"uint8","internalType":"uint8"}],"stateMutability":"view"},{"type":"function","name":"getEpochInfo","inputs":[{"name":"epoch","type":"uint32","internalType":"uint32"}],"outputs":[{"name":"","type":"tuple","internalType":"struct IConsensusRegistry.EpochInfo","components":[{"name":"committee","type":"address[]","internalType":"address[]"},{"name":"epochIssuance","type":"uint256","internalType":"uint256"},{"name":"blockHeight","type":"uint64","internalType":"uint64"},{"name":"epochId","type":"uint32","internalType":"uint32"},{"name":"epochDuration","type":"uint32","internalType":"uint32"},{"name":"stakeVersion","type":"uint8","internalType":"uint8"}]}],"stateMutability":"view"},{"type":"function","name":"getNextCommitteeSize","inputs":[],"outputs":[{"name":"","type":"uint16","internalType":"uint16"}],"stateMutability":"view"},{"type":"function","name":"getRewards","inputs":[{"name":"validatorAddress","type":"address","internalType":"address"}],"outputs":[{"name":"","type":"uint256","internalType":"uint256"}],"stateMutability":"view"},{"type":"function","name":"getValidator","inputs":[{"name":"validatorAddress","type":"address","internalType":"address"}],"outputs":[{"name":"","type":"tuple","internalType":"struct IConsensusRegistry.ValidatorInfo","components":[{"name":"blsPubkey","type":"bytes","internalType":"bytes"},{"name":"validatorAddress","type":"address","internalType":"address"},{"name":"activationEpoch","type":"uint32","internalType":"uint32"},{"name":"exitEpoch","type":"uint32","internalType":"uint32"},{"name":"currentStatus","type":"uint8","internalType":"enum IConsensusRegistry.ValidatorStatus"},{"name":"isRetired","type":"bool","internalType":"bool"},{"name":"isDelegated","type":"bool","internalType":"bool"},{"name":"stakeVersion","type":"uint8","internalType":"uint8"}]}],"stateMutability":"view"},{"type":"function","name":"getValidators","inputs":[{"name":"status","type":"uint8","internalType":"enum IConsensusRegistry.ValidatorStatus"}],"outputs":[{"name":"","type":"tuple[]","internalType":"struct IConsensusRegistry.ValidatorInfo[]","components":[{"name":"blsPubkey","type":"bytes","internalType":"bytes"},{"name":"validatorAddress","type":"address","internalType":"address"},{"name":"activationEpoch","type":"uint32","internalType":"uint32"},{"name":"exitEpoch","type":"uint32","internalType":"uint32"},{"name":"currentStatus","type":"uint8","internalType":"enum IConsensusRegistry.ValidatorStatus"},{"name":"isRetired","type":"bool","internalType":"bool"},{"name":"isDelegated","type":"bool","internalType":"bool"},{"name":"stakeVersion","type":"uint8","internalType":"uint8"}]}],"stateMutability":"view"},{"type":"function","name":"isApprovedForAll","inputs":[{"name":"owner","type":"address","internalType":"address"},{"name":"operator","type":"address","internalType":"address"}],"outputs":[{"name":"","type":"bool","internalType":"bool"}],"stateMutability":"view"},{"type":"function","name":"isRetired","inputs":[{"name":"validatorAddress","type":"address","internalType":"address"}],"outputs":[{"name":"","type":"bool","internalType":"bool"}],"stateMutability":"view"},{"type":"function","name":"isValidator","inputs":[{"name":"blsPubkey","type":"bytes","internalType":"bytes"}],"outputs":[{"name":"","type":"bool","internalType":"bool"}],"stateMutability":"view"},{"type":"function","name":"issuance","inputs":[],"outputs":[{"name":"","type":"address","internalType":"address payable"}],"stateMutability":"view"},{"type":"function","name":"mint","inputs":[{"name":"validatorAddress","type":"address","internalType":"address"}],"outputs":[],"stateMutability":"nonpayable"},{"type":"function","name":"name","inputs":[],"outputs":[{"name":"","type":"string","internalType":"string"}],"stateMutability":"view"},{"type":"function","name":"owner","inputs":[],"outputs":[{"name":"","type":"address","internalType":"address"}],"stateMutability":"view"},{"type":"function","name":"ownerOf","inputs":[{"name":"tokenId","type":"uint256","internalType":"uint256"}],"outputs":[{"name":"","type":"address","internalType":"address"}],"stateMutability":"view"},{"type":"function","name":"pause","inputs":[],"outputs":[],"stateMutability":"nonpayable"},{"type":"function","name":"paused","inputs":[],"outputs":[{"name":"","type":"bool","internalType":"bool"}],"stateMutability":"view"},{"type":"function","name":"proofOfPossessionMessage","inputs":[{"name":"blsPubkeyUncompressed","type":"bytes","internalType":"bytes"},{"name":"validatorAddress","type":"address","internalType":"address"}],"outputs":[{"name":"","type":"bytes","internalType":"bytes"}],"stateMutability":"view"},{"type":"function","name":"renounceOwnership","inputs":[],"outputs":[],"stateMutability":"nonpayable"},{"type":"function","name":"safeTransferFrom","inputs":[{"name":"from","type":"address","internalType":"address"},{"name":"to","type":"address","internalType":"address"},{"name":"tokenId","type":"uint256","internalType":"uint256"}],"outputs":[],"stateMutability":"nonpayable"},{"type":"function","name":"safeTransferFrom","inputs":[{"name":"from","type":"address","internalType":"address"},{"name":"to","type":"address","internalType":"address"},{"name":"tokenId","type":"uint256","internalType":"uint256"},{"name":"data","type":"bytes","internalType":"bytes"}],"outputs":[],"stateMutability":"nonpayable"},{"type":"function","name":"setApprovalForAll","inputs":[{"name":"","type":"address","internalType":"address"},{"name":"","type":"bool","internalType":"bool"}],"outputs":[],"stateMutability":"nonpayable"},{"type":"function","name":"setNextCommitteeSize","inputs":[{"name":"newSize","type":"uint16","internalType":"uint16"}],"outputs":[],"stateMutability":"nonpayable"},{"type":"function","name":"stake","inputs":[{"name":"blsPubkey","type":"bytes","internalType":"bytes"},{"name":"proofOfPossession","type":"tuple","internalType":"struct BlsG1.ProofOfPossession","components":[{"name":"uncompressedPubkey","type":"bytes","internalType":"bytes"},{"name":"uncompressedSignature","type":"bytes","internalType":"bytes"}]}],"outputs":[],"stateMutability":"payable"},{"type":"function","name":"stakeConfig","inputs":[{"name":"version","type":"uint8","internalType":"uint8"}],"outputs":[{"name":"","type":"tuple","internalType":"struct IStakeManager.StakeConfig","components":[{"name":"stakeAmount","type":"uint256","internalType":"uint256"},{"name":"minWithdrawAmount","type":"uint256","internalType":"uint256"},{"name":"epochIssuance","type":"uint256","internalType":"uint256"},{"name":"epochDuration","type":"uint32","internalType":"uint32"}]}],"stateMutability":"view"},{"type":"function","name":"supportsInterface","inputs":[{"name":"interfaceId","type":"bytes4","internalType":"bytes4"}],"outputs":[{"name":"","type":"bool","internalType":"bool"}],"stateMutability":"view"},{"type":"function","name":"symbol","inputs":[],"outputs":[{"name":"","type":"string","internalType":"string"}],"stateMutability":"view"},{"type":"function","name":"tokenByIndex","inputs":[{"name":"index","type":"uint256","internalType":"uint256"}],"outputs":[{"name":"","type":"uint256","internalType":"uint256"}],"stateMutability":"view"},{"type":"function","name":"tokenOfOwnerByIndex","inputs":[{"name":"owner","type":"address","internalType":"address"},{"name":"index","type":"uint256","internalType":"uint256"}],"outputs":[{"name":"","type":"uint256","internalType":"uint256"}],"stateMutability":"view"},{"type":"function","name":"tokenURI","inputs":[{"name":"tokenId","type":"uint256","internalType":"uint256"}],"outputs":[{"name":"","type":"string","internalType":"string"}],"stateMutability":"view"},{"type":"function","name":"totalSupply","inputs":[],"outputs":[{"name":"","type":"uint256","internalType":"uint256"}],"stateMutability":"view"},{"type":"function","name":"transferFrom","inputs":[{"name":"","type":"address","internalType":"address"},{"name":"","type":"address","internalType":"address"},{"name":"","type":"uint256","internalType":"uint256"}],"outputs":[],"stateMutability":"nonpayable"},{"type":"function","name":"transferOwnership","inputs":[{"name":"newOwner","type":"address","internalType":"address"}],"outputs":[],"stateMutability":"nonpayable"},{"type":"function","name":"undistributedIssuance","inputs":[],"outputs":[{"name":"","type":"uint256","internalType":"uint256"}],"stateMutability":"view"},{"type":"function","name":"unpause","inputs":[],"outputs":[],"stateMutability":"nonpayable"},{"type":"function","name":"unstake","inputs":[{"name":"validatorAddress","type":"address","internalType":"address"}],"outputs":[],"stateMutability":"nonpayable"},{"type":"function","name":"upgradeStakeVersion","inputs":[{"name":"newConfig","type":"tuple","internalType":"struct IStakeManager.StakeConfig","components":[{"name":"stakeAmount","type":"uint256","internalType":"uint256"},{"name":"minWithdrawAmount","type":"uint256","internalType":"uint256"},{"name":"epochIssuance","type":"uint256","internalType":"uint256"},{"name":"epochDuration","type":"uint32","internalType":"uint32"}]}],"outputs":[{"name":"","type":"uint8","internalType":"uint8"}],"stateMutability":"nonpayable"},{"type":"function","name":"validators","inputs":[{"name":"","type":"address","internalType":"address"}],"outputs":[{"name":"blsPubkey","type":"bytes","internalType":"bytes"},{"name":"validatorAddress","type":"address","internalType":"address"},{"name":"activationEpoch","type":"uint32","internalType":"uint32"},{"name":"exitEpoch","type":"uint32","internalType":"uint32"},{"name":"currentStatus","type":"uint8","internalType":"enum IConsensusRegistry.ValidatorStatus"},{"name":"isRetired","type":"bool","internalType":"bool"},{"name":"isDelegated","type":"bool","internalType":"bool"},{"name":"stakeVersion","type":"uint8","internalType":"uint8"}],"stateMutability":"view"},{"type":"event","name":"Approval","inputs":[{"name":"owner","type":"address","indexed":true,"internalType":"address"},{"name":"approved","type":"address","indexed":true,"internalType":"address"},{"name":"tokenId","type":"uint256","indexed":true,"internalType":"uint256"}],"anonymous":false},{"type":"event","name":"ApprovalForAll","inputs":[{"name":"owner","type":"address","indexed":true,"internalType":"address"},{"name":"operator","type":"address","indexed":true,"internalType":"address"},{"name":"approved","type":"bool","indexed":false,"internalType":"bool"}],"anonymous":false},{"type":"event","name":"NewEpoch","inputs":[{"name":"epoch","type":"tuple","indexed":false,"internalType":"struct IConsensusRegistry.EpochInfo","components":[{"name":"committee","type":"address[]","internalType":"address[]"},{"name":"epochIssuance","type":"uint256","internalType":"uint256"},{"name":"blockHeight","type":"uint64","internalType":"uint64"},{"name":"epochId","type":"uint32","internalType":"uint32"},{"name":"epochDuration","type":"uint32","internalType":"uint32"},{"name":"stakeVersion","type":"uint8","internalType":"uint8"}]}],"anonymous":false},{"type":"event","name":"NextCommitteeSizeUpdated","inputs":[{"name":"oldSize","type":"uint16","indexed":false,"internalType":"uint16"},{"name":"newSize","type":"uint16","indexed":false,"internalType":"uint16"},{"name":"numActiveValidators","type":"uint256","indexed":false,"internalType":"uint256"}],"anonymous":false},{"type":"event","name":"OwnershipTransferred","inputs":[{"name":"previousOwner","type":"address","indexed":true,"internalType":"address"},{"name":"newOwner","type":"address","indexed":true,"internalType":"address"}],"anonymous":false},{"type":"event","name":"Paused","inputs":[{"name":"account","type":"address","indexed":false,"internalType":"address"}],"anonymous":false},{"type":"event","name":"RewardsClaimed","inputs":[{"name":"claimant","type":"address","indexed":false,"internalType":"address"},{"name":"rewards","type":"uint256","indexed":false,"internalType":"uint256"}],"anonymous":false},{"type":"event","name":"Transfer","inputs":[{"name":"from","type":"address","indexed":true,"internalType":"address"},{"name":"to","type":"address","indexed":true,"internalType":"address"},{"name":"tokenId","type":"uint256","indexed":true,"internalType":"uint256"}],"anonymous":false},{"type":"event","name":"Unpaused","inputs":[{"name":"account","type":"address","indexed":false,"internalType":"address"}],"anonymous":false},{"type":"event","name":"ValidatorActivated","inputs":[{"name":"validator","type":"tuple","indexed":false,"internalType":"struct IConsensusRegistry.ValidatorInfo","components":[{"name":"blsPubkey","type":"bytes","internalType":"bytes"},{"name":"validatorAddress","type":"address","internalType":"address"},{"name":"activationEpoch","type":"uint32","internalType":"uint32"},{"name":"exitEpoch","type":"uint32","internalType":"uint32"},{"name":"currentStatus","type":"uint8","internalType":"enum IConsensusRegistry.ValidatorStatus"},{"name":"isRetired","type":"bool","internalType":"bool"},{"name":"isDelegated","type":"bool","internalType":"bool"},{"name":"stakeVersion","type":"uint8","internalType":"uint8"}]}],"anonymous":false},{"type":"event","name":"ValidatorExited","inputs":[{"name":"validator","type":"tuple","indexed":false,"internalType":"struct IConsensusRegistry.ValidatorInfo","components":[{"name":"blsPubkey","type":"bytes","internalType":"bytes"},{"name":"validatorAddress","type":"address","internalType":"address"},{"name":"activationEpoch","type":"uint32","internalType":"uint32"},{"name":"exitEpoch","type":"uint32","internalType":"uint32"},{"name":"currentStatus","type":"uint8","internalType":"enum IConsensusRegistry.ValidatorStatus"},{"name":"isRetired","type":"bool","internalType":"bool"},{"name":"isDelegated","type":"bool","internalType":"bool"},{"name":"stakeVersion","type":"uint8","internalType":"uint8"}]}],"anonymous":false},{"type":"event","name":"ValidatorPendingActivation","inputs":[{"name":"validator","type":"tuple","indexed":false,"internalType":"struct IConsensusRegistry.ValidatorInfo","components":[{"name":"blsPubkey","type":"bytes","internalType":"bytes"},{"name":"validatorAddress","type":"address","internalType":"address"},{"name":"activationEpoch","type":"uint32","internalType":"uint32"},{"name":"exitEpoch","type":"uint32","internalType":"uint32"},{"name":"currentStatus","type":"uint8","internalType":"enum IConsensusRegistry.ValidatorStatus"},{"name":"isRetired","type":"bool","internalType":"bool"},{"name":"isDelegated","type":"bool","internalType":"bool"},{"name":"stakeVersion","type":"uint8","internalType":"uint8"}]}],"anonymous":false},{"type":"event","name":"ValidatorPendingExit","inputs":[{"name":"validator","type":"tuple","indexed":false,"internalType":"struct IConsensusRegistry.ValidatorInfo","components":[{"name":"blsPubkey","type":"bytes","internalType":"bytes"},{"name":"validatorAddress","type":"address","internalType":"address"},{"name":"activationEpoch","type":"uint32","internalType":"uint32"},{"name":"exitEpoch","type":"uint32","internalType":"uint32"},{"name":"currentStatus","type":"uint8","internalType":"enum IConsensusRegistry.ValidatorStatus"},{"name":"isRetired","type":"bool","internalType":"bool"},{"name":"isDelegated","type":"bool","internalType":"bool"},{"name":"stakeVersion","type":"uint8","internalType":"uint8"}]}],"anonymous":false},{"type":"event","name":"ValidatorRetired","inputs":[{"name":"validator","type":"tuple","indexed":false,"internalType":"struct IConsensusRegistry.ValidatorInfo","components":[{"name":"blsPubkey","type":"bytes","internalType":"bytes"},{"name":"validatorAddress","type":"address","internalType":"address"},{"name":"activationEpoch","type":"uint32","internalType":"uint32"},{"name":"exitEpoch","type":"uint32","internalType":"uint32"},{"name":"currentStatus","type":"uint8","internalType":"enum IConsensusRegistry.ValidatorStatus"},{"name":"isRetired","type":"bool","internalType":"bool"},{"name":"isDelegated","type":"bool","internalType":"bool"},{"name":"stakeVersion","type":"uint8","internalType":"uint8"}]}],"anonymous":false},{"type":"event","name":"ValidatorSlashed","inputs":[{"name":"slash","type":"tuple","indexed":false,"internalType":"struct Slash","components":[{"name":"validatorAddress","type":"address","internalType":"address"},{"name":"amount","type":"uint256","internalType":"uint256"}]}],"anonymous":false},{"type":"event","name":"ValidatorStaked","inputs":[{"name":"validator","type":"tuple","indexed":false,"internalType":"struct IConsensusRegistry.ValidatorInfo","components":[{"name":"blsPubkey","type":"bytes","internalType":"bytes"},{"name":"validatorAddress","type":"address","internalType":"address"},{"name":"activationEpoch","type":"uint32","internalType":"uint32"},{"name":"exitEpoch","type":"uint32","internalType":"uint32"},{"name":"currentStatus","type":"uint8","internalType":"enum IConsensusRegistry.ValidatorStatus"},{"name":"isRetired","type":"bool","internalType":"bool"},{"name":"isDelegated","type":"bool","internalType":"bool"},{"name":"stakeVersion","type":"uint8","internalType":"uint8"}]}],"anonymous":false},{"type":"error","name":"AlreadyDefined","inputs":[{"name":"validatorAddress","type":"address","internalType":"address"}]},{"type":"error","name":"CommitteeRequirement","inputs":[{"name":"validatorAddress","type":"address","internalType":"address"}]},{"type":"error","name":"DuplicateBLSPubkey","inputs":[]},{"type":"error","name":"ERC721EnumerableForbiddenBatchMint","inputs":[]},{"type":"error","name":"ERC721IncorrectOwner","inputs":[{"name":"sender","type":"address","internalType":"address"},{"name":"tokenId","type":"uint256","internalType":"uint256"},{"name":"owner","type":"address","internalType":"address"}]},{"type":"error","name":"ERC721InsufficientApproval","inputs":[{"name":"operator","type":"address","internalType":"address"},{"name":"tokenId","type":"uint256","internalType":"uint256"}]},{"type":"error","name":"ERC721InvalidApprover","inputs":[{"name":"approver","type":"address","internalType":"address"}]},{"type":"error","name":"ERC721InvalidOperator","inputs":[{"name":"operator","type":"address","internalType":"address"}]},{"type":"error","name":"ERC721InvalidOwner","inputs":[{"name":"owner","type":"address","internalType":"address"}]},{"type":"error","name":"ERC721InvalidReceiver","inputs":[{"name":"receiver","type":"address","internalType":"address"}]},{"type":"error","name":"ERC721InvalidSender","inputs":[{"name":"sender","type":"address","internalType":"address"}]},{"type":"error","name":"ERC721NonexistentToken","inputs":[{"name":"tokenId","type":"uint256","internalType":"uint256"}]},{"type":"error","name":"ERC721OutOfBoundsIndex","inputs":[{"name":"owner","type":"address","internalType":"address"},{"name":"index","type":"uint256","internalType":"uint256"}]},{"type":"error","name":"EnforcedPause","inputs":[]},{"type":"error","name":"ExpectedPause","inputs":[]},{"type":"error","name":"GenesisArityMismatch","inputs":[]},{"type":"error","name":"IneligibleUnstake","inputs":[{"name":"validator","type":"tuple","internalType":"struct IConsensusRegistry.ValidatorInfo","components":[{"name":"blsPubkey","type":"bytes","internalType":"bytes"},{"name":"validatorAddress","type":"address","internalType":"address"},{"name":"activationEpoch","type":"uint32","internalType":"uint32"},{"name":"exitEpoch","type":"uint32","internalType":"uint32"},{"name":"currentStatus","type":"uint8","internalType":"enum IConsensusRegistry.ValidatorStatus"},{"name":"isRetired","type":"bool","internalType":"bool"},{"name":"isDelegated","type":"bool","internalType":"bool"},{"name":"stakeVersion","type":"uint8","internalType":"uint8"}]}]},{"type":"error","name":"InsufficientRewards","inputs":[{"name":"withdrawAmount","type":"uint256","internalType":"uint256"}]},{"type":"error","name":"InvalidBLSPubkey","inputs":[]},{"type":"error","name":"InvalidCommitteeSize","inputs":[{"name":"minCommitteeSize","type":"uint256","internalType":"uint256"},{"name":"providedCommitteeSize","type":"uint256","internalType":"uint256"}]},{"type":"error","name":"InvalidDuration","inputs":[{"name":"duration","type":"uint32","internalType":"uint32"}]},{"type":"error","name":"InvalidEpoch","inputs":[{"name":"epoch","type":"uint32","internalType":"uint32"}]},{"type":"error","name":"InvalidProofOfPossession","inputs":[{"name":"proof","type":"tuple","internalType":"struct BlsG1.ProofOfPossession","components":[{"name":"uncompressedPubkey","type":"bytes","internalType":"bytes"},{"name":"uncompressedSignature","type":"bytes","internalType":"bytes"}]},{"name":"message","type":"bytes","internalType":"bytes"}]},{"type":"error","name":"InvalidStakeAmount","inputs":[{"name":"stakeAmount","type":"uint256","internalType":"uint256"}]},{"type":"error","name":"InvalidStatus","inputs":[{"name":"status","type":"uint8","internalType":"enum IConsensusRegistry.ValidatorStatus"}]},{"type":"error","name":"InvalidSupply","inputs":[]},{"type":"error","name":"InvalidTokenId","inputs":[{"name":"tokenId","type":"uint256","internalType":"uint256"}]},{"type":"error","name":"InvalidValidatorAddress","inputs":[]},{"type":"error","name":"NotRecipient","inputs":[{"name":"recipient","type":"address","internalType":"address"}]},{"type":"error","name":"NotTransferable","inputs":[]},{"type":"error","name":"NotValidator","inputs":[{"name":"validatorAddress","type":"address","internalType":"address"}]},{"type":"error","name":"OnlySystemCall","inputs":[{"name":"invalidCaller","type":"address","internalType":"address"}]},{"type":"error","name":"OwnableInvalidOwner","inputs":[{"name":"owner","type":"address","internalType":"address"}]},{"type":"error","name":"OwnableUnauthorizedAccount","inputs":[{"name":"account","type":"address","internalType":"address"}]},{"type":"error","name":"Reentrancy","inputs":[]},{"type":"error","name":"RequiresConsensusNFT","inputs":[]},{"type":"error","name":"StringsInsufficientHexLength","inputs":[{"name":"value","type":"uint256","internalType":"uint256"},{"name":"length","type":"uint256","internalType":"uint256"}]}],"bytecode":{"object":"0x610120604052348015610010575f80fd5b5060405161853938038061853983398101604081905261002f9161168a565b806040518060400160405280600c81526020016b10dbdb9cd95b9cdd5cd3919560a21b8152506040518060400160405280600481526020016310d3919560e21b8152508181815f908161008291906117ca565b50600161008f82826117ca565b505030608052504660a0526060806100ef604080518082018252601481527f54656c636f696e205374616b654d616e61676572000000000000000000000000602080830191909152825180840190935260018352603160f81b9083015291565b815160209283012081519183019190912060c082905260e0819052604080517f8b73c3c69bb8fe3d512ecc4cf759cc79239f7b179b0ffacaa9a75d522b39400f8152938401929092529082015246606082015230608082015260a09020610100525050600d805461ff001916905550506001600160a01b03811661018d57604051631e4fbdf760e01b81525f60048201526024015b60405180910390fd5b61019681610897565b50825115806101a757508151835114155b156101c557604051633aa3e03360e01b815260040160405180910390fd5b5f808052600a602090815285517f13da86008ba1c6922daee3e07db95305ef49ebced9f5467a0b8613fcc6b343e3558501517f13da86008ba1c6922daee3e07db95305ef49ebced9f5467a0b8613fcc6b343e45560408501517f13da86008ba1c6922daee3e07db95305ef49ebced9f5467a0b8613fcc6b343e55560608501517f13da86008ba1c6922daee3e07db95305ef49ebced9f5467a0b8613fcc6b343e6805463ffffffff191663ffffffff9092169190911790558351600d805461ffff60d81b1916600160d81b61ffff909316929092029190911790555b600281116103ab575f601182600481106102bd576102bd611884565b600302016002810180546060890151600160401b600160801b03199091166801000000000000000063ffffffff8781169190910263ffffffff60601b1916919091176c0100000000000000000000000091909216021790556040870151600182015590505f601d836004811061033557610335611884565b6003020160028101805460608a0151600160401b600160801b03199091166801000000000000000063ffffffff8881169190910263ffffffff60601b1916919091176c0100000000000000000000000091909216021790556040880151600190910155506103a49050816118ac565b90506102a1565b505f5b835181101561088d575f8482815181106103ca576103ca611884565b602002602001015190505f6104068584815181106103ea576103ea611884565b60200260200101518360200151845f01516108f260201b60201c565b60208301519091506001600160a01b03166104345760405163713ce51160e01b815260040160405180910390fd5b604082015163ffffffff161561046b576040808301519051634fadd4d360e11b815263ffffffff9091166004820152602401610184565b606082015163ffffffff16156104a2576060820151604051634fadd4d360e11b815263ffffffff9091166004820152602401610184565b6003826080015160068111156104ba576104ba6118c4565b146104de578160800151604051633ba7bf8960e11b815260040161018491906118f8565b60a082015115610504576005604051633ba7bf8960e11b815260040161018491906118f8565b60c082015115156001036105d6576040805160a081018252828152602084810180516001600160a01b039081168385019081528982168587019081525f60608701818152600160808901818152965186168352600c90975297902095518655905193850180546001600160a01b0319169483169490941790935591516002909301805494519151939092166001600160a81b031990941693909317600160a01b60ff9094169390930292909217600160a81b600160e81b031916600160a81b6001600160401b03909216919091021790555b60e082015160ff16156106075760e082015160405163222d164360e21b815260ff9091166004820152602401610184565b5f5b600281116106c5576011816004811061062457610624611884565b6020858101516003929092029290920180546001810182555f91825292902090910180546001600160a01b0319166001600160a01b03909216919091179055601d816004811061067657610676611884565b6020858101516003929092029290920180546001810182555f91825292902090910180546001600160a01b0319166001600160a01b039092169190911790556106be816118ac565b9050610609565b506020808301516001600160a01b03165f908152600f90915260409020825183919081906106f390826117ca565b5060208201516001820180546040850151606086015163ffffffff908116600160c01b0263ffffffff60c01b1991909216600160a01b026001600160c01b03199093166001600160a01b0390951694909417919091179283168117825560808501519260ff60e01b1990911664ffffffffff60c01b1990911617600160e01b836006811115610784576107846118c4565b021790555060a08201516001909101805460c084015160e09094015160ff16600160f81b026001600160f81b03941515600160f01b0260ff60f01b19941515600160e81b029490941661ffff60e81b199092169190911792909217929092161790558651602080840180516001600160a01b039081165f908152600b845260408082209590955582518682526010909452939093208054929093166001600160a01b0319909216919091179091555161084c90610847816001600160a01b031690565b610aec565b7f31845bad1fcdd92490e8d85605449863a562ea940e37b380a276e440683fdb728260405161087b9190611934565b60405180910390a150506001016103ae565b5050505050611b66565b600d80546001600160a01b038381166201000081810262010000600160b01b031985161790945560405193909204169182907f8be0079c531659141344cd1fd0a4f28419497f9722a3daafe3b4186f6b6457e0905f90a35050565b5f8151606014610915576040516333a234f960e11b815260040160405180910390fd5b83515f906109239085610b52565b855160405163a691a08b60e01b81529192505f9173__$2ef4e8110a3eaa1255da7f08f8eebcbf5a$__9163a691a08b9161096091906004016119d3565b5f60405180830381865af415801561097a573d5f803e3d5ffd5b505050506040513d5f823e601f3d908101601f191682016040526109a191908101906119ec565b90505f73__$2ef4e8110a3eaa1255da7f08f8eebcbf5a$__633d2a9e1188602001516040518263ffffffff1660e01b81526004016109df91906119d3565b5f60405180830381865af41580156109f9573d5f803e3d5ffd5b505050506040513d5f823e601f3d908101601f19168201604052610a2091908101906119ec565b905073__$2ef4e8110a3eaa1255da7f08f8eebcbf5a$__635779b9a38383866040518060600160405280602b815260200161850e602b91396040518563ffffffff1660e01b8152600401610a779493929190611a1d565b602060405180830381865af4158015610a92573d5f803e3d5ffd5b505050506040513d601f19601f82011682018060405250810190610ab69190611a69565b610ad7578683604051634babb8f160e01b8152600401610184929190611a82565b610ae18587610ca0565b979650505050505050565b6001600160a01b038216610b1557604051633250574960e11b81525f6004820152602401610184565b5f610b21838383610d0f565b90506001600160a01b03811615610b4d576040516339e3563760e11b81525f6004820152602401610184565b505050565b60605f73__$2ef4e8110a3eaa1255da7f08f8eebcbf5a$__63a691a08b856040518263ffffffff1660e01b8152600401610b8c91906119d3565b5f60405180830381865af4158015610ba6573d5f803e3d5ffd5b505050506040513d5f823e601f3d908101601f19168201604052610bcd91908101906119ec565b6040516329bd7cc960e21b815290915073__$2ef4e8110a3eaa1255da7f08f8eebcbf5a$__9063a6f5f32490610c079084906004016119d3565b602060405180830381865af4158015610c22573d5f803e3d5ffd5b505050506040513d601f19601f82011682018060405250810190610c469190611a69565b610c63576040516333a234f960e11b815260040160405180910390fd5b604051610c879061d50160d81b908690600560fa1b90606088901b90602001611ad7565b6040516020818303038152906040529150505b92915050565b81516020808401919091205f81815260109092526040909120546001600160a01b031615610ce157604051638d12779f60e01b815260040160405180910390fd5b5f81815260106020526040902080546001600160a01b0384166001600160a01b031990911617905592915050565b5f80610d1c858585610de2565b90506001600160a01b038116610d7857610d7384600880545f838152600960205260408120829055600182018355919091527ff3f7a9fe364faab93b216da50a3214154f22a0a2b415b23a84c8169e8b636ee30155565b610d9b565b846001600160a01b0316816001600160a01b031614610d9b57610d9b8185610ed4565b6001600160a01b038516610db757610db284610f51565b610dda565b846001600160a01b0316816001600160a01b031614610dda57610dda8585610ff8565b949350505050565b5f828152600260205260408120546001600160a01b0390811690831615610e0e57610e0e818486611046565b6001600160a01b03811615610e4857610e295f8581806110aa565b6001600160a01b0381165f90815260036020526040902080545f190190555b6001600160a01b03851615610e76576001600160a01b0385165f908152600360205260409020805460010190555b5f8481526002602052604080822080546001600160a01b0319166001600160a01b0389811691821790925591518793918516917fddf252ad1be2c89b69c2b068fc378daa952ba7f163c4a11628f55a4df523b3ef91a4949350505050565b5f610ede836111cc565b5f838152600760209081526040808320546001600160a01b0388168452600690925290912091925090818314610f33575f83815260208281526040808320548584528184208190558352600790915290208290555b5f938452600760209081526040808620869055938552525081205550565b6008545f90610f6290600190611b3f565b5f8381526009602052604081205460088054939450909284908110610f8957610f89611884565b905f5260205f20015490508060088381548110610fa857610fa8611884565b5f918252602080832090910192909255828152600990915260408082208490558582528120556008805480610fdf57610fdf611b52565b600190038181905f5260205f20015f9055905550505050565b5f6001611004846111cc565b61100e9190611b3f565b6001600160a01b039093165f908152600660209081526040808320868452825280832085905593825260079052919091209190915550565b611051838383611211565b610b4d576001600160a01b03831661107f57604051637e27328960e01b815260048101829052602401610184565b60405163177e802f60e01b81526001600160a01b038316600482015260248101829052604401610184565b80806110be57506001600160a01b03821615155b1561119d575f6110cd84611291565b90506001600160a01b038316158015906110f95750826001600160a01b0316816001600160a01b031614155b801561112a57506001600160a01b038082165f9081526005602090815260408083209387168352929052205460ff16155b156111535760405163a9fbf51f60e01b81526001600160a01b0384166004820152602401610184565b811561119b5783856001600160a01b0316826001600160a01b03167f8c5be1e5ebec7d5bd14f71427d1e84f3dd0314c0f7b2291e5b200ac8c7c3b92560405160405180910390a45b505b50505f90815260046020526040902080546001600160a01b0319166001600160a01b0392909216919091179055565b5f6001600160a01b0382166111f6576040516322718ad960e21b81525f6004820152602401610184565b506001600160a01b03165f9081526003602052604090205490565b5f6001600160a01b03831615801590610dda5750826001600160a01b0316846001600160a01b0316148061126957506001600160a01b038085165f9081526005602090815260408083209387168352929052205460ff165b80610dda5750505f908152600460205260409020546001600160a01b03908116911614919050565b5f818152600260205260408120546001600160a01b031680610c9a57604051637e27328960e01b815260048101849052602401610184565b634e487b7160e01b5f52604160045260245ffd5b60405161010081016001600160401b0381118282101715611300576113006112c9565b60405290565b604080519081016001600160401b0381118282101715611300576113006112c9565b604051608081016001600160401b0381118282101715611300576113006112c9565b604051601f8201601f191681016001600160401b0381118282101715611372576113726112c9565b604052919050565b805163ffffffff8116811461138d575f80fd5b919050565b5f6001600160401b038211156113aa576113aa6112c9565b5060051b60200190565b5f82601f8301126113c3575f80fd5b81516001600160401b038111156113dc576113dc6112c9565b6113ef601f8201601f191660200161134a565b818152846020838601011115611403575f80fd5b8160208501602083015e5f918101602001919091529392505050565b80516001600160a01b038116811461138d575f80fd5b80516007811061138d575f80fd5b8051801515811461138d575f80fd5b805160ff8116811461138d575f80fd5b5f82601f830112611471575f80fd5b815161148461147f82611392565b61134a565b8082825260208201915060208360051b8601019250858311156114a5575f80fd5b602085015b838110156115965780516001600160401b038111156114c7575f80fd5b8601610100818903601f190112156114dd575f80fd5b6114e56112dd565b60208201516001600160401b038111156114fd575f80fd5b61150c8a6020838601016113b4565b82525061151b6040830161141f565b602082015261152c6060830161137a565b604082015261153d6080830161137a565b606082015261154e60a08301611435565b608082015261155f60c08301611443565b60a082015261157060e08301611443565b60c08201526115826101008301611452565b60e0820152845250602092830192016114aa565b5095945050505050565b5f82601f8301126115af575f80fd5b81516115bd61147f82611392565b8082825260208201915060208360051b8601019250858311156115de575f80fd5b602085015b838110156115965780516001600160401b03811115611600575f80fd5b86016040818903601f19011215611615575f80fd5b61161d611306565b60208201516001600160401b03811115611635575f80fd5b6116448a6020838601016113b4565b82525060408201516001600160401b0381111561165f575f80fd5b61166e8a6020838601016113b4565b60208301525080855250506020830192506020810190506115e3565b5f805f8084860360e081121561169e575f80fd5b60808112156116ab575f80fd5b506116b4611328565b8551815260208087015190820152604080870151908201526116d86060870161137a565b606082015260808601519094506001600160401b038111156116f8575f80fd5b61170487828801611462565b60a087015190945090506001600160401b03811115611721575f80fd5b61172d878288016115a0565b92505061173c60c0860161141f565b905092959194509250565b600181811c9082168061175b57607f821691505b60208210810361177957634e487b7160e01b5f52602260045260245ffd5b50919050565b601f821115610b4d57805f5260205f20601f840160051c810160208510156117a45750805b601f840160051c820191505b818110156117c3575f81556001016117b0565b5050505050565b81516001600160401b038111156117e3576117e36112c9565b6117f7816117f18454611747565b8461177f565b6020601f821160018114611829575f83156118125750848201515b5f19600385901b1c1916600184901b1784556117c3565b5f84815260208120601f198516915b828110156118585787850151825560209485019460019092019101611838565b508482101561187557868401515f19600387901b60f8161c191681555b50505050600190811b01905550565b634e487b7160e01b5f52603260045260245ffd5b634e487b7160e01b5f52601160045260245ffd5b5f600182016118bd576118bd611898565b5060010190565b634e487b7160e01b5f52602160045260245ffd5b600781106118f457634e487b7160e01b5f52602160045260245ffd5b9052565b60208101610c9a82846118d8565b5f81518084528060208401602086015e5f602082860101526020601f19601f83011685010191505092915050565b602081525f82516101006020840152611951610120840182611906565b905060018060a01b03602085015116604084015263ffffffff6040850151166060840152606084015161198c608085018263ffffffff169052565b50608084015161199f60a08501826118d8565b5060a084015180151560c08501525060c084015180151560e08501525060e084015160ff8116610100850152509392505050565b602081525f6119e56020830184611906565b9392505050565b5f602082840312156119fc575f80fd5b81516001600160401b03811115611a11575f80fd5b610dda848285016113b4565b608081525f611a2f6080830187611906565b8281036020840152611a418187611906565b90508281036040840152611a558186611906565b90508281036060840152610ae18185611906565b5f60208284031215611a79575f80fd5b6119e582611443565b604081525f8351604080840152611a9c6080840182611906565b90506020850151603f19848303016060850152611ab98282611906565b9150508281036020840152611ace8185611906565b95945050505050565b6001600160d81b03198516815283515f908060208701600585015e7fff00000000000000000000000000000000000000000000000000000000000000949094169190930160058101919091526001600160601b0319919091166006820152601a019392505050565b81810381811115610c9a57610c9a611898565b634e487b7160e01b5f52603160045260245ffd5b60805160a05160c05160e0516101005161696b611ba35f395f613cea01525f613da401525f613d7e01525f613d2e01525f613d0b015261696b5ff3fe60806040526004361061037b575f3560e01c80636a926591116101d3578063a0201be5116100fd578063c05df7ac1161009d578063eb8535c21161006d578063eb8535c214610a9d578063f2888dbb14610aca578063f2fde38b14610ae9578063fa52c7d814610b08575f80fd5b8063c05df7ac14610a21578063c87b56dd14610a40578063e3716d0414610a5f578063e985e9c514610a7e575f80fd5b8063b5184324116100d8578063b5184324146109aa578063b88d4fde146109bd578063b97dd9e2146109dc578063babc394f14610a0d575f80fd5b8063a0201be514610952578063a22cb46514610971578063a71954ec1461098b575f80fd5b80638456cb59116101735780638bb43f3a116101435780638bb43f3a146108dc5780638cc05eda146108ef5780638da5cb5b1461091b57806395d89b411461093e575f80fd5b80638456cb591461085b57806384b0196e1461086f578063863623bb1461089657806389afcb44146108bd575f80fd5b8063715018a6116101ae578063715018a6146107bc57806379ee54f7146107d05780637b55a300146107ef5780637d06fdf81461080e575f80fd5b80636a9265911461075f5780636d3c62751461077e57806370a082311461079d575f80fd5b80632f745c59116102b45780634f6ccce7116102545780636352211e116102245780636352211e146106dc57806367398331146106fb5780636850eb31146107215780636a62784214610740575f80fd5b80634f6ccce71461066357806359ca93b6146106825780635c975abb146106a157806362fcde4b146106bd575f80fd5b8063374ed18c1161028f578063374ed18c146105a95780633894228e146105d55780633f4ba83a1461063057806342842e0e14610644575f80fd5b80632f745c59146105685780633434735f14610587578063355811a7146105a1575f80fd5b80630f15f4c01161031f5780631904bb2e116102fa5780631904bb2e146104ef5780632228dfa01461051b57806323b872dd1461052f5780632b9f498514610549575f80fd5b80630f15f4c01461048d57806315b5709a146104a157806318160ddd146104db575f80fd5b806306fdde031161035a57806306fdde03146103f7578063081812fc14610418578063095ea7b31461044f5780630a36cdef1461046e575f80fd5b80628d6acd1461037f57806301ffc9a7146103a757806302ae337b146103d6575b5f80fd5b34801561038a575f80fd5b50610394600e5481565b6040519081526020015b60405180910390f35b3480156103b2575f80fd5b506103c66103c136600461524b565b610b3b565b604051901515815260200161039e565b3480156103e1575f80fd5b506103f56103f03660046152ad565b610b65565b005b348015610402575f80fd5b5061040b610cbb565b60405161039e9190615319565b348015610423575f80fd5b5061043761043236600461532b565b610d4a565b6040516001600160a01b03909116815260200161039e565b34801561045a575f80fd5b506103f5610469366004615358565b610d71565b348015610479575f80fd5b506103f56104883660046152ad565b610d8a565b348015610498575f80fd5b506103f5610fdc565b3480156104ac575f80fd5b506104c06104bb366004615380565b611025565b6040805193845260208401929092529082015260600161039e565b3480156104e6575f80fd5b50600854610394565b3480156104fa575f80fd5b5061050e610509366004615380565b61108e565b60405161039e919061546e565b348015610526575f80fd5b506103f561120e565b34801561053a575f80fd5b506103f5610469366004615480565b348015610554575f80fd5b506103f5610563366004615380565b6112d3565b348015610573575f80fd5b50610394610582366004615358565b6113ef565b348015610592575f80fd5b506104376002600160a01b0381565b6103f5611452565b3480156105b4575f80fd5b506105c86105c33660046154cb565b6114fa565b60405161039e91906154e6565b3480156105e0575f80fd5b506105f46105ef36600461532b565b611699565b604080519586526001600160401b03909416602086015263ffffffff9283169385019390935216606083015260ff16608082015260a00161039e565b34801561063b575f80fd5b506103f56116ed565b34801561064f575f80fd5b506103f561065e366004615480565b6116ff565b34801561066e575f80fd5b5061039461067d36600461532b565b611719565b34801561068d575f80fd5b506105f461069c36600461532b565b61176e565b3480156106ac575f80fd5b50600d54610100900460ff166103c6565b3480156106c8575f80fd5b506103f56106d736600461559d565b61177d565b3480156106e7575f80fd5b506104376106f636600461532b565b611889565b348015610706575f80fd5b5061070f611893565b60405160ff909116815260200161039e565b34801561072c575f80fd5b5061040b61073b36600461567a565b6118a5565b34801561074b575f80fd5b506103f561075a366004615380565b6119f2565b34801561076a575f80fd5b506103c6610779366004615701565b611a50565b348015610789575f80fd5b506103c6610798366004615380565b611ac8565b3480156107a8575f80fd5b506103946107b7366004615380565b611b52565b3480156107c7575f80fd5b506103f5611b97565b3480156107db575f80fd5b506103946107ea366004615380565b611ba8565b3480156107fa575f80fd5b506103f5610809366004615733565b611bed565b348015610819575f80fd5b50610822611d63565b60405161039e919081518152602080830151908201526040808301519082015260609182015163ffffffff169181019190915260800190565b348015610866575f80fd5b506103f5611de0565b34801561087a575f80fd5b50610883611df0565b60405161039e97969594939291906157a2565b3480156108a1575f80fd5b506104377307a07a07a07a07a07a07a07a07a07a07a07a07a081565b3480156108c8575f80fd5b506103f56108d7366004615380565b611e57565b6103f56108ea3660046158c5565b611f0a565b3480156108fa575f80fd5b5061090e61090936600461596c565b612180565b60405161039e919061598a565b348015610926575f80fd5b50600d546201000090046001600160a01b0316610437565b348015610949575f80fd5b5061040b6121be565b34801561095d575f80fd5b5061090e61096c3660046154cb565b6121cd565b34801561097c575f80fd5b506103f56104693660046159fa565b348015610996575f80fd5b506108226109a5366004615a2f565b61228e565b6103f56109b8366004615a4f565b612308565b3480156109c8575f80fd5b506103f56109d7366004615ab6565b612396565b3480156109e7575f80fd5b50600d54600160b01b900463ffffffff1660405163ffffffff909116815260200161039e565b348015610a18575f80fd5b506105c86123ae565b348015610a2c575f80fd5b5061070f610a3b366004615b19565b6124bb565b348015610a4b575f80fd5b5061040b610a5a36600461532b565b612571565b348015610a6a575f80fd5b50610394610a79366004615b32565b6125e1565b348015610a89575f80fd5b506103c6610a98366004615b8b565b61269b565b348015610aa8575f80fd5b50600d54600160d81b900461ffff1660405161ffff909116815260200161039e565b348015610ad5575f80fd5b506103f5610ae4366004615380565b6126c8565b348015610af4575f80fd5b506103f5610b03366004615380565b6127f0565b348015610b13575f80fd5b50610b27610b22366004615380565b61282a565b60405161039e989796959493929190615bb3565b5f6001600160e01b0319821663780e9d6360e01b1480610b5f5750610b5f82612918565b92915050565b336002600160a01b0314610b9357604051637eb3357160e01b81523360048201526024015b60405180910390fd5b5f5b81811015610cb65736838383818110610bb057610bb0615c1b565b604002919091019150610bcb90506107986020830183615380565b15610bd65750610cae565b60208101803590600b905f90610bec9085615380565b6001600160a01b03166001600160a01b031681526020019081526020015f20541115610c605760208101803590600b905f90610c289085615380565b6001600160a01b03166001600160a01b031681526020019081526020015f205f828254610c559190615c43565b90915550610c759050565b610c75610c706020830183615380565b612967565b7f11a09f9b32440d896abff7453bf53f8b26ffcb18dae4dca227f7a76e2acc3a6481604051610ca49190615c56565b60405180910390a1505b600101610b95565b505050565b60605f8054610cc990615c7f565b80601f0160208091040260200160405190810160405280929190818152602001828054610cf590615c7f565b8015610d405780601f10610d1757610100808354040283529160200191610d40565b820191905f5260205f20905b815481529060010190602001808311610d2357829003601f168201915b5050505050905090565b5f610d5482612adb565b505f828152600460205260409020546001600160a01b0316610b5f565b60405163dc8d8db760e01b815260040160405180910390fd5b336002600160a01b0314610db357604051637eb3357160e01b8152336004820152602401610b8a565b5f80826001600160401b03811115610dcd57610dcd6155be565b604051908082528060200260200182016040528015610df6578160200160208202803683370190505b5090505f5b83811015610edd5736858583818110610e1657610e16615c1b565b905060400201905080602001355f03610e2f5750610ed5565b610e3f6107986020830183615380565b15610e4a5750610ed5565b5f600f81610e5b6020850185615380565b6001600160a01b0316815260208082019290925260409081015f90812060010154600160f81b900460ff16808252600a8452918120549193509091610ea39085013583615cb7565b9050610eaf8188615cce565b965080868681518110610ec457610ec4615c1b565b602002602001018181525050505050505b600101610dfb565b50815f03610eeb5750505050565b5f610ef46123ae565b6020015190505f600e5482610f099190615cce565b90505f805b86811015610fc4575f86868381518110610f2a57610f2a615c1b565b602002602001015185610f3d9190615cb7565b610f479190615cf5565b90508015610fbb5780600b5f8b8b86818110610f6557610f65615c1b565b610f7b9260206040909202019081019150615380565b6001600160a01b03166001600160a01b031681526020019081526020015f205f828254610fa89190615cce565b90915550610fb890508184615cce565b92505b50600101610f0e565b50610fcf8183615c43565b600e5550505050505b5050565b610fe4612b13565b610fed33612b3c565b50610ff9336001612baa565b335f908152600f60205260409020600d54611022908290600160b01b900463ffffffff16612c13565b50565b6001600160a01b0381165f908152600f6020908152604080832060010154600160f81b900460ff16808452600a90925282205482918291826110678783612c93565b6001600160a01b03979097165f908152600b60205260409020549791969550909350505050565b61109661517c565b6001600160a01b0382165f908152600f602052604090206001810154600160e81b900460ff166110cb576110c983612b3c565b505b80604051806101000160405290815f820180546110e790615c7f565b80601f016020809104026020016040519081016040528092919081815260200182805461111390615c7f565b801561115e5780601f106111355761010080835404028352916020019161115e565b820191905f5260205f20905b81548152906001019060200180831161114157829003601f168201915b505050918352505060018201546001600160a01b038116602083015263ffffffff600160a01b820481166040840152600160c01b820416606083015260809091019060ff600160e01b9091041660068111156111bc576111bc615399565b60068111156111cd576111cd615399565b81526001919091015460ff600160e81b8204811615156020840152600160f01b8204811615156040840152600160f81b909104166060909101529392505050565b611216612b13565b61121f33612b3c565b505f61122b6003612ccc565b51600d549091505f90601190600160d01b900460ff166004811061125157611251615c1b565b600302015490506112628282612f7c565b61126d336003612baa565b335f908152600f60205260409020600d54600182015463ffffffff600160b01b909204821691600160a01b909104168110156112c457604051634fadd4d360e11b815263ffffffff82166004820152602401610b8a565b6112cd82612fb9565b50505050565b6112db612b13565b3068929eee149b4bd2126854036112f95763ab143c065f526004601cfd5b3068929eee149b4bd212685561130e81612b3c565b506001600160a01b0381165f908152600f6020526040812060010154600160f81b900460ff169061133e83613011565b9050336001600160a01b038416148015906113625750336001600160a01b03821614155b1561138b5760405163172b4e7560e11b81526001600160a01b0382166004820152602401610b8a565b5f611397848385613040565b604080516001600160a01b0385168152602081018390529192507ffc30cddea38e2bf4d6ea7d3f9ed3b6ad7f176419f4963bd81318067a4aee73fe91015b60405180910390a15050503868929eee149b4bd212685550565b5f6113f983611b52565b821061142a5760405163295f44f760e21b81526001600160a01b038416600482015260248101839052604401610b8a565b506001600160a01b03919091165f908152600660209081526040808320938352929052205490565b61145a6130f5565b6040515f907307a07a07a07a07a07a07a07a07a07a07a07a07a09034908381818185875af1925050503d805f81146114ad576040519150601f19603f3d011682016040523d82523d5f602084013e6114b2565b606091505b50509050806110225760405162461bcd60e51b815260206004820152601460248201527324b6b837b9b9b4b136329031b7b73234ba34b7b760611b6044820152606401610b8a565b6040805160c08101825260608082525f6020830181905292820183905281018290526080810182905260a0810191909152600d54600160b01b900463ffffffff16611546816002615d08565b63ffffffff168363ffffffff161180611586575060038163ffffffff16101580156115865750611577600382615d24565b63ffffffff168363ffffffff16105b156115ac57604051634fadd4d360e11b815263ffffffff84166004820152602401610b8a565b600d54600160d01b900460ff1663ffffffff828116908516111561168e576115d5848383613129565b60408051825460e0602082028301810190935260c08201818152919392849291849184018282801561162e57602002820191905f5260205f20905b81546001600160a01b03168152600190910190602001808311611610575b5050509183525050600182015460208201526002909101546001600160401b038116604083015263ffffffff600160401b820481166060840152600160601b820416608083015260ff600160801b9091041660a090910152949350505050565b6115d58483836131b3565b601181600481106116a8575f80fd5b6003020160018101546002909101549091506001600160401b03811690600160401b810463ffffffff90811691600160601b810490911690600160801b900460ff1685565b6116f56130f5565b6116fd613254565b565b610cb683838360405180602001604052805f815250612396565b5f61172360085490565b821061174b5760405163295f44f760e21b81525f600482015260248101839052604401610b8a565b6008828154811061175e5761175e615c1b565b905f5260205f2001549050919050565b601d81600481106116a8575f80fd5b6117856130f5565b8061ffff165f036117d857600d54601190600160d01b900460ff16600481106117b0576117b0615c1b565b6003020154604051635700689f60e11b815260048101919091525f6024820152604401610b8a565b5f6117e36003612ccc565b905080518261ffff16111561181b578051604051635700689f60e11b8152600481019190915261ffff83166024820152604401610b8a565b600d805461ffff848116600160d81b81810261ffff60d81b1985161790945584516040805195909404909216808552602085019190915291830152907f74cf7ca84b30b723e8b6e3cc569ec2db21f4ba2fcc09d651e5ce6770b91552f99060600160405180910390a1505050565b5f610b5f82612adb565b5f61189c6123ae565b60a00151905090565b60605f73__$2ef4e8110a3eaa1255da7f08f8eebcbf5a$__63a691a08b856040518263ffffffff1660e01b81526004016118df9190615319565b5f60405180830381865af41580156118f9573d5f803e3d5ffd5b505050506040513d5f823e601f3d908101601f191682016040526119209190810190615d40565b6040516329bd7cc960e21b815290915073__$2ef4e8110a3eaa1255da7f08f8eebcbf5a$__9063a6f5f3249061195a908490600401615319565b602060405180830381865af4158015611975573d5f803e3d5ffd5b505050506040513d601f19601f820116820180604052508101906119999190615db4565b6119b6576040516333a234f960e11b815260040160405180910390fd5b6040516119da9061d50160d81b908690600560fa1b90606088901b90602001615de6565b60405160208183030381529060405291505092915050565b6119fa6130f5565b611a0381611b52565b151580611a145750611a1481611ac8565b15611a3d57604051639fb0877960e01b81526001600160a01b0382166004820152602401610b8a565b611022816001600160a01b0381166132a7565b5f60608214611a6057505f610b5f565b5f8383604051611a71929190615e2f565b60408051918290039091205f818152601060205291909120549091506001600160a01b031680611aa5575f92505050610b5f565b611aae81611ac8565b15611abd575f92505050610b5f565b506001949350505050565b5f611adb6001600160a01b038316613308565b15611ae757505f919050565b5f6001600160a01b0383165f908152600f6020526040902060010154600160e01b900460ff166006811115611b1e57611b1e615399565b03611b2a57505f919050565b506001600160a01b03165f908152600f6020526040902060010154600160e81b900460ff1690565b5f6001600160a01b038216611b7c576040516322718ad960e21b81525f6004820152602401610b8a565b506001600160a01b03165f9081526003602052604090205490565b611b9f6130f5565b6116fd5f61335b565b6001600160a01b0381165f908152600f6020908152604080832060010154600160f81b900460ff16808452600a909252822054611be58482612c93565b949350505050565b336002600160a01b0314611c1657604051637eb3357160e01b8152336004820152602401610b8a565b611c2082826133b6565b600d54600160d81b900461ffff168114611c6457600d54604051635700689f60e11b8152600160d81b90910461ffff16600482015260248101829052604401610b8a565b5f805f80611ca38686808060200260200160405190810160405280939291908181526020018383602002808284375f9201919091525061348d92505050565b9350935093509350611cb68686866137b2565b5f611cc16003612ccc565b8051909150611cd09087612f7c565b7fd1a5032a9ae65ebe520eba7974025750af3d884b6ab6047dad04dcf7006ab3856040518060c00160405280848152602001868152602001436001611d159190615cce565b6001600160401b0316815263ffffffff80891660208301528616604080830191909152600d5460ff1660609092019190915251611d5291906154e6565b60405180910390a150505050505050565b611d9060405180608001604052805f81526020015f81526020015f81526020015f63ffffffff1681525090565b50600d5460ff165f908152600a602090815260409182902082516080810184528154815260018201549281019290925260028101549282019290925260039091015463ffffffff16606082015290565b611de86130f5565b6116fd6139f6565b600f60f81b6060805f808083611e4560408051808201825260148152732a32b631b7b4b71029ba30b5b2a6b0b730b3b2b960611b602080830191909152825180840190935260018352603160f81b9083015291565b97989097965046955030945091925090565b611e5f6130f5565b611e6881611ac8565b15611e89576006604051633ba7bf8960e11b8152600401610b8a9190615e3e565b611e9281612b3c565b505f6001600160a01b0382165f908152600f6020526040902060010154600160e01b900460ff166006811115611eca57611eca615399565b03611f01576001600160a01b0381165f908152600f60205260409020611eef90613a35565b6110226001600160a01b038216613a7b565b61102281612967565b611f12612b13565b5f611f53858589898080601f0160208091040260200160405190810160405280939291908181526020018383808284375f92019190915250613ab392505050565b90505f611f5e6123ae565b60a0015190505f611f6f3483613cad565b9050611f7a86612b3c565b50611f85865f612baa565b6001600160a01b0386165f908152600c60205260409020600201546001600160401b03600160a81b90910416611fca600d546001600160a01b03620100009091041690565b6001600160a01b0316336001600160a01b031614612079575f7f9a361e91fa9aa610b5edf1d5c1cc20b9646c4228f3c004354ed2de7635dac994858933878660405160200161201e96959493929190615e4c565b6040516020818303038152906040528051906020012090505f61204082613ce8565b905061204e89828a8a613dfe565b61207657604051633b4f6e2b60e21b81526001600160a01b038a166004820152602401610b8a565b50505b6040518060a00160405280858152602001886001600160a01b03168152602001336001600160a01b031681526020018460ff1681526020018260016120be9190615e8a565b6001600160401b039081169091526001600160a01b03808a165f908152600c60209081526040918290208551815590850151600180830180549286166001600160a01b03199093169290921790915591850151600290910180546060870151608090970151909516600160a81b0267ffffffffffffffff60a81b1960ff909716600160a01b026001600160a81b031990961692909416919091179390931793909316179055612174908b908b908a908787613ed1565b50505050505050505050565b60605f82600681111561219557612195615399565b036121b55781604051633ba7bf8960e11b8152600401610b8a9190615e3e565b610b5f82612ccc565b606060018054610cc990615c7f565b60605f6121d9836114fa565b5f015190505f81516001600160401b038111156121f8576121f86155be565b60405190808252806020026020018201604052801561223157816020015b61221e61517c565b8152602001906001900390816122165790505b5090505f5b81518110156122865761226183828151811061225457612254615c1b565b602002602001015161108e565b82828151811061227357612273615c1b565b6020908102919091010152600101612236565b509392505050565b6122bb60405180608001604052805f81526020015f81526020015f81526020015f63ffffffff1681525090565b5060ff165f908152600a602090815260409182902082516080810184528154815260018201549281019290925260028101549282019290925260039091015463ffffffff16606082015290565b612310612b13565b612350813385858080601f0160208091040260200160405190810160405280939291908181526020018383808284375f92019190915250613ab392505050565b505f61235a6123ae565b60a0015190505f61236b3483613cad565b905061237633612b3c565b50612381335f612baa565b61238f8585335f8686613ed1565b5050505050565b6123a1848484610d71565b6112cd33858585856140b9565b6040805160c08101825260608082525f6020830181905292820183905281018290526080810182905260a0810191909152600d5461240590600160b01b810463ffffffff16908190600160d01b900460ff166131b3565b60408051825460e0602082028301810190935260c08201818152919392849291849184018282801561245e57602002820191905f5260205f20905b81546001600160a01b03168152600190910190602001808311612440575b5050509183525050600182015460208201526002909101546001600160401b038116604083015263ffffffff600160401b820481166060840152600160601b820416608083015260ff600160801b9091041660a090910152919050565b5f6124c46130f5565b6124cc612b13565b6124dc60808301606084016154cb565b63ffffffff165f0361251a576124f860808301606084016154cb565b604051630c6e911360e41b815263ffffffff9091166004820152602401610b8a565b600d80545f9190829061252f9060ff16615ea9565b825460ff8083166101009490940a848102910219909116179092555f908152600a6020526040902090915083906125668282615ec7565b50909150505b919050565b606061257c82612adb565b505f6125b761258a846141e0565b61259261428e565b6040516020016125a3929190615f0a565b6040516020818303038152906040526142d8565b9050806040516020016125ca9190615ff9565b604051602081830303815290604052915050919050565b5f6125eb83612b3c565b505f6125f56123ae565b60a001516001600160a01b0385165f908152600c602090815260408083206002015489518a8401209151949550600160a81b90046001600160401b03169390929161266c917f9a361e91fa9aa610b5edf1d5c1cc20b9646c4228f3c004354ed2de7635dac9949185918b918b918a918a9101615e4c565b60405160208183030381529060405280519060200120905061268d81613ce8565b9450505050505b9392505050565b6001600160a01b039182165f90815260056020908152604080832093909416825291909152205460ff1690565b6126d0612b13565b3068929eee149b4bd2126854036126ee5763ab143c065f526004601cfd5b3068929eee149b4bd212685561270381612b3c565b505f61270e82613011565b9050336001600160a01b038316148015906127325750336001600160a01b03821614155b1561275b5760405163172b4e7560e11b81526001600160a01b0382166004820152602401610b8a565b6001600160a01b0382165f908152600f6020526040902061277b816142fe565b61279a57806040516371964ca360e11b8152600401610b8a91906160a9565b6127a381613a35565b5f6127ae848461439e565b604080516001600160a01b0386168152602081018390529192507ffc30cddea38e2bf4d6ea7d3f9ed3b6ad7f176419f4963bd81318067a4aee73fe91016113d5565b6127f86130f5565b6001600160a01b03811661282157604051631e4fbdf760e01b81525f6004820152602401610b8a565b6110228161335b565b600f6020525f908152604090208054819061284490615c7f565b80601f016020809104026020016040519081016040528092919081815260200182805461287090615c7f565b80156128bb5780601f10612892576101008083540402835291602001916128bb565b820191905f5260205f20905b81548152906001019060200180831161289e57829003601f168201915b505050600190930154919250506001600160a01b0381169063ffffffff600160a01b8204811691600160c01b81049091169060ff600160e01b8204811691600160e81b8104821691600160f01b8204811691600160f81b90041688565b5f6001600160e01b031982166380ac58cd60e01b148061294857506001600160e01b03198216635b5e139f60e01b145b80610b5f57506301ffc9a760e01b6001600160e01b0319831614610b5f565b6001600160a01b0381165f908152600f6020526040812060018101549091600160e01b90910460ff169061299b6003612ccc565b5190506129a782614502565b156129ba576129b7600182615c43565b90505b6129c48482614555565b5f806129cf86611025565b506001600160a01b0388165f908152600b6020526040812081905591935091508183106129fc57816129fe565b825b6040519091505f907307a07a07a07a07a07a07a07a07a07a07a07a07a09083908381818185875af1925050503d805f8114612a54576040519150601f19603f3d011682016040523d82523d5f602084013e612a59565b606091505b5050905080612aa15760405162461bcd60e51b815260206004820152601460248201527324b6b837b9b9b4b136329031b7b73234ba34b7b760611b6044820152606401610b8a565b600d54612abc908890600160b01b900463ffffffff16614696565b612ac587613a35565b5f612acf89613011565b9050612174898261439e565b5f818152600260205260408120546001600160a01b031680610b5f57604051637e27328960e01b815260048101849052602401610b8a565b600d54610100900460ff16156116fd5760405163d93c066560e01b815260040160405180910390fd5b5f6001600160a01b038216612b5081613308565b612b705760405163ed15e6cf60e01b815260048101829052602401610b8a565b826001600160a01b0316612b8382611889565b6001600160a01b031614610b5f576040516330fa89ab60e11b815260040160405180910390fd5b6001600160a01b0382165f908152600f6020526040902060010154600160e01b900460ff16816006811115612be157612be1615399565b816006811115612bf357612bf3615399565b14610cb65780604051633ba7bf8960e11b8152600401610b8a9190615e3e565b612c1e816001615d08565b60018301805463ffffffff92909216600160a01b0260ff60e01b191668ff00000000ffffffff60a01b1990921691909117600160e11b1790556040517fbdacb030997c2fe9d7ee41c51f5a150138c75b326c7a66f88ced12925f80bc0590612c879084906160a9565b60405180910390a15050565b6001600160a01b0382165f908152600b602052604081205481838211612cb9575f612cc3565b612cc38483615c43565b95945050505050565b60605f612cd860085490565b6001600160401b03811115612cef57612cef6155be565b604051908082528060200260200182016040528015612d2857816020015b612d1561517c565b815260200190600190039081612d0d5790505b5090505f805b8251811015612f73575f612d47612d4483611719565b90565b6001600160a01b0381165f908152600f60205260409020600181015491925090600160e81b900460ff1615612d7d575050612f6b565b5f6006886006811115612d9257612d92615399565b14905080612dfc576001820154600160e01b900460ff166003896006811115612dbd57612dbd615399565b03612dd257612dcb81614502565b9150612dfa565b886006811115612de457612de4615399565b816006811115612df657612df6615399565b1491505b505b8015612f675781604051806101000160405290815f82018054612e1e90615c7f565b80601f0160208091040260200160405190810160405280929190818152602001828054612e4a90615c7f565b8015612e955780601f10612e6c57610100808354040283529160200191612e95565b820191905f5260205f20905b815481529060010190602001808311612e7857829003601f168201915b505050918352505060018201546001600160a01b038116602083015263ffffffff600160a01b820481166040840152600160c01b820416606083015260809091019060ff600160e01b909104166006811115612ef357612ef3615399565b6006811115612f0457612f04615399565b81526001919091015460ff600160e81b8204811615156020840152600160f01b8204811615156040840152600160f81b909104166060909101528686612f4981616143565b975081518110612f5b57612f5b615c1b565b60200260200101819052505b5050505b600101612d2e565b50815292915050565b811580612f87575080155b80612f9157508181115b15610fd857604051635700689f60e11b81526004810183905260248101829052604401610b8a565b60018101805464ffffffffff60c01b19166404ffffffff60c01b1790556040517f537bf236138f80ea8801a391fffc8a42bf0be3b6ea9d336ca2e2164a4c91071c906130069083906160a9565b60405180910390a150565b6001600160a01b038082165f908152600c60205260408120600281015491929091168061269457509192915050565b5f8061304c85846146ef565b6001600160a01b0386165f908152600b6020526040812080549293508392909190613078908490615c43565b9091555050604051634875485760e11b81526001600160a01b0385166004820152602481018290527307a07a07a07a07a07a07a07a07a07a07a07a07a0906390ea90ae906044015f604051808303815f87803b1580156130d6575f80fd5b505af11580156130e8573d5f803e3d5ffd5b5092979650505050505050565b600d546001600160a01b03620100009091041633146116fd5760405163118cdaa760e01b8152336004820152602401610b8a565b5f806004836131388688615d24565b613142919061615b565b61314c9190616174565b90505f601d8260ff166004811061316557613165615c1b565b6003020190508563ffffffff168160020160089054906101000a900463ffffffff1663ffffffff1614612cc357604051634fadd4d360e11b815263ffffffff87166004820152602401610b8a565b5f806131bf8585615d24565b90505f6004826131cf868361615b565b6131d99190616195565b6131e39190616174565b90505f60118260ff16600481106131fc576131fc615c1b565b6003020190508663ffffffff168160020160089054906101000a900463ffffffff1663ffffffff161461324a57604051634fadd4d360e11b815263ffffffff88166004820152602401610b8a565b9695505050505050565b61325c61474f565b600d805461ff00191690557f5db9ee0a495bf2e6ff9c91a7834c1ba4fdd244a5e8aa4e537bd38aeae4b073aa335b6040516001600160a01b03909116815260200160405180910390a1565b6001600160a01b0382166132d057604051633250574960e11b81525f6004820152602401610b8a565b5f6132dc83835f614777565b90506001600160a01b03811615610cb6576040516339e3563760e11b81525f6004820152602401610b8a565b5f81158061331d57506001600160a01b038210155b1561333e5760405163ed15e6cf60e01b815260048101839052602401610b8a565b505f908152600260205260409020546001600160a01b0316151590565b600d80546001600160a01b038381166201000081810262010000600160b01b031985161790945560405193909204169182907f8be0079c531659141344cd1fd0a4f28419497f9722a3daafe3b4186f6b6457e0905f90a35050565b5f5b6133c3600183615c43565b811015610cb65782826133d7836001615cce565b8181106133e6576133e6615c1b565b90506020020160208101906133fb9190615380565b6001600160a01b031683838381811061341657613416615c1b565b905060200201602081019061342b9190615380565b6001600160a01b0316106134855782828281811061344b5761344b615c1b565b90506020020160208101906134609190615380565b60405163836e3a7d60e01b81526001600160a01b039091166004820152602401610b8a565b6001016133b8565b600d545f9081908190606090600160d01b900460ff168260046134b183600161615b565b6134bb9190616174565b600d805460ff60d01b1916600160d01b60ff841602178082559192505f916016906134f290600160b01b900463ffffffff166161ae565b91906101000a81548163ffffffff021916908363ffffffff160217905590505f601d8360ff166004811061352857613528615c1b565b6003020190505f613537611d63565b90506040518060c001604052808380548060200260200160405190810160405280929190818152602001828054801561359757602002820191905f5260205f20905b81546001600160a01b03168152600190910190602001808311613579575b50505091835250506040808401516020830152016135b6436001615e8a565b6001600160401b0316815263ffffffff80861660208301526060808501519091166040830152600d5460ff90811691909201526011908616600481106135fe576135fe615c1b565b600302015f820151815f01908051906020019061361c9291906151bf565b50602082015160018201556040820151600291820180546060850151608086015160a0909601516001600160401b039094166bffffffffffffffffffffffff1990921691909117600160401b63ffffffff928316021764ffffffffff60601b1916600160601b919095160260ff60801b191693909317600160801b60ff90921691909102179091555f906004906136b490879061615b565b6136be9190616174565b90508a601d8260ff16600481106136d7576136d7615c1b565b600302015f0190805190602001906136f09291906151bf565b506136fc846002615d08565b601d8260ff166004811061371257613712615c1b565b6003020160020160086101000a81548163ffffffff021916908363ffffffff1602179055508382604001518360600151858080548060200260200160405190810160405280929190818152602001828054801561379657602002820191905f5260205f20905b81546001600160a01b03168152600190910190602001808311613778575b5050505050905099509950995099505050505050509193509193565b5f6137bd6002612ccc565b90505f5b815181101561381f575f600f5f8484815181106137e0576137e0615c1b565b6020026020010151602001516001600160a01b03166001600160a01b031681526020019081526020015f20905061381681614842565b506001016137c1565b505f61382b6004612ccc565b600d54909150600160d01b900460ff165f600461384983600161615b565b6138539190616174565b90505f60118360ff166004811061386c5761386c615c1b565b600302018054604080516020808402820181019092528281529291908301828280156138bf57602002820191905f5260205f20905b81546001600160a01b031681526001909101906020018083116138a1575b505050505090505f601d8360ff16600481106138dd576138dd615c1b565b6003020180546040805160208084028201810190925282815292919083018282801561393057602002820191905f5260205f20905b81546001600160a01b03168152600190910190602001808311613912575b505050505090505f5b8551811015612174575f86828151811061395557613955615c1b565b602002602001015160200151905061396d8185614887565b8061397d575061397d8184614887565b806139bf57506139bf818c8c808060200260200160405190810160405280939291908181526020018383602002808284375f9201919091525061488792505050565b156139ca57506139ee565b6001600160a01b0381165f908152600f602052604090206139eb818b614696565b50505b600101613939565b6139fe612b13565b600d805461ff0019166101001790557f62e78cea01bee320cd4e420270b5ea74000d11b0c9f74754ebdbfc544b05a25861328a3390565b60018101805461ffff60e01b1916608360e11b1790556040517fb9e0e3d06d30a4b0476d42accfa2ee90a854c961cc7f10ddc965608a97b982b1906130069083906160a9565b5f613a875f835f614777565b90506001600160a01b038116610fd857604051637e27328960e01b815260048101839052602401610b8a565b5f8151606014613ad6576040516333a234f960e11b815260040160405180910390fd5b5f613ae4855f0151856118a5565b855160405163a691a08b60e01b81529192505f9173__$2ef4e8110a3eaa1255da7f08f8eebcbf5a$__9163a691a08b91613b219190600401615319565b5f60405180830381865af4158015613b3b573d5f803e3d5ffd5b505050506040513d5f823e601f3d908101601f19168201604052613b629190810190615d40565b90505f73__$2ef4e8110a3eaa1255da7f08f8eebcbf5a$__633d2a9e1188602001516040518263ffffffff1660e01b8152600401613ba09190615319565b5f60405180830381865af4158015613bba573d5f803e3d5ffd5b505050506040513d5f823e601f3d908101601f19168201604052613be19190810190615d40565b905073__$2ef4e8110a3eaa1255da7f08f8eebcbf5a$__635779b9a38383866040518060600160405280602b81526020016168f4602b91396040518563ffffffff1660e01b8152600401613c3894939291906161c9565b602060405180830381865af4158015613c53573d5f803e3d5ffd5b505050506040513d601f19601f82011682018060405250810190613c779190615db4565b613c98578683604051634babb8f160e01b8152600401610b8a929190616215565b613ca285876148e4565b979650505050505050565b60ff81165f908152600a60205260408120548314613ce15760405163222d164360e21b815260048101849052602401610b8a565b5090919050565b7f00000000000000000000000000000000000000000000000000000000000000007f000000000000000000000000000000000000000000000000000000000000000030147f0000000000000000000000000000000000000000000000000000000000000000461416613ddb5750604080517f8b73c3c69bb8fe3d512ecc4cf759cc79239f7b179b0ffacaa9a75d522b39400f81527f000000000000000000000000000000000000000000000000000000000000000060208201527f00000000000000000000000000000000000000000000000000000000000000009181019190915246606082015230608082015260a090205b6719010000000000005f5280601a5281603a52604260182090505f603a52919050565b5f6001600160a01b03851615611be557604051853b613e8e578260408114613e2e5760418114613e555750613ec8565b60208581013560ff81901c601b0190915285356040526001600160ff1b0316606052613e66565b60408501355f1a6020526040856040375b50845f526020600160805f60015afa5180871860601b3d119250505f60605280604052613ec8565b631626ba7e60e01b80825285600483015260248201604081528460448401528486606485013760208160648701858b5afa90519091141691505b50949350505050565b604080516101206020601f8901819004028201810190925261010081018781525f928291908a908a90819085018382808284375f9201829052509385525050506001600160a01b038816602083015263ffffffff60408301526060820152608001600181525f602080830182905287151560408085019190915260ff88166060909401939093526001600160a01b0389168252600f905220815191925082918190613f7c90826162a5565b5060208201516001820180546040850151606086015163ffffffff908116600160c01b0263ffffffff60c01b1991909216600160a01b026001600160c01b03199093166001600160a01b0390951694909417919091179283168117825560808501519260ff60e01b1990911664ffffffffff60c01b1990911617600160e01b83600681111561400d5761400d615399565b021790555060a08201516001909101805460c084015160e09094015160ff16600160f81b026001600160f81b03941515600160f01b0260ff60f01b19941515600160e81b029490941661ffff60e81b199092169190911792909217929092161790556001600160a01b0385165f908152600b602052604090819020839055517f7d89246e6daeb7529685fda2e1f478d9a155eea08675ebecd1bf8c0e572382fd90611d5290839061546e565b6001600160a01b0383163b1561238f57604051630a85bd0160e11b81526001600160a01b0384169063150b7a02906140fb90889088908790879060040161635f565b6020604051808303815f875af1925050508015614135575060408051601f3d908101601f1916820190925261413291810190616391565b60015b61419c573d808015614162576040519150601f19603f3d011682016040523d82523d5f602084013e614167565b606091505b5080515f0361419457604051633250574960e11b81526001600160a01b0385166004820152602401610b8a565b805181602001fd5b6001600160e01b03198116630a85bd0160e11b146141d857604051633250574960e11b81526001600160a01b0385166004820152602401610b8a565b505050505050565b60605f6141ec83614953565b6028602282012090915060601c60295b600181111561428557600782600f161180156142315750606083828151811061422757614227615c1b565b016020015160f81c115b1561426e57602060f81b83828151811061424d5761424d615c1b565b0160200180516001600160f81b0319908116909218909116905f82901a9053505b60049190911c9061427e816163ac565b90506141fc565b50909392505050565b60606142b46040518061052001604052806104ed81526020016164076104ed91396142d8565b6040516020016142c491906163c1565b604051602081830303815290604052905090565b6060610b5f8260405180606001604052806040815260200161691f604091396001614969565b6001818101545f91600160e01b90910460ff169081600681111561432457614324615399565b036143325750600192915050565b6001838101545f9161435191600160c01b900463ffffffff1690615d08565b9050600582600681111561436757614367615399565b1480156143865750600d5463ffffffff808316600160b01b9092041610155b15614395575060019392505050565b505f9392505050565b5f6143b16001600160a01b038416613a7b565b6008545f036143d3576040516315ae672760e01b815260040160405180910390fd5b5f805f6143df86611025565b925092509250825f036143f757829350505050610b5f565b6001600160a01b0386165f908152600b6020526040812081905582841061441f575081614484565b50825f7307a07a07a07a07a07a07a07a07a07a07a07a07a06144418386615c43565b6040515f81818185875af1925050503d805f811461447a576040519150601f19603f3d011682016040523d82523d5f602084013e61447f565b606091505b505050505b604051634875485760e11b81526001600160a01b0387166004820152602481018390527307a07a07a07a07a07a07a07a07a07a07a07a07a0906390ea90ae9083906044015f604051808303818588803b1580156144df575f80fd5b505af11580156144f1573d5f803e3d5ffd5b50505050508181613ca29190615cce565b5f600382600681111561451757614517615399565b14806145345750600482600681111561453257614532615399565b145b80610b5f5750600282600681111561454e5761454e615399565b1492915050565b600d54600160b01b810463ffffffff1690600160d01b900460ff165f61457c8380846131b3565b90505f6145898287614ae3565b82549091506145988682612f7c565b5f6145a4866001615d08565b90505f6145b2828888613129565b90506145be818a614ae3565b815490945092506145cf8884612f7c565b5f6145db886002615d08565b90505f6145e9828a8a613129565b90506145f5818c614ae3565b815490965094506146068a86612f7c565b600d54600160d81b900461ffff168a101561468957600d805461ffff8c8116600160d81b90810261ffff60d81b1984161793849055604080519382900483168085529190940490911660208301529181018c90527f74cf7ca84b30b723e8b6e3cc569ec2db21f4ba2fcc09d651e5ce6770b91552f99060600160405180910390a1505b5050505050505050505050565b60018201805463ffffffff8316600160c01b0264ffffffffff60c01b1990911617600560e01b1790556040517f69cb3a026a27d868ccc41f8a2a5e4b59396939b736cf54a110052c9983e8378d90612c879084906160a9565b60ff81165f908152600a60205260408120548161470c8583612c93565b905080158061472e575060ff84165f908152600a602052604090206001015481105b15611be557604051633737b70960e11b815260048101829052602401610b8a565b600d54610100900460ff166116fd57604051638dfc202b60e01b815260040160405180910390fd5b5f80614784858585614bde565b90506001600160a01b0381166147e0576147db84600880545f838152600960205260408120829055600182018355919091527ff3f7a9fe364faab93b216da50a3214154f22a0a2b415b23a84c8169e8b636ee30155565b614803565b846001600160a01b0316816001600160a01b031614614803576148038185614cd0565b6001600160a01b03851661481f5761481a84614d4d565b611be5565b846001600160a01b0316816001600160a01b031614611be557611be58585614df4565b60018101805460ff60e01b1916600360e01b1790556040517f31845bad1fcdd92490e8d85605449863a562ea940e37b380a276e440683fdb72906130069083906160a9565b80515f90815b818110156148da57846001600160a01b03168482815181106148b1576148b1615c1b565b60200260200101516001600160a01b0316036148d257600192505050610b5f565b60010161488d565b505f949350505050565b81516020808401919091205f81815260109092526040909120546001600160a01b03161561492557604051638d12779f60e01b815260040160405180910390fd5b5f81815260106020526040902080546001600160a01b0384166001600160a01b031990911617905592915050565b6060610b5f6001600160a01b0383166014614e42565b606083515f03614987575060408051602081019091525f8152612694565b5f826149b75760038551600461499d9190615cb7565b6149a8906002615cce565b6149b29190615cf5565b6149dc565b6003855160026149c79190615cce565b6149d19190615cf5565b6149dc906004615cb7565b90505f816001600160401b038111156149f7576149f76155be565b6040519080825280601f01601f191660200182016040528015614a21576020820181803683370190505b509050600185016020820187885189016020810180515f82525b82841015614a96576003840193508351603f8160121c168701518653600186019550603f81600c1c168701518653600186019550603f8160061c168701518653600186019550603f8116870151865350600185019450614a3b565b905250508515614ad757600388510660018114614aba5760028114614acd57614ad5565b603d6001830353603d6002830353614ad5565b603d60018303535b505b50909695505050505050565b81545f90815b818110156148da57836001600160a01b0316858281548110614b0d57614b0d615c1b565b5f918252602090912001546001600160a01b031603614bd65784614b32600184615c43565b81548110614b4257614b42615c1b565b905f5260205f20015f9054906101000a90046001600160a01b0316858281548110614b6f57614b6f615c1b565b905f5260205f20015f6101000a8154816001600160a01b0302191690836001600160a01b0316021790555084805480614baa57614baa6163f2565b5f8281526020902081015f1990810180546001600160a01b03191690550190555060019150610b5f9050565b600101614ae9565b5f828152600260205260408120546001600160a01b0390811690831615614c0a57614c0a818486614fb3565b6001600160a01b03811615614c4457614c255f855f80615017565b6001600160a01b0381165f90815260036020526040902080545f190190555b6001600160a01b03851615614c72576001600160a01b0385165f908152600360205260409020805460010190555b5f8481526002602052604080822080546001600160a01b0319166001600160a01b0389811691821790925591518793918516917fddf252ad1be2c89b69c2b068fc378daa952ba7f163c4a11628f55a4df523b3ef91a4949350505050565b5f614cda83611b52565b5f838152600760209081526040808320546001600160a01b0388168452600690925290912091925090818314614d2f575f83815260208281526040808320548584528184208190558352600790915290208290555b5f938452600760209081526040808620869055938552525081205550565b6008545f90614d5e90600190615c43565b5f8381526009602052604081205460088054939450909284908110614d8557614d85615c1b565b905f5260205f20015490508060088381548110614da457614da4615c1b565b5f918252602080832090910192909255828152600990915260408082208490558582528120556008805480614ddb57614ddb6163f2565b600190038181905f5260205f20015f9055905550505050565b5f6001614e0084611b52565b614e0a9190615c43565b6001600160a01b039093165f908152600660209081526040808320868452825280832085905593825260079052919091209190915550565b6060825f614e51846002615cb7565b614e5c906002615cce565b6001600160401b03811115614e7357614e736155be565b6040519080825280601f01601f191660200182016040528015614e9d576020820181803683370190505b509050600360fc1b815f81518110614eb757614eb7615c1b565b60200101906001600160f81b03191690815f1a905350600f60fb1b81600181518110614ee557614ee5615c1b565b60200101906001600160f81b03191690815f1a9053505f614f07856002615cb7565b614f12906001615cce565b90505b6001811115614f89576f181899199a1a9b1b9c1cb0b131b232b360811b83600f1660108110614f4657614f46615c1b565b1a60f81b828281518110614f5c57614f5c615c1b565b60200101906001600160f81b03191690815f1a90535060049290921c91614f82816163ac565b9050614f15565b508115611be55760405163e22e27eb60e01b81526004810186905260248101859052604401610b8a565b614fbe83838361511b565b610cb6576001600160a01b038316614fec57604051637e27328960e01b815260048101829052602401610b8a565b60405163177e802f60e01b81526001600160a01b038316600482015260248101829052604401610b8a565b808061502b57506001600160a01b03821615155b156150ec575f61503a84612adb565b90506001600160a01b038316158015906150665750826001600160a01b0316816001600160a01b031614155b80156150795750615077818461269b565b155b156150a25760405163a9fbf51f60e01b81526001600160a01b0384166004820152602401610b8a565b81156150ea5783856001600160a01b0316826001600160a01b03167f8c5be1e5ebec7d5bd14f71427d1e84f3dd0314c0f7b2291e5b200ac8c7c3b92560405160405180910390a45b505b50505f90815260046020526040902080546001600160a01b0319166001600160a01b0392909216919091179055565b5f6001600160a01b03831615801590611be55750826001600160a01b0316846001600160a01b031614806151545750615154848461269b565b80611be55750505f908152600460205260409020546001600160a01b03908116911614919050565b604080516101008101825260608082525f60208301819052928201839052810182905290608082019081525f602082018190526040820181905260609091015290565b828054828255905f5260205f20908101928215615212579160200282015b8281111561521257825182546001600160a01b0319166001600160a01b039091161782556020909201916001909101906151dd565b5061521e929150615222565b5090565b5b8082111561521e575f8155600101615223565b6001600160e01b031981168114611022575f80fd5b5f6020828403121561525b575f80fd5b813561269481615236565b5f8083601f840112615276575f80fd5b5081356001600160401b0381111561528c575f80fd5b6020830191508360208260061b85010111156152a6575f80fd5b9250929050565b5f80602083850312156152be575f80fd5b82356001600160401b038111156152d3575f80fd5b6152df85828601615266565b90969095509350505050565b5f81518084528060208401602086015e5f602082860101526020601f19601f83011685010191505092915050565b602081525f61269460208301846152eb565b5f6020828403121561533b575f80fd5b5035919050565b80356001600160a01b038116811461256c575f80fd5b5f8060408385031215615369575f80fd5b61537283615342565b946020939093013593505050565b5f60208284031215615390575f80fd5b61269482615342565b634e487b7160e01b5f52602160045260245ffd5b600781106153c957634e487b7160e01b5f52602160045260245ffd5b9052565b5f815161010084526153e36101008501826152eb565b905060018060a01b03602084015116602085015263ffffffff6040840151166040850152606083015161541e606086018263ffffffff169052565b50608083015161543160808601826153ad565b5060a083015161544560a086018215159052565b5060c083015161545960c086018215159052565b5060e083015161228660e086018260ff169052565b602081525f61269460208301846153cd565b5f805f60608486031215615492575f80fd5b61549b84615342565b92506154a960208501615342565b929592945050506040919091013590565b63ffffffff81168114611022575f80fd5b5f602082840312156154db575f80fd5b8135612694816154ba565b6020808252825160c083830152805160e084018190525f92919091019082906101008501905b808310156155375783516001600160a01b03168252602093840193600193909301929091019061550c565b50602086015160408601526040860151925061555e60608601846001600160401b03169052565b606086015163ffffffff811660808701529250608086015163ffffffff811660a0870152925060a086015160ff811660c0870152925095945050505050565b5f602082840312156155ad575f80fd5b813561ffff81168114612694575f80fd5b634e487b7160e01b5f52604160045260245ffd5b604051601f8201601f191681016001600160401b03811182821017156155fa576155fa6155be565b604052919050565b5f6001600160401b0382111561561a5761561a6155be565b50601f01601f191660200190565b5f82601f830112615637575f80fd5b813561564a61564582615602565b6155d2565b81815284602083860101111561565e575f80fd5b816020850160208301375f918101602001919091529392505050565b5f806040838503121561568b575f80fd5b82356001600160401b038111156156a0575f80fd5b6156ac85828601615628565b9250506156bb60208401615342565b90509250929050565b5f8083601f8401126156d4575f80fd5b5081356001600160401b038111156156ea575f80fd5b6020830191508360208285010111156152a6575f80fd5b5f8060208385031215615712575f80fd5b82356001600160401b03811115615727575f80fd5b6152df858286016156c4565b5f8060208385031215615744575f80fd5b82356001600160401b03811115615759575f80fd5b8301601f81018513615769575f80fd5b80356001600160401b0381111561577e575f80fd5b8560208260051b8401011115615792575f80fd5b6020919091019590945092505050565b60ff60f81b8816815260e060208201525f6157c060e08301896152eb565b82810360408401526157d281896152eb565b606084018890526001600160a01b038716608085015260a0840186905283810360c0850152845180825260208087019350909101905f5b81811015615827578351835260209384019390920191600101615809565b50909b9a5050505050505050505050565b5f60408284031215615848575f80fd5b604080519081016001600160401b038111828210171561586a5761586a6155be565b60405290508082356001600160401b03811115615885575f80fd5b61589185828601615628565b82525060208301356001600160401b038111156158ac575f80fd5b6158b885828601615628565b6020830152505092915050565b5f805f805f80608087890312156158da575f80fd5b86356001600160401b038111156158ef575f80fd5b6158fb89828a016156c4565b90975095505060208701356001600160401b03811115615919575f80fd5b61592589828a01615838565b94505061593460408801615342565b925060608701356001600160401b0381111561594e575f80fd5b61595a89828a016156c4565b979a9699509497509295939492505050565b5f6020828403121561597c575f80fd5b813560078110612694575f80fd5b5f602082016020835280845180835260408501915060408160051b8601019250602086015f5b828110156159e157603f198786030184526159cc8583516153cd565b945060209384019391909101906001016159b0565b50929695505050505050565b8015158114611022575f80fd5b5f8060408385031215615a0b575f80fd5b615a1483615342565b91506020830135615a24816159ed565b809150509250929050565b5f60208284031215615a3f575f80fd5b813560ff81168114612694575f80fd5b5f805f60408486031215615a61575f80fd5b83356001600160401b03811115615a76575f80fd5b615a82868287016156c4565b90945092505060208401356001600160401b03811115615aa0575f80fd5b615aac86828701615838565b9150509250925092565b5f805f8060808587031215615ac9575f80fd5b615ad285615342565b9350615ae060208601615342565b92506040850135915060608501356001600160401b03811115615b01575f80fd5b615b0d87828801615628565b91505092959194509250565b5f6080828403128015615b2a575f80fd5b509092915050565b5f805f60608486031215615b44575f80fd5b83356001600160401b03811115615b59575f80fd5b615b6586828701615628565b935050615b7460208501615342565b9150615b8260408501615342565b90509250925092565b5f8060408385031215615b9c575f80fd5b615ba583615342565b91506156bb60208401615342565b61010081525f615bc761010083018b6152eb565b6001600160a01b038a16602084015263ffffffff8981166040850152881660608401529050615bf960808301876153ad565b93151560a082015291151560c083015260ff1660e09091015295945050505050565b634e487b7160e01b5f52603260045260245ffd5b634e487b7160e01b5f52601160045260245ffd5b81810381811115610b5f57610b5f615c2f565b604081016001600160a01b03615c6b84615342565b168252602092830135929091019190915290565b600181811c90821680615c9357607f821691505b602082108103615cb157634e487b7160e01b5f52602260045260245ffd5b50919050565b8082028115828204841417610b5f57610b5f615c2f565b80820180821115610b5f57610b5f615c2f565b634e487b7160e01b5f52601260045260245ffd5b5f82615d0357615d03615ce1565b500490565b63ffffffff8181168382160190811115610b5f57610b5f615c2f565b63ffffffff8281168282160390811115610b5f57610b5f615c2f565b5f60208284031215615d50575f80fd5b81516001600160401b03811115615d65575f80fd5b8201601f81018413615d75575f80fd5b8051615d8361564582615602565b818152856020838501011115615d97575f80fd5b8160208401602083015e5f91810160200191909152949350505050565b5f60208284031215615dc4575f80fd5b8151612694816159ed565b5f81518060208401855e5f93019283525090919050565b6001600160d81b0319851681525f615e016005830186615dcf565b6001600160f81b031994909416845250506bffffffffffffffffffffffff1916600182015260150192915050565b818382375f9101908152919050565b60208101610b5f82846153ad565b95865260208601949094526001600160a01b0392831660408601529116606084015260ff1660808301526001600160401b031660a082015260c00190565b6001600160401b038181168382160190811115610b5f57610b5f615c2f565b5f60ff821660ff8103615ebe57615ebe615c2f565b60010192915050565b813581556020820135600182015560408201356002820155600381016060830135615ef1816154ba565b815463ffffffff191663ffffffff919091161790555050565b7f7b226e616d65223a202254656c636f696e2d4e6574776f726b20436f6e73656e8152651cdd5cd3919560d21b60208201525f615f4a6026830185615dcf565b7f222c20226465736372697074696f6e223a2022455243373231204e465420776881527f6f7365206f776e657273686970206c656467657220726570726573656e74732060208201527f746865207065726d697373696f6e65642077686974656c69737420666f72207660408201527530b634b230ba37b9399116101134b6b0b3b2911d101160511b6060820152615fe56076820185615dcf565b61227d60f01b815260020195945050505050565b7f646174613a6170706c69636174696f6e2f6a736f6e3b6261736536342c00000081525f612694601d830184615dcf565b5f815461603681615c7f565b808552600182168015616050576001811461606c576160a0565b60ff1983166020870152602082151560051b87010193506160a0565b845f5260205f205f5b838110156160975781546020828a010152600182019150602081019050616075565b87016020019450505b50505092915050565b6020815261010060208201525f6160c461012083018461602a565b60018401546001600160a01b038116604085015260a081901c63ffffffff16606085015260c081901c63ffffffff16608085015261610b60a0850160ff8360e01c166153ad565b61611f60c0850160ff8360e81c1615159052565b61613360e0850160ff8360f01c1615159052565b60f881901c610100850152612286565b5f6001820161615457616154615c2f565b5060010190565b60ff8181168382160190811115610b5f57610b5f615c2f565b5f60ff83168061618657616186615ce1565b8060ff84160691505092915050565b60ff8281168282160390811115610b5f57610b5f615c2f565b5f63ffffffff821663ffffffff8103615ebe57615ebe615c2f565b608081525f6161db60808301876152eb565b82810360208401526161ed81876152eb565b9050828103604084015261620181866152eb565b90508281036060840152613ca281856152eb565b604081525f835160408084015261622f60808401826152eb565b90506020850151603f1984830301606085015261624c82826152eb565b9150508281036020840152612cc381856152eb565b601f821115610cb657805f5260205f20601f840160051c810160208510156162865750805b601f840160051c820191505b8181101561238f575f8155600101616292565b81516001600160401b038111156162be576162be6155be565b6162d2816162cc8454615c7f565b84616261565b6020601f821160018114616304575f83156162ed5750848201515b5f19600385901b1c1916600184901b17845561238f565b5f84815260208120601f198516915b828110156163335787850151825560209485019460019092019101616313565b508482101561635057868401515f19600387901b60f8161c191681555b50505050600190811b01905550565b6001600160a01b03858116825284166020820152604081018390526080606082018190525f9061324a908301846152eb565b5f602082840312156163a1575f80fd5b815161269481615236565b5f816163ba576163ba615c2f565b505f190190565b7f646174613a696d6167652f7376672b786d6c3b6261736536342c00000000000081525f612694601a830184615dcf565b634e487b7160e01b5f52603160045260245ffdfe3c7376672077696474683d22373922206865696768743d223830222076696577426f783d22302030203739203830222066696c6c3d226e6f6e652220786d6c6e733d22687474703a2f2f7777772e77332e6f72672f323030302f737667223e203c6d61736b2069643d226d61736b305f3834395f3334313722207374796c653d226d61736b2d747970653a616c70686122206d61736b556e6974733d227573657253706163654f6e5573652220783d22302220793d2230222077696474683d22373922206865696768743d223830223e203c726563742077696474683d2237382e30303522206865696768743d223830222066696c6c3d2223433443344334222f3e203c2f6d61736b3e203c67206d61736b3d2275726c28236d61736b305f3834395f3334313729223e203c7265637420783d2231372e393534362220793d2231382e33353435222077696474683d2234322e3239343322206865696768743d2234332e32393138222066696c6c3d227768697465222f3e203c7061746820643d224d37342e323336392032312e393839324337362e363930382032342e303331352037382e323338392032382e323537372037372e363937392033312e333733334c37322e343136362036312e333235334337312e3836362036342e343437352036382e393539322036372e383739382036352e393632392036382e393631324c33372e313934372037392e333334344333342e313938342038302e343135372032392e373432312037392e363239392032372e323936342037372e3538394c332e3831312035382e3030323143312e33353730382035352e39353938202d302e31393233382035312e3734313720302e3335383134382034382e363139354c352e36333935312031382e3636373443362e31393030342031352e3534353220392e30393638372031322e313132392031322e303933322031312e303331364c34302e3835393920302e3636363435334334332e38353632202d302e3431343835372034382e3331323520302e3337303930392035302e3735383320322e343131384c37342e323336392032312e393839325a4d34392e373634352033352e343336394c35302e393336342032392e333531334c33392e393531372032392e333638374c34312e3531362032312e333432344c33372e393538332032312e333432344333372e393538332032312e333432342033342e363332382032372e323930312032372e333030362033302e323031394c32362e323839392033352e343530334c33312e303933362033352e34364333312e303933362033352e34362032392e343637342034332e303032392032382e393331362034352e373835344332372e353637372035322e383638322033302e393830362035372e383933392033362e323238312035372e383933394333382e383630362035372e383933392034312e3831372035372e383933392034352e303937322035372e383933394c34362e363532342035312e313636364334362e323734322035312e313636362034332e383031332035312e313636362033392e323333362035312e313636364333352e393336342035312e313636362033362e313039392034392e333138392033362e373433312034362e303330354c33382e373833382033352e343333334c34392e373634352033352e343336395a222066696c6c3d2223313443384646222f3e203c2f673e203c2f7376673e424c535f5349475f424c53313233383147315f584d443a5348412d3235365f535357555f524f5f4e554c5f4142434445464748494a4b4c4d4e4f505152535455565758595a6162636465666768696a6b6c6d6e6f707172737475767778797a303132333435363738392b2fa164736f6c634300081a000a424c535f5349475f424c53313233383147315f584d443a5348412d3235365f535357555f524f5f4e554c5f","linkReferences":{"src/consensus/BlsG1.sol":{"BlsG1":[{"start":2361,"length":20},{"start":2470,"length":20},{"start":2596,"length":20},{"start":2903,"length":20},{"start":3039,"length":20},{"start":13389,"length":20},{"start":13525,"length":20},{"start":22173,"length":20},{"start":22282,"length":20},{"start":22408,"length":20}]}}},"methodIdentifiers":{"SYSTEM_ADDRESS()":"3434735f","activate()":"0f15f4c0","allocateIssuance()":"355811a7","applyIncentives((address,uint256)[])":"0a36cdef","applySlashes((address,uint256)[])":"02ae337b","approve(address,uint256)":"095ea7b3","balanceOf(address)":"70a08231","beginExit()":"2228dfa0","burn(address)":"89afcb44","claimStakeRewards(address)":"2b9f4985","concludeEpoch(address[])":"7b55a300","delegateStake(bytes,(bytes,bytes),address,bytes)":"8bb43f3a","delegationDigest(bytes,address,address)":"e3716d04","eip712Domain()":"84b0196e","epochInfo(uint256)":"3894228e","futureEpochInfo(uint256)":"59ca93b6","getApproved(uint256)":"081812fc","getBalanceBreakdown(address)":"15b5709a","getCommitteeValidators(uint32)":"a0201be5","getCurrentEpoch()":"b97dd9e2","getCurrentEpochInfo()":"babc394f","getCurrentStakeConfig()":"7d06fdf8","getCurrentStakeVersion()":"67398331","getEpochInfo(uint32)":"374ed18c","getNextCommitteeSize()":"eb8535c2","getRewards(address)":"79ee54f7","getValidator(address)":"1904bb2e","getValidators(uint8)":"8cc05eda","isApprovedForAll(address,address)":"e985e9c5","isRetired(address)":"6d3c6275","isValidator(bytes)":"6a926591","issuance()":"863623bb","mint(address)":"6a627842","name()":"06fdde03","owner()":"8da5cb5b","ownerOf(uint256)":"6352211e","pause()":"8456cb59","paused()":"5c975abb","proofOfPossessionMessage(bytes,address)":"6850eb31","renounceOwnership()":"715018a6","safeTransferFrom(address,address,uint256)":"42842e0e","safeTransferFrom(address,address,uint256,bytes)":"b88d4fde","setApprovalForAll(address,bool)":"a22cb465","setNextCommitteeSize(uint16)":"62fcde4b","stake(bytes,(bytes,bytes))":"b5184324","stakeConfig(uint8)":"a71954ec","supportsInterface(bytes4)":"01ffc9a7","symbol()":"95d89b41","tokenByIndex(uint256)":"4f6ccce7","tokenOfOwnerByIndex(address,uint256)":"2f745c59","tokenURI(uint256)":"c87b56dd","totalSupply()":"18160ddd","transferFrom(address,address,uint256)":"23b872dd","transferOwnership(address)":"f2fde38b","undistributedIssuance()":"008d6acd","unpause()":"3f4ba83a","unstake(address)":"f2888dbb","upgradeStakeVersion((uint256,uint256,uint256,uint32))":"c05df7ac","validators(address)":"fa52c7d8"},"id":81}