{"abi":[{"type":"constructor","inputs":[{"name":"genesisConfig_","type":"tuple","internalType":"struct IStakeManager.StakeConfig","components":[{"name":"stakeAmount","type":"uint256","internalType":"uint256"},{"name":"minWithdrawAmount","type":"uint256","internalType":"uint256"},{"name":"epochIssuance","type":"uint256","internalType":"uint256"},{"name":"epochDuration","type":"uint32","internalType":"uint32"}]},{"name":"initialValidators_","type":"tuple[]","internalType":"struct IConsensusRegistry.ValidatorInfo[]","components":[{"name":"blsPubkey","type":"bytes","internalType":"bytes"},{"name":"validatorAddress","type":"address","internalType":"address"},{"name":"activationEpoch","type":"uint32","internalType":"uint32"},{"name":"exitEpoch","type":"uint32","internalType":"uint32"},{"name":"currentStatus","type":"uint8","internalType":"enum IConsensusRegistry.ValidatorStatus"},{"name":"isRetired","type":"bool","internalType":"bool"},{"name":"isDelegated","type":"bool","internalType":"bool"},{"name":"stakeVersion","type":"uint8","internalType":"uint8"}]},{"name":"proofsOfPossession","type":"tuple[]","internalType":"struct BlsG1.ProofOfPossession[]","components":[{"name":"uncompressedPubkey","type":"bytes","internalType":"bytes"},{"name":"uncompressedSignature","type":"bytes","internalType":"bytes"}]},{"name":"owner_","type":"address","internalType":"address"}],"stateMutability":"nonpayable"},{"type":"function","name":"SYSTEM_ADDRESS","inputs":[],"outputs":[{"name":"","type":"address","internalType":"address"}],"stateMutability":"view"},{"type":"function","name":"activate","inputs":[],"outputs":[],"stateMutability":"nonpayable"},{"type":"function","name":"allocateIssuance","inputs":[],"outputs":[],"stateMutability":"payable"},{"type":"function","name":"applyIncentives","inputs":[{"name":"rewardInfos","type":"tuple[]","internalType":"struct RewardInfo[]","components":[{"name":"validatorAddress","type":"address","internalType":"address"},{"name":"consensusHeaderCount","type":"uint256","internalType":"uint256"}]}],"outputs":[],"stateMutability":"nonpayable"},{"type":"function","name":"applySlashes","inputs":[{"name":"slashes","type":"tuple[]","internalType":"struct Slash[]","components":[{"name":"validatorAddress","type":"address","internalType":"address"},{"name":"amount","type":"uint256","internalType":"uint256"}]}],"outputs":[],"stateMutability":"nonpayable"},{"type":"function","name":"approve","inputs":[{"name":"","type":"address","internalType":"address"},{"name":"","type":"uint256","internalType":"uint256"}],"outputs":[],"stateMutability":"nonpayable"},{"type":"function","name":"balanceOf","inputs":[{"name":"owner","type":"address","internalType":"address"}],"outputs":[{"name":"","type":"uint256","internalType":"uint256"}],"stateMutability":"view"},{"type":"function","name":"beginExit","inputs":[],"outputs":[],"stateMutability":"nonpayable"},{"type":"function","name":"burn","inputs":[{"name":"validatorAddress","type":"address","internalType":"address"}],"outputs":[],"stateMutability":"nonpayable"},{"type":"function","name":"claimStakeRewards","inputs":[{"name":"validatorAddress","type":"address","internalType":"address"}],"outputs":[],"stateMutability":"nonpayable"},{"type":"function","name":"concludeEpoch","inputs":[{"name":"futureCommittee","type":"address[]","internalType":"address[]"}],"outputs":[],"stateMutability":"nonpayable"},{"type":"function","name":"delegateStake","inputs":[{"name":"blsPubkey","type":"bytes","internalType":"bytes"},{"name":"proofOfPossession","type":"tuple","internalType":"struct BlsG1.ProofOfPossession","components":[{"name":"uncompressedPubkey","type":"bytes","internalType":"bytes"},{"name":"uncompressedSignature","type":"bytes","internalType":"bytes"}]},{"name":"validatorAddress","type":"address","internalType":"address"},{"name":"validatorEIP712Signature","type":"bytes","internalType":"bytes"}],"outputs":[],"stateMutability":"payable"},{"type":"function","name":"delegationDigest","inputs":[{"name":"blsPubkey","type":"bytes","internalType":"bytes"},{"name":"validatorAddress","type":"address","internalType":"address"},{"name":"delegator","type":"address","internalType":"address"}],"outputs":[{"name":"","type":"bytes32","internalType":"bytes32"}],"stateMutability":"view"},{"type":"function","name":"eip712Domain","inputs":[],"outputs":[{"name":"fields","type":"bytes1","internalType":"bytes1"},{"name":"name","type":"string","internalType":"string"},{"name":"version","type":"string","internalType":"string"},{"name":"chainId","type":"uint256","internalType":"uint256"},{"name":"verifyingContract","type":"address","internalType":"address"},{"name":"salt","type":"bytes32","internalType":"bytes32"},{"name":"extensions","type":"uint256[]","internalType":"uint256[]"}],"stateMutability":"view"},{"type":"function","name":"epochInfo","inputs":[{"name":"","type":"uint256","internalType":"uint256"}],"outputs":[{"name":"epochIssuance","type":"uint256","internalType":"uint256"},{"name":"blockHeight","type":"uint64","internalType":"uint64"},{"name":"epochId","type":"uint32","internalType":"uint32"},{"name":"epochDuration","type":"uint32","internalType":"uint32"},{"name":"stakeVersion","type":"uint8","internalType":"uint8"}],"stateMutability":"view"},{"type":"function","name":"futureEpochInfo","inputs":[{"name":"","type":"uint256","internalType":"uint256"}],"outputs":[{"name":"epochIssuance","type":"uint256","internalType":"uint256"},{"name":"blockHeight","type":"uint64","internalType":"uint64"},{"name":"epochId","type":"uint32","internalType":"uint32"},{"name":"epochDuration","type":"uint32","internalType":"uint32"},{"name":"stakeVersion","type":"uint8","internalType":"uint8"}],"stateMutability":"view"},{"type":"function","name":"getApproved","inputs":[{"name":"tokenId","type":"uint256","internalType":"uint256"}],"outputs":[{"name":"","type":"address","internalType":"address"}],"stateMutability":"view"},{"type":"function","name":"getBalanceBreakdown","inputs":[{"name":"validatorAddress","type":"address","internalType":"address"}],"outputs":[{"name":"","type":"uint256","internalType":"uint256"},{"name":"","type":"uint256","internalType":"uint256"},{"name":"","type":"uint256","internalType":"uint256"}],"stateMutability":"view"},{"type":"function","name":"getCommitteeValidators","inputs":[{"name":"epoch","type":"uint32","internalType":"uint32"}],"outputs":[{"name":"","type":"tuple[]","internalType":"struct IConsensusRegistry.ValidatorInfo[]","components":[{"name":"blsPubkey","type":"bytes","internalType":"bytes"},{"name":"validatorAddress","type":"address","internalType":"address"},{"name":"activationEpoch","type":"uint32","internalType":"uint32"},{"name":"exitEpoch","type":"uint32","internalType":"uint32"},{"name":"currentStatus","type":"uint8","internalType":"enum IConsensusRegistry.ValidatorStatus"},{"name":"isRetired","type":"bool","internalType":"bool"},{"name":"isDelegated","type":"bool","internalType":"bool"},{"name":"stakeVersion","type":"uint8","internalType":"uint8"}]}],"stateMutability":"view"},{"type":"function","name":"getCurrentEpoch","inputs":[],"outputs":[{"name":"","type":"uint32","internalType":"uint32"}],"stateMutability":"view"},{"type":"function","name":"getCurrentEpochInfo","inputs":[],"outputs":[{"name":"","type":"tuple","internalType":"struct IConsensusRegistry.EpochInfo","components":[{"name":"committee","type":"address[]","internalType":"address[]"},{"name":"epochIssuance","type":"uint256","internalType":"uint256"},{"name":"blockHeight","type":"uint64","internalType":"uint64"},{"name":"epochId","type":"uint32","internalType":"uint32"},{"name":"epochDuration","type":"uint32","internalType":"uint32"},{"name":"stakeVersion","type":"uint8","internalType":"uint8"}]}],"stateMutability":"view"},{"type":"function","name":"getCurrentStakeConfig","inputs":[],"outputs":[{"name":"","type":"tuple","internalType":"struct IStakeManager.StakeConfig","components":[{"name":"stakeAmount","type":"uint256","internalType":"uint256"},{"name":"minWithdrawAmount","type":"uint256","internalType":"uint256"},{"name":"epochIssuance","type":"uint256","internalType":"uint256"},{"name":"epochDuration","type":"uint32","internalType":"uint32"}]}],"stateMutability":"view"},{"type":"function","name":"getCurrentStakeVersion","inputs":[],"outputs":[{"name":"","type":"uint8","internalType":"uint8"}],"stateMutability":"view"},{"type":"function","name":"getEpochInfo","inputs":[{"name":"epoch","type":"uint32","internalType":"uint32"}],"outputs":[{"name":"","type":"tuple","internalType":"struct IConsensusRegistry.EpochInfo","components":[{"name":"committee","type":"address[]","internalType":"address[]"},{"name":"epochIssuance","type":"uint256","internalType":"uint256"},{"name":"blockHeight","type":"uint64","internalType":"uint64"},{"name":"epochId","type":"uint32","internalType":"uint32"},{"name":"epochDuration","type":"uint32","internalType":"uint32"},{"name":"stakeVersion","type":"uint8","internalType":"uint8"}]}],"stateMutability":"view"},{"type":"function","name":"getNextCommitteeSize","inputs":[],"outputs":[{"name":"","type":"uint16","internalType":"uint16"}],"stateMutability":"view"},{"type":"function","name":"getRewards","inputs":[{"name":"validatorAddress","type":"address","internalType":"address"}],"outputs":[{"name":"","type":"uint256","internalType":"uint256"}],"stateMutability":"view"},{"type":"function","name":"getValidator","inputs":[{"name":"validatorAddress","type":"address","internalType":"address"}],"outputs":[{"name":"","type":"tuple","internalType":"struct IConsensusRegistry.ValidatorInfo","components":[{"name":"blsPubkey","type":"bytes","internalType":"bytes"},{"name":"validatorAddress","type":"address","internalType":"address"},{"name":"activationEpoch","type":"uint32","internalType":"uint32"},{"name":"exitEpoch","type":"uint32","internalType":"uint32"},{"name":"currentStatus","type":"uint8","internalType":"enum IConsensusRegistry.ValidatorStatus"},{"name":"isRetired","type":"bool","internalType":"bool"},{"name":"isDelegated","type":"bool","internalType":"bool"},{"name":"stakeVersion","type":"uint8","internalType":"uint8"}]}],"stateMutability":"view"},{"type":"function","name":"getValidators","inputs":[{"name":"status","type":"uint8","internalType":"enum IConsensusRegistry.ValidatorStatus"}],"outputs":[{"name":"","type":"tuple[]","internalType":"struct IConsensusRegistry.ValidatorInfo[]","components":[{"name":"blsPubkey","type":"bytes","internalType":"bytes"},{"name":"validatorAddress","type":"address","internalType":"address"},{"name":"activationEpoch","type":"uint32","internalType":"uint32"},{"name":"exitEpoch","type":"uint32","internalType":"uint32"},{"name":"currentStatus","type":"uint8","internalType":"enum IConsensusRegistry.ValidatorStatus"},{"name":"isRetired","type":"bool","internalType":"bool"},{"name":"isDelegated","type":"bool","internalType":"bool"},{"name":"stakeVersion","type":"uint8","internalType":"uint8"}]}],"stateMutability":"view"},{"type":"function","name":"isApprovedForAll","inputs":[{"name":"owner","type":"address","internalType":"address"},{"name":"operator","type":"address","internalType":"address"}],"outputs":[{"name":"","type":"bool","internalType":"bool"}],"stateMutability":"view"},{"type":"function","name":"isRetired","inputs":[{"name":"validatorAddress","type":"address","internalType":"address"}],"outputs":[{"name":"","type":"bool","internalType":"bool"}],"stateMutability":"view"},{"type":"function","name":"isValidator","inputs":[{"name":"blsPubkey","type":"bytes","internalType":"bytes"}],"outputs":[{"name":"","type":"bool","internalType":"bool"}],"stateMutability":"view"},{"type":"function","name":"issuance","inputs":[],"outputs":[{"name":"","type":"address","internalType":"address payable"}],"stateMutability":"view"},{"type":"function","name":"mint","inputs":[{"name":"validatorAddress","type":"address","internalType":"address"}],"outputs":[],"stateMutability":"nonpayable"},{"type":"function","name":"name","inputs":[],"outputs":[{"name":"","type":"string","internalType":"string"}],"stateMutability":"view"},{"type":"function","name":"owner","inputs":[],"outputs":[{"name":"","type":"address","internalType":"address"}],"stateMutability":"view"},{"type":"function","name":"ownerOf","inputs":[{"name":"tokenId","type":"uint256","internalType":"uint256"}],"outputs":[{"name":"","type":"address","internalType":"address"}],"stateMutability":"view"},{"type":"function","name":"pause","inputs":[],"outputs":[],"stateMutability":"nonpayable"},{"type":"function","name":"paused","inputs":[],"outputs":[{"name":"","type":"bool","internalType":"bool"}],"stateMutability":"view"},{"type":"function","name":"proofOfPossessionMessage","inputs":[{"name":"blsPubkeyUncompressed","type":"bytes","internalType":"bytes"},{"name":"validatorAddress","type":"address","internalType":"address"}],"outputs":[{"name":"","type":"bytes","internalType":"bytes"}],"stateMutability":"view"},{"type":"function","name":"renounceOwnership","inputs":[],"outputs":[],"stateMutability":"nonpayable"},{"type":"function","name":"safeTransferFrom","inputs":[{"name":"from","type":"address","internalType":"address"},{"name":"to","type":"address","internalType":"address"},{"name":"tokenId","type":"uint256","internalType":"uint256"}],"outputs":[],"stateMutability":"nonpayable"},{"type":"function","name":"safeTransferFrom","inputs":[{"name":"from","type":"address","internalType":"address"},{"name":"to","type":"address","internalType":"address"},{"name":"tokenId","type":"uint256","internalType":"uint256"},{"name":"data","type":"bytes","internalType":"bytes"}],"outputs":[],"stateMutability":"nonpayable"},{"type":"function","name":"setApprovalForAll","inputs":[{"name":"","type":"address","internalType":"address"},{"name":"","type":"bool","internalType":"bool"}],"outputs":[],"stateMutability":"nonpayable"},{"type":"function","name":"setNextCommitteeSize","inputs":[{"name":"newSize","type":"uint16","internalType":"uint16"}],"outputs":[],"stateMutability":"nonpayable"},{"type":"function","name":"stake","inputs":[{"name":"blsPubkey","type":"bytes","internalType":"bytes"},{"name":"proofOfPossession","type":"tuple","internalType":"struct BlsG1.ProofOfPossession","components":[{"name":"uncompressedPubkey","type":"bytes","internalType":"bytes"},{"name":"uncompressedSignature","type":"bytes","internalType":"bytes"}]}],"outputs":[],"stateMutability":"payable"},{"type":"function","name":"stakeConfig","inputs":[{"name":"version","type":"uint8","internalType":"uint8"}],"outputs":[{"name":"","type":"tuple","internalType":"struct IStakeManager.StakeConfig","components":[{"name":"stakeAmount","type":"uint256","internalType":"uint256"},{"name":"minWithdrawAmount","type":"uint256","internalType":"uint256"},{"name":"epochIssuance","type":"uint256","internalType":"uint256"},{"name":"epochDuration","type":"uint32","internalType":"uint32"}]}],"stateMutability":"view"},{"type":"function","name":"supportsInterface","inputs":[{"name":"interfaceId","type":"bytes4","internalType":"bytes4"}],"outputs":[{"name":"","type":"bool","internalType":"bool"}],"stateMutability":"view"},{"type":"function","name":"symbol","inputs":[],"outputs":[{"name":"","type":"string","internalType":"string"}],"stateMutability":"view"},{"type":"function","name":"tokenByIndex","inputs":[{"name":"index","type":"uint256","internalType":"uint256"}],"outputs":[{"name":"","type":"uint256","internalType":"uint256"}],"stateMutability":"view"},{"type":"function","name":"tokenOfOwnerByIndex","inputs":[{"name":"owner","type":"address","internalType":"address"},{"name":"index","type":"uint256","internalType":"uint256"}],"outputs":[{"name":"","type":"uint256","internalType":"uint256"}],"stateMutability":"view"},{"type":"function","name":"tokenURI","inputs":[{"name":"tokenId","type":"uint256","internalType":"uint256"}],"outputs":[{"name":"","type":"string","internalType":"string"}],"stateMutability":"view"},{"type":"function","name":"totalSupply","inputs":[],"outputs":[{"name":"","type":"uint256","internalType":"uint256"}],"stateMutability":"view"},{"type":"function","name":"transferFrom","inputs":[{"name":"","type":"address","internalType":"address"},{"name":"","type":"address","internalType":"address"},{"name":"","type":"uint256","internalType":"uint256"}],"outputs":[],"stateMutability":"nonpayable"},{"type":"function","name":"transferOwnership","inputs":[{"name":"newOwner","type":"address","internalType":"address"}],"outputs":[],"stateMutability":"nonpayable"},{"type":"function","name":"undistributedIssuance","inputs":[],"outputs":[{"name":"","type":"uint256","internalType":"uint256"}],"stateMutability":"view"},{"type":"function","name":"unpause","inputs":[],"outputs":[],"stateMutability":"nonpayable"},{"type":"function","name":"unstake","inputs":[{"name":"validatorAddress","type":"address","internalType":"address"}],"outputs":[],"stateMutability":"nonpayable"},{"type":"function","name":"upgradeStakeVersion","inputs":[{"name":"newConfig","type":"tuple","internalType":"struct IStakeManager.StakeConfig","components":[{"name":"stakeAmount","type":"uint256","internalType":"uint256"},{"name":"minWithdrawAmount","type":"uint256","internalType":"uint256"},{"name":"epochIssuance","type":"uint256","internalType":"uint256"},{"name":"epochDuration","type":"uint32","internalType":"uint32"}]}],"outputs":[{"name":"","type":"uint8","internalType":"uint8"}],"stateMutability":"nonpayable"},{"type":"function","name":"upgradeValidatorStakeVersion","inputs":[{"name":"validatorAddress","type":"address","internalType":"address"},{"name":"targetVersion","type":"uint8","internalType":"uint8"}],"outputs":[],"stateMutability":"payable"},{"type":"function","name":"validators","inputs":[{"name":"","type":"address","internalType":"address"}],"outputs":[{"name":"blsPubkey","type":"bytes","internalType":"bytes"},{"name":"validatorAddress","type":"address","internalType":"address"},{"name":"activationEpoch","type":"uint32","internalType":"uint32"},{"name":"exitEpoch","type":"uint32","internalType":"uint32"},{"name":"currentStatus","type":"uint8","internalType":"enum IConsensusRegistry.ValidatorStatus"},{"name":"isRetired","type":"bool","internalType":"bool"},{"name":"isDelegated","type":"bool","internalType":"bool"},{"name":"stakeVersion","type":"uint8","internalType":"uint8"}],"stateMutability":"view"},{"type":"event","name":"Approval","inputs":[{"name":"owner","type":"address","indexed":true,"internalType":"address"},{"name":"approved","type":"address","indexed":true,"internalType":"address"},{"name":"tokenId","type":"uint256","indexed":true,"internalType":"uint256"}],"anonymous":false},{"type":"event","name":"ApprovalForAll","inputs":[{"name":"owner","type":"address","indexed":true,"internalType":"address"},{"name":"operator","type":"address","indexed":true,"internalType":"address"},{"name":"approved","type":"bool","indexed":false,"internalType":"bool"}],"anonymous":false},{"type":"event","name":"NewEpoch","inputs":[{"name":"epoch","type":"tuple","indexed":false,"internalType":"struct IConsensusRegistry.EpochInfo","components":[{"name":"committee","type":"address[]","internalType":"address[]"},{"name":"epochIssuance","type":"uint256","internalType":"uint256"},{"name":"blockHeight","type":"uint64","internalType":"uint64"},{"name":"epochId","type":"uint32","internalType":"uint32"},{"name":"epochDuration","type":"uint32","internalType":"uint32"},{"name":"stakeVersion","type":"uint8","internalType":"uint8"}]}],"anonymous":false},{"type":"event","name":"NextCommitteeSizeUpdated","inputs":[{"name":"oldSize","type":"uint16","indexed":false,"internalType":"uint16"},{"name":"newSize","type":"uint16","indexed":false,"internalType":"uint16"},{"name":"numActiveValidators","type":"uint256","indexed":false,"internalType":"uint256"}],"anonymous":false},{"type":"event","name":"OwnershipTransferred","inputs":[{"name":"previousOwner","type":"address","indexed":true,"internalType":"address"},{"name":"newOwner","type":"address","indexed":true,"internalType":"address"}],"anonymous":false},{"type":"event","name":"Paused","inputs":[{"name":"account","type":"address","indexed":false,"internalType":"address"}],"anonymous":false},{"type":"event","name":"RewardsClaimed","inputs":[{"name":"claimant","type":"address","indexed":false,"internalType":"address"},{"name":"rewards","type":"uint256","indexed":false,"internalType":"uint256"}],"anonymous":false},{"type":"event","name":"Transfer","inputs":[{"name":"from","type":"address","indexed":true,"internalType":"address"},{"name":"to","type":"address","indexed":true,"internalType":"address"},{"name":"tokenId","type":"uint256","indexed":true,"internalType":"uint256"}],"anonymous":false},{"type":"event","name":"Unpaused","inputs":[{"name":"account","type":"address","indexed":false,"internalType":"address"}],"anonymous":false},{"type":"event","name":"ValidatorActivated","inputs":[{"name":"validator","type":"tuple","indexed":false,"internalType":"struct IConsensusRegistry.ValidatorInfo","components":[{"name":"blsPubkey","type":"bytes","internalType":"bytes"},{"name":"validatorAddress","type":"address","internalType":"address"},{"name":"activationEpoch","type":"uint32","internalType":"uint32"},{"name":"exitEpoch","type":"uint32","internalType":"uint32"},{"name":"currentStatus","type":"uint8","internalType":"enum IConsensusRegistry.ValidatorStatus"},{"name":"isRetired","type":"bool","internalType":"bool"},{"name":"isDelegated","type":"bool","internalType":"bool"},{"name":"stakeVersion","type":"uint8","internalType":"uint8"}]}],"anonymous":false},{"type":"event","name":"ValidatorExited","inputs":[{"name":"validator","type":"tuple","indexed":false,"internalType":"struct IConsensusRegistry.ValidatorInfo","components":[{"name":"blsPubkey","type":"bytes","internalType":"bytes"},{"name":"validatorAddress","type":"address","internalType":"address"},{"name":"activationEpoch","type":"uint32","internalType":"uint32"},{"name":"exitEpoch","type":"uint32","internalType":"uint32"},{"name":"currentStatus","type":"uint8","internalType":"enum IConsensusRegistry.ValidatorStatus"},{"name":"isRetired","type":"bool","internalType":"bool"},{"name":"isDelegated","type":"bool","internalType":"bool"},{"name":"stakeVersion","type":"uint8","internalType":"uint8"}]}],"anonymous":false},{"type":"event","name":"ValidatorPendingActivation","inputs":[{"name":"validator","type":"tuple","indexed":false,"internalType":"struct IConsensusRegistry.ValidatorInfo","components":[{"name":"blsPubkey","type":"bytes","internalType":"bytes"},{"name":"validatorAddress","type":"address","internalType":"address"},{"name":"activationEpoch","type":"uint32","internalType":"uint32"},{"name":"exitEpoch","type":"uint32","internalType":"uint32"},{"name":"currentStatus","type":"uint8","internalType":"enum IConsensusRegistry.ValidatorStatus"},{"name":"isRetired","type":"bool","internalType":"bool"},{"name":"isDelegated","type":"bool","internalType":"bool"},{"name":"stakeVersion","type":"uint8","internalType":"uint8"}]}],"anonymous":false},{"type":"event","name":"ValidatorPendingExit","inputs":[{"name":"validator","type":"tuple","indexed":false,"internalType":"struct IConsensusRegistry.ValidatorInfo","components":[{"name":"blsPubkey","type":"bytes","internalType":"bytes"},{"name":"validatorAddress","type":"address","internalType":"address"},{"name":"activationEpoch","type":"uint32","internalType":"uint32"},{"name":"exitEpoch","type":"uint32","internalType":"uint32"},{"name":"currentStatus","type":"uint8","internalType":"enum IConsensusRegistry.ValidatorStatus"},{"name":"isRetired","type":"bool","internalType":"bool"},{"name":"isDelegated","type":"bool","internalType":"bool"},{"name":"stakeVersion","type":"uint8","internalType":"uint8"}]}],"anonymous":false},{"type":"event","name":"ValidatorRetired","inputs":[{"name":"validator","type":"tuple","indexed":false,"internalType":"struct IConsensusRegistry.ValidatorInfo","components":[{"name":"blsPubkey","type":"bytes","internalType":"bytes"},{"name":"validatorAddress","type":"address","internalType":"address"},{"name":"activationEpoch","type":"uint32","internalType":"uint32"},{"name":"exitEpoch","type":"uint32","internalType":"uint32"},{"name":"currentStatus","type":"uint8","internalType":"enum IConsensusRegistry.ValidatorStatus"},{"name":"isRetired","type":"bool","internalType":"bool"},{"name":"isDelegated","type":"bool","internalType":"bool"},{"name":"stakeVersion","type":"uint8","internalType":"uint8"}]}],"anonymous":false},{"type":"event","name":"ValidatorSlashed","inputs":[{"name":"slash","type":"tuple","indexed":false,"internalType":"struct Slash","components":[{"name":"validatorAddress","type":"address","internalType":"address"},{"name":"amount","type":"uint256","internalType":"uint256"}]}],"anonymous":false},{"type":"event","name":"ValidatorStakeVersionUpgraded","inputs":[{"name":"validatorAddress","type":"address","indexed":true,"internalType":"address"},{"name":"oldVersion","type":"uint8","indexed":false,"internalType":"uint8"},{"name":"newVersion","type":"uint8","indexed":false,"internalType":"uint8"},{"name":"oldStakeAmount","type":"uint256","indexed":false,"internalType":"uint256"},{"name":"newStakeAmount","type":"uint256","indexed":false,"internalType":"uint256"}],"anonymous":false},{"type":"event","name":"ValidatorStaked","inputs":[{"name":"validator","type":"tuple","indexed":false,"internalType":"struct IConsensusRegistry.ValidatorInfo","components":[{"name":"blsPubkey","type":"bytes","internalType":"bytes"},{"name":"validatorAddress","type":"address","internalType":"address"},{"name":"activationEpoch","type":"uint32","internalType":"uint32"},{"name":"exitEpoch","type":"uint32","internalType":"uint32"},{"name":"currentStatus","type":"uint8","internalType":"enum IConsensusRegistry.ValidatorStatus"},{"name":"isRetired","type":"bool","internalType":"bool"},{"name":"isDelegated","type":"bool","internalType":"bool"},{"name":"stakeVersion","type":"uint8","internalType":"uint8"}]}],"anonymous":false},{"type":"error","name":"AlreadyDefined","inputs":[{"name":"validatorAddress","type":"address","internalType":"address"}]},{"type":"error","name":"CommitteeRequirement","inputs":[{"name":"validatorAddress","type":"address","internalType":"address"}]},{"type":"error","name":"DuplicateBLSPubkey","inputs":[]},{"type":"error","name":"ERC721EnumerableForbiddenBatchMint","inputs":[]},{"type":"error","name":"ERC721IncorrectOwner","inputs":[{"name":"sender","type":"address","internalType":"address"},{"name":"tokenId","type":"uint256","internalType":"uint256"},{"name":"owner","type":"address","internalType":"address"}]},{"type":"error","name":"ERC721InsufficientApproval","inputs":[{"name":"operator","type":"address","internalType":"address"},{"name":"tokenId","type":"uint256","internalType":"uint256"}]},{"type":"error","name":"ERC721InvalidApprover","inputs":[{"name":"approver","type":"address","internalType":"address"}]},{"type":"error","name":"ERC721InvalidOperator","inputs":[{"name":"operator","type":"address","internalType":"address"}]},{"type":"error","name":"ERC721InvalidOwner","inputs":[{"name":"owner","type":"address","internalType":"address"}]},{"type":"error","name":"ERC721InvalidReceiver","inputs":[{"name":"receiver","type":"address","internalType":"address"}]},{"type":"error","name":"ERC721InvalidSender","inputs":[{"name":"sender","type":"address","internalType":"address"}]},{"type":"error","name":"ERC721NonexistentToken","inputs":[{"name":"tokenId","type":"uint256","internalType":"uint256"}]},{"type":"error","name":"ERC721OutOfBoundsIndex","inputs":[{"name":"owner","type":"address","internalType":"address"},{"name":"index","type":"uint256","internalType":"uint256"}]},{"type":"error","name":"EnforcedPause","inputs":[]},{"type":"error","name":"ExpectedPause","inputs":[]},{"type":"error","name":"GenesisArityMismatch","inputs":[]},{"type":"error","name":"IneligibleUnstake","inputs":[{"name":"validator","type":"tuple","internalType":"struct IConsensusRegistry.ValidatorInfo","components":[{"name":"blsPubkey","type":"bytes","internalType":"bytes"},{"name":"validatorAddress","type":"address","internalType":"address"},{"name":"activationEpoch","type":"uint32","internalType":"uint32"},{"name":"exitEpoch","type":"uint32","internalType":"uint32"},{"name":"currentStatus","type":"uint8","internalType":"enum IConsensusRegistry.ValidatorStatus"},{"name":"isRetired","type":"bool","internalType":"bool"},{"name":"isDelegated","type":"bool","internalType":"bool"},{"name":"stakeVersion","type":"uint8","internalType":"uint8"}]}]},{"type":"error","name":"InsufficientRewards","inputs":[{"name":"withdrawAmount","type":"uint256","internalType":"uint256"}]},{"type":"error","name":"InvalidBLSPubkey","inputs":[]},{"type":"error","name":"InvalidCommitteeSize","inputs":[{"name":"minCommitteeSize","type":"uint256","internalType":"uint256"},{"name":"providedCommitteeSize","type":"uint256","internalType":"uint256"}]},{"type":"error","name":"InvalidDuration","inputs":[{"name":"duration","type":"uint32","internalType":"uint32"}]},{"type":"error","name":"InvalidEpoch","inputs":[{"name":"epoch","type":"uint32","internalType":"uint32"}]},{"type":"error","name":"InvalidProofOfPossession","inputs":[{"name":"proof","type":"tuple","internalType":"struct BlsG1.ProofOfPossession","components":[{"name":"uncompressedPubkey","type":"bytes","internalType":"bytes"},{"name":"uncompressedSignature","type":"bytes","internalType":"bytes"}]},{"name":"message","type":"bytes","internalType":"bytes"}]},{"type":"error","name":"InvalidStakeAmount","inputs":[{"name":"stakeAmount","type":"uint256","internalType":"uint256"}]},{"type":"error","name":"InvalidStakeVersion","inputs":[{"name":"currentVersion","type":"uint8","internalType":"uint8"},{"name":"targetVersion","type":"uint8","internalType":"uint8"}]},{"type":"error","name":"InvalidStatus","inputs":[{"name":"status","type":"uint8","internalType":"enum IConsensusRegistry.ValidatorStatus"}]},{"type":"error","name":"InvalidSupply","inputs":[]},{"type":"error","name":"InvalidTokenId","inputs":[{"name":"tokenId","type":"uint256","internalType":"uint256"}]},{"type":"error","name":"InvalidValidatorAddress","inputs":[]},{"type":"error","name":"NotRecipient","inputs":[{"name":"recipient","type":"address","internalType":"address"}]},{"type":"error","name":"NotTransferable","inputs":[]},{"type":"error","name":"NotValidator","inputs":[{"name":"validatorAddress","type":"address","internalType":"address"}]},{"type":"error","name":"OnlySystemCall","inputs":[{"name":"invalidCaller","type":"address","internalType":"address"}]},{"type":"error","name":"OwnableInvalidOwner","inputs":[{"name":"owner","type":"address","internalType":"address"}]},{"type":"error","name":"OwnableUnauthorizedAccount","inputs":[{"name":"account","type":"address","internalType":"address"}]},{"type":"error","name":"Reentrancy","inputs":[]},{"type":"error","name":"RequiresConsensusNFT","inputs":[]},{"type":"error","name":"StringsInsufficientHexLength","inputs":[{"name":"value","type":"uint256","internalType":"uint256"},{"name":"length","type":"uint256","internalType":"uint256"}]}],"bytecode":{"object":"0x610120604052348015610010575f80fd5b50604051618a0e380380618a0e83398101604081905261002f9161168a565b806040518060400160405280600c81526020016b10dbdb9cd95b9cdd5cd3919560a21b8152506040518060400160405280600481526020016310d3919560e21b8152508181815f908161008291906117ca565b50600161008f82826117ca565b505030608052504660a0526060806100ef604080518082018252601481527f54656c636f696e205374616b654d616e61676572000000000000000000000000602080830191909152825180840190935260018352603160f81b9083015291565b815160209283012081519183019190912060c082905260e0819052604080517f8b73c3c69bb8fe3d512ecc4cf759cc79239f7b179b0ffacaa9a75d522b39400f8152938401929092529082015246606082015230608082015260a09020610100525050600d805461ff001916905550506001600160a01b03811661018d57604051631e4fbdf760e01b81525f60048201526024015b60405180910390fd5b61019681610897565b50825115806101a757508151835114155b156101c557604051633aa3e03360e01b815260040160405180910390fd5b5f808052600a602090815285517f13da86008ba1c6922daee3e07db95305ef49ebced9f5467a0b8613fcc6b343e3558501517f13da86008ba1c6922daee3e07db95305ef49ebced9f5467a0b8613fcc6b343e45560408501517f13da86008ba1c6922daee3e07db95305ef49ebced9f5467a0b8613fcc6b343e55560608501517f13da86008ba1c6922daee3e07db95305ef49ebced9f5467a0b8613fcc6b343e6805463ffffffff191663ffffffff9092169190911790558351600d805461ffff60d81b1916600160d81b61ffff909316929092029190911790555b600281116103ab575f601182600481106102bd576102bd611884565b600302016002810180546060890151600160401b600160801b03199091166801000000000000000063ffffffff8781169190910263ffffffff60601b1916919091176c0100000000000000000000000091909216021790556040870151600182015590505f601d836004811061033557610335611884565b6003020160028101805460608a0151600160401b600160801b03199091166801000000000000000063ffffffff8881169190910263ffffffff60601b1916919091176c0100000000000000000000000091909216021790556040880151600190910155506103a49050816118ac565b90506102a1565b505f5b835181101561088d575f8482815181106103ca576103ca611884565b602002602001015190505f6104068584815181106103ea576103ea611884565b60200260200101518360200151845f01516108f260201b60201c565b60208301519091506001600160a01b03166104345760405163713ce51160e01b815260040160405180910390fd5b604082015163ffffffff161561046b576040808301519051634fadd4d360e11b815263ffffffff9091166004820152602401610184565b606082015163ffffffff16156104a2576060820151604051634fadd4d360e11b815263ffffffff9091166004820152602401610184565b6003826080015160068111156104ba576104ba6118c4565b146104de578160800151604051633ba7bf8960e11b815260040161018491906118f8565b60a082015115610504576005604051633ba7bf8960e11b815260040161018491906118f8565b60c082015115156001036105d6576040805160a081018252828152602084810180516001600160a01b039081168385019081528982168587019081525f60608701818152600160808901818152965186168352600c90975297902095518655905193850180546001600160a01b0319169483169490941790935591516002909301805494519151939092166001600160a81b031990941693909317600160a01b60ff9094169390930292909217600160a81b600160e81b031916600160a81b6001600160401b03909216919091021790555b60e082015160ff16156106075760e082015160405163222d164360e21b815260ff9091166004820152602401610184565b5f5b600281116106c5576011816004811061062457610624611884565b6020858101516003929092029290920180546001810182555f91825292902090910180546001600160a01b0319166001600160a01b03909216919091179055601d816004811061067657610676611884565b6020858101516003929092029290920180546001810182555f91825292902090910180546001600160a01b0319166001600160a01b039092169190911790556106be816118ac565b9050610609565b506020808301516001600160a01b03165f908152600f90915260409020825183919081906106f390826117ca565b5060208201516001820180546040850151606086015163ffffffff908116600160c01b0263ffffffff60c01b1991909216600160a01b026001600160c01b03199093166001600160a01b0390951694909417919091179283168117825560808501519260ff60e01b1990911664ffffffffff60c01b1990911617600160e01b836006811115610784576107846118c4565b021790555060a08201516001909101805460c084015160e09094015160ff16600160f81b026001600160f81b03941515600160f01b0260ff60f01b19941515600160e81b029490941661ffff60e81b199092169190911792909217929092161790558651602080840180516001600160a01b039081165f908152600b845260408082209590955582518682526010909452939093208054929093166001600160a01b0319909216919091179091555161084c90610847816001600160a01b031690565b610aec565b7f31845bad1fcdd92490e8d85605449863a562ea940e37b380a276e440683fdb728260405161087b9190611934565b60405180910390a150506001016103ae565b5050505050611b66565b600d80546001600160a01b038381166201000081810262010000600160b01b031985161790945560405193909204169182907f8be0079c531659141344cd1fd0a4f28419497f9722a3daafe3b4186f6b6457e0905f90a35050565b5f8151606014610915576040516333a234f960e11b815260040160405180910390fd5b83515f906109239085610b52565b855160405163a691a08b60e01b81529192505f9173__$2ef4e8110a3eaa1255da7f08f8eebcbf5a$__9163a691a08b9161096091906004016119d3565b5f60405180830381865af415801561097a573d5f803e3d5ffd5b505050506040513d5f823e601f3d908101601f191682016040526109a191908101906119ec565b90505f73__$2ef4e8110a3eaa1255da7f08f8eebcbf5a$__633d2a9e1188602001516040518263ffffffff1660e01b81526004016109df91906119d3565b5f60405180830381865af41580156109f9573d5f803e3d5ffd5b505050506040513d5f823e601f3d908101601f19168201604052610a2091908101906119ec565b905073__$2ef4e8110a3eaa1255da7f08f8eebcbf5a$__635779b9a38383866040518060600160405280602b81526020016189e3602b91396040518563ffffffff1660e01b8152600401610a779493929190611a1d565b602060405180830381865af4158015610a92573d5f803e3d5ffd5b505050506040513d601f19601f82011682018060405250810190610ab69190611a69565b610ad7578683604051634babb8f160e01b8152600401610184929190611a82565b610ae18587610ca0565b979650505050505050565b6001600160a01b038216610b1557604051633250574960e11b81525f6004820152602401610184565b5f610b21838383610d0f565b90506001600160a01b03811615610b4d576040516339e3563760e11b81525f6004820152602401610184565b505050565b60605f73__$2ef4e8110a3eaa1255da7f08f8eebcbf5a$__63a691a08b856040518263ffffffff1660e01b8152600401610b8c91906119d3565b5f60405180830381865af4158015610ba6573d5f803e3d5ffd5b505050506040513d5f823e601f3d908101601f19168201604052610bcd91908101906119ec565b6040516329bd7cc960e21b815290915073__$2ef4e8110a3eaa1255da7f08f8eebcbf5a$__9063a6f5f32490610c079084906004016119d3565b602060405180830381865af4158015610c22573d5f803e3d5ffd5b505050506040513d601f19601f82011682018060405250810190610c469190611a69565b610c63576040516333a234f960e11b815260040160405180910390fd5b604051610c879061d50160d81b908690600560fa1b90606088901b90602001611ad7565b6040516020818303038152906040529150505b92915050565b81516020808401919091205f81815260109092526040909120546001600160a01b031615610ce157604051638d12779f60e01b815260040160405180910390fd5b5f81815260106020526040902080546001600160a01b0384166001600160a01b031990911617905592915050565b5f80610d1c858585610de2565b90506001600160a01b038116610d7857610d7384600880545f838152600960205260408120829055600182018355919091527ff3f7a9fe364faab93b216da50a3214154f22a0a2b415b23a84c8169e8b636ee30155565b610d9b565b846001600160a01b0316816001600160a01b031614610d9b57610d9b8185610ed4565b6001600160a01b038516610db757610db284610f51565b610dda565b846001600160a01b0316816001600160a01b031614610dda57610dda8585610ff8565b949350505050565b5f828152600260205260408120546001600160a01b0390811690831615610e0e57610e0e818486611046565b6001600160a01b03811615610e4857610e295f8581806110aa565b6001600160a01b0381165f90815260036020526040902080545f190190555b6001600160a01b03851615610e76576001600160a01b0385165f908152600360205260409020805460010190555b5f8481526002602052604080822080546001600160a01b0319166001600160a01b0389811691821790925591518793918516917fddf252ad1be2c89b69c2b068fc378daa952ba7f163c4a11628f55a4df523b3ef91a4949350505050565b5f610ede836111cc565b5f838152600760209081526040808320546001600160a01b0388168452600690925290912091925090818314610f33575f83815260208281526040808320548584528184208190558352600790915290208290555b5f938452600760209081526040808620869055938552525081205550565b6008545f90610f6290600190611b3f565b5f8381526009602052604081205460088054939450909284908110610f8957610f89611884565b905f5260205f20015490508060088381548110610fa857610fa8611884565b5f918252602080832090910192909255828152600990915260408082208490558582528120556008805480610fdf57610fdf611b52565b600190038181905f5260205f20015f9055905550505050565b5f6001611004846111cc565b61100e9190611b3f565b6001600160a01b039093165f908152600660209081526040808320868452825280832085905593825260079052919091209190915550565b611051838383611211565b610b4d576001600160a01b03831661107f57604051637e27328960e01b815260048101829052602401610184565b60405163177e802f60e01b81526001600160a01b038316600482015260248101829052604401610184565b80806110be57506001600160a01b03821615155b1561119d575f6110cd84611291565b90506001600160a01b038316158015906110f95750826001600160a01b0316816001600160a01b031614155b801561112a57506001600160a01b038082165f9081526005602090815260408083209387168352929052205460ff16155b156111535760405163a9fbf51f60e01b81526001600160a01b0384166004820152602401610184565b811561119b5783856001600160a01b0316826001600160a01b03167f8c5be1e5ebec7d5bd14f71427d1e84f3dd0314c0f7b2291e5b200ac8c7c3b92560405160405180910390a45b505b50505f90815260046020526040902080546001600160a01b0319166001600160a01b0392909216919091179055565b5f6001600160a01b0382166111f6576040516322718ad960e21b81525f6004820152602401610184565b506001600160a01b03165f9081526003602052604090205490565b5f6001600160a01b03831615801590610dda5750826001600160a01b0316846001600160a01b0316148061126957506001600160a01b038085165f9081526005602090815260408083209387168352929052205460ff165b80610dda5750505f908152600460205260409020546001600160a01b03908116911614919050565b5f818152600260205260408120546001600160a01b031680610c9a57604051637e27328960e01b815260048101849052602401610184565b634e487b7160e01b5f52604160045260245ffd5b60405161010081016001600160401b0381118282101715611300576113006112c9565b60405290565b604080519081016001600160401b0381118282101715611300576113006112c9565b604051608081016001600160401b0381118282101715611300576113006112c9565b604051601f8201601f191681016001600160401b0381118282101715611372576113726112c9565b604052919050565b805163ffffffff8116811461138d575f80fd5b919050565b5f6001600160401b038211156113aa576113aa6112c9565b5060051b60200190565b5f82601f8301126113c3575f80fd5b81516001600160401b038111156113dc576113dc6112c9565b6113ef601f8201601f191660200161134a565b818152846020838601011115611403575f80fd5b8160208501602083015e5f918101602001919091529392505050565b80516001600160a01b038116811461138d575f80fd5b80516007811061138d575f80fd5b8051801515811461138d575f80fd5b805160ff8116811461138d575f80fd5b5f82601f830112611471575f80fd5b815161148461147f82611392565b61134a565b8082825260208201915060208360051b8601019250858311156114a5575f80fd5b602085015b838110156115965780516001600160401b038111156114c7575f80fd5b8601610100818903601f190112156114dd575f80fd5b6114e56112dd565b60208201516001600160401b038111156114fd575f80fd5b61150c8a6020838601016113b4565b82525061151b6040830161141f565b602082015261152c6060830161137a565b604082015261153d6080830161137a565b606082015261154e60a08301611435565b608082015261155f60c08301611443565b60a082015261157060e08301611443565b60c08201526115826101008301611452565b60e0820152845250602092830192016114aa565b5095945050505050565b5f82601f8301126115af575f80fd5b81516115bd61147f82611392565b8082825260208201915060208360051b8601019250858311156115de575f80fd5b602085015b838110156115965780516001600160401b03811115611600575f80fd5b86016040818903601f19011215611615575f80fd5b61161d611306565b60208201516001600160401b03811115611635575f80fd5b6116448a6020838601016113b4565b82525060408201516001600160401b0381111561165f575f80fd5b61166e8a6020838601016113b4565b60208301525080855250506020830192506020810190506115e3565b5f805f8084860360e081121561169e575f80fd5b60808112156116ab575f80fd5b506116b4611328565b8551815260208087015190820152604080870151908201526116d86060870161137a565b606082015260808601519094506001600160401b038111156116f8575f80fd5b61170487828801611462565b60a087015190945090506001600160401b03811115611721575f80fd5b61172d878288016115a0565b92505061173c60c0860161141f565b905092959194509250565b600181811c9082168061175b57607f821691505b60208210810361177957634e487b7160e01b5f52602260045260245ffd5b50919050565b601f821115610b4d57805f5260205f20601f840160051c810160208510156117a45750805b601f840160051c820191505b818110156117c3575f81556001016117b0565b5050505050565b81516001600160401b038111156117e3576117e36112c9565b6117f7816117f18454611747565b8461177f565b6020601f821160018114611829575f83156118125750848201515b5f19600385901b1c1916600184901b1784556117c3565b5f84815260208120601f198516915b828110156118585787850151825560209485019460019092019101611838565b508482101561187557868401515f19600387901b60f8161c191681555b50505050600190811b01905550565b634e487b7160e01b5f52603260045260245ffd5b634e487b7160e01b5f52601160045260245ffd5b5f600182016118bd576118bd611898565b5060010190565b634e487b7160e01b5f52602160045260245ffd5b600781106118f457634e487b7160e01b5f52602160045260245ffd5b9052565b60208101610c9a82846118d8565b5f81518084528060208401602086015e5f602082860101526020601f19601f83011685010191505092915050565b602081525f82516101006020840152611951610120840182611906565b905060018060a01b03602085015116604084015263ffffffff6040850151166060840152606084015161198c608085018263ffffffff169052565b50608084015161199f60a08501826118d8565b5060a084015180151560c08501525060c084015180151560e08501525060e084015160ff8116610100850152509392505050565b602081525f6119e56020830184611906565b9392505050565b5f602082840312156119fc575f80fd5b81516001600160401b03811115611a11575f80fd5b610dda848285016113b4565b608081525f611a2f6080830187611906565b8281036020840152611a418187611906565b90508281036040840152611a558186611906565b90508281036060840152610ae18185611906565b5f60208284031215611a79575f80fd5b6119e582611443565b604081525f8351604080840152611a9c6080840182611906565b90506020850151603f19848303016060850152611ab98282611906565b9150508281036020840152611ace8185611906565b95945050505050565b6001600160d81b03198516815283515f908060208701600585015e7fff00000000000000000000000000000000000000000000000000000000000000949094169190930160058101919091526001600160601b0319919091166006820152601a019392505050565b81810381811115610c9a57610c9a611898565b634e487b7160e01b5f52603160045260245ffd5b60805160a05160c05160e05161010051616e40611ba35f395f61418e01525f61424801525f61422201525f6141d201525f6141af0152616e405ff3fe608060405260043610610386575f3560e01c80636a926591116101d3578063a0201be5116100fd578063c05df7ac1161009d578063eb8535c21161006d578063eb8535c214610abb578063f2888dbb14610ae8578063f2fde38b14610b07578063fa52c7d814610b26575f80fd5b8063c05df7ac14610a3f578063c87b56dd14610a5e578063e3716d0414610a7d578063e985e9c514610a9c575f80fd5b8063b5184324116100d8578063b5184324146109c8578063b88d4fde146109db578063b97dd9e2146109fa578063babc394f14610a2b575f80fd5b8063a0201be514610970578063a22cb4651461098f578063a71954ec146109a9575f80fd5b80638456cb59116101735780638bb43f3a116101435780638bb43f3a146108fa5780638cc05eda1461090d5780638da5cb5b1461093957806395d89b411461095c575f80fd5b80638456cb591461087957806384b0196e1461088d578063863623bb146108b457806389afcb44146108db575f80fd5b8063715018a6116101ae578063715018a6146107da57806379ee54f7146107ee5780637b55a3001461080d5780637d06fdf81461082c575f80fd5b80636a9265911461077d5780636d3c62751461079c57806370a08231146107bb575f80fd5b80633434735f116102b457806359ca93b6116102545780636352211e116102245780636352211e146106fa57806367398331146107195780636850eb311461073f5780636a6278421461075e575f80fd5b806359ca93b61461068d5780635a41fb1f146106ac5780635c975abb146106bf57806362fcde4b146106db575f80fd5b80633894228e1161028f5780633894228e146105e05780633f4ba83a1461063b57806342842e0e1461064f5780634f6ccce71461066e575f80fd5b80633434735f14610592578063355811a7146105ac578063374ed18c146105b4575f80fd5b80630f15f4c01161032a5780632228dfa0116102fa5780632228dfa01461052657806323b872dd1461053a5780632b9f4985146105545780632f745c5914610573575f80fd5b80630f15f4c01461049857806315b5709a146104ac57806318160ddd146104e65780631904bb2e146104fa575f80fd5b806306fdde031161036557806306fdde0314610402578063081812fc14610423578063095ea7b31461045a5780630a36cdef14610479575f80fd5b80628d6acd1461038a57806301ffc9a7146103b257806302ae337b146103e1575b5f80fd5b348015610395575f80fd5b5061039f600e5481565b6040519081526020015b60405180910390f35b3480156103bd575f80fd5b506103d16103cc3660046156ef565b610b59565b60405190151581526020016103a9565b3480156103ec575f80fd5b506104006103fb366004615751565b610b83565b005b34801561040d575f80fd5b50610416610cd9565b6040516103a991906157bd565b34801561042e575f80fd5b5061044261043d3660046157cf565b610d68565b6040516001600160a01b0390911681526020016103a9565b348015610465575f80fd5b506104006104743660046157fc565b610d8f565b348015610484575f80fd5b50610400610493366004615751565b610da8565b3480156104a3575f80fd5b50610400610ffa565b3480156104b7575f80fd5b506104cb6104c6366004615824565b611043565b604080519384526020840192909252908201526060016103a9565b3480156104f1575f80fd5b5060085461039f565b348015610505575f80fd5b50610519610514366004615824565b6110ac565b6040516103a99190615912565b348015610531575f80fd5b5061040061122c565b348015610545575f80fd5b50610400610474366004615924565b34801561055f575f80fd5b5061040061056e366004615824565b6112f1565b34801561057e575f80fd5b5061039f61058d3660046157fc565b61140d565b34801561059d575f80fd5b506104426002600160a01b0381565b610400611470565b3480156105bf575f80fd5b506105d36105ce36600461596f565b611518565b6040516103a9919061598a565b3480156105eb575f80fd5b506105ff6105fa3660046157cf565b6116b7565b604080519586526001600160401b03909416602086015263ffffffff9283169385019390935216606083015260ff16608082015260a0016103a9565b348015610646575f80fd5b5061040061170b565b34801561065a575f80fd5b50610400610669366004615924565b61171d565b348015610679575f80fd5b5061039f6106883660046157cf565b611737565b348015610698575f80fd5b506105ff6106a73660046157cf565b61178c565b6104006106ba366004615a51565b61179b565b3480156106ca575f80fd5b50600d54610100900460ff166103d1565b3480156106e6575f80fd5b506104006106f5366004615a82565b611c21565b348015610705575f80fd5b506104426107143660046157cf565b611d2d565b348015610724575f80fd5b5061072d611d37565b60405160ff90911681526020016103a9565b34801561074a575f80fd5b50610416610759366004615b5f565b611d49565b348015610769575f80fd5b50610400610778366004615824565b611e96565b348015610788575f80fd5b506103d1610797366004615bdd565b611ef4565b3480156107a7575f80fd5b506103d16107b6366004615824565b611f6c565b3480156107c6575f80fd5b5061039f6107d5366004615824565b611ff6565b3480156107e5575f80fd5b5061040061203b565b3480156107f9575f80fd5b5061039f610808366004615824565b61204c565b348015610818575f80fd5b50610400610827366004615c0f565b612091565b348015610837575f80fd5b50610840612207565b6040516103a9919081518152602080830151908201526040808301519082015260609182015163ffffffff169181019190915260800190565b348015610884575f80fd5b50610400612284565b348015610898575f80fd5b506108a1612294565b6040516103a99796959493929190615c7e565b3480156108bf575f80fd5b506104427307a07a07a07a07a07a07a07a07a07a07a07a07a081565b3480156108e6575f80fd5b506104006108f5366004615824565b6122fb565b610400610908366004615da1565b6123ae565b348015610918575f80fd5b5061092c610927366004615e48565b612624565b6040516103a99190615e66565b348015610944575f80fd5b50600d546201000090046001600160a01b0316610442565b348015610967575f80fd5b50610416612662565b34801561097b575f80fd5b5061092c61098a36600461596f565b612671565b34801561099a575f80fd5b50610400610474366004615ed6565b3480156109b4575f80fd5b506108406109c3366004615f0b565b612732565b6104006109d6366004615f24565b6127ac565b3480156109e6575f80fd5b506104006109f5366004615f8b565b61283a565b348015610a05575f80fd5b50600d54600160b01b900463ffffffff1660405163ffffffff90911681526020016103a9565b348015610a36575f80fd5b506105d3612852565b348015610a4a575f80fd5b5061072d610a59366004615fee565b61295f565b348015610a69575f80fd5b50610416610a783660046157cf565b612a15565b348015610a88575f80fd5b5061039f610a97366004616007565b612a85565b348015610aa7575f80fd5b506103d1610ab6366004616060565b612b3f565b348015610ac6575f80fd5b50600d54600160d81b900461ffff1660405161ffff90911681526020016103a9565b348015610af3575f80fd5b50610400610b02366004615824565b612b6c565b348015610b12575f80fd5b50610400610b21366004615824565b612c94565b348015610b31575f80fd5b50610b45610b40366004615824565b612cce565b6040516103a9989796959493929190616088565b5f6001600160e01b0319821663780e9d6360e01b1480610b7d5750610b7d82612dbc565b92915050565b336002600160a01b0314610bb157604051637eb3357160e01b81523360048201526024015b60405180910390fd5b5f5b81811015610cd45736838383818110610bce57610bce6160f0565b604002919091019150610be990506107b66020830183615824565b15610bf45750610ccc565b60208101803590600b905f90610c0a9085615824565b6001600160a01b03166001600160a01b031681526020019081526020015f20541115610c7e5760208101803590600b905f90610c469085615824565b6001600160a01b03166001600160a01b031681526020019081526020015f205f828254610c739190616118565b90915550610c939050565b610c93610c8e6020830183615824565b612e0b565b7f11a09f9b32440d896abff7453bf53f8b26ffcb18dae4dca227f7a76e2acc3a6481604051610cc2919061612b565b60405180910390a1505b600101610bb3565b505050565b60605f8054610ce790616154565b80601f0160208091040260200160405190810160405280929190818152602001828054610d1390616154565b8015610d5e5780601f10610d3557610100808354040283529160200191610d5e565b820191905f5260205f20905b815481529060010190602001808311610d4157829003601f168201915b5050505050905090565b5f610d7282612f7f565b505f828152600460205260409020546001600160a01b0316610b7d565b60405163dc8d8db760e01b815260040160405180910390fd5b336002600160a01b0314610dd157604051637eb3357160e01b8152336004820152602401610ba8565b5f80826001600160401b03811115610deb57610deb615aa3565b604051908082528060200260200182016040528015610e14578160200160208202803683370190505b5090505f5b83811015610efb5736858583818110610e3457610e346160f0565b905060400201905080602001355f03610e4d5750610ef3565b610e5d6107b66020830183615824565b15610e685750610ef3565b5f600f81610e796020850185615824565b6001600160a01b0316815260208082019290925260409081015f90812060010154600160f81b900460ff16808252600a8452918120549193509091610ec1908501358361618c565b9050610ecd81886161a3565b965080868681518110610ee257610ee26160f0565b602002602001018181525050505050505b600101610e19565b50815f03610f095750505050565b5f610f12612852565b6020015190505f600e5482610f2791906161a3565b90505f805b86811015610fe2575f86868381518110610f4857610f486160f0565b602002602001015185610f5b919061618c565b610f6591906161ca565b90508015610fd95780600b5f8b8b86818110610f8357610f836160f0565b610f999260206040909202019081019150615824565b6001600160a01b03166001600160a01b031681526020019081526020015f205f828254610fc691906161a3565b90915550610fd6905081846161a3565b92505b50600101610f2c565b50610fed8183616118565b600e5550505050505b5050565b611002612fb7565b61100b33612fe0565b5061101733600161304e565b335f908152600f60205260409020600d54611040908290600160b01b900463ffffffff166130b7565b50565b6001600160a01b0381165f908152600f6020908152604080832060010154600160f81b900460ff16808452600a90925282205482918291826110858783613137565b6001600160a01b03979097165f908152600b60205260409020549791969550909350505050565b6110b4615620565b6001600160a01b0382165f908152600f602052604090206001810154600160e81b900460ff166110e9576110e783612fe0565b505b80604051806101000160405290815f8201805461110590616154565b80601f016020809104026020016040519081016040528092919081815260200182805461113190616154565b801561117c5780601f106111535761010080835404028352916020019161117c565b820191905f5260205f20905b81548152906001019060200180831161115f57829003601f168201915b505050918352505060018201546001600160a01b038116602083015263ffffffff600160a01b820481166040840152600160c01b820416606083015260809091019060ff600160e01b9091041660068111156111da576111da61583d565b60068111156111eb576111eb61583d565b81526001919091015460ff600160e81b8204811615156020840152600160f01b8204811615156040840152600160f81b909104166060909101529392505050565b611234612fb7565b61123d33612fe0565b505f6112496003613170565b51600d549091505f90601190600160d01b900460ff166004811061126f5761126f6160f0565b600302015490506112808282613420565b61128b33600361304e565b335f908152600f60205260409020600d54600182015463ffffffff600160b01b909204821691600160a01b909104168110156112e257604051634fadd4d360e11b815263ffffffff82166004820152602401610ba8565b6112eb8261345d565b50505050565b6112f9612fb7565b3068929eee149b4bd2126854036113175763ab143c065f526004601cfd5b3068929eee149b4bd212685561132c81612fe0565b506001600160a01b0381165f908152600f6020526040812060010154600160f81b900460ff169061135c836134b5565b9050336001600160a01b038416148015906113805750336001600160a01b03821614155b156113a95760405163172b4e7560e11b81526001600160a01b0382166004820152602401610ba8565b5f6113b58483856134e4565b604080516001600160a01b0385168152602081018390529192507ffc30cddea38e2bf4d6ea7d3f9ed3b6ad7f176419f4963bd81318067a4aee73fe91015b60405180910390a15050503868929eee149b4bd212685550565b5f61141783611ff6565b82106114485760405163295f44f760e21b81526001600160a01b038416600482015260248101839052604401610ba8565b506001600160a01b03919091165f908152600660209081526040808320938352929052205490565b611478613599565b6040515f907307a07a07a07a07a07a07a07a07a07a07a07a07a09034908381818185875af1925050503d805f81146114cb576040519150601f19603f3d011682016040523d82523d5f602084013e6114d0565b606091505b50509050806110405760405162461bcd60e51b815260206004820152601460248201527324b6b837b9b9b4b136329031b7b73234ba34b7b760611b6044820152606401610ba8565b6040805160c08101825260608082525f6020830181905292820183905281018290526080810182905260a0810191909152600d54600160b01b900463ffffffff166115648160026161dd565b63ffffffff168363ffffffff1611806115a4575060038163ffffffff16101580156115a457506115956003826161f9565b63ffffffff168363ffffffff16105b156115ca57604051634fadd4d360e11b815263ffffffff84166004820152602401610ba8565b600d54600160d01b900460ff1663ffffffff82811690851611156116ac576115f38483836135cd565b60408051825460e0602082028301810190935260c08201818152919392849291849184018282801561164c57602002820191905f5260205f20905b81546001600160a01b0316815260019091019060200180831161162e575b5050509183525050600182015460208201526002909101546001600160401b038116604083015263ffffffff600160401b820481166060840152600160601b820416608083015260ff600160801b9091041660a090910152949350505050565b6115f3848383613657565b601181600481106116c6575f80fd5b6003020160018101546002909101549091506001600160401b03811690600160401b810463ffffffff90811691600160601b810490911690600160801b900460ff1685565b611713613599565b61171b6136f8565b565b610cd483838360405180602001604052805f81525061283a565b5f61174160085490565b82106117695760405163295f44f760e21b81525f600482015260248101839052604401610ba8565b6008828154811061177c5761177c6160f0565b905f5260205f2001549050919050565b601d81600481106116c6575f80fd5b6117a3612fb7565b3068929eee149b4bd2126854036117c15763ab143c065f526004601cfd5b3068929eee149b4bd21268556117d682612fe0565b505f6117e1836134b5565b9050336001600160a01b038416148015906118055750336001600160a01b03821614155b1561182e5760405163172b4e7560e11b81526001600160a01b0382166004820152602401610ba8565b6001600160a01b0383165f908152600f60205260409020600180820154600160e01b900460ff16908160068111156118685761186861583d565b14158015611888575060028160068111156118855761188561583d565b14155b80156118a6575060038160068111156118a3576118a361583d565b14155b156118c65780604051633ba7bf8960e11b8152600401610ba89190616215565b600182015460ff600160f81b9091048116908516811015806118f05750600d5460ff908116908616115b1561191b57604051633abb443b60e21b815260ff808316600483015286166024820152604401610ba8565b60ff8082165f908152600a6020526040808220549288168252902054818111156119a1575f61194a8383616118565b905080341461196e5760405163222d164360e21b8152346004820152602401610ba8565b6001600160a01b0389165f908152600b6020526040812080548392906119959084906161a3565b90915550611b51915050565b81811015611b305734156119ca5760405163222d164360e21b8152346004820152602401610ba8565b5f6119d58284616118565b6001600160a01b038a165f908152600b60205260408120549192508482106119fe575081611a13565b83821115611a1357611a108483616118565b90505b8015611ab7576001600160a01b038b165f908152600b602052604081208054839290611a40908490616118565b9091555050604051634875485760e11b81526001600160a01b038a1660048201525f60248201527307a07a07a07a07a07a07a07a07a07a07a07a07a0906390ea90ae9083906044015f604051808303818588803b158015611a9f575f80fd5b505af1158015611ab1573d5f803e3d5ffd5b50505050505b5f611ac28285616118565b90508015611b27576040515f907307a07a07a07a07a07a07a07a07a07a07a07a07a09083908381818185875af1925050503d805f8114611b1d576040519150601f19603f3d011682016040523d82523d5f602084013e611b22565b606091505b505050505b50505050611b51565b3415611b515760405163222d164360e21b8152346004820152602401610ba8565b60018501805460ff808a16600160f81b026001600160f81b039092169190911791829055600160f01b9091041615611bb4576001600160a01b0388165f908152600c60205260409020600201805460ff60a01b1916600160a01b60ff8a16021790555b6040805160ff808616825289166020820152908101839052606081018290526001600160a01b038916907f27f993440568bc502fe7db72fe27118488431975dc3239b379513a4cdb08e2c99060800160405180910390a25050505050503868929eee149b4bd21268555050565b611c29613599565b8061ffff165f03611c7c57600d54601190600160d01b900460ff1660048110611c5457611c546160f0565b6003020154604051635700689f60e11b815260048101919091525f6024820152604401610ba8565b5f611c876003613170565b905080518261ffff161115611cbf578051604051635700689f60e11b8152600481019190915261ffff83166024820152604401610ba8565b600d805461ffff848116600160d81b81810261ffff60d81b1985161790945584516040805195909404909216808552602085019190915291830152907f74cf7ca84b30b723e8b6e3cc569ec2db21f4ba2fcc09d651e5ce6770b91552f99060600160405180910390a1505050565b5f610b7d82612f7f565b5f611d40612852565b60a00151905090565b60605f73__$2ef4e8110a3eaa1255da7f08f8eebcbf5a$__63a691a08b856040518263ffffffff1660e01b8152600401611d8391906157bd565b5f60405180830381865af4158015611d9d573d5f803e3d5ffd5b505050506040513d5f823e601f3d908101601f19168201604052611dc49190810190616223565b6040516329bd7cc960e21b815290915073__$2ef4e8110a3eaa1255da7f08f8eebcbf5a$__9063a6f5f32490611dfe9084906004016157bd565b602060405180830381865af4158015611e19573d5f803e3d5ffd5b505050506040513d601f19601f82011682018060405250810190611e3d9190616297565b611e5a576040516333a234f960e11b815260040160405180910390fd5b604051611e7e9061d50160d81b908690600560fa1b90606088901b906020016162c9565b60405160208183030381529060405291505092915050565b611e9e613599565b611ea781611ff6565b151580611eb85750611eb881611f6c565b15611ee157604051639fb0877960e01b81526001600160a01b0382166004820152602401610ba8565b611040816001600160a01b03811661374b565b5f60608214611f0457505f610b7d565b5f8383604051611f15929190616312565b60408051918290039091205f818152601060205291909120549091506001600160a01b031680611f49575f92505050610b7d565b611f5281611f6c565b15611f61575f92505050610b7d565b506001949350505050565b5f611f7f6001600160a01b0383166137ac565b15611f8b57505f919050565b5f6001600160a01b0383165f908152600f6020526040902060010154600160e01b900460ff166006811115611fc257611fc261583d565b03611fce57505f919050565b506001600160a01b03165f908152600f6020526040902060010154600160e81b900460ff1690565b5f6001600160a01b038216612020576040516322718ad960e21b81525f6004820152602401610ba8565b506001600160a01b03165f9081526003602052604090205490565b612043613599565b61171b5f6137ff565b6001600160a01b0381165f908152600f6020908152604080832060010154600160f81b900460ff16808452600a9092528220546120898482613137565b949350505050565b336002600160a01b03146120ba57604051637eb3357160e01b8152336004820152602401610ba8565b6120c4828261385a565b600d54600160d81b900461ffff16811461210857600d54604051635700689f60e11b8152600160d81b90910461ffff16600482015260248101829052604401610ba8565b5f805f806121478686808060200260200160405190810160405280939291908181526020018383602002808284375f9201919091525061393192505050565b935093509350935061215a868686613c56565b5f6121656003613170565b80519091506121749087613420565b7fd1a5032a9ae65ebe520eba7974025750af3d884b6ab6047dad04dcf7006ab3856040518060c001604052808481526020018681526020014360016121b991906161a3565b6001600160401b0316815263ffffffff80891660208301528616604080830191909152600d5460ff16606090920191909152516121f6919061598a565b60405180910390a150505050505050565b61223460405180608001604052805f81526020015f81526020015f81526020015f63ffffffff1681525090565b50600d5460ff165f908152600a602090815260409182902082516080810184528154815260018201549281019290925260028101549282019290925260039091015463ffffffff16606082015290565b61228c613599565b61171b613e9a565b600f60f81b6060805f8080836122e960408051808201825260148152732a32b631b7b4b71029ba30b5b2a6b0b730b3b2b960611b602080830191909152825180840190935260018352603160f81b9083015291565b97989097965046955030945091925090565b612303613599565b61230c81611f6c565b1561232d576006604051633ba7bf8960e11b8152600401610ba89190616215565b61233681612fe0565b505f6001600160a01b0382165f908152600f6020526040902060010154600160e01b900460ff16600681111561236e5761236e61583d565b036123a5576001600160a01b0381165f908152600f6020526040902061239390613ed9565b6110406001600160a01b038216613f1f565b61104081612e0b565b6123b6612fb7565b5f6123f7858589898080601f0160208091040260200160405190810160405280939291908181526020018383808284375f92019190915250613f5792505050565b90505f612402612852565b60a0015190505f6124133483614151565b905061241e86612fe0565b50612429865f61304e565b6001600160a01b0386165f908152600c60205260409020600201546001600160401b03600160a81b9091041661246e600d546001600160a01b03620100009091041690565b6001600160a01b0316336001600160a01b03161461251d575f7f9a361e91fa9aa610b5edf1d5c1cc20b9646c4228f3c004354ed2de7635dac99485893387866040516020016124c296959493929190616321565b6040516020818303038152906040528051906020012090505f6124e48261418c565b90506124f289828a8a6142a2565b61251a57604051633b4f6e2b60e21b81526001600160a01b038a166004820152602401610ba8565b50505b6040518060a00160405280858152602001886001600160a01b03168152602001336001600160a01b031681526020018460ff168152602001826001612562919061635f565b6001600160401b039081169091526001600160a01b03808a165f908152600c60209081526040918290208551815590850151600180830180549286166001600160a01b03199093169290921790915591850151600290910180546060870151608090970151909516600160a81b0267ffffffffffffffff60a81b1960ff909716600160a01b026001600160a81b031990961692909416919091179390931793909316179055612618908b908b908a908787614375565b50505050505050505050565b60605f8260068111156126395761263961583d565b036126595781604051633ba7bf8960e11b8152600401610ba89190616215565b610b7d82613170565b606060018054610ce790616154565b60605f61267d83611518565b5f015190505f81516001600160401b0381111561269c5761269c615aa3565b6040519080825280602002602001820160405280156126d557816020015b6126c2615620565b8152602001906001900390816126ba5790505b5090505f5b815181101561272a576127058382815181106126f8576126f86160f0565b60200260200101516110ac565b828281518110612717576127176160f0565b60209081029190910101526001016126da565b509392505050565b61275f60405180608001604052805f81526020015f81526020015f81526020015f63ffffffff1681525090565b5060ff165f908152600a602090815260409182902082516080810184528154815260018201549281019290925260028101549282019290925260039091015463ffffffff16606082015290565b6127b4612fb7565b6127f4813385858080601f0160208091040260200160405190810160405280939291908181526020018383808284375f92019190915250613f5792505050565b505f6127fe612852565b60a0015190505f61280f3483614151565b905061281a33612fe0565b50612825335f61304e565b6128338585335f8686614375565b5050505050565b612845848484610d8f565b6112eb338585858561455d565b6040805160c08101825260608082525f6020830181905292820183905281018290526080810182905260a0810191909152600d546128a990600160b01b810463ffffffff16908190600160d01b900460ff16613657565b60408051825460e0602082028301810190935260c08201818152919392849291849184018282801561290257602002820191905f5260205f20905b81546001600160a01b031681526001909101906020018083116128e4575b5050509183525050600182015460208201526002909101546001600160401b038116604083015263ffffffff600160401b820481166060840152600160601b820416608083015260ff600160801b9091041660a090910152919050565b5f612968613599565b612970612fb7565b612980608083016060840161596f565b63ffffffff165f036129be5761299c608083016060840161596f565b604051630c6e911360e41b815263ffffffff9091166004820152602401610ba8565b600d80545f919082906129d39060ff1661637e565b825460ff8083166101009490940a848102910219909116179092555f908152600a602052604090209091508390612a0a828261639c565b50909150505b919050565b6060612a2082612f7f565b505f612a5b612a2e84614684565b612a36614732565b604051602001612a479291906163df565b60405160208183030381529060405261477c565b905080604051602001612a6e91906164ce565b604051602081830303815290604052915050919050565b5f612a8f83612fe0565b505f612a99612852565b60a001516001600160a01b0385165f908152600c602090815260408083206002015489518a8401209151949550600160a81b90046001600160401b031693909291612b10917f9a361e91fa9aa610b5edf1d5c1cc20b9646c4228f3c004354ed2de7635dac9949185918b918b918a918a9101616321565b604051602081830303815290604052805190602001209050612b318161418c565b9450505050505b9392505050565b6001600160a01b039182165f90815260056020908152604080832093909416825291909152205460ff1690565b612b74612fb7565b3068929eee149b4bd212685403612b925763ab143c065f526004601cfd5b3068929eee149b4bd2126855612ba781612fe0565b505f612bb2826134b5565b9050336001600160a01b03831614801590612bd65750336001600160a01b03821614155b15612bff5760405163172b4e7560e11b81526001600160a01b0382166004820152602401610ba8565b6001600160a01b0382165f908152600f60205260409020612c1f816147a2565b612c3e57806040516371964ca360e11b8152600401610ba8919061657e565b612c4781613ed9565b5f612c528484614842565b604080516001600160a01b0386168152602081018390529192507ffc30cddea38e2bf4d6ea7d3f9ed3b6ad7f176419f4963bd81318067a4aee73fe91016113f3565b612c9c613599565b6001600160a01b038116612cc557604051631e4fbdf760e01b81525f6004820152602401610ba8565b611040816137ff565b600f6020525f9081526040902080548190612ce890616154565b80601f0160208091040260200160405190810160405280929190818152602001828054612d1490616154565b8015612d5f5780601f10612d3657610100808354040283529160200191612d5f565b820191905f5260205f20905b815481529060010190602001808311612d4257829003601f168201915b505050600190930154919250506001600160a01b0381169063ffffffff600160a01b8204811691600160c01b81049091169060ff600160e01b8204811691600160e81b8104821691600160f01b8204811691600160f81b90041688565b5f6001600160e01b031982166380ac58cd60e01b1480612dec57506001600160e01b03198216635b5e139f60e01b145b80610b7d57506301ffc9a760e01b6001600160e01b0319831614610b7d565b6001600160a01b0381165f908152600f6020526040812060018101549091600160e01b90910460ff1690612e3f6003613170565b519050612e4b826149a6565b15612e5e57612e5b600182616118565b90505b612e6884826149f9565b5f80612e7386611043565b506001600160a01b0388165f908152600b602052604081208190559193509150818310612ea05781612ea2565b825b6040519091505f907307a07a07a07a07a07a07a07a07a07a07a07a07a09083908381818185875af1925050503d805f8114612ef8576040519150601f19603f3d011682016040523d82523d5f602084013e612efd565b606091505b5050905080612f455760405162461bcd60e51b815260206004820152601460248201527324b6b837b9b9b4b136329031b7b73234ba34b7b760611b6044820152606401610ba8565b600d54612f60908890600160b01b900463ffffffff16614b3a565b612f6987613ed9565b5f612f73896134b5565b90506126188982614842565b5f818152600260205260408120546001600160a01b031680610b7d57604051637e27328960e01b815260048101849052602401610ba8565b600d54610100900460ff161561171b5760405163d93c066560e01b815260040160405180910390fd5b5f6001600160a01b038216612ff4816137ac565b6130145760405163ed15e6cf60e01b815260048101829052602401610ba8565b826001600160a01b031661302782611d2d565b6001600160a01b031614610b7d576040516330fa89ab60e11b815260040160405180910390fd5b6001600160a01b0382165f908152600f6020526040902060010154600160e01b900460ff168160068111156130855761308561583d565b8160068111156130975761309761583d565b14610cd45780604051633ba7bf8960e11b8152600401610ba89190616215565b6130c28160016161dd565b60018301805463ffffffff92909216600160a01b0260ff60e01b191668ff00000000ffffffff60a01b1990921691909117600160e11b1790556040517fbdacb030997c2fe9d7ee41c51f5a150138c75b326c7a66f88ced12925f80bc059061312b90849061657e565b60405180910390a15050565b6001600160a01b0382165f908152600b60205260408120548183821161315d575f613167565b6131678483616118565b95945050505050565b60605f61317c60085490565b6001600160401b0381111561319357613193615aa3565b6040519080825280602002602001820160405280156131cc57816020015b6131b9615620565b8152602001906001900390816131b15790505b5090505f805b8251811015613417575f6131eb6131e883611737565b90565b6001600160a01b0381165f908152600f60205260409020600181015491925090600160e81b900460ff161561322157505061340f565b5f60068860068111156132365761323661583d565b149050806132a0576001820154600160e01b900460ff1660038960068111156132615761326161583d565b036132765761326f816149a6565b915061329e565b8860068111156132885761328861583d565b81600681111561329a5761329a61583d565b1491505b505b801561340b5781604051806101000160405290815f820180546132c290616154565b80601f01602080910402602001604051908101604052809291908181526020018280546132ee90616154565b80156133395780601f1061331057610100808354040283529160200191613339565b820191905f5260205f20905b81548152906001019060200180831161331c57829003601f168201915b505050918352505060018201546001600160a01b038116602083015263ffffffff600160a01b820481166040840152600160c01b820416606083015260809091019060ff600160e01b9091041660068111156133975761339761583d565b60068111156133a8576133a861583d565b81526001919091015460ff600160e81b8204811615156020840152600160f01b8204811615156040840152600160f81b9091041660609091015286866133ed81616618565b9750815181106133ff576133ff6160f0565b60200260200101819052505b5050505b6001016131d2565b50815292915050565b81158061342b575080155b8061343557508181115b15610ff657604051635700689f60e11b81526004810183905260248101829052604401610ba8565b60018101805464ffffffffff60c01b19166404ffffffff60c01b1790556040517f537bf236138f80ea8801a391fffc8a42bf0be3b6ea9d336ca2e2164a4c91071c906134aa90839061657e565b60405180910390a150565b6001600160a01b038082165f908152600c602052604081206002810154919290911680612b3857509192915050565b5f806134f08584614b93565b6001600160a01b0386165f908152600b602052604081208054929350839290919061351c908490616118565b9091555050604051634875485760e11b81526001600160a01b0385166004820152602481018290527307a07a07a07a07a07a07a07a07a07a07a07a07a0906390ea90ae906044015f604051808303815f87803b15801561357a575f80fd5b505af115801561358c573d5f803e3d5ffd5b5092979650505050505050565b600d546001600160a01b036201000090910416331461171b5760405163118cdaa760e01b8152336004820152602401610ba8565b5f806004836135dc86886161f9565b6135e69190616630565b6135f09190616649565b90505f601d8260ff1660048110613609576136096160f0565b6003020190508563ffffffff168160020160089054906101000a900463ffffffff1663ffffffff161461316757604051634fadd4d360e11b815263ffffffff87166004820152602401610ba8565b5f8061366385856161f9565b90505f6004826136738683616630565b61367d919061666a565b6136879190616649565b90505f60118260ff16600481106136a0576136a06160f0565b6003020190508663ffffffff168160020160089054906101000a900463ffffffff1663ffffffff16146136ee57604051634fadd4d360e11b815263ffffffff88166004820152602401610ba8565b9695505050505050565b613700614bf3565b600d805461ff00191690557f5db9ee0a495bf2e6ff9c91a7834c1ba4fdd244a5e8aa4e537bd38aeae4b073aa335b6040516001600160a01b03909116815260200160405180910390a1565b6001600160a01b03821661377457604051633250574960e11b81525f6004820152602401610ba8565b5f61378083835f614c1b565b90506001600160a01b03811615610cd4576040516339e3563760e11b81525f6004820152602401610ba8565b5f8115806137c157506001600160a01b038210155b156137e25760405163ed15e6cf60e01b815260048101839052602401610ba8565b505f908152600260205260409020546001600160a01b0316151590565b600d80546001600160a01b038381166201000081810262010000600160b01b031985161790945560405193909204169182907f8be0079c531659141344cd1fd0a4f28419497f9722a3daafe3b4186f6b6457e0905f90a35050565b5f5b613867600183616118565b811015610cd457828261387b8360016161a3565b81811061388a5761388a6160f0565b905060200201602081019061389f9190615824565b6001600160a01b03168383838181106138ba576138ba6160f0565b90506020020160208101906138cf9190615824565b6001600160a01b031610613929578282828181106138ef576138ef6160f0565b90506020020160208101906139049190615824565b60405163836e3a7d60e01b81526001600160a01b039091166004820152602401610ba8565b60010161385c565b600d545f9081908190606090600160d01b900460ff16826004613955836001616630565b61395f9190616649565b600d805460ff60d01b1916600160d01b60ff841602178082559192505f9160169061399690600160b01b900463ffffffff16616683565b91906101000a81548163ffffffff021916908363ffffffff160217905590505f601d8360ff16600481106139cc576139cc6160f0565b6003020190505f6139db612207565b90506040518060c0016040528083805480602002602001604051908101604052809291908181526020018280548015613a3b57602002820191905f5260205f20905b81546001600160a01b03168152600190910190602001808311613a1d575b5050509183525050604080840151602083015201613a5a43600161635f565b6001600160401b0316815263ffffffff80861660208301526060808501519091166040830152600d5460ff9081169190920152601190861660048110613aa257613aa26160f0565b600302015f820151815f019080519060200190613ac0929190615663565b50602082015160018201556040820151600291820180546060850151608086015160a0909601516001600160401b039094166bffffffffffffffffffffffff1990921691909117600160401b63ffffffff928316021764ffffffffff60601b1916600160601b919095160260ff60801b191693909317600160801b60ff90921691909102179091555f90600490613b58908790616630565b613b629190616649565b90508a601d8260ff1660048110613b7b57613b7b6160f0565b600302015f019080519060200190613b94929190615663565b50613ba08460026161dd565b601d8260ff1660048110613bb657613bb66160f0565b6003020160020160086101000a81548163ffffffff021916908363ffffffff16021790555083826040015183606001518580805480602002602001604051908101604052809291908181526020018280548015613c3a57602002820191905f5260205f20905b81546001600160a01b03168152600190910190602001808311613c1c575b5050505050905099509950995099505050505050509193509193565b5f613c616002613170565b90505f5b8151811015613cc3575f600f5f848481518110613c8457613c846160f0565b6020026020010151602001516001600160a01b03166001600160a01b031681526020019081526020015f209050613cba81614ce6565b50600101613c65565b505f613ccf6004613170565b600d54909150600160d01b900460ff165f6004613ced836001616630565b613cf79190616649565b90505f60118360ff1660048110613d1057613d106160f0565b60030201805460408051602080840282018101909252828152929190830182828015613d6357602002820191905f5260205f20905b81546001600160a01b03168152600190910190602001808311613d45575b505050505090505f601d8360ff1660048110613d8157613d816160f0565b60030201805460408051602080840282018101909252828152929190830182828015613dd457602002820191905f5260205f20905b81546001600160a01b03168152600190910190602001808311613db6575b505050505090505f5b8551811015612618575f868281518110613df957613df96160f0565b6020026020010151602001519050613e118185614d2b565b80613e215750613e218184614d2b565b80613e635750613e63818c8c808060200260200160405190810160405280939291908181526020018383602002808284375f92019190915250614d2b92505050565b15613e6e5750613e92565b6001600160a01b0381165f908152600f60205260409020613e8f818b614b3a565b50505b600101613ddd565b613ea2612fb7565b600d805461ff0019166101001790557f62e78cea01bee320cd4e420270b5ea74000d11b0c9f74754ebdbfc544b05a25861372e3390565b60018101805461ffff60e01b1916608360e11b1790556040517fb9e0e3d06d30a4b0476d42accfa2ee90a854c961cc7f10ddc965608a97b982b1906134aa90839061657e565b5f613f2b5f835f614c1b565b90506001600160a01b038116610ff657604051637e27328960e01b815260048101839052602401610ba8565b5f8151606014613f7a576040516333a234f960e11b815260040160405180910390fd5b5f613f88855f015185611d49565b855160405163a691a08b60e01b81529192505f9173__$2ef4e8110a3eaa1255da7f08f8eebcbf5a$__9163a691a08b91613fc591906004016157bd565b5f60405180830381865af4158015613fdf573d5f803e3d5ffd5b505050506040513d5f823e601f3d908101601f191682016040526140069190810190616223565b90505f73__$2ef4e8110a3eaa1255da7f08f8eebcbf5a$__633d2a9e1188602001516040518263ffffffff1660e01b815260040161404491906157bd565b5f60405180830381865af415801561405e573d5f803e3d5ffd5b505050506040513d5f823e601f3d908101601f191682016040526140859190810190616223565b905073__$2ef4e8110a3eaa1255da7f08f8eebcbf5a$__635779b9a38383866040518060600160405280602b8152602001616dc9602b91396040518563ffffffff1660e01b81526004016140dc949392919061669e565b602060405180830381865af41580156140f7573d5f803e3d5ffd5b505050506040513d601f19601f8201168201806040525081019061411b9190616297565b61413c578683604051634babb8f160e01b8152600401610ba89291906166ea565b6141468587614d88565b979650505050505050565b60ff81165f908152600a602052604081205483146141855760405163222d164360e21b815260048101849052602401610ba8565b5090919050565b7f00000000000000000000000000000000000000000000000000000000000000007f000000000000000000000000000000000000000000000000000000000000000030147f000000000000000000000000000000000000000000000000000000000000000046141661427f5750604080517f8b73c3c69bb8fe3d512ecc4cf759cc79239f7b179b0ffacaa9a75d522b39400f81527f000000000000000000000000000000000000000000000000000000000000000060208201527f00000000000000000000000000000000000000000000000000000000000000009181019190915246606082015230608082015260a090205b6719010000000000005f5280601a5281603a52604260182090505f603a52919050565b5f6001600160a01b0385161561208957604051853b6143325782604081146142d257604181146142f9575061436c565b60208581013560ff81901c601b0190915285356040526001600160ff1b031660605261430a565b60408501355f1a6020526040856040375b50845f526020600160805f60015afa5180871860601b3d119250505f6060528060405261436c565b631626ba7e60e01b80825285600483015260248201604081528460448401528486606485013760208160648701858b5afa90519091141691505b50949350505050565b604080516101206020601f8901819004028201810190925261010081018781525f928291908a908a90819085018382808284375f9201829052509385525050506001600160a01b038816602083015263ffffffff60408301526060820152608001600181525f602080830182905287151560408085019190915260ff88166060909401939093526001600160a01b0389168252600f905220815191925082918190614420908261677a565b5060208201516001820180546040850151606086015163ffffffff908116600160c01b0263ffffffff60c01b1991909216600160a01b026001600160c01b03199093166001600160a01b0390951694909417919091179283168117825560808501519260ff60e01b1990911664ffffffffff60c01b1990911617600160e01b8360068111156144b1576144b161583d565b021790555060a08201516001909101805460c084015160e09094015160ff16600160f81b026001600160f81b03941515600160f01b0260ff60f01b19941515600160e81b029490941661ffff60e81b199092169190911792909217929092161790556001600160a01b0385165f908152600b602052604090819020839055517f7d89246e6daeb7529685fda2e1f478d9a155eea08675ebecd1bf8c0e572382fd906121f6908390615912565b6001600160a01b0383163b1561283357604051630a85bd0160e11b81526001600160a01b0384169063150b7a029061459f908890889087908790600401616834565b6020604051808303815f875af19250505080156145d9575060408051601f3d908101601f191682019092526145d691810190616866565b60015b614640573d808015614606576040519150601f19603f3d011682016040523d82523d5f602084013e61460b565b606091505b5080515f0361463857604051633250574960e11b81526001600160a01b0385166004820152602401610ba8565b805181602001fd5b6001600160e01b03198116630a85bd0160e11b1461467c57604051633250574960e11b81526001600160a01b0385166004820152602401610ba8565b505050505050565b60605f61469083614df7565b6028602282012090915060601c60295b600181111561472957600782600f161180156146d5575060608382815181106146cb576146cb6160f0565b016020015160f81c115b1561471257602060f81b8382815181106146f1576146f16160f0565b0160200180516001600160f81b0319908116909218909116905f82901a9053505b60049190911c9061472281616881565b90506146a0565b50909392505050565b60606147586040518061052001604052806104ed81526020016168dc6104ed913961477c565b6040516020016147689190616896565b604051602081830303815290604052905090565b6060610b7d82604051806060016040528060408152602001616df4604091396001614e0d565b6001818101545f91600160e01b90910460ff16908160068111156147c8576147c861583d565b036147d65750600192915050565b6001838101545f916147f591600160c01b900463ffffffff16906161dd565b9050600582600681111561480b5761480b61583d565b14801561482a5750600d5463ffffffff808316600160b01b9092041610155b15614839575060019392505050565b505f9392505050565b5f6148556001600160a01b038416613f1f565b6008545f03614877576040516315ae672760e01b815260040160405180910390fd5b5f805f61488386611043565b925092509250825f0361489b57829350505050610b7d565b6001600160a01b0386165f908152600b602052604081208190558284106148c3575081614928565b50825f7307a07a07a07a07a07a07a07a07a07a07a07a07a06148e58386616118565b6040515f81818185875af1925050503d805f811461491e576040519150601f19603f3d011682016040523d82523d5f602084013e614923565b606091505b505050505b604051634875485760e11b81526001600160a01b0387166004820152602481018390527307a07a07a07a07a07a07a07a07a07a07a07a07a0906390ea90ae9083906044015f604051808303818588803b158015614983575f80fd5b505af1158015614995573d5f803e3d5ffd5b5050505050818161414691906161a3565b5f60038260068111156149bb576149bb61583d565b14806149d8575060048260068111156149d6576149d661583d565b145b80610b7d575060028260068111156149f2576149f261583d565b1492915050565b600d54600160b01b810463ffffffff1690600160d01b900460ff165f614a20838084613657565b90505f614a2d8287614f87565b8254909150614a3c8682613420565b5f614a488660016161dd565b90505f614a568288886135cd565b9050614a62818a614f87565b81549094509250614a738884613420565b5f614a7f8860026161dd565b90505f614a8d828a8a6135cd565b9050614a99818c614f87565b81549096509450614aaa8a86613420565b600d54600160d81b900461ffff168a1015614b2d57600d805461ffff8c8116600160d81b90810261ffff60d81b1984161793849055604080519382900483168085529190940490911660208301529181018c90527f74cf7ca84b30b723e8b6e3cc569ec2db21f4ba2fcc09d651e5ce6770b91552f99060600160405180910390a1505b5050505050505050505050565b60018201805463ffffffff8316600160c01b0264ffffffffff60c01b1990911617600560e01b1790556040517f69cb3a026a27d868ccc41f8a2a5e4b59396939b736cf54a110052c9983e8378d9061312b90849061657e565b60ff81165f908152600a602052604081205481614bb08583613137565b9050801580614bd2575060ff84165f908152600a602052604090206001015481105b1561208957604051633737b70960e11b815260048101829052602401610ba8565b600d54610100900460ff1661171b57604051638dfc202b60e01b815260040160405180910390fd5b5f80614c28858585615082565b90506001600160a01b038116614c8457614c7f84600880545f838152600960205260408120829055600182018355919091527ff3f7a9fe364faab93b216da50a3214154f22a0a2b415b23a84c8169e8b636ee30155565b614ca7565b846001600160a01b0316816001600160a01b031614614ca757614ca78185615174565b6001600160a01b038516614cc357614cbe846151f1565b612089565b846001600160a01b0316816001600160a01b031614612089576120898585615298565b60018101805460ff60e01b1916600360e01b1790556040517f31845bad1fcdd92490e8d85605449863a562ea940e37b380a276e440683fdb72906134aa90839061657e565b80515f90815b81811015614d7e57846001600160a01b0316848281518110614d5557614d556160f0565b60200260200101516001600160a01b031603614d7657600192505050610b7d565b600101614d31565b505f949350505050565b81516020808401919091205f81815260109092526040909120546001600160a01b031615614dc957604051638d12779f60e01b815260040160405180910390fd5b5f81815260106020526040902080546001600160a01b0384166001600160a01b031990911617905592915050565b6060610b7d6001600160a01b03831660146152e6565b606083515f03614e2b575060408051602081019091525f8152612b38565b5f82614e5b57600385516004614e41919061618c565b614e4c9060026161a3565b614e5691906161ca565b614e80565b600385516002614e6b91906161a3565b614e7591906161ca565b614e8090600461618c565b90505f816001600160401b03811115614e9b57614e9b615aa3565b6040519080825280601f01601f191660200182016040528015614ec5576020820181803683370190505b509050600185016020820187885189016020810180515f82525b82841015614f3a576003840193508351603f8160121c168701518653600186019550603f81600c1c168701518653600186019550603f8160061c168701518653600186019550603f8116870151865350600185019450614edf565b905250508515614f7b57600388510660018114614f5e5760028114614f7157614f79565b603d6001830353603d6002830353614f79565b603d60018303535b505b50909695505050505050565b81545f90815b81811015614d7e57836001600160a01b0316858281548110614fb157614fb16160f0565b5f918252602090912001546001600160a01b03160361507a5784614fd6600184616118565b81548110614fe657614fe66160f0565b905f5260205f20015f9054906101000a90046001600160a01b0316858281548110615013576150136160f0565b905f5260205f20015f6101000a8154816001600160a01b0302191690836001600160a01b031602179055508480548061504e5761504e6168c7565b5f8281526020902081015f1990810180546001600160a01b03191690550190555060019150610b7d9050565b600101614f8d565b5f828152600260205260408120546001600160a01b03908116908316156150ae576150ae818486615457565b6001600160a01b038116156150e8576150c95f855f806154bb565b6001600160a01b0381165f90815260036020526040902080545f190190555b6001600160a01b03851615615116576001600160a01b0385165f908152600360205260409020805460010190555b5f8481526002602052604080822080546001600160a01b0319166001600160a01b0389811691821790925591518793918516917fddf252ad1be2c89b69c2b068fc378daa952ba7f163c4a11628f55a4df523b3ef91a4949350505050565b5f61517e83611ff6565b5f838152600760209081526040808320546001600160a01b03881684526006909252909120919250908183146151d3575f83815260208281526040808320548584528184208190558352600790915290208290555b5f938452600760209081526040808620869055938552525081205550565b6008545f9061520290600190616118565b5f8381526009602052604081205460088054939450909284908110615229576152296160f0565b905f5260205f20015490508060088381548110615248576152486160f0565b5f91825260208083209091019290925582815260099091526040808220849055858252812055600880548061527f5761527f6168c7565b600190038181905f5260205f20015f9055905550505050565b5f60016152a484611ff6565b6152ae9190616118565b6001600160a01b039093165f908152600660209081526040808320868452825280832085905593825260079052919091209190915550565b6060825f6152f584600261618c565b6153009060026161a3565b6001600160401b0381111561531757615317615aa3565b6040519080825280601f01601f191660200182016040528015615341576020820181803683370190505b509050600360fc1b815f8151811061535b5761535b6160f0565b60200101906001600160f81b03191690815f1a905350600f60fb1b81600181518110615389576153896160f0565b60200101906001600160f81b03191690815f1a9053505f6153ab85600261618c565b6153b69060016161a3565b90505b600181111561542d576f181899199a1a9b1b9c1cb0b131b232b360811b83600f16601081106153ea576153ea6160f0565b1a60f81b828281518110615400576154006160f0565b60200101906001600160f81b03191690815f1a90535060049290921c9161542681616881565b90506153b9565b5081156120895760405163e22e27eb60e01b81526004810186905260248101859052604401610ba8565b6154628383836155bf565b610cd4576001600160a01b03831661549057604051637e27328960e01b815260048101829052602401610ba8565b60405163177e802f60e01b81526001600160a01b038316600482015260248101829052604401610ba8565b80806154cf57506001600160a01b03821615155b15615590575f6154de84612f7f565b90506001600160a01b0383161580159061550a5750826001600160a01b0316816001600160a01b031614155b801561551d575061551b8184612b3f565b155b156155465760405163a9fbf51f60e01b81526001600160a01b0384166004820152602401610ba8565b811561558e5783856001600160a01b0316826001600160a01b03167f8c5be1e5ebec7d5bd14f71427d1e84f3dd0314c0f7b2291e5b200ac8c7c3b92560405160405180910390a45b505b50505f90815260046020526040902080546001600160a01b0319166001600160a01b0392909216919091179055565b5f6001600160a01b038316158015906120895750826001600160a01b0316846001600160a01b031614806155f857506155f88484612b3f565b806120895750505f908152600460205260409020546001600160a01b03908116911614919050565b604080516101008101825260608082525f60208301819052928201839052810182905290608082019081525f602082018190526040820181905260609091015290565b828054828255905f5260205f209081019282156156b6579160200282015b828111156156b657825182546001600160a01b0319166001600160a01b03909116178255602090920191600190910190615681565b506156c29291506156c6565b5090565b5b808211156156c2575f81556001016156c7565b6001600160e01b031981168114611040575f80fd5b5f602082840312156156ff575f80fd5b8135612b38816156da565b5f8083601f84011261571a575f80fd5b5081356001600160401b03811115615730575f80fd5b6020830191508360208260061b850101111561574a575f80fd5b9250929050565b5f8060208385031215615762575f80fd5b82356001600160401b03811115615777575f80fd5b6157838582860161570a565b90969095509350505050565b5f81518084528060208401602086015e5f602082860101526020601f19601f83011685010191505092915050565b602081525f612b38602083018461578f565b5f602082840312156157df575f80fd5b5035919050565b80356001600160a01b0381168114612a10575f80fd5b5f806040838503121561580d575f80fd5b615816836157e6565b946020939093013593505050565b5f60208284031215615834575f80fd5b612b38826157e6565b634e487b7160e01b5f52602160045260245ffd5b6007811061586d57634e487b7160e01b5f52602160045260245ffd5b9052565b5f8151610100845261588761010085018261578f565b905060018060a01b03602084015116602085015263ffffffff604084015116604085015260608301516158c2606086018263ffffffff169052565b5060808301516158d56080860182615851565b5060a08301516158e960a086018215159052565b5060c08301516158fd60c086018215159052565b5060e083015161272a60e086018260ff169052565b602081525f612b386020830184615871565b5f805f60608486031215615936575f80fd5b61593f846157e6565b925061594d602085016157e6565b929592945050506040919091013590565b63ffffffff81168114611040575f80fd5b5f6020828403121561597f575f80fd5b8135612b388161595e565b6020808252825160c083830152805160e084018190525f92919091019082906101008501905b808310156159db5783516001600160a01b0316825260209384019360019390930192909101906159b0565b506020860151604086015260408601519250615a0260608601846001600160401b03169052565b606086015163ffffffff811660808701529250608086015163ffffffff811660a0870152925060a086015160ff811660c0870152925095945050505050565b803560ff81168114612a10575f80fd5b5f8060408385031215615a62575f80fd5b615a6b836157e6565b9150615a7960208401615a41565b90509250929050565b5f60208284031215615a92575f80fd5b813561ffff81168114612b38575f80fd5b634e487b7160e01b5f52604160045260245ffd5b604051601f8201601f191681016001600160401b0381118282101715615adf57615adf615aa3565b604052919050565b5f6001600160401b03821115615aff57615aff615aa3565b50601f01601f191660200190565b5f82601f830112615b1c575f80fd5b8135615b2f615b2a82615ae7565b615ab7565b818152846020838601011115615b43575f80fd5b816020850160208301375f918101602001919091529392505050565b5f8060408385031215615b70575f80fd5b82356001600160401b03811115615b85575f80fd5b615b9185828601615b0d565b925050615a79602084016157e6565b5f8083601f840112615bb0575f80fd5b5081356001600160401b03811115615bc6575f80fd5b60208301915083602082850101111561574a575f80fd5b5f8060208385031215615bee575f80fd5b82356001600160401b03811115615c03575f80fd5b61578385828601615ba0565b5f8060208385031215615c20575f80fd5b82356001600160401b03811115615c35575f80fd5b8301601f81018513615c45575f80fd5b80356001600160401b03811115615c5a575f80fd5b8560208260051b8401011115615c6e575f80fd5b6020919091019590945092505050565b60ff60f81b8816815260e060208201525f615c9c60e083018961578f565b8281036040840152615cae818961578f565b606084018890526001600160a01b038716608085015260a0840186905283810360c0850152845180825260208087019350909101905f5b81811015615d03578351835260209384019390920191600101615ce5565b50909b9a5050505050505050505050565b5f60408284031215615d24575f80fd5b604080519081016001600160401b0381118282101715615d4657615d46615aa3565b60405290508082356001600160401b03811115615d61575f80fd5b615d6d85828601615b0d565b82525060208301356001600160401b03811115615d88575f80fd5b615d9485828601615b0d565b6020830152505092915050565b5f805f805f8060808789031215615db6575f80fd5b86356001600160401b03811115615dcb575f80fd5b615dd789828a01615ba0565b90975095505060208701356001600160401b03811115615df5575f80fd5b615e0189828a01615d14565b945050615e10604088016157e6565b925060608701356001600160401b03811115615e2a575f80fd5b615e3689828a01615ba0565b979a9699509497509295939492505050565b5f60208284031215615e58575f80fd5b813560078110612b38575f80fd5b5f602082016020835280845180835260408501915060408160051b8601019250602086015f5b82811015615ebd57603f19878603018452615ea8858351615871565b94506020938401939190910190600101615e8c565b50929695505050505050565b8015158114611040575f80fd5b5f8060408385031215615ee7575f80fd5b615ef0836157e6565b91506020830135615f0081615ec9565b809150509250929050565b5f60208284031215615f1b575f80fd5b612b3882615a41565b5f805f60408486031215615f36575f80fd5b83356001600160401b03811115615f4b575f80fd5b615f5786828701615ba0565b90945092505060208401356001600160401b03811115615f75575f80fd5b615f8186828701615d14565b9150509250925092565b5f805f8060808587031215615f9e575f80fd5b615fa7856157e6565b9350615fb5602086016157e6565b92506040850135915060608501356001600160401b03811115615fd6575f80fd5b615fe287828801615b0d565b91505092959194509250565b5f6080828403128015615fff575f80fd5b509092915050565b5f805f60608486031215616019575f80fd5b83356001600160401b0381111561602e575f80fd5b61603a86828701615b0d565b935050616049602085016157e6565b9150616057604085016157e6565b90509250925092565b5f8060408385031215616071575f80fd5b61607a836157e6565b9150615a79602084016157e6565b61010081525f61609c61010083018b61578f565b6001600160a01b038a16602084015263ffffffff89811660408501528816606084015290506160ce6080830187615851565b93151560a082015291151560c083015260ff1660e09091015295945050505050565b634e487b7160e01b5f52603260045260245ffd5b634e487b7160e01b5f52601160045260245ffd5b81810381811115610b7d57610b7d616104565b604081016001600160a01b03616140846157e6565b168252602092830135929091019190915290565b600181811c9082168061616857607f821691505b60208210810361618657634e487b7160e01b5f52602260045260245ffd5b50919050565b8082028115828204841417610b7d57610b7d616104565b80820180821115610b7d57610b7d616104565b634e487b7160e01b5f52601260045260245ffd5b5f826161d8576161d86161b6565b500490565b63ffffffff8181168382160190811115610b7d57610b7d616104565b63ffffffff8281168282160390811115610b7d57610b7d616104565b60208101610b7d8284615851565b5f60208284031215616233575f80fd5b81516001600160401b03811115616248575f80fd5b8201601f81018413616258575f80fd5b8051616266615b2a82615ae7565b81815285602083850101111561627a575f80fd5b8160208401602083015e5f91810160200191909152949350505050565b5f602082840312156162a7575f80fd5b8151612b3881615ec9565b5f81518060208401855e5f93019283525090919050565b6001600160d81b0319851681525f6162e460058301866162b2565b6001600160f81b031994909416845250506bffffffffffffffffffffffff1916600182015260150192915050565b818382375f9101908152919050565b95865260208601949094526001600160a01b0392831660408601529116606084015260ff1660808301526001600160401b031660a082015260c00190565b6001600160401b038181168382160190811115610b7d57610b7d616104565b5f60ff821660ff810361639357616393616104565b60010192915050565b8135815560208201356001820155604082013560028201556003810160608301356163c68161595e565b815463ffffffff191663ffffffff919091161790555050565b7f7b226e616d65223a202254656c636f696e2d4e6574776f726b20436f6e73656e8152651cdd5cd3919560d21b60208201525f61641f60268301856162b2565b7f222c20226465736372697074696f6e223a2022455243373231204e465420776881527f6f7365206f776e657273686970206c656467657220726570726573656e74732060208201527f746865207065726d697373696f6e65642077686974656c69737420666f72207660408201527530b634b230ba37b9399116101134b6b0b3b2911d101160511b60608201526164ba60768201856162b2565b61227d60f01b815260020195945050505050565b7f646174613a6170706c69636174696f6e2f6a736f6e3b6261736536342c00000081525f612b38601d8301846162b2565b5f815461650b81616154565b808552600182168015616525576001811461654157616575565b60ff1983166020870152602082151560051b8701019350616575565b845f5260205f205f5b8381101561656c5781546020828a01015260018201915060208101905061654a565b87016020019450505b50505092915050565b6020815261010060208201525f6165996101208301846164ff565b60018401546001600160a01b038116604085015260a081901c63ffffffff16606085015260c081901c63ffffffff1660808501526165e060a0850160ff8360e01c16615851565b6165f460c0850160ff8360e81c1615159052565b61660860e0850160ff8360f01c1615159052565b60f881901c61010085015261272a565b5f6001820161662957616629616104565b5060010190565b60ff8181168382160190811115610b7d57610b7d616104565b5f60ff83168061665b5761665b6161b6565b8060ff84160691505092915050565b60ff8281168282160390811115610b7d57610b7d616104565b5f63ffffffff821663ffffffff810361639357616393616104565b608081525f6166b0608083018761578f565b82810360208401526166c2818761578f565b905082810360408401526166d6818661578f565b90508281036060840152614146818561578f565b604081525f8351604080840152616704608084018261578f565b90506020850151603f19848303016060850152616721828261578f565b9150508281036020840152613167818561578f565b601f821115610cd457805f5260205f20601f840160051c8101602085101561675b5750805b601f840160051c820191505b81811015612833575f8155600101616767565b81516001600160401b0381111561679357616793615aa3565b6167a7816167a18454616154565b84616736565b6020601f8211600181146167d9575f83156167c25750848201515b5f19600385901b1c1916600184901b178455612833565b5f84815260208120601f198516915b8281101561680857878501518255602094850194600190920191016167e8565b508482101561682557868401515f19600387901b60f8161c191681555b50505050600190811b01905550565b6001600160a01b03858116825284166020820152604081018390526080606082018190525f906136ee9083018461578f565b5f60208284031215616876575f80fd5b8151612b38816156da565b5f8161688f5761688f616104565b505f190190565b7f646174613a696d6167652f7376672b786d6c3b6261736536342c00000000000081525f612b38601a8301846162b2565b634e487b7160e01b5f52603160045260245ffdfe3c7376672077696474683d22373922206865696768743d223830222076696577426f783d22302030203739203830222066696c6c3d226e6f6e652220786d6c6e733d22687474703a2f2f7777772e77332e6f72672f323030302f737667223e203c6d61736b2069643d226d61736b305f3834395f3334313722207374796c653d226d61736b2d747970653a616c70686122206d61736b556e6974733d227573657253706163654f6e5573652220783d22302220793d2230222077696474683d22373922206865696768743d223830223e203c726563742077696474683d2237382e30303522206865696768743d223830222066696c6c3d2223433443344334222f3e203c2f6d61736b3e203c67206d61736b3d2275726c28236d61736b305f3834395f3334313729223e203c7265637420783d2231372e393534362220793d2231382e33353435222077696474683d2234322e3239343322206865696768743d2234332e32393138222066696c6c3d227768697465222f3e203c7061746820643d224d37342e323336392032312e393839324337362e363930382032342e303331352037382e323338392032382e323537372037372e363937392033312e333733334c37322e343136362036312e333235334337312e3836362036342e343437352036382e393539322036372e383739382036352e393632392036382e393631324c33372e313934372037392e333334344333342e313938342038302e343135372032392e373432312037392e363239392032372e323936342037372e3538394c332e3831312035382e3030323143312e33353730382035352e39353938202d302e31393233382035312e3734313720302e3335383134382034382e363139354c352e36333935312031382e3636373443362e31393030342031352e3534353220392e30393638372031322e313132392031322e303933322031312e303331364c34302e3835393920302e3636363435334334332e38353632202d302e3431343835372034382e3331323520302e3337303930392035302e3735383320322e343131384c37342e323336392032312e393839325a4d34392e373634352033352e343336394c35302e393336342032392e333531334c33392e393531372032392e333638374c34312e3531362032312e333432344c33372e393538332032312e333432344333372e393538332032312e333432342033342e363332382032372e323930312032372e333030362033302e323031394c32362e323839392033352e343530334c33312e303933362033352e34364333312e303933362033352e34362032392e343637342034332e303032392032382e393331362034352e373835344332372e353637372035322e383638322033302e393830362035372e383933392033362e323238312035372e383933394333382e383630362035372e383933392034312e3831372035372e383933392034352e303937322035372e383933394c34362e363532342035312e313636364334362e323734322035312e313636362034332e383031332035312e313636362033392e323333362035312e313636364333352e393336342035312e313636362033362e313039392034392e333138392033362e373433312034362e303330354c33382e373833382033352e343333334c34392e373634352033352e343336395a222066696c6c3d2223313443384646222f3e203c2f673e203c2f7376673e424c535f5349475f424c53313233383147315f584d443a5348412d3235365f535357555f524f5f4e554c5f4142434445464748494a4b4c4d4e4f505152535455565758595a6162636465666768696a6b6c6d6e6f707172737475767778797a303132333435363738392b2fa164736f6c634300081a000a424c535f5349475f424c53313233383147315f584d443a5348412d3235365f535357555f524f5f4e554c5f","linkReferences":{"src/consensus/BlsG1.sol":{"BlsG1":[{"start":2361,"length":20},{"start":2470,"length":20},{"start":2596,"length":20},{"start":2903,"length":20},{"start":3039,"length":20},{"start":14577,"length":20},{"start":14713,"length":20},{"start":23361,"length":20},{"start":23470,"length":20},{"start":23596,"length":20}]}}},"methodIdentifiers":{"SYSTEM_ADDRESS()":"3434735f","activate()":"0f15f4c0","allocateIssuance()":"355811a7","applyIncentives((address,uint256)[])":"0a36cdef","applySlashes((address,uint256)[])":"02ae337b","approve(address,uint256)":"095ea7b3","balanceOf(address)":"70a08231","beginExit()":"2228dfa0","burn(address)":"89afcb44","claimStakeRewards(address)":"2b9f4985","concludeEpoch(address[])":"7b55a300","delegateStake(bytes,(bytes,bytes),address,bytes)":"8bb43f3a","delegationDigest(bytes,address,address)":"e3716d04","eip712Domain()":"84b0196e","epochInfo(uint256)":"3894228e","futureEpochInfo(uint256)":"59ca93b6","getApproved(uint256)":"081812fc","getBalanceBreakdown(address)":"15b5709a","getCommitteeValidators(uint32)":"a0201be5","getCurrentEpoch()":"b97dd9e2","getCurrentEpochInfo()":"babc394f","getCurrentStakeConfig()":"7d06fdf8","getCurrentStakeVersion()":"67398331","getEpochInfo(uint32)":"374ed18c","getNextCommitteeSize()":"eb8535c2","getRewards(address)":"79ee54f7","getValidator(address)":"1904bb2e","getValidators(uint8)":"8cc05eda","isApprovedForAll(address,address)":"e985e9c5","isRetired(address)":"6d3c6275","isValidator(bytes)":"6a926591","issuance()":"863623bb","mint(address)":"6a627842","name()":"06fdde03","owner()":"8da5cb5b","ownerOf(uint256)":"6352211e","pause()":"8456cb59","paused()":"5c975abb","proofOfPossessionMessage(bytes,address)":"6850eb31","renounceOwnership()":"715018a6","safeTransferFrom(address,address,uint256)":"42842e0e","safeTransferFrom(address,address,uint256,bytes)":"b88d4fde","setApprovalForAll(address,bool)":"a22cb465","setNextCommitteeSize(uint16)":"62fcde4b","stake(bytes,(bytes,bytes))":"b5184324","stakeConfig(uint8)":"a71954ec","supportsInterface(bytes4)":"01ffc9a7","symbol()":"95d89b41","tokenByIndex(uint256)":"4f6ccce7","tokenOfOwnerByIndex(address,uint256)":"2f745c59","tokenURI(uint256)":"c87b56dd","totalSupply()":"18160ddd","transferFrom(address,address,uint256)":"23b872dd","transferOwnership(address)":"f2fde38b","undistributedIssuance()":"008d6acd","unpause()":"3f4ba83a","unstake(address)":"f2888dbb","upgradeStakeVersion((uint256,uint256,uint256,uint32))":"c05df7ac","upgradeValidatorStakeVersion(address,uint8)":"5a41fb1f","validators(address)":"fa52c7d8"},"id":53}