{"abi":[{"type":"constructor","inputs":[{"name":"genesisConfig_","type":"tuple","internalType":"struct IStakeManager.StakeConfig","components":[{"name":"stakeAmount","type":"uint256","internalType":"uint256"},{"name":"minWithdrawAmount","type":"uint256","internalType":"uint256"},{"name":"epochIssuance","type":"uint256","internalType":"uint256"},{"name":"epochDuration","type":"uint32","internalType":"uint32"}]},{"name":"initialValidators_","type":"tuple[]","internalType":"struct IConsensusRegistry.ValidatorInfo[]","components":[{"name":"blsPubkey","type":"bytes","internalType":"bytes"},{"name":"validatorAddress","type":"address","internalType":"address"},{"name":"activationEpoch","type":"uint32","internalType":"uint32"},{"name":"exitEpoch","type":"uint32","internalType":"uint32"},{"name":"currentStatus","type":"uint8","internalType":"enum IConsensusRegistry.ValidatorStatus"},{"name":"isRetired","type":"bool","internalType":"bool"},{"name":"stakeVersion","type":"uint8","internalType":"uint8"},{"name":"region","type":"uint8","internalType":"uint8"}]},{"name":"proofsOfPossession","type":"tuple[]","internalType":"struct BlsG1.ProofOfPossession[]","components":[{"name":"uncompressedPubkey","type":"bytes","internalType":"bytes"},{"name":"uncompressedSignature","type":"bytes","internalType":"bytes"}]},{"name":"owner_","type":"address","internalType":"address"}],"stateMutability":"nonpayable"},{"type":"function","name":"SYSTEM_ADDRESS","inputs":[],"outputs":[{"name":"","type":"address","internalType":"address"}],"stateMutability":"view"},{"type":"function","name":"activate","inputs":[],"outputs":[],"stateMutability":"nonpayable"},{"type":"function","name":"allocateIssuance","inputs":[],"outputs":[],"stateMutability":"payable"},{"type":"function","name":"applyIncentives","inputs":[{"name":"rewardInfos","type":"tuple[]","internalType":"struct RewardInfo[]","components":[{"name":"validatorAddress","type":"address","internalType":"address"},{"name":"consensusHeaderCount","type":"uint256","internalType":"uint256"}]}],"outputs":[],"stateMutability":"nonpayable"},{"type":"function","name":"applySlashes","inputs":[{"name":"slashes","type":"tuple[]","internalType":"struct Slash[]","components":[{"name":"validatorAddress","type":"address","internalType":"address"},{"name":"amount","type":"uint256","internalType":"uint256"}]}],"outputs":[],"stateMutability":"nonpayable"},{"type":"function","name":"approve","inputs":[{"name":"","type":"address","internalType":"address"},{"name":"","type":"uint256","internalType":"uint256"}],"outputs":[],"stateMutability":"nonpayable"},{"type":"function","name":"balanceOf","inputs":[{"name":"owner","type":"address","internalType":"address"}],"outputs":[{"name":"","type":"uint256","internalType":"uint256"}],"stateMutability":"view"},{"type":"function","name":"beginExit","inputs":[],"outputs":[],"stateMutability":"nonpayable"},{"type":"function","name":"burn","inputs":[{"name":"validatorAddress","type":"address","internalType":"address"}],"outputs":[],"stateMutability":"nonpayable"},{"type":"function","name":"claimStakeRewards","inputs":[{"name":"validatorAddress","type":"address","internalType":"address"}],"outputs":[],"stateMutability":"nonpayable"},{"type":"function","name":"concludeEpoch","inputs":[{"name":"futureCommittee","type":"address[]","internalType":"address[]"}],"outputs":[],"stateMutability":"nonpayable"},{"type":"function","name":"delegateStake","inputs":[{"name":"blsPubkey","type":"bytes","internalType":"bytes"},{"name":"proofOfPossession","type":"tuple","internalType":"struct BlsG1.ProofOfPossession","components":[{"name":"uncompressedPubkey","type":"bytes","internalType":"bytes"},{"name":"uncompressedSignature","type":"bytes","internalType":"bytes"}]},{"name":"validatorAddress","type":"address","internalType":"address"},{"name":"validatorEIP712Signature","type":"bytes","internalType":"bytes"}],"outputs":[],"stateMutability":"payable"},{"type":"function","name":"delegationDigest","inputs":[{"name":"blsPubkey","type":"bytes","internalType":"bytes"},{"name":"validatorAddress","type":"address","internalType":"address"},{"name":"delegator","type":"address","internalType":"address"}],"outputs":[{"name":"","type":"bytes32","internalType":"bytes32"}],"stateMutability":"view"},{"type":"function","name":"eip712Domain","inputs":[],"outputs":[{"name":"fields","type":"bytes1","internalType":"bytes1"},{"name":"name","type":"string","internalType":"string"},{"name":"version","type":"string","internalType":"string"},{"name":"chainId","type":"uint256","internalType":"uint256"},{"name":"verifyingContract","type":"address","internalType":"address"},{"name":"salt","type":"bytes32","internalType":"bytes32"},{"name":"extensions","type":"uint256[]","internalType":"uint256[]"}],"stateMutability":"view"},{"type":"function","name":"epochInfo","inputs":[{"name":"","type":"uint256","internalType":"uint256"}],"outputs":[{"name":"epochIssuance","type":"uint256","internalType":"uint256"},{"name":"blockHeight","type":"uint64","internalType":"uint64"},{"name":"epochId","type":"uint32","internalType":"uint32"},{"name":"epochDuration","type":"uint32","internalType":"uint32"},{"name":"stakeVersion","type":"uint8","internalType":"uint8"}],"stateMutability":"view"},{"type":"function","name":"futureEpochInfo","inputs":[{"name":"","type":"uint256","internalType":"uint256"}],"outputs":[{"name":"epochIssuance","type":"uint256","internalType":"uint256"},{"name":"blockHeight","type":"uint64","internalType":"uint64"},{"name":"epochId","type":"uint32","internalType":"uint32"},{"name":"epochDuration","type":"uint32","internalType":"uint32"},{"name":"stakeVersion","type":"uint8","internalType":"uint8"}],"stateMutability":"view"},{"type":"function","name":"getApproved","inputs":[{"name":"tokenId","type":"uint256","internalType":"uint256"}],"outputs":[{"name":"","type":"address","internalType":"address"}],"stateMutability":"view"},{"type":"function","name":"getBalanceBreakdown","inputs":[{"name":"validatorAddress","type":"address","internalType":"address"}],"outputs":[{"name":"","type":"uint256","internalType":"uint256"},{"name":"","type":"uint256","internalType":"uint256"},{"name":"","type":"uint256","internalType":"uint256"}],"stateMutability":"view"},{"type":"function","name":"getCommitteeValidators","inputs":[{"name":"epoch","type":"uint32","internalType":"uint32"}],"outputs":[{"name":"","type":"tuple[]","internalType":"struct IConsensusRegistry.ValidatorInfo[]","components":[{"name":"blsPubkey","type":"bytes","internalType":"bytes"},{"name":"validatorAddress","type":"address","internalType":"address"},{"name":"activationEpoch","type":"uint32","internalType":"uint32"},{"name":"exitEpoch","type":"uint32","internalType":"uint32"},{"name":"currentStatus","type":"uint8","internalType":"enum IConsensusRegistry.ValidatorStatus"},{"name":"isRetired","type":"bool","internalType":"bool"},{"name":"stakeVersion","type":"uint8","internalType":"uint8"},{"name":"region","type":"uint8","internalType":"uint8"}]}],"stateMutability":"view"},{"type":"function","name":"getCurrentEpoch","inputs":[],"outputs":[{"name":"","type":"uint32","internalType":"uint32"}],"stateMutability":"view"},{"type":"function","name":"getCurrentEpochInfo","inputs":[],"outputs":[{"name":"","type":"tuple","internalType":"struct IConsensusRegistry.EpochInfo","components":[{"name":"committee","type":"address[]","internalType":"address[]"},{"name":"epochIssuance","type":"uint256","internalType":"uint256"},{"name":"blockHeight","type":"uint64","internalType":"uint64"},{"name":"epochId","type":"uint32","internalType":"uint32"},{"name":"epochDuration","type":"uint32","internalType":"uint32"},{"name":"stakeVersion","type":"uint8","internalType":"uint8"}]}],"stateMutability":"view"},{"type":"function","name":"getCurrentStakeConfig","inputs":[],"outputs":[{"name":"","type":"tuple","internalType":"struct IStakeManager.StakeConfig","components":[{"name":"stakeAmount","type":"uint256","internalType":"uint256"},{"name":"minWithdrawAmount","type":"uint256","internalType":"uint256"},{"name":"epochIssuance","type":"uint256","internalType":"uint256"},{"name":"epochDuration","type":"uint32","internalType":"uint32"}]}],"stateMutability":"view"},{"type":"function","name":"getCurrentStakeVersion","inputs":[],"outputs":[{"name":"","type":"uint8","internalType":"uint8"}],"stateMutability":"view"},{"type":"function","name":"getEpochInfo","inputs":[{"name":"epoch","type":"uint32","internalType":"uint32"}],"outputs":[{"name":"","type":"tuple","internalType":"struct IConsensusRegistry.EpochInfo","components":[{"name":"committee","type":"address[]","internalType":"address[]"},{"name":"epochIssuance","type":"uint256","internalType":"uint256"},{"name":"blockHeight","type":"uint64","internalType":"uint64"},{"name":"epochId","type":"uint32","internalType":"uint32"},{"name":"epochDuration","type":"uint32","internalType":"uint32"},{"name":"stakeVersion","type":"uint8","internalType":"uint8"}]}],"stateMutability":"view"},{"type":"function","name":"getNextCommitteeSize","inputs":[],"outputs":[{"name":"","type":"uint16","internalType":"uint16"}],"stateMutability":"view"},{"type":"function","name":"getRewards","inputs":[{"name":"validatorAddress","type":"address","internalType":"address"}],"outputs":[{"name":"","type":"uint256","internalType":"uint256"}],"stateMutability":"view"},{"type":"function","name":"getValidator","inputs":[{"name":"validatorAddress","type":"address","internalType":"address"}],"outputs":[{"name":"","type":"tuple","internalType":"struct IConsensusRegistry.ValidatorInfo","components":[{"name":"blsPubkey","type":"bytes","internalType":"bytes"},{"name":"validatorAddress","type":"address","internalType":"address"},{"name":"activationEpoch","type":"uint32","internalType":"uint32"},{"name":"exitEpoch","type":"uint32","internalType":"uint32"},{"name":"currentStatus","type":"uint8","internalType":"enum IConsensusRegistry.ValidatorStatus"},{"name":"isRetired","type":"bool","internalType":"bool"},{"name":"stakeVersion","type":"uint8","internalType":"uint8"},{"name":"region","type":"uint8","internalType":"uint8"}]}],"stateMutability":"view"},{"type":"function","name":"getValidators","inputs":[{"name":"status","type":"uint8","internalType":"enum IConsensusRegistry.ValidatorStatus"}],"outputs":[{"name":"","type":"tuple[]","internalType":"struct IConsensusRegistry.ValidatorInfo[]","components":[{"name":"blsPubkey","type":"bytes","internalType":"bytes"},{"name":"validatorAddress","type":"address","internalType":"address"},{"name":"activationEpoch","type":"uint32","internalType":"uint32"},{"name":"exitEpoch","type":"uint32","internalType":"uint32"},{"name":"currentStatus","type":"uint8","internalType":"enum IConsensusRegistry.ValidatorStatus"},{"name":"isRetired","type":"bool","internalType":"bool"},{"name":"stakeVersion","type":"uint8","internalType":"uint8"},{"name":"region","type":"uint8","internalType":"uint8"}]}],"stateMutability":"view"},{"type":"function","name":"isApprovedForAll","inputs":[{"name":"owner","type":"address","internalType":"address"},{"name":"operator","type":"address","internalType":"address"}],"outputs":[{"name":"","type":"bool","internalType":"bool"}],"stateMutability":"view"},{"type":"function","name":"isDelegated","inputs":[{"name":"validatorAddress","type":"address","internalType":"address"}],"outputs":[{"name":"","type":"bool","internalType":"bool"}],"stateMutability":"view"},{"type":"function","name":"isRetired","inputs":[{"name":"validatorAddress","type":"address","internalType":"address"}],"outputs":[{"name":"","type":"bool","internalType":"bool"}],"stateMutability":"view"},{"type":"function","name":"isValidator","inputs":[{"name":"blsPubkey","type":"bytes","internalType":"bytes"}],"outputs":[{"name":"","type":"bool","internalType":"bool"}],"stateMutability":"view"},{"type":"function","name":"issuance","inputs":[],"outputs":[{"name":"","type":"address","internalType":"address payable"}],"stateMutability":"view"},{"type":"function","name":"mint","inputs":[{"name":"validatorAddress","type":"address","internalType":"address"}],"outputs":[],"stateMutability":"nonpayable"},{"type":"function","name":"name","inputs":[],"outputs":[{"name":"","type":"string","internalType":"string"}],"stateMutability":"view"},{"type":"function","name":"owner","inputs":[],"outputs":[{"name":"","type":"address","internalType":"address"}],"stateMutability":"view"},{"type":"function","name":"ownerOf","inputs":[{"name":"tokenId","type":"uint256","internalType":"uint256"}],"outputs":[{"name":"","type":"address","internalType":"address"}],"stateMutability":"view"},{"type":"function","name":"pause","inputs":[],"outputs":[],"stateMutability":"nonpayable"},{"type":"function","name":"paused","inputs":[],"outputs":[{"name":"","type":"bool","internalType":"bool"}],"stateMutability":"view"},{"type":"function","name":"proofOfPossessionMessage","inputs":[{"name":"blsPubkeyUncompressed","type":"bytes","internalType":"bytes"},{"name":"validatorAddress","type":"address","internalType":"address"}],"outputs":[{"name":"","type":"bytes","internalType":"bytes"}],"stateMutability":"view"},{"type":"function","name":"renounceOwnership","inputs":[],"outputs":[],"stateMutability":"nonpayable"},{"type":"function","name":"safeTransferFrom","inputs":[{"name":"from","type":"address","internalType":"address"},{"name":"to","type":"address","internalType":"address"},{"name":"tokenId","type":"uint256","internalType":"uint256"}],"outputs":[],"stateMutability":"nonpayable"},{"type":"function","name":"safeTransferFrom","inputs":[{"name":"from","type":"address","internalType":"address"},{"name":"to","type":"address","internalType":"address"},{"name":"tokenId","type":"uint256","internalType":"uint256"},{"name":"data","type":"bytes","internalType":"bytes"}],"outputs":[],"stateMutability":"nonpayable"},{"type":"function","name":"setApprovalForAll","inputs":[{"name":"","type":"address","internalType":"address"},{"name":"","type":"bool","internalType":"bool"}],"outputs":[],"stateMutability":"nonpayable"},{"type":"function","name":"setNextCommitteeSize","inputs":[{"name":"newSize","type":"uint16","internalType":"uint16"}],"outputs":[],"stateMutability":"nonpayable"},{"type":"function","name":"setValidatorRegion","inputs":[{"name":"validatorAddress","type":"address","internalType":"address"},{"name":"region","type":"uint8","internalType":"uint8"}],"outputs":[],"stateMutability":"nonpayable"},{"type":"function","name":"stake","inputs":[{"name":"blsPubkey","type":"bytes","internalType":"bytes"},{"name":"proofOfPossession","type":"tuple","internalType":"struct BlsG1.ProofOfPossession","components":[{"name":"uncompressedPubkey","type":"bytes","internalType":"bytes"},{"name":"uncompressedSignature","type":"bytes","internalType":"bytes"}]}],"outputs":[],"stateMutability":"payable"},{"type":"function","name":"stakeConfig","inputs":[{"name":"version","type":"uint8","internalType":"uint8"}],"outputs":[{"name":"","type":"tuple","internalType":"struct IStakeManager.StakeConfig","components":[{"name":"stakeAmount","type":"uint256","internalType":"uint256"},{"name":"minWithdrawAmount","type":"uint256","internalType":"uint256"},{"name":"epochIssuance","type":"uint256","internalType":"uint256"},{"name":"epochDuration","type":"uint32","internalType":"uint32"}]}],"stateMutability":"view"},{"type":"function","name":"supportsInterface","inputs":[{"name":"interfaceId","type":"bytes4","internalType":"bytes4"}],"outputs":[{"name":"","type":"bool","internalType":"bool"}],"stateMutability":"view"},{"type":"function","name":"symbol","inputs":[],"outputs":[{"name":"","type":"string","internalType":"string"}],"stateMutability":"view"},{"type":"function","name":"tokenByIndex","inputs":[{"name":"index","type":"uint256","internalType":"uint256"}],"outputs":[{"name":"","type":"uint256","internalType":"uint256"}],"stateMutability":"view"},{"type":"function","name":"tokenOfOwnerByIndex","inputs":[{"name":"owner","type":"address","internalType":"address"},{"name":"index","type":"uint256","internalType":"uint256"}],"outputs":[{"name":"","type":"uint256","internalType":"uint256"}],"stateMutability":"view"},{"type":"function","name":"tokenURI","inputs":[{"name":"tokenId","type":"uint256","internalType":"uint256"}],"outputs":[{"name":"","type":"string","internalType":"string"}],"stateMutability":"view"},{"type":"function","name":"totalSupply","inputs":[],"outputs":[{"name":"","type":"uint256","internalType":"uint256"}],"stateMutability":"view"},{"type":"function","name":"transferFrom","inputs":[{"name":"","type":"address","internalType":"address"},{"name":"","type":"address","internalType":"address"},{"name":"","type":"uint256","internalType":"uint256"}],"outputs":[],"stateMutability":"nonpayable"},{"type":"function","name":"transferOwnership","inputs":[{"name":"newOwner","type":"address","internalType":"address"}],"outputs":[],"stateMutability":"nonpayable"},{"type":"function","name":"undistributedIssuance","inputs":[],"outputs":[{"name":"","type":"uint256","internalType":"uint256"}],"stateMutability":"view"},{"type":"function","name":"unpause","inputs":[],"outputs":[],"stateMutability":"nonpayable"},{"type":"function","name":"unstake","inputs":[{"name":"validatorAddress","type":"address","internalType":"address"}],"outputs":[],"stateMutability":"nonpayable"},{"type":"function","name":"upgradeStakeVersion","inputs":[{"name":"newConfig","type":"tuple","internalType":"struct IStakeManager.StakeConfig","components":[{"name":"stakeAmount","type":"uint256","internalType":"uint256"},{"name":"minWithdrawAmount","type":"uint256","internalType":"uint256"},{"name":"epochIssuance","type":"uint256","internalType":"uint256"},{"name":"epochDuration","type":"uint32","internalType":"uint32"}]}],"outputs":[{"name":"","type":"uint8","internalType":"uint8"}],"stateMutability":"nonpayable"},{"type":"function","name":"validators","inputs":[{"name":"","type":"address","internalType":"address"}],"outputs":[{"name":"blsPubkey","type":"bytes","internalType":"bytes"},{"name":"validatorAddress","type":"address","internalType":"address"},{"name":"activationEpoch","type":"uint32","internalType":"uint32"},{"name":"exitEpoch","type":"uint32","internalType":"uint32"},{"name":"currentStatus","type":"uint8","internalType":"enum IConsensusRegistry.ValidatorStatus"},{"name":"isRetired","type":"bool","internalType":"bool"},{"name":"stakeVersion","type":"uint8","internalType":"uint8"},{"name":"region","type":"uint8","internalType":"uint8"}],"stateMutability":"view"},{"type":"event","name":"Approval","inputs":[{"name":"owner","type":"address","indexed":true,"internalType":"address"},{"name":"approved","type":"address","indexed":true,"internalType":"address"},{"name":"tokenId","type":"uint256","indexed":true,"internalType":"uint256"}],"anonymous":false},{"type":"event","name":"ApprovalForAll","inputs":[{"name":"owner","type":"address","indexed":true,"internalType":"address"},{"name":"operator","type":"address","indexed":true,"internalType":"address"},{"name":"approved","type":"bool","indexed":false,"internalType":"bool"}],"anonymous":false},{"type":"event","name":"NewEpoch","inputs":[{"name":"epoch","type":"tuple","indexed":false,"internalType":"struct IConsensusRegistry.EpochInfo","components":[{"name":"committee","type":"address[]","internalType":"address[]"},{"name":"epochIssuance","type":"uint256","internalType":"uint256"},{"name":"blockHeight","type":"uint64","internalType":"uint64"},{"name":"epochId","type":"uint32","internalType":"uint32"},{"name":"epochDuration","type":"uint32","internalType":"uint32"},{"name":"stakeVersion","type":"uint8","internalType":"uint8"}]}],"anonymous":false},{"type":"event","name":"NextCommitteeSizeUpdated","inputs":[{"name":"oldSize","type":"uint16","indexed":false,"internalType":"uint16"},{"name":"newSize","type":"uint16","indexed":false,"internalType":"uint16"},{"name":"numActiveValidators","type":"uint256","indexed":false,"internalType":"uint256"}],"anonymous":false},{"type":"event","name":"OwnershipTransferred","inputs":[{"name":"previousOwner","type":"address","indexed":true,"internalType":"address"},{"name":"newOwner","type":"address","indexed":true,"internalType":"address"}],"anonymous":false},{"type":"event","name":"Paused","inputs":[{"name":"account","type":"address","indexed":false,"internalType":"address"}],"anonymous":false},{"type":"event","name":"RewardsClaimed","inputs":[{"name":"claimant","type":"address","indexed":true,"internalType":"address"},{"name":"rewards","type":"uint256","indexed":false,"internalType":"uint256"}],"anonymous":false},{"type":"event","name":"Transfer","inputs":[{"name":"from","type":"address","indexed":true,"internalType":"address"},{"name":"to","type":"address","indexed":true,"internalType":"address"},{"name":"tokenId","type":"uint256","indexed":true,"internalType":"uint256"}],"anonymous":false},{"type":"event","name":"Unpaused","inputs":[{"name":"account","type":"address","indexed":false,"internalType":"address"}],"anonymous":false},{"type":"event","name":"ValidatorActivated","inputs":[{"name":"validator","type":"tuple","indexed":false,"internalType":"struct IConsensusRegistry.ValidatorInfo","components":[{"name":"blsPubkey","type":"bytes","internalType":"bytes"},{"name":"validatorAddress","type":"address","internalType":"address"},{"name":"activationEpoch","type":"uint32","internalType":"uint32"},{"name":"exitEpoch","type":"uint32","internalType":"uint32"},{"name":"currentStatus","type":"uint8","internalType":"enum IConsensusRegistry.ValidatorStatus"},{"name":"isRetired","type":"bool","internalType":"bool"},{"name":"stakeVersion","type":"uint8","internalType":"uint8"},{"name":"region","type":"uint8","internalType":"uint8"}]}],"anonymous":false},{"type":"event","name":"ValidatorExited","inputs":[{"name":"validator","type":"tuple","indexed":false,"internalType":"struct IConsensusRegistry.ValidatorInfo","components":[{"name":"blsPubkey","type":"bytes","internalType":"bytes"},{"name":"validatorAddress","type":"address","internalType":"address"},{"name":"activationEpoch","type":"uint32","internalType":"uint32"},{"name":"exitEpoch","type":"uint32","internalType":"uint32"},{"name":"currentStatus","type":"uint8","internalType":"enum IConsensusRegistry.ValidatorStatus"},{"name":"isRetired","type":"bool","internalType":"bool"},{"name":"stakeVersion","type":"uint8","internalType":"uint8"},{"name":"region","type":"uint8","internalType":"uint8"}]}],"anonymous":false},{"type":"event","name":"ValidatorPendingActivation","inputs":[{"name":"validator","type":"tuple","indexed":false,"internalType":"struct IConsensusRegistry.ValidatorInfo","components":[{"name":"blsPubkey","type":"bytes","internalType":"bytes"},{"name":"validatorAddress","type":"address","internalType":"address"},{"name":"activationEpoch","type":"uint32","internalType":"uint32"},{"name":"exitEpoch","type":"uint32","internalType":"uint32"},{"name":"currentStatus","type":"uint8","internalType":"enum IConsensusRegistry.ValidatorStatus"},{"name":"isRetired","type":"bool","internalType":"bool"},{"name":"stakeVersion","type":"uint8","internalType":"uint8"},{"name":"region","type":"uint8","internalType":"uint8"}]}],"anonymous":false},{"type":"event","name":"ValidatorPendingExit","inputs":[{"name":"validator","type":"tuple","indexed":false,"internalType":"struct IConsensusRegistry.ValidatorInfo","components":[{"name":"blsPubkey","type":"bytes","internalType":"bytes"},{"name":"validatorAddress","type":"address","internalType":"address"},{"name":"activationEpoch","type":"uint32","internalType":"uint32"},{"name":"exitEpoch","type":"uint32","internalType":"uint32"},{"name":"currentStatus","type":"uint8","internalType":"enum IConsensusRegistry.ValidatorStatus"},{"name":"isRetired","type":"bool","internalType":"bool"},{"name":"stakeVersion","type":"uint8","internalType":"uint8"},{"name":"region","type":"uint8","internalType":"uint8"}]}],"anonymous":false},{"type":"event","name":"ValidatorRegionUpdated","inputs":[{"name":"validatorAddress","type":"address","indexed":true,"internalType":"address"},{"name":"region","type":"uint8","indexed":false,"internalType":"uint8"}],"anonymous":false},{"type":"event","name":"ValidatorRetired","inputs":[{"name":"validator","type":"tuple","indexed":false,"internalType":"struct IConsensusRegistry.ValidatorInfo","components":[{"name":"blsPubkey","type":"bytes","internalType":"bytes"},{"name":"validatorAddress","type":"address","internalType":"address"},{"name":"activationEpoch","type":"uint32","internalType":"uint32"},{"name":"exitEpoch","type":"uint32","internalType":"uint32"},{"name":"currentStatus","type":"uint8","internalType":"enum IConsensusRegistry.ValidatorStatus"},{"name":"isRetired","type":"bool","internalType":"bool"},{"name":"stakeVersion","type":"uint8","internalType":"uint8"},{"name":"region","type":"uint8","internalType":"uint8"}]}],"anonymous":false},{"type":"event","name":"ValidatorSlashed","inputs":[{"name":"slash","type":"tuple","indexed":false,"internalType":"struct Slash","components":[{"name":"validatorAddress","type":"address","internalType":"address"},{"name":"amount","type":"uint256","internalType":"uint256"}]}],"anonymous":false},{"type":"event","name":"ValidatorStaked","inputs":[{"name":"validator","type":"tuple","indexed":false,"internalType":"struct IConsensusRegistry.ValidatorInfo","components":[{"name":"blsPubkey","type":"bytes","internalType":"bytes"},{"name":"validatorAddress","type":"address","internalType":"address"},{"name":"activationEpoch","type":"uint32","internalType":"uint32"},{"name":"exitEpoch","type":"uint32","internalType":"uint32"},{"name":"currentStatus","type":"uint8","internalType":"enum IConsensusRegistry.ValidatorStatus"},{"name":"isRetired","type":"bool","internalType":"bool"},{"name":"stakeVersion","type":"uint8","internalType":"uint8"},{"name":"region","type":"uint8","internalType":"uint8"}]}],"anonymous":false},{"type":"error","name":"AlreadyDefined","inputs":[{"name":"validatorAddress","type":"address","internalType":"address"}]},{"type":"error","name":"CommitteeRequirement","inputs":[{"name":"validatorAddress","type":"address","internalType":"address"}]},{"type":"error","name":"DuplicateBLSPubkey","inputs":[]},{"type":"error","name":"ERC721EnumerableForbiddenBatchMint","inputs":[]},{"type":"error","name":"ERC721IncorrectOwner","inputs":[{"name":"sender","type":"address","internalType":"address"},{"name":"tokenId","type":"uint256","internalType":"uint256"},{"name":"owner","type":"address","internalType":"address"}]},{"type":"error","name":"ERC721InsufficientApproval","inputs":[{"name":"operator","type":"address","internalType":"address"},{"name":"tokenId","type":"uint256","internalType":"uint256"}]},{"type":"error","name":"ERC721InvalidApprover","inputs":[{"name":"approver","type":"address","internalType":"address"}]},{"type":"error","name":"ERC721InvalidOperator","inputs":[{"name":"operator","type":"address","internalType":"address"}]},{"type":"error","name":"ERC721InvalidOwner","inputs":[{"name":"owner","type":"address","internalType":"address"}]},{"type":"error","name":"ERC721InvalidReceiver","inputs":[{"name":"receiver","type":"address","internalType":"address"}]},{"type":"error","name":"ERC721InvalidSender","inputs":[{"name":"sender","type":"address","internalType":"address"}]},{"type":"error","name":"ERC721NonexistentToken","inputs":[{"name":"tokenId","type":"uint256","internalType":"uint256"}]},{"type":"error","name":"ERC721OutOfBoundsIndex","inputs":[{"name":"owner","type":"address","internalType":"address"},{"name":"index","type":"uint256","internalType":"uint256"}]},{"type":"error","name":"EnforcedPause","inputs":[]},{"type":"error","name":"ExpectedPause","inputs":[]},{"type":"error","name":"GenesisArityMismatch","inputs":[]},{"type":"error","name":"IneligibleUnstake","inputs":[{"name":"validator","type":"tuple","internalType":"struct IConsensusRegistry.ValidatorInfo","components":[{"name":"blsPubkey","type":"bytes","internalType":"bytes"},{"name":"validatorAddress","type":"address","internalType":"address"},{"name":"activationEpoch","type":"uint32","internalType":"uint32"},{"name":"exitEpoch","type":"uint32","internalType":"uint32"},{"name":"currentStatus","type":"uint8","internalType":"enum IConsensusRegistry.ValidatorStatus"},{"name":"isRetired","type":"bool","internalType":"bool"},{"name":"stakeVersion","type":"uint8","internalType":"uint8"},{"name":"region","type":"uint8","internalType":"uint8"}]}]},{"type":"error","name":"InsufficientRewards","inputs":[{"name":"withdrawAmount","type":"uint256","internalType":"uint256"}]},{"type":"error","name":"InvalidBLSPubkey","inputs":[]},{"type":"error","name":"InvalidCommitteeSize","inputs":[{"name":"minCommitteeSize","type":"uint256","internalType":"uint256"},{"name":"providedCommitteeSize","type":"uint256","internalType":"uint256"}]},{"type":"error","name":"InvalidDuration","inputs":[{"name":"duration","type":"uint32","internalType":"uint32"}]},{"type":"error","name":"InvalidEpoch","inputs":[{"name":"epoch","type":"uint32","internalType":"uint32"}]},{"type":"error","name":"InvalidProofOfPossession","inputs":[{"name":"proof","type":"tuple","internalType":"struct BlsG1.ProofOfPossession","components":[{"name":"uncompressedPubkey","type":"bytes","internalType":"bytes"},{"name":"uncompressedSignature","type":"bytes","internalType":"bytes"}]},{"name":"message","type":"bytes","internalType":"bytes"}]},{"type":"error","name":"InvalidStakeAmount","inputs":[{"name":"stakeAmount","type":"uint256","internalType":"uint256"}]},{"type":"error","name":"InvalidStatus","inputs":[{"name":"status","type":"uint8","internalType":"enum IConsensusRegistry.ValidatorStatus"}]},{"type":"error","name":"InvalidSupply","inputs":[]},{"type":"error","name":"InvalidTokenId","inputs":[{"name":"tokenId","type":"uint256","internalType":"uint256"}]},{"type":"error","name":"InvalidValidatorAddress","inputs":[]},{"type":"error","name":"NotRecipient","inputs":[{"name":"recipient","type":"address","internalType":"address"}]},{"type":"error","name":"NotTransferable","inputs":[]},{"type":"error","name":"NotValidator","inputs":[{"name":"validatorAddress","type":"address","internalType":"address"}]},{"type":"error","name":"OnlySystemCall","inputs":[{"name":"invalidCaller","type":"address","internalType":"address"}]},{"type":"error","name":"OwnableInvalidOwner","inputs":[{"name":"owner","type":"address","internalType":"address"}]},{"type":"error","name":"OwnableUnauthorizedAccount","inputs":[{"name":"account","type":"address","internalType":"address"}]},{"type":"error","name":"Reentrancy","inputs":[]},{"type":"error","name":"RequiresConsensusNFT","inputs":[]},{"type":"error","name":"StringsInsufficientHexLength","inputs":[{"name":"value","type":"uint256","internalType":"uint256"},{"name":"length","type":"uint256","internalType":"uint256"}]}],"bytecode":{"object":"0x610120604052348015610010575f80fd5b5060405161858438038061858483398101604081905261002f916115b7565b806040518060400160405280600c81526020016b10dbdb9cd95b9cdd5cd3919560a21b8152506040518060400160405280600481526020016310d3919560e21b8152508181815f908161008291906116f7565b50600161008f82826116f7565b505030608052504660a0526060806100ef604080518082018252601481527f54656c636f696e205374616b654d616e61676572000000000000000000000000602080830191909152825180840190935260018352603160f81b9083015291565b815160209283012081519183019190912060c082905260e0819052604080517f8b73c3c69bb8fe3d512ecc4cf759cc79239f7b179b0ffacaa9a75d522b39400f8152938401929092529082015246606082015230608082015260a09020610100525050600d805461ff001916905550506001600160a01b03811661018d57604051631e4fbdf760e01b81525f60048201526024015b60405180910390fd5b610196816107c4565b50825115806101a757508151835114155b156101c557604051633aa3e03360e01b815260040160405180910390fd5b5f808052600a602090815285517f13da86008ba1c6922daee3e07db95305ef49ebced9f5467a0b8613fcc6b343e3558501517f13da86008ba1c6922daee3e07db95305ef49ebced9f5467a0b8613fcc6b343e45560408501517f13da86008ba1c6922daee3e07db95305ef49ebced9f5467a0b8613fcc6b343e55560608501517f13da86008ba1c6922daee3e07db95305ef49ebced9f5467a0b8613fcc6b343e6805463ffffffff191663ffffffff9092169190911790558351600d805461ffff60d81b1916600160d81b61ffff909316929092029190911790555b600281116103ab575f601182600481106102bd576102bd6117b1565b600302016002810180546060890151600160401b600160801b03199091166801000000000000000063ffffffff8781169190910263ffffffff60601b1916919091176c0100000000000000000000000091909216021790556040870151600182015590505f601d8360048110610335576103356117b1565b6003020160028101805460608a0151600160401b600160801b03199091166801000000000000000063ffffffff8881169190910263ffffffff60601b1916919091176c0100000000000000000000000091909216021790556040880151600190910155506103a49050816117d9565b90506102a1565b505f5b83518110156107ba575f8482815181106103ca576103ca6117b1565b602002602001015190505f6104068584815181106103ea576103ea6117b1565b60200260200101518360200151845f015161081f60201b60201c565b60208301519091506001600160a01b03166104345760405163713ce51160e01b815260040160405180910390fd5b604082015163ffffffff161561046b576040808301519051634fadd4d360e11b815263ffffffff9091166004820152602401610184565b606082015163ffffffff16156104a2576060820151604051634fadd4d360e11b815263ffffffff9091166004820152602401610184565b6003826080015160068111156104ba576104ba6117f1565b146104de578160800151604051633ba7bf8960e11b81526004016101849190611825565b60a082015115610504576005604051633ba7bf8960e11b81526004016101849190611825565b60c082015160ff16156105355760c082015160405163222d164360e21b815260ff9091166004820152602401610184565b5f5b600281116105f35760118160048110610552576105526117b1565b6020858101516003929092029290920180546001810182555f91825292902090910180546001600160a01b0319166001600160a01b03909216919091179055601d81600481106105a4576105a46117b1565b6020858101516003929092029290920180546001810182555f91825292902090910180546001600160a01b0319166001600160a01b039092169190911790556105ec816117d9565b9050610537565b506020808301516001600160a01b03165f908152600f909152604090208251839190819061062190826116f7565b5060208201516001820180546040850151606086015163ffffffff908116600160c01b0263ffffffff60c01b1991909216600160a01b026001600160c01b03199093166001600160a01b0390951694909417919091179283168117825560808501519260ff60e01b1990911664ffffffffff60c01b1990911617600160e01b8360068111156106b2576106b26117f1565b021790555060a0820151600191909101805460c084015160e09094015161ffff60e81b19909116600160e81b9315159390930260ff60f01b191692909217600160f01b60ff94851602176001600160f81b0316600160f81b93909216929092021790558651602083810180516001600160a01b039081165f908152600b8452604080822095909555825186825260109094529390932080546001600160a01b03191692909316919091179091555161077990610774816001600160a01b031690565b610a19565b7f05ae3ae9268de1d4458eea2d3837e130c248809c169ece7257692dd0b43f346a826040516107a89190611861565b60405180910390a150506001016103ae565b5050505050611a94565b600d80546001600160a01b038381166201000081810262010000600160b01b031985161790945560405193909204169182907f8be0079c531659141344cd1fd0a4f28419497f9722a3daafe3b4186f6b6457e0905f90a35050565b5f8151606014610842576040516333a234f960e11b815260040160405180910390fd5b83515f906108509085610a7f565b855160405163a691a08b60e01b81529192505f9173__$2ef4e8110a3eaa1255da7f08f8eebcbf5a$__9163a691a08b9161088d9190600401611901565b5f60405180830381865af41580156108a7573d5f803e3d5ffd5b505050506040513d5f823e601f3d908101601f191682016040526108ce919081019061191a565b90505f73__$2ef4e8110a3eaa1255da7f08f8eebcbf5a$__633d2a9e1188602001516040518263ffffffff1660e01b815260040161090c9190611901565b5f60405180830381865af4158015610926573d5f803e3d5ffd5b505050506040513d5f823e601f3d908101601f1916820160405261094d919081019061191a565b905073__$2ef4e8110a3eaa1255da7f08f8eebcbf5a$__635779b9a38383866040518060600160405280602b8152602001618559602b91396040518563ffffffff1660e01b81526004016109a4949392919061194b565b602060405180830381865af41580156109bf573d5f803e3d5ffd5b505050506040513d601f19601f820116820180604052508101906109e39190611997565b610a04578683604051634babb8f160e01b81526004016101849291906119b0565b610a0e8587610bcd565b979650505050505050565b6001600160a01b038216610a4257604051633250574960e11b81525f6004820152602401610184565b5f610a4e838383610c3c565b90506001600160a01b03811615610a7a576040516339e3563760e11b81525f6004820152602401610184565b505050565b60605f73__$2ef4e8110a3eaa1255da7f08f8eebcbf5a$__63a691a08b856040518263ffffffff1660e01b8152600401610ab99190611901565b5f60405180830381865af4158015610ad3573d5f803e3d5ffd5b505050506040513d5f823e601f3d908101601f19168201604052610afa919081019061191a565b6040516329bd7cc960e21b815290915073__$2ef4e8110a3eaa1255da7f08f8eebcbf5a$__9063a6f5f32490610b34908490600401611901565b602060405180830381865af4158015610b4f573d5f803e3d5ffd5b505050506040513d601f19601f82011682018060405250810190610b739190611997565b610b90576040516333a234f960e11b815260040160405180910390fd5b604051610bb49061d50160d81b908690600560fa1b90606088901b90602001611a05565b6040516020818303038152906040529150505b92915050565b81516020808401919091205f81815260109092526040909120546001600160a01b031615610c0e57604051638d12779f60e01b815260040160405180910390fd5b5f81815260106020526040902080546001600160a01b0384166001600160a01b031990911617905592915050565b5f80610c49858585610d0f565b90506001600160a01b038116610ca557610ca084600880545f838152600960205260408120829055600182018355919091527ff3f7a9fe364faab93b216da50a3214154f22a0a2b415b23a84c8169e8b636ee30155565b610cc8565b846001600160a01b0316816001600160a01b031614610cc857610cc88185610e01565b6001600160a01b038516610ce457610cdf84610e7e565b610d07565b846001600160a01b0316816001600160a01b031614610d0757610d078585610f25565b949350505050565b5f828152600260205260408120546001600160a01b0390811690831615610d3b57610d3b818486610f73565b6001600160a01b03811615610d7557610d565f858180610fd7565b6001600160a01b0381165f90815260036020526040902080545f190190555b6001600160a01b03851615610da3576001600160a01b0385165f908152600360205260409020805460010190555b5f8481526002602052604080822080546001600160a01b0319166001600160a01b0389811691821790925591518793918516917fddf252ad1be2c89b69c2b068fc378daa952ba7f163c4a11628f55a4df523b3ef91a4949350505050565b5f610e0b836110f9565b5f838152600760209081526040808320546001600160a01b0388168452600690925290912091925090818314610e60575f83815260208281526040808320548584528184208190558352600790915290208290555b5f938452600760209081526040808620869055938552525081205550565b6008545f90610e8f90600190611a6d565b5f8381526009602052604081205460088054939450909284908110610eb657610eb66117b1565b905f5260205f20015490508060088381548110610ed557610ed56117b1565b5f918252602080832090910192909255828152600990915260408082208490558582528120556008805480610f0c57610f0c611a80565b600190038181905f5260205f20015f9055905550505050565b5f6001610f31846110f9565b610f3b9190611a6d565b6001600160a01b039093165f908152600660209081526040808320868452825280832085905593825260079052919091209190915550565b610f7e83838361113e565b610a7a576001600160a01b038316610fac57604051637e27328960e01b815260048101829052602401610184565b60405163177e802f60e01b81526001600160a01b038316600482015260248101829052604401610184565b8080610feb57506001600160a01b03821615155b156110ca575f610ffa846111be565b90506001600160a01b038316158015906110265750826001600160a01b0316816001600160a01b031614155b801561105757506001600160a01b038082165f9081526005602090815260408083209387168352929052205460ff16155b156110805760405163a9fbf51f60e01b81526001600160a01b0384166004820152602401610184565b81156110c85783856001600160a01b0316826001600160a01b03167f8c5be1e5ebec7d5bd14f71427d1e84f3dd0314c0f7b2291e5b200ac8c7c3b92560405160405180910390a45b505b50505f90815260046020526040902080546001600160a01b0319166001600160a01b0392909216919091179055565b5f6001600160a01b038216611123576040516322718ad960e21b81525f6004820152602401610184565b506001600160a01b03165f9081526003602052604090205490565b5f6001600160a01b03831615801590610d075750826001600160a01b0316846001600160a01b0316148061119657506001600160a01b038085165f9081526005602090815260408083209387168352929052205460ff165b80610d075750505f908152600460205260409020546001600160a01b03908116911614919050565b5f818152600260205260408120546001600160a01b031680610bc757604051637e27328960e01b815260048101849052602401610184565b634e487b7160e01b5f52604160045260245ffd5b60405161010081016001600160401b038111828210171561122d5761122d6111f6565b60405290565b604080519081016001600160401b038111828210171561122d5761122d6111f6565b604051608081016001600160401b038111828210171561122d5761122d6111f6565b604051601f8201601f191681016001600160401b038111828210171561129f5761129f6111f6565b604052919050565b805163ffffffff811681146112ba575f80fd5b919050565b5f6001600160401b038211156112d7576112d76111f6565b5060051b60200190565b5f82601f8301126112f0575f80fd5b81516001600160401b03811115611309576113096111f6565b61131c601f8201601f1916602001611277565b818152846020838601011115611330575f80fd5b8160208501602083015e5f918101602001919091529392505050565b80516001600160a01b03811681146112ba575f80fd5b8051600781106112ba575f80fd5b805180151581146112ba575f80fd5b805160ff811681146112ba575f80fd5b5f82601f83011261139e575f80fd5b81516113b16113ac826112bf565b611277565b8082825260208201915060208360051b8601019250858311156113d2575f80fd5b602085015b838110156114c35780516001600160401b038111156113f4575f80fd5b8601610100818903601f1901121561140a575f80fd5b61141261120a565b60208201516001600160401b0381111561142a575f80fd5b6114398a6020838601016112e1565b8252506114486040830161134c565b6020820152611459606083016112a7565b604082015261146a608083016112a7565b606082015261147b60a08301611362565b608082015261148c60c08301611370565b60a082015261149d60e0830161137f565b60c08201526114af610100830161137f565b60e0820152845250602092830192016113d7565b5095945050505050565b5f82601f8301126114dc575f80fd5b81516114ea6113ac826112bf565b8082825260208201915060208360051b86010192508583111561150b575f80fd5b602085015b838110156114c35780516001600160401b0381111561152d575f80fd5b86016040818903601f19011215611542575f80fd5b61154a611233565b60208201516001600160401b03811115611562575f80fd5b6115718a6020838601016112e1565b82525060408201516001600160401b0381111561158c575f80fd5b61159b8a6020838601016112e1565b6020830152508085525050602083019250602081019050611510565b5f805f8084860360e08112156115cb575f80fd5b60808112156115d8575f80fd5b506115e1611255565b855181526020808701519082015260408087015190820152611605606087016112a7565b606082015260808601519094506001600160401b03811115611625575f80fd5b6116318782880161138f565b60a087015190945090506001600160401b0381111561164e575f80fd5b61165a878288016114cd565b92505061166960c0860161134c565b905092959194509250565b600181811c9082168061168857607f821691505b6020821081036116a657634e487b7160e01b5f52602260045260245ffd5b50919050565b601f821115610a7a57805f5260205f20601f840160051c810160208510156116d15750805b601f840160051c820191505b818110156116f0575f81556001016116dd565b5050505050565b81516001600160401b03811115611710576117106111f6565b6117248161171e8454611674565b846116ac565b6020601f821160018114611756575f831561173f5750848201515b5f19600385901b1c1916600184901b1784556116f0565b5f84815260208120601f198516915b828110156117855787850151825560209485019460019092019101611765565b50848210156117a257868401515f19600387901b60f8161c191681555b50505050600190811b01905550565b634e487b7160e01b5f52603260045260245ffd5b634e487b7160e01b5f52601160045260245ffd5b5f600182016117ea576117ea6117c5565b5060010190565b634e487b7160e01b5f52602160045260245ffd5b6007811061182157634e487b7160e01b5f52602160045260245ffd5b9052565b60208101610bc78284611805565b5f81518084528060208401602086015e5f602082860101526020601f19601f83011685010191505092915050565b602081525f8251610100602084015261187e610120840182611833565b905060018060a01b03602085015116604084015263ffffffff604085015116606084015260608401516118b9608085018263ffffffff169052565b5060808401516118cc60a0850182611805565b5060a084015180151560c08501525060c084015160ff811660e08501525060e084015160ff8116610100850152509392505050565b602081525f6119136020830184611833565b9392505050565b5f6020828403121561192a575f80fd5b81516001600160401b0381111561193f575f80fd5b610d07848285016112e1565b608081525f61195d6080830187611833565b828103602084015261196f8187611833565b905082810360408401526119838186611833565b90508281036060840152610a0e8185611833565b5f602082840312156119a7575f80fd5b61191382611370565b604081525f83516040808401526119ca6080840182611833565b90506020850151603f198483030160608501526119e78282611833565b91505082810360208401526119fc8185611833565b95945050505050565b6001600160d81b03198516815283515f908060208701600585015e7fff00000000000000000000000000000000000000000000000000000000000000949094169190930160058101919091526001600160601b0319919091166006820152601a019392505050565b81810381811115610bc757610bc76117c5565b634e487b7160e01b5f52603160045260245ffd5b60805160a05160c05160e05161010051616a88611ad15f395f613dce01525f613e8801525f613e6201525f613e1201525f613def0152616a885ff3fe608060405260043610610391575f3560e01c80636a926591116101de578063a0201be511610108578063c87b56dd1161009d578063f06247681161006d578063f062476814610b1c578063f2888dbb14610b3b578063f2fde38b14610b5a578063fa52c7d814610b79575f80fd5b8063c87b56dd14610a92578063e3716d0414610ab1578063e985e9c514610ad0578063eb8535c214610aef575f80fd5b8063b88d4fde116100d8578063b88d4fde14610a0f578063b97dd9e214610a2e578063babc394f14610a5f578063c05df7ac14610a73575f80fd5b8063a0201be5146109a4578063a22cb465146109c3578063a71954ec146109dd578063b5184324146109fc575f80fd5b80638456cb591161017e5780638bb43f3a1161014e5780638bb43f3a1461092e5780638cc05eda146109415780638da5cb5b1461096d57806395d89b4114610990575f80fd5b80638456cb59146108ad57806384b0196e146108c1578063863623bb146108e857806389afcb441461090f575f80fd5b8063715018a6116101b9578063715018a61461080e57806379ee54f7146108225780637b55a300146108415780637d06fdf814610860575f80fd5b80636a926591146107b15780636d3c6275146107d057806370a08231146107ef575f80fd5b80633434735f116102bf5780634f6ccce71161025f5780636352211e1161022f5780636352211e1461072e578063673983311461074d5780636850eb31146107735780636a62784214610792575f80fd5b80634f6ccce7146106b557806359ca93b6146106d45780635c975abb146106f357806362fcde4b1461070f575f80fd5b80633894228e1161029a5780633894228e146105eb5780633e28391d146106465780633f4ba83a1461068257806342842e0e14610696575f80fd5b80633434735f1461059d578063355811a7146105b7578063374ed18c146105bf575f80fd5b80630f15f4c0116103355780632228dfa0116103055780632228dfa01461053157806323b872dd146105455780632b9f49851461055f5780632f745c591461057e575f80fd5b80630f15f4c0146104a357806315b5709a146104b757806318160ddd146104f15780631904bb2e14610505575f80fd5b806306fdde031161037057806306fdde031461040d578063081812fc1461042e578063095ea7b3146104655780630a36cdef14610484575f80fd5b80628d6acd1461039557806301ffc9a7146103bd57806302ae337b146103ec575b5f80fd5b3480156103a0575f80fd5b506103aa600e5481565b6040519081526020015b60405180910390f35b3480156103c8575f80fd5b506103dc6103d736600461533c565b610bac565b60405190151581526020016103b4565b3480156103f7575f80fd5b5061040b61040636600461539e565b610bd6565b005b348015610418575f80fd5b50610421610d2c565b6040516103b4919061540a565b348015610439575f80fd5b5061044d61044836600461541c565b610dbb565b6040516001600160a01b0390911681526020016103b4565b348015610470575f80fd5b5061040b61047f366004615449565b610de2565b34801561048f575f80fd5b5061040b61049e36600461539e565b610dfb565b3480156104ae575f80fd5b5061040b61104d565b3480156104c2575f80fd5b506104d66104d1366004615471565b611096565b604080519384526020840192909252908201526060016103b4565b3480156104fc575f80fd5b506008546103aa565b348015610510575f80fd5b5061052461051f366004615471565b6110ff565b6040516103b49190615560565b34801561053c575f80fd5b5061040b61127d565b348015610550575f80fd5b5061040b61047f366004615572565b34801561056a575f80fd5b5061040b610579366004615471565b611342565b348015610589575f80fd5b506103aa610598366004615449565b61145d565b3480156105a8575f80fd5b5061044d6002600160a01b0381565b61040b6114c0565b3480156105ca575f80fd5b506105de6105d93660046155bd565b611568565b6040516103b491906155d8565b3480156105f6575f80fd5b5061060a61060536600461541c565b611707565b604080519586526001600160401b03909416602086015263ffffffff9283169385019390935216606083015260ff16608082015260a0016103b4565b348015610651575f80fd5b506103dc610660366004615471565b6001600160a01b039081165f908152600c602052604090206002015416151590565b34801561068d575f80fd5b5061040b61175b565b3480156106a1575f80fd5b5061040b6106b0366004615572565b61176d565b3480156106c0575f80fd5b506103aa6106cf36600461541c565b611787565b3480156106df575f80fd5b5061060a6106ee36600461541c565b6117dc565b3480156106fe575f80fd5b50600d54610100900460ff166103dc565b34801561071a575f80fd5b5061040b61072936600461568f565b6117eb565b348015610739575f80fd5b5061044d61074836600461541c565b6118f7565b348015610758575f80fd5b50610761611901565b60405160ff90911681526020016103b4565b34801561077e575f80fd5b5061042161078d36600461576c565b611913565b34801561079d575f80fd5b5061040b6107ac366004615471565b611a60565b3480156107bc575f80fd5b506103dc6107cb3660046157f3565b611abe565b3480156107db575f80fd5b506103dc6107ea366004615471565b611b36565b3480156107fa575f80fd5b506103aa610809366004615471565b611bc0565b348015610819575f80fd5b5061040b611c05565b34801561082d575f80fd5b506103aa61083c366004615471565b611c16565b34801561084c575f80fd5b5061040b61085b366004615825565b611c5b565b34801561086b575f80fd5b50610874611dd1565b6040516103b4919081518152602080830151908201526040808301519082015260609182015163ffffffff169181019190915260800190565b3480156108b8575f80fd5b5061040b611e4e565b3480156108cc575f80fd5b506108d5611e5e565b6040516103b49796959493929190615894565b3480156108f3575f80fd5b5061044d7307a07a07a07a07a07a07a07a07a07a07a07a07a081565b34801561091a575f80fd5b5061040b610929366004615471565b611ec5565b61040b61093c3660046159b7565b611f78565b34801561094c575f80fd5b5061096061095b366004615a5e565b6121ea565b6040516103b49190615a7c565b348015610978575f80fd5b50600d546201000090046001600160a01b031661044d565b34801561099b575f80fd5b50610421612228565b3480156109af575f80fd5b506109606109be3660046155bd565b612237565b3480156109ce575f80fd5b5061040b61047f366004615aec565b3480156109e8575f80fd5b506108746109f7366004615b31565b6122f8565b61040b610a0a366004615b4a565b612372565b348015610a1a575f80fd5b5061040b610a29366004615bb1565b6123ff565b348015610a39575f80fd5b50600d54600160b01b900463ffffffff1660405163ffffffff90911681526020016103b4565b348015610a6a575f80fd5b506105de612417565b348015610a7e575f80fd5b50610761610a8d366004615c14565b612524565b348015610a9d575f80fd5b50610421610aac36600461541c565b6125da565b348015610abc575f80fd5b506103aa610acb366004615c2d565b61264a565b348015610adb575f80fd5b506103dc610aea366004615c86565b612704565b348015610afa575f80fd5b50600d54600160d81b900461ffff1660405161ffff90911681526020016103b4565b348015610b27575f80fd5b5061040b610b36366004615cae565b612731565b348015610b46575f80fd5b5061040b610b55366004615471565b6127b3565b348015610b65575f80fd5b5061040b610b74366004615471565b6128d6565b348015610b84575f80fd5b50610b98610b93366004615471565b612910565b6040516103b4989796959493929190615cd6565b5f6001600160e01b0319821663780e9d6360e01b1480610bd05750610bd0826129fe565b92915050565b336002600160a01b0314610c0457604051637eb3357160e01b81523360048201526024015b60405180910390fd5b5f5b81811015610d275736838383818110610c2157610c21615d3f565b604002919091019150610c3c90506107ea6020830183615471565b15610c475750610d1f565b60208101803590600b905f90610c5d9085615471565b6001600160a01b03166001600160a01b031681526020019081526020015f20541115610cd15760208101803590600b905f90610c999085615471565b6001600160a01b03166001600160a01b031681526020019081526020015f205f828254610cc69190615d67565b90915550610ce69050565b610ce6610ce16020830183615471565b612a4d565b7f11a09f9b32440d896abff7453bf53f8b26ffcb18dae4dca227f7a76e2acc3a6481604051610d159190615d7a565b60405180910390a1505b600101610c06565b505050565b60605f8054610d3a90615da3565b80601f0160208091040260200160405190810160405280929190818152602001828054610d6690615da3565b8015610db15780601f10610d8857610100808354040283529160200191610db1565b820191905f5260205f20905b815481529060010190602001808311610d9457829003601f168201915b5050505050905090565b5f610dc582612bc1565b505f828152600460205260409020546001600160a01b0316610bd0565b60405163dc8d8db760e01b815260040160405180910390fd5b336002600160a01b0314610e2457604051637eb3357160e01b8152336004820152602401610bfb565b5f80826001600160401b03811115610e3e57610e3e6156b0565b604051908082528060200260200182016040528015610e67578160200160208202803683370190505b5090505f5b83811015610f4e5736858583818110610e8757610e87615d3f565b905060400201905080602001355f03610ea05750610f46565b610eb06107ea6020830183615471565b15610ebb5750610f46565b5f600f81610ecc6020850185615471565b6001600160a01b0316815260208082019290925260409081015f90812060010154600160f01b900460ff16808252600a8452918120549193509091610f149085013583615ddb565b9050610f208188615df2565b965080868681518110610f3557610f35615d3f565b602002602001018181525050505050505b600101610e6c565b50815f03610f5c5750505050565b5f610f65612417565b6020015190505f600e5482610f7a9190615df2565b90505f805b86811015611035575f86868381518110610f9b57610f9b615d3f565b602002602001015185610fae9190615ddb565b610fb89190615e19565b9050801561102c5780600b5f8b8b86818110610fd657610fd6615d3f565b610fec9260206040909202019081019150615471565b6001600160a01b03166001600160a01b031681526020019081526020015f205f8282546110199190615df2565b9091555061102990508184615df2565b92505b50600101610f7f565b506110408183615d67565b600e5550505050505b5050565b611055612bf9565b61105e33612c22565b5061106a336001612c90565b335f908152600f60205260409020600d54611093908290600160b01b900463ffffffff16612cf9565b50565b6001600160a01b0381165f908152600f6020908152604080832060010154600160f01b900460ff16808452600a90925282205482918291826110d88783612d79565b6001600160a01b03979097165f908152600b60205260409020549791969550909350505050565b61110761526d565b6001600160a01b0382165f908152600f602052604090206001810154600160e81b900460ff1661113c5761113a83612c22565b505b80604051806101000160405290815f8201805461115890615da3565b80601f016020809104026020016040519081016040528092919081815260200182805461118490615da3565b80156111cf5780601f106111a6576101008083540402835291602001916111cf565b820191905f5260205f20905b8154815290600101906020018083116111b257829003601f168201915b505050918352505060018201546001600160a01b038116602083015263ffffffff600160a01b820481166040840152600160c01b820416606083015260809091019060ff600160e01b90910416600681111561122d5761122d61548a565b600681111561123e5761123e61548a565b81526001919091015460ff600160e81b8204811615156020840152600160f01b820481166040840152600160f81b909104166060909101529392505050565b611285612bf9565b61128e33612c22565b505f61129a6003612db2565b51600d549091505f90601190600160d01b900460ff16600481106112c0576112c0615d3f565b600302015490506112d18282613060565b6112dc336003612c90565b335f908152600f60205260409020600d54600182015463ffffffff600160b01b909204821691600160a01b9091041681101561133357604051634fadd4d360e11b815263ffffffff82166004820152602401610bfb565b61133c8261309d565b50505050565b61134a612bf9565b3068929eee149b4bd2126854036113685763ab143c065f526004601cfd5b3068929eee149b4bd212685561137d81612c22565b506001600160a01b0381165f908152600f6020526040812060010154600160f01b900460ff16906113ad836130f5565b9050336001600160a01b038416148015906113d15750336001600160a01b03821614155b156113fa5760405163172b4e7560e11b81526001600160a01b0382166004820152602401610bfb565b5f611406848385613124565b9050816001600160a01b03167ffc30cddea38e2bf4d6ea7d3f9ed3b6ad7f176419f4963bd81318067a4aee73fe8260405161144391815260200190565b60405180910390a25050503868929eee149b4bd212685550565b5f61146783611bc0565b82106114985760405163295f44f760e21b81526001600160a01b038416600482015260248101839052604401610bfb565b506001600160a01b03919091165f908152600660209081526040808320938352929052205490565b6114c86131d9565b6040515f907307a07a07a07a07a07a07a07a07a07a07a07a07a09034908381818185875af1925050503d805f811461151b576040519150601f19603f3d011682016040523d82523d5f602084013e611520565b606091505b50509050806110935760405162461bcd60e51b815260206004820152601460248201527324b6b837b9b9b4b136329031b7b73234ba34b7b760611b6044820152606401610bfb565b6040805160c08101825260608082525f6020830181905292820183905281018290526080810182905260a0810191909152600d54600160b01b900463ffffffff166115b4816002615e2c565b63ffffffff168363ffffffff1611806115f4575060038163ffffffff16101580156115f457506115e5600382615e48565b63ffffffff168363ffffffff16105b1561161a57604051634fadd4d360e11b815263ffffffff84166004820152602401610bfb565b600d54600160d01b900460ff1663ffffffff82811690851611156116fc5761164384838361320d565b60408051825460e0602082028301810190935260c08201818152919392849291849184018282801561169c57602002820191905f5260205f20905b81546001600160a01b0316815260019091019060200180831161167e575b5050509183525050600182015460208201526002909101546001600160401b038116604083015263ffffffff600160401b820481166060840152600160601b820416608083015260ff600160801b9091041660a090910152949350505050565b611643848383613297565b60118160048110611716575f80fd5b6003020160018101546002909101549091506001600160401b03811690600160401b810463ffffffff90811691600160601b810490911690600160801b900460ff1685565b6117636131d9565b61176b613338565b565b610d2783838360405180602001604052805f8152506123ff565b5f61179160085490565b82106117b95760405163295f44f760e21b81525f600482015260248101839052604401610bfb565b600882815481106117cc576117cc615d3f565b905f5260205f2001549050919050565b601d8160048110611716575f80fd5b6117f36131d9565b8061ffff165f0361184657600d54601190600160d01b900460ff166004811061181e5761181e615d3f565b6003020154604051635700689f60e11b815260048101919091525f6024820152604401610bfb565b5f6118516003612db2565b905080518261ffff161115611889578051604051635700689f60e11b8152600481019190915261ffff83166024820152604401610bfb565b600d805461ffff848116600160d81b81810261ffff60d81b1985161790945584516040805195909404909216808552602085019190915291830152907f74cf7ca84b30b723e8b6e3cc569ec2db21f4ba2fcc09d651e5ce6770b91552f99060600160405180910390a1505050565b5f610bd082612bc1565b5f61190a612417565b60a00151905090565b60605f73__$2ef4e8110a3eaa1255da7f08f8eebcbf5a$__63a691a08b856040518263ffffffff1660e01b815260040161194d919061540a565b5f60405180830381865af4158015611967573d5f803e3d5ffd5b505050506040513d5f823e601f3d908101601f1916820160405261198e9190810190615e64565b6040516329bd7cc960e21b815290915073__$2ef4e8110a3eaa1255da7f08f8eebcbf5a$__9063a6f5f324906119c890849060040161540a565b602060405180830381865af41580156119e3573d5f803e3d5ffd5b505050506040513d601f19601f82011682018060405250810190611a079190615ed8565b611a24576040516333a234f960e11b815260040160405180910390fd5b604051611a489061d50160d81b908690600560fa1b90606088901b90602001615f0a565b60405160208183030381529060405291505092915050565b611a686131d9565b611a7181611bc0565b151580611a825750611a8281611b36565b15611aab57604051639fb0877960e01b81526001600160a01b0382166004820152602401610bfb565b611093816001600160a01b03811661338b565b5f60608214611ace57505f610bd0565b5f8383604051611adf929190615f53565b60408051918290039091205f818152601060205291909120549091506001600160a01b031680611b13575f92505050610bd0565b611b1c81611b36565b15611b2b575f92505050610bd0565b506001949350505050565b5f611b496001600160a01b0383166133ec565b15611b5557505f919050565b5f6001600160a01b0383165f908152600f6020526040902060010154600160e01b900460ff166006811115611b8c57611b8c61548a565b03611b9857505f919050565b506001600160a01b03165f908152600f6020526040902060010154600160e81b900460ff1690565b5f6001600160a01b038216611bea576040516322718ad960e21b81525f6004820152602401610bfb565b506001600160a01b03165f9081526003602052604090205490565b611c0d6131d9565b61176b5f61343f565b6001600160a01b0381165f908152600f6020908152604080832060010154600160f01b900460ff16808452600a909252822054611c538482612d79565b949350505050565b336002600160a01b0314611c8457604051637eb3357160e01b8152336004820152602401610bfb565b611c8e828261349a565b600d54600160d81b900461ffff168114611cd257600d54604051635700689f60e11b8152600160d81b90910461ffff16600482015260248101829052604401610bfb565b5f805f80611d118686808060200260200160405190810160405280939291908181526020018383602002808284375f9201919091525061357192505050565b9350935093509350611d24868686613896565b5f611d2f6003612db2565b8051909150611d3e9087613060565b7fd1a5032a9ae65ebe520eba7974025750af3d884b6ab6047dad04dcf7006ab3856040518060c00160405280848152602001868152602001436001611d839190615df2565b6001600160401b0316815263ffffffff80891660208301528616604080830191909152600d5460ff1660609092019190915251611dc091906155d8565b60405180910390a150505050505050565b611dfe60405180608001604052805f81526020015f81526020015f81526020015f63ffffffff1681525090565b50600d5460ff165f908152600a602090815260409182902082516080810184528154815260018201549281019290925260028101549282019290925260039091015463ffffffff16606082015290565b611e566131d9565b61176b613ada565b600f60f81b6060805f808083611eb360408051808201825260148152732a32b631b7b4b71029ba30b5b2a6b0b730b3b2b960611b602080830191909152825180840190935260018352603160f81b9083015291565b97989097965046955030945091925090565b611ecd6131d9565b611ed681611b36565b15611ef7576006604051633ba7bf8960e11b8152600401610bfb9190615f62565b611f0081612c22565b505f6001600160a01b0382165f908152600f6020526040902060010154600160e01b900460ff166006811115611f3857611f3861548a565b03611f6f576001600160a01b0381165f908152600f60205260409020611f5d90613b19565b6110936001600160a01b038216613b5f565b61109381612a4d565b611f80612bf9565b5f611fc1858589898080601f0160208091040260200160405190810160405280939291908181526020018383808284375f92019190915250613b9792505050565b90505f611fcc612417565b60a0015190505f611fdd3483613d91565b9050611fe886612c22565b50611ff3865f612c90565b6001600160a01b0386165f908152600c60205260409020600201546001600160401b03600160a81b90910416612038600d546001600160a01b03620100009091041690565b6001600160a01b0316336001600160a01b0316146120e7575f7f9a361e91fa9aa610b5edf1d5c1cc20b9646c4228f3c004354ed2de7635dac994858933878660405160200161208c96959493929190615f70565b6040516020818303038152906040528051906020012090505f6120ae82613dcc565b90506120bc89828a8a613ee2565b6120e457604051633b4f6e2b60e21b81526001600160a01b038a166004820152602401610bfb565b50505b6040518060a00160405280858152602001886001600160a01b03168152602001336001600160a01b031681526020018460ff16815260200182600161212c9190615fae565b6001600160401b039081169091526001600160a01b038981165f908152600c602090815260409182902085518155908501516001820180546001600160a01b03191691851691909117905590840151600290910180546060860151608090960151929093166001600160a81b031990931692909217600160a01b60ff909516949094029390931767ffffffffffffffff60a81b1916600160a81b93909216929092021790556121de8a8a898686613fb5565b50505050505050505050565b60605f8260068111156121ff576121ff61548a565b0361221f5781604051633ba7bf8960e11b8152600401610bfb9190615f62565b610bd082612db2565b606060018054610d3a90615da3565b60605f61224383611568565b5f015190505f81516001600160401b03811115612262576122626156b0565b60405190808252806020026020018201604052801561229b57816020015b61228861526d565b8152602001906001900390816122805790505b5090505f5b81518110156122f0576122cb8382815181106122be576122be615d3f565b60200260200101516110ff565b8282815181106122dd576122dd615d3f565b60209081029190910101526001016122a0565b509392505050565b61232560405180608001604052805f81526020015f81526020015f81526020015f63ffffffff1681525090565b5060ff165f908152600a602090815260409182902082516080810184528154815260018201549281019290925260028101549282019290925260039091015463ffffffff16606082015290565b61237a612bf9565b6123ba813385858080601f0160208091040260200160405190810160405280939291908181526020018383808284375f92019190915250613b9792505050565b505f6123c4612417565b60a0015190505f6123d53483613d91565b90506123e033612c22565b506123eb335f612c90565b6123f88585338585613fb5565b5050505050565b61240a848484610de2565b61133c33858585856141aa565b6040805160c08101825260608082525f6020830181905292820183905281018290526080810182905260a0810191909152600d5461246e90600160b01b810463ffffffff16908190600160d01b900460ff16613297565b60408051825460e0602082028301810190935260c0820181815291939284929184918401828280156124c757602002820191905f5260205f20905b81546001600160a01b031681526001909101906020018083116124a9575b5050509183525050600182015460208201526002909101546001600160401b038116604083015263ffffffff600160401b820481166060840152600160601b820416608083015260ff600160801b9091041660a090910152919050565b5f61252d6131d9565b612535612bf9565b61254560808301606084016155bd565b63ffffffff165f036125835761256160808301606084016155bd565b604051630c6e911360e41b815263ffffffff9091166004820152602401610bfb565b600d80545f919082906125989060ff16615fcd565b825460ff8083166101009490940a848102910219909116179092555f908152600a6020526040902090915083906125cf8282615feb565b50909150505b919050565b60606125e582612bc1565b505f6126206125f3846142d1565b6125fb61437f565b60405160200161260c92919061602e565b6040516020818303038152906040526143c9565b905080604051602001612633919061611d565b604051602081830303815290604052915050919050565b5f61265483612c22565b505f61265e612417565b60a001516001600160a01b0385165f908152600c602090815260408083206002015489518a8401209151949550600160a81b90046001600160401b0316939092916126d5917f9a361e91fa9aa610b5edf1d5c1cc20b9646c4228f3c004354ed2de7635dac9949185918b918b918a918a9101615f70565b6040516020818303038152906040528051906020012090506126f681613dcc565b9450505050505b9392505050565b6001600160a01b039182165f90815260056020908152604080832093909416825291909152205460ff1690565b6127396131d9565b61274282612c22565b506001600160a01b0382165f818152600f602090815260409182902060010180546001600160f81b0316600160f81b60ff87169081029190911790915591519182527ffa96cc66d1772e5646f86e374867e4e32b5b448b2aadb331568e34c2d063e455910160405180910390a25050565b6127bb612bf9565b3068929eee149b4bd2126854036127d95763ab143c065f526004601cfd5b3068929eee149b4bd21268556127ee81612c22565b505f6127f9826130f5565b9050336001600160a01b0383161480159061281d5750336001600160a01b03821614155b156128465760405163172b4e7560e11b81526001600160a01b0382166004820152602401610bfb565b6001600160a01b0382165f908152600f60205260409020612866816143ef565b612885578060405163d971543960e01b8152600401610bfb91906161cd565b61288e81613b19565b5f612899848461448f565b9050826001600160a01b03167ffc30cddea38e2bf4d6ea7d3f9ed3b6ad7f176419f4963bd81318067a4aee73fe8260405161144391815260200190565b6128de6131d9565b6001600160a01b03811661290757604051631e4fbdf760e01b81525f6004820152602401610bfb565b6110938161343f565b600f6020525f908152604090208054819061292a90615da3565b80601f016020809104026020016040519081016040528092919081815260200182805461295690615da3565b80156129a15780601f10612978576101008083540402835291602001916129a1565b820191905f5260205f20905b81548152906001019060200180831161298457829003601f168201915b505050600190930154919250506001600160a01b0381169063ffffffff600160a01b8204811691600160c01b81049091169060ff600160e01b8204811691600160e81b8104821691600160f01b8204811691600160f81b90041688565b5f6001600160e01b031982166380ac58cd60e01b1480612a2e57506001600160e01b03198216635b5e139f60e01b145b80610bd057506301ffc9a760e01b6001600160e01b0319831614610bd0565b6001600160a01b0381165f908152600f6020526040812060018101549091600160e01b90910460ff1690612a816003612db2565b519050612a8d826145f3565b15612aa057612a9d600182615d67565b90505b612aaa8482614646565b5f80612ab586611096565b506001600160a01b0388165f908152600b602052604081208190559193509150818310612ae25781612ae4565b825b6040519091505f907307a07a07a07a07a07a07a07a07a07a07a07a07a09083908381818185875af1925050503d805f8114612b3a576040519150601f19603f3d011682016040523d82523d5f602084013e612b3f565b606091505b5050905080612b875760405162461bcd60e51b815260206004820152601460248201527324b6b837b9b9b4b136329031b7b73234ba34b7b760611b6044820152606401610bfb565b600d54612ba2908890600160b01b900463ffffffff16614787565b612bab87613b19565b5f612bb5896130f5565b90506121de898261448f565b5f818152600260205260408120546001600160a01b031680610bd057604051637e27328960e01b815260048101849052602401610bfb565b600d54610100900460ff161561176b5760405163d93c066560e01b815260040160405180910390fd5b5f6001600160a01b038216612c36816133ec565b612c565760405163ed15e6cf60e01b815260048101829052602401610bfb565b826001600160a01b0316612c69826118f7565b6001600160a01b031614610bd0576040516330fa89ab60e11b815260040160405180910390fd5b6001600160a01b0382165f908152600f6020526040902060010154600160e01b900460ff16816006811115612cc757612cc761548a565b816006811115612cd957612cd961548a565b14610d275780604051633ba7bf8960e11b8152600401610bfb9190615f62565b612d04816001615e2c565b60018301805463ffffffff92909216600160a01b0260ff60e01b191668ff00000000ffffffff60a01b1990921691909117600160e11b1790556040517f6e668e3909349b32ae68d82cfc1f802ec8dba83a8fe346c109a2eb64bf7c5f4e90612d6d9084906161cd565b60405180910390a15050565b6001600160a01b0382165f908152600b602052604081205481838211612d9f575f612da9565b612da98483615d67565b95945050505050565b60605f612dbe60085490565b6001600160401b03811115612dd557612dd56156b0565b604051908082528060200260200182016040528015612e0e57816020015b612dfb61526d565b815260200190600190039081612df35790505b5090505f805b8251811015613057575f612e2d612e2a83611787565b90565b6001600160a01b0381165f908152600f60205260409020600181015491925090600160e81b900460ff1615612e6357505061304f565b5f6006886006811115612e7857612e7861548a565b14905080612ee2576001820154600160e01b900460ff166003896006811115612ea357612ea361548a565b03612eb857612eb1816145f3565b9150612ee0565b886006811115612eca57612eca61548a565b816006811115612edc57612edc61548a565b1491505b505b801561304b5781604051806101000160405290815f82018054612f0490615da3565b80601f0160208091040260200160405190810160405280929190818152602001828054612f3090615da3565b8015612f7b5780601f10612f5257610100808354040283529160200191612f7b565b820191905f5260205f20905b815481529060010190602001808311612f5e57829003601f168201915b505050918352505060018201546001600160a01b038116602083015263ffffffff600160a01b820481166040840152600160c01b820416606083015260809091019060ff600160e01b909104166006811115612fd957612fd961548a565b6006811115612fea57612fea61548a565b81526001919091015460ff600160e81b8204811615156020840152600160f01b820481166040840152600160f81b90910416606090910152868661302d81616260565b97508151811061303f5761303f615d3f565b60200260200101819052505b5050505b600101612e14565b50815292915050565b81158061306b575080155b8061307557508181115b1561104957604051635700689f60e11b81526004810183905260248101829052604401610bfb565b60018101805464ffffffffff60c01b19166404ffffffff60c01b1790556040517f9efeb0beb9e1b3c6af9b3f19619b6541c7cb5c7ea2cb51c77696a4cddaf093ee906130ea9083906161cd565b60405180910390a150565b6001600160a01b038082165f908152600c6020526040812060028101549192909116806126fd57509192915050565b5f8061313085846147e0565b6001600160a01b0386165f908152600b602052604081208054929350839290919061315c908490615d67565b9091555050604051634875485760e11b81526001600160a01b0385166004820152602481018290527307a07a07a07a07a07a07a07a07a07a07a07a07a0906390ea90ae906044015f604051808303815f87803b1580156131ba575f80fd5b505af11580156131cc573d5f803e3d5ffd5b5092979650505050505050565b600d546001600160a01b036201000090910416331461176b5760405163118cdaa760e01b8152336004820152602401610bfb565b5f8060048361321c8688615e48565b6132269190616278565b6132309190616291565b90505f601d8260ff166004811061324957613249615d3f565b6003020190508563ffffffff168160020160089054906101000a900463ffffffff1663ffffffff1614612da957604051634fadd4d360e11b815263ffffffff87166004820152602401610bfb565b5f806132a38585615e48565b90505f6004826132b38683616278565b6132bd91906162b2565b6132c79190616291565b90505f60118260ff16600481106132e0576132e0615d3f565b6003020190508663ffffffff168160020160089054906101000a900463ffffffff1663ffffffff161461332e57604051634fadd4d360e11b815263ffffffff88166004820152602401610bfb565b9695505050505050565b613340614840565b600d805461ff00191690557f5db9ee0a495bf2e6ff9c91a7834c1ba4fdd244a5e8aa4e537bd38aeae4b073aa335b6040516001600160a01b03909116815260200160405180910390a1565b6001600160a01b0382166133b457604051633250574960e11b81525f6004820152602401610bfb565b5f6133c083835f614868565b90506001600160a01b03811615610d27576040516339e3563760e11b81525f6004820152602401610bfb565b5f81158061340157506001600160a01b038210155b156134225760405163ed15e6cf60e01b815260048101839052602401610bfb565b505f908152600260205260409020546001600160a01b0316151590565b600d80546001600160a01b038381166201000081810262010000600160b01b031985161790945560405193909204169182907f8be0079c531659141344cd1fd0a4f28419497f9722a3daafe3b4186f6b6457e0905f90a35050565b5f5b6134a7600183615d67565b811015610d275782826134bb836001615df2565b8181106134ca576134ca615d3f565b90506020020160208101906134df9190615471565b6001600160a01b03168383838181106134fa576134fa615d3f565b905060200201602081019061350f9190615471565b6001600160a01b0316106135695782828281811061352f5761352f615d3f565b90506020020160208101906135449190615471565b60405163836e3a7d60e01b81526001600160a01b039091166004820152602401610bfb565b60010161349c565b600d545f9081908190606090600160d01b900460ff16826004613595836001616278565b61359f9190616291565b600d805460ff60d01b1916600160d01b60ff841602178082559192505f916016906135d690600160b01b900463ffffffff166162cb565b91906101000a81548163ffffffff021916908363ffffffff160217905590505f601d8360ff166004811061360c5761360c615d3f565b6003020190505f61361b611dd1565b90506040518060c001604052808380548060200260200160405190810160405280929190818152602001828054801561367b57602002820191905f5260205f20905b81546001600160a01b0316815260019091019060200180831161365d575b505050918352505060408084015160208301520161369a436001615fae565b6001600160401b0316815263ffffffff80861660208301526060808501519091166040830152600d5460ff90811691909201526011908616600481106136e2576136e2615d3f565b600302015f820151815f0190805190602001906137009291906152b0565b50602082015160018201556040820151600291820180546060850151608086015160a0909601516001600160401b039094166bffffffffffffffffffffffff1990921691909117600160401b63ffffffff928316021764ffffffffff60601b1916600160601b919095160260ff60801b191693909317600160801b60ff90921691909102179091555f90600490613798908790616278565b6137a29190616291565b90508a601d8260ff16600481106137bb576137bb615d3f565b600302015f0190805190602001906137d49291906152b0565b506137e0846002615e2c565b601d8260ff16600481106137f6576137f6615d3f565b6003020160020160086101000a81548163ffffffff021916908363ffffffff1602179055508382604001518360600151858080548060200260200160405190810160405280929190818152602001828054801561387a57602002820191905f5260205f20905b81546001600160a01b0316815260019091019060200180831161385c575b5050505050905099509950995099505050505050509193509193565b5f6138a16002612db2565b90505f5b8151811015613903575f600f5f8484815181106138c4576138c4615d3f565b6020026020010151602001516001600160a01b03166001600160a01b031681526020019081526020015f2090506138fa81614933565b506001016138a5565b505f61390f6004612db2565b600d54909150600160d01b900460ff165f600461392d836001616278565b6139379190616291565b90505f60118360ff166004811061395057613950615d3f565b600302018054604080516020808402820181019092528281529291908301828280156139a357602002820191905f5260205f20905b81546001600160a01b03168152600190910190602001808311613985575b505050505090505f601d8360ff16600481106139c1576139c1615d3f565b60030201805460408051602080840282018101909252828152929190830182828015613a1457602002820191905f5260205f20905b81546001600160a01b031681526001909101906020018083116139f6575b505050505090505f5b85518110156121de575f868281518110613a3957613a39615d3f565b6020026020010151602001519050613a518185614978565b80613a615750613a618184614978565b80613aa35750613aa3818c8c808060200260200160405190810160405280939291908181526020018383602002808284375f9201919091525061497892505050565b15613aae5750613ad2565b6001600160a01b0381165f908152600f60205260409020613acf818b614787565b50505b600101613a1d565b613ae2612bf9565b600d805461ff0019166101001790557f62e78cea01bee320cd4e420270b5ea74000d11b0c9f74754ebdbfc544b05a25861336e3390565b60018101805461ffff60e01b1916608360e11b1790556040517fadf44594af749c8b96253ad5c2706d383b8583471abbaa53058da185cf0d4207906130ea9083906161cd565b5f613b6b5f835f614868565b90506001600160a01b03811661104957604051637e27328960e01b815260048101839052602401610bfb565b5f8151606014613bba576040516333a234f960e11b815260040160405180910390fd5b5f613bc8855f015185611913565b855160405163a691a08b60e01b81529192505f9173__$2ef4e8110a3eaa1255da7f08f8eebcbf5a$__9163a691a08b91613c05919060040161540a565b5f60405180830381865af4158015613c1f573d5f803e3d5ffd5b505050506040513d5f823e601f3d908101601f19168201604052613c469190810190615e64565b90505f73__$2ef4e8110a3eaa1255da7f08f8eebcbf5a$__633d2a9e1188602001516040518263ffffffff1660e01b8152600401613c84919061540a565b5f60405180830381865af4158015613c9e573d5f803e3d5ffd5b505050506040513d5f823e601f3d908101601f19168201604052613cc59190810190615e64565b905073__$2ef4e8110a3eaa1255da7f08f8eebcbf5a$__635779b9a38383866040518060600160405280602b8152602001616a11602b91396040518563ffffffff1660e01b8152600401613d1c94939291906162e6565b602060405180830381865af4158015613d37573d5f803e3d5ffd5b505050506040513d601f19601f82011682018060405250810190613d5b9190615ed8565b613d7c578683604051634babb8f160e01b8152600401610bfb929190616332565b613d8685876149d5565b979650505050505050565b60ff81165f908152600a60205260408120548314613dc55760405163222d164360e21b815260048101849052602401610bfb565b5090919050565b7f00000000000000000000000000000000000000000000000000000000000000007f000000000000000000000000000000000000000000000000000000000000000030147f0000000000000000000000000000000000000000000000000000000000000000461416613ebf5750604080517f8b73c3c69bb8fe3d512ecc4cf759cc79239f7b179b0ffacaa9a75d522b39400f81527f000000000000000000000000000000000000000000000000000000000000000060208201527f00000000000000000000000000000000000000000000000000000000000000009181019190915246606082015230608082015260a090205b6719010000000000005f5280601a5281603a52604260182090505f603a52919050565b5f6001600160a01b03851615611c5357604051853b613f72578260408114613f125760418114613f395750613fac565b60208581013560ff81901c601b0190915285356040526001600160ff1b0316606052613f4a565b60408501355f1a6020526040856040375b50845f526020600160805f60015afa5180871860601b3d119250505f60605280604052613fac565b631626ba7e60e01b80825285600483015260248201604081528460448401528486606485013760208160648701858b5afa90519091141691505b50949350505050565b604080516101206020601f8801819004028201810190925261010081018681525f9282919089908990819085018382808284375f9201829052509385525050506001600160a01b038716602083015263ffffffff60408301526060820152608001600181525f602080830182905260ff871660408085019190915260609093018290526001600160a01b0388168252600f90522081519192508291819061405c90826163c2565b5060208201516001820180546040850151606086015163ffffffff908116600160c01b0263ffffffff60c01b1991909216600160a01b026001600160c01b03199093166001600160a01b0390951694909417919091179283168117825560808501519260ff60e01b1990911664ffffffffff60c01b1990911617600160e01b8360068111156140ed576140ed61548a565b021790555060a0820151600191909101805460c084015160e09094015161ffff60e81b19909116600160e81b9315159390930260ff60f01b191692909217600160f01b60ff94851602176001600160f81b0316600160f81b93909216929092021790556001600160a01b0384165f908152600b602052604090819020839055517f8cdf65f03c4623a58283a46331ff33a9eee45928f9ce502c59d2fd9d2b2605f29061419a908390615560565b60405180910390a1505050505050565b6001600160a01b0383163b156123f857604051630a85bd0160e11b81526001600160a01b0384169063150b7a02906141ec90889088908790879060040161647c565b6020604051808303815f875af1925050508015614226575060408051601f3d908101601f19168201909252614223918101906164ae565b60015b61428d573d808015614253576040519150601f19603f3d011682016040523d82523d5f602084013e614258565b606091505b5080515f0361428557604051633250574960e11b81526001600160a01b0385166004820152602401610bfb565b805181602001fd5b6001600160e01b03198116630a85bd0160e11b146142c957604051633250574960e11b81526001600160a01b0385166004820152602401610bfb565b505050505050565b60605f6142dd83614a44565b6028602282012090915060601c60295b600181111561437657600782600f161180156143225750606083828151811061431857614318615d3f565b016020015160f81c115b1561435f57602060f81b83828151811061433e5761433e615d3f565b0160200180516001600160f81b0319908116909218909116905f82901a9053505b60049190911c9061436f816164c9565b90506142ed565b50909392505050565b60606143a56040518061052001604052806104ed81526020016165246104ed91396143c9565b6040516020016143b591906164de565b604051602081830303815290604052905090565b6060610bd082604051806060016040528060408152602001616a3c604091396001614a5a565b6001818101545f91600160e01b90910460ff16908160068111156144155761441561548a565b036144235750600192915050565b6001838101545f9161444291600160c01b900463ffffffff1690615e2c565b905060058260068111156144585761445861548a565b1480156144775750600d5463ffffffff808316600160b01b9092041610155b15614486575060019392505050565b505f9392505050565b5f6144a26001600160a01b038416613b5f565b6008545f036144c4576040516315ae672760e01b815260040160405180910390fd5b5f805f6144d086611096565b925092509250825f036144e857829350505050610bd0565b6001600160a01b0386165f908152600b60205260408120819055828410614510575081614575565b50825f7307a07a07a07a07a07a07a07a07a07a07a07a07a06145328386615d67565b6040515f81818185875af1925050503d805f811461456b576040519150601f19603f3d011682016040523d82523d5f602084013e614570565b606091505b505050505b604051634875485760e11b81526001600160a01b0387166004820152602481018390527307a07a07a07a07a07a07a07a07a07a07a07a07a0906390ea90ae9083906044015f604051808303818588803b1580156145d0575f80fd5b505af11580156145e2573d5f803e3d5ffd5b50505050508181613d869190615df2565b5f60038260068111156146085761460861548a565b1480614625575060048260068111156146235761462361548a565b145b80610bd05750600282600681111561463f5761463f61548a565b1492915050565b600d54600160b01b810463ffffffff1690600160d01b900460ff165f61466d838084613297565b90505f61467a8287614bd4565b82549091506146898682613060565b5f614695866001615e2c565b90505f6146a382888861320d565b90506146af818a614bd4565b815490945092506146c08884613060565b5f6146cc886002615e2c565b90505f6146da828a8a61320d565b90506146e6818c614bd4565b815490965094506146f78a86613060565b600d54600160d81b900461ffff168a101561477a57600d805461ffff8c8116600160d81b90810261ffff60d81b1984161793849055604080519382900483168085529190940490911660208301529181018c90527f74cf7ca84b30b723e8b6e3cc569ec2db21f4ba2fcc09d651e5ce6770b91552f99060600160405180910390a1505b5050505050505050505050565b60018201805463ffffffff8316600160c01b0264ffffffffff60c01b1990911617600560e01b1790556040517fbacaeeb8796f2717c7b8e35470c0c1fff2d65881330a4d8b058e7f4e0170504090612d6d9084906161cd565b60ff81165f908152600a6020526040812054816147fd8583612d79565b905080158061481f575060ff84165f908152600a602052604090206001015481105b15611c5357604051633737b70960e11b815260048101829052602401610bfb565b600d54610100900460ff1661176b57604051638dfc202b60e01b815260040160405180910390fd5b5f80614875858585614ccf565b90506001600160a01b0381166148d1576148cc84600880545f838152600960205260408120829055600182018355919091527ff3f7a9fe364faab93b216da50a3214154f22a0a2b415b23a84c8169e8b636ee30155565b6148f4565b846001600160a01b0316816001600160a01b0316146148f4576148f48185614dc1565b6001600160a01b0385166149105761490b84614e3e565b611c53565b846001600160a01b0316816001600160a01b031614611c5357611c538585614ee5565b60018101805460ff60e01b1916600360e01b1790556040517f05ae3ae9268de1d4458eea2d3837e130c248809c169ece7257692dd0b43f346a906130ea9083906161cd565b80515f90815b818110156149cb57846001600160a01b03168482815181106149a2576149a2615d3f565b60200260200101516001600160a01b0316036149c357600192505050610bd0565b60010161497e565b505f949350505050565b81516020808401919091205f81815260109092526040909120546001600160a01b031615614a1657604051638d12779f60e01b815260040160405180910390fd5b5f81815260106020526040902080546001600160a01b0384166001600160a01b031990911617905592915050565b6060610bd06001600160a01b0383166014614f33565b606083515f03614a78575060408051602081019091525f81526126fd565b5f82614aa857600385516004614a8e9190615ddb565b614a99906002615df2565b614aa39190615e19565b614acd565b600385516002614ab89190615df2565b614ac29190615e19565b614acd906004615ddb565b90505f816001600160401b03811115614ae857614ae86156b0565b6040519080825280601f01601f191660200182016040528015614b12576020820181803683370190505b509050600185016020820187885189016020810180515f82525b82841015614b87576003840193508351603f8160121c168701518653600186019550603f81600c1c168701518653600186019550603f8160061c168701518653600186019550603f8116870151865350600185019450614b2c565b905250508515614bc857600388510660018114614bab5760028114614bbe57614bc6565b603d6001830353603d6002830353614bc6565b603d60018303535b505b50909695505050505050565b81545f90815b818110156149cb57836001600160a01b0316858281548110614bfe57614bfe615d3f565b5f918252602090912001546001600160a01b031603614cc75784614c23600184615d67565b81548110614c3357614c33615d3f565b905f5260205f20015f9054906101000a90046001600160a01b0316858281548110614c6057614c60615d3f565b905f5260205f20015f6101000a8154816001600160a01b0302191690836001600160a01b0316021790555084805480614c9b57614c9b61650f565b5f8281526020902081015f1990810180546001600160a01b03191690550190555060019150610bd09050565b600101614bda565b5f828152600260205260408120546001600160a01b0390811690831615614cfb57614cfb8184866150a4565b6001600160a01b03811615614d3557614d165f855f80615108565b6001600160a01b0381165f90815260036020526040902080545f190190555b6001600160a01b03851615614d63576001600160a01b0385165f908152600360205260409020805460010190555b5f8481526002602052604080822080546001600160a01b0319166001600160a01b0389811691821790925591518793918516917fddf252ad1be2c89b69c2b068fc378daa952ba7f163c4a11628f55a4df523b3ef91a4949350505050565b5f614dcb83611bc0565b5f838152600760209081526040808320546001600160a01b0388168452600690925290912091925090818314614e20575f83815260208281526040808320548584528184208190558352600790915290208290555b5f938452600760209081526040808620869055938552525081205550565b6008545f90614e4f90600190615d67565b5f8381526009602052604081205460088054939450909284908110614e7657614e76615d3f565b905f5260205f20015490508060088381548110614e9557614e95615d3f565b5f918252602080832090910192909255828152600990915260408082208490558582528120556008805480614ecc57614ecc61650f565b600190038181905f5260205f20015f9055905550505050565b5f6001614ef184611bc0565b614efb9190615d67565b6001600160a01b039093165f908152600660209081526040808320868452825280832085905593825260079052919091209190915550565b6060825f614f42846002615ddb565b614f4d906002615df2565b6001600160401b03811115614f6457614f646156b0565b6040519080825280601f01601f191660200182016040528015614f8e576020820181803683370190505b509050600360fc1b815f81518110614fa857614fa8615d3f565b60200101906001600160f81b03191690815f1a905350600f60fb1b81600181518110614fd657614fd6615d3f565b60200101906001600160f81b03191690815f1a9053505f614ff8856002615ddb565b615003906001615df2565b90505b600181111561507a576f181899199a1a9b1b9c1cb0b131b232b360811b83600f166010811061503757615037615d3f565b1a60f81b82828151811061504d5761504d615d3f565b60200101906001600160f81b03191690815f1a90535060049290921c91615073816164c9565b9050615006565b508115611c535760405163e22e27eb60e01b81526004810186905260248101859052604401610bfb565b6150af83838361520c565b610d27576001600160a01b0383166150dd57604051637e27328960e01b815260048101829052602401610bfb565b60405163177e802f60e01b81526001600160a01b038316600482015260248101829052604401610bfb565b808061511c57506001600160a01b03821615155b156151dd575f61512b84612bc1565b90506001600160a01b038316158015906151575750826001600160a01b0316816001600160a01b031614155b801561516a57506151688184612704565b155b156151935760405163a9fbf51f60e01b81526001600160a01b0384166004820152602401610bfb565b81156151db5783856001600160a01b0316826001600160a01b03167f8c5be1e5ebec7d5bd14f71427d1e84f3dd0314c0f7b2291e5b200ac8c7c3b92560405160405180910390a45b505b50505f90815260046020526040902080546001600160a01b0319166001600160a01b0392909216919091179055565b5f6001600160a01b03831615801590611c535750826001600160a01b0316846001600160a01b0316148061524557506152458484612704565b80611c535750505f908152600460205260409020546001600160a01b03908116911614919050565b604080516101008101825260608082525f60208301819052928201839052810182905290608082019081525f602082018190526040820181905260609091015290565b828054828255905f5260205f20908101928215615303579160200282015b8281111561530357825182546001600160a01b0319166001600160a01b039091161782556020909201916001909101906152ce565b5061530f929150615313565b5090565b5b8082111561530f575f8155600101615314565b6001600160e01b031981168114611093575f80fd5b5f6020828403121561534c575f80fd5b81356126fd81615327565b5f8083601f840112615367575f80fd5b5081356001600160401b0381111561537d575f80fd5b6020830191508360208260061b8501011115615397575f80fd5b9250929050565b5f80602083850312156153af575f80fd5b82356001600160401b038111156153c4575f80fd5b6153d085828601615357565b90969095509350505050565b5f81518084528060208401602086015e5f602082860101526020601f19601f83011685010191505092915050565b602081525f6126fd60208301846153dc565b5f6020828403121561542c575f80fd5b5035919050565b80356001600160a01b03811681146125d5575f80fd5b5f806040838503121561545a575f80fd5b61546383615433565b946020939093013593505050565b5f60208284031215615481575f80fd5b6126fd82615433565b634e487b7160e01b5f52602160045260245ffd5b600781106154ba57634e487b7160e01b5f52602160045260245ffd5b9052565b5f815161010084526154d46101008501826153dc565b905060018060a01b03602084015116602085015263ffffffff6040840151166040850152606083015161550f606086018263ffffffff169052565b506080830151615522608086018261549e565b5060a083015161553660a086018215159052565b5060c083015161554b60c086018260ff169052565b5060e08301516122f060e086018260ff169052565b602081525f6126fd60208301846154be565b5f805f60608486031215615584575f80fd5b61558d84615433565b925061559b60208501615433565b929592945050506040919091013590565b63ffffffff81168114611093575f80fd5b5f602082840312156155cd575f80fd5b81356126fd816155ac565b6020808252825160c083830152805160e084018190525f92919091019082906101008501905b808310156156295783516001600160a01b0316825260209384019360019390930192909101906155fe565b50602086015160408601526040860151925061565060608601846001600160401b03169052565b606086015163ffffffff811660808701529250608086015163ffffffff811660a0870152925060a086015160ff811660c0870152925095945050505050565b5f6020828403121561569f575f80fd5b813561ffff811681146126fd575f80fd5b634e487b7160e01b5f52604160045260245ffd5b604051601f8201601f191681016001600160401b03811182821017156156ec576156ec6156b0565b604052919050565b5f6001600160401b0382111561570c5761570c6156b0565b50601f01601f191660200190565b5f82601f830112615729575f80fd5b813561573c615737826156f4565b6156c4565b818152846020838601011115615750575f80fd5b816020850160208301375f918101602001919091529392505050565b5f806040838503121561577d575f80fd5b82356001600160401b03811115615792575f80fd5b61579e8582860161571a565b9250506157ad60208401615433565b90509250929050565b5f8083601f8401126157c6575f80fd5b5081356001600160401b038111156157dc575f80fd5b602083019150836020828501011115615397575f80fd5b5f8060208385031215615804575f80fd5b82356001600160401b03811115615819575f80fd5b6153d0858286016157b6565b5f8060208385031215615836575f80fd5b82356001600160401b0381111561584b575f80fd5b8301601f8101851361585b575f80fd5b80356001600160401b03811115615870575f80fd5b8560208260051b8401011115615884575f80fd5b6020919091019590945092505050565b60ff60f81b8816815260e060208201525f6158b260e08301896153dc565b82810360408401526158c481896153dc565b606084018890526001600160a01b038716608085015260a0840186905283810360c0850152845180825260208087019350909101905f5b818110156159195783518352602093840193909201916001016158fb565b50909b9a5050505050505050505050565b5f6040828403121561593a575f80fd5b604080519081016001600160401b038111828210171561595c5761595c6156b0565b60405290508082356001600160401b03811115615977575f80fd5b6159838582860161571a565b82525060208301356001600160401b0381111561599e575f80fd5b6159aa8582860161571a565b6020830152505092915050565b5f805f805f80608087890312156159cc575f80fd5b86356001600160401b038111156159e1575f80fd5b6159ed89828a016157b6565b90975095505060208701356001600160401b03811115615a0b575f80fd5b615a1789828a0161592a565b945050615a2660408801615433565b925060608701356001600160401b03811115615a40575f80fd5b615a4c89828a016157b6565b979a9699509497509295939492505050565b5f60208284031215615a6e575f80fd5b8135600781106126fd575f80fd5b5f602082016020835280845180835260408501915060408160051b8601019250602086015f5b82811015615ad357603f19878603018452615abe8583516154be565b94506020938401939190910190600101615aa2565b50929695505050505050565b8015158114611093575f80fd5b5f8060408385031215615afd575f80fd5b615b0683615433565b91506020830135615b1681615adf565b809150509250929050565b803560ff811681146125d5575f80fd5b5f60208284031215615b41575f80fd5b6126fd82615b21565b5f805f60408486031215615b5c575f80fd5b83356001600160401b03811115615b71575f80fd5b615b7d868287016157b6565b90945092505060208401356001600160401b03811115615b9b575f80fd5b615ba78682870161592a565b9150509250925092565b5f805f8060808587031215615bc4575f80fd5b615bcd85615433565b9350615bdb60208601615433565b92506040850135915060608501356001600160401b03811115615bfc575f80fd5b615c088782880161571a565b91505092959194509250565b5f6080828403128015615c25575f80fd5b509092915050565b5f805f60608486031215615c3f575f80fd5b83356001600160401b03811115615c54575f80fd5b615c608682870161571a565b935050615c6f60208501615433565b9150615c7d60408501615433565b90509250925092565b5f8060408385031215615c97575f80fd5b615ca083615433565b91506157ad60208401615433565b5f8060408385031215615cbf575f80fd5b615cc883615433565b91506157ad60208401615b21565b61010081525f615cea61010083018b6153dc565b6001600160a01b038a16602084015263ffffffff8981166040850152881660608401529050615d1c608083018761549e565b93151560a082015260ff92831660c0820152911660e09091015295945050505050565b634e487b7160e01b5f52603260045260245ffd5b634e487b7160e01b5f52601160045260245ffd5b81810381811115610bd057610bd0615d53565b604081016001600160a01b03615d8f84615433565b168252602092830135929091019190915290565b600181811c90821680615db757607f821691505b602082108103615dd557634e487b7160e01b5f52602260045260245ffd5b50919050565b8082028115828204841417610bd057610bd0615d53565b80820180821115610bd057610bd0615d53565b634e487b7160e01b5f52601260045260245ffd5b5f82615e2757615e27615e05565b500490565b63ffffffff8181168382160190811115610bd057610bd0615d53565b63ffffffff8281168282160390811115610bd057610bd0615d53565b5f60208284031215615e74575f80fd5b81516001600160401b03811115615e89575f80fd5b8201601f81018413615e99575f80fd5b8051615ea7615737826156f4565b818152856020838501011115615ebb575f80fd5b8160208401602083015e5f91810160200191909152949350505050565b5f60208284031215615ee8575f80fd5b81516126fd81615adf565b5f81518060208401855e5f93019283525090919050565b6001600160d81b0319851681525f615f256005830186615ef3565b6001600160f81b031994909416845250506bffffffffffffffffffffffff1916600182015260150192915050565b818382375f9101908152919050565b60208101610bd0828461549e565b95865260208601949094526001600160a01b0392831660408601529116606084015260ff1660808301526001600160401b031660a082015260c00190565b6001600160401b038181168382160190811115610bd057610bd0615d53565b5f60ff821660ff8103615fe257615fe2615d53565b60010192915050565b813581556020820135600182015560408201356002820155600381016060830135616015816155ac565b815463ffffffff191663ffffffff919091161790555050565b7f7b226e616d65223a202254656c636f696e2d4e6574776f726b20436f6e73656e8152651cdd5cd3919560d21b60208201525f61606e6026830185615ef3565b7f222c20226465736372697074696f6e223a2022455243373231204e465420776881527f6f7365206f776e657273686970206c656467657220726570726573656e74732060208201527f746865207065726d697373696f6e65642077686974656c69737420666f72207660408201527530b634b230ba37b9399116101134b6b0b3b2911d101160511b60608201526161096076820185615ef3565b61227d60f01b815260020195945050505050565b7f646174613a6170706c69636174696f6e2f6a736f6e3b6261736536342c00000081525f6126fd601d830184615ef3565b5f815461615a81615da3565b8085526001821680156161745760018114616190576161c4565b60ff1983166020870152602082151560051b87010193506161c4565b845f5260205f205f5b838110156161bb5781546020828a010152600182019150602081019050616199565b87016020019450505b50505092915050565b6020815261010060208201525f6161e861012083018461614e565b60018401546001600160a01b038116604085015260a081901c63ffffffff16606085015260c081901c63ffffffff16608085015261622f60a0850160ff8360e01c1661549e565b61624360c0850160ff8360e81c1615159052565b60f081901c60ff1660e085015260f881901c6101008501526122f0565b5f6001820161627157616271615d53565b5060010190565b60ff8181168382160190811115610bd057610bd0615d53565b5f60ff8316806162a3576162a3615e05565b8060ff84160691505092915050565b60ff8281168282160390811115610bd057610bd0615d53565b5f63ffffffff821663ffffffff8103615fe257615fe2615d53565b608081525f6162f860808301876153dc565b828103602084015261630a81876153dc565b9050828103604084015261631e81866153dc565b90508281036060840152613d8681856153dc565b604081525f835160408084015261634c60808401826153dc565b90506020850151603f1984830301606085015261636982826153dc565b9150508281036020840152612da981856153dc565b601f821115610d2757805f5260205f20601f840160051c810160208510156163a35750805b601f840160051c820191505b818110156123f8575f81556001016163af565b81516001600160401b038111156163db576163db6156b0565b6163ef816163e98454615da3565b8461637e565b6020601f821160018114616421575f831561640a5750848201515b5f19600385901b1c1916600184901b1784556123f8565b5f84815260208120601f198516915b828110156164505787850151825560209485019460019092019101616430565b508482101561646d57868401515f19600387901b60f8161c191681555b50505050600190811b01905550565b6001600160a01b03858116825284166020820152604081018390526080606082018190525f9061332e908301846153dc565b5f602082840312156164be575f80fd5b81516126fd81615327565b5f816164d7576164d7615d53565b505f190190565b7f646174613a696d6167652f7376672b786d6c3b6261736536342c00000000000081525f6126fd601a830184615ef3565b634e487b7160e01b5f52603160045260245ffdfe3c7376672077696474683d22373922206865696768743d223830222076696577426f783d22302030203739203830222066696c6c3d226e6f6e652220786d6c6e733d22687474703a2f2f7777772e77332e6f72672f323030302f737667223e203c6d61736b2069643d226d61736b305f3834395f3334313722207374796c653d226d61736b2d747970653a616c70686122206d61736b556e6974733d227573657253706163654f6e5573652220783d22302220793d2230222077696474683d22373922206865696768743d223830223e203c726563742077696474683d2237382e30303522206865696768743d223830222066696c6c3d2223433443344334222f3e203c2f6d61736b3e203c67206d61736b3d2275726c28236d61736b305f3834395f3334313729223e203c7265637420783d2231372e393534362220793d2231382e33353435222077696474683d2234322e3239343322206865696768743d2234332e32393138222066696c6c3d227768697465222f3e203c7061746820643d224d37342e323336392032312e393839324337362e363930382032342e303331352037382e323338392032382e323537372037372e363937392033312e333733334c37322e343136362036312e333235334337312e3836362036342e343437352036382e393539322036372e383739382036352e393632392036382e393631324c33372e313934372037392e333334344333342e313938342038302e343135372032392e373432312037392e363239392032372e323936342037372e3538394c332e3831312035382e3030323143312e33353730382035352e39353938202d302e31393233382035312e3734313720302e3335383134382034382e363139354c352e36333935312031382e3636373443362e31393030342031352e3534353220392e30393638372031322e313132392031322e303933322031312e303331364c34302e3835393920302e3636363435334334332e38353632202d302e3431343835372034382e3331323520302e3337303930392035302e3735383320322e343131384c37342e323336392032312e393839325a4d34392e373634352033352e343336394c35302e393336342032392e333531334c33392e393531372032392e333638374c34312e3531362032312e333432344c33372e393538332032312e333432344333372e393538332032312e333432342033342e363332382032372e323930312032372e333030362033302e323031394c32362e323839392033352e343530334c33312e303933362033352e34364333312e303933362033352e34362032392e343637342034332e303032392032382e393331362034352e373835344332372e353637372035322e383638322033302e393830362035372e383933392033362e323238312035372e383933394333382e383630362035372e383933392034312e3831372035372e383933392034352e303937322035372e383933394c34362e363532342035312e313636364334362e323734322035312e313636362034332e383031332035312e313636362033392e323333362035312e313636364333352e393336342035312e313636362033362e313039392034392e333138392033362e373433312034362e303330354c33382e373833382033352e343333334c34392e373634352033352e343336395a222066696c6c3d2223313443384646222f3e203c2f673e203c2f7376673e424c535f5349475f424c53313233383147315f584d443a5348412d3235365f535357555f524f5f4e554c5f4142434445464748494a4b4c4d4e4f505152535455565758595a6162636465666768696a6b6c6d6e6f707172737475767778797a303132333435363738392b2fa164736f6c634300081a000a424c535f5349475f424c53313233383147315f584d443a5348412d3235365f535357555f524f5f4e554c5f","linkReferences":{"src/consensus/BlsG1.sol":{"BlsG1":[{"start":2150,"length":20},{"start":2259,"length":20},{"start":2385,"length":20},{"start":2692,"length":20},{"start":2828,"length":20},{"start":13289,"length":20},{"start":13425,"length":20},{"start":22191,"length":20},{"start":22300,"length":20},{"start":22426,"length":20}]}}},"methodIdentifiers":{"SYSTEM_ADDRESS()":"3434735f","activate()":"0f15f4c0","allocateIssuance()":"355811a7","applyIncentives((address,uint256)[])":"0a36cdef","applySlashes((address,uint256)[])":"02ae337b","approve(address,uint256)":"095ea7b3","balanceOf(address)":"70a08231","beginExit()":"2228dfa0","burn(address)":"89afcb44","claimStakeRewards(address)":"2b9f4985","concludeEpoch(address[])":"7b55a300","delegateStake(bytes,(bytes,bytes),address,bytes)":"8bb43f3a","delegationDigest(bytes,address,address)":"e3716d04","eip712Domain()":"84b0196e","epochInfo(uint256)":"3894228e","futureEpochInfo(uint256)":"59ca93b6","getApproved(uint256)":"081812fc","getBalanceBreakdown(address)":"15b5709a","getCommitteeValidators(uint32)":"a0201be5","getCurrentEpoch()":"b97dd9e2","getCurrentEpochInfo()":"babc394f","getCurrentStakeConfig()":"7d06fdf8","getCurrentStakeVersion()":"67398331","getEpochInfo(uint32)":"374ed18c","getNextCommitteeSize()":"eb8535c2","getRewards(address)":"79ee54f7","getValidator(address)":"1904bb2e","getValidators(uint8)":"8cc05eda","isApprovedForAll(address,address)":"e985e9c5","isDelegated(address)":"3e28391d","isRetired(address)":"6d3c6275","isValidator(bytes)":"6a926591","issuance()":"863623bb","mint(address)":"6a627842","name()":"06fdde03","owner()":"8da5cb5b","ownerOf(uint256)":"6352211e","pause()":"8456cb59","paused()":"5c975abb","proofOfPossessionMessage(bytes,address)":"6850eb31","renounceOwnership()":"715018a6","safeTransferFrom(address,address,uint256)":"42842e0e","safeTransferFrom(address,address,uint256,bytes)":"b88d4fde","setApprovalForAll(address,bool)":"a22cb465","setNextCommitteeSize(uint16)":"62fcde4b","setValidatorRegion(address,uint8)":"f0624768","stake(bytes,(bytes,bytes))":"b5184324","stakeConfig(uint8)":"a71954ec","supportsInterface(bytes4)":"01ffc9a7","symbol()":"95d89b41","tokenByIndex(uint256)":"4f6ccce7","tokenOfOwnerByIndex(address,uint256)":"2f745c59","tokenURI(uint256)":"c87b56dd","totalSupply()":"18160ddd","transferFrom(address,address,uint256)":"23b872dd","transferOwnership(address)":"f2fde38b","undistributedIssuance()":"008d6acd","unpause()":"3f4ba83a","unstake(address)":"f2888dbb","upgradeStakeVersion((uint256,uint256,uint256,uint32))":"c05df7ac","validators(address)":"fa52c7d8"},"id":53}