{"abi":[{"type":"constructor","inputs":[{"name":"genesisConfig_","type":"tuple","internalType":"struct IStakeManager.StakeConfig","components":[{"name":"stakeAmount","type":"uint256","internalType":"uint256"},{"name":"minWithdrawAmount","type":"uint256","internalType":"uint256"},{"name":"epochIssuance","type":"uint256","internalType":"uint256"},{"name":"epochDuration","type":"uint32","internalType":"uint32"}]},{"name":"initialValidators_","type":"tuple[]","internalType":"struct IConsensusRegistry.ValidatorInfo[]","components":[{"name":"blsPubkey","type":"bytes","internalType":"bytes"},{"name":"validatorAddress","type":"address","internalType":"address"},{"name":"activationEpoch","type":"uint32","internalType":"uint32"},{"name":"exitEpoch","type":"uint32","internalType":"uint32"},{"name":"currentStatus","type":"uint8","internalType":"enum IConsensusRegistry.ValidatorStatus"},{"name":"isRetired","type":"bool","internalType":"bool"},{"name":"isDelegated","type":"bool","internalType":"bool"},{"name":"stakeVersion","type":"uint8","internalType":"uint8"}]},{"name":"proofsOfPossession","type":"tuple[]","internalType":"struct BlsG1.ProofOfPossession[]","components":[{"name":"uncompressedPubkey","type":"bytes","internalType":"bytes"},{"name":"uncompressedSignature","type":"bytes","internalType":"bytes"}]},{"name":"owner_","type":"address","internalType":"address"}],"stateMutability":"nonpayable"},{"type":"function","name":"SYSTEM_ADDRESS","inputs":[],"outputs":[{"name":"","type":"address","internalType":"address"}],"stateMutability":"view"},{"type":"function","name":"activate","inputs":[],"outputs":[],"stateMutability":"nonpayable"},{"type":"function","name":"allocateIssuance","inputs":[],"outputs":[],"stateMutability":"payable"},{"type":"function","name":"applyIncentives","inputs":[{"name":"rewardInfos","type":"tuple[]","internalType":"struct RewardInfo[]","components":[{"name":"validatorAddress","type":"address","internalType":"address"},{"name":"consensusHeaderCount","type":"uint256","internalType":"uint256"}]}],"outputs":[],"stateMutability":"nonpayable"},{"type":"function","name":"applySlashes","inputs":[{"name":"slashes","type":"tuple[]","internalType":"struct Slash[]","components":[{"name":"validatorAddress","type":"address","internalType":"address"},{"name":"amount","type":"uint256","internalType":"uint256"}]}],"outputs":[],"stateMutability":"nonpayable"},{"type":"function","name":"approve","inputs":[{"name":"","type":"address","internalType":"address"},{"name":"","type":"uint256","internalType":"uint256"}],"outputs":[],"stateMutability":"nonpayable"},{"type":"function","name":"balanceOf","inputs":[{"name":"owner","type":"address","internalType":"address"}],"outputs":[{"name":"","type":"uint256","internalType":"uint256"}],"stateMutability":"view"},{"type":"function","name":"beginExit","inputs":[],"outputs":[],"stateMutability":"nonpayable"},{"type":"function","name":"burn","inputs":[{"name":"validatorAddress","type":"address","internalType":"address"}],"outputs":[],"stateMutability":"nonpayable"},{"type":"function","name":"claimStakeRewards","inputs":[{"name":"validatorAddress","type":"address","internalType":"address"}],"outputs":[],"stateMutability":"nonpayable"},{"type":"function","name":"concludeEpoch","inputs":[{"name":"futureCommittee","type":"address[]","internalType":"address[]"}],"outputs":[],"stateMutability":"nonpayable"},{"type":"function","name":"delegateStake","inputs":[{"name":"blsPubkey","type":"bytes","internalType":"bytes"},{"name":"proofOfPossession","type":"tuple","internalType":"struct BlsG1.ProofOfPossession","components":[{"name":"uncompressedPubkey","type":"bytes","internalType":"bytes"},{"name":"uncompressedSignature","type":"bytes","internalType":"bytes"}]},{"name":"validatorAddress","type":"address","internalType":"address"},{"name":"validatorEIP712Signature","type":"bytes","internalType":"bytes"}],"outputs":[],"stateMutability":"payable"},{"type":"function","name":"delegationDigest","inputs":[{"name":"blsPubkey","type":"bytes","internalType":"bytes"},{"name":"validatorAddress","type":"address","internalType":"address"},{"name":"delegator","type":"address","internalType":"address"}],"outputs":[{"name":"","type":"bytes32","internalType":"bytes32"}],"stateMutability":"view"},{"type":"function","name":"eip712Domain","inputs":[],"outputs":[{"name":"fields","type":"bytes1","internalType":"bytes1"},{"name":"name","type":"string","internalType":"string"},{"name":"version","type":"string","internalType":"string"},{"name":"chainId","type":"uint256","internalType":"uint256"},{"name":"verifyingContract","type":"address","internalType":"address"},{"name":"salt","type":"bytes32","internalType":"bytes32"},{"name":"extensions","type":"uint256[]","internalType":"uint256[]"}],"stateMutability":"view"},{"type":"function","name":"epochInfo","inputs":[{"name":"","type":"uint256","internalType":"uint256"}],"outputs":[{"name":"epochIssuance","type":"uint256","internalType":"uint256"},{"name":"blockHeight","type":"uint64","internalType":"uint64"},{"name":"epochDuration","type":"uint32","internalType":"uint32"},{"name":"stakeVersion","type":"uint8","internalType":"uint8"}],"stateMutability":"view"},{"type":"function","name":"futureEpochInfo","inputs":[{"name":"","type":"uint256","internalType":"uint256"}],"outputs":[{"name":"epochIssuance","type":"uint256","internalType":"uint256"},{"name":"blockHeight","type":"uint64","internalType":"uint64"},{"name":"epochDuration","type":"uint32","internalType":"uint32"},{"name":"stakeVersion","type":"uint8","internalType":"uint8"}],"stateMutability":"view"},{"type":"function","name":"getApproved","inputs":[{"name":"tokenId","type":"uint256","internalType":"uint256"}],"outputs":[{"name":"","type":"address","internalType":"address"}],"stateMutability":"view"},{"type":"function","name":"getBalanceBreakdown","inputs":[{"name":"validatorAddress","type":"address","internalType":"address"}],"outputs":[{"name":"","type":"uint256","internalType":"uint256"},{"name":"","type":"uint256","internalType":"uint256"},{"name":"","type":"uint256","internalType":"uint256"}],"stateMutability":"view"},{"type":"function","name":"getCommitteeValidators","inputs":[{"name":"epoch","type":"uint32","internalType":"uint32"}],"outputs":[{"name":"","type":"tuple[]","internalType":"struct IConsensusRegistry.ValidatorInfo[]","components":[{"name":"blsPubkey","type":"bytes","internalType":"bytes"},{"name":"validatorAddress","type":"address","internalType":"address"},{"name":"activationEpoch","type":"uint32","internalType":"uint32"},{"name":"exitEpoch","type":"uint32","internalType":"uint32"},{"name":"currentStatus","type":"uint8","internalType":"enum IConsensusRegistry.ValidatorStatus"},{"name":"isRetired","type":"bool","internalType":"bool"},{"name":"isDelegated","type":"bool","internalType":"bool"},{"name":"stakeVersion","type":"uint8","internalType":"uint8"}]}],"stateMutability":"view"},{"type":"function","name":"getCurrentEpoch","inputs":[],"outputs":[{"name":"","type":"uint32","internalType":"uint32"}],"stateMutability":"view"},{"type":"function","name":"getCurrentEpochInfo","inputs":[],"outputs":[{"name":"","type":"tuple","internalType":"struct IConsensusRegistry.EpochInfo","components":[{"name":"committee","type":"address[]","internalType":"address[]"},{"name":"epochIssuance","type":"uint256","internalType":"uint256"},{"name":"blockHeight","type":"uint64","internalType":"uint64"},{"name":"epochDuration","type":"uint32","internalType":"uint32"},{"name":"stakeVersion","type":"uint8","internalType":"uint8"}]}],"stateMutability":"view"},{"type":"function","name":"getCurrentStakeConfig","inputs":[],"outputs":[{"name":"","type":"tuple","internalType":"struct IStakeManager.StakeConfig","components":[{"name":"stakeAmount","type":"uint256","internalType":"uint256"},{"name":"minWithdrawAmount","type":"uint256","internalType":"uint256"},{"name":"epochIssuance","type":"uint256","internalType":"uint256"},{"name":"epochDuration","type":"uint32","internalType":"uint32"}]}],"stateMutability":"view"},{"type":"function","name":"getCurrentStakeVersion","inputs":[],"outputs":[{"name":"","type":"uint8","internalType":"uint8"}],"stateMutability":"view"},{"type":"function","name":"getEpochInfo","inputs":[{"name":"epoch","type":"uint32","internalType":"uint32"}],"outputs":[{"name":"","type":"tuple","internalType":"struct IConsensusRegistry.EpochInfo","components":[{"name":"committee","type":"address[]","internalType":"address[]"},{"name":"epochIssuance","type":"uint256","internalType":"uint256"},{"name":"blockHeight","type":"uint64","internalType":"uint64"},{"name":"epochDuration","type":"uint32","internalType":"uint32"},{"name":"stakeVersion","type":"uint8","internalType":"uint8"}]}],"stateMutability":"view"},{"type":"function","name":"getNextCommitteeSize","inputs":[],"outputs":[{"name":"","type":"uint16","internalType":"uint16"}],"stateMutability":"view"},{"type":"function","name":"getRewards","inputs":[{"name":"validatorAddress","type":"address","internalType":"address"}],"outputs":[{"name":"","type":"uint256","internalType":"uint256"}],"stateMutability":"view"},{"type":"function","name":"getValidator","inputs":[{"name":"validatorAddress","type":"address","internalType":"address"}],"outputs":[{"name":"","type":"tuple","internalType":"struct IConsensusRegistry.ValidatorInfo","components":[{"name":"blsPubkey","type":"bytes","internalType":"bytes"},{"name":"validatorAddress","type":"address","internalType":"address"},{"name":"activationEpoch","type":"uint32","internalType":"uint32"},{"name":"exitEpoch","type":"uint32","internalType":"uint32"},{"name":"currentStatus","type":"uint8","internalType":"enum IConsensusRegistry.ValidatorStatus"},{"name":"isRetired","type":"bool","internalType":"bool"},{"name":"isDelegated","type":"bool","internalType":"bool"},{"name":"stakeVersion","type":"uint8","internalType":"uint8"}]}],"stateMutability":"view"},{"type":"function","name":"getValidators","inputs":[{"name":"status","type":"uint8","internalType":"enum IConsensusRegistry.ValidatorStatus"}],"outputs":[{"name":"","type":"tuple[]","internalType":"struct IConsensusRegistry.ValidatorInfo[]","components":[{"name":"blsPubkey","type":"bytes","internalType":"bytes"},{"name":"validatorAddress","type":"address","internalType":"address"},{"name":"activationEpoch","type":"uint32","internalType":"uint32"},{"name":"exitEpoch","type":"uint32","internalType":"uint32"},{"name":"currentStatus","type":"uint8","internalType":"enum IConsensusRegistry.ValidatorStatus"},{"name":"isRetired","type":"bool","internalType":"bool"},{"name":"isDelegated","type":"bool","internalType":"bool"},{"name":"stakeVersion","type":"uint8","internalType":"uint8"}]}],"stateMutability":"view"},{"type":"function","name":"isApprovedForAll","inputs":[{"name":"owner","type":"address","internalType":"address"},{"name":"operator","type":"address","internalType":"address"}],"outputs":[{"name":"","type":"bool","internalType":"bool"}],"stateMutability":"view"},{"type":"function","name":"isRetired","inputs":[{"name":"validatorAddress","type":"address","internalType":"address"}],"outputs":[{"name":"","type":"bool","internalType":"bool"}],"stateMutability":"view"},{"type":"function","name":"isValidator","inputs":[{"name":"blsPubkey","type":"bytes","internalType":"bytes"}],"outputs":[{"name":"","type":"bool","internalType":"bool"}],"stateMutability":"view"},{"type":"function","name":"issuance","inputs":[],"outputs":[{"name":"","type":"address","internalType":"address payable"}],"stateMutability":"view"},{"type":"function","name":"mint","inputs":[{"name":"validatorAddress","type":"address","internalType":"address"}],"outputs":[],"stateMutability":"nonpayable"},{"type":"function","name":"name","inputs":[],"outputs":[{"name":"","type":"string","internalType":"string"}],"stateMutability":"view"},{"type":"function","name":"owner","inputs":[],"outputs":[{"name":"","type":"address","internalType":"address"}],"stateMutability":"view"},{"type":"function","name":"ownerOf","inputs":[{"name":"tokenId","type":"uint256","internalType":"uint256"}],"outputs":[{"name":"","type":"address","internalType":"address"}],"stateMutability":"view"},{"type":"function","name":"pause","inputs":[],"outputs":[],"stateMutability":"nonpayable"},{"type":"function","name":"paused","inputs":[],"outputs":[{"name":"","type":"bool","internalType":"bool"}],"stateMutability":"view"},{"type":"function","name":"proofOfPossessionMessage","inputs":[{"name":"blsPubkeyUncompressed","type":"bytes","internalType":"bytes"},{"name":"validatorAddress","type":"address","internalType":"address"}],"outputs":[{"name":"","type":"bytes","internalType":"bytes"}],"stateMutability":"view"},{"type":"function","name":"renounceOwnership","inputs":[],"outputs":[],"stateMutability":"nonpayable"},{"type":"function","name":"safeTransferFrom","inputs":[{"name":"from","type":"address","internalType":"address"},{"name":"to","type":"address","internalType":"address"},{"name":"tokenId","type":"uint256","internalType":"uint256"}],"outputs":[],"stateMutability":"nonpayable"},{"type":"function","name":"safeTransferFrom","inputs":[{"name":"from","type":"address","internalType":"address"},{"name":"to","type":"address","internalType":"address"},{"name":"tokenId","type":"uint256","internalType":"uint256"},{"name":"data","type":"bytes","internalType":"bytes"}],"outputs":[],"stateMutability":"nonpayable"},{"type":"function","name":"setApprovalForAll","inputs":[{"name":"","type":"address","internalType":"address"},{"name":"","type":"bool","internalType":"bool"}],"outputs":[],"stateMutability":"nonpayable"},{"type":"function","name":"setNextCommitteeSize","inputs":[{"name":"newSize","type":"uint16","internalType":"uint16"}],"outputs":[],"stateMutability":"nonpayable"},{"type":"function","name":"stake","inputs":[{"name":"blsPubkey","type":"bytes","internalType":"bytes"},{"name":"proofOfPossession","type":"tuple","internalType":"struct BlsG1.ProofOfPossession","components":[{"name":"uncompressedPubkey","type":"bytes","internalType":"bytes"},{"name":"uncompressedSignature","type":"bytes","internalType":"bytes"}]}],"outputs":[],"stateMutability":"payable"},{"type":"function","name":"stakeConfig","inputs":[{"name":"version","type":"uint8","internalType":"uint8"}],"outputs":[{"name":"","type":"tuple","internalType":"struct IStakeManager.StakeConfig","components":[{"name":"stakeAmount","type":"uint256","internalType":"uint256"},{"name":"minWithdrawAmount","type":"uint256","internalType":"uint256"},{"name":"epochIssuance","type":"uint256","internalType":"uint256"},{"name":"epochDuration","type":"uint32","internalType":"uint32"}]}],"stateMutability":"view"},{"type":"function","name":"supportsInterface","inputs":[{"name":"interfaceId","type":"bytes4","internalType":"bytes4"}],"outputs":[{"name":"","type":"bool","internalType":"bool"}],"stateMutability":"view"},{"type":"function","name":"symbol","inputs":[],"outputs":[{"name":"","type":"string","internalType":"string"}],"stateMutability":"view"},{"type":"function","name":"tokenByIndex","inputs":[{"name":"index","type":"uint256","internalType":"uint256"}],"outputs":[{"name":"","type":"uint256","internalType":"uint256"}],"stateMutability":"view"},{"type":"function","name":"tokenOfOwnerByIndex","inputs":[{"name":"owner","type":"address","internalType":"address"},{"name":"index","type":"uint256","internalType":"uint256"}],"outputs":[{"name":"","type":"uint256","internalType":"uint256"}],"stateMutability":"view"},{"type":"function","name":"tokenURI","inputs":[{"name":"tokenId","type":"uint256","internalType":"uint256"}],"outputs":[{"name":"","type":"string","internalType":"string"}],"stateMutability":"view"},{"type":"function","name":"totalSupply","inputs":[],"outputs":[{"name":"","type":"uint256","internalType":"uint256"}],"stateMutability":"view"},{"type":"function","name":"transferFrom","inputs":[{"name":"","type":"address","internalType":"address"},{"name":"","type":"address","internalType":"address"},{"name":"","type":"uint256","internalType":"uint256"}],"outputs":[],"stateMutability":"nonpayable"},{"type":"function","name":"transferOwnership","inputs":[{"name":"newOwner","type":"address","internalType":"address"}],"outputs":[],"stateMutability":"nonpayable"},{"type":"function","name":"unpause","inputs":[],"outputs":[],"stateMutability":"nonpayable"},{"type":"function","name":"unstake","inputs":[{"name":"validatorAddress","type":"address","internalType":"address"}],"outputs":[],"stateMutability":"nonpayable"},{"type":"function","name":"upgradeStakeVersion","inputs":[{"name":"newConfig","type":"tuple","internalType":"struct IStakeManager.StakeConfig","components":[{"name":"stakeAmount","type":"uint256","internalType":"uint256"},{"name":"minWithdrawAmount","type":"uint256","internalType":"uint256"},{"name":"epochIssuance","type":"uint256","internalType":"uint256"},{"name":"epochDuration","type":"uint32","internalType":"uint32"}]}],"outputs":[{"name":"","type":"uint8","internalType":"uint8"}],"stateMutability":"nonpayable"},{"type":"function","name":"validators","inputs":[{"name":"","type":"address","internalType":"address"}],"outputs":[{"name":"blsPubkey","type":"bytes","internalType":"bytes"},{"name":"validatorAddress","type":"address","internalType":"address"},{"name":"activationEpoch","type":"uint32","internalType":"uint32"},{"name":"exitEpoch","type":"uint32","internalType":"uint32"},{"name":"currentStatus","type":"uint8","internalType":"enum IConsensusRegistry.ValidatorStatus"},{"name":"isRetired","type":"bool","internalType":"bool"},{"name":"isDelegated","type":"bool","internalType":"bool"},{"name":"stakeVersion","type":"uint8","internalType":"uint8"}],"stateMutability":"view"},{"type":"event","name":"Approval","inputs":[{"name":"owner","type":"address","indexed":true,"internalType":"address"},{"name":"approved","type":"address","indexed":true,"internalType":"address"},{"name":"tokenId","type":"uint256","indexed":true,"internalType":"uint256"}],"anonymous":false},{"type":"event","name":"ApprovalForAll","inputs":[{"name":"owner","type":"address","indexed":true,"internalType":"address"},{"name":"operator","type":"address","indexed":true,"internalType":"address"},{"name":"approved","type":"bool","indexed":false,"internalType":"bool"}],"anonymous":false},{"type":"event","name":"NewEpoch","inputs":[{"name":"epoch","type":"tuple","indexed":false,"internalType":"struct IConsensusRegistry.EpochInfo","components":[{"name":"committee","type":"address[]","internalType":"address[]"},{"name":"epochIssuance","type":"uint256","internalType":"uint256"},{"name":"blockHeight","type":"uint64","internalType":"uint64"},{"name":"epochDuration","type":"uint32","internalType":"uint32"},{"name":"stakeVersion","type":"uint8","internalType":"uint8"}]}],"anonymous":false},{"type":"event","name":"NextCommitteeSizeUpdated","inputs":[{"name":"oldSize","type":"uint16","indexed":false,"internalType":"uint16"},{"name":"newSize","type":"uint16","indexed":false,"internalType":"uint16"},{"name":"numActiveValidators","type":"uint256","indexed":false,"internalType":"uint256"}],"anonymous":false},{"type":"event","name":"OwnershipTransferred","inputs":[{"name":"previousOwner","type":"address","indexed":true,"internalType":"address"},{"name":"newOwner","type":"address","indexed":true,"internalType":"address"}],"anonymous":false},{"type":"event","name":"Paused","inputs":[{"name":"account","type":"address","indexed":false,"internalType":"address"}],"anonymous":false},{"type":"event","name":"RewardsClaimed","inputs":[{"name":"claimant","type":"address","indexed":false,"internalType":"address"},{"name":"rewards","type":"uint256","indexed":false,"internalType":"uint256"}],"anonymous":false},{"type":"event","name":"Transfer","inputs":[{"name":"from","type":"address","indexed":true,"internalType":"address"},{"name":"to","type":"address","indexed":true,"internalType":"address"},{"name":"tokenId","type":"uint256","indexed":true,"internalType":"uint256"}],"anonymous":false},{"type":"event","name":"Unpaused","inputs":[{"name":"account","type":"address","indexed":false,"internalType":"address"}],"anonymous":false},{"type":"event","name":"ValidatorActivated","inputs":[{"name":"validator","type":"tuple","indexed":false,"internalType":"struct IConsensusRegistry.ValidatorInfo","components":[{"name":"blsPubkey","type":"bytes","internalType":"bytes"},{"name":"validatorAddress","type":"address","internalType":"address"},{"name":"activationEpoch","type":"uint32","internalType":"uint32"},{"name":"exitEpoch","type":"uint32","internalType":"uint32"},{"name":"currentStatus","type":"uint8","internalType":"enum IConsensusRegistry.ValidatorStatus"},{"name":"isRetired","type":"bool","internalType":"bool"},{"name":"isDelegated","type":"bool","internalType":"bool"},{"name":"stakeVersion","type":"uint8","internalType":"uint8"}]}],"anonymous":false},{"type":"event","name":"ValidatorExited","inputs":[{"name":"validator","type":"tuple","indexed":false,"internalType":"struct IConsensusRegistry.ValidatorInfo","components":[{"name":"blsPubkey","type":"bytes","internalType":"bytes"},{"name":"validatorAddress","type":"address","internalType":"address"},{"name":"activationEpoch","type":"uint32","internalType":"uint32"},{"name":"exitEpoch","type":"uint32","internalType":"uint32"},{"name":"currentStatus","type":"uint8","internalType":"enum IConsensusRegistry.ValidatorStatus"},{"name":"isRetired","type":"bool","internalType":"bool"},{"name":"isDelegated","type":"bool","internalType":"bool"},{"name":"stakeVersion","type":"uint8","internalType":"uint8"}]}],"anonymous":false},{"type":"event","name":"ValidatorPendingActivation","inputs":[{"name":"validator","type":"tuple","indexed":false,"internalType":"struct IConsensusRegistry.ValidatorInfo","components":[{"name":"blsPubkey","type":"bytes","internalType":"bytes"},{"name":"validatorAddress","type":"address","internalType":"address"},{"name":"activationEpoch","type":"uint32","internalType":"uint32"},{"name":"exitEpoch","type":"uint32","internalType":"uint32"},{"name":"currentStatus","type":"uint8","internalType":"enum IConsensusRegistry.ValidatorStatus"},{"name":"isRetired","type":"bool","internalType":"bool"},{"name":"isDelegated","type":"bool","internalType":"bool"},{"name":"stakeVersion","type":"uint8","internalType":"uint8"}]}],"anonymous":false},{"type":"event","name":"ValidatorPendingExit","inputs":[{"name":"validator","type":"tuple","indexed":false,"internalType":"struct IConsensusRegistry.ValidatorInfo","components":[{"name":"blsPubkey","type":"bytes","internalType":"bytes"},{"name":"validatorAddress","type":"address","internalType":"address"},{"name":"activationEpoch","type":"uint32","internalType":"uint32"},{"name":"exitEpoch","type":"uint32","internalType":"uint32"},{"name":"currentStatus","type":"uint8","internalType":"enum IConsensusRegistry.ValidatorStatus"},{"name":"isRetired","type":"bool","internalType":"bool"},{"name":"isDelegated","type":"bool","internalType":"bool"},{"name":"stakeVersion","type":"uint8","internalType":"uint8"}]}],"anonymous":false},{"type":"event","name":"ValidatorRetired","inputs":[{"name":"validator","type":"tuple","indexed":false,"internalType":"struct IConsensusRegistry.ValidatorInfo","components":[{"name":"blsPubkey","type":"bytes","internalType":"bytes"},{"name":"validatorAddress","type":"address","internalType":"address"},{"name":"activationEpoch","type":"uint32","internalType":"uint32"},{"name":"exitEpoch","type":"uint32","internalType":"uint32"},{"name":"currentStatus","type":"uint8","internalType":"enum IConsensusRegistry.ValidatorStatus"},{"name":"isRetired","type":"bool","internalType":"bool"},{"name":"isDelegated","type":"bool","internalType":"bool"},{"name":"stakeVersion","type":"uint8","internalType":"uint8"}]}],"anonymous":false},{"type":"event","name":"ValidatorSlashed","inputs":[{"name":"slash","type":"tuple","indexed":false,"internalType":"struct Slash","components":[{"name":"validatorAddress","type":"address","internalType":"address"},{"name":"amount","type":"uint256","internalType":"uint256"}]}],"anonymous":false},{"type":"event","name":"ValidatorStaked","inputs":[{"name":"validator","type":"tuple","indexed":false,"internalType":"struct IConsensusRegistry.ValidatorInfo","components":[{"name":"blsPubkey","type":"bytes","internalType":"bytes"},{"name":"validatorAddress","type":"address","internalType":"address"},{"name":"activationEpoch","type":"uint32","internalType":"uint32"},{"name":"exitEpoch","type":"uint32","internalType":"uint32"},{"name":"currentStatus","type":"uint8","internalType":"enum IConsensusRegistry.ValidatorStatus"},{"name":"isRetired","type":"bool","internalType":"bool"},{"name":"isDelegated","type":"bool","internalType":"bool"},{"name":"stakeVersion","type":"uint8","internalType":"uint8"}]}],"anonymous":false},{"type":"error","name":"AlreadyDefined","inputs":[{"name":"validatorAddress","type":"address","internalType":"address"}]},{"type":"error","name":"CommitteeRequirement","inputs":[{"name":"validatorAddress","type":"address","internalType":"address"}]},{"type":"error","name":"DuplicateBLSPubkey","inputs":[]},{"type":"error","name":"ERC721EnumerableForbiddenBatchMint","inputs":[]},{"type":"error","name":"ERC721IncorrectOwner","inputs":[{"name":"sender","type":"address","internalType":"address"},{"name":"tokenId","type":"uint256","internalType":"uint256"},{"name":"owner","type":"address","internalType":"address"}]},{"type":"error","name":"ERC721InsufficientApproval","inputs":[{"name":"operator","type":"address","internalType":"address"},{"name":"tokenId","type":"uint256","internalType":"uint256"}]},{"type":"error","name":"ERC721InvalidApprover","inputs":[{"name":"approver","type":"address","internalType":"address"}]},{"type":"error","name":"ERC721InvalidOperator","inputs":[{"name":"operator","type":"address","internalType":"address"}]},{"type":"error","name":"ERC721InvalidOwner","inputs":[{"name":"owner","type":"address","internalType":"address"}]},{"type":"error","name":"ERC721InvalidReceiver","inputs":[{"name":"receiver","type":"address","internalType":"address"}]},{"type":"error","name":"ERC721InvalidSender","inputs":[{"name":"sender","type":"address","internalType":"address"}]},{"type":"error","name":"ERC721NonexistentToken","inputs":[{"name":"tokenId","type":"uint256","internalType":"uint256"}]},{"type":"error","name":"ERC721OutOfBoundsIndex","inputs":[{"name":"owner","type":"address","internalType":"address"},{"name":"index","type":"uint256","internalType":"uint256"}]},{"type":"error","name":"EnforcedPause","inputs":[]},{"type":"error","name":"ExpectedPause","inputs":[]},{"type":"error","name":"GenesisArityMismatch","inputs":[]},{"type":"error","name":"IneligibleUnstake","inputs":[{"name":"validator","type":"tuple","internalType":"struct IConsensusRegistry.ValidatorInfo","components":[{"name":"blsPubkey","type":"bytes","internalType":"bytes"},{"name":"validatorAddress","type":"address","internalType":"address"},{"name":"activationEpoch","type":"uint32","internalType":"uint32"},{"name":"exitEpoch","type":"uint32","internalType":"uint32"},{"name":"currentStatus","type":"uint8","internalType":"enum IConsensusRegistry.ValidatorStatus"},{"name":"isRetired","type":"bool","internalType":"bool"},{"name":"isDelegated","type":"bool","internalType":"bool"},{"name":"stakeVersion","type":"uint8","internalType":"uint8"}]}]},{"type":"error","name":"InsufficientRewards","inputs":[{"name":"withdrawAmount","type":"uint256","internalType":"uint256"}]},{"type":"error","name":"InvalidBLSPubkey","inputs":[]},{"type":"error","name":"InvalidCommitteeSize","inputs":[{"name":"minCommitteeSize","type":"uint256","internalType":"uint256"},{"name":"providedCommitteeSize","type":"uint256","internalType":"uint256"}]},{"type":"error","name":"InvalidDuration","inputs":[{"name":"duration","type":"uint32","internalType":"uint32"}]},{"type":"error","name":"InvalidEpoch","inputs":[{"name":"epoch","type":"uint32","internalType":"uint32"}]},{"type":"error","name":"InvalidProofOfPossession","inputs":[{"name":"proof","type":"tuple","internalType":"struct BlsG1.ProofOfPossession","components":[{"name":"uncompressedPubkey","type":"bytes","internalType":"bytes"},{"name":"uncompressedSignature","type":"bytes","internalType":"bytes"}]},{"name":"message","type":"bytes","internalType":"bytes"}]},{"type":"error","name":"InvalidStakeAmount","inputs":[{"name":"stakeAmount","type":"uint256","internalType":"uint256"}]},{"type":"error","name":"InvalidStatus","inputs":[{"name":"status","type":"uint8","internalType":"enum IConsensusRegistry.ValidatorStatus"}]},{"type":"error","name":"InvalidSupply","inputs":[]},{"type":"error","name":"InvalidTokenId","inputs":[{"name":"tokenId","type":"uint256","internalType":"uint256"}]},{"type":"error","name":"InvalidValidatorAddress","inputs":[]},{"type":"error","name":"NotRecipient","inputs":[{"name":"recipient","type":"address","internalType":"address"}]},{"type":"error","name":"NotTransferable","inputs":[]},{"type":"error","name":"NotValidator","inputs":[{"name":"validatorAddress","type":"address","internalType":"address"}]},{"type":"error","name":"OnlySystemCall","inputs":[{"name":"invalidCaller","type":"address","internalType":"address"}]},{"type":"error","name":"OwnableInvalidOwner","inputs":[{"name":"owner","type":"address","internalType":"address"}]},{"type":"error","name":"OwnableUnauthorizedAccount","inputs":[{"name":"account","type":"address","internalType":"address"}]},{"type":"error","name":"Reentrancy","inputs":[]},{"type":"error","name":"RequiresConsensusNFT","inputs":[]},{"type":"error","name":"StringsInsufficientHexLength","inputs":[{"name":"value","type":"uint256","internalType":"uint256"},{"name":"length","type":"uint256","internalType":"uint256"}]}],"bytecode":{"object":"0x610120604052348015610010575f80fd5b5060405161828038038061828083398101604081905261002f916115c5565b806040518060400160405280600c81526020016b10dbdb9cd95b9cdd5cd3919560a21b8152506040518060400160405280600481526020016310d3919560e21b8152508181815f90816100829190611705565b50600161008f8282611705565b505030608052504660a0526060806100ef604080518082018252601481527f54656c636f696e205374616b654d616e61676572000000000000000000000000602080830191909152825180840190935260018352603160f81b9083015291565b815160209283012081519183019190912060c082905260e0819052604080517f8b73c3c69bb8fe3d512ecc4cf759cc79239f7b179b0ffacaa9a75d522b39400f8152938401929092529082015246606082015230608082015260a09020610100525050506001600160a01b038216905061018357604051631e4fbdf760e01b81525f60048201526024015b60405180910390fd5b61018c816107eb565b508251158061019d57508151835114155b156101bb57604051633aa3e03360e01b815260040160405180910390fd5b5f808052600a602090815285517f13da86008ba1c6922daee3e07db95305ef49ebced9f5467a0b8613fcc6b343e3558501517f13da86008ba1c6922daee3e07db95305ef49ebced9f5467a0b8613fcc6b343e45560408501517f13da86008ba1c6922daee3e07db95305ef49ebced9f5467a0b8613fcc6b343e55560608501517f13da86008ba1c6922daee3e07db95305ef49ebced9f5467a0b8613fcc6b343e6805463ffffffff191663ffffffff9092169190911790558351600d805461ffff60d81b1916600160d81b61ffff909316929092029190911790555b600281116102ff575f601082600481106102b3576102b36117bf565b60030201905085606001518160020160086101000a81548163ffffffff021916908363ffffffff1602179055508560400151816001018190555050806102f8906117e7565b9050610297565b505f5b83518110156107e1575f84828151811061031e5761031e6117bf565b602002602001015190505f61035a85848151811061033e5761033e6117bf565b60200260200101518360200151845f015161084660201b60201c565b60208301519091506001600160a01b03166103885760405163713ce51160e01b815260040160405180910390fd5b604082015163ffffffff16156103bf576040808301519051634fadd4d360e11b815263ffffffff909116600482015260240161017a565b606082015163ffffffff16156103f6576060820151604051634fadd4d360e11b815263ffffffff909116600482015260240161017a565b60038260800151600681111561040e5761040e6117ff565b14610432578160800151604051633ba7bf8960e11b815260040161017a9190611833565b60a082015115610458576005604051633ba7bf8960e11b815260040161017a9190611833565b60c0820151151560010361052a576040805160a081018252828152602084810180516001600160a01b039081168385019081528982168587019081525f60608701818152600160808901818152965186168352600c90975297902095518655905193850180546001600160a01b0319169483169490941790935591516002909301805494519151939092166001600160a81b031990941693909317600160a01b60ff9094169390930292909217600160a81b600160e81b031916600160a81b6001600160401b03909216919091021790555b60e082015160ff161561055b5760e082015160405163222d164360e21b815260ff909116600482015260240161017a565b5f5b600281116106195760108160048110610578576105786117bf565b6020858101516003929092029290920180546001810182555f91825292902090910180546001600160a01b0319166001600160a01b03909216919091179055601c81600481106105ca576105ca6117bf565b6020858101516003929092029290920180546001810182555f91825292902090910180546001600160a01b0319166001600160a01b03909216919091179055610612816117e7565b905061055d565b506020808301516001600160a01b03165f908152600e90915260409020825183919081906106479082611705565b5060208201516001820180546040850151606086015163ffffffff908116600160c01b0263ffffffff60c01b1991909216600160a01b026001600160c01b03199093166001600160a01b0390951694909417919091179283168117825560808501519260ff60e01b1990911664ffffffffff60c01b1990911617600160e01b8360068111156106d8576106d86117ff565b021790555060a08201516001909101805460c084015160e09094015160ff16600160f81b026001600160f81b03941515600160f01b0260ff60f01b19941515600160e81b029490941661ffff60e81b199092169190911792909217929092161790558651602080840180516001600160a01b039081165f908152600b84526040808220959095558251868252600f909452939093208054929093166001600160a01b031990921691909117909155516107a09061079b816001600160a01b031690565b610a27565b7f31845bad1fcdd92490e8d85605449863a562ea940e37b380a276e440683fdb72826040516107cf919061186f565b60405180910390a15050600101610302565b5050505050611a97565b600d80546001600160a01b038381166201000081810262010000600160b01b031985161790945560405193909204169182907f8be0079c531659141344cd1fd0a4f28419497f9722a3daafe3b4186f6b6457e0905f90a35050565b5f8151606014610869576040516333a234f960e11b815260040160405180910390fd5b83515f906108779085610a8d565b855160405163a691a08b60e01b81529192505f9173__$2ef4e8110a3eaa1255da7f08f8eebcbf5a$__9163a691a08b916108b4919060040161190e565b5f60405180830381865af41580156108ce573d5f803e3d5ffd5b505050506040513d5f823e601f3d908101601f191682016040526108f59190810190611927565b90505f73__$2ef4e8110a3eaa1255da7f08f8eebcbf5a$__633d2a9e1188602001516040518263ffffffff1660e01b8152600401610933919061190e565b5f60405180830381865af415801561094d573d5f803e3d5ffd5b505050506040513d5f823e601f3d908101601f191682016040526109749190810190611927565b604051634f98273b60e01b815290915073__$2ef4e8110a3eaa1255da7f08f8eebcbf5a$__90634f98273b906109b290859085908890600401611958565b602060405180830381865af41580156109cd573d5f803e3d5ffd5b505050506040513d601f19601f820116820180604052508101906109f1919061199a565b610a12578683604051634babb8f160e01b815260040161017a9291906119b3565b610a1c8587610bdb565b979650505050505050565b6001600160a01b038216610a5057604051633250574960e11b81525f600482015260240161017a565b5f610a5c838383610c4a565b90506001600160a01b03811615610a88576040516339e3563760e11b81525f600482015260240161017a565b505050565b60605f73__$2ef4e8110a3eaa1255da7f08f8eebcbf5a$__63a691a08b856040518263ffffffff1660e01b8152600401610ac7919061190e565b5f60405180830381865af4158015610ae1573d5f803e3d5ffd5b505050506040513d5f823e601f3d908101601f19168201604052610b089190810190611927565b6040516329bd7cc960e21b815290915073__$2ef4e8110a3eaa1255da7f08f8eebcbf5a$__9063a6f5f32490610b4290849060040161190e565b602060405180830381865af4158015610b5d573d5f803e3d5ffd5b505050506040513d601f19601f82011682018060405250810190610b81919061199a565b610b9e576040516333a234f960e11b815260040160405180910390fd5b604051610bc29061d50160d81b908690600560fa1b90606088901b90602001611a08565b6040516020818303038152906040529150505b92915050565b81516020808401919091205f818152600f9092526040909120546001600160a01b031615610c1c57604051638d12779f60e01b815260040160405180910390fd5b5f818152600f6020526040902080546001600160a01b0384166001600160a01b031990911617905592915050565b5f80610c57858585610d1d565b90506001600160a01b038116610cb357610cae84600880545f838152600960205260408120829055600182018355919091527ff3f7a9fe364faab93b216da50a3214154f22a0a2b415b23a84c8169e8b636ee30155565b610cd6565b846001600160a01b0316816001600160a01b031614610cd657610cd68185610e0f565b6001600160a01b038516610cf257610ced84610e8c565b610d15565b846001600160a01b0316816001600160a01b031614610d1557610d158585610f33565b949350505050565b5f828152600260205260408120546001600160a01b0390811690831615610d4957610d49818486610f81565b6001600160a01b03811615610d8357610d645f858180610fe5565b6001600160a01b0381165f90815260036020526040902080545f190190555b6001600160a01b03851615610db1576001600160a01b0385165f908152600360205260409020805460010190555b5f8481526002602052604080822080546001600160a01b0319166001600160a01b0389811691821790925591518793918516917fddf252ad1be2c89b69c2b068fc378daa952ba7f163c4a11628f55a4df523b3ef91a4949350505050565b5f610e1983611107565b5f838152600760209081526040808320546001600160a01b0388168452600690925290912091925090818314610e6e575f83815260208281526040808320548584528184208190558352600790915290208290555b5f938452600760209081526040808620869055938552525081205550565b6008545f90610e9d90600190611a70565b5f8381526009602052604081205460088054939450909284908110610ec457610ec46117bf565b905f5260205f20015490508060088381548110610ee357610ee36117bf565b5f918252602080832090910192909255828152600990915260408082208490558582528120556008805480610f1a57610f1a611a83565b600190038181905f5260205f20015f9055905550505050565b5f6001610f3f84611107565b610f499190611a70565b6001600160a01b039093165f908152600660209081526040808320868452825280832085905593825260079052919091209190915550565b610f8c83838361114c565b610a88576001600160a01b038316610fba57604051637e27328960e01b81526004810182905260240161017a565b60405163177e802f60e01b81526001600160a01b03831660048201526024810182905260440161017a565b8080610ff957506001600160a01b03821615155b156110d8575f611008846111cc565b90506001600160a01b038316158015906110345750826001600160a01b0316816001600160a01b031614155b801561106557506001600160a01b038082165f9081526005602090815260408083209387168352929052205460ff16155b1561108e5760405163a9fbf51f60e01b81526001600160a01b038416600482015260240161017a565b81156110d65783856001600160a01b0316826001600160a01b03167f8c5be1e5ebec7d5bd14f71427d1e84f3dd0314c0f7b2291e5b200ac8c7c3b92560405160405180910390a45b505b50505f90815260046020526040902080546001600160a01b0319166001600160a01b0392909216919091179055565b5f6001600160a01b038216611131576040516322718ad960e21b81525f600482015260240161017a565b506001600160a01b03165f9081526003602052604090205490565b5f6001600160a01b03831615801590610d155750826001600160a01b0316846001600160a01b031614806111a457506001600160a01b038085165f9081526005602090815260408083209387168352929052205460ff165b80610d155750505f908152600460205260409020546001600160a01b03908116911614919050565b5f818152600260205260408120546001600160a01b031680610bd557604051637e27328960e01b81526004810184905260240161017a565b634e487b7160e01b5f52604160045260245ffd5b60405161010081016001600160401b038111828210171561123b5761123b611204565b60405290565b604080519081016001600160401b038111828210171561123b5761123b611204565b604051608081016001600160401b038111828210171561123b5761123b611204565b604051601f8201601f191681016001600160401b03811182821017156112ad576112ad611204565b604052919050565b805163ffffffff811681146112c8575f80fd5b919050565b5f6001600160401b038211156112e5576112e5611204565b5060051b60200190565b5f82601f8301126112fe575f80fd5b81516001600160401b0381111561131757611317611204565b61132a601f8201601f1916602001611285565b81815284602083860101111561133e575f80fd5b8160208501602083015e5f918101602001919091529392505050565b80516001600160a01b03811681146112c8575f80fd5b8051600781106112c8575f80fd5b805180151581146112c8575f80fd5b805160ff811681146112c8575f80fd5b5f82601f8301126113ac575f80fd5b81516113bf6113ba826112cd565b611285565b8082825260208201915060208360051b8601019250858311156113e0575f80fd5b602085015b838110156114d15780516001600160401b03811115611402575f80fd5b8601610100818903601f19011215611418575f80fd5b611420611218565b60208201516001600160401b03811115611438575f80fd5b6114478a6020838601016112ef565b8252506114566040830161135a565b6020820152611467606083016112b5565b6040820152611478608083016112b5565b606082015261148960a08301611370565b608082015261149a60c0830161137e565b60a08201526114ab60e0830161137e565b60c08201526114bd610100830161138d565b60e0820152845250602092830192016113e5565b5095945050505050565b5f82601f8301126114ea575f80fd5b81516114f86113ba826112cd565b8082825260208201915060208360051b860101925085831115611519575f80fd5b602085015b838110156114d15780516001600160401b0381111561153b575f80fd5b86016040818903601f19011215611550575f80fd5b611558611241565b60208201516001600160401b03811115611570575f80fd5b61157f8a6020838601016112ef565b82525060408201516001600160401b0381111561159a575f80fd5b6115a98a6020838601016112ef565b602083015250808552505060208301925060208101905061151e565b5f805f8084860360e08112156115d9575f80fd5b60808112156115e6575f80fd5b506115ef611263565b855181526020808701519082015260408087015190820152611613606087016112b5565b606082015260808601519094506001600160401b03811115611633575f80fd5b61163f8782880161139d565b60a087015190945090506001600160401b0381111561165c575f80fd5b611668878288016114db565b92505061167760c0860161135a565b905092959194509250565b600181811c9082168061169657607f821691505b6020821081036116b457634e487b7160e01b5f52602260045260245ffd5b50919050565b601f821115610a8857805f5260205f20601f840160051c810160208510156116df5750805b601f840160051c820191505b818110156116fe575f81556001016116eb565b5050505050565b81516001600160401b0381111561171e5761171e611204565b6117328161172c8454611682565b846116ba565b6020601f821160018114611764575f831561174d5750848201515b5f19600385901b1c1916600184901b1784556116fe565b5f84815260208120601f198516915b828110156117935787850151825560209485019460019092019101611773565b50848210156117b057868401515f19600387901b60f8161c191681555b50505050600190811b01905550565b634e487b7160e01b5f52603260045260245ffd5b634e487b7160e01b5f52601160045260245ffd5b5f600182016117f8576117f86117d3565b5060010190565b634e487b7160e01b5f52602160045260245ffd5b6007811061182f57634e487b7160e01b5f52602160045260245ffd5b9052565b60208101610bd58284611813565b5f81518084528060208401602086015e5f602082860101526020601f19601f83011685010191505092915050565b602081525f8251610100602084015261188c610120840182611841565b905060018060a01b03602085015116604084015263ffffffff604085015116606084015260608401516118c7608085018263ffffffff169052565b5060808401516118da60a0850182611813565b5060a084015180151560c08501525060c084015180151560e08501525060e084015160ff8116610100850152509392505050565b602081525f6119206020830184611841565b9392505050565b5f60208284031215611937575f80fd5b81516001600160401b0381111561194c575f80fd5b610d15848285016112ef565b606081525f61196a6060830186611841565b828103602084015261197c8186611841565b905082810360408401526119908185611841565b9695505050505050565b5f602082840312156119aa575f80fd5b6119208261137e565b604081525f83516040808401526119cd6080840182611841565b90506020850151603f198483030160608501526119ea8282611841565b91505082810360208401526119ff8185611841565b95945050505050565b6001600160d81b03198516815283515f908060208701600585015e7fff00000000000000000000000000000000000000000000000000000000000000949094169190930160058101919091526001600160601b0319919091166006820152601a019392505050565b81810381811115610bd557610bd56117d3565b634e487b7160e01b5f52603160045260245ffd5b60805160a05160c05160e051610100516167ac611ad45f395f613b1601525f613bd001525f613baa01525f613b5a01525f613b3701526167ac5ff3fe608060405260043610610371575f3560e01c80636d3c6275116101c8578063a0201be5116100fd578063c05df7ac1161009d578063eb8535c21161006d578063eb8535c214610a74578063f2888dbb14610aa1578063f2fde38b14610ac0578063fa52c7d814610adf575f80fd5b8063c05df7ac146109f8578063c87b56dd14610a17578063e3716d0414610a36578063e985e9c514610a55575f80fd5b8063b5184324116100d8578063b518432414610981578063b88d4fde14610994578063b97dd9e2146109b3578063babc394f146109e4575f80fd5b8063a0201be514610929578063a22cb46514610948578063a71954ec14610962575f80fd5b806384b0196e116101685780638bb43f3a116101435780638bb43f3a146108b35780638cc05eda146108c65780638da5cb5b146108f257806395d89b4114610915575f80fd5b806384b0196e14610846578063863623bb1461086d57806389afcb4414610894575f80fd5b806379ee54f7116101a357806379ee54f7146107a75780637b55a300146107c65780637d06fdf8146107e55780638456cb5914610832575f80fd5b80636d3c62751461075557806370a0823114610774578063715018a614610793575f80fd5b80633434735f116102a957806359ca93b611610249578063673983311161021957806367398331146106d25780636850eb31146106f85780636a627842146107175780636a92659114610736575f80fd5b806359ca93b6146106595780635c975abb1461067857806362fcde4b146106945780636352211e146106b3575f80fd5b80633894228e116102845780633894228e146105b25780633f4ba83a1461060757806342842e0e1461061b5780634f6ccce71461063a575f80fd5b80633434735f14610564578063355811a71461057e578063374ed18c14610586575f80fd5b806315b5709a116103145780632228dfa0116102ef5780632228dfa0146104f857806323b872dd1461050c5780632b9f4985146105265780632f745c5914610545575f80fd5b806315b5709a1461047457806318160ddd146104ae5780631904bb2e146104cc575f80fd5b8063081812fc1161034f578063081812fc146103eb578063095ea7b3146104225780630a36cdef146104415780630f15f4c014610460575f80fd5b806301ffc9a71461037557806302ae337b146103a957806306fdde03146103ca575b5f80fd5b348015610380575f80fd5b5061039461038f3660046150d5565b610b12565b60405190151581526020015b60405180910390f35b3480156103b4575f80fd5b506103c86103c3366004615137565b610b3c565b005b3480156103d5575f80fd5b506103de610c92565b6040516103a091906151a3565b3480156103f6575f80fd5b5061040a6104053660046151b5565b610d21565b6040516001600160a01b0390911681526020016103a0565b34801561042d575f80fd5b506103c861043c3660046151e2565b610d48565b34801561044c575f80fd5b506103c861045b366004615137565b610d61565b34801561046b575f80fd5b506103c8610f7e565b34801561047f575f80fd5b5061049361048e36600461520a565b610fc7565b604080519384526020840192909252908201526060016103a0565b3480156104b9575f80fd5b506008545b6040519081526020016103a0565b3480156104d7575f80fd5b506104eb6104e636600461520a565b611030565b6040516103a091906152f8565b348015610503575f80fd5b506103c861119a565b348015610517575f80fd5b506103c861043c36600461530a565b348015610531575f80fd5b506103c861054036600461520a565b61125f565b348015610550575f80fd5b506104be61055f3660046151e2565b61137b565b34801561056f575f80fd5b5061040a6002600160a01b0381565b6103c86113de565b348015610591575f80fd5b506105a56105a0366004615355565b611486565b6040516103a09190615370565b3480156105bd575f80fd5b506105d16105cc3660046151b5565b61160f565b604080519485526001600160401b03909316602085015263ffffffff9091169183019190915260ff1660608201526080016103a0565b348015610612575f80fd5b506103c8611656565b348015610626575f80fd5b506103c861063536600461530a565b611668565b348015610645575f80fd5b506104be6106543660046151b5565b611682565b348015610664575f80fd5b506105d16106733660046151b5565b6116d7565b348015610683575f80fd5b50600d54610100900460ff16610394565b34801561069f575f80fd5b506103c86106ae366004615413565b6116e6565b3480156106be575f80fd5b5061040a6106cd3660046151b5565b6117f2565b3480156106dd575f80fd5b506106e66117fc565b60405160ff90911681526020016103a0565b348015610703575f80fd5b506103de6107123660046154f0565b61180e565b348015610722575f80fd5b506103c861073136600461520a565b61195b565b348015610741575f80fd5b50610394610750366004615577565b6119b9565b348015610760575f80fd5b5061039461076f36600461520a565b611a31565b34801561077f575f80fd5b506104be61078e36600461520a565b611abb565b34801561079e575f80fd5b506103c8611b00565b3480156107b2575f80fd5b506104be6107c136600461520a565b611b11565b3480156107d1575f80fd5b506103c86107e03660046155a9565b611b56565b3480156107f0575f80fd5b506107f9611cbd565b6040516103a0919081518152602080830151908201526040808301519082015260609182015163ffffffff169181019190915260800190565b34801561083d575f80fd5b506103c8611d3a565b348015610851575f80fd5b5061085a611d4a565b6040516103a09796959493929190615618565b348015610878575f80fd5b5061040a7307a07a07a07a07a07a07a07a07a07a07a07a07a081565b34801561089f575f80fd5b506103c86108ae36600461520a565b611db1565b6103c86108c136600461573b565b611e64565b3480156108d1575f80fd5b506108e56108e03660046157e2565b6120da565b6040516103a09190615800565b3480156108fd575f80fd5b50600d546201000090046001600160a01b031661040a565b348015610920575f80fd5b506103de612118565b348015610934575f80fd5b506108e5610943366004615355565b612127565b348015610953575f80fd5b506103c861043c366004615870565b34801561096d575f80fd5b506107f961097c3660046158a5565b6121e8565b6103c861098f3660046158c5565b612262565b34801561099f575f80fd5b506103c86109ae36600461592c565b6122f0565b3480156109be575f80fd5b50600d54600160b01b900463ffffffff1660405163ffffffff90911681526020016103a0565b3480156109ef575f80fd5b506105a5612308565b348015610a03575f80fd5b506106e6610a1236600461598f565b6123ff565b348015610a22575f80fd5b506103de610a313660046151b5565b6124b5565b348015610a41575f80fd5b506104be610a503660046159a8565b612525565b348015610a60575f80fd5b50610394610a6f366004615a01565b6125df565b348015610a7f575f80fd5b50600d54600160d81b900461ffff1660405161ffff90911681526020016103a0565b348015610aac575f80fd5b506103c8610abb36600461520a565b61260c565b348015610acb575f80fd5b506103c8610ada36600461520a565b612734565b348015610aea575f80fd5b50610afe610af936600461520a565b61276e565b6040516103a0989796959493929190615a29565b5f6001600160e01b0319821663780e9d6360e01b1480610b365750610b368261285c565b92915050565b336002600160a01b0314610b6a57604051637eb3357160e01b81523360048201526024015b60405180910390fd5b5f5b81811015610c8d5736838383818110610b8757610b87615a91565b604002919091019150610ba2905061076f602083018361520a565b15610bad5750610c85565b60208101803590600b905f90610bc3908561520a565b6001600160a01b03166001600160a01b031681526020019081526020015f20541115610c375760208101803590600b905f90610bff908561520a565b6001600160a01b03166001600160a01b031681526020019081526020015f205f828254610c2c9190615ab9565b90915550610c4c9050565b610c4c610c47602083018361520a565b6128ab565b7f11a09f9b32440d896abff7453bf53f8b26ffcb18dae4dca227f7a76e2acc3a6481604051610c7b9190615acc565b60405180910390a1505b600101610b6c565b505050565b60605f8054610ca090615af5565b80601f0160208091040260200160405190810160405280929190818152602001828054610ccc90615af5565b8015610d175780601f10610cee57610100808354040283529160200191610d17565b820191905f5260205f20905b815481529060010190602001808311610cfa57829003601f168201915b5050505050905090565b5f610d2b82612a1f565b505f828152600460205260409020546001600160a01b0316610b36565b60405163dc8d8db760e01b815260040160405180910390fd5b336002600160a01b0314610d8a57604051637eb3357160e01b8152336004820152602401610b61565b5f80826001600160401b03811115610da457610da4615434565b604051908082528060200260200182016040528015610dcd578160200160208202803683370190505b5090505f5b83811015610eb45736858583818110610ded57610ded615a91565b905060400201905080602001355f03610e065750610eac565b610e1661076f602083018361520a565b15610e215750610eac565b5f600e81610e32602085018561520a565b6001600160a01b0316815260208082019290925260409081015f90812060010154600160f81b900460ff16808252600a8452918120549193509091610e7a9085013583615b2d565b9050610e868188615b44565b965080868681518110610e9b57610e9b615a91565b602002602001018181525050505050505b600101610dd2565b50815f03610ec25750505050565b5f610ecb612308565b6020015190505f5b84811015610f75575f84848381518110610eef57610eef615a91565b602002602001015184610f029190615b2d565b610f0c9190615b6b565b905080600b5f898986818110610f2457610f24615a91565b610f3a926020604090920201908101915061520a565b6001600160a01b03166001600160a01b031681526020019081526020015f205f828254610f679190615b44565b909155505050600101610ed3565b505050505b5050565b610f86612a57565b610f8f33612a80565b50610f9b336001612aee565b335f908152600e60205260409020600d54610fc4908290600160b01b900463ffffffff16612b57565b50565b6001600160a01b0381165f908152600e6020908152604080832060010154600160f81b900460ff16808452600a90925282205482918291826110098783612bd7565b6001600160a01b03979097165f908152600b60205260409020549791969550909350505050565b611038615006565b61104182612a80565b506001600160a01b0382165f908152600e6020526040908190208151610100810190925280548290829061107490615af5565b80601f01602080910402602001604051908101604052809291908181526020018280546110a090615af5565b80156110eb5780601f106110c2576101008083540402835291602001916110eb565b820191905f5260205f20905b8154815290600101906020018083116110ce57829003601f168201915b505050918352505060018201546001600160a01b038116602083015263ffffffff600160a01b820481166040840152600160c01b820416606083015260809091019060ff600160e01b90910416600681111561114957611149615223565b600681111561115a5761115a615223565b81526001919091015460ff600160e81b8204811615156020840152600160f01b8204811615156040840152600160f81b9091041660609091015292915050565b6111a2612a57565b6111ab33612a80565b505f6111b76003612c10565b51600d549091505f90601090600160d01b900460ff16600481106111dd576111dd615a91565b600302015490506111ee8282612ec0565b6111f9336003612aee565b335f908152600e60205260409020600d54600182015463ffffffff600160b01b909204821691600160a01b9091041681101561125057604051634fadd4d360e11b815263ffffffff82166004820152602401610b61565b61125982612efd565b50505050565b611267612a57565b3068929eee149b4bd2126854036112855763ab143c065f526004601cfd5b3068929eee149b4bd212685561129a81612a80565b506001600160a01b0381165f908152600e6020526040812060010154600160f81b900460ff16906112ca83612f55565b9050336001600160a01b038416148015906112ee5750336001600160a01b03821614155b156113175760405163172b4e7560e11b81526001600160a01b0382166004820152602401610b61565b5f611323848385612f84565b604080516001600160a01b0385168152602081018390529192507ffc30cddea38e2bf4d6ea7d3f9ed3b6ad7f176419f4963bd81318067a4aee73fe91015b60405180910390a15050503868929eee149b4bd212685550565b5f61138583611abb565b82106113b65760405163295f44f760e21b81526001600160a01b038416600482015260248101839052604401610b61565b506001600160a01b03919091165f908152600660209081526040808320938352929052205490565b6113e6613039565b6040515f907307a07a07a07a07a07a07a07a07a07a07a07a07a09034908381818185875af1925050503d805f8114611439576040519150601f19603f3d011682016040523d82523d5f602084013e61143e565b606091505b5050905080610fc45760405162461bcd60e51b815260206004820152601460248201527324b6b837b9b9b4b136329031b7b73234ba34b7b760611b6044820152606401610b61565b6040805160a08101825260608082525f6020830181905292820183905281018290526080810191909152600d54600160b01b900463ffffffff166114cb816002615b7e565b63ffffffff168363ffffffff16118061150b575060038163ffffffff161015801561150b57506114fc600382615b9a565b63ffffffff168363ffffffff16105b1561153157604051634fadd4d360e11b815263ffffffff84166004820152602401610b61565b600d54600160d01b900460ff1663ffffffff82811690851611156116045761155a84838361306d565b60408051825460c0602082028301810190935260a0820181815291939284929184918401828280156115b357602002820191905f5260205f20905b81546001600160a01b03168152600190910190602001808311611595575b5050509183525050600182015460208201526002909101546001600160401b0381166040830152600160401b810463ffffffff166060830152600160601b900460ff16608090910152949350505050565b61155a8483836130b5565b6010816004811061161e575f80fd5b6003020160018101546002909101549091506001600160401b03811690600160401b810463ffffffff1690600160601b900460ff1684565b61165e613039565b61166661310b565b565b610c8d83838360405180602001604052805f8152506122f0565b5f61168c60085490565b82106116b45760405163295f44f760e21b81525f600482015260248101839052604401610b61565b600882815481106116c7576116c7615a91565b905f5260205f2001549050919050565b601c816004811061161e575f80fd5b6116ee613039565b8061ffff165f0361174157600d54601090600160d01b900460ff166004811061171957611719615a91565b6003020154604051635700689f60e11b815260048101919091525f6024820152604401610b61565b5f61174c6003612c10565b905080518261ffff161115611784578051604051635700689f60e11b8152600481019190915261ffff83166024820152604401610b61565b600d805461ffff848116600160d81b81810261ffff60d81b1985161790945584516040805195909404909216808552602085019190915291830152907f74cf7ca84b30b723e8b6e3cc569ec2db21f4ba2fcc09d651e5ce6770b91552f99060600160405180910390a1505050565b5f610b3682612a1f565b5f611805612308565b60800151905090565b60605f73__$2ef4e8110a3eaa1255da7f08f8eebcbf5a$__63a691a08b856040518263ffffffff1660e01b815260040161184891906151a3565b5f60405180830381865af4158015611862573d5f803e3d5ffd5b505050506040513d5f823e601f3d908101601f191682016040526118899190810190615bb6565b6040516329bd7cc960e21b815290915073__$2ef4e8110a3eaa1255da7f08f8eebcbf5a$__9063a6f5f324906118c39084906004016151a3565b602060405180830381865af41580156118de573d5f803e3d5ffd5b505050506040513d601f19601f820116820180604052508101906119029190615c2a565b61191f576040516333a234f960e11b815260040160405180910390fd5b6040516119439061d50160d81b908690600560fa1b90606088901b90602001615c5c565b60405160208183030381529060405291505092915050565b611963613039565b61196c81611abb565b15158061197d575061197d81611a31565b156119a657604051639fb0877960e01b81526001600160a01b0382166004820152602401610b61565b610fc4816001600160a01b03811661315e565b5f606082146119c957505f610b36565b5f83836040516119da929190615ca5565b60408051918290039091205f818152600f60205291909120549091506001600160a01b031680611a0e575f92505050610b36565b611a1781611a31565b15611a26575f92505050610b36565b506001949350505050565b5f611a446001600160a01b0383166131bf565b15611a5057505f919050565b5f6001600160a01b0383165f908152600e6020526040902060010154600160e01b900460ff166006811115611a8757611a87615223565b03611a9357505f919050565b506001600160a01b03165f908152600e6020526040902060010154600160e81b900460ff1690565b5f6001600160a01b038216611ae5576040516322718ad960e21b81525f6004820152602401610b61565b506001600160a01b03165f9081526003602052604090205490565b611b08613039565b6116665f613212565b6001600160a01b0381165f908152600e6020908152604080832060010154600160f81b900460ff16808452600a909252822054611b4e8482612bd7565b949350505050565b336002600160a01b0314611b7f57604051637eb3357160e01b8152336004820152602401610b61565b611b89828261326d565b600d54600160d81b900461ffff168114611bcd57600d54604051635700689f60e11b8152600160d81b90910461ffff16600482015260248101829052604401610b61565b5f805f80611c0c8686808060200260200160405190810160405280939291908181526020018383602002808284375f9201919091525061334492505050565b9350935093509350611c1f8686866135f7565b5f611c2a6003612c10565b8051909150611c399087612ec0565b7f8b5b26231ce070df3db9dc1b8450ab40652c76bd68827c7f595414614fa18f376040518060a00160405280848152602001868152602001436001611c7e9190615b44565b6001600160401b0316815263ffffffff86166020820152600d5460ff1660409182015251611cac9190615370565b60405180910390a150505050505050565b611cea60405180608001604052805f81526020015f81526020015f81526020015f63ffffffff1681525090565b50600d5460ff165f908152600a602090815260409182902082516080810184528154815260018201549281019290925260028101549282019290925260039091015463ffffffff16606082015290565b611d42613039565b61166661383b565b600f60f81b6060805f808083611d9f60408051808201825260148152732a32b631b7b4b71029ba30b5b2a6b0b730b3b2b960611b602080830191909152825180840190935260018352603160f81b9083015291565b97989097965046955030945091925090565b611db9613039565b611dc281611a31565b15611de3576006604051633ba7bf8960e11b8152600401610b619190615cb4565b611dec81612a80565b505f6001600160a01b0382165f908152600e6020526040902060010154600160e01b900460ff166006811115611e2457611e24615223565b03611e5b576001600160a01b0381165f908152600e60205260409020611e499061387a565b610fc46001600160a01b0382166138c0565b610fc4816128ab565b611e6c612a57565b5f611ead858589898080601f0160208091040260200160405190810160405280939291908181526020018383808284375f920191909152506138f892505050565b90505f611eb8612308565b6080015190505f611ec93483613ad9565b9050611ed486612a80565b50611edf865f612aee565b6001600160a01b0386165f908152600c60205260409020600201546001600160401b03600160a81b90910416611f24600d546001600160a01b03620100009091041690565b6001600160a01b0316336001600160a01b031614611fd3575f7f9a361e91fa9aa610b5edf1d5c1cc20b9646c4228f3c004354ed2de7635dac9948589338786604051602001611f7896959493929190615cc2565b6040516020818303038152906040528051906020012090505f611f9a82613b14565b9050611fa889828a8a613c2a565b611fd057604051633b4f6e2b60e21b81526001600160a01b038a166004820152602401610b61565b50505b6040518060a00160405280858152602001886001600160a01b03168152602001336001600160a01b031681526020018460ff1681526020018260016120189190615d00565b6001600160401b039081169091526001600160a01b03808a165f908152600c60209081526040918290208551815590850151600180830180549286166001600160a01b03199093169290921790915591850151600290910180546060870151608090970151909516600160a81b0267ffffffffffffffff60a81b1960ff909716600160a01b026001600160a81b0319909616929094169190911793909317939093161790556120ce908b908b908a908787613d1b565b50505050505050505050565b60605f8260068111156120ef576120ef615223565b0361210f5781604051633ba7bf8960e11b8152600401610b619190615cb4565b610b3682612c10565b606060018054610ca090615af5565b60605f61213383611486565b5f015190505f81516001600160401b0381111561215257612152615434565b60405190808252806020026020018201604052801561218b57816020015b612178615006565b8152602001906001900390816121705790505b5090505f5b81518110156121e0576121bb8382815181106121ae576121ae615a91565b6020026020010151611030565b8282815181106121cd576121cd615a91565b6020908102919091010152600101612190565b509392505050565b61221560405180608001604052805f81526020015f81526020015f81526020015f63ffffffff1681525090565b5060ff165f908152600a602090815260409182902082516080810184528154815260018201549281019290925260028101549282019290925260039091015463ffffffff16606082015290565b61226a612a57565b6122aa813385858080601f0160208091040260200160405190810160405280939291908181526020018383808284375f920191909152506138f892505050565b505f6122b4612308565b6080015190505f6122c53483613ad9565b90506122d033612a80565b506122db335f612aee565b6122e98585335f8686613d1b565b5050505050565b6122fb848484610d48565b6112593385858585613f03565b6040805160a08101825260608082525f6020830181905292820183905281018290526080810191909152600d5461235890600160b01b810463ffffffff16908190600160d01b900460ff166130b5565b60408051825460c0602082028301810190935260a0820181815291939284929184918401828280156123b157602002820191905f5260205f20905b81546001600160a01b03168152600190910190602001808311612393575b5050509183525050600182015460208201526002909101546001600160401b0381166040830152600160401b810463ffffffff166060830152600160601b900460ff16608090910152919050565b5f612408613039565b612410612a57565b6124206080830160608401615355565b63ffffffff165f0361245e5761243c6080830160608401615355565b604051630c6e911360e41b815263ffffffff9091166004820152602401610b61565b600d80545f919082906124739060ff16615d1f565b825460ff8083166101009490940a848102910219909116179092555f908152600a6020526040902090915083906124aa8282615d3d565b50909150505b919050565b60606124c082612a1f565b505f6124fb6124ce84614022565b6124d66140d0565b6040516020016124e7929190615d80565b60405160208183030381529060405261411a565b90508060405160200161250e9190615e6f565b604051602081830303815290604052915050919050565b5f61252f83612a80565b505f612539612308565b608001516001600160a01b0385165f908152600c602090815260408083206002015489518a8401209151949550600160a81b90046001600160401b0316939092916125b0917f9a361e91fa9aa610b5edf1d5c1cc20b9646c4228f3c004354ed2de7635dac9949185918b918b918a918a9101615cc2565b6040516020818303038152906040528051906020012090506125d181613b14565b9450505050505b9392505050565b6001600160a01b039182165f90815260056020908152604080832093909416825291909152205460ff1690565b612614612a57565b3068929eee149b4bd2126854036126325763ab143c065f526004601cfd5b3068929eee149b4bd212685561264781612a80565b505f61265282612f55565b9050336001600160a01b038316148015906126765750336001600160a01b03821614155b1561269f5760405163172b4e7560e11b81526001600160a01b0382166004820152602401610b61565b6001600160a01b0382165f908152600e602052604090206126bf81614140565b6126de57806040516371964ca360e11b8152600401610b619190615f1f565b6126e78161387a565b5f6126f284846141e0565b604080516001600160a01b0386168152602081018390529192507ffc30cddea38e2bf4d6ea7d3f9ed3b6ad7f176419f4963bd81318067a4aee73fe9101611361565b61273c613039565b6001600160a01b03811661276557604051631e4fbdf760e01b81525f6004820152602401610b61565b610fc481613212565b600e6020525f908152604090208054819061278890615af5565b80601f01602080910402602001604051908101604052809291908181526020018280546127b490615af5565b80156127ff5780601f106127d6576101008083540402835291602001916127ff565b820191905f5260205f20905b8154815290600101906020018083116127e257829003601f168201915b505050600190930154919250506001600160a01b0381169063ffffffff600160a01b8204811691600160c01b81049091169060ff600160e01b8204811691600160e81b8104821691600160f01b8204811691600160f81b90041688565b5f6001600160e01b031982166380ac58cd60e01b148061288c57506001600160e01b03198216635b5e139f60e01b145b80610b3657506301ffc9a760e01b6001600160e01b0319831614610b36565b6001600160a01b0381165f908152600e6020526040812060018101549091600160e01b90910460ff16906128df6003612c10565b5190506128eb82614344565b156128fe576128fb600182615ab9565b90505b6129088482614397565b5f8061291386610fc7565b506001600160a01b0388165f908152600b6020526040812081905591935091508183106129405781612942565b825b6040519091505f907307a07a07a07a07a07a07a07a07a07a07a07a07a09083908381818185875af1925050503d805f8114612998576040519150601f19603f3d011682016040523d82523d5f602084013e61299d565b606091505b50509050806129e55760405162461bcd60e51b815260206004820152601460248201527324b6b837b9b9b4b136329031b7b73234ba34b7b760611b6044820152606401610b61565b600d54612a00908890600160b01b900463ffffffff16614520565b612a098761387a565b5f612a1389612f55565b90506120ce89826141e0565b5f818152600260205260408120546001600160a01b031680610b3657604051637e27328960e01b815260048101849052602401610b61565b600d54610100900460ff16156116665760405163d93c066560e01b815260040160405180910390fd5b5f6001600160a01b038216612a94816131bf565b612ab45760405163ed15e6cf60e01b815260048101829052602401610b61565b826001600160a01b0316612ac7826117f2565b6001600160a01b031614610b36576040516330fa89ab60e11b815260040160405180910390fd5b6001600160a01b0382165f908152600e6020526040902060010154600160e01b900460ff16816006811115612b2557612b25615223565b816006811115612b3757612b37615223565b14610c8d5780604051633ba7bf8960e11b8152600401610b619190615cb4565b612b62816001615b7e565b60018301805463ffffffff92909216600160a01b0260ff60e01b191668ff00000000ffffffff60a01b1990921691909117600160e11b1790556040517fbdacb030997c2fe9d7ee41c51f5a150138c75b326c7a66f88ced12925f80bc0590612bcb908490615f1f565b60405180910390a15050565b6001600160a01b0382165f908152600b602052604081205481838211612bfd575f612c07565b612c078483615ab9565b95945050505050565b60605f612c1c60085490565b6001600160401b03811115612c3357612c33615434565b604051908082528060200260200182016040528015612c6c57816020015b612c59615006565b815260200190600190039081612c515790505b5090505f805b8251811015612eb7575f612c8b612c8883611682565b90565b6001600160a01b0381165f908152600e60205260409020600181015491925090600160e81b900460ff1615612cc1575050612eaf565b5f6006886006811115612cd657612cd6615223565b14905080612d40576001820154600160e01b900460ff166003896006811115612d0157612d01615223565b03612d1657612d0f81614344565b9150612d3e565b886006811115612d2857612d28615223565b816006811115612d3a57612d3a615223565b1491505b505b8015612eab5781604051806101000160405290815f82018054612d6290615af5565b80601f0160208091040260200160405190810160405280929190818152602001828054612d8e90615af5565b8015612dd95780601f10612db057610100808354040283529160200191612dd9565b820191905f5260205f20905b815481529060010190602001808311612dbc57829003601f168201915b505050918352505060018201546001600160a01b038116602083015263ffffffff600160a01b820481166040840152600160c01b820416606083015260809091019060ff600160e01b909104166006811115612e3757612e37615223565b6006811115612e4857612e48615223565b81526001919091015460ff600160e81b8204811615156020840152600160f01b8204811615156040840152600160f81b909104166060909101528686612e8d81615fb9565b975081518110612e9f57612e9f615a91565b60200260200101819052505b5050505b600101612c72565b50815292915050565b811580612ecb575080155b80612ed557508181115b15610f7a57604051635700689f60e11b81526004810183905260248101829052604401610b61565b60018101805464ffffffffff60c01b19166404ffffffff60c01b1790556040517f537bf236138f80ea8801a391fffc8a42bf0be3b6ea9d336ca2e2164a4c91071c90612f4a908390615f1f565b60405180910390a150565b6001600160a01b038082165f908152600c6020526040812060028101549192909116806125d857509192915050565b5f80612f908584614579565b6001600160a01b0386165f908152600b6020526040812080549293508392909190612fbc908490615ab9565b9091555050604051634875485760e11b81526001600160a01b0385166004820152602481018290527307a07a07a07a07a07a07a07a07a07a07a07a07a0906390ea90ae906044015f604051808303815f87803b15801561301a575f80fd5b505af115801561302c573d5f803e3d5ffd5b5092979650505050505050565b600d546001600160a01b03620100009091041633146116665760405163118cdaa760e01b8152336004820152602401610b61565b5f8060048361307c8688615b9a565b6130869190615fd1565b6130909190615fea565b9050601c8160ff16600481106130a8576130a8615a91565b6003020195945050505050565b5f806130c18585615b9a565b90505f6004826130d18683615fd1565b6130db919061600b565b6130e59190615fea565b905060108160ff16600481106130fd576130fd615a91565b600302019695505050505050565b6131136145d9565b600d805461ff00191690557f5db9ee0a495bf2e6ff9c91a7834c1ba4fdd244a5e8aa4e537bd38aeae4b073aa335b6040516001600160a01b03909116815260200160405180910390a1565b6001600160a01b03821661318757604051633250574960e11b81525f6004820152602401610b61565b5f61319383835f614601565b90506001600160a01b03811615610c8d576040516339e3563760e11b81525f6004820152602401610b61565b5f8115806131d457506001600160a01b038210155b156131f55760405163ed15e6cf60e01b815260048101839052602401610b61565b505f908152600260205260409020546001600160a01b0316151590565b600d80546001600160a01b038381166201000081810262010000600160b01b031985161790945560405193909204169182907f8be0079c531659141344cd1fd0a4f28419497f9722a3daafe3b4186f6b6457e0905f90a35050565b5f5b61327a600183615ab9565b811015610c8d57828261328e836001615b44565b81811061329d5761329d615a91565b90506020020160208101906132b2919061520a565b6001600160a01b03168383838181106132cd576132cd615a91565b90506020020160208101906132e2919061520a565b6001600160a01b03161061333c5782828281811061330257613302615a91565b9050602002016020810190613317919061520a565b60405163836e3a7d60e01b81526001600160a01b039091166004820152602401610b61565b60010161326f565b600d545f9081908190606090600160d01b900460ff16826004613368836001615fd1565b6133729190615fea565b90505f601c8260ff166004811061338b5761338b615a91565b6003020190505f61339a611cbd565b90506040518060a00160405280838054806020026020016040519081016040528092919081815260200182805480156133fa57602002820191905f5260205f20905b81546001600160a01b031681526001909101906020018083116133dc575b5050509183525050604080840151602083015201613419436001615d00565b6001600160401b03168152606083015163ffffffff166020820152600d5460ff90811660409092019190915260109085166004811061345a5761345a615a91565b600302015f820151815f019080519060200190613478929190615049565b506020820151600182015560408201516002909101805460608401516080909401516001600160401b039093166bffffffffffffffffffffffff1990911617600160401b63ffffffff948516021760ff60601b1916600160601b60ff93841602179055600d805460ff60d01b1916600160d01b92871692909202919091178082555f9260169161351091600160b01b90910416616024565b91906101000a81548163ffffffff021916908363ffffffff160217905590505f600485600261353f9190615fd1565b6135499190615fea565b90508a601c8260ff166004811061356257613562615a91565b600302015f01908051906020019061357b929190615049565b50818360400151846060015186808054806020026020016040519081016040528092919081815260200182805480156135db57602002820191905f5260205f20905b81546001600160a01b031681526001909101906020018083116135bd575b5050505050905099509950995099505050505050509193509193565b5f6136026002612c10565b90505f5b8151811015613664575f600e5f84848151811061362557613625615a91565b6020026020010151602001516001600160a01b03166001600160a01b031681526020019081526020015f20905061365b816146cc565b50600101613606565b505f6136706004612c10565b600d54909150600160d01b900460ff165f600461368e836001615fd1565b6136989190615fea565b90505f60108360ff16600481106136b1576136b1615a91565b6003020180546040805160208084028201810190925282815292919083018282801561370457602002820191905f5260205f20905b81546001600160a01b031681526001909101906020018083116136e6575b505050505090505f601c8360ff166004811061372257613722615a91565b6003020180546040805160208084028201810190925282815292919083018282801561377557602002820191905f5260205f20905b81546001600160a01b03168152600190910190602001808311613757575b505050505090505f5b85518110156120ce575f86828151811061379a5761379a615a91565b60200260200101516020015190506137b28185614711565b806137c257506137c28184614711565b806138045750613804818c8c808060200260200160405190810160405280939291908181526020018383602002808284375f9201919091525061471192505050565b1561380f5750613833565b6001600160a01b0381165f908152600e60205260409020613830818b614520565b50505b60010161377e565b613843612a57565b600d805461ff0019166101001790557f62e78cea01bee320cd4e420270b5ea74000d11b0c9f74754ebdbfc544b05a2586131413390565b60018101805461ffff60e01b1916608360e11b1790556040517fb9e0e3d06d30a4b0476d42accfa2ee90a854c961cc7f10ddc965608a97b982b190612f4a908390615f1f565b5f6138cc5f835f614601565b90506001600160a01b038116610f7a57604051637e27328960e01b815260048101839052602401610b61565b5f815160601461391b576040516333a234f960e11b815260040160405180910390fd5b5f613929855f01518561180e565b855160405163a691a08b60e01b81529192505f9173__$2ef4e8110a3eaa1255da7f08f8eebcbf5a$__9163a691a08b9161396691906004016151a3565b5f60405180830381865af4158015613980573d5f803e3d5ffd5b505050506040513d5f823e601f3d908101601f191682016040526139a79190810190615bb6565b90505f73__$2ef4e8110a3eaa1255da7f08f8eebcbf5a$__633d2a9e1188602001516040518263ffffffff1660e01b81526004016139e591906151a3565b5f60405180830381865af41580156139ff573d5f803e3d5ffd5b505050506040513d5f823e601f3d908101601f19168201604052613a269190810190615bb6565b604051634f98273b60e01b815290915073__$2ef4e8110a3eaa1255da7f08f8eebcbf5a$__90634f98273b90613a649085908590889060040161603f565b602060405180830381865af4158015613a7f573d5f803e3d5ffd5b505050506040513d601f19601f82011682018060405250810190613aa39190615c2a565b613ac4578683604051634babb8f160e01b8152600401610b61929190616081565b613ace858761476e565b979650505050505050565b60ff81165f908152600a60205260408120548314613b0d5760405163222d164360e21b815260048101849052602401610b61565b5090919050565b7f00000000000000000000000000000000000000000000000000000000000000007f000000000000000000000000000000000000000000000000000000000000000030147f0000000000000000000000000000000000000000000000000000000000000000461416613c075750604080517f8b73c3c69bb8fe3d512ecc4cf759cc79239f7b179b0ffacaa9a75d522b39400f81527f000000000000000000000000000000000000000000000000000000000000000060208201527f00000000000000000000000000000000000000000000000000000000000000009181019190915246606082015230608082015260a090205b6719010000000000005f5280601a5281603a52604260182090505f603a52919050565b6001600160a01b03909316925f8415611b4e57604051845f5260408303613c915760208481013560ff81901c601b01825285356040526001600160ff1b0316606052600160805f825afa805187183d1517613c8f57505f606052604052506001611b4e565b505b60418303613cd15760408401355f1a6020526040846040376020600160805f60015afa805187183d1517613ccf57505f606052604052506001611b4e565b505b5f60605280604052631626ba7e60e01b80825285600483015260248201604081528460448401528486606485013760208160648701858b5afa905190911416915050949350505050565b604080516101206020601f8901819004028201810190925261010081018781525f928291908a908a90819085018382808284375f9201829052509385525050506001600160a01b038816602083015263ffffffff60408301526060820152608001600181525f602080830182905287151560408085019190915260ff88166060909401939093526001600160a01b0389168252600e905220815191925082918190613dc69082616111565b5060208201516001820180546040850151606086015163ffffffff908116600160c01b0263ffffffff60c01b1991909216600160a01b026001600160c01b03199093166001600160a01b0390951694909417919091179283168117825560808501519260ff60e01b1990911664ffffffffff60c01b1990911617600160e01b836006811115613e5757613e57615223565b021790555060a08201516001909101805460c084015160e09094015160ff16600160f81b026001600160f81b03941515600160f01b0260ff60f01b19941515600160e81b029490941661ffff60e81b199092169190911792909217929092161790556001600160a01b0385165f908152600b602052604090819020839055517f7d89246e6daeb7529685fda2e1f478d9a155eea08675ebecd1bf8c0e572382fd90611cac9083906152f8565b6001600160a01b0383163b156122e957604051630a85bd0160e11b81526001600160a01b0384169063150b7a0290613f459088908890879087906004016161cb565b6020604051808303815f875af1925050508015613f7f575060408051601f3d908101601f19168201909252613f7c918101906161fd565b60015b613fe6573d808015613fac576040519150601f19603f3d011682016040523d82523d5f602084013e613fb1565b606091505b5080515f03613fde57604051633250574960e11b81526001600160a01b0385166004820152602401610b61565b805181602001fd5b6001600160e01b03198116630a85bd0160e11b14610f7557604051633250574960e11b81526001600160a01b0385166004820152602401610b61565b60605f61402e836147dd565b6028602282012090915060601c60295b60018111156140c757600782600f161180156140735750606083828151811061406957614069615a91565b016020015160f81c115b156140b057602060f81b83828151811061408f5761408f615a91565b0160200180516001600160f81b0319908116909218909116905f82901a9053505b60049190911c906140c081616218565b905061403e565b50909392505050565b60606140f66040518061052001604052806104ed81526020016162736104ed913961411a565b604051602001614106919061622d565b604051602081830303815290604052905090565b6060610b36826040518060600160405280604081526020016167606040913960016147f3565b6001818101545f91600160e01b90910460ff169081600681111561416657614166615223565b036141745750600192915050565b6001838101545f9161419391600160c01b900463ffffffff1690615b7e565b905060058260068111156141a9576141a9615223565b1480156141c85750600d5463ffffffff808316600160b01b9092041610155b156141d7575060019392505050565b505f9392505050565b5f6141f36001600160a01b0384166138c0565b6008545f03614215576040516315ae672760e01b815260040160405180910390fd5b5f805f61422186610fc7565b925092509250825f0361423957829350505050610b36565b6001600160a01b0386165f908152600b602052604081208190558284106142615750816142c6565b50825f7307a07a07a07a07a07a07a07a07a07a07a07a07a06142838386615ab9565b6040515f81818185875af1925050503d805f81146142bc576040519150601f19603f3d011682016040523d82523d5f602084013e6142c1565b606091505b505050505b604051634875485760e11b81526001600160a01b0387166004820152602481018390527307a07a07a07a07a07a07a07a07a07a07a07a07a0906390ea90ae9083906044015f604051808303818588803b158015614321575f80fd5b505af1158015614333573d5f803e3d5ffd5b50505050508181613ace9190615b44565b5f600382600681111561435957614359615223565b14806143765750600482600681111561437457614374615223565b145b80610b365750600282600681111561439057614390615223565b1492915050565b600d54600160b01b810463ffffffff1690600160d01b900460ff165f6143be8380846130b5565b90505f6143cb828761496d565b90505f816143da5782546143e8565b82546143e890600190615ab9565b90506143f48682612ec0565b5f614400866001615b7e565b90505f61440e82888861306d565b905061441a818a61496d565b935083614428578054614436565b805461443690600190615ab9565b92506144428884612ec0565b5f61444e886002615b7e565b90505f61445c828a8a61306d565b9050614468818c61496d565b955085614476578054614484565b805461448490600190615ab9565b94506144908a86612ec0565b600d54600160d81b900461ffff168a101561451357600d805461ffff8c8116600160d81b90810261ffff60d81b1984161793849055604080519382900483168085529190940490911660208301529181018c90527f74cf7ca84b30b723e8b6e3cc569ec2db21f4ba2fcc09d651e5ce6770b91552f99060600160405180910390a1505b5050505050505050505050565b60018201805463ffffffff8316600160c01b0264ffffffffff60c01b1990911617600560e01b1790556040517f69cb3a026a27d868ccc41f8a2a5e4b59396939b736cf54a110052c9983e8378d90612bcb908490615f1f565b60ff81165f908152600a6020526040812054816145968583612bd7565b90508015806145b8575060ff84165f908152600a602052604090206001015481105b15611b4e57604051633737b70960e11b815260048101829052602401610b61565b600d54610100900460ff1661166657604051638dfc202b60e01b815260040160405180910390fd5b5f8061460e858585614a68565b90506001600160a01b03811661466a5761466584600880545f838152600960205260408120829055600182018355919091527ff3f7a9fe364faab93b216da50a3214154f22a0a2b415b23a84c8169e8b636ee30155565b61468d565b846001600160a01b0316816001600160a01b03161461468d5761468d8185614b5a565b6001600160a01b0385166146a9576146a484614bd7565b611b4e565b846001600160a01b0316816001600160a01b031614611b4e57611b4e8585614c7e565b60018101805460ff60e01b1916600360e01b1790556040517f31845bad1fcdd92490e8d85605449863a562ea940e37b380a276e440683fdb7290612f4a908390615f1f565b80515f90815b8181101561476457846001600160a01b031684828151811061473b5761473b615a91565b60200260200101516001600160a01b03160361475c57600192505050610b36565b600101614717565b505f949350505050565b81516020808401919091205f818152600f9092526040909120546001600160a01b0316156147af57604051638d12779f60e01b815260040160405180910390fd5b5f818152600f6020526040902080546001600160a01b0384166001600160a01b031990911617905592915050565b6060610b366001600160a01b0383166014614ccc565b606083515f03614811575060408051602081019091525f81526125d8565b5f82614841576003855160046148279190615b2d565b614832906002615b44565b61483c9190615b6b565b614866565b6003855160026148519190615b44565b61485b9190615b6b565b614866906004615b2d565b90505f816001600160401b0381111561488157614881615434565b6040519080825280601f01601f1916602001820160405280156148ab576020820181803683370190505b509050600185016020820187885189016020810180515f82525b82841015614920576003840193508351603f8160121c168701518653600186019550603f81600c1c168701518653600186019550603f8160061c168701518653600186019550603f81168701518653506001850194506148c5565b9052505085156149615760038851066001811461494457600281146149575761495f565b603d6001830353603d600283035361495f565b603d60018303535b505b50909695505050505050565b81545f90815b8181101561476457836001600160a01b031685828154811061499757614997615a91565b5f918252602090912001546001600160a01b031603614a6057846149bc600184615ab9565b815481106149cc576149cc615a91565b905f5260205f20015f9054906101000a90046001600160a01b03168582815481106149f9576149f9615a91565b905f5260205f20015f6101000a8154816001600160a01b0302191690836001600160a01b0316021790555084805480614a3457614a3461625e565b5f8281526020902081015f1990810180546001600160a01b03191690550190555060019150610b369050565b600101614973565b5f828152600260205260408120546001600160a01b0390811690831615614a9457614a94818486614e3d565b6001600160a01b03811615614ace57614aaf5f855f80614ea1565b6001600160a01b0381165f90815260036020526040902080545f190190555b6001600160a01b03851615614afc576001600160a01b0385165f908152600360205260409020805460010190555b5f8481526002602052604080822080546001600160a01b0319166001600160a01b0389811691821790925591518793918516917fddf252ad1be2c89b69c2b068fc378daa952ba7f163c4a11628f55a4df523b3ef91a4949350505050565b5f614b6483611abb565b5f838152600760209081526040808320546001600160a01b0388168452600690925290912091925090818314614bb9575f83815260208281526040808320548584528184208190558352600790915290208290555b5f938452600760209081526040808620869055938552525081205550565b6008545f90614be890600190615ab9565b5f8381526009602052604081205460088054939450909284908110614c0f57614c0f615a91565b905f5260205f20015490508060088381548110614c2e57614c2e615a91565b5f918252602080832090910192909255828152600990915260408082208490558582528120556008805480614c6557614c6561625e565b600190038181905f5260205f20015f9055905550505050565b5f6001614c8a84611abb565b614c949190615ab9565b6001600160a01b039093165f908152600660209081526040808320868452825280832085905593825260079052919091209190915550565b6060825f614cdb846002615b2d565b614ce6906002615b44565b6001600160401b03811115614cfd57614cfd615434565b6040519080825280601f01601f191660200182016040528015614d27576020820181803683370190505b509050600360fc1b815f81518110614d4157614d41615a91565b60200101906001600160f81b03191690815f1a905350600f60fb1b81600181518110614d6f57614d6f615a91565b60200101906001600160f81b03191690815f1a9053505f614d91856002615b2d565b614d9c906001615b44565b90505b6001811115614e13576f181899199a1a9b1b9c1cb0b131b232b360811b83600f1660108110614dd057614dd0615a91565b1a60f81b828281518110614de657614de6615a91565b60200101906001600160f81b03191690815f1a90535060049290921c91614e0c81616218565b9050614d9f565b508115611b4e5760405163e22e27eb60e01b81526004810186905260248101859052604401610b61565b614e48838383614fa5565b610c8d576001600160a01b038316614e7657604051637e27328960e01b815260048101829052602401610b61565b60405163177e802f60e01b81526001600160a01b038316600482015260248101829052604401610b61565b8080614eb557506001600160a01b03821615155b15614f76575f614ec484612a1f565b90506001600160a01b03831615801590614ef05750826001600160a01b0316816001600160a01b031614155b8015614f035750614f0181846125df565b155b15614f2c5760405163a9fbf51f60e01b81526001600160a01b0384166004820152602401610b61565b8115614f745783856001600160a01b0316826001600160a01b03167f8c5be1e5ebec7d5bd14f71427d1e84f3dd0314c0f7b2291e5b200ac8c7c3b92560405160405180910390a45b505b50505f90815260046020526040902080546001600160a01b0319166001600160a01b0392909216919091179055565b5f6001600160a01b03831615801590611b4e5750826001600160a01b0316846001600160a01b03161480614fde5750614fde84846125df565b80611b4e5750505f908152600460205260409020546001600160a01b03908116911614919050565b604080516101008101825260608082525f60208301819052928201839052810182905290608082019081525f602082018190526040820181905260609091015290565b828054828255905f5260205f2090810192821561509c579160200282015b8281111561509c57825182546001600160a01b0319166001600160a01b03909116178255602090920191600190910190615067565b506150a89291506150ac565b5090565b5b808211156150a8575f81556001016150ad565b6001600160e01b031981168114610fc4575f80fd5b5f602082840312156150e5575f80fd5b81356125d8816150c0565b5f8083601f840112615100575f80fd5b5081356001600160401b03811115615116575f80fd5b6020830191508360208260061b8501011115615130575f80fd5b9250929050565b5f8060208385031215615148575f80fd5b82356001600160401b0381111561515d575f80fd5b615169858286016150f0565b90969095509350505050565b5f81518084528060208401602086015e5f602082860101526020601f19601f83011685010191505092915050565b602081525f6125d86020830184615175565b5f602082840312156151c5575f80fd5b5035919050565b80356001600160a01b03811681146124b0575f80fd5b5f80604083850312156151f3575f80fd5b6151fc836151cc565b946020939093013593505050565b5f6020828403121561521a575f80fd5b6125d8826151cc565b634e487b7160e01b5f52602160045260245ffd5b6007811061525357634e487b7160e01b5f52602160045260245ffd5b9052565b5f8151610100845261526d610100850182615175565b905060018060a01b03602084015116602085015263ffffffff604084015116604085015260608301516152a8606086018263ffffffff169052565b5060808301516152bb6080860182615237565b5060a08301516152cf60a086018215159052565b5060c08301516152e360c086018215159052565b5060e08301516121e060e086018260ff169052565b602081525f6125d86020830184615257565b5f805f6060848603121561531c575f80fd5b615325846151cc565b9250615333602085016151cc565b929592945050506040919091013590565b63ffffffff81168114610fc4575f80fd5b5f60208284031215615365575f80fd5b81356125d881615344565b6020808252825160a083830152805160c084018190525f929190910190829060e08501905b808310156153c05783516001600160a01b031682526020938401936001939093019290910190615395565b5060208601516040860152604086015192506153e760608601846001600160401b03169052565b606086015163ffffffff811660808701529250608086015160ff811660a0870152925095945050505050565b5f60208284031215615423575f80fd5b813561ffff811681146125d8575f80fd5b634e487b7160e01b5f52604160045260245ffd5b604051601f8201601f191681016001600160401b038111828210171561547057615470615434565b604052919050565b5f6001600160401b0382111561549057615490615434565b50601f01601f191660200190565b5f82601f8301126154ad575f80fd5b81356154c06154bb82615478565b615448565b8181528460208386010111156154d4575f80fd5b816020850160208301375f918101602001919091529392505050565b5f8060408385031215615501575f80fd5b82356001600160401b03811115615516575f80fd5b6155228582860161549e565b925050615531602084016151cc565b90509250929050565b5f8083601f84011261554a575f80fd5b5081356001600160401b03811115615560575f80fd5b602083019150836020828501011115615130575f80fd5b5f8060208385031215615588575f80fd5b82356001600160401b0381111561559d575f80fd5b6151698582860161553a565b5f80602083850312156155ba575f80fd5b82356001600160401b038111156155cf575f80fd5b8301601f810185136155df575f80fd5b80356001600160401b038111156155f4575f80fd5b8560208260051b8401011115615608575f80fd5b6020919091019590945092505050565b60ff60f81b8816815260e060208201525f61563660e0830189615175565b82810360408401526156488189615175565b606084018890526001600160a01b038716608085015260a0840186905283810360c0850152845180825260208087019350909101905f5b8181101561569d57835183526020938401939092019160010161567f565b50909b9a5050505050505050505050565b5f604082840312156156be575f80fd5b604080519081016001600160401b03811182821017156156e0576156e0615434565b60405290508082356001600160401b038111156156fb575f80fd5b6157078582860161549e565b82525060208301356001600160401b03811115615722575f80fd5b61572e8582860161549e565b6020830152505092915050565b5f805f805f8060808789031215615750575f80fd5b86356001600160401b03811115615765575f80fd5b61577189828a0161553a565b90975095505060208701356001600160401b0381111561578f575f80fd5b61579b89828a016156ae565b9450506157aa604088016151cc565b925060608701356001600160401b038111156157c4575f80fd5b6157d089828a0161553a565b979a9699509497509295939492505050565b5f602082840312156157f2575f80fd5b8135600781106125d8575f80fd5b5f602082016020835280845180835260408501915060408160051b8601019250602086015f5b8281101561585757603f19878603018452615842858351615257565b94506020938401939190910190600101615826565b50929695505050505050565b8015158114610fc4575f80fd5b5f8060408385031215615881575f80fd5b61588a836151cc565b9150602083013561589a81615863565b809150509250929050565b5f602082840312156158b5575f80fd5b813560ff811681146125d8575f80fd5b5f805f604084860312156158d7575f80fd5b83356001600160401b038111156158ec575f80fd5b6158f88682870161553a565b90945092505060208401356001600160401b03811115615916575f80fd5b615922868287016156ae565b9150509250925092565b5f805f806080858703121561593f575f80fd5b615948856151cc565b9350615956602086016151cc565b92506040850135915060608501356001600160401b03811115615977575f80fd5b6159838782880161549e565b91505092959194509250565b5f60808284031280156159a0575f80fd5b509092915050565b5f805f606084860312156159ba575f80fd5b83356001600160401b038111156159cf575f80fd5b6159db8682870161549e565b9350506159ea602085016151cc565b91506159f8604085016151cc565b90509250925092565b5f8060408385031215615a12575f80fd5b615a1b836151cc565b9150615531602084016151cc565b61010081525f615a3d61010083018b615175565b6001600160a01b038a16602084015263ffffffff8981166040850152881660608401529050615a6f6080830187615237565b93151560a082015291151560c083015260ff1660e09091015295945050505050565b634e487b7160e01b5f52603260045260245ffd5b634e487b7160e01b5f52601160045260245ffd5b81810381811115610b3657610b36615aa5565b604081016001600160a01b03615ae1846151cc565b168252602092830135929091019190915290565b600181811c90821680615b0957607f821691505b602082108103615b2757634e487b7160e01b5f52602260045260245ffd5b50919050565b8082028115828204841417610b3657610b36615aa5565b80820180821115610b3657610b36615aa5565b634e487b7160e01b5f52601260045260245ffd5b5f82615b7957615b79615b57565b500490565b63ffffffff8181168382160190811115610b3657610b36615aa5565b63ffffffff8281168282160390811115610b3657610b36615aa5565b5f60208284031215615bc6575f80fd5b81516001600160401b03811115615bdb575f80fd5b8201601f81018413615beb575f80fd5b8051615bf96154bb82615478565b818152856020838501011115615c0d575f80fd5b8160208401602083015e5f91810160200191909152949350505050565b5f60208284031215615c3a575f80fd5b81516125d881615863565b5f81518060208401855e5f93019283525090919050565b6001600160d81b0319851681525f615c776005830186615c45565b6001600160f81b031994909416845250506bffffffffffffffffffffffff1916600182015260150192915050565b818382375f9101908152919050565b60208101610b368284615237565b95865260208601949094526001600160a01b0392831660408601529116606084015260ff1660808301526001600160401b031660a082015260c00190565b6001600160401b038181168382160190811115610b3657610b36615aa5565b5f60ff821660ff8103615d3457615d34615aa5565b60010192915050565b813581556020820135600182015560408201356002820155600381016060830135615d6781615344565b815463ffffffff191663ffffffff919091161790555050565b7f7b226e616d65223a202254656c636f696e2d4e6574776f726b20436f6e73656e8152651cdd5cd3919560d21b60208201525f615dc06026830185615c45565b7f222c20226465736372697074696f6e223a2022455243373231204e465420776881527f6f7365206f776e657273686970206c656467657220726570726573656e74732060208201527f746865207065726d697373696f6e65642077686974656c69737420666f72207660408201527530b634b230ba37b9399116101134b6b0b3b2911d101160511b6060820152615e5b6076820185615c45565b61227d60f01b815260020195945050505050565b7f646174613a6170706c69636174696f6e2f6a736f6e3b6261736536342c00000081525f6125d8601d830184615c45565b5f8154615eac81615af5565b808552600182168015615ec65760018114615ee257615f16565b60ff1983166020870152602082151560051b8701019350615f16565b845f5260205f205f5b83811015615f0d5781546020828a010152600182019150602081019050615eeb565b87016020019450505b50505092915050565b6020815261010060208201525f615f3a610120830184615ea0565b60018401546001600160a01b038116604085015260a081901c63ffffffff16606085015260c081901c63ffffffff166080850152615f8160a0850160ff8360e01c16615237565b615f9560c0850160ff8360e81c1615159052565b615fa960e0850160ff8360f01c1615159052565b60f881901c6101008501526121e0565b5f60018201615fca57615fca615aa5565b5060010190565b60ff8181168382160190811115610b3657610b36615aa5565b5f60ff831680615ffc57615ffc615b57565b8060ff84160691505092915050565b60ff8281168282160390811115610b3657610b36615aa5565b5f63ffffffff821663ffffffff8103615d3457615d34615aa5565b606081525f6160516060830186615175565b82810360208401526160638186615175565b905082810360408401526160778185615175565b9695505050505050565b604081525f835160408084015261609b6080840182615175565b90506020850151603f198483030160608501526160b88282615175565b9150508281036020840152612c078185615175565b601f821115610c8d57805f5260205f20601f840160051c810160208510156160f25750805b601f840160051c820191505b818110156122e9575f81556001016160fe565b81516001600160401b0381111561612a5761612a615434565b61613e816161388454615af5565b846160cd565b6020601f821160018114616170575f83156161595750848201515b5f19600385901b1c1916600184901b1784556122e9565b5f84815260208120601f198516915b8281101561619f578785015182556020948501946001909201910161617f565b50848210156161bc57868401515f19600387901b60f8161c191681555b50505050600190811b01905550565b6001600160a01b03858116825284166020820152604081018390526080606082018190525f9061607790830184615175565b5f6020828403121561620d575f80fd5b81516125d8816150c0565b5f8161622657616226615aa5565b505f190190565b7f646174613a696d6167652f7376672b786d6c3b6261736536342c00000000000081525f6125d8601a830184615c45565b634e487b7160e01b5f52603160045260245ffdfe3c7376672077696474683d22373922206865696768743d223830222076696577426f783d22302030203739203830222066696c6c3d226e6f6e652220786d6c6e733d22687474703a2f2f7777772e77332e6f72672f323030302f737667223e203c6d61736b2069643d226d61736b305f3834395f3334313722207374796c653d226d61736b2d747970653a616c70686122206d61736b556e6974733d227573657253706163654f6e5573652220783d22302220793d2230222077696474683d22373922206865696768743d223830223e203c726563742077696474683d2237382e30303522206865696768743d223830222066696c6c3d2223433443344334222f3e203c2f6d61736b3e203c67206d61736b3d2275726c28236d61736b305f3834395f3334313729223e203c7265637420783d2231372e393534362220793d2231382e33353435222077696474683d2234322e3239343322206865696768743d2234332e32393138222066696c6c3d227768697465222f3e203c7061746820643d224d37342e323336392032312e393839324337362e363930382032342e303331352037382e323338392032382e323537372037372e363937392033312e333733334c37322e343136362036312e333235334337312e3836362036342e343437352036382e393539322036372e383739382036352e393632392036382e393631324c33372e313934372037392e333334344333342e313938342038302e343135372032392e373432312037392e363239392032372e323936342037372e3538394c332e3831312035382e3030323143312e33353730382035352e39353938202d302e31393233382035312e3734313720302e3335383134382034382e363139354c352e36333935312031382e3636373443362e31393030342031352e3534353220392e30393638372031322e313132392031322e303933322031312e303331364c34302e3835393920302e3636363435334334332e38353632202d302e3431343835372034382e3331323520302e3337303930392035302e3735383320322e343131384c37342e323336392032312e393839325a4d34392e373634352033352e343336394c35302e393336342032392e333531334c33392e393531372032392e333638374c34312e3531362032312e333432344c33372e393538332032312e333432344333372e393538332032312e333432342033342e363332382032372e323930312032372e333030362033302e323031394c32362e323839392033352e343530334c33312e303933362033352e34364333312e303933362033352e34362032392e343637342034332e303032392032382e393331362034352e373835344332372e353637372035322e383638322033302e393830362035372e383933392033362e323238312035372e383933394333382e383630362035372e383933392034312e3831372035372e383933392034352e303937322035372e383933394c34362e363532342035312e313636364334362e323734322035312e313636362034332e383031332035312e313636362033392e323333362035312e313636364333352e393336342035312e313636362033362e313039392034392e333138392033362e373433312034362e303330354c33382e373833382033352e343333334c34392e373634352033352e343336395a222066696c6c3d2223313443384646222f3e203c2f673e203c2f7376673e4142434445464748494a4b4c4d4e4f505152535455565758595a6162636465666768696a6b6c6d6e6f707172737475767778797a303132333435363738392b2fa164736f6c634300081a000a","linkReferences":{"src/consensus/BlsG1.sol":{"BlsG1":[{"start":2189,"length":20},{"start":2298,"length":20},{"start":2438,"length":20},{"start":2706,"length":20},{"start":2842,"length":20},{"start":13031,"length":20},{"start":13167,"length":20},{"start":21523,"length":20},{"start":21632,"length":20},{"start":21772,"length":20}]}}},"methodIdentifiers":{"SYSTEM_ADDRESS()":"3434735f","activate()":"0f15f4c0","allocateIssuance()":"355811a7","applyIncentives((address,uint256)[])":"0a36cdef","applySlashes((address,uint256)[])":"02ae337b","approve(address,uint256)":"095ea7b3","balanceOf(address)":"70a08231","beginExit()":"2228dfa0","burn(address)":"89afcb44","claimStakeRewards(address)":"2b9f4985","concludeEpoch(address[])":"7b55a300","delegateStake(bytes,(bytes,bytes),address,bytes)":"8bb43f3a","delegationDigest(bytes,address,address)":"e3716d04","eip712Domain()":"84b0196e","epochInfo(uint256)":"3894228e","futureEpochInfo(uint256)":"59ca93b6","getApproved(uint256)":"081812fc","getBalanceBreakdown(address)":"15b5709a","getCommitteeValidators(uint32)":"a0201be5","getCurrentEpoch()":"b97dd9e2","getCurrentEpochInfo()":"babc394f","getCurrentStakeConfig()":"7d06fdf8","getCurrentStakeVersion()":"67398331","getEpochInfo(uint32)":"374ed18c","getNextCommitteeSize()":"eb8535c2","getRewards(address)":"79ee54f7","getValidator(address)":"1904bb2e","getValidators(uint8)":"8cc05eda","isApprovedForAll(address,address)":"e985e9c5","isRetired(address)":"6d3c6275","isValidator(bytes)":"6a926591","issuance()":"863623bb","mint(address)":"6a627842","name()":"06fdde03","owner()":"8da5cb5b","ownerOf(uint256)":"6352211e","pause()":"8456cb59","paused()":"5c975abb","proofOfPossessionMessage(bytes,address)":"6850eb31","renounceOwnership()":"715018a6","safeTransferFrom(address,address,uint256)":"42842e0e","safeTransferFrom(address,address,uint256,bytes)":"b88d4fde","setApprovalForAll(address,bool)":"a22cb465","setNextCommitteeSize(uint16)":"62fcde4b","stake(bytes,(bytes,bytes))":"b5184324","stakeConfig(uint8)":"a71954ec","supportsInterface(bytes4)":"01ffc9a7","symbol()":"95d89b41","tokenByIndex(uint256)":"4f6ccce7","tokenOfOwnerByIndex(address,uint256)":"2f745c59","tokenURI(uint256)":"c87b56dd","totalSupply()":"18160ddd","transferFrom(address,address,uint256)":"23b872dd","transferOwnership(address)":"f2fde38b","unpause()":"3f4ba83a","unstake(address)":"f2888dbb","upgradeStakeVersion((uint256,uint256,uint256,uint32))":"c05df7ac","validators(address)":"fa52c7d8"},"id":226}