{"abi":[{"type":"constructor","inputs":[{"name":"genesisConfig_","type":"tuple","internalType":"struct IStakeManager.StakeConfig","components":[{"name":"stakeAmount","type":"uint256","internalType":"uint256"},{"name":"minWithdrawAmount","type":"uint256","internalType":"uint256"},{"name":"epochIssuance","type":"uint256","internalType":"uint256"},{"name":"epochDuration","type":"uint32","internalType":"uint32"}]},{"name":"initialValidators_","type":"tuple[]","internalType":"struct IConsensusRegistry.ValidatorInfo[]","components":[{"name":"blsPubkey","type":"bytes","internalType":"bytes"},{"name":"validatorAddress","type":"address","internalType":"address"},{"name":"activationEpoch","type":"uint32","internalType":"uint32"},{"name":"exitEpoch","type":"uint32","internalType":"uint32"},{"name":"currentStatus","type":"uint8","internalType":"enum IConsensusRegistry.ValidatorStatus"},{"name":"isRetired","type":"bool","internalType":"bool"},{"name":"stakeVersion","type":"uint8","internalType":"uint8"},{"name":"region","type":"uint8","internalType":"uint8"}]},{"name":"proofsOfPossession","type":"tuple[]","internalType":"struct BlsG1.ProofOfPossession[]","components":[{"name":"uncompressedPubkey","type":"bytes","internalType":"bytes"},{"name":"uncompressedSignature","type":"bytes","internalType":"bytes"}]},{"name":"owner_","type":"address","internalType":"address"}],"stateMutability":"nonpayable"},{"type":"function","name":"SYSTEM_ADDRESS","inputs":[],"outputs":[{"name":"","type":"address","internalType":"address"}],"stateMutability":"view"},{"type":"function","name":"activate","inputs":[],"outputs":[],"stateMutability":"nonpayable"},{"type":"function","name":"allocateIssuance","inputs":[],"outputs":[],"stateMutability":"payable"},{"type":"function","name":"applyIncentives","inputs":[{"name":"rewardInfos","type":"tuple[]","internalType":"struct RewardInfo[]","components":[{"name":"validatorAddress","type":"address","internalType":"address"},{"name":"consensusHeaderCount","type":"uint256","internalType":"uint256"}]}],"outputs":[],"stateMutability":"nonpayable"},{"type":"function","name":"applySlashes","inputs":[{"name":"slashes","type":"tuple[]","internalType":"struct Slash[]","components":[{"name":"validatorAddress","type":"address","internalType":"address"},{"name":"amount","type":"uint256","internalType":"uint256"}]}],"outputs":[],"stateMutability":"nonpayable"},{"type":"function","name":"approve","inputs":[{"name":"","type":"address","internalType":"address"},{"name":"","type":"uint256","internalType":"uint256"}],"outputs":[],"stateMutability":"nonpayable"},{"type":"function","name":"balanceOf","inputs":[{"name":"owner","type":"address","internalType":"address"}],"outputs":[{"name":"","type":"uint256","internalType":"uint256"}],"stateMutability":"view"},{"type":"function","name":"beginExit","inputs":[],"outputs":[],"stateMutability":"nonpayable"},{"type":"function","name":"burn","inputs":[{"name":"validatorAddress","type":"address","internalType":"address"}],"outputs":[],"stateMutability":"nonpayable"},{"type":"function","name":"claimStakeRewards","inputs":[{"name":"validatorAddress","type":"address","internalType":"address"}],"outputs":[],"stateMutability":"nonpayable"},{"type":"function","name":"concludeEpoch","inputs":[{"name":"futureCommittee","type":"address[]","internalType":"address[]"}],"outputs":[],"stateMutability":"nonpayable"},{"type":"function","name":"delegateStake","inputs":[{"name":"blsPubkey","type":"bytes","internalType":"bytes"},{"name":"proofOfPossession","type":"tuple","internalType":"struct BlsG1.ProofOfPossession","components":[{"name":"uncompressedPubkey","type":"bytes","internalType":"bytes"},{"name":"uncompressedSignature","type":"bytes","internalType":"bytes"}]},{"name":"validatorAddress","type":"address","internalType":"address"},{"name":"validatorEIP712Signature","type":"bytes","internalType":"bytes"}],"outputs":[],"stateMutability":"payable"},{"type":"function","name":"delegationDigest","inputs":[{"name":"blsPubkey","type":"bytes","internalType":"bytes"},{"name":"validatorAddress","type":"address","internalType":"address"},{"name":"delegator","type":"address","internalType":"address"}],"outputs":[{"name":"","type":"bytes32","internalType":"bytes32"}],"stateMutability":"view"},{"type":"function","name":"eip712Domain","inputs":[],"outputs":[{"name":"fields","type":"bytes1","internalType":"bytes1"},{"name":"name","type":"string","internalType":"string"},{"name":"version","type":"string","internalType":"string"},{"name":"chainId","type":"uint256","internalType":"uint256"},{"name":"verifyingContract","type":"address","internalType":"address"},{"name":"salt","type":"bytes32","internalType":"bytes32"},{"name":"extensions","type":"uint256[]","internalType":"uint256[]"}],"stateMutability":"view"},{"type":"function","name":"epochInfo","inputs":[{"name":"","type":"uint256","internalType":"uint256"}],"outputs":[{"name":"epochIssuance","type":"uint256","internalType":"uint256"},{"name":"blockHeight","type":"uint64","internalType":"uint64"},{"name":"epochId","type":"uint32","internalType":"uint32"},{"name":"epochDuration","type":"uint32","internalType":"uint32"},{"name":"stakeVersion","type":"uint8","internalType":"uint8"}],"stateMutability":"view"},{"type":"function","name":"futureEpochInfo","inputs":[{"name":"","type":"uint256","internalType":"uint256"}],"outputs":[{"name":"epochIssuance","type":"uint256","internalType":"uint256"},{"name":"blockHeight","type":"uint64","internalType":"uint64"},{"name":"epochId","type":"uint32","internalType":"uint32"},{"name":"epochDuration","type":"uint32","internalType":"uint32"},{"name":"stakeVersion","type":"uint8","internalType":"uint8"}],"stateMutability":"view"},{"type":"function","name":"getApproved","inputs":[{"name":"tokenId","type":"uint256","internalType":"uint256"}],"outputs":[{"name":"","type":"address","internalType":"address"}],"stateMutability":"view"},{"type":"function","name":"getBalanceBreakdown","inputs":[{"name":"validatorAddress","type":"address","internalType":"address"}],"outputs":[{"name":"","type":"uint256","internalType":"uint256"},{"name":"","type":"uint256","internalType":"uint256"},{"name":"","type":"uint256","internalType":"uint256"}],"stateMutability":"view"},{"type":"function","name":"getCommitteeValidators","inputs":[{"name":"epoch","type":"uint32","internalType":"uint32"}],"outputs":[{"name":"","type":"tuple[]","internalType":"struct IConsensusRegistry.ValidatorInfo[]","components":[{"name":"blsPubkey","type":"bytes","internalType":"bytes"},{"name":"validatorAddress","type":"address","internalType":"address"},{"name":"activationEpoch","type":"uint32","internalType":"uint32"},{"name":"exitEpoch","type":"uint32","internalType":"uint32"},{"name":"currentStatus","type":"uint8","internalType":"enum IConsensusRegistry.ValidatorStatus"},{"name":"isRetired","type":"bool","internalType":"bool"},{"name":"stakeVersion","type":"uint8","internalType":"uint8"},{"name":"region","type":"uint8","internalType":"uint8"}]}],"stateMutability":"view"},{"type":"function","name":"getCurrentEpoch","inputs":[],"outputs":[{"name":"","type":"uint32","internalType":"uint32"}],"stateMutability":"view"},{"type":"function","name":"getCurrentEpochInfo","inputs":[],"outputs":[{"name":"","type":"tuple","internalType":"struct IConsensusRegistry.EpochInfo","components":[{"name":"committee","type":"address[]","internalType":"address[]"},{"name":"epochIssuance","type":"uint256","internalType":"uint256"},{"name":"blockHeight","type":"uint64","internalType":"uint64"},{"name":"epochId","type":"uint32","internalType":"uint32"},{"name":"epochDuration","type":"uint32","internalType":"uint32"},{"name":"stakeVersion","type":"uint8","internalType":"uint8"}]}],"stateMutability":"view"},{"type":"function","name":"getCurrentStakeConfig","inputs":[],"outputs":[{"name":"","type":"tuple","internalType":"struct IStakeManager.StakeConfig","components":[{"name":"stakeAmount","type":"uint256","internalType":"uint256"},{"name":"minWithdrawAmount","type":"uint256","internalType":"uint256"},{"name":"epochIssuance","type":"uint256","internalType":"uint256"},{"name":"epochDuration","type":"uint32","internalType":"uint32"}]}],"stateMutability":"view"},{"type":"function","name":"getCurrentStakeVersion","inputs":[],"outputs":[{"name":"","type":"uint8","internalType":"uint8"}],"stateMutability":"view"},{"type":"function","name":"getEpochInfo","inputs":[{"name":"epoch","type":"uint32","internalType":"uint32"}],"outputs":[{"name":"","type":"tuple","internalType":"struct IConsensusRegistry.EpochInfo","components":[{"name":"committee","type":"address[]","internalType":"address[]"},{"name":"epochIssuance","type":"uint256","internalType":"uint256"},{"name":"blockHeight","type":"uint64","internalType":"uint64"},{"name":"epochId","type":"uint32","internalType":"uint32"},{"name":"epochDuration","type":"uint32","internalType":"uint32"},{"name":"stakeVersion","type":"uint8","internalType":"uint8"}]}],"stateMutability":"view"},{"type":"function","name":"getNextCommitteeSize","inputs":[],"outputs":[{"name":"","type":"uint16","internalType":"uint16"}],"stateMutability":"view"},{"type":"function","name":"getRewards","inputs":[{"name":"validatorAddress","type":"address","internalType":"address"}],"outputs":[{"name":"","type":"uint256","internalType":"uint256"}],"stateMutability":"view"},{"type":"function","name":"getValidator","inputs":[{"name":"validatorAddress","type":"address","internalType":"address"}],"outputs":[{"name":"","type":"tuple","internalType":"struct IConsensusRegistry.ValidatorInfo","components":[{"name":"blsPubkey","type":"bytes","internalType":"bytes"},{"name":"validatorAddress","type":"address","internalType":"address"},{"name":"activationEpoch","type":"uint32","internalType":"uint32"},{"name":"exitEpoch","type":"uint32","internalType":"uint32"},{"name":"currentStatus","type":"uint8","internalType":"enum IConsensusRegistry.ValidatorStatus"},{"name":"isRetired","type":"bool","internalType":"bool"},{"name":"stakeVersion","type":"uint8","internalType":"uint8"},{"name":"region","type":"uint8","internalType":"uint8"}]}],"stateMutability":"view"},{"type":"function","name":"getValidators","inputs":[{"name":"status","type":"uint8","internalType":"enum IConsensusRegistry.ValidatorStatus"}],"outputs":[{"name":"","type":"tuple[]","internalType":"struct IConsensusRegistry.ValidatorInfo[]","components":[{"name":"blsPubkey","type":"bytes","internalType":"bytes"},{"name":"validatorAddress","type":"address","internalType":"address"},{"name":"activationEpoch","type":"uint32","internalType":"uint32"},{"name":"exitEpoch","type":"uint32","internalType":"uint32"},{"name":"currentStatus","type":"uint8","internalType":"enum IConsensusRegistry.ValidatorStatus"},{"name":"isRetired","type":"bool","internalType":"bool"},{"name":"stakeVersion","type":"uint8","internalType":"uint8"},{"name":"region","type":"uint8","internalType":"uint8"}]}],"stateMutability":"view"},{"type":"function","name":"isApprovedForAll","inputs":[{"name":"owner","type":"address","internalType":"address"},{"name":"operator","type":"address","internalType":"address"}],"outputs":[{"name":"","type":"bool","internalType":"bool"}],"stateMutability":"view"},{"type":"function","name":"isDelegated","inputs":[{"name":"validatorAddress","type":"address","internalType":"address"}],"outputs":[{"name":"","type":"bool","internalType":"bool"}],"stateMutability":"view"},{"type":"function","name":"isRetired","inputs":[{"name":"validatorAddress","type":"address","internalType":"address"}],"outputs":[{"name":"","type":"bool","internalType":"bool"}],"stateMutability":"view"},{"type":"function","name":"isValidator","inputs":[{"name":"blsPubkey","type":"bytes","internalType":"bytes"}],"outputs":[{"name":"","type":"bool","internalType":"bool"}],"stateMutability":"view"},{"type":"function","name":"issuance","inputs":[],"outputs":[{"name":"","type":"address","internalType":"address payable"}],"stateMutability":"view"},{"type":"function","name":"mint","inputs":[{"name":"validatorAddress","type":"address","internalType":"address"}],"outputs":[],"stateMutability":"nonpayable"},{"type":"function","name":"name","inputs":[],"outputs":[{"name":"","type":"string","internalType":"string"}],"stateMutability":"view"},{"type":"function","name":"owner","inputs":[],"outputs":[{"name":"","type":"address","internalType":"address"}],"stateMutability":"view"},{"type":"function","name":"ownerOf","inputs":[{"name":"tokenId","type":"uint256","internalType":"uint256"}],"outputs":[{"name":"","type":"address","internalType":"address"}],"stateMutability":"view"},{"type":"function","name":"pause","inputs":[],"outputs":[],"stateMutability":"nonpayable"},{"type":"function","name":"paused","inputs":[],"outputs":[{"name":"","type":"bool","internalType":"bool"}],"stateMutability":"view"},{"type":"function","name":"proofOfPossessionMessage","inputs":[{"name":"blsPubkeyUncompressed","type":"bytes","internalType":"bytes"},{"name":"validatorAddress","type":"address","internalType":"address"}],"outputs":[{"name":"","type":"bytes","internalType":"bytes"}],"stateMutability":"view"},{"type":"function","name":"renounceOwnership","inputs":[],"outputs":[],"stateMutability":"nonpayable"},{"type":"function","name":"safeTransferFrom","inputs":[{"name":"from","type":"address","internalType":"address"},{"name":"to","type":"address","internalType":"address"},{"name":"tokenId","type":"uint256","internalType":"uint256"}],"outputs":[],"stateMutability":"nonpayable"},{"type":"function","name":"safeTransferFrom","inputs":[{"name":"from","type":"address","internalType":"address"},{"name":"to","type":"address","internalType":"address"},{"name":"tokenId","type":"uint256","internalType":"uint256"},{"name":"data","type":"bytes","internalType":"bytes"}],"outputs":[],"stateMutability":"nonpayable"},{"type":"function","name":"setApprovalForAll","inputs":[{"name":"","type":"address","internalType":"address"},{"name":"","type":"bool","internalType":"bool"}],"outputs":[],"stateMutability":"nonpayable"},{"type":"function","name":"setNextCommitteeSize","inputs":[{"name":"newSize","type":"uint16","internalType":"uint16"}],"outputs":[],"stateMutability":"nonpayable"},{"type":"function","name":"setValidatorRegion","inputs":[{"name":"validatorAddress","type":"address","internalType":"address"},{"name":"region","type":"uint8","internalType":"uint8"}],"outputs":[],"stateMutability":"nonpayable"},{"type":"function","name":"stake","inputs":[{"name":"blsPubkey","type":"bytes","internalType":"bytes"},{"name":"proofOfPossession","type":"tuple","internalType":"struct BlsG1.ProofOfPossession","components":[{"name":"uncompressedPubkey","type":"bytes","internalType":"bytes"},{"name":"uncompressedSignature","type":"bytes","internalType":"bytes"}]}],"outputs":[],"stateMutability":"payable"},{"type":"function","name":"stakeConfig","inputs":[{"name":"version","type":"uint8","internalType":"uint8"}],"outputs":[{"name":"","type":"tuple","internalType":"struct IStakeManager.StakeConfig","components":[{"name":"stakeAmount","type":"uint256","internalType":"uint256"},{"name":"minWithdrawAmount","type":"uint256","internalType":"uint256"},{"name":"epochIssuance","type":"uint256","internalType":"uint256"},{"name":"epochDuration","type":"uint32","internalType":"uint32"}]}],"stateMutability":"view"},{"type":"function","name":"supportsInterface","inputs":[{"name":"interfaceId","type":"bytes4","internalType":"bytes4"}],"outputs":[{"name":"","type":"bool","internalType":"bool"}],"stateMutability":"view"},{"type":"function","name":"symbol","inputs":[],"outputs":[{"name":"","type":"string","internalType":"string"}],"stateMutability":"view"},{"type":"function","name":"tokenByIndex","inputs":[{"name":"index","type":"uint256","internalType":"uint256"}],"outputs":[{"name":"","type":"uint256","internalType":"uint256"}],"stateMutability":"view"},{"type":"function","name":"tokenOfOwnerByIndex","inputs":[{"name":"owner","type":"address","internalType":"address"},{"name":"index","type":"uint256","internalType":"uint256"}],"outputs":[{"name":"","type":"uint256","internalType":"uint256"}],"stateMutability":"view"},{"type":"function","name":"tokenURI","inputs":[{"name":"tokenId","type":"uint256","internalType":"uint256"}],"outputs":[{"name":"","type":"string","internalType":"string"}],"stateMutability":"view"},{"type":"function","name":"totalSupply","inputs":[],"outputs":[{"name":"","type":"uint256","internalType":"uint256"}],"stateMutability":"view"},{"type":"function","name":"transferFrom","inputs":[{"name":"","type":"address","internalType":"address"},{"name":"","type":"address","internalType":"address"},{"name":"","type":"uint256","internalType":"uint256"}],"outputs":[],"stateMutability":"nonpayable"},{"type":"function","name":"transferOwnership","inputs":[{"name":"newOwner","type":"address","internalType":"address"}],"outputs":[],"stateMutability":"nonpayable"},{"type":"function","name":"undistributedIssuance","inputs":[],"outputs":[{"name":"","type":"uint256","internalType":"uint256"}],"stateMutability":"view"},{"type":"function","name":"unpause","inputs":[],"outputs":[],"stateMutability":"nonpayable"},{"type":"function","name":"unstake","inputs":[{"name":"validatorAddress","type":"address","internalType":"address"}],"outputs":[],"stateMutability":"nonpayable"},{"type":"function","name":"upgradeStakeVersion","inputs":[{"name":"newConfig","type":"tuple","internalType":"struct IStakeManager.StakeConfig","components":[{"name":"stakeAmount","type":"uint256","internalType":"uint256"},{"name":"minWithdrawAmount","type":"uint256","internalType":"uint256"},{"name":"epochIssuance","type":"uint256","internalType":"uint256"},{"name":"epochDuration","type":"uint32","internalType":"uint32"}]}],"outputs":[{"name":"","type":"uint8","internalType":"uint8"}],"stateMutability":"nonpayable"},{"type":"function","name":"upgradeValidatorStakeVersion","inputs":[{"name":"validatorAddress","type":"address","internalType":"address"},{"name":"targetVersion","type":"uint8","internalType":"uint8"}],"outputs":[],"stateMutability":"payable"},{"type":"function","name":"validators","inputs":[{"name":"","type":"address","internalType":"address"}],"outputs":[{"name":"blsPubkey","type":"bytes","internalType":"bytes"},{"name":"validatorAddress","type":"address","internalType":"address"},{"name":"activationEpoch","type":"uint32","internalType":"uint32"},{"name":"exitEpoch","type":"uint32","internalType":"uint32"},{"name":"currentStatus","type":"uint8","internalType":"enum IConsensusRegistry.ValidatorStatus"},{"name":"isRetired","type":"bool","internalType":"bool"},{"name":"stakeVersion","type":"uint8","internalType":"uint8"},{"name":"region","type":"uint8","internalType":"uint8"}],"stateMutability":"view"},{"type":"event","name":"Approval","inputs":[{"name":"owner","type":"address","indexed":true,"internalType":"address"},{"name":"approved","type":"address","indexed":true,"internalType":"address"},{"name":"tokenId","type":"uint256","indexed":true,"internalType":"uint256"}],"anonymous":false},{"type":"event","name":"ApprovalForAll","inputs":[{"name":"owner","type":"address","indexed":true,"internalType":"address"},{"name":"operator","type":"address","indexed":true,"internalType":"address"},{"name":"approved","type":"bool","indexed":false,"internalType":"bool"}],"anonymous":false},{"type":"event","name":"NewEpoch","inputs":[{"name":"epoch","type":"tuple","indexed":false,"internalType":"struct IConsensusRegistry.EpochInfo","components":[{"name":"committee","type":"address[]","internalType":"address[]"},{"name":"epochIssuance","type":"uint256","internalType":"uint256"},{"name":"blockHeight","type":"uint64","internalType":"uint64"},{"name":"epochId","type":"uint32","internalType":"uint32"},{"name":"epochDuration","type":"uint32","internalType":"uint32"},{"name":"stakeVersion","type":"uint8","internalType":"uint8"}]}],"anonymous":false},{"type":"event","name":"NextCommitteeSizeUpdated","inputs":[{"name":"oldSize","type":"uint16","indexed":false,"internalType":"uint16"},{"name":"newSize","type":"uint16","indexed":false,"internalType":"uint16"},{"name":"numActiveValidators","type":"uint256","indexed":false,"internalType":"uint256"}],"anonymous":false},{"type":"event","name":"OwnershipTransferred","inputs":[{"name":"previousOwner","type":"address","indexed":true,"internalType":"address"},{"name":"newOwner","type":"address","indexed":true,"internalType":"address"}],"anonymous":false},{"type":"event","name":"Paused","inputs":[{"name":"account","type":"address","indexed":false,"internalType":"address"}],"anonymous":false},{"type":"event","name":"RewardsClaimed","inputs":[{"name":"claimant","type":"address","indexed":false,"internalType":"address"},{"name":"rewards","type":"uint256","indexed":false,"internalType":"uint256"}],"anonymous":false},{"type":"event","name":"Transfer","inputs":[{"name":"from","type":"address","indexed":true,"internalType":"address"},{"name":"to","type":"address","indexed":true,"internalType":"address"},{"name":"tokenId","type":"uint256","indexed":true,"internalType":"uint256"}],"anonymous":false},{"type":"event","name":"Unpaused","inputs":[{"name":"account","type":"address","indexed":false,"internalType":"address"}],"anonymous":false},{"type":"event","name":"ValidatorActivated","inputs":[{"name":"validator","type":"tuple","indexed":false,"internalType":"struct IConsensusRegistry.ValidatorInfo","components":[{"name":"blsPubkey","type":"bytes","internalType":"bytes"},{"name":"validatorAddress","type":"address","internalType":"address"},{"name":"activationEpoch","type":"uint32","internalType":"uint32"},{"name":"exitEpoch","type":"uint32","internalType":"uint32"},{"name":"currentStatus","type":"uint8","internalType":"enum IConsensusRegistry.ValidatorStatus"},{"name":"isRetired","type":"bool","internalType":"bool"},{"name":"stakeVersion","type":"uint8","internalType":"uint8"},{"name":"region","type":"uint8","internalType":"uint8"}]}],"anonymous":false},{"type":"event","name":"ValidatorExited","inputs":[{"name":"validator","type":"tuple","indexed":false,"internalType":"struct IConsensusRegistry.ValidatorInfo","components":[{"name":"blsPubkey","type":"bytes","internalType":"bytes"},{"name":"validatorAddress","type":"address","internalType":"address"},{"name":"activationEpoch","type":"uint32","internalType":"uint32"},{"name":"exitEpoch","type":"uint32","internalType":"uint32"},{"name":"currentStatus","type":"uint8","internalType":"enum IConsensusRegistry.ValidatorStatus"},{"name":"isRetired","type":"bool","internalType":"bool"},{"name":"stakeVersion","type":"uint8","internalType":"uint8"},{"name":"region","type":"uint8","internalType":"uint8"}]}],"anonymous":false},{"type":"event","name":"ValidatorPendingActivation","inputs":[{"name":"validator","type":"tuple","indexed":false,"internalType":"struct IConsensusRegistry.ValidatorInfo","components":[{"name":"blsPubkey","type":"bytes","internalType":"bytes"},{"name":"validatorAddress","type":"address","internalType":"address"},{"name":"activationEpoch","type":"uint32","internalType":"uint32"},{"name":"exitEpoch","type":"uint32","internalType":"uint32"},{"name":"currentStatus","type":"uint8","internalType":"enum IConsensusRegistry.ValidatorStatus"},{"name":"isRetired","type":"bool","internalType":"bool"},{"name":"stakeVersion","type":"uint8","internalType":"uint8"},{"name":"region","type":"uint8","internalType":"uint8"}]}],"anonymous":false},{"type":"event","name":"ValidatorPendingExit","inputs":[{"name":"validator","type":"tuple","indexed":false,"internalType":"struct IConsensusRegistry.ValidatorInfo","components":[{"name":"blsPubkey","type":"bytes","internalType":"bytes"},{"name":"validatorAddress","type":"address","internalType":"address"},{"name":"activationEpoch","type":"uint32","internalType":"uint32"},{"name":"exitEpoch","type":"uint32","internalType":"uint32"},{"name":"currentStatus","type":"uint8","internalType":"enum IConsensusRegistry.ValidatorStatus"},{"name":"isRetired","type":"bool","internalType":"bool"},{"name":"stakeVersion","type":"uint8","internalType":"uint8"},{"name":"region","type":"uint8","internalType":"uint8"}]}],"anonymous":false},{"type":"event","name":"ValidatorRegionUpdated","inputs":[{"name":"validatorAddress","type":"address","indexed":true,"internalType":"address"},{"name":"region","type":"uint8","indexed":false,"internalType":"uint8"}],"anonymous":false},{"type":"event","name":"ValidatorRetired","inputs":[{"name":"validator","type":"tuple","indexed":false,"internalType":"struct IConsensusRegistry.ValidatorInfo","components":[{"name":"blsPubkey","type":"bytes","internalType":"bytes"},{"name":"validatorAddress","type":"address","internalType":"address"},{"name":"activationEpoch","type":"uint32","internalType":"uint32"},{"name":"exitEpoch","type":"uint32","internalType":"uint32"},{"name":"currentStatus","type":"uint8","internalType":"enum IConsensusRegistry.ValidatorStatus"},{"name":"isRetired","type":"bool","internalType":"bool"},{"name":"stakeVersion","type":"uint8","internalType":"uint8"},{"name":"region","type":"uint8","internalType":"uint8"}]}],"anonymous":false},{"type":"event","name":"ValidatorSlashed","inputs":[{"name":"slash","type":"tuple","indexed":false,"internalType":"struct Slash","components":[{"name":"validatorAddress","type":"address","internalType":"address"},{"name":"amount","type":"uint256","internalType":"uint256"}]}],"anonymous":false},{"type":"event","name":"ValidatorStakeVersionUpgraded","inputs":[{"name":"validatorAddress","type":"address","indexed":true,"internalType":"address"},{"name":"oldVersion","type":"uint8","indexed":false,"internalType":"uint8"},{"name":"newVersion","type":"uint8","indexed":false,"internalType":"uint8"},{"name":"oldStakeAmount","type":"uint256","indexed":false,"internalType":"uint256"},{"name":"newStakeAmount","type":"uint256","indexed":false,"internalType":"uint256"}],"anonymous":false},{"type":"event","name":"ValidatorStaked","inputs":[{"name":"validator","type":"tuple","indexed":false,"internalType":"struct IConsensusRegistry.ValidatorInfo","components":[{"name":"blsPubkey","type":"bytes","internalType":"bytes"},{"name":"validatorAddress","type":"address","internalType":"address"},{"name":"activationEpoch","type":"uint32","internalType":"uint32"},{"name":"exitEpoch","type":"uint32","internalType":"uint32"},{"name":"currentStatus","type":"uint8","internalType":"enum IConsensusRegistry.ValidatorStatus"},{"name":"isRetired","type":"bool","internalType":"bool"},{"name":"stakeVersion","type":"uint8","internalType":"uint8"},{"name":"region","type":"uint8","internalType":"uint8"}]}],"anonymous":false},{"type":"error","name":"AlreadyDefined","inputs":[{"name":"validatorAddress","type":"address","internalType":"address"}]},{"type":"error","name":"CommitteeRequirement","inputs":[{"name":"validatorAddress","type":"address","internalType":"address"}]},{"type":"error","name":"DuplicateBLSPubkey","inputs":[]},{"type":"error","name":"ERC721EnumerableForbiddenBatchMint","inputs":[]},{"type":"error","name":"ERC721IncorrectOwner","inputs":[{"name":"sender","type":"address","internalType":"address"},{"name":"tokenId","type":"uint256","internalType":"uint256"},{"name":"owner","type":"address","internalType":"address"}]},{"type":"error","name":"ERC721InsufficientApproval","inputs":[{"name":"operator","type":"address","internalType":"address"},{"name":"tokenId","type":"uint256","internalType":"uint256"}]},{"type":"error","name":"ERC721InvalidApprover","inputs":[{"name":"approver","type":"address","internalType":"address"}]},{"type":"error","name":"ERC721InvalidOperator","inputs":[{"name":"operator","type":"address","internalType":"address"}]},{"type":"error","name":"ERC721InvalidOwner","inputs":[{"name":"owner","type":"address","internalType":"address"}]},{"type":"error","name":"ERC721InvalidReceiver","inputs":[{"name":"receiver","type":"address","internalType":"address"}]},{"type":"error","name":"ERC721InvalidSender","inputs":[{"name":"sender","type":"address","internalType":"address"}]},{"type":"error","name":"ERC721NonexistentToken","inputs":[{"name":"tokenId","type":"uint256","internalType":"uint256"}]},{"type":"error","name":"ERC721OutOfBoundsIndex","inputs":[{"name":"owner","type":"address","internalType":"address"},{"name":"index","type":"uint256","internalType":"uint256"}]},{"type":"error","name":"EnforcedPause","inputs":[]},{"type":"error","name":"ExpectedPause","inputs":[]},{"type":"error","name":"GenesisArityMismatch","inputs":[]},{"type":"error","name":"IneligibleUnstake","inputs":[{"name":"validator","type":"tuple","internalType":"struct IConsensusRegistry.ValidatorInfo","components":[{"name":"blsPubkey","type":"bytes","internalType":"bytes"},{"name":"validatorAddress","type":"address","internalType":"address"},{"name":"activationEpoch","type":"uint32","internalType":"uint32"},{"name":"exitEpoch","type":"uint32","internalType":"uint32"},{"name":"currentStatus","type":"uint8","internalType":"enum IConsensusRegistry.ValidatorStatus"},{"name":"isRetired","type":"bool","internalType":"bool"},{"name":"stakeVersion","type":"uint8","internalType":"uint8"},{"name":"region","type":"uint8","internalType":"uint8"}]}]},{"type":"error","name":"InsufficientRewards","inputs":[{"name":"withdrawAmount","type":"uint256","internalType":"uint256"}]},{"type":"error","name":"InvalidBLSPubkey","inputs":[]},{"type":"error","name":"InvalidCommitteeSize","inputs":[{"name":"minCommitteeSize","type":"uint256","internalType":"uint256"},{"name":"providedCommitteeSize","type":"uint256","internalType":"uint256"}]},{"type":"error","name":"InvalidDuration","inputs":[{"name":"duration","type":"uint32","internalType":"uint32"}]},{"type":"error","name":"InvalidEpoch","inputs":[{"name":"epoch","type":"uint32","internalType":"uint32"}]},{"type":"error","name":"InvalidProofOfPossession","inputs":[{"name":"proof","type":"tuple","internalType":"struct BlsG1.ProofOfPossession","components":[{"name":"uncompressedPubkey","type":"bytes","internalType":"bytes"},{"name":"uncompressedSignature","type":"bytes","internalType":"bytes"}]},{"name":"message","type":"bytes","internalType":"bytes"}]},{"type":"error","name":"InvalidStakeAmount","inputs":[{"name":"stakeAmount","type":"uint256","internalType":"uint256"}]},{"type":"error","name":"InvalidStakeVersion","inputs":[{"name":"currentVersion","type":"uint8","internalType":"uint8"},{"name":"targetVersion","type":"uint8","internalType":"uint8"}]},{"type":"error","name":"InvalidStatus","inputs":[{"name":"status","type":"uint8","internalType":"enum IConsensusRegistry.ValidatorStatus"}]},{"type":"error","name":"InvalidSupply","inputs":[]},{"type":"error","name":"InvalidTokenId","inputs":[{"name":"tokenId","type":"uint256","internalType":"uint256"}]},{"type":"error","name":"InvalidValidatorAddress","inputs":[]},{"type":"error","name":"IssuanceTransferFailed","inputs":[]},{"type":"error","name":"NotRecipient","inputs":[{"name":"recipient","type":"address","internalType":"address"}]},{"type":"error","name":"NotTransferable","inputs":[]},{"type":"error","name":"NotValidator","inputs":[{"name":"validatorAddress","type":"address","internalType":"address"}]},{"type":"error","name":"OnlySystemCall","inputs":[{"name":"invalidCaller","type":"address","internalType":"address"}]},{"type":"error","name":"OwnableInvalidOwner","inputs":[{"name":"owner","type":"address","internalType":"address"}]},{"type":"error","name":"OwnableUnauthorizedAccount","inputs":[{"name":"account","type":"address","internalType":"address"}]},{"type":"error","name":"Reentrancy","inputs":[]},{"type":"error","name":"RequiresConsensusNFT","inputs":[]},{"type":"error","name":"StringsInsufficientHexLength","inputs":[{"name":"value","type":"uint256","internalType":"uint256"},{"name":"length","type":"uint256","internalType":"uint256"}]}],"bytecode":{"object":"0x610120604052348015610010575f80fd5b50604051618a2a380380618a2a83398101604081905261002f916115b7565b806040518060400160405280600c81526020016b10dbdb9cd95b9cdd5cd3919560a21b8152506040518060400160405280600481526020016310d3919560e21b8152508181815f908161008291906116f7565b50600161008f82826116f7565b505030608052504660a0526060806100ef604080518082018252601481527f54656c636f696e205374616b654d616e61676572000000000000000000000000602080830191909152825180840190935260018352603160f81b9083015291565b815160209283012081519183019190912060c082905260e0819052604080517f8b73c3c69bb8fe3d512ecc4cf759cc79239f7b179b0ffacaa9a75d522b39400f8152938401929092529082015246606082015230608082015260a09020610100525050600d805461ff001916905550506001600160a01b03811661018d57604051631e4fbdf760e01b81525f60048201526024015b60405180910390fd5b610196816107c4565b50825115806101a757508151835114155b156101c557604051633aa3e03360e01b815260040160405180910390fd5b5f808052600a602090815285517f13da86008ba1c6922daee3e07db95305ef49ebced9f5467a0b8613fcc6b343e3558501517f13da86008ba1c6922daee3e07db95305ef49ebced9f5467a0b8613fcc6b343e45560408501517f13da86008ba1c6922daee3e07db95305ef49ebced9f5467a0b8613fcc6b343e55560608501517f13da86008ba1c6922daee3e07db95305ef49ebced9f5467a0b8613fcc6b343e6805463ffffffff191663ffffffff9092169190911790558351600d805461ffff60d81b1916600160d81b61ffff909316929092029190911790555b600281116103ab575f601182600481106102bd576102bd6117b1565b600302016002810180546060890151600160401b600160801b03199091166801000000000000000063ffffffff8781169190910263ffffffff60601b1916919091176c0100000000000000000000000091909216021790556040870151600182015590505f601d8360048110610335576103356117b1565b6003020160028101805460608a0151600160401b600160801b03199091166801000000000000000063ffffffff8881169190910263ffffffff60601b1916919091176c0100000000000000000000000091909216021790556040880151600190910155506103a49050816117d9565b90506102a1565b505f5b83518110156107ba575f8482815181106103ca576103ca6117b1565b602002602001015190505f6104068584815181106103ea576103ea6117b1565b60200260200101518360200151845f015161081f60201b60201c565b60208301519091506001600160a01b03166104345760405163713ce51160e01b815260040160405180910390fd5b604082015163ffffffff161561046b576040808301519051634fadd4d360e11b815263ffffffff9091166004820152602401610184565b606082015163ffffffff16156104a2576060820151604051634fadd4d360e11b815263ffffffff9091166004820152602401610184565b6003826080015160068111156104ba576104ba6117f1565b146104de578160800151604051633ba7bf8960e11b81526004016101849190611825565b60a082015115610504576005604051633ba7bf8960e11b81526004016101849190611825565b60c082015160ff16156105355760c082015160405163222d164360e21b815260ff9091166004820152602401610184565b5f5b600281116105f35760118160048110610552576105526117b1565b6020858101516003929092029290920180546001810182555f91825292902090910180546001600160a01b0319166001600160a01b03909216919091179055601d81600481106105a4576105a46117b1565b6020858101516003929092029290920180546001810182555f91825292902090910180546001600160a01b0319166001600160a01b039092169190911790556105ec816117d9565b9050610537565b506020808301516001600160a01b03165f908152600f909152604090208251839190819061062190826116f7565b5060208201516001820180546040850151606086015163ffffffff908116600160c01b0263ffffffff60c01b1991909216600160a01b026001600160c01b03199093166001600160a01b0390951694909417919091179283168117825560808501519260ff60e01b1990911664ffffffffff60c01b1990911617600160e01b8360068111156106b2576106b26117f1565b021790555060a0820151600191909101805460c084015160e09094015161ffff60e81b19909116600160e81b9315159390930260ff60f01b191692909217600160f01b60ff94851602176001600160f81b0316600160f81b93909216929092021790558651602083810180516001600160a01b039081165f908152600b8452604080822095909555825186825260109094529390932080546001600160a01b03191692909316919091179091555161077990610774816001600160a01b031690565b610a19565b7f05ae3ae9268de1d4458eea2d3837e130c248809c169ece7257692dd0b43f346a826040516107a89190611861565b60405180910390a150506001016103ae565b5050505050611a94565b600d80546001600160a01b038381166201000081810262010000600160b01b031985161790945560405193909204169182907f8be0079c531659141344cd1fd0a4f28419497f9722a3daafe3b4186f6b6457e0905f90a35050565b5f8151606014610842576040516333a234f960e11b815260040160405180910390fd5b83515f906108509085610a7f565b855160405163a691a08b60e01b81529192505f9173__$2ef4e8110a3eaa1255da7f08f8eebcbf5a$__9163a691a08b9161088d9190600401611901565b5f60405180830381865af41580156108a7573d5f803e3d5ffd5b505050506040513d5f823e601f3d908101601f191682016040526108ce919081019061191a565b90505f73__$2ef4e8110a3eaa1255da7f08f8eebcbf5a$__633d2a9e1188602001516040518263ffffffff1660e01b815260040161090c9190611901565b5f60405180830381865af4158015610926573d5f803e3d5ffd5b505050506040513d5f823e601f3d908101601f1916820160405261094d919081019061191a565b905073__$2ef4e8110a3eaa1255da7f08f8eebcbf5a$__635779b9a38383866040518060600160405280602b81526020016189ff602b91396040518563ffffffff1660e01b81526004016109a4949392919061194b565b602060405180830381865af41580156109bf573d5f803e3d5ffd5b505050506040513d601f19601f820116820180604052508101906109e39190611997565b610a04578683604051634babb8f160e01b81526004016101849291906119b0565b610a0e8587610bcd565b979650505050505050565b6001600160a01b038216610a4257604051633250574960e11b81525f6004820152602401610184565b5f610a4e838383610c3c565b90506001600160a01b03811615610a7a576040516339e3563760e11b81525f6004820152602401610184565b505050565b60605f73__$2ef4e8110a3eaa1255da7f08f8eebcbf5a$__63a691a08b856040518263ffffffff1660e01b8152600401610ab99190611901565b5f60405180830381865af4158015610ad3573d5f803e3d5ffd5b505050506040513d5f823e601f3d908101601f19168201604052610afa919081019061191a565b6040516329bd7cc960e21b815290915073__$2ef4e8110a3eaa1255da7f08f8eebcbf5a$__9063a6f5f32490610b34908490600401611901565b602060405180830381865af4158015610b4f573d5f803e3d5ffd5b505050506040513d601f19601f82011682018060405250810190610b739190611997565b610b90576040516333a234f960e11b815260040160405180910390fd5b604051610bb49061d50160d81b908690600560fa1b90606088901b90602001611a05565b6040516020818303038152906040529150505b92915050565b81516020808401919091205f81815260109092526040909120546001600160a01b031615610c0e57604051638d12779f60e01b815260040160405180910390fd5b5f81815260106020526040902080546001600160a01b0384166001600160a01b031990911617905592915050565b5f80610c49858585610d0f565b90506001600160a01b038116610ca557610ca084600880545f838152600960205260408120829055600182018355919091527ff3f7a9fe364faab93b216da50a3214154f22a0a2b415b23a84c8169e8b636ee30155565b610cc8565b846001600160a01b0316816001600160a01b031614610cc857610cc88185610e01565b6001600160a01b038516610ce457610cdf84610e7e565b610d07565b846001600160a01b0316816001600160a01b031614610d0757610d078585610f25565b949350505050565b5f828152600260205260408120546001600160a01b0390811690831615610d3b57610d3b818486610f73565b6001600160a01b03811615610d7557610d565f858180610fd7565b6001600160a01b0381165f90815260036020526040902080545f190190555b6001600160a01b03851615610da3576001600160a01b0385165f908152600360205260409020805460010190555b5f8481526002602052604080822080546001600160a01b0319166001600160a01b0389811691821790925591518793918516917fddf252ad1be2c89b69c2b068fc378daa952ba7f163c4a11628f55a4df523b3ef91a4949350505050565b5f610e0b836110f9565b5f838152600760209081526040808320546001600160a01b0388168452600690925290912091925090818314610e60575f83815260208281526040808320548584528184208190558352600790915290208290555b5f938452600760209081526040808620869055938552525081205550565b6008545f90610e8f90600190611a6d565b5f8381526009602052604081205460088054939450909284908110610eb657610eb66117b1565b905f5260205f20015490508060088381548110610ed557610ed56117b1565b5f918252602080832090910192909255828152600990915260408082208490558582528120556008805480610f0c57610f0c611a80565b600190038181905f5260205f20015f9055905550505050565b5f6001610f31846110f9565b610f3b9190611a6d565b6001600160a01b039093165f908152600660209081526040808320868452825280832085905593825260079052919091209190915550565b610f7e83838361113e565b610a7a576001600160a01b038316610fac57604051637e27328960e01b815260048101829052602401610184565b60405163177e802f60e01b81526001600160a01b038316600482015260248101829052604401610184565b8080610feb57506001600160a01b03821615155b156110ca575f610ffa846111be565b90506001600160a01b038316158015906110265750826001600160a01b0316816001600160a01b031614155b801561105757506001600160a01b038082165f9081526005602090815260408083209387168352929052205460ff16155b156110805760405163a9fbf51f60e01b81526001600160a01b0384166004820152602401610184565b81156110c85783856001600160a01b0316826001600160a01b03167f8c5be1e5ebec7d5bd14f71427d1e84f3dd0314c0f7b2291e5b200ac8c7c3b92560405160405180910390a45b505b50505f90815260046020526040902080546001600160a01b0319166001600160a01b0392909216919091179055565b5f6001600160a01b038216611123576040516322718ad960e21b81525f6004820152602401610184565b506001600160a01b03165f9081526003602052604090205490565b5f6001600160a01b03831615801590610d075750826001600160a01b0316846001600160a01b0316148061119657506001600160a01b038085165f9081526005602090815260408083209387168352929052205460ff165b80610d075750505f908152600460205260409020546001600160a01b03908116911614919050565b5f818152600260205260408120546001600160a01b031680610bc757604051637e27328960e01b815260048101849052602401610184565b634e487b7160e01b5f52604160045260245ffd5b60405161010081016001600160401b038111828210171561122d5761122d6111f6565b60405290565b604080519081016001600160401b038111828210171561122d5761122d6111f6565b604051608081016001600160401b038111828210171561122d5761122d6111f6565b604051601f8201601f191681016001600160401b038111828210171561129f5761129f6111f6565b604052919050565b805163ffffffff811681146112ba575f80fd5b919050565b5f6001600160401b038211156112d7576112d76111f6565b5060051b60200190565b5f82601f8301126112f0575f80fd5b81516001600160401b03811115611309576113096111f6565b61131c601f8201601f1916602001611277565b818152846020838601011115611330575f80fd5b8160208501602083015e5f918101602001919091529392505050565b80516001600160a01b03811681146112ba575f80fd5b8051600781106112ba575f80fd5b805180151581146112ba575f80fd5b805160ff811681146112ba575f80fd5b5f82601f83011261139e575f80fd5b81516113b16113ac826112bf565b611277565b8082825260208201915060208360051b8601019250858311156113d2575f80fd5b602085015b838110156114c35780516001600160401b038111156113f4575f80fd5b8601610100818903601f1901121561140a575f80fd5b61141261120a565b60208201516001600160401b0381111561142a575f80fd5b6114398a6020838601016112e1565b8252506114486040830161134c565b6020820152611459606083016112a7565b604082015261146a608083016112a7565b606082015261147b60a08301611362565b608082015261148c60c08301611370565b60a082015261149d60e0830161137f565b60c08201526114af610100830161137f565b60e0820152845250602092830192016113d7565b5095945050505050565b5f82601f8301126114dc575f80fd5b81516114ea6113ac826112bf565b8082825260208201915060208360051b86010192508583111561150b575f80fd5b602085015b838110156114c35780516001600160401b0381111561152d575f80fd5b86016040818903601f19011215611542575f80fd5b61154a611233565b60208201516001600160401b03811115611562575f80fd5b6115718a6020838601016112e1565b82525060408201516001600160401b0381111561158c575f80fd5b61159b8a6020838601016112e1565b6020830152508085525050602083019250602081019050611510565b5f805f8084860360e08112156115cb575f80fd5b60808112156115d8575f80fd5b506115e1611255565b855181526020808701519082015260408087015190820152611605606087016112a7565b606082015260808601519094506001600160401b03811115611625575f80fd5b6116318782880161138f565b60a087015190945090506001600160401b0381111561164e575f80fd5b61165a878288016114cd565b92505061166960c0860161134c565b905092959194509250565b600181811c9082168061168857607f821691505b6020821081036116a657634e487b7160e01b5f52602260045260245ffd5b50919050565b601f821115610a7a57805f5260205f20601f840160051c810160208510156116d15750805b601f840160051c820191505b818110156116f0575f81556001016116dd565b5050505050565b81516001600160401b03811115611710576117106111f6565b6117248161171e8454611674565b846116ac565b6020601f821160018114611756575f831561173f5750848201515b5f19600385901b1c1916600184901b1784556116f0565b5f84815260208120601f198516915b828110156117855787850151825560209485019460019092019101611765565b50848210156117a257868401515f19600387901b60f8161c191681555b50505050600190811b01905550565b634e487b7160e01b5f52603260045260245ffd5b634e487b7160e01b5f52601160045260245ffd5b5f600182016117ea576117ea6117c5565b5060010190565b634e487b7160e01b5f52602160045260245ffd5b6007811061182157634e487b7160e01b5f52602160045260245ffd5b9052565b60208101610bc78284611805565b5f81518084528060208401602086015e5f602082860101526020601f19601f83011685010191505092915050565b602081525f8251610100602084015261187e610120840182611833565b905060018060a01b03602085015116604084015263ffffffff604085015116606084015260608401516118b9608085018263ffffffff169052565b5060808401516118cc60a0850182611805565b5060a084015180151560c08501525060c084015160ff811660e08501525060e084015160ff8116610100850152509392505050565b602081525f6119136020830184611833565b9392505050565b5f6020828403121561192a575f80fd5b81516001600160401b0381111561193f575f80fd5b610d07848285016112e1565b608081525f61195d6080830187611833565b828103602084015261196f8187611833565b905082810360408401526119838186611833565b90508281036060840152610a0e8185611833565b5f602082840312156119a7575f80fd5b61191382611370565b604081525f83516040808401526119ca6080840182611833565b90506020850151603f198483030160608501526119e78282611833565b91505082810360208401526119fc8185611833565b95945050505050565b6001600160d81b03198516815283515f908060208701600585015e7fff00000000000000000000000000000000000000000000000000000000000000949094169190930160058101919091526001600160601b0319919091166006820152601a019392505050565b81810381811115610bc757610bc76117c5565b634e487b7160e01b5f52603160045260245ffd5b60805160a05160c05160e05161010051616f2e611ad15f395f61425e01525f61431801525f6142f201525f6142a201525f61427f0152616f2e5ff3fe60806040526004361061039c575f3560e01c80636a926591116101de578063a0201be511610108578063c87b56dd1161009d578063f06247681161006d578063f062476814610b1d578063f2888dbb14610b3c578063f2fde38b14610b5b578063fa52c7d814610b7a575f80fd5b8063c87b56dd14610a93578063e3716d0414610ab2578063e985e9c514610ad1578063eb8535c214610af0575f80fd5b8063b88d4fde116100d8578063b88d4fde14610a10578063b97dd9e214610a2f578063babc394f14610a60578063c05df7ac14610a74575f80fd5b8063a0201be5146109a5578063a22cb465146109c4578063a71954ec146109de578063b5184324146109fd575f80fd5b80638456cb591161017e5780638bb43f3a1161014e5780638bb43f3a1461092f5780638cc05eda146109425780638da5cb5b1461096e57806395d89b4114610991575f80fd5b80638456cb59146108ae57806384b0196e146108c2578063863623bb146108e957806389afcb4414610910575f80fd5b8063715018a6116101b9578063715018a61461080f57806379ee54f7146108235780637b55a300146108425780637d06fdf814610861575f80fd5b80636a926591146107b25780636d3c6275146107d157806370a08231146107f0575f80fd5b80633434735f116102ca57806359ca93b61161025f5780636352211e1161022f5780636352211e1461072f578063673983311461074e5780636850eb31146107745780636a62784214610793575f80fd5b806359ca93b6146106c25780635a41fb1f146106e15780635c975abb146106f457806362fcde4b14610710575f80fd5b80633e28391d1161029a5780633e28391d146106515780633f4ba83a1461067057806342842e0e146106845780634f6ccce7146106a3575f80fd5b80633434735f146105a8578063355811a7146105c2578063374ed18c146105ca5780633894228e146105f6575f80fd5b80630f15f4c0116103405780632228dfa0116103105780632228dfa01461053c57806323b872dd146105505780632b9f49851461056a5780632f745c5914610589575f80fd5b80630f15f4c0146104ae57806315b5709a146104c257806318160ddd146104fc5780631904bb2e14610510575f80fd5b806306fdde031161037b57806306fdde0314610418578063081812fc14610439578063095ea7b3146104705780630a36cdef1461048f575f80fd5b80628d6acd146103a057806301ffc9a7146103c857806302ae337b146103f7575b5f80fd5b3480156103ab575f80fd5b506103b5600e5481565b6040519081526020015b60405180910390f35b3480156103d3575f80fd5b506103e76103e23660046157e2565b610bad565b60405190151581526020016103bf565b348015610402575f80fd5b50610416610411366004615844565b610bd7565b005b348015610423575f80fd5b5061042c610d2d565b6040516103bf91906158b0565b348015610444575f80fd5b506104586104533660046158c2565b610dbc565b6040516001600160a01b0390911681526020016103bf565b34801561047b575f80fd5b5061041661048a3660046158ef565b610de3565b34801561049a575f80fd5b506104166104a9366004615844565b610dfc565b3480156104b9575f80fd5b5061041661104e565b3480156104cd575f80fd5b506104e16104dc366004615917565b611097565b604080519384526020840192909252908201526060016103bf565b348015610507575f80fd5b506008546103b5565b34801561051b575f80fd5b5061052f61052a366004615917565b611100565b6040516103bf9190615a06565b348015610547575f80fd5b5061041661127e565b34801561055b575f80fd5b5061041661048a366004615a18565b348015610575575f80fd5b50610416610584366004615917565b611343565b348015610594575f80fd5b506103b56105a33660046158ef565b61145f565b3480156105b3575f80fd5b506104586002600160a01b0381565b6104166114c2565b3480156105d5575f80fd5b506105e96105e4366004615a63565b611544565b6040516103bf9190615a7e565b348015610601575f80fd5b506106156106103660046158c2565b6116e3565b604080519586526001600160401b03909416602086015263ffffffff9283169385019390935216606083015260ff16608082015260a0016103bf565b34801561065c575f80fd5b506103e761066b366004615917565b611737565b34801561067b575f80fd5b5061041661175d565b34801561068f575f80fd5b5061041661069e366004615a18565b61176f565b3480156106ae575f80fd5b506103b56106bd3660046158c2565b611789565b3480156106cd575f80fd5b506106156106dc3660046158c2565b6117de565b6104166106ef366004615b45565b6117ed565b3480156106ff575f80fd5b50600d54610100900460ff166103e7565b34801561071b575f80fd5b5061041661072a366004615b76565b611c9c565b34801561073a575f80fd5b506104586107493660046158c2565b611da8565b348015610759575f80fd5b50610762611db2565b60405160ff90911681526020016103bf565b34801561077f575f80fd5b5061042c61078e366004615c53565b611dc4565b34801561079e575f80fd5b506104166107ad366004615917565b611f11565b3480156107bd575f80fd5b506103e76107cc366004615cd1565b611f6f565b3480156107dc575f80fd5b506103e76107eb366004615917565b611fe7565b3480156107fb575f80fd5b506103b561080a366004615917565b612071565b34801561081a575f80fd5b506104166120b6565b34801561082e575f80fd5b506103b561083d366004615917565b6120c7565b34801561084d575f80fd5b5061041661085c366004615d03565b61210c565b34801561086c575f80fd5b50610875612282565b6040516103bf919081518152602080830151908201526040808301519082015260609182015163ffffffff169181019190915260800190565b3480156108b9575f80fd5b506104166122ff565b3480156108cd575f80fd5b506108d661230f565b6040516103bf9796959493929190615d72565b3480156108f4575f80fd5b506104587307a07a07a07a07a07a07a07a07a07a07a07a07a081565b34801561091b575f80fd5b5061041661092a366004615917565b612376565b61041661093d366004615e95565b612429565b34801561094d575f80fd5b5061096161095c366004615f3c565b61269b565b6040516103bf9190615f5a565b348015610979575f80fd5b50600d546201000090046001600160a01b0316610458565b34801561099c575f80fd5b5061042c6126d9565b3480156109b0575f80fd5b506109616109bf366004615a63565b6126e8565b3480156109cf575f80fd5b5061041661048a366004615fca565b3480156109e9575f80fd5b506108756109f8366004615fff565b6127a9565b610416610a0b366004616018565b612823565b348015610a1b575f80fd5b50610416610a2a36600461607f565b6128b0565b348015610a3a575f80fd5b50600d54600160b01b900463ffffffff1660405163ffffffff90911681526020016103bf565b348015610a6b575f80fd5b506105e96128c8565b348015610a7f575f80fd5b50610762610a8e3660046160e2565b6129d5565b348015610a9e575f80fd5b5061042c610aad3660046158c2565b612a8b565b348015610abd575f80fd5b506103b5610acc3660046160fb565b612afb565b348015610adc575f80fd5b506103e7610aeb366004616154565b612bb5565b348015610afb575f80fd5b50600d54600160d81b900461ffff1660405161ffff90911681526020016103bf565b348015610b28575f80fd5b50610416610b37366004615b45565b612be2565b348015610b47575f80fd5b50610416610b56366004615917565b612c64565b348015610b66575f80fd5b50610416610b75366004615917565b612d8c565b348015610b85575f80fd5b50610b99610b94366004615917565b612dc6565b6040516103bf98979695949392919061617c565b5f6001600160e01b0319821663780e9d6360e01b1480610bd15750610bd182612eb4565b92915050565b336002600160a01b0314610c0557604051637eb3357160e01b81523360048201526024015b60405180910390fd5b5f5b81811015610d285736838383818110610c2257610c226161e5565b604002919091019150610c3d90506107eb6020830183615917565b15610c485750610d20565b60208101803590600b905f90610c5e9085615917565b6001600160a01b03166001600160a01b031681526020019081526020015f20541115610cd25760208101803590600b905f90610c9a9085615917565b6001600160a01b03166001600160a01b031681526020019081526020015f205f828254610cc7919061620d565b90915550610ce79050565b610ce7610ce26020830183615917565b612f03565b7f11a09f9b32440d896abff7453bf53f8b26ffcb18dae4dca227f7a76e2acc3a6481604051610d169190616220565b60405180910390a1505b600101610c07565b505050565b60605f8054610d3b90616249565b80601f0160208091040260200160405190810160405280929190818152602001828054610d6790616249565b8015610db25780601f10610d8957610100808354040283529160200191610db2565b820191905f5260205f20905b815481529060010190602001808311610d9557829003601f168201915b5050505050905090565b5f610dc682613051565b505f828152600460205260409020546001600160a01b0316610bd1565b60405163dc8d8db760e01b815260040160405180910390fd5b336002600160a01b0314610e2557604051637eb3357160e01b8152336004820152602401610bfc565b5f80826001600160401b03811115610e3f57610e3f615b97565b604051908082528060200260200182016040528015610e68578160200160208202803683370190505b5090505f5b83811015610f4f5736858583818110610e8857610e886161e5565b905060400201905080602001355f03610ea15750610f47565b610eb16107eb6020830183615917565b15610ebc5750610f47565b5f600f81610ecd6020850185615917565b6001600160a01b0316815260208082019290925260409081015f90812060010154600160f01b900460ff16808252600a8452918120549193509091610f159085013583616281565b9050610f218188616298565b965080868681518110610f3657610f366161e5565b602002602001018181525050505050505b600101610e6d565b50815f03610f5d5750505050565b5f610f666128c8565b6020015190505f600e5482610f7b9190616298565b90505f805b86811015611036575f86868381518110610f9c57610f9c6161e5565b602002602001015185610faf9190616281565b610fb991906162bf565b9050801561102d5780600b5f8b8b86818110610fd757610fd76161e5565b610fed9260206040909202019081019150615917565b6001600160a01b03166001600160a01b031681526020019081526020015f205f82825461101a9190616298565b9091555061102a90508184616298565b92505b50600101610f80565b50611041818361620d565b600e5550505050505b5050565b611056613089565b61105f336130b2565b5061106b336001613120565b335f908152600f60205260409020600d54611094908290600160b01b900463ffffffff16613189565b50565b6001600160a01b0381165f908152600f6020908152604080832060010154600160f01b900460ff16808452600a90925282205482918291826110d98783613209565b6001600160a01b03979097165f908152600b60205260409020549791969550909350505050565b611108615713565b6001600160a01b0382165f908152600f602052604090206001810154600160e81b900460ff1661113d5761113b836130b2565b505b80604051806101000160405290815f8201805461115990616249565b80601f016020809104026020016040519081016040528092919081815260200182805461118590616249565b80156111d05780601f106111a7576101008083540402835291602001916111d0565b820191905f5260205f20905b8154815290600101906020018083116111b357829003601f168201915b505050918352505060018201546001600160a01b038116602083015263ffffffff600160a01b820481166040840152600160c01b820416606083015260809091019060ff600160e01b90910416600681111561122e5761122e615930565b600681111561123f5761123f615930565b81526001919091015460ff600160e81b8204811615156020840152600160f01b820481166040840152600160f81b909104166060909101529392505050565b611286613089565b61128f336130b2565b505f61129b6003613242565b51600d549091505f90601190600160d01b900460ff16600481106112c1576112c16161e5565b600302015490506112d282826134f0565b6112dd336003613120565b335f908152600f60205260409020600d54600182015463ffffffff600160b01b909204821691600160a01b9091041681101561133457604051634fadd4d360e11b815263ffffffff82166004820152602401610bfc565b61133d8261352d565b50505050565b61134b613089565b3068929eee149b4bd2126854036113695763ab143c065f526004601cfd5b3068929eee149b4bd212685561137e816130b2565b506001600160a01b0381165f908152600f6020526040812060010154600160f01b900460ff16906113ae83613585565b9050336001600160a01b038416148015906113d25750336001600160a01b03821614155b156113fb5760405163172b4e7560e11b81526001600160a01b0382166004820152602401610bfc565b5f6114078483856135b4565b604080516001600160a01b0385168152602081018390529192507ffc30cddea38e2bf4d6ea7d3f9ed3b6ad7f176419f4963bd81318067a4aee73fe91015b60405180910390a15050503868929eee149b4bd212685550565b5f61146983612071565b821061149a5760405163295f44f760e21b81526001600160a01b038416600482015260248101839052604401610bfc565b506001600160a01b03919091165f908152600660209081526040808320938352929052205490565b6114ca613669565b6040515f907307a07a07a07a07a07a07a07a07a07a07a07a07a09034908381818185875af1925050503d805f811461151d576040519150601f19603f3d011682016040523d82523d5f602084013e611522565b606091505b505090508061109457604051630b567ce360e31b815260040160405180910390fd5b6040805160c08101825260608082525f6020830181905292820183905281018290526080810182905260a0810191909152600d54600160b01b900463ffffffff166115908160026162d2565b63ffffffff168363ffffffff1611806115d0575060038163ffffffff16101580156115d057506115c16003826162ee565b63ffffffff168363ffffffff16105b156115f657604051634fadd4d360e11b815263ffffffff84166004820152602401610bfc565b600d54600160d01b900460ff1663ffffffff82811690851611156116d85761161f84838361369d565b60408051825460e0602082028301810190935260c08201818152919392849291849184018282801561167857602002820191905f5260205f20905b81546001600160a01b0316815260019091019060200180831161165a575b5050509183525050600182015460208201526002909101546001600160401b038116604083015263ffffffff600160401b820481166060840152600160601b820416608083015260ff600160801b9091041660a090910152949350505050565b61161f848383613727565b601181600481106116f2575f80fd5b6003020160018101546002909101549091506001600160401b03811690600160401b810463ffffffff90811691600160601b810490911690600160801b900460ff1685565b6001600160a01b038082165f908152600c60205260408120600201549091161515610bd1565b611765613669565b61176d6137c8565b565b610d2883838360405180602001604052805f8152506128b0565b5f61179360085490565b82106117bb5760405163295f44f760e21b81525f600482015260248101839052604401610bfc565b600882815481106117ce576117ce6161e5565b905f5260205f2001549050919050565b601d81600481106116f2575f80fd5b6117f5613089565b3068929eee149b4bd2126854036118135763ab143c065f526004601cfd5b3068929eee149b4bd2126855611828826130b2565b505f61183383613585565b9050336001600160a01b038416148015906118575750336001600160a01b03821614155b156118805760405163172b4e7560e11b81526001600160a01b0382166004820152602401610bfc565b6001600160a01b0383165f908152600f60205260409020600180820154600160e01b900460ff16908160068111156118ba576118ba615930565b141580156118da575060028160068111156118d7576118d7615930565b14155b80156118f8575060038160068111156118f5576118f5615930565b14155b156119185780604051633ba7bf8960e11b8152600401610bfc919061630a565b600182015460ff600160f01b9091048116908516811015806119425750600d5460ff908116908616115b1561196d57604051633abb443b60e21b815260ff808316600483015286166024820152604401610bfc565b60ff8082165f908152600a6020526040808220549288168252902054818111156119f3575f61199c838361620d565b90508034146119c05760405163222d164360e21b8152346004820152602401610bfc565b6001600160a01b0389165f908152600b6020526040812080548392906119e7908490616298565b90915550611bc2915050565b81811015611ba1573415611a1c5760405163222d164360e21b8152346004820152602401610bfc565b5f611a27828461620d565b6001600160a01b038a165f908152600b6020526040812054919250848210611a50575081611a65565b83821115611a6557611a62848361620d565b90505b8015611b09576001600160a01b038b165f908152600b602052604081208054839290611a9290849061620d565b9091555050604051634875485760e11b81526001600160a01b038a1660048201525f60248201527307a07a07a07a07a07a07a07a07a07a07a07a07a0906390ea90ae9083906044015f604051808303818588803b158015611af1575f80fd5b505af1158015611b03573d5f803e3d5ffd5b50505050505b5f611b14828561620d565b90508015611b98576040515f907307a07a07a07a07a07a07a07a07a07a07a07a07a09083908381818185875af1925050503d805f8114611b6f576040519150601f19603f3d011682016040523d82523d5f602084013e611b74565b606091505b5050905080611b9657604051630b567ce360e31b815260040160405180910390fd5b505b50505050611bc2565b3415611bc25760405163222d164360e21b8152346004820152602401610bfc565b60018501805460ff60f01b1916600160f01b60ff8a16021790556001600160a01b038089165f908152600c60205260409020600201541615611c2f576001600160a01b0388165f908152600c60205260409020600201805460ff60a01b1916600160a01b60ff8a16021790555b6040805160ff808616825289166020820152908101839052606081018290526001600160a01b038916907f27f993440568bc502fe7db72fe27118488431975dc3239b379513a4cdb08e2c99060800160405180910390a25050505050503868929eee149b4bd21268555050565b611ca4613669565b8061ffff165f03611cf757600d54601190600160d01b900460ff1660048110611ccf57611ccf6161e5565b6003020154604051635700689f60e11b815260048101919091525f6024820152604401610bfc565b5f611d026003613242565b905080518261ffff161115611d3a578051604051635700689f60e11b8152600481019190915261ffff83166024820152604401610bfc565b600d805461ffff848116600160d81b81810261ffff60d81b1985161790945584516040805195909404909216808552602085019190915291830152907f74cf7ca84b30b723e8b6e3cc569ec2db21f4ba2fcc09d651e5ce6770b91552f99060600160405180910390a1505050565b5f610bd182613051565b5f611dbb6128c8565b60a00151905090565b60605f73__$2ef4e8110a3eaa1255da7f08f8eebcbf5a$__63a691a08b856040518263ffffffff1660e01b8152600401611dfe91906158b0565b5f60405180830381865af4158015611e18573d5f803e3d5ffd5b505050506040513d5f823e601f3d908101601f19168201604052611e3f9190810190616318565b6040516329bd7cc960e21b815290915073__$2ef4e8110a3eaa1255da7f08f8eebcbf5a$__9063a6f5f32490611e799084906004016158b0565b602060405180830381865af4158015611e94573d5f803e3d5ffd5b505050506040513d601f19601f82011682018060405250810190611eb8919061638c565b611ed5576040516333a234f960e11b815260040160405180910390fd5b604051611ef99061d50160d81b908690600560fa1b90606088901b906020016163be565b60405160208183030381529060405291505092915050565b611f19613669565b611f2281612071565b151580611f335750611f3381611fe7565b15611f5c57604051639fb0877960e01b81526001600160a01b0382166004820152602401610bfc565b611094816001600160a01b03811661381b565b5f60608214611f7f57505f610bd1565b5f8383604051611f90929190616407565b60408051918290039091205f818152601060205291909120549091506001600160a01b031680611fc4575f92505050610bd1565b611fcd81611fe7565b15611fdc575f92505050610bd1565b506001949350505050565b5f611ffa6001600160a01b03831661387c565b1561200657505f919050565b5f6001600160a01b0383165f908152600f6020526040902060010154600160e01b900460ff16600681111561203d5761203d615930565b0361204957505f919050565b506001600160a01b03165f908152600f6020526040902060010154600160e81b900460ff1690565b5f6001600160a01b03821661209b576040516322718ad960e21b81525f6004820152602401610bfc565b506001600160a01b03165f9081526003602052604090205490565b6120be613669565b61176d5f6138cf565b6001600160a01b0381165f908152600f6020908152604080832060010154600160f01b900460ff16808452600a9092528220546121048482613209565b949350505050565b336002600160a01b031461213557604051637eb3357160e01b8152336004820152602401610bfc565b61213f828261392a565b600d54600160d81b900461ffff16811461218357600d54604051635700689f60e11b8152600160d81b90910461ffff16600482015260248101829052604401610bfc565b5f805f806121c28686808060200260200160405190810160405280939291908181526020018383602002808284375f92019190915250613a0192505050565b93509350935093506121d5868686613d26565b5f6121e06003613242565b80519091506121ef90876134f0565b7fd1a5032a9ae65ebe520eba7974025750af3d884b6ab6047dad04dcf7006ab3856040518060c001604052808481526020018681526020014360016122349190616298565b6001600160401b0316815263ffffffff80891660208301528616604080830191909152600d5460ff16606090920191909152516122719190615a7e565b60405180910390a150505050505050565b6122af60405180608001604052805f81526020015f81526020015f81526020015f63ffffffff1681525090565b50600d5460ff165f908152600a602090815260409182902082516080810184528154815260018201549281019290925260028101549282019290925260039091015463ffffffff16606082015290565b612307613669565b61176d613f6a565b600f60f81b6060805f80808361236460408051808201825260148152732a32b631b7b4b71029ba30b5b2a6b0b730b3b2b960611b602080830191909152825180840190935260018352603160f81b9083015291565b97989097965046955030945091925090565b61237e613669565b61238781611fe7565b156123a8576006604051633ba7bf8960e11b8152600401610bfc919061630a565b6123b1816130b2565b505f6001600160a01b0382165f908152600f6020526040902060010154600160e01b900460ff1660068111156123e9576123e9615930565b03612420576001600160a01b0381165f908152600f6020526040902061240e90613fa9565b6110946001600160a01b038216613fef565b61109481612f03565b612431613089565b5f612472858589898080601f0160208091040260200160405190810160405280939291908181526020018383808284375f9201919091525061402792505050565b90505f61247d6128c8565b60a0015190505f61248e3483614221565b9050612499866130b2565b506124a4865f613120565b6001600160a01b0386165f908152600c60205260409020600201546001600160401b03600160a81b909104166124e9600d546001600160a01b03620100009091041690565b6001600160a01b0316336001600160a01b031614612598575f7f9a361e91fa9aa610b5edf1d5c1cc20b9646c4228f3c004354ed2de7635dac994858933878660405160200161253d96959493929190616416565b6040516020818303038152906040528051906020012090505f61255f8261425c565b905061256d89828a8a614372565b61259557604051633b4f6e2b60e21b81526001600160a01b038a166004820152602401610bfc565b50505b6040518060a00160405280858152602001886001600160a01b03168152602001336001600160a01b031681526020018460ff1681526020018260016125dd9190616454565b6001600160401b039081169091526001600160a01b038981165f908152600c602090815260409182902085518155908501516001820180546001600160a01b03191691851691909117905590840151600290910180546060860151608090960151929093166001600160a81b031990931692909217600160a01b60ff909516949094029390931767ffffffffffffffff60a81b1916600160a81b939092169290920217905561268f8a8a898686614445565b50505050505050505050565b60605f8260068111156126b0576126b0615930565b036126d05781604051633ba7bf8960e11b8152600401610bfc919061630a565b610bd182613242565b606060018054610d3b90616249565b60605f6126f483611544565b5f015190505f81516001600160401b0381111561271357612713615b97565b60405190808252806020026020018201604052801561274c57816020015b612739615713565b8152602001906001900390816127315790505b5090505f5b81518110156127a15761277c83828151811061276f5761276f6161e5565b6020026020010151611100565b82828151811061278e5761278e6161e5565b6020908102919091010152600101612751565b509392505050565b6127d660405180608001604052805f81526020015f81526020015f81526020015f63ffffffff1681525090565b5060ff165f908152600a602090815260409182902082516080810184528154815260018201549281019290925260028101549282019290925260039091015463ffffffff16606082015290565b61282b613089565b61286b813385858080601f0160208091040260200160405190810160405280939291908181526020018383808284375f9201919091525061402792505050565b505f6128756128c8565b60a0015190505f6128863483614221565b9050612891336130b2565b5061289c335f613120565b6128a98585338585614445565b5050505050565b6128bb848484610de3565b61133d338585858561463a565b6040805160c08101825260608082525f6020830181905292820183905281018290526080810182905260a0810191909152600d5461291f90600160b01b810463ffffffff16908190600160d01b900460ff16613727565b60408051825460e0602082028301810190935260c08201818152919392849291849184018282801561297857602002820191905f5260205f20905b81546001600160a01b0316815260019091019060200180831161295a575b5050509183525050600182015460208201526002909101546001600160401b038116604083015263ffffffff600160401b820481166060840152600160601b820416608083015260ff600160801b9091041660a090910152919050565b5f6129de613669565b6129e6613089565b6129f66080830160608401615a63565b63ffffffff165f03612a3457612a126080830160608401615a63565b604051630c6e911360e41b815263ffffffff9091166004820152602401610bfc565b600d80545f91908290612a499060ff16616473565b825460ff8083166101009490940a848102910219909116179092555f908152600a602052604090209091508390612a808282616491565b50909150505b919050565b6060612a9682613051565b505f612ad1612aa484614761565b612aac61480f565b604051602001612abd9291906164d4565b604051602081830303815290604052614859565b905080604051602001612ae491906165c3565b604051602081830303815290604052915050919050565b5f612b05836130b2565b505f612b0f6128c8565b60a001516001600160a01b0385165f908152600c602090815260408083206002015489518a8401209151949550600160a81b90046001600160401b031693909291612b86917f9a361e91fa9aa610b5edf1d5c1cc20b9646c4228f3c004354ed2de7635dac9949185918b918b918a918a9101616416565b604051602081830303815290604052805190602001209050612ba78161425c565b9450505050505b9392505050565b6001600160a01b039182165f90815260056020908152604080832093909416825291909152205460ff1690565b612bea613669565b612bf3826130b2565b506001600160a01b0382165f818152600f602090815260409182902060010180546001600160f81b0316600160f81b60ff87169081029190911790915591519182527ffa96cc66d1772e5646f86e374867e4e32b5b448b2aadb331568e34c2d063e455910160405180910390a25050565b612c6c613089565b3068929eee149b4bd212685403612c8a5763ab143c065f526004601cfd5b3068929eee149b4bd2126855612c9f816130b2565b505f612caa82613585565b9050336001600160a01b03831614801590612cce5750336001600160a01b03821614155b15612cf75760405163172b4e7560e11b81526001600160a01b0382166004820152602401610bfc565b6001600160a01b0382165f908152600f60205260409020612d178161487f565b612d36578060405163d971543960e01b8152600401610bfc9190616673565b612d3f81613fa9565b5f612d4a848461491f565b604080516001600160a01b0386168152602081018390529192507ffc30cddea38e2bf4d6ea7d3f9ed3b6ad7f176419f4963bd81318067a4aee73fe9101611445565b612d94613669565b6001600160a01b038116612dbd57604051631e4fbdf760e01b81525f6004820152602401610bfc565b611094816138cf565b600f6020525f9081526040902080548190612de090616249565b80601f0160208091040260200160405190810160405280929190818152602001828054612e0c90616249565b8015612e575780601f10612e2e57610100808354040283529160200191612e57565b820191905f5260205f20905b815481529060010190602001808311612e3a57829003601f168201915b505050600190930154919250506001600160a01b0381169063ffffffff600160a01b8204811691600160c01b81049091169060ff600160e01b8204811691600160e81b8104821691600160f01b8204811691600160f81b90041688565b5f6001600160e01b031982166380ac58cd60e01b1480612ee457506001600160e01b03198216635b5e139f60e01b145b80610bd157506301ffc9a760e01b6001600160e01b0319831614610bd1565b6001600160a01b0381165f908152600f6020526040812060018101549091600160e01b90910460ff1690612f376003613242565b519050612f4382614aa2565b15612f5657612f5360018261620d565b90505b612f608482614af5565b5f80612f6b86611097565b506001600160a01b0388165f908152600b602052604081208190559193509150818310612f985781612f9a565b825b6040519091505f907307a07a07a07a07a07a07a07a07a07a07a07a07a09083908381818185875af1925050503d805f8114612ff0576040519150601f19603f3d011682016040523d82523d5f602084013e612ff5565b606091505b505090508061301757604051630b567ce360e31b815260040160405180910390fd5b600d54613032908890600160b01b900463ffffffff16614c2d565b61303b87613fa9565b5f61304589613585565b905061268f898261491f565b5f818152600260205260408120546001600160a01b031680610bd157604051637e27328960e01b815260048101849052602401610bfc565b600d54610100900460ff161561176d5760405163d93c066560e01b815260040160405180910390fd5b5f6001600160a01b0382166130c68161387c565b6130e65760405163ed15e6cf60e01b815260048101829052602401610bfc565b826001600160a01b03166130f982611da8565b6001600160a01b031614610bd1576040516330fa89ab60e11b815260040160405180910390fd5b6001600160a01b0382165f908152600f6020526040902060010154600160e01b900460ff1681600681111561315757613157615930565b81600681111561316957613169615930565b14610d285780604051633ba7bf8960e11b8152600401610bfc919061630a565b6131948160016162d2565b60018301805463ffffffff92909216600160a01b0260ff60e01b191668ff00000000ffffffff60a01b1990921691909117600160e11b1790556040517f6e668e3909349b32ae68d82cfc1f802ec8dba83a8fe346c109a2eb64bf7c5f4e906131fd908490616673565b60405180910390a15050565b6001600160a01b0382165f908152600b60205260408120548183821161322f575f613239565b613239848361620d565b95945050505050565b60605f61324e60085490565b6001600160401b0381111561326557613265615b97565b60405190808252806020026020018201604052801561329e57816020015b61328b615713565b8152602001906001900390816132835790505b5090505f805b82518110156134e7575f6132bd6132ba83611789565b90565b6001600160a01b0381165f908152600f60205260409020600181015491925090600160e81b900460ff16156132f35750506134df565b5f600688600681111561330857613308615930565b14905080613372576001820154600160e01b900460ff16600389600681111561333357613333615930565b036133485761334181614aa2565b9150613370565b88600681111561335a5761335a615930565b81600681111561336c5761336c615930565b1491505b505b80156134db5781604051806101000160405290815f8201805461339490616249565b80601f01602080910402602001604051908101604052809291908181526020018280546133c090616249565b801561340b5780601f106133e25761010080835404028352916020019161340b565b820191905f5260205f20905b8154815290600101906020018083116133ee57829003601f168201915b505050918352505060018201546001600160a01b038116602083015263ffffffff600160a01b820481166040840152600160c01b820416606083015260809091019060ff600160e01b90910416600681111561346957613469615930565b600681111561347a5761347a615930565b81526001919091015460ff600160e81b8204811615156020840152600160f01b820481166040840152600160f81b9091041660609091015286866134bd81616706565b9750815181106134cf576134cf6161e5565b60200260200101819052505b5050505b6001016132a4565b50815292915050565b8115806134fb575080155b8061350557508181115b1561104a57604051635700689f60e11b81526004810183905260248101829052604401610bfc565b60018101805464ffffffffff60c01b19166404ffffffff60c01b1790556040517f9efeb0beb9e1b3c6af9b3f19619b6541c7cb5c7ea2cb51c77696a4cddaf093ee9061357a908390616673565b60405180910390a150565b6001600160a01b038082165f908152600c602052604081206002810154919290911680612bae57509192915050565b5f806135c08584614c86565b6001600160a01b0386165f908152600b60205260408120805492935083929091906135ec90849061620d565b9091555050604051634875485760e11b81526001600160a01b0385166004820152602481018290527307a07a07a07a07a07a07a07a07a07a07a07a07a0906390ea90ae906044015f604051808303815f87803b15801561364a575f80fd5b505af115801561365c573d5f803e3d5ffd5b5092979650505050505050565b600d546001600160a01b036201000090910416331461176d5760405163118cdaa760e01b8152336004820152602401610bfc565b5f806004836136ac86886162ee565b6136b6919061671e565b6136c09190616737565b90505f601d8260ff16600481106136d9576136d96161e5565b6003020190508563ffffffff168160020160089054906101000a900463ffffffff1663ffffffff161461323957604051634fadd4d360e11b815263ffffffff87166004820152602401610bfc565b5f8061373385856162ee565b90505f600482613743868361671e565b61374d9190616758565b6137579190616737565b90505f60118260ff1660048110613770576137706161e5565b6003020190508663ffffffff168160020160089054906101000a900463ffffffff1663ffffffff16146137be57604051634fadd4d360e11b815263ffffffff88166004820152602401610bfc565b9695505050505050565b6137d0614ce6565b600d805461ff00191690557f5db9ee0a495bf2e6ff9c91a7834c1ba4fdd244a5e8aa4e537bd38aeae4b073aa335b6040516001600160a01b03909116815260200160405180910390a1565b6001600160a01b03821661384457604051633250574960e11b81525f6004820152602401610bfc565b5f61385083835f614d0e565b90506001600160a01b03811615610d28576040516339e3563760e11b81525f6004820152602401610bfc565b5f81158061389157506001600160a01b038210155b156138b25760405163ed15e6cf60e01b815260048101839052602401610bfc565b505f908152600260205260409020546001600160a01b0316151590565b600d80546001600160a01b038381166201000081810262010000600160b01b031985161790945560405193909204169182907f8be0079c531659141344cd1fd0a4f28419497f9722a3daafe3b4186f6b6457e0905f90a35050565b5f5b61393760018361620d565b811015610d2857828261394b836001616298565b81811061395a5761395a6161e5565b905060200201602081019061396f9190615917565b6001600160a01b031683838381811061398a5761398a6161e5565b905060200201602081019061399f9190615917565b6001600160a01b0316106139f9578282828181106139bf576139bf6161e5565b90506020020160208101906139d49190615917565b60405163836e3a7d60e01b81526001600160a01b039091166004820152602401610bfc565b60010161392c565b600d545f9081908190606090600160d01b900460ff16826004613a2583600161671e565b613a2f9190616737565b600d805460ff60d01b1916600160d01b60ff841602178082559192505f91601690613a6690600160b01b900463ffffffff16616771565b91906101000a81548163ffffffff021916908363ffffffff160217905590505f601d8360ff1660048110613a9c57613a9c6161e5565b6003020190505f613aab612282565b90506040518060c0016040528083805480602002602001604051908101604052809291908181526020018280548015613b0b57602002820191905f5260205f20905b81546001600160a01b03168152600190910190602001808311613aed575b5050509183525050604080840151602083015201613b2a436001616454565b6001600160401b0316815263ffffffff80861660208301526060808501519091166040830152600d5460ff9081169190920152601190861660048110613b7257613b726161e5565b600302015f820151815f019080519060200190613b90929190615756565b50602082015160018201556040820151600291820180546060850151608086015160a0909601516001600160401b039094166bffffffffffffffffffffffff1990921691909117600160401b63ffffffff928316021764ffffffffff60601b1916600160601b919095160260ff60801b191693909317600160801b60ff90921691909102179091555f90600490613c2890879061671e565b613c329190616737565b90508a601d8260ff1660048110613c4b57613c4b6161e5565b600302015f019080519060200190613c64929190615756565b50613c708460026162d2565b601d8260ff1660048110613c8657613c866161e5565b6003020160020160086101000a81548163ffffffff021916908363ffffffff16021790555083826040015183606001518580805480602002602001604051908101604052809291908181526020018280548015613d0a57602002820191905f5260205f20905b81546001600160a01b03168152600190910190602001808311613cec575b5050505050905099509950995099505050505050509193509193565b5f613d316002613242565b90505f5b8151811015613d93575f600f5f848481518110613d5457613d546161e5565b6020026020010151602001516001600160a01b03166001600160a01b031681526020019081526020015f209050613d8a81614dd9565b50600101613d35565b505f613d9f6004613242565b600d54909150600160d01b900460ff165f6004613dbd83600161671e565b613dc79190616737565b90505f60118360ff1660048110613de057613de06161e5565b60030201805460408051602080840282018101909252828152929190830182828015613e3357602002820191905f5260205f20905b81546001600160a01b03168152600190910190602001808311613e15575b505050505090505f601d8360ff1660048110613e5157613e516161e5565b60030201805460408051602080840282018101909252828152929190830182828015613ea457602002820191905f5260205f20905b81546001600160a01b03168152600190910190602001808311613e86575b505050505090505f5b855181101561268f575f868281518110613ec957613ec96161e5565b6020026020010151602001519050613ee18185614e1e565b80613ef15750613ef18184614e1e565b80613f335750613f33818c8c808060200260200160405190810160405280939291908181526020018383602002808284375f92019190915250614e1e92505050565b15613f3e5750613f62565b6001600160a01b0381165f908152600f60205260409020613f5f818b614c2d565b50505b600101613ead565b613f72613089565b600d805461ff0019166101001790557f62e78cea01bee320cd4e420270b5ea74000d11b0c9f74754ebdbfc544b05a2586137fe3390565b60018101805461ffff60e01b1916608360e11b1790556040517fadf44594af749c8b96253ad5c2706d383b8583471abbaa53058da185cf0d42079061357a908390616673565b5f613ffb5f835f614d0e565b90506001600160a01b03811661104a57604051637e27328960e01b815260048101839052602401610bfc565b5f815160601461404a576040516333a234f960e11b815260040160405180910390fd5b5f614058855f015185611dc4565b855160405163a691a08b60e01b81529192505f9173__$2ef4e8110a3eaa1255da7f08f8eebcbf5a$__9163a691a08b9161409591906004016158b0565b5f60405180830381865af41580156140af573d5f803e3d5ffd5b505050506040513d5f823e601f3d908101601f191682016040526140d69190810190616318565b90505f73__$2ef4e8110a3eaa1255da7f08f8eebcbf5a$__633d2a9e1188602001516040518263ffffffff1660e01b815260040161411491906158b0565b5f60405180830381865af415801561412e573d5f803e3d5ffd5b505050506040513d5f823e601f3d908101601f191682016040526141559190810190616318565b905073__$2ef4e8110a3eaa1255da7f08f8eebcbf5a$__635779b9a38383866040518060600160405280602b8152602001616eb7602b91396040518563ffffffff1660e01b81526004016141ac949392919061678c565b602060405180830381865af41580156141c7573d5f803e3d5ffd5b505050506040513d601f19601f820116820180604052508101906141eb919061638c565b61420c578683604051634babb8f160e01b8152600401610bfc9291906167d8565b6142168587614e7b565b979650505050505050565b60ff81165f908152600a602052604081205483146142555760405163222d164360e21b815260048101849052602401610bfc565b5090919050565b7f00000000000000000000000000000000000000000000000000000000000000007f000000000000000000000000000000000000000000000000000000000000000030147f000000000000000000000000000000000000000000000000000000000000000046141661434f5750604080517f8b73c3c69bb8fe3d512ecc4cf759cc79239f7b179b0ffacaa9a75d522b39400f81527f000000000000000000000000000000000000000000000000000000000000000060208201527f00000000000000000000000000000000000000000000000000000000000000009181019190915246606082015230608082015260a090205b6719010000000000005f5280601a5281603a52604260182090505f603a52919050565b5f6001600160a01b0385161561210457604051853b6144025782604081146143a257604181146143c9575061443c565b60208581013560ff81901c601b0190915285356040526001600160ff1b03166060526143da565b60408501355f1a6020526040856040375b50845f526020600160805f60015afa5180871860601b3d119250505f6060528060405261443c565b631626ba7e60e01b80825285600483015260248201604081528460448401528486606485013760208160648701858b5afa90519091141691505b50949350505050565b604080516101206020601f8801819004028201810190925261010081018681525f9282919089908990819085018382808284375f9201829052509385525050506001600160a01b038716602083015263ffffffff60408301526060820152608001600181525f602080830182905260ff871660408085019190915260609093018290526001600160a01b0388168252600f9052208151919250829181906144ec9082616868565b5060208201516001820180546040850151606086015163ffffffff908116600160c01b0263ffffffff60c01b1991909216600160a01b026001600160c01b03199093166001600160a01b0390951694909417919091179283168117825560808501519260ff60e01b1990911664ffffffffff60c01b1990911617600160e01b83600681111561457d5761457d615930565b021790555060a0820151600191909101805460c084015160e09094015161ffff60e81b19909116600160e81b9315159390930260ff60f01b191692909217600160f01b60ff94851602176001600160f81b0316600160f81b93909216929092021790556001600160a01b0384165f908152600b602052604090819020839055517f8cdf65f03c4623a58283a46331ff33a9eee45928f9ce502c59d2fd9d2b2605f29061462a908390615a06565b60405180910390a1505050505050565b6001600160a01b0383163b156128a957604051630a85bd0160e11b81526001600160a01b0384169063150b7a029061467c908890889087908790600401616922565b6020604051808303815f875af19250505080156146b6575060408051601f3d908101601f191682019092526146b391810190616954565b60015b61471d573d8080156146e3576040519150601f19603f3d011682016040523d82523d5f602084013e6146e8565b606091505b5080515f0361471557604051633250574960e11b81526001600160a01b0385166004820152602401610bfc565b805181602001fd5b6001600160e01b03198116630a85bd0160e11b1461475957604051633250574960e11b81526001600160a01b0385166004820152602401610bfc565b505050505050565b60605f61476d83614eea565b6028602282012090915060601c60295b600181111561480657600782600f161180156147b2575060608382815181106147a8576147a86161e5565b016020015160f81c115b156147ef57602060f81b8382815181106147ce576147ce6161e5565b0160200180516001600160f81b0319908116909218909116905f82901a9053505b60049190911c906147ff8161696f565b905061477d565b50909392505050565b60606148356040518061052001604052806104ed81526020016169ca6104ed9139614859565b6040516020016148459190616984565b604051602081830303815290604052905090565b6060610bd182604051806060016040528060408152602001616ee2604091396001614f00565b6001818101545f91600160e01b90910460ff16908160068111156148a5576148a5615930565b036148b35750600192915050565b6001838101545f916148d291600160c01b900463ffffffff16906162d2565b905060058260068111156148e8576148e8615930565b1480156149075750600d5463ffffffff808316600160b01b9092041610155b15614916575060019392505050565b505f9392505050565b5f6149326001600160a01b038416613fef565b6008545f03614954576040516315ae672760e01b815260040160405180910390fd5b5f805f61496086611097565b925092509250825f0361497857829350505050610bd1565b6001600160a01b0386165f908152600b602052604081208190558284106149a0575081614a24565b50825f7307a07a07a07a07a07a07a07a07a07a07a07a07a06149c2838661620d565b6040515f81818185875af1925050503d805f81146149fb576040519150601f19603f3d011682016040523d82523d5f602084013e614a00565b606091505b5050905080614a2257604051630b567ce360e31b815260040160405180910390fd5b505b604051634875485760e11b81526001600160a01b0387166004820152602481018390527307a07a07a07a07a07a07a07a07a07a07a07a07a0906390ea90ae9083906044015f604051808303818588803b158015614a7f575f80fd5b505af1158015614a91573d5f803e3d5ffd5b505050505081816142169190616298565b5f6003826006811115614ab757614ab7615930565b1480614ad457506004826006811115614ad257614ad2615930565b145b80610bd157506002826006811115614aee57614aee615930565b1492915050565b600d54600160b01b810463ffffffff1690600160d01b900460ff165f614b1c838084613727565b9050614b28818661507a565b508054614b3585826134f0565b5f614b418560016162d2565b90505f614b4f82878761369d565b9050614b5b818961507a565b5080549250614b6a87846134f0565b5f614b768760026162d2565b90505f614b8482898961369d565b9050614b90818b61507a565b5080549450614b9f89866134f0565b600d54600160d81b900461ffff1689101561268f57600d805461ffff8b8116600160d81b90810261ffff60d81b1984161793849055604080519382900483168085529190940490911660208301529181018b90527f74cf7ca84b30b723e8b6e3cc569ec2db21f4ba2fcc09d651e5ce6770b91552f99060600160405180910390a15050505050505050505050565b60018201805463ffffffff8316600160c01b0264ffffffffff60c01b1990911617600560e01b1790556040517fbacaeeb8796f2717c7b8e35470c0c1fff2d65881330a4d8b058e7f4e01705040906131fd908490616673565b60ff81165f908152600a602052604081205481614ca38583613209565b9050801580614cc5575060ff84165f908152600a602052604090206001015481105b1561210457604051633737b70960e11b815260048101829052602401610bfc565b600d54610100900460ff1661176d57604051638dfc202b60e01b815260040160405180910390fd5b5f80614d1b858585615175565b90506001600160a01b038116614d7757614d7284600880545f838152600960205260408120829055600182018355919091527ff3f7a9fe364faab93b216da50a3214154f22a0a2b415b23a84c8169e8b636ee30155565b614d9a565b846001600160a01b0316816001600160a01b031614614d9a57614d9a8185615267565b6001600160a01b038516614db657614db1846152e4565b612104565b846001600160a01b0316816001600160a01b03161461210457612104858561538b565b60018101805460ff60e01b1916600360e01b1790556040517f05ae3ae9268de1d4458eea2d3837e130c248809c169ece7257692dd0b43f346a9061357a908390616673565b80515f90815b81811015614e7157846001600160a01b0316848281518110614e4857614e486161e5565b60200260200101516001600160a01b031603614e6957600192505050610bd1565b600101614e24565b505f949350505050565b81516020808401919091205f81815260109092526040909120546001600160a01b031615614ebc57604051638d12779f60e01b815260040160405180910390fd5b5f81815260106020526040902080546001600160a01b0384166001600160a01b031990911617905592915050565b6060610bd16001600160a01b03831660146153d9565b606083515f03614f1e575060408051602081019091525f8152612bae565b5f82614f4e57600385516004614f349190616281565b614f3f906002616298565b614f4991906162bf565b614f73565b600385516002614f5e9190616298565b614f6891906162bf565b614f73906004616281565b90505f816001600160401b03811115614f8e57614f8e615b97565b6040519080825280601f01601f191660200182016040528015614fb8576020820181803683370190505b509050600185016020820187885189016020810180515f82525b8284101561502d576003840193508351603f8160121c168701518653600186019550603f81600c1c168701518653600186019550603f8160061c168701518653600186019550603f8116870151865350600185019450614fd2565b90525050851561506e5760038851066001811461505157600281146150645761506c565b603d6001830353603d600283035361506c565b603d60018303535b505b50909695505050505050565b81545f90815b81811015614e7157836001600160a01b03168582815481106150a4576150a46161e5565b5f918252602090912001546001600160a01b03160361516d57846150c960018461620d565b815481106150d9576150d96161e5565b905f5260205f20015f9054906101000a90046001600160a01b0316858281548110615106576151066161e5565b905f5260205f20015f6101000a8154816001600160a01b0302191690836001600160a01b0316021790555084805480615141576151416169b5565b5f8281526020902081015f1990810180546001600160a01b03191690550190555060019150610bd19050565b600101615080565b5f828152600260205260408120546001600160a01b03908116908316156151a1576151a181848661554a565b6001600160a01b038116156151db576151bc5f855f806155ae565b6001600160a01b0381165f90815260036020526040902080545f190190555b6001600160a01b03851615615209576001600160a01b0385165f908152600360205260409020805460010190555b5f8481526002602052604080822080546001600160a01b0319166001600160a01b0389811691821790925591518793918516917fddf252ad1be2c89b69c2b068fc378daa952ba7f163c4a11628f55a4df523b3ef91a4949350505050565b5f61527183612071565b5f838152600760209081526040808320546001600160a01b03881684526006909252909120919250908183146152c6575f83815260208281526040808320548584528184208190558352600790915290208290555b5f938452600760209081526040808620869055938552525081205550565b6008545f906152f59060019061620d565b5f838152600960205260408120546008805493945090928490811061531c5761531c6161e5565b905f5260205f2001549050806008838154811061533b5761533b6161e5565b5f918252602080832090910192909255828152600990915260408082208490558582528120556008805480615372576153726169b5565b600190038181905f5260205f20015f9055905550505050565b5f600161539784612071565b6153a1919061620d565b6001600160a01b039093165f908152600660209081526040808320868452825280832085905593825260079052919091209190915550565b6060825f6153e8846002616281565b6153f3906002616298565b6001600160401b0381111561540a5761540a615b97565b6040519080825280601f01601f191660200182016040528015615434576020820181803683370190505b509050600360fc1b815f8151811061544e5761544e6161e5565b60200101906001600160f81b03191690815f1a905350600f60fb1b8160018151811061547c5761547c6161e5565b60200101906001600160f81b03191690815f1a9053505f61549e856002616281565b6154a9906001616298565b90505b6001811115615520576f181899199a1a9b1b9c1cb0b131b232b360811b83600f16601081106154dd576154dd6161e5565b1a60f81b8282815181106154f3576154f36161e5565b60200101906001600160f81b03191690815f1a90535060049290921c916155198161696f565b90506154ac565b5081156121045760405163e22e27eb60e01b81526004810186905260248101859052604401610bfc565b6155558383836156b2565b610d28576001600160a01b03831661558357604051637e27328960e01b815260048101829052602401610bfc565b60405163177e802f60e01b81526001600160a01b038316600482015260248101829052604401610bfc565b80806155c257506001600160a01b03821615155b15615683575f6155d184613051565b90506001600160a01b038316158015906155fd5750826001600160a01b0316816001600160a01b031614155b8015615610575061560e8184612bb5565b155b156156395760405163a9fbf51f60e01b81526001600160a01b0384166004820152602401610bfc565b81156156815783856001600160a01b0316826001600160a01b03167f8c5be1e5ebec7d5bd14f71427d1e84f3dd0314c0f7b2291e5b200ac8c7c3b92560405160405180910390a45b505b50505f90815260046020526040902080546001600160a01b0319166001600160a01b0392909216919091179055565b5f6001600160a01b038316158015906121045750826001600160a01b0316846001600160a01b031614806156eb57506156eb8484612bb5565b806121045750505f908152600460205260409020546001600160a01b03908116911614919050565b604080516101008101825260608082525f60208301819052928201839052810182905290608082019081525f602082018190526040820181905260609091015290565b828054828255905f5260205f209081019282156157a9579160200282015b828111156157a957825182546001600160a01b0319166001600160a01b03909116178255602090920191600190910190615774565b506157b59291506157b9565b5090565b5b808211156157b5575f81556001016157ba565b6001600160e01b031981168114611094575f80fd5b5f602082840312156157f2575f80fd5b8135612bae816157cd565b5f8083601f84011261580d575f80fd5b5081356001600160401b03811115615823575f80fd5b6020830191508360208260061b850101111561583d575f80fd5b9250929050565b5f8060208385031215615855575f80fd5b82356001600160401b0381111561586a575f80fd5b615876858286016157fd565b90969095509350505050565b5f81518084528060208401602086015e5f602082860101526020601f19601f83011685010191505092915050565b602081525f612bae6020830184615882565b5f602082840312156158d2575f80fd5b5035919050565b80356001600160a01b0381168114612a86575f80fd5b5f8060408385031215615900575f80fd5b615909836158d9565b946020939093013593505050565b5f60208284031215615927575f80fd5b612bae826158d9565b634e487b7160e01b5f52602160045260245ffd5b6007811061596057634e487b7160e01b5f52602160045260245ffd5b9052565b5f8151610100845261597a610100850182615882565b905060018060a01b03602084015116602085015263ffffffff604084015116604085015260608301516159b5606086018263ffffffff169052565b5060808301516159c86080860182615944565b5060a08301516159dc60a086018215159052565b5060c08301516159f160c086018260ff169052565b5060e08301516127a160e086018260ff169052565b602081525f612bae6020830184615964565b5f805f60608486031215615a2a575f80fd5b615a33846158d9565b9250615a41602085016158d9565b929592945050506040919091013590565b63ffffffff81168114611094575f80fd5b5f60208284031215615a73575f80fd5b8135612bae81615a52565b6020808252825160c083830152805160e084018190525f92919091019082906101008501905b80831015615acf5783516001600160a01b031682526020938401936001939093019290910190615aa4565b506020860151604086015260408601519250615af660608601846001600160401b03169052565b606086015163ffffffff811660808701529250608086015163ffffffff811660a0870152925060a086015160ff811660c0870152925095945050505050565b803560ff81168114612a86575f80fd5b5f8060408385031215615b56575f80fd5b615b5f836158d9565b9150615b6d60208401615b35565b90509250929050565b5f60208284031215615b86575f80fd5b813561ffff81168114612bae575f80fd5b634e487b7160e01b5f52604160045260245ffd5b604051601f8201601f191681016001600160401b0381118282101715615bd357615bd3615b97565b604052919050565b5f6001600160401b03821115615bf357615bf3615b97565b50601f01601f191660200190565b5f82601f830112615c10575f80fd5b8135615c23615c1e82615bdb565b615bab565b818152846020838601011115615c37575f80fd5b816020850160208301375f918101602001919091529392505050565b5f8060408385031215615c64575f80fd5b82356001600160401b03811115615c79575f80fd5b615c8585828601615c01565b925050615b6d602084016158d9565b5f8083601f840112615ca4575f80fd5b5081356001600160401b03811115615cba575f80fd5b60208301915083602082850101111561583d575f80fd5b5f8060208385031215615ce2575f80fd5b82356001600160401b03811115615cf7575f80fd5b61587685828601615c94565b5f8060208385031215615d14575f80fd5b82356001600160401b03811115615d29575f80fd5b8301601f81018513615d39575f80fd5b80356001600160401b03811115615d4e575f80fd5b8560208260051b8401011115615d62575f80fd5b6020919091019590945092505050565b60ff60f81b8816815260e060208201525f615d9060e0830189615882565b8281036040840152615da28189615882565b606084018890526001600160a01b038716608085015260a0840186905283810360c0850152845180825260208087019350909101905f5b81811015615df7578351835260209384019390920191600101615dd9565b50909b9a5050505050505050505050565b5f60408284031215615e18575f80fd5b604080519081016001600160401b0381118282101715615e3a57615e3a615b97565b60405290508082356001600160401b03811115615e55575f80fd5b615e6185828601615c01565b82525060208301356001600160401b03811115615e7c575f80fd5b615e8885828601615c01565b6020830152505092915050565b5f805f805f8060808789031215615eaa575f80fd5b86356001600160401b03811115615ebf575f80fd5b615ecb89828a01615c94565b90975095505060208701356001600160401b03811115615ee9575f80fd5b615ef589828a01615e08565b945050615f04604088016158d9565b925060608701356001600160401b03811115615f1e575f80fd5b615f2a89828a01615c94565b979a9699509497509295939492505050565b5f60208284031215615f4c575f80fd5b813560078110612bae575f80fd5b5f602082016020835280845180835260408501915060408160051b8601019250602086015f5b82811015615fb157603f19878603018452615f9c858351615964565b94506020938401939190910190600101615f80565b50929695505050505050565b8015158114611094575f80fd5b5f8060408385031215615fdb575f80fd5b615fe4836158d9565b91506020830135615ff481615fbd565b809150509250929050565b5f6020828403121561600f575f80fd5b612bae82615b35565b5f805f6040848603121561602a575f80fd5b83356001600160401b0381111561603f575f80fd5b61604b86828701615c94565b90945092505060208401356001600160401b03811115616069575f80fd5b61607586828701615e08565b9150509250925092565b5f805f8060808587031215616092575f80fd5b61609b856158d9565b93506160a9602086016158d9565b92506040850135915060608501356001600160401b038111156160ca575f80fd5b6160d687828801615c01565b91505092959194509250565b5f60808284031280156160f3575f80fd5b509092915050565b5f805f6060848603121561610d575f80fd5b83356001600160401b03811115616122575f80fd5b61612e86828701615c01565b93505061613d602085016158d9565b915061614b604085016158d9565b90509250925092565b5f8060408385031215616165575f80fd5b61616e836158d9565b9150615b6d602084016158d9565b61010081525f61619061010083018b615882565b6001600160a01b038a16602084015263ffffffff89811660408501528816606084015290506161c26080830187615944565b93151560a082015260ff92831660c0820152911660e09091015295945050505050565b634e487b7160e01b5f52603260045260245ffd5b634e487b7160e01b5f52601160045260245ffd5b81810381811115610bd157610bd16161f9565b604081016001600160a01b03616235846158d9565b168252602092830135929091019190915290565b600181811c9082168061625d57607f821691505b60208210810361627b57634e487b7160e01b5f52602260045260245ffd5b50919050565b8082028115828204841417610bd157610bd16161f9565b80820180821115610bd157610bd16161f9565b634e487b7160e01b5f52601260045260245ffd5b5f826162cd576162cd6162ab565b500490565b63ffffffff8181168382160190811115610bd157610bd16161f9565b63ffffffff8281168282160390811115610bd157610bd16161f9565b60208101610bd18284615944565b5f60208284031215616328575f80fd5b81516001600160401b0381111561633d575f80fd5b8201601f8101841361634d575f80fd5b805161635b615c1e82615bdb565b81815285602083850101111561636f575f80fd5b8160208401602083015e5f91810160200191909152949350505050565b5f6020828403121561639c575f80fd5b8151612bae81615fbd565b5f81518060208401855e5f93019283525090919050565b6001600160d81b0319851681525f6163d960058301866163a7565b6001600160f81b031994909416845250506bffffffffffffffffffffffff1916600182015260150192915050565b818382375f9101908152919050565b95865260208601949094526001600160a01b0392831660408601529116606084015260ff1660808301526001600160401b031660a082015260c00190565b6001600160401b038181168382160190811115610bd157610bd16161f9565b5f60ff821660ff8103616488576164886161f9565b60010192915050565b8135815560208201356001820155604082013560028201556003810160608301356164bb81615a52565b815463ffffffff191663ffffffff919091161790555050565b7f7b226e616d65223a202254656c636f696e2d4e6574776f726b20436f6e73656e8152651cdd5cd3919560d21b60208201525f61651460268301856163a7565b7f222c20226465736372697074696f6e223a2022455243373231204e465420776881527f6f7365206f776e657273686970206c656467657220726570726573656e74732060208201527f746865207065726d697373696f6e65642077686974656c69737420666f72207660408201527530b634b230ba37b9399116101134b6b0b3b2911d101160511b60608201526165af60768201856163a7565b61227d60f01b815260020195945050505050565b7f646174613a6170706c69636174696f6e2f6a736f6e3b6261736536342c00000081525f612bae601d8301846163a7565b5f815461660081616249565b80855260018216801561661a57600181146166365761666a565b60ff1983166020870152602082151560051b870101935061666a565b845f5260205f205f5b838110156166615781546020828a01015260018201915060208101905061663f565b87016020019450505b50505092915050565b6020815261010060208201525f61668e6101208301846165f4565b60018401546001600160a01b038116604085015260a081901c63ffffffff16606085015260c081901c63ffffffff1660808501526166d560a0850160ff8360e01c16615944565b6166e960c0850160ff8360e81c1615159052565b60f081901c60ff1660e085015260f881901c6101008501526127a1565b5f60018201616717576167176161f9565b5060010190565b60ff8181168382160190811115610bd157610bd16161f9565b5f60ff831680616749576167496162ab565b8060ff84160691505092915050565b60ff8281168282160390811115610bd157610bd16161f9565b5f63ffffffff821663ffffffff8103616488576164886161f9565b608081525f61679e6080830187615882565b82810360208401526167b08187615882565b905082810360408401526167c48186615882565b905082810360608401526142168185615882565b604081525f83516040808401526167f26080840182615882565b90506020850151603f1984830301606085015261680f8282615882565b91505082810360208401526132398185615882565b601f821115610d2857805f5260205f20601f840160051c810160208510156168495750805b601f840160051c820191505b818110156128a9575f8155600101616855565b81516001600160401b0381111561688157616881615b97565b6168958161688f8454616249565b84616824565b6020601f8211600181146168c7575f83156168b05750848201515b5f19600385901b1c1916600184901b1784556128a9565b5f84815260208120601f198516915b828110156168f657878501518255602094850194600190920191016168d6565b508482101561691357868401515f19600387901b60f8161c191681555b50505050600190811b01905550565b6001600160a01b03858116825284166020820152604081018390526080606082018190525f906137be90830184615882565b5f60208284031215616964575f80fd5b8151612bae816157cd565b5f8161697d5761697d6161f9565b505f190190565b7f646174613a696d6167652f7376672b786d6c3b6261736536342c00000000000081525f612bae601a8301846163a7565b634e487b7160e01b5f52603160045260245ffdfe3c7376672077696474683d22373922206865696768743d223830222076696577426f783d22302030203739203830222066696c6c3d226e6f6e652220786d6c6e733d22687474703a2f2f7777772e77332e6f72672f323030302f737667223e203c6d61736b2069643d226d61736b305f3834395f3334313722207374796c653d226d61736b2d747970653a616c70686122206d61736b556e6974733d227573657253706163654f6e5573652220783d22302220793d2230222077696474683d22373922206865696768743d223830223e203c726563742077696474683d2237382e30303522206865696768743d223830222066696c6c3d2223433443344334222f3e203c2f6d61736b3e203c67206d61736b3d2275726c28236d61736b305f3834395f3334313729223e203c7265637420783d2231372e393534362220793d2231382e33353435222077696474683d2234322e3239343322206865696768743d2234332e32393138222066696c6c3d227768697465222f3e203c7061746820643d224d37342e323336392032312e393839324337362e363930382032342e303331352037382e323338392032382e323537372037372e363937392033312e333733334c37322e343136362036312e333235334337312e3836362036342e343437352036382e393539322036372e383739382036352e393632392036382e393631324c33372e313934372037392e333334344333342e313938342038302e343135372032392e373432312037392e363239392032372e323936342037372e3538394c332e3831312035382e3030323143312e33353730382035352e39353938202d302e31393233382035312e3734313720302e3335383134382034382e363139354c352e36333935312031382e3636373443362e31393030342031352e3534353220392e30393638372031322e313132392031322e303933322031312e303331364c34302e3835393920302e3636363435334334332e38353632202d302e3431343835372034382e3331323520302e3337303930392035302e3735383320322e343131384c37342e323336392032312e393839325a4d34392e373634352033352e343336394c35302e393336342032392e333531334c33392e393531372032392e333638374c34312e3531362032312e333432344c33372e393538332032312e333432344333372e393538332032312e333432342033342e363332382032372e323930312032372e333030362033302e323031394c32362e323839392033352e343530334c33312e303933362033352e34364333312e303933362033352e34362032392e343637342034332e303032392032382e393331362034352e373835344332372e353637372035322e383638322033302e393830362035372e383933392033362e323238312035372e383933394333382e383630362035372e383933392034312e3831372035372e383933392034352e303937322035372e383933394c34362e363532342035312e313636364334362e323734322035312e313636362034332e383031332035312e313636362033392e323333362035312e313636364333352e393336342035312e313636362033362e313039392034392e333138392033362e373433312034362e303330354c33382e373833382033352e343333334c34392e373634352033352e343336395a222066696c6c3d2223313443384646222f3e203c2f673e203c2f7376673e424c535f5349475f424c53313233383147315f584d443a5348412d3235365f535357555f524f5f4e554c5f4142434445464748494a4b4c4d4e4f505152535455565758595a6162636465666768696a6b6c6d6e6f707172737475767778797a303132333435363738392b2fa164736f6c634300081a000a424c535f5349475f424c53313233383147315f584d443a5348412d3235365f535357555f524f5f4e554c5f","linkReferences":{"src/consensus/BlsG1.sol":{"BlsG1":[{"start":2150,"length":20},{"start":2259,"length":20},{"start":2385,"length":20},{"start":2692,"length":20},{"start":2828,"length":20},{"start":14490,"length":20},{"start":14626,"length":20},{"start":23359,"length":20},{"start":23468,"length":20},{"start":23594,"length":20}]}}},"methodIdentifiers":{"SYSTEM_ADDRESS()":"3434735f","activate()":"0f15f4c0","allocateIssuance()":"355811a7","applyIncentives((address,uint256)[])":"0a36cdef","applySlashes((address,uint256)[])":"02ae337b","approve(address,uint256)":"095ea7b3","balanceOf(address)":"70a08231","beginExit()":"2228dfa0","burn(address)":"89afcb44","claimStakeRewards(address)":"2b9f4985","concludeEpoch(address[])":"7b55a300","delegateStake(bytes,(bytes,bytes),address,bytes)":"8bb43f3a","delegationDigest(bytes,address,address)":"e3716d04","eip712Domain()":"84b0196e","epochInfo(uint256)":"3894228e","futureEpochInfo(uint256)":"59ca93b6","getApproved(uint256)":"081812fc","getBalanceBreakdown(address)":"15b5709a","getCommitteeValidators(uint32)":"a0201be5","getCurrentEpoch()":"b97dd9e2","getCurrentEpochInfo()":"babc394f","getCurrentStakeConfig()":"7d06fdf8","getCurrentStakeVersion()":"67398331","getEpochInfo(uint32)":"374ed18c","getNextCommitteeSize()":"eb8535c2","getRewards(address)":"79ee54f7","getValidator(address)":"1904bb2e","getValidators(uint8)":"8cc05eda","isApprovedForAll(address,address)":"e985e9c5","isDelegated(address)":"3e28391d","isRetired(address)":"6d3c6275","isValidator(bytes)":"6a926591","issuance()":"863623bb","mint(address)":"6a627842","name()":"06fdde03","owner()":"8da5cb5b","ownerOf(uint256)":"6352211e","pause()":"8456cb59","paused()":"5c975abb","proofOfPossessionMessage(bytes,address)":"6850eb31","renounceOwnership()":"715018a6","safeTransferFrom(address,address,uint256)":"42842e0e","safeTransferFrom(address,address,uint256,bytes)":"b88d4fde","setApprovalForAll(address,bool)":"a22cb465","setNextCommitteeSize(uint16)":"62fcde4b","setValidatorRegion(address,uint8)":"f0624768","stake(bytes,(bytes,bytes))":"b5184324","stakeConfig(uint8)":"a71954ec","supportsInterface(bytes4)":"01ffc9a7","symbol()":"95d89b41","tokenByIndex(uint256)":"4f6ccce7","tokenOfOwnerByIndex(address,uint256)":"2f745c59","tokenURI(uint256)":"c87b56dd","totalSupply()":"18160ddd","transferFrom(address,address,uint256)":"23b872dd","transferOwnership(address)":"f2fde38b","undistributedIssuance()":"008d6acd","unpause()":"3f4ba83a","unstake(address)":"f2888dbb","upgradeStakeVersion((uint256,uint256,uint256,uint32))":"c05df7ac","upgradeValidatorStakeVersion(address,uint8)":"5a41fb1f","validators(address)":"fa52c7d8"},"id":115}