{"abi":[{"type":"constructor","inputs":[{"name":"genesisConfig_","type":"tuple","internalType":"struct IStakeManager.StakeConfig","components":[{"name":"stakeAmount","type":"uint256","internalType":"uint256"},{"name":"minWithdrawAmount","type":"uint256","internalType":"uint256"},{"name":"epochIssuance","type":"uint256","internalType":"uint256"},{"name":"epochDuration","type":"uint32","internalType":"uint32"}]},{"name":"initialValidators_","type":"tuple[]","internalType":"struct IConsensusRegistry.ValidatorInfo[]","components":[{"name":"validatorAddress","type":"address","internalType":"address"},{"name":"activationEpoch","type":"uint32","internalType":"uint32"},{"name":"exitEpoch","type":"uint32","internalType":"uint32"},{"name":"currentStatus","type":"uint8","internalType":"enum IConsensusRegistry.ValidatorStatus"},{"name":"isRetired","type":"bool","internalType":"bool"},{"name":"stakeVersion","type":"uint8","internalType":"uint8"},{"name":"region","type":"uint8","internalType":"uint8"}]},{"name":"blsPubkeys_","type":"bytes[]","internalType":"bytes[]"},{"name":"proofsOfPossession","type":"tuple[]","internalType":"struct BlsG1.ProofOfPossession[]","components":[{"name":"uncompressedPubkey","type":"bytes","internalType":"bytes"},{"name":"uncompressedSignature","type":"bytes","internalType":"bytes"}]},{"name":"owner_","type":"address","internalType":"address"}],"stateMutability":"nonpayable"},{"type":"function","name":"SYSTEM_ADDRESS","inputs":[],"outputs":[{"name":"","type":"address","internalType":"address"}],"stateMutability":"view"},{"type":"function","name":"activate","inputs":[],"outputs":[],"stateMutability":"nonpayable"},{"type":"function","name":"allocateIssuance","inputs":[],"outputs":[],"stateMutability":"payable"},{"type":"function","name":"applyIncentives","inputs":[{"name":"rewardInfos","type":"tuple[]","internalType":"struct RewardInfo[]","components":[{"name":"validatorAddress","type":"address","internalType":"address"},{"name":"consensusHeaderCount","type":"uint256","internalType":"uint256"}]}],"outputs":[],"stateMutability":"nonpayable"},{"type":"function","name":"applySlashes","inputs":[{"name":"slashes","type":"tuple[]","internalType":"struct Slash[]","components":[{"name":"validatorAddress","type":"address","internalType":"address"},{"name":"amount","type":"uint256","internalType":"uint256"}]}],"outputs":[],"stateMutability":"nonpayable"},{"type":"function","name":"approve","inputs":[{"name":"","type":"address","internalType":"address"},{"name":"","type":"uint256","internalType":"uint256"}],"outputs":[],"stateMutability":"nonpayable"},{"type":"function","name":"balanceOf","inputs":[{"name":"owner","type":"address","internalType":"address"}],"outputs":[{"name":"","type":"uint256","internalType":"uint256"}],"stateMutability":"view"},{"type":"function","name":"beginExit","inputs":[],"outputs":[],"stateMutability":"nonpayable"},{"type":"function","name":"burn","inputs":[{"name":"validatorAddress","type":"address","internalType":"address"}],"outputs":[],"stateMutability":"nonpayable"},{"type":"function","name":"claimStakeRewards","inputs":[{"name":"validatorAddress","type":"address","internalType":"address"}],"outputs":[],"stateMutability":"nonpayable"},{"type":"function","name":"concludeEpoch","inputs":[{"name":"futureCommittee","type":"address[]","internalType":"address[]"}],"outputs":[],"stateMutability":"nonpayable"},{"type":"function","name":"delegateStake","inputs":[{"name":"blsPubkey","type":"bytes","internalType":"bytes"},{"name":"proofOfPossession","type":"tuple","internalType":"struct BlsG1.ProofOfPossession","components":[{"name":"uncompressedPubkey","type":"bytes","internalType":"bytes"},{"name":"uncompressedSignature","type":"bytes","internalType":"bytes"}]},{"name":"validatorAddress","type":"address","internalType":"address"},{"name":"validatorEIP712Signature","type":"bytes","internalType":"bytes"}],"outputs":[],"stateMutability":"payable"},{"type":"function","name":"delegationDigest","inputs":[{"name":"blsPubkey","type":"bytes","internalType":"bytes"},{"name":"validatorAddress","type":"address","internalType":"address"},{"name":"delegator","type":"address","internalType":"address"}],"outputs":[{"name":"","type":"bytes32","internalType":"bytes32"}],"stateMutability":"view"},{"type":"function","name":"eip712Domain","inputs":[],"outputs":[{"name":"fields","type":"bytes1","internalType":"bytes1"},{"name":"name","type":"string","internalType":"string"},{"name":"version","type":"string","internalType":"string"},{"name":"chainId","type":"uint256","internalType":"uint256"},{"name":"verifyingContract","type":"address","internalType":"address"},{"name":"salt","type":"bytes32","internalType":"bytes32"},{"name":"extensions","type":"uint256[]","internalType":"uint256[]"}],"stateMutability":"view"},{"type":"function","name":"epochInfo","inputs":[{"name":"","type":"uint256","internalType":"uint256"}],"outputs":[{"name":"epochIssuance","type":"uint256","internalType":"uint256"},{"name":"blockHeight","type":"uint64","internalType":"uint64"},{"name":"epochId","type":"uint32","internalType":"uint32"},{"name":"epochDuration","type":"uint32","internalType":"uint32"},{"name":"stakeVersion","type":"uint8","internalType":"uint8"}],"stateMutability":"view"},{"type":"function","name":"futureEpochInfo","inputs":[{"name":"","type":"uint256","internalType":"uint256"}],"outputs":[{"name":"epochIssuance","type":"uint256","internalType":"uint256"},{"name":"blockHeight","type":"uint64","internalType":"uint64"},{"name":"epochId","type":"uint32","internalType":"uint32"},{"name":"epochDuration","type":"uint32","internalType":"uint32"},{"name":"stakeVersion","type":"uint8","internalType":"uint8"}],"stateMutability":"view"},{"type":"function","name":"getApproved","inputs":[{"name":"tokenId","type":"uint256","internalType":"uint256"}],"outputs":[{"name":"","type":"address","internalType":"address"}],"stateMutability":"view"},{"type":"function","name":"getBalanceBreakdown","inputs":[{"name":"validatorAddress","type":"address","internalType":"address"}],"outputs":[{"name":"","type":"uint256","internalType":"uint256"},{"name":"","type":"uint256","internalType":"uint256"},{"name":"","type":"uint256","internalType":"uint256"}],"stateMutability":"view"},{"type":"function","name":"getBlsPubkey","inputs":[{"name":"validatorAddress","type":"address","internalType":"address"}],"outputs":[{"name":"","type":"bytes","internalType":"bytes"}],"stateMutability":"view"},{"type":"function","name":"getCommitteeBlsPubkeys","inputs":[{"name":"epoch","type":"uint32","internalType":"uint32"}],"outputs":[{"name":"","type":"bytes[]","internalType":"bytes[]"}],"stateMutability":"view"},{"type":"function","name":"getCommitteeValidators","inputs":[{"name":"epoch","type":"uint32","internalType":"uint32"}],"outputs":[{"name":"","type":"tuple[]","internalType":"struct IConsensusRegistry.ValidatorInfo[]","components":[{"name":"validatorAddress","type":"address","internalType":"address"},{"name":"activationEpoch","type":"uint32","internalType":"uint32"},{"name":"exitEpoch","type":"uint32","internalType":"uint32"},{"name":"currentStatus","type":"uint8","internalType":"enum IConsensusRegistry.ValidatorStatus"},{"name":"isRetired","type":"bool","internalType":"bool"},{"name":"stakeVersion","type":"uint8","internalType":"uint8"},{"name":"region","type":"uint8","internalType":"uint8"}]}],"stateMutability":"view"},{"type":"function","name":"getCurrentEpoch","inputs":[],"outputs":[{"name":"","type":"uint32","internalType":"uint32"}],"stateMutability":"view"},{"type":"function","name":"getCurrentEpochInfo","inputs":[],"outputs":[{"name":"","type":"tuple","internalType":"struct IConsensusRegistry.EpochInfo","components":[{"name":"committee","type":"address[]","internalType":"address[]"},{"name":"epochIssuance","type":"uint256","internalType":"uint256"},{"name":"blockHeight","type":"uint64","internalType":"uint64"},{"name":"epochId","type":"uint32","internalType":"uint32"},{"name":"epochDuration","type":"uint32","internalType":"uint32"},{"name":"stakeVersion","type":"uint8","internalType":"uint8"}]}],"stateMutability":"view"},{"type":"function","name":"getCurrentStakeConfig","inputs":[],"outputs":[{"name":"","type":"tuple","internalType":"struct IStakeManager.StakeConfig","components":[{"name":"stakeAmount","type":"uint256","internalType":"uint256"},{"name":"minWithdrawAmount","type":"uint256","internalType":"uint256"},{"name":"epochIssuance","type":"uint256","internalType":"uint256"},{"name":"epochDuration","type":"uint32","internalType":"uint32"}]}],"stateMutability":"view"},{"type":"function","name":"getCurrentStakeVersion","inputs":[],"outputs":[{"name":"","type":"uint8","internalType":"uint8"}],"stateMutability":"view"},{"type":"function","name":"getEligibleValidatorCount","inputs":[],"outputs":[{"name":"","type":"uint256","internalType":"uint256"}],"stateMutability":"view"},{"type":"function","name":"getEpochInfo","inputs":[{"name":"epoch","type":"uint32","internalType":"uint32"}],"outputs":[{"name":"","type":"tuple","internalType":"struct IConsensusRegistry.EpochInfo","components":[{"name":"committee","type":"address[]","internalType":"address[]"},{"name":"epochIssuance","type":"uint256","internalType":"uint256"},{"name":"blockHeight","type":"uint64","internalType":"uint64"},{"name":"epochId","type":"uint32","internalType":"uint32"},{"name":"epochDuration","type":"uint32","internalType":"uint32"},{"name":"stakeVersion","type":"uint8","internalType":"uint8"}]}],"stateMutability":"view"},{"type":"function","name":"getNextCommitteeSize","inputs":[],"outputs":[{"name":"","type":"uint16","internalType":"uint16"}],"stateMutability":"view"},{"type":"function","name":"getRewards","inputs":[{"name":"validatorAddress","type":"address","internalType":"address"}],"outputs":[{"name":"","type":"uint256","internalType":"uint256"}],"stateMutability":"view"},{"type":"function","name":"getValidator","inputs":[{"name":"validatorAddress","type":"address","internalType":"address"}],"outputs":[{"name":"","type":"tuple","internalType":"struct IConsensusRegistry.ValidatorInfo","components":[{"name":"validatorAddress","type":"address","internalType":"address"},{"name":"activationEpoch","type":"uint32","internalType":"uint32"},{"name":"exitEpoch","type":"uint32","internalType":"uint32"},{"name":"currentStatus","type":"uint8","internalType":"enum IConsensusRegistry.ValidatorStatus"},{"name":"isRetired","type":"bool","internalType":"bool"},{"name":"stakeVersion","type":"uint8","internalType":"uint8"},{"name":"region","type":"uint8","internalType":"uint8"}]}],"stateMutability":"view"},{"type":"function","name":"getValidators","inputs":[{"name":"status","type":"uint8","internalType":"enum IConsensusRegistry.ValidatorStatus"}],"outputs":[{"name":"","type":"address[]","internalType":"address[]"}],"stateMutability":"view"},{"type":"function","name":"getValidatorsInfo","inputs":[{"name":"status","type":"uint8","internalType":"enum IConsensusRegistry.ValidatorStatus"}],"outputs":[{"name":"","type":"tuple[]","internalType":"struct IConsensusRegistry.ValidatorInfo[]","components":[{"name":"validatorAddress","type":"address","internalType":"address"},{"name":"activationEpoch","type":"uint32","internalType":"uint32"},{"name":"exitEpoch","type":"uint32","internalType":"uint32"},{"name":"currentStatus","type":"uint8","internalType":"enum IConsensusRegistry.ValidatorStatus"},{"name":"isRetired","type":"bool","internalType":"bool"},{"name":"stakeVersion","type":"uint8","internalType":"uint8"},{"name":"region","type":"uint8","internalType":"uint8"}]}],"stateMutability":"view"},{"type":"function","name":"isApprovedForAll","inputs":[{"name":"owner","type":"address","internalType":"address"},{"name":"operator","type":"address","internalType":"address"}],"outputs":[{"name":"","type":"bool","internalType":"bool"}],"stateMutability":"view"},{"type":"function","name":"isDelegated","inputs":[{"name":"validatorAddress","type":"address","internalType":"address"}],"outputs":[{"name":"","type":"bool","internalType":"bool"}],"stateMutability":"view"},{"type":"function","name":"isRetired","inputs":[{"name":"validatorAddress","type":"address","internalType":"address"}],"outputs":[{"name":"","type":"bool","internalType":"bool"}],"stateMutability":"view"},{"type":"function","name":"isValidator","inputs":[{"name":"blsPubkey","type":"bytes","internalType":"bytes"}],"outputs":[{"name":"","type":"bool","internalType":"bool"}],"stateMutability":"view"},{"type":"function","name":"issuance","inputs":[],"outputs":[{"name":"","type":"address","internalType":"address payable"}],"stateMutability":"view"},{"type":"function","name":"mint","inputs":[{"name":"validatorAddress","type":"address","internalType":"address"}],"outputs":[],"stateMutability":"nonpayable"},{"type":"function","name":"name","inputs":[],"outputs":[{"name":"","type":"string","internalType":"string"}],"stateMutability":"view"},{"type":"function","name":"owner","inputs":[],"outputs":[{"name":"","type":"address","internalType":"address"}],"stateMutability":"view"},{"type":"function","name":"ownerOf","inputs":[{"name":"tokenId","type":"uint256","internalType":"uint256"}],"outputs":[{"name":"","type":"address","internalType":"address"}],"stateMutability":"view"},{"type":"function","name":"pause","inputs":[],"outputs":[],"stateMutability":"nonpayable"},{"type":"function","name":"paused","inputs":[],"outputs":[{"name":"","type":"bool","internalType":"bool"}],"stateMutability":"view"},{"type":"function","name":"proofOfPossessionMessage","inputs":[{"name":"blsPubkeyUncompressed","type":"bytes","internalType":"bytes"},{"name":"validatorAddress","type":"address","internalType":"address"}],"outputs":[{"name":"","type":"bytes","internalType":"bytes"}],"stateMutability":"pure"},{"type":"function","name":"renounceOwnership","inputs":[],"outputs":[],"stateMutability":"nonpayable"},{"type":"function","name":"safeTransferFrom","inputs":[{"name":"from","type":"address","internalType":"address"},{"name":"to","type":"address","internalType":"address"},{"name":"tokenId","type":"uint256","internalType":"uint256"}],"outputs":[],"stateMutability":"nonpayable"},{"type":"function","name":"safeTransferFrom","inputs":[{"name":"from","type":"address","internalType":"address"},{"name":"to","type":"address","internalType":"address"},{"name":"tokenId","type":"uint256","internalType":"uint256"},{"name":"data","type":"bytes","internalType":"bytes"}],"outputs":[],"stateMutability":"nonpayable"},{"type":"function","name":"setApprovalForAll","inputs":[{"name":"","type":"address","internalType":"address"},{"name":"","type":"bool","internalType":"bool"}],"outputs":[],"stateMutability":"nonpayable"},{"type":"function","name":"setNextCommitteeSize","inputs":[{"name":"newSize","type":"uint16","internalType":"uint16"}],"outputs":[],"stateMutability":"nonpayable"},{"type":"function","name":"setValidatorRegion","inputs":[{"name":"validatorAddress","type":"address","internalType":"address"},{"name":"region","type":"uint8","internalType":"uint8"}],"outputs":[],"stateMutability":"nonpayable"},{"type":"function","name":"stake","inputs":[{"name":"blsPubkey","type":"bytes","internalType":"bytes"},{"name":"proofOfPossession","type":"tuple","internalType":"struct BlsG1.ProofOfPossession","components":[{"name":"uncompressedPubkey","type":"bytes","internalType":"bytes"},{"name":"uncompressedSignature","type":"bytes","internalType":"bytes"}]}],"outputs":[],"stateMutability":"payable"},{"type":"function","name":"stakeConfig","inputs":[{"name":"version","type":"uint8","internalType":"uint8"}],"outputs":[{"name":"","type":"tuple","internalType":"struct IStakeManager.StakeConfig","components":[{"name":"stakeAmount","type":"uint256","internalType":"uint256"},{"name":"minWithdrawAmount","type":"uint256","internalType":"uint256"},{"name":"epochIssuance","type":"uint256","internalType":"uint256"},{"name":"epochDuration","type":"uint32","internalType":"uint32"}]}],"stateMutability":"view"},{"type":"function","name":"supportsInterface","inputs":[{"name":"interfaceId","type":"bytes4","internalType":"bytes4"}],"outputs":[{"name":"","type":"bool","internalType":"bool"}],"stateMutability":"view"},{"type":"function","name":"symbol","inputs":[],"outputs":[{"name":"","type":"string","internalType":"string"}],"stateMutability":"view"},{"type":"function","name":"tokenByIndex","inputs":[{"name":"index","type":"uint256","internalType":"uint256"}],"outputs":[{"name":"","type":"uint256","internalType":"uint256"}],"stateMutability":"view"},{"type":"function","name":"tokenOfOwnerByIndex","inputs":[{"name":"owner","type":"address","internalType":"address"},{"name":"index","type":"uint256","internalType":"uint256"}],"outputs":[{"name":"","type":"uint256","internalType":"uint256"}],"stateMutability":"view"},{"type":"function","name":"tokenURI","inputs":[{"name":"tokenId","type":"uint256","internalType":"uint256"}],"outputs":[{"name":"","type":"string","internalType":"string"}],"stateMutability":"view"},{"type":"function","name":"totalSupply","inputs":[],"outputs":[{"name":"","type":"uint256","internalType":"uint256"}],"stateMutability":"view"},{"type":"function","name":"transferFrom","inputs":[{"name":"","type":"address","internalType":"address"},{"name":"","type":"address","internalType":"address"},{"name":"","type":"uint256","internalType":"uint256"}],"outputs":[],"stateMutability":"nonpayable"},{"type":"function","name":"transferOwnership","inputs":[{"name":"newOwner","type":"address","internalType":"address"}],"outputs":[],"stateMutability":"nonpayable"},{"type":"function","name":"undistributedIssuance","inputs":[],"outputs":[{"name":"","type":"uint256","internalType":"uint256"}],"stateMutability":"view"},{"type":"function","name":"unpause","inputs":[],"outputs":[],"stateMutability":"nonpayable"},{"type":"function","name":"unstake","inputs":[{"name":"validatorAddress","type":"address","internalType":"address"}],"outputs":[],"stateMutability":"nonpayable"},{"type":"function","name":"upgradeStakeVersion","inputs":[{"name":"newConfig","type":"tuple","internalType":"struct IStakeManager.StakeConfig","components":[{"name":"stakeAmount","type":"uint256","internalType":"uint256"},{"name":"minWithdrawAmount","type":"uint256","internalType":"uint256"},{"name":"epochIssuance","type":"uint256","internalType":"uint256"},{"name":"epochDuration","type":"uint32","internalType":"uint32"}]}],"outputs":[{"name":"","type":"uint8","internalType":"uint8"}],"stateMutability":"nonpayable"},{"type":"function","name":"upgradeValidatorStakeVersion","inputs":[{"name":"validatorAddress","type":"address","internalType":"address"},{"name":"targetVersion","type":"uint8","internalType":"uint8"}],"outputs":[],"stateMutability":"payable"},{"type":"function","name":"validators","inputs":[{"name":"","type":"address","internalType":"address"}],"outputs":[{"name":"validatorAddress","type":"address","internalType":"address"},{"name":"activationEpoch","type":"uint32","internalType":"uint32"},{"name":"exitEpoch","type":"uint32","internalType":"uint32"},{"name":"currentStatus","type":"uint8","internalType":"enum IConsensusRegistry.ValidatorStatus"},{"name":"isRetired","type":"bool","internalType":"bool"},{"name":"stakeVersion","type":"uint8","internalType":"uint8"},{"name":"region","type":"uint8","internalType":"uint8"}],"stateMutability":"view"},{"type":"event","name":"Approval","inputs":[{"name":"owner","type":"address","indexed":true,"internalType":"address"},{"name":"approved","type":"address","indexed":true,"internalType":"address"},{"name":"tokenId","type":"uint256","indexed":true,"internalType":"uint256"}],"anonymous":false},{"type":"event","name":"ApprovalForAll","inputs":[{"name":"owner","type":"address","indexed":true,"internalType":"address"},{"name":"operator","type":"address","indexed":true,"internalType":"address"},{"name":"approved","type":"bool","indexed":false,"internalType":"bool"}],"anonymous":false},{"type":"event","name":"NewEpoch","inputs":[{"name":"epoch","type":"tuple","indexed":false,"internalType":"struct IConsensusRegistry.EpochInfo","components":[{"name":"committee","type":"address[]","internalType":"address[]"},{"name":"epochIssuance","type":"uint256","internalType":"uint256"},{"name":"blockHeight","type":"uint64","internalType":"uint64"},{"name":"epochId","type":"uint32","internalType":"uint32"},{"name":"epochDuration","type":"uint32","internalType":"uint32"},{"name":"stakeVersion","type":"uint8","internalType":"uint8"}]}],"anonymous":false},{"type":"event","name":"NextCommitteeSizeUpdated","inputs":[{"name":"oldSize","type":"uint16","indexed":false,"internalType":"uint16"},{"name":"newSize","type":"uint16","indexed":false,"internalType":"uint16"},{"name":"numActiveValidators","type":"uint256","indexed":false,"internalType":"uint256"}],"anonymous":false},{"type":"event","name":"OwnershipTransferred","inputs":[{"name":"previousOwner","type":"address","indexed":true,"internalType":"address"},{"name":"newOwner","type":"address","indexed":true,"internalType":"address"}],"anonymous":false},{"type":"event","name":"Paused","inputs":[{"name":"account","type":"address","indexed":false,"internalType":"address"}],"anonymous":false},{"type":"event","name":"RewardsClaimed","inputs":[{"name":"claimant","type":"address","indexed":true,"internalType":"address"},{"name":"rewards","type":"uint256","indexed":false,"internalType":"uint256"}],"anonymous":false},{"type":"event","name":"Transfer","inputs":[{"name":"from","type":"address","indexed":true,"internalType":"address"},{"name":"to","type":"address","indexed":true,"internalType":"address"},{"name":"tokenId","type":"uint256","indexed":true,"internalType":"uint256"}],"anonymous":false},{"type":"event","name":"Unpaused","inputs":[{"name":"account","type":"address","indexed":false,"internalType":"address"}],"anonymous":false},{"type":"event","name":"ValidatorActivated","inputs":[{"name":"validator","type":"tuple","indexed":false,"internalType":"struct IConsensusRegistry.ValidatorInfo","components":[{"name":"validatorAddress","type":"address","internalType":"address"},{"name":"activationEpoch","type":"uint32","internalType":"uint32"},{"name":"exitEpoch","type":"uint32","internalType":"uint32"},{"name":"currentStatus","type":"uint8","internalType":"enum IConsensusRegistry.ValidatorStatus"},{"name":"isRetired","type":"bool","internalType":"bool"},{"name":"stakeVersion","type":"uint8","internalType":"uint8"},{"name":"region","type":"uint8","internalType":"uint8"}]}],"anonymous":false},{"type":"event","name":"ValidatorExited","inputs":[{"name":"validator","type":"tuple","indexed":false,"internalType":"struct IConsensusRegistry.ValidatorInfo","components":[{"name":"validatorAddress","type":"address","internalType":"address"},{"name":"activationEpoch","type":"uint32","internalType":"uint32"},{"name":"exitEpoch","type":"uint32","internalType":"uint32"},{"name":"currentStatus","type":"uint8","internalType":"enum IConsensusRegistry.ValidatorStatus"},{"name":"isRetired","type":"bool","internalType":"bool"},{"name":"stakeVersion","type":"uint8","internalType":"uint8"},{"name":"region","type":"uint8","internalType":"uint8"}]}],"anonymous":false},{"type":"event","name":"ValidatorPendingActivation","inputs":[{"name":"validator","type":"tuple","indexed":false,"internalType":"struct IConsensusRegistry.ValidatorInfo","components":[{"name":"validatorAddress","type":"address","internalType":"address"},{"name":"activationEpoch","type":"uint32","internalType":"uint32"},{"name":"exitEpoch","type":"uint32","internalType":"uint32"},{"name":"currentStatus","type":"uint8","internalType":"enum IConsensusRegistry.ValidatorStatus"},{"name":"isRetired","type":"bool","internalType":"bool"},{"name":"stakeVersion","type":"uint8","internalType":"uint8"},{"name":"region","type":"uint8","internalType":"uint8"}]}],"anonymous":false},{"type":"event","name":"ValidatorPendingExit","inputs":[{"name":"validator","type":"tuple","indexed":false,"internalType":"struct IConsensusRegistry.ValidatorInfo","components":[{"name":"validatorAddress","type":"address","internalType":"address"},{"name":"activationEpoch","type":"uint32","internalType":"uint32"},{"name":"exitEpoch","type":"uint32","internalType":"uint32"},{"name":"currentStatus","type":"uint8","internalType":"enum IConsensusRegistry.ValidatorStatus"},{"name":"isRetired","type":"bool","internalType":"bool"},{"name":"stakeVersion","type":"uint8","internalType":"uint8"},{"name":"region","type":"uint8","internalType":"uint8"}]}],"anonymous":false},{"type":"event","name":"ValidatorRegionUpdated","inputs":[{"name":"validatorAddress","type":"address","indexed":true,"internalType":"address"},{"name":"region","type":"uint8","indexed":false,"internalType":"uint8"}],"anonymous":false},{"type":"event","name":"ValidatorRetired","inputs":[{"name":"validator","type":"tuple","indexed":false,"internalType":"struct IConsensusRegistry.ValidatorInfo","components":[{"name":"validatorAddress","type":"address","internalType":"address"},{"name":"activationEpoch","type":"uint32","internalType":"uint32"},{"name":"exitEpoch","type":"uint32","internalType":"uint32"},{"name":"currentStatus","type":"uint8","internalType":"enum IConsensusRegistry.ValidatorStatus"},{"name":"isRetired","type":"bool","internalType":"bool"},{"name":"stakeVersion","type":"uint8","internalType":"uint8"},{"name":"region","type":"uint8","internalType":"uint8"}]}],"anonymous":false},{"type":"event","name":"ValidatorSlashed","inputs":[{"name":"slash","type":"tuple","indexed":false,"internalType":"struct Slash","components":[{"name":"validatorAddress","type":"address","internalType":"address"},{"name":"amount","type":"uint256","internalType":"uint256"}]}],"anonymous":false},{"type":"event","name":"ValidatorStakeVersionUpgraded","inputs":[{"name":"validatorAddress","type":"address","indexed":true,"internalType":"address"},{"name":"oldVersion","type":"uint8","indexed":false,"internalType":"uint8"},{"name":"newVersion","type":"uint8","indexed":false,"internalType":"uint8"},{"name":"oldStakeAmount","type":"uint256","indexed":false,"internalType":"uint256"},{"name":"newStakeAmount","type":"uint256","indexed":false,"internalType":"uint256"}],"anonymous":false},{"type":"event","name":"ValidatorStaked","inputs":[{"name":"validator","type":"tuple","indexed":false,"internalType":"struct IConsensusRegistry.ValidatorInfo","components":[{"name":"validatorAddress","type":"address","internalType":"address"},{"name":"activationEpoch","type":"uint32","internalType":"uint32"},{"name":"exitEpoch","type":"uint32","internalType":"uint32"},{"name":"currentStatus","type":"uint8","internalType":"enum IConsensusRegistry.ValidatorStatus"},{"name":"isRetired","type":"bool","internalType":"bool"},{"name":"stakeVersion","type":"uint8","internalType":"uint8"},{"name":"region","type":"uint8","internalType":"uint8"}]}],"anonymous":false},{"type":"error","name":"AlreadyDefined","inputs":[{"name":"validatorAddress","type":"address","internalType":"address"}]},{"type":"error","name":"BLSPubkeyMismatch","inputs":[]},{"type":"error","name":"BlsPubkeyNotFound","inputs":[{"name":"validatorAddress","type":"address","internalType":"address"}]},{"type":"error","name":"CommitteeRequirement","inputs":[{"name":"validatorAddress","type":"address","internalType":"address"}]},{"type":"error","name":"DuplicateBLSPubkey","inputs":[]},{"type":"error","name":"ERC721EnumerableForbiddenBatchMint","inputs":[]},{"type":"error","name":"ERC721IncorrectOwner","inputs":[{"name":"sender","type":"address","internalType":"address"},{"name":"tokenId","type":"uint256","internalType":"uint256"},{"name":"owner","type":"address","internalType":"address"}]},{"type":"error","name":"ERC721InsufficientApproval","inputs":[{"name":"operator","type":"address","internalType":"address"},{"name":"tokenId","type":"uint256","internalType":"uint256"}]},{"type":"error","name":"ERC721InvalidApprover","inputs":[{"name":"approver","type":"address","internalType":"address"}]},{"type":"error","name":"ERC721InvalidOperator","inputs":[{"name":"operator","type":"address","internalType":"address"}]},{"type":"error","name":"ERC721InvalidOwner","inputs":[{"name":"owner","type":"address","internalType":"address"}]},{"type":"error","name":"ERC721InvalidReceiver","inputs":[{"name":"receiver","type":"address","internalType":"address"}]},{"type":"error","name":"ERC721InvalidSender","inputs":[{"name":"sender","type":"address","internalType":"address"}]},{"type":"error","name":"ERC721NonexistentToken","inputs":[{"name":"tokenId","type":"uint256","internalType":"uint256"}]},{"type":"error","name":"ERC721OutOfBoundsIndex","inputs":[{"name":"owner","type":"address","internalType":"address"},{"name":"index","type":"uint256","internalType":"uint256"}]},{"type":"error","name":"EnforcedPause","inputs":[]},{"type":"error","name":"ExpectedPause","inputs":[]},{"type":"error","name":"GenesisArityMismatch","inputs":[]},{"type":"error","name":"IneligibleUnstake","inputs":[{"name":"validator","type":"tuple","internalType":"struct IConsensusRegistry.ValidatorInfo","components":[{"name":"validatorAddress","type":"address","internalType":"address"},{"name":"activationEpoch","type":"uint32","internalType":"uint32"},{"name":"exitEpoch","type":"uint32","internalType":"uint32"},{"name":"currentStatus","type":"uint8","internalType":"enum IConsensusRegistry.ValidatorStatus"},{"name":"isRetired","type":"bool","internalType":"bool"},{"name":"stakeVersion","type":"uint8","internalType":"uint8"},{"name":"region","type":"uint8","internalType":"uint8"}]}]},{"type":"error","name":"InsufficientRewards","inputs":[{"name":"withdrawAmount","type":"uint256","internalType":"uint256"}]},{"type":"error","name":"InvalidBLSPubkey","inputs":[]},{"type":"error","name":"InvalidCommitteeSize","inputs":[{"name":"minCommitteeSize","type":"uint256","internalType":"uint256"},{"name":"providedCommitteeSize","type":"uint256","internalType":"uint256"}]},{"type":"error","name":"InvalidDuration","inputs":[{"name":"duration","type":"uint32","internalType":"uint32"}]},{"type":"error","name":"InvalidEpoch","inputs":[{"name":"epoch","type":"uint32","internalType":"uint32"}]},{"type":"error","name":"InvalidProofOfPossession","inputs":[{"name":"proof","type":"tuple","internalType":"struct BlsG1.ProofOfPossession","components":[{"name":"uncompressedPubkey","type":"bytes","internalType":"bytes"},{"name":"uncompressedSignature","type":"bytes","internalType":"bytes"}]},{"name":"message","type":"bytes","internalType":"bytes"}]},{"type":"error","name":"InvalidStakeAmount","inputs":[{"name":"stakeAmount","type":"uint256","internalType":"uint256"}]},{"type":"error","name":"InvalidStakeVersion","inputs":[{"name":"currentVersion","type":"uint8","internalType":"uint8"},{"name":"targetVersion","type":"uint8","internalType":"uint8"}]},{"type":"error","name":"InvalidStatus","inputs":[{"name":"status","type":"uint8","internalType":"enum IConsensusRegistry.ValidatorStatus"}]},{"type":"error","name":"InvalidSupply","inputs":[]},{"type":"error","name":"InvalidTokenId","inputs":[{"name":"tokenId","type":"uint256","internalType":"uint256"}]},{"type":"error","name":"InvalidValidatorAddress","inputs":[]},{"type":"error","name":"IssuanceTransferFailed","inputs":[]},{"type":"error","name":"NotRecipient","inputs":[{"name":"recipient","type":"address","internalType":"address"}]},{"type":"error","name":"NotTransferable","inputs":[]},{"type":"error","name":"NotValidator","inputs":[{"name":"validatorAddress","type":"address","internalType":"address"}]},{"type":"error","name":"OnlySystemCall","inputs":[{"name":"invalidCaller","type":"address","internalType":"address"}]},{"type":"error","name":"OwnableInvalidOwner","inputs":[{"name":"owner","type":"address","internalType":"address"}]},{"type":"error","name":"OwnableUnauthorizedAccount","inputs":[{"name":"account","type":"address","internalType":"address"}]},{"type":"error","name":"Reentrancy","inputs":[]},{"type":"error","name":"RequiresConsensusNFT","inputs":[]},{"type":"error","name":"StringsInsufficientHexLength","inputs":[{"name":"value","type":"uint256","internalType":"uint256"},{"name":"length","type":"uint256","internalType":"uint256"}]}],"bytecode":{"object":"0x610120604052348015610010575f5ffd5b50604051618a60380380618a6083398101604081905261002f91611590565b806040518060400160405280600c81526020016b10dbdb9cd95b9cdd5cd3919560a21b8152506040518060400160405280600481526020016310d3919560e21b8152508181815f90816100829190611707565b50600161008f8282611707565b505030608052504660a0526060806100ef604080518082018252601481527f54656c636f696e205374616b654d616e61676572000000000000000000000000602080830191909152825180840190935260018352603160f81b9083015291565b815160209283012081519183019190912060c082905260e0819052604080517f8b73c3c69bb8fe3d512ecc4cf759cc79239f7b179b0ffacaa9a75d522b39400f8152938401929092529082015246606082015230608082015260a09020610100525050600d805461ff001916905550506001600160a01b03811661018d57604051631e4fbdf760e01b81525f60048201526024015b60405180910390fd5b61019681610837565b50835115806101a757508251845114155b806101b457508151845114155b156101d257604051633aa3e03360e01b815260040160405180910390fd5b5f808052600a602090815286517f13da86008ba1c6922daee3e07db95305ef49ebced9f5467a0b8613fcc6b343e3558601517f13da86008ba1c6922daee3e07db95305ef49ebced9f5467a0b8613fcc6b343e45560408601517f13da86008ba1c6922daee3e07db95305ef49ebced9f5467a0b8613fcc6b343e55560608601517f13da86008ba1c6922daee3e07db95305ef49ebced9f5467a0b8613fcc6b343e6805463ffffffff191663ffffffff9092169190911790558451600d805461ffff60d81b1916600160d81b61ffff909316929092029190911790555b600281116103b8575f601182600481106102ca576102ca6117c5565b6003020160028101805460608a0151600160401b600160801b03199091166801000000000000000063ffffffff8781169190910263ffffffff60601b1916919091176c0100000000000000000000000091909216021790556040880151600182015590505f601d8360048110610342576103426117c5565b6003020160028101805460608b0151600160401b600160801b03199091166801000000000000000063ffffffff8881169190910263ffffffff60601b1916919091176c0100000000000000000000000091909216021790556040890151600190910155506103b19050816117ed565b90506102ae565b505f5b8451811015610827575f8582815181106103d7576103d76117c5565b602002602001015190505f6104288584815181106103f7576103f76117c5565b6020026020010151835f0151888681518110610415576104156117c5565b602002602001015161089260201b60201c565b82519091506001600160a01b03166104535760405163713ce51160e01b815260040160405180910390fd5b602082015163ffffffff161561048a576020820151604051634fadd4d360e11b815263ffffffff9091166004820152602401610184565b604082015163ffffffff16156104c1576040808301519051634fadd4d360e11b815263ffffffff9091166004820152602401610184565b6003826060015160068111156104d9576104d9611805565b146104fd578160600151604051633ba7bf8960e11b81526004016101849190611839565b608082015115610523576005604051633ba7bf8960e11b81526004016101849190611839565b60a082015160ff16156105545760a082015160405163222d164360e21b815260ff9091166004820152602401610184565b5f5b6002811161060a5760118160048110610571576105716117c5565b84516003919091029190910180546001810182555f91825260209091200180546001600160a01b0319166001600160a01b03909216919091179055601d81600481106105bf576105bf6117c5565b84516003919091029190910180546001810182555f91825260209091200180546001600160a01b0319166001600160a01b03909216919091179055610603816117ed565b9050610556565b5085838151811061061d5761061d6117c5565b60209081029190910181015183516001600160a01b03165f908152602990925260409091209061064d9082611707565b5081516001600160a01b039081165f908152600f602090815260409182902085518154928701519387015163ffffffff908116600160c01b0263ffffffff60c01b1991909516600160a01b026001600160c01b0319909416919095161791909117928316821781556060850151859391929091839160ff60e01b191664ffffffffff60c01b1990911617600160e01b8360068111156106ee576106ee611805565b02179055506080820151815460a084015160c09094015160ff908116600160f81b026001600160f81b0391909516600160f01b0260ff60f01b19931515600160e81b029390931661ffff60e81b19909216919091179190911716919091179055815160035f52602a602052610784907f4adfa5efd78af8432c8ff812ed4c3d89e016f048361846e090e1a7c770f3157690610a15565b50875182516001600160a01b039081165f908152600b60209081526040808320949094558551858352601090915292902080546001600160a01b0319169290911691909117905581516107e6906107e1816001600160a01b031690565b610a32565b7fabab4191fe954f07230f7e34fd48dc0fdcbed492526cd060001cccceab22851b826040516108159190611847565b60405180910390a150506001016103bb565b50509151602b5550611a12915050565b600d80546001600160a01b038381166201000081810262010000600160b01b031985161790945560405193909204169182907f8be0079c531659141344cd1fd0a4f28419497f9722a3daafe3b4186f6b6457e0905f90a35050565b5f81516060146108b5576040516333a234f960e11b815260040160405180910390fd5b5f825f815181106108c8576108c86117c5565b016020015160f81c90506080811615806108e457506040811615155b15610902576040516333a234f960e11b815260040160405180910390fd5b6020850151855160405163071917cf60e01b815273__$2ef4e8110a3eaa1255da7f08f8eebcbf5a$__9263071917cf926109409289906004016118ef565b602060405180830381865af415801561095b573d5f5f3e3d5ffd5b505050506040513d601f19601f8201168201806040525081019061097f919061192c565b6109ac57845185906109919086610a98565b604051634babb8f160e01b8152600401610184929190611945565b84516060808201519085015160408084015190870151602094850151948801516001600160fd1b03908116951694909414931492909216911416610a0257604051629fb4bd60e31b815260040160405180910390fd5b610a0c8385610b15565b95945050505050565b5f610a29836001600160a01b038416610ba1565b90505b92915050565b6001600160a01b038216610a5b57604051633250574960e11b81525f6004820152602401610184565b5f610a67838383610bed565b90506001600160a01b03811615610a93576040516339e3563760e11b81525f6004820152602401610184565b505050565b604051636850eb3160e01b815260609073__$2ef4e8110a3eaa1255da7f08f8eebcbf5a$__90636850eb3190610ad49086908690600401611991565b5f60405180830381865af4158015610aee573d5f5f3e3d5ffd5b505050506040513d5f823e601f3d908101601f19168201604052610a2991908101906119ba565b604080516020848101516001600160fd1b031682528483015181830152606080860151838501529091205f8181526010909252919020546001600160a01b031615610b7357604051638d12779f60e01b815260040160405180910390fd5b5f81815260106020526040902080546001600160a01b0384166001600160a01b031990911617905592915050565b5f818152600183016020526040812054610be657508154600181810184555f848152602080822090930184905584548482528286019093526040902091909155610a2c565b505f610a2c565b5f80610bfa858585610cc0565b90506001600160a01b038116610c5657610c5184600880545f838152600960205260408120829055600182018355919091527ff3f7a9fe364faab93b216da50a3214154f22a0a2b415b23a84c8169e8b636ee30155565b610c79565b846001600160a01b0316816001600160a01b031614610c7957610c798185610db2565b6001600160a01b038516610c9557610c9084610e2f565b610cb8565b846001600160a01b0316816001600160a01b031614610cb857610cb88585610ed6565b949350505050565b5f828152600260205260408120546001600160a01b0390811690831615610cec57610cec818486610f24565b6001600160a01b03811615610d2657610d075f858180610f88565b6001600160a01b0381165f90815260036020526040902080545f190190555b6001600160a01b03851615610d54576001600160a01b0385165f908152600360205260409020805460010190555b5f8481526002602052604080822080546001600160a01b0319166001600160a01b0389811691821790925591518793918516917fddf252ad1be2c89b69c2b068fc378daa952ba7f163c4a11628f55a4df523b3ef91a4949350505050565b5f610dbc836110aa565b5f838152600760209081526040808320546001600160a01b0388168452600690925290912091925090818314610e11575f83815260208281526040808320548584528184208190558352600790915290208290555b5f938452600760209081526040808620869055938552525081205550565b6008545f90610e40906001906119eb565b5f8381526009602052604081205460088054939450909284908110610e6757610e676117c5565b905f5260205f20015490508060088381548110610e8657610e866117c5565b5f918252602080832090910192909255828152600990915260408082208490558582528120556008805480610ebd57610ebd6119fe565b600190038181905f5260205f20015f9055905550505050565b5f6001610ee2846110aa565b610eec91906119eb565b6001600160a01b039093165f908152600660209081526040808320868452825280832085905593825260079052919091209190915550565b610f2f8383836110ef565b610a93576001600160a01b038316610f5d57604051637e27328960e01b815260048101829052602401610184565b60405163177e802f60e01b81526001600160a01b038316600482015260248101829052604401610184565b8080610f9c57506001600160a01b03821615155b1561107b575f610fab8461116f565b90506001600160a01b03831615801590610fd75750826001600160a01b0316816001600160a01b031614155b801561100857506001600160a01b038082165f9081526005602090815260408083209387168352929052205460ff16155b156110315760405163a9fbf51f60e01b81526001600160a01b0384166004820152602401610184565b81156110795783856001600160a01b0316826001600160a01b03167f8c5be1e5ebec7d5bd14f71427d1e84f3dd0314c0f7b2291e5b200ac8c7c3b92560405160405180910390a45b505b50505f90815260046020526040902080546001600160a01b0319166001600160a01b0392909216919091179055565b5f6001600160a01b0382166110d4576040516322718ad960e21b81525f6004820152602401610184565b506001600160a01b03165f9081526003602052604090205490565b5f6001600160a01b03831615801590610cb85750826001600160a01b0316846001600160a01b0316148061114757506001600160a01b038085165f9081526005602090815260408083209387168352929052205460ff165b80610cb85750505f908152600460205260409020546001600160a01b03908116911614919050565b5f818152600260205260408120546001600160a01b031680610a2c57604051637e27328960e01b815260048101849052602401610184565b634e487b7160e01b5f52604160045260245ffd5b60405160e081016001600160401b03811182821017156111dd576111dd6111a7565b60405290565b604080519081016001600160401b03811182821017156111dd576111dd6111a7565b604051608081016001600160401b03811182821017156111dd576111dd6111a7565b604051601f8201601f191681016001600160401b038111828210171561124f5761124f6111a7565b604052919050565b805163ffffffff8116811461126a575f5ffd5b919050565b5f6001600160401b03821115611287576112876111a7565b5060051b60200190565b80516001600160a01b038116811461126a575f5ffd5b8051801515811461126a575f5ffd5b805160ff8116811461126a575f5ffd5b5f82601f8301126112d5575f5ffd5b81516112e86112e38261126f565b611227565b80828252602082019150602060e08402860101925085831115611309575f5ffd5b602085015b838110156113b35760e08188031215611325575f5ffd5b61132d6111bb565b61133682611291565b815261134460208301611257565b602082015261135560408301611257565b604082015260608201516007811061136b575f5ffd5b606082015261137c608083016112a7565b608082015261138d60a083016112b6565b60a082015261139e60c083016112b6565b60c0820152835260209092019160e00161130e565b5095945050505050565b5f82601f8301126113cc575f5ffd5b81516001600160401b038111156113e5576113e56111a7565b6113f8601f8201601f1916602001611227565b81815284602083860101111561140c575f5ffd5b8160208501602083015e5f918101602001919091529392505050565b5f82601f830112611437575f5ffd5b81516114456112e38261126f565b8082825260208201915060208360051b860101925085831115611466575f5ffd5b602085015b838110156113b35780516001600160401b03811115611488575f5ffd5b611497886020838a01016113bd565b8452506020928301920161146b565b5f82601f8301126114b5575f5ffd5b81516114c36112e38261126f565b8082825260208201915060208360051b8601019250858311156114e4575f5ffd5b602085015b838110156113b35780516001600160401b03811115611506575f5ffd5b86016040818903601f1901121561151b575f5ffd5b6115236111e3565b60208201516001600160401b0381111561153b575f5ffd5b61154a8a6020838601016113bd565b82525060408201516001600160401b03811115611565575f5ffd5b6115748a6020838601016113bd565b60208301525080855250506020830192506020810190506114e9565b5f5f5f5f5f8587036101008112156115a6575f5ffd5b60808112156115b3575f5ffd5b506115bc611205565b8651815260208088015190820152604080880151908201526115e060608801611257565b606082015260808701519095506001600160401b03811115611600575f5ffd5b61160c888289016112c6565b60a088015190955090506001600160401b03811115611629575f5ffd5b61163588828901611428565b60c088015190945090506001600160401b03811115611652575f5ffd5b61165e888289016114a6565b92505061166d60e08701611291565b90509295509295909350565b600181811c9082168061168d57607f821691505b6020821081036116ab57634e487b7160e01b5f52602260045260245ffd5b50919050565b601f821115610a935782821115610a9357805f5260205f20601f840160051c60208510156116dc57505f5b90810190601f840160051c035f5b818110156116ff575f838201556001016116ea565b505050505050565b81516001600160401b03811115611720576117206111a7565b6117348161172e8454611679565b846116b1565b6020601f821160018114611766575f831561174f5750848201515b5f19600385901b1c1916600184901b1784556117be565b5f84815260208120601f198516915b828110156117955787850151825560209485019460019092019101611775565b50848210156117b257868401515f19600387901b60f8161c191681555b505060018360011b0184555b5050505050565b634e487b7160e01b5f52603260045260245ffd5b634e487b7160e01b5f52601160045260245ffd5b5f600182016117fe576117fe6117d9565b5060010190565b634e487b7160e01b5f52602160045260245ffd5b6007811061183557634e487b7160e01b5f52602160045260245ffd5b9052565b60208101610a2c8284611819565b5f60e08201905060018060a01b03835116825263ffffffff602084015116602083015263ffffffff6040840151166040830152606083015161188c6060840182611819565b5060808301511515608083015260ff60a08401511660a083015260c08301516118ba60c084018260ff169052565b5092915050565b5f81518084528060208401602086015e5f602082860101526020601f19601f83011685010191505092915050565b606081525f61190160608301866118c1565b828103602084015261191381866118c1565b91505060018060a01b0383166040830152949350505050565b5f6020828403121561193c575f5ffd5b610a29826112a7565b604081525f835160408084015261195f60808401826118c1565b90506020850151603f1984830301606085015261197c82826118c1565b9150508281036020840152610a0c81856118c1565b604081525f6119a360408301856118c1565b905060018060a01b03831660208301529392505050565b5f602082840312156119ca575f5ffd5b81516001600160401b038111156119df575f5ffd5b610cb8848285016113bd565b81810381811115610a2c57610a2c6117d9565b634e487b7160e01b5f52603160045260245ffd5b60805160a05160c05160e05161010051617011611a4f5f395f6140f601525f6141b001525f61418a01525f61413a01525f61411701526170115ff3fe6080604052600436106103c8575f3560e01c80636a627842116101f457806395d89b4111610113578063c05df7ac116100a8578063eb8535c211610078578063eb8535c214610ba7578063f062476814610bd4578063f2888dbb14610bf3578063f2fde38b14610c12578063fa52c7d814610c31575f5ffd5b8063c05df7ac14610b2b578063c87b56dd14610b4a578063e3716d0414610b69578063e985e9c514610b88575f5ffd5b8063b5184324116100e3578063b518432414610ab4578063b88d4fde14610ac7578063b97dd9e214610ae6578063babc394f14610b17575f5ffd5b806395d89b4114610a48578063a0201be514610a5c578063a22cb46514610a7b578063a71954ec14610a95575f5ffd5b80637d06fdf81161018957806389afcb441161015957806389afcb44146109c75780638bb43f3a146109e65780638cc05eda146109f95780638da5cb5b14610a25575f5ffd5b80637d06fdf8146109185780638456cb591461096557806384b0196e14610979578063863623bb146109a0575f5ffd5b806370a08231116101c457806370a08231146108a7578063715018a6146108c657806379ee54f7146108da5780637b55a300146108f9575f5ffd5b80636a6278421461081e5780636a9265911461083d5780636ae9942c1461085c5780636d3c627514610888575f5ffd5b80632b9f4985116102eb57806342842e0e116102805780635c975abb116102505780635c975abb1461077f57806362fcde4b1461079b5780636352211e146107ba57806367398331146107d95780636850eb31146107ff575f5ffd5b806342842e0e1461070f5780634f6ccce71461072e57806359ca93b61461074d5780635a41fb1f1461076c575f5ffd5b8063374ed18c116102bb578063374ed18c146106555780633894228e146106815780633e28391d146106dc5780633f4ba83a146106fb575f5ffd5b80632b9f4985146105f55780632f745c59146106145780633434735f14610633578063355811a71461064d575f5ffd5b80630f15f4c0116103615780632228dfa0116103315780632228dfa01461058757806323a404301461059b57806323b872dd146105af5780632870259d146105c9575f5ffd5b80630f15f4c0146104f957806315b5709a1461050d57806318160ddd146105475780631904bb2e1461055b575f5ffd5b806306fdde031161039c57806306fdde0314610470578063081812fc14610484578063095ea7b3146104bb5780630a36cdef146104da575f5ffd5b80628d6acd146103cc57806301ffc9a7146103f457806302ae337b14610423578063059b916c14610444575b5f5ffd5b3480156103d7575f5ffd5b506103e1600e5481565b6040519081526020015b60405180910390f35b3480156103ff575f5ffd5b5061041361040e36600461592d565b610cbc565b60405190151581526020016103eb565b34801561042e575f5ffd5b5061044261043d36600461598f565b610ce6565b005b34801561044f575f5ffd5b5061046361045e3660046159e3565b610e3c565b6040516103eb9190615a2a565b34801561047b575f5ffd5b50610463610f0d565b34801561048f575f5ffd5b506104a361049e366004615a3c565b610f9c565b6040516001600160a01b0390911681526020016103eb565b3480156104c6575f5ffd5b506104426104d5366004615a53565b610fc3565b3480156104e5575f5ffd5b506104426104f436600461598f565b610fdc565b348015610504575f5ffd5b5061044261122b565b348015610518575f5ffd5b5061052c6105273660046159e3565b611274565b604080519384526020840192909252908201526060016103eb565b348015610552575f5ffd5b506008546103e1565b348015610566575f5ffd5b5061057a6105753660046159e3565b6112da565b6040516103eb9190615b1b565b348015610592575f5ffd5b506104426113bd565b3480156105a6575f5ffd5b506103e161147d565b3480156105ba575f5ffd5b506104426104d5366004615b29565b3480156105d4575f5ffd5b506105e86105e3366004615b63565b61148c565b6040516103eb9190615b81565b348015610600575f5ffd5b5061044261060f3660046159e3565b61160a565b34801561061f575f5ffd5b506103e161062e366004615a53565b6116cf565b34801561063e575f5ffd5b506104a36002600160a01b0381565b610442611732565b348015610660575f5ffd5b5061067461066f366004615bdf565b6117b4565b6040516103eb9190615c3d565b34801561068c575f5ffd5b506106a061069b366004615a3c565b611953565b604080519586526001600160401b03909416602086015263ffffffff9283169385019390935216606083015260ff16608082015260a0016103eb565b3480156106e7575f5ffd5b506104136106f63660046159e3565b6119a7565b348015610706575f5ffd5b506104426119cd565b34801561071a575f5ffd5b50610442610729366004615b29565b6119df565b348015610739575f5ffd5b506103e1610748366004615a3c565b6119f9565b348015610758575f5ffd5b506106a0610767366004615a3c565b611a4e565b61044261077a366004615cbe565b611a5d565b34801561078a575f5ffd5b50600d54610100900460ff16610413565b3480156107a6575f5ffd5b506104426107b5366004615cef565b611eaf565b3480156107c5575f5ffd5b506104a36107d4366004615a3c565b611fb6565b3480156107e4575f5ffd5b506107ed611fc0565b60405160ff90911681526020016103eb565b34801561080a575f5ffd5b50610463610819366004615dcc565b611fd2565b348015610829575f5ffd5b506104426108383660046159e3565b612056565b348015610848575f5ffd5b50610413610857366004615e4a565b6120b4565b348015610867575f5ffd5b5061087b610876366004615bdf565b61214f565b6040516103eb9190615e7c565b348015610893575f5ffd5b506104136108a23660046159e3565b6122a3565b3480156108b2575f5ffd5b506103e16108c13660046159e3565b612327565b3480156108d1575f5ffd5b5061044261236c565b3480156108e5575f5ffd5b506103e16108f43660046159e3565b61237d565b348015610904575f5ffd5b50610442610913366004615edf565b6123bf565b348015610923575f5ffd5b5061092c61252c565b6040516103eb919081518152602080830151908201526040808301519082015260609182015163ffffffff169181019190915260800190565b348015610970575f5ffd5b506104426125a9565b348015610984575f5ffd5b5061098d6125b9565b6040516103eb9796959493929190615f4e565b3480156109ab575f5ffd5b506104a37307a07a07a07a07a07a07a07a07a07a07a07a07a081565b3480156109d2575f5ffd5b506104426109e13660046159e3565b612620565b6104426109f4366004616071565b6126d0565b348015610a04575f5ffd5b50610a18610a13366004615b63565b612942565b6040516103eb9190616118565b348015610a30575f5ffd5b50600d546201000090046001600160a01b03166104a3565b348015610a53575f5ffd5b50610463612956565b348015610a67575f5ffd5b506105e8610a76366004615bdf565b612965565b348015610a86575f5ffd5b506104426104d5366004616137565b348015610aa0575f5ffd5b5061092c610aaf36600461616c565b612a1e565b610442610ac2366004616185565b612a98565b348015610ad2575f5ffd5b50610442610ae13660046161ec565b612b25565b348015610af1575f5ffd5b50600d54600160b01b900463ffffffff1660405163ffffffff90911681526020016103eb565b348015610b22575f5ffd5b50610674612b3d565b348015610b36575f5ffd5b506107ed610b4536600461624f565b612c4a565b348015610b55575f5ffd5b50610463610b64366004615a3c565b612d00565b348015610b74575f5ffd5b506103e1610b83366004616268565b612d70565b348015610b93575f5ffd5b50610413610ba23660046162c1565b612e4e565b348015610bb2575f5ffd5b50600d54600160d81b900461ffff1660405161ffff90911681526020016103eb565b348015610bdf575f5ffd5b50610442610bee366004615cbe565b612e7b565b348015610bfe575f5ffd5b50610442610c0d3660046159e3565b612efa565b348015610c1d575f5ffd5b50610442610c2c3660046159e3565b612f8c565b348015610c3c575f5ffd5b50610ca9610c4b3660046159e3565b600f6020525f90815260409020546001600160a01b0381169063ffffffff600160a01b8204811691600160c01b81049091169060ff600160e01b8204811691600160e81b8104821691600160f01b8204811691600160f81b90041687565b6040516103eb97969594939291906162e9565b5f6001600160e01b0319821663780e9d6360e01b1480610ce05750610ce082612fc6565b92915050565b336002600160a01b0314610d1457604051637eb3357160e01b81523360048201526024015b60405180910390fd5b5f5b81811015610e375736838383818110610d3157610d3161633c565b604002919091019150610d4c90506108a260208301836159e3565b15610d575750610e2f565b60208101803590600b905f90610d6d90856159e3565b6001600160a01b03166001600160a01b031681526020019081526020015f20541115610de15760208101803590600b905f90610da990856159e3565b6001600160a01b03166001600160a01b031681526020019081526020015f205f828254610dd69190616364565b90915550610df69050565b610df6610df160208301836159e3565b613015565b7f11a09f9b32440d896abff7453bf53f8b26ffcb18dae4dca227f7a76e2acc3a6481604051610e259190616377565b60405180910390a1505b600101610d16565b505050565b6001600160a01b0381165f90815260296020526040812080546060929190610e63906163a0565b80601f0160208091040260200160405190810160405280929190818152602001828054610e8f906163a0565b8015610eda5780601f10610eb157610100808354040283529160200191610eda565b820191905f5260205f20905b815481529060010190602001808311610ebd57829003601f168201915b5050505050905080515f03610ce057604051635f7ba20d60e11b81526001600160a01b0384166004820152602401610d0b565b60605f8054610f1b906163a0565b80601f0160208091040260200160405190810160405280929190818152602001828054610f47906163a0565b8015610f925780601f10610f6957610100808354040283529160200191610f92565b820191905f5260205f20905b815481529060010190602001808311610f7557829003601f168201915b5050505050905090565b5f610fa682613154565b505f828152600460205260409020546001600160a01b0316610ce0565b60405163dc8d8db760e01b815260040160405180910390fd5b336002600160a01b031461100557604051637eb3357160e01b8152336004820152602401610d0b565b5f80826001600160401b0381111561101f5761101f615d10565b604051908082528060200260200182016040528015611048578160200160208202803683370190505b5090505f5b8381101561112c57368585838181106110685761106861633c565b905060400201905080602001355f036110815750611124565b6110916108a260208301836159e3565b1561109c5750611124565b5f600f816110ad60208501856159e3565b6001600160a01b0316815260208082019290925260409081015f90812054600160f01b900460ff16808252600a84529181205491935090916110f290850135836163d8565b90506110fe81886163ef565b9650808686815181106111135761111361633c565b602002602001018181525050505050505b60010161104d565b50815f0361113a5750505050565b5f611143612b3d565b6020015190505f600e548261115891906163ef565b90505f5f5b86811015611213575f868683815181106111795761117961633c565b60200260200101518561118c91906163d8565b6111969190616416565b9050801561120a5780600b5f8b8b868181106111b4576111b461633c565b6111ca92602060409092020190810191506159e3565b6001600160a01b03166001600160a01b031681526020019081526020015f205f8282546111f791906163ef565b90915550611207905081846163ef565b92505b5060010161115d565b5061121e8183616364565b600e5550505050505b5050565b61123361318c565b61123c336131b5565b50611248336001613223565b335f908152600f60205260409020600d54611271908290600160b01b900463ffffffff16613289565b50565b6001600160a01b0381165f908152600f6020908152604080832054600160f01b900460ff16808452600a90925282205482918291826112b387836132fa565b6001600160a01b03979097165f908152600b60205260409020549791969550909350505050565b6112e26158dd565b6001600160a01b0382165f908152600f602052604090208054600160e81b900460ff1661131457611312836131b5565b505b6040805160e08101825282546001600160a01b038116825263ffffffff600160a01b820481166020840152600160c01b82041692820192909252908290606083019060ff600160e01b90910416600681111561137257611372615a7b565b600681111561138357611383615a7b565b8152905460ff600160e81b8204811615156020840152600160f01b820481166040840152600160f81b909104166060909101529392505050565b6113c561318c565b6113ce336131b5565b505f6113d9602b5490565b600d549091505f90601190600160d01b900460ff16600481106113fe576113fe61633c565b6003020154905061140f8282613333565b61141a336003613223565b335f908152600f60205260409020600d54815463ffffffff600160b01b909204821691600160a01b9091041681101561146e57604051634fadd4d360e11b815263ffffffff82166004820152602401610d0b565b61147782613370565b50505050565b5f611487602b5490565b905090565b6060611497826133cd565b5f6114a18361341d565b90505f81516001600160401b038111156114bd576114bd615d10565b6040519080825280602002602001820160405280156114f657816020015b6114e36158dd565b8152602001906001900390816114db5790505b5090505f5b825181101561160257600f5f8483815181106115195761151961633c565b6020908102919091018101516001600160a01b0390811683528282019390935260409182015f20825160e0810184528154948516815263ffffffff600160a01b8604811693820193909352600160c01b85049092169282019290925291606083019060ff600160e01b90910416600681111561159757611597615a7b565b60068111156115a8576115a8615a7b565b8152905460ff600160e81b8204811615156020840152600160f01b820481166040840152600160f81b9091041660609091015282518390839081106115ef576115ef61633c565b60209081029190910101526001016114fb565b509392505050565b61161261318c565b3068929eee149b4bd2126854036116305763ab143c065f526004601cfd5b3068929eee149b4bd21268555f6116468261344f565b6001600160a01b0383165f908152600f6020526040812054919250600160f01b90910460ff16906116788484846134b0565b9050826001600160a01b03167ffc30cddea38e2bf4d6ea7d3f9ed3b6ad7f176419f4963bd81318067a4aee73fe826040516116b591815260200190565b60405180910390a25050503868929eee149b4bd212685550565b5f6116d983612327565b821061170a5760405163295f44f760e21b81526001600160a01b038416600482015260248101839052604401610d0b565b506001600160a01b03919091165f908152600660209081526040808320938352929052205490565b61173a613565565b6040515f907307a07a07a07a07a07a07a07a07a07a07a07a07a09034908381818185875af1925050503d805f811461178d576040519150601f19603f3d011682016040523d82523d5f602084013e611792565b606091505b505090508061127157604051630b567ce360e31b815260040160405180910390fd5b6040805160c08101825260608082525f6020830181905292820183905281018290526080810182905260a0810191909152600d54600160b01b900463ffffffff16611800816002616429565b63ffffffff168363ffffffff161180611840575060038163ffffffff16101580156118405750611831600382616445565b63ffffffff168363ffffffff16105b1561186657604051634fadd4d360e11b815263ffffffff84166004820152602401610d0b565b600d54600160d01b900460ff1663ffffffff82811690851611156119485761188f848383613599565b60408051825460e0602082028301810190935260c0820181815291939284929184918401828280156118e857602002820191905f5260205f20905b81546001600160a01b031681526001909101906020018083116118ca575b5050509183525050600182015460208201526002909101546001600160401b038116604083015263ffffffff600160401b820481166060840152600160601b820416608083015260ff600160801b9091041660a090910152949350505050565b61188f848383613623565b60118160048110611962575f80fd5b6003020160018101546002909101549091506001600160401b03811690600160401b810463ffffffff90811691600160601b810490911690600160801b900460ff1685565b6001600160a01b038082165f908152600c60205260408120600201549091161515610ce0565b6119d5613565565b6119dd6136c4565b565b610e3783838360405180602001604052805f815250612b25565b5f611a0360085490565b8210611a2b5760405163295f44f760e21b81525f600482015260248101839052604401610d0b565b60088281548110611a3e57611a3e61633c565b905f5260205f2001549050919050565b601d8160048110611962575f80fd5b611a6561318c565b3068929eee149b4bd212685403611a835763ab143c065f526004601cfd5b3068929eee149b4bd21268555f611a998361344f565b6001600160a01b0384165f908152600f60205260409020805491925090600160e01b900460ff166001816006811115611ad457611ad4615a7b565b14158015611af457506002816006811115611af157611af1615a7b565b14155b8015611b1257506003816006811115611b0f57611b0f615a7b565b14155b15611b325780604051633ba7bf8960e11b8152600401610d0b9190616461565b815460ff600160f01b909104811690851681101580611b595750600d5460ff908116908616115b15611b8457604051633abb443b60e21b815260ff808316600483015286166024820152604401610d0b565b60ff8082165f908152600a602052604080822054928816825290205481811115611c0a575f611bb38383616364565b9050803414611bd75760405163222d164360e21b8152346004820152602401610d0b565b6001600160a01b0389165f908152600b602052604081208054839290611bfe9084906163ef565b90915550611dd9915050565b81811015611db8573415611c335760405163222d164360e21b8152346004820152602401610d0b565b5f611c3e8284616364565b6001600160a01b038a165f908152600b6020526040812054919250848210611c67575081611c7c565b83821115611c7c57611c798483616364565b90505b8015611d20576001600160a01b038b165f908152600b602052604081208054839290611ca9908490616364565b9091555050604051634875485760e11b81526001600160a01b038a1660048201525f60248201527307a07a07a07a07a07a07a07a07a07a07a07a07a0906390ea90ae9083906044015f604051808303818588803b158015611d08575f5ffd5b505af1158015611d1a573d5f5f3e3d5ffd5b50505050505b5f611d2b8285616364565b90508015611daf576040515f907307a07a07a07a07a07a07a07a07a07a07a07a07a09083908381818185875af1925050503d805f8114611d86576040519150601f19603f3d011682016040523d82523d5f602084013e611d8b565b606091505b5050905080611dad57604051630b567ce360e31b815260040160405180910390fd5b505b50505050611dd9565b3415611dd95760405163222d164360e21b8152346004820152602401610d0b565b845460ff60f01b1916600160f01b60ff8916021785556001600160a01b038089165f908152600c60205260409020600201541615611e42576001600160a01b0388165f908152600c60205260409020600201805460ff60a01b1916600160a01b60ff8a16021790555b6040805160ff808616825289166020820152908101839052606081018290526001600160a01b038916907f27f993440568bc502fe7db72fe27118488431975dc3239b379513a4cdb08e2c99060800160405180910390a25050505050503868929eee149b4bd21268555050565b611eb7613565565b8061ffff165f03611f0a57600d54601190600160d01b900460ff1660048110611ee257611ee261633c565b6003020154604051635700689f60e11b815260048101919091525f6024820152604401610d0b565b5f611f14602b5490565b9050808261ffff161115611f4857604051635700689f60e11b81526004810182905261ffff83166024820152604401610d0b565b600d805461ffff848116600160d81b81810261ffff60d81b1985161790945560408051949093049091168084526020840191909152908201839052907f74cf7ca84b30b723e8b6e3cc569ec2db21f4ba2fcc09d651e5ce6770b91552f99060600160405180910390a1505050565b5f610ce082613154565b5f611fc9612b3d565b60a00151905090565b604051636850eb3160e01b815260609073__$2ef4e8110a3eaa1255da7f08f8eebcbf5a$__90636850eb319061200e908690869060040161646f565b5f60405180830381865af4158015612028573d5f5f3e3d5ffd5b505050506040513d5f823e601f3d908101601f1916820160405261204f9190810190616498565b9392505050565b61205e613565565b61206781612327565b1515806120785750612078816122a3565b156120a157604051639fb0877960e01b81526001600160a01b0382166004820152602401610d0b565b611271816001600160a01b038116613717565b5f606082146120c457505f610ce0565b5f61210384848080601f0160208091040260200160405190810160405280939291908181526020018383808284375f9201919091525061377892505050565b5f818152601060205260409020549091506001600160a01b03168061212c575f92505050610ce0565b612135816122a3565b15612144575f92505050610ce0565b506001949350505050565b60605f61215b836117b4565b5f015190505f81516001600160401b0381111561217a5761217a615d10565b6040519080825280602002602001820160405280156121ad57816020015b60608152602001906001900390816121985790505b5090505f5b81518110156116025760295f8483815181106121d0576121d061633c565b60200260200101516001600160a01b03166001600160a01b031681526020019081526020015f208054612202906163a0565b80601f016020809104026020016040519081016040528092919081815260200182805461222e906163a0565b80156122795780601f1061225057610100808354040283529160200191612279565b820191905f5260205f20905b81548152906001019060200180831161225c57829003601f168201915b50505050508282815181106122905761229061633c565b60209081029190910101526001016121b2565b5f6122b66001600160a01b0383166137a6565b156122c257505f919050565b5f6001600160a01b0383165f908152600f6020526040902054600160e01b900460ff1660068111156122f6576122f6615a7b565b0361230257505f919050565b506001600160a01b03165f908152600f6020526040902054600160e81b900460ff1690565b5f6001600160a01b038216612351576040516322718ad960e21b81525f6004820152602401610d0b565b506001600160a01b03165f9081526003602052604090205490565b612374613565565b6119dd5f6137f9565b6001600160a01b0381165f908152600f6020908152604080832054600160f01b900460ff16808452600a9092528220546123b784826132fa565b949350505050565b336002600160a01b03146123e857604051637eb3357160e01b8152336004820152602401610d0b565b6123f28282613854565b600d54600160d81b900461ffff16811461243657600d54604051635700689f60e11b8152600160d81b90910461ffff16600482015260248101829052604401610d0b565b5f5f5f5f6124758686808060200260200160405190810160405280939291908181526020018383602002808284375f9201919091525061392c92505050565b9350935093509350612488868686613c40565b61249a612494602b5490565b86613333565b7fd1a5032a9ae65ebe520eba7974025750af3d884b6ab6047dad04dcf7006ab3856040518060c001604052808381526020018581526020014360016124df91906163ef565b6001600160401b0316815263ffffffff80881660208301528516604080830191909152600d5460ff166060909201919091525161251c9190615c3d565b60405180910390a1505050505050565b61255960405180608001604052805f81526020015f81526020015f81526020015f63ffffffff1681525090565b50600d5460ff165f908152600a602090815260409182902082516080810184528154815260018201549281019290925260028101549282019290925260039091015463ffffffff16606082015290565b6125b1613565565b6119dd613e7c565b600f60f81b6060805f80808361260e60408051808201825260148152732a32b631b7b4b71029ba30b5b2a6b0b730b3b2b960611b602080830191909152825180840190935260018352603160f81b9083015291565b97989097965046955030945091925090565b612628613565565b612631816122a3565b15612652576006604051633ba7bf8960e11b8152600401610d0b9190616461565b61265b816131b5565b505f6001600160a01b0382165f908152600f6020526040902054600160e01b900460ff16600681111561269057612690615a7b565b036126c7576001600160a01b0381165f908152600f602052604090206126b590613ebb565b6112716001600160a01b038216613f07565b61127181613015565b6126d861318c565b5f612719858589898080601f0160208091040260200160405190810160405280939291908181526020018383808284375f92019190915250613f3f92505050565b90505f612724612b3d565b60a0015190505f61273534836140b9565b9050612740866131b5565b5061274b865f613223565b6001600160a01b0386165f908152600c60205260409020600201546001600160401b03600160a81b90910416612790600d546001600160a01b03620100009091041690565b6001600160a01b0316336001600160a01b03161461283f575f7f9a361e91fa9aa610b5edf1d5c1cc20b9646c4228f3c004354ed2de7635dac99485893387866040516020016127e49695949392919061650c565b6040516020818303038152906040528051906020012090505f612806826140f4565b905061281489828a8a61420a565b61283c57604051633b4f6e2b60e21b81526001600160a01b038a166004820152602401610d0b565b50505b6040518060a00160405280858152602001886001600160a01b03168152602001336001600160a01b031681526020018460ff168152602001826001612884919061654a565b6001600160401b039081169091526001600160a01b038981165f908152600c602090815260409182902085518155908501516001820180546001600160a01b03191691851691909117905590840151600290910180546060860151608090960151929093166001600160a81b031990931692909217600160a01b60ff909516949094029390931767ffffffffffffffff60a81b1916600160a81b93909216929092021790556129368a8a8986866142dd565b50505050505050505050565b606061294d826133cd565b610ce08261341d565b606060018054610f1b906163a0565b60605f612971836117b4565b5f015190505f81516001600160401b0381111561299057612990615d10565b6040519080825280602002602001820160405280156129c957816020015b6129b66158dd565b8152602001906001900390816129ae5790505b5090505f5b8151811015611602576129f98382815181106129ec576129ec61633c565b60200260200101516112da565b828281518110612a0b57612a0b61633c565b60209081029190910101526001016129ce565b612a4b60405180608001604052805f81526020015f81526020015f81526020015f63ffffffff1681525090565b5060ff165f908152600a602090815260409182902082516080810184528154815260018201549281019290925260028101549282019290925260039091015463ffffffff16606082015290565b612aa061318c565b612ae0813385858080601f0160208091040260200160405190810160405280939291908181526020018383808284375f92019190915250613f3f92505050565b505f612aea612b3d565b60a0015190505f612afb34836140b9565b9050612b06336131b5565b50612b11335f613223565b612b1e85853385856142dd565b5050505050565b612b30848484610fc3565b6114773385858585614497565b6040805160c08101825260608082525f6020830181905292820183905281018290526080810182905260a0810191909152600d54612b9490600160b01b810463ffffffff16908190600160d01b900460ff16613623565b60408051825460e0602082028301810190935260c082018181529193928492918491840182828015612bed57602002820191905f5260205f20905b81546001600160a01b03168152600190910190602001808311612bcf575b5050509183525050600182015460208201526002909101546001600160401b038116604083015263ffffffff600160401b820481166060840152600160601b820416608083015260ff600160801b9091041660a090910152919050565b5f612c53613565565b612c5b61318c565b612c6b6080830160608401615bdf565b63ffffffff165f03612ca957612c876080830160608401615bdf565b604051630c6e911360e41b815263ffffffff9091166004820152602401610d0b565b600d80545f91908290612cbe9060ff16616569565b825460ff8083166101009490940a848102910219909116179092555f908152600a602052604090209091508390612cf58282616587565b50909150505b919050565b6060612d0b82613154565b505f612d46612d19846145be565b612d2161466c565b604051602001612d329291906165e1565b6040516020818303038152906040526146b6565b905080604051602001612d5991906166d0565b604051602081830303815290604052915050919050565b5f612d7a836131b5565b508351606014612d9d576040516333a234f960e11b815260040160405180910390fd5b5f612da6612b3d565b60a001516001600160a01b0385165f908152600c6020526040812060020154919250600160a81b9091046001600160401b031690612de387613778565b90505f7f9a361e91fa9aa610b5edf1d5c1cc20b9646c4228f3c004354ed2de7635dac9948288888787604051602001612e219695949392919061650c565b604051602081830303815290604052805190602001209050612e42816140f4565b98975050505050505050565b6001600160a01b039182165f90815260056020908152604080832093909416825291909152205460ff1690565b612e83613565565b612e8c826131b5565b506001600160a01b0382165f818152600f602090815260409182902080546001600160f81b0316600160f81b60ff87169081029190911790915591519182527ffa96cc66d1772e5646f86e374867e4e32b5b448b2aadb331568e34c2d063e455910160405180910390a25050565b612f0261318c565b3068929eee149b4bd212685403612f205763ab143c065f526004601cfd5b3068929eee149b4bd21268555f612f368261344f565b6001600160a01b0383165f908152600f60205260409020909150612f59816146dc565b612f78578060405163c11d33f760e01b8152600401610d0b9190616701565b612f8181613ebb565b5f6116788484614775565b612f94613565565b6001600160a01b038116612fbd57604051631e4fbdf760e01b81525f6004820152602401610d0b565b611271816137f9565b5f6001600160e01b031982166380ac58cd60e01b1480612ff657506001600160e01b03198216635b5e139f60e01b145b80610ce057506301ffc9a760e01b6001600160e01b0319831614610ce0565b6001600160a01b0381165f908152600f602052604090208054602b54600160e01b90910460ff16906130468261493f565b1561305957613056600182616364565b90505b6130638482614992565b5f5f61306e86611274565b506001600160a01b0388165f908152600b60205260408120819055919350915081831061309b578161309d565b825b6040519091505f907307a07a07a07a07a07a07a07a07a07a07a07a07a09083908381818185875af1925050503d805f81146130f3576040519150601f19603f3d011682016040523d82523d5f602084013e6130f8565b606091505b505090508061311a57604051630b567ce360e31b815260040160405180910390fd5b600d54613135908890600160b01b900463ffffffff16614aca565b61313e87613ebb565b5f61314889614b21565b90506129368982614775565b5f818152600260205260408120546001600160a01b031680610ce057604051637e27328960e01b815260048101849052602401610d0b565b600d54610100900460ff16156119dd5760405163d93c066560e01b815260040160405180910390fd5b5f6001600160a01b0382166131c9816137a6565b6131e95760405163ed15e6cf60e01b815260048101829052602401610d0b565b826001600160a01b03166131fc82611fb6565b6001600160a01b031614610ce0576040516330fa89ab60e11b815260040160405180910390fd5b6001600160a01b0382165f908152600f6020526040902054600160e01b900460ff1681600681111561325757613257615a7b565b81600681111561326957613269615a7b565b14610e375780604051633ba7bf8960e11b8152600401610d0b9190616461565b613294816001616429565b825463ffffffff91909116600160a01b0263ffffffff60a01b199091161782556132bf826002614b50565b7f44f68a196beb8e3ae6b6afe9504db62c81b4e511e987a263b4f1a9bc49c90762826040516132ee9190616701565b60405180910390a15050565b6001600160a01b0382165f908152600b602052604081205481838211613320575f61332a565b61332a8483616364565b95945050505050565b81158061333e575080155b8061334857508181115b1561122757604051635700689f60e11b81526004810183905260248101829052604401610d0b565b61337b816004614b50565b805463ffffffff60c01b191663ffffffff60c01b1781556040517f170cba9e80cc0d156bc6ed689fa1d09ee788e1000c092512ef8698454b2081ee906133c2908390616701565b60405180910390a150565b5f8160068111156133e0576133e0615a7b565b14806133fd575060068160068111156133fb576133fb615a7b565b145b156112715780604051633ba7bf8960e11b8152600401610d0b9190616461565b6060610ce0602a5f84600681111561343757613437615a7b565b60ff1660ff1681526020019081526020015f20614c97565b5f613459826131b5565b5061346382614b21565b9050336001600160a01b038316148015906134875750336001600160a01b03821614155b15612cfb5760405163172b4e7560e11b81526001600160a01b0382166004820152602401610d0b565b5f5f6134bc8584614ca3565b6001600160a01b0386165f908152600b60205260408120805492935083929091906134e8908490616364565b9091555050604051634875485760e11b81526001600160a01b0385166004820152602481018290527307a07a07a07a07a07a07a07a07a07a07a07a07a0906390ea90ae906044015f604051808303815f87803b158015613546575f5ffd5b505af1158015613558573d5f5f3e3d5ffd5b5092979650505050505050565b600d546001600160a01b03620100009091041633146119dd5760405163118cdaa760e01b8152336004820152602401610d0b565b5f806004836135a88688616445565b6135b29190616773565b6135bc919061678c565b90505f601d8260ff16600481106135d5576135d561633c565b6003020190508563ffffffff168160020160089054906101000a900463ffffffff1663ffffffff161461332a57604051634fadd4d360e11b815263ffffffff87166004820152602401610d0b565b5f8061362f8585616445565b90505f60048261363f8683616773565b61364991906167ad565b613653919061678c565b90505f60118260ff166004811061366c5761366c61633c565b6003020190508663ffffffff168160020160089054906101000a900463ffffffff1663ffffffff16146136ba57604051634fadd4d360e11b815263ffffffff88166004820152602401610d0b565b9695505050505050565b6136cc614d03565b600d805461ff00191690557f5db9ee0a495bf2e6ff9c91a7834c1ba4fdd244a5e8aa4e537bd38aeae4b073aa335b6040516001600160a01b03909116815260200160405180910390a1565b6001600160a01b03821661374057604051633250574960e11b81525f6004820152602401610d0b565b5f61374c83835f614d2b565b90506001600160a01b03811615610e37576040516339e3563760e11b81525f6004820152602401610d0b565b604080516020838101516001600160fd1b031682528284015190820152606092830151918101919091522090565b5f8115806137bb57506001600160a01b038210155b156137dc5760405163ed15e6cf60e01b815260048101839052602401610d0b565b505f908152600260205260409020546001600160a01b0316151590565b600d80546001600160a01b038381166201000081810262010000600160b01b031985161790945560405193909204169182907f8be0079c531659141344cd1fd0a4f28419497f9722a3daafe3b4186f6b6457e0905f90a35050565b60015b81811015610e37578282828181106138715761387161633c565b905060200201602081019061388691906159e3565b6001600160a01b0316838361389c600185616364565b8181106138ab576138ab61633c565b90506020020160208101906138c091906159e3565b6001600160a01b0316106139245782826138db600184616364565b8181106138ea576138ea61633c565b90506020020160208101906138ff91906159e3565b60405163836e3a7d60e01b81526001600160a01b039091166004820152602401610d0b565b600101613857565b600d545f9081908190606090600160d01b900460ff16826004613950836001616773565b61395a919061678c565b600d805460ff60d01b1916600160d01b60ff841602178082559192505f9160169061399190600160b01b900463ffffffff166167c6565b91906101000a81548163ffffffff021916908363ffffffff160217905590505f601d8360ff16600481106139c7576139c761633c565b6003020190505f6139d661252c565b90506040518060c0016040528083805480602002602001604051908101604052809291908181526020018280548015613a3657602002820191905f5260205f20905b81546001600160a01b03168152600190910190602001808311613a18575b5050509183525050604080840151602083015201613a5543600161654a565b6001600160401b0316815263ffffffff80861660208301526060808501519091166040830152600d5460ff9081169190920152601190861660048110613a9d57613a9d61633c565b600302015f820151815f019081613ab491906167f8565b50602082015160018201556040820151600291820180546060850151608086015160a0909601516001600160401b039094166bffffffffffffffffffffffff1990921691909117600160401b63ffffffff928316021764ffffffffff60601b1916600160601b919095160260ff60801b191693909317600160801b60ff90921691909102179091555f90600490613b4c908790616773565b613b56919061678c565b90508a601d8260ff1660048110613b6f57613b6f61633c565b6003020190613b7e90826167f8565b50613b8a846002616429565b601d8260ff1660048110613ba057613ba061633c565b6003020160020160086101000a81548163ffffffff021916908363ffffffff16021790555083826040015183606001518580805480602002602001604051908101604052809291908181526020018280548015613c2457602002820191905f5260205f20905b81546001600160a01b03168152600190910190602001808311613c06575b5050505050905099509950995099505050505050509193509193565b5f613c4b600261341d565b90505f5b8151811015613ca9575f600f5f848481518110613c6e57613c6e61633c565b60200260200101516001600160a01b03166001600160a01b031681526020019081526020015f209050613ca081614df6565b50600101613c4f565b505f613cb5600461341d565b600d54909150600160d01b900460ff165f6004613cd3836001616773565b613cdd919061678c565b90505f60118360ff1660048110613cf657613cf661633c565b60030201805460408051602080840282018101909252828152929190830182828015613d4957602002820191905f5260205f20905b81546001600160a01b03168152600190910190602001808311613d2b575b505050505090505f601d8360ff1660048110613d6757613d6761633c565b60030201805460408051602080840282018101909252828152929190830182828015613dba57602002820191905f5260205f20905b81546001600160a01b03168152600190910190602001808311613d9c575b505050505090505f5b8551811015612936575f868281518110613ddf57613ddf61633c565b60200260200101519050613df38185614e30565b80613e035750613e038184614e30565b80613e455750613e45818c8c808060200260200160405190810160405280939291908181526020018383602002808284375f92019190915250614e3092505050565b15613e505750613e74565b6001600160a01b0381165f908152600f60205260409020613e71818b614aca565b50505b600101613dc3565b613e8461318c565b600d805461ff0019166101001790557f62e78cea01bee320cd4e420270b5ea74000d11b0c9f74754ebdbfc544b05a2586136fa3390565b613ec6816006614b50565b805460ff60e81b1916600160e81b1781556040517ffab16134cb74fff6e7d137bf93f6b2ab4c1c61cbe53dad2c8cb57744353bd39b906133c2908390616701565b5f613f135f835f614d2b565b90506001600160a01b03811661122757604051637e27328960e01b815260048101839052602401610d0b565b5f8151606014613f62576040516333a234f960e11b815260040160405180910390fd5b5f825f81518110613f7557613f7561633c565b016020015160f81c9050608081161580613f9157506040811615155b15613faf576040516333a234f960e11b815260040160405180910390fd5b6020850151855160405163071917cf60e01b815273__$2ef4e8110a3eaa1255da7f08f8eebcbf5a$__9263071917cf92613fed92899060040161687c565b602060405180830381865af4158015614008573d5f5f3e3d5ffd5b505050506040513d601f19601f8201168201806040525081019061402c91906168b9565b614059578461403e865f015186611fd2565b604051634babb8f160e01b8152600401610d0b9291906168d4565b84516060808201519085015160408084015190870151602094850151948801516001600160fd1b039081169516949094149314929092169114166140af57604051629fb4bd60e31b815260040160405180910390fd5b61332a8385614e8d565b60ff81165f908152600a602052604081205483146140ed5760405163222d164360e21b815260048101849052602401610d0b565b5090919050565b7f00000000000000000000000000000000000000000000000000000000000000007f000000000000000000000000000000000000000000000000000000000000000030147f00000000000000000000000000000000000000000000000000000000000000004614166141e75750604080517f8b73c3c69bb8fe3d512ecc4cf759cc79239f7b179b0ffacaa9a75d522b39400f81527f000000000000000000000000000000000000000000000000000000000000000060208201527f00000000000000000000000000000000000000000000000000000000000000009181019190915246606082015230608082015260a090205b6719010000000000005f5280601a5281603a52604260182090505f603a52919050565b5f6001600160a01b038516156123b757604051853b61429a57826040811461423a576041811461426157506142d4565b60208581013560ff81901c601b0190915285356040526001600160ff1b0316606052614272565b60408501355f1a6020526040856040375b50845f526020600160805f60015afa5180871860601b3d119250505f606052806040526142d4565b631626ba7e60e01b80825285600483015260248201604081528460448401528486606485013760208160648701858b5afa90519091141691505b50949350505050565b6040805160e0810182526001600160a01b0385811680835263ffffffff60208085018281525f868801818152606088018281526080890183905260ff8c1660a08a015260c08901839052958252600f9093529690962085518154975192518416600160c01b0263ffffffff60c01b1993909416600160a01b026001600160c01b0319909816951694909417959095179485168117835590519293919291839160ff60e01b191664ffffffffff60c01b1990911617600160e01b8360068111156143a8576143a8615a7b565b02179055506080820151815460a084015160c09094015161ffff60e81b19909116600160e81b9215159290920260ff60f01b191691909117600160f01b60ff94851602176001600160f81b0316600160f81b93909116929092029190911790556001600160a01b0383165f908152600f6020526040902061442a816001614b50565b6001600160a01b0384165f90815260296020526040902061444c86888361695f565b506001600160a01b0384165f908152600b602052604090819020839055517f9d9bab592843361c508cec6cc23820609c04fe07a621d03bf04b7520759d36419061251c908390616701565b6001600160a01b0383163b15612b1e57604051630a85bd0160e11b81526001600160a01b0384169063150b7a02906144d9908890889087908790600401616a18565b6020604051808303815f875af1925050508015614513575060408051601f3d908101601f1916820190925261451091810190616a4a565b60015b61457a573d808015614540576040519150601f19603f3d011682016040523d82523d5f602084013e614545565b606091505b5080515f0361457257604051633250574960e11b81526001600160a01b0385166004820152602401610d0b565b805181602001fd5b6001600160e01b03198116630a85bd0160e11b146145b657604051633250574960e11b81526001600160a01b0385166004820152602401610d0b565b505050505050565b60605f6145ca83614efd565b6028602282012090915060601c60295b600181111561466357600782600f1611801561460f575060608382815181106146055761460561633c565b016020015160f81c115b1561464c57602060f81b83828151811061462b5761462b61633c565b0160200180516001600160f81b0319908116909218909116905f82901a9053505b60049190911c9061465c81616a65565b90506145da565b50909392505050565b60606146926040518061052001604052806104ed8152602001616ad86104ed91396146b6565b6040516020016146a29190616a7a565b604051602081830303815290604052905090565b6060610ce082604051806060016040528060408152602001616fc5604091396001614f13565b80545f90600160e01b900460ff1660018160068111156146fe576146fe615a7b565b0361470c5750600192915050565b82545f9061472890600160c01b900463ffffffff166001616429565b9050600582600681111561473e5761473e615a7b565b14801561475d5750600d5463ffffffff808316600160b01b9092041610155b1561476c575060019392505050565b505f9392505050565b5f6147886001600160a01b038416613f07565b6008545f036147aa576040516315ae672760e01b815260040160405180910390fd5b6001600160a01b0383165f908152600c602052604081208181556001810180546001600160a01b031916905560020180546001600160e81b031916905580806147f286611274565b925092509250825f0361480a57829350505050610ce0565b6001600160a01b0386165f908152600b602052604081208190558284106148325750816148b6565b50825f7307a07a07a07a07a07a07a07a07a07a07a07a07a06148548386616364565b6040515f81818185875af1925050503d805f811461488d576040519150601f19603f3d011682016040523d82523d5f602084013e614892565b606091505b50509050806148b457604051630b567ce360e31b815260040160405180910390fd5b505b604051634875485760e11b81526001600160a01b0387166004820152602481018390527307a07a07a07a07a07a07a07a07a07a07a07a07a0906390ea90ae9083906044015f604051808303818588803b158015614911575f5ffd5b505af1158015614923573d5f5f3e3d5ffd5b5050505050818161493491906163ef565b979650505050505050565b5f600382600681111561495457614954615a7b565b14806149715750600482600681111561496f5761496f615a7b565b145b80610ce05750600282600681111561498b5761498b615a7b565b1492915050565b600d54600160b01b810463ffffffff1690600160d01b900460ff165f6149b9838084613623565b90506149c5818661508d565b5080546149d28582613333565b5f6149de856001616429565b90505f6149ec828787613599565b90506149f8818961508d565b5080549250614a078784613333565b5f614a13876002616429565b90505f614a21828989613599565b9050614a2d818b61508d565b5080549450614a3c8986613333565b600d54600160d81b900461ffff1689101561293657600d805461ffff8b8116600160d81b90810261ffff60d81b1984161793849055604080519382900483168085529190940490911660208301529181018b90527f74cf7ca84b30b723e8b6e3cc569ec2db21f4ba2fcc09d651e5ce6770b91552f99060600160405180910390a15050505050505050505050565b614ad5826005614b50565b815463ffffffff60c01b1916600160c01b63ffffffff8316021782556040517f727bfc4079207401298f48a3f1a92c9b40d83e086fe5b584a7b0644fdbdb56ee906132ee908490616701565b6001600160a01b038082165f908152600c60205260408120600281015491929091168061204f57509192915050565b81546001600160a01b03811690600160e01b900460ff16614b9882602a5f846006811115614b8057614b80615a7b565b60ff16815260208101919091526040015f2090615188565b505f836006811115614bac57614bac615a7b565b14158015614bcc57506006836006811115614bc957614bc9615a7b565b14155b15614c0457614c0282602a5f866006811115614bea57614bea615a7b565b60ff16815260208101919091526040015f209061519c565b505b5f614c0e8261493f565b90505f614c1a8561493f565b9050818015614c27575080155b15614c4357602b5f8154614c3a90616a65565b90915550614c66565b81158015614c4e5750805b15614c6657602b5f8154614c6190616aab565b909155505b85548590879060ff60e01b1916600160e01b836006811115614c8a57614c8a615a7b565b0217905550505050505050565b60605f61204f836151b0565b60ff81165f908152600a602052604081205481614cc085836132fa565b9050801580614ce2575060ff84165f908152600a602052604090206001015481105b156123b757604051633737b70960e11b815260048101829052602401610d0b565b600d54610100900460ff166119dd57604051638dfc202b60e01b815260040160405180910390fd5b5f5f614d38858585615209565b90506001600160a01b038116614d9457614d8f84600880545f838152600960205260408120829055600182018355919091527ff3f7a9fe364faab93b216da50a3214154f22a0a2b415b23a84c8169e8b636ee30155565b614db7565b846001600160a01b0316816001600160a01b031614614db757614db781856152fb565b6001600160a01b038516614dd357614dce84615378565b6123b7565b846001600160a01b0316816001600160a01b0316146123b7576123b7858561541f565b614e01816003614b50565b7fabab4191fe954f07230f7e34fd48dc0fdcbed492526cd060001cccceab22851b816040516133c29190616701565b80515f90815b81811015614e8357846001600160a01b0316848281518110614e5a57614e5a61633c565b60200260200101516001600160a01b031603614e7b57600192505050610ce0565b600101614e36565b505f949350505050565b5f614e9783613778565b5f818152601060205260409020549091506001600160a01b031615614ecf57604051638d12779f60e01b815260040160405180910390fd5b5f81815260106020526040902080546001600160a01b0384166001600160a01b031990911617905592915050565b6060610ce06001600160a01b038316601461546d565b606083515f03614f31575060408051602081019091525f815261204f565b5f82614f6157600385516004614f4791906163d8565b614f529060026163ef565b614f5c9190616416565b614f86565b600385516002614f7191906163ef565b614f7b9190616416565b614f869060046163d8565b90505f816001600160401b03811115614fa157614fa1615d10565b6040519080825280601f01601f191660200182016040528015614fcb576020820181803683370190505b509050600185016020820187885189016020810180515f82525b82841015615040576003840193508351603f8160121c168701518653600186019550603f81600c1c168701518653600186019550603f8160061c168701518653600186019550603f8116870151865350600185019450614fe5565b9052505085156150815760038851066001811461506457600281146150775761507f565b603d6001830353603d600283035361507f565b603d60018303535b505b50909695505050505050565b81545f90815b81811015614e8357836001600160a01b03168582815481106150b7576150b761633c565b5f918252602090912001546001600160a01b03160361518057846150dc600184616364565b815481106150ec576150ec61633c565b905f5260205f20015f9054906101000a90046001600160a01b03168582815481106151195761511961633c565b905f5260205f20015f6101000a8154816001600160a01b0302191690836001600160a01b031602179055508480548061515457615154616ac3565b5f8281526020902081015f1990810180546001600160a01b03191690550190555060019150610ce09050565b600101615093565b5f61204f836001600160a01b0384166155de565b5f61204f836001600160a01b0384166156c8565b6060815f018054806020026020016040519081016040528092919081815260200182805480156151fd57602002820191905f5260205f20905b8154815260200190600101908083116151e9575b50505050509050919050565b5f828152600260205260408120546001600160a01b039081169083161561523557615235818486615714565b6001600160a01b0381161561526f576152505f855f5f615778565b6001600160a01b0381165f90815260036020526040902080545f190190555b6001600160a01b0385161561529d576001600160a01b0385165f908152600360205260409020805460010190555b5f8481526002602052604080822080546001600160a01b0319166001600160a01b0389811691821790925591518793918516917fddf252ad1be2c89b69c2b068fc378daa952ba7f163c4a11628f55a4df523b3ef91a4949350505050565b5f61530583612327565b5f838152600760209081526040808320546001600160a01b038816845260069092529091209192509081831461535a575f83815260208281526040808320548584528184208190558352600790915290208290555b5f938452600760209081526040808620869055938552525081205550565b6008545f9061538990600190616364565b5f83815260096020526040812054600880549394509092849081106153b0576153b061633c565b905f5260205f200154905080600883815481106153cf576153cf61633c565b5f91825260208083209091019290925582815260099091526040808220849055858252812055600880548061540657615406616ac3565b600190038181905f5260205f20015f9055905550505050565b5f600161542b84612327565b6154359190616364565b6001600160a01b039093165f908152600660209081526040808320868452825280832085905593825260079052919091209190915550565b6060825f61547c8460026163d8565b6154879060026163ef565b6001600160401b0381111561549e5761549e615d10565b6040519080825280601f01601f1916602001820160405280156154c8576020820181803683370190505b509050600360fc1b815f815181106154e2576154e261633c565b60200101906001600160f81b03191690815f1a905350600f60fb1b816001815181106155105761551061633c565b60200101906001600160f81b03191690815f1a9053505f6155328560026163d8565b61553d9060016163ef565b90505b60018111156155b4576f181899199a1a9b1b9c1cb0b131b232b360811b83600f16601081106155715761557161633c565b1a60f81b8282815181106155875761558761633c565b60200101906001600160f81b03191690815f1a90535060049290921c916155ad81616a65565b9050615540565b5081156123b75760405163e22e27eb60e01b81526004810186905260248101859052604401610d0b565b5f81815260018301602052604081205480156156b8575f615600600183616364565b85549091505f9061561390600190616364565b9050808214615672575f865f0182815481106156315761563161633c565b905f5260205f200154905080875f0184815481106156515761565161633c565b5f918252602080832090910192909255918252600188019052604090208390555b855486908061568357615683616ac3565b600190038181905f5260205f20015f90559055856001015f8681526020019081526020015f205f905560019350505050610ce0565b5f915050610ce0565b5092915050565b5f81815260018301602052604081205461570d57508154600181810184555f848152602080822090930184905584548482528286019093526040902091909155610ce0565b505f610ce0565b61571f83838361587c565b610e37576001600160a01b03831661574d57604051637e27328960e01b815260048101829052602401610d0b565b60405163177e802f60e01b81526001600160a01b038316600482015260248101829052604401610d0b565b808061578c57506001600160a01b03821615155b1561584d575f61579b84613154565b90506001600160a01b038316158015906157c75750826001600160a01b0316816001600160a01b031614155b80156157da57506157d88184612e4e565b155b156158035760405163a9fbf51f60e01b81526001600160a01b0384166004820152602401610d0b565b811561584b5783856001600160a01b0316826001600160a01b03167f8c5be1e5ebec7d5bd14f71427d1e84f3dd0314c0f7b2291e5b200ac8c7c3b92560405160405180910390a45b505b50505f90815260046020526040902080546001600160a01b0319166001600160a01b0392909216919091179055565b5f6001600160a01b038316158015906123b75750826001600160a01b0316846001600160a01b031614806158b557506158b58484612e4e565b806123b75750505f908152600460205260409020546001600160a01b03908116911614919050565b6040805160e0810182525f8082526020820181905291810182905290606082019081525f602082018190526040820181905260609091015290565b6001600160e01b031981168114611271575f5ffd5b5f6020828403121561593d575f5ffd5b813561204f81615918565b5f5f83601f840112615958575f5ffd5b5081356001600160401b0381111561596e575f5ffd5b6020830191508360208260061b8501011115615988575f5ffd5b9250929050565b5f5f602083850312156159a0575f5ffd5b82356001600160401b038111156159b5575f5ffd5b6159c185828601615948565b90969095509350505050565b80356001600160a01b0381168114612cfb575f5ffd5b5f602082840312156159f3575f5ffd5b61204f826159cd565b5f81518084528060208401602086015e5f602082860101526020601f19601f83011685010191505092915050565b602081525f61204f60208301846159fc565b5f60208284031215615a4c575f5ffd5b5035919050565b5f5f60408385031215615a64575f5ffd5b615a6d836159cd565b946020939093013593505050565b634e487b7160e01b5f52602160045260245ffd5b60078110615aab57634e487b7160e01b5f52602160045260245ffd5b9052565b60018060a01b03815116825263ffffffff602082015116602083015263ffffffff60408201511660408301526060810151615aed6060840182615a8f565b5060808101511515608083015260ff60a08201511660a083015260c0810151610e3760c084018260ff169052565b60e08101610ce08284615aaf565b5f5f5f60608486031215615b3b575f5ffd5b615b44846159cd565b9250615b52602085016159cd565b929592945050506040919091013590565b5f60208284031215615b73575f5ffd5b81356007811061204f575f5ffd5b602080825282518282018190525f918401906040840190835b81811015615bc357615bad838551615aaf565b6020939093019260e09290920191600101615b9a565b509095945050505050565b63ffffffff81168114611271575f5ffd5b5f60208284031215615bef575f5ffd5b813561204f81615bce565b5f8151808452602084019350602083015f5b82811015615c335781516001600160a01b0316865260209586019590910190600101615c0c565b5093949350505050565b602081525f825160c06020840152615c5860e0840182615bfa565b9050602084015160408401526001600160401b03604085015116606084015263ffffffff606085015116608084015263ffffffff60808501511660a084015260ff60a08501511660c08401528091505092915050565b803560ff81168114612cfb575f5ffd5b5f5f60408385031215615ccf575f5ffd5b615cd8836159cd565b9150615ce660208401615cae565b90509250929050565b5f60208284031215615cff575f5ffd5b813561ffff8116811461204f575f5ffd5b634e487b7160e01b5f52604160045260245ffd5b604051601f8201601f191681016001600160401b0381118282101715615d4c57615d4c615d10565b604052919050565b5f6001600160401b03821115615d6c57615d6c615d10565b50601f01601f191660200190565b5f82601f830112615d89575f5ffd5b8135615d9c615d9782615d54565b615d24565b818152846020838601011115615db0575f5ffd5b816020850160208301375f918101602001919091529392505050565b5f5f60408385031215615ddd575f5ffd5b82356001600160401b03811115615df2575f5ffd5b615dfe85828601615d7a565b925050615ce6602084016159cd565b5f5f83601f840112615e1d575f5ffd5b5081356001600160401b03811115615e33575f5ffd5b602083019150836020828501011115615988575f5ffd5b5f5f60208385031215615e5b575f5ffd5b82356001600160401b03811115615e70575f5ffd5b6159c185828601615e0d565b5f602082016020835280845180835260408501915060408160051b8601019250602086015f5b82811015615ed357603f19878603018452615ebe8583516159fc565b94506020938401939190910190600101615ea2565b50929695505050505050565b5f5f60208385031215615ef0575f5ffd5b82356001600160401b03811115615f05575f5ffd5b8301601f81018513615f15575f5ffd5b80356001600160401b03811115615f2a575f5ffd5b8560208260051b8401011115615f3e575f5ffd5b6020919091019590945092505050565b60ff60f81b8816815260e060208201525f615f6c60e08301896159fc565b8281036040840152615f7e81896159fc565b606084018890526001600160a01b038716608085015260a0840186905283810360c0850152845180825260208087019350909101905f5b81811015615fd3578351835260209384019390920191600101615fb5565b50909b9a5050505050505050505050565b5f60408284031215615ff4575f5ffd5b604080519081016001600160401b038111828210171561601657616016615d10565b60405290508082356001600160401b03811115616031575f5ffd5b61603d85828601615d7a565b82525060208301356001600160401b03811115616058575f5ffd5b61606485828601615d7a565b6020830152505092915050565b5f5f5f5f5f5f60808789031215616086575f5ffd5b86356001600160401b0381111561609b575f5ffd5b6160a789828a01615e0d565b90975095505060208701356001600160401b038111156160c5575f5ffd5b6160d189828a01615fe4565b9450506160e0604088016159cd565b925060608701356001600160401b038111156160fa575f5ffd5b61610689828a01615e0d565b979a9699509497509295939492505050565b602081525f61204f6020830184615bfa565b8015158114611271575f5ffd5b5f5f60408385031215616148575f5ffd5b616151836159cd565b915060208301356161618161612a565b809150509250929050565b5f6020828403121561617c575f5ffd5b61204f82615cae565b5f5f5f60408486031215616197575f5ffd5b83356001600160401b038111156161ac575f5ffd5b6161b886828701615e0d565b90945092505060208401356001600160401b038111156161d6575f5ffd5b6161e286828701615fe4565b9150509250925092565b5f5f5f5f608085870312156161ff575f5ffd5b616208856159cd565b9350616216602086016159cd565b92506040850135915060608501356001600160401b03811115616237575f5ffd5b61624387828801615d7a565b91505092959194509250565b5f6080828403128015616260575f5ffd5b509092915050565b5f5f5f6060848603121561627a575f5ffd5b83356001600160401b0381111561628f575f5ffd5b61629b86828701615d7a565b9350506162aa602085016159cd565b91506162b8604085016159cd565b90509250925092565b5f5f604083850312156162d2575f5ffd5b6162db836159cd565b9150615ce6602084016159cd565b6001600160a01b038816815263ffffffff87811660208301528616604082015260e0810161631a6060830187615a8f565b931515608082015260ff92831660a0820152911660c090910152949350505050565b634e487b7160e01b5f52603260045260245ffd5b634e487b7160e01b5f52601160045260245ffd5b81810381811115610ce057610ce0616350565b604081016001600160a01b0361638c846159cd565b168252602092830135929091019190915290565b600181811c908216806163b457607f821691505b6020821081036163d257634e487b7160e01b5f52602260045260245ffd5b50919050565b8082028115828204841417610ce057610ce0616350565b80820180821115610ce057610ce0616350565b634e487b7160e01b5f52601260045260245ffd5b5f8261642457616424616402565b500490565b63ffffffff8181168382160190811115610ce057610ce0616350565b63ffffffff8281168282160390811115610ce057610ce0616350565b60208101610ce08284615a8f565b604081525f61648160408301856159fc565b905060018060a01b03831660208301529392505050565b5f602082840312156164a8575f5ffd5b81516001600160401b038111156164bd575f5ffd5b8201601f810184136164cd575f5ffd5b80516164db615d9782615d54565b8181528560208385010111156164ef575f5ffd5b8160208401602083015e5f91810160200191909152949350505050565b95865260208601949094526001600160a01b0392831660408601529116606084015260ff1660808301526001600160401b031660a082015260c00190565b6001600160401b038181168382160190811115610ce057610ce0616350565b5f60ff821660ff810361657e5761657e616350565b60010192915050565b8135815560208201356001820155604082013560028201556003810160608301356165b181615bce565b815463ffffffff191663ffffffff919091161790555050565b5f81518060208401855e5f93019283525090919050565b7f7b226e616d65223a202254656c636f696e2d4e6574776f726b20436f6e73656e8152651cdd5cd3919560d21b60208201525f61662160268301856165ca565b7f222c20226465736372697074696f6e223a2022455243373231204e465420776881527f6f7365206f776e657273686970206c656467657220726570726573656e74732060208201527f746865207065726d697373696f6e65642077686974656c69737420666f72207660408201527530b634b230ba37b9399116101134b6b0b3b2911d101160511b60608201526166bc60768201856165ca565b61227d60f01b815260020195945050505050565b7f646174613a6170706c69636174696f6e2f6a736f6e3b6261736536342c00000081525f61204f601d8301846165ca565b81546001600160a01b038116825263ffffffff60a082901c8116602084015260c082901c16604083015260e08201906167436060840160ff8360e01c16615a8f565b6167576080840160ff8360e81c1615159052565b60f081901c60ff1660a084015260f881901c60c08401526156c1565b60ff8181168382160190811115610ce057610ce0616350565b5f60ff83168061679e5761679e616402565b8060ff84160691505092915050565b60ff8281168282160390811115610ce057610ce0616350565b5f63ffffffff821663ffffffff810361657e5761657e616350565b5f5b82811015610e37575f828201556001016167e3565b81516001600160401b0381111561681157616811615d10565b600160401b81111561682557616825615d10565b81548183558082101561684957825f528160205f2001616847838303826167e1565b505b5060208301825f5260205f205f5b838110156145b65782516001600160a01b031682820155602090920191600101616857565b606081525f61688e60608301866159fc565b82810360208401526168a081866159fc565b91505060018060a01b0383166040830152949350505050565b5f602082840312156168c9575f5ffd5b815161204f8161612a565b604081525f83516040808401526168ee60808401826159fc565b90506020850151603f1984830301606085015261690b82826159fc565b915050828103602084015261332a81856159fc565b601f821115610e375782821115610e3757805f5260205f20601f840160051c602085101561694b57505f5b612b1e81601f860160051c038284016167e1565b6001600160401b0383111561697657616976615d10565b61698a8361698483546163a0565b83616920565b5f601f8411600181146169bb575f85156169a45750838201355b5f19600387901b1c1916600186901b178355612b1e565b5f83815260208120601f198716915b828110156169ea57868501358255602094850194600190920191016169ca565b5086821015616a06575f1960f88860031b161c19848701351681555b505060018560011b0183555050505050565b6001600160a01b03858116825284166020820152604081018390526080606082018190525f906136ba908301846159fc565b5f60208284031215616a5a575f5ffd5b815161204f81615918565b5f81616a7357616a73616350565b505f190190565b7f646174613a696d6167652f7376672b786d6c3b6261736536342c00000000000081525f61204f601a8301846165ca565b5f60018201616abc57616abc616350565b5060010190565b634e487b7160e01b5f52603160045260245ffdfe3c7376672077696474683d22373922206865696768743d223830222076696577426f783d22302030203739203830222066696c6c3d226e6f6e652220786d6c6e733d22687474703a2f2f7777772e77332e6f72672f323030302f737667223e203c6d61736b2069643d226d61736b305f3834395f3334313722207374796c653d226d61736b2d747970653a616c70686122206d61736b556e6974733d227573657253706163654f6e5573652220783d22302220793d2230222077696474683d22373922206865696768743d223830223e203c726563742077696474683d2237382e30303522206865696768743d223830222066696c6c3d2223433443344334222f3e203c2f6d61736b3e203c67206d61736b3d2275726c28236d61736b305f3834395f3334313729223e203c7265637420783d2231372e393534362220793d2231382e33353435222077696474683d2234322e3239343322206865696768743d2234332e32393138222066696c6c3d227768697465222f3e203c7061746820643d224d37342e323336392032312e393839324337362e363930382032342e303331352037382e323338392032382e323537372037372e363937392033312e333733334c37322e343136362036312e333235334337312e3836362036342e343437352036382e393539322036372e383739382036352e393632392036382e393631324c33372e313934372037392e333334344333342e313938342038302e343135372032392e373432312037392e363239392032372e323936342037372e3538394c332e3831312035382e3030323143312e33353730382035352e39353938202d302e31393233382035312e3734313720302e3335383134382034382e363139354c352e36333935312031382e3636373443362e31393030342031352e3534353220392e30393638372031322e313132392031322e303933322031312e303331364c34302e3835393920302e3636363435334334332e38353632202d302e3431343835372034382e3331323520302e3337303930392035302e3735383320322e343131384c37342e323336392032312e393839325a4d34392e373634352033352e343336394c35302e393336342032392e333531334c33392e393531372032392e333638374c34312e3531362032312e333432344c33372e393538332032312e333432344333372e393538332032312e333432342033342e363332382032372e323930312032372e333030362033302e323031394c32362e323839392033352e343530334c33312e303933362033352e34364333312e303933362033352e34362032392e343637342034332e303032392032382e393331362034352e373835344332372e353637372035322e383638322033302e393830362035372e383933392033362e323238312035372e383933394333382e383630362035372e383933392034312e3831372035372e383933392034352e303937322035372e383933394c34362e363532342035312e313636364334362e323734322035312e313636362034332e383031332035312e313636362033392e323333362035312e313636364333352e393336342035312e313636362033362e313039392034392e333138392033362e373433312034362e303330354c33382e373833382033352e343333334c34392e373634352033352e343336395a222066696c6c3d2223313443384646222f3e203c2f673e203c2f7376673e4142434445464748494a4b4c4d4e4f505152535455565758595a6162636465666768696a6b6c6d6e6f707172737475767778797a303132333435363738392b2fa164736f6c6343000823000a","linkReferences":{"src/consensus/BlsG1.sol":{"BlsG1":[{"start":2328,"length":20},{"start":2730,"length":20},{"start":14899,"length":20},{"start":23060,"length":20}]}}},"methodIdentifiers":{"SYSTEM_ADDRESS()":"3434735f","activate()":"0f15f4c0","allocateIssuance()":"355811a7","applyIncentives((address,uint256)[])":"0a36cdef","applySlashes((address,uint256)[])":"02ae337b","approve(address,uint256)":"095ea7b3","balanceOf(address)":"70a08231","beginExit()":"2228dfa0","burn(address)":"89afcb44","claimStakeRewards(address)":"2b9f4985","concludeEpoch(address[])":"7b55a300","delegateStake(bytes,(bytes,bytes),address,bytes)":"8bb43f3a","delegationDigest(bytes,address,address)":"e3716d04","eip712Domain()":"84b0196e","epochInfo(uint256)":"3894228e","futureEpochInfo(uint256)":"59ca93b6","getApproved(uint256)":"081812fc","getBalanceBreakdown(address)":"15b5709a","getBlsPubkey(address)":"059b916c","getCommitteeBlsPubkeys(uint32)":"6ae9942c","getCommitteeValidators(uint32)":"a0201be5","getCurrentEpoch()":"b97dd9e2","getCurrentEpochInfo()":"babc394f","getCurrentStakeConfig()":"7d06fdf8","getCurrentStakeVersion()":"67398331","getEligibleValidatorCount()":"23a40430","getEpochInfo(uint32)":"374ed18c","getNextCommitteeSize()":"eb8535c2","getRewards(address)":"79ee54f7","getValidator(address)":"1904bb2e","getValidators(uint8)":"8cc05eda","getValidatorsInfo(uint8)":"2870259d","isApprovedForAll(address,address)":"e985e9c5","isDelegated(address)":"3e28391d","isRetired(address)":"6d3c6275","isValidator(bytes)":"6a926591","issuance()":"863623bb","mint(address)":"6a627842","name()":"06fdde03","owner()":"8da5cb5b","ownerOf(uint256)":"6352211e","pause()":"8456cb59","paused()":"5c975abb","proofOfPossessionMessage(bytes,address)":"6850eb31","renounceOwnership()":"715018a6","safeTransferFrom(address,address,uint256)":"42842e0e","safeTransferFrom(address,address,uint256,bytes)":"b88d4fde","setApprovalForAll(address,bool)":"a22cb465","setNextCommitteeSize(uint16)":"62fcde4b","setValidatorRegion(address,uint8)":"f0624768","stake(bytes,(bytes,bytes))":"b5184324","stakeConfig(uint8)":"a71954ec","supportsInterface(bytes4)":"01ffc9a7","symbol()":"95d89b41","tokenByIndex(uint256)":"4f6ccce7","tokenOfOwnerByIndex(address,uint256)":"2f745c59","tokenURI(uint256)":"c87b56dd","totalSupply()":"18160ddd","transferFrom(address,address,uint256)":"23b872dd","transferOwnership(address)":"f2fde38b","undistributedIssuance()":"008d6acd","unpause()":"3f4ba83a","unstake(address)":"f2888dbb","upgradeStakeVersion((uint256,uint256,uint256,uint32))":"c05df7ac","upgradeValidatorStakeVersion(address,uint8)":"5a41fb1f","validators(address)":"fa52c7d8"},"id":161}