{"abi":[{"type":"constructor","inputs":[{"name":"genesisConfig_","type":"tuple","internalType":"struct IStakeManager.StakeConfig","components":[{"name":"stakeAmount","type":"uint256","internalType":"uint256"},{"name":"minWithdrawAmount","type":"uint256","internalType":"uint256"},{"name":"epochIssuance","type":"uint256","internalType":"uint256"},{"name":"epochDuration","type":"uint32","internalType":"uint32"}]},{"name":"initialValidators_","type":"tuple[]","internalType":"struct IConsensusRegistry.ValidatorInfo[]","components":[{"name":"validatorAddress","type":"address","internalType":"address"},{"name":"activationEpoch","type":"uint32","internalType":"uint32"},{"name":"exitEpoch","type":"uint32","internalType":"uint32"},{"name":"currentStatus","type":"uint8","internalType":"enum IConsensusRegistry.ValidatorStatus"},{"name":"isRetired","type":"bool","internalType":"bool"},{"name":"stakeVersion","type":"uint8","internalType":"uint8"},{"name":"region","type":"uint8","internalType":"uint8"}]},{"name":"blsPubkeys_","type":"bytes[]","internalType":"bytes[]"},{"name":"proofsOfPossession","type":"tuple[]","internalType":"struct BlsG1.ProofOfPossession[]","components":[{"name":"uncompressedPubkey","type":"bytes","internalType":"bytes"},{"name":"uncompressedSignature","type":"bytes","internalType":"bytes"}]},{"name":"owner_","type":"address","internalType":"address"}],"stateMutability":"nonpayable"},{"type":"function","name":"SYSTEM_ADDRESS","inputs":[],"outputs":[{"name":"","type":"address","internalType":"address"}],"stateMutability":"view"},{"type":"function","name":"activate","inputs":[],"outputs":[],"stateMutability":"nonpayable"},{"type":"function","name":"allocateIssuance","inputs":[],"outputs":[],"stateMutability":"payable"},{"type":"function","name":"applyIncentives","inputs":[{"name":"rewardInfos","type":"tuple[]","internalType":"struct RewardInfo[]","components":[{"name":"validatorAddress","type":"address","internalType":"address"},{"name":"consensusHeaderCount","type":"uint256","internalType":"uint256"}]}],"outputs":[],"stateMutability":"nonpayable"},{"type":"function","name":"applySlashes","inputs":[{"name":"slashes","type":"tuple[]","internalType":"struct Slash[]","components":[{"name":"validatorAddress","type":"address","internalType":"address"},{"name":"amount","type":"uint256","internalType":"uint256"}]}],"outputs":[],"stateMutability":"nonpayable"},{"type":"function","name":"approve","inputs":[{"name":"","type":"address","internalType":"address"},{"name":"","type":"uint256","internalType":"uint256"}],"outputs":[],"stateMutability":"nonpayable"},{"type":"function","name":"balanceOf","inputs":[{"name":"owner","type":"address","internalType":"address"}],"outputs":[{"name":"","type":"uint256","internalType":"uint256"}],"stateMutability":"view"},{"type":"function","name":"beginExit","inputs":[],"outputs":[],"stateMutability":"nonpayable"},{"type":"function","name":"burn","inputs":[{"name":"validatorAddress","type":"address","internalType":"address"}],"outputs":[],"stateMutability":"nonpayable"},{"type":"function","name":"claimStakeRewards","inputs":[{"name":"validatorAddress","type":"address","internalType":"address"}],"outputs":[],"stateMutability":"nonpayable"},{"type":"function","name":"concludeEpoch","inputs":[{"name":"futureCommittee","type":"address[]","internalType":"address[]"}],"outputs":[],"stateMutability":"nonpayable"},{"type":"function","name":"delegateStake","inputs":[{"name":"blsPubkey","type":"bytes","internalType":"bytes"},{"name":"proofOfPossession","type":"tuple","internalType":"struct BlsG1.ProofOfPossession","components":[{"name":"uncompressedPubkey","type":"bytes","internalType":"bytes"},{"name":"uncompressedSignature","type":"bytes","internalType":"bytes"}]},{"name":"validatorAddress","type":"address","internalType":"address"},{"name":"validatorEIP712Signature","type":"bytes","internalType":"bytes"}],"outputs":[],"stateMutability":"payable"},{"type":"function","name":"delegationDigest","inputs":[{"name":"blsPubkey","type":"bytes","internalType":"bytes"},{"name":"validatorAddress","type":"address","internalType":"address"},{"name":"delegator","type":"address","internalType":"address"}],"outputs":[{"name":"","type":"bytes32","internalType":"bytes32"}],"stateMutability":"view"},{"type":"function","name":"eip712Domain","inputs":[],"outputs":[{"name":"fields","type":"bytes1","internalType":"bytes1"},{"name":"name","type":"string","internalType":"string"},{"name":"version","type":"string","internalType":"string"},{"name":"chainId","type":"uint256","internalType":"uint256"},{"name":"verifyingContract","type":"address","internalType":"address"},{"name":"salt","type":"bytes32","internalType":"bytes32"},{"name":"extensions","type":"uint256[]","internalType":"uint256[]"}],"stateMutability":"view"},{"type":"function","name":"epochInfo","inputs":[{"name":"","type":"uint256","internalType":"uint256"}],"outputs":[{"name":"epochIssuance","type":"uint256","internalType":"uint256"},{"name":"blockHeight","type":"uint64","internalType":"uint64"},{"name":"epochId","type":"uint32","internalType":"uint32"},{"name":"epochDuration","type":"uint32","internalType":"uint32"},{"name":"stakeVersion","type":"uint8","internalType":"uint8"}],"stateMutability":"view"},{"type":"function","name":"futureEpochInfo","inputs":[{"name":"","type":"uint256","internalType":"uint256"}],"outputs":[{"name":"epochIssuance","type":"uint256","internalType":"uint256"},{"name":"blockHeight","type":"uint64","internalType":"uint64"},{"name":"epochId","type":"uint32","internalType":"uint32"},{"name":"epochDuration","type":"uint32","internalType":"uint32"},{"name":"stakeVersion","type":"uint8","internalType":"uint8"}],"stateMutability":"view"},{"type":"function","name":"getApproved","inputs":[{"name":"tokenId","type":"uint256","internalType":"uint256"}],"outputs":[{"name":"","type":"address","internalType":"address"}],"stateMutability":"view"},{"type":"function","name":"getBalanceBreakdown","inputs":[{"name":"validatorAddress","type":"address","internalType":"address"}],"outputs":[{"name":"","type":"uint256","internalType":"uint256"},{"name":"","type":"uint256","internalType":"uint256"},{"name":"","type":"uint256","internalType":"uint256"}],"stateMutability":"view"},{"type":"function","name":"getBlsPubkey","inputs":[{"name":"validatorAddress","type":"address","internalType":"address"}],"outputs":[{"name":"","type":"bytes","internalType":"bytes"}],"stateMutability":"view"},{"type":"function","name":"getCommitteeBlsPubkeys","inputs":[{"name":"epoch","type":"uint32","internalType":"uint32"}],"outputs":[{"name":"","type":"bytes[]","internalType":"bytes[]"}],"stateMutability":"view"},{"type":"function","name":"getCommitteeValidators","inputs":[{"name":"epoch","type":"uint32","internalType":"uint32"}],"outputs":[{"name":"","type":"tuple[]","internalType":"struct IConsensusRegistry.ValidatorInfo[]","components":[{"name":"validatorAddress","type":"address","internalType":"address"},{"name":"activationEpoch","type":"uint32","internalType":"uint32"},{"name":"exitEpoch","type":"uint32","internalType":"uint32"},{"name":"currentStatus","type":"uint8","internalType":"enum IConsensusRegistry.ValidatorStatus"},{"name":"isRetired","type":"bool","internalType":"bool"},{"name":"stakeVersion","type":"uint8","internalType":"uint8"},{"name":"region","type":"uint8","internalType":"uint8"}]}],"stateMutability":"view"},{"type":"function","name":"getCurrentEpoch","inputs":[],"outputs":[{"name":"","type":"uint32","internalType":"uint32"}],"stateMutability":"view"},{"type":"function","name":"getCurrentEpochInfo","inputs":[],"outputs":[{"name":"","type":"tuple","internalType":"struct IConsensusRegistry.EpochInfo","components":[{"name":"committee","type":"address[]","internalType":"address[]"},{"name":"epochIssuance","type":"uint256","internalType":"uint256"},{"name":"blockHeight","type":"uint64","internalType":"uint64"},{"name":"epochId","type":"uint32","internalType":"uint32"},{"name":"epochDuration","type":"uint32","internalType":"uint32"},{"name":"stakeVersion","type":"uint8","internalType":"uint8"}]}],"stateMutability":"view"},{"type":"function","name":"getCurrentStakeConfig","inputs":[],"outputs":[{"name":"","type":"tuple","internalType":"struct IStakeManager.StakeConfig","components":[{"name":"stakeAmount","type":"uint256","internalType":"uint256"},{"name":"minWithdrawAmount","type":"uint256","internalType":"uint256"},{"name":"epochIssuance","type":"uint256","internalType":"uint256"},{"name":"epochDuration","type":"uint32","internalType":"uint32"}]}],"stateMutability":"view"},{"type":"function","name":"getCurrentStakeVersion","inputs":[],"outputs":[{"name":"","type":"uint8","internalType":"uint8"}],"stateMutability":"view"},{"type":"function","name":"getEpochInfo","inputs":[{"name":"epoch","type":"uint32","internalType":"uint32"}],"outputs":[{"name":"","type":"tuple","internalType":"struct IConsensusRegistry.EpochInfo","components":[{"name":"committee","type":"address[]","internalType":"address[]"},{"name":"epochIssuance","type":"uint256","internalType":"uint256"},{"name":"blockHeight","type":"uint64","internalType":"uint64"},{"name":"epochId","type":"uint32","internalType":"uint32"},{"name":"epochDuration","type":"uint32","internalType":"uint32"},{"name":"stakeVersion","type":"uint8","internalType":"uint8"}]}],"stateMutability":"view"},{"type":"function","name":"getNextCommitteeSize","inputs":[],"outputs":[{"name":"","type":"uint16","internalType":"uint16"}],"stateMutability":"view"},{"type":"function","name":"getRewards","inputs":[{"name":"validatorAddress","type":"address","internalType":"address"}],"outputs":[{"name":"","type":"uint256","internalType":"uint256"}],"stateMutability":"view"},{"type":"function","name":"getValidator","inputs":[{"name":"validatorAddress","type":"address","internalType":"address"}],"outputs":[{"name":"","type":"tuple","internalType":"struct IConsensusRegistry.ValidatorInfo","components":[{"name":"validatorAddress","type":"address","internalType":"address"},{"name":"activationEpoch","type":"uint32","internalType":"uint32"},{"name":"exitEpoch","type":"uint32","internalType":"uint32"},{"name":"currentStatus","type":"uint8","internalType":"enum IConsensusRegistry.ValidatorStatus"},{"name":"isRetired","type":"bool","internalType":"bool"},{"name":"stakeVersion","type":"uint8","internalType":"uint8"},{"name":"region","type":"uint8","internalType":"uint8"}]}],"stateMutability":"view"},{"type":"function","name":"getValidators","inputs":[{"name":"status","type":"uint8","internalType":"enum IConsensusRegistry.ValidatorStatus"}],"outputs":[{"name":"","type":"tuple[]","internalType":"struct IConsensusRegistry.ValidatorInfo[]","components":[{"name":"validatorAddress","type":"address","internalType":"address"},{"name":"activationEpoch","type":"uint32","internalType":"uint32"},{"name":"exitEpoch","type":"uint32","internalType":"uint32"},{"name":"currentStatus","type":"uint8","internalType":"enum IConsensusRegistry.ValidatorStatus"},{"name":"isRetired","type":"bool","internalType":"bool"},{"name":"stakeVersion","type":"uint8","internalType":"uint8"},{"name":"region","type":"uint8","internalType":"uint8"}]}],"stateMutability":"view"},{"type":"function","name":"isApprovedForAll","inputs":[{"name":"owner","type":"address","internalType":"address"},{"name":"operator","type":"address","internalType":"address"}],"outputs":[{"name":"","type":"bool","internalType":"bool"}],"stateMutability":"view"},{"type":"function","name":"isDelegated","inputs":[{"name":"validatorAddress","type":"address","internalType":"address"}],"outputs":[{"name":"","type":"bool","internalType":"bool"}],"stateMutability":"view"},{"type":"function","name":"isRetired","inputs":[{"name":"validatorAddress","type":"address","internalType":"address"}],"outputs":[{"name":"","type":"bool","internalType":"bool"}],"stateMutability":"view"},{"type":"function","name":"isValidator","inputs":[{"name":"blsPubkey","type":"bytes","internalType":"bytes"}],"outputs":[{"name":"","type":"bool","internalType":"bool"}],"stateMutability":"view"},{"type":"function","name":"issuance","inputs":[],"outputs":[{"name":"","type":"address","internalType":"address payable"}],"stateMutability":"view"},{"type":"function","name":"mint","inputs":[{"name":"validatorAddress","type":"address","internalType":"address"}],"outputs":[],"stateMutability":"nonpayable"},{"type":"function","name":"name","inputs":[],"outputs":[{"name":"","type":"string","internalType":"string"}],"stateMutability":"view"},{"type":"function","name":"owner","inputs":[],"outputs":[{"name":"","type":"address","internalType":"address"}],"stateMutability":"view"},{"type":"function","name":"ownerOf","inputs":[{"name":"tokenId","type":"uint256","internalType":"uint256"}],"outputs":[{"name":"","type":"address","internalType":"address"}],"stateMutability":"view"},{"type":"function","name":"pause","inputs":[],"outputs":[],"stateMutability":"nonpayable"},{"type":"function","name":"paused","inputs":[],"outputs":[{"name":"","type":"bool","internalType":"bool"}],"stateMutability":"view"},{"type":"function","name":"proofOfPossessionMessage","inputs":[{"name":"blsPubkeyUncompressed","type":"bytes","internalType":"bytes"},{"name":"validatorAddress","type":"address","internalType":"address"}],"outputs":[{"name":"","type":"bytes","internalType":"bytes"}],"stateMutability":"view"},{"type":"function","name":"renounceOwnership","inputs":[],"outputs":[],"stateMutability":"nonpayable"},{"type":"function","name":"safeTransferFrom","inputs":[{"name":"from","type":"address","internalType":"address"},{"name":"to","type":"address","internalType":"address"},{"name":"tokenId","type":"uint256","internalType":"uint256"}],"outputs":[],"stateMutability":"nonpayable"},{"type":"function","name":"safeTransferFrom","inputs":[{"name":"from","type":"address","internalType":"address"},{"name":"to","type":"address","internalType":"address"},{"name":"tokenId","type":"uint256","internalType":"uint256"},{"name":"data","type":"bytes","internalType":"bytes"}],"outputs":[],"stateMutability":"nonpayable"},{"type":"function","name":"setApprovalForAll","inputs":[{"name":"","type":"address","internalType":"address"},{"name":"","type":"bool","internalType":"bool"}],"outputs":[],"stateMutability":"nonpayable"},{"type":"function","name":"setNextCommitteeSize","inputs":[{"name":"newSize","type":"uint16","internalType":"uint16"}],"outputs":[],"stateMutability":"nonpayable"},{"type":"function","name":"setValidatorRegion","inputs":[{"name":"validatorAddress","type":"address","internalType":"address"},{"name":"region","type":"uint8","internalType":"uint8"}],"outputs":[],"stateMutability":"nonpayable"},{"type":"function","name":"stake","inputs":[{"name":"blsPubkey","type":"bytes","internalType":"bytes"},{"name":"proofOfPossession","type":"tuple","internalType":"struct BlsG1.ProofOfPossession","components":[{"name":"uncompressedPubkey","type":"bytes","internalType":"bytes"},{"name":"uncompressedSignature","type":"bytes","internalType":"bytes"}]}],"outputs":[],"stateMutability":"payable"},{"type":"function","name":"stakeConfig","inputs":[{"name":"version","type":"uint8","internalType":"uint8"}],"outputs":[{"name":"","type":"tuple","internalType":"struct IStakeManager.StakeConfig","components":[{"name":"stakeAmount","type":"uint256","internalType":"uint256"},{"name":"minWithdrawAmount","type":"uint256","internalType":"uint256"},{"name":"epochIssuance","type":"uint256","internalType":"uint256"},{"name":"epochDuration","type":"uint32","internalType":"uint32"}]}],"stateMutability":"view"},{"type":"function","name":"supportsInterface","inputs":[{"name":"interfaceId","type":"bytes4","internalType":"bytes4"}],"outputs":[{"name":"","type":"bool","internalType":"bool"}],"stateMutability":"view"},{"type":"function","name":"symbol","inputs":[],"outputs":[{"name":"","type":"string","internalType":"string"}],"stateMutability":"view"},{"type":"function","name":"tokenByIndex","inputs":[{"name":"index","type":"uint256","internalType":"uint256"}],"outputs":[{"name":"","type":"uint256","internalType":"uint256"}],"stateMutability":"view"},{"type":"function","name":"tokenOfOwnerByIndex","inputs":[{"name":"owner","type":"address","internalType":"address"},{"name":"index","type":"uint256","internalType":"uint256"}],"outputs":[{"name":"","type":"uint256","internalType":"uint256"}],"stateMutability":"view"},{"type":"function","name":"tokenURI","inputs":[{"name":"tokenId","type":"uint256","internalType":"uint256"}],"outputs":[{"name":"","type":"string","internalType":"string"}],"stateMutability":"view"},{"type":"function","name":"totalSupply","inputs":[],"outputs":[{"name":"","type":"uint256","internalType":"uint256"}],"stateMutability":"view"},{"type":"function","name":"transferFrom","inputs":[{"name":"","type":"address","internalType":"address"},{"name":"","type":"address","internalType":"address"},{"name":"","type":"uint256","internalType":"uint256"}],"outputs":[],"stateMutability":"nonpayable"},{"type":"function","name":"transferOwnership","inputs":[{"name":"newOwner","type":"address","internalType":"address"}],"outputs":[],"stateMutability":"nonpayable"},{"type":"function","name":"undistributedIssuance","inputs":[],"outputs":[{"name":"","type":"uint256","internalType":"uint256"}],"stateMutability":"view"},{"type":"function","name":"unpause","inputs":[],"outputs":[],"stateMutability":"nonpayable"},{"type":"function","name":"unstake","inputs":[{"name":"validatorAddress","type":"address","internalType":"address"}],"outputs":[],"stateMutability":"nonpayable"},{"type":"function","name":"upgradeStakeVersion","inputs":[{"name":"newConfig","type":"tuple","internalType":"struct IStakeManager.StakeConfig","components":[{"name":"stakeAmount","type":"uint256","internalType":"uint256"},{"name":"minWithdrawAmount","type":"uint256","internalType":"uint256"},{"name":"epochIssuance","type":"uint256","internalType":"uint256"},{"name":"epochDuration","type":"uint32","internalType":"uint32"}]}],"outputs":[{"name":"","type":"uint8","internalType":"uint8"}],"stateMutability":"nonpayable"},{"type":"function","name":"upgradeValidatorStakeVersion","inputs":[{"name":"validatorAddress","type":"address","internalType":"address"},{"name":"targetVersion","type":"uint8","internalType":"uint8"}],"outputs":[],"stateMutability":"payable"},{"type":"function","name":"validators","inputs":[{"name":"","type":"address","internalType":"address"}],"outputs":[{"name":"validatorAddress","type":"address","internalType":"address"},{"name":"activationEpoch","type":"uint32","internalType":"uint32"},{"name":"exitEpoch","type":"uint32","internalType":"uint32"},{"name":"currentStatus","type":"uint8","internalType":"enum IConsensusRegistry.ValidatorStatus"},{"name":"isRetired","type":"bool","internalType":"bool"},{"name":"stakeVersion","type":"uint8","internalType":"uint8"},{"name":"region","type":"uint8","internalType":"uint8"}],"stateMutability":"view"},{"type":"event","name":"Approval","inputs":[{"name":"owner","type":"address","indexed":true,"internalType":"address"},{"name":"approved","type":"address","indexed":true,"internalType":"address"},{"name":"tokenId","type":"uint256","indexed":true,"internalType":"uint256"}],"anonymous":false},{"type":"event","name":"ApprovalForAll","inputs":[{"name":"owner","type":"address","indexed":true,"internalType":"address"},{"name":"operator","type":"address","indexed":true,"internalType":"address"},{"name":"approved","type":"bool","indexed":false,"internalType":"bool"}],"anonymous":false},{"type":"event","name":"NewEpoch","inputs":[{"name":"epoch","type":"tuple","indexed":false,"internalType":"struct IConsensusRegistry.EpochInfo","components":[{"name":"committee","type":"address[]","internalType":"address[]"},{"name":"epochIssuance","type":"uint256","internalType":"uint256"},{"name":"blockHeight","type":"uint64","internalType":"uint64"},{"name":"epochId","type":"uint32","internalType":"uint32"},{"name":"epochDuration","type":"uint32","internalType":"uint32"},{"name":"stakeVersion","type":"uint8","internalType":"uint8"}]}],"anonymous":false},{"type":"event","name":"NextCommitteeSizeUpdated","inputs":[{"name":"oldSize","type":"uint16","indexed":false,"internalType":"uint16"},{"name":"newSize","type":"uint16","indexed":false,"internalType":"uint16"},{"name":"numActiveValidators","type":"uint256","indexed":false,"internalType":"uint256"}],"anonymous":false},{"type":"event","name":"OwnershipTransferred","inputs":[{"name":"previousOwner","type":"address","indexed":true,"internalType":"address"},{"name":"newOwner","type":"address","indexed":true,"internalType":"address"}],"anonymous":false},{"type":"event","name":"Paused","inputs":[{"name":"account","type":"address","indexed":false,"internalType":"address"}],"anonymous":false},{"type":"event","name":"RewardsClaimed","inputs":[{"name":"claimant","type":"address","indexed":true,"internalType":"address"},{"name":"rewards","type":"uint256","indexed":false,"internalType":"uint256"}],"anonymous":false},{"type":"event","name":"Transfer","inputs":[{"name":"from","type":"address","indexed":true,"internalType":"address"},{"name":"to","type":"address","indexed":true,"internalType":"address"},{"name":"tokenId","type":"uint256","indexed":true,"internalType":"uint256"}],"anonymous":false},{"type":"event","name":"Unpaused","inputs":[{"name":"account","type":"address","indexed":false,"internalType":"address"}],"anonymous":false},{"type":"event","name":"ValidatorActivated","inputs":[{"name":"validator","type":"tuple","indexed":false,"internalType":"struct IConsensusRegistry.ValidatorInfo","components":[{"name":"validatorAddress","type":"address","internalType":"address"},{"name":"activationEpoch","type":"uint32","internalType":"uint32"},{"name":"exitEpoch","type":"uint32","internalType":"uint32"},{"name":"currentStatus","type":"uint8","internalType":"enum IConsensusRegistry.ValidatorStatus"},{"name":"isRetired","type":"bool","internalType":"bool"},{"name":"stakeVersion","type":"uint8","internalType":"uint8"},{"name":"region","type":"uint8","internalType":"uint8"}]}],"anonymous":false},{"type":"event","name":"ValidatorExited","inputs":[{"name":"validator","type":"tuple","indexed":false,"internalType":"struct IConsensusRegistry.ValidatorInfo","components":[{"name":"validatorAddress","type":"address","internalType":"address"},{"name":"activationEpoch","type":"uint32","internalType":"uint32"},{"name":"exitEpoch","type":"uint32","internalType":"uint32"},{"name":"currentStatus","type":"uint8","internalType":"enum IConsensusRegistry.ValidatorStatus"},{"name":"isRetired","type":"bool","internalType":"bool"},{"name":"stakeVersion","type":"uint8","internalType":"uint8"},{"name":"region","type":"uint8","internalType":"uint8"}]}],"anonymous":false},{"type":"event","name":"ValidatorPendingActivation","inputs":[{"name":"validator","type":"tuple","indexed":false,"internalType":"struct IConsensusRegistry.ValidatorInfo","components":[{"name":"validatorAddress","type":"address","internalType":"address"},{"name":"activationEpoch","type":"uint32","internalType":"uint32"},{"name":"exitEpoch","type":"uint32","internalType":"uint32"},{"name":"currentStatus","type":"uint8","internalType":"enum IConsensusRegistry.ValidatorStatus"},{"name":"isRetired","type":"bool","internalType":"bool"},{"name":"stakeVersion","type":"uint8","internalType":"uint8"},{"name":"region","type":"uint8","internalType":"uint8"}]}],"anonymous":false},{"type":"event","name":"ValidatorPendingExit","inputs":[{"name":"validator","type":"tuple","indexed":false,"internalType":"struct IConsensusRegistry.ValidatorInfo","components":[{"name":"validatorAddress","type":"address","internalType":"address"},{"name":"activationEpoch","type":"uint32","internalType":"uint32"},{"name":"exitEpoch","type":"uint32","internalType":"uint32"},{"name":"currentStatus","type":"uint8","internalType":"enum IConsensusRegistry.ValidatorStatus"},{"name":"isRetired","type":"bool","internalType":"bool"},{"name":"stakeVersion","type":"uint8","internalType":"uint8"},{"name":"region","type":"uint8","internalType":"uint8"}]}],"anonymous":false},{"type":"event","name":"ValidatorRegionUpdated","inputs":[{"name":"validatorAddress","type":"address","indexed":true,"internalType":"address"},{"name":"region","type":"uint8","indexed":false,"internalType":"uint8"}],"anonymous":false},{"type":"event","name":"ValidatorRetired","inputs":[{"name":"validator","type":"tuple","indexed":false,"internalType":"struct IConsensusRegistry.ValidatorInfo","components":[{"name":"validatorAddress","type":"address","internalType":"address"},{"name":"activationEpoch","type":"uint32","internalType":"uint32"},{"name":"exitEpoch","type":"uint32","internalType":"uint32"},{"name":"currentStatus","type":"uint8","internalType":"enum IConsensusRegistry.ValidatorStatus"},{"name":"isRetired","type":"bool","internalType":"bool"},{"name":"stakeVersion","type":"uint8","internalType":"uint8"},{"name":"region","type":"uint8","internalType":"uint8"}]}],"anonymous":false},{"type":"event","name":"ValidatorSlashed","inputs":[{"name":"slash","type":"tuple","indexed":false,"internalType":"struct Slash","components":[{"name":"validatorAddress","type":"address","internalType":"address"},{"name":"amount","type":"uint256","internalType":"uint256"}]}],"anonymous":false},{"type":"event","name":"ValidatorStakeVersionUpgraded","inputs":[{"name":"validatorAddress","type":"address","indexed":true,"internalType":"address"},{"name":"oldVersion","type":"uint8","indexed":false,"internalType":"uint8"},{"name":"newVersion","type":"uint8","indexed":false,"internalType":"uint8"},{"name":"oldStakeAmount","type":"uint256","indexed":false,"internalType":"uint256"},{"name":"newStakeAmount","type":"uint256","indexed":false,"internalType":"uint256"}],"anonymous":false},{"type":"event","name":"ValidatorStaked","inputs":[{"name":"validator","type":"tuple","indexed":false,"internalType":"struct IConsensusRegistry.ValidatorInfo","components":[{"name":"validatorAddress","type":"address","internalType":"address"},{"name":"activationEpoch","type":"uint32","internalType":"uint32"},{"name":"exitEpoch","type":"uint32","internalType":"uint32"},{"name":"currentStatus","type":"uint8","internalType":"enum IConsensusRegistry.ValidatorStatus"},{"name":"isRetired","type":"bool","internalType":"bool"},{"name":"stakeVersion","type":"uint8","internalType":"uint8"},{"name":"region","type":"uint8","internalType":"uint8"}]}],"anonymous":false},{"type":"error","name":"AlreadyDefined","inputs":[{"name":"validatorAddress","type":"address","internalType":"address"}]},{"type":"error","name":"BlsPubkeyNotFound","inputs":[{"name":"validatorAddress","type":"address","internalType":"address"}]},{"type":"error","name":"CommitteeRequirement","inputs":[{"name":"validatorAddress","type":"address","internalType":"address"}]},{"type":"error","name":"DuplicateBLSPubkey","inputs":[]},{"type":"error","name":"ERC721EnumerableForbiddenBatchMint","inputs":[]},{"type":"error","name":"ERC721IncorrectOwner","inputs":[{"name":"sender","type":"address","internalType":"address"},{"name":"tokenId","type":"uint256","internalType":"uint256"},{"name":"owner","type":"address","internalType":"address"}]},{"type":"error","name":"ERC721InsufficientApproval","inputs":[{"name":"operator","type":"address","internalType":"address"},{"name":"tokenId","type":"uint256","internalType":"uint256"}]},{"type":"error","name":"ERC721InvalidApprover","inputs":[{"name":"approver","type":"address","internalType":"address"}]},{"type":"error","name":"ERC721InvalidOperator","inputs":[{"name":"operator","type":"address","internalType":"address"}]},{"type":"error","name":"ERC721InvalidOwner","inputs":[{"name":"owner","type":"address","internalType":"address"}]},{"type":"error","name":"ERC721InvalidReceiver","inputs":[{"name":"receiver","type":"address","internalType":"address"}]},{"type":"error","name":"ERC721InvalidSender","inputs":[{"name":"sender","type":"address","internalType":"address"}]},{"type":"error","name":"ERC721NonexistentToken","inputs":[{"name":"tokenId","type":"uint256","internalType":"uint256"}]},{"type":"error","name":"ERC721OutOfBoundsIndex","inputs":[{"name":"owner","type":"address","internalType":"address"},{"name":"index","type":"uint256","internalType":"uint256"}]},{"type":"error","name":"EnforcedPause","inputs":[]},{"type":"error","name":"ExpectedPause","inputs":[]},{"type":"error","name":"GenesisArityMismatch","inputs":[]},{"type":"error","name":"IneligibleUnstake","inputs":[{"name":"validator","type":"tuple","internalType":"struct IConsensusRegistry.ValidatorInfo","components":[{"name":"validatorAddress","type":"address","internalType":"address"},{"name":"activationEpoch","type":"uint32","internalType":"uint32"},{"name":"exitEpoch","type":"uint32","internalType":"uint32"},{"name":"currentStatus","type":"uint8","internalType":"enum IConsensusRegistry.ValidatorStatus"},{"name":"isRetired","type":"bool","internalType":"bool"},{"name":"stakeVersion","type":"uint8","internalType":"uint8"},{"name":"region","type":"uint8","internalType":"uint8"}]}]},{"type":"error","name":"InsufficientRewards","inputs":[{"name":"withdrawAmount","type":"uint256","internalType":"uint256"}]},{"type":"error","name":"InvalidBLSPubkey","inputs":[]},{"type":"error","name":"InvalidCommitteeSize","inputs":[{"name":"minCommitteeSize","type":"uint256","internalType":"uint256"},{"name":"providedCommitteeSize","type":"uint256","internalType":"uint256"}]},{"type":"error","name":"InvalidDuration","inputs":[{"name":"duration","type":"uint32","internalType":"uint32"}]},{"type":"error","name":"InvalidEpoch","inputs":[{"name":"epoch","type":"uint32","internalType":"uint32"}]},{"type":"error","name":"InvalidProofOfPossession","inputs":[{"name":"proof","type":"tuple","internalType":"struct BlsG1.ProofOfPossession","components":[{"name":"uncompressedPubkey","type":"bytes","internalType":"bytes"},{"name":"uncompressedSignature","type":"bytes","internalType":"bytes"}]},{"name":"message","type":"bytes","internalType":"bytes"}]},{"type":"error","name":"InvalidStakeAmount","inputs":[{"name":"stakeAmount","type":"uint256","internalType":"uint256"}]},{"type":"error","name":"InvalidStakeVersion","inputs":[{"name":"currentVersion","type":"uint8","internalType":"uint8"},{"name":"targetVersion","type":"uint8","internalType":"uint8"}]},{"type":"error","name":"InvalidStatus","inputs":[{"name":"status","type":"uint8","internalType":"enum IConsensusRegistry.ValidatorStatus"}]},{"type":"error","name":"InvalidSupply","inputs":[]},{"type":"error","name":"InvalidTokenId","inputs":[{"name":"tokenId","type":"uint256","internalType":"uint256"}]},{"type":"error","name":"InvalidValidatorAddress","inputs":[]},{"type":"error","name":"IssuanceTransferFailed","inputs":[]},{"type":"error","name":"NotRecipient","inputs":[{"name":"recipient","type":"address","internalType":"address"}]},{"type":"error","name":"NotTransferable","inputs":[]},{"type":"error","name":"NotValidator","inputs":[{"name":"validatorAddress","type":"address","internalType":"address"}]},{"type":"error","name":"OnlySystemCall","inputs":[{"name":"invalidCaller","type":"address","internalType":"address"}]},{"type":"error","name":"OwnableInvalidOwner","inputs":[{"name":"owner","type":"address","internalType":"address"}]},{"type":"error","name":"OwnableUnauthorizedAccount","inputs":[{"name":"account","type":"address","internalType":"address"}]},{"type":"error","name":"Reentrancy","inputs":[]},{"type":"error","name":"RequiresConsensusNFT","inputs":[]},{"type":"error","name":"StringsInsufficientHexLength","inputs":[{"name":"value","type":"uint256","internalType":"uint256"},{"name":"length","type":"uint256","internalType":"uint256"}]}],"bytecode":{"object":"0x610120604052348015610010575f80fd5b50604051618a3e380380618a3e83398101604081905261002f91611616565b806040518060400160405280600c81526020016b10dbdb9cd95b9cdd5cd3919560a21b8152506040518060400160405280600481526020016310d3919560e21b8152508181815f90816100829190611782565b50600161008f8282611782565b505030608052504660a0526060806100ef604080518082018252601481527f54656c636f696e205374616b654d616e61676572000000000000000000000000602080830191909152825180840190935260018352603160f81b9083015291565b815160209283012081519183019190912060c082905260e0819052604080517f8b73c3c69bb8fe3d512ecc4cf759cc79239f7b179b0ffacaa9a75d522b39400f8152938401929092529082015246606082015230608082015260a09020610100525050600d805461ff001916905550506001600160a01b03811661018d57604051631e4fbdf760e01b81525f60048201526024015b60405180910390fd5b610196816107fb565b50835115806101a757508251845114155b806101b457508151845114155b156101d257604051633aa3e03360e01b815260040160405180910390fd5b5f808052600a602090815286517f13da86008ba1c6922daee3e07db95305ef49ebced9f5467a0b8613fcc6b343e3558601517f13da86008ba1c6922daee3e07db95305ef49ebced9f5467a0b8613fcc6b343e45560408601517f13da86008ba1c6922daee3e07db95305ef49ebced9f5467a0b8613fcc6b343e55560608601517f13da86008ba1c6922daee3e07db95305ef49ebced9f5467a0b8613fcc6b343e6805463ffffffff191663ffffffff9092169190911790558451600d805461ffff60d81b1916600160d81b61ffff909316929092029190911790555b600281116103b8575f601182600481106102ca576102ca61183c565b6003020160028101805460608a0151600160401b600160801b03199091166801000000000000000063ffffffff8781169190910263ffffffff60601b1916919091176c0100000000000000000000000091909216021790556040880151600182015590505f601d83600481106103425761034261183c565b6003020160028101805460608b0151600160401b600160801b03199091166801000000000000000063ffffffff8881169190910263ffffffff60601b1916919091176c0100000000000000000000000091909216021790556040890151600190910155506103b1905081611864565b90506102ae565b505f5b84518110156107f0575f8582815181106103d7576103d761183c565b602002602001015190505f6104288584815181106103f7576103f761183c565b6020026020010151835f01518886815181106104155761041561183c565b602002602001015161085660201b60201c565b82519091506001600160a01b03166104535760405163713ce51160e01b815260040160405180910390fd5b602082015163ffffffff161561048a576020820151604051634fadd4d360e11b815263ffffffff9091166004820152602401610184565b604082015163ffffffff16156104c1576040808301519051634fadd4d360e11b815263ffffffff9091166004820152602401610184565b6003826060015160068111156104d9576104d961187c565b146104fd578160600151604051633ba7bf8960e11b815260040161018491906118b0565b608082015115610523576005604051633ba7bf8960e11b815260040161018491906118b0565b60a082015160ff16156105545760a082015160405163222d164360e21b815260ff9091166004820152602401610184565b5f5b6002811161060a57601181600481106105715761057161183c565b84516003919091029190910180546001810182555f91825260209091200180546001600160a01b0319166001600160a01b03909216919091179055601d81600481106105bf576105bf61183c565b84516003919091029190910180546001810182555f91825260209091200180546001600160a01b0319166001600160a01b0390921691909117905561060381611864565b9050610556565b5085838151811061061d5761061d61183c565b60209081029190910181015183516001600160a01b03165f908152602990925260409091209061064d9082611782565b5081516001600160a01b039081165f908152600f602090815260409182902085518154928701519387015163ffffffff908116600160c01b0263ffffffff60c01b1991909516600160a01b026001600160c01b0319909416919095161791909117928316821781556060850151859391929091839160ff60e01b191664ffffffffff60c01b1990911617600160e01b8360068111156106ee576106ee61187c565b02179055506080820151815460a084015160c09094015161ffff60e81b19909116600160e81b9215159290920260ff60f01b191691909117600160f01b60ff94851602176001600160f81b0316600160f81b9390911692909202919091179055875182516001600160a01b039081165f908152600b60209081526040808320949094558551858352601090915292902080546001600160a01b0319169290911691909117905581516107af906107aa816001600160a01b031690565b610a50565b7fabab4191fe954f07230f7e34fd48dc0fdcbed492526cd060001cccceab22851b826040516107de91906118be565b60405180910390a150506001016103bb565b505050505050611af9565b600d80546001600160a01b038381166201000081810262010000600160b01b031985161790945560405193909204169182907f8be0079c531659141344cd1fd0a4f28419497f9722a3daafe3b4186f6b6457e0905f90a35050565b5f8151606014610879576040516333a234f960e11b815260040160405180910390fd5b83515f906108879085610ab6565b855160405163a691a08b60e01b81529192505f9173__$2ef4e8110a3eaa1255da7f08f8eebcbf5a$__9163a691a08b916108c49190600401611966565b5f60405180830381865af41580156108de573d5f803e3d5ffd5b505050506040513d5f823e601f3d908101601f19168201604052610905919081019061197f565b90505f73__$2ef4e8110a3eaa1255da7f08f8eebcbf5a$__633d2a9e1188602001516040518263ffffffff1660e01b81526004016109439190611966565b5f60405180830381865af415801561095d573d5f803e3d5ffd5b505050506040513d5f823e601f3d908101601f19168201604052610984919081019061197f565b905073__$2ef4e8110a3eaa1255da7f08f8eebcbf5a$__635779b9a38383866040518060600160405280602b8152602001618a13602b91396040518563ffffffff1660e01b81526004016109db94939291906119b0565b602060405180830381865af41580156109f6573d5f803e3d5ffd5b505050506040513d601f19601f82011682018060405250810190610a1a91906119fc565b610a3b578683604051634babb8f160e01b8152600401610184929190611a15565b610a458587610c04565b979650505050505050565b6001600160a01b038216610a7957604051633250574960e11b81525f6004820152602401610184565b5f610a85838383610c73565b90506001600160a01b03811615610ab1576040516339e3563760e11b81525f6004820152602401610184565b505050565b60605f73__$2ef4e8110a3eaa1255da7f08f8eebcbf5a$__63a691a08b856040518263ffffffff1660e01b8152600401610af09190611966565b5f60405180830381865af4158015610b0a573d5f803e3d5ffd5b505050506040513d5f823e601f3d908101601f19168201604052610b31919081019061197f565b6040516329bd7cc960e21b815290915073__$2ef4e8110a3eaa1255da7f08f8eebcbf5a$__9063a6f5f32490610b6b908490600401611966565b602060405180830381865af4158015610b86573d5f803e3d5ffd5b505050506040513d601f19601f82011682018060405250810190610baa91906119fc565b610bc7576040516333a234f960e11b815260040160405180910390fd5b604051610beb9061d50160d81b908690600560fa1b90606088901b90602001611a6a565b6040516020818303038152906040529150505b92915050565b81516020808401919091205f81815260109092526040909120546001600160a01b031615610c4557604051638d12779f60e01b815260040160405180910390fd5b5f81815260106020526040902080546001600160a01b0384166001600160a01b031990911617905592915050565b5f80610c80858585610d46565b90506001600160a01b038116610cdc57610cd784600880545f838152600960205260408120829055600182018355919091527ff3f7a9fe364faab93b216da50a3214154f22a0a2b415b23a84c8169e8b636ee30155565b610cff565b846001600160a01b0316816001600160a01b031614610cff57610cff8185610e38565b6001600160a01b038516610d1b57610d1684610eb5565b610d3e565b846001600160a01b0316816001600160a01b031614610d3e57610d3e8585610f5c565b949350505050565b5f828152600260205260408120546001600160a01b0390811690831615610d7257610d72818486610faa565b6001600160a01b03811615610dac57610d8d5f85818061100e565b6001600160a01b0381165f90815260036020526040902080545f190190555b6001600160a01b03851615610dda576001600160a01b0385165f908152600360205260409020805460010190555b5f8481526002602052604080822080546001600160a01b0319166001600160a01b0389811691821790925591518793918516917fddf252ad1be2c89b69c2b068fc378daa952ba7f163c4a11628f55a4df523b3ef91a4949350505050565b5f610e4283611130565b5f838152600760209081526040808320546001600160a01b0388168452600690925290912091925090818314610e97575f83815260208281526040808320548584528184208190558352600790915290208290555b5f938452600760209081526040808620869055938552525081205550565b6008545f90610ec690600190611ad2565b5f8381526009602052604081205460088054939450909284908110610eed57610eed61183c565b905f5260205f20015490508060088381548110610f0c57610f0c61183c565b5f918252602080832090910192909255828152600990915260408082208490558582528120556008805480610f4357610f43611ae5565b600190038181905f5260205f20015f9055905550505050565b5f6001610f6884611130565b610f729190611ad2565b6001600160a01b039093165f908152600660209081526040808320868452825280832085905593825260079052919091209190915550565b610fb5838383611175565b610ab1576001600160a01b038316610fe357604051637e27328960e01b815260048101829052602401610184565b60405163177e802f60e01b81526001600160a01b038316600482015260248101829052604401610184565b808061102257506001600160a01b03821615155b15611101575f611031846111f5565b90506001600160a01b0383161580159061105d5750826001600160a01b0316816001600160a01b031614155b801561108e57506001600160a01b038082165f9081526005602090815260408083209387168352929052205460ff16155b156110b75760405163a9fbf51f60e01b81526001600160a01b0384166004820152602401610184565b81156110ff5783856001600160a01b0316826001600160a01b03167f8c5be1e5ebec7d5bd14f71427d1e84f3dd0314c0f7b2291e5b200ac8c7c3b92560405160405180910390a45b505b50505f90815260046020526040902080546001600160a01b0319166001600160a01b0392909216919091179055565b5f6001600160a01b03821661115a576040516322718ad960e21b81525f6004820152602401610184565b506001600160a01b03165f9081526003602052604090205490565b5f6001600160a01b03831615801590610d3e5750826001600160a01b0316846001600160a01b031614806111cd57506001600160a01b038085165f9081526005602090815260408083209387168352929052205460ff165b80610d3e5750505f908152600460205260409020546001600160a01b03908116911614919050565b5f818152600260205260408120546001600160a01b031680610bfe57604051637e27328960e01b815260048101849052602401610184565b634e487b7160e01b5f52604160045260245ffd5b60405160e081016001600160401b03811182821017156112635761126361122d565b60405290565b604080519081016001600160401b03811182821017156112635761126361122d565b604051608081016001600160401b03811182821017156112635761126361122d565b604051601f8201601f191681016001600160401b03811182821017156112d5576112d561122d565b604052919050565b805163ffffffff811681146112f0575f80fd5b919050565b5f6001600160401b0382111561130d5761130d61122d565b5060051b60200190565b80516001600160a01b03811681146112f0575f80fd5b805180151581146112f0575f80fd5b805160ff811681146112f0575f80fd5b5f82601f83011261135b575f80fd5b815161136e611369826112f5565b6112ad565b80828252602082019150602060e0840286010192508583111561138f575f80fd5b602085015b838110156114395760e081880312156113ab575f80fd5b6113b3611241565b6113bc82611317565b81526113ca602083016112dd565b60208201526113db604083016112dd565b60408201526060820151600781106113f1575f80fd5b60608201526114026080830161132d565b608082015261141360a0830161133c565b60a082015261142460c0830161133c565b60c0820152835260209092019160e001611394565b5095945050505050565b5f82601f830112611452575f80fd5b81516001600160401b0381111561146b5761146b61122d565b61147e601f8201601f19166020016112ad565b818152846020838601011115611492575f80fd5b8160208501602083015e5f918101602001919091529392505050565b5f82601f8301126114bd575f80fd5b81516114cb611369826112f5565b8082825260208201915060208360051b8601019250858311156114ec575f80fd5b602085015b838110156114395780516001600160401b0381111561150e575f80fd5b61151d886020838a0101611443565b845250602092830192016114f1565b5f82601f83011261153b575f80fd5b8151611549611369826112f5565b8082825260208201915060208360051b86010192508583111561156a575f80fd5b602085015b838110156114395780516001600160401b0381111561158c575f80fd5b86016040818903601f190112156115a1575f80fd5b6115a9611269565b60208201516001600160401b038111156115c1575f80fd5b6115d08a602083860101611443565b82525060408201516001600160401b038111156115eb575f80fd5b6115fa8a602083860101611443565b602083015250808552505060208301925060208101905061156f565b5f805f805f85870361010081121561162c575f80fd5b6080811215611639575f80fd5b5061164261128b565b865181526020808801519082015260408088015190820152611666606088016112dd565b606082015260808701519095506001600160401b03811115611686575f80fd5b6116928882890161134c565b60a088015190955090506001600160401b038111156116af575f80fd5b6116bb888289016114ae565b60c088015190945090506001600160401b038111156116d8575f80fd5b6116e48882890161152c565b9250506116f360e08701611317565b90509295509295909350565b600181811c9082168061171357607f821691505b60208210810361173157634e487b7160e01b5f52602260045260245ffd5b50919050565b601f821115610ab157805f5260205f20601f840160051c8101602085101561175c5750805b601f840160051c820191505b8181101561177b575f8155600101611768565b5050505050565b81516001600160401b0381111561179b5761179b61122d565b6117af816117a984546116ff565b84611737565b6020601f8211600181146117e1575f83156117ca5750848201515b5f19600385901b1c1916600184901b17845561177b565b5f84815260208120601f198516915b8281101561181057878501518255602094850194600190920191016117f0565b508482101561182d57868401515f19600387901b60f8161c191681555b50505050600190811b01905550565b634e487b7160e01b5f52603260045260245ffd5b634e487b7160e01b5f52601160045260245ffd5b5f6001820161187557611875611850565b5060010190565b634e487b7160e01b5f52602160045260245ffd5b600781106118ac57634e487b7160e01b5f52602160045260245ffd5b9052565b60208101610bfe8284611890565b5f60e08201905060018060a01b03835116825263ffffffff602084015116602083015263ffffffff604084015116604083015260608301516119036060840182611890565b5060808301511515608083015260ff60a08401511660a083015260c083015161193160c084018260ff169052565b5092915050565b5f81518084528060208401602086015e5f602082860101526020601f19601f83011685010191505092915050565b602081525f6119786020830184611938565b9392505050565b5f6020828403121561198f575f80fd5b81516001600160401b038111156119a4575f80fd5b610d3e84828501611443565b608081525f6119c26080830187611938565b82810360208401526119d48187611938565b905082810360408401526119e88186611938565b90508281036060840152610a458185611938565b5f60208284031215611a0c575f80fd5b6119788261132d565b604081525f8351604080840152611a2f6080840182611938565b90506020850151603f19848303016060850152611a4c8282611938565b9150508281036020840152611a618185611938565b95945050505050565b6001600160d81b03198516815283515f908060208701600585015e7fff00000000000000000000000000000000000000000000000000000000000000949094169190930160058101919091526001600160601b0319919091166006820152601a019392505050565b81810381811115610bfe57610bfe611850565b634e487b7160e01b5f52603160045260245ffd5b60805160a05160c05160e05161010051616edd611b365f395f6142d301525f61438d01525f61436701525f61431701525f6142f40152616edd5ff3fe6080604052600436106103b2575f3560e01c80636a926591116101e9578063a0201be511610108578063c87b56dd1161009d578063f06247681161006d578063f062476814610b7e578063f2888dbb14610b9d578063f2fde38b14610bbc578063fa52c7d814610bdb575f80fd5b8063c87b56dd14610af4578063e3716d0414610b13578063e985e9c514610b32578063eb8535c214610b51575f80fd5b8063b88d4fde116100d8578063b88d4fde14610a71578063b97dd9e214610a90578063babc394f14610ac1578063c05df7ac14610ad5575f80fd5b8063a0201be514610a06578063a22cb46514610a25578063a71954ec14610a3f578063b518432414610a5e575f80fd5b80638456cb591161017e5780638bb43f3a1161014e5780638bb43f3a146109905780638cc05eda146109a35780638da5cb5b146109cf57806395d89b41146109f2575f80fd5b80638456cb591461090f57806384b0196e14610923578063863623bb1461094a57806389afcb4414610971575f80fd5b8063715018a6116101b9578063715018a61461087057806379ee54f7146108845780637b55a300146108a35780637d06fdf8146108c2575f80fd5b80636a926591146107e75780636ae9942c146108065780636d3c62751461083257806370a0823114610851575f80fd5b80633434735f116102d557806359ca93b61161026a5780636352211e1161023a5780636352211e1461076457806367398331146107835780636850eb31146107a95780636a627842146107c8575f80fd5b806359ca93b6146106f75780635a41fb1f146107165780635c975abb1461072957806362fcde4b14610745575f80fd5b80633e28391d116102a55780633e28391d146106865780633f4ba83a146106a557806342842e0e146106b95780634f6ccce7146106d8575f80fd5b80633434735f146105dd578063355811a7146105f7578063374ed18c146105ff5780633894228e1461062b575f80fd5b80630f15f4c01161034b5780632228dfa01161031b5780632228dfa01461057157806323b872dd146105855780632b9f49851461059f5780632f745c59146105be575f80fd5b80630f15f4c0146104e357806315b5709a146104f757806318160ddd146105315780631904bb2e14610545575f80fd5b806306fdde031161038657806306fdde031461045a578063081812fc1461046e578063095ea7b3146104a55780630a36cdef146104c4575f80fd5b80628d6acd146103b657806301ffc9a7146103de57806302ae337b1461040d578063059b916c1461042e575b5f80fd5b3480156103c1575f80fd5b506103cb600e5481565b6040519081526020015b60405180910390f35b3480156103e9575f80fd5b506103fd6103f8366004615833565b610c66565b60405190151581526020016103d5565b348015610418575f80fd5b5061042c610427366004615895565b610c90565b005b348015610439575f80fd5b5061044d6104483660046158e9565b610de6565b6040516103d59190615930565b348015610465575f80fd5b5061044d610eb7565b348015610479575f80fd5b5061048d610488366004615942565b610f46565b6040516001600160a01b0390911681526020016103d5565b3480156104b0575f80fd5b5061042c6104bf366004615959565b610f6d565b3480156104cf575f80fd5b5061042c6104de366004615895565b610f86565b3480156104ee575f80fd5b5061042c6111d5565b348015610502575f80fd5b506105166105113660046158e9565b61121e565b604080519384526020840192909252908201526060016103d5565b34801561053c575f80fd5b506008546103cb565b348015610550575f80fd5b5061056461055f3660046158e9565b611284565b6040516103d59190615a21565b34801561057c575f80fd5b5061042c611367565b348015610590575f80fd5b5061042c6104bf366004615a2f565b3480156105aa575f80fd5b5061042c6105b93660046158e9565b611429565b3480156105c9575f80fd5b506103cb6105d8366004615959565b611541565b3480156105e8575f80fd5b5061048d6002600160a01b0381565b61042c6115a4565b34801561060a575f80fd5b5061061e610619366004615a7a565b611626565b6040516103d59190615a95565b348015610636575f80fd5b5061064a610645366004615942565b6117c5565b604080519586526001600160401b03909416602086015263ffffffff9283169385019390935216606083015260ff16608082015260a0016103d5565b348015610691575f80fd5b506103fd6106a03660046158e9565b611819565b3480156106b0575f80fd5b5061042c61183f565b3480156106c4575f80fd5b5061042c6106d3366004615a2f565b611851565b3480156106e3575f80fd5b506103cb6106f2366004615942565b61186b565b348015610702575f80fd5b5061064a610711366004615942565b6118c0565b61042c610724366004615b5c565b6118cf565b348015610734575f80fd5b50600d54610100900460ff166103fd565b348015610750575f80fd5b5061042c61075f366004615b8d565b611d74565b34801561076f575f80fd5b5061048d61077e366004615942565b611e80565b34801561078e575f80fd5b50610797611e8a565b60405160ff90911681526020016103d5565b3480156107b4575f80fd5b5061044d6107c3366004615c6a565b611e9c565b3480156107d3575f80fd5b5061042c6107e23660046158e9565b611fe9565b3480156107f2575f80fd5b506103fd610801366004615ce8565b612047565b348015610811575f80fd5b50610825610820366004615a7a565b6120bf565b6040516103d59190615d1a565b34801561083d575f80fd5b506103fd61084c3660046158e9565b61221b565b34801561085c575f80fd5b506103cb61086b3660046158e9565b61229f565b34801561087b575f80fd5b5061042c6122e4565b34801561088f575f80fd5b506103cb61089e3660046158e9565b6122f5565b3480156108ae575f80fd5b5061042c6108bd366004615d7d565b612337565b3480156108cd575f80fd5b506108d66124ad565b6040516103d5919081518152602080830151908201526040808301519082015260609182015163ffffffff169181019190915260800190565b34801561091a575f80fd5b5061042c61252a565b34801561092e575f80fd5b5061093761253a565b6040516103d59796959493929190615dec565b348015610955575f80fd5b5061048d7307a07a07a07a07a07a07a07a07a07a07a07a07a081565b34801561097c575f80fd5b5061042c61098b3660046158e9565b6125a1565b61042c61099e366004615f0f565b612651565b3480156109ae575f80fd5b506109c26109bd366004615fb6565b6128c3565b6040516103d59190615fd4565b3480156109da575f80fd5b50600d546201000090046001600160a01b031661048d565b3480156109fd575f80fd5b5061044d612901565b348015610a11575f80fd5b506109c2610a20366004615a7a565b612910565b348015610a30575f80fd5b5061042c6104bf36600461602e565b348015610a4a575f80fd5b506108d6610a59366004616063565b6129c9565b61042c610a6c36600461607c565b612a43565b348015610a7c575f80fd5b5061042c610a8b3660046160e3565b612ad0565b348015610a9b575f80fd5b50600d54600160b01b900463ffffffff1660405163ffffffff90911681526020016103d5565b348015610acc575f80fd5b5061061e612ae8565b348015610ae0575f80fd5b50610797610aef366004616146565b612bf5565b348015610aff575f80fd5b5061044d610b0e366004615942565b612cab565b348015610b1e575f80fd5b506103cb610b2d36600461615f565b612d1b565b348015610b3d575f80fd5b506103fd610b4c3660046161b8565b612dd5565b348015610b5c575f80fd5b50600d54600160d81b900461ffff1660405161ffff90911681526020016103d5565b348015610b89575f80fd5b5061042c610b98366004615b5c565b612e02565b348015610ba8575f80fd5b5061042c610bb73660046158e9565b612e81565b348015610bc7575f80fd5b5061042c610bd63660046158e9565b612fa4565b348015610be6575f80fd5b50610c53610bf53660046158e9565b600f6020525f90815260409020546001600160a01b0381169063ffffffff600160a01b8204811691600160c01b81049091169060ff600160e01b8204811691600160e81b8104821691600160f01b8204811691600160f81b90041687565b6040516103d597969594939291906161e0565b5f6001600160e01b0319821663780e9d6360e01b1480610c8a5750610c8a82612fde565b92915050565b336002600160a01b0314610cbe57604051637eb3357160e01b81523360048201526024015b60405180910390fd5b5f5b81811015610de15736838383818110610cdb57610cdb616233565b604002919091019150610cf6905061084c60208301836158e9565b15610d015750610dd9565b60208101803590600b905f90610d1790856158e9565b6001600160a01b03166001600160a01b031681526020019081526020015f20541115610d8b5760208101803590600b905f90610d5390856158e9565b6001600160a01b03166001600160a01b031681526020019081526020015f205f828254610d80919061625b565b90915550610da09050565b610da0610d9b60208301836158e9565b61302d565b7f11a09f9b32440d896abff7453bf53f8b26ffcb18dae4dca227f7a76e2acc3a6481604051610dcf919061626e565b60405180910390a1505b600101610cc0565b505050565b6001600160a01b0381165f90815260296020526040812080546060929190610e0d90616297565b80601f0160208091040260200160405190810160405280929190818152602001828054610e3990616297565b8015610e845780601f10610e5b57610100808354040283529160200191610e84565b820191905f5260205f20905b815481529060010190602001808311610e6757829003601f168201915b5050505050905080515f03610c8a57604051635f7ba20d60e11b81526001600160a01b0384166004820152602401610cb5565b60605f8054610ec590616297565b80601f0160208091040260200160405190810160405280929190818152602001828054610ef190616297565b8015610f3c5780601f10610f1357610100808354040283529160200191610f3c565b820191905f5260205f20905b815481529060010190602001808311610f1f57829003601f168201915b5050505050905090565b5f610f5082613178565b505f828152600460205260409020546001600160a01b0316610c8a565b60405163dc8d8db760e01b815260040160405180910390fd5b336002600160a01b0314610faf57604051637eb3357160e01b8152336004820152602401610cb5565b5f80826001600160401b03811115610fc957610fc9615bae565b604051908082528060200260200182016040528015610ff2578160200160208202803683370190505b5090505f5b838110156110d6573685858381811061101257611012616233565b905060400201905080602001355f0361102b57506110ce565b61103b61084c60208301836158e9565b1561104657506110ce565b5f600f8161105760208501856158e9565b6001600160a01b0316815260208082019290925260409081015f90812054600160f01b900460ff16808252600a845291812054919350909161109c90850135836162cf565b90506110a881886162e6565b9650808686815181106110bd576110bd616233565b602002602001018181525050505050505b600101610ff7565b50815f036110e45750505050565b5f6110ed612ae8565b6020015190505f600e548261110291906162e6565b90505f805b868110156111bd575f8686838151811061112357611123616233565b60200260200101518561113691906162cf565b611140919061630d565b905080156111b45780600b5f8b8b8681811061115e5761115e616233565b61117492602060409092020190810191506158e9565b6001600160a01b03166001600160a01b031681526020019081526020015f205f8282546111a191906162e6565b909155506111b1905081846162e6565b92505b50600101611107565b506111c8818361625b565b600e5550505050505b5050565b6111dd6131b0565b6111e6336131d9565b506111f2336001613247565b335f908152600f60205260409020600d5461121b908290600160b01b900463ffffffff166132ad565b50565b6001600160a01b0381165f908152600f6020908152604080832054600160f01b900460ff16808452600a909252822054829182918261125d8783613326565b6001600160a01b03979097165f908152600b60205260409020549791969550909350505050565b61128c61576c565b6001600160a01b0382165f908152600f602052604090208054600160e81b900460ff166112be576112bc836131d9565b505b6040805160e08101825282546001600160a01b038116825263ffffffff600160a01b820481166020840152600160c01b82041692820192909252908290606083019060ff600160e01b90910416600681111561131c5761131c615981565b600681111561132d5761132d615981565b8152905460ff600160e81b8204811615156020840152600160f01b820481166040840152600160f81b909104166060909101529392505050565b61136f6131b0565b611378336131d9565b505f611384600361335f565b51600d549091505f90601190600160d01b900460ff16600481106113aa576113aa616233565b600302015490506113bb828261356f565b6113c6336003613247565b335f908152600f60205260409020600d54815463ffffffff600160b01b909204821691600160a01b9091041681101561141a57604051634fadd4d360e11b815263ffffffff82166004820152602401610cb5565b611423826135ac565b50505050565b6114316131b0565b3068929eee149b4bd21268540361144f5763ab143c065f526004601cfd5b3068929eee149b4bd2126855611464816131d9565b506001600160a01b0381165f908152600f6020526040812054600160f01b900460ff169061149183613600565b9050336001600160a01b038416148015906114b55750336001600160a01b03821614155b156114de5760405163172b4e7560e11b81526001600160a01b0382166004820152602401610cb5565b5f6114ea84838561362f565b9050816001600160a01b03167ffc30cddea38e2bf4d6ea7d3f9ed3b6ad7f176419f4963bd81318067a4aee73fe8260405161152791815260200190565b60405180910390a25050503868929eee149b4bd212685550565b5f61154b8361229f565b821061157c5760405163295f44f760e21b81526001600160a01b038416600482015260248101839052604401610cb5565b506001600160a01b03919091165f908152600660209081526040808320938352929052205490565b6115ac6136e4565b6040515f907307a07a07a07a07a07a07a07a07a07a07a07a07a09034908381818185875af1925050503d805f81146115ff576040519150601f19603f3d011682016040523d82523d5f602084013e611604565b606091505b505090508061121b57604051630b567ce360e31b815260040160405180910390fd5b6040805160c08101825260608082525f6020830181905292820183905281018290526080810182905260a0810191909152600d54600160b01b900463ffffffff16611672816002616320565b63ffffffff168363ffffffff1611806116b2575060038163ffffffff16101580156116b257506116a360038261633c565b63ffffffff168363ffffffff16105b156116d857604051634fadd4d360e11b815263ffffffff84166004820152602401610cb5565b600d54600160d01b900460ff1663ffffffff82811690851611156117ba57611701848383613718565b60408051825460e0602082028301810190935260c08201818152919392849291849184018282801561175a57602002820191905f5260205f20905b81546001600160a01b0316815260019091019060200180831161173c575b5050509183525050600182015460208201526002909101546001600160401b038116604083015263ffffffff600160401b820481166060840152600160601b820416608083015260ff600160801b9091041660a090910152949350505050565b6117018483836137a2565b601181600481106117d4575f80fd5b6003020160018101546002909101549091506001600160401b03811690600160401b810463ffffffff90811691600160601b810490911690600160801b900460ff1685565b6001600160a01b038082165f908152600c60205260408120600201549091161515610c8a565b6118476136e4565b61184f613843565b565b610de183838360405180602001604052805f815250612ad0565b5f61187560085490565b821061189d5760405163295f44f760e21b81525f600482015260248101839052604401610cb5565b600882815481106118b0576118b0616233565b905f5260205f2001549050919050565b601d81600481106117d4575f80fd5b6118d76131b0565b3068929eee149b4bd2126854036118f55763ab143c065f526004601cfd5b3068929eee149b4bd212685561190a826131d9565b505f61191583613600565b9050336001600160a01b038416148015906119395750336001600160a01b03821614155b156119625760405163172b4e7560e11b81526001600160a01b0382166004820152602401610cb5565b6001600160a01b0383165f908152600f602052604090208054600160e01b900460ff16600181600681111561199957611999615981565b141580156119b9575060028160068111156119b6576119b6615981565b14155b80156119d7575060038160068111156119d4576119d4615981565b14155b156119f75780604051633ba7bf8960e11b8152600401610cb59190616358565b815460ff600160f01b909104811690851681101580611a1e5750600d5460ff908116908616115b15611a4957604051633abb443b60e21b815260ff808316600483015286166024820152604401610cb5565b60ff8082165f908152600a602052604080822054928816825290205481811115611acf575f611a78838361625b565b9050803414611a9c5760405163222d164360e21b8152346004820152602401610cb5565b6001600160a01b0389165f908152600b602052604081208054839290611ac39084906162e6565b90915550611c9e915050565b81811015611c7d573415611af85760405163222d164360e21b8152346004820152602401610cb5565b5f611b03828461625b565b6001600160a01b038a165f908152600b6020526040812054919250848210611b2c575081611b41565b83821115611b4157611b3e848361625b565b90505b8015611be5576001600160a01b038b165f908152600b602052604081208054839290611b6e90849061625b565b9091555050604051634875485760e11b81526001600160a01b038a1660048201525f60248201527307a07a07a07a07a07a07a07a07a07a07a07a07a0906390ea90ae9083906044015f604051808303818588803b158015611bcd575f80fd5b505af1158015611bdf573d5f803e3d5ffd5b50505050505b5f611bf0828561625b565b90508015611c74576040515f907307a07a07a07a07a07a07a07a07a07a07a07a07a09083908381818185875af1925050503d805f8114611c4b576040519150601f19603f3d011682016040523d82523d5f602084013e611c50565b606091505b5050905080611c7257604051630b567ce360e31b815260040160405180910390fd5b505b50505050611c9e565b3415611c9e5760405163222d164360e21b8152346004820152602401610cb5565b845460ff60f01b1916600160f01b60ff8916021785556001600160a01b038089165f908152600c60205260409020600201541615611d07576001600160a01b0388165f908152600c60205260409020600201805460ff60a01b1916600160a01b60ff8a16021790555b6040805160ff808616825289166020820152908101839052606081018290526001600160a01b038916907f27f993440568bc502fe7db72fe27118488431975dc3239b379513a4cdb08e2c99060800160405180910390a25050505050503868929eee149b4bd21268555050565b611d7c6136e4565b8061ffff165f03611dcf57600d54601190600160d01b900460ff1660048110611da757611da7616233565b6003020154604051635700689f60e11b815260048101919091525f6024820152604401610cb5565b5f611dda600361335f565b905080518261ffff161115611e12578051604051635700689f60e11b8152600481019190915261ffff83166024820152604401610cb5565b600d805461ffff848116600160d81b81810261ffff60d81b1985161790945584516040805195909404909216808552602085019190915291830152907f74cf7ca84b30b723e8b6e3cc569ec2db21f4ba2fcc09d651e5ce6770b91552f99060600160405180910390a1505050565b5f610c8a82613178565b5f611e93612ae8565b60a00151905090565b60605f73__$2ef4e8110a3eaa1255da7f08f8eebcbf5a$__63a691a08b856040518263ffffffff1660e01b8152600401611ed69190615930565b5f60405180830381865af4158015611ef0573d5f803e3d5ffd5b505050506040513d5f823e601f3d908101601f19168201604052611f179190810190616366565b6040516329bd7cc960e21b815290915073__$2ef4e8110a3eaa1255da7f08f8eebcbf5a$__9063a6f5f32490611f51908490600401615930565b602060405180830381865af4158015611f6c573d5f803e3d5ffd5b505050506040513d601f19601f82011682018060405250810190611f9091906163da565b611fad576040516333a234f960e11b815260040160405180910390fd5b604051611fd19061d50160d81b908690600560fa1b90606088901b9060200161640c565b60405160208183030381529060405291505092915050565b611ff16136e4565b611ffa8161229f565b15158061200b575061200b8161221b565b1561203457604051639fb0877960e01b81526001600160a01b0382166004820152602401610cb5565b61121b816001600160a01b038116613896565b5f6060821461205757505f610c8a565b5f8383604051612068929190616455565b60408051918290039091205f818152601060205291909120549091506001600160a01b03168061209c575f92505050610c8a565b6120a58161221b565b156120b4575f92505050610c8a565b506001949350505050565b60605f6120cb83611626565b5f015190505f81516001600160401b038111156120ea576120ea615bae565b60405190808252806020026020018201604052801561211d57816020015b60608152602001906001900390816121085790505b5090505f5b81518110156122135760295f84838151811061214057612140616233565b60200260200101516001600160a01b03166001600160a01b031681526020019081526020015f20805461217290616297565b80601f016020809104026020016040519081016040528092919081815260200182805461219e90616297565b80156121e95780601f106121c0576101008083540402835291602001916121e9565b820191905f5260205f20905b8154815290600101906020018083116121cc57829003601f168201915b505050505082828151811061220057612200616233565b6020908102919091010152600101612122565b509392505050565b5f61222e6001600160a01b0383166138f7565b1561223a57505f919050565b5f6001600160a01b0383165f908152600f6020526040902054600160e01b900460ff16600681111561226e5761226e615981565b0361227a57505f919050565b506001600160a01b03165f908152600f6020526040902054600160e81b900460ff1690565b5f6001600160a01b0382166122c9576040516322718ad960e21b81525f6004820152602401610cb5565b506001600160a01b03165f9081526003602052604090205490565b6122ec6136e4565b61184f5f61394a565b6001600160a01b0381165f908152600f6020908152604080832054600160f01b900460ff16808452600a90925282205461232f8482613326565b949350505050565b336002600160a01b031461236057604051637eb3357160e01b8152336004820152602401610cb5565b61236a82826139a5565b600d54600160d81b900461ffff1681146123ae57600d54604051635700689f60e11b8152600160d81b90910461ffff16600482015260248101829052604401610cb5565b5f805f806123ed8686808060200260200160405190810160405280939291908181526020018383602002808284375f92019190915250613a7c92505050565b9350935093509350612400868686613da1565b5f61240b600361335f565b805190915061241a908761356f565b7fd1a5032a9ae65ebe520eba7974025750af3d884b6ab6047dad04dcf7006ab3856040518060c0016040528084815260200186815260200143600161245f91906162e6565b6001600160401b0316815263ffffffff80891660208301528616604080830191909152600d5460ff166060909201919091525161249c9190615a95565b60405180910390a150505050505050565b6124da60405180608001604052805f81526020015f81526020015f81526020015f63ffffffff1681525090565b50600d5460ff165f908152600a602090815260409182902082516080810184528154815260018201549281019290925260028101549282019290925260039091015463ffffffff16606082015290565b6125326136e4565b61184f613fe3565b600f60f81b6060805f80808361258f60408051808201825260148152732a32b631b7b4b71029ba30b5b2a6b0b730b3b2b960611b602080830191909152825180840190935260018352603160f81b9083015291565b97989097965046955030945091925090565b6125a96136e4565b6125b28161221b565b156125d3576006604051633ba7bf8960e11b8152600401610cb59190616358565b6125dc816131d9565b505f6001600160a01b0382165f908152600f6020526040902054600160e01b900460ff16600681111561261157612611615981565b03612648576001600160a01b0381165f908152600f6020526040902061263690614022565b61121b6001600160a01b038216614064565b61121b8161302d565b6126596131b0565b5f61269a858589898080601f0160208091040260200160405190810160405280939291908181526020018383808284375f9201919091525061409c92505050565b90505f6126a5612ae8565b60a0015190505f6126b63483614296565b90506126c1866131d9565b506126cc865f613247565b6001600160a01b0386165f908152600c60205260409020600201546001600160401b03600160a81b90910416612711600d546001600160a01b03620100009091041690565b6001600160a01b0316336001600160a01b0316146127c0575f7f9a361e91fa9aa610b5edf1d5c1cc20b9646c4228f3c004354ed2de7635dac994858933878660405160200161276596959493929190616464565b6040516020818303038152906040528051906020012090505f612787826142d1565b905061279589828a8a6143e7565b6127bd57604051633b4f6e2b60e21b81526001600160a01b038a166004820152602401610cb5565b50505b6040518060a00160405280858152602001886001600160a01b03168152602001336001600160a01b031681526020018460ff16815260200182600161280591906164a2565b6001600160401b039081169091526001600160a01b038981165f908152600c602090815260409182902085518155908501516001820180546001600160a01b03191691851691909117905590840151600290910180546060860151608090960151929093166001600160a81b031990931692909217600160a01b60ff909516949094029390931767ffffffffffffffff60a81b1916600160a81b93909216929092021790556128b78a8a8986866144ba565b50505050505050505050565b60605f8260068111156128d8576128d8615981565b036128f85781604051633ba7bf8960e11b8152600401610cb59190616358565b610c8a8261335f565b606060018054610ec590616297565b60605f61291c83611626565b5f015190505f81516001600160401b0381111561293b5761293b615bae565b60405190808252806020026020018201604052801561297457816020015b61296161576c565b8152602001906001900390816129595790505b5090505f5b8151811015612213576129a483828151811061299757612997616233565b6020026020010151611284565b8282815181106129b6576129b6616233565b6020908102919091010152600101612979565b6129f660405180608001604052805f81526020015f81526020015f81526020015f63ffffffff1681525090565b5060ff165f908152600a602090815260409182902082516080810184528154815260018201549281019290925260028101549282019290925260039091015463ffffffff16606082015290565b612a4b6131b0565b612a8b813385858080601f0160208091040260200160405190810160405280939291908181526020018383808284375f9201919091525061409c92505050565b505f612a95612ae8565b60a0015190505f612aa63483614296565b9050612ab1336131d9565b50612abc335f613247565b612ac985853385856144ba565b5050505050565b612adb848484610f6d565b6114233385858585614666565b6040805160c08101825260608082525f6020830181905292820183905281018290526080810182905260a0810191909152600d54612b3f90600160b01b810463ffffffff16908190600160d01b900460ff166137a2565b60408051825460e0602082028301810190935260c082018181529193928492918491840182828015612b9857602002820191905f5260205f20905b81546001600160a01b03168152600190910190602001808311612b7a575b5050509183525050600182015460208201526002909101546001600160401b038116604083015263ffffffff600160401b820481166060840152600160601b820416608083015260ff600160801b9091041660a090910152919050565b5f612bfe6136e4565b612c066131b0565b612c166080830160608401615a7a565b63ffffffff165f03612c5457612c326080830160608401615a7a565b604051630c6e911360e41b815263ffffffff9091166004820152602401610cb5565b600d80545f91908290612c699060ff166164c1565b825460ff8083166101009490940a848102910219909116179092555f908152600a602052604090209091508390612ca082826164df565b50909150505b919050565b6060612cb682613178565b505f612cf1612cc48461478d565b612ccc61483b565b604051602001612cdd929190616522565b604051602081830303815290604052614885565b905080604051602001612d049190616611565b604051602081830303815290604052915050919050565b5f612d25836131d9565b505f612d2f612ae8565b60a001516001600160a01b0385165f908152600c602090815260408083206002015489518a8401209151949550600160a81b90046001600160401b031693909291612da6917f9a361e91fa9aa610b5edf1d5c1cc20b9646c4228f3c004354ed2de7635dac9949185918b918b918a918a9101616464565b604051602081830303815290604052805190602001209050612dc7816142d1565b9450505050505b9392505050565b6001600160a01b039182165f90815260056020908152604080832093909416825291909152205460ff1690565b612e0a6136e4565b612e13826131d9565b506001600160a01b0382165f818152600f602090815260409182902080546001600160f81b0316600160f81b60ff87169081029190911790915591519182527ffa96cc66d1772e5646f86e374867e4e32b5b448b2aadb331568e34c2d063e455910160405180910390a25050565b612e896131b0565b3068929eee149b4bd212685403612ea75763ab143c065f526004601cfd5b3068929eee149b4bd2126855612ebc816131d9565b505f612ec782613600565b9050336001600160a01b03831614801590612eeb5750336001600160a01b03821614155b15612f145760405163172b4e7560e11b81526001600160a01b0382166004820152602401610cb5565b6001600160a01b0382165f908152600f60205260409020612f34816148ab565b612f53578060405163c11d33f760e01b8152600401610cb59190616642565b612f5c81614022565b5f612f678484614944565b9050826001600160a01b03167ffc30cddea38e2bf4d6ea7d3f9ed3b6ad7f176419f4963bd81318067a4aee73fe8260405161152791815260200190565b612fac6136e4565b6001600160a01b038116612fd557604051631e4fbdf760e01b81525f6004820152602401610cb5565b61121b8161394a565b5f6001600160e01b031982166380ac58cd60e01b148061300e57506001600160e01b03198216635b5e139f60e01b145b80610c8a57506301ffc9a760e01b6001600160e01b0319831614610c8a565b6001600160a01b0381165f908152600f6020526040812080549091600160e01b90910460ff169061305e600361335f565b51905061306a82614b03565b1561307d5761307a60018261625b565b90505b6130878482614b56565b5f806130928661121e565b506001600160a01b0388165f908152600b6020526040812081905591935091508183106130bf57816130c1565b825b6040519091505f907307a07a07a07a07a07a07a07a07a07a07a07a07a09083908381818185875af1925050503d805f8114613117576040519150601f19603f3d011682016040523d82523d5f602084013e61311c565b606091505b505090508061313e57604051630b567ce360e31b815260040160405180910390fd5b600d54613159908890600160b01b900463ffffffff16614c8e565b61316287614022565b5f61316c89613600565b90506128b78982614944565b5f818152600260205260408120546001600160a01b031680610c8a57604051637e27328960e01b815260048101849052602401610cb5565b600d54610100900460ff161561184f5760405163d93c066560e01b815260040160405180910390fd5b5f6001600160a01b0382166131ed816138f7565b61320d5760405163ed15e6cf60e01b815260048101829052602401610cb5565b826001600160a01b031661322082611e80565b6001600160a01b031614610c8a576040516330fa89ab60e11b815260040160405180910390fd5b6001600160a01b0382165f908152600f6020526040902054600160e01b900460ff1681600681111561327b5761327b615981565b81600681111561328d5761328d615981565b14610de15780604051633ba7bf8960e11b8152600401610cb59190616358565b6132b8816001616320565b825463ffffffff91909116600160a01b0260ff60e01b191668ff00000000ffffffff60a01b1990911617600160e11b1782556040517f44f68a196beb8e3ae6b6afe9504db62c81b4e511e987a263b4f1a9bc49c907629061331a908490616642565b60405180910390a15050565b6001600160a01b0382165f908152600b60205260408120548183821161334c575f613356565b613356848361625b565b95945050505050565b60605f61336b60085490565b6001600160401b0381111561338257613382615bae565b6040519080825280602002602001820160405280156133bb57816020015b6133a861576c565b8152602001906001900390816133a05790505b5090505f805b8251811015613566575f6133da6133d78361186b565b90565b6001600160a01b0381165f908152600f60205260409020805491925090600160e81b900460ff161561340d57505061355e565b5f600688600681111561342257613422615981565b14905080613489578154600160e01b900460ff16600389600681111561344a5761344a615981565b0361345f5761345881614b03565b9150613487565b88600681111561347157613471615981565b81600681111561348357613483615981565b1491505b505b801561355a576040805160e08101825283546001600160a01b038116825263ffffffff600160a01b820481166020840152600160c01b82041692820192909252908390606083019060ff600160e01b9091041660068111156134ed576134ed615981565b60068111156134fe576134fe615981565b8152905460ff600160e81b8204811615156020840152600160f01b820481166040840152600160f81b90910416606090910152868661353c816166b6565b97508151811061354e5761354e616233565b60200260200101819052505b5050505b6001016133c1565b50815292915050565b81158061357a575080155b8061358457508181115b156111d157604051635700689f60e11b81526004810183905260248101829052604401610cb5565b805464ffffffffff60c01b19166404ffffffff60c01b1781556040517f170cba9e80cc0d156bc6ed689fa1d09ee788e1000c092512ef8698454b2081ee906135f5908390616642565b60405180910390a150565b6001600160a01b038082165f908152600c602052604081206002810154919290911680612dce57509192915050565b5f8061363b8584614ce3565b6001600160a01b0386165f908152600b602052604081208054929350839290919061366790849061625b565b9091555050604051634875485760e11b81526001600160a01b0385166004820152602481018290527307a07a07a07a07a07a07a07a07a07a07a07a07a0906390ea90ae906044015f604051808303815f87803b1580156136c5575f80fd5b505af11580156136d7573d5f803e3d5ffd5b5092979650505050505050565b600d546001600160a01b036201000090910416331461184f5760405163118cdaa760e01b8152336004820152602401610cb5565b5f80600483613727868861633c565b61373191906166ce565b61373b91906166e7565b90505f601d8260ff166004811061375457613754616233565b6003020190508563ffffffff168160020160089054906101000a900463ffffffff1663ffffffff161461335657604051634fadd4d360e11b815263ffffffff87166004820152602401610cb5565b5f806137ae858561633c565b90505f6004826137be86836166ce565b6137c89190616708565b6137d291906166e7565b90505f60118260ff16600481106137eb576137eb616233565b6003020190508663ffffffff168160020160089054906101000a900463ffffffff1663ffffffff161461383957604051634fadd4d360e11b815263ffffffff88166004820152602401610cb5565b9695505050505050565b61384b614d43565b600d805461ff00191690557f5db9ee0a495bf2e6ff9c91a7834c1ba4fdd244a5e8aa4e537bd38aeae4b073aa335b6040516001600160a01b03909116815260200160405180910390a1565b6001600160a01b0382166138bf57604051633250574960e11b81525f6004820152602401610cb5565b5f6138cb83835f614d6b565b90506001600160a01b03811615610de1576040516339e3563760e11b81525f6004820152602401610cb5565b5f81158061390c57506001600160a01b038210155b1561392d5760405163ed15e6cf60e01b815260048101839052602401610cb5565b505f908152600260205260409020546001600160a01b0316151590565b600d80546001600160a01b038381166201000081810262010000600160b01b031985161790945560405193909204169182907f8be0079c531659141344cd1fd0a4f28419497f9722a3daafe3b4186f6b6457e0905f90a35050565b5f5b6139b260018361625b565b811015610de15782826139c68360016162e6565b8181106139d5576139d5616233565b90506020020160208101906139ea91906158e9565b6001600160a01b0316838383818110613a0557613a05616233565b9050602002016020810190613a1a91906158e9565b6001600160a01b031610613a7457828282818110613a3a57613a3a616233565b9050602002016020810190613a4f91906158e9565b60405163836e3a7d60e01b81526001600160a01b039091166004820152602401610cb5565b6001016139a7565b600d545f9081908190606090600160d01b900460ff16826004613aa08360016166ce565b613aaa91906166e7565b600d805460ff60d01b1916600160d01b60ff841602178082559192505f91601690613ae190600160b01b900463ffffffff16616721565b91906101000a81548163ffffffff021916908363ffffffff160217905590505f601d8360ff1660048110613b1757613b17616233565b6003020190505f613b266124ad565b90506040518060c0016040528083805480602002602001604051908101604052809291908181526020018280548015613b8657602002820191905f5260205f20905b81546001600160a01b03168152600190910190602001808311613b68575b5050509183525050604080840151602083015201613ba54360016164a2565b6001600160401b0316815263ffffffff80861660208301526060808501519091166040830152600d5460ff9081169190920152601190861660048110613bed57613bed616233565b600302015f820151815f019080519060200190613c0b9291906157a7565b50602082015160018201556040820151600291820180546060850151608086015160a0909601516001600160401b039094166bffffffffffffffffffffffff1990921691909117600160401b63ffffffff928316021764ffffffffff60601b1916600160601b919095160260ff60801b191693909317600160801b60ff90921691909102179091555f90600490613ca39087906166ce565b613cad91906166e7565b90508a601d8260ff1660048110613cc657613cc6616233565b600302015f019080519060200190613cdf9291906157a7565b50613ceb846002616320565b601d8260ff1660048110613d0157613d01616233565b6003020160020160086101000a81548163ffffffff021916908363ffffffff16021790555083826040015183606001518580805480602002602001604051908101604052809291908181526020018280548015613d8557602002820191905f5260205f20905b81546001600160a01b03168152600190910190602001808311613d67575b5050505050905099509950995099505050505050509193509193565b5f613dac600261335f565b90505f5b8151811015613e0d575f600f5f848481518110613dcf57613dcf616233565b60200260200101515f01516001600160a01b03166001600160a01b031681526020019081526020015f209050613e0481614e36565b50600101613db0565b505f613e19600461335f565b600d54909150600160d01b900460ff165f6004613e378360016166ce565b613e4191906166e7565b90505f60118360ff1660048110613e5a57613e5a616233565b60030201805460408051602080840282018101909252828152929190830182828015613ead57602002820191905f5260205f20905b81546001600160a01b03168152600190910190602001808311613e8f575b505050505090505f601d8360ff1660048110613ecb57613ecb616233565b60030201805460408051602080840282018101909252828152929190830182828015613f1e57602002820191905f5260205f20905b81546001600160a01b03168152600190910190602001808311613f00575b505050505090505f5b85518110156128b7575f868281518110613f4357613f43616233565b60200260200101515f01519050613f5a8185614e77565b80613f6a5750613f6a8184614e77565b80613fac5750613fac818c8c808060200260200160405190810160405280939291908181526020018383602002808284375f92019190915250614e7792505050565b15613fb75750613fdb565b6001600160a01b0381165f908152600f60205260409020613fd8818b614c8e565b50505b600101613f27565b613feb6131b0565b600d805461ff0019166101001790557f62e78cea01bee320cd4e420270b5ea74000d11b0c9f74754ebdbfc544b05a2586138793390565b805461ffff60e01b1916608360e11b1781556040517ffab16134cb74fff6e7d137bf93f6b2ab4c1c61cbe53dad2c8cb57744353bd39b906135f5908390616642565b5f6140705f835f614d6b565b90506001600160a01b0381166111d157604051637e27328960e01b815260048101839052602401610cb5565b5f81516060146140bf576040516333a234f960e11b815260040160405180910390fd5b5f6140cd855f015185611e9c565b855160405163a691a08b60e01b81529192505f9173__$2ef4e8110a3eaa1255da7f08f8eebcbf5a$__9163a691a08b9161410a9190600401615930565b5f60405180830381865af4158015614124573d5f803e3d5ffd5b505050506040513d5f823e601f3d908101601f1916820160405261414b9190810190616366565b90505f73__$2ef4e8110a3eaa1255da7f08f8eebcbf5a$__633d2a9e1188602001516040518263ffffffff1660e01b81526004016141899190615930565b5f60405180830381865af41580156141a3573d5f803e3d5ffd5b505050506040513d5f823e601f3d908101601f191682016040526141ca9190810190616366565b905073__$2ef4e8110a3eaa1255da7f08f8eebcbf5a$__635779b9a38383866040518060600160405280602b8152602001616e66602b91396040518563ffffffff1660e01b8152600401614221949392919061673c565b602060405180830381865af415801561423c573d5f803e3d5ffd5b505050506040513d601f19601f8201168201806040525081019061426091906163da565b614281578683604051634babb8f160e01b8152600401610cb5929190616788565b61428b8587614ed4565b979650505050505050565b60ff81165f908152600a602052604081205483146142ca5760405163222d164360e21b815260048101849052602401610cb5565b5090919050565b7f00000000000000000000000000000000000000000000000000000000000000007f000000000000000000000000000000000000000000000000000000000000000030147f00000000000000000000000000000000000000000000000000000000000000004614166143c45750604080517f8b73c3c69bb8fe3d512ecc4cf759cc79239f7b179b0ffacaa9a75d522b39400f81527f000000000000000000000000000000000000000000000000000000000000000060208201527f00000000000000000000000000000000000000000000000000000000000000009181019190915246606082015230608082015260a090205b6719010000000000005f5280601a5281603a52604260182090505f603a52919050565b5f6001600160a01b0385161561232f57604051853b614477578260408114614417576041811461443e57506144b1565b60208581013560ff81901c601b0190915285356040526001600160ff1b031660605261444f565b60408501355f1a6020526040856040375b50845f526020600160805f60015afa5180871860601b3d119250505f606052806040526144b1565b631626ba7e60e01b80825285600483015260248201604081528460448401528486606485013760208160648701858b5afa90519091141691505b50949350505050565b6040805160e0810182526001600160a01b0385811680835263ffffffff60208085018281525f8688018181526001606089019081526080890183905260ff8c1660a08a015260c08901839052958252600f9093529690962085518154975192518416600160c01b0263ffffffff60c01b1993909416600160a01b026001600160c01b0319909816951694909417959095179485168117835590519293849391839160ff60e01b1990911664ffffffffff60c01b1990911617600160e01b83600681111561458957614589615981565b02179055506080820151815460a084015160c09094015161ffff60e81b19909116600160e81b9215159290920260ff60f01b191691909117600160f01b60ff94851602176001600160f81b0316600160f81b93909116929092029190911790556001600160a01b0384165f90815260296020526040902061460b868883616818565b506001600160a01b0384165f908152600b602052604090819020839055517f9d9bab592843361c508cec6cc23820609c04fe07a621d03bf04b7520759d364190614656908390615a21565b60405180910390a1505050505050565b6001600160a01b0383163b15612ac957604051630a85bd0160e11b81526001600160a01b0384169063150b7a02906146a89088908890879087906004016168d1565b6020604051808303815f875af19250505080156146e2575060408051601f3d908101601f191682019092526146df91810190616903565b60015b614749573d80801561470f576040519150601f19603f3d011682016040523d82523d5f602084013e614714565b606091505b5080515f0361474157604051633250574960e11b81526001600160a01b0385166004820152602401610cb5565b805181602001fd5b6001600160e01b03198116630a85bd0160e11b1461478557604051633250574960e11b81526001600160a01b0385166004820152602401610cb5565b505050505050565b60605f61479983614f43565b6028602282012090915060601c60295b600181111561483257600782600f161180156147de575060608382815181106147d4576147d4616233565b016020015160f81c115b1561481b57602060f81b8382815181106147fa576147fa616233565b0160200180516001600160f81b0319908116909218909116905f82901a9053505b60049190911c9061482b8161691e565b90506147a9565b50909392505050565b60606148616040518061052001604052806104ed81526020016169796104ed9139614885565b6040516020016148719190616933565b604051602081830303815290604052905090565b6060610c8a82604051806060016040528060408152602001616e91604091396001614f59565b80545f90600160e01b900460ff1660018160068111156148cd576148cd615981565b036148db5750600192915050565b82545f906148f790600160c01b900463ffffffff166001616320565b9050600582600681111561490d5761490d615981565b14801561492c5750600d5463ffffffff808316600160b01b9092041610155b1561493b575060019392505050565b505f9392505050565b5f6149576001600160a01b038416614064565b6008545f03614979576040516315ae672760e01b815260040160405180910390fd5b6001600160a01b0383165f908152600c602052604081208181556001810180546001600160a01b031916905560020180546001600160e81b031916905580806149c18661121e565b925092509250825f036149d957829350505050610c8a565b6001600160a01b0386165f908152600b60205260408120819055828410614a01575081614a85565b50825f7307a07a07a07a07a07a07a07a07a07a07a07a07a0614a23838661625b565b6040515f81818185875af1925050503d805f8114614a5c576040519150601f19603f3d011682016040523d82523d5f602084013e614a61565b606091505b5050905080614a8357604051630b567ce360e31b815260040160405180910390fd5b505b604051634875485760e11b81526001600160a01b0387166004820152602481018390527307a07a07a07a07a07a07a07a07a07a07a07a07a0906390ea90ae9083906044015f604051808303818588803b158015614ae0575f80fd5b505af1158015614af2573d5f803e3d5ffd5b5050505050818161428b91906162e6565b5f6003826006811115614b1857614b18615981565b1480614b3557506004826006811115614b3357614b33615981565b145b80610c8a57506002826006811115614b4f57614b4f615981565b1492915050565b600d54600160b01b810463ffffffff1690600160d01b900460ff165f614b7d8380846137a2565b9050614b8981866150d3565b508054614b96858261356f565b5f614ba2856001616320565b90505f614bb0828787613718565b9050614bbc81896150d3565b5080549250614bcb878461356f565b5f614bd7876002616320565b90505f614be5828989613718565b9050614bf1818b6150d3565b5080549450614c00898661356f565b600d54600160d81b900461ffff168910156128b757600d805461ffff8b8116600160d81b90810261ffff60d81b1984161793849055604080519382900483168085529190940490911660208301529181018b90527f74cf7ca84b30b723e8b6e3cc569ec2db21f4ba2fcc09d651e5ce6770b91552f99060600160405180910390a15050505050505050505050565b815463ffffffff8216600160c01b0264ffffffffff60c01b1990911617600560e01b1782556040517f727bfc4079207401298f48a3f1a92c9b40d83e086fe5b584a7b0644fdbdb56ee9061331a908490616642565b60ff81165f908152600a602052604081205481614d008583613326565b9050801580614d22575060ff84165f908152600a602052604090206001015481105b1561232f57604051633737b70960e11b815260048101829052602401610cb5565b600d54610100900460ff1661184f57604051638dfc202b60e01b815260040160405180910390fd5b5f80614d788585856151ce565b90506001600160a01b038116614dd457614dcf84600880545f838152600960205260408120829055600182018355919091527ff3f7a9fe364faab93b216da50a3214154f22a0a2b415b23a84c8169e8b636ee30155565b614df7565b846001600160a01b0316816001600160a01b031614614df757614df781856152c0565b6001600160a01b038516614e1357614e0e8461533d565b61232f565b846001600160a01b0316816001600160a01b03161461232f5761232f85856153e4565b805460ff60e01b1916600360e01b1781556040517fabab4191fe954f07230f7e34fd48dc0fdcbed492526cd060001cccceab22851b906135f5908390616642565b80515f90815b81811015614eca57846001600160a01b0316848281518110614ea157614ea1616233565b60200260200101516001600160a01b031603614ec257600192505050610c8a565b600101614e7d565b505f949350505050565b81516020808401919091205f81815260109092526040909120546001600160a01b031615614f1557604051638d12779f60e01b815260040160405180910390fd5b5f81815260106020526040902080546001600160a01b0384166001600160a01b031990911617905592915050565b6060610c8a6001600160a01b0383166014615432565b606083515f03614f77575060408051602081019091525f8152612dce565b5f82614fa757600385516004614f8d91906162cf565b614f989060026162e6565b614fa2919061630d565b614fcc565b600385516002614fb791906162e6565b614fc1919061630d565b614fcc9060046162cf565b90505f816001600160401b03811115614fe757614fe7615bae565b6040519080825280601f01601f191660200182016040528015615011576020820181803683370190505b509050600185016020820187885189016020810180515f82525b82841015615086576003840193508351603f8160121c168701518653600186019550603f81600c1c168701518653600186019550603f8160061c168701518653600186019550603f811687015186535060018501945061502b565b9052505085156150c7576003885106600181146150aa57600281146150bd576150c5565b603d6001830353603d60028303536150c5565b603d60018303535b505b50909695505050505050565b81545f90815b81811015614eca57836001600160a01b03168582815481106150fd576150fd616233565b5f918252602090912001546001600160a01b0316036151c6578461512260018461625b565b8154811061513257615132616233565b905f5260205f20015f9054906101000a90046001600160a01b031685828154811061515f5761515f616233565b905f5260205f20015f6101000a8154816001600160a01b0302191690836001600160a01b031602179055508480548061519a5761519a616964565b5f8281526020902081015f1990810180546001600160a01b03191690550190555060019150610c8a9050565b6001016150d9565b5f828152600260205260408120546001600160a01b03908116908316156151fa576151fa8184866155a3565b6001600160a01b03811615615234576152155f855f80615607565b6001600160a01b0381165f90815260036020526040902080545f190190555b6001600160a01b03851615615262576001600160a01b0385165f908152600360205260409020805460010190555b5f8481526002602052604080822080546001600160a01b0319166001600160a01b0389811691821790925591518793918516917fddf252ad1be2c89b69c2b068fc378daa952ba7f163c4a11628f55a4df523b3ef91a4949350505050565b5f6152ca8361229f565b5f838152600760209081526040808320546001600160a01b038816845260069092529091209192509081831461531f575f83815260208281526040808320548584528184208190558352600790915290208290555b5f938452600760209081526040808620869055938552525081205550565b6008545f9061534e9060019061625b565b5f838152600960205260408120546008805493945090928490811061537557615375616233565b905f5260205f2001549050806008838154811061539457615394616233565b5f9182526020808320909101929092558281526009909152604080822084905585825281205560088054806153cb576153cb616964565b600190038181905f5260205f20015f9055905550505050565b5f60016153f08461229f565b6153fa919061625b565b6001600160a01b039093165f908152600660209081526040808320868452825280832085905593825260079052919091209190915550565b6060825f6154418460026162cf565b61544c9060026162e6565b6001600160401b0381111561546357615463615bae565b6040519080825280601f01601f19166020018201604052801561548d576020820181803683370190505b509050600360fc1b815f815181106154a7576154a7616233565b60200101906001600160f81b03191690815f1a905350600f60fb1b816001815181106154d5576154d5616233565b60200101906001600160f81b03191690815f1a9053505f6154f78560026162cf565b6155029060016162e6565b90505b6001811115615579576f181899199a1a9b1b9c1cb0b131b232b360811b83600f166010811061553657615536616233565b1a60f81b82828151811061554c5761554c616233565b60200101906001600160f81b03191690815f1a90535060049290921c916155728161691e565b9050615505565b50811561232f5760405163e22e27eb60e01b81526004810186905260248101859052604401610cb5565b6155ae83838361570b565b610de1576001600160a01b0383166155dc57604051637e27328960e01b815260048101829052602401610cb5565b60405163177e802f60e01b81526001600160a01b038316600482015260248101829052604401610cb5565b808061561b57506001600160a01b03821615155b156156dc575f61562a84613178565b90506001600160a01b038316158015906156565750826001600160a01b0316816001600160a01b031614155b801561566957506156678184612dd5565b155b156156925760405163a9fbf51f60e01b81526001600160a01b0384166004820152602401610cb5565b81156156da5783856001600160a01b0316826001600160a01b03167f8c5be1e5ebec7d5bd14f71427d1e84f3dd0314c0f7b2291e5b200ac8c7c3b92560405160405180910390a45b505b50505f90815260046020526040902080546001600160a01b0319166001600160a01b0392909216919091179055565b5f6001600160a01b0383161580159061232f5750826001600160a01b0316846001600160a01b0316148061574457506157448484612dd5565b8061232f5750505f908152600460205260409020546001600160a01b03908116911614919050565b6040805160e0810182525f8082526020820181905291810182905290606082019081525f602082018190526040820181905260609091015290565b828054828255905f5260205f209081019282156157fa579160200282015b828111156157fa57825182546001600160a01b0319166001600160a01b039091161782556020909201916001909101906157c5565b5061580692915061580a565b5090565b5b80821115615806575f815560010161580b565b6001600160e01b03198116811461121b575f80fd5b5f60208284031215615843575f80fd5b8135612dce8161581e565b5f8083601f84011261585e575f80fd5b5081356001600160401b03811115615874575f80fd5b6020830191508360208260061b850101111561588e575f80fd5b9250929050565b5f80602083850312156158a6575f80fd5b82356001600160401b038111156158bb575f80fd5b6158c78582860161584e565b90969095509350505050565b80356001600160a01b0381168114612ca6575f80fd5b5f602082840312156158f9575f80fd5b612dce826158d3565b5f81518084528060208401602086015e5f602082860101526020601f19601f83011685010191505092915050565b602081525f612dce6020830184615902565b5f60208284031215615952575f80fd5b5035919050565b5f806040838503121561596a575f80fd5b615973836158d3565b946020939093013593505050565b634e487b7160e01b5f52602160045260245ffd5b600781106159b157634e487b7160e01b5f52602160045260245ffd5b9052565b60018060a01b03815116825263ffffffff602082015116602083015263ffffffff604082015116604083015260608101516159f36060840182615995565b5060808101511515608083015260ff60a08201511660a083015260c0810151610de160c084018260ff169052565b60e08101610c8a82846159b5565b5f805f60608486031215615a41575f80fd5b615a4a846158d3565b9250615a58602085016158d3565b929592945050506040919091013590565b63ffffffff8116811461121b575f80fd5b5f60208284031215615a8a575f80fd5b8135612dce81615a69565b6020808252825160c083830152805160e084018190525f92919091019082906101008501905b80831015615ae65783516001600160a01b031682526020938401936001939093019290910190615abb565b506020860151604086015260408601519250615b0d60608601846001600160401b03169052565b606086015163ffffffff811660808701529250608086015163ffffffff811660a0870152925060a086015160ff811660c0870152925095945050505050565b803560ff81168114612ca6575f80fd5b5f8060408385031215615b6d575f80fd5b615b76836158d3565b9150615b8460208401615b4c565b90509250929050565b5f60208284031215615b9d575f80fd5b813561ffff81168114612dce575f80fd5b634e487b7160e01b5f52604160045260245ffd5b604051601f8201601f191681016001600160401b0381118282101715615bea57615bea615bae565b604052919050565b5f6001600160401b03821115615c0a57615c0a615bae565b50601f01601f191660200190565b5f82601f830112615c27575f80fd5b8135615c3a615c3582615bf2565b615bc2565b818152846020838601011115615c4e575f80fd5b816020850160208301375f918101602001919091529392505050565b5f8060408385031215615c7b575f80fd5b82356001600160401b03811115615c90575f80fd5b615c9c85828601615c18565b925050615b84602084016158d3565b5f8083601f840112615cbb575f80fd5b5081356001600160401b03811115615cd1575f80fd5b60208301915083602082850101111561588e575f80fd5b5f8060208385031215615cf9575f80fd5b82356001600160401b03811115615d0e575f80fd5b6158c785828601615cab565b5f602082016020835280845180835260408501915060408160051b8601019250602086015f5b82811015615d7157603f19878603018452615d5c858351615902565b94506020938401939190910190600101615d40565b50929695505050505050565b5f8060208385031215615d8e575f80fd5b82356001600160401b03811115615da3575f80fd5b8301601f81018513615db3575f80fd5b80356001600160401b03811115615dc8575f80fd5b8560208260051b8401011115615ddc575f80fd5b6020919091019590945092505050565b60ff60f81b8816815260e060208201525f615e0a60e0830189615902565b8281036040840152615e1c8189615902565b606084018890526001600160a01b038716608085015260a0840186905283810360c0850152845180825260208087019350909101905f5b81811015615e71578351835260209384019390920191600101615e53565b50909b9a5050505050505050505050565b5f60408284031215615e92575f80fd5b604080519081016001600160401b0381118282101715615eb457615eb4615bae565b60405290508082356001600160401b03811115615ecf575f80fd5b615edb85828601615c18565b82525060208301356001600160401b03811115615ef6575f80fd5b615f0285828601615c18565b6020830152505092915050565b5f805f805f8060808789031215615f24575f80fd5b86356001600160401b03811115615f39575f80fd5b615f4589828a01615cab565b90975095505060208701356001600160401b03811115615f63575f80fd5b615f6f89828a01615e82565b945050615f7e604088016158d3565b925060608701356001600160401b03811115615f98575f80fd5b615fa489828a01615cab565b979a9699509497509295939492505050565b5f60208284031215615fc6575f80fd5b813560078110612dce575f80fd5b602080825282518282018190525f918401906040840190835b81811015616016576160008385516159b5565b6020939093019260e09290920191600101615fed565b509095945050505050565b801515811461121b575f80fd5b5f806040838503121561603f575f80fd5b616048836158d3565b9150602083013561605881616021565b809150509250929050565b5f60208284031215616073575f80fd5b612dce82615b4c565b5f805f6040848603121561608e575f80fd5b83356001600160401b038111156160a3575f80fd5b6160af86828701615cab565b90945092505060208401356001600160401b038111156160cd575f80fd5b6160d986828701615e82565b9150509250925092565b5f805f80608085870312156160f6575f80fd5b6160ff856158d3565b935061610d602086016158d3565b92506040850135915060608501356001600160401b0381111561612e575f80fd5b61613a87828801615c18565b91505092959194509250565b5f6080828403128015616157575f80fd5b509092915050565b5f805f60608486031215616171575f80fd5b83356001600160401b03811115616186575f80fd5b61619286828701615c18565b9350506161a1602085016158d3565b91506161af604085016158d3565b90509250925092565b5f80604083850312156161c9575f80fd5b6161d2836158d3565b9150615b84602084016158d3565b6001600160a01b038816815263ffffffff87811660208301528616604082015260e081016162116060830187615995565b931515608082015260ff92831660a0820152911660c090910152949350505050565b634e487b7160e01b5f52603260045260245ffd5b634e487b7160e01b5f52601160045260245ffd5b81810381811115610c8a57610c8a616247565b604081016001600160a01b03616283846158d3565b168252602092830135929091019190915290565b600181811c908216806162ab57607f821691505b6020821081036162c957634e487b7160e01b5f52602260045260245ffd5b50919050565b8082028115828204841417610c8a57610c8a616247565b80820180821115610c8a57610c8a616247565b634e487b7160e01b5f52601260045260245ffd5b5f8261631b5761631b6162f9565b500490565b63ffffffff8181168382160190811115610c8a57610c8a616247565b63ffffffff8281168282160390811115610c8a57610c8a616247565b60208101610c8a8284615995565b5f60208284031215616376575f80fd5b81516001600160401b0381111561638b575f80fd5b8201601f8101841361639b575f80fd5b80516163a9615c3582615bf2565b8181528560208385010111156163bd575f80fd5b8160208401602083015e5f91810160200191909152949350505050565b5f602082840312156163ea575f80fd5b8151612dce81616021565b5f81518060208401855e5f93019283525090919050565b6001600160d81b0319851681525f61642760058301866163f5565b6001600160f81b031994909416845250506bffffffffffffffffffffffff1916600182015260150192915050565b818382375f9101908152919050565b95865260208601949094526001600160a01b0392831660408601529116606084015260ff1660808301526001600160401b031660a082015260c00190565b6001600160401b038181168382160190811115610c8a57610c8a616247565b5f60ff821660ff81036164d6576164d6616247565b60010192915050565b81358155602082013560018201556040820135600282015560038101606083013561650981615a69565b815463ffffffff191663ffffffff919091161790555050565b7f7b226e616d65223a202254656c636f696e2d4e6574776f726b20436f6e73656e8152651cdd5cd3919560d21b60208201525f61656260268301856163f5565b7f222c20226465736372697074696f6e223a2022455243373231204e465420776881527f6f7365206f776e657273686970206c656467657220726570726573656e74732060208201527f746865207065726d697373696f6e65642077686974656c69737420666f72207660408201527530b634b230ba37b9399116101134b6b0b3b2911d101160511b60608201526165fd60768201856163f5565b61227d60f01b815260020195945050505050565b7f646174613a6170706c69636174696f6e2f6a736f6e3b6261736536342c00000081525f612dce601d8301846163f5565b81546001600160a01b038116825263ffffffff60a082901c8116602084015260c082901c16604083015260e08201906166846060840160ff8360e01c16615995565b6166986080840160ff8360e81c1615159052565b60f081901c60ff1660a084015260f881901c60c08401525092915050565b5f600182016166c7576166c7616247565b5060010190565b60ff8181168382160190811115610c8a57610c8a616247565b5f60ff8316806166f9576166f96162f9565b8060ff84160691505092915050565b60ff8281168282160390811115610c8a57610c8a616247565b5f63ffffffff821663ffffffff81036164d6576164d6616247565b608081525f61674e6080830187615902565b82810360208401526167608187615902565b905082810360408401526167748186615902565b9050828103606084015261428b8185615902565b604081525f83516040808401526167a26080840182615902565b90506020850151603f198483030160608501526167bf8282615902565b91505082810360208401526133568185615902565b601f821115610de157805f5260205f20601f840160051c810160208510156167f95750805b601f840160051c820191505b81811015612ac9575f8155600101616805565b6001600160401b0383111561682f5761682f615bae565b6168438361683d8354616297565b836167d4565b5f601f841160018114616874575f851561685d5750838201355b5f19600387901b1c1916600186901b178355612ac9565b5f83815260208120601f198716915b828110156168a35786850135825560209485019460019092019101616883565b50868210156168bf575f1960f88860031b161c19848701351681555b505060018560011b0183555050505050565b6001600160a01b03858116825284166020820152604081018390526080606082018190525f9061383990830184615902565b5f60208284031215616913575f80fd5b8151612dce8161581e565b5f8161692c5761692c616247565b505f190190565b7f646174613a696d6167652f7376672b786d6c3b6261736536342c00000000000081525f612dce601a8301846163f5565b634e487b7160e01b5f52603160045260245ffdfe3c7376672077696474683d22373922206865696768743d223830222076696577426f783d22302030203739203830222066696c6c3d226e6f6e652220786d6c6e733d22687474703a2f2f7777772e77332e6f72672f323030302f737667223e203c6d61736b2069643d226d61736b305f3834395f3334313722207374796c653d226d61736b2d747970653a616c70686122206d61736b556e6974733d227573657253706163654f6e5573652220783d22302220793d2230222077696474683d22373922206865696768743d223830223e203c726563742077696474683d2237382e30303522206865696768743d223830222066696c6c3d2223433443344334222f3e203c2f6d61736b3e203c67206d61736b3d2275726c28236d61736b305f3834395f3334313729223e203c7265637420783d2231372e393534362220793d2231382e33353435222077696474683d2234322e3239343322206865696768743d2234332e32393138222066696c6c3d227768697465222f3e203c7061746820643d224d37342e323336392032312e393839324337362e363930382032342e303331352037382e323338392032382e323537372037372e363937392033312e333733334c37322e343136362036312e333235334337312e3836362036342e343437352036382e393539322036372e383739382036352e393632392036382e393631324c33372e313934372037392e333334344333342e313938342038302e343135372032392e373432312037392e363239392032372e323936342037372e3538394c332e3831312035382e3030323143312e33353730382035352e39353938202d302e31393233382035312e3734313720302e3335383134382034382e363139354c352e36333935312031382e3636373443362e31393030342031352e3534353220392e30393638372031322e313132392031322e303933322031312e303331364c34302e3835393920302e3636363435334334332e38353632202d302e3431343835372034382e3331323520302e3337303930392035302e3735383320322e343131384c37342e323336392032312e393839325a4d34392e373634352033352e343336394c35302e393336342032392e333531334c33392e393531372032392e333638374c34312e3531362032312e333432344c33372e393538332032312e333432344333372e393538332032312e333432342033342e363332382032372e323930312032372e333030362033302e323031394c32362e323839392033352e343530334c33312e303933362033352e34364333312e303933362033352e34362032392e343637342034332e303032392032382e393331362034352e373835344332372e353637372035322e383638322033302e393830362035372e383933392033362e323238312035372e383933394333382e383630362035372e383933392034312e3831372035372e383933392034352e303937322035372e383933394c34362e363532342035312e313636364334362e323734322035312e313636362034332e383031332035312e313636362033392e323333362035312e313636364333352e393336342035312e313636362033362e313039392034392e333138392033362e373433312034362e303330354c33382e373833382033352e343333334c34392e373634352033352e343336395a222066696c6c3d2223313443384646222f3e203c2f673e203c2f7376673e424c535f5349475f424c53313233383147315f584d443a5348412d3235365f535357555f524f5f4e554c5f4142434445464748494a4b4c4d4e4f505152535455565758595a6162636465666768696a6b6c6d6e6f707172737475767778797a303132333435363738392b2fa164736f6c634300081a000a424c535f5349475f424c53313233383147315f584d443a5348412d3235365f535357555f524f5f4e554c5f","linkReferences":{"src/consensus/BlsG1.sol":{"BlsG1":[{"start":2205,"length":20},{"start":2314,"length":20},{"start":2440,"length":20},{"start":2747,"length":20},{"start":2883,"length":20},{"start":14807,"length":20},{"start":14943,"length":20},{"start":23577,"length":20},{"start":23686,"length":20},{"start":23812,"length":20}]}}},"methodIdentifiers":{"SYSTEM_ADDRESS()":"3434735f","activate()":"0f15f4c0","allocateIssuance()":"355811a7","applyIncentives((address,uint256)[])":"0a36cdef","applySlashes((address,uint256)[])":"02ae337b","approve(address,uint256)":"095ea7b3","balanceOf(address)":"70a08231","beginExit()":"2228dfa0","burn(address)":"89afcb44","claimStakeRewards(address)":"2b9f4985","concludeEpoch(address[])":"7b55a300","delegateStake(bytes,(bytes,bytes),address,bytes)":"8bb43f3a","delegationDigest(bytes,address,address)":"e3716d04","eip712Domain()":"84b0196e","epochInfo(uint256)":"3894228e","futureEpochInfo(uint256)":"59ca93b6","getApproved(uint256)":"081812fc","getBalanceBreakdown(address)":"15b5709a","getBlsPubkey(address)":"059b916c","getCommitteeBlsPubkeys(uint32)":"6ae9942c","getCommitteeValidators(uint32)":"a0201be5","getCurrentEpoch()":"b97dd9e2","getCurrentEpochInfo()":"babc394f","getCurrentStakeConfig()":"7d06fdf8","getCurrentStakeVersion()":"67398331","getEpochInfo(uint32)":"374ed18c","getNextCommitteeSize()":"eb8535c2","getRewards(address)":"79ee54f7","getValidator(address)":"1904bb2e","getValidators(uint8)":"8cc05eda","isApprovedForAll(address,address)":"e985e9c5","isDelegated(address)":"3e28391d","isRetired(address)":"6d3c6275","isValidator(bytes)":"6a926591","issuance()":"863623bb","mint(address)":"6a627842","name()":"06fdde03","owner()":"8da5cb5b","ownerOf(uint256)":"6352211e","pause()":"8456cb59","paused()":"5c975abb","proofOfPossessionMessage(bytes,address)":"6850eb31","renounceOwnership()":"715018a6","safeTransferFrom(address,address,uint256)":"42842e0e","safeTransferFrom(address,address,uint256,bytes)":"b88d4fde","setApprovalForAll(address,bool)":"a22cb465","setNextCommitteeSize(uint16)":"62fcde4b","setValidatorRegion(address,uint8)":"f0624768","stake(bytes,(bytes,bytes))":"b5184324","stakeConfig(uint8)":"a71954ec","supportsInterface(bytes4)":"01ffc9a7","symbol()":"95d89b41","tokenByIndex(uint256)":"4f6ccce7","tokenOfOwnerByIndex(address,uint256)":"2f745c59","tokenURI(uint256)":"c87b56dd","totalSupply()":"18160ddd","transferFrom(address,address,uint256)":"23b872dd","transferOwnership(address)":"f2fde38b","undistributedIssuance()":"008d6acd","unpause()":"3f4ba83a","unstake(address)":"f2888dbb","upgradeStakeVersion((uint256,uint256,uint256,uint32))":"c05df7ac","upgradeValidatorStakeVersion(address,uint8)":"5a41fb1f","validators(address)":"fa52c7d8"},"id":116}