{
  "abi": [
    {
      "type": "constructor",
      "inputs": [
        {
          "name": "genesisConfig_",
          "type": "tuple",
          "internalType": "struct IStakeManager.StakeConfig",
          "components": [
            {
              "name": "stakeAmount",
              "type": "uint256",
              "internalType": "uint256"
            },
            {
              "name": "minWithdrawAmount",
              "type": "uint256",
              "internalType": "uint256"
            },
            {
              "name": "epochIssuance",
              "type": "uint256",
              "internalType": "uint256"
            },
            {
              "name": "epochDuration",
              "type": "uint32",
              "internalType": "uint32"
            }
          ]
        },
        {
          "name": "initialValidators_",
          "type": "tuple[]",
          "internalType": "struct IConsensusRegistry.ValidatorInfo[]",
          "components": [
            {
              "name": "blsPubkey",
              "type": "bytes",
              "internalType": "bytes"
            },
            {
              "name": "validatorAddress",
              "type": "address",
              "internalType": "address"
            },
            {
              "name": "activationEpoch",
              "type": "uint32",
              "internalType": "uint32"
            },
            {
              "name": "exitEpoch",
              "type": "uint32",
              "internalType": "uint32"
            },
            {
              "name": "currentStatus",
              "type": "uint8",
              "internalType": "enum IConsensusRegistry.ValidatorStatus"
            },
            {
              "name": "isRetired",
              "type": "bool",
              "internalType": "bool"
            },
            {
              "name": "isDelegated",
              "type": "bool",
              "internalType": "bool"
            },
            {
              "name": "stakeVersion",
              "type": "uint8",
              "internalType": "uint8"
            }
          ]
        },
        {
          "name": "proofsOfPossession",
          "type": "tuple[]",
          "internalType": "struct BlsG1.ProofOfPossession[]",
          "components": [
            {
              "name": "uncompressedPubkey",
              "type": "bytes",
              "internalType": "bytes"
            },
            {
              "name": "uncompressedSignature",
              "type": "bytes",
              "internalType": "bytes"
            }
          ]
        },
        {
          "name": "owner_",
          "type": "address",
          "internalType": "address"
        }
      ],
      "stateMutability": "nonpayable"
    },
    {
      "type": "function",
      "name": "SYSTEM_ADDRESS",
      "inputs": [],
      "outputs": [
        {
          "name": "",
          "type": "address",
          "internalType": "address"
        }
      ],
      "stateMutability": "view"
    },
    {
      "type": "function",
      "name": "activate",
      "inputs": [],
      "outputs": [],
      "stateMutability": "nonpayable"
    },
    {
      "type": "function",
      "name": "allocateIssuance",
      "inputs": [],
      "outputs": [],
      "stateMutability": "payable"
    },
    {
      "type": "function",
      "name": "applyIncentives",
      "inputs": [
        {
          "name": "rewardInfos",
          "type": "tuple[]",
          "internalType": "struct RewardInfo[]",
          "components": [
            {
              "name": "validatorAddress",
              "type": "address",
              "internalType": "address"
            },
            {
              "name": "consensusHeaderCount",
              "type": "uint256",
              "internalType": "uint256"
            }
          ]
        }
      ],
      "outputs": [],
      "stateMutability": "nonpayable"
    },
    {
      "type": "function",
      "name": "applySlashes",
      "inputs": [
        {
          "name": "slashes",
          "type": "tuple[]",
          "internalType": "struct Slash[]",
          "components": [
            {
              "name": "validatorAddress",
              "type": "address",
              "internalType": "address"
            },
            {
              "name": "amount",
              "type": "uint256",
              "internalType": "uint256"
            }
          ]
        }
      ],
      "outputs": [],
      "stateMutability": "nonpayable"
    },
    {
      "type": "function",
      "name": "approve",
      "inputs": [
        {
          "name": "",
          "type": "address",
          "internalType": "address"
        },
        {
          "name": "",
          "type": "uint256",
          "internalType": "uint256"
        }
      ],
      "outputs": [],
      "stateMutability": "nonpayable"
    },
    {
      "type": "function",
      "name": "balanceOf",
      "inputs": [
        {
          "name": "owner",
          "type": "address",
          "internalType": "address"
        }
      ],
      "outputs": [
        {
          "name": "",
          "type": "uint256",
          "internalType": "uint256"
        }
      ],
      "stateMutability": "view"
    },
    {
      "type": "function",
      "name": "beginExit",
      "inputs": [],
      "outputs": [],
      "stateMutability": "nonpayable"
    },
    {
      "type": "function",
      "name": "burn",
      "inputs": [
        {
          "name": "validatorAddress",
          "type": "address",
          "internalType": "address"
        }
      ],
      "outputs": [],
      "stateMutability": "nonpayable"
    },
    {
      "type": "function",
      "name": "claimStakeRewards",
      "inputs": [
        {
          "name": "validatorAddress",
          "type": "address",
          "internalType": "address"
        }
      ],
      "outputs": [],
      "stateMutability": "nonpayable"
    },
    {
      "type": "function",
      "name": "concludeEpoch",
      "inputs": [
        {
          "name": "futureCommittee",
          "type": "address[]",
          "internalType": "address[]"
        }
      ],
      "outputs": [],
      "stateMutability": "nonpayable"
    },
    {
      "type": "function",
      "name": "delegateStake",
      "inputs": [
        {
          "name": "blsPubkey",
          "type": "bytes",
          "internalType": "bytes"
        },
        {
          "name": "proofOfPossession",
          "type": "tuple",
          "internalType": "struct BlsG1.ProofOfPossession",
          "components": [
            {
              "name": "uncompressedPubkey",
              "type": "bytes",
              "internalType": "bytes"
            },
            {
              "name": "uncompressedSignature",
              "type": "bytes",
              "internalType": "bytes"
            }
          ]
        },
        {
          "name": "validatorAddress",
          "type": "address",
          "internalType": "address"
        },
        {
          "name": "validatorEIP712Signature",
          "type": "bytes",
          "internalType": "bytes"
        }
      ],
      "outputs": [],
      "stateMutability": "payable"
    },
    {
      "type": "function",
      "name": "delegationDigest",
      "inputs": [
        {
          "name": "blsPubkey",
          "type": "bytes",
          "internalType": "bytes"
        },
        {
          "name": "validatorAddress",
          "type": "address",
          "internalType": "address"
        },
        {
          "name": "delegator",
          "type": "address",
          "internalType": "address"
        }
      ],
      "outputs": [
        {
          "name": "",
          "type": "bytes32",
          "internalType": "bytes32"
        }
      ],
      "stateMutability": "view"
    },
    {
      "type": "function",
      "name": "eip712Domain",
      "inputs": [],
      "outputs": [
        {
          "name": "fields",
          "type": "bytes1",
          "internalType": "bytes1"
        },
        {
          "name": "name",
          "type": "string",
          "internalType": "string"
        },
        {
          "name": "version",
          "type": "string",
          "internalType": "string"
        },
        {
          "name": "chainId",
          "type": "uint256",
          "internalType": "uint256"
        },
        {
          "name": "verifyingContract",
          "type": "address",
          "internalType": "address"
        },
        {
          "name": "salt",
          "type": "bytes32",
          "internalType": "bytes32"
        },
        {
          "name": "extensions",
          "type": "uint256[]",
          "internalType": "uint256[]"
        }
      ],
      "stateMutability": "view"
    },
    {
      "type": "function",
      "name": "epochInfo",
      "inputs": [
        {
          "name": "",
          "type": "uint256",
          "internalType": "uint256"
        }
      ],
      "outputs": [
        {
          "name": "epochIssuance",
          "type": "uint256",
          "internalType": "uint256"
        },
        {
          "name": "blockHeight",
          "type": "uint64",
          "internalType": "uint64"
        },
        {
          "name": "epochDuration",
          "type": "uint32",
          "internalType": "uint32"
        },
        {
          "name": "stakeVersion",
          "type": "uint8",
          "internalType": "uint8"
        }
      ],
      "stateMutability": "view"
    },
    {
      "type": "function",
      "name": "futureEpochInfo",
      "inputs": [
        {
          "name": "",
          "type": "uint256",
          "internalType": "uint256"
        }
      ],
      "outputs": [
        {
          "name": "epochIssuance",
          "type": "uint256",
          "internalType": "uint256"
        },
        {
          "name": "blockHeight",
          "type": "uint64",
          "internalType": "uint64"
        },
        {
          "name": "epochDuration",
          "type": "uint32",
          "internalType": "uint32"
        },
        {
          "name": "stakeVersion",
          "type": "uint8",
          "internalType": "uint8"
        }
      ],
      "stateMutability": "view"
    },
    {
      "type": "function",
      "name": "getApproved",
      "inputs": [
        {
          "name": "tokenId",
          "type": "uint256",
          "internalType": "uint256"
        }
      ],
      "outputs": [
        {
          "name": "",
          "type": "address",
          "internalType": "address"
        }
      ],
      "stateMutability": "view"
    },
    {
      "type": "function",
      "name": "getBalanceBreakdown",
      "inputs": [
        {
          "name": "validatorAddress",
          "type": "address",
          "internalType": "address"
        }
      ],
      "outputs": [
        {
          "name": "",
          "type": "uint256",
          "internalType": "uint256"
        },
        {
          "name": "",
          "type": "uint256",
          "internalType": "uint256"
        },
        {
          "name": "",
          "type": "uint256",
          "internalType": "uint256"
        }
      ],
      "stateMutability": "view"
    },
    {
      "type": "function",
      "name": "getCommitteeValidators",
      "inputs": [
        {
          "name": "epoch",
          "type": "uint32",
          "internalType": "uint32"
        }
      ],
      "outputs": [
        {
          "name": "",
          "type": "tuple[]",
          "internalType": "struct IConsensusRegistry.ValidatorInfo[]",
          "components": [
            {
              "name": "blsPubkey",
              "type": "bytes",
              "internalType": "bytes"
            },
            {
              "name": "validatorAddress",
              "type": "address",
              "internalType": "address"
            },
            {
              "name": "activationEpoch",
              "type": "uint32",
              "internalType": "uint32"
            },
            {
              "name": "exitEpoch",
              "type": "uint32",
              "internalType": "uint32"
            },
            {
              "name": "currentStatus",
              "type": "uint8",
              "internalType": "enum IConsensusRegistry.ValidatorStatus"
            },
            {
              "name": "isRetired",
              "type": "bool",
              "internalType": "bool"
            },
            {
              "name": "isDelegated",
              "type": "bool",
              "internalType": "bool"
            },
            {
              "name": "stakeVersion",
              "type": "uint8",
              "internalType": "uint8"
            }
          ]
        }
      ],
      "stateMutability": "view"
    },
    {
      "type": "function",
      "name": "getCurrentEpoch",
      "inputs": [],
      "outputs": [
        {
          "name": "",
          "type": "uint32",
          "internalType": "uint32"
        }
      ],
      "stateMutability": "view"
    },
    {
      "type": "function",
      "name": "getCurrentEpochInfo",
      "inputs": [],
      "outputs": [
        {
          "name": "",
          "type": "tuple",
          "internalType": "struct IConsensusRegistry.EpochInfo",
          "components": [
            {
              "name": "committee",
              "type": "address[]",
              "internalType": "address[]"
            },
            {
              "name": "epochIssuance",
              "type": "uint256",
              "internalType": "uint256"
            },
            {
              "name": "blockHeight",
              "type": "uint64",
              "internalType": "uint64"
            },
            {
              "name": "epochDuration",
              "type": "uint32",
              "internalType": "uint32"
            },
            {
              "name": "stakeVersion",
              "type": "uint8",
              "internalType": "uint8"
            }
          ]
        }
      ],
      "stateMutability": "view"
    },
    {
      "type": "function",
      "name": "getCurrentStakeConfig",
      "inputs": [],
      "outputs": [
        {
          "name": "",
          "type": "tuple",
          "internalType": "struct IStakeManager.StakeConfig",
          "components": [
            {
              "name": "stakeAmount",
              "type": "uint256",
              "internalType": "uint256"
            },
            {
              "name": "minWithdrawAmount",
              "type": "uint256",
              "internalType": "uint256"
            },
            {
              "name": "epochIssuance",
              "type": "uint256",
              "internalType": "uint256"
            },
            {
              "name": "epochDuration",
              "type": "uint32",
              "internalType": "uint32"
            }
          ]
        }
      ],
      "stateMutability": "view"
    },
    {
      "type": "function",
      "name": "getCurrentStakeVersion",
      "inputs": [],
      "outputs": [
        {
          "name": "",
          "type": "uint8",
          "internalType": "uint8"
        }
      ],
      "stateMutability": "view"
    },
    {
      "type": "function",
      "name": "getEpochInfo",
      "inputs": [
        {
          "name": "epoch",
          "type": "uint32",
          "internalType": "uint32"
        }
      ],
      "outputs": [
        {
          "name": "",
          "type": "tuple",
          "internalType": "struct IConsensusRegistry.EpochInfo",
          "components": [
            {
              "name": "committee",
              "type": "address[]",
              "internalType": "address[]"
            },
            {
              "name": "epochIssuance",
              "type": "uint256",
              "internalType": "uint256"
            },
            {
              "name": "blockHeight",
              "type": "uint64",
              "internalType": "uint64"
            },
            {
              "name": "epochDuration",
              "type": "uint32",
              "internalType": "uint32"
            },
            {
              "name": "stakeVersion",
              "type": "uint8",
              "internalType": "uint8"
            }
          ]
        }
      ],
      "stateMutability": "view"
    },
    {
      "type": "function",
      "name": "getRewards",
      "inputs": [
        {
          "name": "validatorAddress",
          "type": "address",
          "internalType": "address"
        }
      ],
      "outputs": [
        {
          "name": "",
          "type": "uint256",
          "internalType": "uint256"
        }
      ],
      "stateMutability": "view"
    },
    {
      "type": "function",
      "name": "getValidator",
      "inputs": [
        {
          "name": "validatorAddress",
          "type": "address",
          "internalType": "address"
        }
      ],
      "outputs": [
        {
          "name": "",
          "type": "tuple",
          "internalType": "struct IConsensusRegistry.ValidatorInfo",
          "components": [
            {
              "name": "blsPubkey",
              "type": "bytes",
              "internalType": "bytes"
            },
            {
              "name": "validatorAddress",
              "type": "address",
              "internalType": "address"
            },
            {
              "name": "activationEpoch",
              "type": "uint32",
              "internalType": "uint32"
            },
            {
              "name": "exitEpoch",
              "type": "uint32",
              "internalType": "uint32"
            },
            {
              "name": "currentStatus",
              "type": "uint8",
              "internalType": "enum IConsensusRegistry.ValidatorStatus"
            },
            {
              "name": "isRetired",
              "type": "bool",
              "internalType": "bool"
            },
            {
              "name": "isDelegated",
              "type": "bool",
              "internalType": "bool"
            },
            {
              "name": "stakeVersion",
              "type": "uint8",
              "internalType": "uint8"
            }
          ]
        }
      ],
      "stateMutability": "view"
    },
    {
      "type": "function",
      "name": "getValidators",
      "inputs": [
        {
          "name": "status",
          "type": "uint8",
          "internalType": "enum IConsensusRegistry.ValidatorStatus"
        }
      ],
      "outputs": [
        {
          "name": "",
          "type": "tuple[]",
          "internalType": "struct IConsensusRegistry.ValidatorInfo[]",
          "components": [
            {
              "name": "blsPubkey",
              "type": "bytes",
              "internalType": "bytes"
            },
            {
              "name": "validatorAddress",
              "type": "address",
              "internalType": "address"
            },
            {
              "name": "activationEpoch",
              "type": "uint32",
              "internalType": "uint32"
            },
            {
              "name": "exitEpoch",
              "type": "uint32",
              "internalType": "uint32"
            },
            {
              "name": "currentStatus",
              "type": "uint8",
              "internalType": "enum IConsensusRegistry.ValidatorStatus"
            },
            {
              "name": "isRetired",
              "type": "bool",
              "internalType": "bool"
            },
            {
              "name": "isDelegated",
              "type": "bool",
              "internalType": "bool"
            },
            {
              "name": "stakeVersion",
              "type": "uint8",
              "internalType": "uint8"
            }
          ]
        }
      ],
      "stateMutability": "view"
    },
    {
      "type": "function",
      "name": "isApprovedForAll",
      "inputs": [
        {
          "name": "owner",
          "type": "address",
          "internalType": "address"
        },
        {
          "name": "operator",
          "type": "address",
          "internalType": "address"
        }
      ],
      "outputs": [
        {
          "name": "",
          "type": "bool",
          "internalType": "bool"
        }
      ],
      "stateMutability": "view"
    },
    {
      "type": "function",
      "name": "isRetired",
      "inputs": [
        {
          "name": "validatorAddress",
          "type": "address",
          "internalType": "address"
        }
      ],
      "outputs": [
        {
          "name": "",
          "type": "bool",
          "internalType": "bool"
        }
      ],
      "stateMutability": "view"
    },
    {
      "type": "function",
      "name": "issuance",
      "inputs": [],
      "outputs": [
        {
          "name": "",
          "type": "address",
          "internalType": "address payable"
        }
      ],
      "stateMutability": "view"
    },
    {
      "type": "function",
      "name": "mint",
      "inputs": [
        {
          "name": "validatorAddress",
          "type": "address",
          "internalType": "address"
        }
      ],
      "outputs": [],
      "stateMutability": "nonpayable"
    },
    {
      "type": "function",
      "name": "name",
      "inputs": [],
      "outputs": [
        {
          "name": "",
          "type": "string",
          "internalType": "string"
        }
      ],
      "stateMutability": "view"
    },
    {
      "type": "function",
      "name": "owner",
      "inputs": [],
      "outputs": [
        {
          "name": "",
          "type": "address",
          "internalType": "address"
        }
      ],
      "stateMutability": "view"
    },
    {
      "type": "function",
      "name": "ownerOf",
      "inputs": [
        {
          "name": "tokenId",
          "type": "uint256",
          "internalType": "uint256"
        }
      ],
      "outputs": [
        {
          "name": "",
          "type": "address",
          "internalType": "address"
        }
      ],
      "stateMutability": "view"
    },
    {
      "type": "function",
      "name": "pause",
      "inputs": [],
      "outputs": [],
      "stateMutability": "nonpayable"
    },
    {
      "type": "function",
      "name": "paused",
      "inputs": [],
      "outputs": [
        {
          "name": "",
          "type": "bool",
          "internalType": "bool"
        }
      ],
      "stateMutability": "view"
    },
    {
      "type": "function",
      "name": "proofOfPossessionMessage",
      "inputs": [
        {
          "name": "blsPubkeyUncompressed",
          "type": "bytes",
          "internalType": "bytes"
        },
        {
          "name": "validatorAddress",
          "type": "address",
          "internalType": "address"
        }
      ],
      "outputs": [
        {
          "name": "",
          "type": "bytes",
          "internalType": "bytes"
        }
      ],
      "stateMutability": "view"
    },
    {
      "type": "function",
      "name": "renounceOwnership",
      "inputs": [],
      "outputs": [],
      "stateMutability": "nonpayable"
    },
    {
      "type": "function",
      "name": "safeTransferFrom",
      "inputs": [
        {
          "name": "from",
          "type": "address",
          "internalType": "address"
        },
        {
          "name": "to",
          "type": "address",
          "internalType": "address"
        },
        {
          "name": "tokenId",
          "type": "uint256",
          "internalType": "uint256"
        }
      ],
      "outputs": [],
      "stateMutability": "nonpayable"
    },
    {
      "type": "function",
      "name": "safeTransferFrom",
      "inputs": [
        {
          "name": "from",
          "type": "address",
          "internalType": "address"
        },
        {
          "name": "to",
          "type": "address",
          "internalType": "address"
        },
        {
          "name": "tokenId",
          "type": "uint256",
          "internalType": "uint256"
        },
        {
          "name": "data",
          "type": "bytes",
          "internalType": "bytes"
        }
      ],
      "outputs": [],
      "stateMutability": "nonpayable"
    },
    {
      "type": "function",
      "name": "setApprovalForAll",
      "inputs": [
        {
          "name": "",
          "type": "address",
          "internalType": "address"
        },
        {
          "name": "",
          "type": "bool",
          "internalType": "bool"
        }
      ],
      "outputs": [],
      "stateMutability": "nonpayable"
    },
    {
      "type": "function",
      "name": "stake",
      "inputs": [
        {
          "name": "blsPubkey",
          "type": "bytes",
          "internalType": "bytes"
        },
        {
          "name": "proofOfPossession",
          "type": "tuple",
          "internalType": "struct BlsG1.ProofOfPossession",
          "components": [
            {
              "name": "uncompressedPubkey",
              "type": "bytes",
              "internalType": "bytes"
            },
            {
              "name": "uncompressedSignature",
              "type": "bytes",
              "internalType": "bytes"
            }
          ]
        }
      ],
      "outputs": [],
      "stateMutability": "payable"
    },
    {
      "type": "function",
      "name": "stakeConfig",
      "inputs": [
        {
          "name": "version",
          "type": "uint8",
          "internalType": "uint8"
        }
      ],
      "outputs": [
        {
          "name": "",
          "type": "tuple",
          "internalType": "struct IStakeManager.StakeConfig",
          "components": [
            {
              "name": "stakeAmount",
              "type": "uint256",
              "internalType": "uint256"
            },
            {
              "name": "minWithdrawAmount",
              "type": "uint256",
              "internalType": "uint256"
            },
            {
              "name": "epochIssuance",
              "type": "uint256",
              "internalType": "uint256"
            },
            {
              "name": "epochDuration",
              "type": "uint32",
              "internalType": "uint32"
            }
          ]
        }
      ],
      "stateMutability": "view"
    },
    {
      "type": "function",
      "name": "supportsInterface",
      "inputs": [
        {
          "name": "interfaceId",
          "type": "bytes4",
          "internalType": "bytes4"
        }
      ],
      "outputs": [
        {
          "name": "",
          "type": "bool",
          "internalType": "bool"
        }
      ],
      "stateMutability": "view"
    },
    {
      "type": "function",
      "name": "symbol",
      "inputs": [],
      "outputs": [
        {
          "name": "",
          "type": "string",
          "internalType": "string"
        }
      ],
      "stateMutability": "view"
    },
    {
      "type": "function",
      "name": "tokenByIndex",
      "inputs": [
        {
          "name": "index",
          "type": "uint256",
          "internalType": "uint256"
        }
      ],
      "outputs": [
        {
          "name": "",
          "type": "uint256",
          "internalType": "uint256"
        }
      ],
      "stateMutability": "view"
    },
    {
      "type": "function",
      "name": "tokenOfOwnerByIndex",
      "inputs": [
        {
          "name": "owner",
          "type": "address",
          "internalType": "address"
        },
        {
          "name": "index",
          "type": "uint256",
          "internalType": "uint256"
        }
      ],
      "outputs": [
        {
          "name": "",
          "type": "uint256",
          "internalType": "uint256"
        }
      ],
      "stateMutability": "view"
    },
    {
      "type": "function",
      "name": "tokenURI",
      "inputs": [
        {
          "name": "tokenId",
          "type": "uint256",
          "internalType": "uint256"
        }
      ],
      "outputs": [
        {
          "name": "",
          "type": "string",
          "internalType": "string"
        }
      ],
      "stateMutability": "view"
    },
    {
      "type": "function",
      "name": "totalSupply",
      "inputs": [],
      "outputs": [
        {
          "name": "",
          "type": "uint256",
          "internalType": "uint256"
        }
      ],
      "stateMutability": "view"
    },
    {
      "type": "function",
      "name": "transferFrom",
      "inputs": [
        {
          "name": "",
          "type": "address",
          "internalType": "address"
        },
        {
          "name": "",
          "type": "address",
          "internalType": "address"
        },
        {
          "name": "",
          "type": "uint256",
          "internalType": "uint256"
        }
      ],
      "outputs": [],
      "stateMutability": "nonpayable"
    },
    {
      "type": "function",
      "name": "transferOwnership",
      "inputs": [
        {
          "name": "newOwner",
          "type": "address",
          "internalType": "address"
        }
      ],
      "outputs": [],
      "stateMutability": "nonpayable"
    },
    {
      "type": "function",
      "name": "unpause",
      "inputs": [],
      "outputs": [],
      "stateMutability": "nonpayable"
    },
    {
      "type": "function",
      "name": "unstake",
      "inputs": [
        {
          "name": "validatorAddress",
          "type": "address",
          "internalType": "address"
        }
      ],
      "outputs": [],
      "stateMutability": "nonpayable"
    },
    {
      "type": "function",
      "name": "upgradeStakeVersion",
      "inputs": [
        {
          "name": "newConfig",
          "type": "tuple",
          "internalType": "struct IStakeManager.StakeConfig",
          "components": [
            {
              "name": "stakeAmount",
              "type": "uint256",
              "internalType": "uint256"
            },
            {
              "name": "minWithdrawAmount",
              "type": "uint256",
              "internalType": "uint256"
            },
            {
              "name": "epochIssuance",
              "type": "uint256",
              "internalType": "uint256"
            },
            {
              "name": "epochDuration",
              "type": "uint32",
              "internalType": "uint32"
            }
          ]
        }
      ],
      "outputs": [
        {
          "name": "",
          "type": "uint8",
          "internalType": "uint8"
        }
      ],
      "stateMutability": "nonpayable"
    },
    {
      "type": "function",
      "name": "validators",
      "inputs": [
        {
          "name": "",
          "type": "address",
          "internalType": "address"
        }
      ],
      "outputs": [
        {
          "name": "blsPubkey",
          "type": "bytes",
          "internalType": "bytes"
        },
        {
          "name": "validatorAddress",
          "type": "address",
          "internalType": "address"
        },
        {
          "name": "activationEpoch",
          "type": "uint32",
          "internalType": "uint32"
        },
        {
          "name": "exitEpoch",
          "type": "uint32",
          "internalType": "uint32"
        },
        {
          "name": "currentStatus",
          "type": "uint8",
          "internalType": "enum IConsensusRegistry.ValidatorStatus"
        },
        {
          "name": "isRetired",
          "type": "bool",
          "internalType": "bool"
        },
        {
          "name": "isDelegated",
          "type": "bool",
          "internalType": "bool"
        },
        {
          "name": "stakeVersion",
          "type": "uint8",
          "internalType": "uint8"
        }
      ],
      "stateMutability": "view"
    },
    {
      "type": "event",
      "name": "Approval",
      "inputs": [
        {
          "name": "owner",
          "type": "address",
          "indexed": true,
          "internalType": "address"
        },
        {
          "name": "approved",
          "type": "address",
          "indexed": true,
          "internalType": "address"
        },
        {
          "name": "tokenId",
          "type": "uint256",
          "indexed": true,
          "internalType": "uint256"
        }
      ],
      "anonymous": false
    },
    {
      "type": "event",
      "name": "ApprovalForAll",
      "inputs": [
        {
          "name": "owner",
          "type": "address",
          "indexed": true,
          "internalType": "address"
        },
        {
          "name": "operator",
          "type": "address",
          "indexed": true,
          "internalType": "address"
        },
        {
          "name": "approved",
          "type": "bool",
          "indexed": false,
          "internalType": "bool"
        }
      ],
      "anonymous": false
    },
    {
      "type": "event",
      "name": "NewEpoch",
      "inputs": [
        {
          "name": "epoch",
          "type": "tuple",
          "indexed": false,
          "internalType": "struct IConsensusRegistry.EpochInfo",
          "components": [
            {
              "name": "committee",
              "type": "address[]",
              "internalType": "address[]"
            },
            {
              "name": "epochIssuance",
              "type": "uint256",
              "internalType": "uint256"
            },
            {
              "name": "blockHeight",
              "type": "uint64",
              "internalType": "uint64"
            },
            {
              "name": "epochDuration",
              "type": "uint32",
              "internalType": "uint32"
            },
            {
              "name": "stakeVersion",
              "type": "uint8",
              "internalType": "uint8"
            }
          ]
        }
      ],
      "anonymous": false
    },
    {
      "type": "event",
      "name": "OwnershipTransferred",
      "inputs": [
        {
          "name": "previousOwner",
          "type": "address",
          "indexed": true,
          "internalType": "address"
        },
        {
          "name": "newOwner",
          "type": "address",
          "indexed": true,
          "internalType": "address"
        }
      ],
      "anonymous": false
    },
    {
      "type": "event",
      "name": "Paused",
      "inputs": [
        {
          "name": "account",
          "type": "address",
          "indexed": false,
          "internalType": "address"
        }
      ],
      "anonymous": false
    },
    {
      "type": "event",
      "name": "RewardsClaimed",
      "inputs": [
        {
          "name": "claimant",
          "type": "address",
          "indexed": false,
          "internalType": "address"
        },
        {
          "name": "rewards",
          "type": "uint256",
          "indexed": false,
          "internalType": "uint256"
        }
      ],
      "anonymous": false
    },
    {
      "type": "event",
      "name": "Transfer",
      "inputs": [
        {
          "name": "from",
          "type": "address",
          "indexed": true,
          "internalType": "address"
        },
        {
          "name": "to",
          "type": "address",
          "indexed": true,
          "internalType": "address"
        },
        {
          "name": "tokenId",
          "type": "uint256",
          "indexed": true,
          "internalType": "uint256"
        }
      ],
      "anonymous": false
    },
    {
      "type": "event",
      "name": "Unpaused",
      "inputs": [
        {
          "name": "account",
          "type": "address",
          "indexed": false,
          "internalType": "address"
        }
      ],
      "anonymous": false
    },
    {
      "type": "event",
      "name": "ValidatorActivated",
      "inputs": [
        {
          "name": "validator",
          "type": "tuple",
          "indexed": false,
          "internalType": "struct IConsensusRegistry.ValidatorInfo",
          "components": [
            {
              "name": "blsPubkey",
              "type": "bytes",
              "internalType": "bytes"
            },
            {
              "name": "validatorAddress",
              "type": "address",
              "internalType": "address"
            },
            {
              "name": "activationEpoch",
              "type": "uint32",
              "internalType": "uint32"
            },
            {
              "name": "exitEpoch",
              "type": "uint32",
              "internalType": "uint32"
            },
            {
              "name": "currentStatus",
              "type": "uint8",
              "internalType": "enum IConsensusRegistry.ValidatorStatus"
            },
            {
              "name": "isRetired",
              "type": "bool",
              "internalType": "bool"
            },
            {
              "name": "isDelegated",
              "type": "bool",
              "internalType": "bool"
            },
            {
              "name": "stakeVersion",
              "type": "uint8",
              "internalType": "uint8"
            }
          ]
        }
      ],
      "anonymous": false
    },
    {
      "type": "event",
      "name": "ValidatorExited",
      "inputs": [
        {
          "name": "validator",
          "type": "tuple",
          "indexed": false,
          "internalType": "struct IConsensusRegistry.ValidatorInfo",
          "components": [
            {
              "name": "blsPubkey",
              "type": "bytes",
              "internalType": "bytes"
            },
            {
              "name": "validatorAddress",
              "type": "address",
              "internalType": "address"
            },
            {
              "name": "activationEpoch",
              "type": "uint32",
              "internalType": "uint32"
            },
            {
              "name": "exitEpoch",
              "type": "uint32",
              "internalType": "uint32"
            },
            {
              "name": "currentStatus",
              "type": "uint8",
              "internalType": "enum IConsensusRegistry.ValidatorStatus"
            },
            {
              "name": "isRetired",
              "type": "bool",
              "internalType": "bool"
            },
            {
              "name": "isDelegated",
              "type": "bool",
              "internalType": "bool"
            },
            {
              "name": "stakeVersion",
              "type": "uint8",
              "internalType": "uint8"
            }
          ]
        }
      ],
      "anonymous": false
    },
    {
      "type": "event",
      "name": "ValidatorPendingActivation",
      "inputs": [
        {
          "name": "validator",
          "type": "tuple",
          "indexed": false,
          "internalType": "struct IConsensusRegistry.ValidatorInfo",
          "components": [
            {
              "name": "blsPubkey",
              "type": "bytes",
              "internalType": "bytes"
            },
            {
              "name": "validatorAddress",
              "type": "address",
              "internalType": "address"
            },
            {
              "name": "activationEpoch",
              "type": "uint32",
              "internalType": "uint32"
            },
            {
              "name": "exitEpoch",
              "type": "uint32",
              "internalType": "uint32"
            },
            {
              "name": "currentStatus",
              "type": "uint8",
              "internalType": "enum IConsensusRegistry.ValidatorStatus"
            },
            {
              "name": "isRetired",
              "type": "bool",
              "internalType": "bool"
            },
            {
              "name": "isDelegated",
              "type": "bool",
              "internalType": "bool"
            },
            {
              "name": "stakeVersion",
              "type": "uint8",
              "internalType": "uint8"
            }
          ]
        }
      ],
      "anonymous": false
    },
    {
      "type": "event",
      "name": "ValidatorPendingExit",
      "inputs": [
        {
          "name": "validator",
          "type": "tuple",
          "indexed": false,
          "internalType": "struct IConsensusRegistry.ValidatorInfo",
          "components": [
            {
              "name": "blsPubkey",
              "type": "bytes",
              "internalType": "bytes"
            },
            {
              "name": "validatorAddress",
              "type": "address",
              "internalType": "address"
            },
            {
              "name": "activationEpoch",
              "type": "uint32",
              "internalType": "uint32"
            },
            {
              "name": "exitEpoch",
              "type": "uint32",
              "internalType": "uint32"
            },
            {
              "name": "currentStatus",
              "type": "uint8",
              "internalType": "enum IConsensusRegistry.ValidatorStatus"
            },
            {
              "name": "isRetired",
              "type": "bool",
              "internalType": "bool"
            },
            {
              "name": "isDelegated",
              "type": "bool",
              "internalType": "bool"
            },
            {
              "name": "stakeVersion",
              "type": "uint8",
              "internalType": "uint8"
            }
          ]
        }
      ],
      "anonymous": false
    },
    {
      "type": "event",
      "name": "ValidatorRetired",
      "inputs": [
        {
          "name": "validator",
          "type": "tuple",
          "indexed": false,
          "internalType": "struct IConsensusRegistry.ValidatorInfo",
          "components": [
            {
              "name": "blsPubkey",
              "type": "bytes",
              "internalType": "bytes"
            },
            {
              "name": "validatorAddress",
              "type": "address",
              "internalType": "address"
            },
            {
              "name": "activationEpoch",
              "type": "uint32",
              "internalType": "uint32"
            },
            {
              "name": "exitEpoch",
              "type": "uint32",
              "internalType": "uint32"
            },
            {
              "name": "currentStatus",
              "type": "uint8",
              "internalType": "enum IConsensusRegistry.ValidatorStatus"
            },
            {
              "name": "isRetired",
              "type": "bool",
              "internalType": "bool"
            },
            {
              "name": "isDelegated",
              "type": "bool",
              "internalType": "bool"
            },
            {
              "name": "stakeVersion",
              "type": "uint8",
              "internalType": "uint8"
            }
          ]
        }
      ],
      "anonymous": false
    },
    {
      "type": "event",
      "name": "ValidatorSlashed",
      "inputs": [
        {
          "name": "slash",
          "type": "tuple",
          "indexed": false,
          "internalType": "struct Slash",
          "components": [
            {
              "name": "validatorAddress",
              "type": "address",
              "internalType": "address"
            },
            {
              "name": "amount",
              "type": "uint256",
              "internalType": "uint256"
            }
          ]
        }
      ],
      "anonymous": false
    },
    {
      "type": "event",
      "name": "ValidatorStaked",
      "inputs": [
        {
          "name": "validator",
          "type": "tuple",
          "indexed": false,
          "internalType": "struct IConsensusRegistry.ValidatorInfo",
          "components": [
            {
              "name": "blsPubkey",
              "type": "bytes",
              "internalType": "bytes"
            },
            {
              "name": "validatorAddress",
              "type": "address",
              "internalType": "address"
            },
            {
              "name": "activationEpoch",
              "type": "uint32",
              "internalType": "uint32"
            },
            {
              "name": "exitEpoch",
              "type": "uint32",
              "internalType": "uint32"
            },
            {
              "name": "currentStatus",
              "type": "uint8",
              "internalType": "enum IConsensusRegistry.ValidatorStatus"
            },
            {
              "name": "isRetired",
              "type": "bool",
              "internalType": "bool"
            },
            {
              "name": "isDelegated",
              "type": "bool",
              "internalType": "bool"
            },
            {
              "name": "stakeVersion",
              "type": "uint8",
              "internalType": "uint8"
            }
          ]
        }
      ],
      "anonymous": false
    },
    {
      "type": "error",
      "name": "AlreadyDefined",
      "inputs": [
        {
          "name": "validatorAddress",
          "type": "address",
          "internalType": "address"
        }
      ]
    },
    {
      "type": "error",
      "name": "CommitteeRequirement",
      "inputs": [
        {
          "name": "validatorAddress",
          "type": "address",
          "internalType": "address"
        }
      ]
    },
    {
      "type": "error",
      "name": "DuplicateBLSPubkey",
      "inputs": []
    },
    {
      "type": "error",
      "name": "ERC721EnumerableForbiddenBatchMint",
      "inputs": []
    },
    {
      "type": "error",
      "name": "ERC721IncorrectOwner",
      "inputs": [
        {
          "name": "sender",
          "type": "address",
          "internalType": "address"
        },
        {
          "name": "tokenId",
          "type": "uint256",
          "internalType": "uint256"
        },
        {
          "name": "owner",
          "type": "address",
          "internalType": "address"
        }
      ]
    },
    {
      "type": "error",
      "name": "ERC721InsufficientApproval",
      "inputs": [
        {
          "name": "operator",
          "type": "address",
          "internalType": "address"
        },
        {
          "name": "tokenId",
          "type": "uint256",
          "internalType": "uint256"
        }
      ]
    },
    {
      "type": "error",
      "name": "ERC721InvalidApprover",
      "inputs": [
        {
          "name": "approver",
          "type": "address",
          "internalType": "address"
        }
      ]
    },
    {
      "type": "error",
      "name": "ERC721InvalidOperator",
      "inputs": [
        {
          "name": "operator",
          "type": "address",
          "internalType": "address"
        }
      ]
    },
    {
      "type": "error",
      "name": "ERC721InvalidOwner",
      "inputs": [
        {
          "name": "owner",
          "type": "address",
          "internalType": "address"
        }
      ]
    },
    {
      "type": "error",
      "name": "ERC721InvalidReceiver",
      "inputs": [
        {
          "name": "receiver",
          "type": "address",
          "internalType": "address"
        }
      ]
    },
    {
      "type": "error",
      "name": "ERC721InvalidSender",
      "inputs": [
        {
          "name": "sender",
          "type": "address",
          "internalType": "address"
        }
      ]
    },
    {
      "type": "error",
      "name": "ERC721NonexistentToken",
      "inputs": [
        {
          "name": "tokenId",
          "type": "uint256",
          "internalType": "uint256"
        }
      ]
    },
    {
      "type": "error",
      "name": "ERC721OutOfBoundsIndex",
      "inputs": [
        {
          "name": "owner",
          "type": "address",
          "internalType": "address"
        },
        {
          "name": "index",
          "type": "uint256",
          "internalType": "uint256"
        }
      ]
    },
    {
      "type": "error",
      "name": "EnforcedPause",
      "inputs": []
    },
    {
      "type": "error",
      "name": "ExpectedPause",
      "inputs": []
    },
    {
      "type": "error",
      "name": "GenesisArityMismatch",
      "inputs": []
    },
    {
      "type": "error",
      "name": "IneligibleUnstake",
      "inputs": [
        {
          "name": "validator",
          "type": "tuple",
          "internalType": "struct IConsensusRegistry.ValidatorInfo",
          "components": [
            {
              "name": "blsPubkey",
              "type": "bytes",
              "internalType": "bytes"
            },
            {
              "name": "validatorAddress",
              "type": "address",
              "internalType": "address"
            },
            {
              "name": "activationEpoch",
              "type": "uint32",
              "internalType": "uint32"
            },
            {
              "name": "exitEpoch",
              "type": "uint32",
              "internalType": "uint32"
            },
            {
              "name": "currentStatus",
              "type": "uint8",
              "internalType": "enum IConsensusRegistry.ValidatorStatus"
            },
            {
              "name": "isRetired",
              "type": "bool",
              "internalType": "bool"
            },
            {
              "name": "isDelegated",
              "type": "bool",
              "internalType": "bool"
            },
            {
              "name": "stakeVersion",
              "type": "uint8",
              "internalType": "uint8"
            }
          ]
        }
      ]
    },
    {
      "type": "error",
      "name": "InsufficientRewards",
      "inputs": [
        {
          "name": "withdrawAmount",
          "type": "uint256",
          "internalType": "uint256"
        }
      ]
    },
    {
      "type": "error",
      "name": "InvalidBLSPubkey",
      "inputs": []
    },
    {
      "type": "error",
      "name": "InvalidCommitteeSize",
      "inputs": [
        {
          "name": "minCommitteeSize",
          "type": "uint256",
          "internalType": "uint256"
        },
        {
          "name": "providedCommitteeSize",
          "type": "uint256",
          "internalType": "uint256"
        }
      ]
    },
    {
      "type": "error",
      "name": "InvalidDuration",
      "inputs": [
        {
          "name": "duration",
          "type": "uint32",
          "internalType": "uint32"
        }
      ]
    },
    {
      "type": "error",
      "name": "InvalidEpoch",
      "inputs": [
        {
          "name": "epoch",
          "type": "uint32",
          "internalType": "uint32"
        }
      ]
    },
    {
      "type": "error",
      "name": "InvalidProofOfPossession",
      "inputs": [
        {
          "name": "proof",
          "type": "tuple",
          "internalType": "struct BlsG1.ProofOfPossession",
          "components": [
            {
              "name": "uncompressedPubkey",
              "type": "bytes",
              "internalType": "bytes"
            },
            {
              "name": "uncompressedSignature",
              "type": "bytes",
              "internalType": "bytes"
            }
          ]
        },
        {
          "name": "message",
          "type": "bytes",
          "internalType": "bytes"
        }
      ]
    },
    {
      "type": "error",
      "name": "InvalidStakeAmount",
      "inputs": [
        {
          "name": "stakeAmount",
          "type": "uint256",
          "internalType": "uint256"
        }
      ]
    },
    {
      "type": "error",
      "name": "InvalidStatus",
      "inputs": [
        {
          "name": "status",
          "type": "uint8",
          "internalType": "enum IConsensusRegistry.ValidatorStatus"
        }
      ]
    },
    {
      "type": "error",
      "name": "InvalidSupply",
      "inputs": []
    },
    {
      "type": "error",
      "name": "InvalidTokenId",
      "inputs": [
        {
          "name": "tokenId",
          "type": "uint256",
          "internalType": "uint256"
        }
      ]
    },
    {
      "type": "error",
      "name": "InvalidValidatorAddress",
      "inputs": []
    },
    {
      "type": "error",
      "name": "NotRecipient",
      "inputs": [
        {
          "name": "recipient",
          "type": "address",
          "internalType": "address"
        }
      ]
    },
    {
      "type": "error",
      "name": "NotTransferable",
      "inputs": []
    },
    {
      "type": "error",
      "name": "NotValidator",
      "inputs": [
        {
          "name": "validatorAddress",
          "type": "address",
          "internalType": "address"
        }
      ]
    },
    {
      "type": "error",
      "name": "OnlySystemCall",
      "inputs": [
        {
          "name": "invalidCaller",
          "type": "address",
          "internalType": "address"
        }
      ]
    },
    {
      "type": "error",
      "name": "OwnableInvalidOwner",
      "inputs": [
        {
          "name": "owner",
          "type": "address",
          "internalType": "address"
        }
      ]
    },
    {
      "type": "error",
      "name": "OwnableUnauthorizedAccount",
      "inputs": [
        {
          "name": "account",
          "type": "address",
          "internalType": "address"
        }
      ]
    },
    {
      "type": "error",
      "name": "Reentrancy",
      "inputs": []
    },
    {
      "type": "error",
      "name": "RequiresConsensusNFT",
      "inputs": []
    },
    {
      "type": "error",
      "name": "StringsInsufficientHexLength",
      "inputs": [
        {
          "name": "value",
          "type": "uint256",
          "internalType": "uint256"
        },
        {
          "name": "length",
          "type": "uint256",
          "internalType": "uint256"
        }
      ]
    }
  ],
  "bytecode": {
    "object": "0x610120604052348015610010575f80fd5b50604051617f9a380380617f9a83398101604081905261002f916114f9565b806040518060400160405280600c81526020016b10dbdb9cd95b9cdd5cd3919560a21b8152506040518060400160405280600481526020016310d3919560e21b8152508181815f90816100829190611639565b50600161008f8282611639565b505030608052504660a0526060806100ef604080518082018252601481527f54656c636f696e205374616b654d616e61676572000000000000000000000000602080830191909152825180840190935260018352603160f81b9083015291565b815160209283012081519183019190912060c082905260e0819052604080517f8b73c3c69bb8fe3d512ecc4cf759cc79239f7b179b0ffacaa9a75d522b39400f8152938401929092529082015246606082015230608082015260a09020610100525050506001600160a01b038216905061018357604051631e4fbdf760e01b81525f60048201526024015b60405180910390fd5b61018c81610971565b508251158061019d57508151835114155b156101bb57604051633aa3e03360e01b815260040160405180910390fd5b5f808052600b602090815285517fdf7de25b7f1fd6d0b5205f0e18f1f35bd7b8d84cce336588d184533ce43a6f76558501517fdf7de25b7f1fd6d0b5205f0e18f1f35bd7b8d84cce336588d184533ce43a6f775560408501517fdf7de25b7f1fd6d0b5205f0e18f1f35bd7b8d84cce336588d184533ce43a6f785560608501517fdf7de25b7f1fd6d0b5205f0e18f1f35bd7b8d84cce336588d184533ce43a6f79805463ffffffff191663ffffffff9092169190911790555b600281116102dc575f600f8260048110610290576102906116f3565b60030201905085606001518160020160086101000a81548163ffffffff021916908363ffffffff1602179055508560400151816001018190555050806102d59061171b565b9050610274565b505f5b8351811015610967575f8482815181106102fb576102fb6116f3565b602002602001015190505f61033685848151811061031b5761031b6116f3565b60200260200101515f015183602001516109ca60201b60201c565b90505f73__$2ef4e8110a3eaa1255da7f08f8eebcbf5a$__63a691a08b878681518110610365576103656116f3565b60200260200101515f01516040518263ffffffff1660e01b815260040161038c9190611761565b5f60405180830381865af41580156103a6573d5f803e3d5ffd5b505050506040513d5f823e601f3d908101601f191682016040526103cd919081019061177a565b90505f73__$2ef4e8110a3eaa1255da7f08f8eebcbf5a$__633d2a9e118887815181106103fc576103fc6116f3565b6020026020010151602001516040518263ffffffff1660e01b81526004016104249190611761565b5f60405180830381865af415801561043e573d5f803e3d5ffd5b505050506040513d5f823e601f3d908101601f19168201604052610465919081019061177a565b604051634f98273b60e01b815290915073__$2ef4e8110a3eaa1255da7f08f8eebcbf5a$__90634f98273b906104a3908590859088906004016117ab565b602060405180830381865af41580156104be573d5f803e3d5ffd5b505050506040513d601f19601f820116820180604052508101906104e291906117ed565b6104ff576040516333a234f960e11b815260040160405180910390fd5b60208401516001600160a01b031661052a5760405163713ce51160e01b815260040160405180910390fd5b604084015163ffffffff1615610561576040808501519051634fadd4d360e11b815263ffffffff909116600482015260240161017a565b606084015163ffffffff1615610598576060840151604051634fadd4d360e11b815263ffffffff909116600482015260240161017a565b6003846080015160068111156105b0576105b0611806565b146105d4578360800151604051633ba7bf8960e11b815260040161017a919061183a565b60a0840151156105fa576005604051633ba7bf8960e11b815260040161017a919061183a565b60c084015115156001036106d3576040805160a08101825285518051602091820120825280870180516001600160a01b039081168385019081528b82168587019081525f60608701818152600160808901818152965186168352600d90975297902095518655905193850180546001600160a01b0319169483169490941790935591516002909301805494519151939092166001600160a81b031990941693909317600160a01b60ff9094169390930292909217600160a81b600160e81b031916600160a81b6001600160401b03909216919091021790555b60e084015160ff16156107045760e084015160405163222d164360e21b815260ff909116600482015260240161017a565b5f5b600281116107c257600f8160048110610721576107216116f3565b6020878101516003929092029290920180546001810182555f91825292902090910180546001600160a01b0319166001600160a01b03909216919091179055601b8160048110610773576107736116f3565b6020878101516003929092029290920180546001810182555f91825292902090910180546001600160a01b0319166001600160a01b039092169190911790556107bb8161171b565b9050610706565b506020808501516001600160a01b03165f908152602790915260409020845185919081906107f09082611639565b5060208201516001820180546040850151606086015163ffffffff908116600160c01b0263ffffffff60c01b1991909216600160a01b026001600160c01b03199093166001600160a01b0390951694909417919091179283168117825560808501519260ff60e01b1990911664ffffffffff60c01b1990911617600160e01b83600681111561088157610881611806565b021790555060a08201516001909101805460c084015160e09094015160ff16600160f81b026001600160f81b03941515600160f01b0260ff60f01b19941515600160e81b029490941661ffff60e81b199092169190911792909217929092161790558851602080860180516001600160a01b03165f908152600c909252604090912091909155516109219061091c816001600160a01b031690565b610b18565b7f31845bad1fcdd92490e8d85605449863a562ea940e37b380a276e440683fdb72846040516109509190611848565b60405180910390a1505050508060010190506102df565b5050505050611976565b600e80546001600160a01b03838116610100818102610100600160a81b031985161790945560405193909204169182907f8be0079c531659141344cd1fd0a4f28419497f9722a3daafe3b4186f6b6457e0905f90a35050565b60605f73__$2ef4e8110a3eaa1255da7f08f8eebcbf5a$__63a691a08b856040518263ffffffff1660e01b8152600401610a049190611761565b5f60405180830381865af4158015610a1e573d5f803e3d5ffd5b505050506040513d5f823e601f3d908101601f19168201604052610a45919081019061177a565b6040516329bd7cc960e21b815290915073__$2ef4e8110a3eaa1255da7f08f8eebcbf5a$__9063a6f5f32490610a7f908490600401611761565b602060405180830381865af4158015610a9a573d5f803e3d5ffd5b505050506040513d601f19601f82011682018060405250810190610abe91906117ed565b610adb576040516333a234f960e11b815260040160405180910390fd5b604051610aff9061d50160d81b908690600560fa1b90606088901b906020016118e7565b6040516020818303038152906040529150505b92915050565b6001600160a01b038216610b4157604051633250574960e11b81525f600482015260240161017a565b5f610b4d838383610b7e565b90506001600160a01b03811615610b79576040516339e3563760e11b81525f600482015260240161017a565b505050565b5f80610b8b858585610c51565b90506001600160a01b038116610be757610be284600880545f838152600960205260408120829055600182018355919091527ff3f7a9fe364faab93b216da50a3214154f22a0a2b415b23a84c8169e8b636ee30155565b610c0a565b846001600160a01b0316816001600160a01b031614610c0a57610c0a8185610d43565b6001600160a01b038516610c2657610c2184610dc0565b610c49565b846001600160a01b0316816001600160a01b031614610c4957610c498585610e67565b949350505050565b5f828152600260205260408120546001600160a01b0390811690831615610c7d57610c7d818486610eb5565b6001600160a01b03811615610cb757610c985f858180610f19565b6001600160a01b0381165f90815260036020526040902080545f190190555b6001600160a01b03851615610ce5576001600160a01b0385165f908152600360205260409020805460010190555b5f8481526002602052604080822080546001600160a01b0319166001600160a01b0389811691821790925591518793918516917fddf252ad1be2c89b69c2b068fc378daa952ba7f163c4a11628f55a4df523b3ef91a4949350505050565b5f610d4d8361103b565b5f838152600760209081526040808320546001600160a01b0388168452600690925290912091925090818314610da2575f83815260208281526040808320548584528184208190558352600790915290208290555b5f938452600760209081526040808620869055938552525081205550565b6008545f90610dd19060019061194f565b5f8381526009602052604081205460088054939450909284908110610df857610df86116f3565b905f5260205f20015490508060088381548110610e1757610e176116f3565b5f918252602080832090910192909255828152600990915260408082208490558582528120556008805480610e4e57610e4e611962565b600190038181905f5260205f20015f9055905550505050565b5f6001610e738461103b565b610e7d919061194f565b6001600160a01b039093165f908152600660209081526040808320868452825280832085905593825260079052919091209190915550565b610ec0838383611080565b610b79576001600160a01b038316610eee57604051637e27328960e01b81526004810182905260240161017a565b60405163177e802f60e01b81526001600160a01b03831660048201526024810182905260440161017a565b8080610f2d57506001600160a01b03821615155b1561100c575f610f3c84611100565b90506001600160a01b03831615801590610f685750826001600160a01b0316816001600160a01b031614155b8015610f9957506001600160a01b038082165f9081526005602090815260408083209387168352929052205460ff16155b15610fc25760405163a9fbf51f60e01b81526001600160a01b038416600482015260240161017a565b811561100a5783856001600160a01b0316826001600160a01b03167f8c5be1e5ebec7d5bd14f71427d1e84f3dd0314c0f7b2291e5b200ac8c7c3b92560405160405180910390a45b505b50505f90815260046020526040902080546001600160a01b0319166001600160a01b0392909216919091179055565b5f6001600160a01b038216611065576040516322718ad960e21b81525f600482015260240161017a565b506001600160a01b03165f9081526003602052604090205490565b5f6001600160a01b03831615801590610c495750826001600160a01b0316846001600160a01b031614806110d857506001600160a01b038085165f9081526005602090815260408083209387168352929052205460ff165b80610c495750505f908152600460205260409020546001600160a01b03908116911614919050565b5f818152600260205260408120546001600160a01b031680610b1257604051637e27328960e01b81526004810184905260240161017a565b634e487b7160e01b5f52604160045260245ffd5b60405161010081016001600160401b038111828210171561116f5761116f611138565b60405290565b604080519081016001600160401b038111828210171561116f5761116f611138565b604051608081016001600160401b038111828210171561116f5761116f611138565b604051601f8201601f191681016001600160401b03811182821017156111e1576111e1611138565b604052919050565b805163ffffffff811681146111fc575f80fd5b919050565b5f6001600160401b0382111561121957611219611138565b5060051b60200190565b5f82601f830112611232575f80fd5b81516001600160401b0381111561124b5761124b611138565b61125e601f8201601f19166020016111b9565b818152846020838601011115611272575f80fd5b8160208501602083015e5f918101602001919091529392505050565b80516001600160a01b03811681146111fc575f80fd5b8051600781106111fc575f80fd5b805180151581146111fc575f80fd5b805160ff811681146111fc575f80fd5b5f82601f8301126112e0575f80fd5b81516112f36112ee82611201565b6111b9565b8082825260208201915060208360051b860101925085831115611314575f80fd5b602085015b838110156114055780516001600160401b03811115611336575f80fd5b8601610100818903601f1901121561134c575f80fd5b61135461114c565b60208201516001600160401b0381111561136c575f80fd5b61137b8a602083860101611223565b82525061138a6040830161128e565b602082015261139b606083016111e9565b60408201526113ac608083016111e9565b60608201526113bd60a083016112a4565b60808201526113ce60c083016112b2565b60a08201526113df60e083016112b2565b60c08201526113f161010083016112c1565b60e082015284525060209283019201611319565b5095945050505050565b5f82601f83011261141e575f80fd5b815161142c6112ee82611201565b8082825260208201915060208360051b86010192508583111561144d575f80fd5b602085015b838110156114055780516001600160401b0381111561146f575f80fd5b86016040818903601f19011215611484575f80fd5b61148c611175565b60208201516001600160401b038111156114a4575f80fd5b6114b38a602083860101611223565b82525060408201516001600160401b038111156114ce575f80fd5b6114dd8a602083860101611223565b6020830152508085525050602083019250602081019050611452565b5f805f8084860360e081121561150d575f80fd5b608081121561151a575f80fd5b50611523611197565b855181526020808701519082015260408087015190820152611547606087016111e9565b606082015260808601519094506001600160401b03811115611567575f80fd5b611573878288016112d1565b60a087015190945090506001600160401b03811115611590575f80fd5b61159c8782880161140f565b9250506115ab60c0860161128e565b905092959194509250565b600181811c908216806115ca57607f821691505b6020821081036115e857634e487b7160e01b5f52602260045260245ffd5b50919050565b601f821115610b7957805f5260205f20601f840160051c810160208510156116135750805b601f840160051c820191505b81811015611632575f815560010161161f565b5050505050565b81516001600160401b0381111561165257611652611138565b6116668161166084546115b6565b846115ee565b6020601f821160018114611698575f83156116815750848201515b5f19600385901b1c1916600184901b178455611632565b5f84815260208120601f198516915b828110156116c757878501518255602094850194600190920191016116a7565b50848210156116e457868401515f19600387901b60f8161c191681555b50505050600190811b01905550565b634e487b7160e01b5f52603260045260245ffd5b634e487b7160e01b5f52601160045260245ffd5b5f6001820161172c5761172c611707565b5060010190565b5f81518084528060208401602086015e5f602082860101526020601f19601f83011685010191505092915050565b602081525f6117736020830184611733565b9392505050565b5f6020828403121561178a575f80fd5b81516001600160401b0381111561179f575f80fd5b610c4984828501611223565b606081525f6117bd6060830186611733565b82810360208401526117cf8186611733565b905082810360408401526117e38185611733565b9695505050505050565b5f602082840312156117fd575f80fd5b611773826112b2565b634e487b7160e01b5f52602160045260245ffd5b6007811061183657634e487b7160e01b5f52602160045260245ffd5b9052565b60208101610b12828461181a565b602081525f82516101006020840152611865610120840182611733565b905060018060a01b03602085015116604084015263ffffffff604085015116606084015260608401516118a0608085018263ffffffff169052565b5060808401516118b360a085018261181a565b5060a084015180151560c08501525060c084015180151560e08501525060e084015160ff8116610100850152509392505050565b6001600160d81b03198516815283515f908060208701600585015e7fff00000000000000000000000000000000000000000000000000000000000000949094169190930160058101919091526001600160601b0319919091166006820152601a019392505050565b81810381811115610b1257610b12611707565b634e487b7160e01b5f52603160045260245ffd5b60805160a05160c05160e051610100516165e76119b35f395f613a2901525f613ae301525f613abd01525f613a6d01525f613a4a01526165e75ff3fe608060405260043610610341575f3560e01c80636d3c6275116101bd578063a0201be5116100f2578063c05df7ac11610092578063e985e9c51161006d578063e985e9c5146109e1578063f2888dbb14610a00578063f2fde38b14610a1f578063fa52c7d814610a3e575f80fd5b8063c05df7ac14610984578063c87b56dd146109a3578063e3716d04146109c2575f80fd5b8063b5184324116100cd578063b51843241461090d578063b88d4fde14610920578063b97dd9e21461093f578063babc394f14610970575f80fd5b8063a0201be5146108b5578063a22cb465146108d4578063a71954ec146108ee575f80fd5b806384b0196e1161015d5780638bb43f3a116101385780638bb43f3a146108405780638cc05eda146108535780638da5cb5b1461087f57806395d89b41146108a1575f80fd5b806384b0196e146107d3578063863623bb146107fa57806389afcb4414610821575f80fd5b806379ee54f71161019857806379ee54f7146107345780637b55a300146107535780637d06fdf8146107725780638456cb59146107bf575f80fd5b80636d3c6275146106e257806370a0823114610701578063715018a614610720575f80fd5b80632f745c59116102935780634f6ccce7116102335780636352211e1161020e5780636352211e1461065f578063673983311461067e5780636850eb31146106a45780636a627842146106c3575f80fd5b80634f6ccce71461060a57806359ca93b6146106295780635c975abb14610648575f80fd5b8063374ed18c1161026e578063374ed18c146105565780633894228e146105825780633f4ba83a146105d757806342842e0e146105eb575f80fd5b80632f745c59146105155780633434735f14610534578063355811a71461054e575f80fd5b80630f15f4c0116102fe5780631904bb2e116102d95780631904bb2e1461049c5780632228dfa0146104c857806323b872dd146104dc5780632b9f4985146104f6575f80fd5b80630f15f4c01461043057806315b5709a1461044457806318160ddd1461047e575f80fd5b806301ffc9a71461034557806302ae337b1461037957806306fdde031461039a578063081812fc146103bb578063095ea7b3146103f25780630a36cdef14610411575b5f80fd5b348015610350575f80fd5b5061036461035f366004614f7c565b610a71565b60405190151581526020015b60405180910390f35b348015610384575f80fd5b50610398610393366004614fde565b610a9b565b005b3480156103a5575f80fd5b506103ae610bf1565b604051610370919061504a565b3480156103c6575f80fd5b506103da6103d536600461505c565b610c80565b6040516001600160a01b039091168152602001610370565b3480156103fd575f80fd5b5061039861040c366004615089565b610ca7565b34801561041c575f80fd5b5061039861042b366004614fde565b610cc0565b34801561043b575f80fd5b50610398610edd565b34801561044f575f80fd5b5061046361045e3660046150b1565b610f26565b60408051938452602084019290925290820152606001610370565b348015610489575f80fd5b506008545b604051908152602001610370565b3480156104a7575f80fd5b506104bb6104b63660046150b1565b610f8f565b604051610370919061519f565b3480156104d3575f80fd5b506103986110f9565b3480156104e7575f80fd5b5061039861040c3660046151b1565b348015610501575f80fd5b506103986105103660046150b1565b6111be565b348015610520575f80fd5b5061048e61052f366004615089565b6112da565b34801561053f575f80fd5b506103da6002600160a01b0381565b61039861133d565b348015610561575f80fd5b506105756105703660046151fc565b6113e5565b6040516103709190615217565b34801561058d575f80fd5b506105a161059c36600461505c565b61156e565b604080519485526001600160401b03909316602085015263ffffffff9091169183019190915260ff166060820152608001610370565b3480156105e2575f80fd5b506103986115b5565b3480156105f6575f80fd5b506103986106053660046151b1565b6115c7565b348015610615575f80fd5b5061048e61062436600461505c565b6115e1565b348015610634575f80fd5b506105a161064336600461505c565b611636565b348015610653575f80fd5b50600e5460ff16610364565b34801561066a575f80fd5b506103da61067936600461505c565b611645565b348015610689575f80fd5b5061069261164f565b60405160ff9091168152602001610370565b3480156106af575f80fd5b506103ae6106be366004615376565b611661565b3480156106ce575f80fd5b506103986106dd3660046150b1565b6117ae565b3480156106ed575f80fd5b506103646106fc3660046150b1565b61180c565b34801561070c575f80fd5b5061048e61071b3660046150b1565b611896565b34801561072b575f80fd5b506103986118db565b34801561073f575f80fd5b5061048e61074e3660046150b1565b6118ec565b34801561075e575f80fd5b5061039861076d3660046153c0565b611931565b34801561077d575f80fd5b50610786611a54565b604051610370919081518152602080830151908201526040808301519082015260609182015163ffffffff169181019190915260800190565b3480156107ca575f80fd5b50610398611ad1565b3480156107de575f80fd5b506107e7611ae1565b604051610370979695949392919061542f565b348015610805575f80fd5b506103da7307a07a07a07a07a07a07a07a07a07a07a07a07a081565b34801561082c575f80fd5b5061039861083b3660046150b1565b611b48565b61039861084e36600461558f565b611bfb565b34801561085e575f80fd5b5061087261086d366004615636565b61202b565b6040516103709190615654565b34801561088a575f80fd5b50600e5461010090046001600160a01b03166103da565b3480156108ac575f80fd5b506103ae612069565b3480156108c0575f80fd5b506108726108cf3660046151fc565b612078565b3480156108df575f80fd5b5061039861040c3660046156c4565b3480156108f9575f80fd5b506107866109083660046156f9565b612139565b61039861091b366004615719565b6121b3565b34801561092b575f80fd5b5061039861093a366004615780565b6123e2565b34801561094a575f80fd5b50600e54600160a81b900463ffffffff1660405163ffffffff9091168152602001610370565b34801561097b575f80fd5b506105756123fa565b34801561098f575f80fd5b5061069261099e3660046157e3565b6124f1565b3480156109ae575f80fd5b506103ae6109bd36600461505c565b6125a7565b3480156109cd575f80fd5b5061048e6109dc3660046157fc565b612617565b3480156109ec575f80fd5b506103646109fb366004615855565b6126d1565b348015610a0b575f80fd5b50610398610a1a3660046150b1565b6126fe565b348015610a2a575f80fd5b50610398610a393660046150b1565b612826565b348015610a49575f80fd5b50610a5d610a583660046150b1565b612860565b60405161037098979695949392919061587d565b5f6001600160e01b0319821663780e9d6360e01b1480610a955750610a958261294e565b92915050565b336002600160a01b0314610ac957604051637eb3357160e01b81523360048201526024015b60405180910390fd5b5f5b81811015610bec5736838383818110610ae657610ae66158e5565b604002919091019150610b0190506106fc60208301836150b1565b15610b0c5750610be4565b60208101803590600c905f90610b2290856150b1565b6001600160a01b03166001600160a01b031681526020019081526020015f20541115610b965760208101803590600c905f90610b5e90856150b1565b6001600160a01b03166001600160a01b031681526020019081526020015f205f828254610b8b919061590d565b90915550610bab9050565b610bab610ba660208301836150b1565b61299d565b7f11a09f9b32440d896abff7453bf53f8b26ffcb18dae4dca227f7a76e2acc3a6481604051610bda9190615920565b60405180910390a1505b600101610acb565b505050565b60605f8054610bff90615949565b80601f0160208091040260200160405190810160405280929190818152602001828054610c2b90615949565b8015610c765780601f10610c4d57610100808354040283529160200191610c76565b820191905f5260205f20905b815481529060010190602001808311610c5957829003601f168201915b5050505050905090565b5f610c8a82612b1d565b505f828152600460205260409020546001600160a01b0316610a95565b60405163dc8d8db760e01b815260040160405180910390fd5b336002600160a01b0314610ce957604051637eb3357160e01b8152336004820152602401610ac0565b5f80826001600160401b03811115610d0357610d036152ba565b604051908082528060200260200182016040528015610d2c578160200160208202803683370190505b5090505f5b83811015610e135736858583818110610d4c57610d4c6158e5565b905060400201905080602001355f03610d655750610e0b565b610d756106fc60208301836150b1565b15610d805750610e0b565b5f602781610d9160208501856150b1565b6001600160a01b0316815260208082019290925260409081015f90812060010154600160f81b900460ff16808252600b8452918120549193509091610dd99085013583615981565b9050610de58188615998565b965080868681518110610dfa57610dfa6158e5565b602002602001018181525050505050505b600101610d31565b50815f03610e215750505050565b5f610e2a6123fa565b6020015190505f5b84811015610ed4575f84848381518110610e4e57610e4e6158e5565b602002602001015184610e619190615981565b610e6b91906159bf565b905080600c5f898986818110610e8357610e836158e5565b610e9992602060409092020190810191506150b1565b6001600160a01b03166001600160a01b031681526020019081526020015f205f828254610ec69190615998565b909155505050600101610e32565b505050505b5050565b610ee5612b55565b610eee33612b79565b50610efa336001612be7565b335f908152602760205260409020600e54610f23908290600160a81b900463ffffffff16612c50565b50565b6001600160a01b0381165f90815260276020908152604080832060010154600160f81b900460ff16808452600b9092528220548291829182610f688783612cd0565b6001600160a01b03979097165f908152600c60205260409020549791969550909350505050565b610f97614ead565b610fa082612b79565b506001600160a01b0382165f908152602760205260409081902081516101008101909252805482908290610fd390615949565b80601f0160208091040260200160405190810160405280929190818152602001828054610fff90615949565b801561104a5780601f106110215761010080835404028352916020019161104a565b820191905f5260205f20905b81548152906001019060200180831161102d57829003601f168201915b505050918352505060018201546001600160a01b038116602083015263ffffffff600160a01b820481166040840152600160c01b820416606083015260809091019060ff600160e01b9091041660068111156110a8576110a86150ca565b60068111156110b9576110b96150ca565b81526001919091015460ff600160e81b8204811615156020840152600160f01b8204811615156040840152600160f81b9091041660609091015292915050565b611101612b55565b61110a33612b79565b505f6111166003612d09565b51600e549091505f90600f90600160c81b900460ff166004811061113c5761113c6158e5565b6003020154905061114d8282612fb9565b611158336003612be7565b335f908152602760205260409020600e54600182015463ffffffff600160a81b909204821691600160a01b909104168110156111af57604051634fadd4d360e11b815263ffffffff82166004820152602401610ac0565b6111b882612ff6565b50505050565b6111c6612b55565b3068929eee149b4bd2126854036111e45763ab143c065f526004601cfd5b3068929eee149b4bd21268556111f981612b79565b506001600160a01b0381165f90815260276020526040812060010154600160f81b900460ff16906112298361304e565b9050336001600160a01b0384161480159061124d5750336001600160a01b03821614155b156112765760405163172b4e7560e11b81526001600160a01b0382166004820152602401610ac0565b5f61128284838561307d565b604080516001600160a01b0385168152602081018390529192507ffc30cddea38e2bf4d6ea7d3f9ed3b6ad7f176419f4963bd81318067a4aee73fe91015b60405180910390a15050503868929eee149b4bd212685550565b5f6112e483611896565b82106113155760405163295f44f760e21b81526001600160a01b038416600482015260248101839052604401610ac0565b506001600160a01b03919091165f908152600660209081526040808320938352929052205490565b611345613132565b6040515f907307a07a07a07a07a07a07a07a07a07a07a07a07a09034908381818185875af1925050503d805f8114611398576040519150601f19603f3d011682016040523d82523d5f602084013e61139d565b606091505b5050905080610f235760405162461bcd60e51b815260206004820152601460248201527324b6b837b9b9b4b136329031b7b73234ba34b7b760611b6044820152606401610ac0565b6040805160a08101825260608082525f6020830181905292820183905281018290526080810191909152600e54600160a81b900463ffffffff1661142a8160026159d2565b63ffffffff168363ffffffff16118061146a575060038163ffffffff161015801561146a575061145b6003826159ee565b63ffffffff168363ffffffff16105b1561149057604051634fadd4d360e11b815263ffffffff84166004820152602401610ac0565b600e54600160c81b900460ff1663ffffffff8281169085161115611563576114b9848383613165565b60408051825460c0602082028301810190935260a08201818152919392849291849184018282801561151257602002820191905f5260205f20905b81546001600160a01b031681526001909101906020018083116114f4575b5050509183525050600182015460208201526002909101546001600160401b0381166040830152600160401b810463ffffffff166060830152600160601b900460ff16608090910152949350505050565b6114b98483836131ad565b600f816004811061157d575f80fd5b6003020160018101546002909101549091506001600160401b03811690600160401b810463ffffffff1690600160601b900460ff1684565b6115bd613132565b6115c5613204565b565b610bec83838360405180602001604052805f8152506123e2565b5f6115eb60085490565b82106116135760405163295f44f760e21b81525f600482015260248101839052604401610ac0565b60088281548110611626576116266158e5565b905f5260205f2001549050919050565b601b816004811061157d575f80fd5b5f610a9582612b1d565b5f6116586123fa565b60800151905090565b60605f73__$2ef4e8110a3eaa1255da7f08f8eebcbf5a$__63a691a08b856040518263ffffffff1660e01b815260040161169b919061504a565b5f60405180830381865af41580156116b5573d5f803e3d5ffd5b505050506040513d5f823e601f3d908101601f191682016040526116dc9190810190615a0a565b6040516329bd7cc960e21b815290915073__$2ef4e8110a3eaa1255da7f08f8eebcbf5a$__9063a6f5f3249061171690849060040161504a565b602060405180830381865af4158015611731573d5f803e3d5ffd5b505050506040513d601f19601f820116820180604052508101906117559190615a7e565b611772576040516333a234f960e11b815260040160405180910390fd5b6040516117969061d50160d81b908690600560fa1b90606088901b90602001615ab0565b60405160208183030381529060405291505092915050565b6117b6613132565b6117bf81611896565b1515806117d057506117d08161180c565b156117f957604051639fb0877960e01b81526001600160a01b0382166004820152602401610ac0565b610f23816001600160a01b038116613256565b5f61181f6001600160a01b0383166132b7565b1561182b57505f919050565b5f6001600160a01b0383165f90815260276020526040902060010154600160e01b900460ff166006811115611862576118626150ca565b0361186e57505f919050565b506001600160a01b03165f90815260276020526040902060010154600160e81b900460ff1690565b5f6001600160a01b0382166118c0576040516322718ad960e21b81525f6004820152602401610ac0565b506001600160a01b03165f9081526003602052604090205490565b6118e3613132565b6115c55f61330a565b6001600160a01b0381165f90815260276020908152604080832060010154600160f81b900460ff16808452600b9092528220546119298482612cd0565b949350505050565b336002600160a01b031461195a57604051637eb3357160e01b8152336004820152602401610ac0565b6119648282613363565b5f805f806119a38686808060200260200160405190810160405280939291908181526020018383602002808284375f9201919091525061343a92505050565b93509350935093506119b68686866136ed565b5f6119c16003612d09565b80519091506119d09087612fb9565b7f8b5b26231ce070df3db9dc1b8450ab40652c76bd68827c7f595414614fa18f376040518060a00160405280848152602001868152602001436001611a159190615998565b6001600160401b0316815263ffffffff86166020820152600a5460ff1660409182015251611a439190615217565b60405180910390a150505050505050565b611a8160405180608001604052805f81526020015f81526020015f81526020015f63ffffffff1681525090565b50600a5460ff165f908152600b602090815260409182902082516080810184528154815260018201549281019290925260028101549282019290925260039091015463ffffffff16606082015290565b611ad9613132565b6115c5613931565b600f60f81b6060805f808083611b3660408051808201825260148152732a32b631b7b4b71029ba30b5b2a6b0b730b3b2b960611b602080830191909152825180840190935260018352603160f81b9083015291565b97989097965046955030945091925090565b611b50613132565b611b598161180c565b15611b7a576006604051633ba7bf8960e11b8152600401610ac09190615af9565b611b8381612b79565b505f6001600160a01b0382165f90815260276020526040902060010154600160e01b900460ff166006811115611bbb57611bbb6150ca565b03611bf2576001600160a01b0381165f908152602760205260409020611be09061396e565b610f236001600160a01b0382166139b4565b610f238161299d565b611c03612b55565b60608514611c24576040516333a234f960e11b815260040160405180910390fd5b5f611c32855f015185611661565b855160405163a691a08b60e01b81529192505f9173__$2ef4e8110a3eaa1255da7f08f8eebcbf5a$__9163a691a08b91611c6f919060040161504a565b5f60405180830381865af4158015611c89573d5f803e3d5ffd5b505050506040513d5f823e601f3d908101601f19168201604052611cb09190810190615a0a565b90505f73__$2ef4e8110a3eaa1255da7f08f8eebcbf5a$__633d2a9e1188602001516040518263ffffffff1660e01b8152600401611cee919061504a565b5f60405180830381865af4158015611d08573d5f803e3d5ffd5b505050506040513d5f823e601f3d908101601f19168201604052611d2f9190810190615a0a565b604051634f98273b60e01b815290915073__$2ef4e8110a3eaa1255da7f08f8eebcbf5a$__90634f98273b90611d6d90859085908890600401615b07565b602060405180830381865af4158015611d88573d5f803e3d5ffd5b505050506040513d601f19601f82011682018060405250810190611dac9190615a7e565b611de257604080518082018252885181526020808a0151908201529051634babb8f160e01b8152610ac091908590600401615b49565b5f611deb6123fa565b6080015190505f611dfc34836139ec565b9050611e0788612b79565b50611e12885f612be7565b6001600160a01b0388165f908152600d6020526040808220600201549051600160a81b9091046001600160401b03169190611e50908e908e90615b95565b60405180910390209050611e72600e546001600160a01b036101009091041690565b6001600160a01b0316336001600160a01b031614611f21575f7f9a361e91fa9aa610b5edf1d5c1cc20b9646c4228f3c004354ed2de7635dac994828c338887604051602001611ec696959493929190615ba4565b6040516020818303038152906040528051906020012090505f611ee882613a27565b9050611ef68c828d8d613b3d565b611f1e57604051633b4f6e2b60e21b81526001600160a01b038d166004820152602401610ac0565b50505b6040518060a001604052808281526020018b6001600160a01b03168152602001336001600160a01b031681526020018560ff168152602001836001611f669190615be2565b6001600160401b039081169091526001600160a01b03808d165f908152600d60209081526040918290208551815590850151600180830180549286166001600160a01b03199093169290921790915591850151600290910180546060870151608090970151909516600160a81b0267ffffffffffffffff60a81b1960ff909716600160a01b026001600160a81b03199096169290941691909117939093179390931617905561201c908e908e908d908888613c2e565b50505050505050505050505050565b60605f826006811115612040576120406150ca565b036120605781604051633ba7bf8960e11b8152600401610ac09190615af9565b610a9582612d09565b606060018054610bff90615949565b60605f612084836113e5565b5f015190505f81516001600160401b038111156120a3576120a36152ba565b6040519080825280602002602001820160405280156120dc57816020015b6120c9614ead565b8152602001906001900390816120c15790505b5090505f5b81518110156121315761210c8382815181106120ff576120ff6158e5565b6020026020010151610f8f565b82828151811061211e5761211e6158e5565b60209081029190910101526001016120e1565b509392505050565b61216660405180608001604052805f81526020015f81526020015f81526020015f63ffffffff1681525090565b5060ff165f908152600b602090815260409182902082516080810184528154815260018201549281019290925260028101549282019290925260039091015463ffffffff16606082015290565b6121bb612b55565b606082146121dc576040516333a234f960e11b815260040160405180910390fd5b5f6121ea825f015133611661565b825160405163a691a08b60e01b81529192505f9173__$2ef4e8110a3eaa1255da7f08f8eebcbf5a$__9163a691a08b91612227919060040161504a565b5f60405180830381865af4158015612241573d5f803e3d5ffd5b505050506040513d5f823e601f3d908101601f191682016040526122689190810190615a0a565b90505f73__$2ef4e8110a3eaa1255da7f08f8eebcbf5a$__633d2a9e1185602001516040518263ffffffff1660e01b81526004016122a6919061504a565b5f60405180830381865af41580156122c0573d5f803e3d5ffd5b505050506040513d5f823e601f3d908101601f191682016040526122e79190810190615a0a565b604051634f98273b60e01b815290915073__$2ef4e8110a3eaa1255da7f08f8eebcbf5a$__90634f98273b9061232590859085908890600401615b07565b602060405180830381865af4158015612340573d5f803e3d5ffd5b505050506040513d601f19601f820116820180604052508101906123649190615a7e565b61239a5760408051808201825285518152602080870151908201529051634babb8f160e01b8152610ac091908590600401615b49565b5f6123a36123fa565b6080015190505f6123b434836139ec565b90506123bf33612b79565b506123ca335f612be7565b6123d88888335f8686613c2e565b5050505050505050565b6123ed848484610ca7565b6111b83385858585613e8f565b6040805160a08101825260608082525f6020830181905292820183905281018290526080810191909152600e5461244a90600160a81b810463ffffffff16908190600160c81b900460ff166131ad565b60408051825460c0602082028301810190935260a0820181815291939284929184918401828280156124a357602002820191905f5260205f20905b81546001600160a01b03168152600190910190602001808311612485575b5050509183525050600182015460208201526002909101546001600160401b0381166040830152600160401b810463ffffffff166060830152600160601b900460ff16608090910152919050565b5f6124fa613132565b612502612b55565b61251260808301606084016151fc565b63ffffffff165f036125505761252e60808301606084016151fc565b604051630c6e911360e41b815263ffffffff9091166004820152602401610ac0565b600a80545f919082906125659060ff16615c01565b825460ff8083166101009490940a848102910219909116179092555f908152600b60205260409020909150839061259c8282615c1f565b50909150505b919050565b60606125b282612b1d565b505f6125ed6125c084613fb5565b6125c8614063565b6040516020016125d9929190615c62565b6040516020818303038152906040526140ad565b9050806040516020016126009190615d51565b604051602081830303815290604052915050919050565b5f61262183612b79565b505f61262b6123fa565b608001516001600160a01b0385165f908152600d602090815260408083206002015489518a8401209151949550600160a81b90046001600160401b0316939092916126a2917f9a361e91fa9aa610b5edf1d5c1cc20b9646c4228f3c004354ed2de7635dac9949185918b918b918a918a9101615ba4565b6040516020818303038152906040528051906020012090506126c381613a27565b9450505050505b9392505050565b6001600160a01b039182165f90815260056020908152604080832093909416825291909152205460ff1690565b612706612b55565b3068929eee149b4bd2126854036127245763ab143c065f526004601cfd5b3068929eee149b4bd212685561273981612b79565b505f6127448261304e565b9050336001600160a01b038316148015906127685750336001600160a01b03821614155b156127915760405163172b4e7560e11b81526001600160a01b0382166004820152602401610ac0565b6001600160a01b0382165f9081526027602052604090206127b1816140d3565b6127d057806040516371964ca360e11b8152600401610ac09190615e01565b6127d98161396e565b5f6127e48484614173565b604080516001600160a01b0386168152602081018390529192507ffc30cddea38e2bf4d6ea7d3f9ed3b6ad7f176419f4963bd81318067a4aee73fe91016112c0565b61282e613132565b6001600160a01b03811661285757604051631e4fbdf760e01b81525f6004820152602401610ac0565b610f238161330a565b60276020525f908152604090208054819061287a90615949565b80601f01602080910402602001604051908101604052809291908181526020018280546128a690615949565b80156128f15780601f106128c8576101008083540402835291602001916128f1565b820191905f5260205f20905b8154815290600101906020018083116128d457829003601f168201915b505050600190930154919250506001600160a01b0381169063ffffffff600160a01b8204811691600160c01b81049091169060ff600160e01b8204811691600160e81b8104821691600160f01b8204811691600160f81b90041688565b5f6001600160e01b031982166380ac58cd60e01b148061297e57506001600160e01b03198216635b5e139f60e01b145b80610a9557506301ffc9a760e01b6001600160e01b0319831614610a95565b6001600160a01b0381165f90815260276020526040812060018101549091600160e01b90910460ff16906129d16003612d09565b5190506129dd826142e2565b156129f0576129ed60018261590d565b90505b6129fa8482614335565b5f80612a0586610f26565b506001600160a01b0388165f908152600c602052604081208190559193509150818310612a325781612a34565b825b6040519091505f907307a07a07a07a07a07a07a07a07a07a07a07a07a09083908381818185875af1925050503d805f8114612a8a576040519150601f19603f3d011682016040523d82523d5f602084013e612a8f565b606091505b5050905080612ad75760405162461bcd60e51b815260206004820152601460248201527324b6b837b9b9b4b136329031b7b73234ba34b7b760611b6044820152606401610ac0565b600e54612af2908890600160a81b900463ffffffff1661443b565b612afb8761396e565b5f612b058961304e565b9050612b118982614173565b50505050505050505050565b5f818152600260205260408120546001600160a01b031680610a9557604051637e27328960e01b815260048101849052602401610ac0565b600e5460ff16156115c55760405163d93c066560e01b815260040160405180910390fd5b5f6001600160a01b038216612b8d816132b7565b612bad5760405163ed15e6cf60e01b815260048101829052602401610ac0565b826001600160a01b0316612bc082611645565b6001600160a01b031614610a95576040516330fa89ab60e11b815260040160405180910390fd5b6001600160a01b0382165f90815260276020526040902060010154600160e01b900460ff16816006811115612c1e57612c1e6150ca565b816006811115612c3057612c306150ca565b14610bec5780604051633ba7bf8960e11b8152600401610ac09190615af9565b612c5b8160016159d2565b60018301805463ffffffff92909216600160a01b0260ff60e01b191668ff00000000ffffffff60a01b1990921691909117600160e11b1790556040517fbdacb030997c2fe9d7ee41c51f5a150138c75b326c7a66f88ced12925f80bc0590612cc4908490615e01565b60405180910390a15050565b6001600160a01b0382165f908152600c602052604081205481838211612cf6575f612d00565b612d00848361590d565b95945050505050565b60605f612d1560085490565b6001600160401b03811115612d2c57612d2c6152ba565b604051908082528060200260200182016040528015612d6557816020015b612d52614ead565b815260200190600190039081612d4a5790505b5090505f805b8251811015612fb0575f612d84612d81836115e1565b90565b6001600160a01b0381165f908152602760205260409020600181015491925090600160e81b900460ff1615612dba575050612fa8565b5f6006886006811115612dcf57612dcf6150ca565b14905080612e39576001820154600160e01b900460ff166003896006811115612dfa57612dfa6150ca565b03612e0f57612e08816142e2565b9150612e37565b886006811115612e2157612e216150ca565b816006811115612e3357612e336150ca565b1491505b505b8015612fa45781604051806101000160405290815f82018054612e5b90615949565b80601f0160208091040260200160405190810160405280929190818152602001828054612e8790615949565b8015612ed25780601f10612ea957610100808354040283529160200191612ed2565b820191905f5260205f20905b815481529060010190602001808311612eb557829003601f168201915b505050918352505060018201546001600160a01b038116602083015263ffffffff600160a01b820481166040840152600160c01b820416606083015260809091019060ff600160e01b909104166006811115612f3057612f306150ca565b6006811115612f4157612f416150ca565b81526001919091015460ff600160e81b8204811615156020840152600160f01b8204811615156040840152600160f81b909104166060909101528686612f8681615e9b565b975081518110612f9857612f986158e5565b60200260200101819052505b5050505b600101612d6b565b50815292915050565b811580612fc4575080155b80612fce57508181115b15610ed957604051635700689f60e11b81526004810183905260248101829052604401610ac0565b60018101805464ffffffffff60c01b19166404ffffffff60c01b1790556040517f537bf236138f80ea8801a391fffc8a42bf0be3b6ea9d336ca2e2164a4c91071c90613043908390615e01565b60405180910390a150565b6001600160a01b038082165f908152600d6020526040812060028101549192909116806126ca57509192915050565b5f806130898584614494565b6001600160a01b0386165f908152600c60205260408120805492935083929091906130b590849061590d565b9091555050604051634875485760e11b81526001600160a01b0385166004820152602481018290527307a07a07a07a07a07a07a07a07a07a07a07a07a0906390ea90ae906044015f604051808303815f87803b158015613113575f80fd5b505af1158015613125573d5f803e3d5ffd5b5092979650505050505050565b600e546001600160a01b036101009091041633146115c55760405163118cdaa760e01b8152336004820152602401610ac0565b5f8060048361317486886159ee565b61317e9190615eb3565b6131889190615ecc565b9050601b8160ff16600481106131a0576131a06158e5565b6003020195945050505050565b5f80846131bb8560046159d2565b6131c591906159ee565b90505f60046131d48386615eb3565b6131de9190615ecc565b9050600f8160ff16600481106131f6576131f66158e5565b600302019695505050505050565b61320c6144f4565b600e805460ff191690557f5db9ee0a495bf2e6ff9c91a7834c1ba4fdd244a5e8aa4e537bd38aeae4b073aa335b6040516001600160a01b03909116815260200160405180910390a1565b6001600160a01b03821661327f57604051633250574960e11b81525f6004820152602401610ac0565b5f61328b83835f614517565b90506001600160a01b03811615610bec576040516339e3563760e11b81525f6004820152602401610ac0565b5f8115806132cc57506001600160a01b038210155b156132ed5760405163ed15e6cf60e01b815260048101839052602401610ac0565b505f908152600260205260409020546001600160a01b0316151590565b600e80546001600160a01b03838116610100818102610100600160a81b031985161790945560405193909204169182907f8be0079c531659141344cd1fd0a4f28419497f9722a3daafe3b4186f6b6457e0905f90a35050565b5f5b61337060018361590d565b811015610bec578282613384836001615998565b818110613393576133936158e5565b90506020020160208101906133a891906150b1565b6001600160a01b03168383838181106133c3576133c36158e5565b90506020020160208101906133d891906150b1565b6001600160a01b031610613432578282828181106133f8576133f86158e5565b905060200201602081019061340d91906150b1565b60405163836e3a7d60e01b81526001600160a01b039091166004820152602401610ac0565b600101613365565b600e545f9081908190606090600160c81b900460ff1682600461345e836001615eb3565b6134689190615ecc565b90505f601b8260ff1660048110613481576134816158e5565b6003020190505f613490611a54565b90506040518060a00160405280838054806020026020016040519081016040528092919081815260200182805480156134f057602002820191905f5260205f20905b81546001600160a01b031681526001909101906020018083116134d2575b505050918352505060408084015160208301520161350f436001615be2565b6001600160401b03168152606083015163ffffffff166020820152600a5460ff908116604090920191909152600f90851660048110613550576135506158e5565b600302015f820151815f01908051906020019061356e929190614ef0565b506020820151600182015560408201516002909101805460608401516080909401516001600160401b039093166bffffffffffffffffffffffff1990911617600160401b63ffffffff948516021760ff60601b1916600160601b60ff93841602179055600e805460ff60c81b1916600160c81b92871692909202919091178082555f9260159161360691600160a81b90910416615eed565b91906101000a81548163ffffffff021916908363ffffffff160217905590505f60048560026136359190615eb3565b61363f9190615ecc565b90508a601b8260ff1660048110613658576136586158e5565b600302015f019080519060200190613671929190614ef0565b50818360400151846060015186808054806020026020016040519081016040528092919081815260200182805480156136d157602002820191905f5260205f20905b81546001600160a01b031681526001909101906020018083116136b3575b5050505050905099509950995099505050505050509193509193565b5f6136f86002612d09565b90505f5b815181101561375a575f60275f84848151811061371b5761371b6158e5565b6020026020010151602001516001600160a01b03166001600160a01b031681526020019081526020015f209050613751816145e2565b506001016136fc565b505f6137666004612d09565b600e54909150600160c81b900460ff165f6004613784836001615eb3565b61378e9190615ecc565b90505f600f8360ff16600481106137a7576137a76158e5565b600302018054604080516020808402820181019092528281529291908301828280156137fa57602002820191905f5260205f20905b81546001600160a01b031681526001909101906020018083116137dc575b505050505090505f601b8360ff1660048110613818576138186158e5565b6003020180546040805160208084028201810190925282815292919083018282801561386b57602002820191905f5260205f20905b81546001600160a01b0316815260019091019060200180831161384d575b505050505090505f5b8551811015612b11575f868281518110613890576138906158e5565b60200260200101516020015190506138a88185614627565b806138b857506138b88184614627565b806138fa57506138fa818c8c808060200260200160405190810160405280939291908181526020018383602002808284375f9201919091525061462792505050565b156139055750613929565b6001600160a01b0381165f908152602760205260409020613926818b61443b565b50505b600101613874565b613939612b55565b600e805460ff191660011790557f62e78cea01bee320cd4e420270b5ea74000d11b0c9f74754ebdbfc544b05a2586132393390565b60018101805461ffff60e01b1916608360e11b1790556040517fb9e0e3d06d30a4b0476d42accfa2ee90a854c961cc7f10ddc965608a97b982b190613043908390615e01565b5f6139c05f835f614517565b90506001600160a01b038116610ed957604051637e27328960e01b815260048101839052602401610ac0565b60ff81165f908152600b60205260408120548314613a205760405163222d164360e21b815260048101849052602401610ac0565b5090919050565b7f00000000000000000000000000000000000000000000000000000000000000007f000000000000000000000000000000000000000000000000000000000000000030147f0000000000000000000000000000000000000000000000000000000000000000461416613b1a5750604080517f8b73c3c69bb8fe3d512ecc4cf759cc79239f7b179b0ffacaa9a75d522b39400f81527f000000000000000000000000000000000000000000000000000000000000000060208201527f00000000000000000000000000000000000000000000000000000000000000009181019190915246606082015230608082015260a090205b6719010000000000005f5280601a5281603a52604260182090505f603a52919050565b6001600160a01b03909316925f841561192957604051845f5260408303613ba45760208481013560ff81901c601b01825285356040526001600160ff1b0316606052600160805f825afa805187183d1517613ba257505f606052604052506001611929565b505b60418303613be45760408401355f1a6020526040846040376020600160805f60015afa805187183d1517613be257505f606052604052506001611929565b505b5f60605280604052631626ba7e60e01b80825285600483015260248201604081528460448401528486606485013760208160648701858b5afa905190911416915050949350505050565b5f8686604051613c3f929190615b95565b60408051918290039091205f8181526028602052919091205490915060ff1615613c7c57604051638d12779f60e01b815260040160405180910390fd5b5f818152602860209081526040808320805460ff191660011790558051610120601f8b0184900490930281018301909152610100810189815290918291908b908b90819085018382808284375f9201829052509385525050506001600160a01b038916602083015263ffffffff60408301526060820152608001600181525f602080830182905288151560408085019190915260ff89166060909401939093526001600160a01b038a1682526027905220815191925082918190613d409082615f4c565b5060208201516001820180546040850151606086015163ffffffff908116600160c01b0263ffffffff60c01b1991909216600160a01b026001600160c01b03199093166001600160a01b0390951694909417919091179283168117825560808501519260ff60e01b1990911664ffffffffff60c01b1990911617600160e01b836006811115613dd157613dd16150ca565b021790555060a08201516001909101805460c084015160e09094015160ff16600160f81b026001600160f81b03941515600160f01b0260ff60f01b19941515600160e81b029490941661ffff60e81b199092169190911792909217929092161790556001600160a01b0386165f908152600c602052604090819020849055517f7d89246e6daeb7529685fda2e1f478d9a155eea08675ebecd1bf8c0e572382fd90613e7d90839061519f565b60405180910390a15050505050505050565b6001600160a01b0383163b15613fae57604051630a85bd0160e11b81526001600160a01b0384169063150b7a0290613ed1908890889087908790600401616006565b6020604051808303815f875af1925050508015613f0b575060408051601f3d908101601f19168201909252613f0891810190616038565b60015b613f72573d808015613f38576040519150601f19603f3d011682016040523d82523d5f602084013e613f3d565b606091505b5080515f03613f6a57604051633250574960e11b81526001600160a01b0385166004820152602401610ac0565b805181602001fd5b6001600160e01b03198116630a85bd0160e11b14610ed457604051633250574960e11b81526001600160a01b0385166004820152602401610ac0565b5050505050565b60605f613fc183614684565b6028602282012090915060601c60295b600181111561405a57600782600f1611801561400657506060838281518110613ffc57613ffc6158e5565b016020015160f81c115b1561404357602060f81b838281518110614022576140226158e5565b0160200180516001600160f81b0319908116909218909116905f82901a9053505b60049190911c9061405381616053565b9050613fd1565b50909392505050565b60606140896040518061052001604052806104ed81526020016160ae6104ed91396140ad565b6040516020016140999190616068565b604051602081830303815290604052905090565b6060610a958260405180606001604052806040815260200161659b60409139600161469a565b6001818101545f91600160e01b90910460ff16908160068111156140f9576140f96150ca565b036141075750600192915050565b6001838101545f9161412691600160c01b900463ffffffff16906159d2565b9050600582600681111561413c5761413c6150ca565b14801561415b5750600e5463ffffffff808316600160a81b9092041610155b1561416a575060019392505050565b505f9392505050565b5f6141866001600160a01b0384166139b4565b6008545f036141a8576040516315ae672760e01b815260040160405180910390fd5b5f805f6141b486610f26565b925092509250825f036141cc57829350505050610a95565b6001600160a01b0386165f908152600c602052604081208190558284106141f4575081614259565b50825f7307a07a07a07a07a07a07a07a07a07a07a07a07a0614216838661590d565b6040515f81818185875af1925050503d805f811461424f576040519150601f19603f3d011682016040523d82523d5f602084013e614254565b606091505b505050505b604051634875485760e11b81526001600160a01b0387166004820152602481018390527307a07a07a07a07a07a07a07a07a07a07a07a07a0906390ea90ae9083906044015f604051808303818588803b1580156142b4575f80fd5b505af11580156142c6573d5f803e3d5ffd5b505050505081816142d79190615998565b979650505050505050565b5f60038260068111156142f7576142f76150ca565b148061431457506004826006811115614312576143126150ca565b145b80610a955750600282600681111561432e5761432e6150ca565b1492915050565b600e54600160a81b810463ffffffff1690600160c81b900460ff165f61435c8380846131ad565b90505f6143698287614814565b90505f81614378578254614386565b82546143869060019061590d565b90506143928682612fb9565b5f61439e8660016159d2565b90505f6143ac828888613165565b90506143b8818a614814565b9350836143c65780546143d4565b80546143d49060019061590d565b92506143e08884612fb9565b5f6143ec8860026159d2565b90505f6143fa828a8a613165565b9050614406818c614814565b955085614414578054614422565b80546144229060019061590d565b945061442e8a86612fb9565b5050505050505050505050565b60018201805463ffffffff8316600160c01b0264ffffffffff60c01b1990911617600560e01b1790556040517f69cb3a026a27d868ccc41f8a2a5e4b59396939b736cf54a110052c9983e8378d90612cc4908490615e01565b60ff81165f908152600b6020526040812054816144b18583612cd0565b90508015806144d3575060ff84165f908152600b602052604090206001015481105b1561192957604051633737b70960e11b815260048101829052602401610ac0565b600e5460ff166115c557604051638dfc202b60e01b815260040160405180910390fd5b5f8061452485858561490f565b90506001600160a01b0381166145805761457b84600880545f838152600960205260408120829055600182018355919091527ff3f7a9fe364faab93b216da50a3214154f22a0a2b415b23a84c8169e8b636ee30155565b6145a3565b846001600160a01b0316816001600160a01b0316146145a3576145a38185614a01565b6001600160a01b0385166145bf576145ba84614a7e565b611929565b846001600160a01b0316816001600160a01b031614611929576119298585614b25565b60018101805460ff60e01b1916600360e01b1790556040517f31845bad1fcdd92490e8d85605449863a562ea940e37b380a276e440683fdb7290613043908390615e01565b80515f90815b8181101561467a57846001600160a01b0316848281518110614651576146516158e5565b60200260200101516001600160a01b03160361467257600192505050610a95565b60010161462d565b505f949350505050565b6060610a956001600160a01b0383166014614b73565b606083515f036146b8575060408051602081019091525f81526126ca565b5f826146e8576003855160046146ce9190615981565b6146d9906002615998565b6146e391906159bf565b61470d565b6003855160026146f89190615998565b61470291906159bf565b61470d906004615981565b90505f816001600160401b03811115614728576147286152ba565b6040519080825280601f01601f191660200182016040528015614752576020820181803683370190505b509050600185016020820187885189016020810180515f82525b828410156147c7576003840193508351603f8160121c168701518653600186019550603f81600c1c168701518653600186019550603f8160061c168701518653600186019550603f811687015186535060018501945061476c565b905250508515614808576003885106600181146147eb57600281146147fe57614806565b603d6001830353603d6002830353614806565b603d60018303535b505b50909695505050505050565b81545f90815b8181101561467a57836001600160a01b031685828154811061483e5761483e6158e5565b5f918252602090912001546001600160a01b031603614907578461486360018461590d565b81548110614873576148736158e5565b905f5260205f20015f9054906101000a90046001600160a01b03168582815481106148a0576148a06158e5565b905f5260205f20015f6101000a8154816001600160a01b0302191690836001600160a01b03160217905550848054806148db576148db616099565b5f8281526020902081015f1990810180546001600160a01b03191690550190555060019150610a959050565b60010161481a565b5f828152600260205260408120546001600160a01b039081169083161561493b5761493b818486614ce4565b6001600160a01b03811615614975576149565f855f80614d48565b6001600160a01b0381165f90815260036020526040902080545f190190555b6001600160a01b038516156149a3576001600160a01b0385165f908152600360205260409020805460010190555b5f8481526002602052604080822080546001600160a01b0319166001600160a01b0389811691821790925591518793918516917fddf252ad1be2c89b69c2b068fc378daa952ba7f163c4a11628f55a4df523b3ef91a4949350505050565b5f614a0b83611896565b5f838152600760209081526040808320546001600160a01b0388168452600690925290912091925090818314614a60575f83815260208281526040808320548584528184208190558352600790915290208290555b5f938452600760209081526040808620869055938552525081205550565b6008545f90614a8f9060019061590d565b5f8381526009602052604081205460088054939450909284908110614ab657614ab66158e5565b905f5260205f20015490508060088381548110614ad557614ad56158e5565b5f918252602080832090910192909255828152600990915260408082208490558582528120556008805480614b0c57614b0c616099565b600190038181905f5260205f20015f9055905550505050565b5f6001614b3184611896565b614b3b919061590d565b6001600160a01b039093165f908152600660209081526040808320868452825280832085905593825260079052919091209190915550565b6060825f614b82846002615981565b614b8d906002615998565b6001600160401b03811115614ba457614ba46152ba565b6040519080825280601f01601f191660200182016040528015614bce576020820181803683370190505b509050600360fc1b815f81518110614be857614be86158e5565b60200101906001600160f81b03191690815f1a905350600f60fb1b81600181518110614c1657614c166158e5565b60200101906001600160f81b03191690815f1a9053505f614c38856002615981565b614c43906001615998565b90505b6001811115614cba576f181899199a1a9b1b9c1cb0b131b232b360811b83600f1660108110614c7757614c776158e5565b1a60f81b828281518110614c8d57614c8d6158e5565b60200101906001600160f81b03191690815f1a90535060049290921c91614cb381616053565b9050614c46565b5081156119295760405163e22e27eb60e01b81526004810186905260248101859052604401610ac0565b614cef838383614e4c565b610bec576001600160a01b038316614d1d57604051637e27328960e01b815260048101829052602401610ac0565b60405163177e802f60e01b81526001600160a01b038316600482015260248101829052604401610ac0565b8080614d5c57506001600160a01b03821615155b15614e1d575f614d6b84612b1d565b90506001600160a01b03831615801590614d975750826001600160a01b0316816001600160a01b031614155b8015614daa5750614da881846126d1565b155b15614dd35760405163a9fbf51f60e01b81526001600160a01b0384166004820152602401610ac0565b8115614e1b5783856001600160a01b0316826001600160a01b03167f8c5be1e5ebec7d5bd14f71427d1e84f3dd0314c0f7b2291e5b200ac8c7c3b92560405160405180910390a45b505b50505f90815260046020526040902080546001600160a01b0319166001600160a01b0392909216919091179055565b5f6001600160a01b038316158015906119295750826001600160a01b0316846001600160a01b03161480614e855750614e8584846126d1565b806119295750505f908152600460205260409020546001600160a01b03908116911614919050565b604080516101008101825260608082525f60208301819052928201839052810182905290608082019081525f602082018190526040820181905260609091015290565b828054828255905f5260205f20908101928215614f43579160200282015b82811115614f4357825182546001600160a01b0319166001600160a01b03909116178255602090920191600190910190614f0e565b50614f4f929150614f53565b5090565b5b80821115614f4f575f8155600101614f54565b6001600160e01b031981168114610f23575f80fd5b5f60208284031215614f8c575f80fd5b81356126ca81614f67565b5f8083601f840112614fa7575f80fd5b5081356001600160401b03811115614fbd575f80fd5b6020830191508360208260061b8501011115614fd7575f80fd5b9250929050565b5f8060208385031215614fef575f80fd5b82356001600160401b03811115615004575f80fd5b61501085828601614f97565b90969095509350505050565b5f81518084528060208401602086015e5f602082860101526020601f19601f83011685010191505092915050565b602081525f6126ca602083018461501c565b5f6020828403121561506c575f80fd5b5035919050565b80356001600160a01b03811681146125a2575f80fd5b5f806040838503121561509a575f80fd5b6150a383615073565b946020939093013593505050565b5f602082840312156150c1575f80fd5b6126ca82615073565b634e487b7160e01b5f52602160045260245ffd5b600781106150fa57634e487b7160e01b5f52602160045260245ffd5b9052565b5f8151610100845261511461010085018261501c565b905060018060a01b03602084015116602085015263ffffffff6040840151166040850152606083015161514f606086018263ffffffff169052565b50608083015161516260808601826150de565b5060a083015161517660a086018215159052565b5060c083015161518a60c086018215159052565b5060e083015161213160e086018260ff169052565b602081525f6126ca60208301846150fe565b5f805f606084860312156151c3575f80fd5b6151cc84615073565b92506151da60208501615073565b929592945050506040919091013590565b63ffffffff81168114610f23575f80fd5b5f6020828403121561520c575f80fd5b81356126ca816151eb565b6020808252825160a083830152805160c084018190525f929190910190829060e08501905b808310156152675783516001600160a01b03168252602093840193600193909301929091019061523c565b50602086015160408601526040860151925061528e60608601846001600160401b03169052565b606086015163ffffffff811660808701529250608086015160ff811660a0870152925095945050505050565b634e487b7160e01b5f52604160045260245ffd5b604051601f8201601f191681016001600160401b03811182821017156152f6576152f66152ba565b604052919050565b5f6001600160401b03821115615316576153166152ba565b50601f01601f191660200190565b5f82601f830112615333575f80fd5b8135615346615341826152fe565b6152ce565b81815284602083860101111561535a575f80fd5b816020850160208301375f918101602001919091529392505050565b5f8060408385031215615387575f80fd5b82356001600160401b0381111561539c575f80fd5b6153a885828601615324565b9250506153b760208401615073565b90509250929050565b5f80602083850312156153d1575f80fd5b82356001600160401b038111156153e6575f80fd5b8301601f810185136153f6575f80fd5b80356001600160401b0381111561540b575f80fd5b8560208260051b840101111561541f575f80fd5b6020919091019590945092505050565b60ff60f81b8816815260e060208201525f61544d60e083018961501c565b828103604084015261545f818961501c565b606084018890526001600160a01b038716608085015260a0840186905283810360c0850152845180825260208087019350909101905f5b818110156154b4578351835260209384019390920191600101615496565b50909b9a5050505050505050505050565b5f8083601f8401126154d5575f80fd5b5081356001600160401b038111156154eb575f80fd5b602083019150836020828501011115614fd7575f80fd5b5f60408284031215615512575f80fd5b604080519081016001600160401b0381118282101715615534576155346152ba565b60405290508082356001600160401b0381111561554f575f80fd5b61555b85828601615324565b82525060208301356001600160401b03811115615576575f80fd5b61558285828601615324565b6020830152505092915050565b5f805f805f80608087890312156155a4575f80fd5b86356001600160401b038111156155b9575f80fd5b6155c589828a016154c5565b90975095505060208701356001600160401b038111156155e3575f80fd5b6155ef89828a01615502565b9450506155fe60408801615073565b925060608701356001600160401b03811115615618575f80fd5b61562489828a016154c5565b979a9699509497509295939492505050565b5f60208284031215615646575f80fd5b8135600781106126ca575f80fd5b5f602082016020835280845180835260408501915060408160051b8601019250602086015f5b828110156156ab57603f198786030184526156968583516150fe565b9450602093840193919091019060010161567a565b50929695505050505050565b8015158114610f23575f80fd5b5f80604083850312156156d5575f80fd5b6156de83615073565b915060208301356156ee816156b7565b809150509250929050565b5f60208284031215615709575f80fd5b813560ff811681146126ca575f80fd5b5f805f6040848603121561572b575f80fd5b83356001600160401b03811115615740575f80fd5b61574c868287016154c5565b90945092505060208401356001600160401b0381111561576a575f80fd5b61577686828701615502565b9150509250925092565b5f805f8060808587031215615793575f80fd5b61579c85615073565b93506157aa60208601615073565b92506040850135915060608501356001600160401b038111156157cb575f80fd5b6157d787828801615324565b91505092959194509250565b5f60808284031280156157f4575f80fd5b509092915050565b5f805f6060848603121561580e575f80fd5b83356001600160401b03811115615823575f80fd5b61582f86828701615324565b93505061583e60208501615073565b915061584c60408501615073565b90509250925092565b5f8060408385031215615866575f80fd5b61586f83615073565b91506153b760208401615073565b61010081525f61589161010083018b61501c565b6001600160a01b038a16602084015263ffffffff89811660408501528816606084015290506158c360808301876150de565b93151560a082015291151560c083015260ff1660e09091015295945050505050565b634e487b7160e01b5f52603260045260245ffd5b634e487b7160e01b5f52601160045260245ffd5b81810381811115610a9557610a956158f9565b604081016001600160a01b0361593584615073565b168252602092830135929091019190915290565b600181811c9082168061595d57607f821691505b60208210810361597b57634e487b7160e01b5f52602260045260245ffd5b50919050565b8082028115828204841417610a9557610a956158f9565b80820180821115610a9557610a956158f9565b634e487b7160e01b5f52601260045260245ffd5b5f826159cd576159cd6159ab565b500490565b63ffffffff8181168382160190811115610a9557610a956158f9565b63ffffffff8281168282160390811115610a9557610a956158f9565b5f60208284031215615a1a575f80fd5b81516001600160401b03811115615a2f575f80fd5b8201601f81018413615a3f575f80fd5b8051615a4d615341826152fe565b818152856020838501011115615a61575f80fd5b8160208401602083015e5f91810160200191909152949350505050565b5f60208284031215615a8e575f80fd5b81516126ca816156b7565b5f81518060208401855e5f93019283525090919050565b6001600160d81b0319851681525f615acb6005830186615a99565b6001600160f81b031994909416845250506bffffffffffffffffffffffff1916600182015260150192915050565b60208101610a9582846150de565b606081525f615b19606083018661501c565b8281036020840152615b2b818661501c565b90508281036040840152615b3f818561501c565b9695505050505050565b604081525f8351604080840152615b63608084018261501c565b90506020850151603f19848303016060850152615b80828261501c565b9150508281036020840152612d00818561501c565b818382375f9101908152919050565b95865260208601949094526001600160a01b0392831660408601529116606084015260ff1660808301526001600160401b031660a082015260c00190565b6001600160401b038181168382160190811115610a9557610a956158f9565b5f60ff821660ff8103615c1657615c166158f9565b60010192915050565b813581556020820135600182015560408201356002820155600381016060830135615c49816151eb565b815463ffffffff191663ffffffff919091161790555050565b7f7b226e616d65223a202254656c636f696e2d4e6574776f726b20436f6e73656e8152651cdd5cd3919560d21b60208201525f615ca26026830185615a99565b7f222c20226465736372697074696f6e223a2022455243373231204e465420776881527f6f7365206f776e657273686970206c656467657220726570726573656e74732060208201527f746865207065726d697373696f6e65642077686974656c69737420666f72207660408201527530b634b230ba37b9399116101134b6b0b3b2911d101160511b6060820152615d3d6076820185615a99565b61227d60f01b815260020195945050505050565b7f646174613a6170706c69636174696f6e2f6a736f6e3b6261736536342c00000081525f6126ca601d830184615a99565b5f8154615d8e81615949565b808552600182168015615da85760018114615dc457615df8565b60ff1983166020870152602082151560051b8701019350615df8565b845f5260205f205f5b83811015615def5781546020828a010152600182019150602081019050615dcd565b87016020019450505b50505092915050565b6020815261010060208201525f615e1c610120830184615d82565b60018401546001600160a01b038116604085015260a081901c63ffffffff16606085015260c081901c63ffffffff166080850152615e6360a0850160ff8360e01c166150de565b615e7760c0850160ff8360e81c1615159052565b615e8b60e0850160ff8360f01c1615159052565b60f881901c610100850152612131565b5f60018201615eac57615eac6158f9565b5060010190565b60ff8181168382160190811115610a9557610a956158f9565b5f60ff831680615ede57615ede6159ab565b8060ff84160691505092915050565b5f63ffffffff821663ffffffff8103615c1657615c166158f9565b601f821115610bec57805f5260205f20601f840160051c81016020851015615f2d5750805b601f840160051c820191505b81811015613fae575f8155600101615f39565b81516001600160401b03811115615f6557615f656152ba565b615f7981615f738454615949565b84615f08565b6020601f821160018114615fab575f8315615f945750848201515b5f19600385901b1c1916600184901b178455613fae565b5f84815260208120601f198516915b82811015615fda5787850151825560209485019460019092019101615fba565b5084821015615ff757868401515f19600387901b60f8161c191681555b50505050600190811b01905550565b6001600160a01b03858116825284166020820152604081018390526080606082018190525f90615b3f9083018461501c565b5f60208284031215616048575f80fd5b81516126ca81614f67565b5f81616061576160616158f9565b505f190190565b7f646174613a696d6167652f7376672b786d6c3b6261736536342c00000000000081525f6126ca601a830184615a99565b634e487b7160e01b5f52603160045260245ffdfe3c7376672077696474683d22373922206865696768743d223830222076696577426f783d22302030203739203830222066696c6c3d226e6f6e652220786d6c6e733d22687474703a2f2f7777772e77332e6f72672f323030302f737667223e203c6d61736b2069643d226d61736b305f3834395f3334313722207374796c653d226d61736b2d747970653a616c70686122206d61736b556e6974733d227573657253706163654f6e5573652220783d22302220793d2230222077696474683d22373922206865696768743d223830223e203c726563742077696474683d2237382e30303522206865696768743d223830222066696c6c3d2223433443344334222f3e203c2f6d61736b3e203c67206d61736b3d2275726c28236d61736b305f3834395f3334313729223e203c7265637420783d2231372e393534362220793d2231382e33353435222077696474683d2234322e3239343322206865696768743d2234332e32393138222066696c6c3d227768697465222f3e203c7061746820643d224d37342e323336392032312e393839324337362e363930382032342e303331352037382e323338392032382e323537372037372e363937392033312e333733334c37322e343136362036312e333235334337312e3836362036342e343437352036382e393539322036372e383739382036352e393632392036382e393631324c33372e313934372037392e333334344333342e313938342038302e343135372032392e373432312037392e363239392032372e323936342037372e3538394c332e3831312035382e3030323143312e33353730382035352e39353938202d302e31393233382035312e3734313720302e3335383134382034382e363139354c352e36333935312031382e3636373443362e31393030342031352e3534353220392e30393638372031322e313132392031322e303933322031312e303331364c34302e3835393920302e3636363435334334332e38353632202d302e3431343835372034382e3331323520302e3337303930392035302e3735383320322e343131384c37342e323336392032312e393839325a4d34392e373634352033352e343336394c35302e393336342032392e333531334c33392e393531372032392e333638374c34312e3531362032312e333432344c33372e393538332032312e333432344333372e393538332032312e333432342033342e363332382032372e323930312032372e333030362033302e323031394c32362e323839392033352e343530334c33312e303933362033352e34364333312e303933362033352e34362032392e343637342034332e303032392032382e393331362034352e373835344332372e353637372035322e383638322033302e393830362035372e383933392033362e323238312035372e383933394333382e383630362035372e383933392034312e3831372035372e383933392034352e303937322035372e383933394c34362e363532342035312e313636364334362e323734322035312e313636362034332e383031332035312e313636362033392e323333362035312e313636364333352e393336342035312e313636362033362e313039392034392e333138392033362e373433312034362e303330354c33382e373833382033352e343333334c34392e373634352033352e343336395a222066696c6c3d2223313443384646222f3e203c2f673e203c2f7376673e4142434445464748494a4b4c4d4e4f505152535455565758595a6162636465666768696a6b6c6d6e6f707172737475767778797a303132333435363738392b2fa164736f6c634300081a000a",
    "linkReferences": {
      "src/consensus/BlsG1.sol": {
        "BlsG1": [
          {
            "start": 827,
            "length": 20
          },
          {
            "start": 978,
            "length": 20
          },
          {
            "start": 1143,
            "length": 20
          },
          {
            "start": 2511,
            "length": 20
          },
          {
            "start": 2647,
            "length": 20
          },
          {
            "start": 12313,
            "length": 20
          },
          {
            "start": 12449,
            "length": 20
          },
          {
            "start": 13819,
            "length": 20
          },
          {
            "start": 13928,
            "length": 20
          },
          {
            "start": 14068,
            "length": 20
          },
          {
            "start": 15283,
            "length": 20
          },
          {
            "start": 15392,
            "length": 20
          },
          {
            "start": 15532,
            "length": 20
          }
        ]
      }
    }
  },
  "methodIdentifiers": {
    "SYSTEM_ADDRESS()": "3434735f",
    "activate()": "0f15f4c0",
    "allocateIssuance()": "355811a7",
    "applyIncentives((address,uint256)[])": "0a36cdef",
    "applySlashes((address,uint256)[])": "02ae337b",
    "approve(address,uint256)": "095ea7b3",
    "balanceOf(address)": "70a08231",
    "beginExit()": "2228dfa0",
    "burn(address)": "89afcb44",
    "claimStakeRewards(address)": "2b9f4985",
    "concludeEpoch(address[])": "7b55a300",
    "delegateStake(bytes,(bytes,bytes),address,bytes)": "8bb43f3a",
    "delegationDigest(bytes,address,address)": "e3716d04",
    "eip712Domain()": "84b0196e",
    "epochInfo(uint256)": "3894228e",
    "futureEpochInfo(uint256)": "59ca93b6",
    "getApproved(uint256)": "081812fc",
    "getBalanceBreakdown(address)": "15b5709a",
    "getCommitteeValidators(uint32)": "a0201be5",
    "getCurrentEpoch()": "b97dd9e2",
    "getCurrentEpochInfo()": "babc394f",
    "getCurrentStakeConfig()": "7d06fdf8",
    "getCurrentStakeVersion()": "67398331",
    "getEpochInfo(uint32)": "374ed18c",
    "getRewards(address)": "79ee54f7",
    "getValidator(address)": "1904bb2e",
    "getValidators(uint8)": "8cc05eda",
    "isApprovedForAll(address,address)": "e985e9c5",
    "isRetired(address)": "6d3c6275",
    "issuance()": "863623bb",
    "mint(address)": "6a627842",
    "name()": "06fdde03",
    "owner()": "8da5cb5b",
    "ownerOf(uint256)": "6352211e",
    "pause()": "8456cb59",
    "paused()": "5c975abb",
    "proofOfPossessionMessage(bytes,address)": "6850eb31",
    "renounceOwnership()": "715018a6",
    "safeTransferFrom(address,address,uint256)": "42842e0e",
    "safeTransferFrom(address,address,uint256,bytes)": "b88d4fde",
    "setApprovalForAll(address,bool)": "a22cb465",
    "stake(bytes,(bytes,bytes))": "b5184324",
    "stakeConfig(uint8)": "a71954ec",
    "supportsInterface(bytes4)": "01ffc9a7",
    "symbol()": "95d89b41",
    "tokenByIndex(uint256)": "4f6ccce7",
    "tokenOfOwnerByIndex(address,uint256)": "2f745c59",
    "tokenURI(uint256)": "c87b56dd",
    "totalSupply()": "18160ddd",
    "transferFrom(address,address,uint256)": "23b872dd",
    "transferOwnership(address)": "f2fde38b",
    "unpause()": "3f4ba83a",
    "unstake(address)": "f2888dbb",
    "upgradeStakeVersion((uint256,uint256,uint256,uint32))": "c05df7ac",
    "validators(address)": "fa52c7d8"
  },
  "id": 207
}