{"abi":[{"type":"constructor","inputs":[{"name":"genesisConfig_","type":"tuple","internalType":"struct IStakeManager.StakeConfig","components":[{"name":"stakeAmount","type":"uint256","internalType":"uint256"},{"name":"minWithdrawAmount","type":"uint256","internalType":"uint256"},{"name":"epochIssuance","type":"uint256","internalType":"uint256"},{"name":"epochDuration","type":"uint32","internalType":"uint32"}]},{"name":"initialValidators_","type":"tuple[]","internalType":"struct IConsensusRegistry.ValidatorInfo[]","components":[{"name":"validatorAddress","type":"address","internalType":"address"},{"name":"activationEpoch","type":"uint32","internalType":"uint32"},{"name":"exitEpoch","type":"uint32","internalType":"uint32"},{"name":"currentStatus","type":"uint8","internalType":"enum IConsensusRegistry.ValidatorStatus"},{"name":"isRetired","type":"bool","internalType":"bool"},{"name":"stakeVersion","type":"uint8","internalType":"uint8"},{"name":"region","type":"uint8","internalType":"uint8"}]},{"name":"blsPubkeys_","type":"bytes[]","internalType":"bytes[]"},{"name":"proofsOfPossession","type":"tuple[]","internalType":"struct IStakeManager.ProofOfPossession[]","components":[{"name":"signature","type":"bytes","internalType":"bytes"}]},{"name":"owner_","type":"address","internalType":"address"}],"stateMutability":"nonpayable"},{"type":"function","name":"SYSTEM_ADDRESS","inputs":[],"outputs":[{"name":"","type":"address","internalType":"address"}],"stateMutability":"view"},{"type":"function","name":"activate","inputs":[],"outputs":[],"stateMutability":"nonpayable"},{"type":"function","name":"allocateIssuance","inputs":[],"outputs":[],"stateMutability":"payable"},{"type":"function","name":"applyIncentives","inputs":[{"name":"rewardInfos","type":"tuple[]","internalType":"struct RewardInfo[]","components":[{"name":"validatorAddress","type":"address","internalType":"address"},{"name":"consensusHeaderCount","type":"uint256","internalType":"uint256"}]}],"outputs":[],"stateMutability":"nonpayable"},{"type":"function","name":"applySlashes","inputs":[{"name":"slashes","type":"tuple[]","internalType":"struct Slash[]","components":[{"name":"validatorAddress","type":"address","internalType":"address"},{"name":"amount","type":"uint256","internalType":"uint256"}]}],"outputs":[],"stateMutability":"nonpayable"},{"type":"function","name":"approve","inputs":[{"name":"","type":"address","internalType":"address"},{"name":"","type":"uint256","internalType":"uint256"}],"outputs":[],"stateMutability":"nonpayable"},{"type":"function","name":"balanceOf","inputs":[{"name":"owner","type":"address","internalType":"address"}],"outputs":[{"name":"","type":"uint256","internalType":"uint256"}],"stateMutability":"view"},{"type":"function","name":"beginExit","inputs":[],"outputs":[],"stateMutability":"nonpayable"},{"type":"function","name":"burn","inputs":[{"name":"validatorAddress","type":"address","internalType":"address"}],"outputs":[],"stateMutability":"nonpayable"},{"type":"function","name":"claimStakeRewards","inputs":[{"name":"validatorAddress","type":"address","internalType":"address"}],"outputs":[],"stateMutability":"nonpayable"},{"type":"function","name":"concludeEpoch","inputs":[{"name":"futureCommittee","type":"address[]","internalType":"address[]"}],"outputs":[],"stateMutability":"nonpayable"},{"type":"function","name":"delegateStake","inputs":[{"name":"blsPubkey","type":"bytes","internalType":"bytes"},{"name":"proofOfPossession","type":"tuple","internalType":"struct IStakeManager.ProofOfPossession","components":[{"name":"signature","type":"bytes","internalType":"bytes"}]},{"name":"validatorAddress","type":"address","internalType":"address"},{"name":"validatorEIP712Signature","type":"bytes","internalType":"bytes"}],"outputs":[],"stateMutability":"payable"},{"type":"function","name":"delegationDigest","inputs":[{"name":"blsPubkey","type":"bytes","internalType":"bytes"},{"name":"validatorAddress","type":"address","internalType":"address"},{"name":"delegator","type":"address","internalType":"address"}],"outputs":[{"name":"","type":"bytes32","internalType":"bytes32"}],"stateMutability":"view"},{"type":"function","name":"eip712Domain","inputs":[],"outputs":[{"name":"fields","type":"bytes1","internalType":"bytes1"},{"name":"name","type":"string","internalType":"string"},{"name":"version","type":"string","internalType":"string"},{"name":"chainId","type":"uint256","internalType":"uint256"},{"name":"verifyingContract","type":"address","internalType":"address"},{"name":"salt","type":"bytes32","internalType":"bytes32"},{"name":"extensions","type":"uint256[]","internalType":"uint256[]"}],"stateMutability":"view"},{"type":"function","name":"epochInfo","inputs":[{"name":"","type":"uint256","internalType":"uint256"}],"outputs":[{"name":"epochIssuance","type":"uint256","internalType":"uint256"},{"name":"blockHeight","type":"uint64","internalType":"uint64"},{"name":"epochId","type":"uint32","internalType":"uint32"},{"name":"epochDuration","type":"uint32","internalType":"uint32"},{"name":"stakeVersion","type":"uint8","internalType":"uint8"}],"stateMutability":"view"},{"type":"function","name":"futureEpochInfo","inputs":[{"name":"","type":"uint256","internalType":"uint256"}],"outputs":[{"name":"epochIssuance","type":"uint256","internalType":"uint256"},{"name":"blockHeight","type":"uint64","internalType":"uint64"},{"name":"epochId","type":"uint32","internalType":"uint32"},{"name":"epochDuration","type":"uint32","internalType":"uint32"},{"name":"stakeVersion","type":"uint8","internalType":"uint8"}],"stateMutability":"view"},{"type":"function","name":"getApproved","inputs":[{"name":"tokenId","type":"uint256","internalType":"uint256"}],"outputs":[{"name":"","type":"address","internalType":"address"}],"stateMutability":"view"},{"type":"function","name":"getBalanceBreakdown","inputs":[{"name":"validatorAddress","type":"address","internalType":"address"}],"outputs":[{"name":"","type":"uint256","internalType":"uint256"},{"name":"","type":"uint256","internalType":"uint256"},{"name":"","type":"uint256","internalType":"uint256"}],"stateMutability":"view"},{"type":"function","name":"getBlsPubkey","inputs":[{"name":"validatorAddress","type":"address","internalType":"address"}],"outputs":[{"name":"","type":"bytes","internalType":"bytes"}],"stateMutability":"view"},{"type":"function","name":"getCommitteeBlsPubkeys","inputs":[{"name":"epoch","type":"uint32","internalType":"uint32"}],"outputs":[{"name":"","type":"bytes[]","internalType":"bytes[]"}],"stateMutability":"view"},{"type":"function","name":"getCommitteeValidators","inputs":[{"name":"epoch","type":"uint32","internalType":"uint32"}],"outputs":[{"name":"","type":"tuple[]","internalType":"struct IConsensusRegistry.ValidatorInfo[]","components":[{"name":"validatorAddress","type":"address","internalType":"address"},{"name":"activationEpoch","type":"uint32","internalType":"uint32"},{"name":"exitEpoch","type":"uint32","internalType":"uint32"},{"name":"currentStatus","type":"uint8","internalType":"enum IConsensusRegistry.ValidatorStatus"},{"name":"isRetired","type":"bool","internalType":"bool"},{"name":"stakeVersion","type":"uint8","internalType":"uint8"},{"name":"region","type":"uint8","internalType":"uint8"}]}],"stateMutability":"view"},{"type":"function","name":"getCurrentEpoch","inputs":[],"outputs":[{"name":"","type":"uint32","internalType":"uint32"}],"stateMutability":"view"},{"type":"function","name":"getCurrentEpochInfo","inputs":[],"outputs":[{"name":"","type":"tuple","internalType":"struct IConsensusRegistry.EpochInfo","components":[{"name":"committee","type":"address[]","internalType":"address[]"},{"name":"epochIssuance","type":"uint256","internalType":"uint256"},{"name":"blockHeight","type":"uint64","internalType":"uint64"},{"name":"epochId","type":"uint32","internalType":"uint32"},{"name":"epochDuration","type":"uint32","internalType":"uint32"},{"name":"stakeVersion","type":"uint8","internalType":"uint8"}]}],"stateMutability":"view"},{"type":"function","name":"getCurrentStakeConfig","inputs":[],"outputs":[{"name":"","type":"tuple","internalType":"struct IStakeManager.StakeConfig","components":[{"name":"stakeAmount","type":"uint256","internalType":"uint256"},{"name":"minWithdrawAmount","type":"uint256","internalType":"uint256"},{"name":"epochIssuance","type":"uint256","internalType":"uint256"},{"name":"epochDuration","type":"uint32","internalType":"uint32"}]}],"stateMutability":"view"},{"type":"function","name":"getCurrentStakeVersion","inputs":[],"outputs":[{"name":"","type":"uint8","internalType":"uint8"}],"stateMutability":"view"},{"type":"function","name":"getEligibleValidatorCount","inputs":[],"outputs":[{"name":"","type":"uint256","internalType":"uint256"}],"stateMutability":"view"},{"type":"function","name":"getEpochInfo","inputs":[{"name":"epoch","type":"uint32","internalType":"uint32"}],"outputs":[{"name":"","type":"tuple","internalType":"struct IConsensusRegistry.EpochInfo","components":[{"name":"committee","type":"address[]","internalType":"address[]"},{"name":"epochIssuance","type":"uint256","internalType":"uint256"},{"name":"blockHeight","type":"uint64","internalType":"uint64"},{"name":"epochId","type":"uint32","internalType":"uint32"},{"name":"epochDuration","type":"uint32","internalType":"uint32"},{"name":"stakeVersion","type":"uint8","internalType":"uint8"}]}],"stateMutability":"view"},{"type":"function","name":"getNextCommitteeSize","inputs":[],"outputs":[{"name":"","type":"uint16","internalType":"uint16"}],"stateMutability":"view"},{"type":"function","name":"getRewards","inputs":[{"name":"validatorAddress","type":"address","internalType":"address"}],"outputs":[{"name":"","type":"uint256","internalType":"uint256"}],"stateMutability":"view"},{"type":"function","name":"getValidator","inputs":[{"name":"validatorAddress","type":"address","internalType":"address"}],"outputs":[{"name":"","type":"tuple","internalType":"struct IConsensusRegistry.ValidatorInfo","components":[{"name":"validatorAddress","type":"address","internalType":"address"},{"name":"activationEpoch","type":"uint32","internalType":"uint32"},{"name":"exitEpoch","type":"uint32","internalType":"uint32"},{"name":"currentStatus","type":"uint8","internalType":"enum IConsensusRegistry.ValidatorStatus"},{"name":"isRetired","type":"bool","internalType":"bool"},{"name":"stakeVersion","type":"uint8","internalType":"uint8"},{"name":"region","type":"uint8","internalType":"uint8"}]}],"stateMutability":"view"},{"type":"function","name":"getValidators","inputs":[{"name":"status","type":"uint8","internalType":"enum IConsensusRegistry.ValidatorStatus"}],"outputs":[{"name":"","type":"address[]","internalType":"address[]"}],"stateMutability":"view"},{"type":"function","name":"getValidatorsInfo","inputs":[{"name":"status","type":"uint8","internalType":"enum IConsensusRegistry.ValidatorStatus"}],"outputs":[{"name":"","type":"tuple[]","internalType":"struct IConsensusRegistry.ValidatorInfo[]","components":[{"name":"validatorAddress","type":"address","internalType":"address"},{"name":"activationEpoch","type":"uint32","internalType":"uint32"},{"name":"exitEpoch","type":"uint32","internalType":"uint32"},{"name":"currentStatus","type":"uint8","internalType":"enum IConsensusRegistry.ValidatorStatus"},{"name":"isRetired","type":"bool","internalType":"bool"},{"name":"stakeVersion","type":"uint8","internalType":"uint8"},{"name":"region","type":"uint8","internalType":"uint8"}]}],"stateMutability":"view"},{"type":"function","name":"isApprovedForAll","inputs":[{"name":"owner","type":"address","internalType":"address"},{"name":"operator","type":"address","internalType":"address"}],"outputs":[{"name":"","type":"bool","internalType":"bool"}],"stateMutability":"view"},{"type":"function","name":"isDelegated","inputs":[{"name":"validatorAddress","type":"address","internalType":"address"}],"outputs":[{"name":"","type":"bool","internalType":"bool"}],"stateMutability":"view"},{"type":"function","name":"isRetired","inputs":[{"name":"validatorAddress","type":"address","internalType":"address"}],"outputs":[{"name":"","type":"bool","internalType":"bool"}],"stateMutability":"view"},{"type":"function","name":"isValidator","inputs":[{"name":"blsPubkey","type":"bytes","internalType":"bytes"}],"outputs":[{"name":"","type":"bool","internalType":"bool"}],"stateMutability":"view"},{"type":"function","name":"issuance","inputs":[],"outputs":[{"name":"","type":"address","internalType":"address payable"}],"stateMutability":"view"},{"type":"function","name":"migrateValidatorSets","inputs":[],"outputs":[],"stateMutability":"nonpayable"},{"type":"function","name":"mint","inputs":[{"name":"validatorAddress","type":"address","internalType":"address"}],"outputs":[],"stateMutability":"nonpayable"},{"type":"function","name":"name","inputs":[],"outputs":[{"name":"","type":"string","internalType":"string"}],"stateMutability":"view"},{"type":"function","name":"owner","inputs":[],"outputs":[{"name":"","type":"address","internalType":"address"}],"stateMutability":"view"},{"type":"function","name":"ownerOf","inputs":[{"name":"tokenId","type":"uint256","internalType":"uint256"}],"outputs":[{"name":"","type":"address","internalType":"address"}],"stateMutability":"view"},{"type":"function","name":"pause","inputs":[],"outputs":[],"stateMutability":"nonpayable"},{"type":"function","name":"paused","inputs":[],"outputs":[{"name":"","type":"bool","internalType":"bool"}],"stateMutability":"view"},{"type":"function","name":"renounceOwnership","inputs":[],"outputs":[],"stateMutability":"nonpayable"},{"type":"function","name":"safeTransferFrom","inputs":[{"name":"from","type":"address","internalType":"address"},{"name":"to","type":"address","internalType":"address"},{"name":"tokenId","type":"uint256","internalType":"uint256"}],"outputs":[],"stateMutability":"nonpayable"},{"type":"function","name":"safeTransferFrom","inputs":[{"name":"from","type":"address","internalType":"address"},{"name":"to","type":"address","internalType":"address"},{"name":"tokenId","type":"uint256","internalType":"uint256"},{"name":"data","type":"bytes","internalType":"bytes"}],"outputs":[],"stateMutability":"nonpayable"},{"type":"function","name":"setApprovalForAll","inputs":[{"name":"","type":"address","internalType":"address"},{"name":"","type":"bool","internalType":"bool"}],"outputs":[],"stateMutability":"nonpayable"},{"type":"function","name":"setNextCommitteeSize","inputs":[{"name":"newSize","type":"uint16","internalType":"uint16"}],"outputs":[],"stateMutability":"nonpayable"},{"type":"function","name":"setValidatorRegion","inputs":[{"name":"validatorAddress","type":"address","internalType":"address"},{"name":"region","type":"uint8","internalType":"uint8"}],"outputs":[],"stateMutability":"nonpayable"},{"type":"function","name":"stake","inputs":[{"name":"blsPubkey","type":"bytes","internalType":"bytes"},{"name":"proofOfPossession","type":"tuple","internalType":"struct IStakeManager.ProofOfPossession","components":[{"name":"signature","type":"bytes","internalType":"bytes"}]}],"outputs":[],"stateMutability":"payable"},{"type":"function","name":"stakeConfig","inputs":[{"name":"version","type":"uint8","internalType":"uint8"}],"outputs":[{"name":"","type":"tuple","internalType":"struct IStakeManager.StakeConfig","components":[{"name":"stakeAmount","type":"uint256","internalType":"uint256"},{"name":"minWithdrawAmount","type":"uint256","internalType":"uint256"},{"name":"epochIssuance","type":"uint256","internalType":"uint256"},{"name":"epochDuration","type":"uint32","internalType":"uint32"}]}],"stateMutability":"view"},{"type":"function","name":"supportsInterface","inputs":[{"name":"interfaceId","type":"bytes4","internalType":"bytes4"}],"outputs":[{"name":"","type":"bool","internalType":"bool"}],"stateMutability":"view"},{"type":"function","name":"symbol","inputs":[],"outputs":[{"name":"","type":"string","internalType":"string"}],"stateMutability":"view"},{"type":"function","name":"tokenByIndex","inputs":[{"name":"index","type":"uint256","internalType":"uint256"}],"outputs":[{"name":"","type":"uint256","internalType":"uint256"}],"stateMutability":"view"},{"type":"function","name":"tokenOfOwnerByIndex","inputs":[{"name":"owner","type":"address","internalType":"address"},{"name":"index","type":"uint256","internalType":"uint256"}],"outputs":[{"name":"","type":"uint256","internalType":"uint256"}],"stateMutability":"view"},{"type":"function","name":"tokenURI","inputs":[{"name":"tokenId","type":"uint256","internalType":"uint256"}],"outputs":[{"name":"","type":"string","internalType":"string"}],"stateMutability":"view"},{"type":"function","name":"totalSupply","inputs":[],"outputs":[{"name":"","type":"uint256","internalType":"uint256"}],"stateMutability":"view"},{"type":"function","name":"transferFrom","inputs":[{"name":"","type":"address","internalType":"address"},{"name":"","type":"address","internalType":"address"},{"name":"","type":"uint256","internalType":"uint256"}],"outputs":[],"stateMutability":"nonpayable"},{"type":"function","name":"transferOwnership","inputs":[{"name":"newOwner","type":"address","internalType":"address"}],"outputs":[],"stateMutability":"nonpayable"},{"type":"function","name":"undistributedIssuance","inputs":[],"outputs":[{"name":"","type":"uint256","internalType":"uint256"}],"stateMutability":"view"},{"type":"function","name":"unpause","inputs":[],"outputs":[],"stateMutability":"nonpayable"},{"type":"function","name":"unstake","inputs":[{"name":"validatorAddress","type":"address","internalType":"address"}],"outputs":[],"stateMutability":"nonpayable"},{"type":"function","name":"upgradeStakeVersion","inputs":[{"name":"newConfig","type":"tuple","internalType":"struct IStakeManager.StakeConfig","components":[{"name":"stakeAmount","type":"uint256","internalType":"uint256"},{"name":"minWithdrawAmount","type":"uint256","internalType":"uint256"},{"name":"epochIssuance","type":"uint256","internalType":"uint256"},{"name":"epochDuration","type":"uint32","internalType":"uint32"}]}],"outputs":[{"name":"","type":"uint8","internalType":"uint8"}],"stateMutability":"nonpayable"},{"type":"function","name":"upgradeValidatorStakeVersion","inputs":[{"name":"validatorAddress","type":"address","internalType":"address"},{"name":"targetVersion","type":"uint8","internalType":"uint8"}],"outputs":[],"stateMutability":"payable"},{"type":"function","name":"validators","inputs":[{"name":"","type":"address","internalType":"address"}],"outputs":[{"name":"validatorAddress","type":"address","internalType":"address"},{"name":"activationEpoch","type":"uint32","internalType":"uint32"},{"name":"exitEpoch","type":"uint32","internalType":"uint32"},{"name":"currentStatus","type":"uint8","internalType":"enum IConsensusRegistry.ValidatorStatus"},{"name":"isRetired","type":"bool","internalType":"bool"},{"name":"stakeVersion","type":"uint8","internalType":"uint8"},{"name":"region","type":"uint8","internalType":"uint8"}],"stateMutability":"view"},{"type":"event","name":"Approval","inputs":[{"name":"owner","type":"address","indexed":true,"internalType":"address"},{"name":"approved","type":"address","indexed":true,"internalType":"address"},{"name":"tokenId","type":"uint256","indexed":true,"internalType":"uint256"}],"anonymous":false},{"type":"event","name":"ApprovalForAll","inputs":[{"name":"owner","type":"address","indexed":true,"internalType":"address"},{"name":"operator","type":"address","indexed":true,"internalType":"address"},{"name":"approved","type":"bool","indexed":false,"internalType":"bool"}],"anonymous":false},{"type":"event","name":"NewEpoch","inputs":[{"name":"epoch","type":"tuple","indexed":false,"internalType":"struct IConsensusRegistry.EpochInfo","components":[{"name":"committee","type":"address[]","internalType":"address[]"},{"name":"epochIssuance","type":"uint256","internalType":"uint256"},{"name":"blockHeight","type":"uint64","internalType":"uint64"},{"name":"epochId","type":"uint32","internalType":"uint32"},{"name":"epochDuration","type":"uint32","internalType":"uint32"},{"name":"stakeVersion","type":"uint8","internalType":"uint8"}]}],"anonymous":false},{"type":"event","name":"NextCommitteeSizeUpdated","inputs":[{"name":"oldSize","type":"uint16","indexed":false,"internalType":"uint16"},{"name":"newSize","type":"uint16","indexed":false,"internalType":"uint16"},{"name":"numActiveValidators","type":"uint256","indexed":false,"internalType":"uint256"}],"anonymous":false},{"type":"event","name":"OwnershipTransferred","inputs":[{"name":"previousOwner","type":"address","indexed":true,"internalType":"address"},{"name":"newOwner","type":"address","indexed":true,"internalType":"address"}],"anonymous":false},{"type":"event","name":"Paused","inputs":[{"name":"account","type":"address","indexed":false,"internalType":"address"}],"anonymous":false},{"type":"event","name":"RewardsClaimed","inputs":[{"name":"claimant","type":"address","indexed":true,"internalType":"address"},{"name":"rewards","type":"uint256","indexed":false,"internalType":"uint256"}],"anonymous":false},{"type":"event","name":"Transfer","inputs":[{"name":"from","type":"address","indexed":true,"internalType":"address"},{"name":"to","type":"address","indexed":true,"internalType":"address"},{"name":"tokenId","type":"uint256","indexed":true,"internalType":"uint256"}],"anonymous":false},{"type":"event","name":"Unpaused","inputs":[{"name":"account","type":"address","indexed":false,"internalType":"address"}],"anonymous":false},{"type":"event","name":"ValidatorActivated","inputs":[{"name":"validator","type":"tuple","indexed":false,"internalType":"struct IConsensusRegistry.ValidatorInfo","components":[{"name":"validatorAddress","type":"address","internalType":"address"},{"name":"activationEpoch","type":"uint32","internalType":"uint32"},{"name":"exitEpoch","type":"uint32","internalType":"uint32"},{"name":"currentStatus","type":"uint8","internalType":"enum IConsensusRegistry.ValidatorStatus"},{"name":"isRetired","type":"bool","internalType":"bool"},{"name":"stakeVersion","type":"uint8","internalType":"uint8"},{"name":"region","type":"uint8","internalType":"uint8"}]}],"anonymous":false},{"type":"event","name":"ValidatorExited","inputs":[{"name":"validator","type":"tuple","indexed":false,"internalType":"struct IConsensusRegistry.ValidatorInfo","components":[{"name":"validatorAddress","type":"address","internalType":"address"},{"name":"activationEpoch","type":"uint32","internalType":"uint32"},{"name":"exitEpoch","type":"uint32","internalType":"uint32"},{"name":"currentStatus","type":"uint8","internalType":"enum IConsensusRegistry.ValidatorStatus"},{"name":"isRetired","type":"bool","internalType":"bool"},{"name":"stakeVersion","type":"uint8","internalType":"uint8"},{"name":"region","type":"uint8","internalType":"uint8"}]}],"anonymous":false},{"type":"event","name":"ValidatorPendingActivation","inputs":[{"name":"validator","type":"tuple","indexed":false,"internalType":"struct IConsensusRegistry.ValidatorInfo","components":[{"name":"validatorAddress","type":"address","internalType":"address"},{"name":"activationEpoch","type":"uint32","internalType":"uint32"},{"name":"exitEpoch","type":"uint32","internalType":"uint32"},{"name":"currentStatus","type":"uint8","internalType":"enum IConsensusRegistry.ValidatorStatus"},{"name":"isRetired","type":"bool","internalType":"bool"},{"name":"stakeVersion","type":"uint8","internalType":"uint8"},{"name":"region","type":"uint8","internalType":"uint8"}]}],"anonymous":false},{"type":"event","name":"ValidatorPendingExit","inputs":[{"name":"validator","type":"tuple","indexed":false,"internalType":"struct IConsensusRegistry.ValidatorInfo","components":[{"name":"validatorAddress","type":"address","internalType":"address"},{"name":"activationEpoch","type":"uint32","internalType":"uint32"},{"name":"exitEpoch","type":"uint32","internalType":"uint32"},{"name":"currentStatus","type":"uint8","internalType":"enum IConsensusRegistry.ValidatorStatus"},{"name":"isRetired","type":"bool","internalType":"bool"},{"name":"stakeVersion","type":"uint8","internalType":"uint8"},{"name":"region","type":"uint8","internalType":"uint8"}]}],"anonymous":false},{"type":"event","name":"ValidatorRegionUpdated","inputs":[{"name":"validatorAddress","type":"address","indexed":true,"internalType":"address"},{"name":"region","type":"uint8","indexed":false,"internalType":"uint8"}],"anonymous":false},{"type":"event","name":"ValidatorRetired","inputs":[{"name":"validator","type":"tuple","indexed":false,"internalType":"struct IConsensusRegistry.ValidatorInfo","components":[{"name":"validatorAddress","type":"address","internalType":"address"},{"name":"activationEpoch","type":"uint32","internalType":"uint32"},{"name":"exitEpoch","type":"uint32","internalType":"uint32"},{"name":"currentStatus","type":"uint8","internalType":"enum IConsensusRegistry.ValidatorStatus"},{"name":"isRetired","type":"bool","internalType":"bool"},{"name":"stakeVersion","type":"uint8","internalType":"uint8"},{"name":"region","type":"uint8","internalType":"uint8"}]}],"anonymous":false},{"type":"event","name":"ValidatorSetsMigrated","inputs":[{"name":"eligibleValidatorCount","type":"uint256","indexed":false,"internalType":"uint256"}],"anonymous":false},{"type":"event","name":"ValidatorSlashed","inputs":[{"name":"slash","type":"tuple","indexed":false,"internalType":"struct Slash","components":[{"name":"validatorAddress","type":"address","internalType":"address"},{"name":"amount","type":"uint256","internalType":"uint256"}]}],"anonymous":false},{"type":"event","name":"ValidatorStakeVersionUpgraded","inputs":[{"name":"validatorAddress","type":"address","indexed":true,"internalType":"address"},{"name":"oldVersion","type":"uint8","indexed":false,"internalType":"uint8"},{"name":"newVersion","type":"uint8","indexed":false,"internalType":"uint8"},{"name":"oldStakeAmount","type":"uint256","indexed":false,"internalType":"uint256"},{"name":"newStakeAmount","type":"uint256","indexed":false,"internalType":"uint256"}],"anonymous":false},{"type":"event","name":"ValidatorStaked","inputs":[{"name":"validator","type":"tuple","indexed":false,"internalType":"struct IConsensusRegistry.ValidatorInfo","components":[{"name":"validatorAddress","type":"address","internalType":"address"},{"name":"activationEpoch","type":"uint32","internalType":"uint32"},{"name":"exitEpoch","type":"uint32","internalType":"uint32"},{"name":"currentStatus","type":"uint8","internalType":"enum IConsensusRegistry.ValidatorStatus"},{"name":"isRetired","type":"bool","internalType":"bool"},{"name":"stakeVersion","type":"uint8","internalType":"uint8"},{"name":"region","type":"uint8","internalType":"uint8"}]}],"anonymous":false},{"type":"error","name":"AlreadyDefined","inputs":[{"name":"validatorAddress","type":"address","internalType":"address"}]},{"type":"error","name":"BLSPubkeyMismatch","inputs":[]},{"type":"error","name":"BlsPubkeyNotFound","inputs":[{"name":"validatorAddress","type":"address","internalType":"address"}]},{"type":"error","name":"CommitteeRequirement","inputs":[{"name":"validatorAddress","type":"address","internalType":"address"}]},{"type":"error","name":"DuplicateBLSPubkey","inputs":[]},{"type":"error","name":"ERC721EnumerableForbiddenBatchMint","inputs":[]},{"type":"error","name":"ERC721IncorrectOwner","inputs":[{"name":"sender","type":"address","internalType":"address"},{"name":"tokenId","type":"uint256","internalType":"uint256"},{"name":"owner","type":"address","internalType":"address"}]},{"type":"error","name":"ERC721InsufficientApproval","inputs":[{"name":"operator","type":"address","internalType":"address"},{"name":"tokenId","type":"uint256","internalType":"uint256"}]},{"type":"error","name":"ERC721InvalidApprover","inputs":[{"name":"approver","type":"address","internalType":"address"}]},{"type":"error","name":"ERC721InvalidOperator","inputs":[{"name":"operator","type":"address","internalType":"address"}]},{"type":"error","name":"ERC721InvalidOwner","inputs":[{"name":"owner","type":"address","internalType":"address"}]},{"type":"error","name":"ERC721InvalidReceiver","inputs":[{"name":"receiver","type":"address","internalType":"address"}]},{"type":"error","name":"ERC721InvalidSender","inputs":[{"name":"sender","type":"address","internalType":"address"}]},{"type":"error","name":"ERC721NonexistentToken","inputs":[{"name":"tokenId","type":"uint256","internalType":"uint256"}]},{"type":"error","name":"ERC721OutOfBoundsIndex","inputs":[{"name":"owner","type":"address","internalType":"address"},{"name":"index","type":"uint256","internalType":"uint256"}]},{"type":"error","name":"EnforcedPause","inputs":[]},{"type":"error","name":"ExpectedPause","inputs":[]},{"type":"error","name":"GenesisArityMismatch","inputs":[]},{"type":"error","name":"IneligibleUnstake","inputs":[{"name":"validator","type":"tuple","internalType":"struct IConsensusRegistry.ValidatorInfo","components":[{"name":"validatorAddress","type":"address","internalType":"address"},{"name":"activationEpoch","type":"uint32","internalType":"uint32"},{"name":"exitEpoch","type":"uint32","internalType":"uint32"},{"name":"currentStatus","type":"uint8","internalType":"enum IConsensusRegistry.ValidatorStatus"},{"name":"isRetired","type":"bool","internalType":"bool"},{"name":"stakeVersion","type":"uint8","internalType":"uint8"},{"name":"region","type":"uint8","internalType":"uint8"}]}]},{"type":"error","name":"InsufficientRewards","inputs":[{"name":"withdrawAmount","type":"uint256","internalType":"uint256"}]},{"type":"error","name":"InvalidBLSPubkey","inputs":[]},{"type":"error","name":"InvalidCommitteeSize","inputs":[{"name":"minCommitteeSize","type":"uint256","internalType":"uint256"},{"name":"providedCommitteeSize","type":"uint256","internalType":"uint256"}]},{"type":"error","name":"InvalidDuration","inputs":[{"name":"duration","type":"uint32","internalType":"uint32"}]},{"type":"error","name":"InvalidEpoch","inputs":[{"name":"epoch","type":"uint32","internalType":"uint32"}]},{"type":"error","name":"InvalidProofOfPossession","inputs":[{"name":"proof","type":"tuple","internalType":"struct IStakeManager.ProofOfPossession","components":[{"name":"signature","type":"bytes","internalType":"bytes"}]}]},{"type":"error","name":"InvalidStakeAmount","inputs":[{"name":"stakeAmount","type":"uint256","internalType":"uint256"}]},{"type":"error","name":"InvalidStakeVersion","inputs":[{"name":"currentVersion","type":"uint8","internalType":"uint8"},{"name":"targetVersion","type":"uint8","internalType":"uint8"}]},{"type":"error","name":"InvalidStatus","inputs":[{"name":"status","type":"uint8","internalType":"enum IConsensusRegistry.ValidatorStatus"}]},{"type":"error","name":"InvalidSupply","inputs":[]},{"type":"error","name":"InvalidTokenId","inputs":[{"name":"tokenId","type":"uint256","internalType":"uint256"}]},{"type":"error","name":"InvalidValidatorAddress","inputs":[]},{"type":"error","name":"IssuanceTransferFailed","inputs":[]},{"type":"error","name":"LowLevelCallFailure","inputs":[{"name":"err","type":"bytes","internalType":"bytes"}]},{"type":"error","name":"NotRecipient","inputs":[{"name":"recipient","type":"address","internalType":"address"}]},{"type":"error","name":"NotTransferable","inputs":[]},{"type":"error","name":"NotValidator","inputs":[{"name":"validatorAddress","type":"address","internalType":"address"}]},{"type":"error","name":"OnlySystemCall","inputs":[{"name":"invalidCaller","type":"address","internalType":"address"}]},{"type":"error","name":"OwnableInvalidOwner","inputs":[{"name":"owner","type":"address","internalType":"address"}]},{"type":"error","name":"OwnableUnauthorizedAccount","inputs":[{"name":"account","type":"address","internalType":"address"}]},{"type":"error","name":"Reentrancy","inputs":[]},{"type":"error","name":"RequiresConsensusNFT","inputs":[]},{"type":"error","name":"StringsInsufficientHexLength","inputs":[{"name":"value","type":"uint256","internalType":"uint256"},{"name":"length","type":"uint256","internalType":"uint256"}]}],"bytecode":{"object":"0x610120604052348015610010575f5ffd5b50604051618a3b380380618a3b83398101604081905261002f91611548565b806040518060400160405280600c81526020016b10dbdb9cd95b9cdd5cd3919560a21b8152506040518060400160405280600481526020016310d3919560e21b8152508181815f908161008291906116bf565b50600161008f82826116bf565b505030608052504660a0526060806100ef604080518082018252601481527f54656c636f696e205374616b654d616e61676572000000000000000000000000602080830191909152825180840190935260018352603160f81b9083015291565b815160209283012081519183019190912060c082905260e0819052604080517f8b73c3c69bb8fe3d512ecc4cf759cc79239f7b179b0ffacaa9a75d522b39400f8152938401929092529082015246606082015230608082015260a09020610100525050600d805461ff001916905550506001600160a01b03811661018d57604051631e4fbdf760e01b81525f60048201526024015b60405180910390fd5b61019681610837565b50835115806101a757508251845114155b806101b457508151845114155b156101d257604051633aa3e03360e01b815260040160405180910390fd5b5f808052600a602090815286517f13da86008ba1c6922daee3e07db95305ef49ebced9f5467a0b8613fcc6b343e3558601517f13da86008ba1c6922daee3e07db95305ef49ebced9f5467a0b8613fcc6b343e45560408601517f13da86008ba1c6922daee3e07db95305ef49ebced9f5467a0b8613fcc6b343e55560608601517f13da86008ba1c6922daee3e07db95305ef49ebced9f5467a0b8613fcc6b343e6805463ffffffff191663ffffffff9092169190911790558451600d805461ffff60d81b1916600160d81b61ffff909316929092029190911790555b600281116103b8575f601182600481106102ca576102ca61177d565b6003020160028101805460608a0151600160401b600160801b03199091166801000000000000000063ffffffff8781169190910263ffffffff60601b1916919091176c0100000000000000000000000091909216021790556040880151600182015590505f601d83600481106103425761034261177d565b6003020160028101805460608b0151600160401b600160801b03199091166801000000000000000063ffffffff8881169190910263ffffffff60601b1916919091176c0100000000000000000000000091909216021790556040890151600190910155506103b19050816117a5565b90506102ae565b505f5b8451811015610827575f8582815181106103d7576103d761177d565b602002602001015190505f6104288584815181106103f7576103f761177d565b6020026020010151835f01518886815181106104155761041561177d565b602002602001015161089260201b60201c565b82519091506001600160a01b03166104535760405163713ce51160e01b815260040160405180910390fd5b602082015163ffffffff161561048a576020820151604051634fadd4d360e11b815263ffffffff9091166004820152602401610184565b604082015163ffffffff16156104c1576040808301519051634fadd4d360e11b815263ffffffff9091166004820152602401610184565b6003826060015160068111156104d9576104d96117bd565b146104fd578160600151604051633ba7bf8960e11b815260040161018491906117f1565b608082015115610523576005604051633ba7bf8960e11b815260040161018491906117f1565b60a082015160ff16156105545760a082015160405163222d164360e21b815260ff9091166004820152602401610184565b5f5b6002811161060a57601181600481106105715761057161177d565b84516003919091029190910180546001810182555f91825260209091200180546001600160a01b0319166001600160a01b03909216919091179055601d81600481106105bf576105bf61177d565b84516003919091029190910180546001810182555f91825260209091200180546001600160a01b0319166001600160a01b03909216919091179055610603816117a5565b9050610556565b5085838151811061061d5761061d61177d565b60209081029190910181015183516001600160a01b03165f908152602990925260409091209061064d90826116bf565b5081516001600160a01b039081165f908152600f602090815260409182902085518154928701519387015163ffffffff908116600160c01b0263ffffffff60c01b1991909516600160a01b026001600160c01b0319909416919095161791909117928316821781556060850151859391929091839160ff60e01b191664ffffffffff60c01b1990911617600160e01b8360068111156106ee576106ee6117bd565b02179055506080820151815460a084015160c09094015160ff908116600160f81b026001600160f81b0391909516600160f01b0260ff60f01b19931515600160e81b029390931661ffff60e81b19909216919091179190911716919091179055815160035f52602a602052610784907f4adfa5efd78af8432c8ff812ed4c3d89e016f048361846e090e1a7c770f3157690610a2e565b50875182516001600160a01b039081165f908152600b60209081526040808320949094558551858352601090915292902080546001600160a01b0319169290911691909117905581516107e6906107e1816001600160a01b031690565b610a4b565b7fabab4191fe954f07230f7e34fd48dc0fdcbed492526cd060001cccceab22851b8260405161081591906117ff565b60405180910390a150506001016103bb565b50509151602b55506119af915050565b600d80546001600160a01b038381166201000081810262010000600160b01b031985161790945560405193909204169182907f8be0079c531659141344cd1fd0a4f28419497f9722a3daafe3b4186f6b6457e0905f90a35050565b5f81516060146108b5576040516333a234f960e11b815260040160405180910390fd5b5f825f815181106108c8576108c861177d565b016020015160f81c90506080811615806108e457506040811615155b15610902576040516333a234f960e11b815260040160405180910390fd5b5f61090d8486610ab1565b86516040519192505f91829161b1519163a65ebb2560e01b91610936918a9088906024016118a7565b60408051601f198184030181529181526020820180516001600160e01b03166001600160e01b03199094169390931790925290516109749190611900565b5f60405180830381855afa9150503d805f81146109ac576040519150601f19603f3d011682016040523d82523d5f602084013e6109b1565b606091505b50915091508115806109c557508051602014155b156109e557806040516306fe67db60e31b8152600401610184919061190b565b808060200190518101906109f9919061191d565b610a18578760405163a865bb3560e01b81526004016101849190611936565b610a228688610b01565b98975050505050505050565b5f610a42836001600160a01b038416610b8d565b90505b92915050565b6001600160a01b038216610a7457604051633250574960e11b81525f6004820152602401610184565b5f610a80838383610bd9565b90506001600160a01b03811615610aac576040516339e3563760e11b81525f6004820152602401610184565b505050565b60608251606014610ad5576040516333a234f960e11b815260040160405180910390fd5b604051610aea905f9085908590602001611950565b604051602081830303815290604052905092915050565b604080516020848101516001600160fd1b031682528483015181830152606080860151838501529091205f8181526010909252919020546001600160a01b031615610b5f57604051638d12779f60e01b815260040160405180910390fd5b5f81815260106020526040902080546001600160a01b0384166001600160a01b031990911617905592915050565b5f818152600183016020526040812054610bd257508154600181810184555f848152602080822090930184905584548482528286019093526040902091909155610a45565b505f610a45565b5f80610be6858585610cac565b90506001600160a01b038116610c4257610c3d84600880545f838152600960205260408120829055600182018355919091527ff3f7a9fe364faab93b216da50a3214154f22a0a2b415b23a84c8169e8b636ee30155565b610c65565b846001600160a01b0316816001600160a01b031614610c6557610c658185610d9e565b6001600160a01b038516610c8157610c7c84610e1b565b610ca4565b846001600160a01b0316816001600160a01b031614610ca457610ca48585610ec2565b949350505050565b5f828152600260205260408120546001600160a01b0390811690831615610cd857610cd8818486610f10565b6001600160a01b03811615610d1257610cf35f858180610f74565b6001600160a01b0381165f90815260036020526040902080545f190190555b6001600160a01b03851615610d40576001600160a01b0385165f908152600360205260409020805460010190555b5f8481526002602052604080822080546001600160a01b0319166001600160a01b0389811691821790925591518793918516917fddf252ad1be2c89b69c2b068fc378daa952ba7f163c4a11628f55a4df523b3ef91a4949350505050565b5f610da883611096565b5f838152600760209081526040808320546001600160a01b0388168452600690925290912091925090818314610dfd575f83815260208281526040808320548584528184208190558352600790915290208290555b5f938452600760209081526040808620869055938552525081205550565b6008545f90610e2c90600190611988565b5f8381526009602052604081205460088054939450909284908110610e5357610e5361177d565b905f5260205f20015490508060088381548110610e7257610e7261177d565b5f918252602080832090910192909255828152600990915260408082208490558582528120556008805480610ea957610ea961199b565b600190038181905f5260205f20015f9055905550505050565b5f6001610ece84611096565b610ed89190611988565b6001600160a01b039093165f908152600660209081526040808320868452825280832085905593825260079052919091209190915550565b610f1b8383836110db565b610aac576001600160a01b038316610f4957604051637e27328960e01b815260048101829052602401610184565b60405163177e802f60e01b81526001600160a01b038316600482015260248101829052604401610184565b8080610f8857506001600160a01b03821615155b15611067575f610f978461115b565b90506001600160a01b03831615801590610fc35750826001600160a01b0316816001600160a01b031614155b8015610ff457506001600160a01b038082165f9081526005602090815260408083209387168352929052205460ff16155b1561101d5760405163a9fbf51f60e01b81526001600160a01b0384166004820152602401610184565b81156110655783856001600160a01b0316826001600160a01b03167f8c5be1e5ebec7d5bd14f71427d1e84f3dd0314c0f7b2291e5b200ac8c7c3b92560405160405180910390a45b505b50505f90815260046020526040902080546001600160a01b0319166001600160a01b0392909216919091179055565b5f6001600160a01b0382166110c0576040516322718ad960e21b81525f6004820152602401610184565b506001600160a01b03165f9081526003602052604090205490565b5f6001600160a01b03831615801590610ca45750826001600160a01b0316846001600160a01b0316148061113357506001600160a01b038085165f9081526005602090815260408083209387168352929052205460ff165b80610ca45750505f908152600460205260409020546001600160a01b03908116911614919050565b5f818152600260205260408120546001600160a01b031680610a4557604051637e27328960e01b815260048101849052602401610184565b634e487b7160e01b5f52604160045260245ffd5b60405160e081016001600160401b03811182821017156111c9576111c9611193565b60405290565b604051602081016001600160401b03811182821017156111c9576111c9611193565b604051608081016001600160401b03811182821017156111c9576111c9611193565b604051601f8201601f191681016001600160401b038111828210171561123b5761123b611193565b604052919050565b805163ffffffff81168114611256575f5ffd5b919050565b5f6001600160401b0382111561127357611273611193565b5060051b60200190565b80516001600160a01b0381168114611256575f5ffd5b80518015158114611256575f5ffd5b805160ff81168114611256575f5ffd5b5f82601f8301126112c1575f5ffd5b81516112d46112cf8261125b565b611213565b80828252602082019150602060e084028601019250858311156112f5575f5ffd5b602085015b8381101561139f5760e08188031215611311575f5ffd5b6113196111a7565b6113228261127d565b815261133060208301611243565b602082015261134160408301611243565b6040820152606082015160078110611357575f5ffd5b606082015261136860808301611293565b608082015261137960a083016112a2565b60a082015261138a60c083016112a2565b60c0820152835260209092019160e0016112fa565b5095945050505050565b5f82601f8301126113b8575f5ffd5b81516001600160401b038111156113d1576113d1611193565b6113e4601f8201601f1916602001611213565b8181528460208386010111156113f8575f5ffd5b8160208501602083015e5f918101602001919091529392505050565b5f82601f830112611423575f5ffd5b81516114316112cf8261125b565b8082825260208201915060208360051b860101925085831115611452575f5ffd5b602085015b8381101561139f5780516001600160401b03811115611474575f5ffd5b611483886020838a01016113a9565b84525060209283019201611457565b5f82601f8301126114a1575f5ffd5b81516114af6112cf8261125b565b8082825260208201915060208360051b8601019250858311156114d0575f5ffd5b602085015b8381101561139f5780516001600160401b038111156114f2575f5ffd5b86016020818903601f19011215611507575f5ffd5b61150f6111cf565b60208201516001600160401b03811115611527575f5ffd5b6115368a6020838601016113a9565b825250845250602092830192016114d5565b5f5f5f5f5f85870361010081121561155e575f5ffd5b608081121561156b575f5ffd5b506115746111f1565b86518152602080880151908201526040808801519082015261159860608801611243565b606082015260808701519095506001600160401b038111156115b8575f5ffd5b6115c4888289016112b2565b60a088015190955090506001600160401b038111156115e1575f5ffd5b6115ed88828901611414565b60c088015190945090506001600160401b0381111561160a575f5ffd5b61161688828901611492565b92505061162560e0870161127d565b90509295509295909350565b600181811c9082168061164557607f821691505b60208210810361166357634e487b7160e01b5f52602260045260245ffd5b50919050565b601f821115610aac5782821115610aac57805f5260205f20601f840160051c602085101561169457505f5b90810190601f840160051c035f5b818110156116b7575f838201556001016116a2565b505050505050565b81516001600160401b038111156116d8576116d8611193565b6116ec816116e68454611631565b84611669565b6020601f82116001811461171e575f83156117075750848201515b5f19600385901b1c1916600184901b178455611776565b5f84815260208120601f198516915b8281101561174d578785015182556020948501946001909201910161172d565b508482101561176a57868401515f19600387901b60f8161c191681555b505060018360011b0184555b5050505050565b634e487b7160e01b5f52603260045260245ffd5b634e487b7160e01b5f52601160045260245ffd5b5f600182016117b6576117b6611791565b5060010190565b634e487b7160e01b5f52602160045260245ffd5b600781106117ed57634e487b7160e01b5f52602160045260245ffd5b9052565b60208101610a4582846117d1565b5f60e08201905060018060a01b03835116825263ffffffff602084015116602083015263ffffffff6040840151166040830152606083015161184460608401826117d1565b5060808301511515608083015260ff60a08401511660a083015260c083015161187260c084018260ff169052565b5092915050565b5f81518084528060208401602086015e5f602082860101526020601f19601f83011685010191505092915050565b606081525f6118b96060830186611879565b82810360208401526118cb8186611879565b905082810360408401526118df8185611879565b9695505050505050565b5f81518060208401855e5f93019283525090919050565b5f610a4282846118e9565b602081525f610a426020830184611879565b5f6020828403121561192d575f5ffd5b610a4282611293565b602081525f8251602080840152610ca46040840182611879565b6001600160e81b0319841681525f61196b60038301856118e9565b60609390931b6001600160601b0319168352505060140192915050565b81810381811115610a4557610a45611791565b634e487b7160e01b5f52603160045260245ffd5b60805160a05160c05160e0516101005161704f6119ec5f395f61463d01525f6146f701525f6146d101525f61468101525f61465e015261704f5ff3fe6080604052600436106103c8575f3560e01c80636a627842116101f4578063a0201be511610113578063c87b56dd116100a8578063eb8535c211610078578063eb8535c214610b9c578063f062476814610bc9578063f2888dbb14610be8578063f2fde38b14610c07578063fa52c7d814610c26575f5ffd5b8063c87b56dd14610b2c578063e3716d0414610b4b578063e80cb65f14610b6a578063e985e9c514610b7d575f5ffd5b8063b88d4fde116100e3578063b88d4fde14610aa9578063b97dd9e214610ac8578063babc394f14610af9578063c05df7ac14610b0d575f5ffd5b8063a0201be514610a3d578063a22cb46514610a5c578063a71954ec14610a76578063aaffd27014610a95575f5ffd5b80637d06fdf81161018957806389afcb441161015957806389afcb44146109bb5780638cc05eda146109da5780638da5cb5b14610a0657806395d89b4114610a29575f5ffd5b80637d06fdf81461090c5780638456cb591461095957806384b0196e1461096d578063863623bb14610994575f5ffd5b806370a08231116101c457806370a082311461089b578063715018a6146108ba57806379ee54f7146108ce5780637b55a300146108ed575f5ffd5b80636a627842146108125780636a926591146108315780636ae9942c146108505780636d3c62751461087c575f5ffd5b80632b9f4985116102eb5780633f4ba83a116102805780635a41fb1f116102505780635a41fb1f1461077f5780635c975abb1461079257806362fcde4b146107ae5780636352211e146107cd57806367398331146107ec575f5ffd5b80633f4ba83a1461070e57806342842e0e146107225780634f6ccce71461074157806359ca93b614610760575f5ffd5b8063355811a7116102bb578063355811a714610660578063374ed18c146106685780633894228e146106945780633e28391d146106ef575f5ffd5b80632b9f4985146105f55780632f745c59146106145780632fb0d025146106335780633434735f14610646575f5ffd5b80630f15f4c0116103615780632228dfa0116103315780632228dfa01461058757806323a404301461059b57806323b872dd146105af5780632870259d146105c9575f5ffd5b80630f15f4c0146104f957806315b5709a1461050d57806318160ddd146105475780631904bb2e1461055b575f5ffd5b806306fdde031161039c57806306fdde0314610470578063081812fc14610484578063095ea7b3146104bb5780630a36cdef146104da575f5ffd5b80628d6acd146103cc57806301ffc9a7146103f457806302ae337b14610423578063059b916c14610444575b5f5ffd5b3480156103d7575f5ffd5b506103e1600e5481565b6040519081526020015b60405180910390f35b3480156103ff575f5ffd5b5061041361040e366004615a81565b610cb1565b60405190151581526020016103eb565b34801561042e575f5ffd5b5061044261043d366004615ae3565b610cdb565b005b34801561044f575f5ffd5b5061046361045e366004615b37565b610e31565b6040516103eb9190615b7e565b34801561047b575f5ffd5b50610463610f02565b34801561048f575f5ffd5b506104a361049e366004615b90565b610f91565b6040516001600160a01b0390911681526020016103eb565b3480156104c6575f5ffd5b506104426104d5366004615ba7565b610fb8565b3480156104e5575f5ffd5b506104426104f4366004615ae3565b610fd1565b348015610504575f5ffd5b50610442611220565b348015610518575f5ffd5b5061052c610527366004615b37565b611269565b604080519384526020840192909252908201526060016103eb565b348015610552575f5ffd5b506008546103e1565b348015610566575f5ffd5b5061057a610575366004615b37565b6112cf565b6040516103eb9190615c6f565b348015610592575f5ffd5b506104426113b2565b3480156105a6575f5ffd5b506103e1611472565b3480156105ba575f5ffd5b506104426104d5366004615c7d565b3480156105d4575f5ffd5b506105e86105e3366004615cb7565b611481565b6040516103eb9190615cd5565b348015610600575f5ffd5b5061044261060f366004615b37565b6115ff565b34801561061f575f5ffd5b506103e161062e366004615ba7565b6116c4565b610442610641366004615e5f565b611727565b348015610651575f5ffd5b506104a36002600160a01b0381565b6104426117b4565b348015610673575f5ffd5b50610687610682366004615ed7565b611836565b6040516103eb9190615f35565b34801561069f575f5ffd5b506106b36106ae366004615b90565b6119d5565b604080519586526001600160401b03909416602086015263ffffffff9283169385019390935216606083015260ff16608082015260a0016103eb565b3480156106fa575f5ffd5b50610413610709366004615b37565b611a29565b348015610719575f5ffd5b50610442611a4f565b34801561072d575f5ffd5b5061044261073c366004615c7d565b611a61565b34801561074c575f5ffd5b506103e161075b366004615b90565b611a7b565b34801561076b575f5ffd5b506106b361077a366004615b90565b611ad0565b61044261078d366004615fb6565b611adf565b34801561079d575f5ffd5b50600d54610100900460ff16610413565b3480156107b9575f5ffd5b506104426107c8366004615fe7565b611f31565b3480156107d8575f5ffd5b506104a36107e7366004615b90565b612038565b3480156107f7575f5ffd5b50610800612042565b60405160ff90911681526020016103eb565b34801561081d575f5ffd5b5061044261082c366004615b37565b612054565b34801561083c575f5ffd5b5061041361084b366004616008565b6120b2565b34801561085b575f5ffd5b5061086f61086a366004615ed7565b61214d565b6040516103eb919061603a565b348015610887575f5ffd5b50610413610896366004615b37565b6122a1565b3480156108a6575f5ffd5b506103e16108b5366004615b37565b612325565b3480156108c5575f5ffd5b5061044261236a565b3480156108d9575f5ffd5b506103e16108e8366004615b37565b61237b565b3480156108f8575f5ffd5b5061044261090736600461609d565b6123bd565b348015610917575f5ffd5b5061092061252a565b6040516103eb919081518152602080830151908201526040808301519082015260609182015163ffffffff169181019190915260800190565b348015610964575f5ffd5b506104426125a7565b348015610978575f5ffd5b506109816125b7565b6040516103eb979695949392919061610c565b34801561099f575f5ffd5b506104a37307a07a07a07a07a07a07a07a07a07a07a07a07a081565b3480156109c6575f5ffd5b506104426109d5366004615b37565b61261e565b3480156109e5575f5ffd5b506109f96109f4366004615cb7565b6126ce565b6040516103eb91906161a2565b348015610a11575f5ffd5b50600d546201000090046001600160a01b03166104a3565b348015610a34575f5ffd5b506104636126e2565b348015610a48575f5ffd5b506105e8610a57366004615ed7565b6126f1565b348015610a67575f5ffd5b506104426104d53660046161c1565b348015610a81575f5ffd5b50610920610a903660046161f6565b6127aa565b348015610aa0575f5ffd5b50610442612824565b348015610ab4575f5ffd5b50610442610ac336600461620f565b612983565b348015610ad3575f5ffd5b50600d54600160b01b900463ffffffff1660405163ffffffff90911681526020016103eb565b348015610b04575f5ffd5b5061068761299b565b348015610b18575f5ffd5b50610800610b27366004616272565b612aa8565b348015610b37575f5ffd5b50610463610b46366004615b90565b612b5e565b348015610b56575f5ffd5b506103e1610b6536600461628b565b612bce565b610442610b783660046162e4565b612cae565b348015610b88575f5ffd5b50610413610b9736600461638b565b612f20565b348015610ba7575f5ffd5b50600d54600160d81b900461ffff1660405161ffff90911681526020016103eb565b348015610bd4575f5ffd5b50610442610be3366004615fb6565b612f4d565b348015610bf3575f5ffd5b50610442610c02366004615b37565b612fcc565b348015610c12575f5ffd5b50610442610c21366004615b37565b61305e565b348015610c31575f5ffd5b50610c9e610c40366004615b37565b600f6020525f90815260409020546001600160a01b0381169063ffffffff600160a01b8204811691600160c01b81049091169060ff600160e01b8204811691600160e81b8104821691600160f01b8204811691600160f81b90041687565b6040516103eb97969594939291906163b3565b5f6001600160e01b0319821663780e9d6360e01b1480610cd55750610cd582613098565b92915050565b336002600160a01b0314610d0957604051637eb3357160e01b81523360048201526024015b60405180910390fd5b5f5b81811015610e2c5736838383818110610d2657610d26616406565b604002919091019150610d4190506108966020830183615b37565b15610d4c5750610e24565b60208101803590600b905f90610d629085615b37565b6001600160a01b03166001600160a01b031681526020019081526020015f20541115610dd65760208101803590600b905f90610d9e9085615b37565b6001600160a01b03166001600160a01b031681526020019081526020015f205f828254610dcb919061642e565b90915550610deb9050565b610deb610de66020830183615b37565b6130e7565b7f11a09f9b32440d896abff7453bf53f8b26ffcb18dae4dca227f7a76e2acc3a6481604051610e1a9190616441565b60405180910390a1505b600101610d0b565b505050565b6001600160a01b0381165f90815260296020526040812080546060929190610e589061646a565b80601f0160208091040260200160405190810160405280929190818152602001828054610e849061646a565b8015610ecf5780601f10610ea657610100808354040283529160200191610ecf565b820191905f5260205f20905b815481529060010190602001808311610eb257829003601f168201915b5050505050905080515f03610cd557604051635f7ba20d60e11b81526001600160a01b0384166004820152602401610d00565b60605f8054610f109061646a565b80601f0160208091040260200160405190810160405280929190818152602001828054610f3c9061646a565b8015610f875780601f10610f5e57610100808354040283529160200191610f87565b820191905f5260205f20905b815481529060010190602001808311610f6a57829003601f168201915b5050505050905090565b5f610f9b82613226565b505f828152600460205260409020546001600160a01b0316610cd5565b60405163dc8d8db760e01b815260040160405180910390fd5b336002600160a01b0314610ffa57604051637eb3357160e01b8152336004820152602401610d00565b5f80826001600160401b0381111561101457611014615d5f565b60405190808252806020026020018201604052801561103d578160200160208202803683370190505b5090505f5b83811015611121573685858381811061105d5761105d616406565b905060400201905080602001355f036110765750611119565b6110866108966020830183615b37565b156110915750611119565b5f600f816110a26020850185615b37565b6001600160a01b0316815260208082019290925260409081015f90812054600160f01b900460ff16808252600a84529181205491935090916110e790850135836164a2565b90506110f381886164b9565b96508086868151811061110857611108616406565b602002602001018181525050505050505b600101611042565b50815f0361112f5750505050565b5f61113861299b565b6020015190505f600e548261114d91906164b9565b90505f5f5b86811015611208575f8686838151811061116e5761116e616406565b60200260200101518561118191906164a2565b61118b91906164e0565b905080156111ff5780600b5f8b8b868181106111a9576111a9616406565b6111bf9260206040909202019081019150615b37565b6001600160a01b03166001600160a01b031681526020019081526020015f205f8282546111ec91906164b9565b909155506111fc905081846164b9565b92505b50600101611152565b50611213818361642e565b600e5550505050505b5050565b61122861325e565b61123133613287565b5061123d3360016132f5565b335f908152600f60205260409020600d54611266908290600160b01b900463ffffffff1661335b565b50565b6001600160a01b0381165f908152600f6020908152604080832054600160f01b900460ff16808452600a90925282205482918291826112a887836133c0565b6001600160a01b03979097165f908152600b60205260409020549791969550909350505050565b6112d7615a31565b6001600160a01b0382165f908152600f602052604090208054600160e81b900460ff166113095761130783613287565b505b6040805160e08101825282546001600160a01b038116825263ffffffff600160a01b820481166020840152600160c01b82041692820192909252908290606083019060ff600160e01b90910416600681111561136757611367615bcf565b600681111561137857611378615bcf565b8152905460ff600160e81b8204811615156020840152600160f01b820481166040840152600160f81b909104166060909101529392505050565b6113ba61325e565b6113c333613287565b505f6113ce602b5490565b600d549091505f90601190600160d01b900460ff16600481106113f3576113f3616406565b6003020154905061140482826133f9565b61140f3360036132f5565b335f908152600f60205260409020600d54815463ffffffff600160b01b909204821691600160a01b9091041681101561146357604051634fadd4d360e11b815263ffffffff82166004820152602401610d00565b61146c82613436565b50505050565b5f61147c602b5490565b905090565b606061148c82613493565b5f611496836134e3565b90505f81516001600160401b038111156114b2576114b2615d5f565b6040519080825280602002602001820160405280156114eb57816020015b6114d8615a31565b8152602001906001900390816114d05790505b5090505f5b82518110156115f757600f5f84838151811061150e5761150e616406565b6020908102919091018101516001600160a01b0390811683528282019390935260409182015f20825160e0810184528154948516815263ffffffff600160a01b8604811693820193909352600160c01b85049092169282019290925291606083019060ff600160e01b90910416600681111561158c5761158c615bcf565b600681111561159d5761159d615bcf565b8152905460ff600160e81b8204811615156020840152600160f01b820481166040840152600160f81b9091041660609091015282518390839081106115e4576115e4616406565b60209081029190910101526001016114f0565b509392505050565b61160761325e565b3068929eee149b4bd2126854036116255763ab143c065f526004601cfd5b3068929eee149b4bd21268555f61163b82613515565b6001600160a01b0383165f908152600f6020526040812054919250600160f01b90910460ff169061166d848484613576565b9050826001600160a01b03167ffc30cddea38e2bf4d6ea7d3f9ed3b6ad7f176419f4963bd81318067a4aee73fe826040516116aa91815260200190565b60405180910390a25050503868929eee149b4bd212685550565b5f6116ce83612325565b82106116ff5760405163295f44f760e21b81526001600160a01b038416600482015260248101839052604401610d00565b506001600160a01b03919091165f908152600660209081526040808320938352929052205490565b61172f61325e565b61176f813385858080601f0160208091040260200160405190810160405280939291908181526020018383808284375f9201919091525061362b92505050565b505f61177961299b565b60a0015190505f61178a34836137bb565b905061179533613287565b506117a0335f6132f5565b6117ad85853385856137f6565b5050505050565b6117bc6139b0565b6040515f907307a07a07a07a07a07a07a07a07a07a07a07a07a09034908381818185875af1925050503d805f811461180f576040519150601f19603f3d011682016040523d82523d5f602084013e611814565b606091505b505090508061126657604051630b567ce360e31b815260040160405180910390fd5b6040805160c08101825260608082525f6020830181905292820183905281018290526080810182905260a0810191909152600d54600160b01b900463ffffffff166118828160026164f3565b63ffffffff168363ffffffff1611806118c2575060038163ffffffff16101580156118c257506118b360038261650f565b63ffffffff168363ffffffff16105b156118e857604051634fadd4d360e11b815263ffffffff84166004820152602401610d00565b600d54600160d01b900460ff1663ffffffff82811690851611156119ca576119118483836139e4565b60408051825460e0602082028301810190935260c08201818152919392849291849184018282801561196a57602002820191905f5260205f20905b81546001600160a01b0316815260019091019060200180831161194c575b5050509183525050600182015460208201526002909101546001600160401b038116604083015263ffffffff600160401b820481166060840152600160601b820416608083015260ff600160801b9091041660a090910152949350505050565b611911848383613a6e565b601181600481106119e4575f80fd5b6003020160018101546002909101549091506001600160401b03811690600160401b810463ffffffff90811691600160601b810490911690600160801b900460ff1685565b6001600160a01b038082165f908152600c60205260408120600201549091161515610cd5565b611a576139b0565b611a5f613b0f565b565b610e2c83838360405180602001604052805f815250612983565b5f611a8560085490565b8210611aad5760405163295f44f760e21b81525f600482015260248101839052604401610d00565b60088281548110611ac057611ac0616406565b905f5260205f2001549050919050565b601d81600481106119e4575f80fd5b611ae761325e565b3068929eee149b4bd212685403611b055763ab143c065f526004601cfd5b3068929eee149b4bd21268555f611b1b83613515565b6001600160a01b0384165f908152600f60205260409020805491925090600160e01b900460ff166001816006811115611b5657611b56615bcf565b14158015611b7657506002816006811115611b7357611b73615bcf565b14155b8015611b9457506003816006811115611b9157611b91615bcf565b14155b15611bb45780604051633ba7bf8960e11b8152600401610d00919061652b565b815460ff600160f01b909104811690851681101580611bdb5750600d5460ff908116908616115b15611c0657604051633abb443b60e21b815260ff808316600483015286166024820152604401610d00565b60ff8082165f908152600a602052604080822054928816825290205481811115611c8c575f611c35838361642e565b9050803414611c595760405163222d164360e21b8152346004820152602401610d00565b6001600160a01b0389165f908152600b602052604081208054839290611c809084906164b9565b90915550611e5b915050565b81811015611e3a573415611cb55760405163222d164360e21b8152346004820152602401610d00565b5f611cc0828461642e565b6001600160a01b038a165f908152600b6020526040812054919250848210611ce9575081611cfe565b83821115611cfe57611cfb848361642e565b90505b8015611da2576001600160a01b038b165f908152600b602052604081208054839290611d2b90849061642e565b9091555050604051634875485760e11b81526001600160a01b038a1660048201525f60248201527307a07a07a07a07a07a07a07a07a07a07a07a07a0906390ea90ae9083906044015f604051808303818588803b158015611d8a575f5ffd5b505af1158015611d9c573d5f5f3e3d5ffd5b50505050505b5f611dad828561642e565b90508015611e31576040515f907307a07a07a07a07a07a07a07a07a07a07a07a07a09083908381818185875af1925050503d805f8114611e08576040519150601f19603f3d011682016040523d82523d5f602084013e611e0d565b606091505b5050905080611e2f57604051630b567ce360e31b815260040160405180910390fd5b505b50505050611e5b565b3415611e5b5760405163222d164360e21b8152346004820152602401610d00565b845460ff60f01b1916600160f01b60ff8916021785556001600160a01b038089165f908152600c60205260409020600201541615611ec4576001600160a01b0388165f908152600c60205260409020600201805460ff60a01b1916600160a01b60ff8a16021790555b6040805160ff808616825289166020820152908101839052606081018290526001600160a01b038916907f27f993440568bc502fe7db72fe27118488431975dc3239b379513a4cdb08e2c99060800160405180910390a25050505050503868929eee149b4bd21268555050565b611f396139b0565b8061ffff165f03611f8c57600d54601190600160d01b900460ff1660048110611f6457611f64616406565b6003020154604051635700689f60e11b815260048101919091525f6024820152604401610d00565b5f611f96602b5490565b9050808261ffff161115611fca57604051635700689f60e11b81526004810182905261ffff83166024820152604401610d00565b600d805461ffff848116600160d81b81810261ffff60d81b1985161790945560408051949093049091168084526020840191909152908201839052907f74cf7ca84b30b723e8b6e3cc569ec2db21f4ba2fcc09d651e5ce6770b91552f99060600160405180910390a1505050565b5f610cd582613226565b5f61204b61299b565b60a00151905090565b61205c6139b0565b61206581612325565b1515806120765750612076816122a1565b1561209f57604051639fb0877960e01b81526001600160a01b0382166004820152602401610d00565b611266816001600160a01b038116613b62565b5f606082146120c257505f610cd5565b5f61210184848080601f0160208091040260200160405190810160405280939291908181526020018383808284375f92019190915250613bc392505050565b5f818152601060205260409020549091506001600160a01b03168061212a575f92505050610cd5565b612133816122a1565b15612142575f92505050610cd5565b506001949350505050565b60605f61215983611836565b5f015190505f81516001600160401b0381111561217857612178615d5f565b6040519080825280602002602001820160405280156121ab57816020015b60608152602001906001900390816121965790505b5090505f5b81518110156115f75760295f8483815181106121ce576121ce616406565b60200260200101516001600160a01b03166001600160a01b031681526020019081526020015f2080546122009061646a565b80601f016020809104026020016040519081016040528092919081815260200182805461222c9061646a565b80156122775780601f1061224e57610100808354040283529160200191612277565b820191905f5260205f20905b81548152906001019060200180831161225a57829003601f168201915b505050505082828151811061228e5761228e616406565b60209081029190910101526001016121b0565b5f6122b46001600160a01b038316613bf1565b156122c057505f919050565b5f6001600160a01b0383165f908152600f6020526040902054600160e01b900460ff1660068111156122f4576122f4615bcf565b0361230057505f919050565b506001600160a01b03165f908152600f6020526040902054600160e81b900460ff1690565b5f6001600160a01b03821661234f576040516322718ad960e21b81525f6004820152602401610d00565b506001600160a01b03165f9081526003602052604090205490565b6123726139b0565b611a5f5f613c44565b6001600160a01b0381165f908152600f6020908152604080832054600160f01b900460ff16808452600a9092528220546123b584826133c0565b949350505050565b336002600160a01b03146123e657604051637eb3357160e01b8152336004820152602401610d00565b6123f08282613c9f565b600d54600160d81b900461ffff16811461243457600d54604051635700689f60e11b8152600160d81b90910461ffff16600482015260248101829052604401610d00565b5f5f5f5f6124738686808060200260200160405190810160405280939291908181526020018383602002808284375f92019190915250613d7792505050565b935093509350935061248686868661408b565b612498612492602b5490565b866133f9565b7fd1a5032a9ae65ebe520eba7974025750af3d884b6ab6047dad04dcf7006ab3856040518060c001604052808381526020018581526020014360016124dd91906164b9565b6001600160401b0316815263ffffffff80881660208301528516604080830191909152600d5460ff166060909201919091525161251a9190615f35565b60405180910390a1505050505050565b61255760405180608001604052805f81526020015f81526020015f81526020015f63ffffffff1681525090565b50600d5460ff165f908152600a602090815260409182902082516080810184528154815260018201549281019290925260028101549282019290925260039091015463ffffffff16606082015290565b6125af6139b0565b611a5f6142cc565b600f60f81b6060805f80808361260c60408051808201825260148152732a32b631b7b4b71029ba30b5b2a6b0b730b3b2b960611b602080830191909152825180840190935260018352603160f81b9083015291565b97989097965046955030945091925090565b6126266139b0565b61262f816122a1565b15612650576006604051633ba7bf8960e11b8152600401610d00919061652b565b61265981613287565b505f6001600160a01b0382165f908152600f6020526040902054600160e01b900460ff16600681111561268e5761268e615bcf565b036126c5576001600160a01b0381165f908152600f602052604090206126b39061430b565b6112666001600160a01b038216614357565b611266816130e7565b60606126d982613493565b610cd5826134e3565b606060018054610f109061646a565b60605f6126fd83611836565b5f015190505f81516001600160401b0381111561271c5761271c615d5f565b60405190808252806020026020018201604052801561275557816020015b612742615a31565b81526020019060019003908161273a5790505b5090505f5b81518110156115f75761278583828151811061277857612778616406565b60200260200101516112cf565b82828151811061279757612797616406565b602090810291909101015260010161275a565b6127d760405180608001604052805f81526020015f81526020015f81526020015f63ffffffff1681525090565b5060ff165f908152600a602090815260409182902082516080810184528154815260018201549281019290925260028101549282019290925260039091015463ffffffff16606082015290565b336002600160a01b031461284d57604051637eb3357160e01b8152336004820152602401610d00565b5f61285760085490565b90505f5f5b82811015612945575f6128716107e783611a7b565b6001600160a01b0381165f908152600f60205260409020805491925090600160e81b900460ff16156128a457505061293d565b8054600160e01b900460ff165f8160068111156128c3576128c3615bcf565b14806128e0575060068160068111156128de576128de615bcf565b145b156128ed5750505061293d565b61291e83602a5f84600681111561290657612906615bcf565b60ff16815260208101919091526040015f209061438f565b50612928816143a3565b156129395761293685616539565b94505b5050505b60010161285c565b50602b8190556040518181527fa5fe2e69fcd48b9dbe563588b5da97937ef9046641db65c59b8d49a20d75bdcc906020015b60405180910390a15050565b61298e848484610fb8565b61146c33858585856143f6565b6040805160c08101825260608082525f6020830181905292820183905281018290526080810182905260a0810191909152600d546129f290600160b01b810463ffffffff16908190600160d01b900460ff16613a6e565b60408051825460e0602082028301810190935260c082018181529193928492918491840182828015612a4b57602002820191905f5260205f20905b81546001600160a01b03168152600190910190602001808311612a2d575b5050509183525050600182015460208201526002909101546001600160401b038116604083015263ffffffff600160401b820481166060840152600160601b820416608083015260ff600160801b9091041660a090910152919050565b5f612ab16139b0565b612ab961325e565b612ac96080830160608401615ed7565b63ffffffff165f03612b0757612ae56080830160608401615ed7565b604051630c6e911360e41b815263ffffffff9091166004820152602401610d00565b600d80545f91908290612b1c9060ff16616551565b825460ff8083166101009490940a848102910219909116179092555f908152600a602052604090209091508390612b53828261656f565b50909150505b919050565b6060612b6982613226565b505f612ba4612b778461451d565b612b7f6145cb565b604051602001612b909291906165c9565b604051602081830303815290604052614615565b905080604051602001612bb791906166b8565b604051602081830303815290604052915050919050565b5f612bd883613287565b508351606014612bfb576040516333a234f960e11b815260040160405180910390fd5b5f612c0461299b565b60a001516001600160a01b0385165f908152600c6020526040812060020154919250600160a81b9091046001600160401b031690612c4187613bc3565b90505f7f9a361e91fa9aa610b5edf1d5c1cc20b9646c4228f3c004354ed2de7635dac9948288888787604051602001612c7f969594939291906166e9565b604051602081830303815290604052805190602001209050612ca08161463b565b9450505050505b9392505050565b612cb661325e565b5f612cf7858589898080601f0160208091040260200160405190810160405280939291908181526020018383808284375f9201919091525061362b92505050565b90505f612d0261299b565b60a0015190505f612d1334836137bb565b9050612d1e86613287565b50612d29865f6132f5565b6001600160a01b0386165f908152600c60205260409020600201546001600160401b03600160a81b90910416612d6e600d546001600160a01b03620100009091041690565b6001600160a01b0316336001600160a01b031614612e1d575f7f9a361e91fa9aa610b5edf1d5c1cc20b9646c4228f3c004354ed2de7635dac9948589338786604051602001612dc2969594939291906166e9565b6040516020818303038152906040528051906020012090505f612de48261463b565b9050612df289828a8a614751565b612e1a57604051633b4f6e2b60e21b81526001600160a01b038a166004820152602401610d00565b50505b6040518060a00160405280858152602001886001600160a01b03168152602001336001600160a01b031681526020018460ff168152602001826001612e629190616727565b6001600160401b039081169091526001600160a01b038981165f908152600c602090815260409182902085518155908501516001820180546001600160a01b03191691851691909117905590840151600290910180546060860151608090960151929093166001600160a81b031990931692909217600160a01b60ff909516949094029390931767ffffffffffffffff60a81b1916600160a81b9390921692909202179055612f148a8a8986866137f6565b50505050505050505050565b6001600160a01b039182165f90815260056020908152604080832093909416825291909152205460ff1690565b612f556139b0565b612f5e82613287565b506001600160a01b0382165f818152600f602090815260409182902080546001600160f81b0316600160f81b60ff87169081029190911790915591519182527ffa96cc66d1772e5646f86e374867e4e32b5b448b2aadb331568e34c2d063e455910160405180910390a25050565b612fd461325e565b3068929eee149b4bd212685403612ff25763ab143c065f526004601cfd5b3068929eee149b4bd21268555f61300882613515565b6001600160a01b0383165f908152600f6020526040902090915061302b81614824565b61304a578060405163c11d33f760e01b8152600401610d009190616746565b6130538161430b565b5f61166d84846148bd565b6130666139b0565b6001600160a01b03811661308f57604051631e4fbdf760e01b81525f6004820152602401610d00565b61126681613c44565b5f6001600160e01b031982166380ac58cd60e01b14806130c857506001600160e01b03198216635b5e139f60e01b145b80610cd557506301ffc9a760e01b6001600160e01b0319831614610cd5565b6001600160a01b0381165f908152600f602052604090208054602b54600160e01b90910460ff1690613118826143a3565b1561312b5761312860018261642e565b90505b6131358482614a87565b5f5f61314086611269565b506001600160a01b0388165f908152600b60205260408120819055919350915081831061316d578161316f565b825b6040519091505f907307a07a07a07a07a07a07a07a07a07a07a07a07a09083908381818185875af1925050503d805f81146131c5576040519150601f19603f3d011682016040523d82523d5f602084013e6131ca565b606091505b50509050806131ec57604051630b567ce360e31b815260040160405180910390fd5b600d54613207908890600160b01b900463ffffffff16614bbf565b6132108761430b565b5f61321a89614c16565b9050612f1489826148bd565b5f818152600260205260408120546001600160a01b031680610cd557604051637e27328960e01b815260048101849052602401610d00565b600d54610100900460ff1615611a5f5760405163d93c066560e01b815260040160405180910390fd5b5f6001600160a01b03821661329b81613bf1565b6132bb5760405163ed15e6cf60e01b815260048101829052602401610d00565b826001600160a01b03166132ce82612038565b6001600160a01b031614610cd5576040516330fa89ab60e11b815260040160405180910390fd5b6001600160a01b0382165f908152600f6020526040902054600160e01b900460ff1681600681111561332957613329615bcf565b81600681111561333b5761333b615bcf565b14610e2c5780604051633ba7bf8960e11b8152600401610d00919061652b565b6133668160016164f3565b825463ffffffff91909116600160a01b0263ffffffff60a01b19909116178255613391826002614c45565b7f44f68a196beb8e3ae6b6afe9504db62c81b4e511e987a263b4f1a9bc49c90762826040516129779190616746565b6001600160a01b0382165f908152600b6020526040812054818382116133e6575f6133f0565b6133f0848361642e565b95945050505050565b811580613404575080155b8061340e57508181115b1561121c57604051635700689f60e11b81526004810183905260248101829052604401610d00565b613441816004614c45565b805463ffffffff60c01b191663ffffffff60c01b1781556040517f170cba9e80cc0d156bc6ed689fa1d09ee788e1000c092512ef8698454b2081ee90613488908390616746565b60405180910390a150565b5f8160068111156134a6576134a6615bcf565b14806134c3575060068160068111156134c1576134c1615bcf565b145b156112665780604051633ba7bf8960e11b8152600401610d00919061652b565b6060610cd5602a5f8460068111156134fd576134fd615bcf565b60ff1660ff1681526020019081526020015f20614d74565b5f61351f82613287565b5061352982614c16565b9050336001600160a01b0383161480159061354d5750336001600160a01b03821614155b15612b595760405163172b4e7560e11b81526001600160a01b0382166004820152602401610d00565b5f5f6135828584614d80565b6001600160a01b0386165f908152600b60205260408120805492935083929091906135ae90849061642e565b9091555050604051634875485760e11b81526001600160a01b0385166004820152602481018290527307a07a07a07a07a07a07a07a07a07a07a07a07a0906390ea90ae906044015f604051808303815f87803b15801561360c575f5ffd5b505af115801561361e573d5f5f3e3d5ffd5b5092979650505050505050565b5f815160601461364e576040516333a234f960e11b815260040160405180910390fd5b5f825f8151811061366157613661616406565b016020015160f81c905060808116158061367d57506040811615155b1561369b576040516333a234f960e11b815260040160405180910390fd5b5f6136a68486614de0565b86516040519192505f91829161b1519163a65ebb2560e01b916136cf918a9088906024016167b8565b60408051601f198184030181529181526020820180516001600160e01b03166001600160e01b031990941693909317909252905161370d91906167f0565b5f60405180830381855afa9150503d805f8114613745576040519150601f19603f3d011682016040523d82523d5f602084013e61374a565b606091505b509150915081158061375e57508051602014155b1561377e57806040516306fe67db60e31b8152600401610d009190615b7e565b8080602001905181019061379291906167fb565b6137b1578760405163a865bb3560e01b8152600401610d009190616816565b612ca08688614e30565b60ff81165f908152600a602052604081205483146137ef5760405163222d164360e21b815260048101849052602401610d00565b5090919050565b6040805160e0810182526001600160a01b0385811680835263ffffffff60208085018281525f868801818152606088018281526080890183905260ff8c1660a08a015260c08901839052958252600f9093529690962085518154975192518416600160c01b0263ffffffff60c01b1993909416600160a01b026001600160c01b0319909816951694909417959095179485168117835590519293919291839160ff60e01b191664ffffffffff60c01b1990911617600160e01b8360068111156138c1576138c1615bcf565b02179055506080820151815460a084015160c09094015161ffff60e81b19909116600160e81b9215159290920260ff60f01b191691909117600160f01b60ff94851602176001600160f81b0316600160f81b93909116929092029190911790556001600160a01b0383165f908152600f60205260409020613943816001614c45565b6001600160a01b0384165f908152602960205260409020613965868883616886565b506001600160a01b0384165f908152600b602052604090819020839055517f9d9bab592843361c508cec6cc23820609c04fe07a621d03bf04b7520759d36419061251a908390616746565b600d546001600160a01b0362010000909104163314611a5f5760405163118cdaa760e01b8152336004820152602401610d00565b5f806004836139f3868861650f565b6139fd919061693f565b613a079190616958565b90505f601d8260ff1660048110613a2057613a20616406565b6003020190508563ffffffff168160020160089054906101000a900463ffffffff1663ffffffff16146133f057604051634fadd4d360e11b815263ffffffff87166004820152602401610d00565b5f80613a7a858561650f565b90505f600482613a8a868361693f565b613a949190616979565b613a9e9190616958565b90505f60118260ff1660048110613ab757613ab7616406565b6003020190508663ffffffff168160020160089054906101000a900463ffffffff1663ffffffff1614613b0557604051634fadd4d360e11b815263ffffffff88166004820152602401610d00565b9695505050505050565b613b17614ea0565b600d805461ff00191690557f5db9ee0a495bf2e6ff9c91a7834c1ba4fdd244a5e8aa4e537bd38aeae4b073aa335b6040516001600160a01b03909116815260200160405180910390a1565b6001600160a01b038216613b8b57604051633250574960e11b81525f6004820152602401610d00565b5f613b9783835f614ec8565b90506001600160a01b03811615610e2c576040516339e3563760e11b81525f6004820152602401610d00565b604080516020838101516001600160fd1b031682528284015190820152606092830151918101919091522090565b5f811580613c0657506001600160a01b038210155b15613c275760405163ed15e6cf60e01b815260048101839052602401610d00565b505f908152600260205260409020546001600160a01b0316151590565b600d80546001600160a01b038381166201000081810262010000600160b01b031985161790945560405193909204169182907f8be0079c531659141344cd1fd0a4f28419497f9722a3daafe3b4186f6b6457e0905f90a35050565b60015b81811015610e2c57828282818110613cbc57613cbc616406565b9050602002016020810190613cd19190615b37565b6001600160a01b03168383613ce760018561642e565b818110613cf657613cf6616406565b9050602002016020810190613d0b9190615b37565b6001600160a01b031610613d6f578282613d2660018461642e565b818110613d3557613d35616406565b9050602002016020810190613d4a9190615b37565b60405163836e3a7d60e01b81526001600160a01b039091166004820152602401610d00565b600101613ca2565b600d545f9081908190606090600160d01b900460ff16826004613d9b83600161693f565b613da59190616958565b600d805460ff60d01b1916600160d01b60ff841602178082559192505f91601690613ddc90600160b01b900463ffffffff16616992565b91906101000a81548163ffffffff021916908363ffffffff160217905590505f601d8360ff1660048110613e1257613e12616406565b6003020190505f613e2161252a565b90506040518060c0016040528083805480602002602001604051908101604052809291908181526020018280548015613e8157602002820191905f5260205f20905b81546001600160a01b03168152600190910190602001808311613e63575b5050509183525050604080840151602083015201613ea0436001616727565b6001600160401b0316815263ffffffff80861660208301526060808501519091166040830152600d5460ff9081169190920152601190861660048110613ee857613ee8616406565b600302015f820151815f019081613eff91906169ad565b50602082015160018201556040820151600291820180546060850151608086015160a0909601516001600160401b039094166bffffffffffffffffffffffff1990921691909117600160401b63ffffffff928316021764ffffffffff60601b1916600160601b919095160260ff60801b191693909317600160801b60ff90921691909102179091555f90600490613f9790879061693f565b613fa19190616958565b90508a601d8260ff1660048110613fba57613fba616406565b6003020190613fc990826169ad565b50613fd58460026164f3565b601d8260ff1660048110613feb57613feb616406565b6003020160020160086101000a81548163ffffffff021916908363ffffffff1602179055508382604001518360600151858080548060200260200160405190810160405280929190818152602001828054801561406f57602002820191905f5260205f20905b81546001600160a01b03168152600190910190602001808311614051575b5050505050905099509950995099505050505050509193509193565b5f61409660026134e3565b90505f5b81518110156140f4575f600f5f8484815181106140b9576140b9616406565b60200260200101516001600160a01b03166001600160a01b031681526020019081526020015f2090506140eb81614f93565b5060010161409a565b505f61410060046134e3565b600d54909150600160d01b900460ff165f600461411e83600161693f565b6141289190616958565b90505f7fbd0b8371ed11e4a5f6acd1f1a0d78b3f7e6ab3473c6396c9f28027132562600c8660405160200161417492919091825260e01b6001600160e01b031916602082015260240190565b60405160208183030381529060405280519060200120905061420360118460ff16600481106141a5576141a5616406565b600302018054604080516020808402820181019092528281529291908301828280156141f857602002820191905f5260205f20905b81546001600160a01b031681526001909101906020018083116141da575b505050505082614fcd565b61421c601d8360ff16600481106141a5576141a5616406565b6142598888808060200260200160405190810160405280939291908181526020018383602002808284375f92019190915250859250614fcd915050565b5f5b84518110156142c1575f85828151811061427757614277616406565b6020026020010151905061428b818461501d565b1561429657506142b9565b6001600160a01b0381165f908152600f602052604090206142b79089614bbf565b505b60010161425b565b505050505050505050565b6142d461325e565b600d805461ff0019166101001790557f62e78cea01bee320cd4e420270b5ea74000d11b0c9f74754ebdbfc544b05a258613b453390565b614316816006614c45565b805460ff60e81b1916600160e81b1781556040517ffab16134cb74fff6e7d137bf93f6b2ab4c1c61cbe53dad2c8cb57744353bd39b90613488908390616746565b5f6143635f835f614ec8565b90506001600160a01b03811661121c57604051637e27328960e01b815260048101839052602401610d00565b5f612ca7836001600160a01b03841661503a565b5f60038260068111156143b8576143b8615bcf565b14806143d5575060048260068111156143d3576143d3615bcf565b145b80610cd5575060028260068111156143ef576143ef615bcf565b1492915050565b6001600160a01b0383163b156117ad57604051630a85bd0160e11b81526001600160a01b0384169063150b7a0290614438908890889087908790600401616a31565b6020604051808303815f875af1925050508015614472575060408051601f3d908101601f1916820190925261446f91810190616a63565b60015b6144d9573d80801561449f576040519150601f19603f3d011682016040523d82523d5f602084013e6144a4565b606091505b5080515f036144d157604051633250574960e11b81526001600160a01b0385166004820152602401610d00565b805181602001fd5b6001600160e01b03198116630a85bd0160e11b1461451557604051633250574960e11b81526001600160a01b0385166004820152602401610d00565b505050505050565b60605f61452983615086565b6028602282012090915060601c60295b60018111156145c257600782600f1611801561456e5750606083828151811061456457614564616406565b016020015160f81c115b156145ab57602060f81b83828151811061458a5761458a616406565b0160200180516001600160f81b0319908116909218909116905f82901a9053505b60049190911c906145bb81616a7e565b9050614539565b50909392505050565b60606145f16040518061052001604052806104ed8152602001616b166104ed9139614615565b6040516020016146019190616a93565b604051602081830303815290604052905090565b6060610cd58260405180606001604052806040815260200161700360409139600161509c565b7f00000000000000000000000000000000000000000000000000000000000000007f000000000000000000000000000000000000000000000000000000000000000030147f000000000000000000000000000000000000000000000000000000000000000046141661472e5750604080517f8b73c3c69bb8fe3d512ecc4cf759cc79239f7b179b0ffacaa9a75d522b39400f81527f000000000000000000000000000000000000000000000000000000000000000060208201527f00000000000000000000000000000000000000000000000000000000000000009181019190915246606082015230608082015260a090205b6719010000000000005f5280601a5281603a52604260182090505f603a52919050565b5f6001600160a01b038516156123b557604051853b6147e157826040811461478157604181146147a8575061481b565b60208581013560ff81901c601b0190915285356040526001600160ff1b03166060526147b9565b60408501355f1a6020526040856040375b50845f526020600160805f60015afa5180871860601b3d119250505f6060528060405261481b565b631626ba7e60e01b80825285600483015260248201604081528460448401528486606485013760208160648701858b5afa90519091141691505b50949350505050565b80545f90600160e01b900460ff16600181600681111561484657614846615bcf565b036148545750600192915050565b82545f9061487090600160c01b900463ffffffff1660016164f3565b9050600582600681111561488657614886615bcf565b1480156148a55750600d5463ffffffff808316600160b01b9092041610155b156148b4575060019392505050565b505f9392505050565b5f6148d06001600160a01b038416614357565b6008545f036148f2576040516315ae672760e01b815260040160405180910390fd5b6001600160a01b0383165f908152600c602052604081208181556001810180546001600160a01b031916905560020180546001600160e81b0319169055808061493a86611269565b925092509250825f0361495257829350505050610cd5565b6001600160a01b0386165f908152600b6020526040812081905582841061497a5750816149fe565b50825f7307a07a07a07a07a07a07a07a07a07a07a07a07a061499c838661642e565b6040515f81818185875af1925050503d805f81146149d5576040519150601f19603f3d011682016040523d82523d5f602084013e6149da565b606091505b50509050806149fc57604051630b567ce360e31b815260040160405180910390fd5b505b604051634875485760e11b81526001600160a01b0387166004820152602481018390527307a07a07a07a07a07a07a07a07a07a07a07a07a0906390ea90ae9083906044015f604051808303818588803b158015614a59575f5ffd5b505af1158015614a6b573d5f5f3e3d5ffd5b50505050508181614a7c91906164b9565b979650505050505050565b600d54600160b01b810463ffffffff1690600160d01b900460ff165f614aae838084613a6e565b9050614aba8186615216565b508054614ac785826133f9565b5f614ad38560016164f3565b90505f614ae18287876139e4565b9050614aed8189615216565b5080549250614afc87846133f9565b5f614b088760026164f3565b90505f614b168289896139e4565b9050614b22818b615216565b5080549450614b3189866133f9565b600d54600160d81b900461ffff16891015612f1457600d805461ffff8b8116600160d81b90810261ffff60d81b1984161793849055604080519382900483168085529190940490911660208301529181018b90527f74cf7ca84b30b723e8b6e3cc569ec2db21f4ba2fcc09d651e5ce6770b91552f99060600160405180910390a15050505050505050505050565b614bca826005614c45565b815463ffffffff60c01b1916600160c01b63ffffffff8316021782556040517f727bfc4079207401298f48a3f1a92c9b40d83e086fe5b584a7b0644fdbdb56ee90612977908490616746565b6001600160a01b038082165f908152600c602052604081206002810154919290911680612ca757509192915050565b81546001600160a01b03811690600160e01b900460ff16614c8d82602a5f846006811115614c7557614c75615bcf565b60ff16815260208101919091526040015f209061531b565b505f836006811115614ca157614ca1615bcf565b14158015614cc157506006836006811115614cbe57614cbe615bcf565b14155b15614ce157614cdf82602a5f86600681111561290657612906615bcf565b505b5f614ceb826143a3565b90505f614cf7856143a3565b9050818015614d04575080155b15614d2057602b5f8154614d1790616a7e565b90915550614d43565b81158015614d2b5750805b15614d4357602b5f8154614d3e90616539565b909155505b85548590879060ff60e01b1916600160e01b836006811115614d6757614d67615bcf565b0217905550505050505050565b60605f612ca78361532f565b60ff81165f908152600a602052604081205481614d9d85836133c0565b9050801580614dbf575060ff84165f908152600a602052604090206001015481105b156123b557604051633737b70960e11b815260048101829052602401610d00565b60608251606014614e04576040516333a234f960e11b815260040160405180910390fd5b604051614e19905f9085908590602001616ac4565b604051602081830303815290604052905092915050565b5f614e3a83613bc3565b5f818152601060205260409020549091506001600160a01b031615614e7257604051638d12779f60e01b815260040160405180910390fd5b5f81815260106020526040902080546001600160a01b0384166001600160a01b031990911617905592915050565b600d54610100900460ff16611a5f57604051638dfc202b60e01b815260040160405180910390fd5b5f5f614ed5858585615388565b90506001600160a01b038116614f3157614f2c84600880545f838152600960205260408120829055600182018355919091527ff3f7a9fe364faab93b216da50a3214154f22a0a2b415b23a84c8169e8b636ee30155565b614f54565b846001600160a01b0316816001600160a01b031614614f5457614f54818561547a565b6001600160a01b038516614f7057614f6b846154f7565b6123b5565b846001600160a01b0316816001600160a01b0316146123b5576123b5858561559e565b614f9e816003614c45565b7fabab4191fe954f07230f7e34fd48dc0fdcbed492526cd060001cccceab22851b816040516134889190616746565b5f5b8251811015610e2c57615015600161500f61500c868581518110614ff557614ff5616406565b6020026020010151866155ec90919063ffffffff16565b90565b90615606565b600101614fcf565b6001600160a01b0382165f9081526020829052604081205c612ca7565b5f81815260018301602052604081205461507f57508154600181810184555f848152602080822090930184905584548482528286019093526040902091909155610cd5565b505f610cd5565b6060610cd56001600160a01b038316601461560d565b606083515f036150ba575060408051602081019091525f8152612ca7565b5f826150ea576003855160046150d091906164a2565b6150db9060026164b9565b6150e591906164e0565b61510f565b6003855160026150fa91906164b9565b61510491906164e0565b61510f9060046164a2565b90505f816001600160401b0381111561512a5761512a615d5f565b6040519080825280601f01601f191660200182016040528015615154576020820181803683370190505b509050600185016020820187885189016020810180515f82525b828410156151c9576003840193508351603f8160121c168701518653600186019550603f81600c1c168701518653600186019550603f8160061c168701518653600186019550603f811687015186535060018501945061516e565b90525050851561520a576003885106600181146151ed576002811461520057615208565b603d6001830353603d6002830353615208565b603d60018303535b505b50909695505050505050565b81545f90815b8181101561531157836001600160a01b031685828154811061524057615240616406565b5f918252602090912001546001600160a01b031603615309578461526560018461642e565b8154811061527557615275616406565b905f5260205f20015f9054906101000a90046001600160a01b03168582815481106152a2576152a2616406565b905f5260205f20015f6101000a8154816001600160a01b0302191690836001600160a01b03160217905550848054806152dd576152dd616b01565b5f8281526020902081015f1990810180546001600160a01b03191690550190555060019150610cd59050565b60010161521c565b505f949350505050565b5f612ca7836001600160a01b03841661577e565b6060815f0180548060200260200160405190810160405280929190818152602001828054801561537c57602002820191905f5260205f20905b815481526020019060010190808311615368575b50505050509050919050565b5f828152600260205260408120546001600160a01b03908116908316156153b4576153b4818486615868565b6001600160a01b038116156153ee576153cf5f855f5f6158cc565b6001600160a01b0381165f90815260036020526040902080545f190190555b6001600160a01b0385161561541c576001600160a01b0385165f908152600360205260409020805460010190555b5f8481526002602052604080822080546001600160a01b0319166001600160a01b0389811691821790925591518793918516917fddf252ad1be2c89b69c2b068fc378daa952ba7f163c4a11628f55a4df523b3ef91a4949350505050565b5f61548483612325565b5f838152600760209081526040808320546001600160a01b03881684526006909252909120919250908183146154d9575f83815260208281526040808320548584528184208190558352600790915290208290555b5f938452600760209081526040808620869055938552525081205550565b6008545f906155089060019061642e565b5f838152600960205260408120546008805493945090928490811061552f5761552f616406565b905f5260205f2001549050806008838154811061554e5761554e616406565b5f91825260208083209091019290925582815260099091526040808220849055858252812055600880548061558557615585616b01565b600190038181905f5260205f20015f9055905550505050565b5f60016155aa84612325565b6155b4919061642e565b6001600160a01b039093165f908152600660209081526040808320868452825280832085905593825260079052919091209190915550565b6001600160a01b03165f9081526020919091526040902090565b80825d5050565b6060825f61561c8460026164a2565b6156279060026164b9565b6001600160401b0381111561563e5761563e615d5f565b6040519080825280601f01601f191660200182016040528015615668576020820181803683370190505b509050600360fc1b815f8151811061568257615682616406565b60200101906001600160f81b03191690815f1a905350600f60fb1b816001815181106156b0576156b0616406565b60200101906001600160f81b03191690815f1a9053505f6156d28560026164a2565b6156dd9060016164b9565b90505b6001811115615754576f181899199a1a9b1b9c1cb0b131b232b360811b83600f166010811061571157615711616406565b1a60f81b82828151811061572757615727616406565b60200101906001600160f81b03191690815f1a90535060049290921c9161574d81616a7e565b90506156e0565b5081156123b55760405163e22e27eb60e01b81526004810186905260248101859052604401610d00565b5f8181526001830160205260408120548015615858575f6157a060018361642e565b85549091505f906157b39060019061642e565b9050808214615812575f865f0182815481106157d1576157d1616406565b905f5260205f200154905080875f0184815481106157f1576157f1616406565b5f918252602080832090910192909255918252600188019052604090208390555b855486908061582357615823616b01565b600190038181905f5260205f20015f90559055856001015f8681526020019081526020015f205f905560019350505050610cd5565b5f915050610cd5565b5092915050565b6158738383836159d0565b610e2c576001600160a01b0383166158a157604051637e27328960e01b815260048101829052602401610d00565b60405163177e802f60e01b81526001600160a01b038316600482015260248101829052604401610d00565b80806158e057506001600160a01b03821615155b156159a1575f6158ef84613226565b90506001600160a01b0383161580159061591b5750826001600160a01b0316816001600160a01b031614155b801561592e575061592c8184612f20565b155b156159575760405163a9fbf51f60e01b81526001600160a01b0384166004820152602401610d00565b811561599f5783856001600160a01b0316826001600160a01b03167f8c5be1e5ebec7d5bd14f71427d1e84f3dd0314c0f7b2291e5b200ac8c7c3b92560405160405180910390a45b505b50505f90815260046020526040902080546001600160a01b0319166001600160a01b0392909216919091179055565b5f6001600160a01b038316158015906123b55750826001600160a01b0316846001600160a01b03161480615a095750615a098484612f20565b806123b55750505f908152600460205260409020546001600160a01b03908116911614919050565b6040805160e0810182525f8082526020820181905291810182905290606082019081525f602082018190526040820181905260609091015290565b6001600160e01b031981168114611266575f5ffd5b5f60208284031215615a91575f5ffd5b8135612ca781615a6c565b5f5f83601f840112615aac575f5ffd5b5081356001600160401b03811115615ac2575f5ffd5b6020830191508360208260061b8501011115615adc575f5ffd5b9250929050565b5f5f60208385031215615af4575f5ffd5b82356001600160401b03811115615b09575f5ffd5b615b1585828601615a9c565b90969095509350505050565b80356001600160a01b0381168114612b59575f5ffd5b5f60208284031215615b47575f5ffd5b612ca782615b21565b5f81518084528060208401602086015e5f602082860101526020601f19601f83011685010191505092915050565b602081525f612ca76020830184615b50565b5f60208284031215615ba0575f5ffd5b5035919050565b5f5f60408385031215615bb8575f5ffd5b615bc183615b21565b946020939093013593505050565b634e487b7160e01b5f52602160045260245ffd5b60078110615bff57634e487b7160e01b5f52602160045260245ffd5b9052565b60018060a01b03815116825263ffffffff602082015116602083015263ffffffff60408201511660408301526060810151615c416060840182615be3565b5060808101511515608083015260ff60a08201511660a083015260c0810151610e2c60c084018260ff169052565b60e08101610cd58284615c03565b5f5f5f60608486031215615c8f575f5ffd5b615c9884615b21565b9250615ca660208501615b21565b929592945050506040919091013590565b5f60208284031215615cc7575f5ffd5b813560078110612ca7575f5ffd5b602080825282518282018190525f918401906040840190835b81811015615d1757615d01838551615c03565b6020939093019260e09290920191600101615cee565b509095945050505050565b5f5f83601f840112615d32575f5ffd5b5081356001600160401b03811115615d48575f5ffd5b602083019150836020828501011115615adc575f5ffd5b634e487b7160e01b5f52604160045260245ffd5b5f82601f830112615d82575f5ffd5b81356001600160401b03811115615d9b57615d9b615d5f565b604051601f8201601f19908116603f011681016001600160401b0381118282101715615dc957615dc9615d5f565b604052818152838201602001851015615de0575f5ffd5b816020850160208301375f918101602001919091529392505050565b5f60208284031215615e0c575f5ffd5b604051602081016001600160401b0381118282101715615e2e57615e2e615d5f565b60405290508082356001600160401b03811115615e49575f5ffd5b615e5585828601615d73565b8252505092915050565b5f5f5f60408486031215615e71575f5ffd5b83356001600160401b03811115615e86575f5ffd5b615e9286828701615d22565b90945092505060208401356001600160401b03811115615eb0575f5ffd5b615ebc86828701615dfc565b9150509250925092565b63ffffffff81168114611266575f5ffd5b5f60208284031215615ee7575f5ffd5b8135612ca781615ec6565b5f8151808452602084019350602083015f5b82811015615f2b5781516001600160a01b0316865260209586019590910190600101615f04565b5093949350505050565b602081525f825160c06020840152615f5060e0840182615ef2565b9050602084015160408401526001600160401b03604085015116606084015263ffffffff606085015116608084015263ffffffff60808501511660a084015260ff60a08501511660c08401528091505092915050565b803560ff81168114612b59575f5ffd5b5f5f60408385031215615fc7575f5ffd5b615fd083615b21565b9150615fde60208401615fa6565b90509250929050565b5f60208284031215615ff7575f5ffd5b813561ffff81168114612ca7575f5ffd5b5f5f60208385031215616019575f5ffd5b82356001600160401b0381111561602e575f5ffd5b615b1585828601615d22565b5f602082016020835280845180835260408501915060408160051b8601019250602086015f5b8281101561609157603f1987860301845261607c858351615b50565b94506020938401939190910190600101616060565b50929695505050505050565b5f5f602083850312156160ae575f5ffd5b82356001600160401b038111156160c3575f5ffd5b8301601f810185136160d3575f5ffd5b80356001600160401b038111156160e8575f5ffd5b8560208260051b84010111156160fc575f5ffd5b6020919091019590945092505050565b60ff60f81b8816815260e060208201525f61612a60e0830189615b50565b828103604084015261613c8189615b50565b606084018890526001600160a01b038716608085015260a0840186905283810360c0850152845180825260208087019350909101905f5b81811015616191578351835260209384019390920191600101616173565b50909b9a5050505050505050505050565b602081525f612ca76020830184615ef2565b8015158114611266575f5ffd5b5f5f604083850312156161d2575f5ffd5b6161db83615b21565b915060208301356161eb816161b4565b809150509250929050565b5f60208284031215616206575f5ffd5b612ca782615fa6565b5f5f5f5f60808587031215616222575f5ffd5b61622b85615b21565b935061623960208601615b21565b92506040850135915060608501356001600160401b0381111561625a575f5ffd5b61626687828801615d73565b91505092959194509250565b5f6080828403128015616283575f5ffd5b509092915050565b5f5f5f6060848603121561629d575f5ffd5b83356001600160401b038111156162b2575f5ffd5b6162be86828701615d73565b9350506162cd60208501615b21565b91506162db60408501615b21565b90509250925092565b5f5f5f5f5f5f608087890312156162f9575f5ffd5b86356001600160401b0381111561630e575f5ffd5b61631a89828a01615d22565b90975095505060208701356001600160401b03811115616338575f5ffd5b61634489828a01615dfc565b94505061635360408801615b21565b925060608701356001600160401b0381111561636d575f5ffd5b61637989828a01615d22565b979a9699509497509295939492505050565b5f5f6040838503121561639c575f5ffd5b6163a583615b21565b9150615fde60208401615b21565b6001600160a01b038816815263ffffffff87811660208301528616604082015260e081016163e46060830187615be3565b931515608082015260ff92831660a0820152911660c090910152949350505050565b634e487b7160e01b5f52603260045260245ffd5b634e487b7160e01b5f52601160045260245ffd5b81810381811115610cd557610cd561641a565b604081016001600160a01b0361645684615b21565b168252602092830135929091019190915290565b600181811c9082168061647e57607f821691505b60208210810361649c57634e487b7160e01b5f52602260045260245ffd5b50919050565b8082028115828204841417610cd557610cd561641a565b80820180821115610cd557610cd561641a565b634e487b7160e01b5f52601260045260245ffd5b5f826164ee576164ee6164cc565b500490565b63ffffffff8181168382160190811115610cd557610cd561641a565b63ffffffff8281168282160390811115610cd557610cd561641a565b60208101610cd58284615be3565b5f6001820161654a5761654a61641a565b5060010190565b5f60ff821660ff81036165665761656661641a565b60010192915050565b81358155602082013560018201556040820135600282015560038101606083013561659981615ec6565b815463ffffffff191663ffffffff919091161790555050565b5f81518060208401855e5f93019283525090919050565b7f7b226e616d65223a202254656c636f696e2d4e6574776f726b20436f6e73656e8152651cdd5cd3919560d21b60208201525f61660960268301856165b2565b7f222c20226465736372697074696f6e223a2022455243373231204e465420776881527f6f7365206f776e657273686970206c656467657220726570726573656e74732060208201527f746865207065726d697373696f6e65642077686974656c69737420666f72207660408201527530b634b230ba37b9399116101134b6b0b3b2911d101160511b60608201526166a460768201856165b2565b61227d60f01b815260020195945050505050565b7f646174613a6170706c69636174696f6e2f6a736f6e3b6261736536342c00000081525f612ca7601d8301846165b2565b95865260208601949094526001600160a01b0392831660408601529116606084015260ff1660808301526001600160401b031660a082015260c00190565b6001600160401b038181168382160190811115610cd557610cd561641a565b81546001600160a01b038116825263ffffffff60a082901c8116602084015260c082901c16604083015260e08201906167886060840160ff8360e01c16615be3565b61679c6080840160ff8360e81c1615159052565b60f081901c60ff1660a084015260f881901c60c0840152615861565b606081525f6167ca6060830186615b50565b82810360208401526167dc8186615b50565b90508281036040840152613b058185615b50565b5f612ca782846165b2565b5f6020828403121561680b575f5ffd5b8151612ca7816161b4565b602081525f82516020808401526123b56040840182615b50565b5f5b82811015610e2c575f82820155600101616832565b601f821115610e2c5782821115610e2c57805f5260205f20601f840160051c602085101561687257505f5b6117ad81601f860160051c03828401616830565b6001600160401b0383111561689d5761689d615d5f565b6168b1836168ab835461646a565b83616847565b5f601f8411600181146168e2575f85156168cb5750838201355b5f19600387901b1c1916600186901b1783556117ad565b5f83815260208120601f198716915b8281101561691157868501358255602094850194600190920191016168f1565b508682101561692d575f1960f88860031b161c19848701351681555b505060018560011b0183555050505050565b60ff8181168382160190811115610cd557610cd561641a565b5f60ff83168061696a5761696a6164cc565b8060ff84160691505092915050565b60ff8281168282160390811115610cd557610cd561641a565b5f63ffffffff821663ffffffff81036165665761656661641a565b81516001600160401b038111156169c6576169c6615d5f565b600160401b8111156169da576169da615d5f565b8154818355808210156169fe57825f528160205f20016169fc83830382616830565b505b5060208301825f5260205f205f5b838110156145155782516001600160a01b031682820155602090920191600101616a0c565b6001600160a01b03858116825284166020820152604081018390526080606082018190525f90613b0590830184615b50565b5f60208284031215616a73575f5ffd5b8151612ca781615a6c565b5f81616a8c57616a8c61641a565b505f190190565b7f646174613a696d6167652f7376672b786d6c3b6261736536342c00000000000081525f612ca7601a8301846165b2565b6001600160e81b0319841681525f616adf60038301856165b2565b60609390931b6bffffffffffffffffffffffff19168352505060140192915050565b634e487b7160e01b5f52603160045260245ffdfe3c7376672077696474683d22373922206865696768743d223830222076696577426f783d22302030203739203830222066696c6c3d226e6f6e652220786d6c6e733d22687474703a2f2f7777772e77332e6f72672f323030302f737667223e203c6d61736b2069643d226d61736b305f3834395f3334313722207374796c653d226d61736b2d747970653a616c70686122206d61736b556e6974733d227573657253706163654f6e5573652220783d22302220793d2230222077696474683d22373922206865696768743d223830223e203c726563742077696474683d2237382e30303522206865696768743d223830222066696c6c3d2223433443344334222f3e203c2f6d61736b3e203c67206d61736b3d2275726c28236d61736b305f3834395f3334313729223e203c7265637420783d2231372e393534362220793d2231382e33353435222077696474683d2234322e3239343322206865696768743d2234332e32393138222066696c6c3d227768697465222f3e203c7061746820643d224d37342e323336392032312e393839324337362e363930382032342e303331352037382e323338392032382e323537372037372e363937392033312e333733334c37322e343136362036312e333235334337312e3836362036342e343437352036382e393539322036372e383739382036352e393632392036382e393631324c33372e313934372037392e333334344333342e313938342038302e343135372032392e373432312037392e363239392032372e323936342037372e3538394c332e3831312035382e3030323143312e33353730382035352e39353938202d302e31393233382035312e3734313720302e3335383134382034382e363139354c352e36333935312031382e3636373443362e31393030342031352e3534353220392e30393638372031322e313132392031322e303933322031312e303331364c34302e3835393920302e3636363435334334332e38353632202d302e3431343835372034382e3331323520302e3337303930392035302e3735383320322e343131384c37342e323336392032312e393839325a4d34392e373634352033352e343336394c35302e393336342032392e333531334c33392e393531372032392e333638374c34312e3531362032312e333432344c33372e393538332032312e333432344333372e393538332032312e333432342033342e363332382032372e323930312032372e333030362033302e323031394c32362e323839392033352e343530334c33312e303933362033352e34364333312e303933362033352e34362032392e343637342034332e303032392032382e393331362034352e373835344332372e353637372035322e383638322033302e393830362035372e383933392033362e323238312035372e383933394333382e383630362035372e383933392034312e3831372035372e383933392034352e303937322035372e383933394c34362e363532342035312e313636364334362e323734322035312e313636362034332e383031332035312e313636362033392e323333362035312e313636364333352e393336342035312e313636362033362e313039392034392e333138392033362e373433312034362e303330354c33382e373833382033352e343333334c34392e373634352033352e343336395a222066696c6c3d2223313443384646222f3e203c2f673e203c2f7376673e4142434445464748494a4b4c4d4e4f505152535455565758595a6162636465666768696a6b6c6d6e6f707172737475767778797a303132333435363738392b2fa164736f6c6343000823000a","linkReferences":{}},"methodIdentifiers":{"SYSTEM_ADDRESS()":"3434735f","activate()":"0f15f4c0","allocateIssuance()":"355811a7","applyIncentives((address,uint256)[])":"0a36cdef","applySlashes((address,uint256)[])":"02ae337b","approve(address,uint256)":"095ea7b3","balanceOf(address)":"70a08231","beginExit()":"2228dfa0","burn(address)":"89afcb44","claimStakeRewards(address)":"2b9f4985","concludeEpoch(address[])":"7b55a300","delegateStake(bytes,(bytes),address,bytes)":"e80cb65f","delegationDigest(bytes,address,address)":"e3716d04","eip712Domain()":"84b0196e","epochInfo(uint256)":"3894228e","futureEpochInfo(uint256)":"59ca93b6","getApproved(uint256)":"081812fc","getBalanceBreakdown(address)":"15b5709a","getBlsPubkey(address)":"059b916c","getCommitteeBlsPubkeys(uint32)":"6ae9942c","getCommitteeValidators(uint32)":"a0201be5","getCurrentEpoch()":"b97dd9e2","getCurrentEpochInfo()":"babc394f","getCurrentStakeConfig()":"7d06fdf8","getCurrentStakeVersion()":"67398331","getEligibleValidatorCount()":"23a40430","getEpochInfo(uint32)":"374ed18c","getNextCommitteeSize()":"eb8535c2","getRewards(address)":"79ee54f7","getValidator(address)":"1904bb2e","getValidators(uint8)":"8cc05eda","getValidatorsInfo(uint8)":"2870259d","isApprovedForAll(address,address)":"e985e9c5","isDelegated(address)":"3e28391d","isRetired(address)":"6d3c6275","isValidator(bytes)":"6a926591","issuance()":"863623bb","migrateValidatorSets()":"aaffd270","mint(address)":"6a627842","name()":"06fdde03","owner()":"8da5cb5b","ownerOf(uint256)":"6352211e","pause()":"8456cb59","paused()":"5c975abb","renounceOwnership()":"715018a6","safeTransferFrom(address,address,uint256)":"42842e0e","safeTransferFrom(address,address,uint256,bytes)":"b88d4fde","setApprovalForAll(address,bool)":"a22cb465","setNextCommitteeSize(uint16)":"62fcde4b","setValidatorRegion(address,uint8)":"f0624768","stake(bytes,(bytes))":"2fb0d025","stakeConfig(uint8)":"a71954ec","supportsInterface(bytes4)":"01ffc9a7","symbol()":"95d89b41","tokenByIndex(uint256)":"4f6ccce7","tokenOfOwnerByIndex(address,uint256)":"2f745c59","tokenURI(uint256)":"c87b56dd","totalSupply()":"18160ddd","transferFrom(address,address,uint256)":"23b872dd","transferOwnership(address)":"f2fde38b","undistributedIssuance()":"008d6acd","unpause()":"3f4ba83a","unstake(address)":"f2888dbb","upgradeStakeVersion((uint256,uint256,uint256,uint32))":"c05df7ac","upgradeValidatorStakeVersion(address,uint8)":"5a41fb1f","validators(address)":"fa52c7d8"},"id":162}