{"abi":[{"type":"constructor","inputs":[{"name":"defaultTargetGas_","type":"uint64","internalType":"uint64"},{"name":"owner_","type":"address","internalType":"address"}],"stateMutability":"nonpayable"},{"type":"function","name":"clearWorkerTargetGas","inputs":[{"name":"workerId","type":"uint16","internalType":"uint16"}],"outputs":[],"stateMutability":"nonpayable"},{"type":"function","name":"defaultTargetGas","inputs":[],"outputs":[{"name":"","type":"uint64","internalType":"uint64"}],"stateMutability":"view"},{"type":"function","name":"getTargetGas","inputs":[{"name":"workerId","type":"uint16","internalType":"uint16"}],"outputs":[{"name":"","type":"uint64","internalType":"uint64"}],"stateMutability":"view"},{"type":"function","name":"owner","inputs":[],"outputs":[{"name":"","type":"address","internalType":"address"}],"stateMutability":"view"},{"type":"function","name":"renounceOwnership","inputs":[],"outputs":[],"stateMutability":"nonpayable"},{"type":"function","name":"setDefaultTargetGas","inputs":[{"name":"targetGas","type":"uint64","internalType":"uint64"}],"outputs":[],"stateMutability":"nonpayable"},{"type":"function","name":"setWorkerTargetGas","inputs":[{"name":"workerId","type":"uint16","internalType":"uint16"},{"name":"targetGas","type":"uint64","internalType":"uint64"}],"outputs":[],"stateMutability":"nonpayable"},{"type":"function","name":"transferOwnership","inputs":[{"name":"newOwner","type":"address","internalType":"address"}],"outputs":[],"stateMutability":"nonpayable"},{"type":"event","name":"OwnershipTransferred","inputs":[{"name":"previousOwner","type":"address","indexed":true,"internalType":"address"},{"name":"newOwner","type":"address","indexed":true,"internalType":"address"}],"anonymous":false},{"type":"error","name":"OwnableInvalidOwner","inputs":[{"name":"owner","type":"address","internalType":"address"}]},{"type":"error","name":"OwnableUnauthorizedAccount","inputs":[{"name":"account","type":"address","internalType":"address"}]},{"type":"error","name":"ZeroTargetGas","inputs":[]}],"bytecode":{"object":"0x608060405234801561000f575f80fd5b5060405161057238038061057283398101604081905261002e9161010d565b806001600160a01b03811661005c57604051631e4fbdf760e01b81525f600482015260240160405180910390fd5b610065816100be565b50816001600160401b03165f0361008f576040516303201ea960e11b815260040160405180910390fd5b505f80546001600160401b03909216600160a01b02600160a01b600160e01b031990921691909117905561015b565b5f80546001600160a01b038381166001600160a01b0319831681178455604051919092169283917f8be0079c531659141344cd1fd0a4f28419497f9722a3daafe3b4186f6b6457e09190a35050565b5f806040838503121561011e575f80fd5b82516001600160401b0381168114610134575f80fd5b60208401519092506001600160a01b0381168114610150575f80fd5b809150509250929050565b61040a806101685f395ff3fe608060405234801561000f575f80fd5b5060043610610085575f3560e01c80638da5cb5b116100585780638da5cb5b146100ea578063930791d914610104578063ec528cb414610117578063f2fde38b14610131575f80fd5b806305f0022d1461008957806315fc8fbd146100ba578063302f07bc146100cf578063715018a6146100e2575b5f80fd5b61009c61009736600461035d565b610144565b60405167ffffffffffffffff90911681526020015b60405180910390f35b6100cd6100c836600461038d565b610187565b005b6100cd6100dd36600461035d565b6101ee565b6100cd610218565b5f546040516001600160a01b0390911681526020016100b1565b6100cd6101123660046103be565b61022b565b5f5461009c90600160a01b900467ffffffffffffffff1681565b6100cd61013f3660046103d7565b61028a565b61ffff81165f9081526001602052604081205467ffffffffffffffff168061017e575f54600160a01b900467ffffffffffffffff16610180565b805b9392505050565b61018f6102cc565b8067ffffffffffffffff165f036101b9576040516303201ea960e11b815260040160405180910390fd5b61ffff919091165f908152600160205260409020805467ffffffffffffffff191667ffffffffffffffff909216919091179055565b6101f66102cc565b61ffff165f908152600160205260409020805467ffffffffffffffff19169055565b6102206102cc565b6102295f6102f8565b565b6102336102cc565b8067ffffffffffffffff165f0361025d576040516303201ea960e11b815260040160405180910390fd5b5f805467ffffffffffffffff909216600160a01b0267ffffffffffffffff60a01b19909216919091179055565b6102926102cc565b6001600160a01b0381166102c057604051631e4fbdf760e01b81525f60048201526024015b60405180910390fd5b6102c9816102f8565b50565b5f546001600160a01b031633146102295760405163118cdaa760e01b81523360048201526024016102b7565b5f80546001600160a01b038381166001600160a01b0319831681178455604051919092169283917f8be0079c531659141344cd1fd0a4f28419497f9722a3daafe3b4186f6b6457e09190a35050565b803561ffff81168114610358575f80fd5b919050565b5f6020828403121561036d575f80fd5b61018082610347565b803567ffffffffffffffff81168114610358575f80fd5b5f806040838503121561039e575f80fd5b6103a783610347565b91506103b560208401610376565b90509250929050565b5f602082840312156103ce575f80fd5b61018082610376565b5f602082840312156103e7575f80fd5b81356001600160a01b0381168114610180575f80fdfea164736f6c634300081a000a","linkReferences":{}},"methodIdentifiers":{"clearWorkerTargetGas(uint16)":"302f07bc","defaultTargetGas()":"ec528cb4","getTargetGas(uint16)":"05f0022d","owner()":"8da5cb5b","renounceOwnership()":"715018a6","setDefaultTargetGas(uint64)":"930791d9","setWorkerTargetGas(uint16,uint64)":"15fc8fbd","transferOwnership(address)":"f2fde38b"},"id":115}