{"abi":[{"type":"receive","stateMutability":"payable"},{"type":"function","name":"distributeStakeReward","inputs":[{"name":"recipient","type":"address","internalType":"address"},{"name":"rewardAmount","type":"uint256","internalType":"uint256"}],"outputs":[],"stateMutability":"payable"},{"type":"error","name":"InsufficientBalance","inputs":[{"name":"available","type":"uint256","internalType":"uint256"},{"name":"required","type":"uint256","internalType":"uint256"}]},{"type":"error","name":"OnlyStakeManager","inputs":[{"name":"stakeManager","type":"address","internalType":"address"}]},{"type":"error","name":"RewardDistributionFailure","inputs":[{"name":"recipient","type":"address","internalType":"address"}]}],"bytecode":{"object":"0x6080604052348015600e575f5ffd5b506101f48061001c5f395ff3fe608060405260043610610020575f3560e01c806390ea90ae1461007a575f5ffd5b3661007657337307e17e17e17e17e17e17e17e17e17e17e17e17e11461007457604051632439f07560e21b81527307e17e17e17e17e17e17e17e17e17e17e17e17e160048201526024015b60405180910390fd5b005b5f5ffd5b61007461008836600461018d565b337307e17e17e17e17e17e17e17e17e17e17e17e17e1146100d257604051632439f07560e21b81527307e17e17e17e17e17e17e17e17e17e17e17e17e1600482015260240161006b565b475f6100de34846101c2565b90508082101561010b5760405163cf47918160e01b8152600481018390526024810182905260440161006b565b5f846001600160a01b0316826040515f6040518083038185875af1925050503d805f8114610154576040519150601f19603f3d011682016040523d82523d5f602084013e610159565b606091505b505090508061018657604051630d623c2560e01b81526001600160a01b038616600482015260240161006b565b5050505050565b5f5f6040838503121561019e575f5ffd5b82356001600160a01b03811681146101b4575f5ffd5b946020939093013593505050565b808201808211156101e157634e487b7160e01b5f52601160045260245ffd5b9291505056fea164736f6c6343000823000a","linkReferences":{}},"methodIdentifiers":{"distributeStakeReward(address,uint256)":"90ea90ae"},"id":157}