{"abi":[{"type":"receive","stateMutability":"payable"},{"type":"function","name":"DEFAULT_ADMIN_ROLE","inputs":[],"outputs":[{"name":"","type":"bytes32","internalType":"bytes32"}],"stateMutability":"view"},{"type":"function","name":"MAINTAINER_ROLE","inputs":[],"outputs":[{"name":"","type":"bytes32","internalType":"bytes32"}],"stateMutability":"view"},{"type":"function","name":"NATIVE_TOKEN_POINTER","inputs":[],"outputs":[{"name":"","type":"address","internalType":"address"}],"stateMutability":"view"},{"type":"function","name":"PAUSER_ROLE","inputs":[],"outputs":[{"name":"","type":"bytes32","internalType":"bytes32"}],"stateMutability":"view"},{"type":"function","name":"SWAPPER_ROLE","inputs":[],"outputs":[{"name":"","type":"bytes32","internalType":"bytes32"}],"stateMutability":"view"},{"type":"function","name":"TEL_MINT","inputs":[],"outputs":[{"name":"","type":"address","internalType":"contract ITELMint"}],"stateMutability":"view"},{"type":"function","name":"UPGRADE_INTERFACE_VERSION","inputs":[],"outputs":[{"name":"","type":"string","internalType":"string"}],"stateMutability":"view"},{"type":"function","name":"UpdateXYZ","inputs":[{"name":"token","type":"address","internalType":"address"},{"name":"validity","type":"bool","internalType":"bool"},{"name":"maxLimit","type":"uint256","internalType":"uint256"},{"name":"minLimit","type":"uint256","internalType":"uint256"}],"outputs":[],"stateMutability":"nonpayable"},{"type":"function","name":"__StablecoinHandler_init","inputs":[],"outputs":[],"stateMutability":"nonpayable"},{"type":"function","name":"__StablecoinHandler_init_unchained","inputs":[],"outputs":[],"stateMutability":"nonpayable"},{"type":"function","name":"drip","inputs":[{"name":"token","type":"address","internalType":"address"}],"outputs":[],"stateMutability":"nonpayable"},{"type":"function","name":"dripTo","inputs":[{"name":"token","type":"address","internalType":"address"},{"name":"recipient","type":"address","internalType":"address"}],"outputs":[],"stateMutability":"nonpayable"},{"type":"function","name":"getDripAmount","inputs":[],"outputs":[{"name":"dripAmount","type":"uint256","internalType":"uint256"}],"stateMutability":"view"},{"type":"function","name":"getEnabledXYZs","inputs":[],"outputs":[{"name":"enabledXYZs","type":"address[]","internalType":"address[]"}],"stateMutability":"view"},{"type":"function","name":"getEnabledXYZsWithMetadata","inputs":[],"outputs":[{"name":"enabledXYZMetadatas","type":"tuple[]","internalType":"struct StablecoinManager.XYZMetadata[]","components":[{"name":"token","type":"address","internalType":"address"},{"name":"name","type":"string","internalType":"string"},{"name":"symbol","type":"string","internalType":"string"},{"name":"decimals","type":"uint256","internalType":"uint256"}]}],"stateMutability":"view"},{"type":"function","name":"getLastFulfilledDripTimestamp","inputs":[{"name":"token","type":"address","internalType":"address"},{"name":"recipient","type":"address","internalType":"address"}],"outputs":[{"name":"timestamp","type":"uint256","internalType":"uint256"}],"stateMutability":"view"},{"type":"function","name":"getMaxLimit","inputs":[{"name":"token","type":"address","internalType":"address"}],"outputs":[{"name":"","type":"uint256","internalType":"uint256"}],"stateMutability":"view"},{"type":"function","name":"getMinLimit","inputs":[{"name":"token","type":"address","internalType":"address"}],"outputs":[{"name":"","type":"uint256","internalType":"uint256"}],"stateMutability":"view"},{"type":"function","name":"getNativeDripAmount","inputs":[],"outputs":[{"name":"nativeDripAmount","type":"uint256","internalType":"uint256"}],"stateMutability":"view"},{"type":"function","name":"getRoleAdmin","inputs":[{"name":"role","type":"bytes32","internalType":"bytes32"}],"outputs":[{"name":"","type":"bytes32","internalType":"bytes32"}],"stateMutability":"view"},{"type":"function","name":"grantRole","inputs":[{"name":"role","type":"bytes32","internalType":"bytes32"},{"name":"account","type":"address","internalType":"address"}],"outputs":[],"stateMutability":"nonpayable"},{"type":"function","name":"hasRole","inputs":[{"name":"role","type":"bytes32","internalType":"bytes32"},{"name":"account","type":"address","internalType":"address"}],"outputs":[{"name":"","type":"bool","internalType":"bool"}],"stateMutability":"view"},{"type":"function","name":"initialize","inputs":[{"name":"initParams","type":"tuple","internalType":"struct StablecoinManager.StablecoinManagerInitParams","components":[{"name":"admin_","type":"address","internalType":"address"},{"name":"maintainer_","type":"address","internalType":"address"},{"name":"tokens_","type":"address[]","internalType":"address[]"},{"name":"initMaxLimit","type":"uint256","internalType":"uint256"},{"name":"initMinLimit","type":"uint256","internalType":"uint256"},{"name":"dripAmount_","type":"uint256","internalType":"uint256"},{"name":"nativeDripAmount_","type":"uint256","internalType":"uint256"}]}],"outputs":[],"stateMutability":"nonpayable"},{"type":"function","name":"isEnabledXYZ","inputs":[{"name":"eXYZ","type":"address","internalType":"address"}],"outputs":[{"name":"isEnabled","type":"bool","internalType":"bool"}],"stateMutability":"view"},{"type":"function","name":"isXYZ","inputs":[{"name":"token","type":"address","internalType":"address"}],"outputs":[{"name":"","type":"bool","internalType":"bool"}],"stateMutability":"view"},{"type":"function","name":"pause","inputs":[],"outputs":[],"stateMutability":"nonpayable"},{"type":"function","name":"paused","inputs":[],"outputs":[{"name":"","type":"bool","internalType":"bool"}],"stateMutability":"view"},{"type":"function","name":"proxiableUUID","inputs":[],"outputs":[{"name":"","type":"bytes32","internalType":"bytes32"}],"stateMutability":"view"},{"type":"function","name":"renounceRole","inputs":[{"name":"role","type":"bytes32","internalType":"bytes32"},{"name":"callerConfirmation","type":"address","internalType":"address"}],"outputs":[],"stateMutability":"nonpayable"},{"type":"function","name":"rescueCrypto","inputs":[{"name":"token","type":"address","internalType":"contract IERC20"},{"name":"amount","type":"uint256","internalType":"uint256"}],"outputs":[],"stateMutability":"nonpayable"},{"type":"function","name":"revokeRole","inputs":[{"name":"role","type":"bytes32","internalType":"bytes32"},{"name":"account","type":"address","internalType":"address"}],"outputs":[],"stateMutability":"nonpayable"},{"type":"function","name":"setDripAmount","inputs":[{"name":"newDripAmount","type":"uint256","internalType":"uint256"}],"outputs":[],"stateMutability":"nonpayable"},{"type":"function","name":"setNativeDripAmount","inputs":[{"name":"newNativeDripAmount","type":"uint256","internalType":"uint256"}],"outputs":[],"stateMutability":"nonpayable"},{"type":"function","name":"stablecoinSwap","inputs":[{"name":"wallet","type":"address","internalType":"address"},{"name":"ss","type":"tuple","internalType":"struct StablecoinHandler.StablecoinSwap","components":[{"name":"liquiditySafe","type":"address","internalType":"address"},{"name":"destination","type":"address","internalType":"address"},{"name":"origin","type":"address","internalType":"address"},{"name":"oAmount","type":"uint256","internalType":"uint256"},{"name":"target","type":"address","internalType":"address"},{"name":"tAmount","type":"uint256","internalType":"uint256"},{"name":"stablecoinFeeCurrency","type":"address","internalType":"address"},{"name":"stablecoinFeeSafe","type":"address","internalType":"address"},{"name":"feeAmount","type":"uint256","internalType":"uint256"}]}],"outputs":[],"stateMutability":"nonpayable"},{"type":"function","name":"supportsInterface","inputs":[{"name":"interfaceId","type":"bytes4","internalType":"bytes4"}],"outputs":[{"name":"","type":"bool","internalType":"bool"}],"stateMutability":"view"},{"type":"function","name":"unpause","inputs":[],"outputs":[],"stateMutability":"nonpayable"},{"type":"function","name":"upgradeToAndCall","inputs":[{"name":"newImplementation","type":"address","internalType":"address"},{"name":"data","type":"bytes","internalType":"bytes"}],"outputs":[],"stateMutability":"payable"},{"type":"event","name":"Drip","inputs":[{"name":"token","type":"address","indexed":false,"internalType":"address"},{"name":"recipient","type":"address","indexed":false,"internalType":"address"},{"name":"amount","type":"uint256","indexed":false,"internalType":"uint256"}],"anonymous":false},{"type":"event","name":"DripAmountUpdated","inputs":[{"name":"newDripAmount","type":"uint256","indexed":false,"internalType":"uint256"}],"anonymous":false},{"type":"event","name":"Initialized","inputs":[{"name":"version","type":"uint64","indexed":false,"internalType":"uint64"}],"anonymous":false},{"type":"event","name":"NativeDripAmountUpdated","inputs":[{"name":"newNativeDripAmount","type":"uint256","indexed":false,"internalType":"uint256"}],"anonymous":false},{"type":"event","name":"Paused","inputs":[{"name":"account","type":"address","indexed":false,"internalType":"address"}],"anonymous":false},{"type":"event","name":"RoleAdminChanged","inputs":[{"name":"role","type":"bytes32","indexed":true,"internalType":"bytes32"},{"name":"previousAdminRole","type":"bytes32","indexed":true,"internalType":"bytes32"},{"name":"newAdminRole","type":"bytes32","indexed":true,"internalType":"bytes32"}],"anonymous":false},{"type":"event","name":"RoleGranted","inputs":[{"name":"role","type":"bytes32","indexed":true,"internalType":"bytes32"},{"name":"account","type":"address","indexed":true,"internalType":"address"},{"name":"sender","type":"address","indexed":true,"internalType":"address"}],"anonymous":false},{"type":"event","name":"RoleRevoked","inputs":[{"name":"role","type":"bytes32","indexed":true,"internalType":"bytes32"},{"name":"account","type":"address","indexed":true,"internalType":"address"},{"name":"sender","type":"address","indexed":true,"internalType":"address"}],"anonymous":false},{"type":"event","name":"Unpaused","inputs":[{"name":"account","type":"address","indexed":false,"internalType":"address"}],"anonymous":false},{"type":"event","name":"Upgraded","inputs":[{"name":"implementation","type":"address","indexed":true,"internalType":"address"}],"anonymous":false},{"type":"event","name":"XYZAdded","inputs":[{"name":"token","type":"address","indexed":false,"internalType":"address"}],"anonymous":false},{"type":"event","name":"XYZRemoved","inputs":[{"name":"token","type":"address","indexed":false,"internalType":"address"}],"anonymous":false},{"type":"event","name":"XYZUpdated","inputs":[{"name":"token","type":"address","indexed":false,"internalType":"address"},{"name":"validity","type":"bool","indexed":false,"internalType":"bool"},{"name":"max","type":"uint256","indexed":false,"internalType":"uint256"},{"name":"min","type":"uint256","indexed":false,"internalType":"uint256"}],"anonymous":false},{"type":"error","name":"AccessControlBadConfirmation","inputs":[]},{"type":"error","name":"AccessControlUnauthorizedAccount","inputs":[{"name":"account","type":"address","internalType":"address"},{"name":"neededRole","type":"bytes32","internalType":"bytes32"}]},{"type":"error","name":"AddressEmptyCode","inputs":[{"name":"target","type":"address","internalType":"address"}]},{"type":"error","name":"AlreadyEnabled","inputs":[{"name":"token","type":"address","internalType":"address"}]},{"type":"error","name":"ERC1967InvalidImplementation","inputs":[{"name":"implementation","type":"address","internalType":"address"}]},{"type":"error","name":"ERC1967NonPayable","inputs":[]},{"type":"error","name":"EnforcedPause","inputs":[]},{"type":"error","name":"ExpectedPause","inputs":[]},{"type":"error","name":"FailedCall","inputs":[]},{"type":"error","name":"InvalidDripAmount","inputs":[{"name":"dripAmount","type":"uint256","internalType":"uint256"}]},{"type":"error","name":"InvalidInitialization","inputs":[]},{"type":"error","name":"InvalidMintBurnBoundry","inputs":[{"name":"token","type":"address","internalType":"address"},{"name":"amount","type":"uint256","internalType":"uint256"}]},{"type":"error","name":"InvalidOrDisabled","inputs":[{"name":"token","type":"address","internalType":"address"}]},{"type":"error","name":"LowLevelCallFailure","inputs":[{"name":"returnData","type":"bytes","internalType":"bytes"}]},{"type":"error","name":"NotInitializing","inputs":[]},{"type":"error","name":"RequestIneligibleUntil","inputs":[{"name":"unixTimestamp","type":"uint256","internalType":"uint256"}]},{"type":"error","name":"SafeERC20FailedOperation","inputs":[{"name":"token","type":"address","internalType":"address"}]},{"type":"error","name":"UUPSUnauthorizedCallContext","inputs":[]},{"type":"error","name":"UUPSUnsupportedProxiableUUID","inputs":[{"name":"slot","type":"bytes32","internalType":"bytes32"}]},{"type":"error","name":"ZeroValueInput","inputs":[{"name":"value","type":"string","internalType":"string"}]}],"bytecode":{"object":"0x60a0604052306080523480156012575f80fd5b50608051612de86100395f395f81816114a9015281816114d201526116130152612de85ff3fe608060405260043610610215575f3560e01c80637ad73baf1161011e578063ad3cb1cc116100a8578063d547741f1161006d578063d547741f14610613578063df668eca14610632578063e63ab1e914610665578063e9aea39614610698578063f8742254146106b7575f80fd5b8063ad3cb1cc14610564578063b4fc1335146105a1578063bd890c09146105c0578063c5b059e7146105d5578063cd879d34146105f4575f80fd5b806391d14854116100ee57806391d14854146104e0578063924855fa146104ff578063956794b114610513578063959042a214610532578063a217fddf14610551575f80fd5b80637ad73baf1461045a578063817204a41461048d5780638456cb59146104ad57806386f117de146104c1575f80fd5b80633f4ba83a1161019f57806352d1902d1161016f57806352d1902d146103c4578063543f8c58146103d85780635c975abb146103f757806367a5cd061461041a57806369e2fda414610439575f80fd5b80633f4ba83a1461035f57806340c66f78146103735780634f1ef286146103925780634f9c2c26146103a5575f80fd5b806320b2cf9f116101e557806320b2cf9f146102b5578063248a9ca3146102e05780632f2ff15d1461030d5780633598e3dc1461032c57806336568abe14610340575f80fd5b806301ffc9a71461022057806318820ad8146102545780631a0d6c2e146102755780631a95e05d14610296575f80fd5b3661021c57005b5f80fd5b34801561022b575f80fd5b5061023f61023a3660046126da565b6106d7565b60405190151581526020015b60405180910390f35b34801561025f575f80fd5b5061027361026e366004612725565b61070d565b005b348015610280575f80fd5b5061028961071b565b60405161024b919061278a565b3480156102a1575f80fd5b5061023f6102b0366004612834565b61099d565b3480156102c0575f80fd5b506102c85f81565b6040516001600160a01b03909116815260200161024b565b3480156102eb575f80fd5b506102ff6102fa36600461284f565b6109c6565b60405190815260200161024b565b348015610318575f80fd5b50610273610327366004612866565b6109e6565b348015610337575f80fd5b50610273610a08565b34801561034b575f80fd5b5061027361035a366004612866565b610a1a565b34801561036a575f80fd5b50610273610a52565b34801561037e575f80fd5b5061027361038d366004612889565b610a87565b6102736103a0366004612946565b610b3b565b3480156103b0575f80fd5b506102ff6103bf366004612834565b610b56565b3480156103cf575f80fd5b506102ff610b7f565b3480156103e3575f80fd5b506102736103f236600461284f565b610b9a565b348015610402575f80fd5b505f80516020612d7c8339815191525460ff1661023f565b348015610425575f80fd5b50610273610434366004612834565b610bdd565b348015610444575f80fd5b5061044d610be6565b60405161024b91906129d2565b348015610465575f80fd5b507f331c20f00e5afe412d6bf194b51e8f2d981ce2eedc3a9ed8e5a5801a2017e901546102ff565b348015610498575f80fd5b505f80516020612cfc833981519152546102ff565b3480156104b8575f80fd5b50610273610d54565b3480156104cc575f80fd5b506102736104db366004612a1d565b610d86565b3480156104eb575f80fd5b5061023f6104fa366004612866565b610dcc565b34801561050a575f80fd5b50610273610e02565b34801561051e575f80fd5b506102ff61052d366004612834565b610e12565b34801561053d575f80fd5b5061027361054c36600461284f565b610e3b565b34801561055c575f80fd5b506102ff5f81565b34801561056f575f80fd5b50610594604051806040016040528060058152602001640352e302e360dc1b81525081565b60405161024b9190612ae5565b3480156105ac575f80fd5b5061023f6105bb366004612834565b610e7e565b3480156105cb575f80fd5b506102c86107e181565b3480156105e0575f80fd5b506102ff6105ef366004612725565b610f41565b3480156105ff575f80fd5b5061027361060e366004612af7565b610f8b565b34801561061e575f80fd5b5061027361062d366004612866565b611145565b34801561063d575f80fd5b506102ff7f724f6a44d576143e18c60911798b2b15551ca96bd8f7cb7524b8fa36253a26d881565b348015610670575f80fd5b506102ff7f65d7a28e3265b37a6474929f336521b332c1681b933f6cb9f3376673440d862a81565b3480156106a3575f80fd5b506102736106b2366004612b2d565b611161565b3480156106c2575f80fd5b506102ff5f80516020612dbc83398151915281565b5f6001600160e01b03198216637965db0b60e01b148061070757506301ffc9a760e01b6001600160e01b03198316145b92915050565b61071782826111c8565b5050565b60605f610726610be6565b905080516001600160401b03811115610741576107416128b3565b6040519080825280602002602001820160405280156107a457816020015b61079160405180608001604052805f6001600160a01b0316815260200160608152602001606081526020015f81525090565b81526020019060019003908161075f5790505b5091505f5b8151811015610998575f8282815181106107c5576107c5612b74565b60200260200101516001600160a01b03166306fdde036040518163ffffffff1660e01b81526004015f60405180830381865afa158015610807573d5f803e3d5ffd5b505050506040513d5f823e601f3d908101601f1916820160405261082e9190810190612b88565b90505f83838151811061084357610843612b74565b60200260200101516001600160a01b03166395d89b416040518163ffffffff1660e01b81526004015f60405180830381865afa158015610885573d5f803e3d5ffd5b505050506040513d5f823e601f3d908101601f191682016040526108ac9190810190612b88565b90505f8484815181106108c1576108c1612b74565b60200260200101516001600160a01b031663313ce5676040518163ffffffff1660e01b8152600401602060405180830381865afa158015610904573d5f803e3d5ffd5b505050506040513d601f19601f820116820180604052508101906109289190612bfc565b9050604051806080016040528086868151811061094757610947612b74565b60200260200101516001600160a01b031681526020018481526020018381526020018281525086858151811061097f5761097f612b74565b60200260200101819052505050508060010190506107a9565b505090565b6001600160a01b03165f9081525f80516020612cdc833981519152602052604090205460ff1690565b5f9081525f80516020612d5c833981519152602052604090206001015490565b6109ef826109c6565b6109f881611222565b610a028383611280565b50505050565b610a10611321565b610a18611357565b565b6001600160a01b0381163314610a435760405163334bd91960e11b815260040160405180910390fd5b610a4d8282611367565b505050565b7f65d7a28e3265b37a6474929f336521b332c1681b933f6cb9f3376673440d862a610a7c81611222565b610a846113e0565b50565b5f80516020612dbc833981519152610a9e81611222565b6001600160a01b038316610b27576040515f908190339085908381818185875af1925050503d805f8114610aed576040519150601f19603f3d011682016040523d82523d5f602084013e610af2565b606091505b509150915081610b2057806040516306fe67db60e31b8152600401610b179190612ae5565b60405180910390fd5b5050505050565b610a4d6001600160a01b038416338461143f565b610b4361149e565b610b4c82611542565b610717828261154c565b6001600160a01b03165f9081525f80516020612cdc833981519152602052604090206001015490565b5f610b88611608565b505f80516020612d1c83398151915290565b5f80516020612dbc833981519152610bb181611222565b815f03610bd45760405163e5f9b6ad60e01b815260048101839052602401610b17565b61071782611651565b610a848161169a565b5f80516020612d3c833981519152805460408051602080840282018101909252828152606093925f92849190830182828015610c4957602002820191905f5260205f20905b81546001600160a01b03168152600190910190602001808311610c2b575b5050505050905080515f03610c6d575050604080515f815260208101909152919050565b5f80610c78836116a4565b9150915081610c8a5750909392505050565b5f60018451610c999190612c27565b9050806001600160401b03811115610cb357610cb36128b3565b604051908082528060200260200182016040528015610cdc578160200160208202803683370190505b5095505f805b8551811015610d4a57808414610d4257858181518110610d0457610d04612b74565b6020026020010151888381518110610d1e57610d1e612b74565b6001600160a01b0390921660209283029190910190910152610d3f82612c3a565b91505b600101610ce2565b5050505050505090565b7f65d7a28e3265b37a6474929f336521b332c1681b933f6cb9f3376673440d862a610d7e81611222565b610a84611706565b7f724f6a44d576143e18c60911798b2b15551ca96bd8f7cb7524b8fa36253a26d8610db081611222565b610db861174e565b610dc2838361177e565b610a4d8383611b5d565b5f9182525f80516020612d5c833981519152602090815260408084206001600160a01b0393909316845291905290205460ff1690565b610e0a611321565b610a18610a08565b6001600160a01b03165f9081525f80516020612cdc833981519152602052604090206002015490565b5f80516020612dbc833981519152610e5281611222565b815f03610e755760405163e5f9b6ad60e01b815260048101839052602401610b17565b61071782611cfd565b5f80516020612d3c8339815191528054604080516020808402820181019092528281525f93928492849190830182828015610ee057602002820191905f5260205f20905b81546001600160a01b03168152600190910190602001808311610ec2575b505050505090505f5b8151811015610f3757846001600160a01b0316828281518110610f0e57610f0e612b74565b60200260200101516001600160a01b031603610f2f57506001949350505050565b600101610ee9565b505f949350505050565b6001600160a01b039081165f9081527f331c20f00e5afe412d6bf194b51e8f2d981ce2eedc3a9ed8e5a5801a2017e902602090815260408083209490931682529290925290205490565b5f80516020612d9c8339815191528054600160401b810460ff1615906001600160401b03165f81158015610fbc5750825b90505f826001600160401b03166001148015610fd75750303b155b905081158015610fe5575080155b156110035760405163f92ee8a960e01b815260040160405180910390fd5b845467ffffffffffffffff19166001178555831561102d57845460ff60401b1916600160401b1785555b611035610e02565b6110478660a001358760c00135611d60565b6110565f60015f196001611161565b5f5b6110656040880188612c52565b90508110156110bc576110b461107e6040890189612c52565b8381811061108e5761108e612b74565b90506020020160208101906110a39190612834565b600189606001358a60800135611161565b600101611058565b506110d35f6110ce6020890189612834565b611280565b506110f55f80516020612dbc8339815191526110ce6040890160208a01612834565b50831561113d57845460ff60401b19168555604051600181527fc7f505b2f371ae2175ee4913f4499e1f2633a7b5936321eed1cdaeb6115181d2906020015b60405180910390a15b505050505050565b61114e826109c6565b61115781611222565b610a028383611367565b5f80516020612dbc83398151915261117881611222565b838015611189575061118985610e7e565b156111b25760405163017e790360e31b81526001600160a01b0386166004820152602401610b17565b6111bc8585611e63565b610b2085858585611e7f565b6111d28282611f90565b6001600160a01b038082165f9081527f331c20f00e5afe412d6bf194b51e8f2d981ce2eedc3a9ed8e5a5801a2017e90260209081526040808320938616835292905220429055610717828261200b565b335f61122e8383610dcc565b8061124e57505f80516020612d9c83398151915254600160401b900460ff165b905080610a4d5760405163e2517d3f60e01b81526001600160a01b038316600482015260248101849052604401610b17565b5f5f80516020612d5c8339815191526112998484610dcc565b611318575f848152602082815260408083206001600160a01b03871684529091529020805460ff191660011790556112ce3390565b6001600160a01b0316836001600160a01b0316857f2f8788117e7eff1d82e926ec794901d17c78024a50270940304540a733656f0d60405160405180910390a46001915050610707565b5f915050610707565b5f80516020612d9c83398151915254600160401b900460ff16610a1857604051631afcd79f60e31b815260040160405180910390fd5b61135f611321565b610a186121c1565b5f5f80516020612d5c8339815191526113808484610dcc565b15611318575f848152602082815260408083206001600160a01b0387168085529252808320805460ff1916905551339287917ff6391f5c32d9c69d2a47ea670b442974b53935d1edc7fd64eb21e047a839171b9190a46001915050610707565b6113e86121e1565b5f80516020612d7c833981519152805460ff191681557f5db9ee0a495bf2e6ff9c91a7834c1ba4fdd244a5e8aa4e537bd38aeae4b073aa335b6040516001600160a01b03909116815260200160405180910390a150565b6040516001600160a01b03838116602483015260448201839052610a4d91859182169063a9059cbb906064015b604051602081830303815290604052915060e01b6020820180516001600160e01b038381831617835250505050612210565b306001600160a01b037f000000000000000000000000000000000000000000000000000000000000000016148061152457507f00000000000000000000000000000000000000000000000000000000000000006001600160a01b03166115185f80516020612d1c833981519152546001600160a01b031690565b6001600160a01b031614155b15610a185760405163703e46dd60e11b815260040160405180910390fd5b5f61071781611222565b816001600160a01b03166352d1902d6040518163ffffffff1660e01b8152600401602060405180830381865afa9250505080156115a6575060408051601f3d908101601f191682019092526115a391810190612bfc565b60015b6115ce57604051634c9c8ce360e01b81526001600160a01b0383166004820152602401610b17565b5f80516020612d1c83398151915281146115fe57604051632a87526960e21b815260048101829052602401610b17565b610a4d838361227c565b306001600160a01b037f00000000000000000000000000000000000000000000000000000000000000001614610a185760405163703e46dd60e11b815260040160405180910390fd5b5f80516020612cfc8339815191528181556040518281527f33f3faee0788ab897d8f674abe1dde6d93ba901e4a1502161294734ba178e3c7906020015b60405180910390a15050565b610a84813361070d565b5f805f5b83518110156116f7575f6001600160a01b03168482815181106116cd576116cd612b74565b60200260200101516001600160a01b0316036116ef57600192508091506116f7565b6001016116a8565b508161170157505f195b915091565b61170e61174e565b5f80516020612d7c833981519152805460ff191660011781557f62e78cea01bee320cd4e420270b5ea74000d11b0c9f74754ebdbfc544b05a25833611421565b5f80516020612d7c8339815191525460ff1615610a185760405163d93c066560e01b815260040160405180910390fd5b604081015181906001600160a01b03166117cd576040516326401ebb60e01b815260206004820152600f60248201526e4f524947494e2043555252454e435960881b6044820152606401610b17565b80606001515f03611811576040516326401ebb60e01b815260206004820152600d60248201526c13d49251d25388105353d55395609a1b6044820152606401610b17565b60208101516001600160a01b031661185a576040516326401ebb60e01b815260206004820152600b60248201526a2222a9aa24a720aa24a7a760a91b6044820152606401610b17565b60808101516001600160a01b03166118a7576040516326401ebb60e01b815260206004820152600f60248201526e5441524745542043555252454e435960881b6044820152606401610b17565b8060a001515f036118eb576040516326401ebb60e01b815260206004820152600d60248201526c15105491d15508105353d55395609a1b6044820152606401610b17565b6001600160a01b03831661192b576040516326401ebb60e01b815260206004820152600660248201526515d05313115560d21b6044820152606401610b17565b611938826040015161099d565b156119ff5761194a8260400151610e12565b826060015183604001516001600160a01b03166318160ddd6040518163ffffffff1660e01b8152600401602060405180830381865afa15801561198f573d5f803e3d5ffd5b505050506040513d601f19601f820116820180604052508101906119b39190612bfc565b6119bd9190612c27565b10156119fa57604080830151606084015191516373363d8b60e01b81526001600160a01b0390911660048201526024810191909152604401610b17565b611a48565b81516001600160a01b0316611a48576040516326401ebb60e01b815260206004820152600e60248201526d4c4951554944495459205341464560901b6044820152606401610b17565b611a55826080015161099d565b15611b1457611a678260800151610b56565b8260a0015183608001516001600160a01b03166318160ddd6040518163ffffffff1660e01b8152600401602060405180830381865afa158015611aac573d5f803e3d5ffd5b505050506040513d601f19601f82011682018060405250810190611ad09190612bfc565b611ada9190612c9e565b1115610a4d57608082015160a08301516040516373363d8b60e01b81526001600160a01b0390921660048301526024820152604401610b17565b81516001600160a01b0316610a4d576040516326401ebb60e01b815260206004820152600e60248201526d4c4951554944495459205341464560901b6044820152606401610b17565b60c08101516001600160a01b031615801590611b85575060e08101516001600160a01b031615155b15611bb757611bb7828260e001518361010001518460c001516001600160a01b03166122d1909392919063ffffffff16565b611bc4816040015161099d565b15611c36576040808201516060830151915163079cc67960e41b81526001600160a01b03858116600483015260248201939093529116906379cc6790906044015f604051808303815f87803b158015611c1b575f80fd5b505af1158015611c2d573d5f803e3d5ffd5b50505050611c5a565b805160608201516040830151611c5a926001600160a01b03909116918591906122d1565b611c67816080015161099d565b15611cd5576080810151602082015160a08301516040516308934a5f60e31b81526001600160a01b039283166004820152602481019190915291169063449a52f8906044015f604051808303815f87803b158015611cc3575f80fd5b505af115801561113d573d5f803e3d5ffd5b8051602082015160a08301516080840151610717936001600160a01b039091169290916122d1565b7f331c20f00e5afe412d6bf194b51e8f2d981ce2eedc3a9ed8e5a5801a2017e9018190556040518181525f80516020612cfc833981519152907fbf420dc53ff33cecece09463750eae7694a8fe807007924887a27dd11a0df0489060200161168e565b5f80516020612d9c8339815191528054600160401b810460ff1615906001600160401b03165f81158015611d915750825b90505f826001600160401b03166001148015611dac5750303b155b905081158015611dba575080155b15611dd85760405163f92ee8a960e01b815260040160405180910390fd5b845467ffffffffffffffff191660011785558315611e0257845460ff60401b1916600160401b1785555b611e0b87611651565b611e1486611cfd565b8315611e5a57845460ff60401b19168555604051600181527fc7f505b2f371ae2175ee4913f4499e1f2633a7b5936321eed1cdaeb6115181d29060200160405180910390a15b50505050505050565b801515600103611e76576107178261230a565b61071782612392565b5f80516020612dbc833981519152611e9681611222565b818311611f0b5760405162461bcd60e51b815260206004820152603d60248201527f537461626c65636f696e48616e646c65723a207570706572626f756e64206d7560448201527f73742062652067726561746572207468616e206c6f776572626f756e640000006064820152608401610b17565b6001600160a01b0385165f8181525f80516020612cdc8339815191526020818152604092839020805460ff1916891515908117825560018201899055600290910187905583519485529084015290820185905260608201849052907f84f12763861d318f97fe38a0e6f70b46f0566462d67561978f0f4dff814031df90608001611134565b611f9982610e7e565b611fc157604051635ab8d72960e11b81526001600160a01b0383166004820152602401610b17565b5f611fcc8383610f41565b9050611fdb8162015180612c9e565b421015610a4d57611fef8162015180612c9e565b60405163737aab0d60e01b8152600401610b1791815260200190565b5f6001600160a01b03831661210057507f331c20f00e5afe412d6bf194b51e8f2d981ce2eedc3a9ed8e5a5801a2017e90154604080516001600160a01b0384166024820152604480820184905282518083039091018152606490910182526020810180516001600160e01b03166340c10f1960e01b17905290515f9182916107e19161209691612cb1565b5f604051808303815f865af19150503d805f81146120cf576040519150601f19603f3d011682016040523d82523d5f602084013e6120d4565b606091505b5091509150816120f957806040516306fe67db60e31b8152600401610b179190612ae5565b5050612171565b5f80516020612cfc833981519152546040516308934a5f60e31b81526001600160a01b038481166004830152602482018390529192509084169063449a52f8906044015f604051808303815f87803b15801561215a575f80fd5b505af115801561216c573d5f803e3d5ffd5b505050505b604080516001600160a01b038086168252841660208201529081018290527fdfc93ac43234c3993e5d23f2a1a4c52b2ac70f67cf1f534bd7ceb92328bf949a9060600160405180910390a1505050565b6121c9611321565b5f80516020612d7c833981519152805460ff19169055565b5f80516020612d7c8339815191525460ff16610a1857604051638dfc202b60e01b815260040160405180910390fd5b5f8060205f8451602086015f885af18061222f576040513d5f823e3d81fd5b50505f513d91508115612246578060011415612253565b6001600160a01b0384163b155b15610a0257604051635274afe760e01b81526001600160a01b0385166004820152602401610b17565b6122858261255e565b6040516001600160a01b038316907fbc7cd75a20ee27fd9adebab32041f755214dbc6bffa90cc0225b39da2e5c2d3b905f90a28051156122c957610a4d82826125c1565b610717612633565b6040516001600160a01b038481166024830152838116604483015260648201839052610a029186918216906323b872dd9060840161146c565b5f80516020612d3c83398151915280546001810182555f8290527f7e20de35e2cca1b91743fd09589d05b1415d23ef62d96d86c8e1bc09ee225f0f0180546001600160a01b0319166001600160a01b0384169081179091556040519081527fc039c75cef0904723584eecbad08281b7298a16c9fadc7dbbb576359df79c1de9060200161168e565b5f80516020612d3c8339815191528054604080516020808402820181019092528281525f9290918491908301828280156123f357602002820191905f5260205f20905b81546001600160a01b031681526001909101906020018083116123d5575b505050505090505f5f1990505f5b825181101561244857846001600160a01b031683828151811061242657612426612b74565b60200260200101516001600160a01b031603612440578091505b600101612401565b505f19810361247557604051635ab8d72960e11b81526001600160a01b0385166004820152602401610b17565b5f600183516124849190612c27565b90508082146124e75782818151811061249f5761249f612b74565b6020026020010151845f0183815481106124bb576124bb612b74565b905f5260205f20015f6101000a8154816001600160a01b0302191690836001600160a01b031602179055505b83548490806124f8576124f8612cc7565b5f8281526020908190205f19908301810180546001600160a01b03191690559091019091556040516001600160a01b03871681527f29ef6e5e7533f5e04f1729a119b0acf31837e10f8a66e61d22dedd180d0221e9910160405180910390a15050505050565b806001600160a01b03163b5f0361259357604051634c9c8ce360e01b81526001600160a01b0382166004820152602401610b17565b5f80516020612d1c83398151915280546001600160a01b0319166001600160a01b0392909216919091179055565b60605f80846001600160a01b0316846040516125dd9190612cb1565b5f60405180830381855af49150503d805f8114612615576040519150601f19603f3d011682016040523d82523d5f602084013e61261a565b606091505b509150915061262a858383612652565b95945050505050565b3415610a185760405163b398979f60e01b815260040160405180910390fd5b60608261266757612662826126b1565b6126aa565b815115801561267e57506001600160a01b0384163b155b156126a757604051639996b31560e01b81526001600160a01b0385166004820152602401610b17565b50805b9392505050565b8051156126c15780518082602001fd5b60405163d6bda27560e01b815260040160405180910390fd5b5f602082840312156126ea575f80fd5b81356001600160e01b0319811681146126aa575f80fd5b6001600160a01b0381168114610a84575f80fd5b803561272081612701565b919050565b5f8060408385031215612736575f80fd5b823561274181612701565b9150602083013561275181612701565b809150509250929050565b5f81518084528060208401602086015e5f602082860101526020601f19601f83011685010191505092915050565b5f602082016020835280845180835260408501915060408160051b8601019250602086015f5b8281101561282857868503603f19018452815180516001600160a01b031686526020808201516080918801829052906127eb9088018261275c565b905060408201518782036040890152612804828261275c565b606093840151989093019790975250945060209384019391909101906001016127b0565b50929695505050505050565b5f60208284031215612844575f80fd5b81356126aa81612701565b5f6020828403121561285f575f80fd5b5035919050565b5f8060408385031215612877575f80fd5b82359150602083013561275181612701565b5f806040838503121561289a575f80fd5b82356128a581612701565b946020939093013593505050565b634e487b7160e01b5f52604160045260245ffd5b60405161012081016001600160401b03811182821017156128ea576128ea6128b3565b60405290565b604051601f8201601f191681016001600160401b0381118282101715612918576129186128b3565b604052919050565b5f6001600160401b03821115612938576129386128b3565b50601f01601f191660200190565b5f8060408385031215612957575f80fd5b823561296281612701565b915060208301356001600160401b0381111561297c575f80fd5b8301601f8101851361298c575f80fd5b803561299f61299a82612920565b6128f0565b8181528660208385010111156129b3575f80fd5b816020840160208301375f602083830101528093505050509250929050565b602080825282518282018190525f918401906040840190835b81811015612a125783516001600160a01b03168352602093840193909201916001016129eb565b509095945050505050565b5f80828403610140811215612a30575f80fd5b8335612a3b81612701565b9250610120601f1982011215612a4f575f80fd5b50612a586128c7565b612a6460208501612715565b8152612a7260408501612715565b6020820152612a8360608501612715565b604082015260808401356060820152612a9e60a08501612715565b608082015260c084013560a0820152612ab960e08501612715565b60c0820152612acb6101008501612715565b60e082015261012093909301356101008401525092909150565b602081525f6126aa602083018461275c565b5f60208284031215612b07575f80fd5b81356001600160401b03811115612b1c575f80fd5b820160e081850312156126aa575f80fd5b5f805f8060808587031215612b40575f80fd5b8435612b4b81612701565b935060208501358015158114612b5f575f80fd5b93969395505050506040820135916060013590565b634e487b7160e01b5f52603260045260245ffd5b5f60208284031215612b98575f80fd5b81516001600160401b03811115612bad575f80fd5b8201601f81018413612bbd575f80fd5b8051612bcb61299a82612920565b818152856020838501011115612bdf575f80fd5b8160208401602083015e5f91810160200191909152949350505050565b5f60208284031215612c0c575f80fd5b5051919050565b634e487b7160e01b5f52601160045260245ffd5b8181038181111561070757610707612c13565b5f60018201612c4b57612c4b612c13565b5060010190565b5f808335601e19843603018112612c67575f80fd5b8301803591506001600160401b03821115612c80575f80fd5b6020019150600581901b3603821315612c97575f80fd5b9250929050565b8082018082111561070757610707612c13565b5f82518060208501845e5f920191825250919050565b634e487b7160e01b5f52603160045260245ffdfe38361881985b0f585e6124dca158a3af102bffba0feb9c42b0b40825f41a3300331c20f00e5afe412d6bf194b51e8f2d981ce2eedc3a9ed8e5a5801a2017e900360894a13ba1a3210667c828492db98dca3e2076cc3735a920a3ca505d382bbc77dc539bf9c224afa178d31bf07d5109c2b5c5e56656e49b25e507fec3a69f0002dd7bc7dec4dceedda775e58dd541e08a116c6c53815c0bd028192f7b626800cd5ed15c6e187e77e9aee88184c21f4f2182ab5827cb3b7e07fbedcd63f03300f0c57e16840df040f15088dc2f81fe391c3923bec73e23a9662efc9c229c6a00339759585899103d2ace64958e37e18ccb0504652c81d4a1b8aa80fe2126ab95a164736f6c634300081a000a","linkReferences":{}},"methodIdentifiers":{"DEFAULT_ADMIN_ROLE()":"a217fddf","MAINTAINER_ROLE()":"f8742254","NATIVE_TOKEN_POINTER()":"20b2cf9f","PAUSER_ROLE()":"e63ab1e9","SWAPPER_ROLE()":"df668eca","TEL_MINT()":"bd890c09","UPGRADE_INTERFACE_VERSION()":"ad3cb1cc","UpdateXYZ(address,bool,uint256,uint256)":"e9aea396","__StablecoinHandler_init()":"924855fa","__StablecoinHandler_init_unchained()":"3598e3dc","drip(address)":"67a5cd06","dripTo(address,address)":"18820ad8","getDripAmount()":"817204a4","getEnabledXYZs()":"69e2fda4","getEnabledXYZsWithMetadata()":"1a0d6c2e","getLastFulfilledDripTimestamp(address,address)":"c5b059e7","getMaxLimit(address)":"4f9c2c26","getMinLimit(address)":"956794b1","getNativeDripAmount()":"7ad73baf","getRoleAdmin(bytes32)":"248a9ca3","grantRole(bytes32,address)":"2f2ff15d","hasRole(bytes32,address)":"91d14854","initialize((address,address,address[],uint256,uint256,uint256,uint256))":"cd879d34","isEnabledXYZ(address)":"b4fc1335","isXYZ(address)":"1a95e05d","pause()":"8456cb59","paused()":"5c975abb","proxiableUUID()":"52d1902d","renounceRole(bytes32,address)":"36568abe","rescueCrypto(address,uint256)":"40c66f78","revokeRole(bytes32,address)":"d547741f","setDripAmount(uint256)":"543f8c58","setNativeDripAmount(uint256)":"959042a2","stablecoinSwap(address,(address,address,address,uint256,address,uint256,address,address,uint256))":"86f117de","supportsInterface(bytes4)":"01ffc9a7","unpause()":"3f4ba83a","upgradeToAndCall(address,bytes)":"4f1ef286"},"id":111}