{"abi":[{"type":"receive","stateMutability":"payable"},{"type":"function","name":"DEFAULT_ADMIN_ROLE","inputs":[],"outputs":[{"name":"","type":"bytes32","internalType":"bytes32"}],"stateMutability":"view"},{"type":"function","name":"MAINTAINER_ROLE","inputs":[],"outputs":[{"name":"","type":"bytes32","internalType":"bytes32"}],"stateMutability":"view"},{"type":"function","name":"NATIVE_TOKEN_POINTER","inputs":[],"outputs":[{"name":"","type":"address","internalType":"address"}],"stateMutability":"view"},{"type":"function","name":"PAUSER_ROLE","inputs":[],"outputs":[{"name":"","type":"bytes32","internalType":"bytes32"}],"stateMutability":"view"},{"type":"function","name":"SWAPPER_ROLE","inputs":[],"outputs":[{"name":"","type":"bytes32","internalType":"bytes32"}],"stateMutability":"view"},{"type":"function","name":"TEL_MINT","inputs":[],"outputs":[{"name":"","type":"address","internalType":"contract ITELMint"}],"stateMutability":"view"},{"type":"function","name":"UPGRADE_INTERFACE_VERSION","inputs":[],"outputs":[{"name":"","type":"string","internalType":"string"}],"stateMutability":"view"},{"type":"function","name":"UpdateXYZ","inputs":[{"name":"token","type":"address","internalType":"address"},{"name":"validity","type":"bool","internalType":"bool"},{"name":"maxLimit","type":"uint256","internalType":"uint256"},{"name":"minLimit","type":"uint256","internalType":"uint256"}],"outputs":[],"stateMutability":"nonpayable"},{"type":"function","name":"__StablecoinHandler_init","inputs":[],"outputs":[],"stateMutability":"nonpayable"},{"type":"function","name":"__StablecoinHandler_init_unchained","inputs":[],"outputs":[],"stateMutability":"nonpayable"},{"type":"function","name":"drip","inputs":[{"name":"token","type":"address","internalType":"address"}],"outputs":[],"stateMutability":"nonpayable"},{"type":"function","name":"dripTo","inputs":[{"name":"token","type":"address","internalType":"address"},{"name":"recipient","type":"address","internalType":"address"}],"outputs":[],"stateMutability":"nonpayable"},{"type":"function","name":"getDripAmount","inputs":[],"outputs":[{"name":"dripAmount","type":"uint256","internalType":"uint256"}],"stateMutability":"view"},{"type":"function","name":"getEnabledXYZs","inputs":[],"outputs":[{"name":"enabledXYZs","type":"address[]","internalType":"address[]"}],"stateMutability":"view"},{"type":"function","name":"getEnabledXYZsWithMetadata","inputs":[],"outputs":[{"name":"enabledXYZMetadatas","type":"tuple[]","internalType":"struct StablecoinManager.XYZMetadata[]","components":[{"name":"token","type":"address","internalType":"address"},{"name":"name","type":"string","internalType":"string"},{"name":"symbol","type":"string","internalType":"string"},{"name":"decimals","type":"uint256","internalType":"uint256"}]}],"stateMutability":"view"},{"type":"function","name":"getLastFulfilledDripTimestamp","inputs":[{"name":"token","type":"address","internalType":"address"},{"name":"recipient","type":"address","internalType":"address"}],"outputs":[{"name":"timestamp","type":"uint256","internalType":"uint256"}],"stateMutability":"view"},{"type":"function","name":"getMaxLimit","inputs":[{"name":"token","type":"address","internalType":"address"}],"outputs":[{"name":"","type":"uint256","internalType":"uint256"}],"stateMutability":"view"},{"type":"function","name":"getMinLimit","inputs":[{"name":"token","type":"address","internalType":"address"}],"outputs":[{"name":"","type":"uint256","internalType":"uint256"}],"stateMutability":"view"},{"type":"function","name":"getNativeDripAmount","inputs":[],"outputs":[{"name":"nativeDripAmount","type":"uint256","internalType":"uint256"}],"stateMutability":"view"},{"type":"function","name":"getRoleAdmin","inputs":[{"name":"role","type":"bytes32","internalType":"bytes32"}],"outputs":[{"name":"","type":"bytes32","internalType":"bytes32"}],"stateMutability":"view"},{"type":"function","name":"grantRole","inputs":[{"name":"role","type":"bytes32","internalType":"bytes32"},{"name":"account","type":"address","internalType":"address"}],"outputs":[],"stateMutability":"nonpayable"},{"type":"function","name":"hasRole","inputs":[{"name":"role","type":"bytes32","internalType":"bytes32"},{"name":"account","type":"address","internalType":"address"}],"outputs":[{"name":"","type":"bool","internalType":"bool"}],"stateMutability":"view"},{"type":"function","name":"initialize","inputs":[{"name":"initParams","type":"tuple","internalType":"struct StablecoinManager.StablecoinManagerInitParams","components":[{"name":"admin_","type":"address","internalType":"address"},{"name":"maintainer_","type":"address","internalType":"address"},{"name":"tokens_","type":"address[]","internalType":"address[]"},{"name":"initMaxLimit","type":"uint256","internalType":"uint256"},{"name":"initMinLimit","type":"uint256","internalType":"uint256"},{"name":"dripAmount_","type":"uint256","internalType":"uint256"},{"name":"nativeDripAmount_","type":"uint256","internalType":"uint256"}]}],"outputs":[],"stateMutability":"nonpayable"},{"type":"function","name":"isEnabledXYZ","inputs":[{"name":"eXYZ","type":"address","internalType":"address"}],"outputs":[{"name":"isEnabled","type":"bool","internalType":"bool"}],"stateMutability":"view"},{"type":"function","name":"isXYZ","inputs":[{"name":"token","type":"address","internalType":"address"}],"outputs":[{"name":"","type":"bool","internalType":"bool"}],"stateMutability":"view"},{"type":"function","name":"pause","inputs":[],"outputs":[],"stateMutability":"nonpayable"},{"type":"function","name":"paused","inputs":[],"outputs":[{"name":"","type":"bool","internalType":"bool"}],"stateMutability":"view"},{"type":"function","name":"proxiableUUID","inputs":[],"outputs":[{"name":"","type":"bytes32","internalType":"bytes32"}],"stateMutability":"view"},{"type":"function","name":"renounceRole","inputs":[{"name":"role","type":"bytes32","internalType":"bytes32"},{"name":"callerConfirmation","type":"address","internalType":"address"}],"outputs":[],"stateMutability":"nonpayable"},{"type":"function","name":"rescueCrypto","inputs":[{"name":"token","type":"address","internalType":"contract IERC20"},{"name":"amount","type":"uint256","internalType":"uint256"}],"outputs":[],"stateMutability":"nonpayable"},{"type":"function","name":"revokeRole","inputs":[{"name":"role","type":"bytes32","internalType":"bytes32"},{"name":"account","type":"address","internalType":"address"}],"outputs":[],"stateMutability":"nonpayable"},{"type":"function","name":"setDripAmount","inputs":[{"name":"newDripAmount","type":"uint256","internalType":"uint256"}],"outputs":[],"stateMutability":"nonpayable"},{"type":"function","name":"setNativeDripAmount","inputs":[{"name":"newNativeDripAmount","type":"uint256","internalType":"uint256"}],"outputs":[],"stateMutability":"nonpayable"},{"type":"function","name":"stablecoinSwap","inputs":[{"name":"wallet","type":"address","internalType":"address"},{"name":"ss","type":"tuple","internalType":"struct StablecoinHandler.StablecoinSwap","components":[{"name":"liquiditySafe","type":"address","internalType":"address"},{"name":"destination","type":"address","internalType":"address"},{"name":"origin","type":"address","internalType":"address"},{"name":"oAmount","type":"uint256","internalType":"uint256"},{"name":"target","type":"address","internalType":"address"},{"name":"tAmount","type":"uint256","internalType":"uint256"},{"name":"stablecoinFeeCurrency","type":"address","internalType":"address"},{"name":"stablecoinFeeSafe","type":"address","internalType":"address"},{"name":"feeAmount","type":"uint256","internalType":"uint256"}]}],"outputs":[],"stateMutability":"nonpayable"},{"type":"function","name":"supportsInterface","inputs":[{"name":"interfaceId","type":"bytes4","internalType":"bytes4"}],"outputs":[{"name":"","type":"bool","internalType":"bool"}],"stateMutability":"view"},{"type":"function","name":"unpause","inputs":[],"outputs":[],"stateMutability":"nonpayable"},{"type":"function","name":"upgradeToAndCall","inputs":[{"name":"newImplementation","type":"address","internalType":"address"},{"name":"data","type":"bytes","internalType":"bytes"}],"outputs":[],"stateMutability":"payable"},{"type":"event","name":"Drip","inputs":[{"name":"token","type":"address","indexed":false,"internalType":"address"},{"name":"recipient","type":"address","indexed":false,"internalType":"address"},{"name":"amount","type":"uint256","indexed":false,"internalType":"uint256"}],"anonymous":false},{"type":"event","name":"DripAmountUpdated","inputs":[{"name":"newDripAmount","type":"uint256","indexed":false,"internalType":"uint256"}],"anonymous":false},{"type":"event","name":"Initialized","inputs":[{"name":"version","type":"uint64","indexed":false,"internalType":"uint64"}],"anonymous":false},{"type":"event","name":"NativeDripAmountUpdated","inputs":[{"name":"newNativeDripAmount","type":"uint256","indexed":false,"internalType":"uint256"}],"anonymous":false},{"type":"event","name":"Paused","inputs":[{"name":"account","type":"address","indexed":false,"internalType":"address"}],"anonymous":false},{"type":"event","name":"RoleAdminChanged","inputs":[{"name":"role","type":"bytes32","indexed":true,"internalType":"bytes32"},{"name":"previousAdminRole","type":"bytes32","indexed":true,"internalType":"bytes32"},{"name":"newAdminRole","type":"bytes32","indexed":true,"internalType":"bytes32"}],"anonymous":false},{"type":"event","name":"RoleGranted","inputs":[{"name":"role","type":"bytes32","indexed":true,"internalType":"bytes32"},{"name":"account","type":"address","indexed":true,"internalType":"address"},{"name":"sender","type":"address","indexed":true,"internalType":"address"}],"anonymous":false},{"type":"event","name":"RoleRevoked","inputs":[{"name":"role","type":"bytes32","indexed":true,"internalType":"bytes32"},{"name":"account","type":"address","indexed":true,"internalType":"address"},{"name":"sender","type":"address","indexed":true,"internalType":"address"}],"anonymous":false},{"type":"event","name":"Unpaused","inputs":[{"name":"account","type":"address","indexed":false,"internalType":"address"}],"anonymous":false},{"type":"event","name":"Upgraded","inputs":[{"name":"implementation","type":"address","indexed":true,"internalType":"address"}],"anonymous":false},{"type":"event","name":"XYZAdded","inputs":[{"name":"token","type":"address","indexed":false,"internalType":"address"}],"anonymous":false},{"type":"event","name":"XYZRemoved","inputs":[{"name":"token","type":"address","indexed":false,"internalType":"address"}],"anonymous":false},{"type":"event","name":"XYZUpdated","inputs":[{"name":"token","type":"address","indexed":false,"internalType":"address"},{"name":"validity","type":"bool","indexed":false,"internalType":"bool"},{"name":"max","type":"uint256","indexed":false,"internalType":"uint256"},{"name":"min","type":"uint256","indexed":false,"internalType":"uint256"}],"anonymous":false},{"type":"error","name":"AccessControlBadConfirmation","inputs":[]},{"type":"error","name":"AccessControlUnauthorizedAccount","inputs":[{"name":"account","type":"address","internalType":"address"},{"name":"neededRole","type":"bytes32","internalType":"bytes32"}]},{"type":"error","name":"AddressEmptyCode","inputs":[{"name":"target","type":"address","internalType":"address"}]},{"type":"error","name":"AlreadyEnabled","inputs":[{"name":"token","type":"address","internalType":"address"}]},{"type":"error","name":"ERC1967InvalidImplementation","inputs":[{"name":"implementation","type":"address","internalType":"address"}]},{"type":"error","name":"ERC1967NonPayable","inputs":[]},{"type":"error","name":"EnforcedPause","inputs":[]},{"type":"error","name":"ExpectedPause","inputs":[]},{"type":"error","name":"FailedCall","inputs":[]},{"type":"error","name":"InvalidDripAmount","inputs":[{"name":"dripAmount","type":"uint256","internalType":"uint256"}]},{"type":"error","name":"InvalidInitialization","inputs":[]},{"type":"error","name":"InvalidMintBurnBoundry","inputs":[{"name":"token","type":"address","internalType":"address"},{"name":"amount","type":"uint256","internalType":"uint256"}]},{"type":"error","name":"InvalidOrDisabled","inputs":[{"name":"token","type":"address","internalType":"address"}]},{"type":"error","name":"LowLevelCallFailure","inputs":[]},{"type":"error","name":"NotInitializing","inputs":[]},{"type":"error","name":"RequestIneligibleUntil","inputs":[{"name":"unixTimestamp","type":"uint256","internalType":"uint256"}]},{"type":"error","name":"SafeERC20FailedOperation","inputs":[{"name":"token","type":"address","internalType":"address"}]},{"type":"error","name":"UUPSUnauthorizedCallContext","inputs":[]},{"type":"error","name":"UUPSUnsupportedProxiableUUID","inputs":[{"name":"slot","type":"bytes32","internalType":"bytes32"}]},{"type":"error","name":"ZeroValueInput","inputs":[{"name":"value","type":"string","internalType":"string"}]}],"bytecode":{"object":"0x60a0604052306080523480156012575f80fd5b50608051612d806100395f395f81816114a0015281816114c9015261160a0152612d805ff3fe608060405260043610610215575f3560e01c80637ad73baf1161011e578063ad3cb1cc116100a8578063d547741f1161006d578063d547741f14610613578063df668eca14610632578063e63ab1e914610665578063e9aea39614610698578063f8742254146106b7575f80fd5b8063ad3cb1cc14610564578063b4fc1335146105a1578063bd890c09146105c0578063c5b059e7146105d5578063cd879d34146105f4575f80fd5b806391d14854116100ee57806391d14854146104e0578063924855fa146104ff578063956794b114610513578063959042a214610532578063a217fddf14610551575f80fd5b80637ad73baf1461045a578063817204a41461048d5780638456cb59146104ad57806386f117de146104c1575f80fd5b80633f4ba83a1161019f57806352d1902d1161016f57806352d1902d146103c4578063543f8c58146103d85780635c975abb146103f757806367a5cd061461041a57806369e2fda414610439575f80fd5b80633f4ba83a1461035f57806340c66f78146103735780634f1ef286146103925780634f9c2c26146103a5575f80fd5b806320b2cf9f116101e557806320b2cf9f146102b5578063248a9ca3146102e05780632f2ff15d1461030d5780633598e3dc1461032c57806336568abe14610340575f80fd5b806301ffc9a71461022057806318820ad8146102545780631a0d6c2e146102755780631a95e05d14610296575f80fd5b3661021c57005b5f80fd5b34801561022b575f80fd5b5061023f61023a366004612672565b6106d7565b60405190151581526020015b60405180910390f35b34801561025f575f80fd5b5061027361026e3660046126bd565b61070d565b005b348015610280575f80fd5b5061028961071b565b60405161024b9190612722565b3480156102a1575f80fd5b5061023f6102b03660046127cc565b61099d565b3480156102c0575f80fd5b506102c85f81565b6040516001600160a01b03909116815260200161024b565b3480156102eb575f80fd5b506102ff6102fa3660046127e7565b6109c6565b60405190815260200161024b565b348015610318575f80fd5b506102736103273660046127fe565b6109e6565b348015610337575f80fd5b50610273610a08565b34801561034b575f80fd5b5061027361035a3660046127fe565b610a1a565b34801561036a575f80fd5b50610273610a52565b34801561037e575f80fd5b5061027361038d366004612821565b610a87565b6102736103a03660046128de565b610b26565b3480156103b0575f80fd5b506102ff6103bf3660046127cc565b610b41565b3480156103cf575f80fd5b506102ff610b6a565b3480156103e3575f80fd5b506102736103f23660046127e7565b610b85565b348015610402575f80fd5b505f80516020612d148339815191525460ff1661023f565b348015610425575f80fd5b506102736104343660046127cc565b610bcd565b348015610444575f80fd5b5061044d610bd6565b60405161024b919061296a565b348015610465575f80fd5b507f331c20f00e5afe412d6bf194b51e8f2d981ce2eedc3a9ed8e5a5801a2017e901546102ff565b348015610498575f80fd5b505f80516020612c94833981519152546102ff565b3480156104b8575f80fd5b50610273610d44565b3480156104cc575f80fd5b506102736104db3660046129b5565b610d76565b3480156104eb575f80fd5b5061023f6104fa3660046127fe565b610dbc565b34801561050a575f80fd5b50610273610df2565b34801561051e575f80fd5b506102ff61052d3660046127cc565b610e02565b34801561053d575f80fd5b5061027361054c3660046127e7565b610e2b565b34801561055c575f80fd5b506102ff5f81565b34801561056f575f80fd5b50610594604051806040016040528060058152602001640352e302e360dc1b81525081565b60405161024b9190612a7d565b3480156105ac575f80fd5b5061023f6105bb3660046127cc565b610e6e565b3480156105cb575f80fd5b506102c86107e181565b3480156105e0575f80fd5b506102ff6105ef3660046126bd565b610f31565b3480156105ff575f80fd5b5061027361060e366004612a8f565b610f7b565b34801561061e575f80fd5b5061027361062d3660046127fe565b611135565b34801561063d575f80fd5b506102ff7f724f6a44d576143e18c60911798b2b15551ca96bd8f7cb7524b8fa36253a26d881565b348015610670575f80fd5b506102ff7f65d7a28e3265b37a6474929f336521b332c1681b933f6cb9f3376673440d862a81565b3480156106a3575f80fd5b506102736106b2366004612ac5565b611151565b3480156106c2575f80fd5b506102ff5f80516020612d5483398151915281565b5f6001600160e01b03198216637965db0b60e01b148061070757506301ffc9a760e01b6001600160e01b03198316145b92915050565b61071782826111bf565b5050565b60605f610726610bd6565b905080516001600160401b038111156107415761074161284b565b6040519080825280602002602001820160405280156107a457816020015b61079160405180608001604052805f6001600160a01b0316815260200160608152602001606081526020015f81525090565b81526020019060019003908161075f5790505b5091505f5b8151811015610998575f8282815181106107c5576107c5612b0c565b60200260200101516001600160a01b03166306fdde036040518163ffffffff1660e01b81526004015f60405180830381865afa158015610807573d5f803e3d5ffd5b505050506040513d5f823e601f3d908101601f1916820160405261082e9190810190612b20565b90505f83838151811061084357610843612b0c565b60200260200101516001600160a01b03166395d89b416040518163ffffffff1660e01b81526004015f60405180830381865afa158015610885573d5f803e3d5ffd5b505050506040513d5f823e601f3d908101601f191682016040526108ac9190810190612b20565b90505f8484815181106108c1576108c1612b0c565b60200260200101516001600160a01b031663313ce5676040518163ffffffff1660e01b8152600401602060405180830381865afa158015610904573d5f803e3d5ffd5b505050506040513d601f19601f820116820180604052508101906109289190612b94565b9050604051806080016040528086868151811061094757610947612b0c565b60200260200101516001600160a01b031681526020018481526020018381526020018281525086858151811061097f5761097f612b0c565b60200260200101819052505050508060010190506107a9565b505090565b6001600160a01b03165f9081525f80516020612c74833981519152602052604090205460ff1690565b5f9081525f80516020612cf4833981519152602052604090206001015490565b6109ef826109c6565b6109f881611219565b610a028383611277565b50505050565b610a10611318565b610a1861134e565b565b6001600160a01b0381163314610a435760405163334bd91960e11b815260040160405180910390fd5b610a4d828261135e565b505050565b7f65d7a28e3265b37a6474929f336521b332c1681b933f6cb9f3376673440d862a610a7c81611219565b610a846113d7565b50565b5f80516020612d54833981519152610a9e81611219565b6001600160a01b038316610b12576040515f90339084908381818185875af1925050503d805f8114610aeb576040519150601f19603f3d011682016040523d82523d5f602084013e610af0565b606091505b5050905080610a0257604051633acddfc160e21b815260040160405180910390fd5b610a4d6001600160a01b0384163384611436565b610b2e611495565b610b3782611539565b6107178282611543565b6001600160a01b03165f9081525f80516020612c74833981519152602052604090206001015490565b5f610b736115ff565b505f80516020612cb483398151915290565b5f80516020612d54833981519152610b9c81611219565b815f03610bc45760405163e5f9b6ad60e01b8152600481018390526024015b60405180910390fd5b61071782611648565b610a8481611691565b5f80516020612cd4833981519152805460408051602080840282018101909252828152606093925f92849190830182828015610c3957602002820191905f5260205f20905b81546001600160a01b03168152600190910190602001808311610c1b575b5050505050905080515f03610c5d575050604080515f815260208101909152919050565b5f80610c688361169b565b9150915081610c7a5750909392505050565b5f60018451610c899190612bbf565b9050806001600160401b03811115610ca357610ca361284b565b604051908082528060200260200182016040528015610ccc578160200160208202803683370190505b5095505f805b8551811015610d3a57808414610d3257858181518110610cf457610cf4612b0c565b6020026020010151888381518110610d0e57610d0e612b0c565b6001600160a01b0390921660209283029190910190910152610d2f82612bd2565b91505b600101610cd2565b5050505050505090565b7f65d7a28e3265b37a6474929f336521b332c1681b933f6cb9f3376673440d862a610d6e81611219565b610a846116fd565b7f724f6a44d576143e18c60911798b2b15551ca96bd8f7cb7524b8fa36253a26d8610da081611219565b610da8611745565b610db28383611775565b610a4d8383611b54565b5f9182525f80516020612cf4833981519152602090815260408084206001600160a01b0393909316845291905290205460ff1690565b610dfa611318565b610a18610a08565b6001600160a01b03165f9081525f80516020612c74833981519152602052604090206002015490565b5f80516020612d54833981519152610e4281611219565b815f03610e655760405163e5f9b6ad60e01b815260048101839052602401610bbb565b61071782611cf4565b5f80516020612cd48339815191528054604080516020808402820181019092528281525f93928492849190830182828015610ed057602002820191905f5260205f20905b81546001600160a01b03168152600190910190602001808311610eb2575b505050505090505f5b8151811015610f2757846001600160a01b0316828281518110610efe57610efe612b0c565b60200260200101516001600160a01b031603610f1f57506001949350505050565b600101610ed9565b505f949350505050565b6001600160a01b039081165f9081527f331c20f00e5afe412d6bf194b51e8f2d981ce2eedc3a9ed8e5a5801a2017e902602090815260408083209490931682529290925290205490565b5f80516020612d348339815191528054600160401b810460ff1615906001600160401b03165f81158015610fac5750825b90505f826001600160401b03166001148015610fc75750303b155b905081158015610fd5575080155b15610ff35760405163f92ee8a960e01b815260040160405180910390fd5b845467ffffffffffffffff19166001178555831561101d57845460ff60401b1916600160401b1785555b611025610df2565b6110378660a001358760c00135611d57565b6110465f60015f196001611151565b5f5b6110556040880188612bea565b90508110156110ac576110a461106e6040890189612bea565b8381811061107e5761107e612b0c565b905060200201602081019061109391906127cc565b600189606001358a60800135611151565b600101611048565b506110c35f6110be60208901896127cc565b611277565b506110e55f80516020612d548339815191526110be6040890160208a016127cc565b50831561112d57845460ff60401b19168555604051600181527fc7f505b2f371ae2175ee4913f4499e1f2633a7b5936321eed1cdaeb6115181d2906020015b60405180910390a15b505050505050565b61113e826109c6565b61114781611219565b610a02838361135e565b5f80516020612d5483398151915261116881611219565b838015611179575061117985610e6e565b156111a25760405163017e790360e31b81526001600160a01b0386166004820152602401610bbb565b6111ac8585611e5a565b6111b885858585611e76565b5050505050565b6111c98282611f87565b6001600160a01b038082165f9081527f331c20f00e5afe412d6bf194b51e8f2d981ce2eedc3a9ed8e5a5801a2017e902602090815260408083209386168352929052204290556107178282612002565b335f6112258383610dbc565b8061124557505f80516020612d3483398151915254600160401b900460ff165b905080610a4d5760405163e2517d3f60e01b81526001600160a01b038316600482015260248101849052604401610bbb565b5f5f80516020612cf48339815191526112908484610dbc565b61130f575f848152602082815260408083206001600160a01b03871684529091529020805460ff191660011790556112c53390565b6001600160a01b0316836001600160a01b0316857f2f8788117e7eff1d82e926ec794901d17c78024a50270940304540a733656f0d60405160405180910390a46001915050610707565b5f915050610707565b5f80516020612d3483398151915254600160401b900460ff16610a1857604051631afcd79f60e31b815260040160405180910390fd5b611356611318565b610a18612159565b5f5f80516020612cf48339815191526113778484610dbc565b1561130f575f848152602082815260408083206001600160a01b0387168085529252808320805460ff1916905551339287917ff6391f5c32d9c69d2a47ea670b442974b53935d1edc7fd64eb21e047a839171b9190a46001915050610707565b6113df612179565b5f80516020612d14833981519152805460ff191681557f5db9ee0a495bf2e6ff9c91a7834c1ba4fdd244a5e8aa4e537bd38aeae4b073aa335b6040516001600160a01b03909116815260200160405180910390a150565b6040516001600160a01b03838116602483015260448201839052610a4d91859182169063a9059cbb906064015b604051602081830303815290604052915060e01b6020820180516001600160e01b0383818316178352505050506121a8565b306001600160a01b037f000000000000000000000000000000000000000000000000000000000000000016148061151b57507f00000000000000000000000000000000000000000000000000000000000000006001600160a01b031661150f5f80516020612cb4833981519152546001600160a01b031690565b6001600160a01b031614155b15610a185760405163703e46dd60e11b815260040160405180910390fd5b5f61071781611219565b816001600160a01b03166352d1902d6040518163ffffffff1660e01b8152600401602060405180830381865afa92505050801561159d575060408051601f3d908101601f1916820190925261159a91810190612b94565b60015b6115c557604051634c9c8ce360e01b81526001600160a01b0383166004820152602401610bbb565b5f80516020612cb483398151915281146115f557604051632a87526960e21b815260048101829052602401610bbb565b610a4d8383612214565b306001600160a01b037f00000000000000000000000000000000000000000000000000000000000000001614610a185760405163703e46dd60e11b815260040160405180910390fd5b5f80516020612c948339815191528181556040518281527f33f3faee0788ab897d8f674abe1dde6d93ba901e4a1502161294734ba178e3c7906020015b60405180910390a15050565b610a84813361070d565b5f805f5b83518110156116ee575f6001600160a01b03168482815181106116c4576116c4612b0c565b60200260200101516001600160a01b0316036116e657600192508091506116ee565b60010161169f565b50816116f857505f195b915091565b611705611745565b5f80516020612d14833981519152805460ff191660011781557f62e78cea01bee320cd4e420270b5ea74000d11b0c9f74754ebdbfc544b05a25833611418565b5f80516020612d148339815191525460ff1615610a185760405163d93c066560e01b815260040160405180910390fd5b604081015181906001600160a01b03166117c4576040516326401ebb60e01b815260206004820152600f60248201526e4f524947494e2043555252454e435960881b6044820152606401610bbb565b80606001515f03611808576040516326401ebb60e01b815260206004820152600d60248201526c13d49251d25388105353d55395609a1b6044820152606401610bbb565b60208101516001600160a01b0316611851576040516326401ebb60e01b815260206004820152600b60248201526a2222a9aa24a720aa24a7a760a91b6044820152606401610bbb565b60808101516001600160a01b031661189e576040516326401ebb60e01b815260206004820152600f60248201526e5441524745542043555252454e435960881b6044820152606401610bbb565b8060a001515f036118e2576040516326401ebb60e01b815260206004820152600d60248201526c15105491d15508105353d55395609a1b6044820152606401610bbb565b6001600160a01b038316611922576040516326401ebb60e01b815260206004820152600660248201526515d05313115560d21b6044820152606401610bbb565b61192f826040015161099d565b156119f6576119418260400151610e02565b826060015183604001516001600160a01b03166318160ddd6040518163ffffffff1660e01b8152600401602060405180830381865afa158015611986573d5f803e3d5ffd5b505050506040513d601f19601f820116820180604052508101906119aa9190612b94565b6119b49190612bbf565b10156119f157604080830151606084015191516373363d8b60e01b81526001600160a01b0390911660048201526024810191909152604401610bbb565b611a3f565b81516001600160a01b0316611a3f576040516326401ebb60e01b815260206004820152600e60248201526d4c4951554944495459205341464560901b6044820152606401610bbb565b611a4c826080015161099d565b15611b0b57611a5e8260800151610b41565b8260a0015183608001516001600160a01b03166318160ddd6040518163ffffffff1660e01b8152600401602060405180830381865afa158015611aa3573d5f803e3d5ffd5b505050506040513d601f19601f82011682018060405250810190611ac79190612b94565b611ad19190612c36565b1115610a4d57608082015160a08301516040516373363d8b60e01b81526001600160a01b0390921660048301526024820152604401610bbb565b81516001600160a01b0316610a4d576040516326401ebb60e01b815260206004820152600e60248201526d4c4951554944495459205341464560901b6044820152606401610bbb565b60c08101516001600160a01b031615801590611b7c575060e08101516001600160a01b031615155b15611bae57611bae828260e001518361010001518460c001516001600160a01b0316612269909392919063ffffffff16565b611bbb816040015161099d565b15611c2d576040808201516060830151915163079cc67960e41b81526001600160a01b03858116600483015260248201939093529116906379cc6790906044015f604051808303815f87803b158015611c12575f80fd5b505af1158015611c24573d5f803e3d5ffd5b50505050611c51565b805160608201516040830151611c51926001600160a01b0390911691859190612269565b611c5e816080015161099d565b15611ccc576080810151602082015160a08301516040516308934a5f60e31b81526001600160a01b039283166004820152602481019190915291169063449a52f8906044015f604051808303815f87803b158015611cba575f80fd5b505af115801561112d573d5f803e3d5ffd5b8051602082015160a08301516080840151610717936001600160a01b03909116929091612269565b7f331c20f00e5afe412d6bf194b51e8f2d981ce2eedc3a9ed8e5a5801a2017e9018190556040518181525f80516020612c94833981519152907fbf420dc53ff33cecece09463750eae7694a8fe807007924887a27dd11a0df04890602001611685565b5f80516020612d348339815191528054600160401b810460ff1615906001600160401b03165f81158015611d885750825b90505f826001600160401b03166001148015611da35750303b155b905081158015611db1575080155b15611dcf5760405163f92ee8a960e01b815260040160405180910390fd5b845467ffffffffffffffff191660011785558315611df957845460ff60401b1916600160401b1785555b611e0287611648565b611e0b86611cf4565b8315611e5157845460ff60401b19168555604051600181527fc7f505b2f371ae2175ee4913f4499e1f2633a7b5936321eed1cdaeb6115181d29060200160405180910390a15b50505050505050565b801515600103611e6d57610717826122a2565b6107178261232a565b5f80516020612d54833981519152611e8d81611219565b818311611f025760405162461bcd60e51b815260206004820152603d60248201527f537461626c65636f696e48616e646c65723a207570706572626f756e64206d7560448201527f73742062652067726561746572207468616e206c6f776572626f756e640000006064820152608401610bbb565b6001600160a01b0385165f8181525f80516020612c748339815191526020818152604092839020805460ff1916891515908117825560018201899055600290910187905583519485529084015290820185905260608201849052907f84f12763861d318f97fe38a0e6f70b46f0566462d67561978f0f4dff814031df90608001611124565b611f9082610e6e565b611fb857604051635ab8d72960e11b81526001600160a01b0383166004820152602401610bbb565b5f611fc38383610f31565b9050611fd28162015180612c36565b421015610a4d57611fe68162015180612c36565b60405163737aab0d60e01b8152600401610bbb91815260200190565b5f6001600160a01b038316612098577f331c20f00e5afe412d6bf194b51e8f2d981ce2eedc3a9ed8e5a5801a2017e901546040516340c10f1960e01b81526001600160a01b0384166004820152602481018290529091506107e1906340c10f19906044015f604051808303815f87803b15801561207d575f80fd5b505af115801561208f573d5f803e3d5ffd5b50505050612109565b5f80516020612c94833981519152546040516308934a5f60e31b81526001600160a01b038481166004830152602482018390529192509084169063449a52f8906044015f604051808303815f87803b1580156120f2575f80fd5b505af1158015612104573d5f803e3d5ffd5b505050505b604080516001600160a01b038086168252841660208201529081018290527fdfc93ac43234c3993e5d23f2a1a4c52b2ac70f67cf1f534bd7ceb92328bf949a9060600160405180910390a1505050565b612161611318565b5f80516020612d14833981519152805460ff19169055565b5f80516020612d148339815191525460ff16610a1857604051638dfc202b60e01b815260040160405180910390fd5b5f8060205f8451602086015f885af1806121c7576040513d5f823e3d81fd5b50505f513d915081156121de5780600114156121eb565b6001600160a01b0384163b155b15610a0257604051635274afe760e01b81526001600160a01b0385166004820152602401610bbb565b61221d826124f6565b6040516001600160a01b038316907fbc7cd75a20ee27fd9adebab32041f755214dbc6bffa90cc0225b39da2e5c2d3b905f90a280511561226157610a4d8282612559565b6107176125cb565b6040516001600160a01b038481166024830152838116604483015260648201839052610a029186918216906323b872dd90608401611463565b5f80516020612cd483398151915280546001810182555f8290527f7e20de35e2cca1b91743fd09589d05b1415d23ef62d96d86c8e1bc09ee225f0f0180546001600160a01b0319166001600160a01b0384169081179091556040519081527fc039c75cef0904723584eecbad08281b7298a16c9fadc7dbbb576359df79c1de90602001611685565b5f80516020612cd48339815191528054604080516020808402820181019092528281525f92909184919083018282801561238b57602002820191905f5260205f20905b81546001600160a01b0316815260019091019060200180831161236d575b505050505090505f5f1990505f5b82518110156123e057846001600160a01b03168382815181106123be576123be612b0c565b60200260200101516001600160a01b0316036123d8578091505b600101612399565b505f19810361240d57604051635ab8d72960e11b81526001600160a01b0385166004820152602401610bbb565b5f6001835161241c9190612bbf565b905080821461247f5782818151811061243757612437612b0c565b6020026020010151845f01838154811061245357612453612b0c565b905f5260205f20015f6101000a8154816001600160a01b0302191690836001600160a01b031602179055505b835484908061249057612490612c49565b5f8281526020908190205f19908301810180546001600160a01b03191690559091019091556040516001600160a01b03871681527f29ef6e5e7533f5e04f1729a119b0acf31837e10f8a66e61d22dedd180d0221e9910160405180910390a15050505050565b806001600160a01b03163b5f0361252b57604051634c9c8ce360e01b81526001600160a01b0382166004820152602401610bbb565b5f80516020612cb483398151915280546001600160a01b0319166001600160a01b0392909216919091179055565b60605f80846001600160a01b0316846040516125759190612c5d565b5f60405180830381855af49150503d805f81146125ad576040519150601f19603f3d011682016040523d82523d5f602084013e6125b2565b606091505b50915091506125c28583836125ea565b95945050505050565b3415610a185760405163b398979f60e01b815260040160405180910390fd5b6060826125ff576125fa82612649565b612642565b815115801561261657506001600160a01b0384163b155b1561263f57604051639996b31560e01b81526001600160a01b0385166004820152602401610bbb565b50805b9392505050565b8051156126595780518082602001fd5b60405163d6bda27560e01b815260040160405180910390fd5b5f60208284031215612682575f80fd5b81356001600160e01b031981168114612642575f80fd5b6001600160a01b0381168114610a84575f80fd5b80356126b881612699565b919050565b5f80604083850312156126ce575f80fd5b82356126d981612699565b915060208301356126e981612699565b809150509250929050565b5f81518084528060208401602086015e5f602082860101526020601f19601f83011685010191505092915050565b5f602082016020835280845180835260408501915060408160051b8601019250602086015f5b828110156127c057868503603f19018452815180516001600160a01b03168652602080820151608091880182905290612783908801826126f4565b90506040820151878203604089015261279c82826126f4565b60609384015198909301979097525094506020938401939190910190600101612748565b50929695505050505050565b5f602082840312156127dc575f80fd5b813561264281612699565b5f602082840312156127f7575f80fd5b5035919050565b5f806040838503121561280f575f80fd5b8235915060208301356126e981612699565b5f8060408385031215612832575f80fd5b823561283d81612699565b946020939093013593505050565b634e487b7160e01b5f52604160045260245ffd5b60405161012081016001600160401b03811182821017156128825761288261284b565b60405290565b604051601f8201601f191681016001600160401b03811182821017156128b0576128b061284b565b604052919050565b5f6001600160401b038211156128d0576128d061284b565b50601f01601f191660200190565b5f80604083850312156128ef575f80fd5b82356128fa81612699565b915060208301356001600160401b03811115612914575f80fd5b8301601f81018513612924575f80fd5b8035612937612932826128b8565b612888565b81815286602083850101111561294b575f80fd5b816020840160208301375f602083830101528093505050509250929050565b602080825282518282018190525f918401906040840190835b818110156129aa5783516001600160a01b0316835260209384019390920191600101612983565b509095945050505050565b5f808284036101408112156129c8575f80fd5b83356129d381612699565b9250610120601f19820112156129e7575f80fd5b506129f061285f565b6129fc602085016126ad565b8152612a0a604085016126ad565b6020820152612a1b606085016126ad565b604082015260808401356060820152612a3660a085016126ad565b608082015260c084013560a0820152612a5160e085016126ad565b60c0820152612a6361010085016126ad565b60e082015261012093909301356101008401525092909150565b602081525f61264260208301846126f4565b5f60208284031215612a9f575f80fd5b81356001600160401b03811115612ab4575f80fd5b820160e08185031215612642575f80fd5b5f805f8060808587031215612ad8575f80fd5b8435612ae381612699565b935060208501358015158114612af7575f80fd5b93969395505050506040820135916060013590565b634e487b7160e01b5f52603260045260245ffd5b5f60208284031215612b30575f80fd5b81516001600160401b03811115612b45575f80fd5b8201601f81018413612b55575f80fd5b8051612b63612932826128b8565b818152856020838501011115612b77575f80fd5b8160208401602083015e5f91810160200191909152949350505050565b5f60208284031215612ba4575f80fd5b5051919050565b634e487b7160e01b5f52601160045260245ffd5b8181038181111561070757610707612bab565b5f60018201612be357612be3612bab565b5060010190565b5f808335601e19843603018112612bff575f80fd5b8301803591506001600160401b03821115612c18575f80fd5b6020019150600581901b3603821315612c2f575f80fd5b9250929050565b8082018082111561070757610707612bab565b634e487b7160e01b5f52603160045260245ffd5b5f82518060208501845e5f92019182525091905056fe38361881985b0f585e6124dca158a3af102bffba0feb9c42b0b40825f41a3300331c20f00e5afe412d6bf194b51e8f2d981ce2eedc3a9ed8e5a5801a2017e900360894a13ba1a3210667c828492db98dca3e2076cc3735a920a3ca505d382bbc77dc539bf9c224afa178d31bf07d5109c2b5c5e56656e49b25e507fec3a69f0002dd7bc7dec4dceedda775e58dd541e08a116c6c53815c0bd028192f7b626800cd5ed15c6e187e77e9aee88184c21f4f2182ab5827cb3b7e07fbedcd63f03300f0c57e16840df040f15088dc2f81fe391c3923bec73e23a9662efc9c229c6a00339759585899103d2ace64958e37e18ccb0504652c81d4a1b8aa80fe2126ab95a164736f6c634300081a000a","linkReferences":{}},"methodIdentifiers":{"DEFAULT_ADMIN_ROLE()":"a217fddf","MAINTAINER_ROLE()":"f8742254","NATIVE_TOKEN_POINTER()":"20b2cf9f","PAUSER_ROLE()":"e63ab1e9","SWAPPER_ROLE()":"df668eca","TEL_MINT()":"bd890c09","UPGRADE_INTERFACE_VERSION()":"ad3cb1cc","UpdateXYZ(address,bool,uint256,uint256)":"e9aea396","__StablecoinHandler_init()":"924855fa","__StablecoinHandler_init_unchained()":"3598e3dc","drip(address)":"67a5cd06","dripTo(address,address)":"18820ad8","getDripAmount()":"817204a4","getEnabledXYZs()":"69e2fda4","getEnabledXYZsWithMetadata()":"1a0d6c2e","getLastFulfilledDripTimestamp(address,address)":"c5b059e7","getMaxLimit(address)":"4f9c2c26","getMinLimit(address)":"956794b1","getNativeDripAmount()":"7ad73baf","getRoleAdmin(bytes32)":"248a9ca3","grantRole(bytes32,address)":"2f2ff15d","hasRole(bytes32,address)":"91d14854","initialize((address,address,address[],uint256,uint256,uint256,uint256))":"cd879d34","isEnabledXYZ(address)":"b4fc1335","isXYZ(address)":"1a95e05d","pause()":"8456cb59","paused()":"5c975abb","proxiableUUID()":"52d1902d","renounceRole(bytes32,address)":"36568abe","rescueCrypto(address,uint256)":"40c66f78","revokeRole(bytes32,address)":"d547741f","setDripAmount(uint256)":"543f8c58","setNativeDripAmount(uint256)":"959042a2","stablecoinSwap(address,(address,address,address,uint256,address,uint256,address,address,uint256))":"86f117de","supportsInterface(bytes4)":"01ffc9a7","unpause()":"3f4ba83a","upgradeToAndCall(address,bytes)":"4f1ef286"},"id":125}