{"abi":[{"type":"receive","stateMutability":"payable"},{"type":"function","name":"DEFAULT_ADMIN_ROLE","inputs":[],"outputs":[{"name":"","type":"bytes32","internalType":"bytes32"}],"stateMutability":"view"},{"type":"function","name":"FAUCET_ROLE","inputs":[],"outputs":[{"name":"","type":"bytes32","internalType":"bytes32"}],"stateMutability":"view"},{"type":"function","name":"MAINTAINER_ROLE","inputs":[],"outputs":[{"name":"","type":"bytes32","internalType":"bytes32"}],"stateMutability":"view"},{"type":"function","name":"NATIVE_TOKEN_POINTER","inputs":[],"outputs":[{"name":"","type":"address","internalType":"address"}],"stateMutability":"view"},{"type":"function","name":"PAUSER_ROLE","inputs":[],"outputs":[{"name":"","type":"bytes32","internalType":"bytes32"}],"stateMutability":"view"},{"type":"function","name":"SWAPPER_ROLE","inputs":[],"outputs":[{"name":"","type":"bytes32","internalType":"bytes32"}],"stateMutability":"view"},{"type":"function","name":"UPGRADE_INTERFACE_VERSION","inputs":[],"outputs":[{"name":"","type":"string","internalType":"string"}],"stateMutability":"view"},{"type":"function","name":"UpdateXYZ","inputs":[{"name":"token","type":"address","internalType":"address"},{"name":"validity","type":"bool","internalType":"bool"},{"name":"maxLimit","type":"uint256","internalType":"uint256"},{"name":"minLimit","type":"uint256","internalType":"uint256"}],"outputs":[],"stateMutability":"nonpayable"},{"type":"function","name":"__StablecoinHandler_init","inputs":[],"outputs":[],"stateMutability":"nonpayable"},{"type":"function","name":"__StablecoinHandler_init_unchained","inputs":[],"outputs":[],"stateMutability":"nonpayable"},{"type":"function","name":"drip","inputs":[{"name":"token","type":"address","internalType":"address"},{"name":"recipient","type":"address","internalType":"address"}],"outputs":[],"stateMutability":"nonpayable"},{"type":"function","name":"getDripAmount","inputs":[],"outputs":[{"name":"dripAmount","type":"uint256","internalType":"uint256"}],"stateMutability":"view"},{"type":"function","name":"getEnabledXYZs","inputs":[],"outputs":[{"name":"enabledXYZs","type":"address[]","internalType":"address[]"}],"stateMutability":"view"},{"type":"function","name":"getEnabledXYZsWithMetadata","inputs":[],"outputs":[{"name":"enabledXYZMetadatas","type":"tuple[]","internalType":"struct StablecoinManager.XYZMetadata[]","components":[{"name":"token","type":"address","internalType":"address"},{"name":"name","type":"string","internalType":"string"},{"name":"symbol","type":"string","internalType":"string"},{"name":"decimals","type":"uint256","internalType":"uint256"}]}],"stateMutability":"view"},{"type":"function","name":"getLastFulfilledDripTimestamp","inputs":[{"name":"token","type":"address","internalType":"address"},{"name":"recipient","type":"address","internalType":"address"}],"outputs":[{"name":"timestamp","type":"uint256","internalType":"uint256"}],"stateMutability":"view"},{"type":"function","name":"getMaxLimit","inputs":[{"name":"token","type":"address","internalType":"address"}],"outputs":[{"name":"","type":"uint256","internalType":"uint256"}],"stateMutability":"view"},{"type":"function","name":"getMinLimit","inputs":[{"name":"token","type":"address","internalType":"address"}],"outputs":[{"name":"","type":"uint256","internalType":"uint256"}],"stateMutability":"view"},{"type":"function","name":"getNativeDripAmount","inputs":[],"outputs":[{"name":"nativeDripAmount","type":"uint256","internalType":"uint256"}],"stateMutability":"view"},{"type":"function","name":"getRoleAdmin","inputs":[{"name":"role","type":"bytes32","internalType":"bytes32"}],"outputs":[{"name":"","type":"bytes32","internalType":"bytes32"}],"stateMutability":"view"},{"type":"function","name":"grantRole","inputs":[{"name":"role","type":"bytes32","internalType":"bytes32"},{"name":"account","type":"address","internalType":"address"}],"outputs":[],"stateMutability":"nonpayable"},{"type":"function","name":"hasRole","inputs":[{"name":"role","type":"bytes32","internalType":"bytes32"},{"name":"account","type":"address","internalType":"address"}],"outputs":[{"name":"","type":"bool","internalType":"bool"}],"stateMutability":"view"},{"type":"function","name":"initialize","inputs":[{"name":"initParams","type":"tuple","internalType":"struct StablecoinManager.StablecoinManagerInitParams","components":[{"name":"admin_","type":"address","internalType":"address"},{"name":"maintainer_","type":"address","internalType":"address"},{"name":"tokens_","type":"address[]","internalType":"address[]"},{"name":"initMaxLimit","type":"uint256","internalType":"uint256"},{"name":"initMinLimit","type":"uint256","internalType":"uint256"},{"name":"authorizedFaucets_","type":"address[]","internalType":"address[]"},{"name":"dripAmount_","type":"uint256","internalType":"uint256"},{"name":"nativeDripAmount_","type":"uint256","internalType":"uint256"}]}],"outputs":[],"stateMutability":"nonpayable"},{"type":"function","name":"isEnabledXYZ","inputs":[{"name":"eXYZ","type":"address","internalType":"address"}],"outputs":[{"name":"isEnabled","type":"bool","internalType":"bool"}],"stateMutability":"view"},{"type":"function","name":"isXYZ","inputs":[{"name":"token","type":"address","internalType":"address"}],"outputs":[{"name":"","type":"bool","internalType":"bool"}],"stateMutability":"view"},{"type":"function","name":"pause","inputs":[],"outputs":[],"stateMutability":"nonpayable"},{"type":"function","name":"paused","inputs":[],"outputs":[{"name":"","type":"bool","internalType":"bool"}],"stateMutability":"view"},{"type":"function","name":"proxiableUUID","inputs":[],"outputs":[{"name":"","type":"bytes32","internalType":"bytes32"}],"stateMutability":"view"},{"type":"function","name":"renounceRole","inputs":[{"name":"role","type":"bytes32","internalType":"bytes32"},{"name":"callerConfirmation","type":"address","internalType":"address"}],"outputs":[],"stateMutability":"nonpayable"},{"type":"function","name":"rescueCrypto","inputs":[{"name":"token","type":"address","internalType":"contract IERC20"},{"name":"amount","type":"uint256","internalType":"uint256"}],"outputs":[],"stateMutability":"nonpayable"},{"type":"function","name":"revokeRole","inputs":[{"name":"role","type":"bytes32","internalType":"bytes32"},{"name":"account","type":"address","internalType":"address"}],"outputs":[],"stateMutability":"nonpayable"},{"type":"function","name":"setDripAmount","inputs":[{"name":"newDripAmount","type":"uint256","internalType":"uint256"}],"outputs":[],"stateMutability":"nonpayable"},{"type":"function","name":"setLowBalanceThreshold","inputs":[{"name":"newThreshold","type":"uint256","internalType":"uint256"}],"outputs":[],"stateMutability":"nonpayable"},{"type":"function","name":"setNativeDripAmount","inputs":[{"name":"newNativeDripAmount","type":"uint256","internalType":"uint256"}],"outputs":[],"stateMutability":"nonpayable"},{"type":"function","name":"stablecoinSwap","inputs":[{"name":"wallet","type":"address","internalType":"address"},{"name":"ss","type":"tuple","internalType":"struct StablecoinHandler.StablecoinSwap","components":[{"name":"liquiditySafe","type":"address","internalType":"address"},{"name":"destination","type":"address","internalType":"address"},{"name":"origin","type":"address","internalType":"address"},{"name":"oAmount","type":"uint256","internalType":"uint256"},{"name":"target","type":"address","internalType":"address"},{"name":"tAmount","type":"uint256","internalType":"uint256"},{"name":"stablecoinFeeCurrency","type":"address","internalType":"address"},{"name":"stablecoinFeeSafe","type":"address","internalType":"address"},{"name":"feeAmount","type":"uint256","internalType":"uint256"}]}],"outputs":[],"stateMutability":"nonpayable"},{"type":"function","name":"supportsInterface","inputs":[{"name":"interfaceId","type":"bytes4","internalType":"bytes4"}],"outputs":[{"name":"","type":"bool","internalType":"bool"}],"stateMutability":"view"},{"type":"function","name":"unpause","inputs":[],"outputs":[],"stateMutability":"nonpayable"},{"type":"function","name":"upgradeToAndCall","inputs":[{"name":"newImplementation","type":"address","internalType":"address"},{"name":"data","type":"bytes","internalType":"bytes"}],"outputs":[],"stateMutability":"payable"},{"type":"event","name":"Drip","inputs":[{"name":"token","type":"address","indexed":false,"internalType":"address"},{"name":"recipient","type":"address","indexed":false,"internalType":"address"},{"name":"amount","type":"uint256","indexed":false,"internalType":"uint256"}],"anonymous":false},{"type":"event","name":"DripAmountUpdated","inputs":[{"name":"newDripAmount","type":"uint256","indexed":false,"internalType":"uint256"}],"anonymous":false},{"type":"event","name":"FaucetLowNativeBalance","inputs":[],"anonymous":false},{"type":"event","name":"Initialized","inputs":[{"name":"version","type":"uint64","indexed":false,"internalType":"uint64"}],"anonymous":false},{"type":"event","name":"NativeDripAmountUpdated","inputs":[{"name":"newNativeDripAmount","type":"uint256","indexed":false,"internalType":"uint256"}],"anonymous":false},{"type":"event","name":"Paused","inputs":[{"name":"account","type":"address","indexed":false,"internalType":"address"}],"anonymous":false},{"type":"event","name":"RoleAdminChanged","inputs":[{"name":"role","type":"bytes32","indexed":true,"internalType":"bytes32"},{"name":"previousAdminRole","type":"bytes32","indexed":true,"internalType":"bytes32"},{"name":"newAdminRole","type":"bytes32","indexed":true,"internalType":"bytes32"}],"anonymous":false},{"type":"event","name":"RoleGranted","inputs":[{"name":"role","type":"bytes32","indexed":true,"internalType":"bytes32"},{"name":"account","type":"address","indexed":true,"internalType":"address"},{"name":"sender","type":"address","indexed":true,"internalType":"address"}],"anonymous":false},{"type":"event","name":"RoleRevoked","inputs":[{"name":"role","type":"bytes32","indexed":true,"internalType":"bytes32"},{"name":"account","type":"address","indexed":true,"internalType":"address"},{"name":"sender","type":"address","indexed":true,"internalType":"address"}],"anonymous":false},{"type":"event","name":"Unpaused","inputs":[{"name":"account","type":"address","indexed":false,"internalType":"address"}],"anonymous":false},{"type":"event","name":"Upgraded","inputs":[{"name":"implementation","type":"address","indexed":true,"internalType":"address"}],"anonymous":false},{"type":"event","name":"XYZAdded","inputs":[{"name":"token","type":"address","indexed":false,"internalType":"address"}],"anonymous":false},{"type":"event","name":"XYZRemoved","inputs":[{"name":"token","type":"address","indexed":false,"internalType":"address"}],"anonymous":false},{"type":"event","name":"XYZUpdated","inputs":[{"name":"token","type":"address","indexed":false,"internalType":"address"},{"name":"validity","type":"bool","indexed":false,"internalType":"bool"},{"name":"max","type":"uint256","indexed":false,"internalType":"uint256"},{"name":"min","type":"uint256","indexed":false,"internalType":"uint256"}],"anonymous":false},{"type":"error","name":"AccessControlBadConfirmation","inputs":[]},{"type":"error","name":"AccessControlUnauthorizedAccount","inputs":[{"name":"account","type":"address","internalType":"address"},{"name":"neededRole","type":"bytes32","internalType":"bytes32"}]},{"type":"error","name":"AddressEmptyCode","inputs":[{"name":"target","type":"address","internalType":"address"}]},{"type":"error","name":"AlreadyEnabled","inputs":[{"name":"token","type":"address","internalType":"address"}]},{"type":"error","name":"ERC1967InvalidImplementation","inputs":[{"name":"implementation","type":"address","internalType":"address"}]},{"type":"error","name":"ERC1967NonPayable","inputs":[]},{"type":"error","name":"EnforcedPause","inputs":[]},{"type":"error","name":"ExpectedPause","inputs":[]},{"type":"error","name":"FailedCall","inputs":[]},{"type":"error","name":"InvalidDripAmount","inputs":[{"name":"dripAmount","type":"uint256","internalType":"uint256"}]},{"type":"error","name":"InvalidInitialization","inputs":[]},{"type":"error","name":"InvalidMintBurnBoundry","inputs":[{"name":"token","type":"address","internalType":"address"},{"name":"amount","type":"uint256","internalType":"uint256"}]},{"type":"error","name":"InvalidOrDisabled","inputs":[{"name":"token","type":"address","internalType":"address"}]},{"type":"error","name":"LowLevelCallFailure","inputs":[]},{"type":"error","name":"NotInitializing","inputs":[]},{"type":"error","name":"RequestIneligibleUntil","inputs":[{"name":"unixTimestamp","type":"uint256","internalType":"uint256"}]},{"type":"error","name":"SafeERC20FailedOperation","inputs":[{"name":"token","type":"address","internalType":"address"}]},{"type":"error","name":"UUPSUnauthorizedCallContext","inputs":[]},{"type":"error","name":"UUPSUnsupportedProxiableUUID","inputs":[{"name":"slot","type":"bytes32","internalType":"bytes32"}]},{"type":"error","name":"ZeroValueInput","inputs":[{"name":"value","type":"string","internalType":"string"}]}],"bytecode":{"object":"0x60a0604052306080523480156012575f80fd5b50608051612f2a6100395f395f81816116560152818161167f01526117c00152612f2a5ff3fe608060405260043610610215575f3560e01c80637ad73baf1161011e578063a217fddf116100a8578063df668eca1161006d578063df668eca1461061e578063e63ab1e914610651578063e9aea39614610684578063eb3839a7146106a3578063f8742254146106c2575f80fd5b8063a217fddf14610571578063ad3cb1cc14610584578063b4fc1335146105c1578063c5b059e7146105e0578063d547741f146105ff575f80fd5b806391d14854116100ee57806391d14854146104e1578063924855fa14610500578063956794b114610514578063959042a214610533578063a0eba21a14610552575f80fd5b80637ad73baf1461046e578063817204a41461048e5780638456cb59146104ae57806386f117de146104c2575f80fd5b80633f4ba83a1161019f5780634f9c2c261161016f5780634f9c2c26146103d857806352d1902d146103f7578063543f8c581461040b5780635c975abb1461042a57806369e2fda41461044d575f80fd5b80633f4ba83a1461035f57806340c66f781461037357806345c7c793146103925780634f1ef286146103c5575f80fd5b806320b2cf9f116101e557806320b2cf9f146102b5578063248a9ca3146102e05780632f2ff15d1461030d5780633598e3dc1461032c57806336568abe14610340575f80fd5b806301ffc9a71461022057806316ada6b1146102545780631a0d6c2e146102755780631a95e05d14610296575f80fd5b3661021c57005b5f80fd5b34801561022b575f80fd5b5061023f61023a3660046127e4565b6106e2565b60405190151581526020015b60405180910390f35b34801561025f575f80fd5b5061027361026e36600461280b565b610718565b005b348015610280575f80fd5b50610289610974565b60405161024b9190612870565b3480156102a1575f80fd5b5061023f6102b036600461293e565b610bf6565b3480156102c0575f80fd5b506102c85f81565b6040516001600160a01b03909116815260200161024b565b3480156102eb575f80fd5b506102ff6102fa366004612959565b610c1f565b60405190815260200161024b565b348015610318575f80fd5b50610273610327366004612970565b610c3f565b348015610337575f80fd5b50610273610c61565b34801561034b575f80fd5b5061027361035a366004612970565b610c73565b34801561036a575f80fd5b50610273610cab565b34801561037e575f80fd5b5061027361038d36600461299e565b610ce0565b34801561039d575f80fd5b506102ff7faecf5761d3ba769b4631978eb26cb84eae66bcaca9c3f0f4ecde3feb2f4cf14481565b6102736103d3366004612a5b565b610d7f565b3480156103e3575f80fd5b506102ff6103f236600461293e565b610d9e565b348015610402575f80fd5b506102ff610dc7565b348015610416575f80fd5b50610273610425366004612959565b610de2565b348015610435575f80fd5b505f80516020612e9e8339815191525460ff1661023f565b348015610458575f80fd5b50610461610e2a565b60405161024b9190612ae7565b348015610479575f80fd5b505f80516020612ede833981519152546102ff565b348015610499575f80fd5b505f80516020612e1e833981519152546102ff565b3480156104b9575f80fd5b50610273610f98565b3480156104cd575f80fd5b506102736104dc366004612b32565b610fca565b3480156104ec575f80fd5b5061023f6104fb366004612970565b611010565b34801561050b575f80fd5b50610273611046565b34801561051f575f80fd5b506102ff61052e36600461293e565b611056565b34801561053e575f80fd5b5061027361054d366004612959565b61107f565b34801561055d575f80fd5b5061027361056c366004612959565b6110c2565b34801561057c575f80fd5b506102ff5f81565b34801561058f575f80fd5b506105b4604051806040016040528060058152602001640352e302e360dc1b81525081565b60405161024b9190612bfa565b3480156105cc575f80fd5b5061023f6105db36600461293e565b611101565b3480156105eb575f80fd5b506102ff6105fa366004612c0c565b6111c4565b34801561060a575f80fd5b50610273610619366004612970565b61120e565b348015610629575f80fd5b506102ff7f724f6a44d576143e18c60911798b2b15551ca96bd8f7cb7524b8fa36253a26d881565b34801561065c575f80fd5b506102ff7f65d7a28e3265b37a6474929f336521b332c1681b933f6cb9f3376673440d862a81565b34801561068f575f80fd5b5061027361069e366004612c38565b61122a565b3480156106ae575f80fd5b506102736106bd366004612c0c565b611298565b3480156106cd575f80fd5b506102ff5f80516020612efe83398151915281565b5f6001600160e01b03198216637965db0b60e01b148061071257506301ffc9a760e01b6001600160e01b03198316145b92915050565b5f80516020612ebe8339815191528054600160401b810460ff1615906001600160401b03165f811580156107495750825b90505f826001600160401b031660011480156107645750303b155b905081158015610772575080155b156107905760405163f92ee8a960e01b815260040160405180910390fd5b845467ffffffffffffffff1916600117855583156107ba57845460ff60401b1916600160401b1785555b6107c2611046565b6107d48660c001358760e001356112cc565b6107fe6127107f331c20f00e5afe412d6bf194b51e8f2d981ce2eedc3a9ed8e5a5801a2017e90255565b61080d5f60015f19600161122a565b5f5b61081c6040880188612c7f565b90508110156108735761086b6108356040890189612c7f565b8381811061084557610845612ccb565b905060200201602081019061085a919061293e565b600189606001358a6080013561122a565b60010161080f565b5061088a5f610885602089018961293e565b6113cf565b506108ac5f80516020612efe8339815191526108856040890160208a0161293e565b505f5b6108bc60a0880188612c7f565b90508110156109245761091b7faecf5761d3ba769b4631978eb26cb84eae66bcaca9c3f0f4ecde3feb2f4cf1446108f660a08a018a612c7f565b8481811061090657610906612ccb565b9050602002016020810190610885919061293e565b506001016108af565b50831561096c57845460ff60401b19168555604051600181527fc7f505b2f371ae2175ee4913f4499e1f2633a7b5936321eed1cdaeb6115181d2906020015b60405180910390a15b505050505050565b60605f61097f610e2a565b905080516001600160401b0381111561099a5761099a6129c8565b6040519080825280602002602001820160405280156109fd57816020015b6109ea60405180608001604052805f6001600160a01b0316815260200160608152602001606081526020015f81525090565b8152602001906001900390816109b85790505b5091505f5b8151811015610bf1575f828281518110610a1e57610a1e612ccb565b60200260200101516001600160a01b03166306fdde036040518163ffffffff1660e01b81526004015f60405180830381865afa158015610a60573d5f803e3d5ffd5b505050506040513d5f823e601f3d908101601f19168201604052610a879190810190612cdf565b90505f838381518110610a9c57610a9c612ccb565b60200260200101516001600160a01b03166395d89b416040518163ffffffff1660e01b81526004015f60405180830381865afa158015610ade573d5f803e3d5ffd5b505050506040513d5f823e601f3d908101601f19168201604052610b059190810190612cdf565b90505f848481518110610b1a57610b1a612ccb565b60200260200101516001600160a01b031663313ce5676040518163ffffffff1660e01b8152600401602060405180830381865afa158015610b5d573d5f803e3d5ffd5b505050506040513d601f19601f82011682018060405250810190610b819190612d53565b90506040518060800160405280868681518110610ba057610ba0612ccb565b60200260200101516001600160a01b0316815260200184815260200183815260200182815250868581518110610bd857610bd8612ccb565b6020026020010181905250505050806001019050610a02565b505090565b6001600160a01b03165f9081525f80516020612dfe833981519152602052604090205460ff1690565b5f9081525f80516020612e7e833981519152602052604090206001015490565b610c4882610c1f565b610c5181611470565b610c5b83836113cf565b50505050565b610c696114ce565b610c71611504565b565b6001600160a01b0381163314610c9c5760405163334bd91960e11b815260040160405180910390fd5b610ca68282611514565b505050565b7f65d7a28e3265b37a6474929f336521b332c1681b933f6cb9f3376673440d862a610cd581611470565b610cdd61158d565b50565b5f80516020612efe833981519152610cf781611470565b6001600160a01b038316610d6b576040515f90339084908381818185875af1925050503d805f8114610d44576040519150601f19603f3d011682016040523d82523d5f602084013e610d49565b606091505b5050905080610c5b57604051633acddfc160e21b815260040160405180910390fd5b610ca66001600160a01b03841633846115ec565b610d8761164b565b610d90826116ef565b610d9a82826116f9565b5050565b6001600160a01b03165f9081525f80516020612dfe833981519152602052604090206001015490565b5f610dd06117b5565b505f80516020612e3e83398151915290565b5f80516020612efe833981519152610df981611470565b815f03610e215760405163e5f9b6ad60e01b8152600481018390526024015b60405180910390fd5b610d9a826117fe565b5f80516020612e5e833981519152805460408051602080840282018101909252828152606093925f92849190830182828015610e8d57602002820191905f5260205f20905b81546001600160a01b03168152600190910190602001808311610e6f575b5050505050905080515f03610eb1575050604080515f815260208101909152919050565b5f80610ebc83611847565b9150915081610ece5750909392505050565b5f60018451610edd9190612d7e565b9050806001600160401b03811115610ef757610ef76129c8565b604051908082528060200260200182016040528015610f20578160200160208202803683370190505b5095505f805b8551811015610f8e57808414610f8657858181518110610f4857610f48612ccb565b6020026020010151888381518110610f6257610f62612ccb565b6001600160a01b0390921660209283029190910190910152610f8382612d91565b91505b600101610f26565b5050505050505090565b7f65d7a28e3265b37a6474929f336521b332c1681b933f6cb9f3376673440d862a610fc281611470565b610cdd6118a9565b7f724f6a44d576143e18c60911798b2b15551ca96bd8f7cb7524b8fa36253a26d8610ff481611470565b610ffc6118f1565b6110068383611921565b610ca68383611d00565b5f9182525f80516020612e7e833981519152602090815260408084206001600160a01b0393909316845291905290205460ff1690565b61104e6114ce565b610c71610c61565b6001600160a01b03165f9081525f80516020612dfe833981519152602052604090206002015490565b5f80516020612efe83398151915261109681611470565b815f036110b95760405163e5f9b6ad60e01b815260048101839052602401610e18565b610d9a82611ea0565b5f80516020612efe8339815191526110d981611470565b610d9a827f331c20f00e5afe412d6bf194b51e8f2d981ce2eedc3a9ed8e5a5801a2017e90255565b5f80516020612e5e8339815191528054604080516020808402820181019092528281525f9392849284919083018282801561116357602002820191905f5260205f20905b81546001600160a01b03168152600190910190602001808311611145575b505050505090505f5b81518110156111ba57846001600160a01b031682828151811061119157611191612ccb565b60200260200101516001600160a01b0316036111b257506001949350505050565b60010161116c565b505f949350505050565b6001600160a01b039081165f9081527f331c20f00e5afe412d6bf194b51e8f2d981ce2eedc3a9ed8e5a5801a2017e903602090815260408083209490931682529290925290205490565b61121782610c1f565b61122081611470565b610c5b8383611514565b5f80516020612efe83398151915261124181611470565b838015611252575061125285611101565b1561127b5760405163017e790360e31b81526001600160a01b0386166004820152602401610e18565b6112858585611ef0565b61129185858585611f0c565b5050505050565b7faecf5761d3ba769b4631978eb26cb84eae66bcaca9c3f0f4ecde3feb2f4cf1446112c281611470565b610ca6838361201d565b5f80516020612ebe8339815191528054600160401b810460ff1615906001600160401b03165f811580156112fd5750825b90505f826001600160401b031660011480156113185750303b155b905081158015611326575080155b156113445760405163f92ee8a960e01b815260040160405180910390fd5b845467ffffffffffffffff19166001178555831561136e57845460ff60401b1916600160401b1785555b611377876117fe565b61138086611ea0565b83156113c657845460ff60401b19168555604051600181527fc7f505b2f371ae2175ee4913f4499e1f2633a7b5936321eed1cdaeb6115181d29060200160405180910390a15b50505050505050565b5f5f80516020612e7e8339815191526113e88484611010565b611467575f848152602082815260408083206001600160a01b03871684529091529020805460ff1916600117905561141d3390565b6001600160a01b0316836001600160a01b0316857f2f8788117e7eff1d82e926ec794901d17c78024a50270940304540a733656f0d60405160405180910390a46001915050610712565b5f915050610712565b335f61147c8383611010565b8061149c57505f80516020612ebe83398151915254600160401b900460ff165b905080610ca65760405163e2517d3f60e01b81526001600160a01b038316600482015260248101849052604401610e18565b5f80516020612ebe83398151915254600160401b900460ff16610c7157604051631afcd79f60e31b815260040160405180910390fd5b61150c6114ce565b610c71612077565b5f5f80516020612e7e83398151915261152d8484611010565b15611467575f848152602082815260408083206001600160a01b0387168085529252808320805460ff1916905551339287917ff6391f5c32d9c69d2a47ea670b442974b53935d1edc7fd64eb21e047a839171b9190a46001915050610712565b611595612097565b5f80516020612e9e833981519152805460ff191681557f5db9ee0a495bf2e6ff9c91a7834c1ba4fdd244a5e8aa4e537bd38aeae4b073aa335b6040516001600160a01b03909116815260200160405180910390a150565b6040516001600160a01b03838116602483015260448201839052610ca691859182169063a9059cbb906064015b604051602081830303815290604052915060e01b6020820180516001600160e01b0383818316178352505050506120c6565b306001600160a01b037f00000000000000000000000000000000000000000000000000000000000000001614806116d157507f00000000000000000000000000000000000000000000000000000000000000006001600160a01b03166116c55f80516020612e3e833981519152546001600160a01b031690565b6001600160a01b031614155b15610c715760405163703e46dd60e11b815260040160405180910390fd5b5f610d9a81611470565b816001600160a01b03166352d1902d6040518163ffffffff1660e01b8152600401602060405180830381865afa925050508015611753575060408051601f3d908101601f1916820190925261175091810190612d53565b60015b61177b57604051634c9c8ce360e01b81526001600160a01b0383166004820152602401610e18565b5f80516020612e3e83398151915281146117ab57604051632a87526960e21b815260048101829052602401610e18565b610ca68383612132565b306001600160a01b037f00000000000000000000000000000000000000000000000000000000000000001614610c715760405163703e46dd60e11b815260040160405180910390fd5b5f80516020612e1e8339815191528181556040518281527f33f3faee0788ab897d8f674abe1dde6d93ba901e4a1502161294734ba178e3c7906020015b60405180910390a15050565b5f805f5b835181101561189a575f6001600160a01b031684828151811061187057611870612ccb565b60200260200101516001600160a01b031603611892576001925080915061189a565b60010161184b565b50816118a457505f195b915091565b6118b16118f1565b5f80516020612e9e833981519152805460ff191660011781557f62e78cea01bee320cd4e420270b5ea74000d11b0c9f74754ebdbfc544b05a258336115ce565b5f80516020612e9e8339815191525460ff1615610c715760405163d93c066560e01b815260040160405180910390fd5b604081015181906001600160a01b0316611970576040516326401ebb60e01b815260206004820152600f60248201526e4f524947494e2043555252454e435960881b6044820152606401610e18565b80606001515f036119b4576040516326401ebb60e01b815260206004820152600d60248201526c13d49251d25388105353d55395609a1b6044820152606401610e18565b60208101516001600160a01b03166119fd576040516326401ebb60e01b815260206004820152600b60248201526a2222a9aa24a720aa24a7a760a91b6044820152606401610e18565b60808101516001600160a01b0316611a4a576040516326401ebb60e01b815260206004820152600f60248201526e5441524745542043555252454e435960881b6044820152606401610e18565b8060a001515f03611a8e576040516326401ebb60e01b815260206004820152600d60248201526c15105491d15508105353d55395609a1b6044820152606401610e18565b6001600160a01b038316611ace576040516326401ebb60e01b815260206004820152600660248201526515d05313115560d21b6044820152606401610e18565b611adb8260400151610bf6565b15611ba257611aed8260400151611056565b826060015183604001516001600160a01b03166318160ddd6040518163ffffffff1660e01b8152600401602060405180830381865afa158015611b32573d5f803e3d5ffd5b505050506040513d601f19601f82011682018060405250810190611b569190612d53565b611b609190612d7e565b1015611b9d57604080830151606084015191516373363d8b60e01b81526001600160a01b0390911660048201526024810191909152604401610e18565b611beb565b81516001600160a01b0316611beb576040516326401ebb60e01b815260206004820152600e60248201526d4c4951554944495459205341464560901b6044820152606401610e18565b611bf88260800151610bf6565b15611cb757611c0a8260800151610d9e565b8260a0015183608001516001600160a01b03166318160ddd6040518163ffffffff1660e01b8152600401602060405180830381865afa158015611c4f573d5f803e3d5ffd5b505050506040513d601f19601f82011682018060405250810190611c739190612d53565b611c7d9190612da9565b1115610ca657608082015160a08301516040516373363d8b60e01b81526001600160a01b0390921660048301526024820152604401610e18565b81516001600160a01b0316610ca6576040516326401ebb60e01b815260206004820152600e60248201526d4c4951554944495459205341464560901b6044820152606401610e18565b60c08101516001600160a01b031615801590611d28575060e08101516001600160a01b031615155b15611d5a57611d5a828260e001518361010001518460c001516001600160a01b0316612187909392919063ffffffff16565b611d678160400151610bf6565b15611dd9576040808201516060830151915163079cc67960e41b81526001600160a01b03858116600483015260248201939093529116906379cc6790906044015f604051808303815f87803b158015611dbe575f80fd5b505af1158015611dd0573d5f803e3d5ffd5b50505050611dfd565b805160608201516040830151611dfd926001600160a01b0390911691859190612187565b611e0a8160800151610bf6565b15611e78576080810151602082015160a08301516040516308934a5f60e31b81526001600160a01b039283166004820152602481019190915291169063449a52f8906044015f604051808303815f87803b158015611e66575f80fd5b505af115801561096c573d5f803e3d5ffd5b8051602082015160a08301516080840151610d9a936001600160a01b03909116929091612187565b5f80516020612ede8339815191528190556040518181525f80516020612e1e833981519152907fbf420dc53ff33cecece09463750eae7694a8fe807007924887a27dd11a0df0489060200161183b565b801515600103611f0357610d9a826121c0565b610d9a82612248565b5f80516020612efe833981519152611f2381611470565b818311611f985760405162461bcd60e51b815260206004820152603d60248201527f537461626c65636f696e48616e646c65723a207570706572626f756e64206d7560448201527f73742062652067726561746572207468616e206c6f776572626f756e640000006064820152608401610e18565b6001600160a01b0385165f8181525f80516020612dfe8339815191526020818152604092839020805460ff1916891515908117825560018201899055600290910187905583519485529084015290820185905260608201849052907f84f12763861d318f97fe38a0e6f70b46f0566462d67561978f0f4dff814031df90608001610963565b6120278282612414565b6001600160a01b038082165f9081527f331c20f00e5afe412d6bf194b51e8f2d981ce2eedc3a9ed8e5a5801a2017e90360209081526040808320938616835292905220429055610d9a828261248f565b61207f6114ce565b5f80516020612e9e833981519152805460ff19169055565b5f80516020612e9e8339815191525460ff16610c7157604051638dfc202b60e01b815260040160405180910390fd5b5f8060205f8451602086015f885af1806120e5576040513d5f823e3d81fd5b50505f513d915081156120fc578060011415612109565b6001600160a01b0384163b155b15610c5b57604051635274afe760e01b81526001600160a01b0385166004820152602401610e18565b61213b826125ec565b6040516001600160a01b038316907fbc7cd75a20ee27fd9adebab32041f755214dbc6bffa90cc0225b39da2e5c2d3b905f90a280511561217f57610ca6828261264f565b610d9a6126c1565b6040516001600160a01b038481166024830152838116604483015260648201839052610c5b9186918216906323b872dd90608401611619565b5f80516020612e5e83398151915280546001810182555f8290527f7e20de35e2cca1b91743fd09589d05b1415d23ef62d96d86c8e1bc09ee225f0f0180546001600160a01b0319166001600160a01b0384169081179091556040519081527fc039c75cef0904723584eecbad08281b7298a16c9fadc7dbbb576359df79c1de9060200161183b565b5f80516020612e5e8339815191528054604080516020808402820181019092528281525f9290918491908301828280156122a957602002820191905f5260205f20905b81546001600160a01b0316815260019091019060200180831161228b575b505050505090505f5f1990505f5b82518110156122fe57846001600160a01b03168382815181106122dc576122dc612ccb565b60200260200101516001600160a01b0316036122f6578091505b6001016122b7565b505f19810361232b57604051635ab8d72960e11b81526001600160a01b0385166004820152602401610e18565b5f6001835161233a9190612d7e565b905080821461239d5782818151811061235557612355612ccb565b6020026020010151845f01838154811061237157612371612ccb565b905f5260205f20015f6101000a8154816001600160a01b0302191690836001600160a01b031602179055505b83548490806123ae576123ae612dbc565b5f8281526020908190205f19908301810180546001600160a01b03191690559091019091556040516001600160a01b03871681527f29ef6e5e7533f5e04f1729a119b0acf31837e10f8a66e61d22dedd180d0221e9910160405180910390a15050505050565b61241d82611101565b61244557604051635ab8d72960e11b81526001600160a01b0383166004820152602401610e18565b5f61245083836111c4565b905061245f8162015180612da9565b421015610ca6576124738162015180612da9565b60405163737aab0d60e01b8152600401610e1891815260200190565b5f6001600160a01b03831661252b57505f80516020612ede833981519152546040515f906001600160a01b0384169083908381818185875af1925050503d805f81146124f6576040519150601f19603f3d011682016040523d82523d5f602084013e6124fb565b606091505b505090508061251d57604051633acddfc160e21b815260040160405180910390fd5b6125256126e0565b5061259c565b5f80516020612e1e833981519152546040516308934a5f60e31b81526001600160a01b038481166004830152602482018390529192509084169063449a52f8906044015f604051808303815f87803b158015612585575f80fd5b505af1158015612597573d5f803e3d5ffd5b505050505b604080516001600160a01b038086168252841660208201529081018290527fdfc93ac43234c3993e5d23f2a1a4c52b2ac70f67cf1f534bd7ceb92328bf949a9060600160405180910390a1505050565b806001600160a01b03163b5f0361262157604051634c9c8ce360e01b81526001600160a01b0382166004820152602401610e18565b5f80516020612e3e83398151915280546001600160a01b0319166001600160a01b0392909216919091179055565b60605f80846001600160a01b03168460405161266b9190612dd0565b5f60405180830381855af49150503d805f81146126a3576040519150601f19603f3d011682016040523d82523d5f602084013e6126a8565b606091505b50915091506126b885838361275c565b95945050505050565b3415610c715760405163b398979f60e01b815260040160405180910390fd5b5f6127097f331c20f00e5afe412d6bf194b51e8f2d981ce2eedc3a9ed8e5a5801a2017e9025490565b9050806127215f80516020612ede8339815191525490565b61272b9190612de6565b4711610cdd576040517f5591ba669ef796bed7d2409e80ed620b93401c29229618b279b31b41d64a1600905f90a150565b6060826127715761276c826127bb565b6127b4565b815115801561278857506001600160a01b0384163b155b156127b157604051639996b31560e01b81526001600160a01b0385166004820152602401610e18565b50805b9392505050565b8051156127cb5780518082602001fd5b60405163d6bda27560e01b815260040160405180910390fd5b5f602082840312156127f4575f80fd5b81356001600160e01b0319811681146127b4575f80fd5b5f6020828403121561281b575f80fd5b81356001600160401b03811115612830575f80fd5b820161010081850312156127b4575f80fd5b5f81518084528060208401602086015e5f602082860101526020601f19601f83011685010191505092915050565b5f602082016020835280845180835260408501915060408160051b8601019250602086015f5b8281101561290e57868503603f19018452815180516001600160a01b031686526020808201516080918801829052906128d190880182612842565b9050604082015187820360408901526128ea8282612842565b60609384015198909301979097525094506020938401939190910190600101612896565b50929695505050505050565b6001600160a01b0381168114610cdd575f80fd5b80356129398161291a565b919050565b5f6020828403121561294e575f80fd5b81356127b48161291a565b5f60208284031215612969575f80fd5b5035919050565b5f8060408385031215612981575f80fd5b8235915060208301356129938161291a565b809150509250929050565b5f80604083850312156129af575f80fd5b82356129ba8161291a565b946020939093013593505050565b634e487b7160e01b5f52604160045260245ffd5b60405161012081016001600160401b03811182821017156129ff576129ff6129c8565b60405290565b604051601f8201601f191681016001600160401b0381118282101715612a2d57612a2d6129c8565b604052919050565b5f6001600160401b03821115612a4d57612a4d6129c8565b50601f01601f191660200190565b5f8060408385031215612a6c575f80fd5b8235612a778161291a565b915060208301356001600160401b03811115612a91575f80fd5b8301601f81018513612aa1575f80fd5b8035612ab4612aaf82612a35565b612a05565b818152866020838501011115612ac8575f80fd5b816020840160208301375f602083830101528093505050509250929050565b602080825282518282018190525f918401906040840190835b81811015612b275783516001600160a01b0316835260209384019390920191600101612b00565b509095945050505050565b5f80828403610140811215612b45575f80fd5b8335612b508161291a565b9250610120601f1982011215612b64575f80fd5b50612b6d6129dc565b612b796020850161292e565b8152612b876040850161292e565b6020820152612b986060850161292e565b604082015260808401356060820152612bb360a0850161292e565b608082015260c084013560a0820152612bce60e0850161292e565b60c0820152612be0610100850161292e565b60e082015261012093909301356101008401525092909150565b602081525f6127b46020830184612842565b5f8060408385031215612c1d575f80fd5b8235612c288161291a565b915060208301356129938161291a565b5f805f8060808587031215612c4b575f80fd5b8435612c568161291a565b935060208501358015158114612c6a575f80fd5b93969395505050506040820135916060013590565b5f808335601e19843603018112612c94575f80fd5b8301803591506001600160401b03821115612cad575f80fd5b6020019150600581901b3603821315612cc4575f80fd5b9250929050565b634e487b7160e01b5f52603260045260245ffd5b5f60208284031215612cef575f80fd5b81516001600160401b03811115612d04575f80fd5b8201601f81018413612d14575f80fd5b8051612d22612aaf82612a35565b818152856020838501011115612d36575f80fd5b8160208401602083015e5f91810160200191909152949350505050565b5f60208284031215612d63575f80fd5b5051919050565b634e487b7160e01b5f52601160045260245ffd5b8181038181111561071257610712612d6a565b5f60018201612da257612da2612d6a565b5060010190565b8082018082111561071257610712612d6a565b634e487b7160e01b5f52603160045260245ffd5b5f82518060208501845e5f920191825250919050565b808202811582820484141761071257610712612d6a56fe38361881985b0f585e6124dca158a3af102bffba0feb9c42b0b40825f41a3300331c20f00e5afe412d6bf194b51e8f2d981ce2eedc3a9ed8e5a5801a2017e900360894a13ba1a3210667c828492db98dca3e2076cc3735a920a3ca505d382bbc77dc539bf9c224afa178d31bf07d5109c2b5c5e56656e49b25e507fec3a69f0002dd7bc7dec4dceedda775e58dd541e08a116c6c53815c0bd028192f7b626800cd5ed15c6e187e77e9aee88184c21f4f2182ab5827cb3b7e07fbedcd63f03300f0c57e16840df040f15088dc2f81fe391c3923bec73e23a9662efc9c229c6a00331c20f00e5afe412d6bf194b51e8f2d981ce2eedc3a9ed8e5a5801a2017e901339759585899103d2ace64958e37e18ccb0504652c81d4a1b8aa80fe2126ab95a164736f6c634300081a000a","linkReferences":{}},"methodIdentifiers":{"DEFAULT_ADMIN_ROLE()":"a217fddf","FAUCET_ROLE()":"45c7c793","MAINTAINER_ROLE()":"f8742254","NATIVE_TOKEN_POINTER()":"20b2cf9f","PAUSER_ROLE()":"e63ab1e9","SWAPPER_ROLE()":"df668eca","UPGRADE_INTERFACE_VERSION()":"ad3cb1cc","UpdateXYZ(address,bool,uint256,uint256)":"e9aea396","__StablecoinHandler_init()":"924855fa","__StablecoinHandler_init_unchained()":"3598e3dc","drip(address,address)":"eb3839a7","getDripAmount()":"817204a4","getEnabledXYZs()":"69e2fda4","getEnabledXYZsWithMetadata()":"1a0d6c2e","getLastFulfilledDripTimestamp(address,address)":"c5b059e7","getMaxLimit(address)":"4f9c2c26","getMinLimit(address)":"956794b1","getNativeDripAmount()":"7ad73baf","getRoleAdmin(bytes32)":"248a9ca3","grantRole(bytes32,address)":"2f2ff15d","hasRole(bytes32,address)":"91d14854","initialize((address,address,address[],uint256,uint256,address[],uint256,uint256))":"16ada6b1","isEnabledXYZ(address)":"b4fc1335","isXYZ(address)":"1a95e05d","pause()":"8456cb59","paused()":"5c975abb","proxiableUUID()":"52d1902d","renounceRole(bytes32,address)":"36568abe","rescueCrypto(address,uint256)":"40c66f78","revokeRole(bytes32,address)":"d547741f","setDripAmount(uint256)":"543f8c58","setLowBalanceThreshold(uint256)":"a0eba21a","setNativeDripAmount(uint256)":"959042a2","stablecoinSwap(address,(address,address,address,uint256,address,uint256,address,address,uint256))":"86f117de","supportsInterface(bytes4)":"01ffc9a7","unpause()":"3f4ba83a","upgradeToAndCall(address,bytes)":"4f1ef286"},"id":124}