{"abi":[{"type":"receive","stateMutability":"payable"},{"type":"function","name":"DEFAULT_ADMIN_ROLE","inputs":[],"outputs":[{"name":"","type":"bytes32","internalType":"bytes32"}],"stateMutability":"view"},{"type":"function","name":"MAINTAINER_ROLE","inputs":[],"outputs":[{"name":"","type":"bytes32","internalType":"bytes32"}],"stateMutability":"view"},{"type":"function","name":"NATIVE_TOKEN_POINTER","inputs":[],"outputs":[{"name":"","type":"address","internalType":"address"}],"stateMutability":"view"},{"type":"function","name":"PAUSER_ROLE","inputs":[],"outputs":[{"name":"","type":"bytes32","internalType":"bytes32"}],"stateMutability":"view"},{"type":"function","name":"SWAPPER_ROLE","inputs":[],"outputs":[{"name":"","type":"bytes32","internalType":"bytes32"}],"stateMutability":"view"},{"type":"function","name":"TEL_MINT","inputs":[],"outputs":[{"name":"","type":"address","internalType":"contract ITELMint"}],"stateMutability":"view"},{"type":"function","name":"UPGRADE_INTERFACE_VERSION","inputs":[],"outputs":[{"name":"","type":"string","internalType":"string"}],"stateMutability":"view"},{"type":"function","name":"UpdateXYZ","inputs":[{"name":"token","type":"address","internalType":"address"},{"name":"validity","type":"bool","internalType":"bool"},{"name":"maxLimit","type":"uint256","internalType":"uint256"},{"name":"minLimit","type":"uint256","internalType":"uint256"},{"name":"baseDripAmount","type":"uint256","internalType":"uint256"}],"outputs":[],"stateMutability":"nonpayable"},{"type":"function","name":"UpdateXYZ","inputs":[{"name":"token","type":"address","internalType":"address"},{"name":"validity","type":"bool","internalType":"bool"},{"name":"maxLimit","type":"uint256","internalType":"uint256"},{"name":"minLimit","type":"uint256","internalType":"uint256"}],"outputs":[],"stateMutability":"nonpayable"},{"type":"function","name":"__StablecoinHandler_init","inputs":[],"outputs":[],"stateMutability":"nonpayable"},{"type":"function","name":"__StablecoinHandler_init_unchained","inputs":[],"outputs":[],"stateMutability":"nonpayable"},{"type":"function","name":"drip","inputs":[{"name":"token","type":"address","internalType":"address"},{"name":"amount","type":"uint256","internalType":"uint256"}],"outputs":[],"stateMutability":"nonpayable"},{"type":"function","name":"dripTo","inputs":[{"name":"recipient","type":"address","internalType":"address"},{"name":"token","type":"address","internalType":"address"},{"name":"amount","type":"uint256","internalType":"uint256"}],"outputs":[],"stateMutability":"nonpayable"},{"type":"function","name":"getBaselineDripCooldown","inputs":[],"outputs":[{"name":"cooldown","type":"uint256","internalType":"uint256"}],"stateMutability":"view"},{"type":"function","name":"getBaselineMaxDripAmount","inputs":[{"name":"token","type":"address","internalType":"address"}],"outputs":[{"name":"dripAmount","type":"uint256","internalType":"uint256"}],"stateMutability":"view"},{"type":"function","name":"getDripCooldown","inputs":[{"name":"recipient","type":"address","internalType":"address"}],"outputs":[{"name":"cooldown","type":"uint256","internalType":"uint256"}],"stateMutability":"view"},{"type":"function","name":"getDrippableTokensWithDripAmount","inputs":[],"outputs":[{"name":"dripAmounts","type":"tuple[]","internalType":"struct StablecoinManager.TokenDripAmount[]","components":[{"name":"token","type":"address","internalType":"address"},{"name":"dripAmount","type":"uint256","internalType":"uint256"}]}],"stateMutability":"view"},{"type":"function","name":"getEnabledXYZs","inputs":[],"outputs":[{"name":"enabledXYZs","type":"address[]","internalType":"address[]"}],"stateMutability":"view"},{"type":"function","name":"getEnabledXYZsWithMetadata","inputs":[],"outputs":[{"name":"enabledXYZMetadatas","type":"tuple[]","internalType":"struct StablecoinManager.XYZMetadata[]","components":[{"name":"token","type":"address","internalType":"address"},{"name":"name","type":"string","internalType":"string"},{"name":"symbol","type":"string","internalType":"string"},{"name":"decimals","type":"uint256","internalType":"uint256"}]}],"stateMutability":"view"},{"type":"function","name":"getLastFulfilledDripTimestamp","inputs":[{"name":"recipient","type":"address","internalType":"address"},{"name":"token","type":"address","internalType":"address"}],"outputs":[{"name":"timestamp","type":"uint256","internalType":"uint256"}],"stateMutability":"view"},{"type":"function","name":"getMaxDripAmount","inputs":[{"name":"recipient","type":"address","internalType":"address"},{"name":"token","type":"address","internalType":"address"}],"outputs":[{"name":"dripAmount","type":"uint256","internalType":"uint256"}],"stateMutability":"view"},{"type":"function","name":"getMaxLimit","inputs":[{"name":"token","type":"address","internalType":"address"}],"outputs":[{"name":"","type":"uint256","internalType":"uint256"}],"stateMutability":"view"},{"type":"function","name":"getMinLimit","inputs":[{"name":"token","type":"address","internalType":"address"}],"outputs":[{"name":"","type":"uint256","internalType":"uint256"}],"stateMutability":"view"},{"type":"function","name":"getNextEligibleDripTimestamp","inputs":[{"name":"recipient","type":"address","internalType":"address"},{"name":"token","type":"address","internalType":"address"}],"outputs":[{"name":"timestamp","type":"uint256","internalType":"uint256"}],"stateMutability":"view"},{"type":"function","name":"getRoleAdmin","inputs":[{"name":"role","type":"bytes32","internalType":"bytes32"}],"outputs":[{"name":"","type":"bytes32","internalType":"bytes32"}],"stateMutability":"view"},{"type":"function","name":"grantRole","inputs":[{"name":"role","type":"bytes32","internalType":"bytes32"},{"name":"account","type":"address","internalType":"address"}],"outputs":[],"stateMutability":"nonpayable"},{"type":"function","name":"hasRole","inputs":[{"name":"role","type":"bytes32","internalType":"bytes32"},{"name":"account","type":"address","internalType":"address"}],"outputs":[{"name":"","type":"bool","internalType":"bool"}],"stateMutability":"view"},{"type":"function","name":"initialize","inputs":[{"name":"initParams","type":"tuple","internalType":"struct StablecoinManager.StablecoinManagerInitParams","components":[{"name":"admin_","type":"address","internalType":"address"},{"name":"maintainer_","type":"address","internalType":"address"},{"name":"tokens_","type":"address[]","internalType":"address[]"},{"name":"initMaxLimit","type":"uint256","internalType":"uint256"},{"name":"initMinLimit","type":"uint256","internalType":"uint256"},{"name":"dripAmount_","type":"uint256","internalType":"uint256"},{"name":"nativeDripAmount_","type":"uint256","internalType":"uint256"},{"name":"baseDripCooldown_","type":"uint256","internalType":"uint256"}]}],"outputs":[],"stateMutability":"nonpayable"},{"type":"function","name":"isEnabledXYZ","inputs":[{"name":"eXYZ","type":"address","internalType":"address"}],"outputs":[{"name":"isEnabled","type":"bool","internalType":"bool"}],"stateMutability":"view"},{"type":"function","name":"isXYZ","inputs":[{"name":"token","type":"address","internalType":"address"}],"outputs":[{"name":"","type":"bool","internalType":"bool"}],"stateMutability":"view"},{"type":"function","name":"pause","inputs":[],"outputs":[],"stateMutability":"nonpayable"},{"type":"function","name":"paused","inputs":[],"outputs":[{"name":"","type":"bool","internalType":"bool"}],"stateMutability":"view"},{"type":"function","name":"proxiableUUID","inputs":[],"outputs":[{"name":"","type":"bytes32","internalType":"bytes32"}],"stateMutability":"view"},{"type":"function","name":"renounceRole","inputs":[{"name":"role","type":"bytes32","internalType":"bytes32"},{"name":"callerConfirmation","type":"address","internalType":"address"}],"outputs":[],"stateMutability":"nonpayable"},{"type":"function","name":"rescueCrypto","inputs":[{"name":"token","type":"address","internalType":"contract IERC20"},{"name":"amount","type":"uint256","internalType":"uint256"}],"outputs":[],"stateMutability":"nonpayable"},{"type":"function","name":"revokeRole","inputs":[{"name":"role","type":"bytes32","internalType":"bytes32"},{"name":"account","type":"address","internalType":"address"}],"outputs":[],"stateMutability":"nonpayable"},{"type":"function","name":"setBaselineDripCooldown","inputs":[{"name":"amountInSeconds","type":"uint256","internalType":"uint256"}],"outputs":[],"stateMutability":"nonpayable"},{"type":"function","name":"setDripCooldownOverride","inputs":[{"name":"overrideAddress","type":"address","internalType":"address"},{"name":"amountInSeconds","type":"uint256","internalType":"uint256"}],"outputs":[],"stateMutability":"nonpayable"},{"type":"function","name":"setMaxDripAmount","inputs":[{"name":"token","type":"address","internalType":"address"},{"name":"newDripAmount","type":"uint256","internalType":"uint256"}],"outputs":[],"stateMutability":"nonpayable"},{"type":"function","name":"setMaxDripAmountOverride","inputs":[{"name":"overrideAddress","type":"address","internalType":"address"},{"name":"token","type":"address","internalType":"address"},{"name":"amount","type":"uint256","internalType":"uint256"}],"outputs":[],"stateMutability":"nonpayable"},{"type":"function","name":"stablecoinSwap","inputs":[{"name":"wallet","type":"address","internalType":"address"},{"name":"ss","type":"tuple","internalType":"struct StablecoinHandler.StablecoinSwap","components":[{"name":"liquiditySafe","type":"address","internalType":"address"},{"name":"destination","type":"address","internalType":"address"},{"name":"origin","type":"address","internalType":"address"},{"name":"oAmount","type":"uint256","internalType":"uint256"},{"name":"target","type":"address","internalType":"address"},{"name":"tAmount","type":"uint256","internalType":"uint256"},{"name":"stablecoinFeeCurrency","type":"address","internalType":"address"},{"name":"stablecoinFeeSafe","type":"address","internalType":"address"},{"name":"feeAmount","type":"uint256","internalType":"uint256"}]}],"outputs":[],"stateMutability":"nonpayable"},{"type":"function","name":"supportsInterface","inputs":[{"name":"interfaceId","type":"bytes4","internalType":"bytes4"}],"outputs":[{"name":"","type":"bool","internalType":"bool"}],"stateMutability":"view"},{"type":"function","name":"unpause","inputs":[],"outputs":[],"stateMutability":"nonpayable"},{"type":"function","name":"upgradeToAndCall","inputs":[{"name":"newImplementation","type":"address","internalType":"address"},{"name":"data","type":"bytes","internalType":"bytes"}],"outputs":[],"stateMutability":"payable"},{"type":"event","name":"BaselineDripCooldownUpdated","inputs":[{"name":"amountInSeconds","type":"uint256","indexed":false,"internalType":"uint256"}],"anonymous":false},{"type":"event","name":"Drip","inputs":[{"name":"recipient","type":"address","indexed":false,"internalType":"address"},{"name":"token","type":"address","indexed":false,"internalType":"address"},{"name":"amount","type":"uint256","indexed":false,"internalType":"uint256"}],"anonymous":false},{"type":"event","name":"DripAmountUpdated","inputs":[{"name":"token","type":"address","indexed":false,"internalType":"address"},{"name":"newDripAmount","type":"uint256","indexed":false,"internalType":"uint256"}],"anonymous":false},{"type":"event","name":"DripCooldownOverrideUpdated","inputs":[{"name":"overriddenAddress","type":"address","indexed":false,"internalType":"address"},{"name":"amount","type":"uint256","indexed":false,"internalType":"uint256"}],"anonymous":false},{"type":"event","name":"Initialized","inputs":[{"name":"version","type":"uint64","indexed":false,"internalType":"uint64"}],"anonymous":false},{"type":"event","name":"MaxDripAmountOverrideUpdated","inputs":[{"name":"overriddenAddress","type":"address","indexed":false,"internalType":"address"},{"name":"token","type":"address","indexed":false,"internalType":"address"},{"name":"amount","type":"uint256","indexed":false,"internalType":"uint256"}],"anonymous":false},{"type":"event","name":"Paused","inputs":[{"name":"account","type":"address","indexed":false,"internalType":"address"}],"anonymous":false},{"type":"event","name":"RoleAdminChanged","inputs":[{"name":"role","type":"bytes32","indexed":true,"internalType":"bytes32"},{"name":"previousAdminRole","type":"bytes32","indexed":true,"internalType":"bytes32"},{"name":"newAdminRole","type":"bytes32","indexed":true,"internalType":"bytes32"}],"anonymous":false},{"type":"event","name":"RoleGranted","inputs":[{"name":"role","type":"bytes32","indexed":true,"internalType":"bytes32"},{"name":"account","type":"address","indexed":true,"internalType":"address"},{"name":"sender","type":"address","indexed":true,"internalType":"address"}],"anonymous":false},{"type":"event","name":"RoleRevoked","inputs":[{"name":"role","type":"bytes32","indexed":true,"internalType":"bytes32"},{"name":"account","type":"address","indexed":true,"internalType":"address"},{"name":"sender","type":"address","indexed":true,"internalType":"address"}],"anonymous":false},{"type":"event","name":"Unpaused","inputs":[{"name":"account","type":"address","indexed":false,"internalType":"address"}],"anonymous":false},{"type":"event","name":"Upgraded","inputs":[{"name":"implementation","type":"address","indexed":true,"internalType":"address"}],"anonymous":false},{"type":"event","name":"XYZAdded","inputs":[{"name":"token","type":"address","indexed":false,"internalType":"address"}],"anonymous":false},{"type":"event","name":"XYZRemoved","inputs":[{"name":"token","type":"address","indexed":false,"internalType":"address"}],"anonymous":false},{"type":"event","name":"XYZUpdated","inputs":[{"name":"token","type":"address","indexed":false,"internalType":"address"},{"name":"validity","type":"bool","indexed":false,"internalType":"bool"},{"name":"max","type":"uint256","indexed":false,"internalType":"uint256"},{"name":"min","type":"uint256","indexed":false,"internalType":"uint256"}],"anonymous":false},{"type":"error","name":"AccessControlBadConfirmation","inputs":[]},{"type":"error","name":"AccessControlUnauthorizedAccount","inputs":[{"name":"account","type":"address","internalType":"address"},{"name":"neededRole","type":"bytes32","internalType":"bytes32"}]},{"type":"error","name":"AddressEmptyCode","inputs":[{"name":"target","type":"address","internalType":"address"}]},{"type":"error","name":"AlreadyEnabled","inputs":[{"name":"token","type":"address","internalType":"address"}]},{"type":"error","name":"ERC1967InvalidImplementation","inputs":[{"name":"implementation","type":"address","internalType":"address"}]},{"type":"error","name":"ERC1967NonPayable","inputs":[]},{"type":"error","name":"EnforcedPause","inputs":[]},{"type":"error","name":"ExpectedPause","inputs":[]},{"type":"error","name":"FailedCall","inputs":[]},{"type":"error","name":"InvalidDripAmount","inputs":[{"name":"dripAmount","type":"uint256","internalType":"uint256"}]},{"type":"error","name":"InvalidInitialization","inputs":[]},{"type":"error","name":"InvalidMintBurnBoundry","inputs":[{"name":"token","type":"address","internalType":"address"},{"name":"amount","type":"uint256","internalType":"uint256"}]},{"type":"error","name":"InvalidOrDisabled","inputs":[{"name":"token","type":"address","internalType":"address"}]},{"type":"error","name":"LowLevelCallFailure","inputs":[{"name":"returnData","type":"bytes","internalType":"bytes"}]},{"type":"error","name":"NotInitializing","inputs":[]},{"type":"error","name":"RequestIneligibleUntil","inputs":[{"name":"unixTimestamp","type":"uint256","internalType":"uint256"}]},{"type":"error","name":"RequestedAmountTooHigh","inputs":[{"name":"requestedAmount","type":"uint256","internalType":"uint256"},{"name":"maxAmount","type":"uint256","internalType":"uint256"}]},{"type":"error","name":"RequestedAmountTooLow","inputs":[{"name":"requestedAmount","type":"uint256","internalType":"uint256"},{"name":"minAmount","type":"uint256","internalType":"uint256"}]},{"type":"error","name":"SafeERC20FailedOperation","inputs":[{"name":"token","type":"address","internalType":"address"}]},{"type":"error","name":"SettingAlreadyConfigured","inputs":[]},{"type":"error","name":"UUPSUnauthorizedCallContext","inputs":[]},{"type":"error","name":"UUPSUnsupportedProxiableUUID","inputs":[{"name":"slot","type":"bytes32","internalType":"bytes32"}]},{"type":"error","name":"UpdateXYZRequiresBaseDripAmount","inputs":[]},{"type":"error","name":"ZeroValueInput","inputs":[{"name":"value","type":"string","internalType":"string"}]}],"bytecode":{"object":"0x60a0604052306080523480156012575f5ffd5b506080516134306100395f395f8181611a7901528181611aa20152611be301526134305ff3fe608060405260043610610262575f3560e01c80637b0b58aa1161013f578063b60c76f1116100b3578063de6a12d411610078578063de6a12d41461071a578063df668eca1461073b578063e63ab1e91461076e578063e9aea396146107a1578063f8742254146107c0578063f8b5abfc146107e0575f5ffd5b8063b60c76f114610688578063bd890c09146106a7578063c02fe06b146106bc578063c5b059e7146106dc578063d547741f146106fb575f5ffd5b8063924855fa11610104578063924855fa146105c7578063956794b1146105db5780639e353a1e146105fa578063a217fddf14610619578063ad3cb1cc1461062c578063b4fc133514610669575f5ffd5b80637b0b58aa146105375780638456cb591461055657806386f117de1461056a5780638b7d43a61461058957806391d14854146105a8575f5ffd5b80633f4ba83a116101d65780634f9c2c261161019b5780634f9c2c261461048257806352d1902d146104a157806357d4e27e146104b55780635c975abb146104d45780635d2d812b146104f757806369e2fda414610516575f5ffd5b80633f4ba83a146103fe578063405c6a401461041257806340c66f78146104315780634e37d1e2146104505780634f1ef2861461046f575f5ffd5b806320b2cf9f1161022757806320b2cf9f1461032f578063248a9ca31461036e57806329ca99511461038d5780632f2ff15d146103ac5780633598e3dc146103cb57806336568abe146103df575f5ffd5b806301ffc9a71461026d578063029669b4146102a15780630c24029a146102ce5780631a0d6c2e146102ef5780631a95e05d14610310575f5ffd5b3661026957005b5f5ffd5b348015610278575f5ffd5b5061028c610287366004612c0b565b6107ff565b60405190151581526020015b60405180910390f35b3480156102ac575f5ffd5b506102c06102bb366004612c56565b610835565b604051908152602001610298565b3480156102d9575f5ffd5b506102ed6102e8366004612c71565b61086e565b005b3480156102fa575f5ffd5b50610303610894565b6040516102989190612cc9565b34801561031b575f5ffd5b5061028c61032a366004612c56565b610b16565b34801561033a575f5ffd5b5061035673eeeeeeeeeeeeeeeeeeeeeeeeeeeeeeeeeeeeeeee81565b6040516001600160a01b039091168152602001610298565b348015610379575f5ffd5b506102c0610388366004612d73565b610b3f565b348015610398575f5ffd5b506102c06103a7366004612d8a565b610b5f565b3480156103b7575f5ffd5b506102ed6103c6366004612dc1565b610be3565b3480156103d6575f5ffd5b506102ed610c05565b3480156103ea575f5ffd5b506102ed6103f9366004612dc1565b610c17565b348015610409575f5ffd5b506102ed610c4a565b34801561041d575f5ffd5b506102c061042c366004612c56565b610c7f565b34801561043c575f5ffd5b506102ed61044b366004612c71565b610cdb565b34801561045b575f5ffd5b506102ed61046a366004612de4565b610da6565b6102ed61047d366004612eb5565b610dc8565b34801561048d575f5ffd5b506102c061049c366004612c56565b610de7565b3480156104ac575f5ffd5b506102c0610e10565b3480156104c0575f5ffd5b506102ed6104cf366004612f41565b610e2b565b3480156104df575f5ffd5b505f5160206133c45f395f51905f525460ff1661028c565b348015610502575f5ffd5b506102ed610511366004612de4565b611005565b348015610521575f5ffd5b5061052a6110b2565b6040516102989190612f78565b348015610542575f5ffd5b506102c0610551366004612d8a565b6111f9565b348015610561575f5ffd5b506102ed61121e565b348015610575575f5ffd5b506102ed610584366004612fc3565b611250565b348015610594575f5ffd5b506102ed6105a336600461309a565b611296565b3480156105b3575f5ffd5b5061028c6105c2366004612dc1565b61131b565b3480156105d2575f5ffd5b506102ed611351565b3480156105e6575f5ffd5b506102c06105f5366004612c56565b611361565b348015610605575f5ffd5b506102ed610614366004612c71565b61138a565b348015610624575f5ffd5b506102c05f81565b348015610637575f5ffd5b5061065c604051806040016040528060058152602001640352e302e360dc1b81525081565b60405161029891906130e5565b348015610674575f5ffd5b5061028c610683366004612c56565b611395565b348015610693575f5ffd5b506102ed6106a2366004612d73565b6113ae565b3480156106b2575f5ffd5b506103566107e181565b3480156106c7575f5ffd5b505f5160206133445f395f51905f52546102c0565b3480156106e7575f5ffd5b506102c06106f6366004612d8a565b6113ce565b348015610706575f5ffd5b506102ed610715366004612dc1565b611417565b348015610725575f5ffd5b5061072e611433565b60405161029891906130f7565b348015610746575f5ffd5b506102c07f724f6a44d576143e18c60911798b2b15551ca96bd8f7cb7524b8fa36253a26d881565b348015610779575f5ffd5b506102c07f65d7a28e3265b37a6474929f336521b332c1681b933f6cb9f3376673440d862a81565b3480156107ac575f5ffd5b506102ed6107bb366004613143565b61153d565b3480156107cb575f5ffd5b506102c05f5160206134045f395f51905f5281565b3480156107eb575f5ffd5b506102ed6107fa366004612c71565b61164e565b5f6001600160e01b03198216637965db0b60e01b148061082f57506301ffc9a760e01b6001600160e01b03198316145b92915050565b6001600160a01b03165f9081527f331c20f00e5afe412d6bf194b51e8f2d981ce2eedc3a9ed8e5a5801a2017e904602052604090205490565b5f5160206134045f395f51905f526108858161166f565b61088f83836116bf565b505050565b60605f61089f6110b2565b905080516001600160401b038111156108ba576108ba612e22565b60405190808252806020026020018201604052801561091d57816020015b61090a60405180608001604052805f6001600160a01b0316815260200160608152602001606081526020015f81525090565b8152602001906001900390816108d85790505b5091505f5b8151811015610b11575f82828151811061093e5761093e613184565b60200260200101516001600160a01b03166306fdde036040518163ffffffff1660e01b81526004015f60405180830381865afa158015610980573d5f5f3e3d5ffd5b505050506040513d5f823e601f3d908101601f191682016040526109a79190810190613198565b90505f8383815181106109bc576109bc613184565b60200260200101516001600160a01b03166395d89b416040518163ffffffff1660e01b81526004015f60405180830381865afa1580156109fe573d5f5f3e3d5ffd5b505050506040513d5f823e601f3d908101601f19168201604052610a259190810190613198565b90505f848481518110610a3a57610a3a613184565b60200260200101516001600160a01b031663313ce5676040518163ffffffff1660e01b8152600401602060405180830381865afa158015610a7d573d5f5f3e3d5ffd5b505050506040513d601f19601f82011682018060405250810190610aa1919061320c565b90506040518060800160405280868681518110610ac057610ac0613184565b60200260200101516001600160a01b0316815260200184815260200183815260200182815250868581518110610af857610af8613184565b6020026020010181905250505050806001019050610922565b505090565b6001600160a01b03165f9081525f5160206133245f395f51905f52602052604090205460ff1690565b5f9081525f5160206133a45f395f51905f52602052604090206001015490565b6001600160a01b038281165f9081527f331c20f00e5afe412d6bf194b51e8f2d981ce2eedc3a9ed8e5a5801a2017e903602090815260408083209385168352929052908120545f5160206133445f395f51905f529080610bd8576001600160a01b0384165f908152600483016020526040902054610bda565b805b95945050505050565b610bec82610b3f565b610bf58161166f565b610bff8383611773565b50505050565b610c0d611814565b610c1561184a565b565b6001600160a01b0381163314610c405760405163334bd91960e11b815260040160405180910390fd5b61088f828261185a565b7f65d7a28e3265b37a6474929f336521b332c1681b933f6cb9f3376673440d862a610c748161166f565b610c7c6118d3565b50565b6001600160a01b0381165f9081527f331c20f00e5afe412d6bf194b51e8f2d981ce2eedc3a9ed8e5a5801a2017e90260205260408120545f5160206133445f395f51905f529080610cd1578154610cd3565b805b949350505050565b5f5160206134045f395f51905f52610cf28161166f565b73eeeeeeeeeeeeeeeeeeeeeeeeeeeeeeeeeeeeeeed196001600160a01b03841601610d92576040515f908190339085908381818185875af1925050503d805f8114610d58576040519150601f19603f3d011682016040523d82523d5f602084013e610d5d565b606091505b509150915081610d8b57806040516306fe67db60e31b8152600401610d8291906130e5565b60405180910390fd5b5050505050565b61088f6001600160a01b0384163384611932565b5f5160206134045f395f51905f52610dbd8161166f565b610bff84848461198a565b610dd0611a6e565b610dd982611b12565b610de38282611b1c565b5050565b6001600160a01b03165f9081525f5160206133245f395f51905f52602052604090206001015490565b5f610e19611bd8565b505f5160206133645f395f51905f5290565b5f5160206133e45f395f51905f528054600160401b810460ff1615906001600160401b03165f81158015610e5c5750825b90505f826001600160401b03166001148015610e775750303b155b905081158015610e85575080155b15610ea35760405163f92ee8a960e01b815260040160405180910390fd5b845467ffffffffffffffff191660011785558315610ecd57845460ff60401b1916600160401b1785555b610ed5611351565b610ee28660e00135611c21565b610f1173eeeeeeeeeeeeeeeeeeeeeeeeeeeeeeeeeeeeeeee60015f19670de0b6b3a76400008a60c00135611296565b5f5b610f206040880188613223565b9050811015610f7c57610f74610f396040890189613223565b83818110610f4957610f49613184565b9050602002016020810190610f5e9190612c56565b600189606001358a608001358b60a00135611296565b600101610f13565b50610f935f610f8e6020890189612c56565b611773565b50610fb55f5160206134045f395f51905f52610f8e6040890160208a01612c56565b508315610ffd57845460ff60401b19168555604051600181527fc7f505b2f371ae2175ee4913f4499e1f2633a7b5936321eed1cdaeb6115181d2906020015b60405180910390a15b505050505050565b611010838383611d0e565b6001600160a01b038084165f9081527f331c20f00e5afe412d6bf194b51e8f2d981ce2eedc3a9ed8e5a5801a2017e90160209081526040808320938616835292905220429055611061838383611dea565b604080516001600160a01b038086168252841660208201529081018290527fdfc93ac43234c3993e5d23f2a1a4c52b2ac70f67cf1f534bd7ceb92328bf949a906060015b60405180910390a1505050565b60605f5160206133845f395f51905f525f6110cc82611f0f565b90506110ec8273eeeeeeeeeeeeeeeeeeeeeeeeeeeeeeeeeeeeeeee611f1b565b6110f65792915050565b600181516111049190613283565b6001600160401b0381111561111b5761111b612e22565b604051908082528060200260200182016040528015611144578160200160208202803683370190505b5092505f5f5b82518110156111f25773eeeeeeeeeeeeeeeeeeeeeeeeeeeeeeeeeeeeeeee6001600160a01b031683828151811061118357611183613184565b60200260200101516001600160a01b031603156111ea578281815181106111ac576111ac613184565b60200260200101518583815181106111c6576111c6613184565b6001600160a01b03909216602092830291909101909101526111e782613296565b91505b60010161114a565b5050505090565b5f61120383610c7f565b61120d84846113ce565b61121791906132ae565b9392505050565b7f65d7a28e3265b37a6474929f336521b332c1681b933f6cb9f3376673440d862a6112488161166f565b610c7c611f3c565b7f724f6a44d576143e18c60911798b2b15551ca96bd8f7cb7524b8fa36253a26d861127a8161166f565b611282611f84565b61128c8383611fb4565b61088f8383612372565b5f5160206134045f395f51905f526112ad8161166f565b8480156112be57506112be86611395565b156112e75760405163017e790360e31b81526001600160a01b0387166004820152602401610d82565b6112f18686612507565b6112fd8686868661153d565b84156113125761130d8683612523565b610ffd565b610ffd866125fa565b5f9182525f5160206133a45f395f51905f52602090815260408084206001600160a01b0393909316845291905290205460ff1690565b611359611814565b610c15610c05565b6001600160a01b03165f9081525f5160206133245f395f51905f52602052604090206002015490565b610de3338383611005565b5f5f5160206133845f395f51905f526112178184611f1b565b5f5160206134045f395f51905f526113c58161166f565b610de38261267d565b6001600160a01b039182165f9081527f331c20f00e5afe412d6bf194b51e8f2d981ce2eedc3a9ed8e5a5801a2017e9016020908152604080832093909416825291909152205490565b61142082610b3f565b6114298161166f565b610bff838361185a565b60605f5160206133845f395f51905f525f61144d82611f0f565b905080516001600160401b0381111561146857611468612e22565b6040519080825280602002602001820160405280156114ac57816020015b604080518082019091525f80825260208201528152602001906001900390816114865790505b5092505f5b81518110156115375760405180604001604052808383815181106114d7576114d7613184565b60200260200101516001600160a01b0316815260200161150f84848151811061150257611502613184565b6020026020010151610835565b81525084828151811061152457611524613184565b60209081029190910101526001016114b1565b50505090565b5f5160206134045f395f51905f526115548161166f565b8183116115c95760405162461bcd60e51b815260206004820152603d60248201527f537461626c65636f696e48616e646c65723a207570706572626f756e64206d7560448201527f73742062652067726561746572207468616e206c6f776572626f756e640000006064820152608401610d82565b6001600160a01b0385165f8181525f5160206133245f395f51905f526020818152604092839020805460ff1916891515908117825560018201899055600290910187905583519485529084015290820185905260608201849052907f84f12763861d318f97fe38a0e6f70b46f0566462d67561978f0f4dff814031df90608001610ff4565b5f5160206134045f395f51905f526116658161166f565b61088f8383612523565b335f61167b838361131b565b8061169b57505f5160206133e45f395f51905f5254600160401b900460ff165b90508061088f57818360405163e2517d3f60e01b8152600401610d829291906132c1565b6001600160a01b0382165f9081527f331c20f00e5afe412d6bf194b51e8f2d981ce2eedc3a9ed8e5a5801a2017e90260205260409020545f5160206133445f395f51905f529082900361172557604051630f65c37560e11b815260040160405180910390fd5b6001600160a01b0383165f90815260028201602052604090819020839055517fc7258c0d0b7dc97e595fdc7bf85248d17ce4ce09b644ce59f5382a07078261bf906110a590859085906132c1565b5f5f5160206133a45f395f51905f5261178c848461131b565b61180b575f848152602082815260408083206001600160a01b03871684529091529020805460ff191660011790556117c13390565b6001600160a01b0316836001600160a01b0316857f2f8788117e7eff1d82e926ec794901d17c78024a50270940304540a733656f0d60405160405180910390a4600191505061082f565b5f91505061082f565b5f5160206133e45f395f51905f5254600160401b900460ff16610c1557604051631afcd79f60e31b815260040160405180910390fd5b611852611814565b610c156126e0565b5f5f5160206133a45f395f51905f52611873848461131b565b1561180b575f848152602082815260408083206001600160a01b0387168085529252808320805460ff1916905551339287917ff6391f5c32d9c69d2a47ea670b442974b53935d1edc7fd64eb21e047a839171b9190a4600191505061082f565b6118db612700565b5f5160206133c45f395f51905f52805460ff191681557f5db9ee0a495bf2e6ff9c91a7834c1ba4fdd244a5e8aa4e537bd38aeae4b073aa335b6040516001600160a01b03909116815260200160405180910390a150565b61088f83846001600160a01b031663a9059cbb85856040516024016119589291906132c1565b604051602081830303815290604052915060e01b6020820180516001600160e01b03838183161783525050505061272f565b6001600160a01b038381165f9081527f331c20f00e5afe412d6bf194b51e8f2d981ce2eedc3a9ed8e5a5801a2017e90360209081526040808320938616835292905220545f5160206133445f395f51905f52908290036119fd57604051630f65c37560e11b815260040160405180910390fd5b6001600160a01b038481165f81815260038401602090815260408083209488168084529482529182902086905581519283528201929092529081018390527ff60f910041f20c8f36245f1c4c2715a6260daa3507d06787103952397d133af79060600160405180910390a150505050565b306001600160a01b037f0000000000000000000000000000000000000000000000000000000000000000161480611af457507f00000000000000000000000000000000000000000000000000000000000000006001600160a01b0316611ae85f5160206133645f395f51905f52546001600160a01b031690565b6001600160a01b031614155b15610c155760405163703e46dd60e11b815260040160405180910390fd5b5f610de38161166f565b816001600160a01b03166352d1902d6040518163ffffffff1660e01b8152600401602060405180830381865afa925050508015611b76575060408051601f3d908101601f19168201909252611b739181019061320c565b60015b611b9e57604051634c9c8ce360e01b81526001600160a01b0383166004820152602401610d82565b5f5160206133645f395f51905f528114611bce57604051632a87526960e21b815260048101829052602401610d82565b61088f838361279b565b306001600160a01b037f00000000000000000000000000000000000000000000000000000000000000001614610c155760405163703e46dd60e11b815260040160405180910390fd5b5f5160206133e45f395f51905f528054600160401b810460ff1615906001600160401b03165f81158015611c525750825b90505f826001600160401b03166001148015611c6d5750303b155b905081158015611c7b575080155b15611c995760405163f92ee8a960e01b815260040160405180910390fd5b845467ffffffffffffffff191660011785558315611cc357845460ff60401b1916600160401b1785555b611ccc8661267d565b8315610ffd57845460ff60401b19168555604051600181527fc7f505b2f371ae2175ee4913f4499e1f2633a7b5936321eed1cdaeb6115181d290602001610ff4565b611d1782611395565b611d3f57604051635ab8d72960e11b81526001600160a01b0383166004820152602401610d82565b5f611d4a84846111f9565b905080421015611d705760405163737aab0d60e01b815260048101829052602401610d82565b5f611d7b8585610b5f565b905080831115611da857604051633db6068b60e21b81526004810184905260248101829052604401610d82565b5f611db4600a836132da565b9050831580611dc257508084105b15610ffd576040516301773d3d60e11b81526004810185905260248101829052604401610d82565b73eeeeeeeeeeeeeeeeeeeeeeeeeeeeeeeeeeeeeeed196001600160a01b03831601611eaf575f5f6107e16001600160a01b03166340c10f1960e01b8685604051602401611e389291906132c1565b60408051601f198184030181529181526020820180516001600160e01b03166001600160e01b0319909416939093179092529051611e7691906132f9565b5f604051808303815f865af19150503d805f8114610d58576040519150601f19603f3d011682016040523d82523d5f602084013e610d5d565b6040516308934a5f60e31b81526001600160a01b0383169063449a52f890611edd90869085906004016132c1565b5f604051808303815f87803b158015611ef4575f5ffd5b505af1158015611f06573d5f5f3e3d5ffd5b50505050505050565b60605f611217836127f0565b6001600160a01b0381165f9081526001830160205260408120541515611217565b611f44611f84565b5f5160206133c45f395f51905f52805460ff191660011781557f62e78cea01bee320cd4e420270b5ea74000d11b0c9f74754ebdbfc544b05a25833611914565b5f5160206133c45f395f51905f525460ff1615610c155760405163d93c066560e01b815260040160405180910390fd5b604081015181906001600160a01b0316612003576040516326401ebb60e01b815260206004820152600f60248201526e4f524947494e2043555252454e435960881b6044820152606401610d82565b80606001515f03612047576040516326401ebb60e01b815260206004820152600d60248201526c13d49251d25388105353d55395609a1b6044820152606401610d82565b60208101516001600160a01b0316612090576040516326401ebb60e01b815260206004820152600b60248201526a2222a9aa24a720aa24a7a760a91b6044820152606401610d82565b60808101516001600160a01b03166120dd576040516326401ebb60e01b815260206004820152600f60248201526e5441524745542043555252454e435960881b6044820152606401610d82565b8060a001515f03612121576040516326401ebb60e01b815260206004820152600d60248201526c15105491d15508105353d55395609a1b6044820152606401610d82565b6001600160a01b038316612161576040516326401ebb60e01b815260206004820152600660248201526515d05313115560d21b6044820152606401610d82565b61216e8260400151610b16565b15612223576121808260400151611361565b826060015183604001516001600160a01b03166318160ddd6040518163ffffffff1660e01b8152600401602060405180830381865afa1580156121c5573d5f5f3e3d5ffd5b505050506040513d601f19601f820116820180604052508101906121e9919061320c565b6121f39190613283565b101561221e57816040015182606001516040516373363d8b60e01b8152600401610d829291906132c1565b61226c565b81516001600160a01b031661226c576040516326401ebb60e01b815260206004820152600e60248201526d4c4951554944495459205341464560901b6044820152606401610d82565b6122798260800151610b16565b156123295761228b8260800151610de7565b8260a0015183608001516001600160a01b03166318160ddd6040518163ffffffff1660e01b8152600401602060405180830381865afa1580156122d0573d5f5f3e3d5ffd5b505050506040513d601f19601f820116820180604052508101906122f4919061320c565b6122fe91906132ae565b111561088f5781608001518260a001516040516373363d8b60e01b8152600401610d829291906132c1565b81516001600160a01b031661088f576040516326401ebb60e01b815260206004820152600e60248201526d4c4951554944495459205341464560901b6044820152606401610d82565b60c08101516001600160a01b03161580159061239a575060e08101516001600160a01b031615155b156123cc576123cc828260e001518361010001518460c001516001600160a01b0316612849909392919063ffffffff16565b6123d98160400151610b16565b156124465780604001516001600160a01b03166379cc67908383606001516040518363ffffffff1660e01b81526004016124149291906132c1565b5f604051808303815f87803b15801561242b575f5ffd5b505af115801561243d573d5f5f3e3d5ffd5b5050505061246a565b80516060820151604083015161246a926001600160a01b0390911691859190612849565b6124778160800151610b16565b156124df5780608001516001600160a01b031663449a52f882602001518360a001516040518363ffffffff1660e01b81526004016124b69291906132c1565b5f604051808303815f87803b1580156124cd575f5ffd5b505af1158015610ffd573d5f5f3e3d5ffd5b8051602082015160a08301516080840151610de3936001600160a01b03909116929091612849565b80151560010361251a57610de382612882565b610de3826128d4565b805f036125465760405163e5f9b6ad60e01b815260048101829052602401610d82565b6001600160a01b0382165f9081527f331c20f00e5afe412d6bf194b51e8f2d981ce2eedc3a9ed8e5a5801a2017e90460205260409020545f5160206133445f395f51905f52908290036125ac57604051630f65c37560e11b815260040160405180910390fd5b6001600160a01b0383165f90815260048201602052604090819020839055517f5799d0d97e6c7ef24c2b4ffc735424c0412ebc644be2f6829884018b01ed3541906110a590859085906132c1565b6001600160a01b0381165f9081527f331c20f00e5afe412d6bf194b51e8f2d981ce2eedc3a9ed8e5a5801a2017e9046020526040808220829055515f5160206133445f395f51905f52917f5799d0d97e6c7ef24c2b4ffc735424c0412ebc644be2f6829884018b01ed3541916126719185916132c1565b60405180910390a15050565b5f5160206133445f395f51905f5280548290036126ad57604051630f65c37560e11b815260040160405180910390fd5b8181556040518281527f118ff2913bc92bf56e2c71a626a88f283c96021610929f0ce96b36625aa1c75a90602001612671565b6126e8611814565b5f5160206133c45f395f51905f52805460ff19169055565b5f5160206133c45f395f51905f525460ff16610c1557604051638dfc202b60e01b815260040160405180910390fd5b5f5f60205f8451602086015f885af18061274e576040513d5f823e3d81fd5b50505f513d91508115612765578060011415612772565b6001600160a01b0384163b155b15610bff57604051635274afe760e01b81526001600160a01b0385166004820152602401610d82565b6127a48261294d565b6040516001600160a01b038316907fbc7cd75a20ee27fd9adebab32041f755214dbc6bffa90cc0225b39da2e5c2d3b905f90a28051156127e85761088f82826129b0565b610de3612a19565b6060815f0180548060200260200160405190810160405280929190818152602001828054801561283d57602002820191905f5260205f20905b815481526020019060010190808311612829575b50505050509050919050565b6040516001600160a01b038481166024830152838116604483015260648201839052610bff9186918216906323b872dd90608401611958565b5f5160206133845f395f51905f5261289a8183612a38565b506040516001600160a01b03831681527fc039c75cef0904723584eecbad08281b7298a16c9fadc7dbbb576359df79c1de90602001612671565b5f5160206133845f395f51905f526128ec8183612a4c565b61291457604051635ab8d72960e11b81526001600160a01b0383166004820152602401610d82565b6040516001600160a01b03831681527f29ef6e5e7533f5e04f1729a119b0acf31837e10f8a66e61d22dedd180d0221e990602001612671565b806001600160a01b03163b5f0361298257604051634c9c8ce360e01b81526001600160a01b0382166004820152602401610d82565b5f5160206133645f395f51905f5280546001600160a01b0319166001600160a01b0392909216919091179055565b60605f5f846001600160a01b0316846040516129cc91906132f9565b5f60405180830381855af49150503d805f8114612a04576040519150601f19603f3d011682016040523d82523d5f602084013e612a09565b606091505b5091509150610bda858383612a60565b3415610c155760405163b398979f60e01b815260040160405180910390fd5b5f611217836001600160a01b038416612abc565b5f611217836001600160a01b038416612b08565b606082612a7557612a7082612be2565b611217565b8151158015612a8c57506001600160a01b0384163b155b15612ab557604051639996b31560e01b81526001600160a01b0385166004820152602401610d82565b5092915050565b5f818152600183016020526040812054612b0157508154600181810184555f84815260208082209093018490558454848252828601909352604090209190915561082f565b505f61082f565b5f818152600183016020526040812054801561180b575f612b2a600183613283565b85549091505f90612b3d90600190613283565b9050808214612b9c575f865f018281548110612b5b57612b5b613184565b905f5260205f200154905080875f018481548110612b7b57612b7b613184565b5f918252602080832090910192909255918252600188019052604090208390555b8554869080612bad57612bad61330f565b600190038181905f5260205f20015f90559055856001015f8681526020019081526020015f205f90556001935050505061082f565b805115612bf25780518082602001fd5b60405163d6bda27560e01b815260040160405180910390fd5b5f60208284031215612c1b575f5ffd5b81356001600160e01b031981168114611217575f5ffd5b6001600160a01b0381168114610c7c575f5ffd5b8035612c5181612c32565b919050565b5f60208284031215612c66575f5ffd5b813561121781612c32565b5f5f60408385031215612c82575f5ffd5b8235612c8d81612c32565b946020939093013593505050565b5f81518084528060208401602086015e5f602082860101526020601f19601f83011685010191505092915050565b5f602082016020835280845180835260408501915060408160051b8601019250602086015f5b82811015612d6757868503603f19018452815180516001600160a01b03168652602080820151608091880182905290612d2a90880182612c9b565b905060408201518782036040890152612d438282612c9b565b60609384015198909301979097525094506020938401939190910190600101612cef565b50929695505050505050565b5f60208284031215612d83575f5ffd5b5035919050565b5f5f60408385031215612d9b575f5ffd5b8235612da681612c32565b91506020830135612db681612c32565b809150509250929050565b5f5f60408385031215612dd2575f5ffd5b823591506020830135612db681612c32565b5f5f5f60608486031215612df6575f5ffd5b8335612e0181612c32565b92506020840135612e1181612c32565b929592945050506040919091013590565b634e487b7160e01b5f52604160045260245ffd5b60405161012081016001600160401b0381118282101715612e5957612e59612e22565b60405290565b604051601f8201601f191681016001600160401b0381118282101715612e8757612e87612e22565b604052919050565b5f6001600160401b03821115612ea757612ea7612e22565b50601f01601f191660200190565b5f5f60408385031215612ec6575f5ffd5b8235612ed181612c32565b915060208301356001600160401b03811115612eeb575f5ffd5b8301601f81018513612efb575f5ffd5b8035612f0e612f0982612e8f565b612e5f565b818152866020838501011115612f22575f5ffd5b816020840160208301375f602083830101528093505050509250929050565b5f60208284031215612f51575f5ffd5b81356001600160401b03811115612f66575f5ffd5b82016101008185031215611217575f5ffd5b602080825282518282018190525f918401906040840190835b81811015612fb85783516001600160a01b0316835260209384019390920191600101612f91565b509095945050505050565b5f5f828403610140811215612fd6575f5ffd5b8335612fe181612c32565b9250610120601f1982011215612ff5575f5ffd5b50612ffe612e36565b61300a60208501612c46565b815261301860408501612c46565b602082015261302960608501612c46565b60408201526080840135606082015261304460a08501612c46565b608082015260c084013560a082015261305f60e08501612c46565b60c08201526130716101008501612c46565b60e082015261012093909301356101008401525092909150565b80358015158114612c51575f5ffd5b5f5f5f5f5f60a086880312156130ae575f5ffd5b85356130b981612c32565b94506130c76020870161308b565b94979496505050506040830135926060810135926080909101359150565b602081525f6112176020830184612c9b565b602080825282518282018190525f918401906040840190835b81811015612fb857835180516001600160a01b031684526020908101518185015290930192604090920191600101613110565b5f5f5f5f60808587031215613156575f5ffd5b843561316181612c32565b935061316f6020860161308b565b93969395505050506040820135916060013590565b634e487b7160e01b5f52603260045260245ffd5b5f602082840312156131a8575f5ffd5b81516001600160401b038111156131bd575f5ffd5b8201601f810184136131cd575f5ffd5b80516131db612f0982612e8f565b8181528560208385010111156131ef575f5ffd5b8160208401602083015e5f91810160200191909152949350505050565b5f6020828403121561321c575f5ffd5b5051919050565b5f5f8335601e19843603018112613238575f5ffd5b8301803591506001600160401b03821115613251575f5ffd5b6020019150600581901b3603821315613268575f5ffd5b9250929050565b634e487b7160e01b5f52601160045260245ffd5b8181038181111561082f5761082f61326f565b5f600182016132a7576132a761326f565b5060010190565b8082018082111561082f5761082f61326f565b6001600160a01b03929092168252602082015260400190565b5f826132f457634e487b7160e01b5f52601260045260245ffd5b500490565b5f82518060208501845e5f920191825250919050565b634e487b7160e01b5f52603160045260245ffdfe38361881985b0f585e6124dca158a3af102bffba0feb9c42b0b40825f41a3300331c20f00e5afe412d6bf194b51e8f2d981ce2eedc3a9ed8e5a5801a2017e900360894a13ba1a3210667c828492db98dca3e2076cc3735a920a3ca505d382bbc77dc539bf9c224afa178d31bf07d5109c2b5c5e56656e49b25e507fec3a69f0002dd7bc7dec4dceedda775e58dd541e08a116c6c53815c0bd028192f7b626800cd5ed15c6e187e77e9aee88184c21f4f2182ab5827cb3b7e07fbedcd63f03300f0c57e16840df040f15088dc2f81fe391c3923bec73e23a9662efc9c229c6a00339759585899103d2ace64958e37e18ccb0504652c81d4a1b8aa80fe2126ab95a164736f6c6343000823000a","linkReferences":{}},"methodIdentifiers":{"DEFAULT_ADMIN_ROLE()":"a217fddf","MAINTAINER_ROLE()":"f8742254","NATIVE_TOKEN_POINTER()":"20b2cf9f","PAUSER_ROLE()":"e63ab1e9","SWAPPER_ROLE()":"df668eca","TEL_MINT()":"bd890c09","UPGRADE_INTERFACE_VERSION()":"ad3cb1cc","UpdateXYZ(address,bool,uint256,uint256)":"e9aea396","UpdateXYZ(address,bool,uint256,uint256,uint256)":"8b7d43a6","__StablecoinHandler_init()":"924855fa","__StablecoinHandler_init_unchained()":"3598e3dc","drip(address,uint256)":"9e353a1e","dripTo(address,address,uint256)":"5d2d812b","getBaselineDripCooldown()":"c02fe06b","getBaselineMaxDripAmount(address)":"029669b4","getDripCooldown(address)":"405c6a40","getDrippableTokensWithDripAmount()":"de6a12d4","getEnabledXYZs()":"69e2fda4","getEnabledXYZsWithMetadata()":"1a0d6c2e","getLastFulfilledDripTimestamp(address,address)":"c5b059e7","getMaxDripAmount(address,address)":"29ca9951","getMaxLimit(address)":"4f9c2c26","getMinLimit(address)":"956794b1","getNextEligibleDripTimestamp(address,address)":"7b0b58aa","getRoleAdmin(bytes32)":"248a9ca3","grantRole(bytes32,address)":"2f2ff15d","hasRole(bytes32,address)":"91d14854","initialize((address,address,address[],uint256,uint256,uint256,uint256,uint256))":"57d4e27e","isEnabledXYZ(address)":"b4fc1335","isXYZ(address)":"1a95e05d","pause()":"8456cb59","paused()":"5c975abb","proxiableUUID()":"52d1902d","renounceRole(bytes32,address)":"36568abe","rescueCrypto(address,uint256)":"40c66f78","revokeRole(bytes32,address)":"d547741f","setBaselineDripCooldown(uint256)":"b60c76f1","setDripCooldownOverride(address,uint256)":"0c24029a","setMaxDripAmount(address,uint256)":"f8b5abfc","setMaxDripAmountOverride(address,address,uint256)":"4e37d1e2","stablecoinSwap(address,(address,address,address,uint256,address,uint256,address,address,uint256))":"86f117de","supportsInterface(bytes4)":"01ffc9a7","unpause()":"3f4ba83a","upgradeToAndCall(address,bytes)":"4f1ef286"},"id":170}