{"abi":[{"type":"receive","stateMutability":"payable"},{"type":"function","name":"DEFAULT_ADMIN_ROLE","inputs":[],"outputs":[{"name":"","type":"bytes32","internalType":"bytes32"}],"stateMutability":"view"},{"type":"function","name":"MAINTAINER_ROLE","inputs":[],"outputs":[{"name":"","type":"bytes32","internalType":"bytes32"}],"stateMutability":"view"},{"type":"function","name":"NATIVE_TOKEN_POINTER","inputs":[],"outputs":[{"name":"","type":"address","internalType":"address"}],"stateMutability":"view"},{"type":"function","name":"PAUSER_ROLE","inputs":[],"outputs":[{"name":"","type":"bytes32","internalType":"bytes32"}],"stateMutability":"view"},{"type":"function","name":"SWAPPER_ROLE","inputs":[],"outputs":[{"name":"","type":"bytes32","internalType":"bytes32"}],"stateMutability":"view"},{"type":"function","name":"TEL_MINT","inputs":[],"outputs":[{"name":"","type":"address","internalType":"contract ITELMint"}],"stateMutability":"view"},{"type":"function","name":"UPGRADE_INTERFACE_VERSION","inputs":[],"outputs":[{"name":"","type":"string","internalType":"string"}],"stateMutability":"view"},{"type":"function","name":"UpdateXYZ","inputs":[{"name":"token","type":"address","internalType":"address"},{"name":"validity","type":"bool","internalType":"bool"},{"name":"maxLimit","type":"uint256","internalType":"uint256"},{"name":"minLimit","type":"uint256","internalType":"uint256"}],"outputs":[],"stateMutability":"nonpayable"},{"type":"function","name":"__StablecoinHandler_init","inputs":[],"outputs":[],"stateMutability":"nonpayable"},{"type":"function","name":"__StablecoinHandler_init_unchained","inputs":[],"outputs":[],"stateMutability":"nonpayable"},{"type":"function","name":"drip","inputs":[{"name":"token","type":"address","internalType":"address"}],"outputs":[],"stateMutability":"nonpayable"},{"type":"function","name":"getDripAmount","inputs":[],"outputs":[{"name":"dripAmount","type":"uint256","internalType":"uint256"}],"stateMutability":"view"},{"type":"function","name":"getEnabledXYZs","inputs":[],"outputs":[{"name":"enabledXYZs","type":"address[]","internalType":"address[]"}],"stateMutability":"view"},{"type":"function","name":"getEnabledXYZsWithMetadata","inputs":[],"outputs":[{"name":"enabledXYZMetadatas","type":"tuple[]","internalType":"struct StablecoinManager.XYZMetadata[]","components":[{"name":"token","type":"address","internalType":"address"},{"name":"name","type":"string","internalType":"string"},{"name":"symbol","type":"string","internalType":"string"},{"name":"decimals","type":"uint256","internalType":"uint256"}]}],"stateMutability":"view"},{"type":"function","name":"getLastFulfilledDripTimestamp","inputs":[{"name":"token","type":"address","internalType":"address"},{"name":"recipient","type":"address","internalType":"address"}],"outputs":[{"name":"timestamp","type":"uint256","internalType":"uint256"}],"stateMutability":"view"},{"type":"function","name":"getMaxLimit","inputs":[{"name":"token","type":"address","internalType":"address"}],"outputs":[{"name":"","type":"uint256","internalType":"uint256"}],"stateMutability":"view"},{"type":"function","name":"getMinLimit","inputs":[{"name":"token","type":"address","internalType":"address"}],"outputs":[{"name":"","type":"uint256","internalType":"uint256"}],"stateMutability":"view"},{"type":"function","name":"getNativeDripAmount","inputs":[],"outputs":[{"name":"nativeDripAmount","type":"uint256","internalType":"uint256"}],"stateMutability":"view"},{"type":"function","name":"getRoleAdmin","inputs":[{"name":"role","type":"bytes32","internalType":"bytes32"}],"outputs":[{"name":"","type":"bytes32","internalType":"bytes32"}],"stateMutability":"view"},{"type":"function","name":"grantRole","inputs":[{"name":"role","type":"bytes32","internalType":"bytes32"},{"name":"account","type":"address","internalType":"address"}],"outputs":[],"stateMutability":"nonpayable"},{"type":"function","name":"hasRole","inputs":[{"name":"role","type":"bytes32","internalType":"bytes32"},{"name":"account","type":"address","internalType":"address"}],"outputs":[{"name":"","type":"bool","internalType":"bool"}],"stateMutability":"view"},{"type":"function","name":"initialize","inputs":[{"name":"initParams","type":"tuple","internalType":"struct StablecoinManager.StablecoinManagerInitParams","components":[{"name":"admin_","type":"address","internalType":"address"},{"name":"maintainer_","type":"address","internalType":"address"},{"name":"tokens_","type":"address[]","internalType":"address[]"},{"name":"initMaxLimit","type":"uint256","internalType":"uint256"},{"name":"initMinLimit","type":"uint256","internalType":"uint256"},{"name":"dripAmount_","type":"uint256","internalType":"uint256"},{"name":"nativeDripAmount_","type":"uint256","internalType":"uint256"}]}],"outputs":[],"stateMutability":"nonpayable"},{"type":"function","name":"isEnabledXYZ","inputs":[{"name":"eXYZ","type":"address","internalType":"address"}],"outputs":[{"name":"isEnabled","type":"bool","internalType":"bool"}],"stateMutability":"view"},{"type":"function","name":"isXYZ","inputs":[{"name":"token","type":"address","internalType":"address"}],"outputs":[{"name":"","type":"bool","internalType":"bool"}],"stateMutability":"view"},{"type":"function","name":"pause","inputs":[],"outputs":[],"stateMutability":"nonpayable"},{"type":"function","name":"paused","inputs":[],"outputs":[{"name":"","type":"bool","internalType":"bool"}],"stateMutability":"view"},{"type":"function","name":"proxiableUUID","inputs":[],"outputs":[{"name":"","type":"bytes32","internalType":"bytes32"}],"stateMutability":"view"},{"type":"function","name":"renounceRole","inputs":[{"name":"role","type":"bytes32","internalType":"bytes32"},{"name":"callerConfirmation","type":"address","internalType":"address"}],"outputs":[],"stateMutability":"nonpayable"},{"type":"function","name":"rescueCrypto","inputs":[{"name":"token","type":"address","internalType":"contract IERC20"},{"name":"amount","type":"uint256","internalType":"uint256"}],"outputs":[],"stateMutability":"nonpayable"},{"type":"function","name":"revokeRole","inputs":[{"name":"role","type":"bytes32","internalType":"bytes32"},{"name":"account","type":"address","internalType":"address"}],"outputs":[],"stateMutability":"nonpayable"},{"type":"function","name":"setDripAmount","inputs":[{"name":"newDripAmount","type":"uint256","internalType":"uint256"}],"outputs":[],"stateMutability":"nonpayable"},{"type":"function","name":"setNativeDripAmount","inputs":[{"name":"newNativeDripAmount","type":"uint256","internalType":"uint256"}],"outputs":[],"stateMutability":"nonpayable"},{"type":"function","name":"stablecoinSwap","inputs":[{"name":"wallet","type":"address","internalType":"address"},{"name":"ss","type":"tuple","internalType":"struct StablecoinHandler.StablecoinSwap","components":[{"name":"liquiditySafe","type":"address","internalType":"address"},{"name":"destination","type":"address","internalType":"address"},{"name":"origin","type":"address","internalType":"address"},{"name":"oAmount","type":"uint256","internalType":"uint256"},{"name":"target","type":"address","internalType":"address"},{"name":"tAmount","type":"uint256","internalType":"uint256"},{"name":"stablecoinFeeCurrency","type":"address","internalType":"address"},{"name":"stablecoinFeeSafe","type":"address","internalType":"address"},{"name":"feeAmount","type":"uint256","internalType":"uint256"}]}],"outputs":[],"stateMutability":"nonpayable"},{"type":"function","name":"supportsInterface","inputs":[{"name":"interfaceId","type":"bytes4","internalType":"bytes4"}],"outputs":[{"name":"","type":"bool","internalType":"bool"}],"stateMutability":"view"},{"type":"function","name":"unpause","inputs":[],"outputs":[],"stateMutability":"nonpayable"},{"type":"function","name":"upgradeToAndCall","inputs":[{"name":"newImplementation","type":"address","internalType":"address"},{"name":"data","type":"bytes","internalType":"bytes"}],"outputs":[],"stateMutability":"payable"},{"type":"event","name":"Drip","inputs":[{"name":"token","type":"address","indexed":false,"internalType":"address"},{"name":"recipient","type":"address","indexed":false,"internalType":"address"},{"name":"amount","type":"uint256","indexed":false,"internalType":"uint256"}],"anonymous":false},{"type":"event","name":"DripAmountUpdated","inputs":[{"name":"newDripAmount","type":"uint256","indexed":false,"internalType":"uint256"}],"anonymous":false},{"type":"event","name":"Initialized","inputs":[{"name":"version","type":"uint64","indexed":false,"internalType":"uint64"}],"anonymous":false},{"type":"event","name":"NativeDripAmountUpdated","inputs":[{"name":"newNativeDripAmount","type":"uint256","indexed":false,"internalType":"uint256"}],"anonymous":false},{"type":"event","name":"Paused","inputs":[{"name":"account","type":"address","indexed":false,"internalType":"address"}],"anonymous":false},{"type":"event","name":"RoleAdminChanged","inputs":[{"name":"role","type":"bytes32","indexed":true,"internalType":"bytes32"},{"name":"previousAdminRole","type":"bytes32","indexed":true,"internalType":"bytes32"},{"name":"newAdminRole","type":"bytes32","indexed":true,"internalType":"bytes32"}],"anonymous":false},{"type":"event","name":"RoleGranted","inputs":[{"name":"role","type":"bytes32","indexed":true,"internalType":"bytes32"},{"name":"account","type":"address","indexed":true,"internalType":"address"},{"name":"sender","type":"address","indexed":true,"internalType":"address"}],"anonymous":false},{"type":"event","name":"RoleRevoked","inputs":[{"name":"role","type":"bytes32","indexed":true,"internalType":"bytes32"},{"name":"account","type":"address","indexed":true,"internalType":"address"},{"name":"sender","type":"address","indexed":true,"internalType":"address"}],"anonymous":false},{"type":"event","name":"Unpaused","inputs":[{"name":"account","type":"address","indexed":false,"internalType":"address"}],"anonymous":false},{"type":"event","name":"Upgraded","inputs":[{"name":"implementation","type":"address","indexed":true,"internalType":"address"}],"anonymous":false},{"type":"event","name":"XYZAdded","inputs":[{"name":"token","type":"address","indexed":false,"internalType":"address"}],"anonymous":false},{"type":"event","name":"XYZRemoved","inputs":[{"name":"token","type":"address","indexed":false,"internalType":"address"}],"anonymous":false},{"type":"event","name":"XYZUpdated","inputs":[{"name":"token","type":"address","indexed":false,"internalType":"address"},{"name":"validity","type":"bool","indexed":false,"internalType":"bool"},{"name":"max","type":"uint256","indexed":false,"internalType":"uint256"},{"name":"min","type":"uint256","indexed":false,"internalType":"uint256"}],"anonymous":false},{"type":"error","name":"AccessControlBadConfirmation","inputs":[]},{"type":"error","name":"AccessControlUnauthorizedAccount","inputs":[{"name":"account","type":"address","internalType":"address"},{"name":"neededRole","type":"bytes32","internalType":"bytes32"}]},{"type":"error","name":"AddressEmptyCode","inputs":[{"name":"target","type":"address","internalType":"address"}]},{"type":"error","name":"AlreadyEnabled","inputs":[{"name":"token","type":"address","internalType":"address"}]},{"type":"error","name":"ERC1967InvalidImplementation","inputs":[{"name":"implementation","type":"address","internalType":"address"}]},{"type":"error","name":"ERC1967NonPayable","inputs":[]},{"type":"error","name":"EnforcedPause","inputs":[]},{"type":"error","name":"ExpectedPause","inputs":[]},{"type":"error","name":"FailedCall","inputs":[]},{"type":"error","name":"InvalidDripAmount","inputs":[{"name":"dripAmount","type":"uint256","internalType":"uint256"}]},{"type":"error","name":"InvalidInitialization","inputs":[]},{"type":"error","name":"InvalidMintBurnBoundry","inputs":[{"name":"token","type":"address","internalType":"address"},{"name":"amount","type":"uint256","internalType":"uint256"}]},{"type":"error","name":"InvalidOrDisabled","inputs":[{"name":"token","type":"address","internalType":"address"}]},{"type":"error","name":"LowLevelCallFailure","inputs":[]},{"type":"error","name":"NotInitializing","inputs":[]},{"type":"error","name":"RequestIneligibleUntil","inputs":[{"name":"unixTimestamp","type":"uint256","internalType":"uint256"}]},{"type":"error","name":"SafeERC20FailedOperation","inputs":[{"name":"token","type":"address","internalType":"address"}]},{"type":"error","name":"UUPSUnauthorizedCallContext","inputs":[]},{"type":"error","name":"UUPSUnsupportedProxiableUUID","inputs":[{"name":"slot","type":"bytes32","internalType":"bytes32"}]},{"type":"error","name":"ZeroValueInput","inputs":[{"name":"value","type":"string","internalType":"string"}]}],"bytecode":{"object":"0x60a0604052306080523480156012575f80fd5b50608051612d406100395f395f81816114120152818161143b015261157c0152612d405ff3fe60806040526004361061020a575f3560e01c8063817204a411610113578063b4fc13351161009d578063d547741f1161006d578063d547741f146105e9578063df668eca14610608578063e63ab1e91461063b578063e9aea3961461066e578063f87422541461068d575f80fd5b8063b4fc133514610577578063bd890c0914610596578063c5b059e7146105ab578063cd879d34146105ca575f80fd5b8063924855fa116100e3578063924855fa146104d5578063956794b1146104e9578063959042a214610508578063a217fddf14610527578063ad3cb1cc1461053a575f80fd5b8063817204a4146104635780638456cb591461048357806386f117de1461049757806391d14854146104b6575f80fd5b806340c66f7811610194578063543f8c5811610164578063543f8c58146103ae5780635c975abb146103cd57806367a5cd06146103f057806369e2fda41461040f5780637ad73baf14610430575f80fd5b806340c66f78146103495780634f1ef286146103685780634f9c2c261461037b57806352d1902d1461039a575f80fd5b8063248a9ca3116101da578063248a9ca3146102b45780632f2ff15d146102e15780633598e3dc1461030257806336568abe146103165780633f4ba83a14610335575f80fd5b806301ffc9a7146102155780631a0d6c2e146102495780631a95e05d1461026a57806320b2cf9f14610289575f80fd5b3661021157005b5f80fd5b348015610220575f80fd5b5061023461022f366004612632565b6106ad565b60405190151581526020015b60405180910390f35b348015610254575f80fd5b5061025d6106e3565b6040516102409190612687565b348015610275575f80fd5b50610234610284366004612755565b610965565b348015610294575f80fd5b5061029c5f81565b6040516001600160a01b039091168152602001610240565b3480156102bf575f80fd5b506102d36102ce366004612770565b61098e565b604051908152602001610240565b3480156102ec575f80fd5b506103006102fb366004612787565b6109ae565b005b34801561030d575f80fd5b506103006109d0565b348015610321575f80fd5b50610300610330366004612787565b6109e2565b348015610340575f80fd5b50610300610a1a565b348015610354575f80fd5b506103006103633660046127b5565b610a4f565b610300610376366004612872565b610aee565b348015610386575f80fd5b506102d3610395366004612755565b610b0d565b3480156103a5575f80fd5b506102d3610b36565b3480156103b9575f80fd5b506103006103c8366004612770565b610b51565b3480156103d8575f80fd5b505f80516020612cd48339815191525460ff16610234565b3480156103fb575f80fd5b5061030061040a366004612755565b610b99565b34801561041a575f80fd5b50610423610ba2565b60405161024091906128fe565b34801561043b575f80fd5b507f331c20f00e5afe412d6bf194b51e8f2d981ce2eedc3a9ed8e5a5801a2017e901546102d3565b34801561046e575f80fd5b505f80516020612c54833981519152546102d3565b34801561048e575f80fd5b50610300610d10565b3480156104a2575f80fd5b506103006104b1366004612949565b610d42565b3480156104c1575f80fd5b506102346104d0366004612787565b610d88565b3480156104e0575f80fd5b50610300610dbe565b3480156104f4575f80fd5b506102d3610503366004612755565b610dce565b348015610513575f80fd5b50610300610522366004612770565b610df7565b348015610532575f80fd5b506102d35f81565b348015610545575f80fd5b5061056a604051806040016040528060058152602001640352e302e360dc1b81525081565b6040516102409190612a11565b348015610582575f80fd5b50610234610591366004612755565b610e3a565b3480156105a1575f80fd5b5061029c6107e181565b3480156105b6575f80fd5b506102d36105c5366004612a23565b610efd565b3480156105d5575f80fd5b506103006105e4366004612a4f565b610f47565b3480156105f4575f80fd5b50610300610603366004612787565b611101565b348015610613575f80fd5b506102d37f724f6a44d576143e18c60911798b2b15551ca96bd8f7cb7524b8fa36253a26d881565b348015610646575f80fd5b506102d37f65d7a28e3265b37a6474929f336521b332c1681b933f6cb9f3376673440d862a81565b348015610679575f80fd5b50610300610688366004612a85565b61111d565b348015610698575f80fd5b506102d35f80516020612d1483398151915281565b5f6001600160e01b03198216637965db0b60e01b14806106dd57506301ffc9a760e01b6001600160e01b03198316145b92915050565b60605f6106ee610ba2565b905080516001600160401b03811115610709576107096127df565b60405190808252806020026020018201604052801561076c57816020015b61075960405180608001604052805f6001600160a01b0316815260200160608152602001606081526020015f81525090565b8152602001906001900390816107275790505b5091505f5b8151811015610960575f82828151811061078d5761078d612acc565b60200260200101516001600160a01b03166306fdde036040518163ffffffff1660e01b81526004015f60405180830381865afa1580156107cf573d5f803e3d5ffd5b505050506040513d5f823e601f3d908101601f191682016040526107f69190810190612ae0565b90505f83838151811061080b5761080b612acc565b60200260200101516001600160a01b03166395d89b416040518163ffffffff1660e01b81526004015f60405180830381865afa15801561084d573d5f803e3d5ffd5b505050506040513d5f823e601f3d908101601f191682016040526108749190810190612ae0565b90505f84848151811061088957610889612acc565b60200260200101516001600160a01b031663313ce5676040518163ffffffff1660e01b8152600401602060405180830381865afa1580156108cc573d5f803e3d5ffd5b505050506040513d601f19601f820116820180604052508101906108f09190612b54565b9050604051806080016040528086868151811061090f5761090f612acc565b60200260200101516001600160a01b031681526020018481526020018381526020018281525086858151811061094757610947612acc565b6020026020010181905250505050806001019050610771565b505090565b6001600160a01b03165f9081525f80516020612c34833981519152602052604090205460ff1690565b5f9081525f80516020612cb4833981519152602052604090206001015490565b6109b78261098e565b6109c08161118b565b6109ca83836111e9565b50505050565b6109d861128a565b6109e06112c0565b565b6001600160a01b0381163314610a0b5760405163334bd91960e11b815260040160405180910390fd5b610a1582826112d0565b505050565b7f65d7a28e3265b37a6474929f336521b332c1681b933f6cb9f3376673440d862a610a448161118b565b610a4c611349565b50565b5f80516020612d14833981519152610a668161118b565b6001600160a01b038316610ada576040515f90339084908381818185875af1925050503d805f8114610ab3576040519150601f19603f3d011682016040523d82523d5f602084013e610ab8565b606091505b50509050806109ca57604051633acddfc160e21b815260040160405180910390fd5b610a156001600160a01b03841633846113a8565b610af6611407565b610aff826114ab565b610b0982826114b5565b5050565b6001600160a01b03165f9081525f80516020612c34833981519152602052604090206001015490565b5f610b3f611571565b505f80516020612c7483398151915290565b5f80516020612d14833981519152610b688161118b565b815f03610b905760405163e5f9b6ad60e01b8152600481018390526024015b60405180910390fd5b610b09826115ba565b610a4c81611603565b5f80516020612c94833981519152805460408051602080840282018101909252828152606093925f92849190830182828015610c0557602002820191905f5260205f20905b81546001600160a01b03168152600190910190602001808311610be7575b5050505050905080515f03610c29575050604080515f815260208101909152919050565b5f80610c348361165b565b9150915081610c465750909392505050565b5f60018451610c559190612b7f565b9050806001600160401b03811115610c6f57610c6f6127df565b604051908082528060200260200182016040528015610c98578160200160208202803683370190505b5095505f805b8551811015610d0657808414610cfe57858181518110610cc057610cc0612acc565b6020026020010151888381518110610cda57610cda612acc565b6001600160a01b0390921660209283029190910190910152610cfb82612b92565b91505b600101610c9e565b5050505050505090565b7f65d7a28e3265b37a6474929f336521b332c1681b933f6cb9f3376673440d862a610d3a8161118b565b610a4c6116bd565b7f724f6a44d576143e18c60911798b2b15551ca96bd8f7cb7524b8fa36253a26d8610d6c8161118b565b610d74611705565b610d7e8383611735565b610a158383611b14565b5f9182525f80516020612cb4833981519152602090815260408084206001600160a01b0393909316845291905290205460ff1690565b610dc661128a565b6109e06109d0565b6001600160a01b03165f9081525f80516020612c34833981519152602052604090206002015490565b5f80516020612d14833981519152610e0e8161118b565b815f03610e315760405163e5f9b6ad60e01b815260048101839052602401610b87565b610b0982611cb4565b5f80516020612c948339815191528054604080516020808402820181019092528281525f93928492849190830182828015610e9c57602002820191905f5260205f20905b81546001600160a01b03168152600190910190602001808311610e7e575b505050505090505f5b8151811015610ef357846001600160a01b0316828281518110610eca57610eca612acc565b60200260200101516001600160a01b031603610eeb57506001949350505050565b600101610ea5565b505f949350505050565b6001600160a01b039081165f9081527f331c20f00e5afe412d6bf194b51e8f2d981ce2eedc3a9ed8e5a5801a2017e902602090815260408083209490931682529290925290205490565b5f80516020612cf48339815191528054600160401b810460ff1615906001600160401b03165f81158015610f785750825b90505f826001600160401b03166001148015610f935750303b155b905081158015610fa1575080155b15610fbf5760405163f92ee8a960e01b815260040160405180910390fd5b845467ffffffffffffffff191660011785558315610fe957845460ff60401b1916600160401b1785555b610ff1610dbe565b6110038660a001358760c00135611d17565b6110125f60015f19600161111d565b5f5b6110216040880188612baa565b90508110156110785761107061103a6040890189612baa565b8381811061104a5761104a612acc565b905060200201602081019061105f9190612755565b600189606001358a6080013561111d565b600101611014565b5061108f5f61108a6020890189612755565b6111e9565b506110b15f80516020612d1483398151915261108a6040890160208a01612755565b5083156110f957845460ff60401b19168555604051600181527fc7f505b2f371ae2175ee4913f4499e1f2633a7b5936321eed1cdaeb6115181d2906020015b60405180910390a15b505050505050565b61110a8261098e565b6111138161118b565b6109ca83836112d0565b5f80516020612d148339815191526111348161118b565b838015611145575061114585610e3a565b1561116e5760405163017e790360e31b81526001600160a01b0386166004820152602401610b87565b6111788585611e1a565b61118485858585611e36565b5050505050565b335f6111978383610d88565b806111b757505f80516020612cf483398151915254600160401b900460ff165b905080610a155760405163e2517d3f60e01b81526001600160a01b038316600482015260248101849052604401610b87565b5f5f80516020612cb48339815191526112028484610d88565b611281575f848152602082815260408083206001600160a01b03871684529091529020805460ff191660011790556112373390565b6001600160a01b0316836001600160a01b0316857f2f8788117e7eff1d82e926ec794901d17c78024a50270940304540a733656f0d60405160405180910390a460019150506106dd565b5f9150506106dd565b5f80516020612cf483398151915254600160401b900460ff166109e057604051631afcd79f60e31b815260040160405180910390fd5b6112c861128a565b6109e0611f47565b5f5f80516020612cb48339815191526112e98484610d88565b15611281575f848152602082815260408083206001600160a01b0387168085529252808320805460ff1916905551339287917ff6391f5c32d9c69d2a47ea670b442974b53935d1edc7fd64eb21e047a839171b9190a460019150506106dd565b611351611f67565b5f80516020612cd4833981519152805460ff191681557f5db9ee0a495bf2e6ff9c91a7834c1ba4fdd244a5e8aa4e537bd38aeae4b073aa335b6040516001600160a01b03909116815260200160405180910390a150565b6040516001600160a01b03838116602483015260448201839052610a1591859182169063a9059cbb906064015b604051602081830303815290604052915060e01b6020820180516001600160e01b038381831617835250505050611f96565b306001600160a01b037f000000000000000000000000000000000000000000000000000000000000000016148061148d57507f00000000000000000000000000000000000000000000000000000000000000006001600160a01b03166114815f80516020612c74833981519152546001600160a01b031690565b6001600160a01b031614155b156109e05760405163703e46dd60e11b815260040160405180910390fd5b5f610b098161118b565b816001600160a01b03166352d1902d6040518163ffffffff1660e01b8152600401602060405180830381865afa92505050801561150f575060408051601f3d908101601f1916820190925261150c91810190612b54565b60015b61153757604051634c9c8ce360e01b81526001600160a01b0383166004820152602401610b87565b5f80516020612c74833981519152811461156757604051632a87526960e21b815260048101829052602401610b87565b610a158383612002565b306001600160a01b037f000000000000000000000000000000000000000000000000000000000000000016146109e05760405163703e46dd60e11b815260040160405180910390fd5b5f80516020612c548339815191528181556040518281527f33f3faee0788ab897d8f674abe1dde6d93ba901e4a1502161294734ba178e3c7906020015b60405180910390a15050565b61160d8133612057565b335f9081527f331c20f00e5afe412d6bf194b51e8f2d981ce2eedc3a9ed8e5a5801a2017e902602090815260408083206001600160a01b03851684529091529020429055610a4c81336120d2565b5f805f5b83518110156116ae575f6001600160a01b031684828151811061168457611684612acc565b60200260200101516001600160a01b0316036116a657600192508091506116ae565b60010161165f565b50816116b857505f195b915091565b6116c5611705565b5f80516020612cd4833981519152805460ff191660011781557f62e78cea01bee320cd4e420270b5ea74000d11b0c9f74754ebdbfc544b05a2583361138a565b5f80516020612cd48339815191525460ff16156109e05760405163d93c066560e01b815260040160405180910390fd5b604081015181906001600160a01b0316611784576040516326401ebb60e01b815260206004820152600f60248201526e4f524947494e2043555252454e435960881b6044820152606401610b87565b80606001515f036117c8576040516326401ebb60e01b815260206004820152600d60248201526c13d49251d25388105353d55395609a1b6044820152606401610b87565b60208101516001600160a01b0316611811576040516326401ebb60e01b815260206004820152600b60248201526a2222a9aa24a720aa24a7a760a91b6044820152606401610b87565b60808101516001600160a01b031661185e576040516326401ebb60e01b815260206004820152600f60248201526e5441524745542043555252454e435960881b6044820152606401610b87565b8060a001515f036118a2576040516326401ebb60e01b815260206004820152600d60248201526c15105491d15508105353d55395609a1b6044820152606401610b87565b6001600160a01b0383166118e2576040516326401ebb60e01b815260206004820152600660248201526515d05313115560d21b6044820152606401610b87565b6118ef8260400151610965565b156119b6576119018260400151610dce565b826060015183604001516001600160a01b03166318160ddd6040518163ffffffff1660e01b8152600401602060405180830381865afa158015611946573d5f803e3d5ffd5b505050506040513d601f19601f8201168201806040525081019061196a9190612b54565b6119749190612b7f565b10156119b157604080830151606084015191516373363d8b60e01b81526001600160a01b0390911660048201526024810191909152604401610b87565b6119ff565b81516001600160a01b03166119ff576040516326401ebb60e01b815260206004820152600e60248201526d4c4951554944495459205341464560901b6044820152606401610b87565b611a0c8260800151610965565b15611acb57611a1e8260800151610b0d565b8260a0015183608001516001600160a01b03166318160ddd6040518163ffffffff1660e01b8152600401602060405180830381865afa158015611a63573d5f803e3d5ffd5b505050506040513d601f19601f82011682018060405250810190611a879190612b54565b611a919190612bf6565b1115610a1557608082015160a08301516040516373363d8b60e01b81526001600160a01b0390921660048301526024820152604401610b87565b81516001600160a01b0316610a15576040516326401ebb60e01b815260206004820152600e60248201526d4c4951554944495459205341464560901b6044820152606401610b87565b60c08101516001600160a01b031615801590611b3c575060e08101516001600160a01b031615155b15611b6e57611b6e828260e001518361010001518460c001516001600160a01b0316612229909392919063ffffffff16565b611b7b8160400151610965565b15611bed576040808201516060830151915163079cc67960e41b81526001600160a01b03858116600483015260248201939093529116906379cc6790906044015f604051808303815f87803b158015611bd2575f80fd5b505af1158015611be4573d5f803e3d5ffd5b50505050611c11565b805160608201516040830151611c11926001600160a01b0390911691859190612229565b611c1e8160800151610965565b15611c8c576080810151602082015160a08301516040516308934a5f60e31b81526001600160a01b039283166004820152602481019190915291169063449a52f8906044015f604051808303815f87803b158015611c7a575f80fd5b505af11580156110f9573d5f803e3d5ffd5b8051602082015160a08301516080840151610b09936001600160a01b03909116929091612229565b7f331c20f00e5afe412d6bf194b51e8f2d981ce2eedc3a9ed8e5a5801a2017e9018190556040518181525f80516020612c54833981519152907fbf420dc53ff33cecece09463750eae7694a8fe807007924887a27dd11a0df048906020016115f7565b5f80516020612cf48339815191528054600160401b810460ff1615906001600160401b03165f81158015611d485750825b90505f826001600160401b03166001148015611d635750303b155b905081158015611d71575080155b15611d8f5760405163f92ee8a960e01b815260040160405180910390fd5b845467ffffffffffffffff191660011785558315611db957845460ff60401b1916600160401b1785555b611dc2876115ba565b611dcb86611cb4565b8315611e1157845460ff60401b19168555604051600181527fc7f505b2f371ae2175ee4913f4499e1f2633a7b5936321eed1cdaeb6115181d29060200160405180910390a15b50505050505050565b801515600103611e2d57610b0982612262565b610b09826122ea565b5f80516020612d14833981519152611e4d8161118b565b818311611ec25760405162461bcd60e51b815260206004820152603d60248201527f537461626c65636f696e48616e646c65723a207570706572626f756e64206d7560448201527f73742062652067726561746572207468616e206c6f776572626f756e640000006064820152608401610b87565b6001600160a01b0385165f8181525f80516020612c348339815191526020818152604092839020805460ff1916891515908117825560018201899055600290910187905583519485529084015290820185905260608201849052907f84f12763861d318f97fe38a0e6f70b46f0566462d67561978f0f4dff814031df906080016110f0565b611f4f61128a565b5f80516020612cd4833981519152805460ff19169055565b5f80516020612cd48339815191525460ff166109e057604051638dfc202b60e01b815260040160405180910390fd5b5f8060205f8451602086015f885af180611fb5576040513d5f823e3d81fd5b50505f513d91508115611fcc578060011415611fd9565b6001600160a01b0384163b155b156109ca57604051635274afe760e01b81526001600160a01b0385166004820152602401610b87565b61200b826124b6565b6040516001600160a01b038316907fbc7cd75a20ee27fd9adebab32041f755214dbc6bffa90cc0225b39da2e5c2d3b905f90a280511561204f57610a158282612519565b610b0961258b565b61206082610e3a565b61208857604051635ab8d72960e11b81526001600160a01b0383166004820152602401610b87565b5f6120938383610efd565b90506120a28162015180612bf6565b421015610a15576120b68162015180612bf6565b60405163737aab0d60e01b8152600401610b8791815260200190565b5f6001600160a01b038316612168577f331c20f00e5afe412d6bf194b51e8f2d981ce2eedc3a9ed8e5a5801a2017e901546040516340c10f1960e01b81526001600160a01b0384166004820152602481018290529091506107e1906340c10f19906044015f604051808303815f87803b15801561214d575f80fd5b505af115801561215f573d5f803e3d5ffd5b505050506121d9565b5f80516020612c54833981519152546040516308934a5f60e31b81526001600160a01b038481166004830152602482018390529192509084169063449a52f8906044015f604051808303815f87803b1580156121c2575f80fd5b505af11580156121d4573d5f803e3d5ffd5b505050505b604080516001600160a01b038086168252841660208201529081018290527fdfc93ac43234c3993e5d23f2a1a4c52b2ac70f67cf1f534bd7ceb92328bf949a9060600160405180910390a1505050565b6040516001600160a01b0384811660248301528381166044830152606482018390526109ca9186918216906323b872dd906084016113d5565b5f80516020612c9483398151915280546001810182555f8290527f7e20de35e2cca1b91743fd09589d05b1415d23ef62d96d86c8e1bc09ee225f0f0180546001600160a01b0319166001600160a01b0384169081179091556040519081527fc039c75cef0904723584eecbad08281b7298a16c9fadc7dbbb576359df79c1de906020016115f7565b5f80516020612c948339815191528054604080516020808402820181019092528281525f92909184919083018282801561234b57602002820191905f5260205f20905b81546001600160a01b0316815260019091019060200180831161232d575b505050505090505f5f1990505f5b82518110156123a057846001600160a01b031683828151811061237e5761237e612acc565b60200260200101516001600160a01b031603612398578091505b600101612359565b505f1981036123cd57604051635ab8d72960e11b81526001600160a01b0385166004820152602401610b87565b5f600183516123dc9190612b7f565b905080821461243f578281815181106123f7576123f7612acc565b6020026020010151845f01838154811061241357612413612acc565b905f5260205f20015f6101000a8154816001600160a01b0302191690836001600160a01b031602179055505b835484908061245057612450612c09565b5f8281526020908190205f19908301810180546001600160a01b03191690559091019091556040516001600160a01b03871681527f29ef6e5e7533f5e04f1729a119b0acf31837e10f8a66e61d22dedd180d0221e9910160405180910390a15050505050565b806001600160a01b03163b5f036124eb57604051634c9c8ce360e01b81526001600160a01b0382166004820152602401610b87565b5f80516020612c7483398151915280546001600160a01b0319166001600160a01b0392909216919091179055565b60605f80846001600160a01b0316846040516125359190612c1d565b5f60405180830381855af49150503d805f811461256d576040519150601f19603f3d011682016040523d82523d5f602084013e612572565b606091505b50915091506125828583836125aa565b95945050505050565b34156109e05760405163b398979f60e01b815260040160405180910390fd5b6060826125bf576125ba82612609565b612602565b81511580156125d657506001600160a01b0384163b155b156125ff57604051639996b31560e01b81526001600160a01b0385166004820152602401610b87565b50805b9392505050565b8051156126195780518082602001fd5b60405163d6bda27560e01b815260040160405180910390fd5b5f60208284031215612642575f80fd5b81356001600160e01b031981168114612602575f80fd5b5f81518084528060208401602086015e5f602082860101526020601f19601f83011685010191505092915050565b5f602082016020835280845180835260408501915060408160051b8601019250602086015f5b8281101561272557868503603f19018452815180516001600160a01b031686526020808201516080918801829052906126e890880182612659565b9050604082015187820360408901526127018282612659565b606093840151989093019790975250945060209384019391909101906001016126ad565b50929695505050505050565b6001600160a01b0381168114610a4c575f80fd5b803561275081612731565b919050565b5f60208284031215612765575f80fd5b813561260281612731565b5f60208284031215612780575f80fd5b5035919050565b5f8060408385031215612798575f80fd5b8235915060208301356127aa81612731565b809150509250929050565b5f80604083850312156127c6575f80fd5b82356127d181612731565b946020939093013593505050565b634e487b7160e01b5f52604160045260245ffd5b60405161012081016001600160401b0381118282101715612816576128166127df565b60405290565b604051601f8201601f191681016001600160401b0381118282101715612844576128446127df565b604052919050565b5f6001600160401b03821115612864576128646127df565b50601f01601f191660200190565b5f8060408385031215612883575f80fd5b823561288e81612731565b915060208301356001600160401b038111156128a8575f80fd5b8301601f810185136128b8575f80fd5b80356128cb6128c68261284c565b61281c565b8181528660208385010111156128df575f80fd5b816020840160208301375f602083830101528093505050509250929050565b602080825282518282018190525f918401906040840190835b8181101561293e5783516001600160a01b0316835260209384019390920191600101612917565b509095945050505050565b5f8082840361014081121561295c575f80fd5b833561296781612731565b9250610120601f198201121561297b575f80fd5b506129846127f3565b61299060208501612745565b815261299e60408501612745565b60208201526129af60608501612745565b6040820152608084013560608201526129ca60a08501612745565b608082015260c084013560a08201526129e560e08501612745565b60c08201526129f76101008501612745565b60e082015261012093909301356101008401525092909150565b602081525f6126026020830184612659565b5f8060408385031215612a34575f80fd5b8235612a3f81612731565b915060208301356127aa81612731565b5f60208284031215612a5f575f80fd5b81356001600160401b03811115612a74575f80fd5b820160e08185031215612602575f80fd5b5f805f8060808587031215612a98575f80fd5b8435612aa381612731565b935060208501358015158114612ab7575f80fd5b93969395505050506040820135916060013590565b634e487b7160e01b5f52603260045260245ffd5b5f60208284031215612af0575f80fd5b81516001600160401b03811115612b05575f80fd5b8201601f81018413612b15575f80fd5b8051612b236128c68261284c565b818152856020838501011115612b37575f80fd5b8160208401602083015e5f91810160200191909152949350505050565b5f60208284031215612b64575f80fd5b5051919050565b634e487b7160e01b5f52601160045260245ffd5b818103818111156106dd576106dd612b6b565b5f60018201612ba357612ba3612b6b565b5060010190565b5f808335601e19843603018112612bbf575f80fd5b8301803591506001600160401b03821115612bd8575f80fd5b6020019150600581901b3603821315612bef575f80fd5b9250929050565b808201808211156106dd576106dd612b6b565b634e487b7160e01b5f52603160045260245ffd5b5f82518060208501845e5f92019182525091905056fe38361881985b0f585e6124dca158a3af102bffba0feb9c42b0b40825f41a3300331c20f00e5afe412d6bf194b51e8f2d981ce2eedc3a9ed8e5a5801a2017e900360894a13ba1a3210667c828492db98dca3e2076cc3735a920a3ca505d382bbc77dc539bf9c224afa178d31bf07d5109c2b5c5e56656e49b25e507fec3a69f0002dd7bc7dec4dceedda775e58dd541e08a116c6c53815c0bd028192f7b626800cd5ed15c6e187e77e9aee88184c21f4f2182ab5827cb3b7e07fbedcd63f03300f0c57e16840df040f15088dc2f81fe391c3923bec73e23a9662efc9c229c6a00339759585899103d2ace64958e37e18ccb0504652c81d4a1b8aa80fe2126ab95a164736f6c634300081a000a","linkReferences":{}},"methodIdentifiers":{"DEFAULT_ADMIN_ROLE()":"a217fddf","MAINTAINER_ROLE()":"f8742254","NATIVE_TOKEN_POINTER()":"20b2cf9f","PAUSER_ROLE()":"e63ab1e9","SWAPPER_ROLE()":"df668eca","TEL_MINT()":"bd890c09","UPGRADE_INTERFACE_VERSION()":"ad3cb1cc","UpdateXYZ(address,bool,uint256,uint256)":"e9aea396","__StablecoinHandler_init()":"924855fa","__StablecoinHandler_init_unchained()":"3598e3dc","drip(address)":"67a5cd06","getDripAmount()":"817204a4","getEnabledXYZs()":"69e2fda4","getEnabledXYZsWithMetadata()":"1a0d6c2e","getLastFulfilledDripTimestamp(address,address)":"c5b059e7","getMaxLimit(address)":"4f9c2c26","getMinLimit(address)":"956794b1","getNativeDripAmount()":"7ad73baf","getRoleAdmin(bytes32)":"248a9ca3","grantRole(bytes32,address)":"2f2ff15d","hasRole(bytes32,address)":"91d14854","initialize((address,address,address[],uint256,uint256,uint256,uint256))":"cd879d34","isEnabledXYZ(address)":"b4fc1335","isXYZ(address)":"1a95e05d","pause()":"8456cb59","paused()":"5c975abb","proxiableUUID()":"52d1902d","renounceRole(bytes32,address)":"36568abe","rescueCrypto(address,uint256)":"40c66f78","revokeRole(bytes32,address)":"d547741f","setDripAmount(uint256)":"543f8c58","setNativeDripAmount(uint256)":"959042a2","stablecoinSwap(address,(address,address,address,uint256,address,uint256,address,address,uint256))":"86f117de","supportsInterface(bytes4)":"01ffc9a7","unpause()":"3f4ba83a","upgradeToAndCall(address,bytes)":"4f1ef286"},"id":68}