{"abi":[{"type":"constructor","inputs":[{"name":"strategies","type":"uint8[]","internalType":"uint8[]"},{"name":"values","type":"uint64[]","internalType":"uint64[]"},{"name":"datas","type":"uint128[]","internalType":"uint128[]"},{"name":"owner_","type":"address","internalType":"address"}],"stateMutability":"nonpayable"},{"type":"function","name":"MAX_STRATEGY","inputs":[],"outputs":[{"name":"","type":"uint8","internalType":"uint8"}],"stateMutability":"view"},{"type":"function","name":"MIN_GAS","inputs":[],"outputs":[{"name":"","type":"uint64","internalType":"uint64"}],"stateMutability":"view"},{"type":"function","name":"acceptOwnership","inputs":[],"outputs":[],"stateMutability":"nonpayable"},{"type":"function","name":"getAllWorkerConfigs","inputs":[],"outputs":[{"name":"count","type":"uint16","internalType":"uint16"},{"name":"strategies_","type":"uint8[]","internalType":"uint8[]"},{"name":"values_","type":"uint64[]","internalType":"uint64[]"},{"name":"datas_","type":"uint128[]","internalType":"uint128[]"}],"stateMutability":"view"},{"type":"function","name":"getWorkerConfig","inputs":[{"name":"workerId","type":"uint16","internalType":"uint16"}],"outputs":[{"name":"strategy","type":"uint8","internalType":"uint8"},{"name":"value","type":"uint64","internalType":"uint64"},{"name":"data","type":"uint128","internalType":"uint128"}],"stateMutability":"view"},{"type":"function","name":"numWorkers","inputs":[],"outputs":[{"name":"","type":"uint16","internalType":"uint16"}],"stateMutability":"view"},{"type":"function","name":"owner","inputs":[],"outputs":[{"name":"","type":"address","internalType":"address"}],"stateMutability":"view"},{"type":"function","name":"pendingOwner","inputs":[],"outputs":[{"name":"","type":"address","internalType":"address"}],"stateMutability":"view"},{"type":"function","name":"renounceOwnership","inputs":[],"outputs":[],"stateMutability":"nonpayable"},{"type":"function","name":"setNumWorkers","inputs":[{"name":"numWorkers_","type":"uint16","internalType":"uint16"}],"outputs":[],"stateMutability":"nonpayable"},{"type":"function","name":"setWorkerConfig","inputs":[{"name":"workerId","type":"uint16","internalType":"uint16"},{"name":"strategy","type":"uint8","internalType":"uint8"},{"name":"value","type":"uint64","internalType":"uint64"},{"name":"data","type":"uint128","internalType":"uint128"}],"outputs":[],"stateMutability":"nonpayable"},{"type":"function","name":"setWorkerConfigsBatch","inputs":[{"name":"workerIds","type":"uint16[]","internalType":"uint16[]"},{"name":"strategies","type":"uint8[]","internalType":"uint8[]"},{"name":"values","type":"uint64[]","internalType":"uint64[]"},{"name":"datas","type":"uint128[]","internalType":"uint128[]"}],"outputs":[],"stateMutability":"nonpayable"},{"type":"function","name":"transferOwnership","inputs":[{"name":"newOwner","type":"address","internalType":"address"}],"outputs":[],"stateMutability":"nonpayable"},{"type":"event","name":"NumWorkersUpdated","inputs":[{"name":"oldValue","type":"uint16","indexed":false,"internalType":"uint16"},{"name":"newValue","type":"uint16","indexed":false,"internalType":"uint16"}],"anonymous":false},{"type":"event","name":"OwnershipTransferStarted","inputs":[{"name":"previousOwner","type":"address","indexed":true,"internalType":"address"},{"name":"newOwner","type":"address","indexed":true,"internalType":"address"}],"anonymous":false},{"type":"event","name":"OwnershipTransferred","inputs":[{"name":"previousOwner","type":"address","indexed":true,"internalType":"address"},{"name":"newOwner","type":"address","indexed":true,"internalType":"address"}],"anonymous":false},{"type":"event","name":"WorkerConfigUpdated","inputs":[{"name":"workerId","type":"uint256","indexed":true,"internalType":"uint256"},{"name":"strategy","type":"uint8","indexed":false,"internalType":"uint8"},{"name":"value","type":"uint64","indexed":false,"internalType":"uint64"},{"name":"data","type":"uint128","indexed":false,"internalType":"uint128"}],"anonymous":false},{"type":"error","name":"InvalidStrategy","inputs":[{"name":"strategy","type":"uint8","internalType":"uint8"}]},{"type":"error","name":"LengthMismatch","inputs":[]},{"type":"error","name":"MissingWorkerConfig","inputs":[{"name":"workerId","type":"uint256","internalType":"uint256"}]},{"type":"error","name":"NumWorkersBelowMinimum","inputs":[]},{"type":"error","name":"NumWorkersUnchanged","inputs":[]},{"type":"error","name":"OwnableInvalidOwner","inputs":[{"name":"owner","type":"address","internalType":"address"}]},{"type":"error","name":"OwnableUnauthorizedAccount","inputs":[{"name":"account","type":"address","internalType":"address"}]}],"bytecode":{"object":"0x608060405234801561000f575f80fd5b5060405161146338038061146383398101604081905261002e916104f0565b806001600160a01b03811661005d57604051631e4fbdf760e01b81525f60048201526024015b60405180910390fd5b61006681610317565b50835161ffff81165f0361008d5760405163237d57e760e11b815260040160405180910390fd5b83518161ffff161415806100a6575082518161ffff1614155b156100c7576040516001621398b960e31b0319815260040160405180910390fd5b6001805461ffff60a01b1916600160a01b61ffff8416021790555f5b8161ffff1681101561030c57600160ff16868281518110610106576101066105f5565b602002602001015160ff16111561015457858181518110610129576101296105f5565b60200260200101516040516395e8684760e01b8152600401610054919060ff91909116815260200190565b6040518060600160405280878381518110610171576101716105f5565b602002602001015160ff168152602001868381518110610193576101936105f5565b60200260200101516001600160401b031681526020018583815181106101bb576101bb6105f5565b6020908102919091018101516001600160801b039081169092525f848152600282526040808220855181548786015197840151909616690100000000000000000002600160481b600160c81b03196001600160401b03909816610100026001600160481b031990971660ff90921691909117959095179590951693909317909355600390529020805460ff19166001179055855161ffff8216907f23abd3f836ff9196897dc19fe4cfddd81d371ef834c741aa5a301184b95019a490889084908110610289576102896105f5565b60200260200101518784815181106102a3576102a36105f5565b60200260200101518785815181106102bd576102bd6105f5565b60200260200101516040516102fc9392919060ff9390931683526001600160401b039190911660208301526001600160801b0316604082015260600190565b60405180910390a26001016100e3565b505050505050610609565b600180546001600160a01b031916905561033081610333565b50565b5f80546001600160a01b038381166001600160a01b0319831681178455604051919092169283917f8be0079c531659141344cd1fd0a4f28419497f9722a3daafe3b4186f6b6457e09190a35050565b634e487b7160e01b5f52604160045260245ffd5b604051601f8201601f191681016001600160401b03811182821017156103be576103be610382565b604052919050565b5f6001600160401b038211156103de576103de610382565b5060051b60200190565b5f82601f8301126103f7575f80fd5b815161040a610405826103c6565b610396565b8082825260208201915060208360051b86010192508583111561042b575f80fd5b602085015b8381101561045c5780516001600160401b038116811461044e575f80fd5b835260209283019201610430565b5095945050505050565b5f82601f830112610475575f80fd5b8151610483610405826103c6565b8082825260208201915060208360051b8601019250858311156104a4575f80fd5b602085015b8381101561045c5780516001600160801b03811681146104c7575f80fd5b8352602092830192016104a9565b80516001600160a01b03811681146104eb575f80fd5b919050565b5f805f8060808587031215610503575f80fd5b84516001600160401b03811115610518575f80fd5b8501601f81018713610528575f80fd5b8051610536610405826103c6565b8082825260208201915060208360051b850101925089831115610557575f80fd5b6020840193505b8284101561058757835160ff81168114610576575f80fd5b82526020938401939091019061055e565b6020890151909750925050506001600160401b038111156105a6575f80fd5b6105b2878288016103e8565b604087015190945090506001600160401b038111156105cf575f80fd5b6105db87828801610466565b9250506105ea606086016104d5565b905092959194509250565b634e487b7160e01b5f52603260045260245ffd5b610e4d806106165f395ff3fe608060405234801561000f575f80fd5b50600436106100cb575f3560e01c806379ba5097116100885780638da5cb5b116100635780638da5cb5b146101d4578063de7d1ab7146101f8578063e30c397814610212578063f2fde38b14610223575f80fd5b806379ba50971461015e5780637bedc791146101665780638235c3f71461017e575f80fd5b8063115163e9146100cf57806320d2c951146100e457806357eb3b30146101085780636b87694b14610130578063715018a614610143578063769d2bbf1461014b575b5f80fd5b6100e26100dd366004610afc565b610236565b005b6100eb5f81565b6040516001600160401b0390911681526020015b60405180910390f35b60015461011d90600160a01b900461ffff1681565b60405161ffff90911681526020016100ff565b6100e261013e366004610c18565b610576565b6100e261068a565b6100e2610159366004610c69565b61069d565b6100e26107a7565b61016e6107eb565b6040516100ff9493929190610ccc565b6101c561018c366004610c69565b61ffff165f9081526002602052604090205460ff81169161010082046001600160401b031691600160481b90046001600160801b031690565b6040516100ff93929190610d7a565b5f546001600160a01b03165b6040516001600160a01b0390911681526020016100ff565b610200600181565b60405160ff90911681526020016100ff565b6001546001600160a01b03166101e0565b6100e2610231366004610da7565b6109b6565b61023e610a26565b868514158061024d5750868314155b806102585750868114155b15610279576040516001621398b960e31b0319815260040160405180910390fd5b5f5b8781101561056b57600187878381811061029757610297610dcd565b90506020020160208101906102ac9190610de1565b60ff161115610300578686828181106102c7576102c7610dcd565b90506020020160208101906102dc9190610de1565b6040516395e8684760e01b815260ff90911660048201526024015b60405180910390fd5b604051806060016040528088888481811061031d5761031d610dcd565b90506020020160208101906103329190610de1565b60ff16815260200186868481811061034c5761034c610dcd565b90506020020160208101906103619190610dfa565b6001600160401b0316815260200184848481811061038157610381610dcd565b90506020020160208101906103969190610e13565b6001600160801b0316905260025f8b8b858181106103b6576103b6610dcd565b90506020020160208101906103cb9190610c69565b61ffff16815260208082019290925260409081015f908120845181549486015195909301516001600160801b0316600160481b02600160481b600160c81b03196001600160401b039096166101000268ffffffffffffffffff1990951660ff9094169390931793909317939093161790556001906003908b8b8581811061045457610454610dcd565b90506020020160208101906104699190610c69565b61ffff16815260208101919091526040015f20805460ff191691151591909117905588888281811061049d5761049d610dcd565b90506020020160208101906104b29190610c69565b61ffff167f23abd3f836ff9196897dc19fe4cfddd81d371ef834c741aa5a301184b95019a48888848181106104e9576104e9610dcd565b90506020020160208101906104fe9190610de1565b87878581811061051057610510610dcd565b90506020020160208101906105259190610dfa565b86868681811061053757610537610dcd565b905060200201602081019061054c9190610e13565b60405161055b93929190610d7a565b60405180910390a260010161027b565b505050505050505050565b61057e610a26565b600160ff841611156105a8576040516395e8684760e01b815260ff841660048201526024016102f7565b6040805160608101825260ff80861682526001600160401b0380861660208085019182526001600160801b0380881686880190815261ffff8c165f818152600285528981209851895496519351909416600160481b02600160481b600160c81b0319939097166101000268ffffffffffffffffff19909616939097169290921793909317929092169290921790935560039052829020805460ff1916600117905590517f23abd3f836ff9196897dc19fe4cfddd81d371ef834c741aa5a301184b95019a49061067c90869086908690610d7a565b60405180910390a250505050565b610692610a26565b61069b5f610a52565b565b6106a5610a26565b8061ffff165f036106c95760405163237d57e760e11b815260040160405180910390fd5b60015461ffff600160a01b9091048116908216036106fa57604051633f97b70f60e21b815260040160405180910390fd5b5f5b8161ffff16811015610741575f8181526003602052604090205460ff16610739576040516308254a5360e31b8152600481018290526024016102f7565b6001016106fc565b506001805461ffff838116600160a01b81810261ffff60a01b1985161790945560408051949093049091168084526020840191909152917f93dd64ec71739a5c733d508727b3cb47c968a560417f1da17fe560bc8875a59b910160405180910390a15050565b60015433906001600160a01b031681146107df5760405163118cdaa760e01b81526001600160a01b03821660048201526024016102f7565b6107e881610a52565b50565b600154600160a01b900461ffff1660608080836001600160401b0381111561081557610815610e2c565b60405190808252806020026020018201604052801561083e578160200160208202803683370190505b5092508361ffff166001600160401b0381111561085d5761085d610e2c565b604051908082528060200260200182016040528015610886578160200160208202803683370190505b5091508361ffff166001600160401b038111156108a5576108a5610e2c565b6040519080825280602002602001820160405280156108ce578160200160208202803683370190505b5090505f5b8461ffff168110156109af575f8181526002602052604090208054855160ff9091169086908490811061090857610908610dcd565b602002602001019060ff16908160ff1681525050805f0160019054906101000a90046001600160401b031684838151811061094557610945610dcd565b60200260200101906001600160401b031690816001600160401b031681525050805f0160099054906101000a90046001600160801b031683838151811061098e5761098e610dcd565b6001600160801b0390921660209283029190910190910152506001016108d3565b5090919293565b6109be610a26565b600180546001600160a01b0383166001600160a01b031990911681179091556109ee5f546001600160a01b031690565b6001600160a01b03167f38d16b8cac22d99fc7c124b9cd0de2d3fa1faef420bfe791d8c362d765e2270060405160405180910390a350565b5f546001600160a01b0316331461069b5760405163118cdaa760e01b81523360048201526024016102f7565b600180546001600160a01b03191690556107e8815f80546001600160a01b038381166001600160a01b0319831681178455604051919092169283917f8be0079c531659141344cd1fd0a4f28419497f9722a3daafe3b4186f6b6457e09190a35050565b5f8083601f840112610ac5575f80fd5b5081356001600160401b03811115610adb575f80fd5b6020830191508360208260051b8501011115610af5575f80fd5b9250929050565b5f805f805f805f806080898b031215610b13575f80fd5b88356001600160401b03811115610b28575f80fd5b610b348b828c01610ab5565b90995097505060208901356001600160401b03811115610b52575f80fd5b610b5e8b828c01610ab5565b90975095505060408901356001600160401b03811115610b7c575f80fd5b610b888b828c01610ab5565b90955093505060608901356001600160401b03811115610ba6575f80fd5b610bb28b828c01610ab5565b999c989b5096995094979396929594505050565b803561ffff81168114610bd7575f80fd5b919050565b803560ff81168114610bd7575f80fd5b80356001600160401b0381168114610bd7575f80fd5b80356001600160801b0381168114610bd7575f80fd5b5f805f8060808587031215610c2b575f80fd5b610c3485610bc6565b9350610c4260208601610bdc565b9250610c5060408601610bec565b9150610c5e60608601610c02565b905092959194509250565b5f60208284031215610c79575f80fd5b610c8282610bc6565b9392505050565b5f8151808452602084019350602083015f5b82811015610cc25781516001600160801b0316865260209586019590910190600101610c9b565b5093949350505050565b5f6080820161ffff871683526080602084015280865180835260a0850191506020880192505f5b81811015610d1457835160ff16835260209384019390920191600101610cf3565b50508381036040850152855180825260209182019250908601905f90815b81811015610d595783516001600160401b0316855260209485019490930192600101610d32565b505050508281036060840152610d6f8185610c89565b979650505050505050565b60ff9390931683526001600160401b039190911660208301526001600160801b0316604082015260600190565b5f60208284031215610db7575f80fd5b81356001600160a01b0381168114610c82575f80fd5b634e487b7160e01b5f52603260045260245ffd5b5f60208284031215610df1575f80fd5b610c8282610bdc565b5f60208284031215610e0a575f80fd5b610c8282610bec565b5f60208284031215610e23575f80fd5b610c8282610c02565b634e487b7160e01b5f52604160045260245ffdfea164736f6c634300081a000a","linkReferences":{}},"methodIdentifiers":{"MAX_STRATEGY()":"de7d1ab7","MIN_GAS()":"20d2c951","acceptOwnership()":"79ba5097","getAllWorkerConfigs()":"7bedc791","getWorkerConfig(uint16)":"8235c3f7","numWorkers()":"57eb3b30","owner()":"8da5cb5b","pendingOwner()":"e30c3978","renounceOwnership()":"715018a6","setNumWorkers(uint16)":"769d2bbf","setWorkerConfig(uint16,uint8,uint64,uint128)":"6b87694b","setWorkerConfigsBatch(uint16[],uint8[],uint64[],uint128[])":"115163e9","transferOwnership(address)":"f2fde38b"},"id":103}