{"abi":[{"type":"constructor","inputs":[{"name":"strategies","type":"uint8[]","internalType":"uint8[]"},{"name":"values","type":"uint64[]","internalType":"uint64[]"},{"name":"owner_","type":"address","internalType":"address"}],"stateMutability":"nonpayable"},{"type":"function","name":"MIN_GAS","inputs":[],"outputs":[{"name":"","type":"uint64","internalType":"uint64"}],"stateMutability":"view"},{"type":"function","name":"getWorkerConfig","inputs":[{"name":"workerId","type":"uint16","internalType":"uint16"}],"outputs":[{"name":"strategy","type":"uint8","internalType":"uint8"},{"name":"value","type":"uint64","internalType":"uint64"}],"stateMutability":"view"},{"type":"function","name":"numWorkers","inputs":[],"outputs":[{"name":"","type":"uint16","internalType":"uint16"}],"stateMutability":"view"},{"type":"function","name":"owner","inputs":[],"outputs":[{"name":"","type":"address","internalType":"address"}],"stateMutability":"view"},{"type":"function","name":"renounceOwnership","inputs":[],"outputs":[],"stateMutability":"nonpayable"},{"type":"function","name":"setNumWorkers","inputs":[{"name":"numWorkers_","type":"uint16","internalType":"uint16"}],"outputs":[],"stateMutability":"nonpayable"},{"type":"function","name":"setWorkerConfig","inputs":[{"name":"workerId","type":"uint16","internalType":"uint16"},{"name":"strategy","type":"uint8","internalType":"uint8"},{"name":"value","type":"uint64","internalType":"uint64"}],"outputs":[],"stateMutability":"nonpayable"},{"type":"function","name":"transferOwnership","inputs":[{"name":"newOwner","type":"address","internalType":"address"}],"outputs":[],"stateMutability":"nonpayable"},{"type":"event","name":"NumWorkersUpdated","inputs":[{"name":"oldValue","type":"uint16","indexed":false,"internalType":"uint16"},{"name":"newValue","type":"uint16","indexed":false,"internalType":"uint16"}],"anonymous":false},{"type":"event","name":"OwnershipTransferred","inputs":[{"name":"previousOwner","type":"address","indexed":true,"internalType":"address"},{"name":"newOwner","type":"address","indexed":true,"internalType":"address"}],"anonymous":false},{"type":"event","name":"WorkerConfigUpdated","inputs":[{"name":"workerId","type":"uint16","indexed":true,"internalType":"uint16"},{"name":"strategy","type":"uint8","indexed":false,"internalType":"uint8"},{"name":"value","type":"uint64","indexed":false,"internalType":"uint64"}],"anonymous":false},{"type":"error","name":"LengthMismatch","inputs":[]},{"type":"error","name":"MissingWorkerConfig","inputs":[{"name":"workerId","type":"uint16","internalType":"uint16"}]},{"type":"error","name":"OwnableInvalidOwner","inputs":[{"name":"owner","type":"address","internalType":"address"}]},{"type":"error","name":"OwnableUnauthorizedAccount","inputs":[{"name":"account","type":"address","internalType":"address"}]},{"type":"error","name":"ValueBelowMinGas","inputs":[{"name":"value","type":"uint64","internalType":"uint64"}]}],"bytecode":{"object":"0x608060405234801561000f575f80fd5b506040516108f63803806108f683398101604081905261002e91610334565b806001600160a01b03811661005d57604051631e4fbdf760e01b81525f60048201526024015b60405180910390fd5b610066816101e6565b50815183511461008c576040516001621398b960e31b0319815260040160405180910390fd5b82515f805461ffff60a01b1916600160a01b61ffff8416021781555b8161ffff168161ffff1610156101dc5760076001600160401b0316848261ffff16815181106100d9576100d961040d565b60200260200101516001600160401b0316101561013757838161ffff16815181106101065761010661040d565b60200260200101516040516310332b1d60e21b815260040161005491906001600160401b0391909116815260200190565b6040518060400160405280868361ffff16815181106101585761015861040d565b602002602001015160ff168152602001858361ffff168151811061017e5761017e61040d565b6020908102919091018101516001600160401b0390811690925261ffff84165f90815260018083526040909120845181549590930151909316610100026001600160481b031990941660ff90921691909117929092179055016100a8565b5050505050610421565b5f80546001600160a01b038381166001600160a01b0319831681178455604051919092169283917f8be0079c531659141344cd1fd0a4f28419497f9722a3daafe3b4186f6b6457e09190a35050565b634e487b7160e01b5f52604160045260245ffd5b604051601f8201601f191681016001600160401b038111828210171561027157610271610235565b604052919050565b5f6001600160401b0382111561029157610291610235565b5060051b60200190565b5f82601f8301126102aa575f80fd5b81516102bd6102b882610279565b610249565b8082825260208201915060208360051b8601019250858311156102de575f80fd5b602085015b8381101561030f5780516001600160401b0381168114610301575f80fd5b8352602092830192016102e3565b5095945050505050565b80516001600160a01b038116811461032f575f80fd5b919050565b5f805f60608486031215610346575f80fd5b83516001600160401b0381111561035b575f80fd5b8401601f8101861361036b575f80fd5b80516103796102b882610279565b8082825260208201915060208360051b85010192508883111561039a575f80fd5b6020840193505b828410156103ca57835160ff811681146103b9575f80fd5b8252602093840193909101906103a1565b6020880151909650925050506001600160401b038111156103e9575f80fd5b6103f58682870161029b565b92505061040460408501610319565b90509250925092565b634e487b7160e01b5f52603260045260245ffd5b6104c88061042e5f395ff3fe608060405234801561000f575f80fd5b5060043610610084575f3560e01c8063769d2bbf11610058578063769d2bbf146100f25780638235c3f7146101055780638da5cb5b1461015f578063f2fde38b14610179575f80fd5b8062d506bb1461008857806320d2c9511461009d57806357eb3b30146100c3578063715018a6146100ea575b5f80fd5b61009b61009636600461041e565b61018c565b005b6100a5600781565b60405167ffffffffffffffff90911681526020015b60405180910390f35b5f546100d790600160a01b900461ffff1681565b60405161ffff90911681526020016100ba565b61009b61026c565b61009b610100366004610475565b61027f565b61013d610113366004610475565b61ffff165f9081526001602052604090205460ff81169161010090910467ffffffffffffffff1690565b6040805160ff909316835267ffffffffffffffff9091166020830152016100ba565b5f546040516001600160a01b0390911681526020016100ba565b61009b610187366004610495565b610350565b61019461038d565b600767ffffffffffffffff821610156101d1576040516310332b1d60e21b815267ffffffffffffffff821660048201526024015b60405180910390fd5b60408051808201825260ff84811680835267ffffffffffffffff858116602080860182815261ffff8b165f818152600184528990209751885492519095166101000268ffffffffffffffffff199092169490961693909317929092179094558451918252810192909252917f963fb8e9f43903fc56a84903db6be272ba12d795cee26514e5c608032f5807d0910160405180910390a2505050565b61027461038d565b61027d5f6103b9565b565b61028761038d565b5f5b8161ffff168161ffff1610156102eb5761ffff81165f90815260016020526040902054600761010090910467ffffffffffffffff1610156102e35760405163017227eb60e01b815261ffff821660048201526024016101c8565b600101610289565b505f805461ffff838116600160a01b81810261ffff60a01b1985161790945560408051949093049091168084526020840191909152917f93dd64ec71739a5c733d508727b3cb47c968a560417f1da17fe560bc8875a59b910160405180910390a15050565b61035861038d565b6001600160a01b03811661038157604051631e4fbdf760e01b81525f60048201526024016101c8565b61038a816103b9565b50565b5f546001600160a01b0316331461027d5760405163118cdaa760e01b81523360048201526024016101c8565b5f80546001600160a01b038381166001600160a01b0319831681178455604051919092169283917f8be0079c531659141344cd1fd0a4f28419497f9722a3daafe3b4186f6b6457e09190a35050565b803561ffff81168114610419575f80fd5b919050565b5f805f60608486031215610430575f80fd5b61043984610408565b9250602084013560ff8116811461044e575f80fd5b9150604084013567ffffffffffffffff8116811461046a575f80fd5b809150509250925092565b5f60208284031215610485575f80fd5b61048e82610408565b9392505050565b5f602082840312156104a5575f80fd5b81356001600160a01b038116811461048e575f80fdfea164736f6c634300081a000a","linkReferences":{}},"methodIdentifiers":{"MIN_GAS()":"20d2c951","getWorkerConfig(uint16)":"8235c3f7","numWorkers()":"57eb3b30","owner()":"8da5cb5b","renounceOwnership()":"715018a6","setNumWorkers(uint16)":"769d2bbf","setWorkerConfig(uint16,uint8,uint64)":"00d506bb","transferOwnership(address)":"f2fde38b"},"id":101}