{"abi":[{"type":"constructor","inputs":[{"name":"strategies","type":"uint8[]","internalType":"uint8[]"},{"name":"values","type":"uint64[]","internalType":"uint64[]"},{"name":"owner_","type":"address","internalType":"address"}],"stateMutability":"nonpayable"},{"type":"function","name":"MAX_STRATEGY","inputs":[],"outputs":[{"name":"","type":"uint8","internalType":"uint8"}],"stateMutability":"view"},{"type":"function","name":"MIN_GAS","inputs":[],"outputs":[{"name":"","type":"uint64","internalType":"uint64"}],"stateMutability":"view"},{"type":"function","name":"acceptOwnership","inputs":[],"outputs":[],"stateMutability":"nonpayable"},{"type":"function","name":"getAllWorkerConfigs","inputs":[],"outputs":[{"name":"count","type":"uint16","internalType":"uint16"},{"name":"strategies_","type":"uint8[]","internalType":"uint8[]"},{"name":"values_","type":"uint64[]","internalType":"uint64[]"}],"stateMutability":"view"},{"type":"function","name":"getWorkerConfig","inputs":[{"name":"workerId","type":"uint16","internalType":"uint16"}],"outputs":[{"name":"strategy","type":"uint8","internalType":"uint8"},{"name":"value","type":"uint64","internalType":"uint64"}],"stateMutability":"view"},{"type":"function","name":"numWorkers","inputs":[],"outputs":[{"name":"","type":"uint16","internalType":"uint16"}],"stateMutability":"view"},{"type":"function","name":"owner","inputs":[],"outputs":[{"name":"","type":"address","internalType":"address"}],"stateMutability":"view"},{"type":"function","name":"pendingOwner","inputs":[],"outputs":[{"name":"","type":"address","internalType":"address"}],"stateMutability":"view"},{"type":"function","name":"renounceOwnership","inputs":[],"outputs":[],"stateMutability":"nonpayable"},{"type":"function","name":"setNumWorkers","inputs":[{"name":"numWorkers_","type":"uint16","internalType":"uint16"}],"outputs":[],"stateMutability":"nonpayable"},{"type":"function","name":"setWorkerConfig","inputs":[{"name":"workerId","type":"uint16","internalType":"uint16"},{"name":"strategy","type":"uint8","internalType":"uint8"},{"name":"value","type":"uint64","internalType":"uint64"}],"outputs":[],"stateMutability":"nonpayable"},{"type":"function","name":"setWorkerConfigsBatch","inputs":[{"name":"workerIds","type":"uint16[]","internalType":"uint16[]"},{"name":"strategies","type":"uint8[]","internalType":"uint8[]"},{"name":"values","type":"uint64[]","internalType":"uint64[]"}],"outputs":[],"stateMutability":"nonpayable"},{"type":"function","name":"transferOwnership","inputs":[{"name":"newOwner","type":"address","internalType":"address"}],"outputs":[],"stateMutability":"nonpayable"},{"type":"event","name":"NumWorkersUpdated","inputs":[{"name":"oldValue","type":"uint16","indexed":false,"internalType":"uint16"},{"name":"newValue","type":"uint16","indexed":false,"internalType":"uint16"}],"anonymous":false},{"type":"event","name":"OwnershipTransferStarted","inputs":[{"name":"previousOwner","type":"address","indexed":true,"internalType":"address"},{"name":"newOwner","type":"address","indexed":true,"internalType":"address"}],"anonymous":false},{"type":"event","name":"OwnershipTransferred","inputs":[{"name":"previousOwner","type":"address","indexed":true,"internalType":"address"},{"name":"newOwner","type":"address","indexed":true,"internalType":"address"}],"anonymous":false},{"type":"event","name":"WorkerConfigUpdated","inputs":[{"name":"workerId","type":"uint256","indexed":true,"internalType":"uint256"},{"name":"strategy","type":"uint8","indexed":false,"internalType":"uint8"},{"name":"value","type":"uint64","indexed":false,"internalType":"uint64"}],"anonymous":false},{"type":"error","name":"InvalidStrategy","inputs":[{"name":"strategy","type":"uint8","internalType":"uint8"}]},{"type":"error","name":"LengthMismatch","inputs":[]},{"type":"error","name":"MissingWorkerConfig","inputs":[{"name":"workerId","type":"uint256","internalType":"uint256"}]},{"type":"error","name":"NumWorkersBelowMinimum","inputs":[]},{"type":"error","name":"NumWorkersUnchanged","inputs":[]},{"type":"error","name":"OwnableInvalidOwner","inputs":[{"name":"owner","type":"address","internalType":"address"}]},{"type":"error","name":"OwnableUnauthorizedAccount","inputs":[{"name":"account","type":"address","internalType":"address"}]}],"bytecode":{"object":"0x608060405234801561000f575f80fd5b506040516110f03803806110f083398101604081905261002e916103ea565b806001600160a01b03811661005d57604051631e4fbdf760e01b81525f60048201526024015b60405180910390fd5b61006681610280565b50825161ffff81165f0361008d5760405163237d57e760e11b815260040160405180910390fd5b82518161ffff16146100b5576040516001621398b960e31b0319815260040160405180910390fd5b6001805461ffff60a01b1916600160a01b61ffff8416021790555f5b8161ffff1681101561027657600160ff168582815181106100f4576100f46104c3565b602002602001015160ff16111561014257848181518110610117576101176104c3565b60200260200101516040516395e8684760e01b8152600401610054919060ff91909116815260200190565b604051806040016040528086838151811061015f5761015f6104c3565b602002602001015160ff168152602001858381518110610181576101816104c3565b6020908102919091018101516001600160401b039081169092525f8481526002825260408082208551815496850151909516610100026001600160481b031990961660ff90951694909417949094179092556003905220805460ff19166001179055845161ffff8216907ff180fb520adc17c274b96e9d8454cf6f2066192f458b68071f80d708b17ca98d9087908490811061021f5761021f6104c3565b6020026020010151868481518110610239576102396104c3565b602002602001015160405161026692919060ff9290921682526001600160401b0316602082015260400190565b60405180910390a26001016100d1565b50505050506104d7565b600180546001600160a01b03191690556102998161029c565b50565b5f80546001600160a01b038381166001600160a01b0319831681178455604051919092169283917f8be0079c531659141344cd1fd0a4f28419497f9722a3daafe3b4186f6b6457e09190a35050565b634e487b7160e01b5f52604160045260245ffd5b604051601f8201601f191681016001600160401b0381118282101715610327576103276102eb565b604052919050565b5f6001600160401b03821115610347576103476102eb565b5060051b60200190565b5f82601f830112610360575f80fd5b815161037361036e8261032f565b6102ff565b8082825260208201915060208360051b860101925085831115610394575f80fd5b602085015b838110156103c55780516001600160401b03811681146103b7575f80fd5b835260209283019201610399565b5095945050505050565b80516001600160a01b03811681146103e5575f80fd5b919050565b5f805f606084860312156103fc575f80fd5b83516001600160401b03811115610411575f80fd5b8401601f81018613610421575f80fd5b805161042f61036e8261032f565b8082825260208201915060208360051b850101925088831115610450575f80fd5b6020840193505b8284101561048057835160ff8116811461046f575f80fd5b825260209384019390910190610457565b6020880151909650925050506001600160401b0381111561049f575f80fd5b6104ab86828701610351565b9250506104ba604085016103cf565b90509250925092565b634e487b7160e01b5f52603260045260245ffd5b610c0c806104e45f395ff3fe608060405234801561000f575f80fd5b50600436106100ca575f3560e01c80637bedc79111610088578063de7d1ab711610063578063de7d1ab7146101e5578063e30c3978146101ff578063f0a0f46914610210578063f2fde38b14610223575f80fd5b80637bedc791146101525780638235c3f7146101695780638da5cb5b146101c1575f80fd5b8062d506bb146100ce57806320d2c951146100e357806357eb3b3014610107578063715018a61461012f578063769d2bbf1461013757806379ba50971461014a575b5f80fd5b6100e16100dc3660046109a4565b610236565b005b6100ea5f81565b6040516001600160401b0390911681526020015b60405180910390f35b60015461011c90600160a01b900461ffff1681565b60405161ffff90911681526020016100fe565b6100e1610319565b6100e16101453660046109e4565b61032c565b6100e1610436565b61015a61047a565b6040516100fe93929190610a04565b6101a06101773660046109e4565b61ffff165f9081526002602052604090205460ff8116916101009091046001600160401b031690565b6040805160ff90931683526001600160401b039091166020830152016100fe565b5f546001600160a01b03165b6040516001600160a01b0390911681526020016100fe565b6101ed600181565b60405160ff90911681526020016100fe565b6001546001600160a01b03166101cd565b6100e161021e366004610ae3565b6105b2565b6100e1610231366004610b7f565b610869565b61023e6108d9565b600160ff8316111561026d576040516395e8684760e01b815260ff831660048201526024015b60405180910390fd5b60408051808201825260ff8481168083526001600160401b03858116602080860182815261ffff8b165f818152600284528981209851895493519096166101000268ffffffffffffffffff199093169590971694909417179095556003855292859020805460ff1916600117905584519182529281019190915290917ff180fb520adc17c274b96e9d8454cf6f2066192f458b68071f80d708b17ca98d910160405180910390a2505050565b6103216108d9565b61032a5f610905565b565b6103346108d9565b8061ffff165f036103585760405163237d57e760e11b815260040160405180910390fd5b60015461ffff600160a01b90910481169082160361038957604051633f97b70f60e21b815260040160405180910390fd5b5f5b8161ffff168110156103d0575f8181526003602052604090205460ff166103c8576040516308254a5360e31b815260048101829052602401610264565b60010161038b565b506001805461ffff838116600160a01b81810261ffff60a01b1985161790945560408051949093049091168084526020840191909152917f93dd64ec71739a5c733d508727b3cb47c968a560417f1da17fe560bc8875a59b910160405180910390a15050565b60015433906001600160a01b0316811461046e5760405163118cdaa760e01b81526001600160a01b0382166004820152602401610264565b61047781610905565b50565b600154600160a01b900461ffff16606080826001600160401b038111156104a3576104a3610ba5565b6040519080825280602002602001820160405280156104cc578160200160208202803683370190505b5091508261ffff166001600160401b038111156104eb576104eb610ba5565b604051908082528060200260200182016040528015610514578160200160208202803683370190505b5090505f5b8361ffff168110156105ac575f8181526002602052604090208054845160ff9091169085908490811061054e5761054e610bb9565b602002602001019060ff16908160ff1681525050805f0160019054906101000a90046001600160401b031683838151811061058b5761058b610bb9565b6001600160401b039092166020928302919091019091015250600101610519565b50909192565b6105ba6108d9565b84831415806105c95750848114155b156105ea576040516001621398b960e31b0319815260040160405180910390fd5b5f5b8581101561086057600185858381811061060857610608610bb9565b905060200201602081019061061d9190610bcd565b60ff16111561066c5784848281811061063857610638610bb9565b905060200201602081019061064d9190610bcd565b6040516395e8684760e01b815260ff9091166004820152602401610264565b604051806040016040528086868481811061068957610689610bb9565b905060200201602081019061069e9190610bcd565b60ff1681526020018484848181106106b8576106b8610bb9565b90506020020160208101906106cd9190610be6565b6001600160401b0316905260025f8989858181106106ed576106ed610bb9565b905060200201602081019061070291906109e4565b61ffff1681526020808201929092526040015f9081208351815494909301516001600160401b03166101000268ffffffffffffffffff1990941660ff9093169290921792909217905560019060039089898581811061076357610763610bb9565b905060200201602081019061077891906109e4565b61ffff16815260208101919091526040015f20805460ff19169115159190911790558686828181106107ac576107ac610bb9565b90506020020160208101906107c191906109e4565b61ffff167ff180fb520adc17c274b96e9d8454cf6f2066192f458b68071f80d708b17ca98d8686848181106107f8576107f8610bb9565b905060200201602081019061080d9190610bcd565b85858581811061081f5761081f610bb9565b90506020020160208101906108349190610be6565b6040805160ff90931683526001600160401b0390911660208301520160405180910390a26001016105ec565b50505050505050565b6108716108d9565b600180546001600160a01b0383166001600160a01b031990911681179091556108a15f546001600160a01b031690565b6001600160a01b03167f38d16b8cac22d99fc7c124b9cd0de2d3fa1faef420bfe791d8c362d765e2270060405160405180910390a350565b5f546001600160a01b0316331461032a5760405163118cdaa760e01b8152336004820152602401610264565b600180546001600160a01b0319169055610477815f80546001600160a01b038381166001600160a01b0319831681178455604051919092169283917f8be0079c531659141344cd1fd0a4f28419497f9722a3daafe3b4186f6b6457e09190a35050565b803561ffff81168114610979575f80fd5b919050565b803560ff81168114610979575f80fd5b80356001600160401b0381168114610979575f80fd5b5f805f606084860312156109b6575f80fd5b6109bf84610968565b92506109cd6020850161097e565b91506109db6040850161098e565b90509250925092565b5f602082840312156109f4575f80fd5b6109fd82610968565b9392505050565b5f6060820161ffff86168352606060208401528085518083526080850191506020870192505f5b81811015610a4c57835160ff16835260209384019390920191600101610a2b565b50508381036040850152845180825260209182019250908501905f5b81811015610a8f5782516001600160401b0316845260209384019390920191600101610a68565b5091979650505050505050565b5f8083601f840112610aac575f80fd5b5081356001600160401b03811115610ac2575f80fd5b6020830191508360208260051b8501011115610adc575f80fd5b9250929050565b5f805f805f8060608789031215610af8575f80fd5b86356001600160401b03811115610b0d575f80fd5b610b1989828a01610a9c565b90975095505060208701356001600160401b03811115610b37575f80fd5b610b4389828a01610a9c565b90955093505060408701356001600160401b03811115610b61575f80fd5b610b6d89828a01610a9c565b979a9699509497509295939492505050565b5f60208284031215610b8f575f80fd5b81356001600160a01b03811681146109fd575f80fd5b634e487b7160e01b5f52604160045260245ffd5b634e487b7160e01b5f52603260045260245ffd5b5f60208284031215610bdd575f80fd5b6109fd8261097e565b5f60208284031215610bf6575f80fd5b6109fd8261098e56fea164736f6c634300081a000a","linkReferences":{}},"methodIdentifiers":{"MAX_STRATEGY()":"de7d1ab7","MIN_GAS()":"20d2c951","acceptOwnership()":"79ba5097","getAllWorkerConfigs()":"7bedc791","getWorkerConfig(uint16)":"8235c3f7","numWorkers()":"57eb3b30","owner()":"8da5cb5b","pendingOwner()":"e30c3978","renounceOwnership()":"715018a6","setNumWorkers(uint16)":"769d2bbf","setWorkerConfig(uint16,uint8,uint64)":"00d506bb","setWorkerConfigsBatch(uint16[],uint8[],uint64[])":"f0a0f469","transferOwnership(address)":"f2fde38b"},"id":22}