{"abi":[{"type":"constructor","inputs":[{"name":"strategies","type":"uint8[]","internalType":"uint8[]"},{"name":"values","type":"uint64[]","internalType":"uint64[]"},{"name":"datas","type":"uint128[]","internalType":"uint128[]"},{"name":"owner_","type":"address","internalType":"address"}],"stateMutability":"nonpayable"},{"type":"function","name":"MAX_STRATEGY","inputs":[],"outputs":[{"name":"","type":"uint8","internalType":"uint8"}],"stateMutability":"view"},{"type":"function","name":"acceptOwnership","inputs":[],"outputs":[],"stateMutability":"nonpayable"},{"type":"function","name":"getAllWorkerConfigs","inputs":[],"outputs":[{"name":"count","type":"uint16","internalType":"uint16"},{"name":"strategies_","type":"uint8[]","internalType":"uint8[]"},{"name":"values_","type":"uint64[]","internalType":"uint64[]"},{"name":"datas_","type":"uint128[]","internalType":"uint128[]"}],"stateMutability":"view"},{"type":"function","name":"getWorkerConfig","inputs":[{"name":"workerId","type":"uint16","internalType":"uint16"}],"outputs":[{"name":"strategy","type":"uint8","internalType":"uint8"},{"name":"value","type":"uint64","internalType":"uint64"},{"name":"data","type":"uint128","internalType":"uint128"}],"stateMutability":"view"},{"type":"function","name":"numWorkers","inputs":[],"outputs":[{"name":"","type":"uint16","internalType":"uint16"}],"stateMutability":"view"},{"type":"function","name":"owner","inputs":[],"outputs":[{"name":"","type":"address","internalType":"address"}],"stateMutability":"view"},{"type":"function","name":"pendingOwner","inputs":[],"outputs":[{"name":"","type":"address","internalType":"address"}],"stateMutability":"view"},{"type":"function","name":"renounceOwnership","inputs":[],"outputs":[],"stateMutability":"nonpayable"},{"type":"function","name":"setNumWorkers","inputs":[{"name":"numWorkers_","type":"uint16","internalType":"uint16"}],"outputs":[],"stateMutability":"nonpayable"},{"type":"function","name":"setWorkerConfig","inputs":[{"name":"workerId","type":"uint16","internalType":"uint16"},{"name":"strategy","type":"uint8","internalType":"uint8"},{"name":"value","type":"uint64","internalType":"uint64"},{"name":"data","type":"uint128","internalType":"uint128"}],"outputs":[],"stateMutability":"nonpayable"},{"type":"function","name":"setWorkerConfigsBatch","inputs":[{"name":"workerIds","type":"uint16[]","internalType":"uint16[]"},{"name":"strategies","type":"uint8[]","internalType":"uint8[]"},{"name":"values","type":"uint64[]","internalType":"uint64[]"},{"name":"datas","type":"uint128[]","internalType":"uint128[]"}],"outputs":[],"stateMutability":"nonpayable"},{"type":"function","name":"transferOwnership","inputs":[{"name":"newOwner","type":"address","internalType":"address"}],"outputs":[],"stateMutability":"nonpayable"},{"type":"event","name":"NumWorkersUpdated","inputs":[{"name":"oldValue","type":"uint16","indexed":false,"internalType":"uint16"},{"name":"newValue","type":"uint16","indexed":false,"internalType":"uint16"}],"anonymous":false},{"type":"event","name":"OwnershipTransferStarted","inputs":[{"name":"previousOwner","type":"address","indexed":true,"internalType":"address"},{"name":"newOwner","type":"address","indexed":true,"internalType":"address"}],"anonymous":false},{"type":"event","name":"OwnershipTransferred","inputs":[{"name":"previousOwner","type":"address","indexed":true,"internalType":"address"},{"name":"newOwner","type":"address","indexed":true,"internalType":"address"}],"anonymous":false},{"type":"event","name":"WorkerConfigUpdated","inputs":[{"name":"workerId","type":"uint256","indexed":true,"internalType":"uint256"},{"name":"strategy","type":"uint8","indexed":false,"internalType":"uint8"},{"name":"value","type":"uint64","indexed":false,"internalType":"uint64"},{"name":"data","type":"uint128","indexed":false,"internalType":"uint128"}],"anonymous":false},{"type":"error","name":"InvalidStrategy","inputs":[{"name":"strategy","type":"uint8","internalType":"uint8"}]},{"type":"error","name":"LengthMismatch","inputs":[]},{"type":"error","name":"MissingWorkerConfig","inputs":[{"name":"workerId","type":"uint256","internalType":"uint256"}]},{"type":"error","name":"NumWorkersBelowMinimum","inputs":[]},{"type":"error","name":"NumWorkersUnchanged","inputs":[]},{"type":"error","name":"OwnableInvalidOwner","inputs":[{"name":"owner","type":"address","internalType":"address"}]},{"type":"error","name":"OwnableUnauthorizedAccount","inputs":[{"name":"account","type":"address","internalType":"address"}]}],"bytecode":{"object":"0x608060405234801561000f575f5ffd5b5060405161142a38038061142a83398101604081905261002e916104f0565b806001600160a01b03811661005d57604051631e4fbdf760e01b81525f60048201526024015b60405180910390fd5b61006681610317565b50835161ffff81165f0361008d5760405163237d57e760e11b815260040160405180910390fd5b83518161ffff161415806100a6575082518161ffff1614155b156100c7576040516001621398b960e31b0319815260040160405180910390fd5b6001805461ffff60a01b1916600160a01b61ffff8416021790555f5b8161ffff1681101561030c57600160ff16868281518110610106576101066105f5565b602002602001015160ff16111561015457858181518110610129576101296105f5565b60200260200101516040516395e8684760e01b8152600401610054919060ff91909116815260200190565b6040518060600160405280878381518110610171576101716105f5565b602002602001015160ff168152602001868381518110610193576101936105f5565b60200260200101516001600160401b031681526020018583815181106101bb576101bb6105f5565b6020908102919091018101516001600160801b039081169092525f848152600282526040808220855181548786015197840151909616690100000000000000000002600160481b600160c81b03196001600160401b03909816610100026001600160481b031990971660ff90921691909117959095179590951693909317909355600390529020805460ff19166001179055855161ffff8216907f23abd3f836ff9196897dc19fe4cfddd81d371ef834c741aa5a301184b95019a490889084908110610289576102896105f5565b60200260200101518784815181106102a3576102a36105f5565b60200260200101518785815181106102bd576102bd6105f5565b60200260200101516040516102fc9392919060ff9390931683526001600160401b039190911660208301526001600160801b0316604082015260600190565b60405180910390a26001016100e3565b505050505050610609565b600180546001600160a01b031916905561033081610333565b50565b5f80546001600160a01b038381166001600160a01b0319831681178455604051919092169283917f8be0079c531659141344cd1fd0a4f28419497f9722a3daafe3b4186f6b6457e09190a35050565b634e487b7160e01b5f52604160045260245ffd5b604051601f8201601f191681016001600160401b03811182821017156103be576103be610382565b604052919050565b5f6001600160401b038211156103de576103de610382565b5060051b60200190565b5f82601f8301126103f7575f5ffd5b815161040a610405826103c6565b610396565b8082825260208201915060208360051b86010192508583111561042b575f5ffd5b602085015b8381101561045c5780516001600160401b038116811461044e575f5ffd5b835260209283019201610430565b5095945050505050565b5f82601f830112610475575f5ffd5b8151610483610405826103c6565b8082825260208201915060208360051b8601019250858311156104a4575f5ffd5b602085015b8381101561045c5780516001600160801b03811681146104c7575f5ffd5b8352602092830192016104a9565b80516001600160a01b03811681146104eb575f5ffd5b919050565b5f5f5f5f60808587031215610503575f5ffd5b84516001600160401b03811115610518575f5ffd5b8501601f81018713610528575f5ffd5b8051610536610405826103c6565b8082825260208201915060208360051b850101925089831115610557575f5ffd5b6020840193505b8284101561058757835160ff81168114610576575f5ffd5b82526020938401939091019061055e565b6020890151909750925050506001600160401b038111156105a6575f5ffd5b6105b2878288016103e8565b604087015190945090506001600160401b038111156105cf575f5ffd5b6105db87828801610466565b9250506105ea606086016104d5565b905092959194509250565b634e487b7160e01b5f52603260045260245ffd5b610e14806106165f395ff3fe608060405234801561000f575f5ffd5b50600436106100b1575f3560e01c80637bedc7911161006e5780637bedc7911461012d5780638235c3f7146101455780638da5cb5b1461019b578063de7d1ab7146101bf578063e30c3978146101d9578063f2fde38b146101ea575f5ffd5b8063115163e9146100b557806357eb3b30146100ca5780636b87694b146100f7578063715018a61461010a578063769d2bbf1461011257806379ba509714610125575b5f5ffd5b6100c86100c3366004610ac3565b6101fd565b005b6001546100df90600160a01b900461ffff1681565b60405161ffff90911681526020015b60405180910390f35b6100c8610105366004610bdf565b61053d565b6100c8610651565b6100c8610120366004610c30565b610664565b6100c861076e565b6101356107b2565b6040516100ee9493929190610c93565b61018c610153366004610c30565b61ffff165f9081526002602052604090205460ff81169161010082046001600160401b031691600160481b90046001600160801b031690565b6040516100ee93929190610d41565b5f546001600160a01b03165b6040516001600160a01b0390911681526020016100ee565b6101c7600181565b60405160ff90911681526020016100ee565b6001546001600160a01b03166101a7565b6100c86101f8366004610d6e565b61097d565b6102056109ed565b86851415806102145750868314155b8061021f5750868114155b15610240576040516001621398b960e31b0319815260040160405180910390fd5b5f5b8781101561053257600187878381811061025e5761025e610d94565b90506020020160208101906102739190610da8565b60ff1611156102c75786868281811061028e5761028e610d94565b90506020020160208101906102a39190610da8565b6040516395e8684760e01b815260ff90911660048201526024015b60405180910390fd5b60405180606001604052808888848181106102e4576102e4610d94565b90506020020160208101906102f99190610da8565b60ff16815260200186868481811061031357610313610d94565b90506020020160208101906103289190610dc1565b6001600160401b0316815260200184848481811061034857610348610d94565b905060200201602081019061035d9190610dda565b6001600160801b0316905260025f8b8b8581811061037d5761037d610d94565b90506020020160208101906103929190610c30565b61ffff16815260208082019290925260409081015f908120845181549486015195909301516001600160801b0316600160481b02600160481b600160c81b03196001600160401b039096166101000268ffffffffffffffffff1990951660ff9094169390931793909317939093161790556001906003908b8b8581811061041b5761041b610d94565b90506020020160208101906104309190610c30565b61ffff16815260208101919091526040015f20805460ff191691151591909117905588888281811061046457610464610d94565b90506020020160208101906104799190610c30565b61ffff167f23abd3f836ff9196897dc19fe4cfddd81d371ef834c741aa5a301184b95019a48888848181106104b0576104b0610d94565b90506020020160208101906104c59190610da8565b8787858181106104d7576104d7610d94565b90506020020160208101906104ec9190610dc1565b8686868181106104fe576104fe610d94565b90506020020160208101906105139190610dda565b60405161052293929190610d41565b60405180910390a2600101610242565b505050505050505050565b6105456109ed565b600160ff8416111561056f576040516395e8684760e01b815260ff841660048201526024016102be565b6040805160608101825260ff80861682526001600160401b0380861660208085019182526001600160801b0380881686880190815261ffff8c165f818152600285528981209851895496519351909416600160481b02600160481b600160c81b0319939097166101000268ffffffffffffffffff19909616939097169290921793909317929092169290921790935560039052829020805460ff1916600117905590517f23abd3f836ff9196897dc19fe4cfddd81d371ef834c741aa5a301184b95019a49061064390869086908690610d41565b60405180910390a250505050565b6106596109ed565b6106625f610a19565b565b61066c6109ed565b8061ffff165f036106905760405163237d57e760e11b815260040160405180910390fd5b60015461ffff600160a01b9091048116908216036106c157604051633f97b70f60e21b815260040160405180910390fd5b5f5b8161ffff16811015610708575f8181526003602052604090205460ff16610700576040516308254a5360e31b8152600481018290526024016102be565b6001016106c3565b506001805461ffff838116600160a01b81810261ffff60a01b1985161790945560408051949093049091168084526020840191909152917f93dd64ec71739a5c733d508727b3cb47c968a560417f1da17fe560bc8875a59b910160405180910390a15050565b60015433906001600160a01b031681146107a65760405163118cdaa760e01b81526001600160a01b03821660048201526024016102be565b6107af81610a19565b50565b600154600160a01b900461ffff1660608080836001600160401b038111156107dc576107dc610df3565b604051908082528060200260200182016040528015610805578160200160208202803683370190505b5092508361ffff166001600160401b0381111561082457610824610df3565b60405190808252806020026020018201604052801561084d578160200160208202803683370190505b5091508361ffff166001600160401b0381111561086c5761086c610df3565b604051908082528060200260200182016040528015610895578160200160208202803683370190505b5090505f5b8461ffff16811015610976575f8181526002602052604090208054855160ff909116908690849081106108cf576108cf610d94565b602002602001019060ff16908160ff1681525050805f0160019054906101000a90046001600160401b031684838151811061090c5761090c610d94565b60200260200101906001600160401b031690816001600160401b031681525050805f0160099054906101000a90046001600160801b031683838151811061095557610955610d94565b6001600160801b03909216602092830291909101909101525060010161089a565b5090919293565b6109856109ed565b600180546001600160a01b0383166001600160a01b031990911681179091556109b55f546001600160a01b031690565b6001600160a01b03167f38d16b8cac22d99fc7c124b9cd0de2d3fa1faef420bfe791d8c362d765e2270060405160405180910390a350565b5f546001600160a01b031633146106625760405163118cdaa760e01b81523360048201526024016102be565b600180546001600160a01b03191690556107af815f80546001600160a01b038381166001600160a01b0319831681178455604051919092169283917f8be0079c531659141344cd1fd0a4f28419497f9722a3daafe3b4186f6b6457e09190a35050565b5f5f83601f840112610a8c575f5ffd5b5081356001600160401b03811115610aa2575f5ffd5b6020830191508360208260051b8501011115610abc575f5ffd5b9250929050565b5f5f5f5f5f5f5f5f6080898b031215610ada575f5ffd5b88356001600160401b03811115610aef575f5ffd5b610afb8b828c01610a7c565b90995097505060208901356001600160401b03811115610b19575f5ffd5b610b258b828c01610a7c565b90975095505060408901356001600160401b03811115610b43575f5ffd5b610b4f8b828c01610a7c565b90955093505060608901356001600160401b03811115610b6d575f5ffd5b610b798b828c01610a7c565b999c989b5096995094979396929594505050565b803561ffff81168114610b9e575f5ffd5b919050565b803560ff81168114610b9e575f5ffd5b80356001600160401b0381168114610b9e575f5ffd5b80356001600160801b0381168114610b9e575f5ffd5b5f5f5f5f60808587031215610bf2575f5ffd5b610bfb85610b8d565b9350610c0960208601610ba3565b9250610c1760408601610bb3565b9150610c2560608601610bc9565b905092959194509250565b5f60208284031215610c40575f5ffd5b610c4982610b8d565b9392505050565b5f8151808452602084019350602083015f5b82811015610c895781516001600160801b0316865260209586019590910190600101610c62565b5093949350505050565b5f6080820161ffff871683526080602084015280865180835260a0850191506020880192505f5b81811015610cdb57835160ff16835260209384019390920191600101610cba565b50508381036040850152855180825260209182019250908601905f90815b81811015610d205783516001600160401b0316855260209485019490930192600101610cf9565b505050508281036060840152610d368185610c50565b979650505050505050565b60ff9390931683526001600160401b039190911660208301526001600160801b0316604082015260600190565b5f60208284031215610d7e575f5ffd5b81356001600160a01b0381168114610c49575f5ffd5b634e487b7160e01b5f52603260045260245ffd5b5f60208284031215610db8575f5ffd5b610c4982610ba3565b5f60208284031215610dd1575f5ffd5b610c4982610bb3565b5f60208284031215610dea575f5ffd5b610c4982610bc9565b634e487b7160e01b5f52604160045260245ffdfea164736f6c6343000823000a","linkReferences":{}},"methodIdentifiers":{"MAX_STRATEGY()":"de7d1ab7","acceptOwnership()":"79ba5097","getAllWorkerConfigs()":"7bedc791","getWorkerConfig(uint16)":"8235c3f7","numWorkers()":"57eb3b30","owner()":"8da5cb5b","pendingOwner()":"e30c3978","renounceOwnership()":"715018a6","setNumWorkers(uint16)":"769d2bbf","setWorkerConfig(uint16,uint8,uint64,uint128)":"6b87694b","setWorkerConfigsBatch(uint16[],uint8[],uint64[],uint128[])":"115163e9","transferOwnership(address)":"f2fde38b"},"id":160}