{"abi":[{"type":"constructor","inputs":[{"name":"strategies","type":"uint8[]","internalType":"uint8[]"},{"name":"values","type":"uint64[]","internalType":"uint64[]"},{"name":"owner_","type":"address","internalType":"address"}],"stateMutability":"nonpayable"},{"type":"function","name":"MIN_GAS","inputs":[],"outputs":[{"name":"","type":"uint64","internalType":"uint64"}],"stateMutability":"view"},{"type":"function","name":"acceptOwnership","inputs":[],"outputs":[],"stateMutability":"nonpayable"},{"type":"function","name":"getWorkerConfig","inputs":[{"name":"workerId","type":"uint16","internalType":"uint16"}],"outputs":[{"name":"strategy","type":"uint8","internalType":"uint8"},{"name":"value","type":"uint64","internalType":"uint64"}],"stateMutability":"view"},{"type":"function","name":"numWorkers","inputs":[],"outputs":[{"name":"","type":"uint16","internalType":"uint16"}],"stateMutability":"view"},{"type":"function","name":"owner","inputs":[],"outputs":[{"name":"","type":"address","internalType":"address"}],"stateMutability":"view"},{"type":"function","name":"pendingOwner","inputs":[],"outputs":[{"name":"","type":"address","internalType":"address"}],"stateMutability":"view"},{"type":"function","name":"renounceOwnership","inputs":[],"outputs":[],"stateMutability":"nonpayable"},{"type":"function","name":"setNumWorkers","inputs":[{"name":"numWorkers_","type":"uint16","internalType":"uint16"}],"outputs":[],"stateMutability":"nonpayable"},{"type":"function","name":"setWorkerConfig","inputs":[{"name":"workerId","type":"uint16","internalType":"uint16"},{"name":"strategy","type":"uint8","internalType":"uint8"},{"name":"value","type":"uint64","internalType":"uint64"}],"outputs":[],"stateMutability":"nonpayable"},{"type":"function","name":"setWorkerConfigsBatch","inputs":[{"name":"workerIds","type":"uint16[]","internalType":"uint16[]"},{"name":"strategies","type":"uint8[]","internalType":"uint8[]"},{"name":"values","type":"uint64[]","internalType":"uint64[]"}],"outputs":[],"stateMutability":"nonpayable"},{"type":"function","name":"transferOwnership","inputs":[{"name":"newOwner","type":"address","internalType":"address"}],"outputs":[],"stateMutability":"nonpayable"},{"type":"event","name":"NumWorkersUpdated","inputs":[{"name":"oldValue","type":"uint16","indexed":false,"internalType":"uint16"},{"name":"newValue","type":"uint16","indexed":false,"internalType":"uint16"}],"anonymous":false},{"type":"event","name":"OwnershipTransferStarted","inputs":[{"name":"previousOwner","type":"address","indexed":true,"internalType":"address"},{"name":"newOwner","type":"address","indexed":true,"internalType":"address"}],"anonymous":false},{"type":"event","name":"OwnershipTransferred","inputs":[{"name":"previousOwner","type":"address","indexed":true,"internalType":"address"},{"name":"newOwner","type":"address","indexed":true,"internalType":"address"}],"anonymous":false},{"type":"event","name":"WorkerConfigUpdated","inputs":[{"name":"workerId","type":"uint256","indexed":true,"internalType":"uint256"},{"name":"strategy","type":"uint8","indexed":false,"internalType":"uint8"},{"name":"value","type":"uint64","indexed":false,"internalType":"uint64"}],"anonymous":false},{"type":"error","name":"LengthMismatch","inputs":[]},{"type":"error","name":"MissingWorkerConfig","inputs":[{"name":"workerId","type":"uint256","internalType":"uint256"}]},{"type":"error","name":"NumWorkersBelowMinimum","inputs":[]},{"type":"error","name":"NumWorkersUnchanged","inputs":[]},{"type":"error","name":"OwnableInvalidOwner","inputs":[{"name":"owner","type":"address","internalType":"address"}]},{"type":"error","name":"OwnableUnauthorizedAccount","inputs":[{"name":"account","type":"address","internalType":"address"}]},{"type":"error","name":"ValueBelowMinGas","inputs":[{"name":"value","type":"uint64","internalType":"uint64"}]}],"bytecode":{"object":"0x608060405234801561000f575f80fd5b50604051610e7a380380610e7a83398101604081905261002e916103e8565b806001600160a01b03811661005d57604051631e4fbdf760e01b81525f60048201526024015b60405180910390fd5b6100668161027e565b50825161ffff81165f0361008d5760405163237d57e760e11b815260040160405180910390fd5b82518161ffff16146100b5576040516001621398b960e31b0319815260040160405180910390fd5b6001805461ffff60a01b1916600160a01b61ffff8416021790555f5b8161ffff168110156102745760076001600160401b03168482815181106100fa576100fa6104c1565b60200260200101516001600160401b0316101561015457838181518110610123576101236104c1565b60200260200101516040516310332b1d60e21b815260040161005491906001600160401b0391909116815260200190565b6040518060400160405280868381518110610171576101716104c1565b602002602001015160ff168152602001858381518110610193576101936104c1565b6020908102919091018101516001600160401b039081169092525f8481526002825260409020835181549490920151909216610100026001600160481b031990931660ff90911617919091179055845161ffff8216907ff180fb520adc17c274b96e9d8454cf6f2066192f458b68071f80d708b17ca98d9087908490811061021d5761021d6104c1565b6020026020010151868481518110610237576102376104c1565b602002602001015160405161026492919060ff9290921682526001600160401b0316602082015260400190565b60405180910390a26001016100d1565b50505050506104d5565b600180546001600160a01b03191690556102978161029a565b50565b5f80546001600160a01b038381166001600160a01b0319831681178455604051919092169283917f8be0079c531659141344cd1fd0a4f28419497f9722a3daafe3b4186f6b6457e09190a35050565b634e487b7160e01b5f52604160045260245ffd5b604051601f8201601f191681016001600160401b0381118282101715610325576103256102e9565b604052919050565b5f6001600160401b03821115610345576103456102e9565b5060051b60200190565b5f82601f83011261035e575f80fd5b815161037161036c8261032d565b6102fd565b8082825260208201915060208360051b860101925085831115610392575f80fd5b602085015b838110156103c35780516001600160401b03811681146103b5575f80fd5b835260209283019201610397565b5095945050505050565b80516001600160a01b03811681146103e3575f80fd5b919050565b5f805f606084860312156103fa575f80fd5b83516001600160401b0381111561040f575f80fd5b8401601f8101861361041f575f80fd5b805161042d61036c8261032d565b8082825260208201915060208360051b85010192508883111561044e575f80fd5b6020840193505b8284101561047e57835160ff8116811461046d575f80fd5b825260209384019390910190610455565b6020880151909650925050506001600160401b0381111561049d575f80fd5b6104a98682870161034f565b9250506104b8604085016103cd565b90509250925092565b634e487b7160e01b5f52603260045260245ffd5b610998806104e25f395ff3fe608060405234801561000f575f80fd5b50600436106100a5575f3560e01c806379ba50971161006e57806379ba5097146101265780638235c3f71461012e5780638da5cb5b14610186578063e30c3978146101aa578063f0a0f469146101bb578063f2fde38b146101ce575f80fd5b8062d506bb146100a957806320d2c951146100be57806357eb3b30146100e3578063715018a61461010b578063769d2bbf14610113575b5f80fd5b6100bc6100b73660046107dc565b6101e1565b005b6100c6600781565b6040516001600160401b0390911681526020015b60405180910390f35b6001546100f890600160a01b900461ffff1681565b60405161ffff90911681526020016100da565b6100bc6102be565b6100bc61012136600461081c565b6102d1565b6100bc6103eb565b61016561013c36600461081c565b61ffff165f9081526002602052604090205460ff8116916101009091046001600160401b031690565b6040805160ff90931683526001600160401b039091166020830152016100da565b5f546001600160a01b03165b6040516001600160a01b0390911681526020016100da565b6001546001600160a01b0316610192565b6100bc6101c9366004610883565b61042f565b6100bc6101dc36600461091f565b6106a1565b6101e9610711565b60076001600160401b0382161015610224576040516310332b1d60e21b81526001600160401b03821660048201526024015b60405180910390fd5b60408051808201825260ff8481168083526001600160401b03858116602080860182815261ffff8b165f818152600284528990209751885492519095166101000268ffffffffffffffffff199092169490961693909317929092179094558451918252810192909252917ff180fb520adc17c274b96e9d8454cf6f2066192f458b68071f80d708b17ca98d910160405180910390a2505050565b6102c6610711565b6102cf5f61073d565b565b6102d9610711565b8061ffff165f036102fd5760405163237d57e760e11b815260040160405180910390fd5b60015461ffff600160a01b90910481169082160361032e57604051633f97b70f60e21b815260040160405180910390fd5b5f5b8161ffff16811015610385575f8181526002602052604090205460076101009091046001600160401b0316101561037d576040516308254a5360e31b81526004810182905260240161021b565b600101610330565b506001805461ffff838116600160a01b81810261ffff60a01b1985161790945560408051949093049091168084526020840191909152917f93dd64ec71739a5c733d508727b3cb47c968a560417f1da17fe560bc8875a59b910160405180910390a15050565b60015433906001600160a01b031681146104235760405163118cdaa760e01b81526001600160a01b038216600482015260240161021b565b61042c8161073d565b50565b610437610711565b84831415806104465750848114155b15610467576040516001621398b960e31b0319815260040160405180910390fd5b5f5b8581101561069857600783838381811061048557610485610945565b905060200201602081019061049a9190610959565b6001600160401b031610156104f5578282828181106104bb576104bb610945565b90506020020160208101906104d09190610959565b6040516310332b1d60e21b81526001600160401b03909116600482015260240161021b565b604051806040016040528086868481811061051257610512610945565b90506020020160208101906105279190610972565b60ff16815260200184848481811061054157610541610945565b90506020020160208101906105569190610959565b6001600160401b0316905260025f89898581811061057657610576610945565b905060200201602081019061058b919061081c565b61ffff1681526020808201929092526040015f208251815493909201516001600160401b03166101000268ffffffffffffffffff1990931660ff909216919091179190911790558686828181106105e4576105e4610945565b90506020020160208101906105f9919061081c565b61ffff167ff180fb520adc17c274b96e9d8454cf6f2066192f458b68071f80d708b17ca98d86868481811061063057610630610945565b90506020020160208101906106459190610972565b85858581811061065757610657610945565b905060200201602081019061066c9190610959565b6040805160ff90931683526001600160401b0390911660208301520160405180910390a2600101610469565b50505050505050565b6106a9610711565b600180546001600160a01b0383166001600160a01b031990911681179091556106d95f546001600160a01b031690565b6001600160a01b03167f38d16b8cac22d99fc7c124b9cd0de2d3fa1faef420bfe791d8c362d765e2270060405160405180910390a350565b5f546001600160a01b031633146102cf5760405163118cdaa760e01b815233600482015260240161021b565b600180546001600160a01b031916905561042c815f80546001600160a01b038381166001600160a01b0319831681178455604051919092169283917f8be0079c531659141344cd1fd0a4f28419497f9722a3daafe3b4186f6b6457e09190a35050565b803561ffff811681146107b1575f80fd5b919050565b803560ff811681146107b1575f80fd5b80356001600160401b03811681146107b1575f80fd5b5f805f606084860312156107ee575f80fd5b6107f7846107a0565b9250610805602085016107b6565b9150610813604085016107c6565b90509250925092565b5f6020828403121561082c575f80fd5b610835826107a0565b9392505050565b5f8083601f84011261084c575f80fd5b5081356001600160401b03811115610862575f80fd5b6020830191508360208260051b850101111561087c575f80fd5b9250929050565b5f805f805f8060608789031215610898575f80fd5b86356001600160401b038111156108ad575f80fd5b6108b989828a0161083c565b90975095505060208701356001600160401b038111156108d7575f80fd5b6108e389828a0161083c565b90955093505060408701356001600160401b03811115610901575f80fd5b61090d89828a0161083c565b979a9699509497509295939492505050565b5f6020828403121561092f575f80fd5b81356001600160a01b0381168114610835575f80fd5b634e487b7160e01b5f52603260045260245ffd5b5f60208284031215610969575f80fd5b610835826107c6565b5f60208284031215610982575f80fd5b610835826107b656fea164736f6c634300081a000a","linkReferences":{}},"methodIdentifiers":{"MIN_GAS()":"20d2c951","acceptOwnership()":"79ba5097","getWorkerConfig(uint16)":"8235c3f7","numWorkers()":"57eb3b30","owner()":"8da5cb5b","pendingOwner()":"e30c3978","renounceOwnership()":"715018a6","setNumWorkers(uint16)":"769d2bbf","setWorkerConfig(uint16,uint8,uint64)":"00d506bb","setWorkerConfigsBatch(uint16[],uint8[],uint64[])":"f0a0f469","transferOwnership(address)":"f2fde38b"},"id":22}